{
  "abi": [
    {
      "inputs": [
        {
          "internalType": "string",
          "name": "_name",
          "type": "string"
        },
        {
          "internalType": "address",
          "name": "_pool",
          "type": "address"
        },
        {
          "internalType": "uint256",
          "name": "_swapGasEstimate",
          "type": "uint256"
        }
      ],
      "stateMutability": "nonpayable",
      "type": "constructor"
    },
    {
      "anonymous": false,
      "inputs": [
        {
          "indexed": true,
          "internalType": "address",
          "name": "_asset",
          "type": "address"
        },
        {
          "indexed": false,
          "internalType": "uint256",
          "name": "amount",
          "type": "uint256"
        }
      ],
      "name": "Recovered",
      "type": "event"
    },
    {
      "anonymous": false,
      "inputs": [
        {
          "indexed": true,
          "internalType": "bytes32",
          "name": "role",
          "type": "bytes32"
        },
        {
          "indexed": true,
          "internalType": "bytes32",
          "name": "previousAdminRole",
          "type": "bytes32"
        },
        {
          "indexed": true,
          "internalType": "bytes32",
          "name": "newAdminRole",
          "type": "bytes32"
        }
      ],
      "name": "RoleAdminChanged",
      "type": "event"
    },
    {
      "anonymous": false,
      "inputs": [
        {
          "indexed": true,
          "internalType": "bytes32",
          "name": "role",
          "type": "bytes32"
        },
        {
          "indexed": true,
          "internalType": "address",
          "name": "account",
          "type": "address"
        },
        {
          "indexed": true,
          "internalType": "address",
          "name": "sender",
          "type": "address"
        }
      ],
      "name": "RoleGranted",
      "type": "event"
    },
    {
      "anonymous": false,
      "inputs": [
        {
          "indexed": true,
          "internalType": "bytes32",
          "name": "role",
          "type": "bytes32"
        },
        {
          "indexed": true,
          "internalType": "address",
          "name": "account",
          "type": "address"
        },
        {
          "indexed": true,
          "internalType": "address",
          "name": "sender",
          "type": "address"
        }
      ],
      "name": "RoleRevoked",
      "type": "event"
    },
    {
      "anonymous": false,
      "inputs": [
        {
          "indexed": true,
          "internalType": "address",
          "name": "_adapter",
          "type": "address"
        },
        {
          "indexed": false,
          "internalType": "uint256",
          "name": "_newEstimate",
          "type": "uint256"
        }
      ],
      "name": "UpdatedGasEstimate",
      "type": "event"
    },
    {
      "anonymous": false,
      "inputs": [
        {
          "indexed": true,
          "internalType": "address",
          "name": "_tokenFrom",
          "type": "address"
        },
        {
          "indexed": true,
          "internalType": "address",
          "name": "_tokenTo",
          "type": "address"
        },
        {
          "indexed": false,
          "internalType": "uint256",
          "name": "_amountIn",
          "type": "uint256"
        },
        {
          "indexed": false,
          "internalType": "uint256",
          "name": "_amountOut",
          "type": "uint256"
        }
      ],
      "name": "YakAdapterSwap",
      "type": "event"
    },
    {
      "inputs": [],
      "name": "DEFAULT_ADMIN_ROLE",
      "outputs": [
        {
          "internalType": "bytes32",
          "name": "",
          "type": "bytes32"
        }
      ],
      "stateMutability": "view",
      "type": "function"
    },
    {
      "inputs": [],
      "name": "MAINTAINER_ROLE",
      "outputs": [
        {
          "internalType": "bytes32",
          "name": "",
          "type": "bytes32"
        }
      ],
      "stateMutability": "view",
      "type": "function"
    },
    {
      "inputs": [],
      "name": "POOL",
      "outputs": [
        {
          "internalType": "address",
          "name": "",
          "type": "address"
        }
      ],
      "stateMutability": "view",
      "type": "function"
    },
    {
      "inputs": [
        {
          "internalType": "address",
          "name": "addedMaintainer",
          "type": "address"
        }
      ],
      "name": "addMaintainer",
      "outputs": [],
      "stateMutability": "nonpayable",
      "type": "function"
    },
    {
      "inputs": [
        {
          "internalType": "bytes32",
          "name": "role",
          "type": "bytes32"
        }
      ],
      "name": "getRoleAdmin",
      "outputs": [
        {
          "internalType": "bytes32",
          "name": "",
          "type": "bytes32"
        }
      ],
      "stateMutability": "view",
      "type": "function"
    },
    {
      "inputs": [
        {
          "internalType": "bytes32",
          "name": "role",
          "type": "bytes32"
        },
        {
          "internalType": "address",
          "name": "account",
          "type": "address"
        }
      ],
      "name": "grantRole",
      "outputs": [],
      "stateMutability": "nonpayable",
      "type": "function"
    },
    {
      "inputs": [
        {
          "internalType": "bytes32",
          "name": "role",
          "type": "bytes32"
        },
        {
          "internalType": "address",
          "name": "account",
          "type": "address"
        }
      ],
      "name": "hasRole",
      "outputs": [
        {
          "internalType": "bool",
          "name": "",
          "type": "bool"
        }
      ],
      "stateMutability": "view",
      "type": "function"
    },
    {
      "inputs": [
        {
          "internalType": "address",
          "name": "",
          "type": "address"
        }
      ],
      "name": "isPoolToken",
      "outputs": [
        {
          "internalType": "bool",
          "name": "",
          "type": "bool"
        }
      ],
      "stateMutability": "view",
      "type": "function"
    },
    {
      "inputs": [],
      "name": "name",
      "outputs": [
        {
          "internalType": "string",
          "name": "",
          "type": "string"
        }
      ],
      "stateMutability": "view",
      "type": "function"
    },
    {
      "inputs": [
        {
          "internalType": "uint256",
          "name": "_amountIn",
          "type": "uint256"
        },
        {
          "internalType": "address",
          "name": "_tokenIn",
          "type": "address"
        },
        {
          "internalType": "address",
          "name": "_tokenOut",
          "type": "address"
        }
      ],
      "name": "query",
      "outputs": [
        {
          "internalType": "uint256",
          "name": "",
          "type": "uint256"
        }
      ],
      "stateMutability": "view",
      "type": "function"
    },
    {
      "inputs": [
        {
          "internalType": "uint256",
          "name": "_amount",
          "type": "uint256"
        }
      ],
      "name": "recoverAVAX",
      "outputs": [],
      "stateMutability": "nonpayable",
      "type": "function"
    },
    {
      "inputs": [
        {
          "internalType": "address",
          "name": "_tokenAddress",
          "type": "address"
        },
        {
          "internalType": "uint256",
          "name": "_tokenAmount",
          "type": "uint256"
        }
      ],
      "name": "recoverERC20",
      "outputs": [],
      "stateMutability": "nonpayable",
      "type": "function"
    },
    {
      "inputs": [
        {
          "internalType": "address",
          "name": "removedMaintainer",
          "type": "address"
        }
      ],
      "name": "removeMaintainer",
      "outputs": [],
      "stateMutability": "nonpayable",
      "type": "function"
    },
    {
      "inputs": [
        {
          "internalType": "bytes32",
          "name": "role",
          "type": "bytes32"
        },
        {
          "internalType": "address",
          "name": "account",
          "type": "address"
        }
      ],
      "name": "renounceRole",
      "outputs": [],
      "stateMutability": "nonpayable",
      "type": "function"
    },
    {
      "inputs": [
        {
          "internalType": "bytes32",
          "name": "role",
          "type": "bytes32"
        }
      ],
      "name": "renounceRole",
      "outputs": [],
      "stateMutability": "nonpayable",
      "type": "function"
    },
    {
      "inputs": [
        {
          "internalType": "address",
          "name": "_token",
          "type": "address"
        },
        {
          "internalType": "address",
          "name": "_spender",
          "type": "address"
        }
      ],
      "name": "revokeAllowance",
      "outputs": [],
      "stateMutability": "nonpayable",
      "type": "function"
    },
    {
      "inputs": [
        {
          "internalType": "bytes32",
          "name": "role",
          "type": "bytes32"
        },
        {
          "internalType": "address",
          "name": "account",
          "type": "address"
        }
      ],
      "name": "revokeRole",
      "outputs": [],
      "stateMutability": "nonpayable",
      "type": "function"
    },
    {
      "inputs": [
        {
          "internalType": "uint256",
          "name": "_estimate",
          "type": "uint256"
        }
      ],
      "name": "setSwapGasEstimate",
      "outputs": [],
      "stateMutability": "nonpayable",
      "type": "function"
    },
    {
      "inputs": [
        {
          "internalType": "bytes4",
          "name": "interfaceId",
          "type": "bytes4"
        }
      ],
      "name": "supportsInterface",
      "outputs": [
        {
          "internalType": "bool",
          "name": "",
          "type": "bool"
        }
      ],
      "stateMutability": "view",
      "type": "function"
    },
    {
      "inputs": [
        {
          "internalType": "uint256",
          "name": "_amountIn",
          "type": "uint256"
        },
        {
          "internalType": "uint256",
          "name": "_amountOut",
          "type": "uint256"
        },
        {
          "internalType": "address",
          "name": "_fromToken",
          "type": "address"
        },
        {
          "internalType": "address",
          "name": "_toToken",
          "type": "address"
        },
        {
          "internalType": "address",
          "name": "_to",
          "type": "address"
        }
      ],
      "name": "swap",
      "outputs": [],
      "stateMutability": "nonpayable",
      "type": "function"
    },
    {
      "inputs": [],
      "name": "swapGasEstimate",
      "outputs": [
        {
          "internalType": "uint256",
          "name": "",
          "type": "uint256"
        }
      ],
      "stateMutability": "view",
      "type": "function"
    },
    {
      "inputs": [
        {
          "internalType": "address",
          "name": "",
          "type": "address"
        }
      ],
      "name": "tokenIndex",
      "outputs": [
        {
          "internalType": "uint256",
          "name": "",
          "type": "uint256"
        }
      ],
      "stateMutability": "view",
      "type": "function"
    },
    {
      "inputs": [
        {
          "internalType": "address",
          "name": "newOwner",
          "type": "address"
        }
      ],
      "name": "transferOwnership",
      "outputs": [],
      "stateMutability": "nonpayable",
      "type": "function"
    },
    {
      "stateMutability": "payable",
      "type": "receive"
    }
  ],
  "bytecode": {
    "object": "0x60a06040523480156200001157600080fd5b5060405162002150380380620021508339810160408190526200003491620006e2565b82813362000044600082620000b4565b6200005f6000805160206200213083398151915282620000b4565b506200006b82620000c4565b620000768162000129565b506002905062000087848262000846565b506001600160a01b038216608052620000a08262000234565b620000ab8162000129565b505050620009b4565b620000c082826200027e565b5050565b80516000036200011b5760405162461bcd60e51b815260206004820152601460248201527f496e76616c69642061646170746572206e616d6500000000000000000000000060448201526064015b60405180910390fd5b6002620000c0828262000846565b3362000145600080516020620021308339815191528262000306565b620001a45760405162461bcd60e51b815260206004820152602860248201527f4d61696e7461696e61626c653a2043616c6c6572206973206e6f742061206d6160448201526734b73a30b4b732b960c11b606482015260840162000112565b81600003620001f65760405162461bcd60e51b815260206004820152601460248201527f496e76616c6964206761732d657374696d617465000000000000000000000000604482015260640162000112565b600182905560405182815230907ff43f23b7a28e6f8ce6843a21bd7b48bce778aa913b8c8cf459edf7d770e8d38a9060200160405180910390a25050565b60005b600062000245838362000331565b90506001600160a01b0381166200025b57505050565b62000268838284620003a6565b5080620002758162000912565b91505062000237565b6200028a828262000306565b620000c0576000828152602081815260408083206001600160a01b03851684529091529020805460ff19166001179055620002c23390565b6001600160a01b0316816001600160a01b0316837f2f8788117e7eff1d82e926ec794901d17c78024a50270940304540a733656f0d60405160405180910390a45050565b6000828152602081815260408083206001600160a01b038516845290915290205460ff165b92915050565b60405163c661065760e01b8152600481018290526000906001600160a01b0384169063c661065790602401602060405180830381865afa92505050801562000398575060408051601f3d908101601f1916820190925262000395918101906200093a565b60015b156200032b575b9392505050565b620003cd83600019846001600160a01b03166200040060201b62000b3c179092919060201c565b6001600160a01b039091166000908152600360209081526040808320939093556004905220805460ff1916600117905550565b8015806200047e5750604051636eb1769f60e11b81523060048201526001600160a01b03838116602483015284169063dd62ed3e90604401602060405180830381865afa15801562000456573d6000803e3d6000fd5b505050506040513d601f19601f820116820180604052508101906200047c919062000958565b155b620004f25760405162461bcd60e51b815260206004820152603660248201527f5361666545524332303a20617070726f76652066726f6d206e6f6e2d7a65726f60448201527f20746f206e6f6e2d7a65726f20616c6c6f77616e636500000000000000000000606482015260840162000112565b604080516001600160a01b038416602482015260448082018490528251808303909101815260649091019091526020810180516001600160e01b0390811663095ea7b360e01b179091526200054a9185916200054f16565b505050565b600080836001600160a01b0316836040516200056c919062000972565b6000604051808303816000865af19150503d8060008114620005ab576040519150601f19603f3d011682016040523d82523d6000602084013e620005b0565b606091505b509150915081620006045760405162461bcd60e51b815260206004820181905260248201527f5361666545524332303a206c6f772d6c6576656c2063616c6c206661696c6564604482015260640162000112565b80511562000683578080602001905181019062000622919062000990565b620006835760405162461bcd60e51b815260206004820152602a60248201527f5361666545524332303a204552433230206f7065726174696f6e20646964206e6044820152691bdd081cdd58d8d9595960b21b606482015260840162000112565b50505050565b634e487b7160e01b600052604160045260246000fd5b60005b83811015620006bc578181015183820152602001620006a2565b50506000910152565b80516001600160a01b0381168114620006dd57600080fd5b919050565b600080600060608486031215620006f857600080fd5b83516001600160401b03808211156200071057600080fd5b818601915086601f8301126200072557600080fd5b8151818111156200073a576200073a62000689565b604051601f8201601f19908116603f0116810190838211818310171562000765576200076562000689565b816040528281528960208487010111156200077f57600080fd5b620007928360208301602088016200069f565b8097505050505050620007a860208501620006c5565b9150604084015190509250925092565b600181811c90821680620007cd57607f821691505b602082108103620007ee57634e487b7160e01b600052602260045260246000fd5b50919050565b601f8211156200054a57600081815260208120601f850160051c810160208610156200081d5750805b601f850160051c820191505b818110156200083e5782815560010162000829565b505050505050565b81516001600160401b0381111562000862576200086262000689565b6200087a81620008738454620007b8565b84620007f4565b602080601f831160018114620008b25760008415620008995750858301515b600019600386901b1c1916600185901b1785556200083e565b600085815260208120601f198616915b82811015620008e357888601518255948401946001909101908401620008c2565b5085821015620009025787850151600019600388901b60f8161c191681555b5050505050600190811b01905550565b6000600182016200093357634e487b7160e01b600052601160045260246000fd5b5060010190565b6000602082840312156200094d57600080fd5b6200039f82620006c5565b6000602082840312156200096b57600080fd5b5051919050565b60008251620009868184602087016200069f565b9190910192915050565b600060208284031215620009a357600080fd5b815180151581146200039f57600080fd5b608051611752620009de600039600081816102bc01528181610df5015261112201526117526000f3fe6080604052600436106101445760003560e01c806384a33e63116100b6578063d8baf7cf1161006f578063d8baf7cf146103cb578063de260f37146103eb578063eab90da61461041b578063ef99893a1461043b578063f2fde38b1461045b578063f87422541461047b57600080fd5b806384a33e63146103165780638980f11f146103365780638bb9c5bf1461035657806391d1485414610376578063a217fddf14610396578063d547741f146103ab57600080fd5b8063427f91a611610108578063427f91a6146102275780634ebb79161461025457806369cff80d146102745780636b453c1f1461028a5780637535d246146102aa5780637ae26773146102f657600080fd5b806301ffc9a71461015057806306fdde0314610185578063248a9ca3146101a75780632f2ff15d146101e557806336568abe1461020757600080fd5b3661014b57005b600080fd5b34801561015c57600080fd5b5061017061016b366004611334565b61049d565b60405190151581526020015b60405180910390f35b34801561019157600080fd5b5061019a6104d4565b60405161017c9190611382565b3480156101b357600080fd5b506101d76101c23660046113b5565b60009081526020819052604090206001015490565b60405190815260200161017c565b3480156101f157600080fd5b506102056102003660046113ea565b610562565b005b34801561021357600080fd5b506102056102223660046113ea565b61058c565b34801561023357600080fd5b506101d7610242366004611416565b60036020526000908152604090205481565b34801561026057600080fd5b5061020561026f3660046113b5565b61060f565b34801561028057600080fd5b506101d760015481565b34801561029657600080fd5b506102056102a5366004611416565b6106fd565b3480156102b657600080fd5b506102de7f000000000000000000000000000000000000000000000000000000000000000081565b6040516001600160a01b03909116815260200161017c565b34801561030257600080fd5b50610205610311366004611431565b610718565b34801561032257600080fd5b506102056103313660046113b5565b610762565b34801561034257600080fd5b5061020561035136600461145b565b610815565b34801561036257600080fd5b506102056103713660046113b5565b6108f6565b34801561038257600080fd5b506101706103913660046113ea565b610901565b3480156103a257600080fd5b506101d7600081565b3480156103b757600080fd5b506102056103c63660046113ea565b61092a565b3480156103d757600080fd5b506102056103e6366004611416565b61094f565b3480156103f757600080fd5b50610170610406366004611416565b60046020526000908152604090205460ff1681565b34801561042757600080fd5b50610205610436366004611485565b610967565b34801561044757600080fd5b506101d76104563660046114dc565b610b0e565b34801561046757600080fd5b50610205610476366004611416565b610b25565b34801561048757600080fd5b506101d76000805160206116fd83398151915281565b60006001600160e01b03198216637965db0b60e01b14806104ce57506301ffc9a760e01b6001600160e01b03198316145b92915050565b600280546104e190611518565b80601f016020809104026020016040519081016040528092919081815260200182805461050d90611518565b801561055a5780601f1061052f5761010080835404028352916020019161055a565b820191906000526020600020905b81548152906001019060200180831161053d57829003601f168201915b505050505081565b60008281526020819052604090206001015461057d81610c84565b6105878383610c8e565b505050565b6001600160a01b03811633146106015760405162461bcd60e51b815260206004820152602f60248201527f416363657373436f6e74726f6c3a2063616e206f6e6c792072656e6f756e636560448201526e103937b632b9903337b91039b2b63360891b60648201526084015b60405180910390fd5b61060b8282610d12565b5050565b336106286000805160206116fd83398151915282610901565b6106445760405162461bcd60e51b81526004016105f890611552565b600082116106945760405162461bcd60e51b815260206004820152601e60248201527f59616b416461707465723a204e6f7468696e6720746f207265636f766572000060448201526064016105f8565b604051339083156108fc029084906000818181858888f193505050501580156106c1573d6000803e3d6000fd5b506040518281526000907f8c1256b8896378cd5044f80c202f9772b9d77dc85c8a6eb51967210b09bfaa28906020015b60405180910390a25050565b6107156000805160206116fd83398151915282610562565b50565b336107316000805160206116fd83398151915282610901565b61074d5760405162461bcd60e51b81526004016105f890611552565b6105876001600160a01b038416836000610b3c565b3361077b6000805160206116fd83398151915282610901565b6107975760405162461bcd60e51b81526004016105f890611552565b816000036107de5760405162461bcd60e51b8152602060048201526014602482015273496e76616c6964206761732d657374696d61746560601b60448201526064016105f8565b600182905560405182815230907ff43f23b7a28e6f8ce6843a21bd7b48bce778aa913b8c8cf459edf7d770e8d38a906020016106f1565b3361082e6000805160206116fd83398151915282610901565b61084a5760405162461bcd60e51b81526004016105f890611552565b6000821161089a5760405162461bcd60e51b815260206004820152601e60248201527f59616b416461707465723a204e6f7468696e6720746f207265636f766572000060448201526064016105f8565b6108ae6001600160a01b0384163384610d77565b826001600160a01b03167f8c1256b8896378cd5044f80c202f9772b9d77dc85c8a6eb51967210b09bfaa28836040516108e991815260200190565b60405180910390a2505050565b3361060b828261058c565b6000918252602082815260408084206001600160a01b0393909316845291905290205460ff1690565b60008281526020819052604090206001015461094581610c84565b6105878383610d12565b6107156000805160206116fd8339815191528261092a565b6040516370a0823160e01b81526001600160a01b038281166004830152600091908416906370a0823190602401602060405180830381865afa1580156109b1573d6000803e3d6000fd5b505050506040513d601f19601f820116820180604052508101906109d5919061159a565b90506109e48686868686610da7565b6040516370a0823160e01b81526001600160a01b03838116600483015260009183918616906370a0823190602401602060405180830381865afa158015610a2f573d6000803e3d6000fd5b505050506040513d601f19601f82011682018060405250810190610a53919061159a565b610a5d91906115c9565b905085811015610aaf5760405162461bcd60e51b815260206004820152601760248201527f496e73756666696369656e7420616d6f756e742d6f757400000000000000000060448201526064016105f8565b836001600160a01b0316856001600160a01b03167fe2bdbc6b7225eb0a972ac943c485a6cc05f7c6811838bce8903f23200fb744fa8989604051610afd929190918252602082015260400190565b60405180910390a350505050505050565b6000610b1b848484610e65565b90505b9392505050565b33610b31600083610562565b61060b60008261058c565b801580610bb65750604051636eb1769f60e11b81523060048201526001600160a01b03838116602483015284169063dd62ed3e90604401602060405180830381865afa158015610b90573d6000803e3d6000fd5b505050506040513d601f19601f82011682018060405250810190610bb4919061159a565b155b610c215760405162461bcd60e51b815260206004820152603660248201527f5361666545524332303a20617070726f76652066726f6d206e6f6e2d7a65726f60448201527520746f206e6f6e2d7a65726f20616c6c6f77616e636560501b60648201526084016105f8565b6040516001600160a01b03831660248201526044810182905261058790849063095ea7b360e01b906064015b60408051601f198184030181529190526020810180516001600160e01b03166001600160e01b031990931692909217909152610eb0565b6107158133610fdf565b610c988282610901565b61060b576000828152602081815260408083206001600160a01b03851684529091529020805460ff19166001179055610cce3390565b6001600160a01b0316816001600160a01b0316837f2f8788117e7eff1d82e926ec794901d17c78024a50270940304540a733656f0d60405160405180910390a45050565b610d1c8282610901565b1561060b576000828152602081815260408083206001600160a01b0385168085529252808320805460ff1916905551339285917ff6391f5c32d9c69d2a47ea670b442974b53935d1edc7fd64eb21e047a839171b9190a45050565b6040516001600160a01b03831660248201526044810182905261058790849063a9059cbb60e01b90606401610c4d565b6001600160a01b0383811660009081526003602052604080822054858416835291819020549051630b68372160e31b81526004810192909252602482015260448101879052606481018690527f000000000000000000000000000000000000000000000000000000000000000090911690635b41b90890608401600060405180830381600087803b158015610e3b57600080fd5b505af1158015610e4f573d6000803e3d6000fd5b50505050610e5e828583611043565b5050505050565b6000610e72848484611067565b610e7e57506000610b1e565b6000610e8b8585856110d7565b905060008111610e9c576000610ea7565b610ea76001826115c9565b95945050505050565b600080836001600160a01b031683604051610ecb91906115dc565b6000604051808303816000865af19150503d8060008114610f08576040519150601f19603f3d011682016040523d82523d6000602084013e610f0d565b606091505b509150915081610f5f5760405162461bcd60e51b815260206004820181905260248201527f5361666545524332303a206c6f772d6c6576656c2063616c6c206661696c656460448201526064016105f8565b805115610fd95780806020019051810190610f7a91906115f8565b610fd95760405162461bcd60e51b815260206004820152602a60248201527f5361666545524332303a204552433230206f7065726174696f6e20646964206e6044820152691bdd081cdd58d8d9595960b21b60648201526084016105f8565b50505050565b610fe98282610901565b61060b57611001816001600160a01b03166014611198565b61100c836020611198565b60405160200161101d92919061161a565b60408051601f198184030181529082905262461bcd60e51b82526105f891600401611382565b306001600160a01b03821614610587576105876001600160a01b0384168284610d77565b6000831580159061108a5750816001600160a01b0316836001600160a01b031614155b80156110ae57506001600160a01b03831660009081526004602052604090205460ff165b8015610b1b5750506001600160a01b031660009081526004602052604090205460ff1692915050565b6001600160a01b0382811660009081526003602052604080822054848416835281832054915163556d6e9f60e01b8152600481019190915260248101919091526044810186905290917f0000000000000000000000000000000000000000000000000000000000000000169063556d6e9f90606401602060405180830381865afa925050508015611185575060408051601f3d908101601f191682019092526111829181019061159a565b60015b61119157506000610b1e565b9050610b1e565b606060006111a783600261168f565b6111b29060026116a6565b67ffffffffffffffff8111156111ca576111ca6116b9565b6040519080825280601f01601f1916602001820160405280156111f4576020820181803683370190505b509050600360fc1b8160008151811061120f5761120f6116cf565b60200101906001600160f81b031916908160001a905350600f60fb1b8160018151811061123e5761123e6116cf565b60200101906001600160f81b031916908160001a905350600061126284600261168f565b61126d9060016116a6565b90505b60018111156112e5576f181899199a1a9b1b9c1cb0b131b232b360811b85600f16601081106112a1576112a16116cf565b1a60f81b8282815181106112b7576112b76116cf565b60200101906001600160f81b031916908160001a90535060049490941c936112de816116e5565b9050611270565b508315610b1e5760405162461bcd60e51b815260206004820181905260248201527f537472696e67733a20686578206c656e67746820696e73756666696369656e7460448201526064016105f8565b60006020828403121561134657600080fd5b81356001600160e01b031981168114610b1e57600080fd5b60005b83811015611379578181015183820152602001611361565b50506000910152565b60208152600082518060208401526113a181604085016020870161135e565b601f01601f19169190910160400192915050565b6000602082840312156113c757600080fd5b5035919050565b80356001600160a01b03811681146113e557600080fd5b919050565b600080604083850312156113fd57600080fd5b8235915061140d602084016113ce565b90509250929050565b60006020828403121561142857600080fd5b610b1e826113ce565b6000806040838503121561144457600080fd5b61144d836113ce565b915061140d602084016113ce565b6000806040838503121561146e57600080fd5b611477836113ce565b946020939093013593505050565b600080600080600060a0868803121561149d57600080fd5b85359450602086013593506114b4604087016113ce565b92506114c2606087016113ce565b91506114d0608087016113ce565b90509295509295909350565b6000806000606084860312156114f157600080fd5b83359250611501602085016113ce565b915061150f604085016113ce565b90509250925092565b600181811c9082168061152c57607f821691505b60208210810361154c57634e487b7160e01b600052602260045260246000fd5b50919050565b60208082526028908201527f4d61696e7461696e61626c653a2043616c6c6572206973206e6f742061206d6160408201526734b73a30b4b732b960c11b606082015260800190565b6000602082840312156115ac57600080fd5b5051919050565b634e487b7160e01b600052601160045260246000fd5b818103818111156104ce576104ce6115b3565b600082516115ee81846020870161135e565b9190910192915050565b60006020828403121561160a57600080fd5b81518015158114610b1e57600080fd5b7f416363657373436f6e74726f6c3a206163636f756e742000000000000000000081526000835161165281601785016020880161135e565b7001034b99036b4b9b9b4b733903937b6329607d1b601791840191820152835161168381602884016020880161135e565b01602801949350505050565b80820281158282048414176104ce576104ce6115b3565b808201808211156104ce576104ce6115b3565b634e487b7160e01b600052604160045260246000fd5b634e487b7160e01b600052603260045260246000fd5b6000816116f4576116f46115b3565b50600019019056fe339759585899103d2ace64958e37e18ccb0504652c81d4a1b8aa80fe2126ab95a26469706673582212200b9cf6cb19d9a2d4596af41884a7ad2138756e3b88a53623eb15476f7444107f64736f6c63430008110033339759585899103d2ace64958e37e18ccb0504652c81d4a1b8aa80fe2126ab95",
    "linkReferences": {}
  },
  "methodIdentifiers": {
    "DEFAULT_ADMIN_ROLE()": "a217fddf",
    "MAINTAINER_ROLE()": "f8742254",
    "POOL()": "7535d246",
    "addMaintainer(address)": "6b453c1f",
    "getRoleAdmin(bytes32)": "248a9ca3",
    "grantRole(bytes32,address)": "2f2ff15d",
    "hasRole(bytes32,address)": "91d14854",
    "isPoolToken(address)": "de260f37",
    "name()": "06fdde03",
    "query(uint256,address,address)": "ef99893a",
    "recoverAVAX(uint256)": "4ebb7916",
    "recoverERC20(address,uint256)": "8980f11f",
    "removeMaintainer(address)": "d8baf7cf",
    "renounceRole(bytes32)": "8bb9c5bf",
    "renounceRole(bytes32,address)": "36568abe",
    "revokeAllowance(address,address)": "7ae26773",
    "revokeRole(bytes32,address)": "d547741f",
    "setSwapGasEstimate(uint256)": "84a33e63",
    "supportsInterface(bytes4)": "01ffc9a7",
    "swap(uint256,uint256,address,address,address)": "eab90da6",
    "swapGasEstimate()": "69cff80d",
    "tokenIndex(address)": "427f91a6",
    "transferOwnership(address)": "f2fde38b"
  },
  "id": 23
}