{
  "abi": [
    {
      "inputs": [
        {
          "internalType": "string",
          "name": "_name",
          "type": "string"
        },
        {
          "internalType": "uint256",
          "name": "_swapGasEstimate",
          "type": "uint256"
        },
        {
          "internalType": "address",
          "name": "_pool",
          "type": "address"
        }
      ],
      "stateMutability": "nonpayable",
      "type": "constructor"
    },
    {
      "anonymous": false,
      "inputs": [
        {
          "indexed": true,
          "internalType": "address",
          "name": "_asset",
          "type": "address"
        },
        {
          "indexed": false,
          "internalType": "uint256",
          "name": "amount",
          "type": "uint256"
        }
      ],
      "name": "Recovered",
      "type": "event"
    },
    {
      "anonymous": false,
      "inputs": [
        {
          "indexed": true,
          "internalType": "bytes32",
          "name": "role",
          "type": "bytes32"
        },
        {
          "indexed": true,
          "internalType": "bytes32",
          "name": "previousAdminRole",
          "type": "bytes32"
        },
        {
          "indexed": true,
          "internalType": "bytes32",
          "name": "newAdminRole",
          "type": "bytes32"
        }
      ],
      "name": "RoleAdminChanged",
      "type": "event"
    },
    {
      "anonymous": false,
      "inputs": [
        {
          "indexed": true,
          "internalType": "bytes32",
          "name": "role",
          "type": "bytes32"
        },
        {
          "indexed": true,
          "internalType": "address",
          "name": "account",
          "type": "address"
        },
        {
          "indexed": true,
          "internalType": "address",
          "name": "sender",
          "type": "address"
        }
      ],
      "name": "RoleGranted",
      "type": "event"
    },
    {
      "anonymous": false,
      "inputs": [
        {
          "indexed": true,
          "internalType": "bytes32",
          "name": "role",
          "type": "bytes32"
        },
        {
          "indexed": true,
          "internalType": "address",
          "name": "account",
          "type": "address"
        },
        {
          "indexed": true,
          "internalType": "address",
          "name": "sender",
          "type": "address"
        }
      ],
      "name": "RoleRevoked",
      "type": "event"
    },
    {
      "anonymous": false,
      "inputs": [
        {
          "indexed": true,
          "internalType": "address",
          "name": "_adapter",
          "type": "address"
        },
        {
          "indexed": false,
          "internalType": "uint256",
          "name": "_newEstimate",
          "type": "uint256"
        }
      ],
      "name": "UpdatedGasEstimate",
      "type": "event"
    },
    {
      "anonymous": false,
      "inputs": [
        {
          "indexed": true,
          "internalType": "address",
          "name": "_tokenFrom",
          "type": "address"
        },
        {
          "indexed": true,
          "internalType": "address",
          "name": "_tokenTo",
          "type": "address"
        },
        {
          "indexed": false,
          "internalType": "uint256",
          "name": "_amountIn",
          "type": "uint256"
        },
        {
          "indexed": false,
          "internalType": "uint256",
          "name": "_amountOut",
          "type": "uint256"
        }
      ],
      "name": "YakAdapterSwap",
      "type": "event"
    },
    {
      "inputs": [],
      "name": "DEFAULT_ADMIN_ROLE",
      "outputs": [
        {
          "internalType": "bytes32",
          "name": "",
          "type": "bytes32"
        }
      ],
      "stateMutability": "view",
      "type": "function"
    },
    {
      "inputs": [],
      "name": "MAINTAINER_ROLE",
      "outputs": [
        {
          "internalType": "bytes32",
          "name": "",
          "type": "bytes32"
        }
      ],
      "stateMutability": "view",
      "type": "function"
    },
    {
      "inputs": [
        {
          "internalType": "address",
          "name": "addedMaintainer",
          "type": "address"
        }
      ],
      "name": "addMaintainer",
      "outputs": [],
      "stateMutability": "nonpayable",
      "type": "function"
    },
    {
      "inputs": [
        {
          "internalType": "bytes32",
          "name": "role",
          "type": "bytes32"
        }
      ],
      "name": "getRoleAdmin",
      "outputs": [
        {
          "internalType": "bytes32",
          "name": "",
          "type": "bytes32"
        }
      ],
      "stateMutability": "view",
      "type": "function"
    },
    {
      "inputs": [
        {
          "internalType": "bytes32",
          "name": "role",
          "type": "bytes32"
        },
        {
          "internalType": "address",
          "name": "account",
          "type": "address"
        }
      ],
      "name": "grantRole",
      "outputs": [],
      "stateMutability": "nonpayable",
      "type": "function"
    },
    {
      "inputs": [
        {
          "internalType": "bytes32",
          "name": "role",
          "type": "bytes32"
        },
        {
          "internalType": "address",
          "name": "account",
          "type": "address"
        }
      ],
      "name": "hasRole",
      "outputs": [
        {
          "internalType": "bool",
          "name": "",
          "type": "bool"
        }
      ],
      "stateMutability": "view",
      "type": "function"
    },
    {
      "inputs": [],
      "name": "name",
      "outputs": [
        {
          "internalType": "string",
          "name": "",
          "type": "string"
        }
      ],
      "stateMutability": "view",
      "type": "function"
    },
    {
      "inputs": [],
      "name": "pool",
      "outputs": [
        {
          "internalType": "address",
          "name": "",
          "type": "address"
        }
      ],
      "stateMutability": "view",
      "type": "function"
    },
    {
      "inputs": [
        {
          "internalType": "uint256",
          "name": "_amountIn",
          "type": "uint256"
        },
        {
          "internalType": "address",
          "name": "_tokenIn",
          "type": "address"
        },
        {
          "internalType": "address",
          "name": "_tokenOut",
          "type": "address"
        }
      ],
      "name": "query",
      "outputs": [
        {
          "internalType": "uint256",
          "name": "",
          "type": "uint256"
        }
      ],
      "stateMutability": "view",
      "type": "function"
    },
    {
      "inputs": [],
      "name": "quoteToken",
      "outputs": [
        {
          "internalType": "address",
          "name": "",
          "type": "address"
        }
      ],
      "stateMutability": "view",
      "type": "function"
    },
    {
      "inputs": [],
      "name": "rebateCollector",
      "outputs": [
        {
          "internalType": "address",
          "name": "",
          "type": "address"
        }
      ],
      "stateMutability": "view",
      "type": "function"
    },
    {
      "inputs": [
        {
          "internalType": "uint256",
          "name": "_amount",
          "type": "uint256"
        }
      ],
      "name": "recoverAVAX",
      "outputs": [],
      "stateMutability": "nonpayable",
      "type": "function"
    },
    {
      "inputs": [
        {
          "internalType": "address",
          "name": "_tokenAddress",
          "type": "address"
        },
        {
          "internalType": "uint256",
          "name": "_tokenAmount",
          "type": "uint256"
        }
      ],
      "name": "recoverERC20",
      "outputs": [],
      "stateMutability": "nonpayable",
      "type": "function"
    },
    {
      "inputs": [
        {
          "internalType": "address",
          "name": "removedMaintainer",
          "type": "address"
        }
      ],
      "name": "removeMaintainer",
      "outputs": [],
      "stateMutability": "nonpayable",
      "type": "function"
    },
    {
      "inputs": [
        {
          "internalType": "bytes32",
          "name": "role",
          "type": "bytes32"
        },
        {
          "internalType": "address",
          "name": "account",
          "type": "address"
        }
      ],
      "name": "renounceRole",
      "outputs": [],
      "stateMutability": "nonpayable",
      "type": "function"
    },
    {
      "inputs": [
        {
          "internalType": "bytes32",
          "name": "role",
          "type": "bytes32"
        }
      ],
      "name": "renounceRole",
      "outputs": [],
      "stateMutability": "nonpayable",
      "type": "function"
    },
    {
      "inputs": [
        {
          "internalType": "address",
          "name": "_token",
          "type": "address"
        },
        {
          "internalType": "address",
          "name": "_spender",
          "type": "address"
        }
      ],
      "name": "revokeAllowance",
      "outputs": [],
      "stateMutability": "nonpayable",
      "type": "function"
    },
    {
      "inputs": [
        {
          "internalType": "bytes32",
          "name": "role",
          "type": "bytes32"
        },
        {
          "internalType": "address",
          "name": "account",
          "type": "address"
        }
      ],
      "name": "revokeRole",
      "outputs": [],
      "stateMutability": "nonpayable",
      "type": "function"
    },
    {
      "inputs": [
        {
          "internalType": "address",
          "name": "_rebateCollector",
          "type": "address"
        }
      ],
      "name": "setRebateCollector",
      "outputs": [],
      "stateMutability": "nonpayable",
      "type": "function"
    },
    {
      "inputs": [
        {
          "internalType": "uint256",
          "name": "_estimate",
          "type": "uint256"
        }
      ],
      "name": "setSwapGasEstimate",
      "outputs": [],
      "stateMutability": "nonpayable",
      "type": "function"
    },
    {
      "inputs": [
        {
          "internalType": "bytes4",
          "name": "interfaceId",
          "type": "bytes4"
        }
      ],
      "name": "supportsInterface",
      "outputs": [
        {
          "internalType": "bool",
          "name": "",
          "type": "bool"
        }
      ],
      "stateMutability": "view",
      "type": "function"
    },
    {
      "inputs": [
        {
          "internalType": "uint256",
          "name": "_amountIn",
          "type": "uint256"
        },
        {
          "internalType": "uint256",
          "name": "_amountOut",
          "type": "uint256"
        },
        {
          "internalType": "address",
          "name": "_fromToken",
          "type": "address"
        },
        {
          "internalType": "address",
          "name": "_toToken",
          "type": "address"
        },
        {
          "internalType": "address",
          "name": "_to",
          "type": "address"
        }
      ],
      "name": "swap",
      "outputs": [],
      "stateMutability": "nonpayable",
      "type": "function"
    },
    {
      "inputs": [],
      "name": "swapGasEstimate",
      "outputs": [
        {
          "internalType": "uint256",
          "name": "",
          "type": "uint256"
        }
      ],
      "stateMutability": "view",
      "type": "function"
    },
    {
      "inputs": [
        {
          "internalType": "address",
          "name": "newOwner",
          "type": "address"
        }
      ],
      "name": "transferOwnership",
      "outputs": [],
      "stateMutability": "nonpayable",
      "type": "function"
    },
    {
      "stateMutability": "payable",
      "type": "receive"
    }
  ],
  "bytecode": {
    "object": "0x60c06040523480156200001157600080fd5b50604051620022a1380380620022a18339810160408190526200003491620003f0565b8282336200004460008262000187565b620000707f339759585899103d2ace64958e37e18ccb0504652c81d4a1b8aa80fe2126ab958262000187565b506200007c8262000197565b6200008781620001fc565b50506000816001600160a01b031663217a4b706040518163ffffffff1660e01b8152600401602060405180830381865afa158015620000ca573d6000803e3d6000fd5b505050506040513d601f19601f82011682018060405250810190620000f09190620004e1565b60405163095ea7b360e01b81526001600160a01b03848116600483015260001960248301529192509082169063095ea7b3906044016020604051808303816000875af115801562000145573d6000803e3d6000fd5b505050506040513d601f19601f820116820180604052508101906200016b919062000506565b506001600160a01b039081166080521660a05250620006859050565b6200019382826200031d565b5050565b8051600003620001ee5760405162461bcd60e51b815260206004820152601460248201527f496e76616c69642061646170746572206e616d6500000000000000000000000060448201526064015b60405180910390fd5b6002620001938282620005b9565b3360008181527fa54247010af6b3693b80aceddfad12e077c5de3571e6243fada502635f0d7d39602052604090205460ff166200028d5760405162461bcd60e51b815260206004820152602860248201527f4d61696e7461696e61626c653a2043616c6c6572206973206e6f742061206d6160448201526734b73a30b4b732b960c11b6064820152608401620001e5565b81600003620002df5760405162461bcd60e51b815260206004820152601460248201527f496e76616c6964206761732d657374696d6174650000000000000000000000006044820152606401620001e5565b600182905560405182815230907ff43f23b7a28e6f8ce6843a21bd7b48bce778aa913b8c8cf459edf7d770e8d38a9060200160405180910390a25050565b6000828152602081815260408083206001600160a01b038516845290915290205460ff1662000193576000828152602081815260408083206001600160a01b03851684529091529020805460ff19166001179055620003793390565b6001600160a01b0316816001600160a01b0316837f2f8788117e7eff1d82e926ec794901d17c78024a50270940304540a733656f0d60405160405180910390a45050565b634e487b7160e01b600052604160045260246000fd5b80516001600160a01b0381168114620003eb57600080fd5b919050565b6000806000606084860312156200040657600080fd5b83516001600160401b03808211156200041e57600080fd5b818601915086601f8301126200043357600080fd5b815181811115620004485762000448620003bd565b604051601f8201601f19908116603f01168101908382118183101715620004735762000473620003bd565b816040528281526020935089848487010111156200049057600080fd5b600091505b82821015620004b4578482018401518183018501529083019062000495565b60008484830101528097505050508086015193505050620004d860408501620003d3565b90509250925092565b600060208284031215620004f457600080fd5b620004ff82620003d3565b9392505050565b6000602082840312156200051957600080fd5b81518015158114620004ff57600080fd5b600181811c908216806200053f57607f821691505b6020821081036200056057634e487b7160e01b600052602260045260246000fd5b50919050565b601f821115620005b457600081815260208120601f850160051c810160208610156200058f5750805b601f850160051c820191505b81811015620005b0578281556001016200059b565b5050505b505050565b81516001600160401b03811115620005d557620005d5620003bd565b620005ed81620005e684546200052a565b8462000566565b602080601f8311600181146200062557600084156200060c5750858301515b600019600386901b1c1916600185901b178555620005b0565b600085815260208120601f198616915b82811015620006565788860151825594840194600190910190840162000635565b5085821015620006755787850151600019600388901b60f8161c191681555b5050505050600190811b01905550565b60805160a051611b946200070d600039600081816101c401528181610e8001528181610f5b01528181610fb60152818161105501528181611133015281816111ac015281816111e7015281816112220152818161140f01526114a701526000818161021001528181610e2f01528181610f0a015281816110f701526111700152611b946000f3fe60806040526004361061014f5760003560e01c806384a33e63116100b6578063d547741f1161006f578063d547741f146103fd578063d8baf7cf1461041d578063eab90da61461043d578063ef99893a1461045d578063f2fde38b1461047d578063f87422541461049d57600080fd5b806384a33e63146103485780638980f11f146103685780638bb9c5bf1461038857806391d14854146103a8578063a217fddf146103c8578063c2f92d44146103dd57600080fd5b806336568abe1161010857806336568abe146102925780634ebb7916146102b257806354f03cdd146102d257806369cff80d146102f25780636b453c1f146103085780637ae267731461032857600080fd5b806301ffc9a71461015b57806306fdde031461019057806316f0115b146101b2578063217a4b70146101fe578063248a9ca3146102325780632f2ff15d1461027057600080fd5b3661015657005b600080fd5b34801561016757600080fd5b5061017b610176366004611744565b6104bf565b60405190151581526020015b60405180910390f35b34801561019c57600080fd5b506101a56104f6565b6040516101879190611792565b3480156101be57600080fd5b506101e67f000000000000000000000000000000000000000000000000000000000000000081565b6040516001600160a01b039091168152602001610187565b34801561020a57600080fd5b506101e67f000000000000000000000000000000000000000000000000000000000000000081565b34801561023e57600080fd5b5061026261024d3660046117c5565b60009081526020819052604090206001015490565b604051908152602001610187565b34801561027c57600080fd5b5061029061028b3660046117fa565b610584565b005b34801561029e57600080fd5b506102906102ad3660046117fa565b6105ae565b3480156102be57600080fd5b506102906102cd3660046117c5565b610631565b3480156102de57600080fd5b506003546101e6906001600160a01b031681565b3480156102fe57600080fd5b5061026260015481565b34801561031457600080fd5b50610290610323366004611826565b61071f565b34801561033457600080fd5b50610290610343366004611841565b61073a565b34801561035457600080fd5b506102906103633660046117c5565b610784565b34801561037457600080fd5b5061029061038336600461186b565b610837565b34801561039457600080fd5b506102906103a33660046117c5565b610918565b3480156103b457600080fd5b5061017b6103c33660046117fa565b610923565b3480156103d457600080fd5b50610262600081565b3480156103e957600080fd5b506102906103f8366004611826565b61094c565b34801561040957600080fd5b506102906104183660046117fa565b6109a4565b34801561042957600080fd5b50610290610438366004611826565b6109c9565b34801561044957600080fd5b50610290610458366004611895565b6109e1565b34801561046957600080fd5b506102626104783660046118ec565b610b88565b34801561048957600080fd5b50610290610498366004611826565b610b9f565b3480156104a957600080fd5b50610262600080516020611b3f83398151915281565b60006001600160e01b03198216637965db0b60e01b14806104f057506301ffc9a760e01b6001600160e01b03198316145b92915050565b6002805461050390611928565b80601f016020809104026020016040519081016040528092919081815260200182805461052f90611928565b801561057c5780601f106105515761010080835404028352916020019161057c565b820191906000526020600020905b81548152906001019060200180831161055f57829003601f168201915b505050505081565b60008281526020819052604090206001015461059f81610bb6565b6105a98383610bc0565b505050565b6001600160a01b03811633146106235760405162461bcd60e51b815260206004820152602f60248201527f416363657373436f6e74726f6c3a2063616e206f6e6c792072656e6f756e636560448201526e103937b632b9903337b91039b2b63360891b60648201526084015b60405180910390fd5b61062d8282610c44565b5050565b3361064a600080516020611b3f83398151915282610923565b6106665760405162461bcd60e51b815260040161061a90611962565b600082116106b65760405162461bcd60e51b815260206004820152601e60248201527f59616b416461707465723a204e6f7468696e6720746f207265636f7665720000604482015260640161061a565b604051339083156108fc029084906000818181858888f193505050501580156106e3573d6000803e3d6000fd5b506040518281526000907f8c1256b8896378cd5044f80c202f9772b9d77dc85c8a6eb51967210b09bfaa28906020015b60405180910390a25050565b610737600080516020611b3f83398151915282610584565b50565b33610753600080516020611b3f83398151915282610923565b61076f5760405162461bcd60e51b815260040161061a90611962565b6105a96001600160a01b038416836000610ca9565b3361079d600080516020611b3f83398151915282610923565b6107b95760405162461bcd60e51b815260040161061a90611962565b816000036108005760405162461bcd60e51b8152602060048201526014602482015273496e76616c6964206761732d657374696d61746560601b604482015260640161061a565b600182905560405182815230907ff43f23b7a28e6f8ce6843a21bd7b48bce778aa913b8c8cf459edf7d770e8d38a90602001610713565b33610850600080516020611b3f83398151915282610923565b61086c5760405162461bcd60e51b815260040161061a90611962565b600082116108bc5760405162461bcd60e51b815260206004820152601e60248201527f59616b416461707465723a204e6f7468696e6720746f207265636f7665720000604482015260640161061a565b6108d06001600160a01b0384163384610df1565b826001600160a01b03167f8c1256b8896378cd5044f80c202f9772b9d77dc85c8a6eb51967210b09bfaa288360405161090b91815260200190565b60405180910390a2505050565b3361062d82826105ae565b6000918252602082815260408084206001600160a01b0393909316845291905290205460ff1690565b33610965600080516020611b3f83398151915282610923565b6109815760405162461bcd60e51b815260040161061a90611962565b50600380546001600160a01b0319166001600160a01b0392909216919091179055565b6000828152602081905260409020600101546109bf81610bb6565b6105a98383610c44565b610737600080516020611b3f833981519152826109a4565b6040516370a0823160e01b81526001600160a01b038281166004830152600091908416906370a0823190602401602060405180830381865afa158015610a2b573d6000803e3d6000fd5b505050506040513d601f19601f82011682018060405250810190610a4f91906119aa565b9050610a5e8686868686610e21565b6040516370a0823160e01b81526001600160a01b03838116600483015260009183918616906370a0823190602401602060405180830381865afa158015610aa9573d6000803e3d6000fd5b505050506040513d601f19601f82011682018060405250810190610acd91906119aa565b610ad791906119d9565b905085811015610b295760405162461bcd60e51b815260206004820152601760248201527f496e73756666696369656e7420616d6f756e742d6f7574000000000000000000604482015260640161061a565b836001600160a01b0316856001600160a01b03167fe2bdbc6b7225eb0a972ac943c485a6cc05f7c6811838bce8903f23200fb744fa8989604051610b77929190918252602082015260400190565b60405180910390a350505050505050565b6000610b958484846110e3565b90505b9392505050565b33610bab600083610584565b61062d6000826105ae565b610737813361125f565b610bca8282610923565b61062d576000828152602081815260408083206001600160a01b03851684529091529020805460ff19166001179055610c003390565b6001600160a01b0316816001600160a01b0316837f2f8788117e7eff1d82e926ec794901d17c78024a50270940304540a733656f0d60405160405180910390a45050565b610c4e8282610923565b1561062d576000828152602081815260408083206001600160a01b0385168085529252808320805460ff1916905551339285917ff6391f5c32d9c69d2a47ea670b442974b53935d1edc7fd64eb21e047a839171b9190a45050565b801580610d235750604051636eb1769f60e11b81523060048201526001600160a01b03838116602483015284169063dd62ed3e90604401602060405180830381865afa158015610cfd573d6000803e3d6000fd5b505050506040513d601f19601f82011682018060405250810190610d2191906119aa565b155b610d8e5760405162461bcd60e51b815260206004820152603660248201527f5361666545524332303a20617070726f76652066726f6d206e6f6e2d7a65726f60448201527520746f206e6f6e2d7a65726f20616c6c6f77616e636560501b606482015260840161061a565b6040516001600160a01b0383166024820152604481018290526105a990849063095ea7b360e01b906064015b60408051601f198184030181529190526020810180516001600160e01b03166001600160e01b0319909316929092179091526112c3565b6040516001600160a01b0383166024820152604481018290526105a990849063a9059cbb60e01b90606401610dba565b610e2b83866113f2565b60007f00000000000000000000000000000000000000000000000000000000000000006001600160a01b0316846001600160a01b031603610f085760035460405163f3287c2f60e01b81526001600160a01b037f000000000000000000000000000000000000000000000000000000000000000081169263f3287c2f92610ebe9288928c928c928a9216906004016119ec565b6020604051808303816000875af1158015610edd573d6000803e3d6000fd5b505050506040513d601f19601f82011682018060405250810190610f0191906119aa565b90506110db565b7f00000000000000000000000000000000000000000000000000000000000000006001600160a01b0316836001600160a01b031603610f99576003546040516306846fb560e41b81526001600160a01b037f0000000000000000000000000000000000000000000000000000000000000000811692636846fb5092610ebe9289928c928c928a9216906004016119ec565b6003546040516306846fb560e41b81526000916001600160a01b037f0000000000000000000000000000000000000000000000000000000000000000811692636846fb5092610ff5928a928d92889230929116906004016119ec565b6020604051808303816000875af1158015611014573d6000803e3d6000fd5b505050506040513d601f19601f8201168201806040525081019061103891906119aa565b60035460405163f3287c2f60e01b81529192506001600160a01b037f000000000000000000000000000000000000000000000000000000000000000081169263f3287c2f9261109492899287928d928b929116906004016119ec565b6020604051808303816000875af11580156110b3573d6000803e3d6000fd5b505050506040513d601f19601f820116820180604052508101906110d791906119aa565b9150505b505050505050565b6000836000036110f557506000610b98565b7f00000000000000000000000000000000000000000000000000000000000000006001600160a01b0316836001600160a01b03160361116e576111677f00000000000000000000000000000000000000000000000000000000000000006001600160a01b03166366410a218487611524565b9050610b98565b7f00000000000000000000000000000000000000000000000000000000000000006001600160a01b0316826001600160a01b0316036111e0576111677f00000000000000000000000000000000000000000000000000000000000000006001600160a01b03166379a048768587611524565b600061121b7f00000000000000000000000000000000000000000000000000000000000000006001600160a01b03166379a048768688611524565b90506112567f00000000000000000000000000000000000000000000000000000000000000006001600160a01b03166366410a218584611524565b95945050505050565b6112698282610923565b61062d57611281816001600160a01b031660146115a8565b61128c8360206115a8565b60405160200161129d929190611a1e565b60408051601f198184030181529082905262461bcd60e51b825261061a91600401611792565b600080836001600160a01b0316836040516112de9190611a93565b6000604051808303816000865af19150503d806000811461131b576040519150601f19603f3d011682016040523d82523d6000602084013e611320565b606091505b5091509150816113725760405162461bcd60e51b815260206004820181905260248201527f5361666545524332303a206c6f772d6c6576656c2063616c6c206661696c6564604482015260640161061a565b8051156113ec578080602001905181019061138d9190611aaf565b6113ec5760405162461bcd60e51b815260206004820152602a60248201527f5361666545524332303a204552433230206f7065726174696f6e20646964206e6044820152691bdd081cdd58d8d9595960b21b606482015260840161061a565b50505050565b604051636eb1769f60e11b81523060048201526001600160a01b037f0000000000000000000000000000000000000000000000000000000000000000811660248301526000919084169063dd62ed3e90604401602060405180830381865afa158015611462573d6000803e3d6000fd5b505050506040513d601f19601f8201168201806040525081019061148691906119aa565b9050818110156105a95760405163095ea7b360e01b81526001600160a01b037f000000000000000000000000000000000000000000000000000000000000000081166004830152600019602483015284169063095ea7b3906044016020604051808303816000875af1158015611500573d6000803e3d6000fd5b505050506040513d601f19601f820116820180604052508101906113ec9190611aaf565b6040516001600160e01b031960e085901b1681526001600160a01b03831660048201526024810182905260009085908590604401602060405180830381865afa925050508015611591575060408051601f3d908101601f1916820190925261158e918101906119aa565b60015b61159d575060006115a0565b90505b949350505050565b606060006115b7836002611ad1565b6115c2906002611ae8565b67ffffffffffffffff8111156115da576115da611afb565b6040519080825280601f01601f191660200182016040528015611604576020820181803683370190505b509050600360fc1b8160008151811061161f5761161f611b11565b60200101906001600160f81b031916908160001a905350600f60fb1b8160018151811061164e5761164e611b11565b60200101906001600160f81b031916908160001a9053506000611672846002611ad1565b61167d906001611ae8565b90505b60018111156116f5576f181899199a1a9b1b9c1cb0b131b232b360811b85600f16601081106116b1576116b1611b11565b1a60f81b8282815181106116c7576116c7611b11565b60200101906001600160f81b031916908160001a90535060049490941c936116ee81611b27565b9050611680565b508315610b985760405162461bcd60e51b815260206004820181905260248201527f537472696e67733a20686578206c656e67746820696e73756666696369656e74604482015260640161061a565b60006020828403121561175657600080fd5b81356001600160e01b031981168114610b9857600080fd5b60005b83811015611789578181015183820152602001611771565b50506000910152565b60208152600082518060208401526117b181604085016020870161176e565b601f01601f19169190910160400192915050565b6000602082840312156117d757600080fd5b5035919050565b80356001600160a01b03811681146117f557600080fd5b919050565b6000806040838503121561180d57600080fd5b8235915061181d602084016117de565b90509250929050565b60006020828403121561183857600080fd5b610b98826117de565b6000806040838503121561185457600080fd5b61185d836117de565b915061181d602084016117de565b6000806040838503121561187e57600080fd5b611887836117de565b946020939093013593505050565b600080600080600060a086880312156118ad57600080fd5b85359450602086013593506118c4604087016117de565b92506118d2606087016117de565b91506118e0608087016117de565b90509295509295909350565b60008060006060848603121561190157600080fd5b83359250611911602085016117de565b915061191f604085016117de565b90509250925092565b600181811c9082168061193c57607f821691505b60208210810361195c57634e487b7160e01b600052602260045260246000fd5b50919050565b60208082526028908201527f4d61696e7461696e61626c653a2043616c6c6572206973206e6f742061206d6160408201526734b73a30b4b732b960c11b606082015260800190565b6000602082840312156119bc57600080fd5b5051919050565b634e487b7160e01b600052601160045260246000fd5b818103818111156104f0576104f06119c3565b6001600160a01b0395861681526020810194909452604084019290925283166060830152909116608082015260a00190565b7f416363657373436f6e74726f6c3a206163636f756e7420000000000000000000815260008351611a5681601785016020880161176e565b7001034b99036b4b9b9b4b733903937b6329607d1b6017918401918201528351611a8781602884016020880161176e565b01602801949350505050565b60008251611aa581846020870161176e565b9190910192915050565b600060208284031215611ac157600080fd5b81518015158114610b9857600080fd5b80820281158282048414176104f0576104f06119c3565b808201808211156104f0576104f06119c3565b634e487b7160e01b600052604160045260246000fd5b634e487b7160e01b600052603260045260246000fd5b600081611b3657611b366119c3565b50600019019056fe339759585899103d2ace64958e37e18ccb0504652c81d4a1b8aa80fe2126ab95a26469706673582212205efc9ba018ceaca0a8d057e2e70ed6d1cc1c0e3150cdd7508b4c9a8b9ca1802a64736f6c63430008110033",
    "linkReferences": {}
  },
  "methodIdentifiers": {
    "DEFAULT_ADMIN_ROLE()": "a217fddf",
    "MAINTAINER_ROLE()": "f8742254",
    "addMaintainer(address)": "6b453c1f",
    "getRoleAdmin(bytes32)": "248a9ca3",
    "grantRole(bytes32,address)": "2f2ff15d",
    "hasRole(bytes32,address)": "91d14854",
    "name()": "06fdde03",
    "pool()": "16f0115b",
    "query(uint256,address,address)": "ef99893a",
    "quoteToken()": "217a4b70",
    "rebateCollector()": "54f03cdd",
    "recoverAVAX(uint256)": "4ebb7916",
    "recoverERC20(address,uint256)": "8980f11f",
    "removeMaintainer(address)": "d8baf7cf",
    "renounceRole(bytes32)": "8bb9c5bf",
    "renounceRole(bytes32,address)": "36568abe",
    "revokeAllowance(address,address)": "7ae26773",
    "revokeRole(bytes32,address)": "d547741f",
    "setRebateCollector(address)": "c2f92d44",
    "setSwapGasEstimate(uint256)": "84a33e63",
    "supportsInterface(bytes4)": "01ffc9a7",
    "swap(uint256,uint256,address,address,address)": "eab90da6",
    "swapGasEstimate()": "69cff80d",
    "transferOwnership(address)": "f2fde38b"
  },
  "id": 40
}