{
  "abi": [
    {
      "inputs": [
        {
          "internalType": "string",
          "name": "_name",
          "type": "string"
        },
        {
          "internalType": "address",
          "name": "_factory",
          "type": "address"
        },
        {
          "internalType": "uint256",
          "name": "_swapGasEstimate",
          "type": "uint256"
        }
      ],
      "stateMutability": "nonpayable",
      "type": "constructor"
    },
    {
      "anonymous": false,
      "inputs": [
        {
          "indexed": true,
          "internalType": "address",
          "name": "_asset",
          "type": "address"
        },
        {
          "indexed": false,
          "internalType": "uint256",
          "name": "amount",
          "type": "uint256"
        }
      ],
      "name": "Recovered",
      "type": "event"
    },
    {
      "anonymous": false,
      "inputs": [
        {
          "indexed": true,
          "internalType": "bytes32",
          "name": "role",
          "type": "bytes32"
        },
        {
          "indexed": true,
          "internalType": "bytes32",
          "name": "previousAdminRole",
          "type": "bytes32"
        },
        {
          "indexed": true,
          "internalType": "bytes32",
          "name": "newAdminRole",
          "type": "bytes32"
        }
      ],
      "name": "RoleAdminChanged",
      "type": "event"
    },
    {
      "anonymous": false,
      "inputs": [
        {
          "indexed": true,
          "internalType": "bytes32",
          "name": "role",
          "type": "bytes32"
        },
        {
          "indexed": true,
          "internalType": "address",
          "name": "account",
          "type": "address"
        },
        {
          "indexed": true,
          "internalType": "address",
          "name": "sender",
          "type": "address"
        }
      ],
      "name": "RoleGranted",
      "type": "event"
    },
    {
      "anonymous": false,
      "inputs": [
        {
          "indexed": true,
          "internalType": "bytes32",
          "name": "role",
          "type": "bytes32"
        },
        {
          "indexed": true,
          "internalType": "address",
          "name": "account",
          "type": "address"
        },
        {
          "indexed": true,
          "internalType": "address",
          "name": "sender",
          "type": "address"
        }
      ],
      "name": "RoleRevoked",
      "type": "event"
    },
    {
      "anonymous": false,
      "inputs": [
        {
          "indexed": true,
          "internalType": "address",
          "name": "_adapter",
          "type": "address"
        },
        {
          "indexed": false,
          "internalType": "uint256",
          "name": "_newEstimate",
          "type": "uint256"
        }
      ],
      "name": "UpdatedGasEstimate",
      "type": "event"
    },
    {
      "anonymous": false,
      "inputs": [
        {
          "indexed": true,
          "internalType": "address",
          "name": "_tokenFrom",
          "type": "address"
        },
        {
          "indexed": true,
          "internalType": "address",
          "name": "_tokenTo",
          "type": "address"
        },
        {
          "indexed": false,
          "internalType": "uint256",
          "name": "_amountIn",
          "type": "uint256"
        },
        {
          "indexed": false,
          "internalType": "uint256",
          "name": "_amountOut",
          "type": "uint256"
        }
      ],
      "name": "YakAdapterSwap",
      "type": "event"
    },
    {
      "inputs": [],
      "name": "DEFAULT_ADMIN_ROLE",
      "outputs": [
        {
          "internalType": "bytes32",
          "name": "",
          "type": "bytes32"
        }
      ],
      "stateMutability": "view",
      "type": "function"
    },
    {
      "inputs": [],
      "name": "MAINTAINER_ROLE",
      "outputs": [
        {
          "internalType": "bytes32",
          "name": "",
          "type": "bytes32"
        }
      ],
      "stateMutability": "view",
      "type": "function"
    },
    {
      "inputs": [
        {
          "internalType": "address",
          "name": "addedMaintainer",
          "type": "address"
        }
      ],
      "name": "addMaintainer",
      "outputs": [],
      "stateMutability": "nonpayable",
      "type": "function"
    },
    {
      "inputs": [
        {
          "internalType": "bytes32",
          "name": "role",
          "type": "bytes32"
        }
      ],
      "name": "getRoleAdmin",
      "outputs": [
        {
          "internalType": "bytes32",
          "name": "",
          "type": "bytes32"
        }
      ],
      "stateMutability": "view",
      "type": "function"
    },
    {
      "inputs": [
        {
          "internalType": "bytes32",
          "name": "role",
          "type": "bytes32"
        },
        {
          "internalType": "address",
          "name": "account",
          "type": "address"
        }
      ],
      "name": "grantRole",
      "outputs": [],
      "stateMutability": "nonpayable",
      "type": "function"
    },
    {
      "inputs": [
        {
          "internalType": "bytes32",
          "name": "role",
          "type": "bytes32"
        },
        {
          "internalType": "address",
          "name": "account",
          "type": "address"
        }
      ],
      "name": "hasRole",
      "outputs": [
        {
          "internalType": "bool",
          "name": "",
          "type": "bool"
        }
      ],
      "stateMutability": "view",
      "type": "function"
    },
    {
      "inputs": [],
      "name": "name",
      "outputs": [
        {
          "internalType": "string",
          "name": "",
          "type": "string"
        }
      ],
      "stateMutability": "view",
      "type": "function"
    },
    {
      "inputs": [
        {
          "internalType": "uint256",
          "name": "_amountIn",
          "type": "uint256"
        },
        {
          "internalType": "address",
          "name": "_tokenIn",
          "type": "address"
        },
        {
          "internalType": "address",
          "name": "_tokenOut",
          "type": "address"
        }
      ],
      "name": "query",
      "outputs": [
        {
          "internalType": "uint256",
          "name": "",
          "type": "uint256"
        }
      ],
      "stateMutability": "view",
      "type": "function"
    },
    {
      "inputs": [
        {
          "internalType": "uint256",
          "name": "_amount",
          "type": "uint256"
        }
      ],
      "name": "recoverAVAX",
      "outputs": [],
      "stateMutability": "nonpayable",
      "type": "function"
    },
    {
      "inputs": [
        {
          "internalType": "address",
          "name": "_tokenAddress",
          "type": "address"
        },
        {
          "internalType": "uint256",
          "name": "_tokenAmount",
          "type": "uint256"
        }
      ],
      "name": "recoverERC20",
      "outputs": [],
      "stateMutability": "nonpayable",
      "type": "function"
    },
    {
      "inputs": [
        {
          "internalType": "address",
          "name": "removedMaintainer",
          "type": "address"
        }
      ],
      "name": "removeMaintainer",
      "outputs": [],
      "stateMutability": "nonpayable",
      "type": "function"
    },
    {
      "inputs": [
        {
          "internalType": "bytes32",
          "name": "role",
          "type": "bytes32"
        },
        {
          "internalType": "address",
          "name": "account",
          "type": "address"
        }
      ],
      "name": "renounceRole",
      "outputs": [],
      "stateMutability": "nonpayable",
      "type": "function"
    },
    {
      "inputs": [
        {
          "internalType": "bytes32",
          "name": "role",
          "type": "bytes32"
        }
      ],
      "name": "renounceRole",
      "outputs": [],
      "stateMutability": "nonpayable",
      "type": "function"
    },
    {
      "inputs": [
        {
          "internalType": "address",
          "name": "_token",
          "type": "address"
        },
        {
          "internalType": "address",
          "name": "_spender",
          "type": "address"
        }
      ],
      "name": "revokeAllowance",
      "outputs": [],
      "stateMutability": "nonpayable",
      "type": "function"
    },
    {
      "inputs": [
        {
          "internalType": "bytes32",
          "name": "role",
          "type": "bytes32"
        },
        {
          "internalType": "address",
          "name": "account",
          "type": "address"
        }
      ],
      "name": "revokeRole",
      "outputs": [],
      "stateMutability": "nonpayable",
      "type": "function"
    },
    {
      "inputs": [
        {
          "internalType": "uint256",
          "name": "_estimate",
          "type": "uint256"
        }
      ],
      "name": "setSwapGasEstimate",
      "outputs": [],
      "stateMutability": "nonpayable",
      "type": "function"
    },
    {
      "inputs": [
        {
          "internalType": "bytes4",
          "name": "interfaceId",
          "type": "bytes4"
        }
      ],
      "name": "supportsInterface",
      "outputs": [
        {
          "internalType": "bool",
          "name": "",
          "type": "bool"
        }
      ],
      "stateMutability": "view",
      "type": "function"
    },
    {
      "inputs": [
        {
          "internalType": "uint256",
          "name": "_amountIn",
          "type": "uint256"
        },
        {
          "internalType": "uint256",
          "name": "_amountOut",
          "type": "uint256"
        },
        {
          "internalType": "address",
          "name": "_fromToken",
          "type": "address"
        },
        {
          "internalType": "address",
          "name": "_toToken",
          "type": "address"
        },
        {
          "internalType": "address",
          "name": "_to",
          "type": "address"
        }
      ],
      "name": "swap",
      "outputs": [],
      "stateMutability": "nonpayable",
      "type": "function"
    },
    {
      "inputs": [],
      "name": "swapGasEstimate",
      "outputs": [
        {
          "internalType": "uint256",
          "name": "",
          "type": "uint256"
        }
      ],
      "stateMutability": "view",
      "type": "function"
    },
    {
      "inputs": [
        {
          "internalType": "address",
          "name": "newOwner",
          "type": "address"
        }
      ],
      "name": "transferOwnership",
      "outputs": [],
      "stateMutability": "nonpayable",
      "type": "function"
    },
    {
      "stateMutability": "payable",
      "type": "receive"
    }
  ],
  "bytecode": {
    "object": "0x60c06040523480156200001157600080fd5b5060405162001f6d38038062001f6d833981016040819052620000349162000384565b82813362000044600082620000ae565b620000707f339759585899103d2ace64958e37e18ccb0504652c81d4a1b8aa80fe2126ab9582620000ae565b506200007c82620000be565b620000878162000123565b50506001600160a01b03821660a052620000a18262000244565b60805250620005ea915050565b620000ba8282620002b1565b5050565b8051600003620001155760405162461bcd60e51b815260206004820152601460248201527f496e76616c69642061646170746572206e616d6500000000000000000000000060448201526064015b60405180910390fd5b6002620000ba828262000504565b3360008181527fa54247010af6b3693b80aceddfad12e077c5de3571e6243fada502635f0d7d39602052604090205460ff16620001b45760405162461bcd60e51b815260206004820152602860248201527f4d61696e7461696e61626c653a2043616c6c6572206973206e6f742061206d6160448201526734b73a30b4b732b960c11b60648201526084016200010c565b81600003620002065760405162461bcd60e51b815260206004820152601460248201527f496e76616c6964206761732d657374696d61746500000000000000000000000060448201526064016200010c565b600182905560405182815230907ff43f23b7a28e6f8ce6843a21bd7b48bce778aa913b8c8cf459edf7d770e8d38a9060200160405180910390a25050565b6000816001600160a01b0316639aab92486040518163ffffffff1660e01b8152600401602060405180830381865afa15801562000285573d6000803e3d6000fd5b505050506040513d601f19601f82011682018060405250810190620002ab9190620005d0565b92915050565b6000828152602081815260408083206001600160a01b038516845290915290205460ff16620000ba576000828152602081815260408083206001600160a01b03851684529091529020805460ff191660011790556200030d3390565b6001600160a01b0316816001600160a01b0316837f2f8788117e7eff1d82e926ec794901d17c78024a50270940304540a733656f0d60405160405180910390a45050565b634e487b7160e01b600052604160045260246000fd5b80516001600160a01b03811681146200037f57600080fd5b919050565b6000806000606084860312156200039a57600080fd5b83516001600160401b0380821115620003b257600080fd5b818601915086601f830112620003c757600080fd5b815181811115620003dc57620003dc62000351565b604051601f8201601f19908116603f0116810190838211818310171562000407576200040762000351565b816040528281526020935089848487010111156200042457600080fd5b600091505b8282101562000448578482018401518183018501529083019062000429565b60008484830101528097505050506200046381870162000367565b93505050604084015190509250925092565b600181811c908216806200048a57607f821691505b602082108103620004ab57634e487b7160e01b600052602260045260246000fd5b50919050565b601f821115620004ff57600081815260208120601f850160051c81016020861015620004da5750805b601f850160051c820191505b81811015620004fb57828155600101620004e6565b5050505b505050565b81516001600160401b0381111562000520576200052062000351565b620005388162000531845462000475565b84620004b1565b602080601f831160018114620005705760008415620005575750858301515b600019600386901b1c1916600185901b178555620004fb565b600085815260208120601f198616915b82811015620005a15788860151825594840194600190910190840162000580565b5085821015620005c05787850151600019600388901b60f8161c191681555b5050505050600190811b01905550565b600060208284031215620005e357600080fd5b5051919050565b60805160a05161194f6200061e60003960008181610ffc0152818161111201526113fc01526000611437015261194f6000f3fe6080604052600436106101235760003560e01c80638980f11f116100a0578063d8baf7cf11610064578063d8baf7cf14610331578063eab90da614610351578063ef99893a14610371578063f2fde38b14610391578063f8742254146103b157600080fd5b80638980f11f1461029c5780638bb9c5bf146102bc57806391d14854146102dc578063a217fddf146102fc578063d547741f1461031157600080fd5b80634ebb7916116100e75780634ebb79161461020657806369cff80d146102265780636b453c1f1461023c5780637ae267731461025c57806384a33e631461027c57600080fd5b806301ffc9a71461012f57806306fdde0314610164578063248a9ca3146101865780632f2ff15d146101c457806336568abe146101e657600080fd5b3661012a57005b600080fd5b34801561013b57600080fd5b5061014f61014a3660046114ee565b6103d3565b60405190151581526020015b60405180910390f35b34801561017057600080fd5b5061017961040a565b60405161015b9190611568565b34801561019257600080fd5b506101b66101a136600461157b565b60009081526020819052604090206001015490565b60405190815260200161015b565b3480156101d057600080fd5b506101e46101df3660046115b0565b610498565b005b3480156101f257600080fd5b506101e46102013660046115b0565b6104c2565b34801561021257600080fd5b506101e461022136600461157b565b610545565b34801561023257600080fd5b506101b660015481565b34801561024857600080fd5b506101e46102573660046115dc565b610633565b34801561026857600080fd5b506101e46102773660046115f7565b61064e565b34801561028857600080fd5b506101e461029736600461157b565b610698565b3480156102a857600080fd5b506101e46102b7366004611621565b61074b565b3480156102c857600080fd5b506101e46102d736600461157b565b61082c565b3480156102e857600080fd5b5061014f6102f73660046115b0565b610837565b34801561030857600080fd5b506101b6600081565b34801561031d57600080fd5b506101e461032c3660046115b0565b610860565b34801561033d57600080fd5b506101e461034c3660046115dc565b610885565b34801561035d57600080fd5b506101e461036c36600461164b565b61089d565b34801561037d57600080fd5b506101b661038c3660046116a2565b610a44565b34801561039d57600080fd5b506101e46103ac3660046115dc565b610a5b565b3480156103bd57600080fd5b506101b66000805160206118fa83398151915281565b60006001600160e01b03198216637965db0b60e01b148061040457506301ffc9a760e01b6001600160e01b03198316145b92915050565b60028054610417906116de565b80601f0160208091040260200160405190810160405280929190818152602001828054610443906116de565b80156104905780601f1061046557610100808354040283529160200191610490565b820191906000526020600020905b81548152906001019060200180831161047357829003601f168201915b505050505081565b6000828152602081905260409020600101546104b381610a72565b6104bd8383610a7c565b505050565b6001600160a01b03811633146105375760405162461bcd60e51b815260206004820152602f60248201527f416363657373436f6e74726f6c3a2063616e206f6e6c792072656e6f756e636560448201526e103937b632b9903337b91039b2b63360891b60648201526084015b60405180910390fd5b6105418282610b00565b5050565b3361055e6000805160206118fa83398151915282610837565b61057a5760405162461bcd60e51b815260040161052e90611718565b600082116105ca5760405162461bcd60e51b815260206004820152601e60248201527f59616b416461707465723a204e6f7468696e6720746f207265636f7665720000604482015260640161052e565b604051339083156108fc029084906000818181858888f193505050501580156105f7573d6000803e3d6000fd5b506040518281526000907f8c1256b8896378cd5044f80c202f9772b9d77dc85c8a6eb51967210b09bfaa28906020015b60405180910390a25050565b61064b6000805160206118fa83398151915282610498565b50565b336106676000805160206118fa83398151915282610837565b6106835760405162461bcd60e51b815260040161052e90611718565b6104bd6001600160a01b038416836000610b65565b336106b16000805160206118fa83398151915282610837565b6106cd5760405162461bcd60e51b815260040161052e90611718565b816000036107145760405162461bcd60e51b8152602060048201526014602482015273496e76616c6964206761732d657374696d61746560601b604482015260640161052e565b600182905560405182815230907ff43f23b7a28e6f8ce6843a21bd7b48bce778aa913b8c8cf459edf7d770e8d38a90602001610627565b336107646000805160206118fa83398151915282610837565b6107805760405162461bcd60e51b815260040161052e90611718565b600082116107d05760405162461bcd60e51b815260206004820152601e60248201527f59616b416461707465723a204e6f7468696e6720746f207265636f7665720000604482015260640161052e565b6107e46001600160a01b0384163384610cad565b826001600160a01b03167f8c1256b8896378cd5044f80c202f9772b9d77dc85c8a6eb51967210b09bfaa288360405161081f91815260200190565b60405180910390a2505050565b3361054182826104c2565b6000918252602082815260408084206001600160a01b0393909316845291905290205460ff1690565b60008281526020819052604090206001015461087b81610a72565b6104bd8383610b00565b61064b6000805160206118fa83398151915282610860565b6040516370a0823160e01b81526001600160a01b038281166004830152600091908416906370a0823190602401602060405180830381865afa1580156108e7573d6000803e3d6000fd5b505050506040513d601f19601f8201168201806040525081019061090b9190611760565b905061091a8686868686610cdd565b6040516370a0823160e01b81526001600160a01b03838116600483015260009183918616906370a0823190602401602060405180830381865afa158015610965573d6000803e3d6000fd5b505050506040513d601f19601f820116820180604052508101906109899190611760565b610993919061178f565b9050858110156109e55760405162461bcd60e51b815260206004820152601760248201527f496e73756666696369656e7420616d6f756e742d6f7574000000000000000000604482015260640161052e565b836001600160a01b0316856001600160a01b03167fe2bdbc6b7225eb0a972ac943c485a6cc05f7c6811838bce8903f23200fb744fa8989604051610a33929190918252602082015260400190565b60405180910390a350505050505050565b6000610a51848484610df5565b90505b9392505050565b33610a67600083610498565b6105416000826104c2565b61064b8133610e31565b610a868282610837565b610541576000828152602081815260408083206001600160a01b03851684529091529020805460ff19166001179055610abc3390565b6001600160a01b0316816001600160a01b0316837f2f8788117e7eff1d82e926ec794901d17c78024a50270940304540a733656f0d60405160405180910390a45050565b610b0a8282610837565b15610541576000828152602081815260408083206001600160a01b0385168085529252808320805460ff1916905551339285917ff6391f5c32d9c69d2a47ea670b442974b53935d1edc7fd64eb21e047a839171b9190a45050565b801580610bdf5750604051636eb1769f60e11b81523060048201526001600160a01b03838116602483015284169063dd62ed3e90604401602060405180830381865afa158015610bb9573d6000803e3d6000fd5b505050506040513d601f19601f82011682018060405250810190610bdd9190611760565b155b610c4a5760405162461bcd60e51b815260206004820152603660248201527f5361666545524332303a20617070726f76652066726f6d206e6f6e2d7a65726f60448201527520746f206e6f6e2d7a65726f20616c6c6f77616e636560501b606482015260840161052e565b6040516001600160a01b0383166024820152604481018290526104bd90849063095ea7b360e01b906064015b60408051601f198184030181529190526020810180516001600160e01b03166001600160e01b031990931692909217909152610e95565b6040516001600160a01b0383166024820152604481018290526104bd90849063a9059cbb60e01b90606401610c76565b600080610ceb878686610fc4565b9150915085821015610d385760405162461bcd60e51b8152602060048201526016602482015275125b9cdd59999a58d95b9d08185b5bdd5b9d081bdd5d60521b604482015260640161052e565b600080856001600160a01b0316876001600160a01b031610610d5c57836000610d60565b6000845b9092509050610d796001600160a01b038816848b610cad565b6040805160008152602081019182905263022c0d9f60e01b9091526001600160a01b0384169063022c0d9f90610db890859085908a90602481016117b8565b600060405180830381600087803b158015610dd257600080fd5b505af1158015610de6573d6000803e3d6000fd5b50505050505050505050505050565b6000816001600160a01b0316836001600160a01b031614158015610e1857508315155b15610a5457610e28848484610fc4565b50949350505050565b610e3b8282610837565b61054157610e53816001600160a01b03166014611219565b610e5e836020611219565b604051602001610e6f9291906117ef565b60408051601f198184030181529082905262461bcd60e51b825261052e91600401611568565b600080836001600160a01b031683604051610eb09190611864565b6000604051808303816000865af19150503d8060008114610eed576040519150601f19603f3d011682016040523d82523d6000602084013e610ef2565b606091505b509150915081610f445760405162461bcd60e51b815260206004820181905260248201527f5361666545524332303a206c6f772d6c6576656c2063616c6c206661696c6564604482015260640161052e565b805115610fbe5780806020019051810190610f5f9190611880565b610fbe5760405162461bcd60e51b815260206004820152602a60248201527f5361666545524332303a204552433230206f7065726174696f6e20646964206e6044820152691bdd081cdd58d8d9595960b21b606482015260840161052e565b50505050565b6000806000610fd5858560016113b5565b60405163e5e31b1360e01b81526001600160a01b03828116600483015291925060009182917f00000000000000000000000000000000000000000000000000000000000000009091169063e5e31b1390602401602060405180830381865afa158015611045573d6000803e3d6000fd5b505050506040513d601f19601f820116820180604052508101906110699190611880565b156110e2576040516378a051ad60e11b8152600481018990526001600160a01b03888116602483015284169063f140a35a90604401602060405180830381865afa1580156110bb573d6000803e3d6000fd5b505050506040513d601f19601f820116820180604052508101906110df9190611760565b91505b60006110f0888860006113b5565b60405163e5e31b1360e01b81526001600160a01b0380831660048301529192507f00000000000000000000000000000000000000000000000000000000000000009091169063e5e31b1390602401602060405180830381865afa15801561115b573d6000803e3d6000fd5b505050506040513d601f19601f8201168201806040525081019061117f9190611880565b156111f8576040516378a051ad60e11b8152600481018a90526001600160a01b03898116602483015282169063f140a35a90604401602060405180830381865afa1580156111d1573d6000803e3d6000fd5b505050506040513d601f19601f820116820180604052508101906111f59190611760565b91505b818311611206578181611209565b82845b909a909950975050505050505050565b606060006112288360026118a2565b6112339060026118b9565b67ffffffffffffffff81111561124b5761124b6117a2565b6040519080825280601f01601f191660200182016040528015611275576020820181803683370190505b509050600360fc1b81600081518110611290576112906118cc565b60200101906001600160f81b031916908160001a905350600f60fb1b816001815181106112bf576112bf6118cc565b60200101906001600160f81b031916908160001a90535060006112e38460026118a2565b6112ee9060016118b9565b90505b6001811115611366576f181899199a1a9b1b9c1cb0b131b232b360811b85600f1660108110611322576113226118cc565b1a60f81b828281518110611338576113386118cc565b60200101906001600160f81b031916908160001a90535060049490941c9361135f816118e2565b90506112f1565b508315610a545760405162461bcd60e51b815260206004820181905260248201527f537472696e67733a20686578206c656e67746820696e73756666696369656e74604482015260640161052e565b60008060006113c486866114bd565b6040516bffffffffffffffffffffffff19606084811b8216602084015283901b16603482015286151560f81b604882015291935091507f000000000000000000000000000000000000000000000000000000000000000090604901604051602081830303815290604052805190602001207f000000000000000000000000000000000000000000000000000000000000000060405160200161149b939291906001600160f81b0319815260609390931b6bffffffffffffffffffffffff191660018401526015830191909152603582015260550190565b60408051601f1981840301815291905280516020909101209695505050505050565b600080826001600160a01b0316846001600160a01b0316106114e05782846114e3565b83835b909590945092505050565b60006020828403121561150057600080fd5b81356001600160e01b031981168114610a5457600080fd5b60005b8381101561153357818101518382015260200161151b565b50506000910152565b60008151808452611554816020860160208601611518565b601f01601f19169290920160200192915050565b602081526000610a54602083018461153c565b60006020828403121561158d57600080fd5b5035919050565b80356001600160a01b03811681146115ab57600080fd5b919050565b600080604083850312156115c357600080fd5b823591506115d360208401611594565b90509250929050565b6000602082840312156115ee57600080fd5b610a5482611594565b6000806040838503121561160a57600080fd5b61161383611594565b91506115d360208401611594565b6000806040838503121561163457600080fd5b61163d83611594565b946020939093013593505050565b600080600080600060a0868803121561166357600080fd5b853594506020860135935061167a60408701611594565b925061168860608701611594565b915061169660808701611594565b90509295509295909350565b6000806000606084860312156116b757600080fd5b833592506116c760208501611594565b91506116d560408501611594565b90509250925092565b600181811c908216806116f257607f821691505b60208210810361171257634e487b7160e01b600052602260045260246000fd5b50919050565b60208082526028908201527f4d61696e7461696e61626c653a2043616c6c6572206973206e6f742061206d6160408201526734b73a30b4b732b960c11b606082015260800190565b60006020828403121561177257600080fd5b5051919050565b634e487b7160e01b600052601160045260246000fd5b8181038181111561040457610404611779565b634e487b7160e01b600052604160045260246000fd5b84815283602082015260018060a01b03831660408201526080606082015260006117e5608083018461153c565b9695505050505050565b7f416363657373436f6e74726f6c3a206163636f756e7420000000000000000000815260008351611827816017850160208801611518565b7001034b99036b4b9b9b4b733903937b6329607d1b6017918401918201528351611858816028840160208801611518565b01602801949350505050565b60008251611876818460208701611518565b9190910192915050565b60006020828403121561189257600080fd5b81518015158114610a5457600080fd5b808202811582820484141761040457610404611779565b8082018082111561040457610404611779565b634e487b7160e01b600052603260045260246000fd5b6000816118f1576118f1611779565b50600019019056fe339759585899103d2ace64958e37e18ccb0504652c81d4a1b8aa80fe2126ab95a2646970667358221220209994426845e1156d72acfef1b4055b426f667cfdfe85a7b581c016503e0f2064736f6c63430008110033",
    "linkReferences": {}
  },
  "methodIdentifiers": {
    "DEFAULT_ADMIN_ROLE()": "a217fddf",
    "MAINTAINER_ROLE()": "f8742254",
    "addMaintainer(address)": "6b453c1f",
    "getRoleAdmin(bytes32)": "248a9ca3",
    "grantRole(bytes32,address)": "2f2ff15d",
    "hasRole(bytes32,address)": "91d14854",
    "name()": "06fdde03",
    "query(uint256,address,address)": "ef99893a",
    "recoverAVAX(uint256)": "4ebb7916",
    "recoverERC20(address,uint256)": "8980f11f",
    "removeMaintainer(address)": "d8baf7cf",
    "renounceRole(bytes32)": "8bb9c5bf",
    "renounceRole(bytes32,address)": "36568abe",
    "revokeAllowance(address,address)": "7ae26773",
    "revokeRole(bytes32,address)": "d547741f",
    "setSwapGasEstimate(uint256)": "84a33e63",
    "supportsInterface(bytes4)": "01ffc9a7",
    "swap(uint256,uint256,address,address,address)": "eab90da6",
    "swapGasEstimate()": "69cff80d",
    "transferOwnership(address)": "f2fde38b"
  },
  "id": 38
}