{
  "abi": [
    {
      "inputs": [
        {
          "internalType": "string",
          "name": "_name",
          "type": "string"
        },
        {
          "internalType": "address[]",
          "name": "_pools",
          "type": "address[]"
        },
        {
          "internalType": "uint256",
          "name": "_swapGasEstimate",
          "type": "uint256"
        }
      ],
      "stateMutability": "nonpayable",
      "type": "constructor"
    },
    {
      "anonymous": false,
      "inputs": [
        {
          "indexed": true,
          "internalType": "address",
          "name": "_asset",
          "type": "address"
        },
        {
          "indexed": false,
          "internalType": "uint256",
          "name": "amount",
          "type": "uint256"
        }
      ],
      "name": "Recovered",
      "type": "event"
    },
    {
      "anonymous": false,
      "inputs": [
        {
          "indexed": true,
          "internalType": "bytes32",
          "name": "role",
          "type": "bytes32"
        },
        {
          "indexed": true,
          "internalType": "bytes32",
          "name": "previousAdminRole",
          "type": "bytes32"
        },
        {
          "indexed": true,
          "internalType": "bytes32",
          "name": "newAdminRole",
          "type": "bytes32"
        }
      ],
      "name": "RoleAdminChanged",
      "type": "event"
    },
    {
      "anonymous": false,
      "inputs": [
        {
          "indexed": true,
          "internalType": "bytes32",
          "name": "role",
          "type": "bytes32"
        },
        {
          "indexed": true,
          "internalType": "address",
          "name": "account",
          "type": "address"
        },
        {
          "indexed": true,
          "internalType": "address",
          "name": "sender",
          "type": "address"
        }
      ],
      "name": "RoleGranted",
      "type": "event"
    },
    {
      "anonymous": false,
      "inputs": [
        {
          "indexed": true,
          "internalType": "bytes32",
          "name": "role",
          "type": "bytes32"
        },
        {
          "indexed": true,
          "internalType": "address",
          "name": "account",
          "type": "address"
        },
        {
          "indexed": true,
          "internalType": "address",
          "name": "sender",
          "type": "address"
        }
      ],
      "name": "RoleRevoked",
      "type": "event"
    },
    {
      "anonymous": false,
      "inputs": [
        {
          "indexed": true,
          "internalType": "address",
          "name": "_adapter",
          "type": "address"
        },
        {
          "indexed": false,
          "internalType": "uint256",
          "name": "_newEstimate",
          "type": "uint256"
        }
      ],
      "name": "UpdatedGasEstimate",
      "type": "event"
    },
    {
      "anonymous": false,
      "inputs": [
        {
          "indexed": true,
          "internalType": "address",
          "name": "_tokenFrom",
          "type": "address"
        },
        {
          "indexed": true,
          "internalType": "address",
          "name": "_tokenTo",
          "type": "address"
        },
        {
          "indexed": false,
          "internalType": "uint256",
          "name": "_amountIn",
          "type": "uint256"
        },
        {
          "indexed": false,
          "internalType": "uint256",
          "name": "_amountOut",
          "type": "uint256"
        }
      ],
      "name": "YakAdapterSwap",
      "type": "event"
    },
    {
      "inputs": [],
      "name": "DEFAULT_ADMIN_ROLE",
      "outputs": [
        {
          "internalType": "bytes32",
          "name": "",
          "type": "bytes32"
        }
      ],
      "stateMutability": "view",
      "type": "function"
    },
    {
      "inputs": [],
      "name": "MAINTAINER_ROLE",
      "outputs": [
        {
          "internalType": "bytes32",
          "name": "",
          "type": "bytes32"
        }
      ],
      "stateMutability": "view",
      "type": "function"
    },
    {
      "inputs": [],
      "name": "PRECISION",
      "outputs": [
        {
          "internalType": "uint256",
          "name": "",
          "type": "uint256"
        }
      ],
      "stateMutability": "view",
      "type": "function"
    },
    {
      "inputs": [
        {
          "internalType": "address",
          "name": "addedMaintainer",
          "type": "address"
        }
      ],
      "name": "addMaintainer",
      "outputs": [],
      "stateMutability": "nonpayable",
      "type": "function"
    },
    {
      "inputs": [
        {
          "internalType": "address[]",
          "name": "_pools",
          "type": "address[]"
        }
      ],
      "name": "addPools",
      "outputs": [],
      "stateMutability": "nonpayable",
      "type": "function"
    },
    {
      "inputs": [
        {
          "internalType": "address",
          "name": "tkn0",
          "type": "address"
        },
        {
          "internalType": "address",
          "name": "tkn1",
          "type": "address"
        }
      ],
      "name": "getPool",
      "outputs": [
        {
          "internalType": "address",
          "name": "",
          "type": "address"
        }
      ],
      "stateMutability": "view",
      "type": "function"
    },
    {
      "inputs": [
        {
          "internalType": "bytes32",
          "name": "role",
          "type": "bytes32"
        }
      ],
      "name": "getRoleAdmin",
      "outputs": [
        {
          "internalType": "bytes32",
          "name": "",
          "type": "bytes32"
        }
      ],
      "stateMutability": "view",
      "type": "function"
    },
    {
      "inputs": [
        {
          "internalType": "bytes32",
          "name": "role",
          "type": "bytes32"
        },
        {
          "internalType": "address",
          "name": "account",
          "type": "address"
        }
      ],
      "name": "grantRole",
      "outputs": [],
      "stateMutability": "nonpayable",
      "type": "function"
    },
    {
      "inputs": [
        {
          "internalType": "bytes32",
          "name": "role",
          "type": "bytes32"
        },
        {
          "internalType": "address",
          "name": "account",
          "type": "address"
        }
      ],
      "name": "hasRole",
      "outputs": [
        {
          "internalType": "bool",
          "name": "",
          "type": "bool"
        }
      ],
      "stateMutability": "view",
      "type": "function"
    },
    {
      "inputs": [],
      "name": "name",
      "outputs": [
        {
          "internalType": "string",
          "name": "",
          "type": "string"
        }
      ],
      "stateMutability": "view",
      "type": "function"
    },
    {
      "inputs": [
        {
          "internalType": "uint256",
          "name": "_amountIn",
          "type": "uint256"
        },
        {
          "internalType": "address",
          "name": "_tokenIn",
          "type": "address"
        },
        {
          "internalType": "address",
          "name": "_tokenOut",
          "type": "address"
        }
      ],
      "name": "query",
      "outputs": [
        {
          "internalType": "uint256",
          "name": "",
          "type": "uint256"
        }
      ],
      "stateMutability": "view",
      "type": "function"
    },
    {
      "inputs": [
        {
          "internalType": "uint256",
          "name": "_amount",
          "type": "uint256"
        }
      ],
      "name": "recoverAVAX",
      "outputs": [],
      "stateMutability": "nonpayable",
      "type": "function"
    },
    {
      "inputs": [
        {
          "internalType": "address",
          "name": "_tokenAddress",
          "type": "address"
        },
        {
          "internalType": "uint256",
          "name": "_tokenAmount",
          "type": "uint256"
        }
      ],
      "name": "recoverERC20",
      "outputs": [],
      "stateMutability": "nonpayable",
      "type": "function"
    },
    {
      "inputs": [
        {
          "internalType": "address",
          "name": "removedMaintainer",
          "type": "address"
        }
      ],
      "name": "removeMaintainer",
      "outputs": [],
      "stateMutability": "nonpayable",
      "type": "function"
    },
    {
      "inputs": [
        {
          "internalType": "address[]",
          "name": "_pools",
          "type": "address[]"
        }
      ],
      "name": "removePools",
      "outputs": [],
      "stateMutability": "nonpayable",
      "type": "function"
    },
    {
      "inputs": [
        {
          "internalType": "bytes32",
          "name": "role",
          "type": "bytes32"
        },
        {
          "internalType": "address",
          "name": "account",
          "type": "address"
        }
      ],
      "name": "renounceRole",
      "outputs": [],
      "stateMutability": "nonpayable",
      "type": "function"
    },
    {
      "inputs": [
        {
          "internalType": "bytes32",
          "name": "role",
          "type": "bytes32"
        }
      ],
      "name": "renounceRole",
      "outputs": [],
      "stateMutability": "nonpayable",
      "type": "function"
    },
    {
      "inputs": [
        {
          "internalType": "address",
          "name": "_token",
          "type": "address"
        },
        {
          "internalType": "address",
          "name": "_spender",
          "type": "address"
        }
      ],
      "name": "revokeAllowance",
      "outputs": [],
      "stateMutability": "nonpayable",
      "type": "function"
    },
    {
      "inputs": [
        {
          "internalType": "bytes32",
          "name": "role",
          "type": "bytes32"
        },
        {
          "internalType": "address",
          "name": "account",
          "type": "address"
        }
      ],
      "name": "revokeRole",
      "outputs": [],
      "stateMutability": "nonpayable",
      "type": "function"
    },
    {
      "inputs": [
        {
          "internalType": "uint256",
          "name": "_estimate",
          "type": "uint256"
        }
      ],
      "name": "setSwapGasEstimate",
      "outputs": [],
      "stateMutability": "nonpayable",
      "type": "function"
    },
    {
      "inputs": [
        {
          "internalType": "bytes4",
          "name": "interfaceId",
          "type": "bytes4"
        }
      ],
      "name": "supportsInterface",
      "outputs": [
        {
          "internalType": "bool",
          "name": "",
          "type": "bool"
        }
      ],
      "stateMutability": "view",
      "type": "function"
    },
    {
      "inputs": [
        {
          "internalType": "uint256",
          "name": "_amountIn",
          "type": "uint256"
        },
        {
          "internalType": "uint256",
          "name": "_amountOut",
          "type": "uint256"
        },
        {
          "internalType": "address",
          "name": "_fromToken",
          "type": "address"
        },
        {
          "internalType": "address",
          "name": "_toToken",
          "type": "address"
        },
        {
          "internalType": "address",
          "name": "_to",
          "type": "address"
        }
      ],
      "name": "swap",
      "outputs": [],
      "stateMutability": "nonpayable",
      "type": "function"
    },
    {
      "inputs": [],
      "name": "swapGasEstimate",
      "outputs": [
        {
          "internalType": "uint256",
          "name": "",
          "type": "uint256"
        }
      ],
      "stateMutability": "view",
      "type": "function"
    },
    {
      "inputs": [
        {
          "internalType": "address",
          "name": "newOwner",
          "type": "address"
        }
      ],
      "name": "transferOwnership",
      "outputs": [],
      "stateMutability": "nonpayable",
      "type": "function"
    },
    {
      "stateMutability": "payable",
      "type": "receive"
    }
  ],
  "bytecode": {
    "object": "0x60806040523480156200001157600080fd5b506040516200264838038062002648833981016040819052620000349162000600565b828133620000446000826200009e565b620000707f339759585899103d2ace64958e37e18ccb0504652c81d4a1b8aa80fe2126ab95826200009e565b506200007c82620000ae565b620000878162000113565b506200009590508262000212565b505050620008a2565b620000aa828262000469565b5050565b8051600003620001055760405162461bcd60e51b815260206004820152601460248201527f496e76616c69642061646170746572206e616d6500000000000000000000000060448201526064015b60405180910390fd5b6002620000aa828262000773565b33600081815260008051602062002608833981519152602052604090205460ff16620001825760405162461bcd60e51b815260206004820152602860248201526000805160206200262883398151915260448201526734b73a30b4b732b960c11b6064820152608401620000fc565b81600003620001d45760405162461bcd60e51b815260206004820152601460248201527f496e76616c6964206761732d657374696d6174650000000000000000000000006044820152606401620000fc565b600182905560405182815230907ff43f23b7a28e6f8ce6843a21bd7b48bce778aa913b8c8cf459edf7d770e8d38a9060200160405180910390a25050565b33600081815260008051602062002608833981519152602052604090205460ff16620002815760405162461bcd60e51b815260206004820152602860248201526000805160206200262883398151915260448201526734b73a30b4b732b960c11b6064820152608401620000fc565b60005b825181101562000464576000838281518110620002a557620002a56200083f565b60200260200101516001600160a01b0316630dfe16816040518163ffffffff1660e01b8152600401602060405180830381865afa158015620002eb573d6000803e3d6000fd5b505050506040513d601f19601f8201168201806040525081019062000311919062000855565b905060008483815181106200032a576200032a6200083f565b60200260200101516001600160a01b031663d21220a76040518163ffffffff1660e01b8152600401602060405180830381865afa15801562000370573d6000803e3d6000fd5b505050506040513d601f19601f8201168201806040525081019062000396919062000855565b9050848381518110620003ad57620003ad6200083f565b6020908102919091018101516001600160a01b03848116600090815260038452604080822086841683529094529290922080546001600160a01b0319169290911691909117905584518590849081106200040b576200040b6200083f565b6020908102919091018101516001600160a01b03928316600090815260038352604080822095851682529490925292902080546001600160a01b03191691909216179055806200045b816200087a565b91505062000284565b505050565b6000828152602081815260408083206001600160a01b038516845290915290205460ff16620000aa576000828152602081815260408083206001600160a01b03851684529091529020805460ff19166001179055620004c53390565b6001600160a01b0316816001600160a01b0316837f2f8788117e7eff1d82e926ec794901d17c78024a50270940304540a733656f0d60405160405180910390a45050565b634e487b7160e01b600052604160045260246000fd5b604051601f8201601f191681016001600160401b03811182821017156200054a576200054a62000509565b604052919050565b80516001600160a01b03811681146200056a57600080fd5b919050565b600082601f8301126200058157600080fd5b815160206001600160401b038211156200059f576200059f62000509565b8160051b620005b08282016200051f565b9283528481018201928281019087851115620005cb57600080fd5b83870192505b84831015620005f557620005e58362000552565b82529183019190830190620005d1565b979650505050505050565b6000806000606084860312156200061657600080fd5b83516001600160401b03808211156200062e57600080fd5b818601915086601f8301126200064357600080fd5b81518181111562000658576200065862000509565b60206200066e601f8301601f191682016200051f565b82815289828487010111156200068357600080fd5b60005b83811015620006a357858101830151828201840152820162000686565b506000928101820192909252870151909550915080821115620006c557600080fd5b50620006d4868287016200056f565b925050604084015190509250925092565b600181811c90821680620006fa57607f821691505b6020821081036200071b57634e487b7160e01b600052602260045260246000fd5b50919050565b601f8211156200046457600081815260208120601f850160051c810160208610156200074a5750805b601f850160051c820191505b818110156200076b5782815560010162000756565b505050505050565b81516001600160401b038111156200078f576200078f62000509565b620007a781620007a08454620006e5565b8462000721565b602080601f831160018114620007df5760008415620007c65750858301515b600019600386901b1c1916600185901b1785556200076b565b600085815260208120601f198616915b828110156200081057888601518255948401946001909101908401620007ef565b50858210156200082f5787850151600019600388901b60f8161c191681555b5050505050600190811b01905550565b634e487b7160e01b600052603260045260246000fd5b6000602082840312156200086857600080fd5b620008738262000552565b9392505050565b6000600182016200089b57634e487b7160e01b600052601160045260246000fd5b5060010190565b611d5680620008b26000396000f3fe60806040526004361061014f5760003560e01c80638980f11f116100b6578063d547741f1161006f578063d547741f146103d1578063d8baf7cf146103f1578063eab90da614610411578063ef99893a14610431578063f2fde38b14610451578063f87422541461047157600080fd5b80638980f11f146103205780638bb9c5bf1461034057806391d1485414610360578063a217fddf14610380578063aaf5eb6814610395578063b36a4ab1146103b157600080fd5b80634ebb7916116101085780634ebb791614610252578063531aa03e1461027257806369cff80d146102aa5780636b453c1f146102c05780637ae26773146102e057806384a33e631461030057600080fd5b806301ffc9a71461015b57806306fdde0314610190578063248a9ca3146101b25780632f2ff15d146101f057806336568abe146102125780634b1641401461023257600080fd5b3661015657005b600080fd5b34801561016757600080fd5b5061017b61017636600461174c565b610493565b60405190151581526020015b60405180910390f35b34801561019c57600080fd5b506101a56104ca565b60405161018791906117c6565b3480156101be57600080fd5b506101e26101cd3660046117d9565b60009081526020819052604090206001015490565b604051908152602001610187565b3480156101fc57600080fd5b5061021061020b366004611817565b610558565b005b34801561021e57600080fd5b5061021061022d366004611817565b610582565b34801561023e57600080fd5b5061021061024d36600461185d565b610605565b34801561025e57600080fd5b5061021061026d3660046117d9565b6107a5565b34801561027e57600080fd5b5061029261028d366004611916565b610893565b6040516001600160a01b039091168152602001610187565b3480156102b657600080fd5b506101e260015481565b3480156102cc57600080fd5b506102106102db366004611944565b6108bd565b3480156102ec57600080fd5b506102106102fb366004611916565b6108d8565b34801561030c57600080fd5b5061021061031b3660046117d9565b610922565b34801561032c57600080fd5b5061021061033b366004611961565b6109d5565b34801561034c57600080fd5b5061021061035b3660046117d9565b610ab6565b34801561036c57600080fd5b5061017b61037b366004611817565b610ac1565b34801561038c57600080fd5b506101e2600081565b3480156103a157600080fd5b506101e2670de0b6b3a764000081565b3480156103bd57600080fd5b506102106103cc36600461185d565b610aea565b3480156103dd57600080fd5b506102106103ec366004611817565b610cec565b3480156103fd57600080fd5b5061021061040c366004611944565b610d11565b34801561041d57600080fd5b5061021061042c36600461198d565b610d29565b34801561043d57600080fd5b506101e261044c3660046119ec565b610ed0565b34801561045d57600080fd5b5061021061046c366004611944565b610ee7565b34801561047d57600080fd5b506101e2600080516020611d0183398151915281565b60006001600160e01b03198216637965db0b60e01b14806104c457506301ffc9a760e01b6001600160e01b03198316145b92915050565b600280546104d790611a2e565b80601f016020809104026020016040519081016040528092919081815260200182805461050390611a2e565b80156105505780601f1061052557610100808354040283529160200191610550565b820191906000526020600020905b81548152906001019060200180831161053357829003601f168201915b505050505081565b60008281526020819052604090206001015461057381610efe565b61057d8383610f08565b505050565b6001600160a01b03811633146105f75760405162461bcd60e51b815260206004820152602f60248201527f416363657373436f6e74726f6c3a2063616e206f6e6c792072656e6f756e636560448201526e103937b632b9903337b91039b2b63360891b60648201526084015b60405180910390fd5b6106018282610f8c565b5050565b3361061e600080516020611d0183398151915282610ac1565b61063a5760405162461bcd60e51b81526004016105ee90611a68565b60005b825181101561057d57600083828151811061065a5761065a611ab0565b60200260200101516001600160a01b0316630dfe16816040518163ffffffff1660e01b8152600401602060405180830381865afa15801561069f573d6000803e3d6000fd5b505050506040513d601f19601f820116820180604052508101906106c39190611ac6565b905060008483815181106106d9576106d9611ab0565b60200260200101516001600160a01b031663d21220a76040518163ffffffff1660e01b8152600401602060405180830381865afa15801561071e573d6000803e3d6000fd5b505050506040513d601f19601f820116820180604052508101906107429190611ac6565b6001600160a01b03928316600081815260036020818152604080842097909516835295865283822080546001600160a01b03199081169091559086528382209282529190945292208054909216909155508061079d81611af9565b91505061063d565b336107be600080516020611d0183398151915282610ac1565b6107da5760405162461bcd60e51b81526004016105ee90611a68565b6000821161082a5760405162461bcd60e51b815260206004820152601e60248201527f59616b416461707465723a204e6f7468696e6720746f207265636f766572000060448201526064016105ee565b604051339083156108fc029084906000818181858888f19350505050158015610857573d6000803e3d6000fd5b506040518281526000907f8c1256b8896378cd5044f80c202f9772b9d77dc85c8a6eb51967210b09bfaa28906020015b60405180910390a25050565b6001600160a01b039182166000908152600360209081526040808320938516835292905220541690565b6108d5600080516020611d0183398151915282610558565b50565b336108f1600080516020611d0183398151915282610ac1565b61090d5760405162461bcd60e51b81526004016105ee90611a68565b61057d6001600160a01b038416836000610ff1565b3361093b600080516020611d0183398151915282610ac1565b6109575760405162461bcd60e51b81526004016105ee90611a68565b8160000361099e5760405162461bcd60e51b8152602060048201526014602482015273496e76616c6964206761732d657374696d61746560601b60448201526064016105ee565b600182905560405182815230907ff43f23b7a28e6f8ce6843a21bd7b48bce778aa913b8c8cf459edf7d770e8d38a90602001610887565b336109ee600080516020611d0183398151915282610ac1565b610a0a5760405162461bcd60e51b81526004016105ee90611a68565b60008211610a5a5760405162461bcd60e51b815260206004820152601e60248201527f59616b416461707465723a204e6f7468696e6720746f207265636f766572000060448201526064016105ee565b610a6e6001600160a01b0384163384611139565b826001600160a01b03167f8c1256b8896378cd5044f80c202f9772b9d77dc85c8a6eb51967210b09bfaa2883604051610aa991815260200190565b60405180910390a2505050565b336106018282610582565b6000918252602082815260408084206001600160a01b0393909316845291905290205460ff1690565b33610b03600080516020611d0183398151915282610ac1565b610b1f5760405162461bcd60e51b81526004016105ee90611a68565b60005b825181101561057d576000838281518110610b3f57610b3f611ab0565b60200260200101516001600160a01b0316630dfe16816040518163ffffffff1660e01b8152600401602060405180830381865afa158015610b84573d6000803e3d6000fd5b505050506040513d601f19601f82011682018060405250810190610ba89190611ac6565b90506000848381518110610bbe57610bbe611ab0565b60200260200101516001600160a01b031663d21220a76040518163ffffffff1660e01b8152600401602060405180830381865afa158015610c03573d6000803e3d6000fd5b505050506040513d601f19601f82011682018060405250810190610c279190611ac6565b9050848381518110610c3b57610c3b611ab0565b6020908102919091018101516001600160a01b03848116600090815260038452604080822086841683529094529290922080546001600160a01b031916929091169190911790558451859084908110610c9657610c96611ab0565b6020908102919091018101516001600160a01b03928316600090815260038352604080822095851682529490925292902080546001600160a01b0319169190921617905580610ce481611af9565b915050610b22565b600082815260208190526040902060010154610d0781610efe565b61057d8383610f8c565b6108d5600080516020611d0183398151915282610cec565b6040516370a0823160e01b81526001600160a01b038281166004830152600091908416906370a0823190602401602060405180830381865afa158015610d73573d6000803e3d6000fd5b505050506040513d601f19601f82011682018060405250810190610d979190611b12565b9050610da68686868686611169565b6040516370a0823160e01b81526001600160a01b03838116600483015260009183918616906370a0823190602401602060405180830381865afa158015610df1573d6000803e3d6000fd5b505050506040513d601f19601f82011682018060405250810190610e159190611b12565b610e1f9190611b2b565b905085811015610e715760405162461bcd60e51b815260206004820152601760248201527f496e73756666696369656e7420616d6f756e742d6f757400000000000000000060448201526064016105ee565b836001600160a01b0316856001600160a01b03167fe2bdbc6b7225eb0a972ac943c485a6cc05f7c6811838bce8903f23200fb744fa8989604051610ebf929190918252602082015260400190565b60405180910390a350505050505050565b6000610edd848484611233565b90505b9392505050565b33610ef3600083610558565b610601600082610582565b6108d581336113bf565b610f128282610ac1565b610601576000828152602081815260408083206001600160a01b03851684529091529020805460ff19166001179055610f483390565b6001600160a01b0316816001600160a01b0316837f2f8788117e7eff1d82e926ec794901d17c78024a50270940304540a733656f0d60405160405180910390a45050565b610f968282610ac1565b15610601576000828152602081815260408083206001600160a01b0385168085529252808320805460ff1916905551339285917ff6391f5c32d9c69d2a47ea670b442974b53935d1edc7fd64eb21e047a839171b9190a45050565b80158061106b5750604051636eb1769f60e11b81523060048201526001600160a01b03838116602483015284169063dd62ed3e90604401602060405180830381865afa158015611045573d6000803e3d6000fd5b505050506040513d601f19601f820116820180604052508101906110699190611b12565b155b6110d65760405162461bcd60e51b815260206004820152603660248201527f5361666545524332303a20617070726f76652066726f6d206e6f6e2d7a65726f60448201527520746f206e6f6e2d7a65726f20616c6c6f77616e636560501b60648201526084016105ee565b6040516001600160a01b03831660248201526044810182905261057d90849063095ea7b360e01b906064015b60408051601f198184030181529190526020810180516001600160e01b03166001600160e01b031990931692909217909152611423565b6040516001600160a01b03831660248201526044810182905261057d90849063a9059cbb60e01b90606401611102565b60006111758484610893565b9050600080846001600160a01b0316866001600160a01b03161061119b5786600061119f565b6000875b90925090506111b86001600160a01b038716848a611139565b6040805160008152602081019182905263022c0d9f60e01b9091526001600160a01b0384169063022c0d9f906111f79085908590899060248101611b3e565b600060405180830381600087803b15801561121157600080fd5b505af1158015611225573d6000803e3d6000fd5b505050505050505050505050565b6000816001600160a01b0316836001600160a01b03161480611253575083155b1561126057506000610ee0565b600061126c8484610893565b90506001600160a01b038116611286576000915050610ee0565b6000806000806000856001600160a01b031663d66940276040518163ffffffff1660e01b815260040160a060405180830381865afa1580156112cc573d6000803e3d6000fd5b505050506040513d601f19601f820116820180604052508101906112f09190611b8c565b94509450945094509450600080896001600160a01b03168b6001600160a01b03161061131d578587611320565b86865b915091506000808b6001600160a01b03168d6001600160a01b03161061134757858761134a565b86865b915091506000846001600160701b031611801561137057506000836001600160701b0316115b156113ae5760006113958f846001600160701b0316846001600160701b031689611552565b90508b846001600160701b031611156113ac57809b505b505b505050505050505050509392505050565b6113c98282610ac1565b610601576113e1816001600160a01b031660146115b0565b6113ec8360206115b0565b6040516020016113fd929190611bea565b60408051601f198184030181529082905262461bcd60e51b82526105ee916004016117c6565b600080836001600160a01b03168360405161143e9190611c5f565b6000604051808303816000865af19150503d806000811461147b576040519150601f19603f3d011682016040523d82523d6000602084013e611480565b606091505b5091509150816114d25760405162461bcd60e51b815260206004820181905260248201527f5361666545524332303a206c6f772d6c6576656c2063616c6c206661696c656460448201526064016105ee565b80511561154c57808060200190518101906114ed9190611c7b565b61154c5760405162461bcd60e51b815260206004820152602a60248201527f5361666545524332303a204552433230206f7065726174696f6e20646964206e6044820152691bdd081cdd58d8d9595960b21b60648201526084016105ee565b50505050565b600080670de0b6b3a76400006115688482611b2b565b6115729088611c9d565b61157c9190611cb4565b9050600061158a8583611c9d565b905060006115988388611cd6565b90506115a48183611cb4565b98975050505050505050565b606060006115bf836002611c9d565b6115ca906002611cd6565b67ffffffffffffffff8111156115e2576115e2611847565b6040519080825280601f01601f19166020018201604052801561160c576020820181803683370190505b509050600360fc1b8160008151811061162757611627611ab0565b60200101906001600160f81b031916908160001a905350600f60fb1b8160018151811061165657611656611ab0565b60200101906001600160f81b031916908160001a905350600061167a846002611c9d565b611685906001611cd6565b90505b60018111156116fd576f181899199a1a9b1b9c1cb0b131b232b360811b85600f16601081106116b9576116b9611ab0565b1a60f81b8282815181106116cf576116cf611ab0565b60200101906001600160f81b031916908160001a90535060049490941c936116f681611ce9565b9050611688565b508315610ee05760405162461bcd60e51b815260206004820181905260248201527f537472696e67733a20686578206c656e67746820696e73756666696369656e7460448201526064016105ee565b60006020828403121561175e57600080fd5b81356001600160e01b031981168114610ee057600080fd5b60005b83811015611791578181015183820152602001611779565b50506000910152565b600081518084526117b2816020860160208601611776565b601f01601f19169290920160200192915050565b602081526000610ee0602083018461179a565b6000602082840312156117eb57600080fd5b5035919050565b6001600160a01b03811681146108d557600080fd5b8035611812816117f2565b919050565b6000806040838503121561182a57600080fd5b82359150602083013561183c816117f2565b809150509250929050565b634e487b7160e01b600052604160045260246000fd5b6000602080838503121561187057600080fd5b823567ffffffffffffffff8082111561188857600080fd5b818501915085601f83011261189c57600080fd5b8135818111156118ae576118ae611847565b8060051b604051601f19603f830116810181811085821117156118d3576118d3611847565b6040529182528482019250838101850191888311156118f157600080fd5b938501935b828510156115a45761190785611807565b845293850193928501926118f6565b6000806040838503121561192957600080fd5b8235611934816117f2565b9150602083013561183c816117f2565b60006020828403121561195657600080fd5b8135610ee0816117f2565b6000806040838503121561197457600080fd5b823561197f816117f2565b946020939093013593505050565b600080600080600060a086880312156119a557600080fd5b853594506020860135935060408601356119be816117f2565b925060608601356119ce816117f2565b915060808601356119de816117f2565b809150509295509295909350565b600080600060608486031215611a0157600080fd5b833592506020840135611a13816117f2565b91506040840135611a23816117f2565b809150509250925092565b600181811c90821680611a4257607f821691505b602082108103611a6257634e487b7160e01b600052602260045260246000fd5b50919050565b60208082526028908201527f4d61696e7461696e61626c653a2043616c6c6572206973206e6f742061206d6160408201526734b73a30b4b732b960c11b606082015260800190565b634e487b7160e01b600052603260045260246000fd5b600060208284031215611ad857600080fd5b8151610ee0816117f2565b634e487b7160e01b600052601160045260246000fd5b600060018201611b0b57611b0b611ae3565b5060010190565b600060208284031215611b2457600080fd5b5051919050565b818103818111156104c4576104c4611ae3565b84815283602082015260018060a01b0383166040820152608060608201526000611b6b608083018461179a565b9695505050505050565b80516001600160701b038116811461181257600080fd5b600080600080600060a08688031215611ba457600080fd5b611bad86611b75565b9450611bbb60208701611b75565b9350611bc960408701611b75565b9250611bd760608701611b75565b9150608086015190509295509295909350565b7f416363657373436f6e74726f6c3a206163636f756e7420000000000000000000815260008351611c22816017850160208801611776565b7001034b99036b4b9b9b4b733903937b6329607d1b6017918401918201528351611c53816028840160208801611776565b01602801949350505050565b60008251611c71818460208701611776565b9190910192915050565b600060208284031215611c8d57600080fd5b81518015158114610ee057600080fd5b80820281158282048414176104c4576104c4611ae3565b600082611cd157634e487b7160e01b600052601260045260246000fd5b500490565b808201808211156104c4576104c4611ae3565b600081611cf857611cf8611ae3565b50600019019056fe339759585899103d2ace64958e37e18ccb0504652c81d4a1b8aa80fe2126ab95a264697066735822122041a550583aa9bd3b8506cbe6c90a1619e443a10074a24aee3cee406f9c94528f64736f6c63430008110033a54247010af6b3693b80aceddfad12e077c5de3571e6243fada502635f0d7d394d61696e7461696e61626c653a2043616c6c6572206973206e6f742061206d61",
    "linkReferences": {}
  },
  "methodIdentifiers": {
    "DEFAULT_ADMIN_ROLE()": "a217fddf",
    "MAINTAINER_ROLE()": "f8742254",
    "PRECISION()": "aaf5eb68",
    "addMaintainer(address)": "6b453c1f",
    "addPools(address[])": "b36a4ab1",
    "getPool(address,address)": "531aa03e",
    "getRoleAdmin(bytes32)": "248a9ca3",
    "grantRole(bytes32,address)": "2f2ff15d",
    "hasRole(bytes32,address)": "91d14854",
    "name()": "06fdde03",
    "query(uint256,address,address)": "ef99893a",
    "recoverAVAX(uint256)": "4ebb7916",
    "recoverERC20(address,uint256)": "8980f11f",
    "removeMaintainer(address)": "d8baf7cf",
    "removePools(address[])": "4b164140",
    "renounceRole(bytes32)": "8bb9c5bf",
    "renounceRole(bytes32,address)": "36568abe",
    "revokeAllowance(address,address)": "7ae26773",
    "revokeRole(bytes32,address)": "d547741f",
    "setSwapGasEstimate(uint256)": "84a33e63",
    "supportsInterface(bytes4)": "01ffc9a7",
    "swap(uint256,uint256,address,address,address)": "eab90da6",
    "swapGasEstimate()": "69cff80d",
    "transferOwnership(address)": "f2fde38b"
  },
  "id": 29
}