{
  "address": "0xffF1E335BcCc178DE27Ad211c1EE4F7Ab7ee6938",
  "abi": [
    {
      "inputs": [
        {
          "internalType": "address[]",
          "name": "_adapters",
          "type": "address[]"
        },
        {
          "internalType": "address[]",
          "name": "_trustedTokens",
          "type": "address[]"
        },
        {
          "internalType": "address",
          "name": "_feeClaimer",
          "type": "address"
        },
        {
          "internalType": "address",
          "name": "_wrapped_native",
          "type": "address"
        }
      ],
      "stateMutability": "nonpayable",
      "type": "constructor"
    },
    {
      "anonymous": false,
      "inputs": [
        {
          "indexed": true,
          "internalType": "address",
          "name": "_asset",
          "type": "address"
        },
        {
          "indexed": false,
          "internalType": "uint256",
          "name": "amount",
          "type": "uint256"
        }
      ],
      "name": "Recovered",
      "type": "event"
    },
    {
      "anonymous": false,
      "inputs": [
        {
          "indexed": true,
          "internalType": "bytes32",
          "name": "role",
          "type": "bytes32"
        },
        {
          "indexed": true,
          "internalType": "bytes32",
          "name": "previousAdminRole",
          "type": "bytes32"
        },
        {
          "indexed": true,
          "internalType": "bytes32",
          "name": "newAdminRole",
          "type": "bytes32"
        }
      ],
      "name": "RoleAdminChanged",
      "type": "event"
    },
    {
      "anonymous": false,
      "inputs": [
        {
          "indexed": true,
          "internalType": "bytes32",
          "name": "role",
          "type": "bytes32"
        },
        {
          "indexed": true,
          "internalType": "address",
          "name": "account",
          "type": "address"
        },
        {
          "indexed": true,
          "internalType": "address",
          "name": "sender",
          "type": "address"
        }
      ],
      "name": "RoleGranted",
      "type": "event"
    },
    {
      "anonymous": false,
      "inputs": [
        {
          "indexed": true,
          "internalType": "bytes32",
          "name": "role",
          "type": "bytes32"
        },
        {
          "indexed": true,
          "internalType": "address",
          "name": "account",
          "type": "address"
        },
        {
          "indexed": true,
          "internalType": "address",
          "name": "sender",
          "type": "address"
        }
      ],
      "name": "RoleRevoked",
      "type": "event"
    },
    {
      "anonymous": false,
      "inputs": [
        {
          "indexed": false,
          "internalType": "address[]",
          "name": "_newAdapters",
          "type": "address[]"
        }
      ],
      "name": "UpdatedAdapters",
      "type": "event"
    },
    {
      "anonymous": false,
      "inputs": [
        {
          "indexed": false,
          "internalType": "address",
          "name": "_oldFeeClaimer",
          "type": "address"
        },
        {
          "indexed": false,
          "internalType": "address",
          "name": "_newFeeClaimer",
          "type": "address"
        }
      ],
      "name": "UpdatedFeeClaimer",
      "type": "event"
    },
    {
      "anonymous": false,
      "inputs": [
        {
          "indexed": false,
          "internalType": "uint256",
          "name": "_oldMinFee",
          "type": "uint256"
        },
        {
          "indexed": false,
          "internalType": "uint256",
          "name": "_newMinFee",
          "type": "uint256"
        }
      ],
      "name": "UpdatedMinFee",
      "type": "event"
    },
    {
      "anonymous": false,
      "inputs": [
        {
          "indexed": false,
          "internalType": "address[]",
          "name": "_newTrustedTokens",
          "type": "address[]"
        }
      ],
      "name": "UpdatedTrustedTokens",
      "type": "event"
    },
    {
      "anonymous": false,
      "inputs": [
        {
          "indexed": true,
          "internalType": "address",
          "name": "_tokenIn",
          "type": "address"
        },
        {
          "indexed": true,
          "internalType": "address",
          "name": "_tokenOut",
          "type": "address"
        },
        {
          "indexed": false,
          "internalType": "uint256",
          "name": "_amountIn",
          "type": "uint256"
        },
        {
          "indexed": false,
          "internalType": "uint256",
          "name": "_amountOut",
          "type": "uint256"
        }
      ],
      "name": "YakSwap",
      "type": "event"
    },
    {
      "inputs": [
        {
          "internalType": "uint256",
          "name": "",
          "type": "uint256"
        }
      ],
      "name": "ADAPTERS",
      "outputs": [
        {
          "internalType": "address",
          "name": "",
          "type": "address"
        }
      ],
      "stateMutability": "view",
      "type": "function"
    },
    {
      "inputs": [],
      "name": "DEFAULT_ADMIN_ROLE",
      "outputs": [
        {
          "internalType": "bytes32",
          "name": "",
          "type": "bytes32"
        }
      ],
      "stateMutability": "view",
      "type": "function"
    },
    {
      "inputs": [],
      "name": "FEE_CLAIMER",
      "outputs": [
        {
          "internalType": "address",
          "name": "",
          "type": "address"
        }
      ],
      "stateMutability": "view",
      "type": "function"
    },
    {
      "inputs": [],
      "name": "FEE_DENOMINATOR",
      "outputs": [
        {
          "internalType": "uint256",
          "name": "",
          "type": "uint256"
        }
      ],
      "stateMutability": "view",
      "type": "function"
    },
    {
      "inputs": [],
      "name": "MAINTAINER_ROLE",
      "outputs": [
        {
          "internalType": "bytes32",
          "name": "",
          "type": "bytes32"
        }
      ],
      "stateMutability": "view",
      "type": "function"
    },
    {
      "inputs": [],
      "name": "MIN_FEE",
      "outputs": [
        {
          "internalType": "uint256",
          "name": "",
          "type": "uint256"
        }
      ],
      "stateMutability": "view",
      "type": "function"
    },
    {
      "inputs": [],
      "name": "NAME",
      "outputs": [
        {
          "internalType": "string",
          "name": "",
          "type": "string"
        }
      ],
      "stateMutability": "view",
      "type": "function"
    },
    {
      "inputs": [],
      "name": "NATIVE",
      "outputs": [
        {
          "internalType": "address",
          "name": "",
          "type": "address"
        }
      ],
      "stateMutability": "view",
      "type": "function"
    },
    {
      "inputs": [
        {
          "internalType": "uint256",
          "name": "",
          "type": "uint256"
        }
      ],
      "name": "TRUSTED_TOKENS",
      "outputs": [
        {
          "internalType": "address",
          "name": "",
          "type": "address"
        }
      ],
      "stateMutability": "view",
      "type": "function"
    },
    {
      "inputs": [],
      "name": "WNATIVE",
      "outputs": [
        {
          "internalType": "address",
          "name": "",
          "type": "address"
        }
      ],
      "stateMutability": "view",
      "type": "function"
    },
    {
      "inputs": [],
      "name": "adaptersCount",
      "outputs": [
        {
          "internalType": "uint256",
          "name": "",
          "type": "uint256"
        }
      ],
      "stateMutability": "view",
      "type": "function"
    },
    {
      "inputs": [
        {
          "internalType": "address",
          "name": "addedMaintainer",
          "type": "address"
        }
      ],
      "name": "addMaintainer",
      "outputs": [],
      "stateMutability": "nonpayable",
      "type": "function"
    },
    {
      "inputs": [
        {
          "internalType": "uint256",
          "name": "_amountIn",
          "type": "uint256"
        },
        {
          "internalType": "address",
          "name": "_tokenIn",
          "type": "address"
        },
        {
          "internalType": "address",
          "name": "_tokenOut",
          "type": "address"
        },
        {
          "internalType": "uint256",
          "name": "_maxSteps",
          "type": "uint256"
        }
      ],
      "name": "findBestPath",
      "outputs": [
        {
          "components": [
            {
              "internalType": "uint256[]",
              "name": "amounts",
              "type": "uint256[]"
            },
            {
              "internalType": "address[]",
              "name": "adapters",
              "type": "address[]"
            },
            {
              "internalType": "address[]",
              "name": "path",
              "type": "address[]"
            },
            {
              "internalType": "uint256",
              "name": "gasEstimate",
              "type": "uint256"
            }
          ],
          "internalType": "struct FormattedOffer",
          "name": "",
          "type": "tuple"
        }
      ],
      "stateMutability": "view",
      "type": "function"
    },
    {
      "inputs": [
        {
          "internalType": "uint256",
          "name": "_amountIn",
          "type": "uint256"
        },
        {
          "internalType": "address",
          "name": "_tokenIn",
          "type": "address"
        },
        {
          "internalType": "address",
          "name": "_tokenOut",
          "type": "address"
        },
        {
          "internalType": "uint256",
          "name": "_maxSteps",
          "type": "uint256"
        },
        {
          "internalType": "uint256",
          "name": "_gasPrice",
          "type": "uint256"
        }
      ],
      "name": "findBestPathWithGas",
      "outputs": [
        {
          "components": [
            {
              "internalType": "uint256[]",
              "name": "amounts",
              "type": "uint256[]"
            },
            {
              "internalType": "address[]",
              "name": "adapters",
              "type": "address[]"
            },
            {
              "internalType": "address[]",
              "name": "path",
              "type": "address[]"
            },
            {
              "internalType": "uint256",
              "name": "gasEstimate",
              "type": "uint256"
            }
          ],
          "internalType": "struct FormattedOffer",
          "name": "",
          "type": "tuple"
        }
      ],
      "stateMutability": "view",
      "type": "function"
    },
    {
      "inputs": [
        {
          "internalType": "bytes32",
          "name": "role",
          "type": "bytes32"
        }
      ],
      "name": "getRoleAdmin",
      "outputs": [
        {
          "internalType": "bytes32",
          "name": "",
          "type": "bytes32"
        }
      ],
      "stateMutability": "view",
      "type": "function"
    },
    {
      "inputs": [
        {
          "internalType": "bytes32",
          "name": "role",
          "type": "bytes32"
        },
        {
          "internalType": "address",
          "name": "account",
          "type": "address"
        }
      ],
      "name": "grantRole",
      "outputs": [],
      "stateMutability": "nonpayable",
      "type": "function"
    },
    {
      "inputs": [
        {
          "internalType": "bytes32",
          "name": "role",
          "type": "bytes32"
        },
        {
          "internalType": "address",
          "name": "account",
          "type": "address"
        }
      ],
      "name": "hasRole",
      "outputs": [
        {
          "internalType": "bool",
          "name": "",
          "type": "bool"
        }
      ],
      "stateMutability": "view",
      "type": "function"
    },
    {
      "inputs": [
        {
          "internalType": "uint256",
          "name": "_amountIn",
          "type": "uint256"
        },
        {
          "internalType": "address",
          "name": "_tokenIn",
          "type": "address"
        },
        {
          "internalType": "address",
          "name": "_tokenOut",
          "type": "address"
        },
        {
          "internalType": "uint8",
          "name": "_index",
          "type": "uint8"
        }
      ],
      "name": "queryAdapter",
      "outputs": [
        {
          "internalType": "uint256",
          "name": "",
          "type": "uint256"
        }
      ],
      "stateMutability": "view",
      "type": "function"
    },
    {
      "inputs": [
        {
          "internalType": "uint256",
          "name": "_amountIn",
          "type": "uint256"
        },
        {
          "internalType": "address",
          "name": "_tokenIn",
          "type": "address"
        },
        {
          "internalType": "address",
          "name": "_tokenOut",
          "type": "address"
        },
        {
          "internalType": "uint8[]",
          "name": "_options",
          "type": "uint8[]"
        }
      ],
      "name": "queryNoSplit",
      "outputs": [
        {
          "components": [
            {
              "internalType": "address",
              "name": "adapter",
              "type": "address"
            },
            {
              "internalType": "address",
              "name": "tokenIn",
              "type": "address"
            },
            {
              "internalType": "address",
              "name": "tokenOut",
              "type": "address"
            },
            {
              "internalType": "uint256",
              "name": "amountOut",
              "type": "uint256"
            }
          ],
          "internalType": "struct Query",
          "name": "",
          "type": "tuple"
        }
      ],
      "stateMutability": "view",
      "type": "function"
    },
    {
      "inputs": [
        {
          "internalType": "uint256",
          "name": "_amountIn",
          "type": "uint256"
        },
        {
          "internalType": "address",
          "name": "_tokenIn",
          "type": "address"
        },
        {
          "internalType": "address",
          "name": "_tokenOut",
          "type": "address"
        }
      ],
      "name": "queryNoSplit",
      "outputs": [
        {
          "components": [
            {
              "internalType": "address",
              "name": "adapter",
              "type": "address"
            },
            {
              "internalType": "address",
              "name": "tokenIn",
              "type": "address"
            },
            {
              "internalType": "address",
              "name": "tokenOut",
              "type": "address"
            },
            {
              "internalType": "uint256",
              "name": "amountOut",
              "type": "uint256"
            }
          ],
          "internalType": "struct Query",
          "name": "",
          "type": "tuple"
        }
      ],
      "stateMutability": "view",
      "type": "function"
    },
    {
      "inputs": [
        {
          "internalType": "address",
          "name": "_tokenAddress",
          "type": "address"
        },
        {
          "internalType": "uint256",
          "name": "_tokenAmount",
          "type": "uint256"
        }
      ],
      "name": "recoverERC20",
      "outputs": [],
      "stateMutability": "nonpayable",
      "type": "function"
    },
    {
      "inputs": [
        {
          "internalType": "uint256",
          "name": "_amount",
          "type": "uint256"
        }
      ],
      "name": "recoverNative",
      "outputs": [],
      "stateMutability": "nonpayable",
      "type": "function"
    },
    {
      "inputs": [
        {
          "internalType": "address",
          "name": "removedMaintainer",
          "type": "address"
        }
      ],
      "name": "removeMaintainer",
      "outputs": [],
      "stateMutability": "nonpayable",
      "type": "function"
    },
    {
      "inputs": [
        {
          "internalType": "bytes32",
          "name": "role",
          "type": "bytes32"
        },
        {
          "internalType": "address",
          "name": "account",
          "type": "address"
        }
      ],
      "name": "renounceRole",
      "outputs": [],
      "stateMutability": "nonpayable",
      "type": "function"
    },
    {
      "inputs": [
        {
          "internalType": "bytes32",
          "name": "role",
          "type": "bytes32"
        }
      ],
      "name": "renounceRole",
      "outputs": [],
      "stateMutability": "nonpayable",
      "type": "function"
    },
    {
      "inputs": [
        {
          "internalType": "bytes32",
          "name": "role",
          "type": "bytes32"
        },
        {
          "internalType": "address",
          "name": "account",
          "type": "address"
        }
      ],
      "name": "revokeRole",
      "outputs": [],
      "stateMutability": "nonpayable",
      "type": "function"
    },
    {
      "inputs": [
        {
          "internalType": "address[]",
          "name": "_adapters",
          "type": "address[]"
        }
      ],
      "name": "setAdapters",
      "outputs": [],
      "stateMutability": "nonpayable",
      "type": "function"
    },
    {
      "inputs": [
        {
          "internalType": "address",
          "name": "_wnative",
          "type": "address"
        }
      ],
      "name": "setAllowanceForWrapping",
      "outputs": [],
      "stateMutability": "nonpayable",
      "type": "function"
    },
    {
      "inputs": [
        {
          "internalType": "address",
          "name": "_claimer",
          "type": "address"
        }
      ],
      "name": "setFeeClaimer",
      "outputs": [],
      "stateMutability": "nonpayable",
      "type": "function"
    },
    {
      "inputs": [
        {
          "internalType": "uint256",
          "name": "_fee",
          "type": "uint256"
        }
      ],
      "name": "setMinFee",
      "outputs": [],
      "stateMutability": "nonpayable",
      "type": "function"
    },
    {
      "inputs": [
        {
          "internalType": "address[]",
          "name": "_trustedTokens",
          "type": "address[]"
        }
      ],
      "name": "setTrustedTokens",
      "outputs": [],
      "stateMutability": "nonpayable",
      "type": "function"
    },
    {
      "inputs": [
        {
          "internalType": "bytes4",
          "name": "interfaceId",
          "type": "bytes4"
        }
      ],
      "name": "supportsInterface",
      "outputs": [
        {
          "internalType": "bool",
          "name": "",
          "type": "bool"
        }
      ],
      "stateMutability": "view",
      "type": "function"
    },
    {
      "inputs": [
        {
          "components": [
            {
              "internalType": "uint256",
              "name": "amountIn",
              "type": "uint256"
            },
            {
              "internalType": "uint256",
              "name": "amountOut",
              "type": "uint256"
            },
            {
              "internalType": "address[]",
              "name": "path",
              "type": "address[]"
            },
            {
              "internalType": "address[]",
              "name": "adapters",
              "type": "address[]"
            }
          ],
          "internalType": "struct Trade",
          "name": "_trade",
          "type": "tuple"
        },
        {
          "internalType": "address",
          "name": "_to",
          "type": "address"
        },
        {
          "internalType": "uint256",
          "name": "_fee",
          "type": "uint256"
        }
      ],
      "name": "swapNoSplit",
      "outputs": [],
      "stateMutability": "nonpayable",
      "type": "function"
    },
    {
      "inputs": [
        {
          "components": [
            {
              "internalType": "uint256",
              "name": "amountIn",
              "type": "uint256"
            },
            {
              "internalType": "uint256",
              "name": "amountOut",
              "type": "uint256"
            },
            {
              "internalType": "address[]",
              "name": "path",
              "type": "address[]"
            },
            {
              "internalType": "address[]",
              "name": "adapters",
              "type": "address[]"
            }
          ],
          "internalType": "struct Trade",
          "name": "_trade",
          "type": "tuple"
        },
        {
          "internalType": "address",
          "name": "_to",
          "type": "address"
        },
        {
          "internalType": "uint256",
          "name": "_fee",
          "type": "uint256"
        }
      ],
      "name": "swapNoSplitFromAVAX",
      "outputs": [],
      "stateMutability": "payable",
      "type": "function"
    },
    {
      "inputs": [
        {
          "components": [
            {
              "internalType": "uint256",
              "name": "amountIn",
              "type": "uint256"
            },
            {
              "internalType": "uint256",
              "name": "amountOut",
              "type": "uint256"
            },
            {
              "internalType": "address[]",
              "name": "path",
              "type": "address[]"
            },
            {
              "internalType": "address[]",
              "name": "adapters",
              "type": "address[]"
            }
          ],
          "internalType": "struct Trade",
          "name": "_trade",
          "type": "tuple"
        },
        {
          "internalType": "address",
          "name": "_to",
          "type": "address"
        },
        {
          "internalType": "uint256",
          "name": "_fee",
          "type": "uint256"
        }
      ],
      "name": "swapNoSplitToAVAX",
      "outputs": [],
      "stateMutability": "nonpayable",
      "type": "function"
    },
    {
      "inputs": [
        {
          "components": [
            {
              "internalType": "uint256",
              "name": "amountIn",
              "type": "uint256"
            },
            {
              "internalType": "uint256",
              "name": "amountOut",
              "type": "uint256"
            },
            {
              "internalType": "address[]",
              "name": "path",
              "type": "address[]"
            },
            {
              "internalType": "address[]",
              "name": "adapters",
              "type": "address[]"
            }
          ],
          "internalType": "struct Trade",
          "name": "_trade",
          "type": "tuple"
        },
        {
          "internalType": "address",
          "name": "_to",
          "type": "address"
        },
        {
          "internalType": "uint256",
          "name": "_fee",
          "type": "uint256"
        },
        {
          "internalType": "uint256",
          "name": "_deadline",
          "type": "uint256"
        },
        {
          "internalType": "uint8",
          "name": "_v",
          "type": "uint8"
        },
        {
          "internalType": "bytes32",
          "name": "_r",
          "type": "bytes32"
        },
        {
          "internalType": "bytes32",
          "name": "_s",
          "type": "bytes32"
        }
      ],
      "name": "swapNoSplitToAVAXWithPermit",
      "outputs": [],
      "stateMutability": "nonpayable",
      "type": "function"
    },
    {
      "inputs": [
        {
          "components": [
            {
              "internalType": "uint256",
              "name": "amountIn",
              "type": "uint256"
            },
            {
              "internalType": "uint256",
              "name": "amountOut",
              "type": "uint256"
            },
            {
              "internalType": "address[]",
              "name": "path",
              "type": "address[]"
            },
            {
              "internalType": "address[]",
              "name": "adapters",
              "type": "address[]"
            }
          ],
          "internalType": "struct Trade",
          "name": "_trade",
          "type": "tuple"
        },
        {
          "internalType": "address",
          "name": "_to",
          "type": "address"
        },
        {
          "internalType": "uint256",
          "name": "_fee",
          "type": "uint256"
        },
        {
          "internalType": "uint256",
          "name": "_deadline",
          "type": "uint256"
        },
        {
          "internalType": "uint8",
          "name": "_v",
          "type": "uint8"
        },
        {
          "internalType": "bytes32",
          "name": "_r",
          "type": "bytes32"
        },
        {
          "internalType": "bytes32",
          "name": "_s",
          "type": "bytes32"
        }
      ],
      "name": "swapNoSplitWithPermit",
      "outputs": [],
      "stateMutability": "nonpayable",
      "type": "function"
    },
    {
      "inputs": [
        {
          "internalType": "address",
          "name": "newOwner",
          "type": "address"
        }
      ],
      "name": "transferOwnership",
      "outputs": [],
      "stateMutability": "nonpayable",
      "type": "function"
    },
    {
      "inputs": [],
      "name": "trustedTokensCount",
      "outputs": [
        {
          "internalType": "uint256",
          "name": "",
          "type": "uint256"
        }
      ],
      "stateMutability": "view",
      "type": "function"
    },
    {
      "stateMutability": "payable",
      "type": "receive"
    }
  ],
  "transactionHash": "0x9d5d105b9eecf00b1ce0b3ca1dfec5371827d8e40427897943886fce6d9d3c7a",
  "args": [
    [
      "0x00396774d1E5b1C2B175B0F0562f921887678771"
    ],
    [
      "0xcDA86A272531e8640cD7F1a92c01839911B90bb0",
      "0x78c1b0C915c4FAA5FffA6CAbf0219DA63d7f4cb8",
      "0xab575258d37EaA5C8956EfABe71F4eE8F6397cF3",
      "0x09Bc4E0D864854c6aFB6eB9A9cdF58aC190D0dF9",
      "0x201EBa5CC46D216Ce6DC03F6a759e8E766e956aE",
      "0xCAbAE6f6Ea1ecaB08Ad02fE02ce9A44F09aebfA2",
      "0xdEAddEaDdeadDEadDEADDEAddEADDEAddead1111"
    ],
    "0x1A267D3f9f5116dF6ae00A4aD698CdcF27b71920",
    "0x78c1b0C915c4FAA5FffA6CAbf0219DA63d7f4cb8"
  ],
  "solcInputHash": "b72b6a63dadac4d8e139a52a2375c465",
  "bytecode": "0x60a060405260006001553480156200001657600080fd5b50604051620047dd380380620047dd83398101604081905262000039916200083e565b3362000047600082620000ba565b620000737f339759585899103d2ace64958e37e18ccb0504652c81d4a1b8aa80fe2126ab9582620000ba565b506200007f81620000ca565b6200008a8362000164565b620000958262000226565b620000a084620002ff565b60601b6001600160601b03191660805250620009ad915050565b620000c68282620003bc565b5050565b3360008181526000805160206200479d833981519152602052604090205460ff166200013d5760405162461bcd60e51b81526020600482015260286024820152600080516020620047bd83398151915260448201526734b73a30b4b732b960c11b60648201526084015b60405180910390fd5b620000c682600019846001600160a01b03166200045c60201b62001af1179092919060201c565b3360008181526000805160206200479d833981519152602052604090205460ff16620001d35760405162461bcd60e51b81526020600482015260286024820152600080516020620047bd83398151915260448201526734b73a30b4b732b960c11b606482015260840162000134565b7f658ff1688002926d8f426cb10c052ec29003f50042df9652d8613484c1a586478260405162000204919062000948565b60405180910390a1815162000221906003906020850190620006f0565b505050565b3360008181526000805160206200479d833981519152602052604090205460ff16620002955760405162461bcd60e51b81526020600482015260286024820152600080516020620047bd83398151915260448201526734b73a30b4b732b960c11b606482015260840162000134565b600254604080516001600160a01b03928316815291841660208301527fb2c853ac4d80d18d058c43d8018d077a036e542a79acae1647f5ad2a8c76f4e2910160405180910390a150600280546001600160a01b0319166001600160a01b0392909216919091179055565b3360008181526000805160206200479d833981519152602052604090205460ff166200036e5760405162461bcd60e51b81526020600482015260286024820152600080516020620047bd83398151915260448201526734b73a30b4b732b960c11b606482015260840162000134565b7febf7325f48e05e5e38809c69f8b02a7c907ed31d8768e6c2d841b1296a9225fe826040516200039f919062000948565b60405180910390a1815162000221906004906020850190620006f0565b6000828152602081815260408083206001600160a01b038516845290915290205460ff16620000c6576000828152602081815260408083206001600160a01b03851684529091529020805460ff19166001179055620004183390565b6001600160a01b0316816001600160a01b0316837f2f8788117e7eff1d82e926ec794901d17c78024a50270940304540a733656f0d60405160405180910390a45050565b801580620004ea5750604051636eb1769f60e11b81523060048201526001600160a01b03838116602483015284169063dd62ed3e9060440160206040518083038186803b158015620004ad57600080fd5b505afa158015620004c2573d6000803e3d6000fd5b505050506040513d601f19601f82011682018060405250810190620004e89190620008f3565b155b6200055e5760405162461bcd60e51b815260206004820152603660248201527f5361666545524332303a20617070726f76652066726f6d206e6f6e2d7a65726f60448201527f20746f206e6f6e2d7a65726f20616c6c6f77616e636500000000000000000000606482015260840162000134565b604080516001600160a01b038416602482015260448082018490528251808303909101815260649091019091526020810180516001600160e01b0390811663095ea7b360e01b1790915262000221918591620005b616565b600080836001600160a01b031683604051620005d391906200090c565b6000604051808303816000865af19150503d806000811462000612576040519150601f19603f3d011682016040523d82523d6000602084013e62000617565b606091505b5091509150816200066b5760405162461bcd60e51b815260206004820181905260248201527f5361666545524332303a206c6f772d6c6576656c2063616c6c206661696c6564604482015260640162000134565b805115620006ea5780806020019051810190620006899190620008ca565b620006ea5760405162461bcd60e51b815260206004820152602a60248201527f5361666545524332303a204552433230206f7065726174696f6e20646964206e6044820152691bdd081cdd58d8d9595960b21b606482015260840162000134565b50505050565b82805482825590600052602060002090810192821562000748579160200282015b828111156200074857825182546001600160a01b0319166001600160a01b0390911617825560209092019160019091019062000711565b50620007569291506200075a565b5090565b5b808211156200075657600081556001016200075b565b80516001600160a01b03811681146200078957600080fd5b919050565b600082601f8301126200079f578081fd5b815160206001600160401b0380831115620007be57620007be62000997565b8260051b604051601f19603f83011681018181108482111715620007e657620007e662000997565b6040528481528381019250868401828801850189101562000805578687fd5b8692505b8583101562000832576200081d8162000771565b84529284019260019290920191840162000809565b50979650505050505050565b6000806000806080858703121562000854578384fd5b84516001600160401b03808211156200086b578586fd5b62000879888389016200078e565b955060208701519150808211156200088f578485fd5b506200089e878288016200078e565b935050620008af6040860162000771565b9150620008bf6060860162000771565b905092959194509250565b600060208284031215620008dc578081fd5b81518015158114620008ec578182fd5b9392505050565b60006020828403121562000905578081fd5b5051919050565b60008251815b818110156200092e576020818601810151858301520162000912565b818111156200093d5782828501525b509190910192915050565b6020808252825182820181905260009190848201906040850190845b818110156200098b5783516001600160a01b03168352928401929184019160010162000964565b50909695505050505050565b634e487b7160e01b600052604160045260246000fd5b60805160601c613dae620009ef600039600081816106df015281816118c3015281816119fe01528181611cfa01528181612bb40152612c850152613dae6000f3fe6080604052600436106102a35760003560e01c80638bb9c5bf1161016e578063c8a3a5c6116100cb578063dede7f151161007f578063f2fde38b11610064578063f2fde38b146107f7578063f874225414610817578063fe38c5e61461084b57600080fd5b8063dede7f15146107b7578063f0350382146107d757600080fd5b8063d73792a9116100b0578063d73792a914610761578063d8baf7cf14610777578063dd8544b31461079757600080fd5b8063c8a3a5c614610721578063d547741f1461074157600080fd5b8063a217fddf11610122578063aede369311610107578063aede3693146106ad578063b381cf40146106cd578063c3accd481461070157600080fd5b8063a217fddf14610642578063a3f4df7e1461065757600080fd5b806392f5d88a1161015357806392f5d88a146105ad578063952e90121461060d578063a0cf0aea1461062d57600080fd5b80638bb9c5bf1461054957806391d148541461056957600080fd5b80634c09cf4e1161021c57806376c7a3c7116101d05780637c7a561b116101b55780637c7a561b146104f4578063809356aa146105095780638980f11f1461052957600080fd5b806376c7a3c7146104c957806376ebe69c146104df57600080fd5b80636b453c1f116102015780636b453c1f146104695780636bf2df861461048957806375d19947146104a957600080fd5b80634c09cf4e1461042957806352a52ab01461044957600080fd5b8063248a9ca31161027357806331ac99201161025857806331ac9920146103c957806336568abe146103e95780633a9a40811461040957600080fd5b8063248a9ca31461036b5780632f2ff15d146103a957600080fd5b8062b99e36146102af57806301ffc9a7146102ec578063061b15e71461031c5780631e189dc21461034957600080fd5b366102aa57005b600080fd5b3480156102bb57600080fd5b506002546102cf906001600160a01b031681565b6040516001600160a01b0390911681526020015b60405180910390f35b3480156102f857600080fd5b5061030c610307366004613740565b61085e565b60405190151581526020016102e3565b34801561032857600080fd5b5061033c61033736600461396f565b6108c7565b6040516102e39190613b77565b34801561035557600080fd5b506103696103643660046137bd565b6109d2565b005b34801561037757600080fd5b5061039b6103863660046136fd565b60009081526020819052604090206001015490565b6040519081526020016102e3565b3480156103b557600080fd5b506103696103c4366004613715565b610aad565b3480156103d557600080fd5b506103696103e43660046136fd565b610ad7565b3480156103f557600080fd5b50610369610404366004613715565b610ba8565b34801561041557600080fd5b50610369610424366004613616565b610c34565b34801561043557600080fd5b5061033c61044436600461392c565b610d0d565b34801561045557600080fd5b506102cf6104643660046136fd565b610df6565b34801561047557600080fd5b506103696104843660046135d3565b610e20565b34801561049557600080fd5b506103696104a4366004613768565b610e4d565b3480156104b557600080fd5b506103696104c43660046137bd565b610e5f565b3480156104d557600080fd5b5061039b60015481565b3480156104eb57600080fd5b5060035461039b565b34801561050057600080fd5b5060045461039b565b34801561051557600080fd5b5061039b6105243660046139bc565b610f31565b34801561053557600080fd5b506103696105443660046135ed565b610ffa565b34801561055557600080fd5b506103696105643660046136fd565b611135565b34801561057557600080fd5b5061030c610584366004613715565b6000918252602082815260408084206001600160a01b0393909316845291905290205460ff1690565b3480156105b957600080fd5b506105cd6105c8366004613893565b611140565b6040805182516001600160a01b039081168252602080850151821690830152838301511691810191909152606091820151918101919091526080016102e3565b34801561061957600080fd5b506102cf6106283660046136fd565b611303565b34801561063957600080fd5b506102cf600081565b34801561064e57600080fd5b5061039b600081565b34801561066357600080fd5b506106a06040518060400160405280600981526020017f59616b526f75746572000000000000000000000000000000000000000000000081525081565b6040516102e39190613b44565b3480156106b957600080fd5b506103696106c83660046136fd565b611313565b3480156106d957600080fd5b506102cf7f000000000000000000000000000000000000000000000000000000000000000081565b34801561070d57600080fd5b5061036961071c3660046135d3565b61145a565b34801561072d57600080fd5b5061036961073c366004613616565b611560565b34801561074d57600080fd5b5061036961075c366004613715565b611639565b34801561076d57600080fd5b5061039b61271081565b34801561078357600080fd5b506103696107923660046135d3565b61165e565b3480156107a357600080fd5b506103696107b23660046135d3565b611688565b3480156107c357600080fd5b506105cd6107d2366004613858565b61172d565b3480156107e357600080fd5b506103696107f2366004613768565b6118b9565b34801561080357600080fd5b506103696108123660046135d3565b6119dd565b34801561082357600080fd5b5061039b7f339759585899103d2ace64958e37e18ccb0504652c81d4a1b8aa80fe2126ab9581565b610369610859366004613768565b6119f4565b60006001600160e01b031982167f7965db0b0000000000000000000000000000000000000000000000000000000014806108c157507f01ffc9a7000000000000000000000000000000000000000000000000000000006001600160e01b03198316145b92915050565b6108f26040518060800160405280606081526020016060815260200160608152602001600081525090565b6000831180156109025750600583105b6109535760405162461bcd60e51b815260206004820152601c60248201527f59616b526f757465723a20496e76616c6964206d61782d73746570730000000060448201526064015b60405180910390fd5b600061095f8787611c96565b9050600080841161097157600061097b565b61097b8487611ce9565b905061098b888888888686611d8c565b9150816020015151600014156109bd576040805160208082018352600080835291855282519081018352908152908301525b6109c68261211f565b98975050505050505050565b6109df6040880188613c11565b60008181106109fe57634e487b7160e01b600052603260045260246000fd5b9050602002016020810190610a1391906135d3565b60405163d505accf60e01b8152336004820152306024820152883560448201526064810186905260ff8516608482015260a4810184905260c481018390526001600160a01b03919091169063d505accf9060e401600060405180830381600087803b158015610a8157600080fd5b505af1158015610a95573d6000803e3d6000fd5b50505050610aa48787876118b9565b50505050505050565b600082815260208190526040902060010154610ac88161219a565b610ad283836121a4565b505050565b3360008181527fa54247010af6b3693b80aceddfad12e077c5de3571e6243fada502635f0d7d39602052604090205460ff16610b665760405162461bcd60e51b815260206004820152602860248201527f4d61696e7461696e61626c653a2043616c6c6572206973206e6f742061206d6160448201526734b73a30b4b732b960c11b606482015260840161094a565b60015460408051918252602082018490527f4bb8a6184424e4bb853a4836042f5a726e4e710873989bfc6abdab19966f5b70910160405180910390a150600155565b6001600160a01b0381163314610c265760405162461bcd60e51b815260206004820152602f60248201527f416363657373436f6e74726f6c3a2063616e206f6e6c792072656e6f756e636560448201527f20726f6c657320666f722073656c660000000000000000000000000000000000606482015260840161094a565b610c308282612242565b5050565b3360008181527fa54247010af6b3693b80aceddfad12e077c5de3571e6243fada502635f0d7d39602052604090205460ff16610cc35760405162461bcd60e51b815260206004820152602860248201527f4d61696e7461696e61626c653a2043616c6c6572206973206e6f742061206d6160448201526734b73a30b4b732b960c11b606482015260840161094a565b7febf7325f48e05e5e38809c69f8b02a7c907ed31d8768e6c2d841b1296a9225fe82604051610cf29190613b31565b60405180910390a18151610ad290600490602085019061350e565b610d386040518060800160405280606081526020016060815260200160608152602001600081525090565b600082118015610d485750600582105b610d945760405162461bcd60e51b815260206004820152601c60248201527f59616b526f757465723a20496e76616c6964206d61782d737465707300000000604482015260640161094a565b6000610da08686611c96565b9050610db186868686856000611d8c565b905080602001515160001415610de3576040805160208082018352600080835291845282519081018352908152908201525b610dec8161211f565b9695505050505050565b60038181548110610e0657600080fd5b6000918252602090912001546001600160a01b0316905081565b610e4a7f339759585899103d2ace64958e37e18ccb0504652c81d4a1b8aa80fe2126ab9582610aad565b50565b610e59833384846122c1565b50505050565b610e6c6040880188613c11565b6000818110610e8b57634e487b7160e01b600052603260045260246000fd5b9050602002016020810190610ea091906135d3565b60405163d505accf60e01b8152336004820152306024820152883560448201526064810186905260ff8516608482015260a4810184905260c481018390526001600160a01b03919091169063d505accf9060e401600060405180830381600087803b158015610f0e57600080fd5b505af1158015610f22573d6000803e3d6000fd5b50505050610aa4878787610e4d565b60008060048360ff1681548110610f5857634e487b7160e01b600052603260045260246000fd5b60009182526020822001546040516377ccc49d60e11b8152600481018990526001600160a01b03888116602483015287811660448301529091169250829063ef99893a9060640160206040518083038186803b158015610fb757600080fd5b505afa158015610fcb573d6000803e3d6000fd5b505050506040513d601f19601f82011682018060405250810190610fef9190613840565b979650505050505050565b3360008181527fa54247010af6b3693b80aceddfad12e077c5de3571e6243fada502635f0d7d39602052604090205460ff166110895760405162461bcd60e51b815260206004820152602860248201527f4d61696e7461696e61626c653a2043616c6c6572206973206e6f742061206d6160448201526734b73a30b4b732b960c11b606482015260840161094a565b600082116110d95760405162461bcd60e51b815260206004820152601260248201527f4e6f7468696e6720746f207265636f7665720000000000000000000000000000604482015260640161094a565b6110ed6001600160a01b0384163384612b3c565b826001600160a01b03167f8c1256b8896378cd5044f80c202f9772b9d77dc85c8a6eb51967210b09bfaa288360405161112891815260200190565b60405180910390a2505050565b33610c308282610ba8565b60408051608081018252600080825260208201819052918101829052606081019190915260408051608081018252600080825260208201819052918101829052606081019190915260005b60ff81168411156112f8576000600486868460ff168181106111bd57634e487b7160e01b600052603260045260246000fd5b90506020020160208101906111d29190613a08565b60ff16815481106111f357634e487b7160e01b600052603260045260246000fd5b60009182526020822001546040516377ccc49d60e11b8152600481018c90526001600160a01b038b811660248301528a811660448301529091169250829063ef99893a9060640160206040518083038186803b15801561125257600080fd5b505afa158015611266573d6000803e3d6000fd5b505050506040513d601f19601f8201168201806040525081019061128a9190613840565b905060ff8316158061129f5750836060015181115b156112e3576040518060800160405280836001600160a01b031681526020018a6001600160a01b03168152602001896001600160a01b031681526020018281525093505b505080806112f090613d2c565b91505061118b565b509695505050505050565b60048181548110610e0657600080fd5b3360008181527fa54247010af6b3693b80aceddfad12e077c5de3571e6243fada502635f0d7d39602052604090205460ff166113a25760405162461bcd60e51b815260206004820152602860248201527f4d61696e7461696e61626c653a2043616c6c6572206973206e6f742061206d6160448201526734b73a30b4b732b960c11b606482015260840161094a565b600082116113f25760405162461bcd60e51b815260206004820152601260248201527f4e6f7468696e6720746f207265636f7665720000000000000000000000000000604482015260640161094a565b604051339083156108fc029084906000818181858888f1935050505015801561141f573d6000803e3d6000fd5b506040518281526000907f8c1256b8896378cd5044f80c202f9772b9d77dc85c8a6eb51967210b09bfaa289060200160405180910390a25050565b3360008181527fa54247010af6b3693b80aceddfad12e077c5de3571e6243fada502635f0d7d39602052604090205460ff166114e95760405162461bcd60e51b815260206004820152602860248201527f4d61696e7461696e61626c653a2043616c6c6572206973206e6f742061206d6160448201526734b73a30b4b732b960c11b606482015260840161094a565b600254604080516001600160a01b03928316815291841660208301527fb2c853ac4d80d18d058c43d8018d077a036e542a79acae1647f5ad2a8c76f4e2910160405180910390a1506002805473ffffffffffffffffffffffffffffffffffffffff19166001600160a01b0392909216919091179055565b3360008181527fa54247010af6b3693b80aceddfad12e077c5de3571e6243fada502635f0d7d39602052604090205460ff166115ef5760405162461bcd60e51b815260206004820152602860248201527f4d61696e7461696e61626c653a2043616c6c6572206973206e6f742061206d6160448201526734b73a30b4b732b960c11b606482015260840161094a565b7f658ff1688002926d8f426cb10c052ec29003f50042df9652d8613484c1a586478260405161161e9190613b31565b60405180910390a18151610ad290600390602085019061350e565b6000828152602081905260409020600101546116548161219a565b610ad28383612242565b610e4a7f339759585899103d2ace64958e37e18ccb0504652c81d4a1b8aa80fe2126ab9582611639565b3360008181527fa54247010af6b3693b80aceddfad12e077c5de3571e6243fada502635f0d7d39602052604090205460ff166117175760405162461bcd60e51b815260206004820152602860248201527f4d61696e7461696e61626c653a2043616c6c6572206973206e6f742061206d6160448201526734b73a30b4b732b960c11b606482015260840161094a565b610c306001600160a01b03831683600019611af1565b60408051608081018252600080825260208201819052918101829052606081019190915260408051608081018252600080825260208201819052918101829052606081019190915260005b60045460ff821610156118b057600060048260ff16815481106117ab57634e487b7160e01b600052603260045260246000fd5b60009182526020822001546040516377ccc49d60e11b8152600481018a90526001600160a01b03898116602483015288811660448301529091169250829063ef99893a9060640160206040518083038186803b15801561180a57600080fd5b505afa15801561181e573d6000803e3d6000fd5b505050506040513d601f19601f820116820180604052508101906118429190613840565b905060ff831615806118575750836060015181115b1561189b576040518060800160405280836001600160a01b03168152602001886001600160a01b03168152602001876001600160a01b031681526020018281525093505b505080806118a890613d2c565b915050611778565b50949350505050565b6001600160a01b037f0000000000000000000000000000000000000000000000000000000000000000166118f06040850185613c11565b60016118ff6040880188613c11565b61190a929150613cb7565b81811061192757634e487b7160e01b600052603260045260246000fd5b905060200201602081019061193c91906135d3565b6001600160a01b0316146119b85760405162461bcd60e51b815260206004820152602760248201527f59616b526f757465723a2050617468206e6565647320746f20656e642077697460448201527f6820574156415800000000000000000000000000000000000000000000000000606482015260840161094a565b60006119c6843330856122c1565b90506119d181612b85565b610e5960008285612c1b565b336119e9600083610aad565b610c30600082610ba8565b6001600160a01b037f000000000000000000000000000000000000000000000000000000000000000016611a2b6040850185613c11565b6000818110611a4a57634e487b7160e01b600052603260045260246000fd5b9050602002016020810190611a5f91906135d3565b6001600160a01b031614611adb5760405162461bcd60e51b815260206004820152602960248201527f59616b526f757465723a2050617468206e6565647320746f20626567696e207760448201527f6974682057415641580000000000000000000000000000000000000000000000606482015260840161094a565b611ae58335612c83565b610e59833084846122c1565b801580611b9357506040517fdd62ed3e0000000000000000000000000000000000000000000000000000000081523060048201526001600160a01b03838116602483015284169063dd62ed3e9060440160206040518083038186803b158015611b5957600080fd5b505afa158015611b6d573d6000803e3d6000fd5b505050506040513d601f19601f82011682018060405250810190611b919190613840565b155b611c055760405162461bcd60e51b815260206004820152603660248201527f5361666545524332303a20617070726f76652066726f6d206e6f6e2d7a65726f60448201527f20746f206e6f6e2d7a65726f20616c6c6f77616e636500000000000000000000606482015260840161094a565b6040516001600160a01b038316602482015260448101829052610ad29084907f095ea7b300000000000000000000000000000000000000000000000000000000906064015b60408051601f198184030181529190526020810180517bffffffffffffffffffffffffffffffffffffffffffffffffffffffff166001600160e01b031990931692909217909152612cfa565b611cc16040518060800160405280606081526020016060815260200160608152602001600081525090565b611cca83612e36565b8152611cde6001600160a01b038316612e36565b604082015292915050565b600080611d21670de0b6b3a76400007f0000000000000000000000000000000000000000000000000000000000000000856002610d0d565b9050806040015151600014611d855780518051633b9aca00918691611d4890600190613cb7565b81518110611d6657634e487b7160e01b600052603260045260246000fd5b6020026020010151611d789190613c98565b611d829190613c78565b91505b5092915050565b611db76040518060800160405280606081526020016060815260200160608152602001600081525090565b6000611dc284612e60565b905060008084151581611dd68c8c8c61172d565b90508060600151600014611e84578115611e625780600001516001600160a01b03166369cff80d6040518163ffffffff1660e01b815260040160206040518083038186803b158015611e2757600080fd5b505afa158015611e3b573d6000803e3d6000fd5b505050506040513d601f19601f82011682018060405250810190611e5f9190613840565b92505b606081015181516040830151611e7c928892909187612ec3565b806060015193505b600189118015611eaf5750611e9a60028a613cb7565b6020896020015151611eac9190613c78565b11155b1561210f5760005b60035481101561210d5760038181548110611ee257634e487b7160e01b600052603260045260246000fd5b6000918252602090912001546001600160a01b038d811691161415611f06576120fb565b6000611f488e8e60038581548110611f2e57634e487b7160e01b600052603260045260246000fd5b6000918252602090912001546001600160a01b031661172d565b9050806060015160001415611f5d57506120fb565b6000611f688b612e60565b90508415611fe85781600001516001600160a01b03166369cff80d6040518163ffffffff1660e01b815260040160206040518083038186803b158015611fad57600080fd5b505afa158015611fc1573d6000803e3d6000fd5b505050506040513d601f19601f82011682018060405250810190611fe59190613840565b95505b60608201518251604084015161200292849290918a612ec3565b61204982606001516003858154811061202b57634e487b7160e01b600052603260045260246000fd5b6000918252602090912001546001600160a01b03168f8f858f611d8c565b9050600061205682612f87565b9050600061206383612f9a565b9050816001600160a01b03168f6001600160a01b031614801561208557508881115b156120f6578960600151836060015111156120ef576000633b9aca008b6060015185606001516120b59190613cb7565b6120bf908f613c98565b6120c99190613c78565b905060006120d78b84613cb7565b9050808211156120ec575050505050506120fb565b50505b8098508299505b505050505b8061210581613d11565b915050611eb7565b505b50929a9950505050505050505050565b61214a6040518060800160405280606081526020016060815260200160608152602001600081525090565b60405180608001604052806121628460000151612faf565b8152602001612174846020015161308b565b8152602001612186846040015161308b565b815260200183606001518152509050919050565b610e4a813361315e565b6000828152602081815260408083206001600160a01b038516845290915290205460ff16610c30576000828152602081815260408083206001600160a01b03851684529091529020805460ff191660011790556121fe3390565b6001600160a01b0316816001600160a01b0316837f2f8788117e7eff1d82e926ec794901d17c78024a50270940304540a733656f0d60405160405180910390a45050565b6000828152602081815260408083206001600160a01b038516845290915290205460ff1615610c30576000828152602081815260408083206001600160a01b0385168085529252808320805460ff1916905551339285917ff6391f5c32d9c69d2a47ea670b442974b53935d1edc7fd64eb21e047a839171b9190a45050565b6000806122d16040870187613c11565b905067ffffffffffffffff8111156122f957634e487b7160e01b600052604160045260246000fd5b604051908082528060200260200182016040528015612322578160200160208202803683370190505b509050600083118061233657506000600154115b15612407576123468635846131dc565b8160008151811061236757634e487b7160e01b600052603260045260246000fd5b60209081029190910101526124026123826040880188613c11565b60008181106123a157634e487b7160e01b600052603260045260246000fd5b90506020020160208101906123b691906135d3565b600254835188916001600160a01b03169085906000906123e657634e487b7160e01b600052603260045260246000fd5b60200260200101518a600001356123fd9190613cb7565b613258565b61243a565b85600001358160008151811061242d57634e487b7160e01b600052603260045260246000fd5b6020026020010181815250505b6124ee61244a6040880188613c11565b600081811061246957634e487b7160e01b600052603260045260246000fd5b905060200201602081019061247e91906135d3565b8661248c60608a018a613c11565b60008181106124ab57634e487b7160e01b600052603260045260246000fd5b90506020020160208101906124c091906135d3565b846000815181106124e157634e487b7160e01b600052603260045260246000fd5b6020026020010151613258565b60005b6124fe6060880188613c11565b90508110156126d6576125146060880188613c11565b8281811061253257634e487b7160e01b600052603260045260246000fd5b905060200201602081019061254791906135d3565b6001600160a01b031663ef99893a83838151811061257557634e487b7160e01b600052603260045260246000fd5b602002602001015189806040019061258d9190613c11565b858181106125ab57634e487b7160e01b600052603260045260246000fd5b90506020020160208101906125c091906135d3565b6125cd60408c018c613c11565b6125d8876001613c60565b8181106125f557634e487b7160e01b600052603260045260246000fd5b905060200201602081019061260a91906135d3565b6040516001600160e01b031960e086901b16815260048101939093526001600160a01b03918216602484015216604482015260640160206040518083038186803b15801561265757600080fd5b505afa15801561266b573d6000803e3d6000fd5b505050506040513d601f19601f8201168201806040525081019061268f9190613840565b8261269b836001613c60565b815181106126b957634e487b7160e01b600052603260045260246000fd5b6020908102919091010152806126ce81613d11565b9150506124f1565b50856020013581600183516126eb9190613cb7565b8151811061270957634e487b7160e01b600052603260045260246000fd5b602002602001015110156127855760405162461bcd60e51b815260206004820152602560248201527f59616b526f757465723a20496e73756666696369656e74206f7574707574206160448201527f6d6f756e74000000000000000000000000000000000000000000000000000000606482015260840161094a565b60005b6127956060880188613c11565b90508110156129d557600060016127af60608a018a613c11565b6127ba929150613cb7565b82106127c65785612810565b6127d36060890189613c11565b6127de846001613c60565b8181106127fb57634e487b7160e01b600052603260045260246000fd5b905060200201602081019061281091906135d3565b905061281f6060890189613c11565b8381811061283d57634e487b7160e01b600052603260045260246000fd5b905060200201602081019061285291906135d3565b6001600160a01b031663eab90da684848151811061288057634e487b7160e01b600052603260045260246000fd5b6020026020010151858560016128969190613c60565b815181106128b457634e487b7160e01b600052603260045260246000fd5b60200260200101518b80604001906128cc9190613c11565b878181106128ea57634e487b7160e01b600052603260045260246000fd5b90506020020160208101906128ff91906135d3565b61290c60408e018e613c11565b612917896001613c60565b81811061293457634e487b7160e01b600052603260045260246000fd5b905060200201602081019061294991906135d3565b6040516001600160e01b031960e087901b168152600481019490945260248401929092526001600160a01b03908116604484015290811660648301528416608482015260a401600060405180830381600087803b1580156129a957600080fd5b505af11580156129bd573d6000803e3d6000fd5b505050505080806129cd90613d11565b915050612788565b506129e36040870187613c11565b60016129f260408a018a613c11565b6129fd929150613cb7565b818110612a1a57634e487b7160e01b600052603260045260246000fd5b9050602002016020810190612a2f91906135d3565b6001600160a01b0316612a456040880188613c11565b6000818110612a6457634e487b7160e01b600052603260045260246000fd5b9050602002016020810190612a7991906135d3565b6001600160a01b03167f9fc8352e52998db4087d5e6e1c1aafa38788e749e5d7a24f5cb230f73795440288600001358460018651612ab79190613cb7565b81518110612ad557634e487b7160e01b600052603260045260246000fd5b6020026020010151604051612af4929190918252602082015260400190565b60405180910390a38060018251612b0b9190613cb7565b81518110612b2957634e487b7160e01b600052603260045260246000fd5b6020026020010151915050949350505050565b6040516001600160a01b038316602482015260448101829052610ad29084907fa9059cbb0000000000000000000000000000000000000000000000000000000090606401611c4a565b6040517f2e1a7d4d000000000000000000000000000000000000000000000000000000008152600481018290527f00000000000000000000000000000000000000000000000000000000000000006001600160a01b031690632e1a7d4d90602401600060405180830381600087803b158015612c0057600080fd5b505af1158015612c14573d6000803e3d6000fd5b5050505050565b306001600160a01b03821614610ad2576001600160a01b038316612c6f576040516001600160a01b0382169083156108fc029084906000818181858888f19350505050158015610e59573d6000803e3d6000fd5b610ad26001600160a01b0384168284612b3c565b7f00000000000000000000000000000000000000000000000000000000000000006001600160a01b031663d0e30db0826040518263ffffffff1660e01b81526004016000604051808303818588803b158015612cde57600080fd5b505af1158015612cf2573d6000803e3d6000fd5b505050505050565b600080836001600160a01b031683604051612d159190613a65565b6000604051808303816000865af19150503d8060008114612d52576040519150601f19603f3d011682016040523d82523d6000602084013e612d57565b606091505b509150915081612da95760405162461bcd60e51b815260206004820181905260248201527f5361666545524332303a206c6f772d6c6576656c2063616c6c206661696c6564604482015260640161094a565b805115610e595780806020019051810190612dc491906136dd565b610e595760405162461bcd60e51b815260206004820152602a60248201527f5361666545524332303a204552433230206f7065726174696f6e20646964206e60448201527f6f74207375636365656400000000000000000000000000000000000000000000606482015260840161094a565b60408051602080825281830190925260609160208201818036833750505060208101929092525090565b612e8b6040518060800160405280606081526020016060815260200160608152602001600081525090565b604051806080016040528083600001518152602001836020015181526020018360400151815260200183606001518152509050919050565b8460400151612eda836001600160a01b0316612e36565b604051602001612eeb929190613a81565b60408051601f198184030181529181528601526020850151612f156001600160a01b038516612e36565b604051602001612f26929190613a81565b60408051601f1981840301815291905260208601528451612f4685612e36565b604051602001612f57929190613a81565b60408051601f198184030181529190528552606085018051829190612f7d908390613c60565b9052505050505050565b604081015180516000916108c191613043565b60408101515181516000916108c19190613043565b606060208251612fbf9190613c78565b67ffffffffffffffff811115612fe557634e487b7160e01b600052604160045260246000fd5b60405190808252806020026020018201604052801561300e578160200160208202803683370190505b50905060005b602083516130229190613c78565b8110156130855761304883613038836020613c98565b613043906020613c60565b015190565b82828151811061306857634e487b7160e01b600052603260045260246000fd5b60209081029190910101528061307d81613d11565b915050613014565b50919050565b60606020825161309b9190613c78565b67ffffffffffffffff8111156130c157634e487b7160e01b600052604160045260246000fd5b6040519080825280602002602001820160405280156130ea578160200160208202803683370190505b50905060005b602083516130fe9190613c78565b8110156130855761311483613038836020613c98565b82828151811061313457634e487b7160e01b600052603260045260246000fd5b6001600160a01b03909216602092830291909101909101528061315681613d11565b9150506130f0565b6000828152602081815260408083206001600160a01b038516845290915290205460ff16610c305761319a816001600160a01b03166014613296565b6131a5836020613296565b6040516020016131b6929190613ab0565b60408051601f198184030181529082905262461bcd60e51b825261094a91600401613b44565b60006001548210156132305760405162461bcd60e51b815260206004820152601b60248201527f59616b526f757465723a20496e73756666696369656e74206665650000000000604482015260640161094a565b61271061323d8382613cb7565b6132479085613c98565b6132519190613c78565b9392505050565b6001600160a01b03831630146132825761327d6001600160a01b0385168484846134bd565b610e59565b610e596001600160a01b0385168383612b3c565b606060006132a5836002613c98565b6132b0906002613c60565b67ffffffffffffffff8111156132d657634e487b7160e01b600052604160045260246000fd5b6040519080825280601f01601f191660200182016040528015613300576020820181803683370190505b5090507f30000000000000000000000000000000000000000000000000000000000000008160008151811061334557634e487b7160e01b600052603260045260246000fd5b60200101906001600160f81b031916908160001a9053507f78000000000000000000000000000000000000000000000000000000000000008160018151811061339e57634e487b7160e01b600052603260045260246000fd5b60200101906001600160f81b031916908160001a90535060006133c2846002613c98565b6133cd906001613c60565b90505b600181111561346e577f303132333435363738396162636465660000000000000000000000000000000085600f166010811061341c57634e487b7160e01b600052603260045260246000fd5b1a60f81b82828151811061344057634e487b7160e01b600052603260045260246000fd5b60200101906001600160f81b031916908160001a90535060049490941c9361346781613cfa565b90506133d0565b5083156132515760405162461bcd60e51b815260206004820181905260248201527f537472696e67733a20686578206c656e67746820696e73756666696369656e74604482015260640161094a565b6040516001600160a01b0380851660248301528316604482015260648101829052610e599085907f23b872dd0000000000000000000000000000000000000000000000000000000090608401611c4a565b828054828255906000526020600020908101928215613570579160200282015b82811115613570578251825473ffffffffffffffffffffffffffffffffffffffff19166001600160a01b0390911617825560209092019160019091019061352e565b5061357c929150613580565b5090565b5b8082111561357c5760008155600101613581565b80356001600160a01b03811681146135ac57600080fd5b919050565b600060808284031215613085578081fd5b803560ff811681146135ac57600080fd5b6000602082840312156135e4578081fd5b61325182613595565b600080604083850312156135ff578081fd5b61360883613595565b946020939093013593505050565b60006020808385031215613628578182fd5b823567ffffffffffffffff8082111561363f578384fd5b818501915085601f830112613652578384fd5b81358181111561366457613664613d62565b8060051b604051601f19603f8301168101818110858211171561368957613689613d62565b604052828152858101935084860182860187018a10156136a7578788fd5b8795505b838610156136d0576136bc81613595565b8552600195909501949386019386016136ab565b5098975050505050505050565b6000602082840312156136ee578081fd5b81518015158114613251578182fd5b60006020828403121561370e578081fd5b5035919050565b60008060408385031215613727578182fd5b8235915061373760208401613595565b90509250929050565b600060208284031215613751578081fd5b81356001600160e01b031981168114613251578182fd5b60008060006060848603121561377c578081fd5b833567ffffffffffffffff811115613792578182fd5b61379e868287016135b1565b9350506137ad60208501613595565b9150604084013590509250925092565b600080600080600080600060e0888a0312156137d7578283fd5b873567ffffffffffffffff8111156137ed578384fd5b6137f98a828b016135b1565b97505061380860208901613595565b95506040880135945060608801359350613824608089016135c2565b925060a0880135915060c0880135905092959891949750929550565b600060208284031215613851578081fd5b5051919050565b60008060006060848603121561386c578283fd5b8335925061387c60208501613595565b915061388a60408501613595565b90509250925092565b6000806000806000608086880312156138aa578081fd5b853594506138ba60208701613595565b93506138c860408701613595565b9250606086013567ffffffffffffffff808211156138e4578283fd5b818801915088601f8301126138f7578283fd5b813581811115613905578384fd5b8960208260051b8501011115613919578384fd5b9699959850939650602001949392505050565b60008060008060808587031215613941578182fd5b8435935061395160208601613595565b925061395f60408601613595565b9396929550929360600135925050565b600080600080600060a08688031215613986578283fd5b8535945061399660208701613595565b93506139a460408701613595565b94979396509394606081013594506080013592915050565b600080600080608085870312156139d1578182fd5b843593506139e160208601613595565b92506139ef60408601613595565b91506139fd606086016135c2565b905092959194509250565b600060208284031215613a19578081fd5b613251826135c2565b6000815180845260208085019450808401835b83811015613a5a5781516001600160a01b031687529582019590820190600101613a35565b509495945050505050565b60008251613a77818460208701613cce565b9190910192915050565b60008351613a93818460208801613cce565b835190830190613aa7818360208801613cce565b01949350505050565b7f416363657373436f6e74726f6c3a206163636f756e7420000000000000000000815260008351613ae8816017850160208801613cce565b7f206973206d697373696e6720726f6c65200000000000000000000000000000006017918401918201528351613b25816028840160208801613cce565b01602801949350505050565b6020815260006132516020830184613a22565b6020815260008251806020840152613b63816040850160208701613cce565b601f01601f19169190910160400192915050565b60208082528251608083830152805160a0840181905260009291820190839060c08601905b80831015613bbc5783518252928401926001929092019190840190613b9c565b50838701519350601f19925082868203016040870152613bdc8185613a22565b93505050604085015181858403016060860152613bf98382613a22565b92505050606084015160808401528091505092915050565b6000808335601e19843603018112613c27578283fd5b83018035915067ffffffffffffffff821115613c41578283fd5b6020019150600581901b3603821315613c5957600080fd5b9250929050565b60008219821115613c7357613c73613d4c565b500190565b600082613c9357634e487b7160e01b81526012600452602481fd5b500490565b6000816000190483118215151615613cb257613cb2613d4c565b500290565b600082821015613cc957613cc9613d4c565b500390565b60005b83811015613ce9578181015183820152602001613cd1565b83811115610e595750506000910152565b600081613d0957613d09613d4c565b506000190190565b6000600019821415613d2557613d25613d4c565b5060010190565b600060ff821660ff811415613d4357613d43613d4c565b60010192915050565b634e487b7160e01b600052601160045260246000fd5b634e487b7160e01b600052604160045260246000fdfea26469706673582212205f91207022c7b2cf901934f4d498fa2289b6b366b4685f835a82c3035d9c7c5e64736f6c63430008040033a54247010af6b3693b80aceddfad12e077c5de3571e6243fada502635f0d7d394d61696e7461696e61626c653a2043616c6c6572206973206e6f742061206d61",
  "devdoc": {
    "kind": "dev",
    "methods": {
      "getRoleAdmin(bytes32)": {
        "details": "Returns the admin role that controls `role`. See {grantRole} and {revokeRole}. To change a role's admin, use {_setRoleAdmin}."
      },
      "grantRole(bytes32,address)": {
        "details": "Grants `role` to `account`. If `account` had not been already granted `role`, emits a {RoleGranted} event. Requirements: - the caller must have ``role``'s admin role. May emit a {RoleGranted} event."
      },
      "hasRole(bytes32,address)": {
        "details": "Returns `true` if `account` has been granted `role`."
      },
      "recoverERC20(address,uint256)": {
        "params": {
          "_tokenAddress": "token address",
          "_tokenAmount": "amount to recover"
        }
      },
      "recoverNative(uint256)": {
        "params": {
          "_amount": "amount"
        }
      },
      "renounceRole(bytes32,address)": {
        "details": "Revokes `role` from the calling account. Roles are often managed via {grantRole} and {revokeRole}: this function's purpose is to provide a mechanism for accounts to lose their privileges if they are compromised (such as when a trusted device is misplaced). If the calling account had been revoked `role`, emits a {RoleRevoked} event. Requirements: - the caller must be `account`. May emit a {RoleRevoked} event."
      },
      "revokeRole(bytes32,address)": {
        "details": "Revokes `role` from `account`. If `account` had been granted `role`, emits a {RoleRevoked} event. Requirements: - the caller must have ``role``'s admin role. May emit a {RoleRevoked} event."
      },
      "supportsInterface(bytes4)": {
        "details": "See {IERC165-supportsInterface}."
      }
    },
    "version": 1
  },
  "userdoc": {
    "kind": "user",
    "methods": {
      "findBestPath(uint256,address,address,uint256)": {
        "notice": "Return path with best returns between two tokens"
      },
      "findBestPathWithGas(uint256,address,address,uint256,uint256)": {
        "notice": "Return path with best returns between two tokens Takes gas-cost into account"
      },
      "queryAdapter(uint256,address,address,uint8)": {
        "notice": "Query single adapter"
      },
      "queryNoSplit(uint256,address,address)": {
        "notice": "Query all adapters"
      },
      "queryNoSplit(uint256,address,address,uint8[])": {
        "notice": "Query specified adapters"
      },
      "recoverERC20(address,uint256)": {
        "notice": "Recover ERC20 from contract"
      },
      "recoverNative(uint256)": {
        "notice": "Recover native asset from contract"
      },
      "swapNoSplitToAVAXWithPermit((uint256,uint256,address[],address[]),address,uint256,uint256,uint8,bytes32,bytes32)": {
        "notice": "Swap token to AVAX without the need to approve the first token"
      },
      "swapNoSplitWithPermit((uint256,uint256,address[],address[]),address,uint256,uint256,uint8,bytes32,bytes32)": {
        "notice": "Swap token to token without the need to approve the first token"
      }
    },
    "version": 1
  },
  "storageLayout": {
    "storage": [
      {
        "astId": 24,
        "contract": "src/contracts/YakRouter.sol:YakRouter",
        "label": "_roles",
        "offset": 0,
        "slot": "0",
        "type": "t_mapping(t_bytes32,t_struct(RoleData)19_storage)"
      },
      {
        "astId": 1769,
        "contract": "src/contracts/YakRouter.sol:YakRouter",
        "label": "MIN_FEE",
        "offset": 0,
        "slot": "1",
        "type": "t_uint256"
      },
      {
        "astId": 1771,
        "contract": "src/contracts/YakRouter.sol:YakRouter",
        "label": "FEE_CLAIMER",
        "offset": 0,
        "slot": "2",
        "type": "t_address"
      },
      {
        "astId": 1774,
        "contract": "src/contracts/YakRouter.sol:YakRouter",
        "label": "TRUSTED_TOKENS",
        "offset": 0,
        "slot": "3",
        "type": "t_array(t_address)dyn_storage"
      },
      {
        "astId": 1777,
        "contract": "src/contracts/YakRouter.sol:YakRouter",
        "label": "ADAPTERS",
        "offset": 0,
        "slot": "4",
        "type": "t_array(t_address)dyn_storage"
      }
    ],
    "types": {
      "t_address": {
        "encoding": "inplace",
        "label": "address",
        "numberOfBytes": "20"
      },
      "t_array(t_address)dyn_storage": {
        "base": "t_address",
        "encoding": "dynamic_array",
        "label": "address[]",
        "numberOfBytes": "32"
      },
      "t_bool": {
        "encoding": "inplace",
        "label": "bool",
        "numberOfBytes": "1"
      },
      "t_bytes32": {
        "encoding": "inplace",
        "label": "bytes32",
        "numberOfBytes": "32"
      },
      "t_mapping(t_address,t_bool)": {
        "encoding": "mapping",
        "key": "t_address",
        "label": "mapping(address => bool)",
        "numberOfBytes": "32",
        "value": "t_bool"
      },
      "t_mapping(t_bytes32,t_struct(RoleData)19_storage)": {
        "encoding": "mapping",
        "key": "t_bytes32",
        "label": "mapping(bytes32 => struct AccessControl.RoleData)",
        "numberOfBytes": "32",
        "value": "t_struct(RoleData)19_storage"
      },
      "t_struct(RoleData)19_storage": {
        "encoding": "inplace",
        "label": "struct AccessControl.RoleData",
        "members": [
          {
            "astId": 16,
            "contract": "src/contracts/YakRouter.sol:YakRouter",
            "label": "members",
            "offset": 0,
            "slot": "0",
            "type": "t_mapping(t_address,t_bool)"
          },
          {
            "astId": 18,
            "contract": "src/contracts/YakRouter.sol:YakRouter",
            "label": "adminRole",
            "offset": 0,
            "slot": "1",
            "type": "t_bytes32"
          }
        ],
        "numberOfBytes": "64"
      },
      "t_uint256": {
        "encoding": "inplace",
        "label": "uint256",
        "numberOfBytes": "32"
      }
    }
  }
}