{
  "abi": [
    {
      "inputs": [
        {
          "internalType": "string",
          "name": "_name",
          "type": "string"
        },
        {
          "internalType": "uint256",
          "name": "_swapGasEstimate",
          "type": "uint256"
        },
        {
          "internalType": "address[]",
          "name": "_initPools",
          "type": "address[]"
        }
      ],
      "stateMutability": "nonpayable",
      "type": "constructor"
    },
    {
      "anonymous": false,
      "inputs": [
        {
          "indexed": false,
          "internalType": "address",
          "name": "pool",
          "type": "address"
        }
      ],
      "name": "AddPoolSupport",
      "type": "event"
    },
    {
      "anonymous": false,
      "inputs": [
        {
          "indexed": false,
          "internalType": "address",
          "name": "pool",
          "type": "address"
        },
        {
          "indexed": false,
          "internalType": "address[]",
          "name": "tkns",
          "type": "address[]"
        }
      ],
      "name": "PartialPoolSupport",
      "type": "event"
    },
    {
      "anonymous": false,
      "inputs": [
        {
          "indexed": true,
          "internalType": "address",
          "name": "_asset",
          "type": "address"
        },
        {
          "indexed": false,
          "internalType": "uint256",
          "name": "amount",
          "type": "uint256"
        }
      ],
      "name": "Recovered",
      "type": "event"
    },
    {
      "anonymous": false,
      "inputs": [
        {
          "indexed": false,
          "internalType": "address",
          "name": "pool",
          "type": "address"
        }
      ],
      "name": "RmPoolSupport",
      "type": "event"
    },
    {
      "anonymous": false,
      "inputs": [
        {
          "indexed": true,
          "internalType": "bytes32",
          "name": "role",
          "type": "bytes32"
        },
        {
          "indexed": true,
          "internalType": "bytes32",
          "name": "previousAdminRole",
          "type": "bytes32"
        },
        {
          "indexed": true,
          "internalType": "bytes32",
          "name": "newAdminRole",
          "type": "bytes32"
        }
      ],
      "name": "RoleAdminChanged",
      "type": "event"
    },
    {
      "anonymous": false,
      "inputs": [
        {
          "indexed": true,
          "internalType": "bytes32",
          "name": "role",
          "type": "bytes32"
        },
        {
          "indexed": true,
          "internalType": "address",
          "name": "account",
          "type": "address"
        },
        {
          "indexed": true,
          "internalType": "address",
          "name": "sender",
          "type": "address"
        }
      ],
      "name": "RoleGranted",
      "type": "event"
    },
    {
      "anonymous": false,
      "inputs": [
        {
          "indexed": true,
          "internalType": "bytes32",
          "name": "role",
          "type": "bytes32"
        },
        {
          "indexed": true,
          "internalType": "address",
          "name": "account",
          "type": "address"
        },
        {
          "indexed": true,
          "internalType": "address",
          "name": "sender",
          "type": "address"
        }
      ],
      "name": "RoleRevoked",
      "type": "event"
    },
    {
      "anonymous": false,
      "inputs": [
        {
          "indexed": true,
          "internalType": "address",
          "name": "_adapter",
          "type": "address"
        },
        {
          "indexed": false,
          "internalType": "uint256",
          "name": "_newEstimate",
          "type": "uint256"
        }
      ],
      "name": "UpdatedGasEstimate",
      "type": "event"
    },
    {
      "anonymous": false,
      "inputs": [
        {
          "indexed": true,
          "internalType": "address",
          "name": "_tokenFrom",
          "type": "address"
        },
        {
          "indexed": true,
          "internalType": "address",
          "name": "_tokenTo",
          "type": "address"
        },
        {
          "indexed": false,
          "internalType": "uint256",
          "name": "_amountIn",
          "type": "uint256"
        },
        {
          "indexed": false,
          "internalType": "uint256",
          "name": "_amountOut",
          "type": "uint256"
        }
      ],
      "name": "YakAdapterSwap",
      "type": "event"
    },
    {
      "inputs": [],
      "name": "DEFAULT_ADMIN_ROLE",
      "outputs": [
        {
          "internalType": "bytes32",
          "name": "",
          "type": "bytes32"
        }
      ],
      "stateMutability": "view",
      "type": "function"
    },
    {
      "inputs": [],
      "name": "MAINTAINER_ROLE",
      "outputs": [
        {
          "internalType": "bytes32",
          "name": "",
          "type": "bytes32"
        }
      ],
      "stateMutability": "view",
      "type": "function"
    },
    {
      "inputs": [
        {
          "internalType": "address",
          "name": "addedMaintainer",
          "type": "address"
        }
      ],
      "name": "addMaintainer",
      "outputs": [],
      "stateMutability": "nonpayable",
      "type": "function"
    },
    {
      "inputs": [
        {
          "internalType": "address[]",
          "name": "pools",
          "type": "address[]"
        }
      ],
      "name": "addPools",
      "outputs": [],
      "stateMutability": "nonpayable",
      "type": "function"
    },
    {
      "inputs": [
        {
          "internalType": "address",
          "name": "tknIn",
          "type": "address"
        },
        {
          "internalType": "address",
          "name": "tknOut",
          "type": "address"
        }
      ],
      "name": "getPoolForTkns",
      "outputs": [
        {
          "internalType": "address",
          "name": "",
          "type": "address"
        }
      ],
      "stateMutability": "view",
      "type": "function"
    },
    {
      "inputs": [
        {
          "internalType": "bytes32",
          "name": "role",
          "type": "bytes32"
        }
      ],
      "name": "getRoleAdmin",
      "outputs": [
        {
          "internalType": "bytes32",
          "name": "",
          "type": "bytes32"
        }
      ],
      "stateMutability": "view",
      "type": "function"
    },
    {
      "inputs": [
        {
          "internalType": "bytes32",
          "name": "role",
          "type": "bytes32"
        },
        {
          "internalType": "address",
          "name": "account",
          "type": "address"
        }
      ],
      "name": "grantRole",
      "outputs": [],
      "stateMutability": "nonpayable",
      "type": "function"
    },
    {
      "inputs": [
        {
          "internalType": "bytes32",
          "name": "role",
          "type": "bytes32"
        },
        {
          "internalType": "address",
          "name": "account",
          "type": "address"
        }
      ],
      "name": "hasRole",
      "outputs": [
        {
          "internalType": "bool",
          "name": "",
          "type": "bool"
        }
      ],
      "stateMutability": "view",
      "type": "function"
    },
    {
      "inputs": [],
      "name": "name",
      "outputs": [
        {
          "internalType": "string",
          "name": "",
          "type": "string"
        }
      ],
      "stateMutability": "view",
      "type": "function"
    },
    {
      "inputs": [
        {
          "internalType": "uint256",
          "name": "_amountIn",
          "type": "uint256"
        },
        {
          "internalType": "address",
          "name": "_tokenIn",
          "type": "address"
        },
        {
          "internalType": "address",
          "name": "_tokenOut",
          "type": "address"
        }
      ],
      "name": "query",
      "outputs": [
        {
          "internalType": "uint256",
          "name": "",
          "type": "uint256"
        }
      ],
      "stateMutability": "view",
      "type": "function"
    },
    {
      "inputs": [
        {
          "internalType": "uint256",
          "name": "_amount",
          "type": "uint256"
        }
      ],
      "name": "recoverAVAX",
      "outputs": [],
      "stateMutability": "nonpayable",
      "type": "function"
    },
    {
      "inputs": [
        {
          "internalType": "address",
          "name": "_tokenAddress",
          "type": "address"
        },
        {
          "internalType": "uint256",
          "name": "_tokenAmount",
          "type": "uint256"
        }
      ],
      "name": "recoverERC20",
      "outputs": [],
      "stateMutability": "nonpayable",
      "type": "function"
    },
    {
      "inputs": [
        {
          "internalType": "address",
          "name": "removedMaintainer",
          "type": "address"
        }
      ],
      "name": "removeMaintainer",
      "outputs": [],
      "stateMutability": "nonpayable",
      "type": "function"
    },
    {
      "inputs": [
        {
          "internalType": "bytes32",
          "name": "role",
          "type": "bytes32"
        },
        {
          "internalType": "address",
          "name": "account",
          "type": "address"
        }
      ],
      "name": "renounceRole",
      "outputs": [],
      "stateMutability": "nonpayable",
      "type": "function"
    },
    {
      "inputs": [
        {
          "internalType": "bytes32",
          "name": "role",
          "type": "bytes32"
        }
      ],
      "name": "renounceRole",
      "outputs": [],
      "stateMutability": "nonpayable",
      "type": "function"
    },
    {
      "inputs": [
        {
          "internalType": "address",
          "name": "_token",
          "type": "address"
        },
        {
          "internalType": "address",
          "name": "_spender",
          "type": "address"
        }
      ],
      "name": "revokeAllowance",
      "outputs": [],
      "stateMutability": "nonpayable",
      "type": "function"
    },
    {
      "inputs": [
        {
          "internalType": "bytes32",
          "name": "role",
          "type": "bytes32"
        },
        {
          "internalType": "address",
          "name": "account",
          "type": "address"
        }
      ],
      "name": "revokeRole",
      "outputs": [],
      "stateMutability": "nonpayable",
      "type": "function"
    },
    {
      "inputs": [
        {
          "internalType": "address[]",
          "name": "pools",
          "type": "address[]"
        }
      ],
      "name": "rmPools",
      "outputs": [],
      "stateMutability": "nonpayable",
      "type": "function"
    },
    {
      "inputs": [
        {
          "internalType": "address",
          "name": "pool",
          "type": "address"
        },
        {
          "internalType": "address[]",
          "name": "tkns",
          "type": "address[]"
        }
      ],
      "name": "setPoolForTkns",
      "outputs": [],
      "stateMutability": "nonpayable",
      "type": "function"
    },
    {
      "inputs": [
        {
          "internalType": "uint256",
          "name": "_estimate",
          "type": "uint256"
        }
      ],
      "name": "setSwapGasEstimate",
      "outputs": [],
      "stateMutability": "nonpayable",
      "type": "function"
    },
    {
      "inputs": [
        {
          "internalType": "bytes4",
          "name": "interfaceId",
          "type": "bytes4"
        }
      ],
      "name": "supportsInterface",
      "outputs": [
        {
          "internalType": "bool",
          "name": "",
          "type": "bool"
        }
      ],
      "stateMutability": "view",
      "type": "function"
    },
    {
      "inputs": [
        {
          "internalType": "uint256",
          "name": "_amountIn",
          "type": "uint256"
        },
        {
          "internalType": "uint256",
          "name": "_amountOut",
          "type": "uint256"
        },
        {
          "internalType": "address",
          "name": "_fromToken",
          "type": "address"
        },
        {
          "internalType": "address",
          "name": "_toToken",
          "type": "address"
        },
        {
          "internalType": "address",
          "name": "_to",
          "type": "address"
        }
      ],
      "name": "swap",
      "outputs": [],
      "stateMutability": "nonpayable",
      "type": "function"
    },
    {
      "inputs": [],
      "name": "swapGasEstimate",
      "outputs": [
        {
          "internalType": "uint256",
          "name": "",
          "type": "uint256"
        }
      ],
      "stateMutability": "view",
      "type": "function"
    },
    {
      "inputs": [
        {
          "internalType": "address",
          "name": "newOwner",
          "type": "address"
        }
      ],
      "name": "transferOwnership",
      "outputs": [],
      "stateMutability": "nonpayable",
      "type": "function"
    },
    {
      "stateMutability": "payable",
      "type": "receive"
    }
  ],
  "bytecode": {
    "object": "0x60806040523480156200001157600080fd5b5060405162002b3838038062002b38833981016040819052620000349162000745565b828233620000446000826200009e565b620000707f339759585899103d2ace64958e37e18ccb0504652c81d4a1b8aa80fe2126ab95826200009e565b506200007c82620000ae565b620000878162000113565b506200009590508162000212565b50505062000a47565b620000aa828262000381565b5050565b8051600003620001055760405162461bcd60e51b815260206004820152601460248201527f496e76616c69642061646170746572206e616d6500000000000000000000000060448201526064015b60405180910390fd5b6002620000aa8282620008b8565b33600081815260008051602062002af8833981519152602052604090205460ff16620001825760405162461bcd60e51b8152602060048201526028602482015260008051602062002b1883398151915260448201526734b73a30b4b732b960c11b6064820152608401620000fc565b81600003620001d45760405162461bcd60e51b815260206004820152601460248201527f496e76616c6964206761732d657374696d6174650000000000000000000000006044820152606401620000fc565b600182905560405182815230907ff43f23b7a28e6f8ce6843a21bd7b48bce778aa913b8c8cf459edf7d770e8d38a9060200160405180910390a25050565b33600081815260008051602062002af8833981519152602052604090205460ff16620002815760405162461bcd60e51b8152602060048201526028602482015260008051602062002b1883398151915260448201526734b73a30b4b732b960c11b6064820152608401620000fc565b60005b82518110156200037c576000838281518110620002a557620002a562000984565b602002602001015190506000816001600160a01b031663ee8c24b86040518163ffffffff1660e01b8152600401600060405180830381865afa158015620002f0573d6000803e3d6000fd5b505050506040513d6000823e601f3d908101601f191682016040526200031a91908101906200099a565b905062000328818362000421565b6040516001600160a01b03831681527fa44f9b37332b817b40cfd72d9ef6521d5e628f32d9048fe78f3529aa13c174b29060200160405180910390a1505080806200037390620009da565b91505062000284565b505050565b6000828152602081815260408083206001600160a01b038516845290915290205460ff16620000aa576000828152602081815260408083206001600160a01b03851684529091529020805460ff19166001179055620003dd3390565b6001600160a01b0316816001600160a01b0316837f2f8788117e7eff1d82e926ec794901d17c78024a50270940304540a733656f0d60405160405180910390a45050565b60005b82518110156200037c5760005b83518110156200054657808214620005315782600360008685815181106200045d576200045d62000984565b60200260200101516001600160a01b03166001600160a01b0316815260200190815260200160002060008684815181106200049c576200049c62000984565b60200260200101516001600160a01b03166001600160a01b0316815260200190815260200160002060006101000a8154816001600160a01b0302191690836001600160a01b0316021790555060006001600160a01b0316836001600160a01b0316146200053157620005318483815181106200051c576200051c62000984565b6020026020010151846200055c60201b60201c565b806200053d81620009da565b91505062000431565b50806200055381620009da565b91505062000424565b604051636eb1769f60e11b81523060048201526001600160a01b0382811660248301526000919084169063dd62ed3e90604401602060405180830381865afa158015620005ad573d6000803e3d6000fd5b505050506040513d601f19601f82011682018060405250810190620005d3919062000a02565b90506000198110156200037c5760405163095ea7b360e01b81526001600160a01b038381166004830152600019602483015284169063095ea7b3906044016020604051808303816000875af115801562000631573d6000803e3d6000fd5b505050506040513d601f19601f8201168201806040525081019062000657919062000a1c565b50505050565b634e487b7160e01b600052604160045260246000fd5b604051601f8201601f191681016001600160401b03811182821017156200069e576200069e6200065d565b604052919050565b600082601f830112620006b857600080fd5b815160206001600160401b03821115620006d657620006d66200065d565b8160051b620006e782820162000673565b92835284810182019282810190878511156200070257600080fd5b83870192505b848310156200073a5782516001600160a01b03811681146200072a5760008081fd5b8252918301919083019062000708565b979650505050505050565b6000806000606084860312156200075b57600080fd5b83516001600160401b03808211156200077357600080fd5b818601915086601f8301126200078857600080fd5b8151818111156200079d576200079d6200065d565b6020620007b3601f8301601f1916820162000673565b8281528982848701011115620007c857600080fd5b60005b83811015620007e8578581018301518282018401528201620007cb565b506000928101820192909252870151604088015191965094509150808211156200081157600080fd5b506200082086828701620006a6565b9150509250925092565b600181811c908216806200083f57607f821691505b6020821081036200086057634e487b7160e01b600052602260045260246000fd5b50919050565b601f8211156200037c57600081815260208120601f850160051c810160208610156200088f5750805b601f850160051c820191505b81811015620008b0578281556001016200089b565b505050505050565b81516001600160401b03811115620008d457620008d46200065d565b620008ec81620008e584546200082a565b8462000866565b602080601f8311600181146200092457600084156200090b5750858301515b600019600386901b1c1916600185901b178555620008b0565b600085815260208120601f198616915b82811015620009555788860151825594840194600190910190840162000934565b5085821015620009745787850151600019600388901b60f8161c191681555b5050505050600190811b01905550565b634e487b7160e01b600052603260045260246000fd5b600060208284031215620009ad57600080fd5b81516001600160401b03811115620009c457600080fd5b620009d284828501620006a6565b949350505050565b600060018201620009fb57634e487b7160e01b600052601160045260246000fd5b5060010190565b60006020828403121562000a1557600080fd5b5051919050565b60006020828403121562000a2f57600080fd5b8151801515811462000a4057600080fd5b9392505050565b6120a18062000a576000396000f3fe60806040526004361061014f5760003560e01c806384a33e63116100b6578063d547741f1161006f578063d547741f146103d5578063d8baf7cf146103f5578063eab90da614610415578063ef99893a14610435578063f2fde38b14610455578063f87422541461047557600080fd5b806384a33e63146103205780638980f11f146103405780638bb9c5bf1461036057806391d1485414610380578063a217fddf146103a0578063b36a4ab1146103b557600080fd5b80634490af06116101085780634490af06146102525780634ebb79161461027257806369cff80d146102925780636b453c1f146102a857806371e8c643146102c85780637ae267731461030057600080fd5b806301ffc9a71461015b57806306fdde031461019057806321901c6f146101b2578063248a9ca3146101d45780632f2ff15d1461021257806336568abe1461023257600080fd5b3661015657005b600080fd5b34801561016757600080fd5b5061017b610176366004611996565b610497565b60405190151581526020015b60405180910390f35b34801561019c57600080fd5b506101a56104ce565b60405161018791906119e4565b3480156101be57600080fd5b506101d26101cd366004611b0b565b61055c565b005b3480156101e057600080fd5b506102046101ef366004611b5b565b60009081526020819052604090206001015490565b604051908152602001610187565b34801561021e57600080fd5b506101d261022d366004611b74565b6106c8565b34801561023e57600080fd5b506101d261024d366004611b74565b6106f2565b34801561025e57600080fd5b506101d261026d366004611ba4565b610770565b34801561027e57600080fd5b506101d261028d366004611b5b565b6108a7565b34801561029e57600080fd5b5061020460015481565b3480156102b457600080fd5b506101d26102c3366004611c19565b610995565b3480156102d457600080fd5b506102e86102e3366004611c36565b6109b0565b6040516001600160a01b039091168152602001610187565b34801561030c57600080fd5b506101d261031b366004611c36565b6109da565b34801561032c57600080fd5b506101d261033b366004611b5b565b610a24565b34801561034c57600080fd5b506101d261035b366004611c64565b610ad7565b34801561036c57600080fd5b506101d261037b366004611b5b565b610bb8565b34801561038c57600080fd5b5061017b61039b366004611b74565b610bc3565b3480156103ac57600080fd5b50610204600081565b3480156103c157600080fd5b506101d26103d0366004611c90565b610bec565b3480156103e157600080fd5b506101d26103f0366004611b74565b610d10565b34801561040157600080fd5b506101d2610410366004611c19565b610d35565b34801561042157600080fd5b506101d2610430366004611ccd565b610d4d565b34801561044157600080fd5b50610204610450366004611d2c565b610ef4565b34801561046157600080fd5b506101d2610470366004611c19565b610f0b565b34801561048157600080fd5b5061020460008051602061204c83398151915281565b60006001600160e01b03198216637965db0b60e01b14806104c857506301ffc9a760e01b6001600160e01b03198316145b92915050565b600280546104db90611d6e565b80601f016020809104026020016040519081016040528092919081815260200182805461050790611d6e565b80156105545780601f1061052957610100808354040283529160200191610554565b820191906000526020600020905b81548152906001019060200180831161053757829003601f168201915b505050505081565b3361057560008051602061204c83398151915282610bc3565b61059a5760405162461bcd60e51b815260040161059190611da8565b60405180910390fd5b60018251116105df5760405162461bcd60e51b81526020600482015260116024820152704174206c656173742074776f20746b6e7360781b6044820152606401610591565b6001600160a01b03831661062a5760405162461bcd60e51b815260206004820152601260248201527113db9b1e481b9bdb8b5e995c9bc81c1bdbdb60721b6044820152606401610591565b6106348383610f22565b6106805760405162461bcd60e51b815260206004820152601a60248201527f506f6f6c20646f6573206e6f7420737570706f727420746b6e730000000000006044820152606401610591565b61068a8284611035565b7f969168e4253b0ca28d1578d402ebf55664e363e9efc0fb3e75b9031b53860d3083836040516106bb929190611df0565b60405180910390a1505050565b6000828152602081905260409020600101546106e381611155565b6106ed838361115f565b505050565b6001600160a01b03811633146107625760405162461bcd60e51b815260206004820152602f60248201527f416363657373436f6e74726f6c3a2063616e206f6e6c792072656e6f756e636560448201526e103937b632b9903337b91039b2b63360891b6064820152608401610591565b61076c82826111e3565b5050565b3361078960008051602061204c83398151915282610bc3565b6107a55760405162461bcd60e51b815260040161059190611da8565b60005b828110156108a15760008484838181106107c4576107c4611e4c565b90506020020160208101906107d99190611c19565b90506000816001600160a01b031663ee8c24b86040518163ffffffff1660e01b8152600401600060405180830381865afa15801561081b573d6000803e3d6000fd5b505050506040513d6000823e601f3d908101601f191682016040526108439190810190611e62565b9050610850816000611035565b6040516001600160a01b03831681527f623a1d97e033b45c5fd210ecd2964f6a030b6ce0b4b4a4864273e71a839e9c2f9060200160405180910390a15050808061089990611f12565b9150506107a8565b50505050565b336108c060008051602061204c83398151915282610bc3565b6108dc5760405162461bcd60e51b815260040161059190611da8565b6000821161092c5760405162461bcd60e51b815260206004820152601e60248201527f59616b416461707465723a204e6f7468696e6720746f207265636f76657200006044820152606401610591565b604051339083156108fc029084906000818181858888f19350505050158015610959573d6000803e3d6000fd5b506040518281526000907f8c1256b8896378cd5044f80c202f9772b9d77dc85c8a6eb51967210b09bfaa28906020015b60405180910390a25050565b6109ad60008051602061204c833981519152826106c8565b50565b6001600160a01b039182166000908152600360209081526040808320938516835292905220541690565b336109f360008051602061204c83398151915282610bc3565b610a0f5760405162461bcd60e51b815260040161059190611da8565b6106ed6001600160a01b038416836000611248565b33610a3d60008051602061204c83398151915282610bc3565b610a595760405162461bcd60e51b815260040161059190611da8565b81600003610aa05760405162461bcd60e51b8152602060048201526014602482015273496e76616c6964206761732d657374696d61746560601b6044820152606401610591565b600182905560405182815230907ff43f23b7a28e6f8ce6843a21bd7b48bce778aa913b8c8cf459edf7d770e8d38a90602001610989565b33610af060008051602061204c83398151915282610bc3565b610b0c5760405162461bcd60e51b815260040161059190611da8565b60008211610b5c5760405162461bcd60e51b815260206004820152601e60248201527f59616b416461707465723a204e6f7468696e6720746f207265636f76657200006044820152606401610591565b610b706001600160a01b0384163384611390565b826001600160a01b03167f8c1256b8896378cd5044f80c202f9772b9d77dc85c8a6eb51967210b09bfaa2883604051610bab91815260200190565b60405180910390a2505050565b3361076c82826106f2565b6000918252602082815260408084206001600160a01b0393909316845291905290205460ff1690565b33610c0560008051602061204c83398151915282610bc3565b610c215760405162461bcd60e51b815260040161059190611da8565b60005b82518110156106ed576000838281518110610c4157610c41611e4c565b602002602001015190506000816001600160a01b031663ee8c24b86040518163ffffffff1660e01b8152600401600060405180830381865afa158015610c8b573d6000803e3d6000fd5b505050506040513d6000823e601f3d908101601f19168201604052610cb39190810190611e62565b9050610cbf8183611035565b6040516001600160a01b03831681527fa44f9b37332b817b40cfd72d9ef6521d5e628f32d9048fe78f3529aa13c174b29060200160405180910390a150508080610d0890611f12565b915050610c24565b600082815260208190526040902060010154610d2b81611155565b6106ed83836111e3565b6109ad60008051602061204c83398151915282610d10565b6040516370a0823160e01b81526001600160a01b038281166004830152600091908416906370a0823190602401602060405180830381865afa158015610d97573d6000803e3d6000fd5b505050506040513d601f19601f82011682018060405250810190610dbb9190611f2b565b9050610dca86868686866113c0565b6040516370a0823160e01b81526001600160a01b03838116600483015260009183918616906370a0823190602401602060405180830381865afa158015610e15573d6000803e3d6000fd5b505050506040513d601f19601f82011682018060405250810190610e399190611f2b565b610e439190611f44565b905085811015610e955760405162461bcd60e51b815260206004820152601760248201527f496e73756666696369656e7420616d6f756e742d6f75740000000000000000006044820152606401610591565b836001600160a01b0316856001600160a01b03167fe2bdbc6b7225eb0a972ac943c485a6cc05f7c6811838bce8903f23200fb744fa8989604051610ee3929190918252602082015260400190565b60405180910390a350505050505050565b6000610f01848484611457565b90505b9392505050565b33610f176000836106c8565b61076c6000826106f2565b600080836001600160a01b031663ee8c24b86040518163ffffffff1660e01b8152600401600060405180830381865afa158015610f63573d6000803e3d6000fd5b505050506040513d6000823e601f3d908101601f19168201604052610f8b9190810190611e62565b90506000805b82518110156110285760005b855181101561101557858181518110610fb857610fb8611e4c565b60200260200101516001600160a01b0316848381518110610fdb57610fdb611e4c565b60200260200101516001600160a01b0316036110035782610ffb81611f12565b935050611015565b8061100d81611f12565b915050610f9d565b508061102081611f12565b915050610f91565b5083511491505092915050565b60005b82518110156106ed5760005b83518110156111425780821461113057826003600086858151811061106b5761106b611e4c565b60200260200101516001600160a01b03166001600160a01b0316815260200190815260200160002060008684815181106110a7576110a7611e4c565b60200260200101516001600160a01b03166001600160a01b0316815260200190815260200160002060006101000a8154816001600160a01b0302191690836001600160a01b0316021790555060006001600160a01b0316836001600160a01b0316146111305761113084838151811061112257611122611e4c565b602002602001015184611579565b8061113a81611f12565b915050611044565b508061114d81611f12565b915050611038565b6109ad813361166d565b6111698282610bc3565b61076c576000828152602081815260408083206001600160a01b03851684529091529020805460ff1916600117905561119f3390565b6001600160a01b0316816001600160a01b0316837f2f8788117e7eff1d82e926ec794901d17c78024a50270940304540a733656f0d60405160405180910390a45050565b6111ed8282610bc3565b1561076c576000828152602081815260408083206001600160a01b0385168085529252808320805460ff1916905551339285917ff6391f5c32d9c69d2a47ea670b442974b53935d1edc7fd64eb21e047a839171b9190a45050565b8015806112c25750604051636eb1769f60e11b81523060048201526001600160a01b03838116602483015284169063dd62ed3e90604401602060405180830381865afa15801561129c573d6000803e3d6000fd5b505050506040513d601f19601f820116820180604052508101906112c09190611f2b565b155b61132d5760405162461bcd60e51b815260206004820152603660248201527f5361666545524332303a20617070726f76652066726f6d206e6f6e2d7a65726f60448201527520746f206e6f6e2d7a65726f20616c6c6f77616e636560501b6064820152608401610591565b6040516001600160a01b0383166024820152604481018290526106ed90849063095ea7b360e01b906064015b60408051601f198184030181529190526020810180516001600160e01b03166001600160e01b0319909316929092179091526116d1565b6040516001600160a01b0383166024820152604481018290526106ed90849063a9059cbb60e01b90606401611359565b60006113cc84846109b0565b604051639908fc8b60e01b81526001600160a01b0386811660048301528581166024830152604482018990526064820188905284811660848301524260a483015291925090821690639908fc8b9060c401600060405180830381600087803b15801561143757600080fd5b505af115801561144b573d6000803e3d6000fd5b50505050505050505050565b60008061146484846109b0565b90506001600160a01b038116158061147a575084155b806114e25750806001600160a01b0316635c975abb6040518163ffffffff1660e01b8152600401602060405180830381865afa1580156114be573d6000803e3d6000fd5b505050506040513d601f19601f820116820180604052508101906114e29190611f57565b156114f1576000915050610f04565b6040516343c2e2f560e01b81526001600160a01b0385811660048301528481166024830152604482018790528216906343c2e2f590606401602060405180830381865afa925050508015611562575060408051601f3d908101601f1916820190925261155f91810190611f2b565b60015b611570576000915050610f04565b9150610f049050565b604051636eb1769f60e11b81523060048201526001600160a01b0382811660248301526000919084169063dd62ed3e90604401602060405180830381865afa1580156115c9573d6000803e3d6000fd5b505050506040513d601f19601f820116820180604052508101906115ed9190611f2b565b90506000198110156106ed5760405163095ea7b360e01b81526001600160a01b038381166004830152600019602483015284169063095ea7b3906044016020604051808303816000875af1158015611649573d6000803e3d6000fd5b505050506040513d601f19601f820116820180604052508101906108a19190611f57565b6116778282610bc3565b61076c5761168f816001600160a01b031660146117fa565b61169a8360206117fa565b6040516020016116ab929190611f79565b60408051601f198184030181529082905262461bcd60e51b8252610591916004016119e4565b600080836001600160a01b0316836040516116ec9190611fee565b6000604051808303816000865af19150503d8060008114611729576040519150601f19603f3d011682016040523d82523d6000602084013e61172e565b606091505b5091509150816117805760405162461bcd60e51b815260206004820181905260248201527f5361666545524332303a206c6f772d6c6576656c2063616c6c206661696c65646044820152606401610591565b8051156108a1578080602001905181019061179b9190611f57565b6108a15760405162461bcd60e51b815260206004820152602a60248201527f5361666545524332303a204552433230206f7065726174696f6e20646964206e6044820152691bdd081cdd58d8d9595960b21b6064820152608401610591565b6060600061180983600261200a565b611814906002612021565b67ffffffffffffffff81111561182c5761182c611a2c565b6040519080825280601f01601f191660200182016040528015611856576020820181803683370190505b509050600360fc1b8160008151811061187157611871611e4c565b60200101906001600160f81b031916908160001a905350600f60fb1b816001815181106118a0576118a0611e4c565b60200101906001600160f81b031916908160001a90535060006118c484600261200a565b6118cf906001612021565b90505b6001811115611947576f181899199a1a9b1b9c1cb0b131b232b360811b85600f166010811061190357611903611e4c565b1a60f81b82828151811061191957611919611e4c565b60200101906001600160f81b031916908160001a90535060049490941c9361194081612034565b90506118d2565b508315610f045760405162461bcd60e51b815260206004820181905260248201527f537472696e67733a20686578206c656e67746820696e73756666696369656e746044820152606401610591565b6000602082840312156119a857600080fd5b81356001600160e01b031981168114610f0457600080fd5b60005b838110156119db5781810151838201526020016119c3565b50506000910152565b6020815260008251806020840152611a038160408501602087016119c0565b601f01601f19169190910160400192915050565b6001600160a01b03811681146109ad57600080fd5b634e487b7160e01b600052604160045260246000fd5b604051601f8201601f1916810167ffffffffffffffff81118282101715611a6b57611a6b611a2c565b604052919050565b600067ffffffffffffffff821115611a8d57611a8d611a2c565b5060051b60200190565b600082601f830112611aa857600080fd5b81356020611abd611ab883611a73565b611a42565b82815260059290921b84018101918181019086841115611adc57600080fd5b8286015b84811015611b00578035611af381611a17565b8352918301918301611ae0565b509695505050505050565b60008060408385031215611b1e57600080fd5b8235611b2981611a17565b9150602083013567ffffffffffffffff811115611b4557600080fd5b611b5185828601611a97565b9150509250929050565b600060208284031215611b6d57600080fd5b5035919050565b60008060408385031215611b8757600080fd5b823591506020830135611b9981611a17565b809150509250929050565b60008060208385031215611bb757600080fd5b823567ffffffffffffffff80821115611bcf57600080fd5b818501915085601f830112611be357600080fd5b813581811115611bf257600080fd5b8660208260051b8501011115611c0757600080fd5b60209290920196919550909350505050565b600060208284031215611c2b57600080fd5b8135610f0481611a17565b60008060408385031215611c4957600080fd5b8235611c5481611a17565b91506020830135611b9981611a17565b60008060408385031215611c7757600080fd5b8235611c8281611a17565b946020939093013593505050565b600060208284031215611ca257600080fd5b813567ffffffffffffffff811115611cb957600080fd5b611cc584828501611a97565b949350505050565b600080600080600060a08688031215611ce557600080fd5b85359450602086013593506040860135611cfe81611a17565b92506060860135611d0e81611a17565b91506080860135611d1e81611a17565b809150509295509295909350565b600080600060608486031215611d4157600080fd5b833592506020840135611d5381611a17565b91506040840135611d6381611a17565b809150509250925092565b600181811c90821680611d8257607f821691505b602082108103611da257634e487b7160e01b600052602260045260246000fd5b50919050565b60208082526028908201527f4d61696e7461696e61626c653a2043616c6c6572206973206e6f742061206d6160408201526734b73a30b4b732b960c11b606082015260800190565b6001600160a01b038381168252604060208084018290528451918401829052600092858201929091906060860190855b81811015611e3e578551851683529483019491830191600101611e20565b509098975050505050505050565b634e487b7160e01b600052603260045260246000fd5b60006020808385031215611e7557600080fd5b825167ffffffffffffffff811115611e8c57600080fd5b8301601f81018513611e9d57600080fd5b8051611eab611ab882611a73565b81815260059190911b82018301908381019087831115611eca57600080fd5b928401925b82841015611ef1578351611ee281611a17565b82529284019290840190611ecf565b979650505050505050565b634e487b7160e01b600052601160045260246000fd5b600060018201611f2457611f24611efc565b5060010190565b600060208284031215611f3d57600080fd5b5051919050565b818103818111156104c8576104c8611efc565b600060208284031215611f6957600080fd5b81518015158114610f0457600080fd5b7f416363657373436f6e74726f6c3a206163636f756e7420000000000000000000815260008351611fb18160178501602088016119c0565b7001034b99036b4b9b9b4b733903937b6329607d1b6017918401918201528351611fe28160288401602088016119c0565b01602801949350505050565b600082516120008184602087016119c0565b9190910192915050565b80820281158282048414176104c8576104c8611efc565b808201808211156104c8576104c8611efc565b60008161204357612043611efc565b50600019019056fe339759585899103d2ace64958e37e18ccb0504652c81d4a1b8aa80fe2126ab95a2646970667358221220119d40aff47dfe7f2e23f325fa84aae462a5a63f25e2025df6f3e0d24f30053e64736f6c63430008110033a54247010af6b3693b80aceddfad12e077c5de3571e6243fada502635f0d7d394d61696e7461696e61626c653a2043616c6c6572206973206e6f742061206d61",
    "linkReferences": {}
  },
  "methodIdentifiers": {
    "DEFAULT_ADMIN_ROLE()": "a217fddf",
    "MAINTAINER_ROLE()": "f8742254",
    "addMaintainer(address)": "6b453c1f",
    "addPools(address[])": "b36a4ab1",
    "getPoolForTkns(address,address)": "71e8c643",
    "getRoleAdmin(bytes32)": "248a9ca3",
    "grantRole(bytes32,address)": "2f2ff15d",
    "hasRole(bytes32,address)": "91d14854",
    "name()": "06fdde03",
    "query(uint256,address,address)": "ef99893a",
    "recoverAVAX(uint256)": "4ebb7916",
    "recoverERC20(address,uint256)": "8980f11f",
    "removeMaintainer(address)": "d8baf7cf",
    "renounceRole(bytes32)": "8bb9c5bf",
    "renounceRole(bytes32,address)": "36568abe",
    "revokeAllowance(address,address)": "7ae26773",
    "revokeRole(bytes32,address)": "d547741f",
    "rmPools(address[])": "4490af06",
    "setPoolForTkns(address,address[])": "21901c6f",
    "setSwapGasEstimate(uint256)": "84a33e63",
    "supportsInterface(bytes4)": "01ffc9a7",
    "swap(uint256,uint256,address,address,address)": "eab90da6",
    "swapGasEstimate()": "69cff80d",
    "transferOwnership(address)": "f2fde38b"
  },
  "id": 32
}