{
  "abi": [
    {
      "inputs": [
        {
          "internalType": "uint256",
          "name": "_swapGasEstimate",
          "type": "uint256"
        }
      ],
      "stateMutability": "nonpayable",
      "type": "constructor"
    },
    {
      "anonymous": false,
      "inputs": [
        {
          "indexed": true,
          "internalType": "address",
          "name": "_asset",
          "type": "address"
        },
        {
          "indexed": false,
          "internalType": "uint256",
          "name": "amount",
          "type": "uint256"
        }
      ],
      "name": "Recovered",
      "type": "event"
    },
    {
      "anonymous": false,
      "inputs": [
        {
          "indexed": true,
          "internalType": "bytes32",
          "name": "role",
          "type": "bytes32"
        },
        {
          "indexed": true,
          "internalType": "bytes32",
          "name": "previousAdminRole",
          "type": "bytes32"
        },
        {
          "indexed": true,
          "internalType": "bytes32",
          "name": "newAdminRole",
          "type": "bytes32"
        }
      ],
      "name": "RoleAdminChanged",
      "type": "event"
    },
    {
      "anonymous": false,
      "inputs": [
        {
          "indexed": true,
          "internalType": "bytes32",
          "name": "role",
          "type": "bytes32"
        },
        {
          "indexed": true,
          "internalType": "address",
          "name": "account",
          "type": "address"
        },
        {
          "indexed": true,
          "internalType": "address",
          "name": "sender",
          "type": "address"
        }
      ],
      "name": "RoleGranted",
      "type": "event"
    },
    {
      "anonymous": false,
      "inputs": [
        {
          "indexed": true,
          "internalType": "bytes32",
          "name": "role",
          "type": "bytes32"
        },
        {
          "indexed": true,
          "internalType": "address",
          "name": "account",
          "type": "address"
        },
        {
          "indexed": true,
          "internalType": "address",
          "name": "sender",
          "type": "address"
        }
      ],
      "name": "RoleRevoked",
      "type": "event"
    },
    {
      "anonymous": false,
      "inputs": [
        {
          "indexed": true,
          "internalType": "address",
          "name": "_adapter",
          "type": "address"
        },
        {
          "indexed": false,
          "internalType": "uint256",
          "name": "_newEstimate",
          "type": "uint256"
        }
      ],
      "name": "UpdatedGasEstimate",
      "type": "event"
    },
    {
      "anonymous": false,
      "inputs": [
        {
          "indexed": true,
          "internalType": "address",
          "name": "_tokenFrom",
          "type": "address"
        },
        {
          "indexed": true,
          "internalType": "address",
          "name": "_tokenTo",
          "type": "address"
        },
        {
          "indexed": false,
          "internalType": "uint256",
          "name": "_amountIn",
          "type": "uint256"
        },
        {
          "indexed": false,
          "internalType": "uint256",
          "name": "_amountOut",
          "type": "uint256"
        }
      ],
      "name": "YakAdapterSwap",
      "type": "event"
    },
    {
      "inputs": [],
      "name": "DEFAULT_ADMIN_ROLE",
      "outputs": [
        {
          "internalType": "bytes32",
          "name": "",
          "type": "bytes32"
        }
      ],
      "stateMutability": "view",
      "type": "function"
    },
    {
      "inputs": [],
      "name": "JOE",
      "outputs": [
        {
          "internalType": "address",
          "name": "",
          "type": "address"
        }
      ],
      "stateMutability": "view",
      "type": "function"
    },
    {
      "inputs": [],
      "name": "MAINTAINER_ROLE",
      "outputs": [
        {
          "internalType": "bytes32",
          "name": "",
          "type": "bytes32"
        }
      ],
      "stateMutability": "view",
      "type": "function"
    },
    {
      "inputs": [],
      "name": "XJOE",
      "outputs": [
        {
          "internalType": "address",
          "name": "",
          "type": "address"
        }
      ],
      "stateMutability": "view",
      "type": "function"
    },
    {
      "inputs": [
        {
          "internalType": "address",
          "name": "addedMaintainer",
          "type": "address"
        }
      ],
      "name": "addMaintainer",
      "outputs": [],
      "stateMutability": "nonpayable",
      "type": "function"
    },
    {
      "inputs": [
        {
          "internalType": "bytes32",
          "name": "role",
          "type": "bytes32"
        }
      ],
      "name": "getRoleAdmin",
      "outputs": [
        {
          "internalType": "bytes32",
          "name": "",
          "type": "bytes32"
        }
      ],
      "stateMutability": "view",
      "type": "function"
    },
    {
      "inputs": [
        {
          "internalType": "bytes32",
          "name": "role",
          "type": "bytes32"
        },
        {
          "internalType": "address",
          "name": "account",
          "type": "address"
        }
      ],
      "name": "grantRole",
      "outputs": [],
      "stateMutability": "nonpayable",
      "type": "function"
    },
    {
      "inputs": [
        {
          "internalType": "bytes32",
          "name": "role",
          "type": "bytes32"
        },
        {
          "internalType": "address",
          "name": "account",
          "type": "address"
        }
      ],
      "name": "hasRole",
      "outputs": [
        {
          "internalType": "bool",
          "name": "",
          "type": "bool"
        }
      ],
      "stateMutability": "view",
      "type": "function"
    },
    {
      "inputs": [],
      "name": "name",
      "outputs": [
        {
          "internalType": "string",
          "name": "",
          "type": "string"
        }
      ],
      "stateMutability": "view",
      "type": "function"
    },
    {
      "inputs": [
        {
          "internalType": "uint256",
          "name": "_amountIn",
          "type": "uint256"
        },
        {
          "internalType": "address",
          "name": "_tokenIn",
          "type": "address"
        },
        {
          "internalType": "address",
          "name": "_tokenOut",
          "type": "address"
        }
      ],
      "name": "query",
      "outputs": [
        {
          "internalType": "uint256",
          "name": "",
          "type": "uint256"
        }
      ],
      "stateMutability": "view",
      "type": "function"
    },
    {
      "inputs": [
        {
          "internalType": "uint256",
          "name": "_amount",
          "type": "uint256"
        }
      ],
      "name": "recoverAVAX",
      "outputs": [],
      "stateMutability": "nonpayable",
      "type": "function"
    },
    {
      "inputs": [
        {
          "internalType": "address",
          "name": "_tokenAddress",
          "type": "address"
        },
        {
          "internalType": "uint256",
          "name": "_tokenAmount",
          "type": "uint256"
        }
      ],
      "name": "recoverERC20",
      "outputs": [],
      "stateMutability": "nonpayable",
      "type": "function"
    },
    {
      "inputs": [
        {
          "internalType": "address",
          "name": "removedMaintainer",
          "type": "address"
        }
      ],
      "name": "removeMaintainer",
      "outputs": [],
      "stateMutability": "nonpayable",
      "type": "function"
    },
    {
      "inputs": [
        {
          "internalType": "bytes32",
          "name": "role",
          "type": "bytes32"
        },
        {
          "internalType": "address",
          "name": "account",
          "type": "address"
        }
      ],
      "name": "renounceRole",
      "outputs": [],
      "stateMutability": "nonpayable",
      "type": "function"
    },
    {
      "inputs": [
        {
          "internalType": "bytes32",
          "name": "role",
          "type": "bytes32"
        }
      ],
      "name": "renounceRole",
      "outputs": [],
      "stateMutability": "nonpayable",
      "type": "function"
    },
    {
      "inputs": [
        {
          "internalType": "address",
          "name": "_token",
          "type": "address"
        },
        {
          "internalType": "address",
          "name": "_spender",
          "type": "address"
        }
      ],
      "name": "revokeAllowance",
      "outputs": [],
      "stateMutability": "nonpayable",
      "type": "function"
    },
    {
      "inputs": [
        {
          "internalType": "bytes32",
          "name": "role",
          "type": "bytes32"
        },
        {
          "internalType": "address",
          "name": "account",
          "type": "address"
        }
      ],
      "name": "revokeRole",
      "outputs": [],
      "stateMutability": "nonpayable",
      "type": "function"
    },
    {
      "inputs": [
        {
          "internalType": "uint256",
          "name": "_estimate",
          "type": "uint256"
        }
      ],
      "name": "setSwapGasEstimate",
      "outputs": [],
      "stateMutability": "nonpayable",
      "type": "function"
    },
    {
      "inputs": [
        {
          "internalType": "bytes4",
          "name": "interfaceId",
          "type": "bytes4"
        }
      ],
      "name": "supportsInterface",
      "outputs": [
        {
          "internalType": "bool",
          "name": "",
          "type": "bool"
        }
      ],
      "stateMutability": "view",
      "type": "function"
    },
    {
      "inputs": [
        {
          "internalType": "uint256",
          "name": "_amountIn",
          "type": "uint256"
        },
        {
          "internalType": "uint256",
          "name": "_amountOut",
          "type": "uint256"
        },
        {
          "internalType": "address",
          "name": "_fromToken",
          "type": "address"
        },
        {
          "internalType": "address",
          "name": "_toToken",
          "type": "address"
        },
        {
          "internalType": "address",
          "name": "_to",
          "type": "address"
        }
      ],
      "name": "swap",
      "outputs": [],
      "stateMutability": "nonpayable",
      "type": "function"
    },
    {
      "inputs": [],
      "name": "swapGasEstimate",
      "outputs": [
        {
          "internalType": "uint256",
          "name": "",
          "type": "uint256"
        }
      ],
      "stateMutability": "view",
      "type": "function"
    },
    {
      "inputs": [
        {
          "internalType": "address",
          "name": "newOwner",
          "type": "address"
        }
      ],
      "name": "transferOwnership",
      "outputs": [],
      "stateMutability": "nonpayable",
      "type": "function"
    },
    {
      "stateMutability": "payable",
      "type": "receive"
    }
  ],
  "bytecode": {
    "object": "0x60806040523480156200001157600080fd5b5060405162002175380380620021758339810160408190526200003491620005ef565b60408051808201909152600b81526a2c2537b2a0b230b83a32b960a91b6020820152813362000065600082620000bc565b620000917f339759585899103d2ace64958e37e18ccb0504652c81d4a1b8aa80fe2126ab9582620000bc565b506200009d82620000cc565b620000a88162000131565b50620000b5905062000252565b50620007d5565b620000c88282620002c6565b5050565b8051600003620001235760405162461bcd60e51b815260206004820152601460248201527f496e76616c69642061646170746572206e616d6500000000000000000000000060448201526064015b60405180910390fd5b6002620000c88282620006ad565b3360008181527fa54247010af6b3693b80aceddfad12e077c5de3571e6243fada502635f0d7d39602052604090205460ff16620001c25760405162461bcd60e51b815260206004820152602860248201527f4d61696e7461696e61626c653a2043616c6c6572206973206e6f742061206d6160448201526734b73a30b4b732b960c11b60648201526084016200011a565b81600003620002145760405162461bcd60e51b815260206004820152601460248201527f496e76616c6964206761732d657374696d61746500000000000000000000000060448201526064016200011a565b600182905560405182815230907ff43f23b7a28e6f8ce6843a21bd7b48bce778aa913b8c8cf459edf7d770e8d38a9060200160405180910390a25050565b620002817357319d41f71e81f3c65f2a47ca4e001ebafd4f338060001962000366602090811b62000af017901c565b620002c4736e84a6216ea6dacc71ee8e6b0a5b7322eebc0fdd7357319d41f71e81f3c65f2a47ca4e001ebafd4f3360001962000366602090811b62000af017901c565b565b6000828152602081815260408083206001600160a01b038516845290915290205460ff16620000c8576000828152602081815260408083206001600160a01b03851684529091529020805460ff19166001179055620003223390565b6001600160a01b0316816001600160a01b0316837f2f8788117e7eff1d82e926ec794901d17c78024a50270940304540a733656f0d60405160405180910390a45050565b801580620003e45750604051636eb1769f60e11b81523060048201526001600160a01b03838116602483015284169063dd62ed3e90604401602060405180830381865afa158015620003bc573d6000803e3d6000fd5b505050506040513d601f19601f82011682018060405250810190620003e29190620005ef565b155b620004585760405162461bcd60e51b815260206004820152603660248201527f5361666545524332303a20617070726f76652066726f6d206e6f6e2d7a65726f60448201527f20746f206e6f6e2d7a65726f20616c6c6f77616e63650000000000000000000060648201526084016200011a565b604080516001600160a01b038416602482015260448082018490528251808303909101815260649091019091526020810180516001600160e01b0390811663095ea7b360e01b17909152620004b0918591620004b516565b505050565b600080836001600160a01b031683604051620004d2919062000779565b6000604051808303816000865af19150503d806000811462000511576040519150601f19603f3d011682016040523d82523d6000602084013e62000516565b606091505b5091509150816200056a5760405162461bcd60e51b815260206004820181905260248201527f5361666545524332303a206c6f772d6c6576656c2063616c6c206661696c656460448201526064016200011a565b805115620005e95780806020019051810190620005889190620007aa565b620005e95760405162461bcd60e51b815260206004820152602a60248201527f5361666545524332303a204552433230206f7065726174696f6e20646964206e6044820152691bdd081cdd58d8d9595960b21b60648201526084016200011a565b50505050565b6000602082840312156200060257600080fd5b5051919050565b634e487b7160e01b600052604160045260246000fd5b600181811c908216806200063457607f821691505b6020821081036200065557634e487b7160e01b600052602260045260246000fd5b50919050565b601f821115620004b057600081815260208120601f850160051c81016020861015620006845750805b601f850160051c820191505b81811015620006a55782815560010162000690565b505050505050565b81516001600160401b03811115620006c957620006c962000609565b620006e181620006da84546200061f565b846200065b565b602080601f831160018114620007195760008415620007005750858301515b600019600386901b1c1916600185901b178555620006a5565b600085815260208120601f198616915b828110156200074a5788860151825594840194600190910190840162000729565b5085821015620007695787850151600019600388901b60f8161c191681555b5050505050600190811b01905550565b6000825160005b818110156200079c576020818601810151858301520162000780565b506000920191825250919050565b600060208284031215620007bd57600080fd5b81518015158114620007ce57600080fd5b9392505050565b61199080620007e56000396000f3fe6080604052600436106101395760003560e01c80638980f11f116100ab578063d8baf7cf1161006f578063d8baf7cf14610387578063eab90da6146103a7578063ef99893a146103c7578063f2fde38b146103e7578063f874225414610407578063ffebad301461042957600080fd5b80638980f11f146102f25780638bb9c5bf1461031257806391d1485414610332578063a217fddf14610352578063d547741f1461036757600080fd5b806336568abe116100fd57806336568abe1461023c5780634ebb79161461025c57806369cff80d1461027c5780636b453c1f146102925780637ae26773146102b257806384a33e63146102d257600080fd5b806301ffc9a71461014557806306fdde031461017a5780631e1c1f771461019c578063248a9ca3146101dc5780632f2ff15d1461021a57600080fd5b3661014057005b600080fd5b34801561015157600080fd5b50610165610160366004611550565b610451565b60405190151581526020015b60405180910390f35b34801561018657600080fd5b5061018f610488565b604051610171919061159e565b3480156101a857600080fd5b506101c47357319d41f71e81f3c65f2a47ca4e001ebafd4f3381565b6040516001600160a01b039091168152602001610171565b3480156101e857600080fd5b5061020c6101f73660046115d1565b60009081526020819052604090206001015490565b604051908152602001610171565b34801561022657600080fd5b5061023a610235366004611606565b610516565b005b34801561024857600080fd5b5061023a610257366004611606565b610540565b34801561026857600080fd5b5061023a6102773660046115d1565b6105c3565b34801561028857600080fd5b5061020c60015481565b34801561029e57600080fd5b5061023a6102ad366004611632565b6106b1565b3480156102be57600080fd5b5061023a6102cd36600461164d565b6106cc565b3480156102de57600080fd5b5061023a6102ed3660046115d1565b610716565b3480156102fe57600080fd5b5061023a61030d366004611677565b6107c9565b34801561031e57600080fd5b5061023a61032d3660046115d1565b6108aa565b34801561033e57600080fd5b5061016561034d366004611606565b6108b5565b34801561035e57600080fd5b5061020c600081565b34801561037357600080fd5b5061023a610382366004611606565b6108de565b34801561039357600080fd5b5061023a6103a2366004611632565b610903565b3480156103b357600080fd5b5061023a6103c23660046116a1565b61091b565b3480156103d357600080fd5b5061020c6103e23660046116f8565b610ac2565b3480156103f357600080fd5b5061023a610402366004611632565b610ad9565b34801561041357600080fd5b5061020c60008051602061193b83398151915281565b34801561043557600080fd5b506101c4736e84a6216ea6dacc71ee8e6b0a5b7322eebc0fdd81565b60006001600160e01b03198216637965db0b60e01b148061048257506301ffc9a760e01b6001600160e01b03198316145b92915050565b6002805461049590611734565b80601f01602080910402602001604051908101604052809291908181526020018280546104c190611734565b801561050e5780601f106104e35761010080835404028352916020019161050e565b820191906000526020600020905b8154815290600101906020018083116104f157829003601f168201915b505050505081565b60008281526020819052604090206001015461053181610c38565b61053b8383610c42565b505050565b6001600160a01b03811633146105b55760405162461bcd60e51b815260206004820152602f60248201527f416363657373436f6e74726f6c3a2063616e206f6e6c792072656e6f756e636560448201526e103937b632b9903337b91039b2b63360891b60648201526084015b60405180910390fd5b6105bf8282610cc6565b5050565b336105dc60008051602061193b833981519152826108b5565b6105f85760405162461bcd60e51b81526004016105ac9061176e565b600082116106485760405162461bcd60e51b815260206004820152601e60248201527f59616b416461707465723a204e6f7468696e6720746f207265636f766572000060448201526064016105ac565b604051339083156108fc029084906000818181858888f19350505050158015610675573d6000803e3d6000fd5b506040518281526000907f8c1256b8896378cd5044f80c202f9772b9d77dc85c8a6eb51967210b09bfaa28906020015b60405180910390a25050565b6106c960008051602061193b83398151915282610516565b50565b336106e560008051602061193b833981519152826108b5565b6107015760405162461bcd60e51b81526004016105ac9061176e565b61053b6001600160a01b038416836000610af0565b3361072f60008051602061193b833981519152826108b5565b61074b5760405162461bcd60e51b81526004016105ac9061176e565b816000036107925760405162461bcd60e51b8152602060048201526014602482015273496e76616c6964206761732d657374696d61746560601b60448201526064016105ac565b600182905560405182815230907ff43f23b7a28e6f8ce6843a21bd7b48bce778aa913b8c8cf459edf7d770e8d38a906020016106a5565b336107e260008051602061193b833981519152826108b5565b6107fe5760405162461bcd60e51b81526004016105ac9061176e565b6000821161084e5760405162461bcd60e51b815260206004820152601e60248201527f59616b416461707465723a204e6f7468696e6720746f207265636f766572000060448201526064016105ac565b6108626001600160a01b0384163384610d2b565b826001600160a01b03167f8c1256b8896378cd5044f80c202f9772b9d77dc85c8a6eb51967210b09bfaa288360405161089d91815260200190565b60405180910390a2505050565b336105bf8282610540565b6000918252602082815260408084206001600160a01b0393909316845291905290205460ff1690565b6000828152602081905260409020600101546108f981610c38565b61053b8383610cc6565b6106c960008051602061193b833981519152826108de565b6040516370a0823160e01b81526001600160a01b038281166004830152600091908416906370a0823190602401602060405180830381865afa158015610965573d6000803e3d6000fd5b505050506040513d601f19601f8201168201806040525081019061098991906117b6565b90506109988686868686610d5b565b6040516370a0823160e01b81526001600160a01b03838116600483015260009183918616906370a0823190602401602060405180830381865afa1580156109e3573d6000803e3d6000fd5b505050506040513d601f19601f82011682018060405250810190610a0791906117b6565b610a1191906117e5565b905085811015610a635760405162461bcd60e51b815260206004820152601760248201527f496e73756666696369656e7420616d6f756e742d6f757400000000000000000060448201526064016105ac565b836001600160a01b0316856001600160a01b03167fe2bdbc6b7225eb0a972ac943c485a6cc05f7c6811838bce8903f23200fb744fa8989604051610ab1929190918252602082015260400190565b60405180910390a350505050505050565b6000610acf848484610ef2565b90505b9392505050565b33610ae5600083610516565b6105bf600082610540565b801580610b6a5750604051636eb1769f60e11b81523060048201526001600160a01b03838116602483015284169063dd62ed3e90604401602060405180830381865afa158015610b44573d6000803e3d6000fd5b505050506040513d601f19601f82011682018060405250810190610b6891906117b6565b155b610bd55760405162461bcd60e51b815260206004820152603660248201527f5361666545524332303a20617070726f76652066726f6d206e6f6e2d7a65726f60448201527520746f206e6f6e2d7a65726f20616c6c6f77616e636560501b60648201526084016105ac565b6040516001600160a01b03831660248201526044810182905261053b90849063095ea7b360e01b906064015b60408051601f198184030181529190526020810180516001600160e01b03166001600160e01b031990931692909217909152610fa7565b6106c981336110d6565b610c4c82826108b5565b6105bf576000828152602081815260408083206001600160a01b03851684529091529020805460ff19166001179055610c823390565b6001600160a01b0316816001600160a01b0316837f2f8788117e7eff1d82e926ec794901d17c78024a50270940304540a733656f0d60405160405180910390a45050565b610cd082826108b5565b156105bf576000828152602081815260408083206001600160a01b0385168085529252808320805460ff1916905551339285917ff6391f5c32d9c69d2a47ea670b442974b53935d1edc7fd64eb21e047a839171b9190a45050565b6040516001600160a01b03831660248201526044810182905261053b90849063a9059cbb60e01b90606401610c01565b6001600160a01b038316736e84a6216ea6dacc71ee8e6b0a5b7322eebc0fdd148015610da357506001600160a01b0382167357319d41f71e81f3c65f2a47ca4e001ebafd4f33145b15610e1357604051632967cf8360e21b8152600481018690527357319d41f71e81f3c65f2a47ca4e001ebafd4f339063a59f3e0c906024015b600060405180830381600087803b158015610df657600080fd5b505af1158015610e0a573d6000803e3d6000fd5b50505050610ee0565b6001600160a01b0383167357319d41f71e81f3c65f2a47ca4e001ebafd4f33148015610e5b57506001600160a01b038216736e84a6216ea6dacc71ee8e6b0a5b7322eebc0fdd145b15610e98576040516367dfd4c960e01b8152600481018690527357319d41f71e81f3c65f2a47ca4e001ebafd4f33906367dfd4c990602401610ddc565b60405162461bcd60e51b815260206004820152601e60248201527f584a6f65416461707465723a20556e737570706f7274656420746f6b656e000060448201526064016105ac565b610eeb82858361113a565b5050505050565b60006001600160a01b038316736e84a6216ea6dacc71ee8e6b0a5b7322eebc0fdd148015610f3c57506001600160a01b0382167357319d41f71e81f3c65f2a47ca4e001ebafd4f33145b15610f5157610f4a8461115e565b9050610ad2565b6001600160a01b0383167357319d41f71e81f3c65f2a47ca4e001ebafd4f33148015610f9957506001600160a01b038216736e84a6216ea6dacc71ee8e6b0a5b7322eebc0fdd145b15610ad257610f4a8461129b565b600080836001600160a01b031683604051610fc291906117f8565b6000604051808303816000865af19150503d8060008114610fff576040519150601f19603f3d011682016040523d82523d6000602084013e611004565b606091505b5091509150816110565760405162461bcd60e51b815260206004820181905260248201527f5361666545524332303a206c6f772d6c6576656c2063616c6c206661696c656460448201526064016105ac565b8051156110d057808060200190518101906110719190611814565b6110d05760405162461bcd60e51b815260206004820152602a60248201527f5361666545524332303a204552433230206f7065726174696f6e20646964206e6044820152691bdd081cdd58d8d9595960b21b60648201526084016105ac565b50505050565b6110e082826108b5565b6105bf576110f8816001600160a01b031660146113b4565b6111038360206113b4565b604051602001611114929190611836565b60408051601f198184030181529082905262461bcd60e51b82526105ac9160040161159e565b306001600160a01b0382161461053b5761053b6001600160a01b0384168284610d2b565b6040516370a0823160e01b81527357319d41f71e81f3c65f2a47ca4e001ebafd4f3360048201526000908190736e84a6216ea6dacc71ee8e6b0a5b7322eebc0fdd906370a0823190602401602060405180830381865afa1580156111c6573d6000803e3d6000fd5b505050506040513d601f19601f820116820180604052508101906111ea91906117b6565b905060007357319d41f71e81f3c65f2a47ca4e001ebafd4f336001600160a01b03166318160ddd6040518163ffffffff1660e01b8152600401602060405180830381865afa158015611240573d6000803e3d6000fd5b505050506040513d601f19601f8201168201806040525081019061126491906117b6565b9050801580611271575081155b1561127e57509192915050565b8161128982866118ab565b61129391906118c2565b949350505050565b6000807357319d41f71e81f3c65f2a47ca4e001ebafd4f336001600160a01b03166318160ddd6040518163ffffffff1660e01b8152600401602060405180830381865afa1580156112f0573d6000803e3d6000fd5b505050506040513d601f19601f8201168201806040525081019061131491906117b6565b6040516370a0823160e01b81527357319d41f71e81f3c65f2a47ca4e001ebafd4f3360048201529091508190736e84a6216ea6dacc71ee8e6b0a5b7322eebc0fdd906370a0823190602401602060405180830381865afa15801561137c573d6000803e3d6000fd5b505050506040513d601f19601f820116820180604052508101906113a091906117b6565b6113aa90856118ab565b610ad291906118c2565b606060006113c38360026118ab565b6113ce9060026118e4565b67ffffffffffffffff8111156113e6576113e66118f7565b6040519080825280601f01601f191660200182016040528015611410576020820181803683370190505b509050600360fc1b8160008151811061142b5761142b61190d565b60200101906001600160f81b031916908160001a905350600f60fb1b8160018151811061145a5761145a61190d565b60200101906001600160f81b031916908160001a905350600061147e8460026118ab565b6114899060016118e4565b90505b6001811115611501576f181899199a1a9b1b9c1cb0b131b232b360811b85600f16601081106114bd576114bd61190d565b1a60f81b8282815181106114d3576114d361190d565b60200101906001600160f81b031916908160001a90535060049490941c936114fa81611923565b905061148c565b508315610ad25760405162461bcd60e51b815260206004820181905260248201527f537472696e67733a20686578206c656e67746820696e73756666696369656e7460448201526064016105ac565b60006020828403121561156257600080fd5b81356001600160e01b031981168114610ad257600080fd5b60005b8381101561159557818101518382015260200161157d565b50506000910152565b60208152600082518060208401526115bd81604085016020870161157a565b601f01601f19169190910160400192915050565b6000602082840312156115e357600080fd5b5035919050565b80356001600160a01b038116811461160157600080fd5b919050565b6000806040838503121561161957600080fd5b82359150611629602084016115ea565b90509250929050565b60006020828403121561164457600080fd5b610ad2826115ea565b6000806040838503121561166057600080fd5b611669836115ea565b9150611629602084016115ea565b6000806040838503121561168a57600080fd5b611693836115ea565b946020939093013593505050565b600080600080600060a086880312156116b957600080fd5b85359450602086013593506116d0604087016115ea565b92506116de606087016115ea565b91506116ec608087016115ea565b90509295509295909350565b60008060006060848603121561170d57600080fd5b8335925061171d602085016115ea565b915061172b604085016115ea565b90509250925092565b600181811c9082168061174857607f821691505b60208210810361176857634e487b7160e01b600052602260045260246000fd5b50919050565b60208082526028908201527f4d61696e7461696e61626c653a2043616c6c6572206973206e6f742061206d6160408201526734b73a30b4b732b960c11b606082015260800190565b6000602082840312156117c857600080fd5b5051919050565b634e487b7160e01b600052601160045260246000fd5b81810381811115610482576104826117cf565b6000825161180a81846020870161157a565b9190910192915050565b60006020828403121561182657600080fd5b81518015158114610ad257600080fd5b7f416363657373436f6e74726f6c3a206163636f756e742000000000000000000081526000835161186e81601785016020880161157a565b7001034b99036b4b9b9b4b733903937b6329607d1b601791840191820152835161189f81602884016020880161157a565b01602801949350505050565b8082028115828204841417610482576104826117cf565b6000826118df57634e487b7160e01b600052601260045260246000fd5b500490565b80820180821115610482576104826117cf565b634e487b7160e01b600052604160045260246000fd5b634e487b7160e01b600052603260045260246000fd5b600081611932576119326117cf565b50600019019056fe339759585899103d2ace64958e37e18ccb0504652c81d4a1b8aa80fe2126ab95a2646970667358221220fecfc121de6ad73ac3acfab4cee1ed9cbe3779812bb29df83f3fa34f95d43f8964736f6c63430008110033",
    "linkReferences": {}
  },
  "methodIdentifiers": {
    "DEFAULT_ADMIN_ROLE()": "a217fddf",
    "JOE()": "ffebad30",
    "MAINTAINER_ROLE()": "f8742254",
    "XJOE()": "1e1c1f77",
    "addMaintainer(address)": "6b453c1f",
    "getRoleAdmin(bytes32)": "248a9ca3",
    "grantRole(bytes32,address)": "2f2ff15d",
    "hasRole(bytes32,address)": "91d14854",
    "name()": "06fdde03",
    "query(uint256,address,address)": "ef99893a",
    "recoverAVAX(uint256)": "4ebb7916",
    "recoverERC20(address,uint256)": "8980f11f",
    "removeMaintainer(address)": "d8baf7cf",
    "renounceRole(bytes32)": "8bb9c5bf",
    "renounceRole(bytes32,address)": "36568abe",
    "revokeAllowance(address,address)": "7ae26773",
    "revokeRole(bytes32,address)": "d547741f",
    "setSwapGasEstimate(uint256)": "84a33e63",
    "supportsInterface(bytes4)": "01ffc9a7",
    "swap(uint256,uint256,address,address,address)": "eab90da6",
    "swapGasEstimate()": "69cff80d",
    "transferOwnership(address)": "f2fde38b"
  },
  "id": 41
}