{
  "address": "0x784E00Cd961a994eff675E889AF6CA564689BF39",
  "abi": [
    {
      "inputs": [
        {
          "internalType": "string",
          "name": "_name",
          "type": "string"
        },
        {
          "internalType": "address",
          "name": "_pool",
          "type": "address"
        },
        {
          "internalType": "uint256",
          "name": "_swapGasEstimate",
          "type": "uint256"
        }
      ],
      "stateMutability": "nonpayable",
      "type": "constructor"
    },
    {
      "anonymous": false,
      "inputs": [
        {
          "indexed": true,
          "internalType": "address",
          "name": "_asset",
          "type": "address"
        },
        {
          "indexed": false,
          "internalType": "uint256",
          "name": "amount",
          "type": "uint256"
        }
      ],
      "name": "Recovered",
      "type": "event"
    },
    {
      "anonymous": false,
      "inputs": [
        {
          "indexed": true,
          "internalType": "bytes32",
          "name": "role",
          "type": "bytes32"
        },
        {
          "indexed": true,
          "internalType": "bytes32",
          "name": "previousAdminRole",
          "type": "bytes32"
        },
        {
          "indexed": true,
          "internalType": "bytes32",
          "name": "newAdminRole",
          "type": "bytes32"
        }
      ],
      "name": "RoleAdminChanged",
      "type": "event"
    },
    {
      "anonymous": false,
      "inputs": [
        {
          "indexed": true,
          "internalType": "bytes32",
          "name": "role",
          "type": "bytes32"
        },
        {
          "indexed": true,
          "internalType": "address",
          "name": "account",
          "type": "address"
        },
        {
          "indexed": true,
          "internalType": "address",
          "name": "sender",
          "type": "address"
        }
      ],
      "name": "RoleGranted",
      "type": "event"
    },
    {
      "anonymous": false,
      "inputs": [
        {
          "indexed": true,
          "internalType": "bytes32",
          "name": "role",
          "type": "bytes32"
        },
        {
          "indexed": true,
          "internalType": "address",
          "name": "account",
          "type": "address"
        },
        {
          "indexed": true,
          "internalType": "address",
          "name": "sender",
          "type": "address"
        }
      ],
      "name": "RoleRevoked",
      "type": "event"
    },
    {
      "anonymous": false,
      "inputs": [
        {
          "indexed": true,
          "internalType": "address",
          "name": "_adapter",
          "type": "address"
        },
        {
          "indexed": false,
          "internalType": "uint256",
          "name": "_newEstimate",
          "type": "uint256"
        }
      ],
      "name": "UpdatedGasEstimate",
      "type": "event"
    },
    {
      "anonymous": false,
      "inputs": [
        {
          "indexed": true,
          "internalType": "address",
          "name": "_tokenFrom",
          "type": "address"
        },
        {
          "indexed": true,
          "internalType": "address",
          "name": "_tokenTo",
          "type": "address"
        },
        {
          "indexed": false,
          "internalType": "uint256",
          "name": "_amountIn",
          "type": "uint256"
        },
        {
          "indexed": false,
          "internalType": "uint256",
          "name": "_amountOut",
          "type": "uint256"
        }
      ],
      "name": "YakAdapterSwap",
      "type": "event"
    },
    {
      "inputs": [],
      "name": "DEFAULT_ADMIN_ROLE",
      "outputs": [
        {
          "internalType": "bytes32",
          "name": "",
          "type": "bytes32"
        }
      ],
      "stateMutability": "view",
      "type": "function"
    },
    {
      "inputs": [],
      "name": "MAINTAINER_ROLE",
      "outputs": [
        {
          "internalType": "bytes32",
          "name": "",
          "type": "bytes32"
        }
      ],
      "stateMutability": "view",
      "type": "function"
    },
    {
      "inputs": [],
      "name": "META_COIN",
      "outputs": [
        {
          "internalType": "address",
          "name": "",
          "type": "address"
        }
      ],
      "stateMutability": "view",
      "type": "function"
    },
    {
      "inputs": [],
      "name": "POOL",
      "outputs": [
        {
          "internalType": "address",
          "name": "",
          "type": "address"
        }
      ],
      "stateMutability": "view",
      "type": "function"
    },
    {
      "inputs": [
        {
          "internalType": "address",
          "name": "addedMaintainer",
          "type": "address"
        }
      ],
      "name": "addMaintainer",
      "outputs": [],
      "stateMutability": "nonpayable",
      "type": "function"
    },
    {
      "inputs": [
        {
          "internalType": "bytes32",
          "name": "role",
          "type": "bytes32"
        }
      ],
      "name": "getRoleAdmin",
      "outputs": [
        {
          "internalType": "bytes32",
          "name": "",
          "type": "bytes32"
        }
      ],
      "stateMutability": "view",
      "type": "function"
    },
    {
      "inputs": [
        {
          "internalType": "bytes32",
          "name": "role",
          "type": "bytes32"
        },
        {
          "internalType": "address",
          "name": "account",
          "type": "address"
        }
      ],
      "name": "grantRole",
      "outputs": [],
      "stateMutability": "nonpayable",
      "type": "function"
    },
    {
      "inputs": [
        {
          "internalType": "bytes32",
          "name": "role",
          "type": "bytes32"
        },
        {
          "internalType": "address",
          "name": "account",
          "type": "address"
        }
      ],
      "name": "hasRole",
      "outputs": [
        {
          "internalType": "bool",
          "name": "",
          "type": "bool"
        }
      ],
      "stateMutability": "view",
      "type": "function"
    },
    {
      "inputs": [
        {
          "internalType": "address",
          "name": "",
          "type": "address"
        }
      ],
      "name": "isPoolToken",
      "outputs": [
        {
          "internalType": "bool",
          "name": "",
          "type": "bool"
        }
      ],
      "stateMutability": "view",
      "type": "function"
    },
    {
      "inputs": [],
      "name": "name",
      "outputs": [
        {
          "internalType": "string",
          "name": "",
          "type": "string"
        }
      ],
      "stateMutability": "view",
      "type": "function"
    },
    {
      "inputs": [
        {
          "internalType": "uint256",
          "name": "_amountIn",
          "type": "uint256"
        },
        {
          "internalType": "address",
          "name": "_tokenIn",
          "type": "address"
        },
        {
          "internalType": "address",
          "name": "_tokenOut",
          "type": "address"
        }
      ],
      "name": "query",
      "outputs": [
        {
          "internalType": "uint256",
          "name": "",
          "type": "uint256"
        }
      ],
      "stateMutability": "view",
      "type": "function"
    },
    {
      "inputs": [
        {
          "internalType": "uint256",
          "name": "_amount",
          "type": "uint256"
        }
      ],
      "name": "recoverAVAX",
      "outputs": [],
      "stateMutability": "nonpayable",
      "type": "function"
    },
    {
      "inputs": [
        {
          "internalType": "address",
          "name": "_tokenAddress",
          "type": "address"
        },
        {
          "internalType": "uint256",
          "name": "_tokenAmount",
          "type": "uint256"
        }
      ],
      "name": "recoverERC20",
      "outputs": [],
      "stateMutability": "nonpayable",
      "type": "function"
    },
    {
      "inputs": [
        {
          "internalType": "address",
          "name": "removedMaintainer",
          "type": "address"
        }
      ],
      "name": "removeMaintainer",
      "outputs": [],
      "stateMutability": "nonpayable",
      "type": "function"
    },
    {
      "inputs": [
        {
          "internalType": "bytes32",
          "name": "role",
          "type": "bytes32"
        },
        {
          "internalType": "address",
          "name": "account",
          "type": "address"
        }
      ],
      "name": "renounceRole",
      "outputs": [],
      "stateMutability": "nonpayable",
      "type": "function"
    },
    {
      "inputs": [
        {
          "internalType": "bytes32",
          "name": "role",
          "type": "bytes32"
        }
      ],
      "name": "renounceRole",
      "outputs": [],
      "stateMutability": "nonpayable",
      "type": "function"
    },
    {
      "inputs": [
        {
          "internalType": "address",
          "name": "_token",
          "type": "address"
        },
        {
          "internalType": "address",
          "name": "_spender",
          "type": "address"
        }
      ],
      "name": "revokeAllowance",
      "outputs": [],
      "stateMutability": "nonpayable",
      "type": "function"
    },
    {
      "inputs": [
        {
          "internalType": "bytes32",
          "name": "role",
          "type": "bytes32"
        },
        {
          "internalType": "address",
          "name": "account",
          "type": "address"
        }
      ],
      "name": "revokeRole",
      "outputs": [],
      "stateMutability": "nonpayable",
      "type": "function"
    },
    {
      "inputs": [
        {
          "internalType": "uint256",
          "name": "_estimate",
          "type": "uint256"
        }
      ],
      "name": "setSwapGasEstimate",
      "outputs": [],
      "stateMutability": "nonpayable",
      "type": "function"
    },
    {
      "inputs": [
        {
          "internalType": "bytes4",
          "name": "interfaceId",
          "type": "bytes4"
        }
      ],
      "name": "supportsInterface",
      "outputs": [
        {
          "internalType": "bool",
          "name": "",
          "type": "bool"
        }
      ],
      "stateMutability": "view",
      "type": "function"
    },
    {
      "inputs": [
        {
          "internalType": "uint256",
          "name": "_amountIn",
          "type": "uint256"
        },
        {
          "internalType": "uint256",
          "name": "_amountOut",
          "type": "uint256"
        },
        {
          "internalType": "address",
          "name": "_fromToken",
          "type": "address"
        },
        {
          "internalType": "address",
          "name": "_toToken",
          "type": "address"
        },
        {
          "internalType": "address",
          "name": "_to",
          "type": "address"
        }
      ],
      "name": "swap",
      "outputs": [],
      "stateMutability": "nonpayable",
      "type": "function"
    },
    {
      "inputs": [],
      "name": "swapGasEstimate",
      "outputs": [
        {
          "internalType": "uint256",
          "name": "",
          "type": "uint256"
        }
      ],
      "stateMutability": "view",
      "type": "function"
    },
    {
      "inputs": [
        {
          "internalType": "address",
          "name": "",
          "type": "address"
        }
      ],
      "name": "tokenIndex",
      "outputs": [
        {
          "internalType": "int128",
          "name": "",
          "type": "int128"
        }
      ],
      "stateMutability": "view",
      "type": "function"
    },
    {
      "inputs": [
        {
          "internalType": "address",
          "name": "newOwner",
          "type": "address"
        }
      ],
      "name": "transferOwnership",
      "outputs": [],
      "stateMutability": "nonpayable",
      "type": "function"
    },
    {
      "stateMutability": "payable",
      "type": "receive"
    }
  ],
  "transactionHash": "0x55e1ab74e48eb3649bda40c4f7229471109d3d30709630e45c4cd65489220368",
  "args": [
    "CurveMetaSUSDCRVAdapter",
    "0x061b87122Ed14b9526A813209C8a59a633257bAb",
    480000
  ],
  "solcInputHash": "bb2e2939db1cde18a37f845655f44c85",
  "bytecode": "0x60c06040523480156200001157600080fd5b5060405162002836380380620028368339810160408190526200003491620007d8565b8281600062000042620000d3565b905062000051600082620000d7565b6200006c6000805160206200281683398151915282620000d7565b506200007882620000e7565b620000838162000126565b50600090506200009383620001d3565b9050620000a38382600062000260565b620000ae83620002da565b6001600160601b0319606091821b811660805292901b90911660a0525062000bb59050565b3390565b620000e38282620003bd565b5050565b8051620001115760405162461bcd60e51b8152600401620001089062000993565b60405180910390fd5b8051620000e3906002906020840190620006d4565b600062000132620000d3565b90506200014f600080516020620028168339815191528262000447565b6200016e5760405162461bcd60e51b8152600401620001089062000916565b816200018e5760405162461bcd60e51b81526004016200010890620009ca565b600182905560405130907ff43f23b7a28e6f8ce6843a21bd7b48bce778aa913b8c8cf459edf7d770e8d38a90620001c79085906200090d565b60405180910390a25050565b60405163c661065760e01b81526000906001600160a01b0383169063c661065790620002049084906004016200090d565b60206040518083038186803b1580156200021d57600080fd5b505afa15801562000232573d6000803e3d6000fd5b505050506040513d601f19601f8201168201806040525081019062000258919062000792565b90505b919050565b6200028783600019846001600160a01b03166200047260201b62000bd8179092919060201c565b6001600160a01b0390911660009081526003602090815260408083208054600f9590950b6001600160801b03166001600160801b0319909516949094179093556004905220805460ff1916600117905550565b60405163c661065760e01b81526000906001600160a01b0383169063c6610657906200030c906001906004016200090d565b60206040518083038186803b1580156200032557600080fd5b505afa1580156200033a573d6000803e3d6000fd5b505050506040513d601f19601f8201168201806040525081019062000360919062000792565b905060005b60006200037383836200057b565b90506001600160a01b0381166200038b5750620003b8565b620003a484826200039e85600162000aa8565b62000260565b50620003b08162000b6b565b905062000365565b505050565b620003c9828262000447565b620000e3576000828152602081815260408083206001600160a01b03851684529091529020805460ff1916600117905562000403620000d3565b6001600160a01b0316816001600160a01b0316837f2f8788117e7eff1d82e926ec794901d17c78024a50270940304540a733656f0d60405160405180910390a45050565b6000828152602081815260408083206001600160a01b038516845290915290205460ff165b92915050565b801580620005015750604051636eb1769f60e11b81526001600160a01b0384169063dd62ed3e90620004ab9030908690600401620008da565b60206040518083038186803b158015620004c457600080fd5b505afa158015620004d9573d6000803e3d6000fd5b505050506040513d601f19601f82011682018060405250810190620004ff9190620008a3565b155b620005205760405162461bcd60e51b8152600401620001089062000a4b565b620003b88363095ea7b360e01b848460405160240162000542929190620008f4565b60408051808303601f190181529190526020810180516001600160e01b0319939093166001600160e01b03938416179052906200060b16565b60405163c661065760e01b81526000906001600160a01b0384169063c661065790620005ac9085906004016200090d565b60206040518083038186803b158015620005c557600080fd5b505afa925050508015620005f8575060408051601f3d908101601f19168201909252620005f59181019062000792565b60015b62000603576200046c565b90506200046c565b600080836001600160a01b031683604051620006289190620008bc565b6000604051808303816000865af19150503d806000811462000667576040519150601f19603f3d011682016040523d82523d6000602084013e6200066c565b606091505b509150915081620006915760405162461bcd60e51b815260040162000108906200095e565b805115620006ce5780806020019051810190620006af9190620007b6565b620006ce5760405162461bcd60e51b8152600401620001089062000a01565b50505050565b828054620006e29062000b2e565b90600052602060002090601f01602090048101928262000706576000855562000751565b82601f106200072157805160ff191683800117855562000751565b8280016001018555821562000751579182015b828111156200075157825182559160200191906001019062000734565b506200075f92915062000763565b5090565b5b808211156200075f576000815560010162000764565b80516001600160a01b03811681146200025b57600080fd5b600060208284031215620007a4578081fd5b620007af826200077a565b9392505050565b600060208284031215620007c8578081fd5b81518015158114620007af578182fd5b600080600060608486031215620007ed578182fd5b83516001600160401b038082111562000804578384fd5b818601915086601f83011262000818578384fd5b8151818111156200082d576200082d62000b9f565b604051601f8201601f19168101602001838111828210171562000854576200085462000b9f565b6040528181528382016020018910156200086c578586fd5b6200087f82602083016020870162000aff565b95506200089392505050602085016200077a565b9150604084015190509250925092565b600060208284031215620008b5578081fd5b5051919050565b60008251620008d081846020870162000aff565b9190910192915050565b6001600160a01b0392831681529116602082015260400190565b6001600160a01b03929092168252602082015260400190565b90815260200190565b60208082526028908201527f4d61696e7461696e61626c653a2043616c6c6572206973206e6f742061206d6160408201526734b73a30b4b732b960c11b606082015260800190565b6020808252818101527f5361666545524332303a206c6f772d6c6576656c2063616c6c206661696c6564604082015260600190565b60208082526014908201527f496e76616c69642061646170746572206e616d65000000000000000000000000604082015260600190565b60208082526014908201527f496e76616c6964206761732d657374696d617465000000000000000000000000604082015260600190565b6020808252602a908201527f5361666545524332303a204552433230206f7065726174696f6e20646964206e6040820152691bdd081cdd58d8d9595960b21b606082015260800190565b60208082526036908201527f5361666545524332303a20617070726f76652066726f6d206e6f6e2d7a65726f60408201527f20746f206e6f6e2d7a65726f20616c6c6f77616e636500000000000000000000606082015260800190565b6000600f82810b9084900b828212801560016001607f1b038490038313161562000ad65762000ad662000b89565b60016001607f1b0319839003821281161562000af65762000af662000b89565b50019392505050565b60005b8381101562000b1c57818101518382015260200162000b02565b83811115620006ce5750506000910152565b60028104600182168062000b4357607f821691505b6020821081141562000b6557634e487b7160e01b600052602260045260246000fd5b50919050565b600060001982141562000b825762000b8262000b89565b5060010190565b634e487b7160e01b600052601160045260246000fd5b634e487b7160e01b600052604160045260246000fd5b60805160601c60a05160601c611c1962000bfd6000396000818161075201528181610eba01526111d10152600081816106fb0152818161146601526114c50152611c196000f3fe60806040526004361061018f5760003560e01c806384a33e63116100d6578063d8baf7cf1161007f578063ef99893a11610059578063ef99893a14610450578063f2fde38b14610470578063f87422541461049057610196565b8063d8baf7cf146103f0578063de260f3714610410578063eab90da61461043057610196565b806391d14854116100b057806391d148541461039b578063a217fddf146103bb578063d547741f146103d057610196565b806384a33e631461033b5780638980f11f1461035b5780638bb9c5bf1461037b57610196565b80634ebb7916116101385780636b453c1f116101125780636b453c1f146102e65780637535d246146103065780637ae267731461031b57610196565b80634ebb79161461028f578063525d2c72146102af57806369cff80d146102d157610196565b80632f2ff15d116101695780632f2ff15d1461022057806336568abe14610242578063427f91a61461026257610196565b806301ffc9a71461019b57806306fdde03146101d1578063248a9ca3146101f357610196565b3661019657005b600080fd5b3480156101a757600080fd5b506101bb6101b6366004611605565b6104a5565b6040516101c891906117ba565b60405180910390f35b3480156101dd57600080fd5b506101e66104eb565b6040516101c8919061181d565b3480156101ff57600080fd5b5061021361020e3660046115cb565b610579565b6040516101c891906117c5565b34801561022c57600080fd5b5061024061023b3660046115e3565b61058e565b005b34801561024e57600080fd5b5061024061025d3660046115e3565b6105af565b34801561026e57600080fd5b5061028261027d366004611536565b6105fe565b6040516101c891906117ce565b34801561029b57600080fd5b506102406102aa3660046115cb565b610613565b3480156102bb57600080fd5b506102c46106f9565b6040516101c89190611773565b3480156102dd57600080fd5b5061021361071d565b3480156102f257600080fd5b50610240610301366004611536565b610723565b34801561031257600080fd5b506102c4610750565b34801561032757600080fd5b50610240610336366004611550565b610774565b34801561034757600080fd5b506102406103563660046115cb565b6107db565b34801561036757600080fd5b50610240610376366004611582565b610881565b34801561038757600080fd5b506102406103963660046115cb565b61094d565b3480156103a757600080fd5b506101bb6103b63660046115e3565b610963565b3480156103c757600080fd5b5061021361098c565b3480156103dc57600080fd5b506102406103eb3660046115e3565b610991565b3480156103fc57600080fd5b5061024061040b366004611536565b6109ad565b34801561041c57600080fd5b506101bb61042b366004611536565b6109d7565b34801561043c57600080fd5b5061024061044b366004611680565b6109ec565b34801561045c57600080fd5b5061021361046b366004611645565b610b7b565b34801561047c57600080fd5b5061024061048b366004611536565b610b92565b34801561049c57600080fd5b50610213610bb4565b60006001600160e01b031982167f7965db0b0000000000000000000000000000000000000000000000000000000014806104e357506104e382610d00565b90505b919050565b600280546104f890611b92565b80601f016020809104026020016040519081016040528092919081815260200182805461052490611b92565b80156105715780601f1061054657610100808354040283529160200191610571565b820191906000526020600020905b81548152906001019060200180831161055457829003601f168201915b505050505081565b60009081526020819052604090206001015490565b61059782610579565b6105a081610d32565b6105aa8383610d43565b505050565b6105b7610dc8565b6001600160a01b0316816001600160a01b0316146105f05760405162461bcd60e51b81526004016105e790611a76565b60405180910390fd5b6105fa8282610dcc565b5050565b600360205260009081526040902054600f0b81565b600061061d610dc8565b90506106497f339759585899103d2ace64958e37e18ccb0504652c81d4a1b8aa80fe2126ab9582610963565b6106655760405162461bcd60e51b81526004016105e7906118bc565b600082116106855760405162461bcd60e51b81526004016105e790611919565b604051339083156108fc029084906000818181858888f193505050501580156106b2573d6000803e3d6000fd5b5060006001600160a01b03167f8c1256b8896378cd5044f80c202f9772b9d77dc85c8a6eb51967210b09bfaa28836040516106ed91906117c5565b60405180910390a25050565b7f000000000000000000000000000000000000000000000000000000000000000081565b60015481565b61074d7f339759585899103d2ace64958e37e18ccb0504652c81d4a1b8aa80fe2126ab958261058e565b50565b7f000000000000000000000000000000000000000000000000000000000000000081565b600061077e610dc8565b90506107aa7f339759585899103d2ace64958e37e18ccb0504652c81d4a1b8aa80fe2126ab9582610963565b6107c65760405162461bcd60e51b81526004016105e7906118bc565b6105aa6001600160a01b038416836000610bd8565b60006107e5610dc8565b90506108117f339759585899103d2ace64958e37e18ccb0504652c81d4a1b8aa80fe2126ab9582610963565b61082d5760405162461bcd60e51b81526004016105e7906118bc565b8161084a5760405162461bcd60e51b81526004016105e790611985565b600182905560405130907ff43f23b7a28e6f8ce6843a21bd7b48bce778aa913b8c8cf459edf7d770e8d38a906106ed9085906117c5565b600061088b610dc8565b90506108b77f339759585899103d2ace64958e37e18ccb0504652c81d4a1b8aa80fe2126ab9582610963565b6108d35760405162461bcd60e51b81526004016105e7906118bc565b600082116108f35760405162461bcd60e51b81526004016105e790611919565b6109076001600160a01b0384163384610e4f565b826001600160a01b03167f8c1256b8896378cd5044f80c202f9772b9d77dc85c8a6eb51967210b09bfaa288360405161094091906117c5565b60405180910390a2505050565b6000610957610dc8565b90506105fa82826105af565b6000918252602082815260408084206001600160a01b0393909316845291905290205460ff1690565b600081565b61099a82610579565b6109a381610d32565b6105aa8383610dcc565b61074d7f339759585899103d2ace64958e37e18ccb0504652c81d4a1b8aa80fe2126ab9582610991565b60046020526000908152604090205460ff1681565b6040516370a0823160e01b81526000906001600160a01b038416906370a0823190610a1b908590600401611773565b60206040518083038186803b158015610a3357600080fd5b505afa158015610a47573d6000803e3d6000fd5b505050506040513d601f19601f82011682018060405250810190610a6b919061162d565b9050610a7a8686868686610e6e565b600081846001600160a01b03166370a08231856040518263ffffffff1660e01b8152600401610aa99190611773565b60206040518083038186803b158015610ac157600080fd5b505afa158015610ad5573d6000803e3d6000fd5b505050506040513d601f19601f82011682018060405250810190610af9919061162d565b610b039190611b38565b905085811015610b255760405162461bcd60e51b81526004016105e790611850565b836001600160a01b0316856001600160a01b03167fe2bdbc6b7225eb0a972ac943c485a6cc05f7c6811838bce8903f23200fb744fa8989604051610b6a929190611ad3565b60405180910390a350505050505050565b6000610b88848484610fc2565b90505b9392505050565b6000610b9c610dc8565b9050610ba960008361058e565b6105fa6000826105af565b7f339759585899103d2ace64958e37e18ccb0504652c81d4a1b8aa80fe2126ab9581565b801580610c7957506040517fdd62ed3e0000000000000000000000000000000000000000000000000000000081526001600160a01b0384169063dd62ed3e90610c279030908690600401611787565b60206040518083038186803b158015610c3f57600080fd5b505afa158015610c53573d6000803e3d6000fd5b505050506040513d601f19601f82011682018060405250810190610c77919061162d565b155b610c955760405162461bcd60e51b81526004016105e790611a19565b6105aa8363095ea7b360e01b8484604051602401610cb49291906117a1565b60408051601f198184030181529190526020810180517bffffffffffffffffffffffffffffffffffffffffffffffffffffffff166001600160e01b03199093169290921790915261100c565b6001600160e01b031981167f01ffc9a70000000000000000000000000000000000000000000000000000000014919050565b61074d81610d3e610dc8565b6110c8565b610d4d8282610963565b6105fa576000828152602081815260408083206001600160a01b03851684529091529020805460ff19166001179055610d84610dc8565b6001600160a01b0316816001600160a01b0316837f2f8788117e7eff1d82e926ec794901d17c78024a50270940304540a733656f0d60405160405180910390a45050565b3390565b610dd68282610963565b156105fa576000828152602081815260408083206001600160a01b03851684529091529020805460ff19169055610e0b610dc8565b6001600160a01b0316816001600160a01b0316837ff6391f5c32d9c69d2a47ea670b442974b53935d1edc7fd64eb21e047a839171b60405160405180910390a45050565b6105aa8363a9059cbb60e01b8484604051602401610cb49291906117a1565b6001600160a01b03838116600090815260036020526040808220548584168352918190205490517fa6417ed60000000000000000000000000000000000000000000000000000000081527f00000000000000000000000000000000000000000000000000000000000000009093169263a6417ed692610efc92600f91820b92910b908a908a906004016117fa565b600060405180830381600087803b158015610f1657600080fd5b505af1158015610f2a573d6000803e3d6000fd5b50506040516370a0823160e01b8152600092506001600160a01b03851691506370a0823190610f5d903090600401611773565b60206040518083038186803b158015610f7557600080fd5b505afa158015610f89573d6000803e3d6000fd5b505050506040513d601f19601f82011682018060405250810190610fad919061162d565b9050610fba83828461112c565b505050505050565b6000610fcf848484611150565b610fdb57506000610b8b565b6000610fe8858585611184565b9050612710610ff98261270f611b19565b6110039190611af9565b95945050505050565b600080836001600160a01b03168360405161102791906116d6565b6000604051808303816000865af19150503d8060008114611064576040519150601f19603f3d011682016040523d82523d6000602084013e611069565b606091505b50915091508161108b5760405162461bcd60e51b81526004016105e790611950565b8051156110c257808060200190518101906110a691906115ab565b6110c25760405162461bcd60e51b81526004016105e7906119bc565b50505050565b6110d28282610963565b6105fa576110ea816001600160a01b0316601461126b565b6110f583602061126b565b6040516020016111069291906116f2565b60408051601f198184030181529082905262461bcd60e51b82526105e79160040161181d565b306001600160a01b038216146105aa576105aa6001600160a01b0384168284610e4f565b600083158015906111735750816001600160a01b0316836001600160a01b031614155b8015610b885750610b888383611462565b6001600160a01b038281166000908152600360205260408082205484841683528183205491517f07211ef700000000000000000000000000000000000000000000000000000000815292937f000000000000000000000000000000000000000000000000000000000000000016926307211ef79261121092600f90810b9291900b9089906004016117dc565b60206040518083038186803b15801561122857600080fd5b505afa925050508015611258575060408051601f3d908101601f191682019092526112559181019061162d565b60015b61126457506000610b8b565b9050610b8b565b6060600061127a836002611b19565b611285906002611ae1565b67ffffffffffffffff8111156112ab57634e487b7160e01b600052604160045260246000fd5b6040519080825280601f01601f1916602001820160405280156112d5576020820181803683370190505b5090507f30000000000000000000000000000000000000000000000000000000000000008160008151811061131a57634e487b7160e01b600052603260045260246000fd5b60200101906001600160f81b031916908160001a9053507f78000000000000000000000000000000000000000000000000000000000000008160018151811061137357634e487b7160e01b600052603260045260246000fd5b60200101906001600160f81b031916908160001a9053506000611397846002611b19565b6113a2906001611ae1565b90505b6001811115611443577f303132333435363738396162636465660000000000000000000000000000000085600f16601081106113f157634e487b7160e01b600052603260045260246000fd5b1a60f81b82828151811061141557634e487b7160e01b600052603260045260246000fd5b60200101906001600160f81b031916908160001a90535060049490941c9361143c81611b7b565b90506113a5565b508315610b8b5760405162461bcd60e51b81526004016105e790611887565b60007f00000000000000000000000000000000000000000000000000000000000000006001600160a01b0316836001600160a01b03161480156114bd57506001600160a01b03821660009081526004602052604090205460ff165b80610b8b57507f00000000000000000000000000000000000000000000000000000000000000006001600160a01b0316826001600160a01b0316148015610b8b575050506001600160a01b031660009081526004602052604090205460ff1690565b80356001600160a01b03811681146104e657600080fd5b600060208284031215611547578081fd5b610b8b8261151f565b60008060408385031215611562578081fd5b61156b8361151f565b91506115796020840161151f565b90509250929050565b60008060408385031215611594578182fd5b61159d8361151f565b946020939093013593505050565b6000602082840312156115bc578081fd5b81518015158114610b8b578182fd5b6000602082840312156115dc578081fd5b5035919050565b600080604083850312156115f5578182fd5b823591506115796020840161151f565b600060208284031215611616578081fd5b81356001600160e01b031981168114610b8b578182fd5b60006020828403121561163e578081fd5b5051919050565b600080600060608486031215611659578081fd5b833592506116696020850161151f565b91506116776040850161151f565b90509250925092565b600080600080600060a08688031215611697578081fd5b85359450602086013593506116ae6040870161151f565b92506116bc6060870161151f565b91506116ca6080870161151f565b90509295509295909350565b600082516116e8818460208701611b4f565b9190910192915050565b60007f416363657373436f6e74726f6c3a206163636f756e74200000000000000000008252835161172a816017850160208801611b4f565b7f206973206d697373696e6720726f6c65200000000000000000000000000000006017918401918201528351611767816028840160208801611b4f565b01602801949350505050565b6001600160a01b0391909116815260200190565b6001600160a01b0392831681529116602082015260400190565b6001600160a01b03929092168252602082015260400190565b901515815260200190565b90815260200190565b600f9190910b815260200190565b600f93840b81529190920b6020820152604081019190915260600190565b600f94850b81529290930b60208301526040820152606081019190915260800190565b600060208252825180602084015261183c816040850160208701611b4f565b601f01601f19169190910160400192915050565b60208082526017908201527f496e73756666696369656e7420616d6f756e742d6f7574000000000000000000604082015260600190565b6020808252818101527f537472696e67733a20686578206c656e67746820696e73756666696369656e74604082015260600190565b60208082526028908201527f4d61696e7461696e61626c653a2043616c6c6572206973206e6f742061206d6160408201527f696e7461696e6572000000000000000000000000000000000000000000000000606082015260800190565b6020808252601e908201527f59616b416461707465723a204e6f7468696e6720746f207265636f7665720000604082015260600190565b6020808252818101527f5361666545524332303a206c6f772d6c6576656c2063616c6c206661696c6564604082015260600190565b60208082526014908201527f496e76616c6964206761732d657374696d617465000000000000000000000000604082015260600190565b6020808252602a908201527f5361666545524332303a204552433230206f7065726174696f6e20646964206e60408201527f6f74207375636365656400000000000000000000000000000000000000000000606082015260800190565b60208082526036908201527f5361666545524332303a20617070726f76652066726f6d206e6f6e2d7a65726f60408201527f20746f206e6f6e2d7a65726f20616c6c6f77616e636500000000000000000000606082015260800190565b6020808252602f908201527f416363657373436f6e74726f6c3a2063616e206f6e6c792072656e6f756e636560408201527f20726f6c657320666f722073656c660000000000000000000000000000000000606082015260800190565b918252602082015260400190565b60008219821115611af457611af4611bcd565b500190565b600082611b1457634e487b7160e01b81526012600452602481fd5b500490565b6000816000190483118215151615611b3357611b33611bcd565b500290565b600082821015611b4a57611b4a611bcd565b500390565b60005b83811015611b6a578181015183820152602001611b52565b838111156110c25750506000910152565b600081611b8a57611b8a611bcd565b506000190190565b600281046001821680611ba657607f821691505b60208210811415611bc757634e487b7160e01b600052602260045260246000fd5b50919050565b634e487b7160e01b600052601160045260246000fdfea26469706673582212200413c05599b34711ef346175a725e8f2937c76c128c6d9ee2176e7d6640b26b364736f6c63430008000033339759585899103d2ace64958e37e18ccb0504652c81d4a1b8aa80fe2126ab95",
  "devdoc": {
    "kind": "dev",
    "methods": {
      "getRoleAdmin(bytes32)": {
        "details": "Returns the admin role that controls `role`. See {grantRole} and {revokeRole}. To change a role's admin, use {_setRoleAdmin}."
      },
      "grantRole(bytes32,address)": {
        "details": "Grants `role` to `account`. If `account` had not been already granted `role`, emits a {RoleGranted} event. Requirements: - the caller must have ``role``'s admin role. May emit a {RoleGranted} event."
      },
      "hasRole(bytes32,address)": {
        "details": "Returns `true` if `account` has been granted `role`."
      },
      "renounceRole(bytes32,address)": {
        "details": "Revokes `role` from the calling account. Roles are often managed via {grantRole} and {revokeRole}: this function's purpose is to provide a mechanism for accounts to lose their privileges if they are compromised (such as when a trusted device is misplaced). If the calling account had been revoked `role`, emits a {RoleRevoked} event. Requirements: - the caller must be `account`. May emit a {RoleRevoked} event."
      },
      "revokeRole(bytes32,address)": {
        "details": "Revokes `role` from `account`. If `account` had been granted `role`, emits a {RoleRevoked} event. Requirements: - the caller must have ``role``'s admin role. May emit a {RoleRevoked} event."
      },
      "supportsInterface(bytes4)": {
        "details": "See {IERC165-supportsInterface}."
      }
    },
    "version": 1
  },
  "userdoc": {
    "kind": "user",
    "methods": {},
    "version": 1
  },
  "storageLayout": {
    "storage": [
      {
        "astId": 24,
        "contract": "src/contracts/adapters/CurveMetaV2Adapter.sol:CurveMetaV2Adapter",
        "label": "_roles",
        "offset": 0,
        "slot": "0",
        "type": "t_mapping(t_bytes32,t_struct(RoleData)19_storage)"
      },
      {
        "astId": 1451,
        "contract": "src/contracts/adapters/CurveMetaV2Adapter.sol:CurveMetaV2Adapter",
        "label": "swapGasEstimate",
        "offset": 0,
        "slot": "1",
        "type": "t_uint256"
      },
      {
        "astId": 1453,
        "contract": "src/contracts/adapters/CurveMetaV2Adapter.sol:CurveMetaV2Adapter",
        "label": "name",
        "offset": 0,
        "slot": "2",
        "type": "t_string_storage"
      },
      {
        "astId": 5651,
        "contract": "src/contracts/adapters/CurveMetaV2Adapter.sol:CurveMetaV2Adapter",
        "label": "tokenIndex",
        "offset": 0,
        "slot": "3",
        "type": "t_mapping(t_address,t_int128)"
      },
      {
        "astId": 5655,
        "contract": "src/contracts/adapters/CurveMetaV2Adapter.sol:CurveMetaV2Adapter",
        "label": "isPoolToken",
        "offset": 0,
        "slot": "4",
        "type": "t_mapping(t_address,t_bool)"
      }
    ],
    "types": {
      "t_address": {
        "encoding": "inplace",
        "label": "address",
        "numberOfBytes": "20"
      },
      "t_bool": {
        "encoding": "inplace",
        "label": "bool",
        "numberOfBytes": "1"
      },
      "t_bytes32": {
        "encoding": "inplace",
        "label": "bytes32",
        "numberOfBytes": "32"
      },
      "t_int128": {
        "encoding": "inplace",
        "label": "int128",
        "numberOfBytes": "16"
      },
      "t_mapping(t_address,t_bool)": {
        "encoding": "mapping",
        "key": "t_address",
        "label": "mapping(address => bool)",
        "numberOfBytes": "32",
        "value": "t_bool"
      },
      "t_mapping(t_address,t_int128)": {
        "encoding": "mapping",
        "key": "t_address",
        "label": "mapping(address => int128)",
        "numberOfBytes": "32",
        "value": "t_int128"
      },
      "t_mapping(t_bytes32,t_struct(RoleData)19_storage)": {
        "encoding": "mapping",
        "key": "t_bytes32",
        "label": "mapping(bytes32 => struct AccessControl.RoleData)",
        "numberOfBytes": "32",
        "value": "t_struct(RoleData)19_storage"
      },
      "t_string_storage": {
        "encoding": "bytes",
        "label": "string",
        "numberOfBytes": "32"
      },
      "t_struct(RoleData)19_storage": {
        "encoding": "inplace",
        "label": "struct AccessControl.RoleData",
        "members": [
          {
            "astId": 16,
            "contract": "src/contracts/adapters/CurveMetaV2Adapter.sol:CurveMetaV2Adapter",
            "label": "members",
            "offset": 0,
            "slot": "0",
            "type": "t_mapping(t_address,t_bool)"
          },
          {
            "astId": 18,
            "contract": "src/contracts/adapters/CurveMetaV2Adapter.sol:CurveMetaV2Adapter",
            "label": "adminRole",
            "offset": 0,
            "slot": "1",
            "type": "t_bytes32"
          }
        ],
        "numberOfBytes": "64"
      },
      "t_uint256": {
        "encoding": "inplace",
        "label": "uint256",
        "numberOfBytes": "32"
      }
    }
  }
}