{
  "address": "0x8Fc296F44017B50ccaAfB2E002d590C2E0987363",
  "abi": [
    {
      "inputs": [
        {
          "internalType": "string",
          "name": "_name",
          "type": "string"
        },
        {
          "internalType": "address",
          "name": "_pool",
          "type": "address"
        },
        {
          "internalType": "uint256",
          "name": "_swapGasEstimate",
          "type": "uint256"
        }
      ],
      "stateMutability": "nonpayable",
      "type": "constructor"
    },
    {
      "anonymous": false,
      "inputs": [
        {
          "indexed": true,
          "internalType": "address",
          "name": "_asset",
          "type": "address"
        },
        {
          "indexed": false,
          "internalType": "uint256",
          "name": "amount",
          "type": "uint256"
        }
      ],
      "name": "Recovered",
      "type": "event"
    },
    {
      "anonymous": false,
      "inputs": [
        {
          "indexed": true,
          "internalType": "bytes32",
          "name": "role",
          "type": "bytes32"
        },
        {
          "indexed": true,
          "internalType": "bytes32",
          "name": "previousAdminRole",
          "type": "bytes32"
        },
        {
          "indexed": true,
          "internalType": "bytes32",
          "name": "newAdminRole",
          "type": "bytes32"
        }
      ],
      "name": "RoleAdminChanged",
      "type": "event"
    },
    {
      "anonymous": false,
      "inputs": [
        {
          "indexed": true,
          "internalType": "bytes32",
          "name": "role",
          "type": "bytes32"
        },
        {
          "indexed": true,
          "internalType": "address",
          "name": "account",
          "type": "address"
        },
        {
          "indexed": true,
          "internalType": "address",
          "name": "sender",
          "type": "address"
        }
      ],
      "name": "RoleGranted",
      "type": "event"
    },
    {
      "anonymous": false,
      "inputs": [
        {
          "indexed": true,
          "internalType": "bytes32",
          "name": "role",
          "type": "bytes32"
        },
        {
          "indexed": true,
          "internalType": "address",
          "name": "account",
          "type": "address"
        },
        {
          "indexed": true,
          "internalType": "address",
          "name": "sender",
          "type": "address"
        }
      ],
      "name": "RoleRevoked",
      "type": "event"
    },
    {
      "anonymous": false,
      "inputs": [
        {
          "indexed": true,
          "internalType": "address",
          "name": "_adapter",
          "type": "address"
        },
        {
          "indexed": false,
          "internalType": "uint256",
          "name": "_newEstimate",
          "type": "uint256"
        }
      ],
      "name": "UpdatedGasEstimate",
      "type": "event"
    },
    {
      "anonymous": false,
      "inputs": [
        {
          "indexed": true,
          "internalType": "address",
          "name": "_tokenFrom",
          "type": "address"
        },
        {
          "indexed": true,
          "internalType": "address",
          "name": "_tokenTo",
          "type": "address"
        },
        {
          "indexed": false,
          "internalType": "uint256",
          "name": "_amountIn",
          "type": "uint256"
        },
        {
          "indexed": false,
          "internalType": "uint256",
          "name": "_amountOut",
          "type": "uint256"
        }
      ],
      "name": "YakAdapterSwap",
      "type": "event"
    },
    {
      "inputs": [],
      "name": "DEFAULT_ADMIN_ROLE",
      "outputs": [
        {
          "internalType": "bytes32",
          "name": "",
          "type": "bytes32"
        }
      ],
      "stateMutability": "view",
      "type": "function"
    },
    {
      "inputs": [],
      "name": "MAINTAINER_ROLE",
      "outputs": [
        {
          "internalType": "bytes32",
          "name": "",
          "type": "bytes32"
        }
      ],
      "stateMutability": "view",
      "type": "function"
    },
    {
      "inputs": [
        {
          "internalType": "address",
          "name": "addedMaintainer",
          "type": "address"
        }
      ],
      "name": "addMaintainer",
      "outputs": [],
      "stateMutability": "nonpayable",
      "type": "function"
    },
    {
      "inputs": [],
      "name": "feeDenominator",
      "outputs": [
        {
          "internalType": "uint256",
          "name": "",
          "type": "uint256"
        }
      ],
      "stateMutability": "view",
      "type": "function"
    },
    {
      "inputs": [
        {
          "internalType": "bytes32",
          "name": "role",
          "type": "bytes32"
        }
      ],
      "name": "getRoleAdmin",
      "outputs": [
        {
          "internalType": "bytes32",
          "name": "",
          "type": "bytes32"
        }
      ],
      "stateMutability": "view",
      "type": "function"
    },
    {
      "inputs": [
        {
          "internalType": "bytes32",
          "name": "role",
          "type": "bytes32"
        },
        {
          "internalType": "address",
          "name": "account",
          "type": "address"
        }
      ],
      "name": "grantRole",
      "outputs": [],
      "stateMutability": "nonpayable",
      "type": "function"
    },
    {
      "inputs": [
        {
          "internalType": "bytes32",
          "name": "role",
          "type": "bytes32"
        },
        {
          "internalType": "address",
          "name": "account",
          "type": "address"
        }
      ],
      "name": "hasRole",
      "outputs": [
        {
          "internalType": "bool",
          "name": "",
          "type": "bool"
        }
      ],
      "stateMutability": "view",
      "type": "function"
    },
    {
      "inputs": [
        {
          "internalType": "address",
          "name": "",
          "type": "address"
        }
      ],
      "name": "isPoolToken",
      "outputs": [
        {
          "internalType": "bool",
          "name": "",
          "type": "bool"
        }
      ],
      "stateMutability": "view",
      "type": "function"
    },
    {
      "inputs": [],
      "name": "metaPool",
      "outputs": [
        {
          "internalType": "address",
          "name": "",
          "type": "address"
        }
      ],
      "stateMutability": "view",
      "type": "function"
    },
    {
      "inputs": [],
      "name": "metaTkn",
      "outputs": [
        {
          "internalType": "address",
          "name": "",
          "type": "address"
        }
      ],
      "stateMutability": "view",
      "type": "function"
    },
    {
      "inputs": [],
      "name": "name",
      "outputs": [
        {
          "internalType": "string",
          "name": "",
          "type": "string"
        }
      ],
      "stateMutability": "view",
      "type": "function"
    },
    {
      "inputs": [],
      "name": "pool",
      "outputs": [
        {
          "internalType": "address",
          "name": "",
          "type": "address"
        }
      ],
      "stateMutability": "view",
      "type": "function"
    },
    {
      "inputs": [],
      "name": "poolFeeCompliment",
      "outputs": [
        {
          "internalType": "uint256",
          "name": "",
          "type": "uint256"
        }
      ],
      "stateMutability": "view",
      "type": "function"
    },
    {
      "inputs": [
        {
          "internalType": "uint256",
          "name": "_amountIn",
          "type": "uint256"
        },
        {
          "internalType": "address",
          "name": "_tokenIn",
          "type": "address"
        },
        {
          "internalType": "address",
          "name": "_tokenOut",
          "type": "address"
        }
      ],
      "name": "query",
      "outputs": [
        {
          "internalType": "uint256",
          "name": "",
          "type": "uint256"
        }
      ],
      "stateMutability": "view",
      "type": "function"
    },
    {
      "inputs": [
        {
          "internalType": "uint256",
          "name": "_amount",
          "type": "uint256"
        }
      ],
      "name": "recoverAVAX",
      "outputs": [],
      "stateMutability": "nonpayable",
      "type": "function"
    },
    {
      "inputs": [
        {
          "internalType": "address",
          "name": "_tokenAddress",
          "type": "address"
        },
        {
          "internalType": "uint256",
          "name": "_tokenAmount",
          "type": "uint256"
        }
      ],
      "name": "recoverERC20",
      "outputs": [],
      "stateMutability": "nonpayable",
      "type": "function"
    },
    {
      "inputs": [
        {
          "internalType": "address",
          "name": "removedMaintainer",
          "type": "address"
        }
      ],
      "name": "removeMaintainer",
      "outputs": [],
      "stateMutability": "nonpayable",
      "type": "function"
    },
    {
      "inputs": [
        {
          "internalType": "bytes32",
          "name": "role",
          "type": "bytes32"
        },
        {
          "internalType": "address",
          "name": "account",
          "type": "address"
        }
      ],
      "name": "renounceRole",
      "outputs": [],
      "stateMutability": "nonpayable",
      "type": "function"
    },
    {
      "inputs": [
        {
          "internalType": "bytes32",
          "name": "role",
          "type": "bytes32"
        }
      ],
      "name": "renounceRole",
      "outputs": [],
      "stateMutability": "nonpayable",
      "type": "function"
    },
    {
      "inputs": [
        {
          "internalType": "address",
          "name": "_token",
          "type": "address"
        },
        {
          "internalType": "address",
          "name": "_spender",
          "type": "address"
        }
      ],
      "name": "revokeAllowance",
      "outputs": [],
      "stateMutability": "nonpayable",
      "type": "function"
    },
    {
      "inputs": [
        {
          "internalType": "bytes32",
          "name": "role",
          "type": "bytes32"
        },
        {
          "internalType": "address",
          "name": "account",
          "type": "address"
        }
      ],
      "name": "revokeRole",
      "outputs": [],
      "stateMutability": "nonpayable",
      "type": "function"
    },
    {
      "inputs": [
        {
          "internalType": "uint256",
          "name": "_estimate",
          "type": "uint256"
        }
      ],
      "name": "setSwapGasEstimate",
      "outputs": [],
      "stateMutability": "nonpayable",
      "type": "function"
    },
    {
      "inputs": [
        {
          "internalType": "bytes4",
          "name": "interfaceId",
          "type": "bytes4"
        }
      ],
      "name": "supportsInterface",
      "outputs": [
        {
          "internalType": "bool",
          "name": "",
          "type": "bool"
        }
      ],
      "stateMutability": "view",
      "type": "function"
    },
    {
      "inputs": [
        {
          "internalType": "uint256",
          "name": "_amountIn",
          "type": "uint256"
        },
        {
          "internalType": "uint256",
          "name": "_amountOut",
          "type": "uint256"
        },
        {
          "internalType": "address",
          "name": "_fromToken",
          "type": "address"
        },
        {
          "internalType": "address",
          "name": "_toToken",
          "type": "address"
        },
        {
          "internalType": "address",
          "name": "_to",
          "type": "address"
        }
      ],
      "name": "swap",
      "outputs": [],
      "stateMutability": "nonpayable",
      "type": "function"
    },
    {
      "inputs": [],
      "name": "swapGasEstimate",
      "outputs": [
        {
          "internalType": "uint256",
          "name": "",
          "type": "uint256"
        }
      ],
      "stateMutability": "view",
      "type": "function"
    },
    {
      "inputs": [
        {
          "internalType": "address",
          "name": "",
          "type": "address"
        }
      ],
      "name": "tokenIndex",
      "outputs": [
        {
          "internalType": "uint8",
          "name": "",
          "type": "uint8"
        }
      ],
      "stateMutability": "view",
      "type": "function"
    },
    {
      "inputs": [
        {
          "internalType": "address",
          "name": "newOwner",
          "type": "address"
        }
      ],
      "name": "transferOwnership",
      "outputs": [],
      "stateMutability": "nonpayable",
      "type": "function"
    },
    {
      "stateMutability": "payable",
      "type": "receive"
    }
  ],
  "transactionHash": "0xe448662a06b5f94073c1286d065e321ad789f0ec9c85dae851e4d6eca61bce51",
  "args": [
    "SaddleMetaFraxAdapter",
    "0xc55E8C79e5A6c3216D4023769559D06fa9A7732e",
    625000
  ],
  "solcInputHash": "702685e0c52e0e947ac67b4595682298",
  "bytecode": "0x60806040523480156200001157600080fd5b50604051620029a9380380620029a9833981016040819052620000349162000888565b828160006200004262000152565b90506200005160008262000156565b6200006c600080516020620029898339815191528262000156565b50620000788262000166565b6200008381620001a5565b5050600880546001600160a01b0319166001600160a01b03848116919091179182905560408051632d74d4e960e01b815290519290911691632d74d4e9916004808201926020929091908290030181600087803b158015620000e457600080fd5b505af1158015620000f9573d6000803e3d6000fd5b505050506040513d601f19601f820116820180604052508101906200011f919062000842565b600680546001600160a01b0319166001600160a01b03929092169190911790556200014962000252565b50505062000c49565b3390565b62000162828262000434565b5050565b8051620001905760405162461bcd60e51b8152600401620001879062000a48565b60405180910390fd5b8051620001629060029060208401906200077f565b6000620001b162000152565b9050620001ce6000805160206200298983398151915282620004be565b620001ed5760405162461bcd60e51b81526004016200018790620009cb565b816200020d5760405162461bcd60e51b8152600401620001879062000a7f565b600182905560405130907ff43f23b7a28e6f8ce6843a21bd7b48bce778aa913b8c8cf459edf7d770e8d38a906200024690859062000b5d565b60405180910390a25050565b60085460405162415c3360e91b81526001600160a01b03909116906382b86600906200028490600090600401620009bd565b60206040518083038186803b1580156200029d57600080fd5b505afa158015620002b2573d6000803e3d6000fd5b505050506040513d601f19601f82011682018060405250810190620002d8919062000842565b600780546001600160a01b0319166001600160a01b039283161790819055620003059116600019620004e7565b6007546001600160a01b03166000908152600460205260408120805460ff191690555b60065460405162415c3360e91b81526001600160a01b03909116906382b866009062000359908490600401620009bd565b60206040518083038186803b1580156200037257600080fd5b505afa925050508015620003a5575060408051601f3d908101601f19168201909252620003a29181019062000842565b60015b620003b05762000431565b620003be81600019620004e7565b6001600160a01b0381166000908152600360205260409020805460ff19166001908117909155620003f190839062000b66565b6001600160a01b03919091166000908152600460205260409020805460ff191660ff90921691909117905580620004288162000bfa565b91505062000328565b50565b620004408282620004be565b62000162576000828152602081815260408083206001600160a01b03851684529091529020805460ff191660011790556200047a62000152565b6001600160a01b0316816001600160a01b0316837f2f8788117e7eff1d82e926ec794901d17c78024a50270940304540a733656f0d60405160405180910390a45050565b6000918252602082815260408084206001600160a01b0393909316845291905290205460ff1690565b600854604051636eb1769f60e11b81526000916001600160a01b038086169263dd62ed3e926200051f9230929116906004016200098a565b60206040518083038186803b1580156200053857600080fd5b505afa1580156200054d573d6000803e3d6000fd5b505050506040513d601f19601f8201168201806040525081019062000573919062000953565b905081811015620005a857600854620005a8906001600160a01b038581169116600019620005ad602090811b62000c2c17901c565b505050565b8015806200063c5750604051636eb1769f60e11b81526001600160a01b0384169063dd62ed3e90620005e690309086906004016200098a565b60206040518083038186803b158015620005ff57600080fd5b505afa15801562000614573d6000803e3d6000fd5b505050506040513d601f19601f820116820180604052508101906200063a919062000953565b155b6200065b5760405162461bcd60e51b8152600401620001879062000b00565b620005a88363095ea7b360e01b84846040516024016200067d929190620009a4565b60408051808303601f190181529190526020810180516001600160e01b0319939093166001600160e01b0393841617905290620006b616565b600080836001600160a01b031683604051620006d391906200096c565b6000604051808303816000865af19150503d806000811462000712576040519150601f19603f3d011682016040523d82523d6000602084013e62000717565b606091505b5091509150816200073c5760405162461bcd60e51b8152600401620001879062000a13565b8051156200077957808060200190518101906200075a919062000866565b620007795760405162461bcd60e51b8152600401620001879062000ab6565b50505050565b8280546200078d9062000bbd565b90600052602060002090601f016020900481019282620007b15760008555620007fc565b82601f10620007cc57805160ff1916838001178555620007fc565b82800160010185558215620007fc579182015b82811115620007fc578251825591602001919060010190620007df565b506200080a9291506200080e565b5090565b5b808211156200080a57600081556001016200080f565b80516001600160a01b03811681146200083d57600080fd5b919050565b60006020828403121562000854578081fd5b6200085f8262000825565b9392505050565b60006020828403121562000878578081fd5b815180151581146200085f578182fd5b6000806000606084860312156200089d578182fd5b83516001600160401b0380821115620008b4578384fd5b818601915086601f830112620008c8578384fd5b815181811115620008dd57620008dd62000c33565b604051601f8201601f19168101602001838111828210171562000904576200090462000c33565b6040528181528382016020018910156200091c578586fd5b6200092f82602083016020870162000b8e565b955062000943925050506020850162000825565b9150604084015190509250925092565b60006020828403121562000965578081fd5b5051919050565b600082516200098081846020870162000b8e565b9190910192915050565b6001600160a01b0392831681529116602082015260400190565b6001600160a01b03929092168252602082015260400190565b60ff91909116815260200190565b60208082526028908201527f4d61696e7461696e61626c653a2043616c6c6572206973206e6f742061206d6160408201526734b73a30b4b732b960c11b606082015260800190565b6020808252818101527f5361666545524332303a206c6f772d6c6576656c2063616c6c206661696c6564604082015260600190565b60208082526014908201527f496e76616c69642061646170746572206e616d65000000000000000000000000604082015260600190565b60208082526014908201527f496e76616c6964206761732d657374696d617465000000000000000000000000604082015260600190565b6020808252602a908201527f5361666545524332303a204552433230206f7065726174696f6e20646964206e6040820152691bdd081cdd58d8d9595960b21b606082015260800190565b60208082526036908201527f5361666545524332303a20617070726f76652066726f6d206e6f6e2d7a65726f60408201527f20746f206e6f6e2d7a65726f20616c6c6f77616e636500000000000000000000606082015260800190565b90815260200190565b600060ff821660ff84168060ff0382111562000b865762000b8662000c1d565b019392505050565b60005b8381101562000bab57818101518382015260200162000b91565b83811115620007795750506000910152565b60028104600182168062000bd257607f821691505b6020821081141562000bf457634e487b7160e01b600052602260045260246000fd5b50919050565b600060ff821660ff81141562000c145762000c1462000c1d565b60010192915050565b634e487b7160e01b600052601160045260246000fd5b634e487b7160e01b600052604160045260246000fd5b611d308062000c596000396000f3fe6080604052600436106101b05760003560e01c80637ae26773116100ec578063d8baf7cf1161008a578063ef99893a11610064578063ef99893a1461049b578063f2fde38b146104bb578063f45dc478146104db578063f8742254146104f0576101b7565b8063d8baf7cf1461043b578063de260f371461045b578063eab90da61461047b576101b7565b80638bb9c5bf116100c65780638bb9c5bf146103c657806391d14854146103e6578063a217fddf14610406578063d547741f1461041b576101b7565b80637ae267731461036657806384a33e63146103865780638980f11f146103a6576101b7565b80632f2ff15d116101595780634ebb7916116101335780634ebb7916146102fc5780635acb5da91461031c57806369cff80d146103315780636b453c1f14610346576101b7565b80632f2ff15d1461028d57806336568abe146102af578063427f91a6146102cf576101b7565b8063180b0d7e1161018a578063180b0d7e14610236578063248a9ca3146102585780632580d36514610278576101b7565b806301ffc9a7146101bc57806306fdde03146101f257806316f0115b14610214576101b7565b366101b757005b600080fd5b3480156101c857600080fd5b506101dc6101d7366004611714565b610505565b6040516101e991906118c9565b60405180910390f35b3480156101fe57600080fd5b5061020761054b565b6040516101e991906118dd565b34801561022057600080fd5b506102296105d9565b6040516101e99190611882565b34801561024257600080fd5b5061024b6105e8565b6040516101e991906118d4565b34801561026457600080fd5b5061024b6102733660046116da565b6105f1565b34801561028457600080fd5b5061024b610606565b34801561029957600080fd5b506102ad6102a83660046116f2565b61060c565b005b3480156102bb57600080fd5b506102ad6102ca3660046116f2565b61062d565b3480156102db57600080fd5b506102ef6102ea366004611645565b61067c565b6040516101e99190611ba1565b34801561030857600080fd5b506102ad6103173660046116da565b610691565b34801561032857600080fd5b50610229610777565b34801561033d57600080fd5b5061024b610786565b34801561035257600080fd5b506102ad610361366004611645565b61078c565b34801561037257600080fd5b506102ad61038136600461165f565b6107b9565b34801561039257600080fd5b506102ad6103a13660046116da565b610820565b3480156103b257600080fd5b506102ad6103c1366004611691565b6108c6565b3480156103d257600080fd5b506102ad6103e13660046116da565b610992565b3480156103f257600080fd5b506101dc6104013660046116f2565b6109a8565b34801561041257600080fd5b5061024b6109d1565b34801561042757600080fd5b506102ad6104363660046116f2565b6109d6565b34801561044757600080fd5b506102ad610456366004611645565b6109f2565b34801561046757600080fd5b506101dc610476366004611645565b610a1c565b34801561048757600080fd5b506102ad61049636600461178f565b610a31565b3480156104a757600080fd5b5061024b6104b6366004611754565b610bc0565b3480156104c757600080fd5b506102ad6104d6366004611645565b610bd7565b3480156104e757600080fd5b50610229610bf9565b3480156104fc57600080fd5b5061024b610c08565b60006001600160e01b031982167f7965db0b000000000000000000000000000000000000000000000000000000001480610543575061054382610d54565b90505b919050565b6002805461055890611ca9565b80601f016020809104026020016040519081016040528092919081815260200182805461058490611ca9565b80156105d15780601f106105a6576101008083540402835291602001916105d1565b820191906000526020600020905b8154815290600101906020018083116105b457829003601f168201915b505050505081565b6008546001600160a01b031681565b6402540be40081565b60009081526020819052604090206001015490565b60055481565b610615826105f1565b61061e81610d86565b6106288383610d97565b505050565b610635610e1c565b6001600160a01b0316816001600160a01b03161461066e5760405162461bcd60e51b815260040161066590611b36565b60405180910390fd5b6106788282610e20565b5050565b60046020526000908152604090205460ff1681565b600061069b610e1c565b90506106c77f339759585899103d2ace64958e37e18ccb0504652c81d4a1b8aa80fe2126ab95826109a8565b6106e35760405162461bcd60e51b81526004016106659061197c565b600082116107035760405162461bcd60e51b8152600401610665906119d9565b604051339083156108fc029084906000818181858888f19350505050158015610730573d6000803e3d6000fd5b5060006001600160a01b03167f8c1256b8896378cd5044f80c202f9772b9d77dc85c8a6eb51967210b09bfaa288360405161076b91906118d4565b60405180910390a25050565b6006546001600160a01b031681565b60015481565b6107b67f339759585899103d2ace64958e37e18ccb0504652c81d4a1b8aa80fe2126ab958261060c565b50565b60006107c3610e1c565b90506107ef7f339759585899103d2ace64958e37e18ccb0504652c81d4a1b8aa80fe2126ab95826109a8565b61080b5760405162461bcd60e51b81526004016106659061197c565b6106286001600160a01b038416836000610c2c565b600061082a610e1c565b90506108567f339759585899103d2ace64958e37e18ccb0504652c81d4a1b8aa80fe2126ab95826109a8565b6108725760405162461bcd60e51b81526004016106659061197c565b8161088f5760405162461bcd60e51b815260040161066590611a45565b600182905560405130907ff43f23b7a28e6f8ce6843a21bd7b48bce778aa913b8c8cf459edf7d770e8d38a9061076b9085906118d4565b60006108d0610e1c565b90506108fc7f339759585899103d2ace64958e37e18ccb0504652c81d4a1b8aa80fe2126ab95826109a8565b6109185760405162461bcd60e51b81526004016106659061197c565b600082116109385760405162461bcd60e51b8152600401610665906119d9565b61094c6001600160a01b0384163384610ea3565b826001600160a01b03167f8c1256b8896378cd5044f80c202f9772b9d77dc85c8a6eb51967210b09bfaa288360405161098591906118d4565b60405180910390a2505050565b600061099c610e1c565b9050610678828261062d565b6000918252602082815260408084206001600160a01b0393909316845291905290205460ff1690565b600081565b6109df826105f1565b6109e881610d86565b6106288383610e20565b6107b67f339759585899103d2ace64958e37e18ccb0504652c81d4a1b8aa80fe2126ab95826109d6565b60036020526000908152604090205460ff1681565b6040516370a0823160e01b81526000906001600160a01b038416906370a0823190610a60908590600401611882565b60206040518083038186803b158015610a7857600080fd5b505afa158015610a8c573d6000803e3d6000fd5b505050506040513d601f19601f82011682018060405250810190610ab0919061173c565b9050610abf8686868686610ec2565b600081846001600160a01b03166370a08231856040518263ffffffff1660e01b8152600401610aee9190611882565b60206040518083038186803b158015610b0657600080fd5b505afa158015610b1a573d6000803e3d6000fd5b505050506040513d601f19601f82011682018060405250810190610b3e919061173c565b610b489190611c4f565b905085811015610b6a5760405162461bcd60e51b815260040161066590611910565b836001600160a01b0316856001600160a01b03167fe2bdbc6b7225eb0a972ac943c485a6cc05f7c6811838bce8903f23200fb744fa8989604051610baf929190611b93565b60405180910390a350505050505050565b6000610bcd84848461101c565b90505b9392505050565b6000610be1610e1c565b9050610bee60008361060c565b61067860008261062d565b6007546001600160a01b031681565b7f339759585899103d2ace64958e37e18ccb0504652c81d4a1b8aa80fe2126ab9581565b801580610ccd57506040517fdd62ed3e0000000000000000000000000000000000000000000000000000000081526001600160a01b0384169063dd62ed3e90610c7b9030908690600401611896565b60206040518083038186803b158015610c9357600080fd5b505afa158015610ca7573d6000803e3d6000fd5b505050506040513d601f19601f82011682018060405250810190610ccb919061173c565b155b610ce95760405162461bcd60e51b815260040161066590611ad9565b6106288363095ea7b360e01b8484604051602401610d089291906118b0565b60408051601f198184030181529190526020810180517bffffffffffffffffffffffffffffffffffffffffffffffffffffffff166001600160e01b03199093169290921790915261104a565b6001600160e01b031981167f01ffc9a70000000000000000000000000000000000000000000000000000000014919050565b6107b681610d92610e1c565b611106565b610da182826109a8565b610678576000828152602081815260408083206001600160a01b03851684529091529020805460ff19166001179055610dd8610e1c565b6001600160a01b0316816001600160a01b0316837f2f8788117e7eff1d82e926ec794901d17c78024a50270940304540a733656f0d60405160405180910390a45050565b3390565b610e2a82826109a8565b15610678576000828152602081815260408083206001600160a01b03851684529091529020805460ff19169055610e5f610e1c565b6001600160a01b0316816001600160a01b0316837ff6391f5c32d9c69d2a47ea670b442974b53935d1edc7fd64eb21e047a839171b60405160405180910390a45050565b6106288363a9059cbb60e01b8484604051602401610d089291906118b0565b6008546001600160a01b038481166000908152600460208190526040808320548785168452928190205490517f78e0fae800000000000000000000000000000000000000000000000000000000815293909416936378e0fae893610f359360ff908116939216918b918b91429101611bcd565b602060405180830381600087803b158015610f4f57600080fd5b505af1158015610f63573d6000803e3d6000fd5b505050506040513d601f19601f82011682018060405250810190610f87919061173c565b506040516370a0823160e01b81526000906001600160a01b038416906370a0823190610fb7903090600401611882565b60206040518083038186803b158015610fcf57600080fd5b505afa158015610fe3573d6000803e3d6000fd5b505050506040513d601f19601f82011682018060405250810190611007919061173c565b905061101483828461116a565b505050505050565b600061102984848461118e565b801561103a57506110386111ab565b155b15610bd057610bcd8484846112d2565b600080836001600160a01b03168360405161106591906117e5565b6000604051808303816000865af19150503d80600081146110a2576040519150601f19603f3d011682016040523d82523d6000602084013e6110a7565b606091505b5091509150816110c95760405162461bcd60e51b815260040161066590611a10565b80511561110057808060200190518101906110e491906116ba565b6111005760405162461bcd60e51b815260040161066590611a7c565b50505050565b61111082826109a8565b61067857611128816001600160a01b031660146113a6565b6111338360206113a6565b604051602001611144929190611801565b60408051601f198184030181529082905262461bcd60e51b8252610665916004016118dd565b306001600160a01b03821614610628576106286001600160a01b0384168284610ea3565b600061119a838361159d565b8015610bcd57505050901515919050565b600854604080517f5c975abb00000000000000000000000000000000000000000000000000000000815290516000926001600160a01b031691635c975abb916004808301926020929190829003018186803b15801561120957600080fd5b505afa15801561121d573d6000803e3d6000fd5b505050506040513d601f19601f8201168201806040525081019061124191906116ba565b806112cd5750600660009054906101000a90046001600160a01b03166001600160a01b0316635c975abb6040518163ffffffff1660e01b815260040160206040518083038186803b15801561129557600080fd5b505afa1580156112a9573d6000803e3d6000fd5b505050506040513d601f19601f820116820180604052508101906112cd91906116ba565b905090565b6008546001600160a01b0383811660009081526004602081905260408083205486851684528184205491517f75d8e3e4000000000000000000000000000000000000000000000000000000008152939594909416936375d8e3e4936113439360ff92831693909216918a9101611baf565b60206040518083038186803b15801561135b57600080fd5b505afa92505050801561138b575060408051601f3d908101601f191682019092526113889181019061173c565b60015b61139457610bd0565b61139d81611613565b95945050505050565b606060006113b5836002611c30565b6113c0906002611bf8565b67ffffffffffffffff8111156113e657634e487b7160e01b600052604160045260246000fd5b6040519080825280601f01601f191660200182016040528015611410576020820181803683370190505b5090507f30000000000000000000000000000000000000000000000000000000000000008160008151811061145557634e487b7160e01b600052603260045260246000fd5b60200101906001600160f81b031916908160001a9053507f7800000000000000000000000000000000000000000000000000000000000000816001815181106114ae57634e487b7160e01b600052603260045260246000fd5b60200101906001600160f81b031916908160001a90535060006114d2846002611c30565b6114dd906001611bf8565b90505b600181111561157e577f303132333435363738396162636465660000000000000000000000000000000085600f166010811061152c57634e487b7160e01b600052603260045260246000fd5b1a60f81b82828151811061155057634e487b7160e01b600052603260045260246000fd5b60200101906001600160f81b031916908160001a90535060049490941c9361157781611c92565b90506114e0565b508315610bd05760405162461bcd60e51b815260040161066590611947565b6007546000906001600160a01b0384811691161480156115d557506001600160a01b03821660009081526003602052604090205460ff165b80610bd057506007546001600160a01b038381169116148015610bd0575050506001600160a01b031660009081526003602052604090205460ff1690565b60006127106116248361270e611c30565b6105439190611c10565b80356001600160a01b038116811461054657600080fd5b600060208284031215611656578081fd5b610bd08261162e565b60008060408385031215611671578081fd5b61167a8361162e565b91506116886020840161162e565b90509250929050565b600080604083850312156116a3578182fd5b6116ac8361162e565b946020939093013593505050565b6000602082840312156116cb578081fd5b81518015158114610bd0578182fd5b6000602082840312156116eb578081fd5b5035919050565b60008060408385031215611704578182fd5b823591506116886020840161162e565b600060208284031215611725578081fd5b81356001600160e01b031981168114610bd0578182fd5b60006020828403121561174d578081fd5b5051919050565b600080600060608486031215611768578081fd5b833592506117786020850161162e565b91506117866040850161162e565b90509250925092565b600080600080600060a086880312156117a6578081fd5b85359450602086013593506117bd6040870161162e565b92506117cb6060870161162e565b91506117d96080870161162e565b90509295509295909350565b600082516117f7818460208701611c66565b9190910192915050565b60007f416363657373436f6e74726f6c3a206163636f756e742000000000000000000082528351611839816017850160208801611c66565b7f206973206d697373696e6720726f6c65200000000000000000000000000000006017918401918201528351611876816028840160208801611c66565b01602801949350505050565b6001600160a01b0391909116815260200190565b6001600160a01b0392831681529116602082015260400190565b6001600160a01b03929092168252602082015260400190565b901515815260200190565b90815260200190565b60006020825282518060208401526118fc816040850160208701611c66565b601f01601f19169190910160400192915050565b60208082526017908201527f496e73756666696369656e7420616d6f756e742d6f7574000000000000000000604082015260600190565b6020808252818101527f537472696e67733a20686578206c656e67746820696e73756666696369656e74604082015260600190565b60208082526028908201527f4d61696e7461696e61626c653a2043616c6c6572206973206e6f742061206d6160408201527f696e7461696e6572000000000000000000000000000000000000000000000000606082015260800190565b6020808252601e908201527f59616b416461707465723a204e6f7468696e6720746f207265636f7665720000604082015260600190565b6020808252818101527f5361666545524332303a206c6f772d6c6576656c2063616c6c206661696c6564604082015260600190565b60208082526014908201527f496e76616c6964206761732d657374696d617465000000000000000000000000604082015260600190565b6020808252602a908201527f5361666545524332303a204552433230206f7065726174696f6e20646964206e60408201527f6f74207375636365656400000000000000000000000000000000000000000000606082015260800190565b60208082526036908201527f5361666545524332303a20617070726f76652066726f6d206e6f6e2d7a65726f60408201527f20746f206e6f6e2d7a65726f20616c6c6f77616e636500000000000000000000606082015260800190565b6020808252602f908201527f416363657373436f6e74726f6c3a2063616e206f6e6c792072656e6f756e636560408201527f20726f6c657320666f722073656c660000000000000000000000000000000000606082015260800190565b918252602082015260400190565b60ff91909116815260200190565b60ff9384168152919092166020820152604081019190915260600190565b60ff958616815293909416602084015260408301919091526060820152608081019190915260a00190565b60008219821115611c0b57611c0b611ce4565b500190565b600082611c2b57634e487b7160e01b81526012600452602481fd5b500490565b6000816000190483118215151615611c4a57611c4a611ce4565b500290565b600082821015611c6157611c61611ce4565b500390565b60005b83811015611c81578181015183820152602001611c69565b838111156111005750506000910152565b600081611ca157611ca1611ce4565b506000190190565b600281046001821680611cbd57607f821691505b60208210811415611cde57634e487b7160e01b600052602260045260246000fd5b50919050565b634e487b7160e01b600052601160045260246000fdfea2646970667358221220353f297e6da4b821ede1a83ee4b3f386d0bb9dea93ee234c5ca24f126393cd3b64736f6c63430008000033339759585899103d2ace64958e37e18ccb0504652c81d4a1b8aa80fe2126ab95",
  "devdoc": {
    "kind": "dev",
    "methods": {
      "getRoleAdmin(bytes32)": {
        "details": "Returns the admin role that controls `role`. See {grantRole} and {revokeRole}. To change a role's admin, use {_setRoleAdmin}."
      },
      "grantRole(bytes32,address)": {
        "details": "Grants `role` to `account`. If `account` had not been already granted `role`, emits a {RoleGranted} event. Requirements: - the caller must have ``role``'s admin role. May emit a {RoleGranted} event."
      },
      "hasRole(bytes32,address)": {
        "details": "Returns `true` if `account` has been granted `role`."
      },
      "renounceRole(bytes32,address)": {
        "details": "Revokes `role` from the calling account. Roles are often managed via {grantRole} and {revokeRole}: this function's purpose is to provide a mechanism for accounts to lose their privileges if they are compromised (such as when a trusted device is misplaced). If the calling account had been revoked `role`, emits a {RoleRevoked} event. Requirements: - the caller must be `account`. May emit a {RoleRevoked} event."
      },
      "revokeRole(bytes32,address)": {
        "details": "Revokes `role` from `account`. If `account` had been granted `role`, emits a {RoleRevoked} event. Requirements: - the caller must have ``role``'s admin role. May emit a {RoleRevoked} event."
      },
      "supportsInterface(bytes4)": {
        "details": "See {IERC165-supportsInterface}."
      }
    },
    "version": 1
  },
  "userdoc": {
    "kind": "user",
    "methods": {},
    "version": 1
  },
  "storageLayout": {
    "storage": [
      {
        "astId": 24,
        "contract": "src/contracts/adapters/SaddleMetaAdapter.sol:SaddleMetaAdapter",
        "label": "_roles",
        "offset": 0,
        "slot": "0",
        "type": "t_mapping(t_bytes32,t_struct(RoleData)19_storage)"
      },
      {
        "astId": 1451,
        "contract": "src/contracts/adapters/SaddleMetaAdapter.sol:SaddleMetaAdapter",
        "label": "swapGasEstimate",
        "offset": 0,
        "slot": "1",
        "type": "t_uint256"
      },
      {
        "astId": 1453,
        "contract": "src/contracts/adapters/SaddleMetaAdapter.sol:SaddleMetaAdapter",
        "label": "name",
        "offset": 0,
        "slot": "2",
        "type": "t_string_storage"
      },
      {
        "astId": 12125,
        "contract": "src/contracts/adapters/SaddleMetaAdapter.sol:SaddleMetaAdapter",
        "label": "isPoolToken",
        "offset": 0,
        "slot": "3",
        "type": "t_mapping(t_address,t_bool)"
      },
      {
        "astId": 12129,
        "contract": "src/contracts/adapters/SaddleMetaAdapter.sol:SaddleMetaAdapter",
        "label": "tokenIndex",
        "offset": 0,
        "slot": "4",
        "type": "t_mapping(t_address,t_uint8)"
      },
      {
        "astId": 12131,
        "contract": "src/contracts/adapters/SaddleMetaAdapter.sol:SaddleMetaAdapter",
        "label": "poolFeeCompliment",
        "offset": 0,
        "slot": "5",
        "type": "t_uint256"
      },
      {
        "astId": 12133,
        "contract": "src/contracts/adapters/SaddleMetaAdapter.sol:SaddleMetaAdapter",
        "label": "metaPool",
        "offset": 0,
        "slot": "6",
        "type": "t_address"
      },
      {
        "astId": 12135,
        "contract": "src/contracts/adapters/SaddleMetaAdapter.sol:SaddleMetaAdapter",
        "label": "metaTkn",
        "offset": 0,
        "slot": "7",
        "type": "t_address"
      },
      {
        "astId": 12137,
        "contract": "src/contracts/adapters/SaddleMetaAdapter.sol:SaddleMetaAdapter",
        "label": "pool",
        "offset": 0,
        "slot": "8",
        "type": "t_address"
      }
    ],
    "types": {
      "t_address": {
        "encoding": "inplace",
        "label": "address",
        "numberOfBytes": "20"
      },
      "t_bool": {
        "encoding": "inplace",
        "label": "bool",
        "numberOfBytes": "1"
      },
      "t_bytes32": {
        "encoding": "inplace",
        "label": "bytes32",
        "numberOfBytes": "32"
      },
      "t_mapping(t_address,t_bool)": {
        "encoding": "mapping",
        "key": "t_address",
        "label": "mapping(address => bool)",
        "numberOfBytes": "32",
        "value": "t_bool"
      },
      "t_mapping(t_address,t_uint8)": {
        "encoding": "mapping",
        "key": "t_address",
        "label": "mapping(address => uint8)",
        "numberOfBytes": "32",
        "value": "t_uint8"
      },
      "t_mapping(t_bytes32,t_struct(RoleData)19_storage)": {
        "encoding": "mapping",
        "key": "t_bytes32",
        "label": "mapping(bytes32 => struct AccessControl.RoleData)",
        "numberOfBytes": "32",
        "value": "t_struct(RoleData)19_storage"
      },
      "t_string_storage": {
        "encoding": "bytes",
        "label": "string",
        "numberOfBytes": "32"
      },
      "t_struct(RoleData)19_storage": {
        "encoding": "inplace",
        "label": "struct AccessControl.RoleData",
        "members": [
          {
            "astId": 16,
            "contract": "src/contracts/adapters/SaddleMetaAdapter.sol:SaddleMetaAdapter",
            "label": "members",
            "offset": 0,
            "slot": "0",
            "type": "t_mapping(t_address,t_bool)"
          },
          {
            "astId": 18,
            "contract": "src/contracts/adapters/SaddleMetaAdapter.sol:SaddleMetaAdapter",
            "label": "adminRole",
            "offset": 0,
            "slot": "1",
            "type": "t_bytes32"
          }
        ],
        "numberOfBytes": "64"
      },
      "t_uint256": {
        "encoding": "inplace",
        "label": "uint256",
        "numberOfBytes": "32"
      },
      "t_uint8": {
        "encoding": "inplace",
        "label": "uint8",
        "numberOfBytes": "1"
      }
    }
  }
}