{
  "address": "0xc7d4412aa74c655B2e6e71bB6790d24AC90E393C",
  "abi": [
    {
      "inputs": [
        {
          "internalType": "string",
          "name": "_name",
          "type": "string"
        },
        {
          "internalType": "address",
          "name": "_factory",
          "type": "address"
        },
        {
          "internalType": "uint256",
          "name": "_fee",
          "type": "uint256"
        },
        {
          "internalType": "uint256",
          "name": "_feeDenominator",
          "type": "uint256"
        },
        {
          "internalType": "uint256",
          "name": "_swapGasEstimate",
          "type": "uint256"
        }
      ],
      "stateMutability": "nonpayable",
      "type": "constructor"
    },
    {
      "anonymous": false,
      "inputs": [
        {
          "indexed": true,
          "internalType": "address",
          "name": "_asset",
          "type": "address"
        },
        {
          "indexed": false,
          "internalType": "uint256",
          "name": "amount",
          "type": "uint256"
        }
      ],
      "name": "Recovered",
      "type": "event"
    },
    {
      "anonymous": false,
      "inputs": [
        {
          "indexed": true,
          "internalType": "bytes32",
          "name": "role",
          "type": "bytes32"
        },
        {
          "indexed": true,
          "internalType": "bytes32",
          "name": "previousAdminRole",
          "type": "bytes32"
        },
        {
          "indexed": true,
          "internalType": "bytes32",
          "name": "newAdminRole",
          "type": "bytes32"
        }
      ],
      "name": "RoleAdminChanged",
      "type": "event"
    },
    {
      "anonymous": false,
      "inputs": [
        {
          "indexed": true,
          "internalType": "bytes32",
          "name": "role",
          "type": "bytes32"
        },
        {
          "indexed": true,
          "internalType": "address",
          "name": "account",
          "type": "address"
        },
        {
          "indexed": true,
          "internalType": "address",
          "name": "sender",
          "type": "address"
        }
      ],
      "name": "RoleGranted",
      "type": "event"
    },
    {
      "anonymous": false,
      "inputs": [
        {
          "indexed": true,
          "internalType": "bytes32",
          "name": "role",
          "type": "bytes32"
        },
        {
          "indexed": true,
          "internalType": "address",
          "name": "account",
          "type": "address"
        },
        {
          "indexed": true,
          "internalType": "address",
          "name": "sender",
          "type": "address"
        }
      ],
      "name": "RoleRevoked",
      "type": "event"
    },
    {
      "anonymous": false,
      "inputs": [
        {
          "indexed": true,
          "internalType": "address",
          "name": "_adapter",
          "type": "address"
        },
        {
          "indexed": false,
          "internalType": "uint256",
          "name": "_newEstimate",
          "type": "uint256"
        }
      ],
      "name": "UpdatedGasEstimate",
      "type": "event"
    },
    {
      "anonymous": false,
      "inputs": [
        {
          "indexed": true,
          "internalType": "address",
          "name": "_tokenFrom",
          "type": "address"
        },
        {
          "indexed": true,
          "internalType": "address",
          "name": "_tokenTo",
          "type": "address"
        },
        {
          "indexed": false,
          "internalType": "uint256",
          "name": "_amountIn",
          "type": "uint256"
        },
        {
          "indexed": false,
          "internalType": "uint256",
          "name": "_amountOut",
          "type": "uint256"
        }
      ],
      "name": "YakAdapterSwap",
      "type": "event"
    },
    {
      "inputs": [],
      "name": "DEFAULT_ADMIN_ROLE",
      "outputs": [
        {
          "internalType": "bytes32",
          "name": "",
          "type": "bytes32"
        }
      ],
      "stateMutability": "view",
      "type": "function"
    },
    {
      "inputs": [],
      "name": "MAINTAINER_ROLE",
      "outputs": [
        {
          "internalType": "bytes32",
          "name": "",
          "type": "bytes32"
        }
      ],
      "stateMutability": "view",
      "type": "function"
    },
    {
      "inputs": [
        {
          "internalType": "address",
          "name": "addedMaintainer",
          "type": "address"
        }
      ],
      "name": "addMaintainer",
      "outputs": [],
      "stateMutability": "nonpayable",
      "type": "function"
    },
    {
      "inputs": [],
      "name": "factory",
      "outputs": [
        {
          "internalType": "address",
          "name": "",
          "type": "address"
        }
      ],
      "stateMutability": "view",
      "type": "function"
    },
    {
      "inputs": [],
      "name": "feeCompliment",
      "outputs": [
        {
          "internalType": "uint256",
          "name": "",
          "type": "uint256"
        }
      ],
      "stateMutability": "view",
      "type": "function"
    },
    {
      "inputs": [],
      "name": "feeDenominator",
      "outputs": [
        {
          "internalType": "uint256",
          "name": "",
          "type": "uint256"
        }
      ],
      "stateMutability": "view",
      "type": "function"
    },
    {
      "inputs": [
        {
          "internalType": "bytes32",
          "name": "role",
          "type": "bytes32"
        }
      ],
      "name": "getRoleAdmin",
      "outputs": [
        {
          "internalType": "bytes32",
          "name": "",
          "type": "bytes32"
        }
      ],
      "stateMutability": "view",
      "type": "function"
    },
    {
      "inputs": [
        {
          "internalType": "bytes32",
          "name": "role",
          "type": "bytes32"
        },
        {
          "internalType": "address",
          "name": "account",
          "type": "address"
        }
      ],
      "name": "grantRole",
      "outputs": [],
      "stateMutability": "nonpayable",
      "type": "function"
    },
    {
      "inputs": [
        {
          "internalType": "bytes32",
          "name": "role",
          "type": "bytes32"
        },
        {
          "internalType": "address",
          "name": "account",
          "type": "address"
        }
      ],
      "name": "hasRole",
      "outputs": [
        {
          "internalType": "bool",
          "name": "",
          "type": "bool"
        }
      ],
      "stateMutability": "view",
      "type": "function"
    },
    {
      "inputs": [],
      "name": "name",
      "outputs": [
        {
          "internalType": "string",
          "name": "",
          "type": "string"
        }
      ],
      "stateMutability": "view",
      "type": "function"
    },
    {
      "inputs": [
        {
          "internalType": "uint256",
          "name": "_amountIn",
          "type": "uint256"
        },
        {
          "internalType": "address",
          "name": "_tokenIn",
          "type": "address"
        },
        {
          "internalType": "address",
          "name": "_tokenOut",
          "type": "address"
        }
      ],
      "name": "query",
      "outputs": [
        {
          "internalType": "uint256",
          "name": "",
          "type": "uint256"
        }
      ],
      "stateMutability": "view",
      "type": "function"
    },
    {
      "inputs": [
        {
          "internalType": "uint256",
          "name": "_amount",
          "type": "uint256"
        }
      ],
      "name": "recoverAVAX",
      "outputs": [],
      "stateMutability": "nonpayable",
      "type": "function"
    },
    {
      "inputs": [
        {
          "internalType": "address",
          "name": "_tokenAddress",
          "type": "address"
        },
        {
          "internalType": "uint256",
          "name": "_tokenAmount",
          "type": "uint256"
        }
      ],
      "name": "recoverERC20",
      "outputs": [],
      "stateMutability": "nonpayable",
      "type": "function"
    },
    {
      "inputs": [
        {
          "internalType": "address",
          "name": "removedMaintainer",
          "type": "address"
        }
      ],
      "name": "removeMaintainer",
      "outputs": [],
      "stateMutability": "nonpayable",
      "type": "function"
    },
    {
      "inputs": [
        {
          "internalType": "bytes32",
          "name": "role",
          "type": "bytes32"
        },
        {
          "internalType": "address",
          "name": "account",
          "type": "address"
        }
      ],
      "name": "renounceRole",
      "outputs": [],
      "stateMutability": "nonpayable",
      "type": "function"
    },
    {
      "inputs": [
        {
          "internalType": "bytes32",
          "name": "role",
          "type": "bytes32"
        }
      ],
      "name": "renounceRole",
      "outputs": [],
      "stateMutability": "nonpayable",
      "type": "function"
    },
    {
      "inputs": [
        {
          "internalType": "address",
          "name": "_token",
          "type": "address"
        },
        {
          "internalType": "address",
          "name": "_spender",
          "type": "address"
        }
      ],
      "name": "revokeAllowance",
      "outputs": [],
      "stateMutability": "nonpayable",
      "type": "function"
    },
    {
      "inputs": [
        {
          "internalType": "bytes32",
          "name": "role",
          "type": "bytes32"
        },
        {
          "internalType": "address",
          "name": "account",
          "type": "address"
        }
      ],
      "name": "revokeRole",
      "outputs": [],
      "stateMutability": "nonpayable",
      "type": "function"
    },
    {
      "inputs": [
        {
          "internalType": "uint256",
          "name": "_estimate",
          "type": "uint256"
        }
      ],
      "name": "setSwapGasEstimate",
      "outputs": [],
      "stateMutability": "nonpayable",
      "type": "function"
    },
    {
      "inputs": [
        {
          "internalType": "bytes4",
          "name": "interfaceId",
          "type": "bytes4"
        }
      ],
      "name": "supportsInterface",
      "outputs": [
        {
          "internalType": "bool",
          "name": "",
          "type": "bool"
        }
      ],
      "stateMutability": "view",
      "type": "function"
    },
    {
      "inputs": [
        {
          "internalType": "uint256",
          "name": "_amountIn",
          "type": "uint256"
        },
        {
          "internalType": "uint256",
          "name": "_amountOut",
          "type": "uint256"
        },
        {
          "internalType": "address",
          "name": "_fromToken",
          "type": "address"
        },
        {
          "internalType": "address",
          "name": "_toToken",
          "type": "address"
        },
        {
          "internalType": "address",
          "name": "_to",
          "type": "address"
        }
      ],
      "name": "swap",
      "outputs": [],
      "stateMutability": "nonpayable",
      "type": "function"
    },
    {
      "inputs": [],
      "name": "swapGasEstimate",
      "outputs": [
        {
          "internalType": "uint256",
          "name": "",
          "type": "uint256"
        }
      ],
      "stateMutability": "view",
      "type": "function"
    },
    {
      "inputs": [
        {
          "internalType": "address",
          "name": "newOwner",
          "type": "address"
        }
      ],
      "name": "transferOwnership",
      "outputs": [],
      "stateMutability": "nonpayable",
      "type": "function"
    },
    {
      "stateMutability": "payable",
      "type": "receive"
    }
  ],
  "transactionHash": "0xfb139aa0c206d68eae481f64a0cfea99545cf53c6c873a30f3c9dd16367cc083",
  "args": [
    "BaseSwapAdapter",
    "0xFDa619b6d20975be80A10332cD39b9a4b0FAa8BB",
    25,
    10000,
    120000
  ],
  "solcInputHash": "295b74661f7781d95c525eb2b8d90533",
  "bytecode": "0x60e06040523480156200001157600080fd5b5060405162002281380380620022818339810160408190526200003491620003b1565b84813362000044600082620000b7565b620000707f339759585899103d2ace64958e37e18ccb0504652c81d4a1b8aa80fe2126ab9582620000b7565b506200007c82620000c7565b620000878162000130565b505060808290526200009a8383620004b7565b60a05250505060601b6001600160601b03191660c052506200052e565b620000c382826200024e565b5050565b80516200011b5760405162461bcd60e51b815260206004820152601460248201527f496e76616c69642061646170746572206e616d6500000000000000000000000060448201526064015b60405180910390fd5b8051620000c3906002906020840190620002ee565b3360008181527fa54247010af6b3693b80aceddfad12e077c5de3571e6243fada502635f0d7d39602052604090205460ff16620001c15760405162461bcd60e51b815260206004820152602860248201527f4d61696e7461696e61626c653a2043616c6c6572206973206e6f742061206d6160448201526734b73a30b4b732b960c11b606482015260840162000112565b81620002105760405162461bcd60e51b815260206004820152601460248201527f496e76616c6964206761732d657374696d617465000000000000000000000000604482015260640162000112565b600182905560405182815230907ff43f23b7a28e6f8ce6843a21bd7b48bce778aa913b8c8cf459edf7d770e8d38a9060200160405180910390a25050565b6000828152602081815260408083206001600160a01b038516845290915290205460ff16620000c3576000828152602081815260408083206001600160a01b03851684529091529020805460ff19166001179055620002aa3390565b6001600160a01b0316816001600160a01b0316837f2f8788117e7eff1d82e926ec794901d17c78024a50270940304540a733656f0d60405160405180910390a45050565b828054620002fc90620004db565b90600052602060002090601f0160209004810192826200032057600085556200036b565b82601f106200033b57805160ff19168380011785556200036b565b828001600101855582156200036b579182015b828111156200036b5782518255916020019190600101906200034e565b50620003799291506200037d565b5090565b5b808211156200037957600081556001016200037e565b80516001600160a01b0381168114620003ac57600080fd5b919050565b600080600080600060a08688031215620003c9578081fd5b85516001600160401b0380821115620003e0578283fd5b818801915088601f830112620003f4578283fd5b81518181111562000409576200040962000518565b604051601f8201601f19908116603f0116810190838211818310171562000434576200043462000518565b81604052828152602093508b8484870101111562000450578586fd5b8591505b8282101562000473578482018401518183018501529083019062000454565b828211156200048457858484830101525b98506200049691505088820162000394565b604089015160608a01516080909a0151989b919a5098979650945050505050565b600082821015620004d657634e487b7160e01b81526011600452602481fd5b500390565b600181811c90821680620004f057607f821691505b602082108114156200051257634e487b7160e01b600052602260045260246000fd5b50919050565b634e487b7160e01b600052604160045260246000fd5b60805160a05160c05160601c611d046200057d60003960008181610410015281816110c3015261126d0152600081816102ad01526115bd0152600081816101f901526115fa0152611d046000f3fe6080604052600436106101845760003560e01c806384a33e63116100d6578063d547741f1161007f578063ef99893a11610059578063ef99893a146104aa578063f2fde38b146104ca578063f8742254146104ea57600080fd5b8063d547741f1461044a578063d8baf7cf1461046a578063eab90da61461048a57600080fd5b806391d14854116100b057806391d14854146103a5578063a217fddf146103e9578063c45a0155146103fe57600080fd5b806384a33e63146103455780638980f11f146103655780638bb9c5bf1461038557600080fd5b806336568abe1161013857806369cff80d1161011257806369cff80d146102ef5780636b453c1f146103055780637ae267731461032557600080fd5b806336568abe1461027b5780633b720fca1461029b5780634ebb7916146102cf57600080fd5b8063180b0d7e11610169578063180b0d7e146101e7578063248a9ca3146102295780632f2ff15d1461025957600080fd5b806301ffc9a71461019057806306fdde03146101c557600080fd5b3661018b57005b600080fd5b34801561019c57600080fd5b506101b06101ab366004611981565b61051e565b60405190151581526020015b60405180910390f35b3480156101d157600080fd5b506101da610587565b6040516101bc9190611b6c565b3480156101f357600080fd5b5061021b7f000000000000000000000000000000000000000000000000000000000000000081565b6040519081526020016101bc565b34801561023557600080fd5b5061021b610244366004611945565b60009081526020819052604090206001015490565b34801561026557600080fd5b5061027961027436600461195d565b610615565b005b34801561028757600080fd5b5061027961029636600461195d565b61063f565b3480156102a757600080fd5b5061021b7f000000000000000000000000000000000000000000000000000000000000000081565b3480156102db57600080fd5b506102796102ea366004611945565b6106d0565b3480156102fb57600080fd5b5061021b60015481565b34801561031157600080fd5b5061027961032036600461188a565b610818565b34801561033157600080fd5b506102796103403660046118c2565b610845565b34801561035157600080fd5b50610279610360366004611945565b6108e9565b34801561037157600080fd5b506102796103803660046118fa565b6109fc565b34801561039157600080fd5b506102796103a0366004611945565b610b37565b3480156103b157600080fd5b506101b06103c036600461195d565b6000918252602082815260408084206001600160a01b0393909316845291905290205460ff1690565b3480156103f557600080fd5b5061021b600081565b34801561040a57600080fd5b506104327f000000000000000000000000000000000000000000000000000000000000000081565b6040516001600160a01b0390911681526020016101bc565b34801561045657600080fd5b5061027961046536600461195d565b610b42565b34801561047657600080fd5b5061027961048536600461188a565b610b67565b34801561049657600080fd5b506102796104a5366004611a45565b610b91565b3480156104b657600080fd5b5061021b6104c5366004611a0f565b610d56565b3480156104d657600080fd5b506102796104e536600461188a565b610d6d565b3480156104f657600080fd5b5061021b7f339759585899103d2ace64958e37e18ccb0504652c81d4a1b8aa80fe2126ab9581565b60006001600160e01b031982167f7965db0b00000000000000000000000000000000000000000000000000000000148061058157507f01ffc9a7000000000000000000000000000000000000000000000000000000006001600160e01b03198316145b92915050565b6002805461059490611c68565b80601f01602080910402602001604051908101604052809291908181526020018280546105c090611c68565b801561060d5780601f106105e25761010080835404028352916020019161060d565b820191906000526020600020905b8154815290600101906020018083116105f057829003601f168201915b505050505081565b60008281526020819052604090206001015461063081610d84565b61063a8383610d8e565b505050565b6001600160a01b03811633146106c25760405162461bcd60e51b815260206004820152602f60248201527f416363657373436f6e74726f6c3a2063616e206f6e6c792072656e6f756e636560448201527f20726f6c657320666f722073656c66000000000000000000000000000000000060648201526084015b60405180910390fd5b6106cc8282610e2c565b5050565b3360008181527fa54247010af6b3693b80aceddfad12e077c5de3571e6243fada502635f0d7d39602052604090205460ff1661075f5760405162461bcd60e51b815260206004820152602860248201527f4d61696e7461696e61626c653a2043616c6c6572206973206e6f742061206d6160448201526734b73a30b4b732b960c11b60648201526084016106b9565b600082116107af5760405162461bcd60e51b815260206004820152601e60248201527f59616b416461707465723a204e6f7468696e6720746f207265636f766572000060448201526064016106b9565b604051339083156108fc029084906000818181858888f193505050501580156107dc573d6000803e3d6000fd5b506040518281526000907f8c1256b8896378cd5044f80c202f9772b9d77dc85c8a6eb51967210b09bfaa28906020015b60405180910390a25050565b6108427f339759585899103d2ace64958e37e18ccb0504652c81d4a1b8aa80fe2126ab9582610615565b50565b3360008181527fa54247010af6b3693b80aceddfad12e077c5de3571e6243fada502635f0d7d39602052604090205460ff166108d45760405162461bcd60e51b815260206004820152602860248201527f4d61696e7461696e61626c653a2043616c6c6572206973206e6f742061206d6160448201526734b73a30b4b732b960c11b60648201526084016106b9565b61063a6001600160a01b038416836000610eab565b3360008181527fa54247010af6b3693b80aceddfad12e077c5de3571e6243fada502635f0d7d39602052604090205460ff166109785760405162461bcd60e51b815260206004820152602860248201527f4d61696e7461696e61626c653a2043616c6c6572206973206e6f742061206d6160448201526734b73a30b4b732b960c11b60648201526084016106b9565b816109c55760405162461bcd60e51b815260206004820152601460248201527f496e76616c6964206761732d657374696d61746500000000000000000000000060448201526064016106b9565b600182905560405182815230907ff43f23b7a28e6f8ce6843a21bd7b48bce778aa913b8c8cf459edf7d770e8d38a9060200161080c565b3360008181527fa54247010af6b3693b80aceddfad12e077c5de3571e6243fada502635f0d7d39602052604090205460ff16610a8b5760405162461bcd60e51b815260206004820152602860248201527f4d61696e7461696e61626c653a2043616c6c6572206973206e6f742061206d6160448201526734b73a30b4b732b960c11b60648201526084016106b9565b60008211610adb5760405162461bcd60e51b815260206004820152601e60248201527f59616b416461707465723a204e6f7468696e6720746f207265636f766572000060448201526064016106b9565b610aef6001600160a01b0384163384611050565b826001600160a01b03167f8c1256b8896378cd5044f80c202f9772b9d77dc85c8a6eb51967210b09bfaa2883604051610b2a91815260200190565b60405180910390a2505050565b336106cc828261063f565b600082815260208190526040902060010154610b5d81610d84565b61063a8383610e2c565b6108427f339759585899103d2ace64958e37e18ccb0504652c81d4a1b8aa80fe2126ab9582610b42565b6040516370a0823160e01b81526001600160a01b038281166004830152600091908416906370a082319060240160206040518083038186803b158015610bd657600080fd5b505afa158015610bea573d6000803e3d6000fd5b505050506040513d601f19601f82011682018060405250810190610c0e91906119f7565b9050610c1d8686868686611099565b6040516370a0823160e01b81526001600160a01b03838116600483015260009183918616906370a082319060240160206040518083038186803b158015610c6357600080fd5b505afa158015610c77573d6000803e3d6000fd5b505050506040513d601f19601f82011682018060405250810190610c9b91906119f7565b610ca59190611c0e565b905085811015610cf75760405162461bcd60e51b815260206004820152601760248201527f496e73756666696369656e7420616d6f756e742d6f757400000000000000000060448201526064016106b9565b836001600160a01b0316856001600160a01b03167fe2bdbc6b7225eb0a972ac943c485a6cc05f7c6811838bce8903f23200fb744fa8989604051610d45929190918252602082015260400190565b60405180910390a350505050505050565b6000610d63848484611216565b90505b9392505050565b33610d79600083610615565b6106cc60008261063f565b61084281336113f5565b6000828152602081815260408083206001600160a01b038516845290915290205460ff166106cc576000828152602081815260408083206001600160a01b03851684529091529020805460ff19166001179055610de83390565b6001600160a01b0316816001600160a01b0316837f2f8788117e7eff1d82e926ec794901d17c78024a50270940304540a733656f0d60405160405180910390a45050565b6000828152602081815260408083206001600160a01b038516845290915290205460ff16156106cc576000828152602081815260408083206001600160a01b0385168085529252808320805460ff1916905551339285917ff6391f5c32d9c69d2a47ea670b442974b53935d1edc7fd64eb21e047a839171b9190a45050565b801580610f4d57506040517fdd62ed3e0000000000000000000000000000000000000000000000000000000081523060048201526001600160a01b03838116602483015284169063dd62ed3e9060440160206040518083038186803b158015610f1357600080fd5b505afa158015610f27573d6000803e3d6000fd5b505050506040513d601f19601f82011682018060405250810190610f4b91906119f7565b155b610fbf5760405162461bcd60e51b815260206004820152603660248201527f5361666545524332303a20617070726f76652066726f6d206e6f6e2d7a65726f60448201527f20746f206e6f6e2d7a65726f20616c6c6f77616e63650000000000000000000060648201526084016106b9565b6040516001600160a01b03831660248201526044810182905261063a9084907f095ea7b300000000000000000000000000000000000000000000000000000000906064015b60408051601f198184030181529190526020810180517bffffffffffffffffffffffffffffffffffffffffffffffffffffffff166001600160e01b031990931692909217909152611473565b6040516001600160a01b03831660248201526044810182905261063a9084907fa9059cbb0000000000000000000000000000000000000000000000000000000090606401611004565b60405163e6a4390560e01b81526001600160a01b03848116600483015283811660248301526000917f00000000000000000000000000000000000000000000000000000000000000009091169063e6a439059060440160206040518083038186803b15801561110757600080fd5b505afa15801561111b573d6000803e3d6000fd5b505050506040513d601f19601f8201168201806040525081019061113f91906118a6565b9050600080846001600160a01b0316866001600160a01b03161061116557866000611169565b6000875b90925090506111826001600160a01b038716848a611050565b604080516000815260208101918290527f022c0d9f000000000000000000000000000000000000000000000000000000009091526001600160a01b0384169063022c0d9f906111da9085908590899060248101611b7f565b600060405180830381600087803b1580156111f457600080fd5b505af1158015611208573d6000803e3d6000fd5b505050505050505050505050565b6000816001600160a01b0316836001600160a01b03161480611236575083155b1561124357506000610d66565b60405163e6a4390560e01b81526001600160a01b03848116600483015283811660248301526000917f00000000000000000000000000000000000000000000000000000000000000009091169063e6a439059060440160206040518083038186803b1580156112b157600080fd5b505afa1580156112c5573d6000803e3d6000fd5b505050506040513d601f19601f820116820180604052508101906112e991906118a6565b90506001600160a01b038116611303576000915050610d66565b600080826001600160a01b0316630902f1ac6040518163ffffffff1660e01b815260040160606040518083038186803b15801561133f57600080fd5b505afa158015611353573d6000803e3d6000fd5b505050506040513d601f19601f8201168201806040525081019061137791906119a9565b506dffffffffffffffffffffffffffff1691506dffffffffffffffffffffffffffff169150600080866001600160a01b0316886001600160a01b0316106113bf5782846113c2565b83835b915091506000821180156113d65750600081115b156113e9576113e68983836115b5565b95505b50505050509392505050565b6000828152602081815260408083206001600160a01b038516845290915290205460ff166106cc57611431816001600160a01b03166014611640565b61143c836020611640565b60405160200161144d929190611aeb565b60408051601f198184030181529082905262461bcd60e51b82526106b991600401611b6c565b600080836001600160a01b03168360405161148e9190611acf565b6000604051808303816000865af19150503d80600081146114cb576040519150601f19603f3d011682016040523d82523d6000602084013e6114d0565b606091505b5091509150816115225760405162461bcd60e51b815260206004820181905260248201527f5361666545524332303a206c6f772d6c6576656c2063616c6c206661696c656460448201526064016106b9565b8051156115af578080602001905181019061153d9190611925565b6115af5760405162461bcd60e51b815260206004820152602a60248201527f5361666545524332303a204552433230206f7065726174696f6e20646964206e60448201527f6f7420737563636565640000000000000000000000000000000000000000000060648201526084016106b9565b50505050565b6000806115e27f000000000000000000000000000000000000000000000000000000000000000086611bef565b905060006115f08483611bef565b905060008261161f7f000000000000000000000000000000000000000000000000000000000000000088611bef565b6116299190611bb7565b90506116358183611bcf565b979650505050505050565b6060600061164f836002611bef565b61165a906002611bb7565b67ffffffffffffffff81111561168057634e487b7160e01b600052604160045260246000fd5b6040519080825280601f01601f1916602001820160405280156116aa576020820181803683370190505b5090507f3000000000000000000000000000000000000000000000000000000000000000816000815181106116ef57634e487b7160e01b600052603260045260246000fd5b60200101906001600160f81b031916908160001a9053507f78000000000000000000000000000000000000000000000000000000000000008160018151811061174857634e487b7160e01b600052603260045260246000fd5b60200101906001600160f81b031916908160001a905350600061176c846002611bef565b611777906001611bb7565b90505b6001811115611818577f303132333435363738396162636465660000000000000000000000000000000085600f16601081106117c657634e487b7160e01b600052603260045260246000fd5b1a60f81b8282815181106117ea57634e487b7160e01b600052603260045260246000fd5b60200101906001600160f81b031916908160001a90535060049490941c9361181181611c51565b905061177a565b508315610d665760405162461bcd60e51b815260206004820181905260248201527f537472696e67733a20686578206c656e67746820696e73756666696369656e7460448201526064016106b9565b80516dffffffffffffffffffffffffffff8116811461188557600080fd5b919050565b60006020828403121561189b578081fd5b8135610d6681611cb9565b6000602082840312156118b7578081fd5b8151610d6681611cb9565b600080604083850312156118d4578081fd5b82356118df81611cb9565b915060208301356118ef81611cb9565b809150509250929050565b6000806040838503121561190c578182fd5b823561191781611cb9565b946020939093013593505050565b600060208284031215611936578081fd5b81518015158114610d66578182fd5b600060208284031215611956578081fd5b5035919050565b6000806040838503121561196f578182fd5b8235915060208301356118ef81611cb9565b600060208284031215611992578081fd5b81356001600160e01b031981168114610d66578182fd5b6000806000606084860312156119bd578081fd5b6119c684611867565b92506119d460208501611867565b9150604084015163ffffffff811681146119ec578182fd5b809150509250925092565b600060208284031215611a08578081fd5b5051919050565b600080600060608486031215611a23578283fd5b833592506020840135611a3581611cb9565b915060408401356119ec81611cb9565b600080600080600060a08688031215611a5c578081fd5b85359450602086013593506040860135611a7581611cb9565b92506060860135611a8581611cb9565b91506080860135611a9581611cb9565b809150509295509295909350565b60008151808452611abb816020860160208601611c25565b601f01601f19169290920160200192915050565b60008251611ae1818460208701611c25565b9190910192915050565b7f416363657373436f6e74726f6c3a206163636f756e7420000000000000000000815260008351611b23816017850160208801611c25565b7f206973206d697373696e6720726f6c65200000000000000000000000000000006017918401918201528351611b60816028840160208801611c25565b01602801949350505050565b602081526000610d666020830184611aa3565b8481528360208201526001600160a01b0383166040820152608060608201526000611bad6080830184611aa3565b9695505050505050565b60008219821115611bca57611bca611ca3565b500190565b600082611bea57634e487b7160e01b81526012600452602481fd5b500490565b6000816000190483118215151615611c0957611c09611ca3565b500290565b600082821015611c2057611c20611ca3565b500390565b60005b83811015611c40578181015183820152602001611c28565b838111156115af5750506000910152565b600081611c6057611c60611ca3565b506000190190565b600181811c90821680611c7c57607f821691505b60208210811415611c9d57634e487b7160e01b600052602260045260246000fd5b50919050565b634e487b7160e01b600052601160045260246000fd5b6001600160a01b038116811461084257600080fdfea2646970667358221220e6abf3b11075dbff7ab5ade194cea68aa70c4f05c55b9287f6503431dc4307e364736f6c63430008040033",
  "devdoc": {
    "kind": "dev",
    "methods": {
      "getRoleAdmin(bytes32)": {
        "details": "Returns the admin role that controls `role`. See {grantRole} and {revokeRole}. To change a role's admin, use {_setRoleAdmin}."
      },
      "grantRole(bytes32,address)": {
        "details": "Grants `role` to `account`. If `account` had not been already granted `role`, emits a {RoleGranted} event. Requirements: - the caller must have ``role``'s admin role. May emit a {RoleGranted} event."
      },
      "hasRole(bytes32,address)": {
        "details": "Returns `true` if `account` has been granted `role`."
      },
      "renounceRole(bytes32,address)": {
        "details": "Revokes `role` from the calling account. Roles are often managed via {grantRole} and {revokeRole}: this function's purpose is to provide a mechanism for accounts to lose their privileges if they are compromised (such as when a trusted device is misplaced). If the calling account had been revoked `role`, emits a {RoleRevoked} event. Requirements: - the caller must be `account`. May emit a {RoleRevoked} event."
      },
      "revokeRole(bytes32,address)": {
        "details": "Revokes `role` from `account`. If `account` had been granted `role`, emits a {RoleRevoked} event. Requirements: - the caller must have ``role``'s admin role. May emit a {RoleRevoked} event."
      },
      "supportsInterface(bytes4)": {
        "details": "See {IERC165-supportsInterface}."
      }
    },
    "version": 1
  },
  "userdoc": {
    "kind": "user",
    "methods": {},
    "version": 1
  },
  "storageLayout": {
    "storage": [
      {
        "astId": 24,
        "contract": "src/contracts/adapters/UniswapV2Adapter.sol:UniswapV2Adapter",
        "label": "_roles",
        "offset": 0,
        "slot": "0",
        "type": "t_mapping(t_bytes32,t_struct(RoleData)19_storage)"
      },
      {
        "astId": 718,
        "contract": "src/contracts/adapters/UniswapV2Adapter.sol:UniswapV2Adapter",
        "label": "swapGasEstimate",
        "offset": 0,
        "slot": "1",
        "type": "t_uint256"
      },
      {
        "astId": 720,
        "contract": "src/contracts/adapters/UniswapV2Adapter.sol:UniswapV2Adapter",
        "label": "name",
        "offset": 0,
        "slot": "2",
        "type": "t_string_storage"
      }
    ],
    "types": {
      "t_address": {
        "encoding": "inplace",
        "label": "address",
        "numberOfBytes": "20"
      },
      "t_bool": {
        "encoding": "inplace",
        "label": "bool",
        "numberOfBytes": "1"
      },
      "t_bytes32": {
        "encoding": "inplace",
        "label": "bytes32",
        "numberOfBytes": "32"
      },
      "t_mapping(t_address,t_bool)": {
        "encoding": "mapping",
        "key": "t_address",
        "label": "mapping(address => bool)",
        "numberOfBytes": "32",
        "value": "t_bool"
      },
      "t_mapping(t_bytes32,t_struct(RoleData)19_storage)": {
        "encoding": "mapping",
        "key": "t_bytes32",
        "label": "mapping(bytes32 => struct AccessControl.RoleData)",
        "numberOfBytes": "32",
        "value": "t_struct(RoleData)19_storage"
      },
      "t_string_storage": {
        "encoding": "bytes",
        "label": "string",
        "numberOfBytes": "32"
      },
      "t_struct(RoleData)19_storage": {
        "encoding": "inplace",
        "label": "struct AccessControl.RoleData",
        "members": [
          {
            "astId": 16,
            "contract": "src/contracts/adapters/UniswapV2Adapter.sol:UniswapV2Adapter",
            "label": "members",
            "offset": 0,
            "slot": "0",
            "type": "t_mapping(t_address,t_bool)"
          },
          {
            "astId": 18,
            "contract": "src/contracts/adapters/UniswapV2Adapter.sol:UniswapV2Adapter",
            "label": "adminRole",
            "offset": 0,
            "slot": "1",
            "type": "t_bytes32"
          }
        ],
        "numberOfBytes": "64"
      },
      "t_uint256": {
        "encoding": "inplace",
        "label": "uint256",
        "numberOfBytes": "32"
      }
    }
  }
}