{
  "abi": [
    {
      "inputs": [
        {
          "internalType": "string",
          "name": "_name",
          "type": "string"
        },
        {
          "internalType": "address",
          "name": "_pool",
          "type": "address"
        },
        {
          "internalType": "uint256",
          "name": "_swapGasEstimate",
          "type": "uint256"
        }
      ],
      "stateMutability": "nonpayable",
      "type": "constructor"
    },
    {
      "anonymous": false,
      "inputs": [
        {
          "indexed": true,
          "internalType": "address",
          "name": "_asset",
          "type": "address"
        },
        {
          "indexed": false,
          "internalType": "uint256",
          "name": "amount",
          "type": "uint256"
        }
      ],
      "name": "Recovered",
      "type": "event"
    },
    {
      "anonymous": false,
      "inputs": [
        {
          "indexed": true,
          "internalType": "bytes32",
          "name": "role",
          "type": "bytes32"
        },
        {
          "indexed": true,
          "internalType": "bytes32",
          "name": "previousAdminRole",
          "type": "bytes32"
        },
        {
          "indexed": true,
          "internalType": "bytes32",
          "name": "newAdminRole",
          "type": "bytes32"
        }
      ],
      "name": "RoleAdminChanged",
      "type": "event"
    },
    {
      "anonymous": false,
      "inputs": [
        {
          "indexed": true,
          "internalType": "bytes32",
          "name": "role",
          "type": "bytes32"
        },
        {
          "indexed": true,
          "internalType": "address",
          "name": "account",
          "type": "address"
        },
        {
          "indexed": true,
          "internalType": "address",
          "name": "sender",
          "type": "address"
        }
      ],
      "name": "RoleGranted",
      "type": "event"
    },
    {
      "anonymous": false,
      "inputs": [
        {
          "indexed": true,
          "internalType": "bytes32",
          "name": "role",
          "type": "bytes32"
        },
        {
          "indexed": true,
          "internalType": "address",
          "name": "account",
          "type": "address"
        },
        {
          "indexed": true,
          "internalType": "address",
          "name": "sender",
          "type": "address"
        }
      ],
      "name": "RoleRevoked",
      "type": "event"
    },
    {
      "anonymous": false,
      "inputs": [
        {
          "indexed": true,
          "internalType": "address",
          "name": "_adapter",
          "type": "address"
        },
        {
          "indexed": false,
          "internalType": "uint256",
          "name": "_newEstimate",
          "type": "uint256"
        }
      ],
      "name": "UpdatedGasEstimate",
      "type": "event"
    },
    {
      "anonymous": false,
      "inputs": [
        {
          "indexed": true,
          "internalType": "address",
          "name": "_tokenFrom",
          "type": "address"
        },
        {
          "indexed": true,
          "internalType": "address",
          "name": "_tokenTo",
          "type": "address"
        },
        {
          "indexed": false,
          "internalType": "uint256",
          "name": "_amountIn",
          "type": "uint256"
        },
        {
          "indexed": false,
          "internalType": "uint256",
          "name": "_amountOut",
          "type": "uint256"
        }
      ],
      "name": "YakAdapterSwap",
      "type": "event"
    },
    {
      "inputs": [],
      "name": "DEFAULT_ADMIN_ROLE",
      "outputs": [
        {
          "internalType": "bytes32",
          "name": "",
          "type": "bytes32"
        }
      ],
      "stateMutability": "view",
      "type": "function"
    },
    {
      "inputs": [],
      "name": "MAINTAINER_ROLE",
      "outputs": [
        {
          "internalType": "bytes32",
          "name": "",
          "type": "bytes32"
        }
      ],
      "stateMutability": "view",
      "type": "function"
    },
    {
      "inputs": [
        {
          "internalType": "address",
          "name": "addedMaintainer",
          "type": "address"
        }
      ],
      "name": "addMaintainer",
      "outputs": [],
      "stateMutability": "nonpayable",
      "type": "function"
    },
    {
      "inputs": [],
      "name": "feeDenominator",
      "outputs": [
        {
          "internalType": "uint256",
          "name": "",
          "type": "uint256"
        }
      ],
      "stateMutability": "view",
      "type": "function"
    },
    {
      "inputs": [
        {
          "internalType": "bytes32",
          "name": "role",
          "type": "bytes32"
        }
      ],
      "name": "getRoleAdmin",
      "outputs": [
        {
          "internalType": "bytes32",
          "name": "",
          "type": "bytes32"
        }
      ],
      "stateMutability": "view",
      "type": "function"
    },
    {
      "inputs": [
        {
          "internalType": "bytes32",
          "name": "role",
          "type": "bytes32"
        },
        {
          "internalType": "address",
          "name": "account",
          "type": "address"
        }
      ],
      "name": "grantRole",
      "outputs": [],
      "stateMutability": "nonpayable",
      "type": "function"
    },
    {
      "inputs": [
        {
          "internalType": "bytes32",
          "name": "role",
          "type": "bytes32"
        },
        {
          "internalType": "address",
          "name": "account",
          "type": "address"
        }
      ],
      "name": "hasRole",
      "outputs": [
        {
          "internalType": "bool",
          "name": "",
          "type": "bool"
        }
      ],
      "stateMutability": "view",
      "type": "function"
    },
    {
      "inputs": [
        {
          "internalType": "address",
          "name": "",
          "type": "address"
        }
      ],
      "name": "isPoolToken",
      "outputs": [
        {
          "internalType": "bool",
          "name": "",
          "type": "bool"
        }
      ],
      "stateMutability": "view",
      "type": "function"
    },
    {
      "inputs": [],
      "name": "metaPool",
      "outputs": [
        {
          "internalType": "address",
          "name": "",
          "type": "address"
        }
      ],
      "stateMutability": "view",
      "type": "function"
    },
    {
      "inputs": [],
      "name": "metaTkn",
      "outputs": [
        {
          "internalType": "address",
          "name": "",
          "type": "address"
        }
      ],
      "stateMutability": "view",
      "type": "function"
    },
    {
      "inputs": [],
      "name": "name",
      "outputs": [
        {
          "internalType": "string",
          "name": "",
          "type": "string"
        }
      ],
      "stateMutability": "view",
      "type": "function"
    },
    {
      "inputs": [],
      "name": "pool",
      "outputs": [
        {
          "internalType": "address",
          "name": "",
          "type": "address"
        }
      ],
      "stateMutability": "view",
      "type": "function"
    },
    {
      "inputs": [],
      "name": "poolFeeCompliment",
      "outputs": [
        {
          "internalType": "uint256",
          "name": "",
          "type": "uint256"
        }
      ],
      "stateMutability": "view",
      "type": "function"
    },
    {
      "inputs": [
        {
          "internalType": "uint256",
          "name": "_amountIn",
          "type": "uint256"
        },
        {
          "internalType": "address",
          "name": "_tokenIn",
          "type": "address"
        },
        {
          "internalType": "address",
          "name": "_tokenOut",
          "type": "address"
        }
      ],
      "name": "query",
      "outputs": [
        {
          "internalType": "uint256",
          "name": "",
          "type": "uint256"
        }
      ],
      "stateMutability": "view",
      "type": "function"
    },
    {
      "inputs": [
        {
          "internalType": "uint256",
          "name": "_amount",
          "type": "uint256"
        }
      ],
      "name": "recoverAVAX",
      "outputs": [],
      "stateMutability": "nonpayable",
      "type": "function"
    },
    {
      "inputs": [
        {
          "internalType": "address",
          "name": "_tokenAddress",
          "type": "address"
        },
        {
          "internalType": "uint256",
          "name": "_tokenAmount",
          "type": "uint256"
        }
      ],
      "name": "recoverERC20",
      "outputs": [],
      "stateMutability": "nonpayable",
      "type": "function"
    },
    {
      "inputs": [
        {
          "internalType": "address",
          "name": "removedMaintainer",
          "type": "address"
        }
      ],
      "name": "removeMaintainer",
      "outputs": [],
      "stateMutability": "nonpayable",
      "type": "function"
    },
    {
      "inputs": [
        {
          "internalType": "bytes32",
          "name": "role",
          "type": "bytes32"
        },
        {
          "internalType": "address",
          "name": "account",
          "type": "address"
        }
      ],
      "name": "renounceRole",
      "outputs": [],
      "stateMutability": "nonpayable",
      "type": "function"
    },
    {
      "inputs": [
        {
          "internalType": "bytes32",
          "name": "role",
          "type": "bytes32"
        }
      ],
      "name": "renounceRole",
      "outputs": [],
      "stateMutability": "nonpayable",
      "type": "function"
    },
    {
      "inputs": [
        {
          "internalType": "address",
          "name": "_token",
          "type": "address"
        },
        {
          "internalType": "address",
          "name": "_spender",
          "type": "address"
        }
      ],
      "name": "revokeAllowance",
      "outputs": [],
      "stateMutability": "nonpayable",
      "type": "function"
    },
    {
      "inputs": [
        {
          "internalType": "bytes32",
          "name": "role",
          "type": "bytes32"
        },
        {
          "internalType": "address",
          "name": "account",
          "type": "address"
        }
      ],
      "name": "revokeRole",
      "outputs": [],
      "stateMutability": "nonpayable",
      "type": "function"
    },
    {
      "inputs": [
        {
          "internalType": "uint256",
          "name": "_estimate",
          "type": "uint256"
        }
      ],
      "name": "setSwapGasEstimate",
      "outputs": [],
      "stateMutability": "nonpayable",
      "type": "function"
    },
    {
      "inputs": [
        {
          "internalType": "bytes4",
          "name": "interfaceId",
          "type": "bytes4"
        }
      ],
      "name": "supportsInterface",
      "outputs": [
        {
          "internalType": "bool",
          "name": "",
          "type": "bool"
        }
      ],
      "stateMutability": "view",
      "type": "function"
    },
    {
      "inputs": [
        {
          "internalType": "uint256",
          "name": "_amountIn",
          "type": "uint256"
        },
        {
          "internalType": "uint256",
          "name": "_amountOut",
          "type": "uint256"
        },
        {
          "internalType": "address",
          "name": "_fromToken",
          "type": "address"
        },
        {
          "internalType": "address",
          "name": "_toToken",
          "type": "address"
        },
        {
          "internalType": "address",
          "name": "_to",
          "type": "address"
        }
      ],
      "name": "swap",
      "outputs": [],
      "stateMutability": "nonpayable",
      "type": "function"
    },
    {
      "inputs": [],
      "name": "swapGasEstimate",
      "outputs": [
        {
          "internalType": "uint256",
          "name": "",
          "type": "uint256"
        }
      ],
      "stateMutability": "view",
      "type": "function"
    },
    {
      "inputs": [
        {
          "internalType": "address",
          "name": "",
          "type": "address"
        }
      ],
      "name": "tokenIndex",
      "outputs": [
        {
          "internalType": "uint8",
          "name": "",
          "type": "uint8"
        }
      ],
      "stateMutability": "view",
      "type": "function"
    },
    {
      "inputs": [
        {
          "internalType": "address",
          "name": "newOwner",
          "type": "address"
        }
      ],
      "name": "transferOwnership",
      "outputs": [],
      "stateMutability": "nonpayable",
      "type": "function"
    },
    {
      "stateMutability": "payable",
      "type": "receive"
    }
  ],
  "bytecode": {
    "object": "0x60806040523480156200001157600080fd5b5060405162002586380380620025868339810160408190526200003491620008a2565b828133620000446000826200012d565b6200005f60008051602062002566833981519152826200012d565b506200006b826200013d565b6200007681620001a2565b5050600880546001600160a01b0319166001600160a01b03841690811790915560408051632d74d4e960e01b81529051632d74d4e99160048082019260209290919082900301816000875af1158015620000d4573d6000803e3d6000fd5b505050506040513d601f19601f82011682018060405250810190620000fa919062000978565b600680546001600160a01b0319166001600160a01b039290921691909117905562000124620002ad565b50505062000ba7565b6200013982826200045f565b5050565b8051600003620001945760405162461bcd60e51b815260206004820152601460248201527f496e76616c69642061646170746572206e616d6500000000000000000000000060448201526064015b60405180910390fd5b600262000139828262000a2b565b33620001be6000805160206200256683398151915282620004e7565b6200021d5760405162461bcd60e51b815260206004820152602860248201527f4d61696e7461696e61626c653a2043616c6c6572206973206e6f742061206d6160448201526734b73a30b4b732b960c11b60648201526084016200018b565b816000036200026f5760405162461bcd60e51b815260206004820152601460248201527f496e76616c6964206761732d657374696d61746500000000000000000000000060448201526064016200018b565b600182905560405182815230907ff43f23b7a28e6f8ce6843a21bd7b48bce778aa913b8c8cf459edf7d770e8d38a9060200160405180910390a25050565b60085460405162415c3360e91b8152600060048201526001600160a01b03909116906382b8660090602401602060405180830381865afa158015620002f6573d6000803e3d6000fd5b505050506040513d601f19601f820116820180604052508101906200031c919062000978565b600780546001600160a01b0319166001600160a01b03929092169182179055620003499060001962000512565b6007546001600160a01b03166000908152600460205260408120805460ff191690555b60065460405162415c3360e91b815260ff831660048201526001600160a01b03909116906382b8660090602401602060405180830381865afa925050508015620003d5575060408051601f3d908101601f19168201909252620003d29181019062000978565b60015b156200045c57620003e98160001962000512565b6001600160a01b0381166000908152600360205260409020805460ff191660019081179091556200041c90839062000b0d565b6001600160a01b03919091166000908152600460205260409020805460ff191660ff90921691909117905580620004538162000b29565b9150506200036c565b50565b6200046b8282620004e7565b62000139576000828152602081815260408083206001600160a01b03851684529091529020805460ff19166001179055620004a33390565b6001600160a01b0316816001600160a01b0316837f2f8788117e7eff1d82e926ec794901d17c78024a50270940304540a733656f0d60405160405180910390a45050565b6000828152602081815260408083206001600160a01b038516845290915290205460ff165b92915050565b600854604051636eb1769f60e11b81523060048201526001600160a01b03918216602482015260009184169063dd62ed3e90604401602060405180830381865afa15801562000565573d6000803e3d6000fd5b505050506040513d601f19601f820116820180604052508101906200058b919062000b4b565b905081811015620005c057600854620005c0906001600160a01b038581169116600019620005c5602090811b62000c0817901c565b505050565b801580620006435750604051636eb1769f60e11b81523060048201526001600160a01b03838116602483015284169063dd62ed3e90604401602060405180830381865afa1580156200061b573d6000803e3d6000fd5b505050506040513d601f19601f8201168201806040525081019062000641919062000b4b565b155b620006b75760405162461bcd60e51b815260206004820152603660248201527f5361666545524332303a20617070726f76652066726f6d206e6f6e2d7a65726f60448201527f20746f206e6f6e2d7a65726f20616c6c6f77616e63650000000000000000000060648201526084016200018b565b604080516001600160a01b038416602482015260448082018490528251808303909101815260649091019091526020810180516001600160e01b0390811663095ea7b360e01b17909152620005c09185916200070f16565b600080836001600160a01b0316836040516200072c919062000b65565b6000604051808303816000865af19150503d80600081146200076b576040519150601f19603f3d011682016040523d82523d6000602084013e62000770565b606091505b509150915081620007c45760405162461bcd60e51b815260206004820181905260248201527f5361666545524332303a206c6f772d6c6576656c2063616c6c206661696c656460448201526064016200018b565b805115620008435780806020019051810190620007e2919062000b83565b620008435760405162461bcd60e51b815260206004820152602a60248201527f5361666545524332303a204552433230206f7065726174696f6e20646964206e6044820152691bdd081cdd58d8d9595960b21b60648201526084016200018b565b50505050565b634e487b7160e01b600052604160045260246000fd5b60005b838110156200087c57818101518382015260200162000862565b50506000910152565b80516001600160a01b03811681146200089d57600080fd5b919050565b600080600060608486031215620008b857600080fd5b83516001600160401b0380821115620008d057600080fd5b818601915086601f830112620008e557600080fd5b815181811115620008fa57620008fa62000849565b604051601f8201601f19908116603f0116810190838211818310171562000925576200092562000849565b816040528281528960208487010111156200093f57600080fd5b620009528360208301602088016200085f565b8097505050505050620009686020850162000885565b9150604084015190509250925092565b6000602082840312156200098b57600080fd5b620009968262000885565b9392505050565b600181811c90821680620009b257607f821691505b602082108103620009d357634e487b7160e01b600052602260045260246000fd5b50919050565b601f821115620005c057600081815260208120601f850160051c8101602086101562000a025750805b601f850160051c820191505b8181101562000a235782815560010162000a0e565b505050505050565b81516001600160401b0381111562000a475762000a4762000849565b62000a5f8162000a5884546200099d565b84620009d9565b602080601f83116001811462000a97576000841562000a7e5750858301515b600019600386901b1c1916600185901b17855562000a23565b600085815260208120601f198616915b8281101562000ac85788860151825594840194600190910190840162000aa7565b508582101562000ae75787850151600019600388901b60f8161c191681555b5050505050600190811b01905550565b634e487b7160e01b600052601160045260246000fd5b60ff81811683821601908111156200050c576200050c62000af7565b600060ff821660ff810362000b425762000b4262000af7565b60010192915050565b60006020828403121562000b5e57600080fd5b5051919050565b6000825162000b798184602087016200085f565b9190910192915050565b60006020828403121562000b9657600080fd5b815180151581146200099657600080fd5b6119af8062000bb76000396000f3fe6080604052600436106101a05760003560e01c80637ae26773116100ec578063d8baf7cf1161008a578063ef99893a11610064578063ef99893a146104e7578063f2fde38b14610507578063f45dc47814610527578063f87422541461054757600080fd5b8063d8baf7cf14610477578063de260f3714610497578063eab90da6146104c757600080fd5b80638bb9c5bf116100c65780638bb9c5bf1461040257806391d1485414610422578063a217fddf14610442578063d547741f1461045757600080fd5b80637ae26773146103a257806384a33e63146103c25780638980f11f146103e257600080fd5b80632f2ff15d116101595780634ebb7916116101335780634ebb79161461032c5780635acb5da91461034c57806369cff80d1461036c5780636b453c1f1461038257600080fd5b80632f2ff15d146102a857806336568abe146102ca578063427f91a6146102ea57600080fd5b806301ffc9a7146101ac57806306fdde03146101e157806316f0115b14610203578063180b0d7e1461023b578063248a9ca3146102625780632580d3651461029257600080fd5b366101a757005b600080fd5b3480156101b857600080fd5b506101cc6101c736600461156f565b610569565b60405190151581526020015b60405180910390f35b3480156101ed57600080fd5b506101f66105a0565b6040516101d891906115bd565b34801561020f57600080fd5b50600854610223906001600160a01b031681565b6040516001600160a01b0390911681526020016101d8565b34801561024757600080fd5b506102546402540be40081565b6040519081526020016101d8565b34801561026e57600080fd5b5061025461027d3660046115f0565b60009081526020819052604090206001015490565b34801561029e57600080fd5b5061025460055481565b3480156102b457600080fd5b506102c86102c3366004611625565b61062e565b005b3480156102d657600080fd5b506102c86102e5366004611625565b610658565b3480156102f657600080fd5b5061031a610305366004611651565b60046020526000908152604090205460ff1681565b60405160ff90911681526020016101d8565b34801561033857600080fd5b506102c86103473660046115f0565b6106db565b34801561035857600080fd5b50600654610223906001600160a01b031681565b34801561037857600080fd5b5061025460015481565b34801561038e57600080fd5b506102c861039d366004611651565b6107c9565b3480156103ae57600080fd5b506102c86103bd36600461166c565b6107e4565b3480156103ce57600080fd5b506102c86103dd3660046115f0565b61082e565b3480156103ee57600080fd5b506102c86103fd366004611696565b6108e1565b34801561040e57600080fd5b506102c861041d3660046115f0565b6109c2565b34801561042e57600080fd5b506101cc61043d366004611625565b6109cd565b34801561044e57600080fd5b50610254600081565b34801561046357600080fd5b506102c8610472366004611625565b6109f6565b34801561048357600080fd5b506102c8610492366004611651565b610a1b565b3480156104a357600080fd5b506101cc6104b2366004611651565b60036020526000908152604090205460ff1681565b3480156104d357600080fd5b506102c86104e23660046116c0565b610a33565b3480156104f357600080fd5b50610254610502366004611717565b610bda565b34801561051357600080fd5b506102c8610522366004611651565b610bf1565b34801561053357600080fd5b50600754610223906001600160a01b031681565b34801561055357600080fd5b5061025460008051602061195a83398151915281565b60006001600160e01b03198216637965db0b60e01b148061059a57506301ffc9a760e01b6001600160e01b03198316145b92915050565b600280546105ad90611753565b80601f01602080910402602001604051908101604052809291908181526020018280546105d990611753565b80156106265780601f106105fb57610100808354040283529160200191610626565b820191906000526020600020905b81548152906001019060200180831161060957829003601f168201915b505050505081565b60008281526020819052604090206001015461064981610d50565b6106538383610d5a565b505050565b6001600160a01b03811633146106cd5760405162461bcd60e51b815260206004820152602f60248201527f416363657373436f6e74726f6c3a2063616e206f6e6c792072656e6f756e636560448201526e103937b632b9903337b91039b2b63360891b60648201526084015b60405180910390fd5b6106d78282610dde565b5050565b336106f460008051602061195a833981519152826109cd565b6107105760405162461bcd60e51b81526004016106c49061178d565b600082116107605760405162461bcd60e51b815260206004820152601e60248201527f59616b416461707465723a204e6f7468696e6720746f207265636f766572000060448201526064016106c4565b604051339083156108fc029084906000818181858888f1935050505015801561078d573d6000803e3d6000fd5b506040518281526000907f8c1256b8896378cd5044f80c202f9772b9d77dc85c8a6eb51967210b09bfaa28906020015b60405180910390a25050565b6107e160008051602061195a8339815191528261062e565b50565b336107fd60008051602061195a833981519152826109cd565b6108195760405162461bcd60e51b81526004016106c49061178d565b6106536001600160a01b038416836000610c08565b3361084760008051602061195a833981519152826109cd565b6108635760405162461bcd60e51b81526004016106c49061178d565b816000036108aa5760405162461bcd60e51b8152602060048201526014602482015273496e76616c6964206761732d657374696d61746560601b60448201526064016106c4565b600182905560405182815230907ff43f23b7a28e6f8ce6843a21bd7b48bce778aa913b8c8cf459edf7d770e8d38a906020016107bd565b336108fa60008051602061195a833981519152826109cd565b6109165760405162461bcd60e51b81526004016106c49061178d565b600082116109665760405162461bcd60e51b815260206004820152601e60248201527f59616b416461707465723a204e6f7468696e6720746f207265636f766572000060448201526064016106c4565b61097a6001600160a01b0384163384610e43565b826001600160a01b03167f8c1256b8896378cd5044f80c202f9772b9d77dc85c8a6eb51967210b09bfaa28836040516109b591815260200190565b60405180910390a2505050565b336106d78282610658565b6000918252602082815260408084206001600160a01b0393909316845291905290205460ff1690565b600082815260208190526040902060010154610a1181610d50565b6106538383610dde565b6107e160008051602061195a833981519152826109f6565b6040516370a0823160e01b81526001600160a01b038281166004830152600091908416906370a0823190602401602060405180830381865afa158015610a7d573d6000803e3d6000fd5b505050506040513d601f19601f82011682018060405250810190610aa191906117d5565b9050610ab08686868686610e73565b6040516370a0823160e01b81526001600160a01b03838116600483015260009183918616906370a0823190602401602060405180830381865afa158015610afb573d6000803e3d6000fd5b505050506040513d601f19601f82011682018060405250810190610b1f91906117d5565b610b299190611804565b905085811015610b7b5760405162461bcd60e51b815260206004820152601760248201527f496e73756666696369656e7420616d6f756e742d6f757400000000000000000060448201526064016106c4565b836001600160a01b0316856001600160a01b03167fe2bdbc6b7225eb0a972ac943c485a6cc05f7c6811838bce8903f23200fb744fa8989604051610bc9929190918252602082015260400190565b60405180910390a350505050505050565b6000610be7848484610fa2565b90505b9392505050565b33610bfd60008361062e565b6106d7600082610658565b801580610c825750604051636eb1769f60e11b81523060048201526001600160a01b03838116602483015284169063dd62ed3e90604401602060405180830381865afa158015610c5c573d6000803e3d6000fd5b505050506040513d601f19601f82011682018060405250810190610c8091906117d5565b155b610ced5760405162461bcd60e51b815260206004820152603660248201527f5361666545524332303a20617070726f76652066726f6d206e6f6e2d7a65726f60448201527520746f206e6f6e2d7a65726f20616c6c6f77616e636560501b60648201526084016106c4565b6040516001600160a01b03831660248201526044810182905261065390849063095ea7b360e01b906064015b60408051601f198184030181529190526020810180516001600160e01b03166001600160e01b031990931692909217909152610fd0565b6107e181336110ff565b610d6482826109cd565b6106d7576000828152602081815260408083206001600160a01b03851684529091529020805460ff19166001179055610d9a3390565b6001600160a01b0316816001600160a01b0316837f2f8788117e7eff1d82e926ec794901d17c78024a50270940304540a733656f0d60405160405180910390a45050565b610de882826109cd565b156106d7576000828152602081815260408083206001600160a01b0385168085529252808320805460ff1916905551339285917ff6391f5c32d9c69d2a47ea670b442974b53935d1edc7fd64eb21e047a839171b9190a45050565b6040516001600160a01b03831660248201526044810182905261065390849063a9059cbb60e01b90606401610d19565b6008546001600160a01b03848116600090815260046020819052604080832054878516845292819020549051630f1c1f5d60e31b815260ff9384169281019290925291909116602482015260448101889052606481018790524260848201529116906378e0fae89060a4016020604051808303816000875af1158015610efd573d6000803e3d6000fd5b505050506040513d601f19601f82011682018060405250810190610f2191906117d5565b506040516370a0823160e01b81523060048201526000906001600160a01b038416906370a0823190602401602060405180830381865afa158015610f69573d6000803e3d6000fd5b505050506040513d601f19601f82011682018060405250810190610f8d91906117d5565b9050610f9a838284611163565b505050505050565b6000610faf848484611187565b8015610fc05750610fbe6111a4565b155b15610bea57610be7848484611294565b600080836001600160a01b031683604051610feb9190611817565b6000604051808303816000865af19150503d8060008114611028576040519150601f19603f3d011682016040523d82523d6000602084013e61102d565b606091505b50915091508161107f5760405162461bcd60e51b815260206004820181905260248201527f5361666545524332303a206c6f772d6c6576656c2063616c6c206661696c656460448201526064016106c4565b8051156110f9578080602001905181019061109a9190611833565b6110f95760405162461bcd60e51b815260206004820152602a60248201527f5361666545524332303a204552433230206f7065726174696f6e20646964206e6044820152691bdd081cdd58d8d9595960b21b60648201526084016106c4565b50505050565b61110982826109cd565b6106d757611121816001600160a01b03166014611342565b61112c836020611342565b60405160200161113d929190611855565b60408051601f198184030181529082905262461bcd60e51b82526106c4916004016115bd565b306001600160a01b03821614610653576106536001600160a01b0384168284610e43565b600061119383836114de565b8015610be757505050901515919050565b60085460408051635c975abb60e01b815290516000926001600160a01b031691635c975abb9160048083019260209291908290030181865afa1580156111ee573d6000803e3d6000fd5b505050506040513d601f19601f820116820180604052508101906112129190611833565b8061128f5750600660009054906101000a90046001600160a01b03166001600160a01b0316635c975abb6040518163ffffffff1660e01b8152600401602060405180830381865afa15801561126b573d6000803e3d6000fd5b505050506040513d601f19601f8201168201806040525081019061128f9190611833565b905090565b6008546001600160a01b038381166000908152600460208190526040808320548685168452818420549151631d7638f960e21b815260ff9182169381019390935216602482015260448101879052909291909116906375d8e3e490606401602060405180830381865afa92505050801561132b575060408051601f3d908101601f19168201909252611328918101906117d5565b60015b15610bea5761133981611554565b95945050505050565b606060006113518360026118ca565b61135c9060026118e1565b67ffffffffffffffff811115611374576113746118f4565b6040519080825280601f01601f19166020018201604052801561139e576020820181803683370190505b509050600360fc1b816000815181106113b9576113b961190a565b60200101906001600160f81b031916908160001a905350600f60fb1b816001815181106113e8576113e861190a565b60200101906001600160f81b031916908160001a905350600061140c8460026118ca565b6114179060016118e1565b90505b600181111561148f576f181899199a1a9b1b9c1cb0b131b232b360811b85600f166010811061144b5761144b61190a565b1a60f81b8282815181106114615761146161190a565b60200101906001600160f81b031916908160001a90535060049490941c9361148881611920565b905061141a565b508315610bea5760405162461bcd60e51b815260206004820181905260248201527f537472696e67733a20686578206c656e67746820696e73756666696369656e7460448201526064016106c4565b6007546000906001600160a01b03848116911614801561151657506001600160a01b03821660009081526003602052604090205460ff165b80610bea57506007546001600160a01b038381169116148015610bea575050506001600160a01b031660009081526003602052604090205460ff1690565b60006127106115658361270e6118ca565b61059a9190611937565b60006020828403121561158157600080fd5b81356001600160e01b031981168114610bea57600080fd5b60005b838110156115b457818101518382015260200161159c565b50506000910152565b60208152600082518060208401526115dc816040850160208701611599565b601f01601f19169190910160400192915050565b60006020828403121561160257600080fd5b5035919050565b80356001600160a01b038116811461162057600080fd5b919050565b6000806040838503121561163857600080fd5b8235915061164860208401611609565b90509250929050565b60006020828403121561166357600080fd5b610bea82611609565b6000806040838503121561167f57600080fd5b61168883611609565b915061164860208401611609565b600080604083850312156116a957600080fd5b6116b283611609565b946020939093013593505050565b600080600080600060a086880312156116d857600080fd5b85359450602086013593506116ef60408701611609565b92506116fd60608701611609565b915061170b60808701611609565b90509295509295909350565b60008060006060848603121561172c57600080fd5b8335925061173c60208501611609565b915061174a60408501611609565b90509250925092565b600181811c9082168061176757607f821691505b60208210810361178757634e487b7160e01b600052602260045260246000fd5b50919050565b60208082526028908201527f4d61696e7461696e61626c653a2043616c6c6572206973206e6f742061206d6160408201526734b73a30b4b732b960c11b606082015260800190565b6000602082840312156117e757600080fd5b5051919050565b634e487b7160e01b600052601160045260246000fd5b8181038181111561059a5761059a6117ee565b60008251611829818460208701611599565b9190910192915050565b60006020828403121561184557600080fd5b81518015158114610bea57600080fd5b7f416363657373436f6e74726f6c3a206163636f756e742000000000000000000081526000835161188d816017850160208801611599565b7001034b99036b4b9b9b4b733903937b6329607d1b60179184019182015283516118be816028840160208801611599565b01602801949350505050565b808202811582820484141761059a5761059a6117ee565b8082018082111561059a5761059a6117ee565b634e487b7160e01b600052604160045260246000fd5b634e487b7160e01b600052603260045260246000fd5b60008161192f5761192f6117ee565b506000190190565b60008261195457634e487b7160e01b600052601260045260246000fd5b50049056fe339759585899103d2ace64958e37e18ccb0504652c81d4a1b8aa80fe2126ab95a2646970667358221220a09f355342f8285e2aaa167e93b3f0f5e955b55c46a9ae627cda9ae01e0cc64364736f6c63430008110033339759585899103d2ace64958e37e18ccb0504652c81d4a1b8aa80fe2126ab95",
    "linkReferences": {}
  },
  "methodIdentifiers": {
    "DEFAULT_ADMIN_ROLE()": "a217fddf",
    "MAINTAINER_ROLE()": "f8742254",
    "addMaintainer(address)": "6b453c1f",
    "feeDenominator()": "180b0d7e",
    "getRoleAdmin(bytes32)": "248a9ca3",
    "grantRole(bytes32,address)": "2f2ff15d",
    "hasRole(bytes32,address)": "91d14854",
    "isPoolToken(address)": "de260f37",
    "metaPool()": "5acb5da9",
    "metaTkn()": "f45dc478",
    "name()": "06fdde03",
    "pool()": "16f0115b",
    "poolFeeCompliment()": "2580d365",
    "query(uint256,address,address)": "ef99893a",
    "recoverAVAX(uint256)": "4ebb7916",
    "recoverERC20(address,uint256)": "8980f11f",
    "removeMaintainer(address)": "d8baf7cf",
    "renounceRole(bytes32)": "8bb9c5bf",
    "renounceRole(bytes32,address)": "36568abe",
    "revokeAllowance(address,address)": "7ae26773",
    "revokeRole(bytes32,address)": "d547741f",
    "setSwapGasEstimate(uint256)": "84a33e63",
    "supportsInterface(bytes4)": "01ffc9a7",
    "swap(uint256,uint256,address,address,address)": "eab90da6",
    "swapGasEstimate()": "69cff80d",
    "tokenIndex(address)": "427f91a6",
    "transferOwnership(address)": "f2fde38b"
  },
  "id": 34
}