{
  "abi": [
    {
      "inputs": [
        {
          "internalType": "string",
          "name": "_name",
          "type": "string"
        },
        {
          "internalType": "address",
          "name": "_pool",
          "type": "address"
        },
        {
          "internalType": "uint256",
          "name": "_swapGasEstimate",
          "type": "uint256"
        }
      ],
      "stateMutability": "nonpayable",
      "type": "constructor"
    },
    {
      "anonymous": false,
      "inputs": [
        {
          "indexed": true,
          "internalType": "address",
          "name": "_asset",
          "type": "address"
        },
        {
          "indexed": false,
          "internalType": "uint256",
          "name": "amount",
          "type": "uint256"
        }
      ],
      "name": "Recovered",
      "type": "event"
    },
    {
      "anonymous": false,
      "inputs": [
        {
          "indexed": true,
          "internalType": "bytes32",
          "name": "role",
          "type": "bytes32"
        },
        {
          "indexed": true,
          "internalType": "bytes32",
          "name": "previousAdminRole",
          "type": "bytes32"
        },
        {
          "indexed": true,
          "internalType": "bytes32",
          "name": "newAdminRole",
          "type": "bytes32"
        }
      ],
      "name": "RoleAdminChanged",
      "type": "event"
    },
    {
      "anonymous": false,
      "inputs": [
        {
          "indexed": true,
          "internalType": "bytes32",
          "name": "role",
          "type": "bytes32"
        },
        {
          "indexed": true,
          "internalType": "address",
          "name": "account",
          "type": "address"
        },
        {
          "indexed": true,
          "internalType": "address",
          "name": "sender",
          "type": "address"
        }
      ],
      "name": "RoleGranted",
      "type": "event"
    },
    {
      "anonymous": false,
      "inputs": [
        {
          "indexed": true,
          "internalType": "bytes32",
          "name": "role",
          "type": "bytes32"
        },
        {
          "indexed": true,
          "internalType": "address",
          "name": "account",
          "type": "address"
        },
        {
          "indexed": true,
          "internalType": "address",
          "name": "sender",
          "type": "address"
        }
      ],
      "name": "RoleRevoked",
      "type": "event"
    },
    {
      "anonymous": false,
      "inputs": [
        {
          "indexed": true,
          "internalType": "address",
          "name": "_adapter",
          "type": "address"
        },
        {
          "indexed": false,
          "internalType": "uint256",
          "name": "_newEstimate",
          "type": "uint256"
        }
      ],
      "name": "UpdatedGasEstimate",
      "type": "event"
    },
    {
      "anonymous": false,
      "inputs": [
        {
          "indexed": true,
          "internalType": "address",
          "name": "_tokenFrom",
          "type": "address"
        },
        {
          "indexed": true,
          "internalType": "address",
          "name": "_tokenTo",
          "type": "address"
        },
        {
          "indexed": false,
          "internalType": "uint256",
          "name": "_amountIn",
          "type": "uint256"
        },
        {
          "indexed": false,
          "internalType": "uint256",
          "name": "_amountOut",
          "type": "uint256"
        }
      ],
      "name": "YakAdapterSwap",
      "type": "event"
    },
    {
      "inputs": [],
      "name": "DEFAULT_ADMIN_ROLE",
      "outputs": [
        {
          "internalType": "bytes32",
          "name": "",
          "type": "bytes32"
        }
      ],
      "stateMutability": "view",
      "type": "function"
    },
    {
      "inputs": [],
      "name": "MAINTAINER_ROLE",
      "outputs": [
        {
          "internalType": "bytes32",
          "name": "",
          "type": "bytes32"
        }
      ],
      "stateMutability": "view",
      "type": "function"
    },
    {
      "inputs": [],
      "name": "META_COIN",
      "outputs": [
        {
          "internalType": "address",
          "name": "",
          "type": "address"
        }
      ],
      "stateMutability": "view",
      "type": "function"
    },
    {
      "inputs": [],
      "name": "POOL",
      "outputs": [
        {
          "internalType": "address",
          "name": "",
          "type": "address"
        }
      ],
      "stateMutability": "view",
      "type": "function"
    },
    {
      "inputs": [
        {
          "internalType": "address",
          "name": "addedMaintainer",
          "type": "address"
        }
      ],
      "name": "addMaintainer",
      "outputs": [],
      "stateMutability": "nonpayable",
      "type": "function"
    },
    {
      "inputs": [
        {
          "internalType": "bytes32",
          "name": "role",
          "type": "bytes32"
        }
      ],
      "name": "getRoleAdmin",
      "outputs": [
        {
          "internalType": "bytes32",
          "name": "",
          "type": "bytes32"
        }
      ],
      "stateMutability": "view",
      "type": "function"
    },
    {
      "inputs": [
        {
          "internalType": "bytes32",
          "name": "role",
          "type": "bytes32"
        },
        {
          "internalType": "address",
          "name": "account",
          "type": "address"
        }
      ],
      "name": "grantRole",
      "outputs": [],
      "stateMutability": "nonpayable",
      "type": "function"
    },
    {
      "inputs": [
        {
          "internalType": "bytes32",
          "name": "role",
          "type": "bytes32"
        },
        {
          "internalType": "address",
          "name": "account",
          "type": "address"
        }
      ],
      "name": "hasRole",
      "outputs": [
        {
          "internalType": "bool",
          "name": "",
          "type": "bool"
        }
      ],
      "stateMutability": "view",
      "type": "function"
    },
    {
      "inputs": [
        {
          "internalType": "address",
          "name": "",
          "type": "address"
        }
      ],
      "name": "isPoolToken",
      "outputs": [
        {
          "internalType": "bool",
          "name": "",
          "type": "bool"
        }
      ],
      "stateMutability": "view",
      "type": "function"
    },
    {
      "inputs": [],
      "name": "name",
      "outputs": [
        {
          "internalType": "string",
          "name": "",
          "type": "string"
        }
      ],
      "stateMutability": "view",
      "type": "function"
    },
    {
      "inputs": [
        {
          "internalType": "uint256",
          "name": "_amountIn",
          "type": "uint256"
        },
        {
          "internalType": "address",
          "name": "_tokenIn",
          "type": "address"
        },
        {
          "internalType": "address",
          "name": "_tokenOut",
          "type": "address"
        }
      ],
      "name": "query",
      "outputs": [
        {
          "internalType": "uint256",
          "name": "",
          "type": "uint256"
        }
      ],
      "stateMutability": "view",
      "type": "function"
    },
    {
      "inputs": [
        {
          "internalType": "uint256",
          "name": "_amount",
          "type": "uint256"
        }
      ],
      "name": "recoverAVAX",
      "outputs": [],
      "stateMutability": "nonpayable",
      "type": "function"
    },
    {
      "inputs": [
        {
          "internalType": "address",
          "name": "_tokenAddress",
          "type": "address"
        },
        {
          "internalType": "uint256",
          "name": "_tokenAmount",
          "type": "uint256"
        }
      ],
      "name": "recoverERC20",
      "outputs": [],
      "stateMutability": "nonpayable",
      "type": "function"
    },
    {
      "inputs": [
        {
          "internalType": "address",
          "name": "removedMaintainer",
          "type": "address"
        }
      ],
      "name": "removeMaintainer",
      "outputs": [],
      "stateMutability": "nonpayable",
      "type": "function"
    },
    {
      "inputs": [
        {
          "internalType": "bytes32",
          "name": "role",
          "type": "bytes32"
        },
        {
          "internalType": "address",
          "name": "account",
          "type": "address"
        }
      ],
      "name": "renounceRole",
      "outputs": [],
      "stateMutability": "nonpayable",
      "type": "function"
    },
    {
      "inputs": [
        {
          "internalType": "bytes32",
          "name": "role",
          "type": "bytes32"
        }
      ],
      "name": "renounceRole",
      "outputs": [],
      "stateMutability": "nonpayable",
      "type": "function"
    },
    {
      "inputs": [
        {
          "internalType": "address",
          "name": "_token",
          "type": "address"
        },
        {
          "internalType": "address",
          "name": "_spender",
          "type": "address"
        }
      ],
      "name": "revokeAllowance",
      "outputs": [],
      "stateMutability": "nonpayable",
      "type": "function"
    },
    {
      "inputs": [
        {
          "internalType": "bytes32",
          "name": "role",
          "type": "bytes32"
        },
        {
          "internalType": "address",
          "name": "account",
          "type": "address"
        }
      ],
      "name": "revokeRole",
      "outputs": [],
      "stateMutability": "nonpayable",
      "type": "function"
    },
    {
      "inputs": [
        {
          "internalType": "uint256",
          "name": "_estimate",
          "type": "uint256"
        }
      ],
      "name": "setSwapGasEstimate",
      "outputs": [],
      "stateMutability": "nonpayable",
      "type": "function"
    },
    {
      "inputs": [
        {
          "internalType": "bytes4",
          "name": "interfaceId",
          "type": "bytes4"
        }
      ],
      "name": "supportsInterface",
      "outputs": [
        {
          "internalType": "bool",
          "name": "",
          "type": "bool"
        }
      ],
      "stateMutability": "view",
      "type": "function"
    },
    {
      "inputs": [
        {
          "internalType": "uint256",
          "name": "_amountIn",
          "type": "uint256"
        },
        {
          "internalType": "uint256",
          "name": "_amountOut",
          "type": "uint256"
        },
        {
          "internalType": "address",
          "name": "_fromToken",
          "type": "address"
        },
        {
          "internalType": "address",
          "name": "_toToken",
          "type": "address"
        },
        {
          "internalType": "address",
          "name": "_to",
          "type": "address"
        }
      ],
      "name": "swap",
      "outputs": [],
      "stateMutability": "nonpayable",
      "type": "function"
    },
    {
      "inputs": [],
      "name": "swapGasEstimate",
      "outputs": [
        {
          "internalType": "uint256",
          "name": "",
          "type": "uint256"
        }
      ],
      "stateMutability": "view",
      "type": "function"
    },
    {
      "inputs": [
        {
          "internalType": "address",
          "name": "",
          "type": "address"
        }
      ],
      "name": "tokenIndex",
      "outputs": [
        {
          "internalType": "int128",
          "name": "",
          "type": "int128"
        }
      ],
      "stateMutability": "view",
      "type": "function"
    },
    {
      "inputs": [
        {
          "internalType": "address",
          "name": "newOwner",
          "type": "address"
        }
      ],
      "name": "transferOwnership",
      "outputs": [],
      "stateMutability": "nonpayable",
      "type": "function"
    },
    {
      "stateMutability": "payable",
      "type": "receive"
    }
  ],
  "bytecode": {
    "object": "0x60c06040523480156200001157600080fd5b506040516200241f3803806200241f83398101604081905262000034916200080d565b82813362000044600082620000d0565b620000707f339759585899103d2ace64958e37e18ccb0504652c81d4a1b8aa80fe2126ab9582620000d0565b506200007c82620000e0565b620000878162000145565b5060009050620000978362000266565b9050620000a783826000620002db565b620000b28362000350565b6001600160a01b039081166080529190911660a0525062000b209050565b620000dc82826200041b565b5050565b8051600003620001375760405162461bcd60e51b815260206004820152601460248201527f496e76616c69642061646170746572206e616d6500000000000000000000000060448201526064015b60405180910390fd5b6002620000dc828262000971565b3360008181527fa54247010af6b3693b80aceddfad12e077c5de3571e6243fada502635f0d7d39602052604090205460ff16620001d65760405162461bcd60e51b815260206004820152602860248201527f4d61696e7461696e61626c653a2043616c6c6572206973206e6f742061206d6160448201526734b73a30b4b732b960c11b60648201526084016200012e565b81600003620002285760405162461bcd60e51b815260206004820152601460248201527f496e76616c6964206761732d657374696d61746500000000000000000000000060448201526064016200012e565b600182905560405182815230907ff43f23b7a28e6f8ce6843a21bd7b48bce778aa913b8c8cf459edf7d770e8d38a9060200160405180910390a25050565b60405163c661065760e01b8152600060048201819052906001600160a01b0383169063c661065790602401602060405180830381865afa158015620002af573d6000803e3d6000fd5b505050506040513d601f19601f82011682018060405250810190620002d5919062000a3d565b92915050565b6200030283600019846001600160a01b0316620004bb60201b62000b91179092919060201c565b6001600160a01b0391909116600090815260036020908152604080832080546001600160801b0319166001600160801b03909516949094179093556004905220805460ff1916600117905550565b60405163c661065760e01b8152600160048201526000906001600160a01b0383169063c661065790602401602060405180830381865afa15801562000399573d6000803e3d6000fd5b505050506040513d601f19601f82011682018060405250810190620003bf919062000a3d565b905060005b6000620003d2838362000605565b90506001600160a01b038116620003e95750505050565b620004028482620003fc85600162000a78565b620002db565b506200040e8162000aa8565b9050620003c4565b505050565b6000828152602081815260408083206001600160a01b038516845290915290205460ff16620000dc576000828152602081815260408083206001600160a01b03851684529091529020805460ff19166001179055620004773390565b6001600160a01b0316816001600160a01b0316837f2f8788117e7eff1d82e926ec794901d17c78024a50270940304540a733656f0d60405160405180910390a45050565b801580620005395750604051636eb1769f60e11b81523060048201526001600160a01b03838116602483015284169063dd62ed3e90604401602060405180830381865afa15801562000511573d6000803e3d6000fd5b505050506040513d601f19601f8201168201806040525081019062000537919062000ac4565b155b620005ad5760405162461bcd60e51b815260206004820152603660248201527f5361666545524332303a20617070726f76652066726f6d206e6f6e2d7a65726f60448201527f20746f206e6f6e2d7a65726f20616c6c6f77616e63650000000000000000000060648201526084016200012e565b604080516001600160a01b038416602482015260448082018490528251808303909101815260649091019091526020810180516001600160e01b0390811663095ea7b360e01b17909152620004169185916200067a16565b60405163c661065760e01b8152600481018290526000906001600160a01b0384169063c661065790602401602060405180830381865afa9250505080156200066c575060408051601f3d908101601f19168201909252620006699181019062000a3d565b60015b15620002d5579050620002d5565b600080836001600160a01b03168360405162000697919062000ade565b6000604051808303816000865af19150503d8060008114620006d6576040519150601f19603f3d011682016040523d82523d6000602084013e620006db565b606091505b5091509150816200072f5760405162461bcd60e51b815260206004820181905260248201527f5361666545524332303a206c6f772d6c6576656c2063616c6c206661696c656460448201526064016200012e565b805115620007ae57808060200190518101906200074d919062000afc565b620007ae5760405162461bcd60e51b815260206004820152602a60248201527f5361666545524332303a204552433230206f7065726174696f6e20646964206e6044820152691bdd081cdd58d8d9595960b21b60648201526084016200012e565b50505050565b634e487b7160e01b600052604160045260246000fd5b60005b83811015620007e7578181015183820152602001620007cd565b50506000910152565b80516001600160a01b03811681146200080857600080fd5b919050565b6000806000606084860312156200082357600080fd5b83516001600160401b03808211156200083b57600080fd5b818601915086601f8301126200085057600080fd5b815181811115620008655762000865620007b4565b604051601f8201601f19908116603f01168101908382118183101715620008905762000890620007b4565b81604052828152896020848701011115620008aa57600080fd5b620008bd836020830160208801620007ca565b8097505050505050620008d360208501620007f0565b9150604084015190509250925092565b600181811c90821680620008f857607f821691505b6020821081036200091957634e487b7160e01b600052602260045260246000fd5b50919050565b601f8211156200041657600081815260208120601f850160051c81016020861015620009485750805b601f850160051c820191505b81811015620009695782815560010162000954565b505050505050565b81516001600160401b038111156200098d576200098d620007b4565b620009a5816200099e8454620008e3565b846200091f565b602080601f831160018114620009dd5760008415620009c45750858301515b600019600386901b1c1916600185901b17855562000969565b600085815260208120601f198616915b8281101562000a0e57888601518255948401946001909101908401620009ed565b508582101562000a2d5787850151600019600388901b60f8161c191681555b5050505050600190811b01905550565b60006020828403121562000a5057600080fd5b62000a5b82620007f0565b9392505050565b634e487b7160e01b600052601160045260246000fd5b600f81810b9083900b0160016001607f1b03811360016001607f1b031982121715620002d557620002d562000a62565b60006001820162000abd5762000abd62000a62565b5060010190565b60006020828403121562000ad757600080fd5b5051919050565b6000825162000af2818460208701620007ca565b9190910192915050565b60006020828403121562000b0f57600080fd5b8151801515811462000a5b57600080fd5b60805160a0516118bd62000b626000396000818161032901528181610e4e01526111ae0152600081816102a7015281816113c4015261142301526118bd6000f3fe60806040526004361061014f5760003560e01c806384a33e63116100b6578063d8baf7cf1161006f578063d8baf7cf14610420578063de260f3714610440578063eab90da614610470578063ef99893a14610490578063f2fde38b146104b0578063f8742254146104d057600080fd5b806384a33e631461036b5780638980f11f1461038b5780638bb9c5bf146103ab57806391d14854146103cb578063a217fddf146103eb578063d547741f1461040057600080fd5b80634ebb7916116101085780634ebb791614610275578063525d2c721461029557806369cff80d146102e15780636b453c1f146102f75780637535d246146103175780637ae267731461034b57600080fd5b806301ffc9a71461015b57806306fdde0314610190578063248a9ca3146101b25780632f2ff15d146101f057806336568abe14610212578063427f91a61461023257600080fd5b3661015657005b600080fd5b34801561016757600080fd5b5061017b61017636600461147d565b6104f2565b60405190151581526020015b60405180910390f35b34801561019c57600080fd5b506101a5610529565b60405161018791906114cb565b3480156101be57600080fd5b506101e26101cd3660046114fe565b60009081526020819052604090206001015490565b604051908152602001610187565b3480156101fc57600080fd5b5061021061020b366004611533565b6105b7565b005b34801561021e57600080fd5b5061021061022d366004611533565b6105e1565b34801561023e57600080fd5b5061026261024d36600461155f565b600360205260009081526040902054600f0b81565b604051600f9190910b8152602001610187565b34801561028157600080fd5b506102106102903660046114fe565b610664565b3480156102a157600080fd5b506102c97f000000000000000000000000000000000000000000000000000000000000000081565b6040516001600160a01b039091168152602001610187565b3480156102ed57600080fd5b506101e260015481565b34801561030357600080fd5b5061021061031236600461155f565b610752565b34801561032357600080fd5b506102c97f000000000000000000000000000000000000000000000000000000000000000081565b34801561035757600080fd5b5061021061036636600461157a565b61076d565b34801561037757600080fd5b506102106103863660046114fe565b6107b7565b34801561039757600080fd5b506102106103a63660046115a4565b61086a565b3480156103b757600080fd5b506102106103c63660046114fe565b61094b565b3480156103d757600080fd5b5061017b6103e6366004611533565b610956565b3480156103f757600080fd5b506101e2600081565b34801561040c57600080fd5b5061021061041b366004611533565b61097f565b34801561042c57600080fd5b5061021061043b36600461155f565b6109a4565b34801561044c57600080fd5b5061017b61045b36600461155f565b60046020526000908152604090205460ff1681565b34801561047c57600080fd5b5061021061048b3660046115ce565b6109bc565b34801561049c57600080fd5b506101e26104ab366004611625565b610b63565b3480156104bc57600080fd5b506102106104cb36600461155f565b610b7a565b3480156104dc57600080fd5b506101e260008051602061186883398151915281565b60006001600160e01b03198216637965db0b60e01b148061052357506301ffc9a760e01b6001600160e01b03198316145b92915050565b6002805461053690611661565b80601f016020809104026020016040519081016040528092919081815260200182805461056290611661565b80156105af5780601f10610584576101008083540402835291602001916105af565b820191906000526020600020905b81548152906001019060200180831161059257829003601f168201915b505050505081565b6000828152602081905260409020600101546105d281610cd9565b6105dc8383610ce3565b505050565b6001600160a01b03811633146106565760405162461bcd60e51b815260206004820152602f60248201527f416363657373436f6e74726f6c3a2063616e206f6e6c792072656e6f756e636560448201526e103937b632b9903337b91039b2b63360891b60648201526084015b60405180910390fd5b6106608282610d67565b5050565b3361067d60008051602061186883398151915282610956565b6106995760405162461bcd60e51b815260040161064d9061169b565b600082116106e95760405162461bcd60e51b815260206004820152601e60248201527f59616b416461707465723a204e6f7468696e6720746f207265636f7665720000604482015260640161064d565b604051339083156108fc029084906000818181858888f19350505050158015610716573d6000803e3d6000fd5b506040518281526000907f8c1256b8896378cd5044f80c202f9772b9d77dc85c8a6eb51967210b09bfaa28906020015b60405180910390a25050565b61076a600080516020611868833981519152826105b7565b50565b3361078660008051602061186883398151915282610956565b6107a25760405162461bcd60e51b815260040161064d9061169b565b6105dc6001600160a01b038416836000610b91565b336107d060008051602061186883398151915282610956565b6107ec5760405162461bcd60e51b815260040161064d9061169b565b816000036108335760405162461bcd60e51b8152602060048201526014602482015273496e76616c6964206761732d657374696d61746560601b604482015260640161064d565b600182905560405182815230907ff43f23b7a28e6f8ce6843a21bd7b48bce778aa913b8c8cf459edf7d770e8d38a90602001610746565b3361088360008051602061186883398151915282610956565b61089f5760405162461bcd60e51b815260040161064d9061169b565b600082116108ef5760405162461bcd60e51b815260206004820152601e60248201527f59616b416461707465723a204e6f7468696e6720746f207265636f7665720000604482015260640161064d565b6109036001600160a01b0384163384610dcc565b826001600160a01b03167f8c1256b8896378cd5044f80c202f9772b9d77dc85c8a6eb51967210b09bfaa288360405161093e91815260200190565b60405180910390a2505050565b3361066082826105e1565b6000918252602082815260408084206001600160a01b0393909316845291905290205460ff1690565b60008281526020819052604090206001015461099a81610cd9565b6105dc8383610d67565b61076a6000805160206118688339815191528261097f565b6040516370a0823160e01b81526001600160a01b038281166004830152600091908416906370a0823190602401602060405180830381865afa158015610a06573d6000803e3d6000fd5b505050506040513d601f19601f82011682018060405250810190610a2a91906116e3565b9050610a398686868686610dfc565b6040516370a0823160e01b81526001600160a01b03838116600483015260009183918616906370a0823190602401602060405180830381865afa158015610a84573d6000803e3d6000fd5b505050506040513d601f19601f82011682018060405250810190610aa891906116e3565b610ab29190611712565b905085811015610b045760405162461bcd60e51b815260206004820152601760248201527f496e73756666696369656e7420616d6f756e742d6f7574000000000000000000604482015260640161064d565b836001600160a01b0316856001600160a01b03167fe2bdbc6b7225eb0a972ac943c485a6cc05f7c6811838bce8903f23200fb744fa8989604051610b52929190918252602082015260400190565b60405180910390a350505050505050565b6000610b70848484610f2c565b90505b9392505050565b33610b866000836105b7565b6106606000826105e1565b801580610c0b5750604051636eb1769f60e11b81523060048201526001600160a01b03838116602483015284169063dd62ed3e90604401602060405180830381865afa158015610be5573d6000803e3d6000fd5b505050506040513d601f19601f82011682018060405250810190610c0991906116e3565b155b610c765760405162461bcd60e51b815260206004820152603660248201527f5361666545524332303a20617070726f76652066726f6d206e6f6e2d7a65726f60448201527520746f206e6f6e2d7a65726f20616c6c6f77616e636560501b606482015260840161064d565b6040516001600160a01b0383166024820152604481018290526105dc90849063095ea7b360e01b906064015b60408051601f198184030181529190526020810180516001600160e01b03166001600160e01b031990931692909217909152610f76565b61076a81336110a5565b610ced8282610956565b610660576000828152602081815260408083206001600160a01b03851684529091529020805460ff19166001179055610d233390565b6001600160a01b0316816001600160a01b0316837f2f8788117e7eff1d82e926ec794901d17c78024a50270940304540a733656f0d60405160405180910390a45050565b610d718282610956565b15610660576000828152602081815260408083206001600160a01b0385168085529252808320805460ff1916905551339285917ff6391f5c32d9c69d2a47ea670b442974b53935d1edc7fd64eb21e047a839171b9190a45050565b6040516001600160a01b0383166024820152604481018290526105dc90849063a9059cbb60e01b90606401610ca2565b6001600160a01b0383811660009081526003602052604080822054858416835291819020549051635320bf6b60e11b8152600f92830b6004820152910b602482015260448101879052606481018690527f00000000000000000000000000000000000000000000000000000000000000009091169063a6417ed690608401600060405180830381600087803b158015610e9457600080fd5b505af1158015610ea8573d6000803e3d6000fd5b50506040516370a0823160e01b8152306004820152600092506001600160a01b03851691506370a0823190602401602060405180830381865afa158015610ef3573d6000803e3d6000fd5b505050506040513d601f19601f82011682018060405250810190610f1791906116e3565b9050610f24838284611109565b505050505050565b6000610f3984848461112d565b610f4557506000610b73565b6000610f52858585611161565b9050612710610f638261270f611725565b610f6d919061173c565b95945050505050565b600080836001600160a01b031683604051610f91919061175e565b6000604051808303816000865af19150503d8060008114610fce576040519150601f19603f3d011682016040523d82523d6000602084013e610fd3565b606091505b5091509150816110255760405162461bcd60e51b815260206004820181905260248201527f5361666545524332303a206c6f772d6c6576656c2063616c6c206661696c6564604482015260640161064d565b80511561109f5780806020019051810190611040919061177a565b61109f5760405162461bcd60e51b815260206004820152602a60248201527f5361666545524332303a204552433230206f7065726174696f6e20646964206e6044820152691bdd081cdd58d8d9595960b21b606482015260840161064d565b50505050565b6110af8282610956565b610660576110c7816001600160a01b03166014611224565b6110d2836020611224565b6040516020016110e392919061179c565b60408051601f198184030181529082905262461bcd60e51b825261064d916004016114cb565b306001600160a01b038216146105dc576105dc6001600160a01b0384168284610dcc565b600083158015906111505750816001600160a01b0316836001600160a01b031614155b8015610b705750610b7083836113c0565b6001600160a01b038281166000908152600360205260408082205484841683528183205491516307211ef760e01b8152600f91820b600482015291900b60248201526044810186905290917f000000000000000000000000000000000000000000000000000000000000000016906307211ef790606401602060405180830381865afa925050508015611211575060408051601f3d908101601f1916820190925261120e918101906116e3565b60015b61121d57506000610b73565b9050610b73565b60606000611233836002611725565b61123e906002611811565b67ffffffffffffffff81111561125657611256611824565b6040519080825280601f01601f191660200182016040528015611280576020820181803683370190505b509050600360fc1b8160008151811061129b5761129b61183a565b60200101906001600160f81b031916908160001a905350600f60fb1b816001815181106112ca576112ca61183a565b60200101906001600160f81b031916908160001a90535060006112ee846002611725565b6112f9906001611811565b90505b6001811115611371576f181899199a1a9b1b9c1cb0b131b232b360811b85600f166010811061132d5761132d61183a565b1a60f81b8282815181106113435761134361183a565b60200101906001600160f81b031916908160001a90535060049490941c9361136a81611850565b90506112fc565b508315610b735760405162461bcd60e51b815260206004820181905260248201527f537472696e67733a20686578206c656e67746820696e73756666696369656e74604482015260640161064d565b60007f00000000000000000000000000000000000000000000000000000000000000006001600160a01b0316836001600160a01b031614801561141b57506001600160a01b03821660009081526004602052604090205460ff165b80610b7357507f00000000000000000000000000000000000000000000000000000000000000006001600160a01b0316826001600160a01b0316148015610b73575050506001600160a01b031660009081526004602052604090205460ff1690565b60006020828403121561148f57600080fd5b81356001600160e01b031981168114610b7357600080fd5b60005b838110156114c25781810151838201526020016114aa565b50506000910152565b60208152600082518060208401526114ea8160408501602087016114a7565b601f01601f19169190910160400192915050565b60006020828403121561151057600080fd5b5035919050565b80356001600160a01b038116811461152e57600080fd5b919050565b6000806040838503121561154657600080fd5b8235915061155660208401611517565b90509250929050565b60006020828403121561157157600080fd5b610b7382611517565b6000806040838503121561158d57600080fd5b61159683611517565b915061155660208401611517565b600080604083850312156115b757600080fd5b6115c083611517565b946020939093013593505050565b600080600080600060a086880312156115e657600080fd5b85359450602086013593506115fd60408701611517565b925061160b60608701611517565b915061161960808701611517565b90509295509295909350565b60008060006060848603121561163a57600080fd5b8335925061164a60208501611517565b915061165860408501611517565b90509250925092565b600181811c9082168061167557607f821691505b60208210810361169557634e487b7160e01b600052602260045260246000fd5b50919050565b60208082526028908201527f4d61696e7461696e61626c653a2043616c6c6572206973206e6f742061206d6160408201526734b73a30b4b732b960c11b606082015260800190565b6000602082840312156116f557600080fd5b5051919050565b634e487b7160e01b600052601160045260246000fd5b81810381811115610523576105236116fc565b8082028115828204841417610523576105236116fc565b60008261175957634e487b7160e01b600052601260045260246000fd5b500490565b600082516117708184602087016114a7565b9190910192915050565b60006020828403121561178c57600080fd5b81518015158114610b7357600080fd5b7f416363657373436f6e74726f6c3a206163636f756e74200000000000000000008152600083516117d48160178501602088016114a7565b7001034b99036b4b9b9b4b733903937b6329607d1b60179184019182015283516118058160288401602088016114a7565b01602801949350505050565b80820180821115610523576105236116fc565b634e487b7160e01b600052604160045260246000fd5b634e487b7160e01b600052603260045260246000fd5b60008161185f5761185f6116fc565b50600019019056fe339759585899103d2ace64958e37e18ccb0504652c81d4a1b8aa80fe2126ab95a2646970667358221220ce4a3382431bde6b12349b3836dd7397be533eae4dcbac4a6e934cc99fda2ccc64736f6c63430008110033",
    "linkReferences": {}
  },
  "methodIdentifiers": {
    "DEFAULT_ADMIN_ROLE()": "a217fddf",
    "MAINTAINER_ROLE()": "f8742254",
    "META_COIN()": "525d2c72",
    "POOL()": "7535d246",
    "addMaintainer(address)": "6b453c1f",
    "getRoleAdmin(bytes32)": "248a9ca3",
    "grantRole(bytes32,address)": "2f2ff15d",
    "hasRole(bytes32,address)": "91d14854",
    "isPoolToken(address)": "de260f37",
    "name()": "06fdde03",
    "query(uint256,address,address)": "ef99893a",
    "recoverAVAX(uint256)": "4ebb7916",
    "recoverERC20(address,uint256)": "8980f11f",
    "removeMaintainer(address)": "d8baf7cf",
    "renounceRole(bytes32)": "8bb9c5bf",
    "renounceRole(bytes32,address)": "36568abe",
    "revokeAllowance(address,address)": "7ae26773",
    "revokeRole(bytes32,address)": "d547741f",
    "setSwapGasEstimate(uint256)": "84a33e63",
    "supportsInterface(bytes4)": "01ffc9a7",
    "swap(uint256,uint256,address,address,address)": "eab90da6",
    "swapGasEstimate()": "69cff80d",
    "tokenIndex(address)": "427f91a6",
    "transferOwnership(address)": "f2fde38b"
  },
  "id": 19
}