{
  "abi": [
    {
      "inputs": [
        {
          "internalType": "uint256",
          "name": "_swapGasEstimate",
          "type": "uint256"
        }
      ],
      "stateMutability": "nonpayable",
      "type": "constructor"
    },
    {
      "anonymous": false,
      "inputs": [
        {
          "indexed": true,
          "internalType": "address",
          "name": "_asset",
          "type": "address"
        },
        {
          "indexed": false,
          "internalType": "uint256",
          "name": "amount",
          "type": "uint256"
        }
      ],
      "name": "Recovered",
      "type": "event"
    },
    {
      "anonymous": false,
      "inputs": [
        {
          "indexed": true,
          "internalType": "bytes32",
          "name": "role",
          "type": "bytes32"
        },
        {
          "indexed": true,
          "internalType": "bytes32",
          "name": "previousAdminRole",
          "type": "bytes32"
        },
        {
          "indexed": true,
          "internalType": "bytes32",
          "name": "newAdminRole",
          "type": "bytes32"
        }
      ],
      "name": "RoleAdminChanged",
      "type": "event"
    },
    {
      "anonymous": false,
      "inputs": [
        {
          "indexed": true,
          "internalType": "bytes32",
          "name": "role",
          "type": "bytes32"
        },
        {
          "indexed": true,
          "internalType": "address",
          "name": "account",
          "type": "address"
        },
        {
          "indexed": true,
          "internalType": "address",
          "name": "sender",
          "type": "address"
        }
      ],
      "name": "RoleGranted",
      "type": "event"
    },
    {
      "anonymous": false,
      "inputs": [
        {
          "indexed": true,
          "internalType": "bytes32",
          "name": "role",
          "type": "bytes32"
        },
        {
          "indexed": true,
          "internalType": "address",
          "name": "account",
          "type": "address"
        },
        {
          "indexed": true,
          "internalType": "address",
          "name": "sender",
          "type": "address"
        }
      ],
      "name": "RoleRevoked",
      "type": "event"
    },
    {
      "anonymous": false,
      "inputs": [
        {
          "indexed": true,
          "internalType": "address",
          "name": "_adapter",
          "type": "address"
        },
        {
          "indexed": false,
          "internalType": "uint256",
          "name": "_newEstimate",
          "type": "uint256"
        }
      ],
      "name": "UpdatedGasEstimate",
      "type": "event"
    },
    {
      "anonymous": false,
      "inputs": [
        {
          "indexed": true,
          "internalType": "address",
          "name": "_tokenFrom",
          "type": "address"
        },
        {
          "indexed": true,
          "internalType": "address",
          "name": "_tokenTo",
          "type": "address"
        },
        {
          "indexed": false,
          "internalType": "uint256",
          "name": "_amountIn",
          "type": "uint256"
        },
        {
          "indexed": false,
          "internalType": "uint256",
          "name": "_amountOut",
          "type": "uint256"
        }
      ],
      "name": "YakAdapterSwap",
      "type": "event"
    },
    {
      "inputs": [],
      "name": "DEFAULT_ADMIN_ROLE",
      "outputs": [
        {
          "internalType": "bytes32",
          "name": "",
          "type": "bytes32"
        }
      ],
      "stateMutability": "view",
      "type": "function"
    },
    {
      "inputs": [],
      "name": "MAINTAINER_ROLE",
      "outputs": [
        {
          "internalType": "bytes32",
          "name": "",
          "type": "bytes32"
        }
      ],
      "stateMutability": "view",
      "type": "function"
    },
    {
      "inputs": [],
      "name": "YAK",
      "outputs": [
        {
          "internalType": "address",
          "name": "",
          "type": "address"
        }
      ],
      "stateMutability": "view",
      "type": "function"
    },
    {
      "inputs": [
        {
          "internalType": "address",
          "name": "addedMaintainer",
          "type": "address"
        }
      ],
      "name": "addMaintainer",
      "outputs": [],
      "stateMutability": "nonpayable",
      "type": "function"
    },
    {
      "inputs": [
        {
          "internalType": "bytes32",
          "name": "role",
          "type": "bytes32"
        }
      ],
      "name": "getRoleAdmin",
      "outputs": [
        {
          "internalType": "bytes32",
          "name": "",
          "type": "bytes32"
        }
      ],
      "stateMutability": "view",
      "type": "function"
    },
    {
      "inputs": [
        {
          "internalType": "bytes32",
          "name": "role",
          "type": "bytes32"
        },
        {
          "internalType": "address",
          "name": "account",
          "type": "address"
        }
      ],
      "name": "grantRole",
      "outputs": [],
      "stateMutability": "nonpayable",
      "type": "function"
    },
    {
      "inputs": [
        {
          "internalType": "bytes32",
          "name": "role",
          "type": "bytes32"
        },
        {
          "internalType": "address",
          "name": "account",
          "type": "address"
        }
      ],
      "name": "hasRole",
      "outputs": [
        {
          "internalType": "bool",
          "name": "",
          "type": "bool"
        }
      ],
      "stateMutability": "view",
      "type": "function"
    },
    {
      "inputs": [],
      "name": "mYAK",
      "outputs": [
        {
          "internalType": "address",
          "name": "",
          "type": "address"
        }
      ],
      "stateMutability": "view",
      "type": "function"
    },
    {
      "inputs": [],
      "name": "name",
      "outputs": [
        {
          "internalType": "string",
          "name": "",
          "type": "string"
        }
      ],
      "stateMutability": "view",
      "type": "function"
    },
    {
      "inputs": [
        {
          "internalType": "uint256",
          "name": "_amountIn",
          "type": "uint256"
        },
        {
          "internalType": "address",
          "name": "_tokenIn",
          "type": "address"
        },
        {
          "internalType": "address",
          "name": "_tokenOut",
          "type": "address"
        }
      ],
      "name": "query",
      "outputs": [
        {
          "internalType": "uint256",
          "name": "",
          "type": "uint256"
        }
      ],
      "stateMutability": "view",
      "type": "function"
    },
    {
      "inputs": [
        {
          "internalType": "uint256",
          "name": "_amount",
          "type": "uint256"
        }
      ],
      "name": "recoverAVAX",
      "outputs": [],
      "stateMutability": "nonpayable",
      "type": "function"
    },
    {
      "inputs": [
        {
          "internalType": "address",
          "name": "_tokenAddress",
          "type": "address"
        },
        {
          "internalType": "uint256",
          "name": "_tokenAmount",
          "type": "uint256"
        }
      ],
      "name": "recoverERC20",
      "outputs": [],
      "stateMutability": "nonpayable",
      "type": "function"
    },
    {
      "inputs": [
        {
          "internalType": "address",
          "name": "removedMaintainer",
          "type": "address"
        }
      ],
      "name": "removeMaintainer",
      "outputs": [],
      "stateMutability": "nonpayable",
      "type": "function"
    },
    {
      "inputs": [
        {
          "internalType": "bytes32",
          "name": "role",
          "type": "bytes32"
        },
        {
          "internalType": "address",
          "name": "account",
          "type": "address"
        }
      ],
      "name": "renounceRole",
      "outputs": [],
      "stateMutability": "nonpayable",
      "type": "function"
    },
    {
      "inputs": [
        {
          "internalType": "bytes32",
          "name": "role",
          "type": "bytes32"
        }
      ],
      "name": "renounceRole",
      "outputs": [],
      "stateMutability": "nonpayable",
      "type": "function"
    },
    {
      "inputs": [
        {
          "internalType": "address",
          "name": "_token",
          "type": "address"
        },
        {
          "internalType": "address",
          "name": "_spender",
          "type": "address"
        }
      ],
      "name": "revokeAllowance",
      "outputs": [],
      "stateMutability": "nonpayable",
      "type": "function"
    },
    {
      "inputs": [
        {
          "internalType": "bytes32",
          "name": "role",
          "type": "bytes32"
        },
        {
          "internalType": "address",
          "name": "account",
          "type": "address"
        }
      ],
      "name": "revokeRole",
      "outputs": [],
      "stateMutability": "nonpayable",
      "type": "function"
    },
    {
      "inputs": [
        {
          "internalType": "uint256",
          "name": "_estimate",
          "type": "uint256"
        }
      ],
      "name": "setSwapGasEstimate",
      "outputs": [],
      "stateMutability": "nonpayable",
      "type": "function"
    },
    {
      "inputs": [
        {
          "internalType": "bytes4",
          "name": "interfaceId",
          "type": "bytes4"
        }
      ],
      "name": "supportsInterface",
      "outputs": [
        {
          "internalType": "bool",
          "name": "",
          "type": "bool"
        }
      ],
      "stateMutability": "view",
      "type": "function"
    },
    {
      "inputs": [
        {
          "internalType": "uint256",
          "name": "_amountIn",
          "type": "uint256"
        },
        {
          "internalType": "uint256",
          "name": "_amountOut",
          "type": "uint256"
        },
        {
          "internalType": "address",
          "name": "_fromToken",
          "type": "address"
        },
        {
          "internalType": "address",
          "name": "_toToken",
          "type": "address"
        },
        {
          "internalType": "address",
          "name": "_to",
          "type": "address"
        }
      ],
      "name": "swap",
      "outputs": [],
      "stateMutability": "nonpayable",
      "type": "function"
    },
    {
      "inputs": [],
      "name": "swapGasEstimate",
      "outputs": [
        {
          "internalType": "uint256",
          "name": "",
          "type": "uint256"
        }
      ],
      "stateMutability": "view",
      "type": "function"
    },
    {
      "inputs": [
        {
          "internalType": "address",
          "name": "newOwner",
          "type": "address"
        }
      ],
      "name": "transferOwnership",
      "outputs": [],
      "stateMutability": "nonpayable",
      "type": "function"
    },
    {
      "stateMutability": "payable",
      "type": "receive"
    }
  ],
  "bytecode": {
    "object": "0x60806040523480156200001157600080fd5b5060405162001ed338038062001ed38339810160408190526200003491620005f2565b60408051808201909152600e81526d26b4b734acb0b5a0b230b83a32b960911b6020820152813362000068600082620000bf565b620000947f339759585899103d2ace64958e37e18ccb0504652c81d4a1b8aa80fe2126ab9582620000bf565b50620000a082620000cf565b620000ab8162000134565b50620000b8905062000255565b50620007d8565b620000cb8282620002c9565b5050565b8051600003620001265760405162461bcd60e51b815260206004820152601460248201527f496e76616c69642061646170746572206e616d6500000000000000000000000060448201526064015b60405180910390fd5b6002620000cb8282620006b0565b3360008181527fa54247010af6b3693b80aceddfad12e077c5de3571e6243fada502635f0d7d39602052604090205460ff16620001c55760405162461bcd60e51b815260206004820152602860248201527f4d61696e7461696e61626c653a2043616c6c6572206973206e6f742061206d6160448201526734b73a30b4b732b960c11b60648201526084016200011d565b81600003620002175760405162461bcd60e51b815260206004820152601460248201527f496e76616c6964206761732d657374696d61746500000000000000000000000060448201526064016200011d565b600182905560405182815230907ff43f23b7a28e6f8ce6843a21bd7b48bce778aa913b8c8cf459edf7d770e8d38a9060200160405180910390a25050565b6200028473ddaaad7366b455aff8e7c82940c43ceb5829b6048060001962000369602090811b62000af017901c565b620002c77359414b3089ce2af0010e7523dea7e2b35d776ec773ddaaad7366b455aff8e7c82940c43ceb5829b60460001962000369602090811b62000af017901c565b565b6000828152602081815260408083206001600160a01b038516845290915290205460ff16620000cb576000828152602081815260408083206001600160a01b03851684529091529020805460ff19166001179055620003253390565b6001600160a01b0316816001600160a01b0316837f2f8788117e7eff1d82e926ec794901d17c78024a50270940304540a733656f0d60405160405180910390a45050565b801580620003e75750604051636eb1769f60e11b81523060048201526001600160a01b03838116602483015284169063dd62ed3e90604401602060405180830381865afa158015620003bf573d6000803e3d6000fd5b505050506040513d601f19601f82011682018060405250810190620003e59190620005f2565b155b6200045b5760405162461bcd60e51b815260206004820152603660248201527f5361666545524332303a20617070726f76652066726f6d206e6f6e2d7a65726f60448201527f20746f206e6f6e2d7a65726f20616c6c6f77616e63650000000000000000000060648201526084016200011d565b604080516001600160a01b038416602482015260448082018490528251808303909101815260649091019091526020810180516001600160e01b0390811663095ea7b360e01b17909152620004b3918591620004b816565b505050565b600080836001600160a01b031683604051620004d591906200077c565b6000604051808303816000865af19150503d806000811462000514576040519150601f19603f3d011682016040523d82523d6000602084013e62000519565b606091505b5091509150816200056d5760405162461bcd60e51b815260206004820181905260248201527f5361666545524332303a206c6f772d6c6576656c2063616c6c206661696c656460448201526064016200011d565b805115620005ec57808060200190518101906200058b9190620007ad565b620005ec5760405162461bcd60e51b815260206004820152602a60248201527f5361666545524332303a204552433230206f7065726174696f6e20646964206e6044820152691bdd081cdd58d8d9595960b21b60648201526084016200011d565b50505050565b6000602082840312156200060557600080fd5b5051919050565b634e487b7160e01b600052604160045260246000fd5b600181811c908216806200063757607f821691505b6020821081036200065857634e487b7160e01b600052602260045260246000fd5b50919050565b601f821115620004b357600081815260208120601f850160051c81016020861015620006875750805b601f850160051c820191505b81811015620006a85782815560010162000693565b505050505050565b81516001600160401b03811115620006cc57620006cc6200060c565b620006e481620006dd845462000622565b846200065e565b602080601f8311600181146200071c5760008415620007035750858301515b600019600386901b1c1916600185901b178555620006a8565b600085815260208120601f198616915b828110156200074d578886015182559484019460019091019084016200072c565b50858210156200076c5787850151600019600388901b60f8161c191681555b5050505050600190811b01905550565b6000825160005b818110156200079f576020818601810151858301520162000783565b506000920191825250919050565b600060208284031215620007c057600080fd5b81518015158114620007d157600080fd5b9392505050565b6116eb80620007e86000396000f3fe6080604052600436106101395760003560e01c80638980f11f116100ab578063d547741f1161006f578063d547741f1461038f578063d8baf7cf146103af578063eab90da6146103cf578063ef99893a146103ef578063f2fde38b1461040f578063f87422541461042f57600080fd5b80638980f11f146102f25780638bb9c5bf1461031257806391d1485414610332578063a217fddf14610352578063cfdc463e1461036757600080fd5b80634ebb7916116100fd5780634ebb79161461021c57806369cff80d1461023c5780636a4ddbe8146102525780636b453c1f146102925780637ae26773146102b257806384a33e63146102d257600080fd5b806301ffc9a71461014557806306fdde031461017a578063248a9ca31461019c5780632f2ff15d146101da57806336568abe146101fc57600080fd5b3661014057005b600080fd5b34801561015157600080fd5b506101656101603660046112cd565b610451565b60405190151581526020015b60405180910390f35b34801561018657600080fd5b5061018f610488565b604051610171919061131b565b3480156101a857600080fd5b506101cc6101b736600461134e565b60009081526020819052604090206001015490565b604051908152602001610171565b3480156101e657600080fd5b506101fa6101f5366004611383565b610516565b005b34801561020857600080fd5b506101fa610217366004611383565b610540565b34801561022857600080fd5b506101fa61023736600461134e565b6105c3565b34801561024857600080fd5b506101cc60015481565b34801561025e57600080fd5b5061027a73ddaaad7366b455aff8e7c82940c43ceb5829b60481565b6040516001600160a01b039091168152602001610171565b34801561029e57600080fd5b506101fa6102ad3660046113af565b6106b1565b3480156102be57600080fd5b506101fa6102cd3660046113ca565b6106cc565b3480156102de57600080fd5b506101fa6102ed36600461134e565b610716565b3480156102fe57600080fd5b506101fa61030d3660046113f4565b6107c9565b34801561031e57600080fd5b506101fa61032d36600461134e565b6108aa565b34801561033e57600080fd5b5061016561034d366004611383565b6108b5565b34801561035e57600080fd5b506101cc600081565b34801561037357600080fd5b5061027a7359414b3089ce2af0010e7523dea7e2b35d776ec781565b34801561039b57600080fd5b506101fa6103aa366004611383565b6108de565b3480156103bb57600080fd5b506101fa6103ca3660046113af565b610903565b3480156103db57600080fd5b506101fa6103ea36600461141e565b61091b565b3480156103fb57600080fd5b506101cc61040a366004611475565b610ac2565b34801561041b57600080fd5b506101fa61042a3660046113af565b610ad9565b34801561043b57600080fd5b506101cc60008051602061169683398151915281565b60006001600160e01b03198216637965db0b60e01b148061048257506301ffc9a760e01b6001600160e01b03198316145b92915050565b60028054610495906114b1565b80601f01602080910402602001604051908101604052809291908181526020018280546104c1906114b1565b801561050e5780601f106104e35761010080835404028352916020019161050e565b820191906000526020600020905b8154815290600101906020018083116104f157829003601f168201915b505050505081565b60008281526020819052604090206001015461053181610c38565b61053b8383610c42565b505050565b6001600160a01b03811633146105b55760405162461bcd60e51b815260206004820152602f60248201527f416363657373436f6e74726f6c3a2063616e206f6e6c792072656e6f756e636560448201526e103937b632b9903337b91039b2b63360891b60648201526084015b60405180910390fd5b6105bf8282610cc6565b5050565b336105dc600080516020611696833981519152826108b5565b6105f85760405162461bcd60e51b81526004016105ac906114eb565b600082116106485760405162461bcd60e51b815260206004820152601e60248201527f59616b416461707465723a204e6f7468696e6720746f207265636f766572000060448201526064016105ac565b604051339083156108fc029084906000818181858888f19350505050158015610675573d6000803e3d6000fd5b506040518281526000907f8c1256b8896378cd5044f80c202f9772b9d77dc85c8a6eb51967210b09bfaa28906020015b60405180910390a25050565b6106c960008051602061169683398151915282610516565b50565b336106e5600080516020611696833981519152826108b5565b6107015760405162461bcd60e51b81526004016105ac906114eb565b61053b6001600160a01b038416836000610af0565b3361072f600080516020611696833981519152826108b5565b61074b5760405162461bcd60e51b81526004016105ac906114eb565b816000036107925760405162461bcd60e51b8152602060048201526014602482015273496e76616c6964206761732d657374696d61746560601b60448201526064016105ac565b600182905560405182815230907ff43f23b7a28e6f8ce6843a21bd7b48bce778aa913b8c8cf459edf7d770e8d38a906020016106a5565b336107e2600080516020611696833981519152826108b5565b6107fe5760405162461bcd60e51b81526004016105ac906114eb565b6000821161084e5760405162461bcd60e51b815260206004820152601e60248201527f59616b416461707465723a204e6f7468696e6720746f207265636f766572000060448201526064016105ac565b6108626001600160a01b0384163384610d2b565b826001600160a01b03167f8c1256b8896378cd5044f80c202f9772b9d77dc85c8a6eb51967210b09bfaa288360405161089d91815260200190565b60405180910390a2505050565b336105bf8282610540565b6000918252602082815260408084206001600160a01b0393909316845291905290205460ff1690565b6000828152602081905260409020600101546108f981610c38565b61053b8383610cc6565b6106c9600080516020611696833981519152826108de565b6040516370a0823160e01b81526001600160a01b038281166004830152600091908416906370a0823190602401602060405180830381865afa158015610965573d6000803e3d6000fd5b505050506040513d601f19601f820116820180604052508101906109899190611533565b90506109988686868686610d5b565b6040516370a0823160e01b81526001600160a01b03838116600483015260009183918616906370a0823190602401602060405180830381865afa1580156109e3573d6000803e3d6000fd5b505050506040513d601f19601f82011682018060405250810190610a079190611533565b610a119190611562565b905085811015610a635760405162461bcd60e51b815260206004820152601760248201527f496e73756666696369656e7420616d6f756e742d6f757400000000000000000060448201526064016105ac565b836001600160a01b0316856001600160a01b03167fe2bdbc6b7225eb0a972ac943c485a6cc05f7c6811838bce8903f23200fb744fa8989604051610ab1929190918252602082015260400190565b60405180910390a350505050505050565b6000610acf848484610ef9565b90505b9392505050565b33610ae5600083610516565b6105bf600082610540565b801580610b6a5750604051636eb1769f60e11b81523060048201526001600160a01b03838116602483015284169063dd62ed3e90604401602060405180830381865afa158015610b44573d6000803e3d6000fd5b505050506040513d601f19601f82011682018060405250810190610b689190611533565b155b610bd55760405162461bcd60e51b815260206004820152603660248201527f5361666545524332303a20617070726f76652066726f6d206e6f6e2d7a65726f60448201527520746f206e6f6e2d7a65726f20616c6c6f77616e636560501b60648201526084016105ac565b6040516001600160a01b03831660248201526044810182905261053b90849063095ea7b360e01b906064015b60408051601f198184030181529190526020810180516001600160e01b03166001600160e01b031990931692909217909152610f9e565b6106c981336110cd565b610c4c82826108b5565b6105bf576000828152602081815260408083206001600160a01b03851684529091529020805460ff19166001179055610c823390565b6001600160a01b0316816001600160a01b0316837f2f8788117e7eff1d82e926ec794901d17c78024a50270940304540a733656f0d60405160405180910390a45050565b610cd082826108b5565b156105bf576000828152602081815260408083206001600160a01b0385168085529252808320805460ff1916905551339285917ff6391f5c32d9c69d2a47ea670b442974b53935d1edc7fd64eb21e047a839171b9190a45050565b6040516001600160a01b03831660248201526044810182905261053b90849063a9059cbb60e01b90606401610c01565b6001600160a01b03831673ddaaad7366b455aff8e7c82940c43ceb5829b604148015610da357506001600160a01b0382167359414b3089ce2af0010e7523dea7e2b35d776ec7145b15610e225760405163cabcc3e960e01b8152600481018690526001600160a01b038216602482015273ddaaad7366b455aff8e7c82940c43ceb5829b6049063cabcc3e9906044015b600060405180830381600087803b158015610e0557600080fd5b505af1158015610e19573d6000803e3d6000fd5b50505050610ef2565b6001600160a01b0383167359414b3089ce2af0010e7523dea7e2b35d776ec7148015610e6a57506001600160a01b03821673ddaaad7366b455aff8e7c82940c43ceb5829b604145b15610eb657604051635595409360e01b8152600481018690526001600160a01b038216602482015273ddaaad7366b455aff8e7c82940c43ceb5829b60490635595409390604401610deb565b60405162461bcd60e51b81526020600482015260116024820152702ab739bab83837b93a32b2103a37b5b2b760791b60448201526064016105ac565b5050505050565b60006001600160a01b03831673ddaaad7366b455aff8e7c82940c43ceb5829b604148015610f4357506001600160a01b0382167359414b3089ce2af0010e7523dea7e2b35d776ec7145b80610f9157506001600160a01b0383167359414b3089ce2af0010e7523dea7e2b35d776ec7148015610f9157506001600160a01b03821673ddaaad7366b455aff8e7c82940c43ceb5829b604145b15610ad257509192915050565b600080836001600160a01b031683604051610fb99190611575565b6000604051808303816000865af19150503d8060008114610ff6576040519150601f19603f3d011682016040523d82523d6000602084013e610ffb565b606091505b50915091508161104d5760405162461bcd60e51b815260206004820181905260248201527f5361666545524332303a206c6f772d6c6576656c2063616c6c206661696c656460448201526064016105ac565b8051156110c757808060200190518101906110689190611591565b6110c75760405162461bcd60e51b815260206004820152602a60248201527f5361666545524332303a204552433230206f7065726174696f6e20646964206e6044820152691bdd081cdd58d8d9595960b21b60648201526084016105ac565b50505050565b6110d782826108b5565b6105bf576110ef816001600160a01b03166014611131565b6110fa836020611131565b60405160200161110b9291906115b3565b60408051601f198184030181529082905262461bcd60e51b82526105ac9160040161131b565b60606000611140836002611628565b61114b90600261163f565b67ffffffffffffffff81111561116357611163611652565b6040519080825280601f01601f19166020018201604052801561118d576020820181803683370190505b509050600360fc1b816000815181106111a8576111a8611668565b60200101906001600160f81b031916908160001a905350600f60fb1b816001815181106111d7576111d7611668565b60200101906001600160f81b031916908160001a90535060006111fb846002611628565b61120690600161163f565b90505b600181111561127e576f181899199a1a9b1b9c1cb0b131b232b360811b85600f166010811061123a5761123a611668565b1a60f81b82828151811061125057611250611668565b60200101906001600160f81b031916908160001a90535060049490941c936112778161167e565b9050611209565b508315610ad25760405162461bcd60e51b815260206004820181905260248201527f537472696e67733a20686578206c656e67746820696e73756666696369656e7460448201526064016105ac565b6000602082840312156112df57600080fd5b81356001600160e01b031981168114610ad257600080fd5b60005b838110156113125781810151838201526020016112fa565b50506000910152565b602081526000825180602084015261133a8160408501602087016112f7565b601f01601f19169190910160400192915050565b60006020828403121561136057600080fd5b5035919050565b80356001600160a01b038116811461137e57600080fd5b919050565b6000806040838503121561139657600080fd5b823591506113a660208401611367565b90509250929050565b6000602082840312156113c157600080fd5b610ad282611367565b600080604083850312156113dd57600080fd5b6113e683611367565b91506113a660208401611367565b6000806040838503121561140757600080fd5b61141083611367565b946020939093013593505050565b600080600080600060a0868803121561143657600080fd5b853594506020860135935061144d60408701611367565b925061145b60608701611367565b915061146960808701611367565b90509295509295909350565b60008060006060848603121561148a57600080fd5b8335925061149a60208501611367565b91506114a860408501611367565b90509250925092565b600181811c908216806114c557607f821691505b6020821081036114e557634e487b7160e01b600052602260045260246000fd5b50919050565b60208082526028908201527f4d61696e7461696e61626c653a2043616c6c6572206973206e6f742061206d6160408201526734b73a30b4b732b960c11b606082015260800190565b60006020828403121561154557600080fd5b5051919050565b634e487b7160e01b600052601160045260246000fd5b818103818111156104825761048261154c565b600082516115878184602087016112f7565b9190910192915050565b6000602082840312156115a357600080fd5b81518015158114610ad257600080fd5b7f416363657373436f6e74726f6c3a206163636f756e74200000000000000000008152600083516115eb8160178501602088016112f7565b7001034b99036b4b9b9b4b733903937b6329607d1b601791840191820152835161161c8160288401602088016112f7565b01602801949350505050565b80820281158282048414176104825761048261154c565b808201808211156104825761048261154c565b634e487b7160e01b600052604160045260246000fd5b634e487b7160e01b600052603260045260246000fd5b60008161168d5761168d61154c565b50600019019056fe339759585899103d2ace64958e37e18ccb0504652c81d4a1b8aa80fe2126ab95a2646970667358221220f93809a89f85063ee58897fff0c6d53300b3a0b3b02b66bb5e934c01da28446b64736f6c63430008110033",
    "linkReferences": {}
  },
  "methodIdentifiers": {
    "DEFAULT_ADMIN_ROLE()": "a217fddf",
    "MAINTAINER_ROLE()": "f8742254",
    "YAK()": "cfdc463e",
    "addMaintainer(address)": "6b453c1f",
    "getRoleAdmin(bytes32)": "248a9ca3",
    "grantRole(bytes32,address)": "2f2ff15d",
    "hasRole(bytes32,address)": "91d14854",
    "mYAK()": "6a4ddbe8",
    "name()": "06fdde03",
    "query(uint256,address,address)": "ef99893a",
    "recoverAVAX(uint256)": "4ebb7916",
    "recoverERC20(address,uint256)": "8980f11f",
    "removeMaintainer(address)": "d8baf7cf",
    "renounceRole(bytes32)": "8bb9c5bf",
    "renounceRole(bytes32,address)": "36568abe",
    "revokeAllowance(address,address)": "7ae26773",
    "revokeRole(bytes32,address)": "d547741f",
    "setSwapGasEstimate(uint256)": "84a33e63",
    "supportsInterface(bytes4)": "01ffc9a7",
    "swap(uint256,uint256,address,address,address)": "eab90da6",
    "swapGasEstimate()": "69cff80d",
    "transferOwnership(address)": "f2fde38b"
  },
  "id": 31
}