{
  "abi": [
    {
      "inputs": [
        {
          "internalType": "string",
          "name": "_name",
          "type": "string"
        },
        {
          "internalType": "address",
          "name": "_vault",
          "type": "address"
        },
        {
          "internalType": "address[]",
          "name": "_pools",
          "type": "address[]"
        },
        {
          "internalType": "uint256",
          "name": "_swapGasEstimate",
          "type": "uint256"
        }
      ],
      "stateMutability": "nonpayable",
      "type": "constructor"
    },
    {
      "anonymous": false,
      "inputs": [
        {
          "indexed": true,
          "internalType": "address",
          "name": "_asset",
          "type": "address"
        },
        {
          "indexed": false,
          "internalType": "uint256",
          "name": "amount",
          "type": "uint256"
        }
      ],
      "name": "Recovered",
      "type": "event"
    },
    {
      "anonymous": false,
      "inputs": [
        {
          "indexed": true,
          "internalType": "bytes32",
          "name": "role",
          "type": "bytes32"
        },
        {
          "indexed": true,
          "internalType": "bytes32",
          "name": "previousAdminRole",
          "type": "bytes32"
        },
        {
          "indexed": true,
          "internalType": "bytes32",
          "name": "newAdminRole",
          "type": "bytes32"
        }
      ],
      "name": "RoleAdminChanged",
      "type": "event"
    },
    {
      "anonymous": false,
      "inputs": [
        {
          "indexed": true,
          "internalType": "bytes32",
          "name": "role",
          "type": "bytes32"
        },
        {
          "indexed": true,
          "internalType": "address",
          "name": "account",
          "type": "address"
        },
        {
          "indexed": true,
          "internalType": "address",
          "name": "sender",
          "type": "address"
        }
      ],
      "name": "RoleGranted",
      "type": "event"
    },
    {
      "anonymous": false,
      "inputs": [
        {
          "indexed": true,
          "internalType": "bytes32",
          "name": "role",
          "type": "bytes32"
        },
        {
          "indexed": true,
          "internalType": "address",
          "name": "account",
          "type": "address"
        },
        {
          "indexed": true,
          "internalType": "address",
          "name": "sender",
          "type": "address"
        }
      ],
      "name": "RoleRevoked",
      "type": "event"
    },
    {
      "anonymous": false,
      "inputs": [
        {
          "indexed": true,
          "internalType": "address",
          "name": "_adapter",
          "type": "address"
        },
        {
          "indexed": false,
          "internalType": "uint256",
          "name": "_newEstimate",
          "type": "uint256"
        }
      ],
      "name": "UpdatedGasEstimate",
      "type": "event"
    },
    {
      "anonymous": false,
      "inputs": [
        {
          "indexed": true,
          "internalType": "address",
          "name": "_tokenFrom",
          "type": "address"
        },
        {
          "indexed": true,
          "internalType": "address",
          "name": "_tokenTo",
          "type": "address"
        },
        {
          "indexed": false,
          "internalType": "uint256",
          "name": "_amountIn",
          "type": "uint256"
        },
        {
          "indexed": false,
          "internalType": "uint256",
          "name": "_amountOut",
          "type": "uint256"
        }
      ],
      "name": "YakAdapterSwap",
      "type": "event"
    },
    {
      "inputs": [],
      "name": "DEFAULT_ADMIN_ROLE",
      "outputs": [
        {
          "internalType": "bytes32",
          "name": "",
          "type": "bytes32"
        }
      ],
      "stateMutability": "view",
      "type": "function"
    },
    {
      "inputs": [],
      "name": "MAINTAINER_ROLE",
      "outputs": [
        {
          "internalType": "bytes32",
          "name": "",
          "type": "bytes32"
        }
      ],
      "stateMutability": "view",
      "type": "function"
    },
    {
      "inputs": [
        {
          "internalType": "address",
          "name": "addedMaintainer",
          "type": "address"
        }
      ],
      "name": "addMaintainer",
      "outputs": [],
      "stateMutability": "nonpayable",
      "type": "function"
    },
    {
      "inputs": [
        {
          "internalType": "address[]",
          "name": "_pools",
          "type": "address[]"
        }
      ],
      "name": "addPools",
      "outputs": [],
      "stateMutability": "nonpayable",
      "type": "function"
    },
    {
      "inputs": [
        {
          "internalType": "address",
          "name": "tokenIn",
          "type": "address"
        },
        {
          "internalType": "address",
          "name": "tokenOut",
          "type": "address"
        }
      ],
      "name": "getPools",
      "outputs": [
        {
          "internalType": "address[]",
          "name": "",
          "type": "address[]"
        }
      ],
      "stateMutability": "view",
      "type": "function"
    },
    {
      "inputs": [
        {
          "internalType": "bytes32",
          "name": "role",
          "type": "bytes32"
        }
      ],
      "name": "getRoleAdmin",
      "outputs": [
        {
          "internalType": "bytes32",
          "name": "",
          "type": "bytes32"
        }
      ],
      "stateMutability": "view",
      "type": "function"
    },
    {
      "inputs": [
        {
          "internalType": "bytes32",
          "name": "role",
          "type": "bytes32"
        },
        {
          "internalType": "address",
          "name": "account",
          "type": "address"
        }
      ],
      "name": "grantRole",
      "outputs": [],
      "stateMutability": "nonpayable",
      "type": "function"
    },
    {
      "inputs": [
        {
          "internalType": "bytes32",
          "name": "role",
          "type": "bytes32"
        },
        {
          "internalType": "address",
          "name": "account",
          "type": "address"
        }
      ],
      "name": "hasRole",
      "outputs": [
        {
          "internalType": "bool",
          "name": "",
          "type": "bool"
        }
      ],
      "stateMutability": "view",
      "type": "function"
    },
    {
      "inputs": [],
      "name": "name",
      "outputs": [
        {
          "internalType": "string",
          "name": "",
          "type": "string"
        }
      ],
      "stateMutability": "view",
      "type": "function"
    },
    {
      "inputs": [
        {
          "internalType": "uint256",
          "name": "_amountIn",
          "type": "uint256"
        },
        {
          "internalType": "address",
          "name": "_tokenIn",
          "type": "address"
        },
        {
          "internalType": "address",
          "name": "_tokenOut",
          "type": "address"
        }
      ],
      "name": "query",
      "outputs": [
        {
          "internalType": "uint256",
          "name": "",
          "type": "uint256"
        }
      ],
      "stateMutability": "view",
      "type": "function"
    },
    {
      "inputs": [
        {
          "internalType": "uint256",
          "name": "_amount",
          "type": "uint256"
        }
      ],
      "name": "recoverAVAX",
      "outputs": [],
      "stateMutability": "nonpayable",
      "type": "function"
    },
    {
      "inputs": [
        {
          "internalType": "address",
          "name": "_tokenAddress",
          "type": "address"
        },
        {
          "internalType": "uint256",
          "name": "_tokenAmount",
          "type": "uint256"
        }
      ],
      "name": "recoverERC20",
      "outputs": [],
      "stateMutability": "nonpayable",
      "type": "function"
    },
    {
      "inputs": [
        {
          "internalType": "address",
          "name": "removedMaintainer",
          "type": "address"
        }
      ],
      "name": "removeMaintainer",
      "outputs": [],
      "stateMutability": "nonpayable",
      "type": "function"
    },
    {
      "inputs": [
        {
          "internalType": "address[]",
          "name": "_pools",
          "type": "address[]"
        }
      ],
      "name": "removePools",
      "outputs": [],
      "stateMutability": "nonpayable",
      "type": "function"
    },
    {
      "inputs": [
        {
          "internalType": "bytes32",
          "name": "role",
          "type": "bytes32"
        },
        {
          "internalType": "address",
          "name": "account",
          "type": "address"
        }
      ],
      "name": "renounceRole",
      "outputs": [],
      "stateMutability": "nonpayable",
      "type": "function"
    },
    {
      "inputs": [
        {
          "internalType": "bytes32",
          "name": "role",
          "type": "bytes32"
        }
      ],
      "name": "renounceRole",
      "outputs": [],
      "stateMutability": "nonpayable",
      "type": "function"
    },
    {
      "inputs": [
        {
          "internalType": "address",
          "name": "_token",
          "type": "address"
        },
        {
          "internalType": "address",
          "name": "_spender",
          "type": "address"
        }
      ],
      "name": "revokeAllowance",
      "outputs": [],
      "stateMutability": "nonpayable",
      "type": "function"
    },
    {
      "inputs": [
        {
          "internalType": "bytes32",
          "name": "role",
          "type": "bytes32"
        },
        {
          "internalType": "address",
          "name": "account",
          "type": "address"
        }
      ],
      "name": "revokeRole",
      "outputs": [],
      "stateMutability": "nonpayable",
      "type": "function"
    },
    {
      "inputs": [
        {
          "internalType": "uint256",
          "name": "_estimate",
          "type": "uint256"
        }
      ],
      "name": "setSwapGasEstimate",
      "outputs": [],
      "stateMutability": "nonpayable",
      "type": "function"
    },
    {
      "inputs": [
        {
          "internalType": "bytes4",
          "name": "interfaceId",
          "type": "bytes4"
        }
      ],
      "name": "supportsInterface",
      "outputs": [
        {
          "internalType": "bool",
          "name": "",
          "type": "bool"
        }
      ],
      "stateMutability": "view",
      "type": "function"
    },
    {
      "inputs": [
        {
          "internalType": "uint256",
          "name": "_amountIn",
          "type": "uint256"
        },
        {
          "internalType": "uint256",
          "name": "_amountOut",
          "type": "uint256"
        },
        {
          "internalType": "address",
          "name": "_fromToken",
          "type": "address"
        },
        {
          "internalType": "address",
          "name": "_toToken",
          "type": "address"
        },
        {
          "internalType": "address",
          "name": "_to",
          "type": "address"
        }
      ],
      "name": "swap",
      "outputs": [],
      "stateMutability": "nonpayable",
      "type": "function"
    },
    {
      "inputs": [],
      "name": "swapGasEstimate",
      "outputs": [
        {
          "internalType": "uint256",
          "name": "",
          "type": "uint256"
        }
      ],
      "stateMutability": "view",
      "type": "function"
    },
    {
      "inputs": [
        {
          "internalType": "address",
          "name": "newOwner",
          "type": "address"
        }
      ],
      "name": "transferOwnership",
      "outputs": [],
      "stateMutability": "nonpayable",
      "type": "function"
    },
    {
      "inputs": [],
      "name": "vault",
      "outputs": [
        {
          "internalType": "address",
          "name": "",
          "type": "address"
        }
      ],
      "stateMutability": "view",
      "type": "function"
    },
    {
      "stateMutability": "payable",
      "type": "receive"
    }
  ],
  "bytecode": {
    "object": "0x60806040523480156200001157600080fd5b506040516200365d3803806200365d833981016040819052620000349162000a61565b83813362000044600082620000b9565b620000707f339759585899103d2ace64958e37e18ccb0504652c81d4a1b8aa80fe2126ab9582620000b9565b506200007c82620000c9565b62000087816200012e565b5050600380546001600160a01b0319166001600160a01b038516179055620000af826200022d565b5050505062000e8e565b620000c5828262000553565b5050565b8051600003620001205760405162461bcd60e51b815260206004820152601460248201527f496e76616c69642061646170746572206e616d6500000000000000000000000060448201526064015b60405180910390fd5b6002620000c5828262000bcf565b3360008181526000805160206200361d833981519152602052604090205460ff166200019d5760405162461bcd60e51b815260206004820152602860248201526000805160206200363d83398151915260448201526734b73a30b4b732b960c11b606482015260840162000117565b81600003620001ef5760405162461bcd60e51b815260206004820152601460248201527f496e76616c6964206761732d657374696d617465000000000000000000000000604482015260640162000117565b600182905560405182815230907ff43f23b7a28e6f8ce6843a21bd7b48bce778aa913b8c8cf459edf7d770e8d38a9060200160405180910390a25050565b3360008181526000805160206200361d833981519152602052604090205460ff166200029c5760405162461bcd60e51b815260206004820152602860248201526000805160206200363d83398151915260448201526734b73a30b4b732b960c11b606482015260840162000117565b60005b8251816001600160801b031610156200054e57600083826001600160801b031681518110620002d257620002d262000c9b565b602002602001015190506000816001600160a01b03166338fff2d06040518163ffffffff1660e01b8152600401602060405180830381865afa1580156200031d573d6000803e3d6000fd5b505050506040513d601f19601f8201168201806040525081019062000343919062000cb1565b600354604051631f29a8cd60e31b8152600481018390529192506000916001600160a01b039091169063f94d466890602401600060405180830381865afa15801562000393573d6000803e3d6000fd5b505050506040513d6000823e601f3d908101601f19168201604052620003bd919081019062000d2d565b5050905060005b8151816001600160801b031610156200053457600082826001600160801b031681518110620003f757620003f762000c9b565b6020908102919091018101516001600160a01b038781166000908152600484526040808220928416825291909352822080546001600160801b0319166001600160801b03861617905591505b8351816001600160801b031610156200051c57806001600160801b0316836001600160801b03161462000507576001600160a01b0382166000908152600560205260408120855190919086906001600160801b038516908110620004ab57620004ab62000c9b565b6020908102919091018101516001600160a01b039081168352828201939093526040909101600090812080546001810182559082529190200180546001600160a01b0319169188169190911790556200050782600019620005f3565b80620005138162000e08565b91505062000443565b505080806200052b9062000e08565b915050620003c4565b505050508080620005459062000e08565b9150506200029f565b505050565b6000828152602081815260408083206001600160a01b038516845290915290205460ff16620000c5576000828152602081815260408083206001600160a01b03851684529091529020805460ff19166001179055620005af3390565b6001600160a01b0316816001600160a01b0316837f2f8788117e7eff1d82e926ec794901d17c78024a50270940304540a733656f0d60405160405180910390a45050565b600354604051636eb1769f60e11b81523060048201526001600160a01b03918216602482015260009184169063dd62ed3e90604401602060405180830381865afa15801562000646573d6000803e3d6000fd5b505050506040513d601f19601f820116820180604052508101906200066c919062000cb1565b9050818110156200054e576003546200054e906001600160a01b038581169116846200069f602090811b6200124217901c565b8015806200071d5750604051636eb1769f60e11b81523060048201526001600160a01b03838116602483015284169063dd62ed3e90604401602060405180830381865afa158015620006f5573d6000803e3d6000fd5b505050506040513d601f19601f820116820180604052508101906200071b919062000cb1565b155b620007915760405162461bcd60e51b815260206004820152603660248201527f5361666545524332303a20617070726f76652066726f6d206e6f6e2d7a65726f60448201527f20746f206e6f6e2d7a65726f20616c6c6f77616e636500000000000000000000606482015260840162000117565b604080516001600160a01b038416602482015260448082018490528251808303909101815260649091019091526020810180516001600160e01b0390811663095ea7b360e01b179091526200054e918591620007e916565b600080836001600160a01b03168360405162000806919062000e45565b6000604051808303816000865af19150503d806000811462000845576040519150601f19603f3d011682016040523d82523d6000602084013e6200084a565b606091505b5091509150816200089e5760405162461bcd60e51b815260206004820181905260248201527f5361666545524332303a206c6f772d6c6576656c2063616c6c206661696c6564604482015260640162000117565b8051156200091d5780806020019051810190620008bc919062000e63565b6200091d5760405162461bcd60e51b815260206004820152602a60248201527f5361666545524332303a204552433230206f7065726174696f6e20646964206e6044820152691bdd081cdd58d8d9595960b21b606482015260840162000117565b50505050565b634e487b7160e01b600052604160045260246000fd5b604051601f8201601f191681016001600160401b038111828210171562000964576200096462000923565b604052919050565b60005b83811015620009895781810151838201526020016200096f565b50506000910152565b6001600160a01b0381168114620009a857600080fd5b50565b8051620009b88162000992565b919050565b60006001600160401b03821115620009d957620009d962000923565b5060051b60200190565b600082601f830112620009f557600080fd5b8151602062000a0e62000a0883620009bd565b62000939565b82815260059290921b8401810191818101908684111562000a2e57600080fd5b8286015b8481101562000a5657805162000a488162000992565b835291830191830162000a32565b509695505050505050565b6000806000806080858703121562000a7857600080fd5b84516001600160401b038082111562000a9057600080fd5b818701915087601f83011262000aa557600080fd5b81518181111562000aba5762000aba62000923565b62000acf601f8201601f191660200162000939565b81815289602083860101111562000ae557600080fd5b62000af88260208301602087016200096c565b965062000b0a905060208801620009ab565b9450604087015191508082111562000b2157600080fd5b5062000b3087828801620009e3565b606096909601519497939650505050565b600181811c9082168062000b5657607f821691505b60208210810362000b7757634e487b7160e01b600052602260045260246000fd5b50919050565b601f8211156200054e57600081815260208120601f850160051c8101602086101562000ba65750805b601f850160051c820191505b8181101562000bc75782815560010162000bb2565b505050505050565b81516001600160401b0381111562000beb5762000beb62000923565b62000c038162000bfc845462000b41565b8462000b7d565b602080601f83116001811462000c3b576000841562000c225750858301515b600019600386901b1c1916600185901b17855562000bc7565b600085815260208120601f198616915b8281101562000c6c5788860151825594840194600190910190840162000c4b565b508582101562000c8b5787850151600019600388901b60f8161c191681555b5050505050600190811b01905550565b634e487b7160e01b600052603260045260246000fd5b60006020828403121562000cc457600080fd5b5051919050565b600082601f83011262000cdd57600080fd5b8151602062000cf062000a0883620009bd565b82815260059290921b8401810191818101908684111562000d1057600080fd5b8286015b8481101562000a56578051835291830191830162000d14565b60008060006060848603121562000d4357600080fd5b83516001600160401b038082111562000d5b57600080fd5b818601915086601f83011262000d7057600080fd5b8151602062000d8362000a0883620009bd565b82815260059290921b8401810191818101908a84111562000da357600080fd5b948201945b8386101562000dce57855162000dbe8162000992565b8252948201949082019062000da8565b9189015191975090935050508082111562000de857600080fd5b5062000df78682870162000ccb565b925050604084015190509250925092565b60006001600160801b038281166002600160801b0319810162000e3b57634e487b7160e01b600052601160045260246000fd5b6001019392505050565b6000825162000e598184602087016200096c565b9190910192915050565b60006020828403121562000e7657600080fd5b8151801515811462000e8757600080fd5b9392505050565b61277f8062000e9e6000396000f3fe60806040526004361061014f5760003560e01c80638980f11f116100b6578063d8baf7cf1161006f578063d8baf7cf146103ca578063eab90da6146103ea578063ef99893a1461040a578063f2fde38b1461042a578063f87422541461044a578063fbfa77cf1461046c57600080fd5b80638980f11f146103155780638bb9c5bf1461033557806391d1485414610355578063a217fddf14610375578063b36a4ab11461038a578063d547741f146103aa57600080fd5b80634ebb7916116101085780634ebb7916146102525780635b1dc86f1461027257806369cff80d1461029f5780636b453c1f146102b55780637ae26773146102d557806384a33e63146102f557600080fd5b806301ffc9a71461015b57806306fdde0314610190578063248a9ca3146101b25780632f2ff15d146101f057806336568abe146102125780634b1641401461023257600080fd5b3661015657005b600080fd5b34801561016757600080fd5b5061017b610176366004611ef5565b6104a4565b60405190151581526020015b60405180910390f35b34801561019c57600080fd5b506101a56104db565b6040516101879190611f6f565b3480156101be57600080fd5b506101e26101cd366004611f82565b60009081526020819052604090206001015490565b604051908152602001610187565b3480156101fc57600080fd5b5061021061020b366004611fb0565b610569565b005b34801561021e57600080fd5b5061021061022d366004611fb0565b610593565b34801561023e57600080fd5b5061021061024d36600461204b565b610616565b34801561025e57600080fd5b5061021061026d366004611f82565b6109c0565b34801561027e57600080fd5b5061029261028d3660046120df565b610aae565b604051610187919061210d565b3480156102ab57600080fd5b506101e260015481565b3480156102c157600080fd5b506102106102d036600461215a565b610b31565b3480156102e157600080fd5b506102106102f03660046120df565b610b4c565b34801561030157600080fd5b50610210610310366004611f82565b610b96565b34801561032157600080fd5b50610210610330366004612177565b610c49565b34801561034157600080fd5b50610210610350366004611f82565b610d2a565b34801561036157600080fd5b5061017b610370366004611fb0565b610d35565b34801561038157600080fd5b506101e2600081565b34801561039657600080fd5b506102106103a536600461204b565b610d5e565b3480156103b657600080fd5b506102106103c5366004611fb0565b611030565b3480156103d657600080fd5b506102106103e536600461215a565b611055565b3480156103f657600080fd5b506102106104053660046121a3565b61106d565b34801561041657600080fd5b506101e2610425366004612202565b611214565b34801561043657600080fd5b5061021061044536600461215a565b61122b565b34801561045657600080fd5b506101e260008051602061272a83398151915281565b34801561047857600080fd5b5060035461048c906001600160a01b031681565b6040516001600160a01b039091168152602001610187565b60006001600160e01b03198216637965db0b60e01b14806104d557506301ffc9a760e01b6001600160e01b03198316145b92915050565b600280546104e890612244565b80601f016020809104026020016040519081016040528092919081815260200182805461051490612244565b80156105615780601f1061053657610100808354040283529160200191610561565b820191906000526020600020905b81548152906001019060200180831161054457829003601f168201915b505050505081565b6000828152602081905260409020600101546105848161138a565b61058e8383611394565b505050565b6001600160a01b03811633146106085760405162461bcd60e51b815260206004820152602f60248201527f416363657373436f6e74726f6c3a2063616e206f6e6c792072656e6f756e636560448201526e103937b632b9903337b91039b2b63360891b60648201526084015b60405180910390fd5b6106128282611418565b5050565b3361062f60008051602061272a83398151915282610d35565b61064b5760405162461bcd60e51b81526004016105ff9061227e565b60005b825181101561058e57600083828151811061066b5761066b6122c6565b602002602001015190506000816001600160a01b03166338fff2d06040518163ffffffff1660e01b8152600401602060405180830381865afa1580156106b5573d6000803e3d6000fd5b505050506040513d601f19601f820116820180604052508101906106d991906122dc565b600354604051631f29a8cd60e31b8152600481018390529192506000916001600160a01b039091169063f94d466890602401600060405180830381865afa158015610728573d6000803e3d6000fd5b505050506040513d6000823e601f3d908101601f19168201604052610750919081019061235b565b5050905060005b8151816001600160801b031610156109a957600082826001600160801b031681518110610786576107866122c6565b6020026020010151905060005b8351816001600160801b0316101561099457806001600160801b0316836001600160801b031614610982576001600160a01b03821660009081526005602052604081208551829087906001600160801b0386169081106107f5576107f56122c6565b60200260200101516001600160a01b03166001600160a01b0316815260200190815260200160002080548060200260200160405190810160405280929190818152602001828054801561087157602002820191906000526020600020905b81546001600160a01b03168152600190910190602001808311610853575b5050505050905060005b8151816001600160801b0316101561090b57876001600160a01b031682826001600160801b0316815181106108b2576108b26122c6565b60200260200101516001600160a01b0316036108f95781816001600160801b0316815181106108e3576108e36122c6565b6020026020010160006001600160a01b03168152505b806109038161243f565b91505061087b565b506001600160a01b0383166000908152600560205260408120865183929088906001600160801b038716908110610944576109446122c6565b60200260200101516001600160a01b03166001600160a01b03168152602001908152602001600020908051906020019061097f929190611e7b565b50505b8061098c8161243f565b915050610793565b505080806109a19061243f565b915050610757565b5050505080806109b890612465565b91505061064e565b336109d960008051602061272a83398151915282610d35565b6109f55760405162461bcd60e51b81526004016105ff9061227e565b60008211610a455760405162461bcd60e51b815260206004820152601e60248201527f59616b416461707465723a204e6f7468696e6720746f207265636f766572000060448201526064016105ff565b604051339083156108fc029084906000818181858888f19350505050158015610a72573d6000803e3d6000fd5b506040518281526000907f8c1256b8896378cd5044f80c202f9772b9d77dc85c8a6eb51967210b09bfaa28906020015b60405180910390a25050565b6001600160a01b038083166000908152600560209081526040808320938516835292815290829020805483518184028101840190945280845260609392830182828015610b2457602002820191906000526020600020905b81546001600160a01b03168152600190910190602001808311610b06575b5050505050905092915050565b610b4960008051602061272a83398151915282610569565b50565b33610b6560008051602061272a83398151915282610d35565b610b815760405162461bcd60e51b81526004016105ff9061227e565b61058e6001600160a01b038416836000611242565b33610baf60008051602061272a83398151915282610d35565b610bcb5760405162461bcd60e51b81526004016105ff9061227e565b81600003610c125760405162461bcd60e51b8152602060048201526014602482015273496e76616c6964206761732d657374696d61746560601b60448201526064016105ff565b600182905560405182815230907ff43f23b7a28e6f8ce6843a21bd7b48bce778aa913b8c8cf459edf7d770e8d38a90602001610aa2565b33610c6260008051602061272a83398151915282610d35565b610c7e5760405162461bcd60e51b81526004016105ff9061227e565b60008211610cce5760405162461bcd60e51b815260206004820152601e60248201527f59616b416461707465723a204e6f7468696e6720746f207265636f766572000060448201526064016105ff565b610ce26001600160a01b038416338461147d565b826001600160a01b03167f8c1256b8896378cd5044f80c202f9772b9d77dc85c8a6eb51967210b09bfaa2883604051610d1d91815260200190565b60405180910390a2505050565b336106128282610593565b6000918252602082815260408084206001600160a01b0393909316845291905290205460ff1690565b33610d7760008051602061272a83398151915282610d35565b610d935760405162461bcd60e51b81526004016105ff9061227e565b60005b8251816001600160801b0316101561058e57600083826001600160801b031681518110610dc557610dc56122c6565b602002602001015190506000816001600160a01b03166338fff2d06040518163ffffffff1660e01b8152600401602060405180830381865afa158015610e0f573d6000803e3d6000fd5b505050506040513d601f19601f82011682018060405250810190610e3391906122dc565b600354604051631f29a8cd60e31b8152600481018390529192506000916001600160a01b039091169063f94d466890602401600060405180830381865afa158015610e82573d6000803e3d6000fd5b505050506040513d6000823e601f3d908101601f19168201604052610eaa919081019061235b565b5050905060005b8151816001600160801b0316101561101957600082826001600160801b031681518110610ee057610ee06122c6565b6020908102919091018101516001600160a01b038781166000908152600484526040808220928416825291909352822080546fffffffffffffffffffffffffffffffff19166001600160801b03861617905591505b8351816001600160801b0316101561100457806001600160801b0316836001600160801b031614610ff2576001600160a01b0382166000908152600560205260408120855190919086906001600160801b038516908110610f9857610f986122c6565b6020908102919091018101516001600160a01b039081168352828201939093526040909101600090812080546001810182559082529190200180546001600160a01b031916918816919091179055610ff2826000196114ad565b80610ffc8161243f565b915050610f35565b505080806110119061243f565b915050610eb1565b5050505080806110289061243f565b915050610d96565b60008281526020819052604090206001015461104b8161138a565b61058e8383611418565b610b4960008051602061272a83398151915282611030565b6040516370a0823160e01b81526001600160a01b038281166004830152600091908416906370a0823190602401602060405180830381865afa1580156110b7573d6000803e3d6000fd5b505050506040513d601f19601f820116820180604052508101906110db91906122dc565b90506110ea8686868686611547565b6040516370a0823160e01b81526001600160a01b03838116600483015260009183918616906370a0823190602401602060405180830381865afa158015611135573d6000803e3d6000fd5b505050506040513d601f19601f8201168201806040525081019061115991906122dc565b611163919061247e565b9050858110156111b55760405162461bcd60e51b815260206004820152601760248201527f496e73756666696369656e7420616d6f756e742d6f757400000000000000000060448201526064016105ff565b836001600160a01b0316856001600160a01b03167fe2bdbc6b7225eb0a972ac943c485a6cc05f7c6811838bce8903f23200fb744fa8989604051611203929190918252602082015260400190565b60405180910390a350505050505050565b600061122184848461178b565b90505b9392505050565b33611237600083610569565b610612600082610593565b8015806112bc5750604051636eb1769f60e11b81523060048201526001600160a01b03838116602483015284169063dd62ed3e90604401602060405180830381865afa158015611296573d6000803e3d6000fd5b505050506040513d601f19601f820116820180604052508101906112ba91906122dc565b155b6113275760405162461bcd60e51b815260206004820152603660248201527f5361666545524332303a20617070726f76652066726f6d206e6f6e2d7a65726f60448201527520746f206e6f6e2d7a65726f20616c6c6f77616e636560501b60648201526084016105ff565b6040516001600160a01b03831660248201526044810182905261058e90849063095ea7b360e01b906064015b60408051601f198184030181529190526020810180516001600160e01b03166001600160e01b0319909316929092179091526117f2565b610b498133611921565b61139e8282610d35565b610612576000828152602081815260408083206001600160a01b03851684529091529020805460ff191660011790556113d43390565b6001600160a01b0316816001600160a01b0316837f2f8788117e7eff1d82e926ec794901d17c78024a50270940304540a733656f0d60405160405180910390a45050565b6114228282610d35565b15610612576000828152602081815260408083206001600160a01b0385168085529252808320805460ff1916905551339285917ff6391f5c32d9c69d2a47ea670b442974b53935d1edc7fd64eb21e047a839171b9190a45050565b6040516001600160a01b03831660248201526044810182905261058e90849063a9059cbb60e01b90606401611353565b600354604051636eb1769f60e11b81523060048201526001600160a01b03918216602482015260009184169063dd62ed3e90604401602060405180830381865afa1580156114ff573d6000803e3d6000fd5b505050506040513d601f19601f8201168201806040525081019061152391906122dc565b90508181101561058e5760035461058e906001600160a01b03858116911684611242565b60006115538484610aae565b9050600081511161159e5760405162461bcd60e51b81526020600482015260156024820152744e6f20706f6f6c7320666f72207377617070696e6760581b60448201526064016105ff565b60006115ac8286868a611985565b5090506001600160a01b0381166115f65760405162461bcd60e51b815260206004820152600e60248201526d155b9919599a5b9959081c1bdbdb60921b60448201526064016105ff565b6116426040805160c0810190915260008082526020820190815260200160006001600160a01b0316815260200160006001600160a01b0316815260200160008152602001606081525090565b816001600160a01b03166338fff2d06040518163ffffffff1660e01b8152600401602060405180830381865afa158015611680573d6000803e3d6000fd5b505050506040513d601f19601f820116820180604052508101906116a491906122dc565b8152600060208083018290526001600160a01b0388811660408086019190915288821660608087019190915260808087018e9052825180840184526002815261060f60f31b8187015260a0880152825190810183529384018590528301939093523082528681168284015260035492516352bbbe2960e01b8152919216906352bbbe299061173c90859085908d9042906004016124b3565b6020604051808303816000875af115801561175b573d6000803e3d6000fd5b505050506040513d601f19601f8201168201806040525081019061177f91906122dc565b50505050505050505050565b60008315806117ab5750816001600160a01b0316836001600160a01b0316145b156117b857506000611224565b60006117c48484610aae565b905080516000036117d9576000915050611224565b60006117e782868689611985565b979650505050505050565b600080836001600160a01b03168360405161180d919061256e565b6000604051808303816000865af19150503d806000811461184a576040519150601f19603f3d011682016040523d82523d6000602084013e61184f565b606091505b5091509150816118a15760405162461bcd60e51b815260206004820181905260248201527f5361666545524332303a206c6f772d6c6576656c2063616c6c206661696c656460448201526064016105ff565b80511561191b57808060200190518101906118bc919061258a565b61191b5760405162461bcd60e51b815260206004820152602a60248201527f5361666545524332303a204552433230206f7065726174696f6e20646964206e6044820152691bdd081cdd58d8d9595960b21b60648201526084016105ff565b50505050565b61192b8282610d35565b61061257611943816001600160a01b03166014611b1b565b61194e836020611b1b565b60405160200161195f9291906125ac565b60408051601f198184030181529082905262461bcd60e51b82526105ff91600401611f6f565b600080805b8651816001600160801b03161015611b1157600087826001600160801b0316815181106119b9576119b96122c6565b6020026020010151905060006001600160a01b0316816001600160a01b0316036119e35750611aff565b604080516101208101825260008082526020820181905291810182905260608082018390526080820183905260a0820183905260c0820183905260e0820192909252610100810191909152816001600160a01b03166338fff2d06040518163ffffffff1660e01b8152600401602060405180830381865afa158015611a6c573d6000803e3d6000fd5b505050506040513d601f19601f82011682018060405250810190611a9091906122dc565b608082015260008082526001600160a01b038981166020808501919091529089166040808501919091526060840189905280518082019091526002815261060f60f31b91810191909152610100830152611aea8284611cb7565b905084811115611afb578094508295505b5050505b80611b098161243f565b91505061198a565b5094509492505050565b60606000611b2a836002612621565b611b35906002612638565b67ffffffffffffffff811115611b4d57611b4d611fe0565b6040519080825280601f01601f191660200182016040528015611b77576020820181803683370190505b509050600360fc1b81600081518110611b9257611b926122c6565b60200101906001600160f81b031916908160001a905350600f60fb1b81600181518110611bc157611bc16122c6565b60200101906001600160f81b031916908160001a9053506000611be5846002612621565b611bf0906001612638565b90505b6001811115611c68576f181899199a1a9b1b9c1cb0b131b232b360811b85600f1660108110611c2457611c246122c6565b1a60f81b828281518110611c3a57611c3a6122c6565b60200101906001600160f81b031916908160001a90535060049490941c93611c618161264b565b9050611bf3565b5083156112245760405162461bcd60e51b815260206004820181905260248201527f537472696e67733a20686578206c656e67746820696e73756666696369656e7460448201526064016105ff565b6003546080830151604051631f29a8cd60e31b815260009283926001600160a01b039091169163f94d466891611cf39160040190815260200190565b600060405180830381865afa158015611d10573d6000803e3d6000fd5b505050506040513d6000823e601f3d908101601f19168201604052611d38919081019061235b565b506001600160a01b0380861660009081526004602090815260408083208a830151909416835292905290812054825192945090925083916001600160801b03909116908110611d8957611d896122c6565b6020908102919091018101516001600160a01b0380871660009081526004845260408082208a820151909316825291909352822054845191935084916001600160801b03909116908110611ddf57611ddf6122c6565b60200260200101519050611df586838388611dff565b9695505050505050565b60405163274b044360e21b81526000906001600160a01b03831690639d2c110c90611e3290889088908890600401612662565b602060405180830381865afa925050508015611e6b575060408051601f3d908101601f19168201909252611e68918101906122dc565b60015b15611e735790505b949350505050565b828054828255906000526020600020908101928215611ed0579160200282015b82811115611ed057825182546001600160a01b0319166001600160a01b03909116178255602090920191600190910190611e9b565b50611edc929150611ee0565b5090565b5b80821115611edc5760008155600101611ee1565b600060208284031215611f0757600080fd5b81356001600160e01b03198116811461122457600080fd5b60005b83811015611f3a578181015183820152602001611f22565b50506000910152565b60008151808452611f5b816020860160208601611f1f565b601f01601f19169290920160200192915050565b6020815260006112246020830184611f43565b600060208284031215611f9457600080fd5b5035919050565b6001600160a01b0381168114610b4957600080fd5b60008060408385031215611fc357600080fd5b823591506020830135611fd581611f9b565b809150509250929050565b634e487b7160e01b600052604160045260246000fd5b604051601f8201601f1916810167ffffffffffffffff8111828210171561201f5761201f611fe0565b604052919050565b600067ffffffffffffffff82111561204157612041611fe0565b5060051b60200190565b6000602080838503121561205e57600080fd5b823567ffffffffffffffff81111561207557600080fd5b8301601f8101851361208657600080fd5b803561209961209482612027565b611ff6565b81815260059190911b820183019083810190878311156120b857600080fd5b928401925b828410156117e75783356120d081611f9b565b825292840192908401906120bd565b600080604083850312156120f257600080fd5b82356120fd81611f9b565b91506020830135611fd581611f9b565b6020808252825182820181905260009190848201906040850190845b8181101561214e5783516001600160a01b031683529284019291840191600101612129565b50909695505050505050565b60006020828403121561216c57600080fd5b813561122481611f9b565b6000806040838503121561218a57600080fd5b823561219581611f9b565b946020939093013593505050565b600080600080600060a086880312156121bb57600080fd5b853594506020860135935060408601356121d481611f9b565b925060608601356121e481611f9b565b915060808601356121f481611f9b565b809150509295509295909350565b60008060006060848603121561221757600080fd5b83359250602084013561222981611f9b565b9150604084013561223981611f9b565b809150509250925092565b600181811c9082168061225857607f821691505b60208210810361227857634e487b7160e01b600052602260045260246000fd5b50919050565b60208082526028908201527f4d61696e7461696e61626c653a2043616c6c6572206973206e6f742061206d6160408201526734b73a30b4b732b960c11b606082015260800190565b634e487b7160e01b600052603260045260246000fd5b6000602082840312156122ee57600080fd5b5051919050565b600082601f83011261230657600080fd5b8151602061231661209483612027565b82815260059290921b8401810191818101908684111561233557600080fd5b8286015b848110156123505780518352918301918301612339565b509695505050505050565b60008060006060848603121561237057600080fd5b835167ffffffffffffffff8082111561238857600080fd5b818601915086601f83011261239c57600080fd5b815160206123ac61209483612027565b82815260059290921b8401810191818101908a8411156123cb57600080fd5b948201945b838610156123f25785516123e381611f9b565b825294820194908201906123d0565b9189015191975090935050508082111561240b57600080fd5b50612418868287016122f5565b925050604084015190509250925092565b634e487b7160e01b600052601160045260246000fd5b60006001600160801b0380831681810361245b5761245b612429565b6001019392505050565b60006001820161247757612477612429565b5060010190565b818103818111156104d5576104d5612429565b600281106124af57634e487b7160e01b600052602160045260246000fd5b9052565b60e08152845160e0820152600060208601516124d3610100840182612491565b5060408601516001600160a01b03908116610120840152606087015116610140830152608086015161016083015260a086015160c061018084015261251c6101a0840182611f43565b91505061255c602083018680516001600160a01b039081168352602080830151151590840152604080830151909116908301526060908101511515910152565b60a082019390935260c0015292915050565b60008251612580818460208701611f1f565b9190910192915050565b60006020828403121561259c57600080fd5b8151801515811461122457600080fd5b7f416363657373436f6e74726f6c3a206163636f756e74200000000000000000008152600083516125e4816017850160208801611f1f565b7001034b99036b4b9b9b4b733903937b6329607d1b6017918401918201528351612615816028840160208801611f1f565b01602801949350505050565b80820281158282048414176104d5576104d5612429565b808201808211156104d5576104d5612429565b60008161265a5761265a612429565b506000190190565b60608152612674606082018551612491565b6000602085015161269060808401826001600160a01b03169052565b5060408501516001600160a01b03811660a084015250606085015160c0830152608085015160e083015260a0850151610100818185015260c087015191506101206126e5818601846001600160a01b03169052565b60e08801516001600160a01b0316610140860152908701516101608501919091529050612716610180840182611f43565b602084019590955250506040015291905056fe339759585899103d2ace64958e37e18ccb0504652c81d4a1b8aa80fe2126ab95a2646970667358221220e8ff547163063e11c3b684e61d6948fa058cf83b2bb88c5a6500a001490781aa64736f6c63430008110033a54247010af6b3693b80aceddfad12e077c5de3571e6243fada502635f0d7d394d61696e7461696e61626c653a2043616c6c6572206973206e6f742061206d61",
    "linkReferences": {}
  },
  "methodIdentifiers": {
    "DEFAULT_ADMIN_ROLE()": "a217fddf",
    "MAINTAINER_ROLE()": "f8742254",
    "addMaintainer(address)": "6b453c1f",
    "addPools(address[])": "b36a4ab1",
    "getPools(address,address)": "5b1dc86f",
    "getRoleAdmin(bytes32)": "248a9ca3",
    "grantRole(bytes32,address)": "2f2ff15d",
    "hasRole(bytes32,address)": "91d14854",
    "name()": "06fdde03",
    "query(uint256,address,address)": "ef99893a",
    "recoverAVAX(uint256)": "4ebb7916",
    "recoverERC20(address,uint256)": "8980f11f",
    "removeMaintainer(address)": "d8baf7cf",
    "removePools(address[])": "4b164140",
    "renounceRole(bytes32)": "8bb9c5bf",
    "renounceRole(bytes32,address)": "36568abe",
    "revokeAllowance(address,address)": "7ae26773",
    "revokeRole(bytes32,address)": "d547741f",
    "setSwapGasEstimate(uint256)": "84a33e63",
    "supportsInterface(bytes4)": "01ffc9a7",
    "swap(uint256,uint256,address,address,address)": "eab90da6",
    "swapGasEstimate()": "69cff80d",
    "transferOwnership(address)": "f2fde38b",
    "vault()": "fbfa77cf"
  },
  "id": 14
}