{
  "abi": [
    {
      "inputs": [
        {
          "internalType": "address[]",
          "name": "_adapters",
          "type": "address[]"
        },
        {
          "internalType": "address[]",
          "name": "_trustedTokens",
          "type": "address[]"
        },
        {
          "internalType": "address",
          "name": "_feeClaimer",
          "type": "address"
        },
        {
          "internalType": "address",
          "name": "_wrapped_native",
          "type": "address"
        }
      ],
      "stateMutability": "nonpayable",
      "type": "constructor"
    },
    {
      "anonymous": false,
      "inputs": [
        {
          "indexed": true,
          "internalType": "address",
          "name": "_asset",
          "type": "address"
        },
        {
          "indexed": false,
          "internalType": "uint256",
          "name": "amount",
          "type": "uint256"
        }
      ],
      "name": "Recovered",
      "type": "event"
    },
    {
      "anonymous": false,
      "inputs": [
        {
          "indexed": true,
          "internalType": "bytes32",
          "name": "role",
          "type": "bytes32"
        },
        {
          "indexed": true,
          "internalType": "bytes32",
          "name": "previousAdminRole",
          "type": "bytes32"
        },
        {
          "indexed": true,
          "internalType": "bytes32",
          "name": "newAdminRole",
          "type": "bytes32"
        }
      ],
      "name": "RoleAdminChanged",
      "type": "event"
    },
    {
      "anonymous": false,
      "inputs": [
        {
          "indexed": true,
          "internalType": "bytes32",
          "name": "role",
          "type": "bytes32"
        },
        {
          "indexed": true,
          "internalType": "address",
          "name": "account",
          "type": "address"
        },
        {
          "indexed": true,
          "internalType": "address",
          "name": "sender",
          "type": "address"
        }
      ],
      "name": "RoleGranted",
      "type": "event"
    },
    {
      "anonymous": false,
      "inputs": [
        {
          "indexed": true,
          "internalType": "bytes32",
          "name": "role",
          "type": "bytes32"
        },
        {
          "indexed": true,
          "internalType": "address",
          "name": "account",
          "type": "address"
        },
        {
          "indexed": true,
          "internalType": "address",
          "name": "sender",
          "type": "address"
        }
      ],
      "name": "RoleRevoked",
      "type": "event"
    },
    {
      "anonymous": false,
      "inputs": [
        {
          "indexed": false,
          "internalType": "address[]",
          "name": "_newAdapters",
          "type": "address[]"
        }
      ],
      "name": "UpdatedAdapters",
      "type": "event"
    },
    {
      "anonymous": false,
      "inputs": [
        {
          "indexed": false,
          "internalType": "address",
          "name": "_oldFeeClaimer",
          "type": "address"
        },
        {
          "indexed": false,
          "internalType": "address",
          "name": "_newFeeClaimer",
          "type": "address"
        }
      ],
      "name": "UpdatedFeeClaimer",
      "type": "event"
    },
    {
      "anonymous": false,
      "inputs": [
        {
          "indexed": false,
          "internalType": "uint256",
          "name": "_oldMinFee",
          "type": "uint256"
        },
        {
          "indexed": false,
          "internalType": "uint256",
          "name": "_newMinFee",
          "type": "uint256"
        }
      ],
      "name": "UpdatedMinFee",
      "type": "event"
    },
    {
      "anonymous": false,
      "inputs": [
        {
          "indexed": false,
          "internalType": "address[]",
          "name": "_newTrustedTokens",
          "type": "address[]"
        }
      ],
      "name": "UpdatedTrustedTokens",
      "type": "event"
    },
    {
      "anonymous": false,
      "inputs": [
        {
          "indexed": true,
          "internalType": "address",
          "name": "_tokenIn",
          "type": "address"
        },
        {
          "indexed": true,
          "internalType": "address",
          "name": "_tokenOut",
          "type": "address"
        },
        {
          "indexed": false,
          "internalType": "uint256",
          "name": "_amountIn",
          "type": "uint256"
        },
        {
          "indexed": false,
          "internalType": "uint256",
          "name": "_amountOut",
          "type": "uint256"
        }
      ],
      "name": "YakSwap",
      "type": "event"
    },
    {
      "inputs": [
        {
          "internalType": "uint256",
          "name": "",
          "type": "uint256"
        }
      ],
      "name": "ADAPTERS",
      "outputs": [
        {
          "internalType": "address",
          "name": "",
          "type": "address"
        }
      ],
      "stateMutability": "view",
      "type": "function"
    },
    {
      "inputs": [],
      "name": "DEFAULT_ADMIN_ROLE",
      "outputs": [
        {
          "internalType": "bytes32",
          "name": "",
          "type": "bytes32"
        }
      ],
      "stateMutability": "view",
      "type": "function"
    },
    {
      "inputs": [],
      "name": "FEE_CLAIMER",
      "outputs": [
        {
          "internalType": "address",
          "name": "",
          "type": "address"
        }
      ],
      "stateMutability": "view",
      "type": "function"
    },
    {
      "inputs": [],
      "name": "FEE_DENOMINATOR",
      "outputs": [
        {
          "internalType": "uint256",
          "name": "",
          "type": "uint256"
        }
      ],
      "stateMutability": "view",
      "type": "function"
    },
    {
      "inputs": [],
      "name": "MAINTAINER_ROLE",
      "outputs": [
        {
          "internalType": "bytes32",
          "name": "",
          "type": "bytes32"
        }
      ],
      "stateMutability": "view",
      "type": "function"
    },
    {
      "inputs": [],
      "name": "MIN_FEE",
      "outputs": [
        {
          "internalType": "uint256",
          "name": "",
          "type": "uint256"
        }
      ],
      "stateMutability": "view",
      "type": "function"
    },
    {
      "inputs": [],
      "name": "NAME",
      "outputs": [
        {
          "internalType": "string",
          "name": "",
          "type": "string"
        }
      ],
      "stateMutability": "view",
      "type": "function"
    },
    {
      "inputs": [],
      "name": "NATIVE",
      "outputs": [
        {
          "internalType": "address",
          "name": "",
          "type": "address"
        }
      ],
      "stateMutability": "view",
      "type": "function"
    },
    {
      "inputs": [
        {
          "internalType": "uint256",
          "name": "",
          "type": "uint256"
        }
      ],
      "name": "TRUSTED_TOKENS",
      "outputs": [
        {
          "internalType": "address",
          "name": "",
          "type": "address"
        }
      ],
      "stateMutability": "view",
      "type": "function"
    },
    {
      "inputs": [],
      "name": "WNATIVE",
      "outputs": [
        {
          "internalType": "address",
          "name": "",
          "type": "address"
        }
      ],
      "stateMutability": "view",
      "type": "function"
    },
    {
      "inputs": [],
      "name": "adaptersCount",
      "outputs": [
        {
          "internalType": "uint256",
          "name": "",
          "type": "uint256"
        }
      ],
      "stateMutability": "view",
      "type": "function"
    },
    {
      "inputs": [
        {
          "internalType": "address",
          "name": "addedMaintainer",
          "type": "address"
        }
      ],
      "name": "addMaintainer",
      "outputs": [],
      "stateMutability": "nonpayable",
      "type": "function"
    },
    {
      "inputs": [
        {
          "internalType": "uint256",
          "name": "_amountIn",
          "type": "uint256"
        },
        {
          "internalType": "address",
          "name": "_tokenIn",
          "type": "address"
        },
        {
          "internalType": "address",
          "name": "_tokenOut",
          "type": "address"
        },
        {
          "internalType": "uint256",
          "name": "_maxSteps",
          "type": "uint256"
        }
      ],
      "name": "findBestPath",
      "outputs": [
        {
          "components": [
            {
              "internalType": "uint256[]",
              "name": "amounts",
              "type": "uint256[]"
            },
            {
              "internalType": "address[]",
              "name": "adapters",
              "type": "address[]"
            },
            {
              "internalType": "address[]",
              "name": "path",
              "type": "address[]"
            },
            {
              "internalType": "uint256",
              "name": "gasEstimate",
              "type": "uint256"
            }
          ],
          "internalType": "struct YakRouter.FormattedOffer",
          "name": "",
          "type": "tuple"
        }
      ],
      "stateMutability": "view",
      "type": "function"
    },
    {
      "inputs": [
        {
          "internalType": "uint256",
          "name": "_amountIn",
          "type": "uint256"
        },
        {
          "internalType": "address",
          "name": "_tokenIn",
          "type": "address"
        },
        {
          "internalType": "address",
          "name": "_tokenOut",
          "type": "address"
        },
        {
          "internalType": "uint256",
          "name": "_maxSteps",
          "type": "uint256"
        },
        {
          "internalType": "uint256",
          "name": "_gasPrice",
          "type": "uint256"
        }
      ],
      "name": "findBestPathWithGas",
      "outputs": [
        {
          "components": [
            {
              "internalType": "uint256[]",
              "name": "amounts",
              "type": "uint256[]"
            },
            {
              "internalType": "address[]",
              "name": "adapters",
              "type": "address[]"
            },
            {
              "internalType": "address[]",
              "name": "path",
              "type": "address[]"
            },
            {
              "internalType": "uint256",
              "name": "gasEstimate",
              "type": "uint256"
            }
          ],
          "internalType": "struct YakRouter.FormattedOffer",
          "name": "",
          "type": "tuple"
        }
      ],
      "stateMutability": "view",
      "type": "function"
    },
    {
      "inputs": [
        {
          "internalType": "bytes32",
          "name": "role",
          "type": "bytes32"
        }
      ],
      "name": "getRoleAdmin",
      "outputs": [
        {
          "internalType": "bytes32",
          "name": "",
          "type": "bytes32"
        }
      ],
      "stateMutability": "view",
      "type": "function"
    },
    {
      "inputs": [
        {
          "internalType": "bytes32",
          "name": "role",
          "type": "bytes32"
        },
        {
          "internalType": "address",
          "name": "account",
          "type": "address"
        }
      ],
      "name": "grantRole",
      "outputs": [],
      "stateMutability": "nonpayable",
      "type": "function"
    },
    {
      "inputs": [
        {
          "internalType": "bytes32",
          "name": "role",
          "type": "bytes32"
        },
        {
          "internalType": "address",
          "name": "account",
          "type": "address"
        }
      ],
      "name": "hasRole",
      "outputs": [
        {
          "internalType": "bool",
          "name": "",
          "type": "bool"
        }
      ],
      "stateMutability": "view",
      "type": "function"
    },
    {
      "inputs": [
        {
          "internalType": "uint256",
          "name": "_amountIn",
          "type": "uint256"
        },
        {
          "internalType": "address",
          "name": "_tokenIn",
          "type": "address"
        },
        {
          "internalType": "address",
          "name": "_tokenOut",
          "type": "address"
        },
        {
          "internalType": "uint8",
          "name": "_index",
          "type": "uint8"
        }
      ],
      "name": "queryAdapter",
      "outputs": [
        {
          "internalType": "uint256",
          "name": "",
          "type": "uint256"
        }
      ],
      "stateMutability": "view",
      "type": "function"
    },
    {
      "inputs": [
        {
          "internalType": "uint256",
          "name": "_amountIn",
          "type": "uint256"
        },
        {
          "internalType": "address",
          "name": "_tokenIn",
          "type": "address"
        },
        {
          "internalType": "address",
          "name": "_tokenOut",
          "type": "address"
        },
        {
          "internalType": "uint8[]",
          "name": "_options",
          "type": "uint8[]"
        }
      ],
      "name": "queryNoSplit",
      "outputs": [
        {
          "components": [
            {
              "internalType": "address",
              "name": "adapter",
              "type": "address"
            },
            {
              "internalType": "address",
              "name": "tokenIn",
              "type": "address"
            },
            {
              "internalType": "address",
              "name": "tokenOut",
              "type": "address"
            },
            {
              "internalType": "uint256",
              "name": "amountOut",
              "type": "uint256"
            }
          ],
          "internalType": "struct YakRouter.Query",
          "name": "",
          "type": "tuple"
        }
      ],
      "stateMutability": "view",
      "type": "function"
    },
    {
      "inputs": [
        {
          "internalType": "uint256",
          "name": "_amountIn",
          "type": "uint256"
        },
        {
          "internalType": "address",
          "name": "_tokenIn",
          "type": "address"
        },
        {
          "internalType": "address",
          "name": "_tokenOut",
          "type": "address"
        }
      ],
      "name": "queryNoSplit",
      "outputs": [
        {
          "components": [
            {
              "internalType": "address",
              "name": "adapter",
              "type": "address"
            },
            {
              "internalType": "address",
              "name": "tokenIn",
              "type": "address"
            },
            {
              "internalType": "address",
              "name": "tokenOut",
              "type": "address"
            },
            {
              "internalType": "uint256",
              "name": "amountOut",
              "type": "uint256"
            }
          ],
          "internalType": "struct YakRouter.Query",
          "name": "",
          "type": "tuple"
        }
      ],
      "stateMutability": "view",
      "type": "function"
    },
    {
      "inputs": [
        {
          "internalType": "uint256",
          "name": "_amount",
          "type": "uint256"
        }
      ],
      "name": "recoverAVAX",
      "outputs": [],
      "stateMutability": "nonpayable",
      "type": "function"
    },
    {
      "inputs": [
        {
          "internalType": "address",
          "name": "_tokenAddress",
          "type": "address"
        },
        {
          "internalType": "uint256",
          "name": "_tokenAmount",
          "type": "uint256"
        }
      ],
      "name": "recoverERC20",
      "outputs": [],
      "stateMutability": "nonpayable",
      "type": "function"
    },
    {
      "inputs": [
        {
          "internalType": "address",
          "name": "removedMaintainer",
          "type": "address"
        }
      ],
      "name": "removeMaintainer",
      "outputs": [],
      "stateMutability": "nonpayable",
      "type": "function"
    },
    {
      "inputs": [
        {
          "internalType": "bytes32",
          "name": "role",
          "type": "bytes32"
        },
        {
          "internalType": "address",
          "name": "account",
          "type": "address"
        }
      ],
      "name": "renounceRole",
      "outputs": [],
      "stateMutability": "nonpayable",
      "type": "function"
    },
    {
      "inputs": [
        {
          "internalType": "bytes32",
          "name": "role",
          "type": "bytes32"
        }
      ],
      "name": "renounceRole",
      "outputs": [],
      "stateMutability": "nonpayable",
      "type": "function"
    },
    {
      "inputs": [
        {
          "internalType": "bytes32",
          "name": "role",
          "type": "bytes32"
        },
        {
          "internalType": "address",
          "name": "account",
          "type": "address"
        }
      ],
      "name": "revokeRole",
      "outputs": [],
      "stateMutability": "nonpayable",
      "type": "function"
    },
    {
      "inputs": [
        {
          "internalType": "address[]",
          "name": "_adapters",
          "type": "address[]"
        }
      ],
      "name": "setAdapters",
      "outputs": [],
      "stateMutability": "nonpayable",
      "type": "function"
    },
    {
      "inputs": [
        {
          "internalType": "address",
          "name": "_claimer",
          "type": "address"
        }
      ],
      "name": "setFeeClaimer",
      "outputs": [],
      "stateMutability": "nonpayable",
      "type": "function"
    },
    {
      "inputs": [
        {
          "internalType": "uint256",
          "name": "_fee",
          "type": "uint256"
        }
      ],
      "name": "setMinFee",
      "outputs": [],
      "stateMutability": "nonpayable",
      "type": "function"
    },
    {
      "inputs": [
        {
          "internalType": "address[]",
          "name": "_trustedTokens",
          "type": "address[]"
        }
      ],
      "name": "setTrustedTokens",
      "outputs": [],
      "stateMutability": "nonpayable",
      "type": "function"
    },
    {
      "inputs": [
        {
          "internalType": "bytes4",
          "name": "interfaceId",
          "type": "bytes4"
        }
      ],
      "name": "supportsInterface",
      "outputs": [
        {
          "internalType": "bool",
          "name": "",
          "type": "bool"
        }
      ],
      "stateMutability": "view",
      "type": "function"
    },
    {
      "inputs": [
        {
          "components": [
            {
              "internalType": "uint256",
              "name": "amountIn",
              "type": "uint256"
            },
            {
              "internalType": "uint256",
              "name": "amountOut",
              "type": "uint256"
            },
            {
              "internalType": "address[]",
              "name": "path",
              "type": "address[]"
            },
            {
              "internalType": "address[]",
              "name": "adapters",
              "type": "address[]"
            }
          ],
          "internalType": "struct YakRouter.Trade",
          "name": "_trade",
          "type": "tuple"
        },
        {
          "internalType": "address",
          "name": "_to",
          "type": "address"
        },
        {
          "internalType": "uint256",
          "name": "_fee",
          "type": "uint256"
        }
      ],
      "name": "swapNoSplit",
      "outputs": [],
      "stateMutability": "nonpayable",
      "type": "function"
    },
    {
      "inputs": [
        {
          "components": [
            {
              "internalType": "uint256",
              "name": "amountIn",
              "type": "uint256"
            },
            {
              "internalType": "uint256",
              "name": "amountOut",
              "type": "uint256"
            },
            {
              "internalType": "address[]",
              "name": "path",
              "type": "address[]"
            },
            {
              "internalType": "address[]",
              "name": "adapters",
              "type": "address[]"
            }
          ],
          "internalType": "struct YakRouter.Trade",
          "name": "_trade",
          "type": "tuple"
        },
        {
          "internalType": "address",
          "name": "_to",
          "type": "address"
        },
        {
          "internalType": "uint256",
          "name": "_fee",
          "type": "uint256"
        }
      ],
      "name": "swapNoSplitFromAVAX",
      "outputs": [],
      "stateMutability": "payable",
      "type": "function"
    },
    {
      "inputs": [
        {
          "components": [
            {
              "internalType": "uint256",
              "name": "amountIn",
              "type": "uint256"
            },
            {
              "internalType": "uint256",
              "name": "amountOut",
              "type": "uint256"
            },
            {
              "internalType": "address[]",
              "name": "path",
              "type": "address[]"
            },
            {
              "internalType": "address[]",
              "name": "adapters",
              "type": "address[]"
            }
          ],
          "internalType": "struct YakRouter.Trade",
          "name": "_trade",
          "type": "tuple"
        },
        {
          "internalType": "address",
          "name": "_to",
          "type": "address"
        },
        {
          "internalType": "uint256",
          "name": "_fee",
          "type": "uint256"
        }
      ],
      "name": "swapNoSplitToAVAX",
      "outputs": [],
      "stateMutability": "nonpayable",
      "type": "function"
    },
    {
      "inputs": [
        {
          "components": [
            {
              "internalType": "uint256",
              "name": "amountIn",
              "type": "uint256"
            },
            {
              "internalType": "uint256",
              "name": "amountOut",
              "type": "uint256"
            },
            {
              "internalType": "address[]",
              "name": "path",
              "type": "address[]"
            },
            {
              "internalType": "address[]",
              "name": "adapters",
              "type": "address[]"
            }
          ],
          "internalType": "struct YakRouter.Trade",
          "name": "_trade",
          "type": "tuple"
        },
        {
          "internalType": "address",
          "name": "_to",
          "type": "address"
        },
        {
          "internalType": "uint256",
          "name": "_fee",
          "type": "uint256"
        },
        {
          "internalType": "uint256",
          "name": "_deadline",
          "type": "uint256"
        },
        {
          "internalType": "uint8",
          "name": "_v",
          "type": "uint8"
        },
        {
          "internalType": "bytes32",
          "name": "_r",
          "type": "bytes32"
        },
        {
          "internalType": "bytes32",
          "name": "_s",
          "type": "bytes32"
        }
      ],
      "name": "swapNoSplitToAVAXWithPermit",
      "outputs": [],
      "stateMutability": "nonpayable",
      "type": "function"
    },
    {
      "inputs": [
        {
          "components": [
            {
              "internalType": "uint256",
              "name": "amountIn",
              "type": "uint256"
            },
            {
              "internalType": "uint256",
              "name": "amountOut",
              "type": "uint256"
            },
            {
              "internalType": "address[]",
              "name": "path",
              "type": "address[]"
            },
            {
              "internalType": "address[]",
              "name": "adapters",
              "type": "address[]"
            }
          ],
          "internalType": "struct YakRouter.Trade",
          "name": "_trade",
          "type": "tuple"
        },
        {
          "internalType": "address",
          "name": "_to",
          "type": "address"
        },
        {
          "internalType": "uint256",
          "name": "_fee",
          "type": "uint256"
        },
        {
          "internalType": "uint256",
          "name": "_deadline",
          "type": "uint256"
        },
        {
          "internalType": "uint8",
          "name": "_v",
          "type": "uint8"
        },
        {
          "internalType": "bytes32",
          "name": "_r",
          "type": "bytes32"
        },
        {
          "internalType": "bytes32",
          "name": "_s",
          "type": "bytes32"
        }
      ],
      "name": "swapNoSplitWithPermit",
      "outputs": [],
      "stateMutability": "nonpayable",
      "type": "function"
    },
    {
      "inputs": [
        {
          "internalType": "address",
          "name": "newOwner",
          "type": "address"
        }
      ],
      "name": "transferOwnership",
      "outputs": [],
      "stateMutability": "nonpayable",
      "type": "function"
    },
    {
      "inputs": [],
      "name": "trustedTokensCount",
      "outputs": [
        {
          "internalType": "uint256",
          "name": "",
          "type": "uint256"
        }
      ],
      "stateMutability": "view",
      "type": "function"
    },
    {
      "stateMutability": "payable",
      "type": "receive"
    }
  ],
  "bytecode": {
    "object": "0x60a060405260006001553480156200001657600080fd5b5060405162004103380380620041038339810160408190526200003991620007d1565b3362000047600082620000b6565b620000737f339759585899103d2ace64958e37e18ccb0504652c81d4a1b8aa80fe2126ab9582620000b6565b506200007f81620000c6565b6200008a83620000f0565b6200009582620001b6565b620000a0846200028f565b6001600160a01b03166080525062000925915050565b620000c282826200034c565b5050565b620000ed81600019836001600160a01b0316620003ec60201b62001672179092919060201c565b50565b336000818152600080516020620040c3833981519152602052604090205460ff16620001635760405162461bcd60e51b81526020600482015260286024820152600080516020620040e383398151915260448201526734b73a30b4b732b960c11b60648201526084015b60405180910390fd5b7f658ff1688002926d8f426cb10c052ec29003f50042df9652d8613484c1a586478260405162000194919062000860565b60405180910390a18151620001b190600390602085019062000670565b505050565b336000818152600080516020620040c3833981519152602052604090205460ff16620002255760405162461bcd60e51b81526020600482015260286024820152600080516020620040e383398151915260448201526734b73a30b4b732b960c11b60648201526084016200015a565b600254604080516001600160a01b03928316815291841660208301527fb2c853ac4d80d18d058c43d8018d077a036e542a79acae1647f5ad2a8c76f4e2910160405180910390a150600280546001600160a01b0319166001600160a01b0392909216919091179055565b336000818152600080516020620040c3833981519152602052604090205460ff16620002fe5760405162461bcd60e51b81526020600482015260286024820152600080516020620040e383398151915260448201526734b73a30b4b732b960c11b60648201526084016200015a565b7febf7325f48e05e5e38809c69f8b02a7c907ed31d8768e6c2d841b1296a9225fe826040516200032f919062000860565b60405180910390a18151620001b190600490602085019062000670565b6000828152602081815260408083206001600160a01b038516845290915290205460ff16620000c2576000828152602081815260408083206001600160a01b03851684529091529020805460ff19166001179055620003a83390565b6001600160a01b0316816001600160a01b0316837f2f8788117e7eff1d82e926ec794901d17c78024a50270940304540a733656f0d60405160405180910390a45050565b8015806200046a5750604051636eb1769f60e11b81523060048201526001600160a01b03838116602483015284169063dd62ed3e90604401602060405180830381865afa15801562000442573d6000803e3d6000fd5b505050506040513d601f19601f82011682018060405250810190620004689190620008af565b155b620004de5760405162461bcd60e51b815260206004820152603660248201527f5361666545524332303a20617070726f76652066726f6d206e6f6e2d7a65726f60448201527f20746f206e6f6e2d7a65726f20616c6c6f77616e63650000000000000000000060648201526084016200015a565b604080516001600160a01b038416602482015260448082018490528251808303909101815260649091019091526020810180516001600160e01b0390811663095ea7b360e01b17909152620001b19185916200053616565b600080836001600160a01b031683604051620005539190620008c9565b6000604051808303816000865af19150503d806000811462000592576040519150601f19603f3d011682016040523d82523d6000602084013e62000597565b606091505b509150915081620005eb5760405162461bcd60e51b815260206004820181905260248201527f5361666545524332303a206c6f772d6c6576656c2063616c6c206661696c656460448201526064016200015a565b8051156200066a5780806020019051810190620006099190620008fa565b6200066a5760405162461bcd60e51b815260206004820152602a60248201527f5361666545524332303a204552433230206f7065726174696f6e20646964206e6044820152691bdd081cdd58d8d9595960b21b60648201526084016200015a565b50505050565b828054828255906000526020600020908101928215620006c8579160200282015b82811115620006c857825182546001600160a01b0319166001600160a01b0390911617825560209092019160019091019062000691565b50620006d6929150620006da565b5090565b5b80821115620006d65760008155600101620006db565b634e487b7160e01b600052604160045260246000fd5b80516001600160a01b03811681146200071f57600080fd5b919050565b600082601f8301126200073657600080fd5b815160206001600160401b0380831115620007555762000755620006f1565b8260051b604051601f19603f830116810181811084821117156200077d576200077d620006f1565b6040529384528581018301938381019250878511156200079c57600080fd5b83870191505b84821015620007c657620007b68262000707565b83529183019190830190620007a2565b979650505050505050565b60008060008060808587031215620007e857600080fd5b84516001600160401b03808211156200080057600080fd5b6200080e8883890162000724565b955060208701519150808211156200082557600080fd5b50620008348782880162000724565b935050620008456040860162000707565b9150620008556060860162000707565b905092959194509250565b6020808252825182820181905260009190848201906040850190845b81811015620008a35783516001600160a01b0316835292840192918401916001016200087c565b50909695505050505050565b600060208284031215620008c257600080fd5b5051919050565b6000825160005b81811015620008ec5760208186018101518583015201620008d0565b506000920191825250919050565b6000602082840312156200090d57600080fd5b815180151581146200091e57600080fd5b9392505050565b60805161375f620009646000396000818161062c0152818161148a015281816115a1015281816117f5015281816124700152612541015261375f6000f3fe6080604052600436106102285760003560e01c80638980f11f11610123578063c3accd48116100ab578063dede7f151161006f578063dede7f15146106e4578063f035038214610704578063f2fde38b14610724578063f874225414610744578063fe38c5e61461076657600080fd5b8063c3accd481461064e578063c8a3a5c61461066e578063d547741f1461068e578063d73792a9146106ae578063d8baf7cf146106c457600080fd5b8063952e9012116100f2578063952e90121461058e578063a0cf0aea146105ae578063a217fddf146105c3578063a3f4df7e146105d8578063b381cf401461061a57600080fd5b80638980f11f146104ce5780638bb9c5bf146104ee57806391d148541461050e57806392f5d88a1461052e57600080fd5b80634c09cf4e116101b157806375d199471161017557806375d199471461044e57806376c7a3c71461046e57806376ebe69c146104845780637c7a561b14610499578063809356aa146104ae57600080fd5b80634c09cf4e146103ae5780634ebb7916146103ce57806352a52ab0146103ee5780636b453c1f1461040e5780636bf2df861461042e57600080fd5b8063248a9ca3116101f8578063248a9ca3146102f05780632f2ff15d1461032e57806331ac99201461034e57806336568abe1461036e5780633a9a40811461038e57600080fd5b8062b99e361461023457806301ffc9a714610271578063061b15e7146102a15780631e189dc2146102ce57600080fd5b3661022f57005b600080fd5b34801561024057600080fd5b50600254610254906001600160a01b031681565b6040516001600160a01b0390911681526020015b60405180910390f35b34801561027d57600080fd5b5061029161028c366004612db1565b610779565b6040519015158152602001610268565b3480156102ad57600080fd5b506102c16102bc366004612df7565b6107b0565b6040516102689190612e89565b3480156102da57600080fd5b506102ee6102e9366004612f4c565b6108ee565b005b3480156102fc57600080fd5b5061032061030b366004612fd1565b60009081526020819052604090206001015490565b604051908152602001610268565b34801561033a57600080fd5b506102ee610349366004612fea565b6109a2565b34801561035a57600080fd5b506102ee610369366004612fd1565b6109cc565b34801561037a57600080fd5b506102ee610389366004612fea565b610a43565b34801561039a57600080fd5b506102ee6103a936600461305d565b610ac1565b3480156103ba57600080fd5b506102c16103c93660046130fe565b610b40565b3480156103da57600080fd5b506102ee6103e9366004612fd1565b610c5e565b3480156103fa57600080fd5b50610254610409366004612fd1565b610d4b565b34801561041a57600080fd5b506102ee610429366004613142565b610d75565b34801561043a57600080fd5b506102ee61044936600461315d565b610d90565b34801561045a57600080fd5b506102ee610469366004612f4c565b610da2565b34801561047a57600080fd5b5061032060015481565b34801561049057600080fd5b50600354610320565b3480156104a557600080fd5b50600454610320565b3480156104ba57600080fd5b506103206104c93660046131b4565b610e4d565b3480156104da57600080fd5b506102ee6104e9366004613201565b610ef9565b3480156104fa57600080fd5b506102ee610509366004612fd1565b610fda565b34801561051a57600080fd5b50610291610529366004612fea565b610fe5565b34801561053a57600080fd5b5061054e61054936600461322b565b61100e565b6040805182516001600160a01b03908116825260208085015182169083015283830151169181019190915260609182015191810191909152608001610268565b34801561059a57600080fd5b506102546105a9366004612fd1565b6111a6565b3480156105ba57600080fd5b50610254600081565b3480156105cf57600080fd5b50610320600081565b3480156105e457600080fd5b5061060d604051806040016040528060098152602001682cb0b5a937baba32b960b91b81525081565b6040516102689190613319565b34801561062657600080fd5b506102547f000000000000000000000000000000000000000000000000000000000000000081565b34801561065a57600080fd5b506102ee610669366004613142565b6111b6565b34801561067a57600080fd5b506102ee61068936600461305d565b611255565b34801561069a57600080fd5b506102ee6106a9366004612fea565b6112d4565b3480156106ba57600080fd5b5061032061271081565b3480156106d057600080fd5b506102ee6106df366004613142565b6112f9565b3480156106f057600080fd5b5061054e6106ff36600461332c565b611311565b34801561071057600080fd5b506102ee61071f36600461315d565b611480565b34801561073057600080fd5b506102ee61073f366004613142565b611580565b34801561075057600080fd5b5061032060008051602061370a83398151915281565b6102ee61077436600461315d565b611597565b60006001600160e01b03198216637965db0b60e01b14806107aa57506301ffc9a760e01b6001600160e01b03198316145b92915050565b6107db6040518060800160405280606081526020016060815260200160608152602001600081525090565b6000831180156107eb5750600583105b61083c5760405162461bcd60e51b815260206004820152601c60248201527f59616b526f757465723a20496e76616c6964206d61782d73746570730000000060448201526064015b60405180910390fd5b6108676040518060800160405280606081526020016060815260200160608152602001600081525090565b610870876117ba565b815261087b866117ba565b604082015260008361088e576000610898565b61089884876117e4565b90506108a8888888888686611879565b91508160200151516000036108d9576040805160208082018352600080835291855282519081018352908152908301525b6108e282611bcb565b98975050505050505050565b6108fb6040880188613368565b600081811061090c5761090c6133b9565b90506020020160208101906109219190613142565b60405163d505accf60e01b81526001600160a01b03919091169063d505accf9061095c90339030908c35908a908a908a908a906004016133cf565b600060405180830381600087803b15801561097657600080fd5b505af115801561098a573d6000803e3d6000fd5b50505050610999878787611480565b50505050505050565b6000828152602081905260409020600101546109bd81611c46565b6109c78383611c50565b505050565b336109e560008051602061370a83398151915282610fe5565b610a015760405162461bcd60e51b815260040161083390613410565b60015460408051918252602082018490527f4bb8a6184424e4bb853a4836042f5a726e4e710873989bfc6abdab19966f5b70910160405180910390a150600155565b6001600160a01b0381163314610ab35760405162461bcd60e51b815260206004820152602f60248201527f416363657373436f6e74726f6c3a2063616e206f6e6c792072656e6f756e636560448201526e103937b632b9903337b91039b2b63360891b6064820152608401610833565b610abd8282611cd4565b5050565b33610ada60008051602061370a83398151915282610fe5565b610af65760405162461bcd60e51b815260040161083390613410565b7febf7325f48e05e5e38809c69f8b02a7c907ed31d8768e6c2d841b1296a9225fe82604051610b259190613458565b60405180910390a181516109c7906004906020850190612d37565b610b6b6040518060800160405280606081526020016060815260200160608152602001600081525090565b600082118015610b7b5750600582105b610bc75760405162461bcd60e51b815260206004820152601c60248201527f59616b526f757465723a20496e76616c6964206d61782d7374657073000000006044820152606401610833565b610bf26040518060800160405280606081526020016060815260200160608152602001600081525090565b610bfb866117ba565b8152610c06856117ba565b6040820152610c1a86868686856000611879565b9050806020015151600003610c4b576040805160208082018352600080835291845282519081018352908152908201525b610c5481611bcb565b9695505050505050565b33610c7760008051602061370a83398151915282610fe5565b610c935760405162461bcd60e51b815260040161083390613410565b60008211610ce35760405162461bcd60e51b815260206004820152601d60248201527f59616b526f757465723a204e6f7468696e6720746f207265636f7665720000006044820152606401610833565b604051339083156108fc029084906000818181858888f19350505050158015610d10573d6000803e3d6000fd5b506040518281526000907f8c1256b8896378cd5044f80c202f9772b9d77dc85c8a6eb51967210b09bfaa289060200160405180910390a25050565b60038181548110610d5b57600080fd5b6000918252602090912001546001600160a01b0316905081565b610d8d60008051602061370a833981519152826109a2565b50565b610d9c83338484611d39565b50505050565b610daf6040880188613368565b6000818110610dc057610dc06133b9565b9050602002016020810190610dd59190613142565b60405163d505accf60e01b81526001600160a01b03919091169063d505accf90610e1090339030908c35908a908a908a908a906004016133cf565b600060405180830381600087803b158015610e2a57600080fd5b505af1158015610e3e573d6000803e3d6000fd5b50505050610999878787610d90565b60008060048360ff1681548110610e6657610e666133b9565b60009182526020822001546040516377ccc49d60e11b8152600481018990526001600160a01b03888116602483015287811660448301529091169250829063ef99893a90606401602060405180830381865afa158015610eca573d6000803e3d6000fd5b505050506040513d601f19601f82011682018060405250810190610eee91906134a5565b979650505050505050565b33610f1260008051602061370a83398151915282610fe5565b610f2e5760405162461bcd60e51b815260040161083390613410565b60008211610f7e5760405162461bcd60e51b815260206004820152601d60248201527f59616b526f757465723a204e6f7468696e6720746f207265636f7665720000006044820152606401610833565b610f926001600160a01b038416338461242a565b826001600160a01b03167f8c1256b8896378cd5044f80c202f9772b9d77dc85c8a6eb51967210b09bfaa2883604051610fcd91815260200190565b60405180910390a2505050565b33610abd8282610a43565b6000918252602082815260408084206001600160a01b0393909316845291905290205460ff1690565b60408051608081018252600080825260208201819052918101829052606081019190915260408051608081018252600080825260208201819052918101829052606081019190915260005b60ff811684111561119b576000600486868460ff1681811061107d5761107d6133b9565b905060200201602081019061109291906134be565b60ff16815481106110a5576110a56133b9565b60009182526020822001546040516377ccc49d60e11b8152600481018c90526001600160a01b038b811660248301528a811660448301529091169250829063ef99893a90606401602060405180830381865afa158015611109573d6000803e3d6000fd5b505050506040513d601f19601f8201168201806040525081019061112d91906134a5565b905060ff831615806111425750836060015181115b15611186576040518060800160405280836001600160a01b031681526020018a6001600160a01b03168152602001896001600160a01b031681526020018281525093505b50508080611193906134ef565b915050611059565b509695505050505050565b60048181548110610d5b57600080fd5b336111cf60008051602061370a83398151915282610fe5565b6111eb5760405162461bcd60e51b815260040161083390613410565b600254604080516001600160a01b03928316815291841660208301527fb2c853ac4d80d18d058c43d8018d077a036e542a79acae1647f5ad2a8c76f4e2910160405180910390a150600280546001600160a01b0319166001600160a01b0392909216919091179055565b3361126e60008051602061370a83398151915282610fe5565b61128a5760405162461bcd60e51b815260040161083390613410565b7f658ff1688002926d8f426cb10c052ec29003f50042df9652d8613484c1a58647826040516112b99190613458565b60405180910390a181516109c7906003906020850190612d37565b6000828152602081905260409020600101546112ef81611c46565b6109c78383611cd4565b610d8d60008051602061370a833981519152826112d4565b60408051608081018252600080825260208201819052918101829052606081019190915260408051608081018252600080825260208201819052918101829052606081019190915260005b60045460ff8216101561147757600060048260ff1681548110611381576113816133b9565b60009182526020822001546040516377ccc49d60e11b8152600481018a90526001600160a01b03898116602483015288811660448301529091169250829063ef99893a90606401602060405180830381865afa1580156113e5573d6000803e3d6000fd5b505050506040513d601f19601f8201168201806040525081019061140991906134a5565b905060ff8316158061141e5750836060015181115b15611462576040518060800160405280836001600160a01b03168152602001886001600160a01b03168152602001876001600160a01b031681526020018281525093505b5050808061146f906134ef565b91505061135c565b50949350505050565b6001600160a01b037f0000000000000000000000000000000000000000000000000000000000000000166114b76040850185613368565b60016114c66040880188613368565b6114d192915061350e565b8181106114e0576114e06133b9565b90506020020160208101906114f59190613142565b6001600160a01b03161461155b5760405162461bcd60e51b815260206004820152602760248201527f59616b526f757465723a2050617468206e6565647320746f20656e64207769746044820152660d040ae82ac82b60cb1b6064820152608401610833565b600061156984333085611d39565b90506115748161245a565b610d9c600082856124d7565b3361158c6000836109a2565b610abd600082610a43565b6001600160a01b037f0000000000000000000000000000000000000000000000000000000000000000166115ce6040850185613368565b60008181106115df576115df6133b9565b90506020020160208101906115f49190613142565b6001600160a01b03161461165c5760405162461bcd60e51b815260206004820152602960248201527f59616b526f757465723a2050617468206e6565647320746f20626567696e20776044820152680d2e8d040ae82ac82b60bb1b6064820152608401610833565b611666833561253f565b610d9c83308484611d39565b8015806116ec5750604051636eb1769f60e11b81523060048201526001600160a01b03838116602483015284169063dd62ed3e90604401602060405180830381865afa1580156116c6573d6000803e3d6000fd5b505050506040513d601f19601f820116820180604052508101906116ea91906134a5565b155b6117575760405162461bcd60e51b815260206004820152603660248201527f5361666545524332303a20617070726f76652066726f6d206e6f6e2d7a65726f60448201527520746f206e6f6e2d7a65726f20616c6c6f77616e636560501b6064820152608401610833565b6040516001600160a01b0383166024820152604481018290526109c790849063095ea7b360e01b906064015b60408051601f198184030181529190526020810180516001600160e01b03166001600160e01b0319909316929092179091526125b6565b60408051602080825281830190925260609160208201818036833750505060208101929092525090565b60008061181c670de0b6b3a76400007f0000000000000000000000000000000000000000000000000000000000000000856002610b40565b90508060400151516000146118725780518051633b9aca009186916118439060019061350e565b81518110611853576118536133b9565b60200260200101516118659190613521565b61186f9190613538565b91505b5092915050565b6118a46040518060800160405280606081526020016060815260200160608152602001600081525090565b60006118af846126df565b9050600080841515816118c38c8c8c611311565b905080606001516000146119615781156119405780600001516001600160a01b03166369cff80d6040518163ffffffff1660e01b8152600401602060405180830381865afa158015611919573d6000803e3d6000fd5b505050506040513d601f19601f8201168201806040525081019061193d91906134a5565b92505b6119598582606001518360000151846040015187612742565b806060015193505b60018911801561198c575061197760028a61350e565b60208960200151516119899190613538565b11155b15611bbb5760005b600354811015611bb957600381815481106119b1576119b16133b9565b6000918252602090912001546001600160a01b038d8116911614611ba7576000611a038e8e600385815481106119e9576119e96133b9565b6000918252602090912001546001600160a01b0316611311565b90508060600151600003611a175750611ba7565b6000611a228b6126df565b90508415611a935781600001516001600160a01b03166369cff80d6040518163ffffffff1660e01b8152600401602060405180830381865afa158015611a6c573d6000803e3d6000fd5b505050506040513d601f19601f82011682018060405250810190611a9091906134a5565b95505b611aac818360600151846000015185604001518a612742565b611ae5826060015160038581548110611ac757611ac76133b9565b6000918252602090912001546001600160a01b03168f8f858f611879565b90506000611afc826040015151836040015161290b565b82518051919250600091611b0f9161290b565b9050816001600160a01b03168f6001600160a01b0316148015611b3157508881115b15611ba257896060015183606001511115611b9b576000633b9aca008b606001518560600151611b61919061350e565b611b6b908f613521565b611b759190613538565b90506000611b838b8461350e565b905080821115611b9857505050505050611ba7565b50505b8098508299505b505050505b80611bb18161355a565b915050611994565b505b50929a9950505050505050505050565b611bf66040518060800160405280606081526020016060815260200160608152602001600081525090565b6040518060800160405280611c0e846000015161291e565b8152602001611c2084602001516129da565b8152602001611c3284604001516129da565b815260200183606001518152509050919050565b610d8d8133612a8a565b611c5a8282610fe5565b610abd576000828152602081815260408083206001600160a01b03851684529091529020805460ff19166001179055611c903390565b6001600160a01b0316816001600160a01b0316837f2f8788117e7eff1d82e926ec794901d17c78024a50270940304540a733656f0d60405160405180910390a45050565b611cde8282610fe5565b15610abd576000828152602081815260408083206001600160a01b0385168085529252808320805460ff1916905551339285917ff6391f5c32d9c69d2a47ea670b442974b53935d1edc7fd64eb21e047a839171b9190a45050565b600080611d496040870187613368565b905067ffffffffffffffff811115611d6357611d63613016565b604051908082528060200260200182016040528015611d8c578160200160208202803683370190505b5090506000831180611da057506000600154115b15611e5c57611db0863584612aee565b81600081518110611dc357611dc36133b9565b602002602001018181525050611e5785600260009054906101000a90046001600160a01b031683600081518110611dfc57611dfc6133b9565b60200260200101518960000135611e13919061350e565b611e2060408b018b613368565b6000818110611e3157611e316133b9565b9050602002016020810190611e469190613142565b6001600160a01b0316929190612b63565b611e81565b856000013581600081518110611e7457611e746133b9565b6020026020010181815250505b611ee385611e926060890189613368565b6000818110611ea357611ea36133b9565b9050602002016020810190611eb89190613142565b83600081518110611ecb57611ecb6133b9565b6020026020010151898060400190611e209190613368565b60005b611ef36060880188613368565b905081101561207657611f096060880188613368565b82818110611f1957611f196133b9565b9050602002016020810190611f2e9190613142565b6001600160a01b031663ef99893a838381518110611f4e57611f4e6133b9565b6020026020010151898060400190611f669190613368565b85818110611f7657611f766133b9565b9050602002016020810190611f8b9190613142565b611f9860408c018c613368565b611fa3876001613573565b818110611fb257611fb26133b9565b9050602002016020810190611fc79190613142565b6040516001600160e01b031960e086901b16815260048101939093526001600160a01b039182166024840152166044820152606401602060405180830381865afa158015612019573d6000803e3d6000fd5b505050506040513d601f19601f8201168201806040525081019061203d91906134a5565b82612049836001613573565b81518110612059576120596133b9565b60209081029190910101528061206e8161355a565b915050611ee6565b508560200135816001835161208b919061350e565b8151811061209b5761209b6133b9565b602002602001015110156120ff5760405162461bcd60e51b815260206004820152602560248201527f59616b526f757465723a20496e73756666696369656e74206f757470757420616044820152641b5bdd5b9d60da1b6064820152608401610833565b60005b61210f6060880188613368565b90508110156122fb576000600161212960608a018a613368565b61213492915061350e565b8210612140578561217c565b61214d6060890189613368565b612158846001613573565b818110612167576121676133b9565b905060200201602081019061217c9190613142565b905061218b6060890189613368565b8381811061219b5761219b6133b9565b90506020020160208101906121b09190613142565b6001600160a01b031663eab90da68484815181106121d0576121d06133b9565b6020026020010151858560016121e69190613573565b815181106121f6576121f66133b9565b60200260200101518b806040019061220e9190613368565b8781811061221e5761221e6133b9565b90506020020160208101906122339190613142565b61224060408e018e613368565b61224b896001613573565b81811061225a5761225a6133b9565b905060200201602081019061226f9190613142565b6040516001600160e01b031960e087901b168152600481019490945260248401929092526001600160a01b03908116604484015290811660648301528416608482015260a401600060405180830381600087803b1580156122cf57600080fd5b505af11580156122e3573d6000803e3d6000fd5b505050505080806122f39061355a565b915050612102565b506123096040870187613368565b600161231860408a018a613368565b61232392915061350e565b818110612332576123326133b9565b90506020020160208101906123479190613142565b6001600160a01b031661235d6040880188613368565b600081811061236e5761236e6133b9565b90506020020160208101906123839190613142565b6001600160a01b03167f9fc8352e52998db4087d5e6e1c1aafa38788e749e5d7a24f5cb230f737954402886000013584600186516123c1919061350e565b815181106123d1576123d16133b9565b60200260200101516040516123f0929190918252602082015260400190565b60405180910390a38060018251612407919061350e565b81518110612417576124176133b9565b6020026020010151915050949350505050565b6040516001600160a01b0383166024820152604481018290526109c790849063a9059cbb60e01b90606401611783565b604051632e1a7d4d60e01b8152600481018290527f00000000000000000000000000000000000000000000000000000000000000006001600160a01b031690632e1a7d4d90602401600060405180830381600087803b1580156124bc57600080fd5b505af11580156124d0573d6000803e3d6000fd5b5050505050565b306001600160a01b038216146109c7576001600160a01b03831661252b576040516001600160a01b0382169083156108fc029084906000818181858888f19350505050158015610d9c573d6000803e3d6000fd5b6109c76001600160a01b038416828461242a565b7f00000000000000000000000000000000000000000000000000000000000000006001600160a01b031663d0e30db0826040518263ffffffff1660e01b81526004016000604051808303818588803b15801561259a57600080fd5b505af11580156125ae573d6000803e3d6000fd5b505050505050565b600080836001600160a01b0316836040516125d19190613586565b6000604051808303816000865af19150503d806000811461260e576040519150601f19603f3d011682016040523d82523d6000602084013e612613565b606091505b5091509150816126655760405162461bcd60e51b815260206004820181905260248201527f5361666545524332303a206c6f772d6c6576656c2063616c6c206661696c65646044820152606401610833565b805115610d9c578080602001905181019061268091906135a2565b610d9c5760405162461bcd60e51b815260206004820152602a60248201527f5361666545524332303a204552433230206f7065726174696f6e20646964206e6044820152691bdd081cdd58d8d9595960b21b6064820152608401610833565b61270a6040518060800160405280606081526020016060815260200160608152602001600081525090565b604051806080016040528083600001518152602001836020015181526020018360400151815260200183606001518152509050919050565b73__$a3615bccd5d4a6a2deeb8a719b13770375$__632f9680f5866040015161276a856117ba565b6040518363ffffffff1660e01b81526004016127879291906135c4565b600060405180830381865af41580156127a4573d6000803e3d6000fd5b505050506040513d6000823e601f3d908101601f191682016040526127cc91908101906135f2565b6040860152845173__$a3615bccd5d4a6a2deeb8a719b13770375$__90632f9680f5906127f8876117ba565b6040518363ffffffff1660e01b81526004016128159291906135c4565b600060405180830381865af4158015612832573d6000803e3d6000fd5b505050506040513d6000823e601f3d908101601f1916820160405261285a91908101906135f2565b8552602085015173__$a3615bccd5d4a6a2deeb8a719b13770375$__90632f9680f590612886866117ba565b6040518363ffffffff1660e01b81526004016128a39291906135c4565b600060405180830381865af41580156128c0573d6000803e3d6000fd5b505050506040513d6000823e601f3d908101601f191682016040526128e891908101906135f2565b6020860152606085018051829190612901908390613573565b9052505050505050565b60006129178383015190565b9392505050565b60606000602083516129309190613538565b905060008167ffffffffffffffff81111561294d5761294d613016565b604051908082528060200260200182016040528015612976578160200160208202803683370190505b50905060005b828110156129d2576129a3612992826020613521565b61299d906020613573565b8661290b565b8282815181106129b5576129b56133b9565b6020908102919091010152806129ca8161355a565b91505061297c565b509392505050565b60606000602083516129ec9190613538565b905060008167ffffffffffffffff811115612a0957612a09613016565b604051908082528060200260200182016040528015612a32578160200160208202803683370190505b50905060005b828110156129d257612a4e612992826020613521565b828281518110612a6057612a606133b9565b6001600160a01b039092166020928302919091019091015280612a828161355a565b915050612a38565b612a948282610fe5565b610abd57612aac816001600160a01b03166014612b9b565b612ab7836020612b9b565b604051602001612ac892919061367d565b60408051601f198184030181529082905262461bcd60e51b825261083391600401613319565b6000600154821015612b425760405162461bcd60e51b815260206004820152601b60248201527f59616b526f757465723a20496e73756666696369656e742066656500000000006044820152606401610833565b612710612b4f838261350e565b612b599085613521565b6129179190613538565b6040516001600160a01b0380851660248301528316604482015260648101829052610d9c9085906323b872dd60e01b90608401611783565b60606000612baa836002613521565b612bb5906002613573565b67ffffffffffffffff811115612bcd57612bcd613016565b6040519080825280601f01601f191660200182016040528015612bf7576020820181803683370190505b509050600360fc1b81600081518110612c1257612c126133b9565b60200101906001600160f81b031916908160001a905350600f60fb1b81600181518110612c4157612c416133b9565b60200101906001600160f81b031916908160001a9053506000612c65846002613521565b612c70906001613573565b90505b6001811115612ce8576f181899199a1a9b1b9c1cb0b131b232b360811b85600f1660108110612ca457612ca46133b9565b1a60f81b828281518110612cba57612cba6133b9565b60200101906001600160f81b031916908160001a90535060049490941c93612ce1816136f2565b9050612c73565b5083156129175760405162461bcd60e51b815260206004820181905260248201527f537472696e67733a20686578206c656e67746820696e73756666696369656e746044820152606401610833565b828054828255906000526020600020908101928215612d8c579160200282015b82811115612d8c57825182546001600160a01b0319166001600160a01b03909116178255602090920191600190910190612d57565b50612d98929150612d9c565b5090565b5b80821115612d985760008155600101612d9d565b600060208284031215612dc357600080fd5b81356001600160e01b03198116811461291757600080fd5b80356001600160a01b0381168114612df257600080fd5b919050565b600080600080600060a08688031215612e0f57600080fd5b85359450612e1f60208701612ddb565b9350612e2d60408701612ddb565b94979396509394606081013594506080013592915050565b600081518084526020808501945080840160005b83811015612e7e5781516001600160a01b031687529582019590820190600101612e59565b509495945050505050565b60208082528251608083830152805160a0840181905260009291820190839060c08601905b80831015612ece5783518252928401926001929092019190840190612eae565b50838701519350601f19925082868203016040870152612eee8185612e45565b93505050604085015181858403016060860152612f0b8382612e45565b92505050606084015160808401528091505092915050565b600060808284031215612f3557600080fd5b50919050565b803560ff81168114612df257600080fd5b600080600080600080600060e0888a031215612f6757600080fd5b873567ffffffffffffffff811115612f7e57600080fd5b612f8a8a828b01612f23565b975050612f9960208901612ddb565b95506040880135945060608801359350612fb560808901612f3b565b925060a0880135915060c0880135905092959891949750929550565b600060208284031215612fe357600080fd5b5035919050565b60008060408385031215612ffd57600080fd5b8235915061300d60208401612ddb565b90509250929050565b634e487b7160e01b600052604160045260246000fd5b604051601f8201601f1916810167ffffffffffffffff8111828210171561305557613055613016565b604052919050565b6000602080838503121561307057600080fd5b823567ffffffffffffffff8082111561308857600080fd5b818501915085601f83011261309c57600080fd5b8135818111156130ae576130ae613016565b8060051b91506130bf84830161302c565b81815291830184019184810190888411156130d957600080fd5b938501935b838510156108e2576130ef85612ddb565b825293850193908501906130de565b6000806000806080858703121561311457600080fd5b8435935061312460208601612ddb565b925061313260408601612ddb565b9396929550929360600135925050565b60006020828403121561315457600080fd5b61291782612ddb565b60008060006060848603121561317257600080fd5b833567ffffffffffffffff81111561318957600080fd5b61319586828701612f23565b9350506131a460208501612ddb565b9150604084013590509250925092565b600080600080608085870312156131ca57600080fd5b843593506131da60208601612ddb565b92506131e860408601612ddb565b91506131f660608601612f3b565b905092959194509250565b6000806040838503121561321457600080fd5b61321d83612ddb565b946020939093013593505050565b60008060008060006080868803121561324357600080fd5b8535945061325360208701612ddb565b935061326160408701612ddb565b9250606086013567ffffffffffffffff8082111561327e57600080fd5b818801915088601f83011261329257600080fd5b8135818111156132a157600080fd5b8960208260051b85010111156132b657600080fd5b9699959850939650602001949392505050565b60005b838110156132e45781810151838201526020016132cc565b50506000910152565b600081518084526133058160208601602086016132c9565b601f01601f19169290920160200192915050565b60208152600061291760208301846132ed565b60008060006060848603121561334157600080fd5b8335925061335160208501612ddb565b915061335f60408501612ddb565b90509250925092565b6000808335601e1984360301811261337f57600080fd5b83018035915067ffffffffffffffff82111561339a57600080fd5b6020019150600581901b36038213156133b257600080fd5b9250929050565b634e487b7160e01b600052603260045260246000fd5b6001600160a01b0397881681529590961660208601526040850193909352606084019190915260ff16608083015260a082015260c081019190915260e00190565b60208082526028908201527f4d61696e7461696e61626c653a2043616c6c6572206973206e6f742061206d6160408201526734b73a30b4b732b960c11b606082015260800190565b6020808252825182820181905260009190848201906040850190845b818110156134995783516001600160a01b031683529284019291840191600101613474565b50909695505050505050565b6000602082840312156134b757600080fd5b5051919050565b6000602082840312156134d057600080fd5b61291782612f3b565b634e487b7160e01b600052601160045260246000fd5b600060ff821660ff8103613505576135056134d9565b60010192915050565b818103818111156107aa576107aa6134d9565b80820281158282048414176107aa576107aa6134d9565b60008261355557634e487b7160e01b600052601260045260246000fd5b500490565b60006001820161356c5761356c6134d9565b5060010190565b808201808211156107aa576107aa6134d9565b600082516135988184602087016132c9565b9190910192915050565b6000602082840312156135b457600080fd5b8151801515811461291757600080fd5b6040815260006135d760408301856132ed565b82810360208401526135e981856132ed565b95945050505050565b60006020828403121561360457600080fd5b815167ffffffffffffffff8082111561361c57600080fd5b818401915084601f83011261363057600080fd5b81518181111561364257613642613016565b613655601f8201601f191660200161302c565b915080825285602082850101111561366c57600080fd5b6114778160208401602086016132c9565b7f416363657373436f6e74726f6c3a206163636f756e74200000000000000000008152600083516136b58160178501602088016132c9565b7001034b99036b4b9b9b4b733903937b6329607d1b60179184019182015283516136e68160288401602088016132c9565b01602801949350505050565b600081613701576137016134d9565b50600019019056fe339759585899103d2ace64958e37e18ccb0504652c81d4a1b8aa80fe2126ab95a2646970667358221220413422709d49fb98b2e617a1faa8eac58ce75eb8dc5eb6afd4aab0abb6ac46ea64736f6c63430008110033a54247010af6b3693b80aceddfad12e077c5de3571e6243fada502635f0d7d394d61696e7461696e61626c653a2043616c6c6572206973206e6f742061206d61",
    "linkReferences": {
      "src/contracts/lib/BytesManipulation.sol": {
        "BytesManipulation": [
          {
            "start": 12456,
            "length": 20
          },
          {
            "start": 12601,
            "length": 20
          },
          {
            "start": 12743,
            "length": 20
          }
        ]
      }
    }
  },
  "methodIdentifiers": {
    "ADAPTERS(uint256)": "952e9012",
    "DEFAULT_ADMIN_ROLE()": "a217fddf",
    "FEE_CLAIMER()": "00b99e36",
    "FEE_DENOMINATOR()": "d73792a9",
    "MAINTAINER_ROLE()": "f8742254",
    "MIN_FEE()": "76c7a3c7",
    "NAME()": "a3f4df7e",
    "NATIVE()": "a0cf0aea",
    "TRUSTED_TOKENS(uint256)": "52a52ab0",
    "WNATIVE()": "b381cf40",
    "adaptersCount()": "7c7a561b",
    "addMaintainer(address)": "6b453c1f",
    "findBestPath(uint256,address,address,uint256)": "4c09cf4e",
    "findBestPathWithGas(uint256,address,address,uint256,uint256)": "061b15e7",
    "getRoleAdmin(bytes32)": "248a9ca3",
    "grantRole(bytes32,address)": "2f2ff15d",
    "hasRole(bytes32,address)": "91d14854",
    "queryAdapter(uint256,address,address,uint8)": "809356aa",
    "queryNoSplit(uint256,address,address)": "dede7f15",
    "queryNoSplit(uint256,address,address,uint8[])": "92f5d88a",
    "recoverAVAX(uint256)": "4ebb7916",
    "recoverERC20(address,uint256)": "8980f11f",
    "removeMaintainer(address)": "d8baf7cf",
    "renounceRole(bytes32)": "8bb9c5bf",
    "renounceRole(bytes32,address)": "36568abe",
    "revokeRole(bytes32,address)": "d547741f",
    "setAdapters(address[])": "3a9a4081",
    "setFeeClaimer(address)": "c3accd48",
    "setMinFee(uint256)": "31ac9920",
    "setTrustedTokens(address[])": "c8a3a5c6",
    "supportsInterface(bytes4)": "01ffc9a7",
    "swapNoSplit((uint256,uint256,address[],address[]),address,uint256)": "6bf2df86",
    "swapNoSplitFromAVAX((uint256,uint256,address[],address[]),address,uint256)": "fe38c5e6",
    "swapNoSplitToAVAX((uint256,uint256,address[],address[]),address,uint256)": "f0350382",
    "swapNoSplitToAVAXWithPermit((uint256,uint256,address[],address[]),address,uint256,uint256,uint8,bytes32,bytes32)": "1e189dc2",
    "swapNoSplitWithPermit((uint256,uint256,address[],address[]),address,uint256,uint256,uint8,bytes32,bytes32)": "75d19947",
    "transferOwnership(address)": "f2fde38b",
    "trustedTokensCount()": "76ebe69c"
  },
  "id": 11
}