{
  "abi": [
    {
      "inputs": [
        {
          "internalType": "string",
          "name": "_name",
          "type": "string"
        },
        {
          "internalType": "address[]",
          "name": "_pools",
          "type": "address[]"
        },
        {
          "internalType": "address",
          "name": "_helper",
          "type": "address"
        },
        {
          "internalType": "uint256",
          "name": "_gasEstimate",
          "type": "uint256"
        }
      ],
      "stateMutability": "nonpayable",
      "type": "constructor"
    },
    {
      "anonymous": false,
      "inputs": [
        {
          "indexed": true,
          "internalType": "address",
          "name": "_asset",
          "type": "address"
        },
        {
          "indexed": false,
          "internalType": "uint256",
          "name": "amount",
          "type": "uint256"
        }
      ],
      "name": "Recovered",
      "type": "event"
    },
    {
      "anonymous": false,
      "inputs": [
        {
          "indexed": true,
          "internalType": "bytes32",
          "name": "role",
          "type": "bytes32"
        },
        {
          "indexed": true,
          "internalType": "bytes32",
          "name": "previousAdminRole",
          "type": "bytes32"
        },
        {
          "indexed": true,
          "internalType": "bytes32",
          "name": "newAdminRole",
          "type": "bytes32"
        }
      ],
      "name": "RoleAdminChanged",
      "type": "event"
    },
    {
      "anonymous": false,
      "inputs": [
        {
          "indexed": true,
          "internalType": "bytes32",
          "name": "role",
          "type": "bytes32"
        },
        {
          "indexed": true,
          "internalType": "address",
          "name": "account",
          "type": "address"
        },
        {
          "indexed": true,
          "internalType": "address",
          "name": "sender",
          "type": "address"
        }
      ],
      "name": "RoleGranted",
      "type": "event"
    },
    {
      "anonymous": false,
      "inputs": [
        {
          "indexed": true,
          "internalType": "bytes32",
          "name": "role",
          "type": "bytes32"
        },
        {
          "indexed": true,
          "internalType": "address",
          "name": "account",
          "type": "address"
        },
        {
          "indexed": true,
          "internalType": "address",
          "name": "sender",
          "type": "address"
        }
      ],
      "name": "RoleRevoked",
      "type": "event"
    },
    {
      "anonymous": false,
      "inputs": [
        {
          "indexed": true,
          "internalType": "address",
          "name": "_adapter",
          "type": "address"
        },
        {
          "indexed": false,
          "internalType": "uint256",
          "name": "_newEstimate",
          "type": "uint256"
        }
      ],
      "name": "UpdatedGasEstimate",
      "type": "event"
    },
    {
      "anonymous": false,
      "inputs": [
        {
          "indexed": true,
          "internalType": "address",
          "name": "_tokenFrom",
          "type": "address"
        },
        {
          "indexed": true,
          "internalType": "address",
          "name": "_tokenTo",
          "type": "address"
        },
        {
          "indexed": false,
          "internalType": "uint256",
          "name": "_amountIn",
          "type": "uint256"
        },
        {
          "indexed": false,
          "internalType": "uint256",
          "name": "_amountOut",
          "type": "uint256"
        }
      ],
      "name": "YakAdapterSwap",
      "type": "event"
    },
    {
      "inputs": [],
      "name": "DEFAULT_ADMIN_ROLE",
      "outputs": [
        {
          "internalType": "bytes32",
          "name": "",
          "type": "bytes32"
        }
      ],
      "stateMutability": "view",
      "type": "function"
    },
    {
      "inputs": [],
      "name": "HELPER",
      "outputs": [
        {
          "internalType": "address",
          "name": "",
          "type": "address"
        }
      ],
      "stateMutability": "view",
      "type": "function"
    },
    {
      "inputs": [],
      "name": "MAINTAINER_ROLE",
      "outputs": [
        {
          "internalType": "bytes32",
          "name": "",
          "type": "bytes32"
        }
      ],
      "stateMutability": "view",
      "type": "function"
    },
    {
      "inputs": [
        {
          "internalType": "address[]",
          "name": "_pools",
          "type": "address[]"
        }
      ],
      "name": "_rmPools",
      "outputs": [],
      "stateMutability": "nonpayable",
      "type": "function"
    },
    {
      "inputs": [
        {
          "internalType": "address",
          "name": "addedMaintainer",
          "type": "address"
        }
      ],
      "name": "addMaintainer",
      "outputs": [],
      "stateMutability": "nonpayable",
      "type": "function"
    },
    {
      "inputs": [
        {
          "internalType": "bytes32",
          "name": "role",
          "type": "bytes32"
        }
      ],
      "name": "getRoleAdmin",
      "outputs": [
        {
          "internalType": "bytes32",
          "name": "",
          "type": "bytes32"
        }
      ],
      "stateMutability": "view",
      "type": "function"
    },
    {
      "inputs": [
        {
          "internalType": "bytes32",
          "name": "role",
          "type": "bytes32"
        },
        {
          "internalType": "address",
          "name": "account",
          "type": "address"
        }
      ],
      "name": "grantRole",
      "outputs": [],
      "stateMutability": "nonpayable",
      "type": "function"
    },
    {
      "inputs": [
        {
          "internalType": "bytes32",
          "name": "role",
          "type": "bytes32"
        },
        {
          "internalType": "address",
          "name": "account",
          "type": "address"
        }
      ],
      "name": "hasRole",
      "outputs": [
        {
          "internalType": "bool",
          "name": "",
          "type": "bool"
        }
      ],
      "stateMutability": "view",
      "type": "function"
    },
    {
      "inputs": [],
      "name": "name",
      "outputs": [
        {
          "internalType": "string",
          "name": "",
          "type": "string"
        }
      ],
      "stateMutability": "view",
      "type": "function"
    },
    {
      "inputs": [
        {
          "internalType": "uint256",
          "name": "_amountIn",
          "type": "uint256"
        },
        {
          "internalType": "address",
          "name": "_tokenIn",
          "type": "address"
        },
        {
          "internalType": "address",
          "name": "_tokenOut",
          "type": "address"
        }
      ],
      "name": "query",
      "outputs": [
        {
          "internalType": "uint256",
          "name": "",
          "type": "uint256"
        }
      ],
      "stateMutability": "view",
      "type": "function"
    },
    {
      "inputs": [
        {
          "internalType": "uint256",
          "name": "_amount",
          "type": "uint256"
        }
      ],
      "name": "recoverAVAX",
      "outputs": [],
      "stateMutability": "nonpayable",
      "type": "function"
    },
    {
      "inputs": [
        {
          "internalType": "address",
          "name": "_tokenAddress",
          "type": "address"
        },
        {
          "internalType": "uint256",
          "name": "_tokenAmount",
          "type": "uint256"
        }
      ],
      "name": "recoverERC20",
      "outputs": [],
      "stateMutability": "nonpayable",
      "type": "function"
    },
    {
      "inputs": [
        {
          "internalType": "address",
          "name": "removedMaintainer",
          "type": "address"
        }
      ],
      "name": "removeMaintainer",
      "outputs": [],
      "stateMutability": "nonpayable",
      "type": "function"
    },
    {
      "inputs": [
        {
          "internalType": "bytes32",
          "name": "role",
          "type": "bytes32"
        },
        {
          "internalType": "address",
          "name": "account",
          "type": "address"
        }
      ],
      "name": "renounceRole",
      "outputs": [],
      "stateMutability": "nonpayable",
      "type": "function"
    },
    {
      "inputs": [
        {
          "internalType": "bytes32",
          "name": "role",
          "type": "bytes32"
        }
      ],
      "name": "renounceRole",
      "outputs": [],
      "stateMutability": "nonpayable",
      "type": "function"
    },
    {
      "inputs": [
        {
          "internalType": "address",
          "name": "_token",
          "type": "address"
        },
        {
          "internalType": "address",
          "name": "_spender",
          "type": "address"
        }
      ],
      "name": "revokeAllowance",
      "outputs": [],
      "stateMutability": "nonpayable",
      "type": "function"
    },
    {
      "inputs": [
        {
          "internalType": "bytes32",
          "name": "role",
          "type": "bytes32"
        },
        {
          "internalType": "address",
          "name": "account",
          "type": "address"
        }
      ],
      "name": "revokeRole",
      "outputs": [],
      "stateMutability": "nonpayable",
      "type": "function"
    },
    {
      "inputs": [
        {
          "internalType": "address[]",
          "name": "_pools",
          "type": "address[]"
        },
        {
          "internalType": "bool",
          "name": "overwrite",
          "type": "bool"
        }
      ],
      "name": "setPools",
      "outputs": [],
      "stateMutability": "nonpayable",
      "type": "function"
    },
    {
      "inputs": [
        {
          "internalType": "uint256",
          "name": "_estimate",
          "type": "uint256"
        }
      ],
      "name": "setSwapGasEstimate",
      "outputs": [],
      "stateMutability": "nonpayable",
      "type": "function"
    },
    {
      "inputs": [
        {
          "internalType": "bytes4",
          "name": "interfaceId",
          "type": "bytes4"
        }
      ],
      "name": "supportsInterface",
      "outputs": [
        {
          "internalType": "bool",
          "name": "",
          "type": "bool"
        }
      ],
      "stateMutability": "view",
      "type": "function"
    },
    {
      "inputs": [
        {
          "internalType": "uint256",
          "name": "_amountIn",
          "type": "uint256"
        },
        {
          "internalType": "uint256",
          "name": "_amountOut",
          "type": "uint256"
        },
        {
          "internalType": "address",
          "name": "_fromToken",
          "type": "address"
        },
        {
          "internalType": "address",
          "name": "_toToken",
          "type": "address"
        },
        {
          "internalType": "address",
          "name": "_to",
          "type": "address"
        }
      ],
      "name": "swap",
      "outputs": [],
      "stateMutability": "nonpayable",
      "type": "function"
    },
    {
      "inputs": [],
      "name": "swapGasEstimate",
      "outputs": [
        {
          "internalType": "uint256",
          "name": "",
          "type": "uint256"
        }
      ],
      "stateMutability": "view",
      "type": "function"
    },
    {
      "inputs": [
        {
          "internalType": "address",
          "name": "newOwner",
          "type": "address"
        }
      ],
      "name": "transferOwnership",
      "outputs": [],
      "stateMutability": "nonpayable",
      "type": "function"
    },
    {
      "stateMutability": "payable",
      "type": "receive"
    }
  ],
  "bytecode": {
    "object": "0x60a06040523480156200001157600080fd5b506040516200287438038062002874833981016040819052620000349162000900565b83813362000044600082620000ad565b620000707f339759585899103d2ace64958e37e18ccb0504652c81d4a1b8aa80fe2126ab9582620000ad565b506200007c82620000bd565b620000878162000122565b5062000097905083600162000243565b506001600160a01b03166080525062000bf99050565b620000b9828262000296565b5050565b8051600003620001145760405162461bcd60e51b815260206004820152601460248201527f496e76616c69642061646170746572206e616d6500000000000000000000000060448201526064015b60405180910390fd5b6002620000b9828262000a6e565b3360008181527fa54247010af6b3693b80aceddfad12e077c5de3571e6243fada502635f0d7d39602052604090205460ff16620001b35760405162461bcd60e51b815260206004820152602860248201527f4d61696e7461696e61626c653a2043616c6c6572206973206e6f742061206d6160448201526734b73a30b4b732b960c11b60648201526084016200010b565b81600003620002055760405162461bcd60e51b815260206004820152601460248201527f496e76616c6964206761732d657374696d61746500000000000000000000000060448201526064016200010b565b600182905560405182815230907ff43f23b7a28e6f8ce6843a21bd7b48bce778aa913b8c8cf459edf7d770e8d38a9060200160405180910390a25050565b60005b825181101562000291576200027e83828151811062000269576200026962000b3a565b6020026020010151836200033660201b60201c565b620002898162000b50565b905062000246565b505050565b6000828152602081815260408083206001600160a01b038516845290915290205460ff16620000b9576000828152602081815260408083206001600160a01b03851684529091529020805460ff19166001179055620002f23390565b6001600160a01b0316816001600160a01b0316837f2f8788117e7eff1d82e926ec794901d17c78024a50270940304540a733656f0d60405160405180910390a45050565b6000806200034484620003a6565b91509150826200035b576200035b8282866200047c565b6200036882828662000517565b6001600160a01b0391821660009081526003602090815260408083209385168352929052208054919093166001600160a01b03199091161790915550565b600080826001600160a01b0316634a248d2a6040518163ffffffff1660e01b8152600401602060405180830381865afa158015620003e8573d6000803e3d6000fd5b505050506040513d601f19601f820116820180604052508101906200040e919062000b78565b9150826001600160a01b031663d4b970466040518163ffffffff1660e01b8152600401602060405180830381865afa1580156200044f573d6000803e3d6000fd5b505050506040513d601f19601f8201168201806040525081019062000475919062000b78565b9050915091565b6001600160a01b038084166000908152600360209081526040808320868516845290915290205416801580620004c35750816001600160a01b0316816001600160a01b0316145b620005115760405162461bcd60e51b815260206004820152601860248201527f4e6f7420616c6c6f77656420746f206f7665727772697465000000000000000060448201526064016200010b565b50505050565b6200053e81600019856001600160a01b03166200056560201b62000c0c179092919060201c565b6200029181600019846001600160a01b03166200056560201b62000c0c179092919060201c565b801580620005e35750604051636eb1769f60e11b81523060048201526001600160a01b03838116602483015284169063dd62ed3e90604401602060405180830381865afa158015620005bb573d6000803e3d6000fd5b505050506040513d601f19601f82011682018060405250810190620005e1919062000b9d565b155b620006575760405162461bcd60e51b815260206004820152603660248201527f5361666545524332303a20617070726f76652066726f6d206e6f6e2d7a65726f60448201527f20746f206e6f6e2d7a65726f20616c6c6f77616e63650000000000000000000060648201526084016200010b565b604080516001600160a01b038416602482015260448082018490528251808303909101815260649091019091526020810180516001600160e01b0390811663095ea7b360e01b1790915262000291918591620006af16565b600080836001600160a01b031683604051620006cc919062000bb7565b6000604051808303816000865af19150503d80600081146200070b576040519150601f19603f3d011682016040523d82523d6000602084013e62000710565b606091505b509150915081620007645760405162461bcd60e51b815260206004820181905260248201527f5361666545524332303a206c6f772d6c6576656c2063616c6c206661696c656460448201526064016200010b565b80511562000511578080602001905181019062000782919062000bd5565b620005115760405162461bcd60e51b815260206004820152602a60248201527f5361666545524332303a204552433230206f7065726174696f6e20646964206e6044820152691bdd081cdd58d8d9595960b21b60648201526084016200010b565b634e487b7160e01b600052604160045260246000fd5b604051601f8201601f191681016001600160401b0381118282101715620008245762000824620007e3565b604052919050565b60005b83811015620008495781810151838201526020016200082f565b50506000910152565b80516001600160a01b03811681146200086a57600080fd5b919050565b600082601f8301126200088157600080fd5b815160206001600160401b038211156200089f576200089f620007e3565b8160051b620008b0828201620007f9565b9283528481018201928281019087851115620008cb57600080fd5b83870192505b84831015620008f557620008e58362000852565b82529183019190830190620008d1565b979650505050505050565b600080600080608085870312156200091757600080fd5b84516001600160401b03808211156200092f57600080fd5b818701915087601f8301126200094457600080fd5b815181811115620009595762000959620007e3565b6200096e601f8201601f1916602001620007f9565b8181528960208386010111156200098457600080fd5b620009978260208301602087016200082c565b602089015190975092505080821115620009b057600080fd5b50620009bf878288016200086f565b935050620009d06040860162000852565b6060959095015193969295505050565b600181811c90821680620009f557607f821691505b60208210810362000a1657634e487b7160e01b600052602260045260246000fd5b50919050565b601f8211156200029157600081815260208120601f850160051c8101602086101562000a455750805b601f850160051c820191505b8181101562000a665782815560010162000a51565b505050505050565b81516001600160401b0381111562000a8a5762000a8a620007e3565b62000aa28162000a9b8454620009e0565b8462000a1c565b602080601f83116001811462000ada576000841562000ac15750858301515b600019600386901b1c1916600185901b17855562000a66565b600085815260208120601f198616915b8281101562000b0b5788860151825594840194600190910190840162000aea565b508582101562000b2a5787850151600019600388901b60f8161c191681555b5050505050600190811b01905550565b634e487b7160e01b600052603260045260246000fd5b60006001820162000b7157634e487b7160e01b600052601160045260246000fd5b5060010190565b60006020828403121562000b8b57600080fd5b62000b968262000852565b9392505050565b60006020828403121562000bb057600080fd5b5051919050565b6000825162000bcb8184602087016200082c565b9190910192915050565b60006020828403121562000be857600080fd5b8151801515811462000b9657600080fd5b608051611c5862000c1c6000396000818161042401526112010152611c586000f3fe6080604052600436106101445760003560e01c80638980f11f116100b6578063d8baf7cf1161006f578063d8baf7cf14610392578063eab90da6146103b2578063ef99893a146103d2578063f2fde38b146103f2578063f551bf2014610412578063f87422541461045e57600080fd5b80638980f11f146102dd5780638bb9c5bf146102fd57806391d148541461031d578063a217fddf1461033d578063a746e4b214610352578063d547741f1461037257600080fd5b806349e38f321161010857806349e38f32146102275780634ebb79161461024757806369cff80d146102675780636b453c1f1461027d5780637ae267731461029d57806384a33e63146102bd57600080fd5b806301ffc9a71461015057806306fdde0314610185578063248a9ca3146101a75780632f2ff15d146101e557806336568abe1461020757600080fd5b3661014b57005b600080fd5b34801561015c57600080fd5b5061017061016b3660046116b2565b610480565b60405190151581526020015b60405180910390f35b34801561019157600080fd5b5061019a6104b7565b60405161017c9190611700565b3480156101b357600080fd5b506101d76101c2366004611733565b60009081526020819052604090206001015490565b60405190815260200161017c565b3480156101f157600080fd5b50610205610200366004611771565b610545565b005b34801561021357600080fd5b50610205610222366004611771565b61056f565b34801561023357600080fd5b50610205610242366004611867565b6105f2565b34801561025357600080fd5b50610205610262366004611733565b610631565b34801561027357600080fd5b506101d760015481565b34801561028957600080fd5b506102056102983660046118ae565b61071f565b3480156102a957600080fd5b506102056102b83660046118cb565b61073a565b3480156102c957600080fd5b506102056102d8366004611733565b610784565b3480156102e957600080fd5b506102056102f83660046118f9565b610837565b34801561030957600080fd5b50610205610318366004611733565b610918565b34801561032957600080fd5b50610170610338366004611771565b610923565b34801561034957600080fd5b506101d7600081565b34801561035e57600080fd5b5061020561036d366004611925565b61094c565b34801561037e57600080fd5b5061020561038d366004611771565b6109fa565b34801561039e57600080fd5b506102056103ad3660046118ae565b610a1f565b3480156103be57600080fd5b506102056103cd366004611962565b610a37565b3480156103de57600080fd5b506101d76103ed3660046119c1565b610bde565b3480156103fe57600080fd5b5061020561040d3660046118ae565b610bf5565b34801561041e57600080fd5b506104467f000000000000000000000000000000000000000000000000000000000000000081565b6040516001600160a01b03909116815260200161017c565b34801561046a57600080fd5b506101d7600080516020611c0383398151915281565b60006001600160e01b03198216637965db0b60e01b14806104b157506301ffc9a760e01b6001600160e01b03198316145b92915050565b600280546104c490611a03565b80601f01602080910402602001604051908101604052809291908181526020018280546104f090611a03565b801561053d5780601f106105125761010080835404028352916020019161053d565b820191906000526020600020905b81548152906001019060200180831161052057829003601f168201915b505050505081565b60008281526020819052604090206001015461056081610d54565b61056a8383610d5e565b505050565b6001600160a01b03811633146105e45760405162461bcd60e51b815260206004820152602f60248201527f416363657373436f6e74726f6c3a2063616e206f6e6c792072656e6f756e636560448201526e103937b632b9903337b91039b2b63360891b60648201526084015b60405180910390fd5b6105ee8282610de2565b5050565b3361060b600080516020611c0383398151915282610923565b6106275760405162461bcd60e51b81526004016105db90611a3d565b61056a8383610e47565b3361064a600080516020611c0383398151915282610923565b6106665760405162461bcd60e51b81526004016105db90611a3d565b600082116106b65760405162461bcd60e51b815260206004820152601e60248201527f59616b416461707465723a204e6f7468696e6720746f207265636f766572000060448201526064016105db565b604051339083156108fc029084906000818181858888f193505050501580156106e3573d6000803e3d6000fd5b506040518281526000907f8c1256b8896378cd5044f80c202f9772b9d77dc85c8a6eb51967210b09bfaa28906020015b60405180910390a25050565b610737600080516020611c0383398151915282610545565b50565b33610753600080516020611c0383398151915282610923565b61076f5760405162461bcd60e51b81526004016105db90611a3d565b61056a6001600160a01b038416836000610c0c565b3361079d600080516020611c0383398151915282610923565b6107b95760405162461bcd60e51b81526004016105db90611a3d565b816000036108005760405162461bcd60e51b8152602060048201526014602482015273496e76616c6964206761732d657374696d61746560601b60448201526064016105db565b600182905560405182815230907ff43f23b7a28e6f8ce6843a21bd7b48bce778aa913b8c8cf459edf7d770e8d38a90602001610713565b33610850600080516020611c0383398151915282610923565b61086c5760405162461bcd60e51b81526004016105db90611a3d565b600082116108bc5760405162461bcd60e51b815260206004820152601e60248201527f59616b416461707465723a204e6f7468696e6720746f207265636f766572000060448201526064016105db565b6108d06001600160a01b0384163384610e86565b826001600160a01b03167f8c1256b8896378cd5044f80c202f9772b9d77dc85c8a6eb51967210b09bfaa288360405161090b91815260200190565b60405180910390a2505050565b336105ee828261056f565b6000918252602082815260408084206001600160a01b0393909316845291905290205460ff1690565b33610965600080516020611c0383398151915282610923565b6109815760405162461bcd60e51b81526004016105db90611a3d565b60005b825181101561056a576000806109b28584815181106109a5576109a5611a85565b6020026020010151610eb6565b6001600160a01b039182166000908152600360209081526040808320939094168252919091522080546001600160a01b0319169055506109f3905081611ab1565b9050610984565b600082815260208190526040902060010154610a1581610d54565b61056a8383610de2565b610737600080516020611c03833981519152826109fa565b6040516370a0823160e01b81526001600160a01b038281166004830152600091908416906370a0823190602401602060405180830381865afa158015610a81573d6000803e3d6000fd5b505050506040513d601f19601f82011682018060405250810190610aa59190611aca565b9050610ab48686868686610f86565b6040516370a0823160e01b81526001600160a01b03838116600483015260009183918616906370a0823190602401602060405180830381865afa158015610aff573d6000803e3d6000fd5b505050506040513d601f19601f82011682018060405250810190610b239190611aca565b610b2d9190611ae3565b905085811015610b7f5760405162461bcd60e51b815260206004820152601760248201527f496e73756666696369656e7420616d6f756e742d6f757400000000000000000060448201526064016105db565b836001600160a01b0316856001600160a01b03167fe2bdbc6b7225eb0a972ac943c485a6cc05f7c6811838bce8903f23200fb744fa8989604051610bcd929190918252602082015260400190565b60405180910390a350505050505050565b6000610beb8484846110fa565b90505b9392505050565b33610c01600083610545565b6105ee60008261056f565b801580610c865750604051636eb1769f60e11b81523060048201526001600160a01b03838116602483015284169063dd62ed3e90604401602060405180830381865afa158015610c60573d6000803e3d6000fd5b505050506040513d601f19601f82011682018060405250810190610c849190611aca565b155b610cf15760405162461bcd60e51b815260206004820152603660248201527f5361666545524332303a20617070726f76652066726f6d206e6f6e2d7a65726f60448201527520746f206e6f6e2d7a65726f20616c6c6f77616e636560501b60648201526084016105db565b6040516001600160a01b03831660248201526044810182905261056a90849063095ea7b360e01b906064015b60408051601f198184030181529190526020810180516001600160e01b03166001600160e01b031990931692909217909152611238565b6107378133611367565b610d688282610923565b6105ee576000828152602081815260408083206001600160a01b03851684529091529020805460ff19166001179055610d9e3390565b6001600160a01b0316816001600160a01b0316837f2f8788117e7eff1d82e926ec794901d17c78024a50270940304540a733656f0d60405160405180910390a45050565b610dec8282610923565b156105ee576000828152602081815260408083206001600160a01b0385168085529252808320805460ff1916905551339285917ff6391f5c32d9c69d2a47ea670b442974b53935d1edc7fd64eb21e047a839171b9190a45050565b60005b825181101561056a57610e76838281518110610e6857610e68611a85565b6020026020010151836113cb565b610e7f81611ab1565b9050610e4a565b6040516001600160a01b03831660248201526044810182905261056a90849063a9059cbb60e01b90606401610d1d565b600080826001600160a01b0316634a248d2a6040518163ffffffff1660e01b8152600401602060405180830381865afa158015610ef7573d6000803e3d6000fd5b505050506040513d601f19601f82011682018060405250810190610f1b9190611af6565b9150826001600160a01b031663d4b970466040518163ffffffff1660e01b8152600401602060405180830381865afa158015610f5b573d6000803e3d6000fd5b505050506040513d601f19601f82011682018060405250810190610f7f9190611af6565b9050915091565b6001600160a01b038084166000908152600360209081526040808320868516845290915290205416801561103657604051638dae733360e01b8152600481018790526024810186905260606044820152600060648201526001600160a01b03821690638dae7333906084016020604051808303816000875af1158015611010573d6000803e3d6000fd5b505050506040513d601f19601f820116820180604052508101906110349190611aca565b505b506001600160a01b03808316600090815260036020908152604080832087851684529091529020541680156110e75760405163733e738360e11b8152600481018690526024810187905260606044820152600060648201526001600160a01b0382169063e67ce706906084016020604051808303816000875af11580156110c1573d6000803e3d6000fd5b505050506040513d601f19601f820116820180604052508101906110e59190611aca565b505b6110f2838684611434565b505050505050565b60008360000361110c57506000610bee565b6001600160a01b03808416600090815260036020908152604080832086851684529091529020541680156111ac576040516351400f0b60e11b8152600481018690526001600160a01b0382169063a2801e16906024015b602060405180830381865afa158015611180573d6000803e3d6000fd5b505050506040513d601f19601f820116820180604052508101906111a49190611aca565b915050610bee565b506001600160a01b03808316600090815260036020908152604080832087851684529091529020541680156112305760405163ca19ebd960e01b81526001600160a01b038281166004830152602482018790527f0000000000000000000000000000000000000000000000000000000000000000169063ca19ebd990604401611163565b509392505050565b600080836001600160a01b0316836040516112539190611b13565b6000604051808303816000865af19150503d8060008114611290576040519150601f19603f3d011682016040523d82523d6000602084013e611295565b606091505b5091509150816112e75760405162461bcd60e51b815260206004820181905260248201527f5361666545524332303a206c6f772d6c6576656c2063616c6c206661696c656460448201526064016105db565b80511561136157808060200190518101906113029190611b2f565b6113615760405162461bcd60e51b815260206004820152602a60248201527f5361666545524332303a204552433230206f7065726174696f6e20646964206e6044820152691bdd081cdd58d8d9595960b21b60648201526084016105db565b50505050565b6113718282610923565b6105ee57611389816001600160a01b03166014611458565b611394836020611458565b6040516020016113a5929190611b4c565b60408051601f198184030181529082905262461bcd60e51b82526105db91600401611700565b6000806113d784610eb6565b91509150826113eb576113eb8282866115f4565b6113f6828286611686565b6001600160a01b0391821660009081526003602090815260408083209385168352929052208054919093166001600160a01b03199091161790915550565b306001600160a01b0382161461056a5761056a6001600160a01b0384168284610e86565b60606000611467836002611bc1565b611472906002611bd8565b67ffffffffffffffff81111561148a5761148a6117a1565b6040519080825280601f01601f1916602001820160405280156114b4576020820181803683370190505b509050600360fc1b816000815181106114cf576114cf611a85565b60200101906001600160f81b031916908160001a905350600f60fb1b816001815181106114fe576114fe611a85565b60200101906001600160f81b031916908160001a9053506000611522846002611bc1565b61152d906001611bd8565b90505b60018111156115a5576f181899199a1a9b1b9c1cb0b131b232b360811b85600f166010811061156157611561611a85565b1a60f81b82828151811061157757611577611a85565b60200101906001600160f81b031916908160001a90535060049490941c9361159e81611beb565b9050611530565b508315610bee5760405162461bcd60e51b815260206004820181905260248201527f537472696e67733a20686578206c656e67746820696e73756666696369656e7460448201526064016105db565b6001600160a01b03808416600090815260036020908152604080832086851684529091529020541680158061163a5750816001600160a01b0316816001600160a01b0316145b6113615760405162461bcd60e51b815260206004820152601860248201527f4e6f7420616c6c6f77656420746f206f7665727772697465000000000000000060448201526064016105db565b61169c6001600160a01b03841682600019610c0c565b61056a6001600160a01b03831682600019610c0c565b6000602082840312156116c457600080fd5b81356001600160e01b031981168114610bee57600080fd5b60005b838110156116f75781810151838201526020016116df565b50506000910152565b602081526000825180602084015261171f8160408501602087016116dc565b601f01601f19169190910160400192915050565b60006020828403121561174557600080fd5b5035919050565b6001600160a01b038116811461073757600080fd5b803561176c8161174c565b919050565b6000806040838503121561178457600080fd5b8235915060208301356117968161174c565b809150509250929050565b634e487b7160e01b600052604160045260246000fd5b600082601f8301126117c857600080fd5b8135602067ffffffffffffffff808311156117e5576117e56117a1565b8260051b604051601f19603f8301168101818110848211171561180a5761180a6117a1565b60405293845285810183019383810192508785111561182857600080fd5b83870191505b8482101561184e5761183f82611761565b8352918301919083019061182e565b979650505050505050565b801515811461073757600080fd5b6000806040838503121561187a57600080fd5b823567ffffffffffffffff81111561189157600080fd5b61189d858286016117b7565b925050602083013561179681611859565b6000602082840312156118c057600080fd5b8135610bee8161174c565b600080604083850312156118de57600080fd5b82356118e98161174c565b915060208301356117968161174c565b6000806040838503121561190c57600080fd5b82356119178161174c565b946020939093013593505050565b60006020828403121561193757600080fd5b813567ffffffffffffffff81111561194e57600080fd5b61195a848285016117b7565b949350505050565b600080600080600060a0868803121561197a57600080fd5b853594506020860135935060408601356119938161174c565b925060608601356119a38161174c565b915060808601356119b38161174c565b809150509295509295909350565b6000806000606084860312156119d657600080fd5b8335925060208401356119e88161174c565b915060408401356119f88161174c565b809150509250925092565b600181811c90821680611a1757607f821691505b602082108103611a3757634e487b7160e01b600052602260045260246000fd5b50919050565b60208082526028908201527f4d61696e7461696e61626c653a2043616c6c6572206973206e6f742061206d6160408201526734b73a30b4b732b960c11b606082015260800190565b634e487b7160e01b600052603260045260246000fd5b634e487b7160e01b600052601160045260246000fd5b600060018201611ac357611ac3611a9b565b5060010190565b600060208284031215611adc57600080fd5b5051919050565b818103818111156104b1576104b1611a9b565b600060208284031215611b0857600080fd5b8151610bee8161174c565b60008251611b258184602087016116dc565b9190910192915050565b600060208284031215611b4157600080fd5b8151610bee81611859565b7f416363657373436f6e74726f6c3a206163636f756e7420000000000000000000815260008351611b848160178501602088016116dc565b7001034b99036b4b9b9b4b733903937b6329607d1b6017918401918201528351611bb58160288401602088016116dc565b01602801949350505050565b80820281158282048414176104b1576104b1611a9b565b808201808211156104b1576104b1611a9b565b600081611bfa57611bfa611a9b565b50600019019056fe339759585899103d2ace64958e37e18ccb0504652c81d4a1b8aa80fe2126ab95a264697066735822122098c52b2d7f563c2f1743501a843b0fcef0e1544e69a7b91e6b651f4cb84bd10964736f6c63430008110033",
    "linkReferences": {}
  },
  "methodIdentifiers": {
    "DEFAULT_ADMIN_ROLE()": "a217fddf",
    "HELPER()": "f551bf20",
    "MAINTAINER_ROLE()": "f8742254",
    "_rmPools(address[])": "a746e4b2",
    "addMaintainer(address)": "6b453c1f",
    "getRoleAdmin(bytes32)": "248a9ca3",
    "grantRole(bytes32,address)": "2f2ff15d",
    "hasRole(bytes32,address)": "91d14854",
    "name()": "06fdde03",
    "query(uint256,address,address)": "ef99893a",
    "recoverAVAX(uint256)": "4ebb7916",
    "recoverERC20(address,uint256)": "8980f11f",
    "removeMaintainer(address)": "d8baf7cf",
    "renounceRole(bytes32)": "8bb9c5bf",
    "renounceRole(bytes32,address)": "36568abe",
    "revokeAllowance(address,address)": "7ae26773",
    "revokeRole(bytes32,address)": "d547741f",
    "setPools(address[],bool)": "49e38f32",
    "setSwapGasEstimate(uint256)": "84a33e63",
    "supportsInterface(bytes4)": "01ffc9a7",
    "swap(uint256,uint256,address,address,address)": "eab90da6",
    "swapGasEstimate()": "69cff80d",
    "transferOwnership(address)": "f2fde38b"
  },
  "id": 24
}