{
  "abi": [
    {
      "inputs": [
        {
          "internalType": "string",
          "name": "_name",
          "type": "string"
        },
        {
          "internalType": "address",
          "name": "_vault",
          "type": "address"
        },
        {
          "internalType": "uint256",
          "name": "_swapGasEstimate",
          "type": "uint256"
        }
      ],
      "stateMutability": "nonpayable",
      "type": "constructor"
    },
    {
      "anonymous": false,
      "inputs": [
        {
          "indexed": true,
          "internalType": "address",
          "name": "_asset",
          "type": "address"
        },
        {
          "indexed": false,
          "internalType": "uint256",
          "name": "amount",
          "type": "uint256"
        }
      ],
      "name": "Recovered",
      "type": "event"
    },
    {
      "anonymous": false,
      "inputs": [
        {
          "indexed": true,
          "internalType": "bytes32",
          "name": "role",
          "type": "bytes32"
        },
        {
          "indexed": true,
          "internalType": "bytes32",
          "name": "previousAdminRole",
          "type": "bytes32"
        },
        {
          "indexed": true,
          "internalType": "bytes32",
          "name": "newAdminRole",
          "type": "bytes32"
        }
      ],
      "name": "RoleAdminChanged",
      "type": "event"
    },
    {
      "anonymous": false,
      "inputs": [
        {
          "indexed": true,
          "internalType": "bytes32",
          "name": "role",
          "type": "bytes32"
        },
        {
          "indexed": true,
          "internalType": "address",
          "name": "account",
          "type": "address"
        },
        {
          "indexed": true,
          "internalType": "address",
          "name": "sender",
          "type": "address"
        }
      ],
      "name": "RoleGranted",
      "type": "event"
    },
    {
      "anonymous": false,
      "inputs": [
        {
          "indexed": true,
          "internalType": "bytes32",
          "name": "role",
          "type": "bytes32"
        },
        {
          "indexed": true,
          "internalType": "address",
          "name": "account",
          "type": "address"
        },
        {
          "indexed": true,
          "internalType": "address",
          "name": "sender",
          "type": "address"
        }
      ],
      "name": "RoleRevoked",
      "type": "event"
    },
    {
      "anonymous": false,
      "inputs": [
        {
          "indexed": true,
          "internalType": "address",
          "name": "_adapter",
          "type": "address"
        },
        {
          "indexed": false,
          "internalType": "uint256",
          "name": "_newEstimate",
          "type": "uint256"
        }
      ],
      "name": "UpdatedGasEstimate",
      "type": "event"
    },
    {
      "anonymous": false,
      "inputs": [
        {
          "indexed": true,
          "internalType": "address",
          "name": "_tokenFrom",
          "type": "address"
        },
        {
          "indexed": true,
          "internalType": "address",
          "name": "_tokenTo",
          "type": "address"
        },
        {
          "indexed": false,
          "internalType": "uint256",
          "name": "_amountIn",
          "type": "uint256"
        },
        {
          "indexed": false,
          "internalType": "uint256",
          "name": "_amountOut",
          "type": "uint256"
        }
      ],
      "name": "YakAdapterSwap",
      "type": "event"
    },
    {
      "inputs": [],
      "name": "DEFAULT_ADMIN_ROLE",
      "outputs": [
        {
          "internalType": "bytes32",
          "name": "",
          "type": "bytes32"
        }
      ],
      "stateMutability": "view",
      "type": "function"
    },
    {
      "inputs": [],
      "name": "MAINTAINER_ROLE",
      "outputs": [
        {
          "internalType": "bytes32",
          "name": "",
          "type": "bytes32"
        }
      ],
      "stateMutability": "view",
      "type": "function"
    },
    {
      "inputs": [
        {
          "internalType": "address",
          "name": "addedMaintainer",
          "type": "address"
        }
      ],
      "name": "addMaintainer",
      "outputs": [],
      "stateMutability": "nonpayable",
      "type": "function"
    },
    {
      "inputs": [
        {
          "internalType": "bytes32",
          "name": "role",
          "type": "bytes32"
        }
      ],
      "name": "getRoleAdmin",
      "outputs": [
        {
          "internalType": "bytes32",
          "name": "",
          "type": "bytes32"
        }
      ],
      "stateMutability": "view",
      "type": "function"
    },
    {
      "inputs": [
        {
          "internalType": "bytes32",
          "name": "role",
          "type": "bytes32"
        },
        {
          "internalType": "address",
          "name": "account",
          "type": "address"
        }
      ],
      "name": "grantRole",
      "outputs": [],
      "stateMutability": "nonpayable",
      "type": "function"
    },
    {
      "inputs": [
        {
          "internalType": "bytes32",
          "name": "role",
          "type": "bytes32"
        },
        {
          "internalType": "address",
          "name": "account",
          "type": "address"
        }
      ],
      "name": "hasRole",
      "outputs": [
        {
          "internalType": "bool",
          "name": "",
          "type": "bool"
        }
      ],
      "stateMutability": "view",
      "type": "function"
    },
    {
      "inputs": [],
      "name": "name",
      "outputs": [
        {
          "internalType": "string",
          "name": "",
          "type": "string"
        }
      ],
      "stateMutability": "view",
      "type": "function"
    },
    {
      "inputs": [
        {
          "internalType": "uint256",
          "name": "_amountIn",
          "type": "uint256"
        },
        {
          "internalType": "address",
          "name": "_tokenIn",
          "type": "address"
        },
        {
          "internalType": "address",
          "name": "_tokenOut",
          "type": "address"
        }
      ],
      "name": "query",
      "outputs": [
        {
          "internalType": "uint256",
          "name": "",
          "type": "uint256"
        }
      ],
      "stateMutability": "view",
      "type": "function"
    },
    {
      "inputs": [
        {
          "internalType": "uint256",
          "name": "_amount",
          "type": "uint256"
        }
      ],
      "name": "recoverAVAX",
      "outputs": [],
      "stateMutability": "nonpayable",
      "type": "function"
    },
    {
      "inputs": [
        {
          "internalType": "address",
          "name": "_tokenAddress",
          "type": "address"
        },
        {
          "internalType": "uint256",
          "name": "_tokenAmount",
          "type": "uint256"
        }
      ],
      "name": "recoverERC20",
      "outputs": [],
      "stateMutability": "nonpayable",
      "type": "function"
    },
    {
      "inputs": [
        {
          "internalType": "address",
          "name": "removedMaintainer",
          "type": "address"
        }
      ],
      "name": "removeMaintainer",
      "outputs": [],
      "stateMutability": "nonpayable",
      "type": "function"
    },
    {
      "inputs": [
        {
          "internalType": "bytes32",
          "name": "role",
          "type": "bytes32"
        },
        {
          "internalType": "address",
          "name": "account",
          "type": "address"
        }
      ],
      "name": "renounceRole",
      "outputs": [],
      "stateMutability": "nonpayable",
      "type": "function"
    },
    {
      "inputs": [
        {
          "internalType": "bytes32",
          "name": "role",
          "type": "bytes32"
        }
      ],
      "name": "renounceRole",
      "outputs": [],
      "stateMutability": "nonpayable",
      "type": "function"
    },
    {
      "inputs": [
        {
          "internalType": "address",
          "name": "_token",
          "type": "address"
        },
        {
          "internalType": "address",
          "name": "_spender",
          "type": "address"
        }
      ],
      "name": "revokeAllowance",
      "outputs": [],
      "stateMutability": "nonpayable",
      "type": "function"
    },
    {
      "inputs": [
        {
          "internalType": "bytes32",
          "name": "role",
          "type": "bytes32"
        },
        {
          "internalType": "address",
          "name": "account",
          "type": "address"
        }
      ],
      "name": "revokeRole",
      "outputs": [],
      "stateMutability": "nonpayable",
      "type": "function"
    },
    {
      "inputs": [],
      "name": "setPoolTokens",
      "outputs": [],
      "stateMutability": "nonpayable",
      "type": "function"
    },
    {
      "inputs": [
        {
          "internalType": "uint256",
          "name": "_estimate",
          "type": "uint256"
        }
      ],
      "name": "setSwapGasEstimate",
      "outputs": [],
      "stateMutability": "nonpayable",
      "type": "function"
    },
    {
      "inputs": [
        {
          "internalType": "bytes4",
          "name": "interfaceId",
          "type": "bytes4"
        }
      ],
      "name": "supportsInterface",
      "outputs": [
        {
          "internalType": "bool",
          "name": "",
          "type": "bool"
        }
      ],
      "stateMutability": "view",
      "type": "function"
    },
    {
      "inputs": [
        {
          "internalType": "uint256",
          "name": "_amountIn",
          "type": "uint256"
        },
        {
          "internalType": "uint256",
          "name": "_amountOut",
          "type": "uint256"
        },
        {
          "internalType": "address",
          "name": "_fromToken",
          "type": "address"
        },
        {
          "internalType": "address",
          "name": "_toToken",
          "type": "address"
        },
        {
          "internalType": "address",
          "name": "_to",
          "type": "address"
        }
      ],
      "name": "swap",
      "outputs": [],
      "stateMutability": "nonpayable",
      "type": "function"
    },
    {
      "inputs": [],
      "name": "swapGasEstimate",
      "outputs": [
        {
          "internalType": "uint256",
          "name": "",
          "type": "uint256"
        }
      ],
      "stateMutability": "view",
      "type": "function"
    },
    {
      "inputs": [
        {
          "internalType": "address",
          "name": "",
          "type": "address"
        }
      ],
      "name": "tokenDecimals",
      "outputs": [
        {
          "internalType": "uint256",
          "name": "",
          "type": "uint256"
        }
      ],
      "stateMutability": "view",
      "type": "function"
    },
    {
      "inputs": [
        {
          "internalType": "address",
          "name": "newOwner",
          "type": "address"
        }
      ],
      "name": "transferOwnership",
      "outputs": [],
      "stateMutability": "nonpayable",
      "type": "function"
    },
    {
      "inputs": [],
      "name": "vault",
      "outputs": [
        {
          "internalType": "address",
          "name": "",
          "type": "address"
        }
      ],
      "stateMutability": "view",
      "type": "function"
    },
    {
      "stateMutability": "payable",
      "type": "receive"
    }
  ],
  "bytecode": {
    "object": "0x60806040523480156200001157600080fd5b5060405162002a0138038062002a0183398101604081905262000034916200085b565b82813362000044600082620000b7565b620000707f339759585899103d2ace64958e37e18ccb0504652c81d4a1b8aa80fe2126ab9582620000b7565b506200007c82620000c7565b62000087816200012c565b5050600380546001600160a01b0319166001600160a01b038416179055620000ae6200024d565b50505062000bef565b620000c38282620004a6565b5050565b80516000036200011e5760405162461bcd60e51b815260206004820152601460248201527f496e76616c69642061646170746572206e616d6500000000000000000000000060448201526064015b60405180910390fd5b6002620000c38282620009a4565b3360008181527fa54247010af6b3693b80aceddfad12e077c5de3571e6243fada502635f0d7d39602052604090205460ff16620001bd5760405162461bcd60e51b815260206004820152602860248201527f4d61696e7461696e61626c653a2043616c6c6572206973206e6f742061206d6160448201526734b73a30b4b732b960c11b606482015260840162000115565b816000036200020f5760405162461bcd60e51b815260206004820152601460248201527f496e76616c6964206761732d657374696d617465000000000000000000000000604482015260640162000115565b600182905560405182815230907ff43f23b7a28e6f8ce6843a21bd7b48bce778aa913b8c8cf459edf7d770e8d38a9060200160405180910390a25050565b60035460408051635fc1bad360e01b815290516000926001600160a01b031691635fc1bad39160048083019260209291908290030181865afa15801562000298573d6000803e3d6000fd5b505050506040513d601f19601f82011682018060405250810190620002be919062000a70565b905060005b81811015620000c3576003546040805163a195c25360e01b815290516000926001600160a01b03169163a195c25391600480830192869291908290030181865afa15801562000316573d6000803e3d6000fd5b505050506040513d6000823e601f3d908101601f1916820160405262000340919081019062000a8a565b828151811062000354576200035462000b43565b60200260200101519050806001600160a01b031663313ce5676040518163ffffffff1660e01b8152600401602060405180830381865afa1580156200039d573d6000803e3d6000fd5b505050506040513d601f19601f82011682018060405250810190620003c3919062000b59565b6001600160a01b03828116600081815260046020819052604080832060ff969096169095556003549451636eb1769f60e11b81523091810191909152939092166024840152909163dd62ed3e90604401602060405180830381865afa15801562000431573d6000803e3d6000fd5b505050506040513d601f19601f8201168201806040525081019062000457919062000a70565b90506000198110156200048e576003546200048e906001600160a01b03848116911660001962000546602090811b62000d4417901c565b505080806200049d9062000b85565b915050620002c3565b6000828152602081815260408083206001600160a01b038516845290915290205460ff16620000c3576000828152602081815260408083206001600160a01b03851684529091529020805460ff19166001179055620005023390565b6001600160a01b0316816001600160a01b0316837f2f8788117e7eff1d82e926ec794901d17c78024a50270940304540a733656f0d60405160405180910390a45050565b801580620005c45750604051636eb1769f60e11b81523060048201526001600160a01b03838116602483015284169063dd62ed3e90604401602060405180830381865afa1580156200059c573d6000803e3d6000fd5b505050506040513d601f19601f82011682018060405250810190620005c2919062000a70565b155b620006385760405162461bcd60e51b815260206004820152603660248201527f5361666545524332303a20617070726f76652066726f6d206e6f6e2d7a65726f60448201527f20746f206e6f6e2d7a65726f20616c6c6f77616e636500000000000000000000606482015260840162000115565b604080516001600160a01b038416602482015260448082018490528251808303909101815260649091019091526020810180516001600160e01b0390811663095ea7b360e01b17909152620006909185916200069516565b505050565b600080836001600160a01b031683604051620006b2919062000bad565b6000604051808303816000865af19150503d8060008114620006f1576040519150601f19603f3d011682016040523d82523d6000602084013e620006f6565b606091505b5091509150816200074a5760405162461bcd60e51b815260206004820181905260248201527f5361666545524332303a206c6f772d6c6576656c2063616c6c206661696c6564604482015260640162000115565b805115620007c9578080602001905181019062000768919062000bcb565b620007c95760405162461bcd60e51b815260206004820152602a60248201527f5361666545524332303a204552433230206f7065726174696f6e20646964206e6044820152691bdd081cdd58d8d9595960b21b606482015260840162000115565b50505050565b634e487b7160e01b600052604160045260246000fd5b604051601f8201601f191681016001600160401b0381118282101715620008105762000810620007cf565b604052919050565b60005b83811015620008355781810151838201526020016200081b565b50506000910152565b80516001600160a01b03811681146200085657600080fd5b919050565b6000806000606084860312156200087157600080fd5b83516001600160401b03808211156200088957600080fd5b818601915086601f8301126200089e57600080fd5b815181811115620008b357620008b3620007cf565b620008c8601f8201601f1916602001620007e5565b9150808252876020828501011115620008e057600080fd5b620008f381602084016020860162000818565b509350620009069050602085016200083e565b9150604084015190509250925092565b600181811c908216806200092b57607f821691505b6020821081036200094c57634e487b7160e01b600052602260045260246000fd5b50919050565b601f8211156200069057600081815260208120601f850160051c810160208610156200097b5750805b601f850160051c820191505b818110156200099c5782815560010162000987565b505050505050565b81516001600160401b03811115620009c057620009c0620007cf565b620009d881620009d1845462000916565b8462000952565b602080601f83116001811462000a105760008415620009f75750858301515b600019600386901b1c1916600185901b1785556200099c565b600085815260208120601f198616915b8281101562000a415788860151825594840194600190910190840162000a20565b508582101562000a605787850151600019600388901b60f8161c191681555b5050505050600190811b01905550565b60006020828403121562000a8357600080fd5b5051919050565b6000602080838503121562000a9e57600080fd5b82516001600160401b038082111562000ab657600080fd5b818501915085601f83011262000acb57600080fd5b81518181111562000ae05762000ae0620007cf565b8060051b915062000af3848301620007e5565b818152918301840191848101908884111562000b0e57600080fd5b938501935b8385101562000b375762000b27856200083e565b8252938501939085019062000b13565b98975050505050505050565b634e487b7160e01b600052603260045260246000fd5b60006020828403121562000b6c57600080fd5b815160ff8116811462000b7e57600080fd5b9392505050565b60006001820162000ba657634e487b7160e01b600052601160045260246000fd5b5060010190565b6000825162000bc181846020870162000818565b9190910192915050565b60006020828403121562000bde57600080fd5b8151801515811462000b7e57600080fd5b611e028062000bff6000396000f3fe6080604052600436106101445760003560e01c80638980f11f116100b6578063d8baf7cf1161006f578063d8baf7cf14610394578063eab90da6146103b4578063ef99893a146103d4578063f2fde38b146103f4578063f874225414610414578063fbfa77cf1461043657600080fd5b80638980f11f146102d25780638bb9c5bf146102f25780638ee573ac1461031257806391d148541461033f578063a217fddf1461035f578063d547741f1461037457600080fd5b806336568abe1161010857806336568abe1461021c5780634ebb79161461023c57806369cff80d1461025c5780636b453c1f146102725780637ae267731461029257806384a33e63146102b257600080fd5b806301ffc9a71461015057806306fdde0314610185578063114e4ce4146101a7578063248a9ca3146101be5780632f2ff15d146101fc57600080fd5b3661014b57005b600080fd5b34801561015c57600080fd5b5061017061016b3660046117ba565b61046e565b60405190151581526020015b60405180910390f35b34801561019157600080fd5b5061019a6104a5565b60405161017c9190611808565b3480156101b357600080fd5b506101bc610533565b005b3480156101ca57600080fd5b506101ee6101d936600461183b565b60009081526020819052604090206001015490565b60405190815260200161017c565b34801561020857600080fd5b506101bc610217366004611869565b61076e565b34801561022857600080fd5b506101bc610237366004611869565b610798565b34801561024857600080fd5b506101bc61025736600461183b565b610817565b34801561026857600080fd5b506101ee60015481565b34801561027e57600080fd5b506101bc61028d366004611899565b610905565b34801561029e57600080fd5b506101bc6102ad3660046118b6565b610920565b3480156102be57600080fd5b506101bc6102cd36600461183b565b61096a565b3480156102de57600080fd5b506101bc6102ed3660046118e4565b610a1d565b3480156102fe57600080fd5b506101bc61030d36600461183b565b610afe565b34801561031e57600080fd5b506101ee61032d366004611899565b60046020526000908152604090205481565b34801561034b57600080fd5b5061017061035a366004611869565b610b09565b34801561036b57600080fd5b506101ee600081565b34801561038057600080fd5b506101bc61038f366004611869565b610b32565b3480156103a057600080fd5b506101bc6103af366004611899565b610b57565b3480156103c057600080fd5b506101bc6103cf366004611910565b610b6f565b3480156103e057600080fd5b506101ee6103ef36600461196f565b610d16565b34801561040057600080fd5b506101bc61040f366004611899565b610d2d565b34801561042057600080fd5b506101ee600080516020611dad83398151915281565b34801561044257600080fd5b50600354610456906001600160a01b031681565b6040516001600160a01b03909116815260200161017c565b60006001600160e01b03198216637965db0b60e01b148061049f57506301ffc9a760e01b6001600160e01b03198316145b92915050565b600280546104b2906119b1565b80601f01602080910402602001604051908101604052809291908181526020018280546104de906119b1565b801561052b5780601f106105005761010080835404028352916020019161052b565b820191906000526020600020905b81548152906001019060200180831161050e57829003601f168201915b505050505081565b60035460408051635fc1bad360e01b815290516000926001600160a01b031691635fc1bad39160048083019260209291908290030181865afa15801561057d573d6000803e3d6000fd5b505050506040513d601f19601f820116820180604052508101906105a191906119eb565b905060005b8181101561076a576003546040805163a195c25360e01b815290516000926001600160a01b03169163a195c25391600480830192869291908290030181865afa1580156105f7573d6000803e3d6000fd5b505050506040513d6000823e601f3d908101601f1916820160405261061f9190810190611a2a565b828151811061063057610630611ae3565b60200260200101519050806001600160a01b031663313ce5676040518163ffffffff1660e01b8152600401602060405180830381865afa158015610678573d6000803e3d6000fd5b505050506040513d601f19601f8201168201806040525081019061069c9190611af9565b6001600160a01b03828116600081815260046020819052604080832060ff969096169095556003549451636eb1769f60e11b81523091810191909152939092166024840152909163dd62ed3e90604401602060405180830381865afa158015610709573d6000803e3d6000fd5b505050506040513d601f19601f8201168201806040525081019061072d91906119eb565b905060001981101561075557600354610755906001600160a01b038481169116600019610d44565b5050808061076290611b32565b9150506105a6565b5050565b60008281526020819052604090206001015461078981610e8c565b6107938383610e96565b505050565b6001600160a01b038116331461080d5760405162461bcd60e51b815260206004820152602f60248201527f416363657373436f6e74726f6c3a2063616e206f6e6c792072656e6f756e636560448201526e103937b632b9903337b91039b2b63360891b60648201526084015b60405180910390fd5b61076a8282610f1a565b33610830600080516020611dad83398151915282610b09565b61084c5760405162461bcd60e51b815260040161080490611b4b565b6000821161089c5760405162461bcd60e51b815260206004820152601e60248201527f59616b416461707465723a204e6f7468696e6720746f207265636f76657200006044820152606401610804565b604051339083156108fc029084906000818181858888f193505050501580156108c9573d6000803e3d6000fd5b506040518281526000907f8c1256b8896378cd5044f80c202f9772b9d77dc85c8a6eb51967210b09bfaa28906020015b60405180910390a25050565b61091d600080516020611dad8339815191528261076e565b50565b33610939600080516020611dad83398151915282610b09565b6109555760405162461bcd60e51b815260040161080490611b4b565b6107936001600160a01b038416836000610d44565b33610983600080516020611dad83398151915282610b09565b61099f5760405162461bcd60e51b815260040161080490611b4b565b816000036109e65760405162461bcd60e51b8152602060048201526014602482015273496e76616c6964206761732d657374696d61746560601b6044820152606401610804565b600182905560405182815230907ff43f23b7a28e6f8ce6843a21bd7b48bce778aa913b8c8cf459edf7d770e8d38a906020016108f9565b33610a36600080516020611dad83398151915282610b09565b610a525760405162461bcd60e51b815260040161080490611b4b565b60008211610aa25760405162461bcd60e51b815260206004820152601e60248201527f59616b416461707465723a204e6f7468696e6720746f207265636f76657200006044820152606401610804565b610ab66001600160a01b0384163384610f7f565b826001600160a01b03167f8c1256b8896378cd5044f80c202f9772b9d77dc85c8a6eb51967210b09bfaa2883604051610af191815260200190565b60405180910390a2505050565b3361076a8282610798565b6000918252602082815260408084206001600160a01b0393909316845291905290205460ff1690565b600082815260208190526040902060010154610b4d81610e8c565b6107938383610f1a565b61091d600080516020611dad83398151915282610b32565b6040516370a0823160e01b81526001600160a01b038281166004830152600091908416906370a0823190602401602060405180830381865afa158015610bb9573d6000803e3d6000fd5b505050506040513d601f19601f82011682018060405250810190610bdd91906119eb565b9050610bec8686868686610faf565b6040516370a0823160e01b81526001600160a01b03838116600483015260009183918616906370a0823190602401602060405180830381865afa158015610c37573d6000803e3d6000fd5b505050506040513d601f19601f82011682018060405250810190610c5b91906119eb565b610c659190611b93565b905085811015610cb75760405162461bcd60e51b815260206004820152601760248201527f496e73756666696369656e7420616d6f756e742d6f75740000000000000000006044820152606401610804565b836001600160a01b0316856001600160a01b03167fe2bdbc6b7225eb0a972ac943c485a6cc05f7c6811838bce8903f23200fb744fa8989604051610d05929190918252602082015260400190565b60405180910390a350505050505050565b6000610d2384848461102f565b90505b9392505050565b33610d3960008361076e565b61076a600082610798565b801580610dbe5750604051636eb1769f60e11b81523060048201526001600160a01b03838116602483015284169063dd62ed3e90604401602060405180830381865afa158015610d98573d6000803e3d6000fd5b505050506040513d601f19601f82011682018060405250810190610dbc91906119eb565b155b610e295760405162461bcd60e51b815260206004820152603660248201527f5361666545524332303a20617070726f76652066726f6d206e6f6e2d7a65726f60448201527520746f206e6f6e2d7a65726f20616c6c6f77616e636560501b6064820152608401610804565b6040516001600160a01b03831660248201526044810182905261079390849063095ea7b360e01b906064015b60408051601f198184030181529190526020810180516001600160e01b03166001600160e01b031990931692909217909152611391565b61091d81336114c0565b610ea08282610b09565b61076a576000828152602081815260408083206001600160a01b03851684529091529020805460ff19166001179055610ed63390565b6001600160a01b0316816001600160a01b0316837f2f8788117e7eff1d82e926ec794901d17c78024a50270940304540a733656f0d60405160405180910390a45050565b610f248282610b09565b1561076a576000828152602081815260408083206001600160a01b0385168085529252808320805460ff1916905551339285917ff6391f5c32d9c69d2a47ea670b442974b53935d1edc7fd64eb21e047a839171b9190a45050565b6040516001600160a01b03831660248201526044810182905261079390849063a9059cbb60e01b90606401610e55565b600354604051636d069a6760e01b81526001600160a01b03858116600483015260248201889052848116604483015290911690636d069a6790606401600060405180830381600087803b15801561100557600080fd5b505af1158015611019573d6000803e3d6000fd5b50505050611028828583611524565b5050505050565b600083158061104f5750816001600160a01b0316836001600160a01b0316145b806110c55750600354604051634e34f26b60e01b81526001600160a01b03858116600483015290911690634e34f26b90602401602060405180830381865afa15801561109f573d6000803e3d6000fd5b505050506040513d601f19601f820116820180604052508101906110c39190611ba6565b155b8061113b5750600354604051634e34f26b60e01b81526001600160a01b03848116600483015290911690634e34f26b90602401602060405180830381865afa158015611115573d6000803e3d6000fd5b505050506040513d601f19601f820116820180604052508101906111399190611ba6565b155b806111af5750600354604051636925cf9160e01b81526001600160a01b03858116600483015290911690636925cf9190602401602060405180830381865afa15801561118b573d6000803e3d6000fd5b505050506040513d601f19601f820116820180604052508101906111af9190611ba6565b806112235750600354604051636925cf9160e01b81526001600160a01b03848116600483015290911690636925cf9190602401602060405180830381865afa1580156111ff573d6000803e3d6000fd5b505050506040513d601f19601f820116820180604052508101906112239190611ba6565b806112a25750600360009054906101000a90046001600160a01b03166001600160a01b0316636ddd17136040518163ffffffff1660e01b8152600401602060405180830381865afa15801561127c573d6000803e3d6000fd5b505050506040513d601f19601f820116820180604052508101906112a09190611ba6565b155b156112af57506000610d26565b60006112bc858585611548565b90506000600360009054906101000a90046001600160a01b03166001600160a01b03166354cf2aeb6040518163ffffffff1660e01b8152600401602060405180830381865afa158015611313573d6000803e3d6000fd5b505050506040513d601f19601f8201168201806040525081019061133791906119eb565b9050670de0b6b3a764000060008161134f8486611bc8565b6113599190611bdf565b905060006113678286611b93565b905061137387826115a2565b61138557600095505050505050610d26565b98975050505050505050565b600080836001600160a01b0316836040516113ac9190611c01565b6000604051808303816000865af19150503d80600081146113e9576040519150601f19603f3d011682016040523d82523d6000602084013e6113ee565b606091505b5091509150816114405760405162461bcd60e51b815260206004820181905260248201527f5361666545524332303a206c6f772d6c6576656c2063616c6c206661696c65646044820152606401610804565b8051156114ba578080602001905181019061145b9190611ba6565b6114ba5760405162461bcd60e51b815260206004820152602a60248201527f5361666545524332303a204552433230206f7065726174696f6e20646964206e6044820152691bdd081cdd58d8d9595960b21b6064820152608401610804565b50505050565b6114ca8282610b09565b61076a576114e2816001600160a01b0316601461161e565b6114ed83602061161e565b6040516020016114fe929190611c1d565b60408051601f198184030181529082905262461bcd60e51b825261080491600401611808565b306001600160a01b03821614610793576107936001600160a01b0384168284610f7f565b6001600160a01b0380831660009081526004602052604080822054928416825281205490919061157982600a611d76565b61158482600a611d76565b61158e9088611bc8565b6115989190611bdf565b9695505050505050565b6003546040516370a0823160e01b81526001600160a01b0391821660048201526000918391908516906370a0823190602401602060405180830381865afa1580156115f1573d6000803e3d6000fd5b505050506040513d601f19601f8201168201806040525081019061161591906119eb565b10159392505050565b6060600061162d836002611bc8565b611638906002611d82565b67ffffffffffffffff81111561165057611650611a04565b6040519080825280601f01601f19166020018201604052801561167a576020820181803683370190505b509050600360fc1b8160008151811061169557611695611ae3565b60200101906001600160f81b031916908160001a905350600f60fb1b816001815181106116c4576116c4611ae3565b60200101906001600160f81b031916908160001a90535060006116e8846002611bc8565b6116f3906001611d82565b90505b600181111561176b576f181899199a1a9b1b9c1cb0b131b232b360811b85600f166010811061172757611727611ae3565b1a60f81b82828151811061173d5761173d611ae3565b60200101906001600160f81b031916908160001a90535060049490941c9361176481611d95565b90506116f6565b508315610d265760405162461bcd60e51b815260206004820181905260248201527f537472696e67733a20686578206c656e67746820696e73756666696369656e746044820152606401610804565b6000602082840312156117cc57600080fd5b81356001600160e01b031981168114610d2657600080fd5b60005b838110156117ff5781810151838201526020016117e7565b50506000910152565b60208152600082518060208401526118278160408501602087016117e4565b601f01601f19169190910160400192915050565b60006020828403121561184d57600080fd5b5035919050565b6001600160a01b038116811461091d57600080fd5b6000806040838503121561187c57600080fd5b82359150602083013561188e81611854565b809150509250929050565b6000602082840312156118ab57600080fd5b8135610d2681611854565b600080604083850312156118c957600080fd5b82356118d481611854565b9150602083013561188e81611854565b600080604083850312156118f757600080fd5b823561190281611854565b946020939093013593505050565b600080600080600060a0868803121561192857600080fd5b8535945060208601359350604086013561194181611854565b9250606086013561195181611854565b9150608086013561196181611854565b809150509295509295909350565b60008060006060848603121561198457600080fd5b83359250602084013561199681611854565b915060408401356119a681611854565b809150509250925092565b600181811c908216806119c557607f821691505b6020821081036119e557634e487b7160e01b600052602260045260246000fd5b50919050565b6000602082840312156119fd57600080fd5b5051919050565b634e487b7160e01b600052604160045260246000fd5b8051611a2581611854565b919050565b60006020808385031215611a3d57600080fd5b825167ffffffffffffffff80821115611a5557600080fd5b818501915085601f830112611a6957600080fd5b815181811115611a7b57611a7b611a04565b8060051b604051601f19603f83011681018181108582111715611aa057611aa0611a04565b604052918252848201925083810185019188831115611abe57600080fd5b938501935b8285101561138557611ad485611a1a565b84529385019392850192611ac3565b634e487b7160e01b600052603260045260246000fd5b600060208284031215611b0b57600080fd5b815160ff81168114610d2657600080fd5b634e487b7160e01b600052601160045260246000fd5b600060018201611b4457611b44611b1c565b5060010190565b60208082526028908201527f4d61696e7461696e61626c653a2043616c6c6572206973206e6f742061206d6160408201526734b73a30b4b732b960c11b606082015260800190565b8181038181111561049f5761049f611b1c565b600060208284031215611bb857600080fd5b81518015158114610d2657600080fd5b808202811582820484141761049f5761049f611b1c565b600082611bfc57634e487b7160e01b600052601260045260246000fd5b500490565b60008251611c138184602087016117e4565b9190910192915050565b7f416363657373436f6e74726f6c3a206163636f756e7420000000000000000000815260008351611c558160178501602088016117e4565b7001034b99036b4b9b9b4b733903937b6329607d1b6017918401918201528351611c868160288401602088016117e4565b01602801949350505050565b600181815b80851115611ccd578160001904821115611cb357611cb3611b1c565b80851615611cc057918102915b93841c9390800290611c97565b509250929050565b600082611ce45750600161049f565b81611cf15750600061049f565b8160018114611d075760028114611d1157611d2d565b600191505061049f565b60ff841115611d2257611d22611b1c565b50506001821b61049f565b5060208310610133831016604e8410600b8410161715611d50575081810a61049f565b611d5a8383611c92565b8060001904821115611d6e57611d6e611b1c565b029392505050565b6000610d268383611cd5565b8082018082111561049f5761049f611b1c565b600081611da457611da4611b1c565b50600019019056fe339759585899103d2ace64958e37e18ccb0504652c81d4a1b8aa80fe2126ab95a264697066735822122051903f21825bae85429f652c20251c073198ada86baef79e78a6637512f9044364736f6c63430008110033",
    "linkReferences": {}
  },
  "methodIdentifiers": {
    "DEFAULT_ADMIN_ROLE()": "a217fddf",
    "MAINTAINER_ROLE()": "f8742254",
    "addMaintainer(address)": "6b453c1f",
    "getRoleAdmin(bytes32)": "248a9ca3",
    "grantRole(bytes32,address)": "2f2ff15d",
    "hasRole(bytes32,address)": "91d14854",
    "name()": "06fdde03",
    "query(uint256,address,address)": "ef99893a",
    "recoverAVAX(uint256)": "4ebb7916",
    "recoverERC20(address,uint256)": "8980f11f",
    "removeMaintainer(address)": "d8baf7cf",
    "renounceRole(bytes32)": "8bb9c5bf",
    "renounceRole(bytes32,address)": "36568abe",
    "revokeAllowance(address,address)": "7ae26773",
    "revokeRole(bytes32,address)": "d547741f",
    "setPoolTokens()": "114e4ce4",
    "setSwapGasEstimate(uint256)": "84a33e63",
    "supportsInterface(bytes4)": "01ffc9a7",
    "swap(uint256,uint256,address,address,address)": "eab90da6",
    "swapGasEstimate()": "69cff80d",
    "tokenDecimals(address)": "8ee573ac",
    "transferOwnership(address)": "f2fde38b",
    "vault()": "fbfa77cf"
  },
  "id": 13
}