{
  "abi": [
    {
      "inputs": [
        {
          "internalType": "string",
          "name": "_name",
          "type": "string"
        },
        {
          "internalType": "address",
          "name": "_pool",
          "type": "address"
        },
        {
          "internalType": "uint256",
          "name": "_swapGasEstimate",
          "type": "uint256"
        }
      ],
      "stateMutability": "nonpayable",
      "type": "constructor"
    },
    {
      "anonymous": false,
      "inputs": [
        {
          "indexed": true,
          "internalType": "address",
          "name": "_asset",
          "type": "address"
        },
        {
          "indexed": false,
          "internalType": "uint256",
          "name": "amount",
          "type": "uint256"
        }
      ],
      "name": "Recovered",
      "type": "event"
    },
    {
      "anonymous": false,
      "inputs": [
        {
          "indexed": true,
          "internalType": "bytes32",
          "name": "role",
          "type": "bytes32"
        },
        {
          "indexed": true,
          "internalType": "bytes32",
          "name": "previousAdminRole",
          "type": "bytes32"
        },
        {
          "indexed": true,
          "internalType": "bytes32",
          "name": "newAdminRole",
          "type": "bytes32"
        }
      ],
      "name": "RoleAdminChanged",
      "type": "event"
    },
    {
      "anonymous": false,
      "inputs": [
        {
          "indexed": true,
          "internalType": "bytes32",
          "name": "role",
          "type": "bytes32"
        },
        {
          "indexed": true,
          "internalType": "address",
          "name": "account",
          "type": "address"
        },
        {
          "indexed": true,
          "internalType": "address",
          "name": "sender",
          "type": "address"
        }
      ],
      "name": "RoleGranted",
      "type": "event"
    },
    {
      "anonymous": false,
      "inputs": [
        {
          "indexed": true,
          "internalType": "bytes32",
          "name": "role",
          "type": "bytes32"
        },
        {
          "indexed": true,
          "internalType": "address",
          "name": "account",
          "type": "address"
        },
        {
          "indexed": true,
          "internalType": "address",
          "name": "sender",
          "type": "address"
        }
      ],
      "name": "RoleRevoked",
      "type": "event"
    },
    {
      "anonymous": false,
      "inputs": [
        {
          "indexed": true,
          "internalType": "address",
          "name": "_adapter",
          "type": "address"
        },
        {
          "indexed": false,
          "internalType": "uint256",
          "name": "_newEstimate",
          "type": "uint256"
        }
      ],
      "name": "UpdatedGasEstimate",
      "type": "event"
    },
    {
      "anonymous": false,
      "inputs": [
        {
          "indexed": true,
          "internalType": "address",
          "name": "_tokenFrom",
          "type": "address"
        },
        {
          "indexed": true,
          "internalType": "address",
          "name": "_tokenTo",
          "type": "address"
        },
        {
          "indexed": false,
          "internalType": "uint256",
          "name": "_amountIn",
          "type": "uint256"
        },
        {
          "indexed": false,
          "internalType": "uint256",
          "name": "_amountOut",
          "type": "uint256"
        }
      ],
      "name": "YakAdapterSwap",
      "type": "event"
    },
    {
      "inputs": [],
      "name": "COIN",
      "outputs": [
        {
          "internalType": "address",
          "name": "",
          "type": "address"
        }
      ],
      "stateMutability": "view",
      "type": "function"
    },
    {
      "inputs": [],
      "name": "DEFAULT_ADMIN_ROLE",
      "outputs": [
        {
          "internalType": "bytes32",
          "name": "",
          "type": "bytes32"
        }
      ],
      "stateMutability": "view",
      "type": "function"
    },
    {
      "inputs": [],
      "name": "MAINTAINER_ROLE",
      "outputs": [
        {
          "internalType": "bytes32",
          "name": "",
          "type": "bytes32"
        }
      ],
      "stateMutability": "view",
      "type": "function"
    },
    {
      "inputs": [],
      "name": "POOL",
      "outputs": [
        {
          "internalType": "address",
          "name": "",
          "type": "address"
        }
      ],
      "stateMutability": "view",
      "type": "function"
    },
    {
      "inputs": [
        {
          "internalType": "address",
          "name": "addedMaintainer",
          "type": "address"
        }
      ],
      "name": "addMaintainer",
      "outputs": [],
      "stateMutability": "nonpayable",
      "type": "function"
    },
    {
      "inputs": [
        {
          "internalType": "bytes32",
          "name": "role",
          "type": "bytes32"
        }
      ],
      "name": "getRoleAdmin",
      "outputs": [
        {
          "internalType": "bytes32",
          "name": "",
          "type": "bytes32"
        }
      ],
      "stateMutability": "view",
      "type": "function"
    },
    {
      "inputs": [
        {
          "internalType": "bytes32",
          "name": "role",
          "type": "bytes32"
        },
        {
          "internalType": "address",
          "name": "account",
          "type": "address"
        }
      ],
      "name": "grantRole",
      "outputs": [],
      "stateMutability": "nonpayable",
      "type": "function"
    },
    {
      "inputs": [
        {
          "internalType": "bytes32",
          "name": "role",
          "type": "bytes32"
        },
        {
          "internalType": "address",
          "name": "account",
          "type": "address"
        }
      ],
      "name": "hasRole",
      "outputs": [
        {
          "internalType": "bool",
          "name": "",
          "type": "bool"
        }
      ],
      "stateMutability": "view",
      "type": "function"
    },
    {
      "inputs": [
        {
          "internalType": "address",
          "name": "",
          "type": "address"
        }
      ],
      "name": "isPoolToken",
      "outputs": [
        {
          "internalType": "bool",
          "name": "",
          "type": "bool"
        }
      ],
      "stateMutability": "view",
      "type": "function"
    },
    {
      "inputs": [],
      "name": "name",
      "outputs": [
        {
          "internalType": "string",
          "name": "",
          "type": "string"
        }
      ],
      "stateMutability": "view",
      "type": "function"
    },
    {
      "inputs": [
        {
          "internalType": "uint256",
          "name": "_amountIn",
          "type": "uint256"
        },
        {
          "internalType": "address",
          "name": "_tokenIn",
          "type": "address"
        },
        {
          "internalType": "address",
          "name": "_tokenOut",
          "type": "address"
        }
      ],
      "name": "query",
      "outputs": [
        {
          "internalType": "uint256",
          "name": "",
          "type": "uint256"
        }
      ],
      "stateMutability": "view",
      "type": "function"
    },
    {
      "inputs": [
        {
          "internalType": "uint256",
          "name": "_amount",
          "type": "uint256"
        }
      ],
      "name": "recoverAVAX",
      "outputs": [],
      "stateMutability": "nonpayable",
      "type": "function"
    },
    {
      "inputs": [
        {
          "internalType": "address",
          "name": "_tokenAddress",
          "type": "address"
        },
        {
          "internalType": "uint256",
          "name": "_tokenAmount",
          "type": "uint256"
        }
      ],
      "name": "recoverERC20",
      "outputs": [],
      "stateMutability": "nonpayable",
      "type": "function"
    },
    {
      "inputs": [
        {
          "internalType": "address",
          "name": "removedMaintainer",
          "type": "address"
        }
      ],
      "name": "removeMaintainer",
      "outputs": [],
      "stateMutability": "nonpayable",
      "type": "function"
    },
    {
      "inputs": [
        {
          "internalType": "bytes32",
          "name": "role",
          "type": "bytes32"
        },
        {
          "internalType": "address",
          "name": "account",
          "type": "address"
        }
      ],
      "name": "renounceRole",
      "outputs": [],
      "stateMutability": "nonpayable",
      "type": "function"
    },
    {
      "inputs": [
        {
          "internalType": "bytes32",
          "name": "role",
          "type": "bytes32"
        }
      ],
      "name": "renounceRole",
      "outputs": [],
      "stateMutability": "nonpayable",
      "type": "function"
    },
    {
      "inputs": [
        {
          "internalType": "address",
          "name": "_token",
          "type": "address"
        },
        {
          "internalType": "address",
          "name": "_spender",
          "type": "address"
        }
      ],
      "name": "revokeAllowance",
      "outputs": [],
      "stateMutability": "nonpayable",
      "type": "function"
    },
    {
      "inputs": [
        {
          "internalType": "bytes32",
          "name": "role",
          "type": "bytes32"
        },
        {
          "internalType": "address",
          "name": "account",
          "type": "address"
        }
      ],
      "name": "revokeRole",
      "outputs": [],
      "stateMutability": "nonpayable",
      "type": "function"
    },
    {
      "inputs": [
        {
          "internalType": "uint256",
          "name": "_estimate",
          "type": "uint256"
        }
      ],
      "name": "setSwapGasEstimate",
      "outputs": [],
      "stateMutability": "nonpayable",
      "type": "function"
    },
    {
      "inputs": [
        {
          "internalType": "bytes4",
          "name": "interfaceId",
          "type": "bytes4"
        }
      ],
      "name": "supportsInterface",
      "outputs": [
        {
          "internalType": "bool",
          "name": "",
          "type": "bool"
        }
      ],
      "stateMutability": "view",
      "type": "function"
    },
    {
      "inputs": [
        {
          "internalType": "uint256",
          "name": "_amountIn",
          "type": "uint256"
        },
        {
          "internalType": "uint256",
          "name": "_amountOut",
          "type": "uint256"
        },
        {
          "internalType": "address",
          "name": "_fromToken",
          "type": "address"
        },
        {
          "internalType": "address",
          "name": "_toToken",
          "type": "address"
        },
        {
          "internalType": "address",
          "name": "_to",
          "type": "address"
        }
      ],
      "name": "swap",
      "outputs": [],
      "stateMutability": "nonpayable",
      "type": "function"
    },
    {
      "inputs": [],
      "name": "swapGasEstimate",
      "outputs": [
        {
          "internalType": "uint256",
          "name": "",
          "type": "uint256"
        }
      ],
      "stateMutability": "view",
      "type": "function"
    },
    {
      "inputs": [
        {
          "internalType": "address",
          "name": "",
          "type": "address"
        }
      ],
      "name": "tokenIndex",
      "outputs": [
        {
          "internalType": "int128",
          "name": "",
          "type": "int128"
        }
      ],
      "stateMutability": "view",
      "type": "function"
    },
    {
      "inputs": [
        {
          "internalType": "address",
          "name": "newOwner",
          "type": "address"
        }
      ],
      "name": "transferOwnership",
      "outputs": [],
      "stateMutability": "nonpayable",
      "type": "function"
    },
    {
      "stateMutability": "payable",
      "type": "receive"
    }
  ],
  "bytecode": {
    "object": "0x60c06040523480156200001157600080fd5b506040516200235238038062002352833981016040819052620000349162000751565b82813362000044600082620000a6565b6200005f6000805160206200233283398151915282620000a6565b506200006b82620000b6565b62000076816200011b565b50506001600160a01b038216608052620000908262000226565b6001600160a01b031660a0525062000a5e915050565b620000b2828262000347565b5050565b80516000036200010d5760405162461bcd60e51b815260206004820152601460248201527f496e76616c69642061646170746572206e616d6500000000000000000000000060448201526064015b60405180910390fd5b6002620000b28282620008af565b33620001376000805160206200233283398151915282620003cf565b620001965760405162461bcd60e51b815260206004820152602860248201527f4d61696e7461696e61626c653a2043616c6c6572206973206e6f742061206d6160448201526734b73a30b4b732b960c11b606482015260840162000104565b81600003620001e85760405162461bcd60e51b815260206004820152601460248201527f496e76616c6964206761732d657374696d617465000000000000000000000000604482015260640162000104565b600182905560405182815230907ff43f23b7a28e6f8ce6843a21bd7b48bce778aa913b8c8cf459edf7d770e8d38a9060200160405180910390a25050565b60405163c661065760e01b8152600060048201819052906001600160a01b0383169063c661065790602401602060405180830381865afa1580156200026f573d6000803e3d6000fd5b505050506040513d601f19601f820116820180604052508101906200029591906200097b565b9050620002a582826000620003fa565b60005b6040516387cb4f5760e01b8152600481018290526001600160a01b038416906387cb4f5790602401602060405180830381865afa9250505080156200030c575060408051601f3d908101601f1916820190925262000309918101906200097b565b60015b1562000341576200032b848262000325856001620009b6565b620003fa565b50806200033881620009e6565b915050620002a8565b50919050565b620003538282620003cf565b620000b2576000828152602081815260408083206001600160a01b03851684529091529020805460ff191660011790556200038b3390565b6001600160a01b0316816001600160a01b0316837f2f8788117e7eff1d82e926ec794901d17c78024a50270940304540a733656f0d60405160405180910390a45050565b6000828152602081815260408083206001600160a01b038516845290915290205460ff165b92915050565b6200042183600019846001600160a01b03166200046f60201b62000b91179092919060201c565b6001600160a01b0391909116600090815260036020908152604080832080546001600160801b0319166001600160801b03909516949094179093556004905220805460ff1916600117905550565b801580620004ed5750604051636eb1769f60e11b81523060048201526001600160a01b03838116602483015284169063dd62ed3e90604401602060405180830381865afa158015620004c5573d6000803e3d6000fd5b505050506040513d601f19601f82011682018060405250810190620004eb919062000a02565b155b620005615760405162461bcd60e51b815260206004820152603660248201527f5361666545524332303a20617070726f76652066726f6d206e6f6e2d7a65726f60448201527f20746f206e6f6e2d7a65726f20616c6c6f77616e636500000000000000000000606482015260840162000104565b604080516001600160a01b038416602482015260448082018490528251808303909101815260649091019091526020810180516001600160e01b0390811663095ea7b360e01b17909152620005b9918591620005be16565b505050565b600080836001600160a01b031683604051620005db919062000a1c565b6000604051808303816000865af19150503d80600081146200061a576040519150601f19603f3d011682016040523d82523d6000602084013e6200061f565b606091505b509150915081620006735760405162461bcd60e51b815260206004820181905260248201527f5361666545524332303a206c6f772d6c6576656c2063616c6c206661696c6564604482015260640162000104565b805115620006f2578080602001905181019062000691919062000a3a565b620006f25760405162461bcd60e51b815260206004820152602a60248201527f5361666545524332303a204552433230206f7065726174696f6e20646964206e6044820152691bdd081cdd58d8d9595960b21b606482015260840162000104565b50505050565b634e487b7160e01b600052604160045260246000fd5b60005b838110156200072b57818101518382015260200162000711565b50506000910152565b80516001600160a01b03811681146200074c57600080fd5b919050565b6000806000606084860312156200076757600080fd5b83516001600160401b03808211156200077f57600080fd5b818601915086601f8301126200079457600080fd5b815181811115620007a957620007a9620006f8565b604051601f8201601f19908116603f01168101908382118183101715620007d457620007d4620006f8565b81604052828152896020848701011115620007ee57600080fd5b620008018360208301602088016200070e565b8097505050505050620008176020850162000734565b9150604084015190509250925092565b600181811c908216806200083c57607f821691505b6020821081036200034157634e487b7160e01b600052602260045260246000fd5b601f821115620005b957600081815260208120601f850160051c81016020861015620008865750805b601f850160051c820191505b81811015620008a75782815560010162000892565b505050505050565b81516001600160401b03811115620008cb57620008cb620006f8565b620008e381620008dc845462000827565b846200085d565b602080601f8311600181146200091b5760008415620009025750858301515b600019600386901b1c1916600185901b178555620008a7565b600085815260208120601f198616915b828110156200094c578886015182559484019460019091019084016200092b565b50858210156200096b5787850151600019600388901b60f8161c191681555b5050505050600190811b01905550565b6000602082840312156200098e57600080fd5b620009998262000734565b9392505050565b634e487b7160e01b600052601160045260246000fd5b600f81810b9083900b0160016001607f1b03811360016001607f1b031982121715620003f457620003f4620009a0565b600060018201620009fb57620009fb620009a0565b5060010190565b60006020828403121562000a1557600080fd5b5051919050565b6000825162000a308184602087016200070e565b9190910192915050565b60006020828403121562000a4d57600080fd5b815180151581146200099957600080fd5b60805160a05161189262000aa0600039600081816103de01528181610f4f0152610fae0152600081816102dd01528181610e4e015261105f01526118926000f3fe60806040526004361061014f5760003560e01c80638980f11f116100b6578063d8baf7cf1161006f578063d8baf7cf14610420578063de260f3714610440578063eab90da614610470578063ef99893a14610490578063f2fde38b146104b0578063f8742254146104d057600080fd5b80638980f11f146103575780638bb9c5bf1461037757806391d1485414610397578063a217fddf146103b7578063a54a72b7146103cc578063d547741f1461040057600080fd5b80634ebb7916116101085780634ebb79161461027557806369cff80d146102955780636b453c1f146102ab5780637535d246146102cb5780637ae267731461031757806384a33e631461033757600080fd5b806301ffc9a71461015b57806306fdde0314610190578063248a9ca3146101b25780632f2ff15d146101f057806336568abe14610212578063427f91a61461023257600080fd5b3661015657005b600080fd5b34801561016757600080fd5b5061017b610176366004611452565b6104f2565b60405190151581526020015b60405180910390f35b34801561019c57600080fd5b506101a5610529565b60405161018791906114a0565b3480156101be57600080fd5b506101e26101cd3660046114d3565b60009081526020819052604090206001015490565b604051908152602001610187565b3480156101fc57600080fd5b5061021061020b366004611508565b6105b7565b005b34801561021e57600080fd5b5061021061022d366004611508565b6105e1565b34801561023e57600080fd5b5061026261024d366004611534565b600360205260009081526040902054600f0b81565b604051600f9190910b8152602001610187565b34801561028157600080fd5b506102106102903660046114d3565b610664565b3480156102a157600080fd5b506101e260015481565b3480156102b757600080fd5b506102106102c6366004611534565b610752565b3480156102d757600080fd5b506102ff7f000000000000000000000000000000000000000000000000000000000000000081565b6040516001600160a01b039091168152602001610187565b34801561032357600080fd5b5061021061033236600461154f565b61076d565b34801561034357600080fd5b506102106103523660046114d3565b6107b7565b34801561036357600080fd5b50610210610372366004611579565b61086a565b34801561038357600080fd5b506102106103923660046114d3565b61094b565b3480156103a357600080fd5b5061017b6103b2366004611508565b610956565b3480156103c357600080fd5b506101e2600081565b3480156103d857600080fd5b506102ff7f000000000000000000000000000000000000000000000000000000000000000081565b34801561040c57600080fd5b5061021061041b366004611508565b61097f565b34801561042c57600080fd5b5061021061043b366004611534565b6109a4565b34801561044c57600080fd5b5061017b61045b366004611534565b60046020526000908152604090205460ff1681565b34801561047c57600080fd5b5061021061048b3660046115a3565b6109bc565b34801561049c57600080fd5b506101e26104ab3660046115fa565b610b63565b3480156104bc57600080fd5b506102106104cb366004611534565b610b7a565b3480156104dc57600080fd5b506101e260008051602061183d83398151915281565b60006001600160e01b03198216637965db0b60e01b148061052357506301ffc9a760e01b6001600160e01b03198316145b92915050565b6002805461053690611636565b80601f016020809104026020016040519081016040528092919081815260200182805461056290611636565b80156105af5780601f10610584576101008083540402835291602001916105af565b820191906000526020600020905b81548152906001019060200180831161059257829003601f168201915b505050505081565b6000828152602081905260409020600101546105d281610cd9565b6105dc8383610ce3565b505050565b6001600160a01b03811633146106565760405162461bcd60e51b815260206004820152602f60248201527f416363657373436f6e74726f6c3a2063616e206f6e6c792072656e6f756e636560448201526e103937b632b9903337b91039b2b63360891b60648201526084015b60405180910390fd5b6106608282610d67565b5050565b3361067d60008051602061183d83398151915282610956565b6106995760405162461bcd60e51b815260040161064d90611670565b600082116106e95760405162461bcd60e51b815260206004820152601e60248201527f59616b416461707465723a204e6f7468696e6720746f207265636f7665720000604482015260640161064d565b604051339083156108fc029084906000818181858888f19350505050158015610716573d6000803e3d6000fd5b506040518281526000907f8c1256b8896378cd5044f80c202f9772b9d77dc85c8a6eb51967210b09bfaa28906020015b60405180910390a25050565b61076a60008051602061183d833981519152826105b7565b50565b3361078660008051602061183d83398151915282610956565b6107a25760405162461bcd60e51b815260040161064d90611670565b6105dc6001600160a01b038416836000610b91565b336107d060008051602061183d83398151915282610956565b6107ec5760405162461bcd60e51b815260040161064d90611670565b816000036108335760405162461bcd60e51b8152602060048201526014602482015273496e76616c6964206761732d657374696d61746560601b604482015260640161064d565b600182905560405182815230907ff43f23b7a28e6f8ce6843a21bd7b48bce778aa913b8c8cf459edf7d770e8d38a90602001610746565b3361088360008051602061183d83398151915282610956565b61089f5760405162461bcd60e51b815260040161064d90611670565b600082116108ef5760405162461bcd60e51b815260206004820152601e60248201527f59616b416461707465723a204e6f7468696e6720746f207265636f7665720000604482015260640161064d565b6109036001600160a01b0384163384610dcc565b826001600160a01b03167f8c1256b8896378cd5044f80c202f9772b9d77dc85c8a6eb51967210b09bfaa288360405161093e91815260200190565b60405180910390a2505050565b3361066082826105e1565b6000918252602082815260408084206001600160a01b0393909316845291905290205460ff1690565b60008281526020819052604090206001015461099a81610cd9565b6105dc8383610d67565b61076a60008051602061183d8339815191528261097f565b6040516370a0823160e01b81526001600160a01b038281166004830152600091908416906370a0823190602401602060405180830381865afa158015610a06573d6000803e3d6000fd5b505050506040513d601f19601f82011682018060405250810190610a2a91906116b8565b9050610a398686868686610dfc565b6040516370a0823160e01b81526001600160a01b03838116600483015260009183918616906370a0823190602401602060405180830381865afa158015610a84573d6000803e3d6000fd5b505050506040513d601f19601f82011682018060405250810190610aa891906116b8565b610ab291906116e7565b905085811015610b045760405162461bcd60e51b815260206004820152601760248201527f496e73756666696369656e7420616d6f756e742d6f7574000000000000000000604482015260640161064d565b836001600160a01b0316856001600160a01b03167fe2bdbc6b7225eb0a972ac943c485a6cc05f7c6811838bce8903f23200fb744fa8989604051610b52929190918252602082015260400190565b60405180910390a350505050505050565b6000610b70848484610f27565b90505b9392505050565b33610b866000836105b7565b6106606000826105e1565b801580610c0b5750604051636eb1769f60e11b81523060048201526001600160a01b03838116602483015284169063dd62ed3e90604401602060405180830381865afa158015610be5573d6000803e3d6000fd5b505050506040513d601f19601f82011682018060405250810190610c0991906116b8565b155b610c765760405162461bcd60e51b815260206004820152603660248201527f5361666545524332303a20617070726f76652066726f6d206e6f6e2d7a65726f60448201527520746f206e6f6e2d7a65726f20616c6c6f77616e636560501b606482015260840161064d565b6040516001600160a01b0383166024820152604481018290526105dc90849063095ea7b360e01b906064015b60408051601f198184030181529190526020810180516001600160e01b03166001600160e01b0319909316929092179091526110ff565b61076a813361122e565b610ced8282610956565b610660576000828152602081815260408083206001600160a01b03851684529091529020805460ff19166001179055610d233390565b6001600160a01b0316816001600160a01b0316837f2f8788117e7eff1d82e926ec794901d17c78024a50270940304540a733656f0d60405160405180910390a45050565b610d718282610956565b15610660576000828152602081815260408083206001600160a01b0385168085529252808320805460ff1916905551339285917ff6391f5c32d9c69d2a47ea670b442974b53935d1edc7fd64eb21e047a839171b9190a45050565b6040516001600160a01b0383166024820152604481018290526105dc90849063a9059cbb60e01b90606401610ca2565b6001600160a01b0383811660009081526003602052604080822054858416835291819020549051635320bf6b60e11b8152600f92830b6004820152910b602482015260448101879052606481018690527f00000000000000000000000000000000000000000000000000000000000000009091169063a6417ed690608401600060405180830381600087803b158015610e9457600080fd5b505af1158015610ea8573d6000803e3d6000fd5b50506040516370a0823160e01b8152306004820152610f2092508491506001600160a01b038216906370a0823190602401602060405180830381865afa158015610ef6573d6000803e3d6000fd5b505050506040513d601f19601f82011682018060405250810190610f1a91906116b8565b83611292565b5050505050565b6000831580610f475750816001600160a01b0316836001600160a01b0316145b8061100757507f00000000000000000000000000000000000000000000000000000000000000006001600160a01b0316836001600160a01b0316148015610fa657506001600160a01b03821660009081526004602052604090205460ff165b8061100557507f00000000000000000000000000000000000000000000000000000000000000006001600160a01b0316826001600160a01b031614801561100557506001600160a01b03831660009081526004602052604090205460ff165b155b1561101457506000610b73565b6001600160a01b03838116600090815260036020526040808220548584168352918190205490516307211ef760e01b8152600f92830b6004820152910b6024820152604481018690527f0000000000000000000000000000000000000000000000000000000000000000909116906307211ef790606401602060405180830381865afa9250505080156110c4575060408051601f3d908101601f191682019092526110c1918101906116b8565b60015b6110d057506000610b73565b80156110f4576127106110e58261270f6116fa565b6110ef9190611711565b6110f7565b60005b915050610b73565b600080836001600160a01b03168360405161111a9190611733565b6000604051808303816000865af19150503d8060008114611157576040519150601f19603f3d011682016040523d82523d6000602084013e61115c565b606091505b5091509150816111ae5760405162461bcd60e51b815260206004820181905260248201527f5361666545524332303a206c6f772d6c6576656c2063616c6c206661696c6564604482015260640161064d565b80511561122857808060200190518101906111c9919061174f565b6112285760405162461bcd60e51b815260206004820152602a60248201527f5361666545524332303a204552433230206f7065726174696f6e20646964206e6044820152691bdd081cdd58d8d9595960b21b606482015260840161064d565b50505050565b6112388282610956565b61066057611250816001600160a01b031660146112b6565b61125b8360206112b6565b60405160200161126c929190611771565b60408051601f198184030181529082905262461bcd60e51b825261064d916004016114a0565b306001600160a01b038216146105dc576105dc6001600160a01b0384168284610dcc565b606060006112c58360026116fa565b6112d09060026117e6565b67ffffffffffffffff8111156112e8576112e86117f9565b6040519080825280601f01601f191660200182016040528015611312576020820181803683370190505b509050600360fc1b8160008151811061132d5761132d61180f565b60200101906001600160f81b031916908160001a905350600f60fb1b8160018151811061135c5761135c61180f565b60200101906001600160f81b031916908160001a90535060006113808460026116fa565b61138b9060016117e6565b90505b6001811115611403576f181899199a1a9b1b9c1cb0b131b232b360811b85600f16601081106113bf576113bf61180f565b1a60f81b8282815181106113d5576113d561180f565b60200101906001600160f81b031916908160001a90535060049490941c936113fc81611825565b905061138e565b508315610b735760405162461bcd60e51b815260206004820181905260248201527f537472696e67733a20686578206c656e67746820696e73756666696369656e74604482015260640161064d565b60006020828403121561146457600080fd5b81356001600160e01b031981168114610b7357600080fd5b60005b8381101561149757818101518382015260200161147f565b50506000910152565b60208152600082518060208401526114bf81604085016020870161147c565b601f01601f19169190910160400192915050565b6000602082840312156114e557600080fd5b5035919050565b80356001600160a01b038116811461150357600080fd5b919050565b6000806040838503121561151b57600080fd5b8235915061152b602084016114ec565b90509250929050565b60006020828403121561154657600080fd5b610b73826114ec565b6000806040838503121561156257600080fd5b61156b836114ec565b915061152b602084016114ec565b6000806040838503121561158c57600080fd5b611595836114ec565b946020939093013593505050565b600080600080600060a086880312156115bb57600080fd5b85359450602086013593506115d2604087016114ec565b92506115e0606087016114ec565b91506115ee608087016114ec565b90509295509295909350565b60008060006060848603121561160f57600080fd5b8335925061161f602085016114ec565b915061162d604085016114ec565b90509250925092565b600181811c9082168061164a57607f821691505b60208210810361166a57634e487b7160e01b600052602260045260246000fd5b50919050565b60208082526028908201527f4d61696e7461696e61626c653a2043616c6c6572206973206e6f742061206d6160408201526734b73a30b4b732b960c11b606082015260800190565b6000602082840312156116ca57600080fd5b5051919050565b634e487b7160e01b600052601160045260246000fd5b81810381811115610523576105236116d1565b8082028115828204841417610523576105236116d1565b60008261172e57634e487b7160e01b600052601260045260246000fd5b500490565b6000825161174581846020870161147c565b9190910192915050565b60006020828403121561176157600080fd5b81518015158114610b7357600080fd5b7f416363657373436f6e74726f6c3a206163636f756e74200000000000000000008152600083516117a981601785016020880161147c565b7001034b99036b4b9b9b4b733903937b6329607d1b60179184019182015283516117da81602884016020880161147c565b01602801949350505050565b80820180821115610523576105236116d1565b634e487b7160e01b600052604160045260246000fd5b634e487b7160e01b600052603260045260246000fd5b600081611834576118346116d1565b50600019019056fe339759585899103d2ace64958e37e18ccb0504652c81d4a1b8aa80fe2126ab95a26469706673582212201f2fb2d16566a746a57d869a2eb8bf9f1455998f6d3937d195194dda00171bb564736f6c63430008110033339759585899103d2ace64958e37e18ccb0504652c81d4a1b8aa80fe2126ab95",
    "linkReferences": {}
  },
  "methodIdentifiers": {
    "COIN()": "a54a72b7",
    "DEFAULT_ADMIN_ROLE()": "a217fddf",
    "MAINTAINER_ROLE()": "f8742254",
    "POOL()": "7535d246",
    "addMaintainer(address)": "6b453c1f",
    "getRoleAdmin(bytes32)": "248a9ca3",
    "grantRole(bytes32,address)": "2f2ff15d",
    "hasRole(bytes32,address)": "91d14854",
    "isPoolToken(address)": "de260f37",
    "name()": "06fdde03",
    "query(uint256,address,address)": "ef99893a",
    "recoverAVAX(uint256)": "4ebb7916",
    "recoverERC20(address,uint256)": "8980f11f",
    "removeMaintainer(address)": "d8baf7cf",
    "renounceRole(bytes32)": "8bb9c5bf",
    "renounceRole(bytes32,address)": "36568abe",
    "revokeAllowance(address,address)": "7ae26773",
    "revokeRole(bytes32,address)": "d547741f",
    "setSwapGasEstimate(uint256)": "84a33e63",
    "supportsInterface(bytes4)": "01ffc9a7",
    "swap(uint256,uint256,address,address,address)": "eab90da6",
    "swapGasEstimate()": "69cff80d",
    "tokenIndex(address)": "427f91a6",
    "transferOwnership(address)": "f2fde38b"
  },
  "id": 18
}