{
  "abi": [
    {
      "inputs": [
        {
          "internalType": "uint256",
          "name": "_swapGasEstimate",
          "type": "uint256"
        }
      ],
      "stateMutability": "nonpayable",
      "type": "constructor"
    },
    {
      "anonymous": false,
      "inputs": [
        {
          "indexed": true,
          "internalType": "address",
          "name": "_asset",
          "type": "address"
        },
        {
          "indexed": false,
          "internalType": "uint256",
          "name": "amount",
          "type": "uint256"
        }
      ],
      "name": "Recovered",
      "type": "event"
    },
    {
      "anonymous": false,
      "inputs": [
        {
          "indexed": true,
          "internalType": "bytes32",
          "name": "role",
          "type": "bytes32"
        },
        {
          "indexed": true,
          "internalType": "bytes32",
          "name": "previousAdminRole",
          "type": "bytes32"
        },
        {
          "indexed": true,
          "internalType": "bytes32",
          "name": "newAdminRole",
          "type": "bytes32"
        }
      ],
      "name": "RoleAdminChanged",
      "type": "event"
    },
    {
      "anonymous": false,
      "inputs": [
        {
          "indexed": true,
          "internalType": "bytes32",
          "name": "role",
          "type": "bytes32"
        },
        {
          "indexed": true,
          "internalType": "address",
          "name": "account",
          "type": "address"
        },
        {
          "indexed": true,
          "internalType": "address",
          "name": "sender",
          "type": "address"
        }
      ],
      "name": "RoleGranted",
      "type": "event"
    },
    {
      "anonymous": false,
      "inputs": [
        {
          "indexed": true,
          "internalType": "bytes32",
          "name": "role",
          "type": "bytes32"
        },
        {
          "indexed": true,
          "internalType": "address",
          "name": "account",
          "type": "address"
        },
        {
          "indexed": true,
          "internalType": "address",
          "name": "sender",
          "type": "address"
        }
      ],
      "name": "RoleRevoked",
      "type": "event"
    },
    {
      "anonymous": false,
      "inputs": [
        {
          "indexed": true,
          "internalType": "address",
          "name": "_adapter",
          "type": "address"
        },
        {
          "indexed": false,
          "internalType": "uint256",
          "name": "_newEstimate",
          "type": "uint256"
        }
      ],
      "name": "UpdatedGasEstimate",
      "type": "event"
    },
    {
      "anonymous": false,
      "inputs": [
        {
          "indexed": true,
          "internalType": "address",
          "name": "_tokenFrom",
          "type": "address"
        },
        {
          "indexed": true,
          "internalType": "address",
          "name": "_tokenTo",
          "type": "address"
        },
        {
          "indexed": false,
          "internalType": "uint256",
          "name": "_amountIn",
          "type": "uint256"
        },
        {
          "indexed": false,
          "internalType": "uint256",
          "name": "_amountOut",
          "type": "uint256"
        }
      ],
      "name": "YakAdapterSwap",
      "type": "event"
    },
    {
      "inputs": [],
      "name": "DEFAULT_ADMIN_ROLE",
      "outputs": [
        {
          "internalType": "bytes32",
          "name": "",
          "type": "bytes32"
        }
      ],
      "stateMutability": "view",
      "type": "function"
    },
    {
      "inputs": [],
      "name": "MAINTAINER_ROLE",
      "outputs": [
        {
          "internalType": "bytes32",
          "name": "",
          "type": "bytes32"
        }
      ],
      "stateMutability": "view",
      "type": "function"
    },
    {
      "inputs": [],
      "name": "SAVAX",
      "outputs": [
        {
          "internalType": "address",
          "name": "",
          "type": "address"
        }
      ],
      "stateMutability": "view",
      "type": "function"
    },
    {
      "inputs": [],
      "name": "WAVAX",
      "outputs": [
        {
          "internalType": "address",
          "name": "",
          "type": "address"
        }
      ],
      "stateMutability": "view",
      "type": "function"
    },
    {
      "inputs": [
        {
          "internalType": "address",
          "name": "addedMaintainer",
          "type": "address"
        }
      ],
      "name": "addMaintainer",
      "outputs": [],
      "stateMutability": "nonpayable",
      "type": "function"
    },
    {
      "inputs": [
        {
          "internalType": "bytes32",
          "name": "role",
          "type": "bytes32"
        }
      ],
      "name": "getRoleAdmin",
      "outputs": [
        {
          "internalType": "bytes32",
          "name": "",
          "type": "bytes32"
        }
      ],
      "stateMutability": "view",
      "type": "function"
    },
    {
      "inputs": [
        {
          "internalType": "bytes32",
          "name": "role",
          "type": "bytes32"
        },
        {
          "internalType": "address",
          "name": "account",
          "type": "address"
        }
      ],
      "name": "grantRole",
      "outputs": [],
      "stateMutability": "nonpayable",
      "type": "function"
    },
    {
      "inputs": [
        {
          "internalType": "bytes32",
          "name": "role",
          "type": "bytes32"
        },
        {
          "internalType": "address",
          "name": "account",
          "type": "address"
        }
      ],
      "name": "hasRole",
      "outputs": [
        {
          "internalType": "bool",
          "name": "",
          "type": "bool"
        }
      ],
      "stateMutability": "view",
      "type": "function"
    },
    {
      "inputs": [],
      "name": "name",
      "outputs": [
        {
          "internalType": "string",
          "name": "",
          "type": "string"
        }
      ],
      "stateMutability": "view",
      "type": "function"
    },
    {
      "inputs": [
        {
          "internalType": "uint256",
          "name": "_amountIn",
          "type": "uint256"
        },
        {
          "internalType": "address",
          "name": "_tokenIn",
          "type": "address"
        },
        {
          "internalType": "address",
          "name": "_tokenOut",
          "type": "address"
        }
      ],
      "name": "query",
      "outputs": [
        {
          "internalType": "uint256",
          "name": "",
          "type": "uint256"
        }
      ],
      "stateMutability": "view",
      "type": "function"
    },
    {
      "inputs": [
        {
          "internalType": "uint256",
          "name": "_amount",
          "type": "uint256"
        }
      ],
      "name": "recoverAVAX",
      "outputs": [],
      "stateMutability": "nonpayable",
      "type": "function"
    },
    {
      "inputs": [
        {
          "internalType": "address",
          "name": "_tokenAddress",
          "type": "address"
        },
        {
          "internalType": "uint256",
          "name": "_tokenAmount",
          "type": "uint256"
        }
      ],
      "name": "recoverERC20",
      "outputs": [],
      "stateMutability": "nonpayable",
      "type": "function"
    },
    {
      "inputs": [
        {
          "internalType": "address",
          "name": "removedMaintainer",
          "type": "address"
        }
      ],
      "name": "removeMaintainer",
      "outputs": [],
      "stateMutability": "nonpayable",
      "type": "function"
    },
    {
      "inputs": [
        {
          "internalType": "bytes32",
          "name": "role",
          "type": "bytes32"
        },
        {
          "internalType": "address",
          "name": "account",
          "type": "address"
        }
      ],
      "name": "renounceRole",
      "outputs": [],
      "stateMutability": "nonpayable",
      "type": "function"
    },
    {
      "inputs": [
        {
          "internalType": "bytes32",
          "name": "role",
          "type": "bytes32"
        }
      ],
      "name": "renounceRole",
      "outputs": [],
      "stateMutability": "nonpayable",
      "type": "function"
    },
    {
      "inputs": [
        {
          "internalType": "address",
          "name": "_token",
          "type": "address"
        },
        {
          "internalType": "address",
          "name": "_spender",
          "type": "address"
        }
      ],
      "name": "revokeAllowance",
      "outputs": [],
      "stateMutability": "nonpayable",
      "type": "function"
    },
    {
      "inputs": [
        {
          "internalType": "bytes32",
          "name": "role",
          "type": "bytes32"
        },
        {
          "internalType": "address",
          "name": "account",
          "type": "address"
        }
      ],
      "name": "revokeRole",
      "outputs": [],
      "stateMutability": "nonpayable",
      "type": "function"
    },
    {
      "inputs": [
        {
          "internalType": "uint256",
          "name": "_estimate",
          "type": "uint256"
        }
      ],
      "name": "setSwapGasEstimate",
      "outputs": [],
      "stateMutability": "nonpayable",
      "type": "function"
    },
    {
      "inputs": [
        {
          "internalType": "bytes4",
          "name": "interfaceId",
          "type": "bytes4"
        }
      ],
      "name": "supportsInterface",
      "outputs": [
        {
          "internalType": "bool",
          "name": "",
          "type": "bool"
        }
      ],
      "stateMutability": "view",
      "type": "function"
    },
    {
      "inputs": [
        {
          "internalType": "uint256",
          "name": "_amountIn",
          "type": "uint256"
        },
        {
          "internalType": "uint256",
          "name": "_amountOut",
          "type": "uint256"
        },
        {
          "internalType": "address",
          "name": "_fromToken",
          "type": "address"
        },
        {
          "internalType": "address",
          "name": "_toToken",
          "type": "address"
        },
        {
          "internalType": "address",
          "name": "_to",
          "type": "address"
        }
      ],
      "name": "swap",
      "outputs": [],
      "stateMutability": "nonpayable",
      "type": "function"
    },
    {
      "inputs": [],
      "name": "swapGasEstimate",
      "outputs": [
        {
          "internalType": "uint256",
          "name": "",
          "type": "uint256"
        }
      ],
      "stateMutability": "view",
      "type": "function"
    },
    {
      "inputs": [
        {
          "internalType": "address",
          "name": "newOwner",
          "type": "address"
        }
      ],
      "name": "transferOwnership",
      "outputs": [],
      "stateMutability": "nonpayable",
      "type": "function"
    },
    {
      "stateMutability": "payable",
      "type": "receive"
    }
  ],
  "bytecode": {
    "object": "0x60806040523480156200001157600080fd5b506040516200200b3803806200200b8339810160408190526200003491620005ad565b60408051808201909152600c81526b29a0bb30bc20b230b83a32b960a11b6020820152813362000066600082620000bd565b620000927f339759585899103d2ace64958e37e18ccb0504652c81d4a1b8aa80fe2126ab9582620000bd565b506200009e82620000cd565b620000a98162000132565b50620000b6905062000253565b5062000793565b620000c9828262000284565b5050565b8051600003620001245760405162461bcd60e51b815260206004820152601460248201527f496e76616c69642061646170746572206e616d6500000000000000000000000060448201526064015b60405180910390fd5b6002620000c982826200066b565b3360008181527fa54247010af6b3693b80aceddfad12e077c5de3571e6243fada502635f0d7d39602052604090205460ff16620001c35760405162461bcd60e51b815260206004820152602860248201527f4d61696e7461696e61626c653a2043616c6c6572206973206e6f742061206d6160448201526734b73a30b4b732b960c11b60648201526084016200011b565b81600003620002155760405162461bcd60e51b815260206004820152601460248201527f496e76616c6964206761732d657374696d61746500000000000000000000000060448201526064016200011b565b600182905560405182815230907ff43f23b7a28e6f8ce6843a21bd7b48bce778aa913b8c8cf459edf7d770e8d38a9060200160405180910390a25050565b6200028273b31f66aa3c1e785363f0875a1b74e27b85fd66c78060001962000324602090811b62000af017901c565b565b6000828152602081815260408083206001600160a01b038516845290915290205460ff16620000c9576000828152602081815260408083206001600160a01b03851684529091529020805460ff19166001179055620002e03390565b6001600160a01b0316816001600160a01b0316837f2f8788117e7eff1d82e926ec794901d17c78024a50270940304540a733656f0d60405160405180910390a45050565b801580620003a25750604051636eb1769f60e11b81523060048201526001600160a01b03838116602483015284169063dd62ed3e90604401602060405180830381865afa1580156200037a573d6000803e3d6000fd5b505050506040513d601f19601f82011682018060405250810190620003a09190620005ad565b155b620004165760405162461bcd60e51b815260206004820152603660248201527f5361666545524332303a20617070726f76652066726f6d206e6f6e2d7a65726f60448201527f20746f206e6f6e2d7a65726f20616c6c6f77616e63650000000000000000000060648201526084016200011b565b604080516001600160a01b038416602482015260448082018490528251808303909101815260649091019091526020810180516001600160e01b0390811663095ea7b360e01b179091526200046e9185916200047316565b505050565b600080836001600160a01b03168360405162000490919062000737565b6000604051808303816000865af19150503d8060008114620004cf576040519150601f19603f3d011682016040523d82523d6000602084013e620004d4565b606091505b509150915081620005285760405162461bcd60e51b815260206004820181905260248201527f5361666545524332303a206c6f772d6c6576656c2063616c6c206661696c656460448201526064016200011b565b805115620005a7578080602001905181019062000546919062000768565b620005a75760405162461bcd60e51b815260206004820152602a60248201527f5361666545524332303a204552433230206f7065726174696f6e20646964206e6044820152691bdd081cdd58d8d9595960b21b60648201526084016200011b565b50505050565b600060208284031215620005c057600080fd5b5051919050565b634e487b7160e01b600052604160045260246000fd5b600181811c90821680620005f257607f821691505b6020821081036200061357634e487b7160e01b600052602260045260246000fd5b50919050565b601f8211156200046e57600081815260208120601f850160051c81016020861015620006425750805b601f850160051c820191505b8181101562000663578281556001016200064e565b505050505050565b81516001600160401b03811115620006875762000687620005c7565b6200069f81620006988454620005dd565b8462000619565b602080601f831160018114620006d75760008415620006be5750858301515b600019600386901b1c1916600185901b17855562000663565b600085815260208120601f198616915b828110156200070857888601518255948401946001909101908401620006e7565b5085821015620007275787850151600019600388901b60f8161c191681555b5050505050600190811b01905550565b6000825160005b818110156200075a57602081860181015185830152016200073e565b506000920191825250919050565b6000602082840312156200077b57600080fd5b815180151581146200078c57600080fd5b9392505050565b61186880620007a36000396000f3fe6080604052600436106101395760003560e01c806384a33e63116100ab578063d547741f1161006f578063d547741f1461038f578063d8baf7cf146103af578063eab90da6146103cf578063ef99893a146103ef578063f2fde38b1461040f578063f87422541461042f57600080fd5b806384a33e63146102fa5780638980f11f1461031a5780638bb9c5bf1461033a57806391d148541461035a578063a217fddf1461037a57600080fd5b806336568abe116100fd57806336568abe1461023c5780634ebb79161461025c57806369cff80d1461027c5780636b453c1f1461029257806373b295c2146102b25780637ae26773146102da57600080fd5b806301ffc9a71461014557806306fdde031461017a57806317a2f6c91461019c578063248a9ca3146101dc5780632f2ff15d1461021a57600080fd5b3661014057005b600080fd5b34801561015157600080fd5b5061016561016036600461144a565b610451565b60405190151581526020015b60405180910390f35b34801561018657600080fd5b5061018f610488565b6040516101719190611498565b3480156101a857600080fd5b506101c4732b2c81e08f1af8835a78bb2a90ae924ace0ea4be81565b6040516001600160a01b039091168152602001610171565b3480156101e857600080fd5b5061020c6101f73660046114cb565b60009081526020819052604090206001015490565b604051908152602001610171565b34801561022657600080fd5b5061023a610235366004611500565b610516565b005b34801561024857600080fd5b5061023a610257366004611500565b610540565b34801561026857600080fd5b5061023a6102773660046114cb565b6105c3565b34801561028857600080fd5b5061020c60015481565b34801561029e57600080fd5b5061023a6102ad36600461152c565b6106b1565b3480156102be57600080fd5b506101c473b31f66aa3c1e785363f0875a1b74e27b85fd66c781565b3480156102e657600080fd5b5061023a6102f5366004611547565b6106cc565b34801561030657600080fd5b5061023a6103153660046114cb565b610716565b34801561032657600080fd5b5061023a610335366004611571565b6107c9565b34801561034657600080fd5b5061023a6103553660046114cb565b6108aa565b34801561036657600080fd5b50610165610375366004611500565b6108b5565b34801561038657600080fd5b5061020c600081565b34801561039b57600080fd5b5061023a6103aa366004611500565b6108de565b3480156103bb57600080fd5b5061023a6103ca36600461152c565b610903565b3480156103db57600080fd5b5061023a6103ea36600461159b565b61091b565b3480156103fb57600080fd5b5061020c61040a3660046115f2565b610ac2565b34801561041b57600080fd5b5061023a61042a36600461152c565b610ad9565b34801561043b57600080fd5b5061020c60008051602061181383398151915281565b60006001600160e01b03198216637965db0b60e01b148061048257506301ffc9a760e01b6001600160e01b03198316145b92915050565b600280546104959061162e565b80601f01602080910402602001604051908101604052809291908181526020018280546104c19061162e565b801561050e5780601f106104e35761010080835404028352916020019161050e565b820191906000526020600020905b8154815290600101906020018083116104f157829003601f168201915b505050505081565b60008281526020819052604090206001015461053181610c38565b61053b8383610c42565b505050565b6001600160a01b03811633146105b55760405162461bcd60e51b815260206004820152602f60248201527f416363657373436f6e74726f6c3a2063616e206f6e6c792072656e6f756e636560448201526e103937b632b9903337b91039b2b63360891b60648201526084015b60405180910390fd5b6105bf8282610cc6565b5050565b336105dc600080516020611813833981519152826108b5565b6105f85760405162461bcd60e51b81526004016105ac90611668565b600082116106485760405162461bcd60e51b815260206004820152601e60248201527f59616b416461707465723a204e6f7468696e6720746f207265636f766572000060448201526064016105ac565b604051339083156108fc029084906000818181858888f19350505050158015610675573d6000803e3d6000fd5b506040518281526000907f8c1256b8896378cd5044f80c202f9772b9d77dc85c8a6eb51967210b09bfaa28906020015b60405180910390a25050565b6106c960008051602061181383398151915282610516565b50565b336106e5600080516020611813833981519152826108b5565b6107015760405162461bcd60e51b81526004016105ac90611668565b61053b6001600160a01b038416836000610af0565b3361072f600080516020611813833981519152826108b5565b61074b5760405162461bcd60e51b81526004016105ac90611668565b816000036107925760405162461bcd60e51b8152602060048201526014602482015273496e76616c6964206761732d657374696d61746560601b60448201526064016105ac565b600182905560405182815230907ff43f23b7a28e6f8ce6843a21bd7b48bce778aa913b8c8cf459edf7d770e8d38a906020016106a5565b336107e2600080516020611813833981519152826108b5565b6107fe5760405162461bcd60e51b81526004016105ac90611668565b6000821161084e5760405162461bcd60e51b815260206004820152601e60248201527f59616b416461707465723a204e6f7468696e6720746f207265636f766572000060448201526064016105ac565b6108626001600160a01b0384163384610d2b565b826001600160a01b03167f8c1256b8896378cd5044f80c202f9772b9d77dc85c8a6eb51967210b09bfaa288360405161089d91815260200190565b60405180910390a2505050565b336105bf8282610540565b6000918252602082815260408084206001600160a01b0393909316845291905290205460ff1690565b6000828152602081905260409020600101546108f981610c38565b61053b8383610cc6565b6106c9600080516020611813833981519152826108de565b6040516370a0823160e01b81526001600160a01b038281166004830152600091908416906370a0823190602401602060405180830381865afa158015610965573d6000803e3d6000fd5b505050506040513d601f19601f8201168201806040525081019061098991906116b0565b90506109988686868686610d5b565b6040516370a0823160e01b81526001600160a01b03838116600483015260009183918616906370a0823190602401602060405180830381865afa1580156109e3573d6000803e3d6000fd5b505050506040513d601f19601f82011682018060405250810190610a0791906116b0565b610a1191906116df565b905085811015610a635760405162461bcd60e51b815260206004820152601760248201527f496e73756666696369656e7420616d6f756e742d6f757400000000000000000060448201526064016105ac565b836001600160a01b0316856001600160a01b03167fe2bdbc6b7225eb0a972ac943c485a6cc05f7c6811838bce8903f23200fb744fa8989604051610ab1929190918252602082015260400190565b60405180910390a350505050505050565b6000610acf848484610ea0565b90505b9392505050565b33610ae5600083610516565b6105bf600082610540565b801580610b6a5750604051636eb1769f60e11b81523060048201526001600160a01b03838116602483015284169063dd62ed3e90604401602060405180830381865afa158015610b44573d6000803e3d6000fd5b505050506040513d601f19601f82011682018060405250810190610b6891906116b0565b155b610bd55760405162461bcd60e51b815260206004820152603660248201527f5361666545524332303a20617070726f76652066726f6d206e6f6e2d7a65726f60448201527520746f206e6f6e2d7a65726f20616c6c6f77616e636560501b60648201526084016105ac565b6040516001600160a01b03831660248201526044810182905261053b90849063095ea7b360e01b906064015b60408051601f198184030181529190526020810180516001600160e01b03166001600160e01b031990931692909217909152610ff4565b6106c98133611123565b610c4c82826108b5565b6105bf576000828152602081815260408083206001600160a01b03851684529091529020805460ff19166001179055610c823390565b6001600160a01b0316816001600160a01b0316837f2f8788117e7eff1d82e926ec794901d17c78024a50270940304540a733656f0d60405160405180910390a45050565b610cd082826108b5565b156105bf576000828152602081815260408083206001600160a01b0385168085529252808320805460ff1916905551339285917ff6391f5c32d9c69d2a47ea670b442974b53935d1edc7fd64eb21e047a839171b9190a45050565b6040516001600160a01b03831660248201526044810182905261053b90849063a9059cbb60e01b90606401610c01565b604051632e1a7d4d60e01b81526004810186905273b31f66aa3c1e785363f0875a1b74e27b85fd66c790632e1a7d4d90602401600060405180830381600087803b158015610da857600080fd5b505af1158015610dbc573d6000803e3d6000fd5b505050506000732b2c81e08f1af8835a78bb2a90ae924ace0ea4be6001600160a01b0316635bcb2fc6876040518263ffffffff1660e01b815260040160206040518083038185885af1158015610e16573d6000803e3d6000fd5b50505050506040513d601f19601f82011682018060405250810190610e3b91906116b0565b905084811015610e8d5760405162461bcd60e51b815260206004820152601e60248201527f59616b416461707465723a20416d6f756e742d6f757420746f6f206c6f77000060448201526064016105ac565b610e98838284611187565b505050505050565b60006001600160a01b03831673b31f66aa3c1e785363f0875a1b74e27b85fd66c7148015610eea57506001600160a01b038216732b2c81e08f1af8835a78bb2a90ae924ace0ea4be145b8015610f695750732b2c81e08f1af8835a78bb2a90ae924ace0ea4be6001600160a01b031663e1a283d66040518163ffffffff1660e01b8152600401602060405180830381865afa158015610f43573d6000803e3d6000fd5b505050506040513d601f19601f82011682018060405250810190610f6791906116f2565b155b8015610f7b5750610f79846111ab565b155b15610ad2576040516378f746c960e11b815260048101859052732b2c81e08f1af8835a78bb2a90ae924ace0ea4be9063f1ee8d9290602401602060405180830381865afa158015610fd0573d6000803e3d6000fd5b505050506040513d601f19601f82011682018060405250810190610acf91906116b0565b600080836001600160a01b03168360405161100f9190611714565b6000604051808303816000865af19150503d806000811461104c576040519150601f19603f3d011682016040523d82523d6000602084013e611051565b606091505b5091509150816110a35760405162461bcd60e51b815260206004820181905260248201527f5361666545524332303a206c6f772d6c6576656c2063616c6c206661696c656460448201526064016105ac565b80511561111d57808060200190518101906110be91906116f2565b61111d5760405162461bcd60e51b815260206004820152602a60248201527f5361666545524332303a204552433230206f7065726174696f6e20646964206e6044820152691bdd081cdd58d8d9595960b21b60648201526084016105ac565b50505050565b61112d82826108b5565b6105bf57611145816001600160a01b031660146112ae565b6111508360206112ae565b604051602001611161929190611730565b60408051601f198184030181529082905262461bcd60e51b82526105ac91600401611498565b306001600160a01b0382161461053b5761053b6001600160a01b0384168284610d2b565b60008082732b2c81e08f1af8835a78bb2a90ae924ace0ea4be6001600160a01b031663629e80566040518163ffffffff1660e01b8152600401602060405180830381865afa158015611201573d6000803e3d6000fd5b505050506040513d601f19601f8201168201806040525081019061122591906116b0565b61122f91906117a5565b9050732b2c81e08f1af8835a78bb2a90ae924ace0ea4be6001600160a01b0316635cd474876040518163ffffffff1660e01b8152600401602060405180830381865afa158015611283573d6000803e3d6000fd5b505050506040513d601f19601f820116820180604052508101906112a791906116b0565b1092915050565b606060006112bd8360026117b8565b6112c89060026117a5565b67ffffffffffffffff8111156112e0576112e06117cf565b6040519080825280601f01601f19166020018201604052801561130a576020820181803683370190505b509050600360fc1b81600081518110611325576113256117e5565b60200101906001600160f81b031916908160001a905350600f60fb1b81600181518110611354576113546117e5565b60200101906001600160f81b031916908160001a90535060006113788460026117b8565b6113839060016117a5565b90505b60018111156113fb576f181899199a1a9b1b9c1cb0b131b232b360811b85600f16601081106113b7576113b76117e5565b1a60f81b8282815181106113cd576113cd6117e5565b60200101906001600160f81b031916908160001a90535060049490941c936113f4816117fb565b9050611386565b508315610ad25760405162461bcd60e51b815260206004820181905260248201527f537472696e67733a20686578206c656e67746820696e73756666696369656e7460448201526064016105ac565b60006020828403121561145c57600080fd5b81356001600160e01b031981168114610ad257600080fd5b60005b8381101561148f578181015183820152602001611477565b50506000910152565b60208152600082518060208401526114b7816040850160208701611474565b601f01601f19169190910160400192915050565b6000602082840312156114dd57600080fd5b5035919050565b80356001600160a01b03811681146114fb57600080fd5b919050565b6000806040838503121561151357600080fd5b82359150611523602084016114e4565b90509250929050565b60006020828403121561153e57600080fd5b610ad2826114e4565b6000806040838503121561155a57600080fd5b611563836114e4565b9150611523602084016114e4565b6000806040838503121561158457600080fd5b61158d836114e4565b946020939093013593505050565b600080600080600060a086880312156115b357600080fd5b85359450602086013593506115ca604087016114e4565b92506115d8606087016114e4565b91506115e6608087016114e4565b90509295509295909350565b60008060006060848603121561160757600080fd5b83359250611617602085016114e4565b9150611625604085016114e4565b90509250925092565b600181811c9082168061164257607f821691505b60208210810361166257634e487b7160e01b600052602260045260246000fd5b50919050565b60208082526028908201527f4d61696e7461696e61626c653a2043616c6c6572206973206e6f742061206d6160408201526734b73a30b4b732b960c11b606082015260800190565b6000602082840312156116c257600080fd5b5051919050565b634e487b7160e01b600052601160045260246000fd5b81810381811115610482576104826116c9565b60006020828403121561170457600080fd5b81518015158114610ad257600080fd5b60008251611726818460208701611474565b9190910192915050565b7f416363657373436f6e74726f6c3a206163636f756e7420000000000000000000815260008351611768816017850160208801611474565b7001034b99036b4b9b9b4b733903937b6329607d1b6017918401918201528351611799816028840160208801611474565b01602801949350505050565b80820180821115610482576104826116c9565b8082028115828204841417610482576104826116c9565b634e487b7160e01b600052604160045260246000fd5b634e487b7160e01b600052603260045260246000fd5b60008161180a5761180a6116c9565b50600019019056fe339759585899103d2ace64958e37e18ccb0504652c81d4a1b8aa80fe2126ab95a2646970667358221220397592c5e5de06c6d1a9eae26f469d6bac60bd6c859afa7e43d2450dfabc0b9364736f6c63430008110033",
    "linkReferences": {}
  },
  "methodIdentifiers": {
    "DEFAULT_ADMIN_ROLE()": "a217fddf",
    "MAINTAINER_ROLE()": "f8742254",
    "SAVAX()": "17a2f6c9",
    "WAVAX()": "73b295c2",
    "addMaintainer(address)": "6b453c1f",
    "getRoleAdmin(bytes32)": "248a9ca3",
    "grantRole(bytes32,address)": "2f2ff15d",
    "hasRole(bytes32,address)": "91d14854",
    "name()": "06fdde03",
    "query(uint256,address,address)": "ef99893a",
    "recoverAVAX(uint256)": "4ebb7916",
    "recoverERC20(address,uint256)": "8980f11f",
    "removeMaintainer(address)": "d8baf7cf",
    "renounceRole(bytes32)": "8bb9c5bf",
    "renounceRole(bytes32,address)": "36568abe",
    "revokeAllowance(address,address)": "7ae26773",
    "revokeRole(bytes32,address)": "d547741f",
    "setSwapGasEstimate(uint256)": "84a33e63",
    "supportsInterface(bytes4)": "01ffc9a7",
    "swap(uint256,uint256,address,address,address)": "eab90da6",
    "swapGasEstimate()": "69cff80d",
    "transferOwnership(address)": "f2fde38b"
  },
  "id": 42
}