{
  "abi": [
    {
      "inputs": [
        {
          "internalType": "address[]",
          "name": "_newTokens",
          "type": "address[]"
        },
        {
          "internalType": "address[]",
          "name": "_oldTokens",
          "type": "address[]"
        },
        {
          "internalType": "uint256",
          "name": "_swapGasEstimate",
          "type": "uint256"
        }
      ],
      "stateMutability": "nonpayable",
      "type": "constructor"
    },
    {
      "anonymous": false,
      "inputs": [
        {
          "indexed": true,
          "internalType": "address",
          "name": "_asset",
          "type": "address"
        },
        {
          "indexed": false,
          "internalType": "uint256",
          "name": "amount",
          "type": "uint256"
        }
      ],
      "name": "Recovered",
      "type": "event"
    },
    {
      "anonymous": false,
      "inputs": [
        {
          "indexed": true,
          "internalType": "bytes32",
          "name": "role",
          "type": "bytes32"
        },
        {
          "indexed": true,
          "internalType": "bytes32",
          "name": "previousAdminRole",
          "type": "bytes32"
        },
        {
          "indexed": true,
          "internalType": "bytes32",
          "name": "newAdminRole",
          "type": "bytes32"
        }
      ],
      "name": "RoleAdminChanged",
      "type": "event"
    },
    {
      "anonymous": false,
      "inputs": [
        {
          "indexed": true,
          "internalType": "bytes32",
          "name": "role",
          "type": "bytes32"
        },
        {
          "indexed": true,
          "internalType": "address",
          "name": "account",
          "type": "address"
        },
        {
          "indexed": true,
          "internalType": "address",
          "name": "sender",
          "type": "address"
        }
      ],
      "name": "RoleGranted",
      "type": "event"
    },
    {
      "anonymous": false,
      "inputs": [
        {
          "indexed": true,
          "internalType": "bytes32",
          "name": "role",
          "type": "bytes32"
        },
        {
          "indexed": true,
          "internalType": "address",
          "name": "account",
          "type": "address"
        },
        {
          "indexed": true,
          "internalType": "address",
          "name": "sender",
          "type": "address"
        }
      ],
      "name": "RoleRevoked",
      "type": "event"
    },
    {
      "anonymous": false,
      "inputs": [
        {
          "indexed": true,
          "internalType": "address",
          "name": "_adapter",
          "type": "address"
        },
        {
          "indexed": false,
          "internalType": "uint256",
          "name": "_newEstimate",
          "type": "uint256"
        }
      ],
      "name": "UpdatedGasEstimate",
      "type": "event"
    },
    {
      "anonymous": false,
      "inputs": [
        {
          "indexed": true,
          "internalType": "address",
          "name": "_tokenFrom",
          "type": "address"
        },
        {
          "indexed": true,
          "internalType": "address",
          "name": "_tokenTo",
          "type": "address"
        },
        {
          "indexed": false,
          "internalType": "uint256",
          "name": "_amountIn",
          "type": "uint256"
        },
        {
          "indexed": false,
          "internalType": "uint256",
          "name": "_amountOut",
          "type": "uint256"
        }
      ],
      "name": "YakAdapterSwap",
      "type": "event"
    },
    {
      "inputs": [],
      "name": "DEFAULT_ADMIN_ROLE",
      "outputs": [
        {
          "internalType": "bytes32",
          "name": "",
          "type": "bytes32"
        }
      ],
      "stateMutability": "view",
      "type": "function"
    },
    {
      "inputs": [],
      "name": "MAINTAINER_ROLE",
      "outputs": [
        {
          "internalType": "bytes32",
          "name": "",
          "type": "bytes32"
        }
      ],
      "stateMutability": "view",
      "type": "function"
    },
    {
      "inputs": [
        {
          "internalType": "address",
          "name": "addedMaintainer",
          "type": "address"
        }
      ],
      "name": "addMaintainer",
      "outputs": [],
      "stateMutability": "nonpayable",
      "type": "function"
    },
    {
      "inputs": [
        {
          "internalType": "bytes32",
          "name": "role",
          "type": "bytes32"
        }
      ],
      "name": "getRoleAdmin",
      "outputs": [
        {
          "internalType": "bytes32",
          "name": "",
          "type": "bytes32"
        }
      ],
      "stateMutability": "view",
      "type": "function"
    },
    {
      "inputs": [
        {
          "internalType": "bytes32",
          "name": "role",
          "type": "bytes32"
        },
        {
          "internalType": "address",
          "name": "account",
          "type": "address"
        }
      ],
      "name": "grantRole",
      "outputs": [],
      "stateMutability": "nonpayable",
      "type": "function"
    },
    {
      "inputs": [
        {
          "internalType": "bytes32",
          "name": "role",
          "type": "bytes32"
        },
        {
          "internalType": "address",
          "name": "account",
          "type": "address"
        }
      ],
      "name": "hasRole",
      "outputs": [
        {
          "internalType": "bool",
          "name": "",
          "type": "bool"
        }
      ],
      "stateMutability": "view",
      "type": "function"
    },
    {
      "inputs": [
        {
          "internalType": "address",
          "name": "",
          "type": "address"
        }
      ],
      "name": "isNewBridgeToken",
      "outputs": [
        {
          "internalType": "bool",
          "name": "",
          "type": "bool"
        }
      ],
      "stateMutability": "view",
      "type": "function"
    },
    {
      "inputs": [],
      "name": "name",
      "outputs": [
        {
          "internalType": "string",
          "name": "",
          "type": "string"
        }
      ],
      "stateMutability": "view",
      "type": "function"
    },
    {
      "inputs": [
        {
          "internalType": "uint256",
          "name": "_amountIn",
          "type": "uint256"
        },
        {
          "internalType": "address",
          "name": "_tokenIn",
          "type": "address"
        },
        {
          "internalType": "address",
          "name": "_tokenOut",
          "type": "address"
        }
      ],
      "name": "query",
      "outputs": [
        {
          "internalType": "uint256",
          "name": "",
          "type": "uint256"
        }
      ],
      "stateMutability": "view",
      "type": "function"
    },
    {
      "inputs": [
        {
          "internalType": "uint256",
          "name": "_amount",
          "type": "uint256"
        }
      ],
      "name": "recoverAVAX",
      "outputs": [],
      "stateMutability": "nonpayable",
      "type": "function"
    },
    {
      "inputs": [
        {
          "internalType": "address",
          "name": "_tokenAddress",
          "type": "address"
        },
        {
          "internalType": "uint256",
          "name": "_tokenAmount",
          "type": "uint256"
        }
      ],
      "name": "recoverERC20",
      "outputs": [],
      "stateMutability": "nonpayable",
      "type": "function"
    },
    {
      "inputs": [
        {
          "internalType": "address",
          "name": "removedMaintainer",
          "type": "address"
        }
      ],
      "name": "removeMaintainer",
      "outputs": [],
      "stateMutability": "nonpayable",
      "type": "function"
    },
    {
      "inputs": [
        {
          "internalType": "bytes32",
          "name": "role",
          "type": "bytes32"
        },
        {
          "internalType": "address",
          "name": "account",
          "type": "address"
        }
      ],
      "name": "renounceRole",
      "outputs": [],
      "stateMutability": "nonpayable",
      "type": "function"
    },
    {
      "inputs": [
        {
          "internalType": "bytes32",
          "name": "role",
          "type": "bytes32"
        }
      ],
      "name": "renounceRole",
      "outputs": [],
      "stateMutability": "nonpayable",
      "type": "function"
    },
    {
      "inputs": [
        {
          "internalType": "address",
          "name": "_token",
          "type": "address"
        },
        {
          "internalType": "address",
          "name": "_spender",
          "type": "address"
        }
      ],
      "name": "revokeAllowance",
      "outputs": [],
      "stateMutability": "nonpayable",
      "type": "function"
    },
    {
      "inputs": [
        {
          "internalType": "bytes32",
          "name": "role",
          "type": "bytes32"
        },
        {
          "internalType": "address",
          "name": "account",
          "type": "address"
        }
      ],
      "name": "revokeRole",
      "outputs": [],
      "stateMutability": "nonpayable",
      "type": "function"
    },
    {
      "inputs": [
        {
          "internalType": "address[]",
          "name": "_newTokens",
          "type": "address[]"
        },
        {
          "internalType": "address[]",
          "name": "_oldTokens",
          "type": "address[]"
        }
      ],
      "name": "setNewBridgeTokens",
      "outputs": [],
      "stateMutability": "nonpayable",
      "type": "function"
    },
    {
      "inputs": [
        {
          "internalType": "uint256",
          "name": "_estimate",
          "type": "uint256"
        }
      ],
      "name": "setSwapGasEstimate",
      "outputs": [],
      "stateMutability": "nonpayable",
      "type": "function"
    },
    {
      "inputs": [
        {
          "internalType": "bytes4",
          "name": "interfaceId",
          "type": "bytes4"
        }
      ],
      "name": "supportsInterface",
      "outputs": [
        {
          "internalType": "bool",
          "name": "",
          "type": "bool"
        }
      ],
      "stateMutability": "view",
      "type": "function"
    },
    {
      "inputs": [
        {
          "internalType": "uint256",
          "name": "_amountIn",
          "type": "uint256"
        },
        {
          "internalType": "uint256",
          "name": "_amountOut",
          "type": "uint256"
        },
        {
          "internalType": "address",
          "name": "_fromToken",
          "type": "address"
        },
        {
          "internalType": "address",
          "name": "_toToken",
          "type": "address"
        },
        {
          "internalType": "address",
          "name": "_to",
          "type": "address"
        }
      ],
      "name": "swap",
      "outputs": [],
      "stateMutability": "nonpayable",
      "type": "function"
    },
    {
      "inputs": [],
      "name": "swapGasEstimate",
      "outputs": [
        {
          "internalType": "uint256",
          "name": "",
          "type": "uint256"
        }
      ],
      "stateMutability": "view",
      "type": "function"
    },
    {
      "inputs": [
        {
          "internalType": "address",
          "name": "newOwner",
          "type": "address"
        }
      ],
      "name": "transferOwnership",
      "outputs": [],
      "stateMutability": "nonpayable",
      "type": "function"
    },
    {
      "stateMutability": "payable",
      "type": "receive"
    }
  ],
  "bytecode": {
    "object": "0x60806040523480156200001157600080fd5b50604051620025e2380380620025e283398101604081905262000034916200097e565b60408051808201909152601681527f4272696467654d6967726174696f6e41646170746572000000000000000000006020820152813362000077600082620000d2565b620000a37f339759585899103d2ace64958e37e18ccb0504652c81d4a1b8aa80fe2126ab9582620000d2565b50620000af82620000e2565b620000ba8162000147565b50620000c99050838362000246565b50505062000bff565b620000de8282620004d0565b5050565b8051600003620001395760405162461bcd60e51b815260206004820152601460248201527f496e76616c69642061646170746572206e616d6500000000000000000000000060448201526064015b60405180910390fd5b6002620000de828262000a7f565b336000818152600080516020620025a2833981519152602052604090205460ff16620001b65760405162461bcd60e51b81526020600482015260286024820152600080516020620025c283398151915260448201526734b73a30b4b732b960c11b606482015260840162000130565b81600003620002085760405162461bcd60e51b815260206004820152601460248201527f496e76616c6964206761732d657374696d617465000000000000000000000000604482015260640162000130565b600182905560405182815230907ff43f23b7a28e6f8ce6843a21bd7b48bce778aa913b8c8cf459edf7d770e8d38a9060200160405180910390a25050565b336000818152600080516020620025a2833981519152602052604090205460ff16620002b55760405162461bcd60e51b81526020600482015260286024820152600080516020620025c283398151915260448201526734b73a30b4b732b960c11b606482015260840162000130565b8151835114620003085760405162461bcd60e51b815260206004820152601660248201527f4e6565647320746f206265207375726a65637469766500000000000000000000604482015260640162000130565b60005b8351811015620004ca5760008482815181106200032c576200032c62000b4b565b60200260200101516001600160a01b031663ab32dbb785848151811062000357576200035762000b4b565b60200260200101516040518263ffffffff1660e01b81526004016200038b91906001600160a01b0391909116815260200190565b602060405180830381865afa158015620003a9573d6000803e3d6000fd5b505050506040513d601f19601f82011682018060405250810190620003cf919062000b61565b116200041e5760405162461bcd60e51b815260206004820152601360248201527f496e76616c696420636f6d62696e6174696f6e00000000000000000000000000604482015260640162000130565b6200046884828151811062000437576200043762000b4b565b602002602001015184838151811062000454576200045462000b4b565b60200260200101516200057060201b60201c565b60016003600086848151811062000483576200048362000b4b565b6020908102919091018101516001600160a01b03168252810191909152604001600020805460ff191691151591909117905580620004c18162000b7b565b9150506200030b565b50505050565b6000828152602081815260408083206001600160a01b038516845290915290205460ff16620000de576000828152602081815260408083206001600160a01b03851684529091529020805460ff191660011790556200052c3390565b6001600160a01b0316816001600160a01b0316837f2f8788117e7eff1d82e926ec794901d17c78024a50270940304540a733656f0d60405160405180910390a45050565b604051636eb1769f60e11b81523060048201526001600160a01b0383811660248301526000919083169063dd62ed3e90604401602060405180830381865afa158015620005c1573d6000803e3d6000fd5b505050506040513d601f19601f82011682018060405250810190620005e7919062000b61565b90506000198110156200061b576200061b83600019846001600160a01b03166200062060201b62000cf4179092919060201c565b505050565b8015806200069e5750604051636eb1769f60e11b81523060048201526001600160a01b03838116602483015284169063dd62ed3e90604401602060405180830381865afa15801562000676573d6000803e3d6000fd5b505050506040513d601f19601f820116820180604052508101906200069c919062000b61565b155b620007125760405162461bcd60e51b815260206004820152603660248201527f5361666545524332303a20617070726f76652066726f6d206e6f6e2d7a65726f60448201527f20746f206e6f6e2d7a65726f20616c6c6f77616e636500000000000000000000606482015260840162000130565b604080516001600160a01b038416602482015260448082018490528251808303909101815260649091019091526020810180516001600160e01b0390811663095ea7b360e01b179091526200061b9185916200076a16565b600080836001600160a01b03168360405162000787919062000ba3565b6000604051808303816000865af19150503d8060008114620007c6576040519150601f19603f3d011682016040523d82523d6000602084013e620007cb565b606091505b5091509150816200081f5760405162461bcd60e51b815260206004820181905260248201527f5361666545524332303a206c6f772d6c6576656c2063616c6c206661696c6564604482015260640162000130565b805115620004ca57808060200190518101906200083d919062000bd4565b620004ca5760405162461bcd60e51b815260206004820152602a60248201527f5361666545524332303a204552433230206f7065726174696f6e20646964206e6044820152691bdd081cdd58d8d9595960b21b606482015260840162000130565b634e487b7160e01b600052604160045260246000fd5b80516001600160a01b0381168114620008cc57600080fd5b919050565b600082601f830112620008e357600080fd5b815160206001600160401b03808311156200090257620009026200089e565b8260051b604051601f19603f830116810181811084821117156200092a576200092a6200089e565b6040529384528581018301938381019250878511156200094957600080fd5b83870191505b8482101562000973576200096382620008b4565b835291830191908301906200094f565b979650505050505050565b6000806000606084860312156200099457600080fd5b83516001600160401b0380821115620009ac57600080fd5b620009ba87838801620008d1565b94506020860151915080821115620009d157600080fd5b50620009e086828701620008d1565b925050604084015190509250925092565b600181811c9082168062000a0657607f821691505b60208210810362000a2757634e487b7160e01b600052602260045260246000fd5b50919050565b601f8211156200061b57600081815260208120601f850160051c8101602086101562000a565750805b601f850160051c820191505b8181101562000a775782815560010162000a62565b505050505050565b81516001600160401b0381111562000a9b5762000a9b6200089e565b62000ab38162000aac8454620009f1565b8462000a2d565b602080601f83116001811462000aeb576000841562000ad25750858301515b600019600386901b1c1916600185901b17855562000a77565b600085815260208120601f198616915b8281101562000b1c5788860151825594840194600190910190840162000afb565b508582101562000b3b5787850151600019600388901b60f8161c191681555b5050505050600190811b01905550565b634e487b7160e01b600052603260045260246000fd5b60006020828403121562000b7457600080fd5b5051919050565b60006001820162000b9c57634e487b7160e01b600052601160045260246000fd5b5060010190565b6000825160005b8181101562000bc6576020818601810151858301520162000baa565b506000920191825250919050565b60006020828403121562000be757600080fd5b8151801515811462000bf857600080fd5b9392505050565b6119938062000c0f6000396000f3fe6080604052600436106101395760003560e01c80638980f11f116100ab578063d8baf7cf1161006f578063d8baf7cf14610377578063eab90da614610397578063ef99893a146103b7578063f045f3f3146103d7578063f2fde38b146103f7578063f87422541461041757600080fd5b80638980f11f146102e25780638bb9c5bf1461030257806391d1485414610322578063a217fddf14610342578063d547741f1461035757600080fd5b806336568abe116100fd57806336568abe1461022c5780634ebb79161461024c57806369cff80d1461026c5780636b453c1f146102825780637ae26773146102a257806384a33e63146102c257600080fd5b806301d790c61461014557806301ffc9a71461018a57806306fdde03146101aa578063248a9ca3146101cc5780632f2ff15d1461020a57600080fd5b3661014057005b600080fd5b34801561015157600080fd5b50610175610160366004611472565b60036020526000908152604090205460ff1681565b60405190151581526020015b60405180910390f35b34801561019657600080fd5b506101756101a536600461148d565b610439565b3480156101b657600080fd5b506101bf610470565b60405161018191906114db565b3480156101d857600080fd5b506101fc6101e736600461150e565b60009081526020819052604090206001015490565b604051908152602001610181565b34801561021657600080fd5b5061022a610225366004611527565b6104fe565b005b34801561023857600080fd5b5061022a610247366004611527565b610528565b34801561025857600080fd5b5061022a61026736600461150e565b6105ab565b34801561027857600080fd5b506101fc60015481565b34801561028e57600080fd5b5061022a61029d366004611472565b610699565b3480156102ae57600080fd5b5061022a6102bd366004611553565b6106b4565b3480156102ce57600080fd5b5061022a6102dd36600461150e565b6106fe565b3480156102ee57600080fd5b5061022a6102fd36600461157d565b6107b1565b34801561030e57600080fd5b5061022a61031d36600461150e565b610892565b34801561032e57600080fd5b5061017561033d366004611527565b61089d565b34801561034e57600080fd5b506101fc600081565b34801561036357600080fd5b5061022a610372366004611527565b6108c6565b34801561038357600080fd5b5061022a610392366004611472565b6108eb565b3480156103a357600080fd5b5061022a6103b23660046115a7565b610903565b3480156103c357600080fd5b506101fc6103d23660046115fe565b610aaa565b3480156103e357600080fd5b5061022a6103f23660046116f2565b610ac1565b34801561040357600080fd5b5061022a610412366004611472565b610cdd565b34801561042357600080fd5b506101fc60008051602061193e83398151915281565b60006001600160e01b03198216637965db0b60e01b148061046a57506301ffc9a760e01b6001600160e01b03198316145b92915050565b6002805461047d90611756565b80601f01602080910402602001604051908101604052809291908181526020018280546104a990611756565b80156104f65780601f106104cb576101008083540402835291602001916104f6565b820191906000526020600020905b8154815290600101906020018083116104d957829003601f168201915b505050505081565b60008281526020819052604090206001015461051981610e3c565b6105238383610e46565b505050565b6001600160a01b038116331461059d5760405162461bcd60e51b815260206004820152602f60248201527f416363657373436f6e74726f6c3a2063616e206f6e6c792072656e6f756e636560448201526e103937b632b9903337b91039b2b63360891b60648201526084015b60405180910390fd5b6105a78282610eca565b5050565b336105c460008051602061193e8339815191528261089d565b6105e05760405162461bcd60e51b815260040161059490611790565b600082116106305760405162461bcd60e51b815260206004820152601e60248201527f59616b416461707465723a204e6f7468696e6720746f207265636f76657200006044820152606401610594565b604051339083156108fc029084906000818181858888f1935050505015801561065d573d6000803e3d6000fd5b506040518281526000907f8c1256b8896378cd5044f80c202f9772b9d77dc85c8a6eb51967210b09bfaa28906020015b60405180910390a25050565b6106b160008051602061193e833981519152826104fe565b50565b336106cd60008051602061193e8339815191528261089d565b6106e95760405162461bcd60e51b815260040161059490611790565b6105236001600160a01b038416836000610cf4565b3361071760008051602061193e8339815191528261089d565b6107335760405162461bcd60e51b815260040161059490611790565b8160000361077a5760405162461bcd60e51b8152602060048201526014602482015273496e76616c6964206761732d657374696d61746560601b6044820152606401610594565b600182905560405182815230907ff43f23b7a28e6f8ce6843a21bd7b48bce778aa913b8c8cf459edf7d770e8d38a9060200161068d565b336107ca60008051602061193e8339815191528261089d565b6107e65760405162461bcd60e51b815260040161059490611790565b600082116108365760405162461bcd60e51b815260206004820152601e60248201527f59616b416461707465723a204e6f7468696e6720746f207265636f76657200006044820152606401610594565b61084a6001600160a01b0384163384610f2f565b826001600160a01b03167f8c1256b8896378cd5044f80c202f9772b9d77dc85c8a6eb51967210b09bfaa288360405161088591815260200190565b60405180910390a2505050565b336105a78282610528565b6000918252602082815260408084206001600160a01b0393909316845291905290205460ff1690565b6000828152602081905260409020600101546108e181610e3c565b6105238383610eca565b6106b160008051602061193e833981519152826108c6565b6040516370a0823160e01b81526001600160a01b038281166004830152600091908416906370a0823190602401602060405180830381865afa15801561094d573d6000803e3d6000fd5b505050506040513d601f19601f8201168201806040525081019061097191906117d8565b90506109808686868686610f5f565b6040516370a0823160e01b81526001600160a01b03838116600483015260009183918616906370a0823190602401602060405180830381865afa1580156109cb573d6000803e3d6000fd5b505050506040513d601f19601f820116820180604052508101906109ef91906117d8565b6109f99190611807565b905085811015610a4b5760405162461bcd60e51b815260206004820152601760248201527f496e73756666696369656e7420616d6f756e742d6f75740000000000000000006044820152606401610594565b836001600160a01b0316856001600160a01b03167fe2bdbc6b7225eb0a972ac943c485a6cc05f7c6811838bce8903f23200fb744fa8989604051610a99929190918252602082015260400190565b60405180910390a350505050505050565b6000610ab7848484610fd3565b90505b9392505050565b33610ada60008051602061193e8339815191528261089d565b610af65760405162461bcd60e51b815260040161059490611790565b8151835114610b405760405162461bcd60e51b81526020600482015260166024820152754e6565647320746f206265207375726a65637469766560501b6044820152606401610594565b60005b8351811015610cd7576000848281518110610b6057610b6061181a565b60200260200101516001600160a01b031663ab32dbb7858481518110610b8857610b8861181a565b60200260200101516040518263ffffffff1660e01b8152600401610bbb91906001600160a01b0391909116815260200190565b602060405180830381865afa158015610bd8573d6000803e3d6000fd5b505050506040513d601f19601f82011682018060405250810190610bfc91906117d8565b11610c3f5760405162461bcd60e51b815260206004820152601360248201527224b73b30b634b21031b7b6b134b730ba34b7b760691b6044820152606401610594565b610c7b848281518110610c5457610c5461181a565b6020026020010151848381518110610c6e57610c6e61181a565b6020026020010151611073565b600160036000868481518110610c9357610c9361181a565b6020908102919091018101516001600160a01b03168252810191909152604001600020805460ff191691151591909117905580610ccf81611830565b915050610b43565b50505050565b33610ce96000836104fe565b6105a7600082610528565b801580610d6e5750604051636eb1769f60e11b81523060048201526001600160a01b03838116602483015284169063dd62ed3e90604401602060405180830381865afa158015610d48573d6000803e3d6000fd5b505050506040513d601f19601f82011682018060405250810190610d6c91906117d8565b155b610dd95760405162461bcd60e51b815260206004820152603660248201527f5361666545524332303a20617070726f76652066726f6d206e6f6e2d7a65726f60448201527520746f206e6f6e2d7a65726f20616c6c6f77616e636560501b6064820152608401610594565b6040516001600160a01b03831660248201526044810182905261052390849063095ea7b360e01b906064015b60408051601f198184030181529190526020810180516001600160e01b03166001600160e01b031990931692909217909152611109565b6106b18133611232565b610e50828261089d565b6105a7576000828152602081815260408083206001600160a01b03851684529091529020805460ff19166001179055610e863390565b6001600160a01b0316816001600160a01b0316837f2f8788117e7eff1d82e926ec794901d17c78024a50270940304540a733656f0d60405160405180910390a45050565b610ed4828261089d565b156105a7576000828152602081815260408083206001600160a01b0385168085529252808320805460ff1916905551339285917ff6391f5c32d9c69d2a47ea670b442974b53935d1edc7fd64eb21e047a839171b9190a45050565b6040516001600160a01b03831660248201526044810182905261052390849063a9059cbb60e01b90606401610e05565b60405163d004f0f760e01b81526001600160a01b0384811660048301526024820187905283169063d004f0f790604401600060405180830381600087803b158015610fa957600080fd5b505af1158015610fbd573d6000803e3d6000fd5b50505050610fcc828583611296565b5050505050565b6001600160a01b03811660009081526003602052604081205460ff168015611066575060405163ab32dbb760e01b81526001600160a01b03848116600483015285919084169063ab32dbb790602401602060405180830381865afa15801561103f573d6000803e3d6000fd5b505050506040513d601f19601f8201168201806040525081019061106391906117d8565b10155b15610aba57509192915050565b604051636eb1769f60e11b81523060048201526001600160a01b0383811660248301526000919083169063dd62ed3e90604401602060405180830381865afa1580156110c3573d6000803e3d6000fd5b505050506040513d601f19601f820116820180604052508101906110e791906117d8565b9050600019811015610523576105236001600160a01b03831684600019610cf4565b600080836001600160a01b0316836040516111249190611849565b6000604051808303816000865af19150503d8060008114611161576040519150601f19603f3d011682016040523d82523d6000602084013e611166565b606091505b5091509150816111b85760405162461bcd60e51b815260206004820181905260248201527f5361666545524332303a206c6f772d6c6576656c2063616c6c206661696c65646044820152606401610594565b805115610cd757808060200190518101906111d39190611865565b610cd75760405162461bcd60e51b815260206004820152602a60248201527f5361666545524332303a204552433230206f7065726174696f6e20646964206e6044820152691bdd081cdd58d8d9595960b21b6064820152608401610594565b61123c828261089d565b6105a757611254816001600160a01b031660146112ba565b61125f8360206112ba565b604051602001611270929190611887565b60408051601f198184030181529082905262461bcd60e51b8252610594916004016114db565b306001600160a01b03821614610523576105236001600160a01b0384168284610f2f565b606060006112c98360026118fc565b6112d4906002611913565b67ffffffffffffffff8111156112ec576112ec61163a565b6040519080825280601f01601f191660200182016040528015611316576020820181803683370190505b509050600360fc1b816000815181106113315761133161181a565b60200101906001600160f81b031916908160001a905350600f60fb1b816001815181106113605761136061181a565b60200101906001600160f81b031916908160001a90535060006113848460026118fc565b61138f906001611913565b90505b6001811115611407576f181899199a1a9b1b9c1cb0b131b232b360811b85600f16601081106113c3576113c361181a565b1a60f81b8282815181106113d9576113d961181a565b60200101906001600160f81b031916908160001a90535060049490941c9361140081611926565b9050611392565b508315610aba5760405162461bcd60e51b815260206004820181905260248201527f537472696e67733a20686578206c656e67746820696e73756666696369656e746044820152606401610594565b80356001600160a01b038116811461146d57600080fd5b919050565b60006020828403121561148457600080fd5b610aba82611456565b60006020828403121561149f57600080fd5b81356001600160e01b031981168114610aba57600080fd5b60005b838110156114d25781810151838201526020016114ba565b50506000910152565b60208152600082518060208401526114fa8160408501602087016114b7565b601f01601f19169190910160400192915050565b60006020828403121561152057600080fd5b5035919050565b6000806040838503121561153a57600080fd5b8235915061154a60208401611456565b90509250929050565b6000806040838503121561156657600080fd5b61156f83611456565b915061154a60208401611456565b6000806040838503121561159057600080fd5b61159983611456565b946020939093013593505050565b600080600080600060a086880312156115bf57600080fd5b85359450602086013593506115d660408701611456565b92506115e460608701611456565b91506115f260808701611456565b90509295509295909350565b60008060006060848603121561161357600080fd5b8335925061162360208501611456565b915061163160408501611456565b90509250925092565b634e487b7160e01b600052604160045260246000fd5b600082601f83011261166157600080fd5b8135602067ffffffffffffffff8083111561167e5761167e61163a565b8260051b604051601f19603f830116810181811084821117156116a3576116a361163a565b6040529384528581018301938381019250878511156116c157600080fd5b83870191505b848210156116e7576116d882611456565b835291830191908301906116c7565b979650505050505050565b6000806040838503121561170557600080fd5b823567ffffffffffffffff8082111561171d57600080fd5b61172986838701611650565b9350602085013591508082111561173f57600080fd5b5061174c85828601611650565b9150509250929050565b600181811c9082168061176a57607f821691505b60208210810361178a57634e487b7160e01b600052602260045260246000fd5b50919050565b60208082526028908201527f4d61696e7461696e61626c653a2043616c6c6572206973206e6f742061206d6160408201526734b73a30b4b732b960c11b606082015260800190565b6000602082840312156117ea57600080fd5b5051919050565b634e487b7160e01b600052601160045260246000fd5b8181038181111561046a5761046a6117f1565b634e487b7160e01b600052603260045260246000fd5b600060018201611842576118426117f1565b5060010190565b6000825161185b8184602087016114b7565b9190910192915050565b60006020828403121561187757600080fd5b81518015158114610aba57600080fd5b7f416363657373436f6e74726f6c3a206163636f756e74200000000000000000008152600083516118bf8160178501602088016114b7565b7001034b99036b4b9b9b4b733903937b6329607d1b60179184019182015283516118f08160288401602088016114b7565b01602801949350505050565b808202811582820484141761046a5761046a6117f1565b8082018082111561046a5761046a6117f1565b600081611935576119356117f1565b50600019019056fe339759585899103d2ace64958e37e18ccb0504652c81d4a1b8aa80fe2126ab95a2646970667358221220ef77a803c2776b6265ab90803e15a8b62efabf4da38beff22f5dcdcb3c5dff2164736f6c63430008110033a54247010af6b3693b80aceddfad12e077c5de3571e6243fada502635f0d7d394d61696e7461696e61626c653a2043616c6c6572206973206e6f742061206d61",
    "linkReferences": {}
  },
  "methodIdentifiers": {
    "DEFAULT_ADMIN_ROLE()": "a217fddf",
    "MAINTAINER_ROLE()": "f8742254",
    "addMaintainer(address)": "6b453c1f",
    "getRoleAdmin(bytes32)": "248a9ca3",
    "grantRole(bytes32,address)": "2f2ff15d",
    "hasRole(bytes32,address)": "91d14854",
    "isNewBridgeToken(address)": "01d790c6",
    "name()": "06fdde03",
    "query(uint256,address,address)": "ef99893a",
    "recoverAVAX(uint256)": "4ebb7916",
    "recoverERC20(address,uint256)": "8980f11f",
    "removeMaintainer(address)": "d8baf7cf",
    "renounceRole(bytes32)": "8bb9c5bf",
    "renounceRole(bytes32,address)": "36568abe",
    "revokeAllowance(address,address)": "7ae26773",
    "revokeRole(bytes32,address)": "d547741f",
    "setNewBridgeTokens(address[],address[])": "f045f3f3",
    "setSwapGasEstimate(uint256)": "84a33e63",
    "supportsInterface(bytes4)": "01ffc9a7",
    "swap(uint256,uint256,address,address,address)": "eab90da6",
    "swapGasEstimate()": "69cff80d",
    "transferOwnership(address)": "f2fde38b"
  },
  "id": 15
}