{
  "abi": [
    {
      "inputs": [
        {
          "internalType": "string",
          "name": "_name",
          "type": "string"
        },
        {
          "internalType": "address",
          "name": "_factory",
          "type": "address"
        },
        {
          "internalType": "uint256",
          "name": "_swapGasEstimate",
          "type": "uint256"
        }
      ],
      "stateMutability": "nonpayable",
      "type": "constructor"
    },
    {
      "anonymous": false,
      "inputs": [
        {
          "indexed": true,
          "internalType": "address",
          "name": "_asset",
          "type": "address"
        },
        {
          "indexed": false,
          "internalType": "uint256",
          "name": "amount",
          "type": "uint256"
        }
      ],
      "name": "Recovered",
      "type": "event"
    },
    {
      "anonymous": false,
      "inputs": [
        {
          "indexed": true,
          "internalType": "bytes32",
          "name": "role",
          "type": "bytes32"
        },
        {
          "indexed": true,
          "internalType": "bytes32",
          "name": "previousAdminRole",
          "type": "bytes32"
        },
        {
          "indexed": true,
          "internalType": "bytes32",
          "name": "newAdminRole",
          "type": "bytes32"
        }
      ],
      "name": "RoleAdminChanged",
      "type": "event"
    },
    {
      "anonymous": false,
      "inputs": [
        {
          "indexed": true,
          "internalType": "bytes32",
          "name": "role",
          "type": "bytes32"
        },
        {
          "indexed": true,
          "internalType": "address",
          "name": "account",
          "type": "address"
        },
        {
          "indexed": true,
          "internalType": "address",
          "name": "sender",
          "type": "address"
        }
      ],
      "name": "RoleGranted",
      "type": "event"
    },
    {
      "anonymous": false,
      "inputs": [
        {
          "indexed": true,
          "internalType": "bytes32",
          "name": "role",
          "type": "bytes32"
        },
        {
          "indexed": true,
          "internalType": "address",
          "name": "account",
          "type": "address"
        },
        {
          "indexed": true,
          "internalType": "address",
          "name": "sender",
          "type": "address"
        }
      ],
      "name": "RoleRevoked",
      "type": "event"
    },
    {
      "anonymous": false,
      "inputs": [
        {
          "indexed": true,
          "internalType": "address",
          "name": "_adapter",
          "type": "address"
        },
        {
          "indexed": false,
          "internalType": "uint256",
          "name": "_newEstimate",
          "type": "uint256"
        }
      ],
      "name": "UpdatedGasEstimate",
      "type": "event"
    },
    {
      "anonymous": false,
      "inputs": [
        {
          "indexed": true,
          "internalType": "address",
          "name": "_tokenFrom",
          "type": "address"
        },
        {
          "indexed": true,
          "internalType": "address",
          "name": "_tokenTo",
          "type": "address"
        },
        {
          "indexed": false,
          "internalType": "uint256",
          "name": "_amountIn",
          "type": "uint256"
        },
        {
          "indexed": false,
          "internalType": "uint256",
          "name": "_amountOut",
          "type": "uint256"
        }
      ],
      "name": "YakAdapterSwap",
      "type": "event"
    },
    {
      "inputs": [],
      "name": "DEFAULT_ADMIN_ROLE",
      "outputs": [
        {
          "internalType": "bytes32",
          "name": "",
          "type": "bytes32"
        }
      ],
      "stateMutability": "view",
      "type": "function"
    },
    {
      "inputs": [],
      "name": "FACTORY",
      "outputs": [
        {
          "internalType": "address",
          "name": "",
          "type": "address"
        }
      ],
      "stateMutability": "view",
      "type": "function"
    },
    {
      "inputs": [],
      "name": "MAINTAINER_ROLE",
      "outputs": [
        {
          "internalType": "bytes32",
          "name": "",
          "type": "bytes32"
        }
      ],
      "stateMutability": "view",
      "type": "function"
    },
    {
      "inputs": [
        {
          "internalType": "address",
          "name": "addedMaintainer",
          "type": "address"
        }
      ],
      "name": "addMaintainer",
      "outputs": [],
      "stateMutability": "nonpayable",
      "type": "function"
    },
    {
      "inputs": [
        {
          "internalType": "bytes32",
          "name": "role",
          "type": "bytes32"
        }
      ],
      "name": "getRoleAdmin",
      "outputs": [
        {
          "internalType": "bytes32",
          "name": "",
          "type": "bytes32"
        }
      ],
      "stateMutability": "view",
      "type": "function"
    },
    {
      "inputs": [
        {
          "internalType": "bytes32",
          "name": "role",
          "type": "bytes32"
        },
        {
          "internalType": "address",
          "name": "account",
          "type": "address"
        }
      ],
      "name": "grantRole",
      "outputs": [],
      "stateMutability": "nonpayable",
      "type": "function"
    },
    {
      "inputs": [
        {
          "internalType": "bytes32",
          "name": "role",
          "type": "bytes32"
        },
        {
          "internalType": "address",
          "name": "account",
          "type": "address"
        }
      ],
      "name": "hasRole",
      "outputs": [
        {
          "internalType": "bool",
          "name": "",
          "type": "bool"
        }
      ],
      "stateMutability": "view",
      "type": "function"
    },
    {
      "inputs": [],
      "name": "name",
      "outputs": [
        {
          "internalType": "string",
          "name": "",
          "type": "string"
        }
      ],
      "stateMutability": "view",
      "type": "function"
    },
    {
      "inputs": [
        {
          "internalType": "uint256",
          "name": "_amountIn",
          "type": "uint256"
        },
        {
          "internalType": "address",
          "name": "_tokenIn",
          "type": "address"
        },
        {
          "internalType": "address",
          "name": "_tokenOut",
          "type": "address"
        }
      ],
      "name": "query",
      "outputs": [
        {
          "internalType": "uint256",
          "name": "",
          "type": "uint256"
        }
      ],
      "stateMutability": "view",
      "type": "function"
    },
    {
      "inputs": [
        {
          "internalType": "uint256",
          "name": "_amount",
          "type": "uint256"
        }
      ],
      "name": "recoverAVAX",
      "outputs": [],
      "stateMutability": "nonpayable",
      "type": "function"
    },
    {
      "inputs": [
        {
          "internalType": "address",
          "name": "_tokenAddress",
          "type": "address"
        },
        {
          "internalType": "uint256",
          "name": "_tokenAmount",
          "type": "uint256"
        }
      ],
      "name": "recoverERC20",
      "outputs": [],
      "stateMutability": "nonpayable",
      "type": "function"
    },
    {
      "inputs": [
        {
          "internalType": "address",
          "name": "removedMaintainer",
          "type": "address"
        }
      ],
      "name": "removeMaintainer",
      "outputs": [],
      "stateMutability": "nonpayable",
      "type": "function"
    },
    {
      "inputs": [
        {
          "internalType": "bytes32",
          "name": "role",
          "type": "bytes32"
        },
        {
          "internalType": "address",
          "name": "account",
          "type": "address"
        }
      ],
      "name": "renounceRole",
      "outputs": [],
      "stateMutability": "nonpayable",
      "type": "function"
    },
    {
      "inputs": [
        {
          "internalType": "bytes32",
          "name": "role",
          "type": "bytes32"
        }
      ],
      "name": "renounceRole",
      "outputs": [],
      "stateMutability": "nonpayable",
      "type": "function"
    },
    {
      "inputs": [
        {
          "internalType": "address",
          "name": "_token",
          "type": "address"
        },
        {
          "internalType": "address",
          "name": "_spender",
          "type": "address"
        }
      ],
      "name": "revokeAllowance",
      "outputs": [],
      "stateMutability": "nonpayable",
      "type": "function"
    },
    {
      "inputs": [
        {
          "internalType": "bytes32",
          "name": "role",
          "type": "bytes32"
        },
        {
          "internalType": "address",
          "name": "account",
          "type": "address"
        }
      ],
      "name": "revokeRole",
      "outputs": [],
      "stateMutability": "nonpayable",
      "type": "function"
    },
    {
      "inputs": [
        {
          "internalType": "uint256",
          "name": "_estimate",
          "type": "uint256"
        }
      ],
      "name": "setSwapGasEstimate",
      "outputs": [],
      "stateMutability": "nonpayable",
      "type": "function"
    },
    {
      "inputs": [
        {
          "internalType": "bytes4",
          "name": "interfaceId",
          "type": "bytes4"
        }
      ],
      "name": "supportsInterface",
      "outputs": [
        {
          "internalType": "bool",
          "name": "",
          "type": "bool"
        }
      ],
      "stateMutability": "view",
      "type": "function"
    },
    {
      "inputs": [
        {
          "internalType": "uint256",
          "name": "_amountIn",
          "type": "uint256"
        },
        {
          "internalType": "uint256",
          "name": "_amountOut",
          "type": "uint256"
        },
        {
          "internalType": "address",
          "name": "_fromToken",
          "type": "address"
        },
        {
          "internalType": "address",
          "name": "_toToken",
          "type": "address"
        },
        {
          "internalType": "address",
          "name": "_to",
          "type": "address"
        }
      ],
      "name": "swap",
      "outputs": [],
      "stateMutability": "nonpayable",
      "type": "function"
    },
    {
      "inputs": [],
      "name": "swapGasEstimate",
      "outputs": [
        {
          "internalType": "uint256",
          "name": "",
          "type": "uint256"
        }
      ],
      "stateMutability": "view",
      "type": "function"
    },
    {
      "inputs": [
        {
          "internalType": "address",
          "name": "newOwner",
          "type": "address"
        }
      ],
      "name": "transferOwnership",
      "outputs": [],
      "stateMutability": "nonpayable",
      "type": "function"
    },
    {
      "stateMutability": "payable",
      "type": "receive"
    }
  ],
  "bytecode": {
    "object": "0x60a06040523480156200001157600080fd5b5060405162001ecb38038062001ecb833981016040819052620000349162000306565b828133620000446000826200009d565b620000707f339759585899103d2ace64958e37e18ccb0504652c81d4a1b8aa80fe2126ab95826200009d565b506200007c82620000ad565b620000878162000112565b5050506001600160a01b03166080525062000552565b620000a9828262000233565b5050565b8051600003620001045760405162461bcd60e51b815260206004820152601460248201527f496e76616c69642061646170746572206e616d6500000000000000000000000060448201526064015b60405180910390fd5b6002620000a9828262000486565b3360008181527fa54247010af6b3693b80aceddfad12e077c5de3571e6243fada502635f0d7d39602052604090205460ff16620001a35760405162461bcd60e51b815260206004820152602860248201527f4d61696e7461696e61626c653a2043616c6c6572206973206e6f742061206d6160448201526734b73a30b4b732b960c11b6064820152608401620000fb565b81600003620001f55760405162461bcd60e51b815260206004820152601460248201527f496e76616c6964206761732d657374696d6174650000000000000000000000006044820152606401620000fb565b600182905560405182815230907ff43f23b7a28e6f8ce6843a21bd7b48bce778aa913b8c8cf459edf7d770e8d38a9060200160405180910390a25050565b6000828152602081815260408083206001600160a01b038516845290915290205460ff16620000a9576000828152602081815260408083206001600160a01b03851684529091529020805460ff191660011790556200028f3390565b6001600160a01b0316816001600160a01b0316837f2f8788117e7eff1d82e926ec794901d17c78024a50270940304540a733656f0d60405160405180910390a45050565b634e487b7160e01b600052604160045260246000fd5b80516001600160a01b03811681146200030157600080fd5b919050565b6000806000606084860312156200031c57600080fd5b83516001600160401b03808211156200033457600080fd5b818601915086601f8301126200034957600080fd5b8151818111156200035e576200035e620002d3565b604051601f8201601f19908116603f01168101908382118183101715620003895762000389620002d3565b81604052828152602093508984848701011115620003a657600080fd5b600091505b82821015620003ca5784820184015181830185015290830190620003ab565b6000848483010152809750505050620003e5818701620002e9565b93505050604084015190509250925092565b600181811c908216806200040c57607f821691505b6020821081036200042d57634e487b7160e01b600052602260045260246000fd5b50919050565b601f8211156200048157600081815260208120601f850160051c810160208610156200045c5750805b601f850160051c820191505b818110156200047d5782815560010162000468565b5050505b505050565b81516001600160401b03811115620004a257620004a2620002d3565b620004ba81620004b38454620003f7565b8462000433565b602080601f831160018114620004f25760008415620004d95750858301515b600019600386901b1c1916600185901b1785556200047d565b600085815260208120601f198616915b82811015620005235788860151825594840194600190910190840162000502565b5085821015620005425787850151600019600388901b60f8161c191681555b5050505050600190811b01905550565b60805161194f6200057c600039600081816101e101528181610d5e0152610ee0015261194f6000f3fe60806040526004361061012e5760003560e01c806384a33e63116100ab578063d547741f1161006f578063d547741f14610368578063d8baf7cf14610388578063eab90da6146103a8578063ef99893a146103c8578063f2fde38b146103e8578063f87422541461040857600080fd5b806384a33e63146102d35780638980f11f146102f35780638bb9c5bf1461031357806391d1485414610333578063a217fddf1461035357600080fd5b806336568abe116100f257806336568abe1461023d5780634ebb79161461025d57806369cff80d1461027d5780636b453c1f146102935780637ae26773146102b357600080fd5b806301ffc9a71461013a57806306fdde031461016f578063248a9ca3146101915780632dd31000146101cf5780632f2ff15d1461021b57600080fd5b3661013557005b600080fd5b34801561014657600080fd5b5061015a61015536600461143b565b61042a565b60405190151581526020015b60405180910390f35b34801561017b57600080fd5b50610184610461565b60405161016691906114b5565b34801561019d57600080fd5b506101c16101ac3660046114c8565b60009081526020819052604090206001015490565b604051908152602001610166565b3480156101db57600080fd5b506102037f000000000000000000000000000000000000000000000000000000000000000081565b6040516001600160a01b039091168152602001610166565b34801561022757600080fd5b5061023b6102363660046114f6565b6104ef565b005b34801561024957600080fd5b5061023b6102583660046114f6565b610519565b34801561026957600080fd5b5061023b6102783660046114c8565b61059c565b34801561028957600080fd5b506101c160015481565b34801561029f57600080fd5b5061023b6102ae366004611526565b61068a565b3480156102bf57600080fd5b5061023b6102ce366004611543565b6106a5565b3480156102df57600080fd5b5061023b6102ee3660046114c8565b6106ef565b3480156102ff57600080fd5b5061023b61030e366004611571565b6107a2565b34801561031f57600080fd5b5061023b61032e3660046114c8565b610883565b34801561033f57600080fd5b5061015a61034e3660046114f6565b61088e565b34801561035f57600080fd5b506101c1600081565b34801561037457600080fd5b5061023b6103833660046114f6565b6108b7565b34801561039457600080fd5b5061023b6103a3366004611526565b6108dc565b3480156103b457600080fd5b5061023b6103c336600461159d565b6108f4565b3480156103d457600080fd5b506101c16103e33660046115fc565b610a9b565b3480156103f457600080fd5b5061023b610403366004611526565b610ab2565b34801561041457600080fd5b506101c16000805160206118fa83398151915281565b60006001600160e01b03198216637965db0b60e01b148061045b57506301ffc9a760e01b6001600160e01b03198316145b92915050565b6002805461046e9061163e565b80601f016020809104026020016040519081016040528092919081815260200182805461049a9061163e565b80156104e75780601f106104bc576101008083540402835291602001916104e7565b820191906000526020600020905b8154815290600101906020018083116104ca57829003601f168201915b505050505081565b60008281526020819052604090206001015461050a81610ac9565b6105148383610ad3565b505050565b6001600160a01b038116331461058e5760405162461bcd60e51b815260206004820152602f60248201527f416363657373436f6e74726f6c3a2063616e206f6e6c792072656e6f756e636560448201526e103937b632b9903337b91039b2b63360891b60648201526084015b60405180910390fd5b6105988282610b57565b5050565b336105b56000805160206118fa8339815191528261088e565b6105d15760405162461bcd60e51b815260040161058590611678565b600082116106215760405162461bcd60e51b815260206004820152601e60248201527f59616b416461707465723a204e6f7468696e6720746f207265636f76657200006044820152606401610585565b604051339083156108fc029084906000818181858888f1935050505015801561064e573d6000803e3d6000fd5b506040518281526000907f8c1256b8896378cd5044f80c202f9772b9d77dc85c8a6eb51967210b09bfaa28906020015b60405180910390a25050565b6106a26000805160206118fa833981519152826104ef565b50565b336106be6000805160206118fa8339815191528261088e565b6106da5760405162461bcd60e51b815260040161058590611678565b6105146001600160a01b038416836000610bbc565b336107086000805160206118fa8339815191528261088e565b6107245760405162461bcd60e51b815260040161058590611678565b8160000361076b5760405162461bcd60e51b8152602060048201526014602482015273496e76616c6964206761732d657374696d61746560601b6044820152606401610585565b600182905560405182815230907ff43f23b7a28e6f8ce6843a21bd7b48bce778aa913b8c8cf459edf7d770e8d38a9060200161067e565b336107bb6000805160206118fa8339815191528261088e565b6107d75760405162461bcd60e51b815260040161058590611678565b600082116108275760405162461bcd60e51b815260206004820152601e60248201527f59616b416461707465723a204e6f7468696e6720746f207265636f76657200006044820152606401610585565b61083b6001600160a01b0384163384610d04565b826001600160a01b03167f8c1256b8896378cd5044f80c202f9772b9d77dc85c8a6eb51967210b09bfaa288360405161087691815260200190565b60405180910390a2505050565b336105988282610519565b6000918252602082815260408084206001600160a01b0393909316845291905290205460ff1690565b6000828152602081905260409020600101546108d281610ac9565b6105148383610b57565b6106a26000805160206118fa833981519152826108b7565b6040516370a0823160e01b81526001600160a01b038281166004830152600091908416906370a0823190602401602060405180830381865afa15801561093e573d6000803e3d6000fd5b505050506040513d601f19601f8201168201806040525081019061096291906116c0565b90506109718686868686610d34565b6040516370a0823160e01b81526001600160a01b03838116600483015260009183918616906370a0823190602401602060405180830381865afa1580156109bc573d6000803e3d6000fd5b505050506040513d601f19601f820116820180604052508101906109e091906116c0565b6109ea91906116ef565b905085811015610a3c5760405162461bcd60e51b815260206004820152601760248201527f496e73756666696369656e7420616d6f756e742d6f75740000000000000000006044820152606401610585565b836001600160a01b0316856001600160a01b03167fe2bdbc6b7225eb0a972ac943c485a6cc05f7c6811838bce8903f23200fb744fa8989604051610a8a929190918252602082015260400190565b60405180910390a350505050505050565b6000610aa8848484610e89565b90505b9392505050565b33610abe6000836104ef565b610598600082610519565b6106a281336110ad565b610add828261088e565b610598576000828152602081815260408083206001600160a01b03851684529091529020805460ff19166001179055610b133390565b6001600160a01b0316816001600160a01b0316837f2f8788117e7eff1d82e926ec794901d17c78024a50270940304540a733656f0d60405160405180910390a45050565b610b61828261088e565b15610598576000828152602081815260408083206001600160a01b0385168085529252808320805460ff1916905551339285917ff6391f5c32d9c69d2a47ea670b442974b53935d1edc7fd64eb21e047a839171b9190a45050565b801580610c365750604051636eb1769f60e11b81523060048201526001600160a01b03838116602483015284169063dd62ed3e90604401602060405180830381865afa158015610c10573d6000803e3d6000fd5b505050506040513d601f19601f82011682018060405250810190610c3491906116c0565b155b610ca15760405162461bcd60e51b815260206004820152603660248201527f5361666545524332303a20617070726f76652066726f6d206e6f6e2d7a65726f60448201527520746f206e6f6e2d7a65726f20616c6c6f77616e636560501b6064820152608401610585565b6040516001600160a01b03831660248201526044810182905261051490849063095ea7b360e01b906064015b60408051601f198184030181529190526020810180516001600160e01b03166001600160e01b031990931692909217909152611111565b6040516001600160a01b03831660248201526044810182905261051490849063a9059cbb60e01b90606401610ccd565b60405163e6a4390560e01b81526001600160a01b03848116600483015283811660248301526000917f00000000000000000000000000000000000000000000000000000000000000009091169063e6a4390590604401602060405180830381865afa158015610da7573d6000803e3d6000fd5b505050506040513d601f19601f82011682018060405250810190610dcb9190611702565b9050600080846001600160a01b0316866001600160a01b031610610df157866000610df5565b6000875b9092509050610e0e6001600160a01b038716848a610d04565b6040805160008152602081019182905263022c0d9f60e01b9091526001600160a01b0384169063022c0d9f90610e4d9085908590899060248101611735565b600060405180830381600087803b158015610e6757600080fd5b505af1158015610e7b573d6000803e3d6000fd5b505050505050505050505050565b6000816001600160a01b0316836001600160a01b03161480610ea9575083155b15610eb657506000610aab565b60405163e6a4390560e01b81526001600160a01b03848116600483015283811660248301526000917f00000000000000000000000000000000000000000000000000000000000000009091169063e6a4390590604401602060405180830381865afa158015610f29573d6000803e3d6000fd5b505050506040513d601f19601f82011682018060405250810190610f4d9190611702565b90506001600160a01b038116610f67576000915050610aab565b600080826001600160a01b0316630902f1ac6040518163ffffffff1660e01b8152600401606060405180830381865afa158015610fa8573d6000803e3d6000fd5b505050506040513d601f19601f82011682018060405250810190610fcc9190611788565b506001600160701b031691506001600160701b03169150600080866001600160a01b0316886001600160a01b031610611006578284611009565b83835b9150915060008211801561101d5750600081115b156110a1576000856001600160a01b03166354cf2aeb6040518163ffffffff1660e01b8152600401602060405180830381865afa158015611062573d6000803e3d6000fd5b505050506040513d601f19601f8201168201806040525081019061108691906116c0565b90506110948a848484611240565b9650505050505050610aab565b50505050509392505050565b6110b7828261088e565b610598576110cf816001600160a01b0316601461129f565b6110da83602061129f565b6040516020016110eb9291906117cd565b60408051601f198184030181529082905262461bcd60e51b8252610585916004016114b5565b600080836001600160a01b03168360405161112c9190611842565b6000604051808303816000865af19150503d8060008114611169576040519150601f19603f3d011682016040523d82523d6000602084013e61116e565b606091505b5091509150816111c05760405162461bcd60e51b815260206004820181905260248201527f5361666545524332303a206c6f772d6c6576656c2063616c6c206661696c65646044820152606401610585565b80511561123a57808060200190518101906111db919061185e565b61123a5760405162461bcd60e51b815260206004820152602a60248201527f5361666545524332303a204552433230206f7065726174696f6e20646964206e6044820152691bdd081cdd58d8d9595960b21b6064820152608401610585565b50505050565b60008061124f836127106116ef565b9050600061125d8288611880565b9050600061126b8683611880565b905060008261127c6127108a611880565b6112869190611897565b905061129281836118aa565b9998505050505050505050565b606060006112ae836002611880565b6112b9906002611897565b67ffffffffffffffff8111156112d1576112d161171f565b6040519080825280601f01601f1916602001820160405280156112fb576020820181803683370190505b509050600360fc1b81600081518110611316576113166118cc565b60200101906001600160f81b031916908160001a905350600f60fb1b81600181518110611345576113456118cc565b60200101906001600160f81b031916908160001a9053506000611369846002611880565b611374906001611897565b90505b60018111156113ec576f181899199a1a9b1b9c1cb0b131b232b360811b85600f16601081106113a8576113a86118cc565b1a60f81b8282815181106113be576113be6118cc565b60200101906001600160f81b031916908160001a90535060049490941c936113e5816118e2565b9050611377565b508315610aab5760405162461bcd60e51b815260206004820181905260248201527f537472696e67733a20686578206c656e67746820696e73756666696369656e746044820152606401610585565b60006020828403121561144d57600080fd5b81356001600160e01b031981168114610aab57600080fd5b60005b83811015611480578181015183820152602001611468565b50506000910152565b600081518084526114a1816020860160208601611465565b601f01601f19169290920160200192915050565b602081526000610aab6020830184611489565b6000602082840312156114da57600080fd5b5035919050565b6001600160a01b03811681146106a257600080fd5b6000806040838503121561150957600080fd5b82359150602083013561151b816114e1565b809150509250929050565b60006020828403121561153857600080fd5b8135610aab816114e1565b6000806040838503121561155657600080fd5b8235611561816114e1565b9150602083013561151b816114e1565b6000806040838503121561158457600080fd5b823561158f816114e1565b946020939093013593505050565b600080600080600060a086880312156115b557600080fd5b853594506020860135935060408601356115ce816114e1565b925060608601356115de816114e1565b915060808601356115ee816114e1565b809150509295509295909350565b60008060006060848603121561161157600080fd5b833592506020840135611623816114e1565b91506040840135611633816114e1565b809150509250925092565b600181811c9082168061165257607f821691505b60208210810361167257634e487b7160e01b600052602260045260246000fd5b50919050565b60208082526028908201527f4d61696e7461696e61626c653a2043616c6c6572206973206e6f742061206d6160408201526734b73a30b4b732b960c11b606082015260800190565b6000602082840312156116d257600080fd5b5051919050565b634e487b7160e01b600052601160045260246000fd5b8181038181111561045b5761045b6116d9565b60006020828403121561171457600080fd5b8151610aab816114e1565b634e487b7160e01b600052604160045260246000fd5b84815283602082015260018060a01b03831660408201526080606082015260006117626080830184611489565b9695505050505050565b80516001600160701b038116811461178357600080fd5b919050565b60008060006060848603121561179d57600080fd5b6117a68461176c565b92506117b46020850161176c565b9150604084015163ffffffff8116811461163357600080fd5b7f416363657373436f6e74726f6c3a206163636f756e7420000000000000000000815260008351611805816017850160208801611465565b7001034b99036b4b9b9b4b733903937b6329607d1b6017918401918201528351611836816028840160208801611465565b01602801949350505050565b60008251611854818460208701611465565b9190910192915050565b60006020828403121561187057600080fd5b81518015158114610aab57600080fd5b808202811582820484141761045b5761045b6116d9565b8082018082111561045b5761045b6116d9565b6000826118c757634e487b7160e01b600052601260045260246000fd5b500490565b634e487b7160e01b600052603260045260246000fd5b6000816118f1576118f16116d9565b50600019019056fe339759585899103d2ace64958e37e18ccb0504652c81d4a1b8aa80fe2126ab95a2646970667358221220b4bede7ac73c082ae9c5ef4ec2c86e670c1bc4fcb4c9116700108a5eadf0f4d964736f6c63430008110033",
    "linkReferences": {}
  },
  "methodIdentifiers": {
    "DEFAULT_ADMIN_ROLE()": "a217fddf",
    "FACTORY()": "2dd31000",
    "MAINTAINER_ROLE()": "f8742254",
    "addMaintainer(address)": "6b453c1f",
    "getRoleAdmin(bytes32)": "248a9ca3",
    "grantRole(bytes32,address)": "2f2ff15d",
    "hasRole(bytes32,address)": "91d14854",
    "name()": "06fdde03",
    "query(uint256,address,address)": "ef99893a",
    "recoverAVAX(uint256)": "4ebb7916",
    "recoverERC20(address,uint256)": "8980f11f",
    "removeMaintainer(address)": "d8baf7cf",
    "renounceRole(bytes32)": "8bb9c5bf",
    "renounceRole(bytes32,address)": "36568abe",
    "revokeAllowance(address,address)": "7ae26773",
    "revokeRole(bytes32,address)": "d547741f",
    "setSwapGasEstimate(uint256)": "84a33e63",
    "supportsInterface(bytes4)": "01ffc9a7",
    "swap(uint256,uint256,address,address,address)": "eab90da6",
    "swapGasEstimate()": "69cff80d",
    "transferOwnership(address)": "f2fde38b"
  },
  "id": 26
}