{
  "abi": [
    {
      "inputs": [
        {
          "internalType": "string",
          "name": "_tokenName",
          "type": "string"
        },
        {
          "internalType": "string",
          "name": "_tokenSymbol",
          "type": "string"
        }
      ],
      "stateMutability": "nonpayable",
      "type": "constructor"
    },
    {
      "anonymous": false,
      "inputs": [
        {
          "indexed": false,
          "internalType": "uint256",
          "name": "chainId",
          "type": "uint256"
        }
      ],
      "name": "AddSupportedChainId",
      "type": "event"
    },
    {
      "anonymous": false,
      "inputs": [
        {
          "indexed": false,
          "internalType": "address",
          "name": "contractAddress",
          "type": "address"
        },
        {
          "indexed": false,
          "internalType": "uint256",
          "name": "supplyIncrement",
          "type": "uint256"
        }
      ],
      "name": "AddSwapToken",
      "type": "event"
    },
    {
      "anonymous": false,
      "inputs": [
        {
          "indexed": true,
          "internalType": "address",
          "name": "owner",
          "type": "address"
        },
        {
          "indexed": true,
          "internalType": "address",
          "name": "spender",
          "type": "address"
        },
        {
          "indexed": false,
          "internalType": "uint256",
          "name": "value",
          "type": "uint256"
        }
      ],
      "name": "Approval",
      "type": "event"
    },
    {
      "anonymous": false,
      "inputs": [
        {
          "indexed": false,
          "internalType": "address",
          "name": "newBridgeRoleAddress",
          "type": "address"
        }
      ],
      "name": "MigrateBridgeRole",
      "type": "event"
    },
    {
      "anonymous": false,
      "inputs": [
        {
          "indexed": false,
          "internalType": "address",
          "name": "to",
          "type": "address"
        },
        {
          "indexed": false,
          "internalType": "uint256",
          "name": "amount",
          "type": "uint256"
        },
        {
          "indexed": false,
          "internalType": "address",
          "name": "feeAddress",
          "type": "address"
        },
        {
          "indexed": false,
          "internalType": "uint256",
          "name": "feeAmount",
          "type": "uint256"
        },
        {
          "indexed": false,
          "internalType": "bytes32",
          "name": "originTxId",
          "type": "bytes32"
        }
      ],
      "name": "Mint",
      "type": "event"
    },
    {
      "anonymous": false,
      "inputs": [
        {
          "indexed": false,
          "internalType": "address",
          "name": "contractAddress",
          "type": "address"
        },
        {
          "indexed": false,
          "internalType": "uint256",
          "name": "supplyDecrement",
          "type": "uint256"
        }
      ],
      "name": "RemoveSwapToken",
      "type": "event"
    },
    {
      "anonymous": false,
      "inputs": [
        {
          "indexed": false,
          "internalType": "address",
          "name": "token",
          "type": "address"
        },
        {
          "indexed": false,
          "internalType": "uint256",
          "name": "amount",
          "type": "uint256"
        }
      ],
      "name": "Swap",
      "type": "event"
    },
    {
      "anonymous": false,
      "inputs": [
        {
          "indexed": true,
          "internalType": "address",
          "name": "from",
          "type": "address"
        },
        {
          "indexed": true,
          "internalType": "address",
          "name": "to",
          "type": "address"
        },
        {
          "indexed": false,
          "internalType": "uint256",
          "name": "value",
          "type": "uint256"
        }
      ],
      "name": "Transfer",
      "type": "event"
    },
    {
      "anonymous": false,
      "inputs": [
        {
          "indexed": false,
          "internalType": "uint256",
          "name": "amount",
          "type": "uint256"
        },
        {
          "indexed": false,
          "internalType": "uint256",
          "name": "chainId",
          "type": "uint256"
        }
      ],
      "name": "Unwrap",
      "type": "event"
    },
    {
      "inputs": [
        {
          "internalType": "uint256",
          "name": "chainId",
          "type": "uint256"
        }
      ],
      "name": "addSupportedChainId",
      "outputs": [],
      "stateMutability": "nonpayable",
      "type": "function"
    },
    {
      "inputs": [
        {
          "internalType": "address",
          "name": "contractAddress",
          "type": "address"
        },
        {
          "internalType": "uint256",
          "name": "supplyIncrement",
          "type": "uint256"
        }
      ],
      "name": "addSwapToken",
      "outputs": [],
      "stateMutability": "nonpayable",
      "type": "function"
    },
    {
      "inputs": [
        {
          "internalType": "address",
          "name": "owner",
          "type": "address"
        },
        {
          "internalType": "address",
          "name": "spender",
          "type": "address"
        }
      ],
      "name": "allowance",
      "outputs": [
        {
          "internalType": "uint256",
          "name": "",
          "type": "uint256"
        }
      ],
      "stateMutability": "view",
      "type": "function"
    },
    {
      "inputs": [
        {
          "internalType": "address",
          "name": "spender",
          "type": "address"
        },
        {
          "internalType": "uint256",
          "name": "amount",
          "type": "uint256"
        }
      ],
      "name": "approve",
      "outputs": [
        {
          "internalType": "bool",
          "name": "",
          "type": "bool"
        }
      ],
      "stateMutability": "nonpayable",
      "type": "function"
    },
    {
      "inputs": [
        {
          "internalType": "address",
          "name": "account",
          "type": "address"
        }
      ],
      "name": "balanceOf",
      "outputs": [
        {
          "internalType": "uint256",
          "name": "",
          "type": "uint256"
        }
      ],
      "stateMutability": "view",
      "type": "function"
    },
    {
      "inputs": [
        {
          "internalType": "uint256",
          "name": "amount",
          "type": "uint256"
        }
      ],
      "name": "burn",
      "outputs": [],
      "stateMutability": "nonpayable",
      "type": "function"
    },
    {
      "inputs": [
        {
          "internalType": "address",
          "name": "account",
          "type": "address"
        },
        {
          "internalType": "uint256",
          "name": "amount",
          "type": "uint256"
        }
      ],
      "name": "burnFrom",
      "outputs": [],
      "stateMutability": "nonpayable",
      "type": "function"
    },
    {
      "inputs": [
        {
          "internalType": "uint256",
          "name": "",
          "type": "uint256"
        }
      ],
      "name": "chainIds",
      "outputs": [
        {
          "internalType": "bool",
          "name": "",
          "type": "bool"
        }
      ],
      "stateMutability": "view",
      "type": "function"
    },
    {
      "inputs": [],
      "name": "decimals",
      "outputs": [
        {
          "internalType": "uint8",
          "name": "",
          "type": "uint8"
        }
      ],
      "stateMutability": "view",
      "type": "function"
    },
    {
      "inputs": [
        {
          "internalType": "address",
          "name": "spender",
          "type": "address"
        },
        {
          "internalType": "uint256",
          "name": "subtractedValue",
          "type": "uint256"
        }
      ],
      "name": "decreaseAllowance",
      "outputs": [
        {
          "internalType": "bool",
          "name": "",
          "type": "bool"
        }
      ],
      "stateMutability": "nonpayable",
      "type": "function"
    },
    {
      "inputs": [
        {
          "internalType": "address",
          "name": "spender",
          "type": "address"
        },
        {
          "internalType": "uint256",
          "name": "addedValue",
          "type": "uint256"
        }
      ],
      "name": "increaseAllowance",
      "outputs": [
        {
          "internalType": "bool",
          "name": "",
          "type": "bool"
        }
      ],
      "stateMutability": "nonpayable",
      "type": "function"
    },
    {
      "inputs": [
        {
          "internalType": "address",
          "name": "newBridgeRoleAddress",
          "type": "address"
        }
      ],
      "name": "migrateBridgeRole",
      "outputs": [],
      "stateMutability": "nonpayable",
      "type": "function"
    },
    {
      "inputs": [
        {
          "internalType": "address",
          "name": "_to",
          "type": "address"
        },
        {
          "internalType": "uint256",
          "name": "_amount",
          "type": "uint256"
        }
      ],
      "name": "mint",
      "outputs": [],
      "stateMutability": "nonpayable",
      "type": "function"
    },
    {
      "inputs": [
        {
          "internalType": "address",
          "name": "to",
          "type": "address"
        },
        {
          "internalType": "uint256",
          "name": "amount",
          "type": "uint256"
        },
        {
          "internalType": "address",
          "name": "feeAddress",
          "type": "address"
        },
        {
          "internalType": "uint256",
          "name": "feeAmount",
          "type": "uint256"
        },
        {
          "internalType": "bytes32",
          "name": "originTxId",
          "type": "bytes32"
        }
      ],
      "name": "mint",
      "outputs": [],
      "stateMutability": "nonpayable",
      "type": "function"
    },
    {
      "inputs": [],
      "name": "name",
      "outputs": [
        {
          "internalType": "string",
          "name": "",
          "type": "string"
        }
      ],
      "stateMutability": "view",
      "type": "function"
    },
    {
      "inputs": [
        {
          "internalType": "address",
          "name": "contractAddress",
          "type": "address"
        },
        {
          "internalType": "uint256",
          "name": "supplyDecrement",
          "type": "uint256"
        }
      ],
      "name": "removeSwapToken",
      "outputs": [],
      "stateMutability": "nonpayable",
      "type": "function"
    },
    {
      "inputs": [
        {
          "internalType": "address",
          "name": "token",
          "type": "address"
        },
        {
          "internalType": "uint256",
          "name": "amount",
          "type": "uint256"
        }
      ],
      "name": "swap",
      "outputs": [],
      "stateMutability": "nonpayable",
      "type": "function"
    },
    {
      "inputs": [
        {
          "internalType": "address",
          "name": "token",
          "type": "address"
        }
      ],
      "name": "swapSupply",
      "outputs": [
        {
          "internalType": "uint256",
          "name": "",
          "type": "uint256"
        }
      ],
      "stateMutability": "view",
      "type": "function"
    },
    {
      "inputs": [
        {
          "internalType": "address",
          "name": "",
          "type": "address"
        }
      ],
      "name": "swapTokens",
      "outputs": [
        {
          "internalType": "address",
          "name": "tokenContract",
          "type": "address"
        },
        {
          "internalType": "uint256",
          "name": "supply",
          "type": "uint256"
        }
      ],
      "stateMutability": "view",
      "type": "function"
    },
    {
      "inputs": [],
      "name": "symbol",
      "outputs": [
        {
          "internalType": "string",
          "name": "",
          "type": "string"
        }
      ],
      "stateMutability": "view",
      "type": "function"
    },
    {
      "inputs": [],
      "name": "totalSupply",
      "outputs": [
        {
          "internalType": "uint256",
          "name": "",
          "type": "uint256"
        }
      ],
      "stateMutability": "view",
      "type": "function"
    },
    {
      "inputs": [
        {
          "internalType": "address",
          "name": "to",
          "type": "address"
        },
        {
          "internalType": "uint256",
          "name": "amount",
          "type": "uint256"
        }
      ],
      "name": "transfer",
      "outputs": [
        {
          "internalType": "bool",
          "name": "",
          "type": "bool"
        }
      ],
      "stateMutability": "nonpayable",
      "type": "function"
    },
    {
      "inputs": [
        {
          "internalType": "address",
          "name": "from",
          "type": "address"
        },
        {
          "internalType": "address",
          "name": "to",
          "type": "address"
        },
        {
          "internalType": "uint256",
          "name": "amount",
          "type": "uint256"
        }
      ],
      "name": "transferFrom",
      "outputs": [
        {
          "internalType": "bool",
          "name": "",
          "type": "bool"
        }
      ],
      "stateMutability": "nonpayable",
      "type": "function"
    },
    {
      "inputs": [
        {
          "internalType": "uint256",
          "name": "amount",
          "type": "uint256"
        },
        {
          "internalType": "uint256",
          "name": "chainId",
          "type": "uint256"
        }
      ],
      "name": "unwrap",
      "outputs": [],
      "stateMutability": "nonpayable",
      "type": "function"
    }
  ],
  "bytecode": {
    "object": "0x60806040523480156200001157600080fd5b5060405162001bbd38038062001bbd833981016040819052620000349162000291565b818160036200004483826200038a565b5060046200005382826200038a565b506006915062000066905083826200038a565b5060076200007582826200038a565b5062000091336005620000ce60201b62000dd81790919060201c565b50506000805260096020527fec8156718a8372b1db44bb411437d0870f3e3790d4a08526d024ce1b0b668f6b805460ff1916600117905562000456565b620000da828262000152565b156200012d5760405162461bcd60e51b815260206004820152601860248201527f4163636f756e7420616c72656164792068617320726f6c65000000000000000060448201526064015b60405180910390fd5b6001600160a01b0316600090815260209190915260409020805460ff19166001179055565b60006001600160a01b038216620001ac5760405162461bcd60e51b815260206004820152601b60248201527f4163636f756e7420697320746865207a65726f20616464726573730000000000604482015260640162000124565b506001600160a01b03166000908152602091909152604090205460ff1690565b634e487b7160e01b600052604160045260246000fd5b600082601f830112620001f457600080fd5b81516001600160401b0380821115620002115762000211620001cc565b604051601f8301601f19908116603f011681019082821181831017156200023c576200023c620001cc565b816040528381526020925086838588010111156200025957600080fd5b600091505b838210156200027d57858201830151818301840152908201906200025e565b600093810190920192909252949350505050565b60008060408385031215620002a557600080fd5b82516001600160401b0380821115620002bd57600080fd5b620002cb86838701620001e2565b93506020850151915080821115620002e257600080fd5b50620002f185828601620001e2565b9150509250929050565b600181811c908216806200031057607f821691505b6020821081036200033157634e487b7160e01b600052602260045260246000fd5b50919050565b601f8211156200038557600081815260208120601f850160051c81016020861015620003605750805b601f850160051c820191505b8181101562000381578281556001016200036c565b5050505b505050565b81516001600160401b03811115620003a657620003a6620001cc565b620003be81620003b78454620002fb565b8462000337565b602080601f831160018114620003f65760008415620003dd5750858301515b600019600386901b1c1916600185901b17855562000381565b600085815260208120601f198616915b82811015620004275788860151825594840194600190910190840162000406565b5085821015620004465787850151600019600388901b60f8161c191681555b5050505050600190811b01905550565b61175780620004666000396000f3fe608060405234801561001057600080fd5b50600436106101585760003560e01c806367fc19bb116100c3578063a457c2d71161007c578063a457c2d714610325578063a9059cbb14610338578063ab32dbb71461034b578063d004f0f714610377578063dd62ed3e1461038a578063eff038301461039d57600080fd5b806367fc19bb146102a85780636e286671146102bb57806370a08231146102ce57806379cc6790146102f75780637c38b4571461030a57806395d89b411461031d57600080fd5b8063313ce56711610115578063313ce56714610238578063395093511461024757806340c10f191461025a57806342966c681461026f5780635d9898d31461028257806366de3b361461029557600080fd5b806306fdde031461015d578063095ea7b31461017b5780630fcf41ae1461019e57806318160ddd146101f057806321d930901461020257806323b872dd14610225575b600080fd5b6101656103b0565b60405161017291906114d6565b60405180910390f35b61018e610189366004611540565b610442565b6040519015158152602001610172565b6101d16101ac36600461156a565b600860205260009081526040902080546001909101546001600160a01b039091169082565b604080516001600160a01b039093168352602083019190915201610172565b6002545b604051908152602001610172565b61018e61021036600461158c565b60096020526000908152604090205460ff1681565b61018e6102333660046115a5565b61045c565b60405160128152602001610172565b61018e610255366004611540565b610480565b61026d610268366004611540565b6104a2565b005b61026d61027d36600461158c565b6104b0565b61026d61029036600461156a565b6104bd565b61026d6102a336600461158c565b610542565b61026d6102b63660046115e1565b61062f565b61026d6102c936600461162f565b6106cf565b6101f46102dc36600461156a565b6001600160a01b031660009081526020819052604090205490565b61026d610305366004611540565b6107c1565b61026d610318366004611540565b6107d6565b6101656109a1565b61018e610333366004611540565b6109b0565b61018e610346366004611540565b610a2b565b6101f461035936600461156a565b6001600160a01b031660009081526008602052604090206001015490565b61026d610385366004611540565b610a39565b6101f4610398366004611651565b610c4f565b61026d6103ab366004611540565b610c7a565b6060600380546103bf90611684565b80601f01602080910402602001604051908101604052809291908181526020018280546103eb90611684565b80156104385780601f1061040d57610100808354040283529160200191610438565b820191906000526020600020905b81548152906001019060200180831161041b57829003601f168201915b5050505050905090565b600033610450818585610e54565b60019150505b92915050565b60003361046a858285610f79565b610475858585610ff3565b506001949350505050565b6000336104508185856104938383610c4f565b61049d91906116d4565b610e54565b6104ac82826111c1565b5050565b6104ba33826112a0565b50565b6104c86005336113e6565b6104ed5760405162461bcd60e51b81526004016104e4906116e7565b60405180910390fd5b6104f860053361145e565b610503600582610dd8565b6040516001600160a01b03821681527f871b00a4e20f8436702d0174eb87d84d7cd1dd5c34d4bb1b4e75438b3398d5129060200160405180910390a150565b61054d6005336113e6565b6105695760405162461bcd60e51b81526004016104e4906116e7565b468082036105b95760405162461bcd60e51b815260206004820152601c60248201527f43616e6e6f74206164642063757272656e7420636861696e2049442e0000000060448201526064016104e4565b60008281526009602052604090205460ff1615156001036105d8575050565b60008281526009602052604090819020805460ff19166001179055517f677e2d9a4ed9201aa86725fef875137fc53876e6b68036b974404762682bd122906106239084815260200190565b60405180910390a15050565b61063a6005336113e6565b6106565760405162461bcd60e51b81526004016104e4906116e7565b61066085856111c1565b81156106705761067083836111c1565b604080516001600160a01b03878116825260208201879052851681830152606081018490526080810183905290517f918d77674bb88eaf75afb307c9723ea6037706de68d6fc07dd0c6cba423a52509181900360a00190a15050505050565b32331461071e5760405162461bcd60e51b815260206004820152601d60248201527f436f6e74726163742063616c6c73206e6f7420737570706f727465642e00000060448201526064016104e4565b60008181526009602052604090205460ff1615156001146107815760405162461bcd60e51b815260206004820152601760248201527f436861696e204944206e6f7420737570706f727465642e00000000000000000060448201526064016104e4565b61078b33836112a0565b60408051838152602081018390527f37a06799a3500428a773d00284aa706101f5ad94dae9ec37e1c3773aa54c33049101610623565b6107cc823383610f79565b6104ac82826112a0565b6107e16005336113e6565b61081c5760405162461bcd60e51b815260206004820152600c60248201526b155b985d5d1a1bdc9a5e995960a21b60448201526064016104e4565b813b6108655760405162461bcd60e51b815260206004820152601860248201527720b2323932b9b99034b9903737ba1031b7b73a3930b1ba1760411b60448201526064016104e4565b6001600160a01b03828116600090815260086020526040902054166108cc5760405162461bcd60e51b815260206004820152601860248201527f5377617020746f6b656e206e6f7420737570706f72746564000000000000000060448201526064016104e4565b6001600160a01b038216600090815260086020526040902060010154811015610937576001600160a01b03821660009081526008602052604090206001015461091690829061170e565b6001600160a01b038316600090815260086020526040902060010155610962565b6001600160a01b038216600090815260086020526040812080546001600160a01b0319168155600101555b604080516001600160a01b0384168152602081018390527fd3b4025ff115b79bf2ec5a73c9c784ba8aa9f8f6ba9186b255895c1a9f9042a39101610623565b6060600480546103bf90611684565b600033816109be8286610c4f565b905083811015610a1e5760405162461bcd60e51b815260206004820152602560248201527f45524332303a2064656372656173656420616c6c6f77616e63652062656c6f77604482015264207a65726f60d81b60648201526084016104e4565b6104758286868403610e54565b600033610450818585610ff3565b813b610a875760405162461bcd60e51b815260206004820152601860248201527f546f6b656e206973206e6f74206120636f6e74726163742e000000000000000060448201526064016104e4565b6001600160a01b0382811660009081526008602052604090205416610aee5760405162461bcd60e51b815260206004820152601d60248201527f5377617020746f6b656e206973206e6f74206120636f6e74726163742e00000060448201526064016104e4565b6001600160a01b038216600090815260086020526040902060010154811115610b595760405162461bcd60e51b815260206004820181905260248201527f5377617020616d6f756e74206973206d6f7265207468616e20737570706c792e60448201526064016104e4565b6001600160a01b038216600090815260086020526040902060010154610b8090829061170e565b6001600160a01b038381166000908152600860205260409081902060018101939093559154915163079cc67960e41b81523360048201526024810184905291169081906379cc679090604401600060405180830381600087803b158015610be657600080fd5b505af1158015610bfa573d6000803e3d6000fd5b50505050610c0833836111c1565b604080516001600160a01b0385168152602081018490527f562c219552544ec4c9d7a8eb850f80ea152973e315372bf4999fe7c953ea004f910160405180910390a1505050565b6001600160a01b03918216600090815260016020908152604080832093909416825291909152205490565b610c856005336113e6565b610ca15760405162461bcd60e51b81526004016104e4906116e7565b813b610cea5760405162461bcd60e51b815260206004820152601860248201527720b2323932b9b99034b9903737ba1031b7b73a3930b1ba1760411b60448201526064016104e4565b6001600160a01b0382811660009081526008602052604090205416610d55576040805180820182526001600160a01b03848116808352602080840186815260009283526008909152939020915182546001600160a01b03191691161781559051600190910155610d99565b6001600160a01b038216600090815260086020526040902060010154610d7c9082906116d4565b6001600160a01b0383166000908152600860205260409020600101555b604080516001600160a01b0384168152602081018390527f3e4fdfb0f47da284fe8b5b3a7e5d10b211e323c9a0c144c421ae1d211873f8539101610623565b610de282826113e6565b15610e2f5760405162461bcd60e51b815260206004820152601860248201527f4163636f756e7420616c72656164792068617320726f6c65000000000000000060448201526064016104e4565b6001600160a01b0316600090815260209190915260409020805460ff19166001179055565b6001600160a01b038316610eb65760405162461bcd60e51b8152602060048201526024808201527f45524332303a20617070726f76652066726f6d20746865207a65726f206164646044820152637265737360e01b60648201526084016104e4565b6001600160a01b038216610f175760405162461bcd60e51b815260206004820152602260248201527f45524332303a20617070726f766520746f20746865207a65726f206164647265604482015261737360f01b60648201526084016104e4565b6001600160a01b0383811660008181526001602090815260408083209487168084529482529182902085905590518481527f8c5be1e5ebec7d5bd14f71427d1e84f3dd0314c0f7b2291e5b200ac8c7c3b92591015b60405180910390a3505050565b6000610f858484610c4f565b90506000198114610fed5781811015610fe05760405162461bcd60e51b815260206004820152601d60248201527f45524332303a20696e73756666696369656e7420616c6c6f77616e636500000060448201526064016104e4565b610fed8484848403610e54565b50505050565b6001600160a01b0383166110575760405162461bcd60e51b815260206004820152602560248201527f45524332303a207472616e736665722066726f6d20746865207a65726f206164604482015264647265737360d81b60648201526084016104e4565b6001600160a01b0382166110b95760405162461bcd60e51b815260206004820152602360248201527f45524332303a207472616e7366657220746f20746865207a65726f206164647260448201526265737360e81b60648201526084016104e4565b6001600160a01b038316600090815260208190526040902054818110156111315760405162461bcd60e51b815260206004820152602660248201527f45524332303a207472616e7366657220616d6f756e7420657863656564732062604482015265616c616e636560d01b60648201526084016104e4565b6001600160a01b038085166000908152602081905260408082208585039055918516815290812080548492906111689084906116d4565b92505081905550826001600160a01b0316846001600160a01b03167fddf252ad1be2c89b69c2b068fc378daa952ba7f163c4a11628f55a4df523b3ef846040516111b491815260200190565b60405180910390a3610fed565b6001600160a01b0382166112175760405162461bcd60e51b815260206004820152601f60248201527f45524332303a206d696e7420746f20746865207a65726f20616464726573730060448201526064016104e4565b806002600082825461122991906116d4565b90915550506001600160a01b038216600090815260208190526040812080548392906112569084906116d4565b90915550506040518181526001600160a01b038316906000907fddf252ad1be2c89b69c2b068fc378daa952ba7f163c4a11628f55a4df523b3ef9060200160405180910390a35050565b6001600160a01b0382166113005760405162461bcd60e51b815260206004820152602160248201527f45524332303a206275726e2066726f6d20746865207a65726f206164647265736044820152607360f81b60648201526084016104e4565b6001600160a01b038216600090815260208190526040902054818110156113745760405162461bcd60e51b815260206004820152602260248201527f45524332303a206275726e20616d6f756e7420657863656564732062616c616e604482015261636560f01b60648201526084016104e4565b6001600160a01b03831660009081526020819052604081208383039055600280548492906113a390849061170e565b90915550506040518281526000906001600160a01b038516907fddf252ad1be2c89b69c2b068fc378daa952ba7f163c4a11628f55a4df523b3ef90602001610f6c565b60006001600160a01b03821661143e5760405162461bcd60e51b815260206004820152601b60248201527f4163636f756e7420697320746865207a65726f2061646472657373000000000060448201526064016104e4565b506001600160a01b03166000908152602091909152604090205460ff1690565b61146882826113e6565b6114b45760405162461bcd60e51b815260206004820152601a60248201527f4163636f756e7420646f6573206e6f74206861766520726f6c6500000000000060448201526064016104e4565b6001600160a01b0316600090815260209190915260409020805460ff19169055565b600060208083528351808285015260005b81811015611503578581018301518582016040015282016114e7565b506000604082860101526040601f19601f8301168501019250505092915050565b80356001600160a01b038116811461153b57600080fd5b919050565b6000806040838503121561155357600080fd5b61155c83611524565b946020939093013593505050565b60006020828403121561157c57600080fd5b61158582611524565b9392505050565b60006020828403121561159e57600080fd5b5035919050565b6000806000606084860312156115ba57600080fd5b6115c384611524565b92506115d160208501611524565b9150604084013590509250925092565b600080600080600060a086880312156115f957600080fd5b61160286611524565b94506020860135935061161760408701611524565b94979396509394606081013594506080013592915050565b6000806040838503121561164257600080fd5b50508035926020909101359150565b6000806040838503121561166457600080fd5b61166d83611524565b915061167b60208401611524565b90509250929050565b600181811c9082168061169857607f821691505b6020821081036116b857634e487b7160e01b600052602260045260246000fd5b50919050565b634e487b7160e01b600052601160045260246000fd5b80820180821115610456576104566116be565b6020808252600d908201526c2ab730baba3437b934bd32b21760991b604082015260600190565b81810381811115610456576104566116be56fea26469706673582212203971800a66029de753e10eb705062c727433c99dc5997f147d609f03195eca1964736f6c63430008110033",
    "linkReferences": {}
  },
  "methodIdentifiers": {
    "addSupportedChainId(uint256)": "66de3b36",
    "addSwapToken(address,uint256)": "eff03830",
    "allowance(address,address)": "dd62ed3e",
    "approve(address,uint256)": "095ea7b3",
    "balanceOf(address)": "70a08231",
    "burn(uint256)": "42966c68",
    "burnFrom(address,uint256)": "79cc6790",
    "chainIds(uint256)": "21d93090",
    "decimals()": "313ce567",
    "decreaseAllowance(address,uint256)": "a457c2d7",
    "increaseAllowance(address,uint256)": "39509351",
    "migrateBridgeRole(address)": "5d9898d3",
    "mint(address,uint256)": "40c10f19",
    "mint(address,uint256,address,uint256,bytes32)": "67fc19bb",
    "name()": "06fdde03",
    "removeSwapToken(address,uint256)": "7c38b457",
    "swap(address,uint256)": "d004f0f7",
    "swapSupply(address)": "ab32dbb7",
    "swapTokens(address)": "0fcf41ae",
    "symbol()": "95d89b41",
    "totalSupply()": "18160ddd",
    "transfer(address,uint256)": "a9059cbb",
    "transferFrom(address,address,uint256)": "23b872dd",
    "unwrap(uint256,uint256)": "6e286671"
  },
  "id": 81
}