{
  "abi": [
    {
      "inputs": [
        {
          "internalType": "string",
          "name": "_name",
          "type": "string"
        },
        {
          "internalType": "address",
          "name": "_factory",
          "type": "address"
        },
        {
          "internalType": "uint256",
          "name": "_fee",
          "type": "uint256"
        },
        {
          "internalType": "uint256",
          "name": "_swapGasEstimate",
          "type": "uint256"
        }
      ],
      "stateMutability": "nonpayable",
      "type": "constructor"
    },
    {
      "anonymous": false,
      "inputs": [
        {
          "indexed": true,
          "internalType": "address",
          "name": "_asset",
          "type": "address"
        },
        {
          "indexed": false,
          "internalType": "uint256",
          "name": "amount",
          "type": "uint256"
        }
      ],
      "name": "Recovered",
      "type": "event"
    },
    {
      "anonymous": false,
      "inputs": [
        {
          "indexed": true,
          "internalType": "bytes32",
          "name": "role",
          "type": "bytes32"
        },
        {
          "indexed": true,
          "internalType": "bytes32",
          "name": "previousAdminRole",
          "type": "bytes32"
        },
        {
          "indexed": true,
          "internalType": "bytes32",
          "name": "newAdminRole",
          "type": "bytes32"
        }
      ],
      "name": "RoleAdminChanged",
      "type": "event"
    },
    {
      "anonymous": false,
      "inputs": [
        {
          "indexed": true,
          "internalType": "bytes32",
          "name": "role",
          "type": "bytes32"
        },
        {
          "indexed": true,
          "internalType": "address",
          "name": "account",
          "type": "address"
        },
        {
          "indexed": true,
          "internalType": "address",
          "name": "sender",
          "type": "address"
        }
      ],
      "name": "RoleGranted",
      "type": "event"
    },
    {
      "anonymous": false,
      "inputs": [
        {
          "indexed": true,
          "internalType": "bytes32",
          "name": "role",
          "type": "bytes32"
        },
        {
          "indexed": true,
          "internalType": "address",
          "name": "account",
          "type": "address"
        },
        {
          "indexed": true,
          "internalType": "address",
          "name": "sender",
          "type": "address"
        }
      ],
      "name": "RoleRevoked",
      "type": "event"
    },
    {
      "anonymous": false,
      "inputs": [
        {
          "indexed": true,
          "internalType": "address",
          "name": "_adapter",
          "type": "address"
        },
        {
          "indexed": false,
          "internalType": "uint256",
          "name": "_newEstimate",
          "type": "uint256"
        }
      ],
      "name": "UpdatedGasEstimate",
      "type": "event"
    },
    {
      "anonymous": false,
      "inputs": [
        {
          "indexed": true,
          "internalType": "address",
          "name": "_tokenFrom",
          "type": "address"
        },
        {
          "indexed": true,
          "internalType": "address",
          "name": "_tokenTo",
          "type": "address"
        },
        {
          "indexed": false,
          "internalType": "uint256",
          "name": "_amountIn",
          "type": "uint256"
        },
        {
          "indexed": false,
          "internalType": "uint256",
          "name": "_amountOut",
          "type": "uint256"
        }
      ],
      "name": "YakAdapterSwap",
      "type": "event"
    },
    {
      "inputs": [],
      "name": "DEFAULT_ADMIN_ROLE",
      "outputs": [
        {
          "internalType": "bytes32",
          "name": "",
          "type": "bytes32"
        }
      ],
      "stateMutability": "view",
      "type": "function"
    },
    {
      "inputs": [],
      "name": "MAINTAINER_ROLE",
      "outputs": [
        {
          "internalType": "bytes32",
          "name": "",
          "type": "bytes32"
        }
      ],
      "stateMutability": "view",
      "type": "function"
    },
    {
      "inputs": [
        {
          "internalType": "address",
          "name": "addedMaintainer",
          "type": "address"
        }
      ],
      "name": "addMaintainer",
      "outputs": [],
      "stateMutability": "nonpayable",
      "type": "function"
    },
    {
      "inputs": [],
      "name": "factory",
      "outputs": [
        {
          "internalType": "address",
          "name": "",
          "type": "address"
        }
      ],
      "stateMutability": "view",
      "type": "function"
    },
    {
      "inputs": [],
      "name": "feeCompliment",
      "outputs": [
        {
          "internalType": "uint256",
          "name": "",
          "type": "uint256"
        }
      ],
      "stateMutability": "view",
      "type": "function"
    },
    {
      "inputs": [
        {
          "internalType": "bytes32",
          "name": "role",
          "type": "bytes32"
        }
      ],
      "name": "getRoleAdmin",
      "outputs": [
        {
          "internalType": "bytes32",
          "name": "",
          "type": "bytes32"
        }
      ],
      "stateMutability": "view",
      "type": "function"
    },
    {
      "inputs": [
        {
          "internalType": "bytes32",
          "name": "role",
          "type": "bytes32"
        },
        {
          "internalType": "address",
          "name": "account",
          "type": "address"
        }
      ],
      "name": "grantRole",
      "outputs": [],
      "stateMutability": "nonpayable",
      "type": "function"
    },
    {
      "inputs": [
        {
          "internalType": "bytes32",
          "name": "role",
          "type": "bytes32"
        },
        {
          "internalType": "address",
          "name": "account",
          "type": "address"
        }
      ],
      "name": "hasRole",
      "outputs": [
        {
          "internalType": "bool",
          "name": "",
          "type": "bool"
        }
      ],
      "stateMutability": "view",
      "type": "function"
    },
    {
      "inputs": [],
      "name": "name",
      "outputs": [
        {
          "internalType": "string",
          "name": "",
          "type": "string"
        }
      ],
      "stateMutability": "view",
      "type": "function"
    },
    {
      "inputs": [
        {
          "internalType": "uint256",
          "name": "_amountIn",
          "type": "uint256"
        },
        {
          "internalType": "address",
          "name": "_tokenIn",
          "type": "address"
        },
        {
          "internalType": "address",
          "name": "_tokenOut",
          "type": "address"
        }
      ],
      "name": "query",
      "outputs": [
        {
          "internalType": "uint256",
          "name": "",
          "type": "uint256"
        }
      ],
      "stateMutability": "view",
      "type": "function"
    },
    {
      "inputs": [
        {
          "internalType": "uint256",
          "name": "_amount",
          "type": "uint256"
        }
      ],
      "name": "recoverAVAX",
      "outputs": [],
      "stateMutability": "nonpayable",
      "type": "function"
    },
    {
      "inputs": [
        {
          "internalType": "address",
          "name": "_tokenAddress",
          "type": "address"
        },
        {
          "internalType": "uint256",
          "name": "_tokenAmount",
          "type": "uint256"
        }
      ],
      "name": "recoverERC20",
      "outputs": [],
      "stateMutability": "nonpayable",
      "type": "function"
    },
    {
      "inputs": [
        {
          "internalType": "address",
          "name": "removedMaintainer",
          "type": "address"
        }
      ],
      "name": "removeMaintainer",
      "outputs": [],
      "stateMutability": "nonpayable",
      "type": "function"
    },
    {
      "inputs": [
        {
          "internalType": "bytes32",
          "name": "role",
          "type": "bytes32"
        },
        {
          "internalType": "address",
          "name": "account",
          "type": "address"
        }
      ],
      "name": "renounceRole",
      "outputs": [],
      "stateMutability": "nonpayable",
      "type": "function"
    },
    {
      "inputs": [
        {
          "internalType": "bytes32",
          "name": "role",
          "type": "bytes32"
        }
      ],
      "name": "renounceRole",
      "outputs": [],
      "stateMutability": "nonpayable",
      "type": "function"
    },
    {
      "inputs": [
        {
          "internalType": "address",
          "name": "_token",
          "type": "address"
        },
        {
          "internalType": "address",
          "name": "_spender",
          "type": "address"
        }
      ],
      "name": "revokeAllowance",
      "outputs": [],
      "stateMutability": "nonpayable",
      "type": "function"
    },
    {
      "inputs": [
        {
          "internalType": "bytes32",
          "name": "role",
          "type": "bytes32"
        },
        {
          "internalType": "address",
          "name": "account",
          "type": "address"
        }
      ],
      "name": "revokeRole",
      "outputs": [],
      "stateMutability": "nonpayable",
      "type": "function"
    },
    {
      "inputs": [
        {
          "internalType": "uint256",
          "name": "_estimate",
          "type": "uint256"
        }
      ],
      "name": "setSwapGasEstimate",
      "outputs": [],
      "stateMutability": "nonpayable",
      "type": "function"
    },
    {
      "inputs": [
        {
          "internalType": "bytes4",
          "name": "interfaceId",
          "type": "bytes4"
        }
      ],
      "name": "supportsInterface",
      "outputs": [
        {
          "internalType": "bool",
          "name": "",
          "type": "bool"
        }
      ],
      "stateMutability": "view",
      "type": "function"
    },
    {
      "inputs": [
        {
          "internalType": "uint256",
          "name": "_amountIn",
          "type": "uint256"
        },
        {
          "internalType": "uint256",
          "name": "_amountOut",
          "type": "uint256"
        },
        {
          "internalType": "address",
          "name": "_fromToken",
          "type": "address"
        },
        {
          "internalType": "address",
          "name": "_toToken",
          "type": "address"
        },
        {
          "internalType": "address",
          "name": "_to",
          "type": "address"
        }
      ],
      "name": "swap",
      "outputs": [],
      "stateMutability": "nonpayable",
      "type": "function"
    },
    {
      "inputs": [],
      "name": "swapGasEstimate",
      "outputs": [
        {
          "internalType": "uint256",
          "name": "",
          "type": "uint256"
        }
      ],
      "stateMutability": "view",
      "type": "function"
    },
    {
      "inputs": [
        {
          "internalType": "address",
          "name": "newOwner",
          "type": "address"
        }
      ],
      "name": "transferOwnership",
      "outputs": [],
      "stateMutability": "nonpayable",
      "type": "function"
    },
    {
      "stateMutability": "payable",
      "type": "receive"
    }
  ],
  "bytecode": {
    "object": "0x60c06040523480156200001157600080fd5b5060405162001f0038038062001f00833981016040819052620000349162000305565b838133620000446000826200009f565b6200005f60008051602062001ee0833981519152826200009f565b506200006b82620000af565b620000768162000114565b50620000879050826103e8620003fd565b60805250506001600160a01b031660a052506200057a565b620000ab82826200021f565b5050565b8051600003620001065760405162461bcd60e51b815260206004820152601460248201527f496e76616c69642061646170746572206e616d6500000000000000000000000060448201526064015b60405180910390fd5b6002620000ab8282620004ae565b336200013060008051602062001ee083398151915282620002a7565b6200018f5760405162461bcd60e51b815260206004820152602860248201527f4d61696e7461696e61626c653a2043616c6c6572206973206e6f742061206d6160448201526734b73a30b4b732b960c11b6064820152608401620000fd565b81600003620001e15760405162461bcd60e51b815260206004820152601460248201527f496e76616c6964206761732d657374696d6174650000000000000000000000006044820152606401620000fd565b600182905560405182815230907ff43f23b7a28e6f8ce6843a21bd7b48bce778aa913b8c8cf459edf7d770e8d38a9060200160405180910390a25050565b6200022b8282620002a7565b620000ab576000828152602081815260408083206001600160a01b03851684529091529020805460ff19166001179055620002633390565b6001600160a01b0316816001600160a01b0316837f2f8788117e7eff1d82e926ec794901d17c78024a50270940304540a733656f0d60405160405180910390a45050565b6000828152602081815260408083206001600160a01b038516845290915290205460ff165b92915050565b634e487b7160e01b600052604160045260246000fd5b80516001600160a01b03811681146200030057600080fd5b919050565b600080600080608085870312156200031c57600080fd5b84516001600160401b03808211156200033457600080fd5b818701915087601f8301126200034957600080fd5b8151818111156200035e576200035e620002d2565b604051601f8201601f19908116603f01168101908382118183101715620003895762000389620002d2565b81604052828152602093508a84848701011115620003a657600080fd5b600091505b82821015620003ca5784820184015181830185015290830190620003ab565b6000848483010152809850505050620003e5818801620002e8565b60408801516060909801519699909850945050505050565b81810381811115620002cc57634e487b7160e01b600052601160045260246000fd5b600181811c908216806200043457607f821691505b6020821081036200045557634e487b7160e01b600052602260045260246000fd5b50919050565b601f821115620004a957600081815260208120601f850160051c81016020861015620004845750805b601f850160051c820191505b81811015620004a55782815560010162000490565b5050505b505050565b81516001600160401b03811115620004ca57620004ca620002d2565b620004e281620004db84546200041f565b846200045b565b602080601f8311600181146200051a5760008415620005015750858301515b600019600386901b1c1916600185901b178555620004a5565b600085815260208120601f198616915b828110156200054b578886015182559484019460019091019084016200052a565b50858210156200056a5787850151600019600388901b60f8161c191681555b5050505050600190811b01905550565b60805160a05161192b620005b56000396000818161036d01528181610d9d0152610f1f01526000818161022e0152611216015261192b6000f3fe6080604052600436106101395760003560e01c80638980f11f116100ab578063d547741f1161006f578063d547741f146103a7578063d8baf7cf146103c7578063eab90da6146103e7578063ef99893a14610407578063f2fde38b14610427578063f87422541461044757600080fd5b80638980f11f146102e65780638bb9c5bf1461030657806391d1485414610326578063a217fddf14610346578063c45a01551461035b57600080fd5b80633b720fca116100fd5780633b720fca1461021c5780634ebb79161461025057806369cff80d146102705780636b453c1f146102865780637ae26773146102a657806384a33e63146102c657600080fd5b806301ffc9a71461014557806306fdde031461017a578063248a9ca31461019c5780632f2ff15d146101da57806336568abe146101fc57600080fd5b3661014057005b600080fd5b34801561015157600080fd5b50610165610160366004611417565b610469565b60405190151581526020015b60405180910390f35b34801561018657600080fd5b5061018f6104a0565b6040516101719190611491565b3480156101a857600080fd5b506101cc6101b73660046114a4565b60009081526020819052604090206001015490565b604051908152602001610171565b3480156101e657600080fd5b506101fa6101f53660046114d2565b61052e565b005b34801561020857600080fd5b506101fa6102173660046114d2565b610558565b34801561022857600080fd5b506101cc7f000000000000000000000000000000000000000000000000000000000000000081565b34801561025c57600080fd5b506101fa61026b3660046114a4565b6105db565b34801561027c57600080fd5b506101cc60015481565b34801561029257600080fd5b506101fa6102a1366004611502565b6106c9565b3480156102b257600080fd5b506101fa6102c136600461151f565b6106e4565b3480156102d257600080fd5b506101fa6102e13660046114a4565b61072e565b3480156102f257600080fd5b506101fa61030136600461154d565b6107e1565b34801561031257600080fd5b506101fa6103213660046114a4565b6108c2565b34801561033257600080fd5b506101656103413660046114d2565b6108cd565b34801561035257600080fd5b506101cc600081565b34801561036757600080fd5b5061038f7f000000000000000000000000000000000000000000000000000000000000000081565b6040516001600160a01b039091168152602001610171565b3480156103b357600080fd5b506101fa6103c23660046114d2565b6108f6565b3480156103d357600080fd5b506101fa6103e2366004611502565b61091b565b3480156103f357600080fd5b506101fa610402366004611579565b610933565b34801561041357600080fd5b506101cc6104223660046115d8565b610ada565b34801561043357600080fd5b506101fa610442366004611502565b610af1565b34801561045357600080fd5b506101cc6000805160206118d683398151915281565b60006001600160e01b03198216637965db0b60e01b148061049a57506301ffc9a760e01b6001600160e01b03198316145b92915050565b600280546104ad9061161a565b80601f01602080910402602001604051908101604052809291908181526020018280546104d99061161a565b80156105265780601f106104fb57610100808354040283529160200191610526565b820191906000526020600020905b81548152906001019060200180831161050957829003601f168201915b505050505081565b60008281526020819052604090206001015461054981610b08565b6105538383610b12565b505050565b6001600160a01b03811633146105cd5760405162461bcd60e51b815260206004820152602f60248201527f416363657373436f6e74726f6c3a2063616e206f6e6c792072656e6f756e636560448201526e103937b632b9903337b91039b2b63360891b60648201526084015b60405180910390fd5b6105d78282610b96565b5050565b336105f46000805160206118d6833981519152826108cd565b6106105760405162461bcd60e51b81526004016105c490611654565b600082116106605760405162461bcd60e51b815260206004820152601e60248201527f59616b416461707465723a204e6f7468696e6720746f207265636f766572000060448201526064016105c4565b604051339083156108fc029084906000818181858888f1935050505015801561068d573d6000803e3d6000fd5b506040518281526000907f8c1256b8896378cd5044f80c202f9772b9d77dc85c8a6eb51967210b09bfaa28906020015b60405180910390a25050565b6106e16000805160206118d68339815191528261052e565b50565b336106fd6000805160206118d6833981519152826108cd565b6107195760405162461bcd60e51b81526004016105c490611654565b6105536001600160a01b038416836000610bfb565b336107476000805160206118d6833981519152826108cd565b6107635760405162461bcd60e51b81526004016105c490611654565b816000036107aa5760405162461bcd60e51b8152602060048201526014602482015273496e76616c6964206761732d657374696d61746560601b60448201526064016105c4565b600182905560405182815230907ff43f23b7a28e6f8ce6843a21bd7b48bce778aa913b8c8cf459edf7d770e8d38a906020016106bd565b336107fa6000805160206118d6833981519152826108cd565b6108165760405162461bcd60e51b81526004016105c490611654565b600082116108665760405162461bcd60e51b815260206004820152601e60248201527f59616b416461707465723a204e6f7468696e6720746f207265636f766572000060448201526064016105c4565b61087a6001600160a01b0384163384610d43565b826001600160a01b03167f8c1256b8896378cd5044f80c202f9772b9d77dc85c8a6eb51967210b09bfaa28836040516108b591815260200190565b60405180910390a2505050565b336105d78282610558565b6000918252602082815260408084206001600160a01b0393909316845291905290205460ff1690565b60008281526020819052604090206001015461091181610b08565b6105538383610b96565b6106e16000805160206118d6833981519152826108f6565b6040516370a0823160e01b81526001600160a01b038281166004830152600091908416906370a0823190602401602060405180830381865afa15801561097d573d6000803e3d6000fd5b505050506040513d601f19601f820116820180604052508101906109a1919061169c565b90506109b08686868686610d73565b6040516370a0823160e01b81526001600160a01b03838116600483015260009183918616906370a0823190602401602060405180830381865afa1580156109fb573d6000803e3d6000fd5b505050506040513d601f19601f82011682018060405250810190610a1f919061169c565b610a2991906116cb565b905085811015610a7b5760405162461bcd60e51b815260206004820152601760248201527f496e73756666696369656e7420616d6f756e742d6f757400000000000000000060448201526064016105c4565b836001600160a01b0316856001600160a01b03167fe2bdbc6b7225eb0a972ac943c485a6cc05f7c6811838bce8903f23200fb744fa8989604051610ac9929190918252602082015260400190565b60405180910390a350505050505050565b6000610ae7848484610ec8565b90505b9392505050565b33610afd60008361052e565b6105d7600082610558565b6106e1813361107b565b610b1c82826108cd565b6105d7576000828152602081815260408083206001600160a01b03851684529091529020805460ff19166001179055610b523390565b6001600160a01b0316816001600160a01b0316837f2f8788117e7eff1d82e926ec794901d17c78024a50270940304540a733656f0d60405160405180910390a45050565b610ba082826108cd565b156105d7576000828152602081815260408083206001600160a01b0385168085529252808320805460ff1916905551339285917ff6391f5c32d9c69d2a47ea670b442974b53935d1edc7fd64eb21e047a839171b9190a45050565b801580610c755750604051636eb1769f60e11b81523060048201526001600160a01b03838116602483015284169063dd62ed3e90604401602060405180830381865afa158015610c4f573d6000803e3d6000fd5b505050506040513d601f19601f82011682018060405250810190610c73919061169c565b155b610ce05760405162461bcd60e51b815260206004820152603660248201527f5361666545524332303a20617070726f76652066726f6d206e6f6e2d7a65726f60448201527520746f206e6f6e2d7a65726f20616c6c6f77616e636560501b60648201526084016105c4565b6040516001600160a01b03831660248201526044810182905261055390849063095ea7b360e01b906064015b60408051601f198184030181529190526020810180516001600160e01b03166001600160e01b0319909316929092179091526110df565b6040516001600160a01b03831660248201526044810182905261055390849063a9059cbb60e01b90606401610d0c565b60405163e6a4390560e01b81526001600160a01b03848116600483015283811660248301526000917f00000000000000000000000000000000000000000000000000000000000000009091169063e6a4390590604401602060405180830381865afa158015610de6573d6000803e3d6000fd5b505050506040513d601f19601f82011682018060405250810190610e0a91906116de565b9050600080846001600160a01b0316866001600160a01b031610610e3057866000610e34565b6000875b9092509050610e4d6001600160a01b038716848a610d43565b6040805160008152602081019182905263022c0d9f60e01b9091526001600160a01b0384169063022c0d9f90610e8c9085908590899060248101611711565b600060405180830381600087803b158015610ea657600080fd5b505af1158015610eba573d6000803e3d6000fd5b505050505050505050505050565b6000816001600160a01b0316836001600160a01b03161480610ee8575083155b15610ef557506000610aea565b60405163e6a4390560e01b81526001600160a01b03848116600483015283811660248301526000917f00000000000000000000000000000000000000000000000000000000000000009091169063e6a4390590604401602060405180830381865afa158015610f68573d6000803e3d6000fd5b505050506040513d601f19601f82011682018060405250810190610f8c91906116de565b90506001600160a01b038116610fa6576000915050610aea565b600080826001600160a01b0316630902f1ac6040518163ffffffff1660e01b8152600401606060405180830381865afa158015610fe7573d6000803e3d6000fd5b505050506040513d601f19601f8201168201806040525081019061100b9190611764565b506001600160701b031691506001600160701b03169150600080866001600160a01b0316886001600160a01b031610611045578284611048565b83835b9150915060008211801561105c5750600081115b1561106f5761106c89838361120e565b95505b50505050509392505050565b61108582826108cd565b6105d75761109d816001600160a01b0316601461127b565b6110a883602061127b565b6040516020016110b99291906117a9565b60408051601f198184030181529082905262461bcd60e51b82526105c491600401611491565b600080836001600160a01b0316836040516110fa919061181e565b6000604051808303816000865af19150503d8060008114611137576040519150601f19603f3d011682016040523d82523d6000602084013e61113c565b606091505b50915091508161118e5760405162461bcd60e51b815260206004820181905260248201527f5361666545524332303a206c6f772d6c6576656c2063616c6c206661696c656460448201526064016105c4565b80511561120857808060200190518101906111a9919061183a565b6112085760405162461bcd60e51b815260206004820152602a60248201527f5361666545524332303a204552433230206f7065726174696f6e20646964206e6044820152691bdd081cdd58d8d9595960b21b60648201526084016105c4565b50505050565b60008061123b7f00000000000000000000000000000000000000000000000000000000000000008661185c565b90506000611249848361185c565b905060008261125a6103e88861185c565b6112649190611873565b90506112708183611886565b979650505050505050565b6060600061128a83600261185c565b611295906002611873565b67ffffffffffffffff8111156112ad576112ad6116fb565b6040519080825280601f01601f1916602001820160405280156112d7576020820181803683370190505b509050600360fc1b816000815181106112f2576112f26118a8565b60200101906001600160f81b031916908160001a905350600f60fb1b81600181518110611321576113216118a8565b60200101906001600160f81b031916908160001a905350600061134584600261185c565b611350906001611873565b90505b60018111156113c8576f181899199a1a9b1b9c1cb0b131b232b360811b85600f1660108110611384576113846118a8565b1a60f81b82828151811061139a5761139a6118a8565b60200101906001600160f81b031916908160001a90535060049490941c936113c1816118be565b9050611353565b508315610aea5760405162461bcd60e51b815260206004820181905260248201527f537472696e67733a20686578206c656e67746820696e73756666696369656e7460448201526064016105c4565b60006020828403121561142957600080fd5b81356001600160e01b031981168114610aea57600080fd5b60005b8381101561145c578181015183820152602001611444565b50506000910152565b6000815180845261147d816020860160208601611441565b601f01601f19169290920160200192915050565b602081526000610aea6020830184611465565b6000602082840312156114b657600080fd5b5035919050565b6001600160a01b03811681146106e157600080fd5b600080604083850312156114e557600080fd5b8235915060208301356114f7816114bd565b809150509250929050565b60006020828403121561151457600080fd5b8135610aea816114bd565b6000806040838503121561153257600080fd5b823561153d816114bd565b915060208301356114f7816114bd565b6000806040838503121561156057600080fd5b823561156b816114bd565b946020939093013593505050565b600080600080600060a0868803121561159157600080fd5b853594506020860135935060408601356115aa816114bd565b925060608601356115ba816114bd565b915060808601356115ca816114bd565b809150509295509295909350565b6000806000606084860312156115ed57600080fd5b8335925060208401356115ff816114bd565b9150604084013561160f816114bd565b809150509250925092565b600181811c9082168061162e57607f821691505b60208210810361164e57634e487b7160e01b600052602260045260246000fd5b50919050565b60208082526028908201527f4d61696e7461696e61626c653a2043616c6c6572206973206e6f742061206d6160408201526734b73a30b4b732b960c11b606082015260800190565b6000602082840312156116ae57600080fd5b5051919050565b634e487b7160e01b600052601160045260246000fd5b8181038181111561049a5761049a6116b5565b6000602082840312156116f057600080fd5b8151610aea816114bd565b634e487b7160e01b600052604160045260246000fd5b84815283602082015260018060a01b038316604082015260806060820152600061173e6080830184611465565b9695505050505050565b80516001600160701b038116811461175f57600080fd5b919050565b60008060006060848603121561177957600080fd5b61178284611748565b925061179060208501611748565b9150604084015163ffffffff8116811461160f57600080fd5b7f416363657373436f6e74726f6c3a206163636f756e74200000000000000000008152600083516117e1816017850160208801611441565b7001034b99036b4b9b9b4b733903937b6329607d1b6017918401918201528351611812816028840160208801611441565b01602801949350505050565b60008251611830818460208701611441565b9190910192915050565b60006020828403121561184c57600080fd5b81518015158114610aea57600080fd5b808202811582820484141761049a5761049a6116b5565b8082018082111561049a5761049a6116b5565b6000826118a357634e487b7160e01b600052601260045260246000fd5b500490565b634e487b7160e01b600052603260045260246000fd5b6000816118cd576118cd6116b5565b50600019019056fe339759585899103d2ace64958e37e18ccb0504652c81d4a1b8aa80fe2126ab95a2646970667358221220a3ee488bac37b2e12d7490a49958fef4752dd27e4af789cf8752732c22cdf57264736f6c63430008110033339759585899103d2ace64958e37e18ccb0504652c81d4a1b8aa80fe2126ab95",
    "linkReferences": {}
  },
  "methodIdentifiers": {
    "DEFAULT_ADMIN_ROLE()": "a217fddf",
    "MAINTAINER_ROLE()": "f8742254",
    "addMaintainer(address)": "6b453c1f",
    "factory()": "c45a0155",
    "feeCompliment()": "3b720fca",
    "getRoleAdmin(bytes32)": "248a9ca3",
    "grantRole(bytes32,address)": "2f2ff15d",
    "hasRole(bytes32,address)": "91d14854",
    "name()": "06fdde03",
    "query(uint256,address,address)": "ef99893a",
    "recoverAVAX(uint256)": "4ebb7916",
    "recoverERC20(address,uint256)": "8980f11f",
    "removeMaintainer(address)": "d8baf7cf",
    "renounceRole(bytes32)": "8bb9c5bf",
    "renounceRole(bytes32,address)": "36568abe",
    "revokeAllowance(address,address)": "7ae26773",
    "revokeRole(bytes32,address)": "d547741f",
    "setSwapGasEstimate(uint256)": "84a33e63",
    "supportsInterface(bytes4)": "01ffc9a7",
    "swap(uint256,uint256,address,address,address)": "eab90da6",
    "swapGasEstimate()": "69cff80d",
    "transferOwnership(address)": "f2fde38b"
  },
  "id": 35
}