{
  "address": "0xcACab33267D75912576E79a6B1dAaB628c1ff612",
  "abi": [
    {
      "inputs": [
        {
          "internalType": "string",
          "name": "_name",
          "type": "string"
        },
        {
          "internalType": "address",
          "name": "_factory",
          "type": "address"
        },
        {
          "internalType": "uint256",
          "name": "_swapGasEstimate",
          "type": "uint256"
        }
      ],
      "stateMutability": "nonpayable",
      "type": "constructor"
    },
    {
      "anonymous": false,
      "inputs": [
        {
          "indexed": true,
          "internalType": "address",
          "name": "_asset",
          "type": "address"
        },
        {
          "indexed": false,
          "internalType": "uint256",
          "name": "amount",
          "type": "uint256"
        }
      ],
      "name": "Recovered",
      "type": "event"
    },
    {
      "anonymous": false,
      "inputs": [
        {
          "indexed": true,
          "internalType": "bytes32",
          "name": "role",
          "type": "bytes32"
        },
        {
          "indexed": true,
          "internalType": "bytes32",
          "name": "previousAdminRole",
          "type": "bytes32"
        },
        {
          "indexed": true,
          "internalType": "bytes32",
          "name": "newAdminRole",
          "type": "bytes32"
        }
      ],
      "name": "RoleAdminChanged",
      "type": "event"
    },
    {
      "anonymous": false,
      "inputs": [
        {
          "indexed": true,
          "internalType": "bytes32",
          "name": "role",
          "type": "bytes32"
        },
        {
          "indexed": true,
          "internalType": "address",
          "name": "account",
          "type": "address"
        },
        {
          "indexed": true,
          "internalType": "address",
          "name": "sender",
          "type": "address"
        }
      ],
      "name": "RoleGranted",
      "type": "event"
    },
    {
      "anonymous": false,
      "inputs": [
        {
          "indexed": true,
          "internalType": "bytes32",
          "name": "role",
          "type": "bytes32"
        },
        {
          "indexed": true,
          "internalType": "address",
          "name": "account",
          "type": "address"
        },
        {
          "indexed": true,
          "internalType": "address",
          "name": "sender",
          "type": "address"
        }
      ],
      "name": "RoleRevoked",
      "type": "event"
    },
    {
      "anonymous": false,
      "inputs": [
        {
          "indexed": true,
          "internalType": "address",
          "name": "_adapter",
          "type": "address"
        },
        {
          "indexed": false,
          "internalType": "uint256",
          "name": "_newEstimate",
          "type": "uint256"
        }
      ],
      "name": "UpdatedGasEstimate",
      "type": "event"
    },
    {
      "anonymous": false,
      "inputs": [
        {
          "indexed": true,
          "internalType": "address",
          "name": "_tokenFrom",
          "type": "address"
        },
        {
          "indexed": true,
          "internalType": "address",
          "name": "_tokenTo",
          "type": "address"
        },
        {
          "indexed": false,
          "internalType": "uint256",
          "name": "_amountIn",
          "type": "uint256"
        },
        {
          "indexed": false,
          "internalType": "uint256",
          "name": "_amountOut",
          "type": "uint256"
        }
      ],
      "name": "YakAdapterSwap",
      "type": "event"
    },
    {
      "inputs": [],
      "name": "DEFAULT_ADMIN_ROLE",
      "outputs": [
        {
          "internalType": "bytes32",
          "name": "",
          "type": "bytes32"
        }
      ],
      "stateMutability": "view",
      "type": "function"
    },
    {
      "inputs": [],
      "name": "MAINTAINER_ROLE",
      "outputs": [
        {
          "internalType": "bytes32",
          "name": "",
          "type": "bytes32"
        }
      ],
      "stateMutability": "view",
      "type": "function"
    },
    {
      "inputs": [
        {
          "internalType": "address",
          "name": "addedMaintainer",
          "type": "address"
        }
      ],
      "name": "addMaintainer",
      "outputs": [],
      "stateMutability": "nonpayable",
      "type": "function"
    },
    {
      "inputs": [],
      "name": "factory",
      "outputs": [
        {
          "internalType": "address",
          "name": "",
          "type": "address"
        }
      ],
      "stateMutability": "view",
      "type": "function"
    },
    {
      "inputs": [
        {
          "internalType": "bytes32",
          "name": "role",
          "type": "bytes32"
        }
      ],
      "name": "getRoleAdmin",
      "outputs": [
        {
          "internalType": "bytes32",
          "name": "",
          "type": "bytes32"
        }
      ],
      "stateMutability": "view",
      "type": "function"
    },
    {
      "inputs": [
        {
          "internalType": "bytes32",
          "name": "role",
          "type": "bytes32"
        },
        {
          "internalType": "address",
          "name": "account",
          "type": "address"
        }
      ],
      "name": "grantRole",
      "outputs": [],
      "stateMutability": "nonpayable",
      "type": "function"
    },
    {
      "inputs": [
        {
          "internalType": "bytes32",
          "name": "role",
          "type": "bytes32"
        },
        {
          "internalType": "address",
          "name": "account",
          "type": "address"
        }
      ],
      "name": "hasRole",
      "outputs": [
        {
          "internalType": "bool",
          "name": "",
          "type": "bool"
        }
      ],
      "stateMutability": "view",
      "type": "function"
    },
    {
      "inputs": [],
      "name": "name",
      "outputs": [
        {
          "internalType": "string",
          "name": "",
          "type": "string"
        }
      ],
      "stateMutability": "view",
      "type": "function"
    },
    {
      "inputs": [
        {
          "internalType": "uint256",
          "name": "_amountIn",
          "type": "uint256"
        },
        {
          "internalType": "address",
          "name": "_tokenIn",
          "type": "address"
        },
        {
          "internalType": "address",
          "name": "_tokenOut",
          "type": "address"
        }
      ],
      "name": "query",
      "outputs": [
        {
          "internalType": "uint256",
          "name": "",
          "type": "uint256"
        }
      ],
      "stateMutability": "view",
      "type": "function"
    },
    {
      "inputs": [
        {
          "internalType": "uint256",
          "name": "_amount",
          "type": "uint256"
        }
      ],
      "name": "recoverAVAX",
      "outputs": [],
      "stateMutability": "nonpayable",
      "type": "function"
    },
    {
      "inputs": [
        {
          "internalType": "address",
          "name": "_tokenAddress",
          "type": "address"
        },
        {
          "internalType": "uint256",
          "name": "_tokenAmount",
          "type": "uint256"
        }
      ],
      "name": "recoverERC20",
      "outputs": [],
      "stateMutability": "nonpayable",
      "type": "function"
    },
    {
      "inputs": [
        {
          "internalType": "address",
          "name": "removedMaintainer",
          "type": "address"
        }
      ],
      "name": "removeMaintainer",
      "outputs": [],
      "stateMutability": "nonpayable",
      "type": "function"
    },
    {
      "inputs": [
        {
          "internalType": "bytes32",
          "name": "role",
          "type": "bytes32"
        },
        {
          "internalType": "address",
          "name": "account",
          "type": "address"
        }
      ],
      "name": "renounceRole",
      "outputs": [],
      "stateMutability": "nonpayable",
      "type": "function"
    },
    {
      "inputs": [
        {
          "internalType": "bytes32",
          "name": "role",
          "type": "bytes32"
        }
      ],
      "name": "renounceRole",
      "outputs": [],
      "stateMutability": "nonpayable",
      "type": "function"
    },
    {
      "inputs": [
        {
          "internalType": "address",
          "name": "_token",
          "type": "address"
        },
        {
          "internalType": "address",
          "name": "_spender",
          "type": "address"
        }
      ],
      "name": "revokeAllowance",
      "outputs": [],
      "stateMutability": "nonpayable",
      "type": "function"
    },
    {
      "inputs": [
        {
          "internalType": "bytes32",
          "name": "role",
          "type": "bytes32"
        },
        {
          "internalType": "address",
          "name": "account",
          "type": "address"
        }
      ],
      "name": "revokeRole",
      "outputs": [],
      "stateMutability": "nonpayable",
      "type": "function"
    },
    {
      "inputs": [
        {
          "internalType": "uint256",
          "name": "_estimate",
          "type": "uint256"
        }
      ],
      "name": "setSwapGasEstimate",
      "outputs": [],
      "stateMutability": "nonpayable",
      "type": "function"
    },
    {
      "inputs": [
        {
          "internalType": "bytes4",
          "name": "interfaceId",
          "type": "bytes4"
        }
      ],
      "name": "supportsInterface",
      "outputs": [
        {
          "internalType": "bool",
          "name": "",
          "type": "bool"
        }
      ],
      "stateMutability": "view",
      "type": "function"
    },
    {
      "inputs": [
        {
          "internalType": "uint256",
          "name": "_amountIn",
          "type": "uint256"
        },
        {
          "internalType": "uint256",
          "name": "_amountOut",
          "type": "uint256"
        },
        {
          "internalType": "address",
          "name": "_fromToken",
          "type": "address"
        },
        {
          "internalType": "address",
          "name": "_toToken",
          "type": "address"
        },
        {
          "internalType": "address",
          "name": "_to",
          "type": "address"
        }
      ],
      "name": "swap",
      "outputs": [],
      "stateMutability": "nonpayable",
      "type": "function"
    },
    {
      "inputs": [],
      "name": "swapGasEstimate",
      "outputs": [
        {
          "internalType": "uint256",
          "name": "",
          "type": "uint256"
        }
      ],
      "stateMutability": "view",
      "type": "function"
    },
    {
      "inputs": [
        {
          "internalType": "address",
          "name": "newOwner",
          "type": "address"
        }
      ],
      "name": "transferOwnership",
      "outputs": [],
      "stateMutability": "nonpayable",
      "type": "function"
    },
    {
      "stateMutability": "payable",
      "type": "receive"
    }
  ],
  "transactionHash": "0x6c71bf0e552271025ad55fc31fe86fbabfb852bbea391ebb4cfa76f90c38bf0e",
  "args": [
    "ButtonWrappersAdapter",
    "0x033D23c8371354BF1110001386E97298F48Fc0a9",
    213344
  ],
  "solcInputHash": "7d4546ec59777a3e8de25d8efa400313",
  "bytecode": "0x60a06040523480156200001157600080fd5b50604051620022ae380380620022ae83398101604081905262000034916200039b565b82813362000044600082620000a1565b620000707f339759585899103d2ace64958e37e18ccb0504652c81d4a1b8aa80fe2126ab9582620000a1565b506200007c82620000b1565b62000087816200011a565b50505060601b6001600160601b03191660805250620004e2565b620000ad828262000238565b5050565b8051620001055760405162461bcd60e51b815260206004820152601460248201527f496e76616c69642061646170746572206e616d6500000000000000000000000060448201526064015b60405180910390fd5b8051620000ad906002906020840190620002d8565b3360008181527fa54247010af6b3693b80aceddfad12e077c5de3571e6243fada502635f0d7d39602052604090205460ff16620001ab5760405162461bcd60e51b815260206004820152602860248201527f4d61696e7461696e61626c653a2043616c6c6572206973206e6f742061206d6160448201526734b73a30b4b732b960c11b6064820152608401620000fc565b81620001fa5760405162461bcd60e51b815260206004820152601460248201527f496e76616c6964206761732d657374696d6174650000000000000000000000006044820152606401620000fc565b600182905560405182815230907ff43f23b7a28e6f8ce6843a21bd7b48bce778aa913b8c8cf459edf7d770e8d38a9060200160405180910390a25050565b6000828152602081815260408083206001600160a01b038516845290915290205460ff16620000ad576000828152602081815260408083206001600160a01b03851684529091529020805460ff19166001179055620002943390565b6001600160a01b0316816001600160a01b0316837f2f8788117e7eff1d82e926ec794901d17c78024a50270940304540a733656f0d60405160405180910390a45050565b828054620002e6906200048f565b90600052602060002090601f0160209004810192826200030a576000855562000355565b82601f106200032557805160ff191683800117855562000355565b8280016001018555821562000355579182015b828111156200035557825182559160200191906001019062000338565b506200036392915062000367565b5090565b5b8082111562000363576000815560010162000368565b80516001600160a01b03811681146200039657600080fd5b919050565b600080600060608486031215620003b0578283fd5b83516001600160401b0380821115620003c7578485fd5b818601915086601f830112620003db578485fd5b815181811115620003f057620003f0620004cc565b604051601f8201601f19908116603f011681019083821181831017156200041b576200041b620004cc565b8160405282815260209350898484870101111562000437578788fd5b8791505b828210156200045a57848201840151818301850152908301906200043b565b828211156200046b57878484830101525b96506200047d9150508682016200037e565b93505050604084015190509250925092565b600181811c90821680620004a457607f821691505b60208210811415620004c657634e487b7160e01b600052602260045260246000fd5b50919050565b634e487b7160e01b600052604160045260246000fd5b60805160601c611d9f6200050f600039600081816103920152818161103a015261125e0152611d9f6000f3fe60806040526004361061016e5760003560e01c80638980f11f116100cb578063d547741f1161007f578063ef99893a11610059578063ef99893a1461042c578063f2fde38b1461044c578063f87422541461046c57600080fd5b8063d547741f146103cc578063d8baf7cf146103ec578063eab90da61461040c57600080fd5b806391d14854116100b057806391d1485414610327578063a217fddf1461036b578063c45a01551461038057600080fd5b80638980f11f146102e75780638bb9c5bf1461030757600080fd5b80634ebb7916116101225780636b453c1f116101075780636b453c1f146102875780637ae26773146102a757806384a33e63146102c757600080fd5b80634ebb79161461025157806369cff80d1461027157600080fd5b8063248a9ca311610153578063248a9ca3146101d15780632f2ff15d1461020f57806336568abe1461023157600080fd5b806301ffc9a71461017a57806306fdde03146101af57600080fd5b3661017557005b600080fd5b34801561018657600080fd5b5061019a610195366004611ac3565b6104a0565b60405190151581526020015b60405180910390f35b3480156101bb57600080fd5b506101c4610509565b6040516101a69190611c3f565b3480156101dd57600080fd5b506102016101ec366004611a87565b60009081526020819052604090206001015490565b6040519081526020016101a6565b34801561021b57600080fd5b5061022f61022a366004611a9f565b610597565b005b34801561023d57600080fd5b5061022f61024c366004611a9f565b6105c1565b34801561025d57600080fd5b5061022f61026c366004611a87565b610652565b34801561027d57600080fd5b5061020160015481565b34801561029357600080fd5b5061022f6102a23660046119cc565b61079a565b3480156102b357600080fd5b5061022f6102c2366004611a04565b6107c7565b3480156102d357600080fd5b5061022f6102e2366004611a87565b61086b565b3480156102f357600080fd5b5061022f610302366004611a3c565b61097e565b34801561031357600080fd5b5061022f610322366004611a87565b610ab9565b34801561033357600080fd5b5061019a610342366004611a9f565b6000918252602082815260408084206001600160a01b0393909316845291905290205460ff1690565b34801561037757600080fd5b50610201600081565b34801561038c57600080fd5b506103b47f000000000000000000000000000000000000000000000000000000000000000081565b6040516001600160a01b0390911681526020016101a6565b3480156103d857600080fd5b5061022f6103e7366004611a9f565b610ac4565b3480156103f857600080fd5b5061022f6104073660046119cc565b610ae9565b34801561041857600080fd5b5061022f610427366004611b44565b610b13565b34801561043857600080fd5b50610201610447366004611b03565b610cd8565b34801561045857600080fd5b5061022f6104673660046119cc565b610cef565b34801561047857600080fd5b506102017f339759585899103d2ace64958e37e18ccb0504652c81d4a1b8aa80fe2126ab9581565b60006001600160e01b031982167f7965db0b00000000000000000000000000000000000000000000000000000000148061050357507f01ffc9a7000000000000000000000000000000000000000000000000000000006001600160e01b03198316145b92915050565b6002805461051690611d03565b80601f016020809104026020016040519081016040528092919081815260200182805461054290611d03565b801561058f5780601f106105645761010080835404028352916020019161058f565b820191906000526020600020905b81548152906001019060200180831161057257829003601f168201915b505050505081565b6000828152602081905260409020600101546105b281610d06565b6105bc8383610d10565b505050565b6001600160a01b03811633146106445760405162461bcd60e51b815260206004820152602f60248201527f416363657373436f6e74726f6c3a2063616e206f6e6c792072656e6f756e636560448201527f20726f6c657320666f722073656c66000000000000000000000000000000000060648201526084015b60405180910390fd5b61064e8282610dae565b5050565b3360008181527fa54247010af6b3693b80aceddfad12e077c5de3571e6243fada502635f0d7d39602052604090205460ff166106e15760405162461bcd60e51b815260206004820152602860248201527f4d61696e7461696e61626c653a2043616c6c6572206973206e6f742061206d6160448201526734b73a30b4b732b960c11b606482015260840161063b565b600082116107315760405162461bcd60e51b815260206004820152601e60248201527f59616b416461707465723a204e6f7468696e6720746f207265636f7665720000604482015260640161063b565b604051339083156108fc029084906000818181858888f1935050505015801561075e573d6000803e3d6000fd5b506040518281526000907f8c1256b8896378cd5044f80c202f9772b9d77dc85c8a6eb51967210b09bfaa28906020015b60405180910390a25050565b6107c47f339759585899103d2ace64958e37e18ccb0504652c81d4a1b8aa80fe2126ab9582610597565b50565b3360008181527fa54247010af6b3693b80aceddfad12e077c5de3571e6243fada502635f0d7d39602052604090205460ff166108565760405162461bcd60e51b815260206004820152602860248201527f4d61696e7461696e61626c653a2043616c6c6572206973206e6f742061206d6160448201526734b73a30b4b732b960c11b606482015260840161063b565b6105bc6001600160a01b038416836000610e2d565b3360008181527fa54247010af6b3693b80aceddfad12e077c5de3571e6243fada502635f0d7d39602052604090205460ff166108fa5760405162461bcd60e51b815260206004820152602860248201527f4d61696e7461696e61626c653a2043616c6c6572206973206e6f742061206d6160448201526734b73a30b4b732b960c11b606482015260840161063b565b816109475760405162461bcd60e51b815260206004820152601460248201527f496e76616c6964206761732d657374696d617465000000000000000000000000604482015260640161063b565b600182905560405182815230907ff43f23b7a28e6f8ce6843a21bd7b48bce778aa913b8c8cf459edf7d770e8d38a9060200161078e565b3360008181527fa54247010af6b3693b80aceddfad12e077c5de3571e6243fada502635f0d7d39602052604090205460ff16610a0d5760405162461bcd60e51b815260206004820152602860248201527f4d61696e7461696e61626c653a2043616c6c6572206973206e6f742061206d6160448201526734b73a30b4b732b960c11b606482015260840161063b565b60008211610a5d5760405162461bcd60e51b815260206004820152601e60248201527f59616b416461707465723a204e6f7468696e6720746f207265636f7665720000604482015260640161063b565b610a716001600160a01b0384163384610fd2565b826001600160a01b03167f8c1256b8896378cd5044f80c202f9772b9d77dc85c8a6eb51967210b09bfaa2883604051610aac91815260200190565b60405180910390a2505050565b3361064e82826105c1565b600082815260208190526040902060010154610adf81610d06565b6105bc8383610dae565b6107c47f339759585899103d2ace64958e37e18ccb0504652c81d4a1b8aa80fe2126ab9582610ac4565b6040516370a0823160e01b81526001600160a01b038281166004830152600091908416906370a082319060240160206040518083038186803b158015610b5857600080fd5b505afa158015610b6c573d6000803e3d6000fd5b505050506040513d601f19601f82011682018060405250810190610b909190611aeb565b9050610b9f868686868661101b565b6040516370a0823160e01b81526001600160a01b03838116600483015260009183918616906370a082319060240160206040518083038186803b158015610be557600080fd5b505afa158015610bf9573d6000803e3d6000fd5b505050506040513d601f19601f82011682018060405250810190610c1d9190611aeb565b610c279190611ca9565b905085811015610c795760405162461bcd60e51b815260206004820152601760248201527f496e73756666696369656e7420616d6f756e742d6f7574000000000000000000604482015260640161063b565b836001600160a01b0316856001600160a01b03167fe2bdbc6b7225eb0a972ac943c485a6cc05f7c6811838bce8903f23200fb744fa8989604051610cc7929190918252602082015260400190565b60405180910390a350505050505050565b6000610ce5848484611212565b90505b9392505050565b33610cfb600083610597565b61064e6000826105c1565b6107c481336115e5565b6000828152602081815260408083206001600160a01b038516845290915290205460ff1661064e576000828152602081815260408083206001600160a01b03851684529091529020805460ff19166001179055610d6a3390565b6001600160a01b0316816001600160a01b0316837f2f8788117e7eff1d82e926ec794901d17c78024a50270940304540a733656f0d60405160405180910390a45050565b6000828152602081815260408083206001600160a01b038516845290915290205460ff161561064e576000828152602081815260408083206001600160a01b0385168085529252808320805460ff1916905551339285917ff6391f5c32d9c69d2a47ea670b442974b53935d1edc7fd64eb21e047a839171b9190a45050565b801580610ecf57506040517fdd62ed3e0000000000000000000000000000000000000000000000000000000081523060048201526001600160a01b03838116602483015284169063dd62ed3e9060440160206040518083038186803b158015610e9557600080fd5b505afa158015610ea9573d6000803e3d6000fd5b505050506040513d601f19601f82011682018060405250810190610ecd9190611aeb565b155b610f415760405162461bcd60e51b815260206004820152603660248201527f5361666545524332303a20617070726f76652066726f6d206e6f6e2d7a65726f60448201527f20746f206e6f6e2d7a65726f20616c6c6f77616e636500000000000000000000606482015260840161063b565b6040516001600160a01b0383166024820152604481018290526105bc9084907f095ea7b300000000000000000000000000000000000000000000000000000000906064015b60408051601f198184030181529190526020810180517bffffffffffffffffffffffffffffffffffffffffffffffffffffffff166001600160e01b031990931692909217909152611663565b6040516001600160a01b0383166024820152604481018290526105bc9084907fa9059cbb0000000000000000000000000000000000000000000000000000000090606401610f86565b6040516335a2735f60e11b81526001600160a01b0384811660048301527f00000000000000000000000000000000000000000000000000000000000000001690636b44e6be9060240160206040518083038186803b15801561107c57600080fd5b505afa158015611090573d6000803e3d6000fd5b505050506040513d601f19601f820116820180604052508101906110b49190611a67565b1561115a576040517fea785a5e0000000000000000000000000000000000000000000000000000000081526001600160a01b0382811660048301526024820187905284169063ea785a5e90604401602060405180830381600087803b15801561111c57600080fd5b505af1158015611130573d6000803e3d6000fd5b505050506040513d601f19601f820116820180604052508101906111549190611aeb565b5061120b565b61116e6001600160a01b0384168387610e2d565b6040517f2f4f21e20000000000000000000000000000000000000000000000000000000081526001600160a01b03828116600483015260248201879052831690632f4f21e290604401602060405180830381600087803b1580156111d157600080fd5b505af11580156111e5573d6000803e3d6000fd5b505050506040513d601f19601f820116820180604052508101906112099190611aeb565b505b5050505050565b6000816001600160a01b0316836001600160a01b03161480611232575083155b1561123f57506000610ce8565b6040516335a2735f60e11b81526001600160a01b0384811660048301527f000000000000000000000000000000000000000000000000000000000000000091600091831690636b44e6be9060240160206040518083038186803b1580156112a557600080fd5b505afa1580156112b9573d6000803e3d6000fd5b505050506040513d601f19601f820116820180604052508101906112dd9190611a67565b6040516335a2735f60e11b81526001600160a01b038681166004830152919250600091841690636b44e6be9060240160206040518083038186803b15801561132457600080fd5b505afa158015611338573d6000803e3d6000fd5b505050506040513d601f19601f8201168201806040525081019061135c9190611a67565b90508180156113685750805b156113795760009350505050610ce8565b81156114ac57846001600160a01b0316866001600160a01b0316636f307dc36040518163ffffffff1660e01b815260040160206040518083038186803b1580156113c257600080fd5b505afa1580156113d6573d6000803e3d6000fd5b505050506040513d601f19601f820116820180604052508101906113fa91906119e8565b6001600160a01b0316146114145760009350505050610ce8565b6040517faab3b7db000000000000000000000000000000000000000000000000000000008152600481018890526001600160a01b0387169063aab3b7db9060240160206040518083038186803b15801561146d57600080fd5b505afa158015611481573d6000803e3d6000fd5b505050506040513d601f19601f820116820180604052508101906114a59190611aeb565b93506115db565b80156115db57856001600160a01b0316856001600160a01b0316636f307dc36040518163ffffffff1660e01b815260040160206040518083038186803b1580156114f557600080fd5b505afa158015611509573d6000803e3d6000fd5b505050506040513d601f19601f8201168201806040525081019061152d91906119e8565b6001600160a01b0316146115475760009350505050610ce8565b6040517fed0287c0000000000000000000000000000000000000000000000000000000008152600481018890526001600160a01b0386169063ed0287c09060240160206040518083038186803b1580156115a057600080fd5b505afa1580156115b4573d6000803e3d6000fd5b505050506040513d601f19601f820116820180604052508101906115d89190611aeb565b93505b5050509392505050565b6000828152602081815260408083206001600160a01b038516845290915290205460ff1661064e57611621816001600160a01b031660146117a5565b61162c8360206117a5565b60405160200161163d929190611bbe565b60408051601f198184030181529082905262461bcd60e51b825261063b91600401611c3f565b600080836001600160a01b03168360405161167e9190611ba2565b6000604051808303816000865af19150503d80600081146116bb576040519150601f19603f3d011682016040523d82523d6000602084013e6116c0565b606091505b5091509150816117125760405162461bcd60e51b815260206004820181905260248201527f5361666545524332303a206c6f772d6c6576656c2063616c6c206661696c6564604482015260640161063b565b80511561179f578080602001905181019061172d9190611a67565b61179f5760405162461bcd60e51b815260206004820152602a60248201527f5361666545524332303a204552433230206f7065726174696f6e20646964206e60448201527f6f74207375636365656400000000000000000000000000000000000000000000606482015260840161063b565b50505050565b606060006117b4836002611c8a565b6117bf906002611c72565b67ffffffffffffffff8111156117e557634e487b7160e01b600052604160045260246000fd5b6040519080825280601f01601f19166020018201604052801561180f576020820181803683370190505b5090507f30000000000000000000000000000000000000000000000000000000000000008160008151811061185457634e487b7160e01b600052603260045260246000fd5b60200101906001600160f81b031916908160001a9053507f7800000000000000000000000000000000000000000000000000000000000000816001815181106118ad57634e487b7160e01b600052603260045260246000fd5b60200101906001600160f81b031916908160001a90535060006118d1846002611c8a565b6118dc906001611c72565b90505b600181111561197d577f303132333435363738396162636465660000000000000000000000000000000085600f166010811061192b57634e487b7160e01b600052603260045260246000fd5b1a60f81b82828151811061194f57634e487b7160e01b600052603260045260246000fd5b60200101906001600160f81b031916908160001a90535060049490941c9361197681611cec565b90506118df565b508315610ce85760405162461bcd60e51b815260206004820181905260248201527f537472696e67733a20686578206c656e67746820696e73756666696369656e74604482015260640161063b565b6000602082840312156119dd578081fd5b8135610ce881611d54565b6000602082840312156119f9578081fd5b8151610ce881611d54565b60008060408385031215611a16578081fd5b8235611a2181611d54565b91506020830135611a3181611d54565b809150509250929050565b60008060408385031215611a4e578182fd5b8235611a5981611d54565b946020939093013593505050565b600060208284031215611a78578081fd5b81518015158114610ce8578182fd5b600060208284031215611a98578081fd5b5035919050565b60008060408385031215611ab1578182fd5b823591506020830135611a3181611d54565b600060208284031215611ad4578081fd5b81356001600160e01b031981168114610ce8578182fd5b600060208284031215611afc578081fd5b5051919050565b600080600060608486031215611b17578081fd5b833592506020840135611b2981611d54565b91506040840135611b3981611d54565b809150509250925092565b600080600080600060a08688031215611b5b578081fd5b85359450602086013593506040860135611b7481611d54565b92506060860135611b8481611d54565b91506080860135611b9481611d54565b809150509295509295909350565b60008251611bb4818460208701611cc0565b9190910192915050565b7f416363657373436f6e74726f6c3a206163636f756e7420000000000000000000815260008351611bf6816017850160208801611cc0565b7f206973206d697373696e6720726f6c65200000000000000000000000000000006017918401918201528351611c33816028840160208801611cc0565b01602801949350505050565b6020815260008251806020840152611c5e816040850160208701611cc0565b601f01601f19169190910160400192915050565b60008219821115611c8557611c85611d3e565b500190565b6000816000190483118215151615611ca457611ca4611d3e565b500290565b600082821015611cbb57611cbb611d3e565b500390565b60005b83811015611cdb578181015183820152602001611cc3565b8381111561179f5750506000910152565b600081611cfb57611cfb611d3e565b506000190190565b600181811c90821680611d1757607f821691505b60208210811415611d3857634e487b7160e01b600052602260045260246000fd5b50919050565b634e487b7160e01b600052601160045260246000fd5b6001600160a01b03811681146107c457600080fdfea26469706673582212201cc037d5da2162bde2546694ba04a41e08542431e13f534238c1b677a2304ff764736f6c63430008040033",
  "devdoc": {
    "kind": "dev",
    "methods": {
      "getRoleAdmin(bytes32)": {
        "details": "Returns the admin role that controls `role`. See {grantRole} and {revokeRole}. To change a role's admin, use {_setRoleAdmin}."
      },
      "grantRole(bytes32,address)": {
        "details": "Grants `role` to `account`. If `account` had not been already granted `role`, emits a {RoleGranted} event. Requirements: - the caller must have ``role``'s admin role. May emit a {RoleGranted} event."
      },
      "hasRole(bytes32,address)": {
        "details": "Returns `true` if `account` has been granted `role`."
      },
      "renounceRole(bytes32,address)": {
        "details": "Revokes `role` from the calling account. Roles are often managed via {grantRole} and {revokeRole}: this function's purpose is to provide a mechanism for accounts to lose their privileges if they are compromised (such as when a trusted device is misplaced). If the calling account had been revoked `role`, emits a {RoleRevoked} event. Requirements: - the caller must be `account`. May emit a {RoleRevoked} event."
      },
      "revokeRole(bytes32,address)": {
        "details": "Revokes `role` from `account`. If `account` had been granted `role`, emits a {RoleRevoked} event. Requirements: - the caller must have ``role``'s admin role. May emit a {RoleRevoked} event."
      },
      "supportsInterface(bytes4)": {
        "details": "See {IERC165-supportsInterface}."
      }
    },
    "version": 1
  },
  "userdoc": {
    "kind": "user",
    "methods": {},
    "version": 1
  },
  "storageLayout": {
    "storage": [
      {
        "astId": 24,
        "contract": "src/contracts/adapters/ButtonWrappersAdapter.sol:ButtonWrappersAdapter",
        "label": "_roles",
        "offset": 0,
        "slot": "0",
        "type": "t_mapping(t_bytes32,t_struct(RoleData)19_storage)"
      },
      {
        "astId": 718,
        "contract": "src/contracts/adapters/ButtonWrappersAdapter.sol:ButtonWrappersAdapter",
        "label": "swapGasEstimate",
        "offset": 0,
        "slot": "1",
        "type": "t_uint256"
      },
      {
        "astId": 720,
        "contract": "src/contracts/adapters/ButtonWrappersAdapter.sol:ButtonWrappersAdapter",
        "label": "name",
        "offset": 0,
        "slot": "2",
        "type": "t_string_storage"
      }
    ],
    "types": {
      "t_address": {
        "encoding": "inplace",
        "label": "address",
        "numberOfBytes": "20"
      },
      "t_bool": {
        "encoding": "inplace",
        "label": "bool",
        "numberOfBytes": "1"
      },
      "t_bytes32": {
        "encoding": "inplace",
        "label": "bytes32",
        "numberOfBytes": "32"
      },
      "t_mapping(t_address,t_bool)": {
        "encoding": "mapping",
        "key": "t_address",
        "label": "mapping(address => bool)",
        "numberOfBytes": "32",
        "value": "t_bool"
      },
      "t_mapping(t_bytes32,t_struct(RoleData)19_storage)": {
        "encoding": "mapping",
        "key": "t_bytes32",
        "label": "mapping(bytes32 => struct AccessControl.RoleData)",
        "numberOfBytes": "32",
        "value": "t_struct(RoleData)19_storage"
      },
      "t_string_storage": {
        "encoding": "bytes",
        "label": "string",
        "numberOfBytes": "32"
      },
      "t_struct(RoleData)19_storage": {
        "encoding": "inplace",
        "label": "struct AccessControl.RoleData",
        "members": [
          {
            "astId": 16,
            "contract": "src/contracts/adapters/ButtonWrappersAdapter.sol:ButtonWrappersAdapter",
            "label": "members",
            "offset": 0,
            "slot": "0",
            "type": "t_mapping(t_address,t_bool)"
          },
          {
            "astId": 18,
            "contract": "src/contracts/adapters/ButtonWrappersAdapter.sol:ButtonWrappersAdapter",
            "label": "adminRole",
            "offset": 0,
            "slot": "1",
            "type": "t_bytes32"
          }
        ],
        "numberOfBytes": "64"
      },
      "t_uint256": {
        "encoding": "inplace",
        "label": "uint256",
        "numberOfBytes": "32"
      }
    }
  }
}