{
  "address": "0x02a60ff0b14cf8a0955379900df6c7dc1c7E2FbA",
  "abi": [
    {
      "inputs": [
        {
          "internalType": "string",
          "name": "_name",
          "type": "string"
        },
        {
          "internalType": "address",
          "name": "_pool",
          "type": "address"
        },
        {
          "internalType": "address[]",
          "name": "_tokenBlacklist",
          "type": "address[]"
        },
        {
          "internalType": "uint256",
          "name": "_swapGasEstimate",
          "type": "uint256"
        }
      ],
      "stateMutability": "nonpayable",
      "type": "constructor"
    },
    {
      "anonymous": false,
      "inputs": [
        {
          "indexed": true,
          "internalType": "address",
          "name": "_asset",
          "type": "address"
        },
        {
          "indexed": false,
          "internalType": "uint256",
          "name": "amount",
          "type": "uint256"
        }
      ],
      "name": "Recovered",
      "type": "event"
    },
    {
      "anonymous": false,
      "inputs": [
        {
          "indexed": true,
          "internalType": "bytes32",
          "name": "role",
          "type": "bytes32"
        },
        {
          "indexed": true,
          "internalType": "bytes32",
          "name": "previousAdminRole",
          "type": "bytes32"
        },
        {
          "indexed": true,
          "internalType": "bytes32",
          "name": "newAdminRole",
          "type": "bytes32"
        }
      ],
      "name": "RoleAdminChanged",
      "type": "event"
    },
    {
      "anonymous": false,
      "inputs": [
        {
          "indexed": true,
          "internalType": "bytes32",
          "name": "role",
          "type": "bytes32"
        },
        {
          "indexed": true,
          "internalType": "address",
          "name": "account",
          "type": "address"
        },
        {
          "indexed": true,
          "internalType": "address",
          "name": "sender",
          "type": "address"
        }
      ],
      "name": "RoleGranted",
      "type": "event"
    },
    {
      "anonymous": false,
      "inputs": [
        {
          "indexed": true,
          "internalType": "bytes32",
          "name": "role",
          "type": "bytes32"
        },
        {
          "indexed": true,
          "internalType": "address",
          "name": "account",
          "type": "address"
        },
        {
          "indexed": true,
          "internalType": "address",
          "name": "sender",
          "type": "address"
        }
      ],
      "name": "RoleRevoked",
      "type": "event"
    },
    {
      "anonymous": false,
      "inputs": [
        {
          "indexed": true,
          "internalType": "address",
          "name": "_adapter",
          "type": "address"
        },
        {
          "indexed": false,
          "internalType": "uint256",
          "name": "_newEstimate",
          "type": "uint256"
        }
      ],
      "name": "UpdatedGasEstimate",
      "type": "event"
    },
    {
      "anonymous": false,
      "inputs": [
        {
          "indexed": true,
          "internalType": "address",
          "name": "_tokenFrom",
          "type": "address"
        },
        {
          "indexed": true,
          "internalType": "address",
          "name": "_tokenTo",
          "type": "address"
        },
        {
          "indexed": false,
          "internalType": "uint256",
          "name": "_amountIn",
          "type": "uint256"
        },
        {
          "indexed": false,
          "internalType": "uint256",
          "name": "_amountOut",
          "type": "uint256"
        }
      ],
      "name": "YakAdapterSwap",
      "type": "event"
    },
    {
      "inputs": [],
      "name": "DEFAULT_ADMIN_ROLE",
      "outputs": [
        {
          "internalType": "bytes32",
          "name": "",
          "type": "bytes32"
        }
      ],
      "stateMutability": "view",
      "type": "function"
    },
    {
      "inputs": [],
      "name": "MAINTAINER_ROLE",
      "outputs": [
        {
          "internalType": "bytes32",
          "name": "",
          "type": "bytes32"
        }
      ],
      "stateMutability": "view",
      "type": "function"
    },
    {
      "inputs": [
        {
          "internalType": "address",
          "name": "addedMaintainer",
          "type": "address"
        }
      ],
      "name": "addMaintainer",
      "outputs": [],
      "stateMutability": "nonpayable",
      "type": "function"
    },
    {
      "inputs": [
        {
          "internalType": "bytes32",
          "name": "role",
          "type": "bytes32"
        }
      ],
      "name": "getRoleAdmin",
      "outputs": [
        {
          "internalType": "bytes32",
          "name": "",
          "type": "bytes32"
        }
      ],
      "stateMutability": "view",
      "type": "function"
    },
    {
      "inputs": [
        {
          "internalType": "bytes32",
          "name": "role",
          "type": "bytes32"
        },
        {
          "internalType": "address",
          "name": "account",
          "type": "address"
        }
      ],
      "name": "grantRole",
      "outputs": [],
      "stateMutability": "nonpayable",
      "type": "function"
    },
    {
      "inputs": [
        {
          "internalType": "bytes32",
          "name": "role",
          "type": "bytes32"
        },
        {
          "internalType": "address",
          "name": "account",
          "type": "address"
        }
      ],
      "name": "hasRole",
      "outputs": [
        {
          "internalType": "bool",
          "name": "",
          "type": "bool"
        }
      ],
      "stateMutability": "view",
      "type": "function"
    },
    {
      "inputs": [
        {
          "internalType": "address",
          "name": "",
          "type": "address"
        }
      ],
      "name": "isPoolToken",
      "outputs": [
        {
          "internalType": "bool",
          "name": "",
          "type": "bool"
        }
      ],
      "stateMutability": "view",
      "type": "function"
    },
    {
      "inputs": [],
      "name": "name",
      "outputs": [
        {
          "internalType": "string",
          "name": "",
          "type": "string"
        }
      ],
      "stateMutability": "view",
      "type": "function"
    },
    {
      "inputs": [],
      "name": "pool",
      "outputs": [
        {
          "internalType": "address",
          "name": "",
          "type": "address"
        }
      ],
      "stateMutability": "view",
      "type": "function"
    },
    {
      "inputs": [
        {
          "internalType": "uint256",
          "name": "_amountIn",
          "type": "uint256"
        },
        {
          "internalType": "address",
          "name": "_tokenIn",
          "type": "address"
        },
        {
          "internalType": "address",
          "name": "_tokenOut",
          "type": "address"
        }
      ],
      "name": "query",
      "outputs": [
        {
          "internalType": "uint256",
          "name": "",
          "type": "uint256"
        }
      ],
      "stateMutability": "view",
      "type": "function"
    },
    {
      "inputs": [
        {
          "internalType": "uint256",
          "name": "_amount",
          "type": "uint256"
        }
      ],
      "name": "recoverAVAX",
      "outputs": [],
      "stateMutability": "nonpayable",
      "type": "function"
    },
    {
      "inputs": [
        {
          "internalType": "address",
          "name": "_tokenAddress",
          "type": "address"
        },
        {
          "internalType": "uint256",
          "name": "_tokenAmount",
          "type": "uint256"
        }
      ],
      "name": "recoverERC20",
      "outputs": [],
      "stateMutability": "nonpayable",
      "type": "function"
    },
    {
      "inputs": [
        {
          "internalType": "address",
          "name": "removedMaintainer",
          "type": "address"
        }
      ],
      "name": "removeMaintainer",
      "outputs": [],
      "stateMutability": "nonpayable",
      "type": "function"
    },
    {
      "inputs": [
        {
          "internalType": "bytes32",
          "name": "role",
          "type": "bytes32"
        },
        {
          "internalType": "address",
          "name": "account",
          "type": "address"
        }
      ],
      "name": "renounceRole",
      "outputs": [],
      "stateMutability": "nonpayable",
      "type": "function"
    },
    {
      "inputs": [
        {
          "internalType": "bytes32",
          "name": "role",
          "type": "bytes32"
        }
      ],
      "name": "renounceRole",
      "outputs": [],
      "stateMutability": "nonpayable",
      "type": "function"
    },
    {
      "inputs": [
        {
          "internalType": "address",
          "name": "_token",
          "type": "address"
        },
        {
          "internalType": "address",
          "name": "_spender",
          "type": "address"
        }
      ],
      "name": "revokeAllowance",
      "outputs": [],
      "stateMutability": "nonpayable",
      "type": "function"
    },
    {
      "inputs": [
        {
          "internalType": "bytes32",
          "name": "role",
          "type": "bytes32"
        },
        {
          "internalType": "address",
          "name": "account",
          "type": "address"
        }
      ],
      "name": "revokeRole",
      "outputs": [],
      "stateMutability": "nonpayable",
      "type": "function"
    },
    {
      "inputs": [
        {
          "internalType": "uint256",
          "name": "_estimate",
          "type": "uint256"
        }
      ],
      "name": "setSwapGasEstimate",
      "outputs": [],
      "stateMutability": "nonpayable",
      "type": "function"
    },
    {
      "inputs": [
        {
          "internalType": "bytes4",
          "name": "interfaceId",
          "type": "bytes4"
        }
      ],
      "name": "supportsInterface",
      "outputs": [
        {
          "internalType": "bool",
          "name": "",
          "type": "bool"
        }
      ],
      "stateMutability": "view",
      "type": "function"
    },
    {
      "inputs": [
        {
          "internalType": "uint256",
          "name": "_amountIn",
          "type": "uint256"
        },
        {
          "internalType": "uint256",
          "name": "_amountOut",
          "type": "uint256"
        },
        {
          "internalType": "address",
          "name": "_fromToken",
          "type": "address"
        },
        {
          "internalType": "address",
          "name": "_toToken",
          "type": "address"
        },
        {
          "internalType": "address",
          "name": "_to",
          "type": "address"
        }
      ],
      "name": "swap",
      "outputs": [],
      "stateMutability": "nonpayable",
      "type": "function"
    },
    {
      "inputs": [],
      "name": "swapGasEstimate",
      "outputs": [
        {
          "internalType": "uint256",
          "name": "",
          "type": "uint256"
        }
      ],
      "stateMutability": "view",
      "type": "function"
    },
    {
      "inputs": [
        {
          "internalType": "address",
          "name": "",
          "type": "address"
        }
      ],
      "name": "tokenIndex",
      "outputs": [
        {
          "internalType": "uint256",
          "name": "",
          "type": "uint256"
        }
      ],
      "stateMutability": "view",
      "type": "function"
    },
    {
      "inputs": [
        {
          "internalType": "address",
          "name": "newOwner",
          "type": "address"
        }
      ],
      "name": "transferOwnership",
      "outputs": [],
      "stateMutability": "nonpayable",
      "type": "function"
    },
    {
      "stateMutability": "payable",
      "type": "receive"
    }
  ],
  "transactionHash": "0x72761d6c882d24ba7f5f7fb7f7f50dd7ed68724a5dd65d86703564ec1b6e08a9",
  "args": [
    "CurveAtricryptoAdapter",
    "0x58e57cA18B7A47112b877E31929798Cd3D703b0f",
    [
      "0x50b7545627a5162F82A992c33b87aDc75187B218"
    ],
    1500000
  ],
  "solcInputHash": "cf248847d104fb275bb8f3639a58af9c",
  "bytecode": "0x60806040523480156200001157600080fd5b50604051620023063803806200230683398101604081905262000034916200065d565b83813362000044600082620000b9565b620000707f339759585899103d2ace64958e37e18ccb0504652c81d4a1b8aa80fe2126ab9582620000b9565b506200007c82620000c9565b620000878162000132565b5050600580546001600160a01b0319166001600160a01b038516179055620000af8262000250565b5050505062000803565b620000c5828262000395565b5050565b80516200011d5760405162461bcd60e51b815260206004820152601460248201527f496e76616c69642061646170746572206e616d6500000000000000000000000060448201526064015b60405180910390fd5b8051620000c5906002906020840190620004c0565b3360008181527fa54247010af6b3693b80aceddfad12e077c5de3571e6243fada502635f0d7d39602052604090205460ff16620001c35760405162461bcd60e51b815260206004820152602860248201527f4d61696e7461696e61626c653a2043616c6c6572206973206e6f742061206d6160448201526734b73a30b4b732b960c11b606482015260840162000114565b81620002125760405162461bcd60e51b815260206004820152601460248201527f496e76616c6964206761732d657374696d617465000000000000000000000000604482015260640162000114565b600182905560405182815230907ff43f23b7a28e6f8ce6843a21bd7b48bce778aa913b8c8cf459edf7d770e8d38a9060200160405180910390a25050565b60005b600554604051630b9947eb60e41b8152600481018390526001600160a01b039091169063b9947eb09060240160206040518083038186803b1580156200029857600080fd5b505afa925050508015620002cb575060408051601f3d908101601f19168201909252620002c89181019062000617565b60015b620002d4575050565b6000805b84518110156200033d57826001600160a01b03168582815181106200030d57634e487b7160e01b600052603260045260246000fd5b60200260200101516001600160a01b031614156200032a57600191505b6200033581620007c5565b9050620002d8565b508062000380576200034f8262000435565b6001600160a01b0382166000908152600460209081526040808320805460ff19166001179055600390915290208390555b50506200038d81620007c5565b905062000253565b6000828152602081815260408083206001600160a01b038516845290915290205460ff16620000c5576000828152602081815260408083206001600160a01b03851684529091529020805460ff19166001179055620003f13390565b6001600160a01b0316816001600160a01b0316837f2f8788117e7eff1d82e926ec794901d17c78024a50270940304540a733656f0d60405160405180910390a45050565b60055460405163095ea7b360e01b81526001600160a01b03918216600482015260001960248201529082169063095ea7b390604401602060405180830381600087803b1580156200048557600080fd5b505af11580156200049a573d6000803e3d6000fd5b505050506040513d601f19601f82011682018060405250810190620000c591906200063b565b828054620004ce9062000788565b90600052602060002090601f016020900481019282620004f257600085556200053d565b82601f106200050d57805160ff19168380011785556200053d565b828001600101855582156200053d579182015b828111156200053d57825182559160200191906001019062000520565b506200054b9291506200054f565b5090565b5b808211156200054b576000815560010162000550565b80516001600160a01b03811681146200057e57600080fd5b919050565b600082601f83011262000594578081fd5b815160206001600160401b03821115620005b257620005b2620007ed565b8160051b620005c382820162000755565b838152828101908684018388018501891015620005de578687fd5b8693505b858410156200060b57620005f68162000566565b835260019390930192918401918401620005e2565b50979650505050505050565b60006020828403121562000629578081fd5b620006348262000566565b9392505050565b6000602082840312156200064d578081fd5b8151801515811462000634578182fd5b6000806000806080858703121562000673578283fd5b84516001600160401b03808211156200068a578485fd5b818701915087601f8301126200069e578485fd5b815181811115620006b357620006b3620007ed565b6020620006c9601f8301601f1916820162000755565b8281528a82848701011115620006dd578788fd5b875b83811015620006fc578581018301518282018401528201620006df565b838111156200070d57888385840101525b5097506200071d89820162000566565b96505050604087015191508082111562000735578384fd5b50620007448782880162000583565b606096909601519497939650505050565b604051601f8201601f191681016001600160401b0381118282101715620007805762000780620007ed565b604052919050565b600181811c908216806200079d57607f821691505b60208210811415620007bf57634e487b7160e01b600052602260045260246000fd5b50919050565b6000600019821415620007e657634e487b7160e01b81526011600452602481fd5b5060010190565b634e487b7160e01b600052604160045260246000fd5b611af380620008136000396000f3fe6080604052600436106101845760003560e01c806384a33e63116100d6578063d8baf7cf1161007f578063ef99893a11610059578063ef99893a1461048b578063f2fde38b146104ab578063f8742254146104cb57600080fd5b8063d8baf7cf1461041b578063de260f371461043b578063eab90da61461046b57600080fd5b806391d14854116100b057806391d14854146103a2578063a217fddf146103e6578063d547741f146103fb57600080fd5b806384a33e63146103425780638980f11f146103625780638bb9c5bf1461038257600080fd5b806336568abe1161013857806369cff80d1161011257806369cff80d146102ec5780636b453c1f146103025780637ae267731461032257600080fd5b806336568abe1461027f578063427f91a61461029f5780634ebb7916146102cc57600080fd5b806316f0115b1161016957806316f0115b146101e7578063248a9ca31461021f5780632f2ff15d1461025d57600080fd5b806301ffc9a71461019057806306fdde03146101c557600080fd5b3661018b57005b600080fd5b34801561019c57600080fd5b506101b06101ab36600461181a565b6104ff565b60405190151581526020015b60405180910390f35b3480156101d157600080fd5b506101da610568565b6040516101bc9190611988565b3480156101f357600080fd5b50600554610207906001600160a01b031681565b6040516001600160a01b0390911681526020016101bc565b34801561022b57600080fd5b5061024f61023a3660046117e0565b60009081526020819052604090206001015490565b6040519081526020016101bc565b34801561026957600080fd5b5061027d6102783660046117f8565b6105f6565b005b34801561028b57600080fd5b5061027d61029a3660046117f8565b610620565b3480156102ab57600080fd5b5061024f6102ba36600461174b565b60036020526000908152604090205481565b3480156102d857600080fd5b5061027d6102e73660046117e0565b6106b1565b3480156102f857600080fd5b5061024f60015481565b34801561030e57600080fd5b5061027d61031d36600461174b565b6107f9565b34801561032e57600080fd5b5061027d61033d366004611765565b610826565b34801561034e57600080fd5b5061027d61035d3660046117e0565b6108ca565b34801561036e57600080fd5b5061027d61037d366004611797565b6109dd565b34801561038e57600080fd5b5061027d61039d3660046117e0565b610b18565b3480156103ae57600080fd5b506101b06103bd3660046117f8565b6000918252602082815260408084206001600160a01b0393909316845291905290205460ff1690565b3480156103f257600080fd5b5061024f600081565b34801561040757600080fd5b5061027d6104163660046117f8565b610b23565b34801561042757600080fd5b5061027d61043636600461174b565b610b48565b34801561044757600080fd5b506101b061045636600461174b565b60046020526000908152604090205460ff1681565b34801561047757600080fd5b5061027d610486366004611895565b610b72565b34801561049757600080fd5b5061024f6104a636600461185a565b610d37565b3480156104b757600080fd5b5061027d6104c636600461174b565b610d4e565b3480156104d757600080fd5b5061024f7f339759585899103d2ace64958e37e18ccb0504652c81d4a1b8aa80fe2126ab9581565b60006001600160e01b031982167f7965db0b00000000000000000000000000000000000000000000000000000000148061056257507f01ffc9a7000000000000000000000000000000000000000000000000000000006001600160e01b03198316145b92915050565b6002805461057590611a6c565b80601f01602080910402602001604051908101604052809291908181526020018280546105a190611a6c565b80156105ee5780601f106105c3576101008083540402835291602001916105ee565b820191906000526020600020905b8154815290600101906020018083116105d157829003601f168201915b505050505081565b60008281526020819052604090206001015461061181610d65565b61061b8383610d6f565b505050565b6001600160a01b03811633146106a35760405162461bcd60e51b815260206004820152602f60248201527f416363657373436f6e74726f6c3a2063616e206f6e6c792072656e6f756e636560448201527f20726f6c657320666f722073656c66000000000000000000000000000000000060648201526084015b60405180910390fd5b6106ad8282610e0d565b5050565b3360008181527fa54247010af6b3693b80aceddfad12e077c5de3571e6243fada502635f0d7d39602052604090205460ff166107405760405162461bcd60e51b815260206004820152602860248201527f4d61696e7461696e61626c653a2043616c6c6572206973206e6f742061206d6160448201526734b73a30b4b732b960c11b606482015260840161069a565b600082116107905760405162461bcd60e51b815260206004820152601e60248201527f59616b416461707465723a204e6f7468696e6720746f207265636f7665720000604482015260640161069a565b604051339083156108fc029084906000818181858888f193505050501580156107bd573d6000803e3d6000fd5b506040518281526000907f8c1256b8896378cd5044f80c202f9772b9d77dc85c8a6eb51967210b09bfaa28906020015b60405180910390a25050565b6108237f339759585899103d2ace64958e37e18ccb0504652c81d4a1b8aa80fe2126ab95826105f6565b50565b3360008181527fa54247010af6b3693b80aceddfad12e077c5de3571e6243fada502635f0d7d39602052604090205460ff166108b55760405162461bcd60e51b815260206004820152602860248201527f4d61696e7461696e61626c653a2043616c6c6572206973206e6f742061206d6160448201526734b73a30b4b732b960c11b606482015260840161069a565b61061b6001600160a01b038416836000610e8c565b3360008181527fa54247010af6b3693b80aceddfad12e077c5de3571e6243fada502635f0d7d39602052604090205460ff166109595760405162461bcd60e51b815260206004820152602860248201527f4d61696e7461696e61626c653a2043616c6c6572206973206e6f742061206d6160448201526734b73a30b4b732b960c11b606482015260840161069a565b816109a65760405162461bcd60e51b815260206004820152601460248201527f496e76616c6964206761732d657374696d617465000000000000000000000000604482015260640161069a565b600182905560405182815230907ff43f23b7a28e6f8ce6843a21bd7b48bce778aa913b8c8cf459edf7d770e8d38a906020016107ed565b3360008181527fa54247010af6b3693b80aceddfad12e077c5de3571e6243fada502635f0d7d39602052604090205460ff16610a6c5760405162461bcd60e51b815260206004820152602860248201527f4d61696e7461696e61626c653a2043616c6c6572206973206e6f742061206d6160448201526734b73a30b4b732b960c11b606482015260840161069a565b60008211610abc5760405162461bcd60e51b815260206004820152601e60248201527f59616b416461707465723a204e6f7468696e6720746f207265636f7665720000604482015260640161069a565b610ad06001600160a01b0384163384611031565b826001600160a01b03167f8c1256b8896378cd5044f80c202f9772b9d77dc85c8a6eb51967210b09bfaa2883604051610b0b91815260200190565b60405180910390a2505050565b336106ad8282610620565b600082815260208190526040902060010154610b3e81610d65565b61061b8383610e0d565b6108237f339759585899103d2ace64958e37e18ccb0504652c81d4a1b8aa80fe2126ab9582610b23565b6040516370a0823160e01b81526001600160a01b038281166004830152600091908416906370a082319060240160206040518083038186803b158015610bb757600080fd5b505afa158015610bcb573d6000803e3d6000fd5b505050506040513d601f19601f82011682018060405250810190610bef9190611842565b9050610bfe868686868661107a565b6040516370a0823160e01b81526001600160a01b03838116600483015260009183918616906370a082319060240160206040518083038186803b158015610c4457600080fd5b505afa158015610c58573d6000803e3d6000fd5b505050506040513d601f19601f82011682018060405250810190610c7c9190611842565b610c869190611a12565b905085811015610cd85760405162461bcd60e51b815260206004820152601760248201527f496e73756666696369656e7420616d6f756e742d6f7574000000000000000000604482015260640161069a565b836001600160a01b0316856001600160a01b03167fe2bdbc6b7225eb0a972ac943c485a6cc05f7c6811838bce8903f23200fb744fa8989604051610d26929190918252602082015260400190565b60405180910390a350505050505050565b6000610d448484846111af565b90505b9392505050565b33610d5a6000836105f6565b6106ad600082610620565b61082381336112f6565b6000828152602081815260408083206001600160a01b038516845290915290205460ff166106ad576000828152602081815260408083206001600160a01b03851684529091529020805460ff19166001179055610dc93390565b6001600160a01b0316816001600160a01b0316837f2f8788117e7eff1d82e926ec794901d17c78024a50270940304540a733656f0d60405160405180910390a45050565b6000828152602081815260408083206001600160a01b038516845290915290205460ff16156106ad576000828152602081815260408083206001600160a01b0385168085529252808320805460ff1916905551339285917ff6391f5c32d9c69d2a47ea670b442974b53935d1edc7fd64eb21e047a839171b9190a45050565b801580610f2e57506040517fdd62ed3e0000000000000000000000000000000000000000000000000000000081523060048201526001600160a01b03838116602483015284169063dd62ed3e9060440160206040518083038186803b158015610ef457600080fd5b505afa158015610f08573d6000803e3d6000fd5b505050506040513d601f19601f82011682018060405250810190610f2c9190611842565b155b610fa05760405162461bcd60e51b815260206004820152603660248201527f5361666545524332303a20617070726f76652066726f6d206e6f6e2d7a65726f60448201527f20746f206e6f6e2d7a65726f20616c6c6f77616e636500000000000000000000606482015260840161069a565b6040516001600160a01b03831660248201526044810182905261061b9084907f095ea7b300000000000000000000000000000000000000000000000000000000906064015b60408051601f198184030181529190526020810180517bffffffffffffffffffffffffffffffffffffffffffffffffffffffff166001600160e01b031990931692909217909152611374565b6040516001600160a01b03831660248201526044810182905261061b9084907fa9059cbb0000000000000000000000000000000000000000000000000000000090606401610fe5565b6005546001600160a01b03848116600090815260036020526040808220548684168352918190205490517f65b2489b0000000000000000000000000000000000000000000000000000000081526004810192909252602482015260448101889052606481018790529116906365b2489b90608401600060405180830381600087803b15801561110857600080fd5b505af115801561111c573d6000803e3d6000fd5b50506040516370a0823160e01b8152306004820152600092506001600160a01b03851691506370a082319060240160206040518083038186803b15801561116257600080fd5b505afa158015611176573d6000803e3d6000fd5b505050506040513d601f19601f8201168201806040525081019061119a9190611842565b90506111a78382846114b6565b505050505050565b60008315806111cf5750816001600160a01b0316836001600160a01b0316145b806111f357506001600160a01b03831660009081526004602052604090205460ff16155b8061121757506001600160a01b03821660009081526004602052604090205460ff16155b1561122457506000610d47565b6005546001600160a01b03848116600090815260036020526040808220548684168352918190205490517f85f11d1e00000000000000000000000000000000000000000000000000000000815260048101929092526024820152604481018790529116906385f11d1e9060640160206040518083038186803b1580156112a957600080fd5b505afa9250505080156112d9575060408051601f3d908101601f191682019092526112d691810190611842565b60015b6112e557506000610d47565b6112ee816114da565b915050610d47565b6000828152602081815260408083206001600160a01b038516845290915290205460ff166106ad57611332816001600160a01b03166014611508565b61133d836020611508565b60405160200161134e929190611907565b60408051601f198184030181529082905262461bcd60e51b825261069a91600401611988565b600080836001600160a01b03168360405161138f91906118eb565b6000604051808303816000865af19150503d80600081146113cc576040519150601f19603f3d011682016040523d82523d6000602084013e6113d1565b606091505b5091509150816114235760405162461bcd60e51b815260206004820181905260248201527f5361666545524332303a206c6f772d6c6576656c2063616c6c206661696c6564604482015260640161069a565b8051156114b0578080602001905181019061143e91906117c0565b6114b05760405162461bcd60e51b815260206004820152602a60248201527f5361666545524332303a204552433230206f7065726174696f6e20646964206e60448201527f6f74207375636365656400000000000000000000000000000000000000000000606482015260840161069a565b50505050565b306001600160a01b0382161461061b5761061b6001600160a01b0384168284611031565b60008115611500576127106114f18361270c6119f3565b6114fb91906119d3565b610562565b600092915050565b606060006115178360026119f3565b6115229060026119bb565b67ffffffffffffffff81111561154857634e487b7160e01b600052604160045260246000fd5b6040519080825280601f01601f191660200182016040528015611572576020820181803683370190505b5090507f3000000000000000000000000000000000000000000000000000000000000000816000815181106115b757634e487b7160e01b600052603260045260246000fd5b60200101906001600160f81b031916908160001a9053507f78000000000000000000000000000000000000000000000000000000000000008160018151811061161057634e487b7160e01b600052603260045260246000fd5b60200101906001600160f81b031916908160001a90535060006116348460026119f3565b61163f9060016119bb565b90505b60018111156116e0577f303132333435363738396162636465660000000000000000000000000000000085600f166010811061168e57634e487b7160e01b600052603260045260246000fd5b1a60f81b8282815181106116b257634e487b7160e01b600052603260045260246000fd5b60200101906001600160f81b031916908160001a90535060049490941c936116d981611a55565b9050611642565b508315610d475760405162461bcd60e51b815260206004820181905260248201527f537472696e67733a20686578206c656e67746820696e73756666696369656e74604482015260640161069a565b80356001600160a01b038116811461174657600080fd5b919050565b60006020828403121561175c578081fd5b610d478261172f565b60008060408385031215611777578081fd5b6117808361172f565b915061178e6020840161172f565b90509250929050565b600080604083850312156117a9578182fd5b6117b28361172f565b946020939093013593505050565b6000602082840312156117d1578081fd5b81518015158114610d47578182fd5b6000602082840312156117f1578081fd5b5035919050565b6000806040838503121561180a578182fd5b8235915061178e6020840161172f565b60006020828403121561182b578081fd5b81356001600160e01b031981168114610d47578182fd5b600060208284031215611853578081fd5b5051919050565b60008060006060848603121561186e578081fd5b8335925061187e6020850161172f565b915061188c6040850161172f565b90509250925092565b600080600080600060a086880312156118ac578081fd5b85359450602086013593506118c36040870161172f565b92506118d16060870161172f565b91506118df6080870161172f565b90509295509295909350565b600082516118fd818460208701611a29565b9190910192915050565b7f416363657373436f6e74726f6c3a206163636f756e742000000000000000000081526000835161193f816017850160208801611a29565b7f206973206d697373696e6720726f6c6520000000000000000000000000000000601791840191820152835161197c816028840160208801611a29565b01602801949350505050565b60208152600082518060208401526119a7816040850160208701611a29565b601f01601f19169190910160400192915050565b600082198211156119ce576119ce611aa7565b500190565b6000826119ee57634e487b7160e01b81526012600452602481fd5b500490565b6000816000190483118215151615611a0d57611a0d611aa7565b500290565b600082821015611a2457611a24611aa7565b500390565b60005b83811015611a44578181015183820152602001611a2c565b838111156114b05750506000910152565b600081611a6457611a64611aa7565b506000190190565b600181811c90821680611a8057607f821691505b60208210811415611aa157634e487b7160e01b600052602260045260246000fd5b50919050565b634e487b7160e01b600052601160045260246000fdfea26469706673582212206704a366f7ad2c8925efb213fcd5733ab12c4f5e4009ed320d71ba748a64f93764736f6c63430008040033",
  "devdoc": {
    "kind": "dev",
    "methods": {
      "getRoleAdmin(bytes32)": {
        "details": "Returns the admin role that controls `role`. See {grantRole} and {revokeRole}. To change a role's admin, use {_setRoleAdmin}."
      },
      "grantRole(bytes32,address)": {
        "details": "Grants `role` to `account`. If `account` had not been already granted `role`, emits a {RoleGranted} event. Requirements: - the caller must have ``role``'s admin role. May emit a {RoleGranted} event."
      },
      "hasRole(bytes32,address)": {
        "details": "Returns `true` if `account` has been granted `role`."
      },
      "renounceRole(bytes32,address)": {
        "details": "Revokes `role` from the calling account. Roles are often managed via {grantRole} and {revokeRole}: this function's purpose is to provide a mechanism for accounts to lose their privileges if they are compromised (such as when a trusted device is misplaced). If the calling account had been revoked `role`, emits a {RoleRevoked} event. Requirements: - the caller must be `account`. May emit a {RoleRevoked} event."
      },
      "revokeRole(bytes32,address)": {
        "details": "Revokes `role` from `account`. If `account` had been granted `role`, emits a {RoleRevoked} event. Requirements: - the caller must have ``role``'s admin role. May emit a {RoleRevoked} event."
      },
      "supportsInterface(bytes4)": {
        "details": "See {IERC165-supportsInterface}."
      }
    },
    "version": 1
  },
  "userdoc": {
    "kind": "user",
    "methods": {},
    "version": 1
  },
  "storageLayout": {
    "storage": [
      {
        "astId": 24,
        "contract": "src/contracts/adapters/Curve1Adapter.sol:Curve1Adapter",
        "label": "_roles",
        "offset": 0,
        "slot": "0",
        "type": "t_mapping(t_bytes32,t_struct(RoleData)19_storage)"
      },
      {
        "astId": 718,
        "contract": "src/contracts/adapters/Curve1Adapter.sol:Curve1Adapter",
        "label": "swapGasEstimate",
        "offset": 0,
        "slot": "1",
        "type": "t_uint256"
      },
      {
        "astId": 720,
        "contract": "src/contracts/adapters/Curve1Adapter.sol:Curve1Adapter",
        "label": "name",
        "offset": 0,
        "slot": "2",
        "type": "t_string_storage"
      },
      {
        "astId": 1009,
        "contract": "src/contracts/adapters/Curve1Adapter.sol:Curve1Adapter",
        "label": "tokenIndex",
        "offset": 0,
        "slot": "3",
        "type": "t_mapping(t_address,t_uint256)"
      },
      {
        "astId": 1013,
        "contract": "src/contracts/adapters/Curve1Adapter.sol:Curve1Adapter",
        "label": "isPoolToken",
        "offset": 0,
        "slot": "4",
        "type": "t_mapping(t_address,t_bool)"
      },
      {
        "astId": 1015,
        "contract": "src/contracts/adapters/Curve1Adapter.sol:Curve1Adapter",
        "label": "pool",
        "offset": 0,
        "slot": "5",
        "type": "t_address"
      }
    ],
    "types": {
      "t_address": {
        "encoding": "inplace",
        "label": "address",
        "numberOfBytes": "20"
      },
      "t_bool": {
        "encoding": "inplace",
        "label": "bool",
        "numberOfBytes": "1"
      },
      "t_bytes32": {
        "encoding": "inplace",
        "label": "bytes32",
        "numberOfBytes": "32"
      },
      "t_mapping(t_address,t_bool)": {
        "encoding": "mapping",
        "key": "t_address",
        "label": "mapping(address => bool)",
        "numberOfBytes": "32",
        "value": "t_bool"
      },
      "t_mapping(t_address,t_uint256)": {
        "encoding": "mapping",
        "key": "t_address",
        "label": "mapping(address => uint256)",
        "numberOfBytes": "32",
        "value": "t_uint256"
      },
      "t_mapping(t_bytes32,t_struct(RoleData)19_storage)": {
        "encoding": "mapping",
        "key": "t_bytes32",
        "label": "mapping(bytes32 => struct AccessControl.RoleData)",
        "numberOfBytes": "32",
        "value": "t_struct(RoleData)19_storage"
      },
      "t_string_storage": {
        "encoding": "bytes",
        "label": "string",
        "numberOfBytes": "32"
      },
      "t_struct(RoleData)19_storage": {
        "encoding": "inplace",
        "label": "struct AccessControl.RoleData",
        "members": [
          {
            "astId": 16,
            "contract": "src/contracts/adapters/Curve1Adapter.sol:Curve1Adapter",
            "label": "members",
            "offset": 0,
            "slot": "0",
            "type": "t_mapping(t_address,t_bool)"
          },
          {
            "astId": 18,
            "contract": "src/contracts/adapters/Curve1Adapter.sol:Curve1Adapter",
            "label": "adminRole",
            "offset": 0,
            "slot": "1",
            "type": "t_bytes32"
          }
        ],
        "numberOfBytes": "64"
      },
      "t_uint256": {
        "encoding": "inplace",
        "label": "uint256",
        "numberOfBytes": "32"
      }
    }
  }
}