{
  "address": "0x491dc06178CAF5b962DB53576a8A1456a8476232",
  "abi": [
    {
      "inputs": [
        {
          "internalType": "string",
          "name": "_name",
          "type": "string"
        },
        {
          "internalType": "address",
          "name": "_pool",
          "type": "address"
        },
        {
          "internalType": "uint256",
          "name": "_swapGasEstimate",
          "type": "uint256"
        }
      ],
      "stateMutability": "nonpayable",
      "type": "constructor"
    },
    {
      "anonymous": false,
      "inputs": [
        {
          "indexed": true,
          "internalType": "address",
          "name": "previousOwner",
          "type": "address"
        },
        {
          "indexed": true,
          "internalType": "address",
          "name": "newOwner",
          "type": "address"
        }
      ],
      "name": "OwnershipTransferred",
      "type": "event"
    },
    {
      "anonymous": false,
      "inputs": [
        {
          "indexed": true,
          "internalType": "address",
          "name": "_asset",
          "type": "address"
        },
        {
          "indexed": false,
          "internalType": "uint256",
          "name": "amount",
          "type": "uint256"
        }
      ],
      "name": "Recovered",
      "type": "event"
    },
    {
      "anonymous": false,
      "inputs": [
        {
          "indexed": true,
          "internalType": "address",
          "name": "_adapter",
          "type": "address"
        },
        {
          "indexed": false,
          "internalType": "uint256",
          "name": "_newEstimate",
          "type": "uint256"
        }
      ],
      "name": "UpdatedGasEstimate",
      "type": "event"
    },
    {
      "anonymous": false,
      "inputs": [
        {
          "indexed": true,
          "internalType": "address",
          "name": "_tokenFrom",
          "type": "address"
        },
        {
          "indexed": true,
          "internalType": "address",
          "name": "_tokenTo",
          "type": "address"
        },
        {
          "indexed": false,
          "internalType": "uint256",
          "name": "_amountIn",
          "type": "uint256"
        },
        {
          "indexed": false,
          "internalType": "uint256",
          "name": "_amountOut",
          "type": "uint256"
        }
      ],
      "name": "YakAdapterSwap",
      "type": "event"
    },
    {
      "inputs": [],
      "name": "id",
      "outputs": [
        {
          "internalType": "bytes32",
          "name": "",
          "type": "bytes32"
        }
      ],
      "stateMutability": "view",
      "type": "function"
    },
    {
      "inputs": [
        {
          "internalType": "address",
          "name": "",
          "type": "address"
        }
      ],
      "name": "isPoolToken",
      "outputs": [
        {
          "internalType": "bool",
          "name": "",
          "type": "bool"
        }
      ],
      "stateMutability": "view",
      "type": "function"
    },
    {
      "inputs": [],
      "name": "name",
      "outputs": [
        {
          "internalType": "string",
          "name": "",
          "type": "string"
        }
      ],
      "stateMutability": "view",
      "type": "function"
    },
    {
      "inputs": [],
      "name": "owner",
      "outputs": [
        {
          "internalType": "address",
          "name": "",
          "type": "address"
        }
      ],
      "stateMutability": "view",
      "type": "function"
    },
    {
      "inputs": [],
      "name": "pool",
      "outputs": [
        {
          "internalType": "address",
          "name": "",
          "type": "address"
        }
      ],
      "stateMutability": "view",
      "type": "function"
    },
    {
      "inputs": [
        {
          "internalType": "uint256",
          "name": "_amountIn",
          "type": "uint256"
        },
        {
          "internalType": "address",
          "name": "_tokenIn",
          "type": "address"
        },
        {
          "internalType": "address",
          "name": "_tokenOut",
          "type": "address"
        }
      ],
      "name": "query",
      "outputs": [
        {
          "internalType": "uint256",
          "name": "",
          "type": "uint256"
        }
      ],
      "stateMutability": "view",
      "type": "function"
    },
    {
      "inputs": [
        {
          "internalType": "uint256",
          "name": "_amount",
          "type": "uint256"
        }
      ],
      "name": "recoverAVAX",
      "outputs": [],
      "stateMutability": "nonpayable",
      "type": "function"
    },
    {
      "inputs": [
        {
          "internalType": "address",
          "name": "_tokenAddress",
          "type": "address"
        },
        {
          "internalType": "uint256",
          "name": "_tokenAmount",
          "type": "uint256"
        }
      ],
      "name": "recoverERC20",
      "outputs": [],
      "stateMutability": "nonpayable",
      "type": "function"
    },
    {
      "inputs": [],
      "name": "renounceOwnership",
      "outputs": [],
      "stateMutability": "nonpayable",
      "type": "function"
    },
    {
      "inputs": [
        {
          "internalType": "address",
          "name": "_token",
          "type": "address"
        },
        {
          "internalType": "address",
          "name": "_spender",
          "type": "address"
        }
      ],
      "name": "revokeAllowance",
      "outputs": [],
      "stateMutability": "nonpayable",
      "type": "function"
    },
    {
      "inputs": [],
      "name": "setAllowances",
      "outputs": [],
      "stateMutability": "nonpayable",
      "type": "function"
    },
    {
      "inputs": [
        {
          "internalType": "uint256",
          "name": "_estimate",
          "type": "uint256"
        }
      ],
      "name": "setSwapGasEstimate",
      "outputs": [],
      "stateMutability": "nonpayable",
      "type": "function"
    },
    {
      "inputs": [
        {
          "internalType": "uint256",
          "name": "_amountIn",
          "type": "uint256"
        },
        {
          "internalType": "uint256",
          "name": "_amountOut",
          "type": "uint256"
        },
        {
          "internalType": "address",
          "name": "_fromToken",
          "type": "address"
        },
        {
          "internalType": "address",
          "name": "_toToken",
          "type": "address"
        },
        {
          "internalType": "address",
          "name": "_to",
          "type": "address"
        }
      ],
      "name": "swap",
      "outputs": [],
      "stateMutability": "nonpayable",
      "type": "function"
    },
    {
      "inputs": [],
      "name": "swapGasEstimate",
      "outputs": [
        {
          "internalType": "uint256",
          "name": "",
          "type": "uint256"
        }
      ],
      "stateMutability": "view",
      "type": "function"
    },
    {
      "inputs": [
        {
          "internalType": "address",
          "name": "",
          "type": "address"
        }
      ],
      "name": "tokenIndex",
      "outputs": [
        {
          "internalType": "uint256",
          "name": "",
          "type": "uint256"
        }
      ],
      "stateMutability": "view",
      "type": "function"
    },
    {
      "inputs": [
        {
          "internalType": "address",
          "name": "newOwner",
          "type": "address"
        }
      ],
      "name": "transferOwnership",
      "outputs": [],
      "stateMutability": "nonpayable",
      "type": "function"
    },
    {
      "stateMutability": "payable",
      "type": "receive"
    }
  ],
  "transactionHash": "0x7d52106274cc183e07a05d1f2c7b6bffe2e7a89cb123eeac88ca32a3ae4bb6b5",
  "args": [
    "CurveAtricryptoAdapterV0",
    "0x58e57cA18B7A47112b877E31929798Cd3D703b0f",
    1098000
  ],
  "solcInputHash": "890a153173b4ebb67e6d2a462c5b84ba",
  "bytecode": "0x60806040523480156200001157600080fd5b506040516200167038038062001670833981810160405260608110156200003757600080fd5b81019080805160405193929190846401000000008211156200005857600080fd5b9083019060208201858111156200006e57600080fd5b82516401000000008111828201881017156200008957600080fd5b82525081516020918201929091019080838360005b83811015620000b85781810151838201526020016200009e565b50505050905090810190601f168015620000e65780820380516001836020036101000a031916815260200191505b506040908152602082015191015190925090506000620001056200019e565b600080546001600160a01b0319166001600160a01b0383169081178255604051929350917f8be0079c531659141344cd1fd0a4f28419497f9722a3daafe3b4186f6b6457e0908290a35082516200016490600290602086019062000325565b50600580546001600160a01b0319166001600160a01b0384161790556200018a620001a2565b62000195816200025f565b505050620003d1565b3390565b60005b60055460408051630b9947eb60e41b81526004810184905290516001600160a01b039092169163b9947eb091602480820192602092909190829003018186803b158015620001f257600080fd5b505afa9250505080156200021957506040513d60208110156200021457600080fd5b505160015b62000224576200025c565b6001600160a01b03166000908152600360209081526040808320805460ff1916600117905560049091529020819055600101620001a5565b50565b620002696200019e565b6001600160a01b03166200027c62000316565b6001600160a01b031614620002d8576040805162461bcd60e51b815260206004820181905260248201527f4f776e61626c653a2043616c6c6572206973206e6f7420746865206f776e6572604482015290519081900360640190fd5b600181905560408051828152905130917ff43f23b7a28e6f8ce6843a21bd7b48bce778aa913b8c8cf459edf7d770e8d38a919081900360200190a250565b6000546001600160a01b031690565b828054600181600116156101000203166002900490600052602060002090601f0160209004810192826200035d5760008555620003a8565b82601f106200037857805160ff1916838001178555620003a8565b82800160010185558215620003a8579182015b82811115620003a85782518255916020019190600101906200038b565b50620003b6929150620003ba565b5090565b5b80821115620003b65760008155600101620003bb565b61128f80620003e16000396000f3fe6080604052600436106100f75760003560e01c80638980f11f1161008a578063de260f3711610059578063de260f3714610336578063eab90da61461037d578063ef99893a146103ce578063f2fde38b1461040f576100fe565b80638980f11f146102be5780638da5cb5b146102f7578063af640d0f1461030c578063dbd9a4d414610321576100fe565b806369cff80d116100c657806369cff80d1461022f578063715018a6146102445780637ae267731461025957806384a33e6314610294576100fe565b806306fdde031461010357806316f0115b1461018d578063427f91a6146101be5780634ebb791614610203576100fe565b366100fe57005b600080fd5b34801561010f57600080fd5b50610118610442565b6040805160208082528351818301528351919283929083019185019080838360005b8381101561015257818101518382015260200161013a565b50505050905090810190601f16801561017f5780820380516001836020036101000a031916815260200191505b509250505060405180910390f35b34801561019957600080fd5b506101a26104cd565b604080516001600160a01b039092168252519081900360200190f35b3480156101ca57600080fd5b506101f1600480360360208110156101e157600080fd5b50356001600160a01b03166104dc565b60408051918252519081900360200190f35b34801561020f57600080fd5b5061022d6004803603602081101561022657600080fd5b50356104ee565b005b34801561023b57600080fd5b506101f161061f565b34801561025057600080fd5b5061022d610625565b34801561026557600080fd5b5061022d6004803603604081101561027c57600080fd5b506001600160a01b03813581169160200135166106f0565b3480156102a057600080fd5b5061022d600480360360208110156102b757600080fd5b503561077d565b3480156102ca57600080fd5b5061022d600480360360408110156102e157600080fd5b506001600160a01b03813516906020013561082f565b34801561030357600080fd5b506101a261094f565b34801561031857600080fd5b506101f161095e565b34801561032d57600080fd5b5061022d610982565b34801561034257600080fd5b506103696004803603602081101561035957600080fd5b50356001600160a01b03166109f8565b604080519115158252519081900360200190f35b34801561038957600080fd5b5061022d600480360360a08110156103a057600080fd5b508035906020810135906001600160a01b036040820135811691606081013582169160809091013516610a0d565b3480156103da57600080fd5b506101f1600480360360608110156103f157600080fd5b508035906001600160a01b0360208201358116916040013516610a7e565b34801561041b57600080fd5b5061022d6004803603602081101561043257600080fd5b50356001600160a01b0316610a95565b6002805460408051602060018416156101000260001901909316849004601f810184900484028201840190925281815292918301828280156104c55780601f1061049a576101008083540402835291602001916104c5565b820191906000526020600020905b8154815290600101906020018083116104a857829003601f168201915b505050505081565b6005546001600160a01b031681565b60046020526000908152604090205481565b6104f6610bb6565b6001600160a01b031661050761094f565b6001600160a01b031614610562576040805162461bcd60e51b815260206004820181905260248201527f4f776e61626c653a2043616c6c6572206973206e6f7420746865206f776e6572604482015290519081900360640190fd5b600081116105b7576040805162461bcd60e51b815260206004820152601e60248201527f59616b416461707465723a204e6f7468696e6720746f207265636f7665720000604482015290519081900360640190fd5b604051339082156108fc029083906000818181858888f193505050501580156105e4573d6000803e3d6000fd5b506040805182815290516000917f8c1256b8896378cd5044f80c202f9772b9d77dc85c8a6eb51967210b09bfaa28919081900360200190a250565b60015481565b61062d610bb6565b6001600160a01b031661063e61094f565b6001600160a01b031614610699576040805162461bcd60e51b815260206004820181905260248201527f4f776e61626c653a2043616c6c6572206973206e6f7420746865206f776e6572604482015290519081900360640190fd5b600080546040516001600160a01b03909116907f8be0079c531659141344cd1fd0a4f28419497f9722a3daafe3b4186f6b6457e0908390a36000805473ffffffffffffffffffffffffffffffffffffffff19169055565b6106f8610bb6565b6001600160a01b031661070961094f565b6001600160a01b031614610764576040805162461bcd60e51b815260206004820181905260248201527f4f776e61626c653a2043616c6c6572206973206e6f7420746865206f776e6572604482015290519081900360640190fd5b6107796001600160a01b038316826000610bba565b5050565b610785610bb6565b6001600160a01b031661079661094f565b6001600160a01b0316146107f1576040805162461bcd60e51b815260206004820181905260248201527f4f776e61626c653a2043616c6c6572206973206e6f7420746865206f776e6572604482015290519081900360640190fd5b600181905560408051828152905130917ff43f23b7a28e6f8ce6843a21bd7b48bce778aa913b8c8cf459edf7d770e8d38a919081900360200190a250565b610837610bb6565b6001600160a01b031661084861094f565b6001600160a01b0316146108a3576040805162461bcd60e51b815260206004820181905260248201527f4f776e61626c653a2043616c6c6572206973206e6f7420746865206f776e6572604482015290519081900360640190fd5b600081116108f8576040805162461bcd60e51b815260206004820152601e60248201527f59616b416461707465723a204e6f7468696e6720746f207265636f7665720000604482015290519081900360640190fd5b61090c6001600160a01b0383163383610cef565b6040805182815290516001600160a01b038416917f8c1256b8896378cd5044f80c202f9772b9d77dc85c8a6eb51967210b09bfaa28919081900360200190a25050565b6000546001600160a01b031690565b7f5fcb9c5e6853db0e74b946fe90f93090c1db27bf0ad8dae8412127a0d05c767181565b61098a610bb6565b6001600160a01b031661099b61094f565b6001600160a01b0316146109f6576040805162461bcd60e51b815260206004820181905260248201527f4f776e61626c653a2043616c6c6572206973206e6f7420746865206f776e6572604482015290519081900360640190fd5b565b60036020526000908152604090205460ff1681565b610a178386610d0e565b610a248585858585610db4565b816001600160a01b0316836001600160a01b03167fe2bdbc6b7225eb0a972ac943c485a6cc05f7c6811838bce8903f23200fb744fa8787604051808381526020018281526020019250505060405180910390a35050505050565b6000610a8b848484610e6e565b90505b9392505050565b610a9d610bb6565b6001600160a01b0316610aae61094f565b6001600160a01b031614610b09576040805162461bcd60e51b815260206004820181905260248201527f4f776e61626c653a2043616c6c6572206973206e6f7420746865206f776e6572604482015290519081900360640190fd5b6001600160a01b038116610b4e5760405162461bcd60e51b81526004018080602001828103825260268152602001806112346026913960400191505060405180910390fd5b600080546040516001600160a01b03808516939216917f8be0079c531659141344cd1fd0a4f28419497f9722a3daafe3b4186f6b6457e091a36000805473ffffffffffffffffffffffffffffffffffffffff19166001600160a01b0392909216919091179055565b3390565b801580610c425750604051636eb1769f60e11b81526001600160a01b0384169063dd62ed3e90610bf09030908690600401611111565b60206040518083038186803b158015610c0857600080fd5b505afa158015610c1c573d6000803e3d6000fd5b505050506040513d601f19601f82011682018060405250810190610c4091906110c0565b155b610c675760405162461bcd60e51b8152600401610c5e906111d6565b60405180910390fd5b610cea8363095ea7b360e01b8484604051602401610c8692919061112b565b60408051601f198184030181529190526020810180517bffffffffffffffffffffffffffffffffffffffffffffffffffffffff167fffffffff0000000000000000000000000000000000000000000000000000000090931692909217909152610fc0565b505050565b610cea8363a9059cbb60e01b8484604051602401610c8692919061112b565b60055460408051636eb1769f60e11b81523060048201526001600160a01b039283166024820152905160009285169163dd62ed3e916044808301926020929190829003018186803b158015610d6257600080fd5b505afa158015610d76573d6000803e3d6000fd5b505050506040513d6020811015610d8c57600080fd5b5051905081811015610cea57600554610cea906001600160a01b038581169116600019610bba565b6005546001600160a01b0384811660009081526004602081905260408083205487851684528184205482517f65b2489b000000000000000000000000000000000000000000000000000000008152938401919091526024830152604482018a9052606482018990525192909316926365b2489b926084808301939282900301818387803b158015610e4457600080fd5b505af1158015610e58573d6000803e3d6000fd5b50505050610e6782858361107c565b5050505050565b6000831580610e8e5750816001600160a01b0316836001600160a01b0316145b80610eb257506001600160a01b03831660009081526003602052604090205460ff16155b80610ed657506001600160a01b03821660009081526003602052604090205460ff16155b15610ee357506000610a8e565b6005546001600160a01b038481166000908152600460208181526040808420548886168552938190205481517f85f11d1e00000000000000000000000000000000000000000000000000000000815293840194909452602483019390935260448201899052915192909316926385f11d1e9260648083019392829003018186803b158015610f7057600080fd5b505afa925050508015610f9557506040513d6020811015610f9057600080fd5b505160015b610fa157506000610a8e565b8015610fb55761271061270c820204610fb8565b60005b915050610a8e565b600080836001600160a01b031683604051610fdb91906110d8565b6000604051808303816000865af19150503d8060008114611018576040519150601f19603f3d011682016040523d82523d6000602084013e61101d565b606091505b50915091508161103f5760405162461bcd60e51b8152600401610c5e90611144565b805115611076578080602001905181019061105a91906110a0565b6110765760405162461bcd60e51b8152600401610c5e90611179565b50505050565b306001600160a01b03821614610cea57610cea6001600160a01b0384168284610cef565b6000602082840312156110b1578081fd5b81518015158114610a8e578182fd5b6000602082840312156110d1578081fd5b5051919050565b60008251815b818110156110f857602081860181015185830152016110de565b818111156111065782828501525b509190910192915050565b6001600160a01b0392831681529116602082015260400190565b6001600160a01b03929092168252602082015260400190565b6020808252818101527f5361666545524332303a206c6f772d6c6576656c2063616c6c206661696c6564604082015260600190565b6020808252602a908201527f5361666545524332303a204552433230206f7065726174696f6e20646964206e60408201527f6f74207375636365656400000000000000000000000000000000000000000000606082015260800190565b60208082526036908201527f5361666545524332303a20617070726f76652066726f6d206e6f6e2d7a65726f60408201527f20746f206e6f6e2d7a65726f20616c6c6f77616e63650000000000000000000060608201526080019056fe4f776e61626c653a204e6577206f776e657220697320746865207a65726f2061646472657373a2646970667358221220e1bb6be40e671f104392f237d17e05b1f7875915805a3bdeec7890a437a2c78364736f6c63430007060033",
  "devdoc": {
    "kind": "dev",
    "methods": {
      "owner()": {
        "details": "Returns the address of the current owner."
      },
      "recoverAVAX(uint256)": {
        "params": {
          "_amount": "amount"
        }
      },
      "recoverERC20(address,uint256)": {
        "params": {
          "_tokenAddress": "token address",
          "_tokenAmount": "amount to recover"
        }
      },
      "renounceOwnership()": {
        "details": "Leaves the contract without owner. It will not be possible to call `onlyOwner` functions anymore. Can only be called by the current owner. NOTE: Renouncing ownership will leave the contract without an owner, thereby removing any functionality that is only available to the owner."
      },
      "revokeAllowance(address,address)": {
        "params": {
          "_spender": "address",
          "_token": "address"
        }
      },
      "setAllowances()": {
        "details": "Should use modifier `onlyOwner` to avoid griefing"
      },
      "swap(uint256,uint256,address,address,address)": {
        "params": {
          "_amountIn": "input amount in starting token",
          "_amountOut": "amount out in ending token",
          "_fromToken": "ERC20 token being sold",
          "_to": "address where swapped funds should be sent to",
          "_toToken": "ERC20 token being bought"
        }
      },
      "transferOwnership(address)": {
        "details": "Transfers ownership of the contract to a new account (`newOwner`). Can only be called by the current owner."
      }
    },
    "version": 1
  },
  "userdoc": {
    "kind": "user",
    "methods": {
      "recoverAVAX(uint256)": {
        "notice": "Recover AVAX from contract"
      },
      "recoverERC20(address,uint256)": {
        "notice": "Recover ERC20 from contract"
      },
      "revokeAllowance(address,address)": {
        "notice": "Revoke token allowance"
      },
      "setAllowances()": {
        "notice": "Approve tokens for use in Strategy"
      },
      "swap(uint256,uint256,address,address,address)": {
        "notice": "Execute a swap from token to token assuming this contract already holds input tokensInteract through the router"
      }
    },
    "version": 1
  },
  "storageLayout": {
    "storage": [
      {
        "astId": 5148,
        "contract": "contracts/adapters/Curve1Adapter.sol:Curve1Adapter",
        "label": "_owner",
        "offset": 0,
        "slot": "0",
        "type": "t_address"
      },
      {
        "astId": 50,
        "contract": "contracts/adapters/Curve1Adapter.sol:Curve1Adapter",
        "label": "swapGasEstimate",
        "offset": 0,
        "slot": "1",
        "type": "t_uint256"
      },
      {
        "astId": 52,
        "contract": "contracts/adapters/Curve1Adapter.sol:Curve1Adapter",
        "label": "name",
        "offset": 0,
        "slot": "2",
        "type": "t_string_storage"
      },
      {
        "astId": 2489,
        "contract": "contracts/adapters/Curve1Adapter.sol:Curve1Adapter",
        "label": "isPoolToken",
        "offset": 0,
        "slot": "3",
        "type": "t_mapping(t_address,t_bool)"
      },
      {
        "astId": 2493,
        "contract": "contracts/adapters/Curve1Adapter.sol:Curve1Adapter",
        "label": "tokenIndex",
        "offset": 0,
        "slot": "4",
        "type": "t_mapping(t_address,t_uint256)"
      },
      {
        "astId": 2495,
        "contract": "contracts/adapters/Curve1Adapter.sol:Curve1Adapter",
        "label": "pool",
        "offset": 0,
        "slot": "5",
        "type": "t_address"
      }
    ],
    "types": {
      "t_address": {
        "encoding": "inplace",
        "label": "address",
        "numberOfBytes": "20"
      },
      "t_bool": {
        "encoding": "inplace",
        "label": "bool",
        "numberOfBytes": "1"
      },
      "t_mapping(t_address,t_bool)": {
        "encoding": "mapping",
        "key": "t_address",
        "label": "mapping(address => bool)",
        "numberOfBytes": "32",
        "value": "t_bool"
      },
      "t_mapping(t_address,t_uint256)": {
        "encoding": "mapping",
        "key": "t_address",
        "label": "mapping(address => uint256)",
        "numberOfBytes": "32",
        "value": "t_uint256"
      },
      "t_string_storage": {
        "encoding": "bytes",
        "label": "string",
        "numberOfBytes": "32"
      },
      "t_uint256": {
        "encoding": "inplace",
        "label": "uint256",
        "numberOfBytes": "32"
      }
    }
  }
}