{
  "address": "0x79632b8194a1Ce048e5d9b0e282E9eE2d4579c20",
  "abi": [
    {
      "inputs": [
        {
          "internalType": "uint256",
          "name": "_swapGasEstimate",
          "type": "uint256"
        }
      ],
      "stateMutability": "nonpayable",
      "type": "constructor"
    },
    {
      "anonymous": false,
      "inputs": [
        {
          "indexed": true,
          "internalType": "address",
          "name": "_asset",
          "type": "address"
        },
        {
          "indexed": false,
          "internalType": "uint256",
          "name": "amount",
          "type": "uint256"
        }
      ],
      "name": "Recovered",
      "type": "event"
    },
    {
      "anonymous": false,
      "inputs": [
        {
          "indexed": true,
          "internalType": "bytes32",
          "name": "role",
          "type": "bytes32"
        },
        {
          "indexed": true,
          "internalType": "bytes32",
          "name": "previousAdminRole",
          "type": "bytes32"
        },
        {
          "indexed": true,
          "internalType": "bytes32",
          "name": "newAdminRole",
          "type": "bytes32"
        }
      ],
      "name": "RoleAdminChanged",
      "type": "event"
    },
    {
      "anonymous": false,
      "inputs": [
        {
          "indexed": true,
          "internalType": "bytes32",
          "name": "role",
          "type": "bytes32"
        },
        {
          "indexed": true,
          "internalType": "address",
          "name": "account",
          "type": "address"
        },
        {
          "indexed": true,
          "internalType": "address",
          "name": "sender",
          "type": "address"
        }
      ],
      "name": "RoleGranted",
      "type": "event"
    },
    {
      "anonymous": false,
      "inputs": [
        {
          "indexed": true,
          "internalType": "bytes32",
          "name": "role",
          "type": "bytes32"
        },
        {
          "indexed": true,
          "internalType": "address",
          "name": "account",
          "type": "address"
        },
        {
          "indexed": true,
          "internalType": "address",
          "name": "sender",
          "type": "address"
        }
      ],
      "name": "RoleRevoked",
      "type": "event"
    },
    {
      "anonymous": false,
      "inputs": [
        {
          "indexed": true,
          "internalType": "address",
          "name": "_adapter",
          "type": "address"
        },
        {
          "indexed": false,
          "internalType": "uint256",
          "name": "_newEstimate",
          "type": "uint256"
        }
      ],
      "name": "UpdatedGasEstimate",
      "type": "event"
    },
    {
      "anonymous": false,
      "inputs": [
        {
          "indexed": true,
          "internalType": "address",
          "name": "_tokenFrom",
          "type": "address"
        },
        {
          "indexed": true,
          "internalType": "address",
          "name": "_tokenTo",
          "type": "address"
        },
        {
          "indexed": false,
          "internalType": "uint256",
          "name": "_amountIn",
          "type": "uint256"
        },
        {
          "indexed": false,
          "internalType": "uint256",
          "name": "_amountOut",
          "type": "uint256"
        }
      ],
      "name": "YakAdapterSwap",
      "type": "event"
    },
    {
      "inputs": [],
      "name": "DEFAULT_ADMIN_ROLE",
      "outputs": [
        {
          "internalType": "bytes32",
          "name": "",
          "type": "bytes32"
        }
      ],
      "stateMutability": "view",
      "type": "function"
    },
    {
      "inputs": [],
      "name": "MAINTAINER_ROLE",
      "outputs": [
        {
          "internalType": "bytes32",
          "name": "",
          "type": "bytes32"
        }
      ],
      "stateMutability": "view",
      "type": "function"
    },
    {
      "inputs": [],
      "name": "WAVAX",
      "outputs": [
        {
          "internalType": "address",
          "name": "",
          "type": "address"
        }
      ],
      "stateMutability": "view",
      "type": "function"
    },
    {
      "inputs": [
        {
          "internalType": "address",
          "name": "addedMaintainer",
          "type": "address"
        }
      ],
      "name": "addMaintainer",
      "outputs": [],
      "stateMutability": "nonpayable",
      "type": "function"
    },
    {
      "inputs": [
        {
          "internalType": "bytes32",
          "name": "role",
          "type": "bytes32"
        }
      ],
      "name": "getRoleAdmin",
      "outputs": [
        {
          "internalType": "bytes32",
          "name": "",
          "type": "bytes32"
        }
      ],
      "stateMutability": "view",
      "type": "function"
    },
    {
      "inputs": [],
      "name": "ggAVAX",
      "outputs": [
        {
          "internalType": "address",
          "name": "",
          "type": "address"
        }
      ],
      "stateMutability": "view",
      "type": "function"
    },
    {
      "inputs": [
        {
          "internalType": "bytes32",
          "name": "role",
          "type": "bytes32"
        },
        {
          "internalType": "address",
          "name": "account",
          "type": "address"
        }
      ],
      "name": "grantRole",
      "outputs": [],
      "stateMutability": "nonpayable",
      "type": "function"
    },
    {
      "inputs": [
        {
          "internalType": "bytes32",
          "name": "role",
          "type": "bytes32"
        },
        {
          "internalType": "address",
          "name": "account",
          "type": "address"
        }
      ],
      "name": "hasRole",
      "outputs": [
        {
          "internalType": "bool",
          "name": "",
          "type": "bool"
        }
      ],
      "stateMutability": "view",
      "type": "function"
    },
    {
      "inputs": [],
      "name": "name",
      "outputs": [
        {
          "internalType": "string",
          "name": "",
          "type": "string"
        }
      ],
      "stateMutability": "view",
      "type": "function"
    },
    {
      "inputs": [
        {
          "internalType": "uint256",
          "name": "_amountIn",
          "type": "uint256"
        },
        {
          "internalType": "address",
          "name": "_tokenIn",
          "type": "address"
        },
        {
          "internalType": "address",
          "name": "_tokenOut",
          "type": "address"
        }
      ],
      "name": "query",
      "outputs": [
        {
          "internalType": "uint256",
          "name": "",
          "type": "uint256"
        }
      ],
      "stateMutability": "view",
      "type": "function"
    },
    {
      "inputs": [
        {
          "internalType": "uint256",
          "name": "_amount",
          "type": "uint256"
        }
      ],
      "name": "recoverAVAX",
      "outputs": [],
      "stateMutability": "nonpayable",
      "type": "function"
    },
    {
      "inputs": [
        {
          "internalType": "address",
          "name": "_tokenAddress",
          "type": "address"
        },
        {
          "internalType": "uint256",
          "name": "_tokenAmount",
          "type": "uint256"
        }
      ],
      "name": "recoverERC20",
      "outputs": [],
      "stateMutability": "nonpayable",
      "type": "function"
    },
    {
      "inputs": [
        {
          "internalType": "address",
          "name": "removedMaintainer",
          "type": "address"
        }
      ],
      "name": "removeMaintainer",
      "outputs": [],
      "stateMutability": "nonpayable",
      "type": "function"
    },
    {
      "inputs": [
        {
          "internalType": "bytes32",
          "name": "role",
          "type": "bytes32"
        },
        {
          "internalType": "address",
          "name": "account",
          "type": "address"
        }
      ],
      "name": "renounceRole",
      "outputs": [],
      "stateMutability": "nonpayable",
      "type": "function"
    },
    {
      "inputs": [
        {
          "internalType": "bytes32",
          "name": "role",
          "type": "bytes32"
        }
      ],
      "name": "renounceRole",
      "outputs": [],
      "stateMutability": "nonpayable",
      "type": "function"
    },
    {
      "inputs": [
        {
          "internalType": "address",
          "name": "_token",
          "type": "address"
        },
        {
          "internalType": "address",
          "name": "_spender",
          "type": "address"
        }
      ],
      "name": "revokeAllowance",
      "outputs": [],
      "stateMutability": "nonpayable",
      "type": "function"
    },
    {
      "inputs": [
        {
          "internalType": "bytes32",
          "name": "role",
          "type": "bytes32"
        },
        {
          "internalType": "address",
          "name": "account",
          "type": "address"
        }
      ],
      "name": "revokeRole",
      "outputs": [],
      "stateMutability": "nonpayable",
      "type": "function"
    },
    {
      "inputs": [
        {
          "internalType": "uint256",
          "name": "_estimate",
          "type": "uint256"
        }
      ],
      "name": "setSwapGasEstimate",
      "outputs": [],
      "stateMutability": "nonpayable",
      "type": "function"
    },
    {
      "inputs": [
        {
          "internalType": "bytes4",
          "name": "interfaceId",
          "type": "bytes4"
        }
      ],
      "name": "supportsInterface",
      "outputs": [
        {
          "internalType": "bool",
          "name": "",
          "type": "bool"
        }
      ],
      "stateMutability": "view",
      "type": "function"
    },
    {
      "inputs": [
        {
          "internalType": "uint256",
          "name": "_amountIn",
          "type": "uint256"
        },
        {
          "internalType": "uint256",
          "name": "_amountOut",
          "type": "uint256"
        },
        {
          "internalType": "address",
          "name": "_fromToken",
          "type": "address"
        },
        {
          "internalType": "address",
          "name": "_toToken",
          "type": "address"
        },
        {
          "internalType": "address",
          "name": "_to",
          "type": "address"
        }
      ],
      "name": "swap",
      "outputs": [],
      "stateMutability": "nonpayable",
      "type": "function"
    },
    {
      "inputs": [],
      "name": "swapGasEstimate",
      "outputs": [
        {
          "internalType": "uint256",
          "name": "",
          "type": "uint256"
        }
      ],
      "stateMutability": "view",
      "type": "function"
    },
    {
      "inputs": [
        {
          "internalType": "address",
          "name": "newOwner",
          "type": "address"
        }
      ],
      "name": "transferOwnership",
      "outputs": [],
      "stateMutability": "nonpayable",
      "type": "function"
    },
    {
      "stateMutability": "payable",
      "type": "receive"
    }
  ],
  "transactionHash": "0xd4f0a15429cf264d5f7930b83d5c57440d5fed45ce8b2cd0917859a4dbd467f9",
  "args": [
    180000
  ],
  "solcInputHash": "88a4ef4f7dda73936d2d93e291d25ed5",
  "bytecode": "0x60806040523480156200001157600080fd5b50604051620022183803806200221883398101604081905262000034916200045e565b60408051808201909152600d81526c23a3a0bb30bc20b230b83a32b960991b602082015281336200006760008262000158565b620000937f339759585899103d2ace64958e37e18ccb0504652c81d4a1b8aa80fe2126ab958262000158565b506200009f8262000168565b620000aa81620001d1565b505060405163095ea7b360e01b815273a25eaf2906fa1a3a13edac9b9657108af7b703e36004820152600019602482015273b31f66aa3c1e785363f0875a1b74e27b85fd66c79063095ea7b390604401602060405180830381600087803b1580156200011557600080fd5b505af11580156200012a573d6000803e3d6000fd5b505050506040513d601f19601f8201168201806040525081019062000150919062000435565b5050620004b4565b620001648282620002ef565b5050565b8051620001bc5760405162461bcd60e51b815260206004820152601460248201527f496e76616c69642061646170746572206e616d6500000000000000000000000060448201526064015b60405180910390fd5b8051620001649060029060208401906200038f565b3360008181527fa54247010af6b3693b80aceddfad12e077c5de3571e6243fada502635f0d7d39602052604090205460ff16620002625760405162461bcd60e51b815260206004820152602860248201527f4d61696e7461696e61626c653a2043616c6c6572206973206e6f742061206d6160448201526734b73a30b4b732b960c11b6064820152608401620001b3565b81620002b15760405162461bcd60e51b815260206004820152601460248201527f496e76616c6964206761732d657374696d6174650000000000000000000000006044820152606401620001b3565b600182905560405182815230907ff43f23b7a28e6f8ce6843a21bd7b48bce778aa913b8c8cf459edf7d770e8d38a9060200160405180910390a25050565b6000828152602081815260408083206001600160a01b038516845290915290205460ff1662000164576000828152602081815260408083206001600160a01b03851684529091529020805460ff191660011790556200034b3390565b6001600160a01b0316816001600160a01b0316837f2f8788117e7eff1d82e926ec794901d17c78024a50270940304540a733656f0d60405160405180910390a45050565b8280546200039d9062000477565b90600052602060002090601f016020900481019282620003c157600085556200040c565b82601f10620003dc57805160ff19168380011785556200040c565b828001600101855582156200040c579182015b828111156200040c578251825591602001919060010190620003ef565b506200041a9291506200041e565b5090565b5b808211156200041a57600081556001016200041f565b60006020828403121562000447578081fd5b8151801515811462000457578182fd5b9392505050565b60006020828403121562000470578081fd5b5051919050565b600181811c908216806200048c57607f821691505b60208210811415620004ae57634e487b7160e01b600052602260045260246000fd5b50919050565b611d5480620004c46000396000f3fe6080604052600436106101795760003560e01c80638980f11f116100cb578063d547741f1161007f578063ef99893a11610059578063ef99893a14610453578063f2fde38b14610473578063f87422541461049357600080fd5b8063d547741f146103f3578063d8baf7cf14610413578063eab90da61461043357600080fd5b806391d14854116100b057806391d1485414610372578063a217fddf146103b6578063abd149dc146103cb57600080fd5b80638980f11f146103325780638bb9c5bf1461035257600080fd5b80634ebb79161161012d57806373b295c21161010757806373b295c2146102b25780637ae26773146102f257806384a33e631461031257600080fd5b80634ebb79161461025c57806369cff80d1461027c5780636b453c1f1461029257600080fd5b8063248a9ca31161015e578063248a9ca3146101dc5780632f2ff15d1461021a57806336568abe1461023c57600080fd5b806301ffc9a71461018557806306fdde03146101ba57600080fd5b3661018057005b600080fd5b34801561019157600080fd5b506101a56101a0366004611a9b565b6104c7565b60405190151581526020015b60405180910390f35b3480156101c657600080fd5b506101cf610530565b6040516101b19190611c09565b3480156101e857600080fd5b5061020c6101f7366004611a61565b60009081526020819052604090206001015490565b6040519081526020016101b1565b34801561022657600080fd5b5061023a610235366004611a79565b6105be565b005b34801561024857600080fd5b5061023a610257366004611a79565b6105e8565b34801561026857600080fd5b5061023a610277366004611a61565b610679565b34801561028857600080fd5b5061020c60015481565b34801561029e57600080fd5b5061023a6102ad3660046119cc565b6107c1565b3480156102be57600080fd5b506102da73b31f66aa3c1e785363f0875a1b74e27b85fd66c781565b6040516001600160a01b0390911681526020016101b1565b3480156102fe57600080fd5b5061023a61030d3660046119e6565b6107ee565b34801561031e57600080fd5b5061023a61032d366004611a61565b610892565b34801561033e57600080fd5b5061023a61034d366004611a18565b6109a5565b34801561035e57600080fd5b5061023a61036d366004611a61565b610ae0565b34801561037e57600080fd5b506101a561038d366004611a79565b6000918252602082815260408084206001600160a01b0393909316845291905290205460ff1690565b3480156103c257600080fd5b5061020c600081565b3480156103d757600080fd5b506102da73a25eaf2906fa1a3a13edac9b9657108af7b703e381565b3480156103ff57600080fd5b5061023a61040e366004611a79565b610aeb565b34801561041f57600080fd5b5061023a61042e3660046119cc565b610b10565b34801561043f57600080fd5b5061023a61044e366004611b16565b610b3a565b34801561045f57600080fd5b5061020c61046e366004611adb565b610cff565b34801561047f57600080fd5b5061023a61048e3660046119cc565b610d16565b34801561049f57600080fd5b5061020c7f339759585899103d2ace64958e37e18ccb0504652c81d4a1b8aa80fe2126ab9581565b60006001600160e01b031982167f7965db0b00000000000000000000000000000000000000000000000000000000148061052a57507f01ffc9a7000000000000000000000000000000000000000000000000000000006001600160e01b03198316145b92915050565b6002805461053d90611ccd565b80601f016020809104026020016040519081016040528092919081815260200182805461056990611ccd565b80156105b65780601f1061058b576101008083540402835291602001916105b6565b820191906000526020600020905b81548152906001019060200180831161059957829003601f168201915b505050505081565b6000828152602081905260409020600101546105d981610d2d565b6105e38383610d37565b505050565b6001600160a01b038116331461066b5760405162461bcd60e51b815260206004820152602f60248201527f416363657373436f6e74726f6c3a2063616e206f6e6c792072656e6f756e636560448201527f20726f6c657320666f722073656c66000000000000000000000000000000000060648201526084015b60405180910390fd5b6106758282610dd5565b5050565b3360008181527fa54247010af6b3693b80aceddfad12e077c5de3571e6243fada502635f0d7d39602052604090205460ff166107085760405162461bcd60e51b815260206004820152602860248201527f4d61696e7461696e61626c653a2043616c6c6572206973206e6f742061206d6160448201526734b73a30b4b732b960c11b6064820152608401610662565b600082116107585760405162461bcd60e51b815260206004820152601e60248201527f59616b416461707465723a204e6f7468696e6720746f207265636f76657200006044820152606401610662565b604051339083156108fc029084906000818181858888f19350505050158015610785573d6000803e3d6000fd5b506040518281526000907f8c1256b8896378cd5044f80c202f9772b9d77dc85c8a6eb51967210b09bfaa28906020015b60405180910390a25050565b6107eb7f339759585899103d2ace64958e37e18ccb0504652c81d4a1b8aa80fe2126ab95826105be565b50565b3360008181527fa54247010af6b3693b80aceddfad12e077c5de3571e6243fada502635f0d7d39602052604090205460ff1661087d5760405162461bcd60e51b815260206004820152602860248201527f4d61696e7461696e61626c653a2043616c6c6572206973206e6f742061206d6160448201526734b73a30b4b732b960c11b6064820152608401610662565b6105e36001600160a01b038416836000610e54565b3360008181527fa54247010af6b3693b80aceddfad12e077c5de3571e6243fada502635f0d7d39602052604090205460ff166109215760405162461bcd60e51b815260206004820152602860248201527f4d61696e7461696e61626c653a2043616c6c6572206973206e6f742061206d6160448201526734b73a30b4b732b960c11b6064820152608401610662565b8161096e5760405162461bcd60e51b815260206004820152601460248201527f496e76616c6964206761732d657374696d6174650000000000000000000000006044820152606401610662565b600182905560405182815230907ff43f23b7a28e6f8ce6843a21bd7b48bce778aa913b8c8cf459edf7d770e8d38a906020016107b5565b3360008181527fa54247010af6b3693b80aceddfad12e077c5de3571e6243fada502635f0d7d39602052604090205460ff16610a345760405162461bcd60e51b815260206004820152602860248201527f4d61696e7461696e61626c653a2043616c6c6572206973206e6f742061206d6160448201526734b73a30b4b732b960c11b6064820152608401610662565b60008211610a845760405162461bcd60e51b815260206004820152601e60248201527f59616b416461707465723a204e6f7468696e6720746f207265636f76657200006044820152606401610662565b610a986001600160a01b0384163384610ff9565b826001600160a01b03167f8c1256b8896378cd5044f80c202f9772b9d77dc85c8a6eb51967210b09bfaa2883604051610ad391815260200190565b60405180910390a2505050565b3361067582826105e8565b600082815260208190526040902060010154610b0681610d2d565b6105e38383610dd5565b6107eb7f339759585899103d2ace64958e37e18ccb0504652c81d4a1b8aa80fe2126ab9582610aeb565b6040516370a0823160e01b81526001600160a01b038281166004830152600091908416906370a082319060240160206040518083038186803b158015610b7f57600080fd5b505afa158015610b93573d6000803e3d6000fd5b505050506040513d601f19601f82011682018060405250810190610bb79190611ac3565b9050610bc68686868686611042565b6040516370a0823160e01b81526001600160a01b03838116600483015260009183918616906370a082319060240160206040518083038186803b158015610c0c57600080fd5b505afa158015610c20573d6000803e3d6000fd5b505050506040513d601f19601f82011682018060405250810190610c449190611ac3565b610c4e9190611c73565b905085811015610ca05760405162461bcd60e51b815260206004820152601760248201527f496e73756666696369656e7420616d6f756e742d6f75740000000000000000006044820152606401610662565b836001600160a01b0316856001600160a01b03167fe2bdbc6b7225eb0a972ac943c485a6cc05f7c6811838bce8903f23200fb744fa8989604051610cee929190918252602082015260400190565b60405180910390a350505050505050565b6000610d0c8484846111fb565b90505b9392505050565b33610d226000836105be565b6106756000826105e8565b6107eb81336115c9565b6000828152602081815260408083206001600160a01b038516845290915290205460ff16610675576000828152602081815260408083206001600160a01b03851684529091529020805460ff19166001179055610d913390565b6001600160a01b0316816001600160a01b0316837f2f8788117e7eff1d82e926ec794901d17c78024a50270940304540a733656f0d60405160405180910390a45050565b6000828152602081815260408083206001600160a01b038516845290915290205460ff1615610675576000828152602081815260408083206001600160a01b0385168085529252808320805460ff1916905551339285917ff6391f5c32d9c69d2a47ea670b442974b53935d1edc7fd64eb21e047a839171b9190a45050565b801580610ef657506040517fdd62ed3e0000000000000000000000000000000000000000000000000000000081523060048201526001600160a01b03838116602483015284169063dd62ed3e9060440160206040518083038186803b158015610ebc57600080fd5b505afa158015610ed0573d6000803e3d6000fd5b505050506040513d601f19601f82011682018060405250810190610ef49190611ac3565b155b610f685760405162461bcd60e51b815260206004820152603660248201527f5361666545524332303a20617070726f76652066726f6d206e6f6e2d7a65726f60448201527f20746f206e6f6e2d7a65726f20616c6c6f77616e6365000000000000000000006064820152608401610662565b6040516001600160a01b0383166024820152604481018290526105e39084907f095ea7b300000000000000000000000000000000000000000000000000000000906064015b60408051601f198184030181529190526020810180517bffffffffffffffffffffffffffffffffffffffffffffffffffffffff166001600160e01b031990931692909217909152611647565b6040516001600160a01b0383166024820152604481018290526105e39084907fa9059cbb0000000000000000000000000000000000000000000000000000000090606401610fad565b6001600160a01b03821673a25eaf2906fa1a3a13edac9b9657108af7b703e3141561111a576040517f6e553f65000000000000000000000000000000000000000000000000000000008152600481018690526001600160a01b038216602482015273a25eaf2906fa1a3a13edac9b9657108af7b703e390636e553f6590604401602060405180830381600087803b1580156110dc57600080fd5b505af11580156110f0573d6000803e3d6000fd5b505050506040513d601f19601f820116820180604052508101906111149190611ac3565b506111f4565b6001600160a01b03821673b31f66aa3c1e785363f0875a1b74e27b85fd66c714156111f4576040517fba087652000000000000000000000000000000000000000000000000000000008152600481018690526001600160a01b038216602482015230604482015273a25eaf2906fa1a3a13edac9b9657108af7b703e39063ba08765290606401602060405180830381600087803b1580156111ba57600080fd5b505af11580156111ce573d6000803e3d6000fd5b505050506040513d601f19601f820116820180604052508101906111f29190611ac3565b505b5050505050565b60006001600160a01b03831673b31f66aa3c1e785363f0875a1b74e27b85fd66c714801561124557506001600160a01b03821673a25eaf2906fa1a3a13edac9b9657108af7b703e3145b15611397576040517f402d267d00000000000000000000000000000000000000000000000000000000815230600482015273a25eaf2906fa1a3a13edac9b9657108af7b703e39063402d267d9060240160206040518083038186803b1580156112ad57600080fd5b505afa1580156112c1573d6000803e3d6000fd5b505050506040513d601f19601f820116820180604052508101906112e59190611ac3565b8411156112f457506000610d0f565b6040517fef8b30f70000000000000000000000000000000000000000000000000000000081526004810185905273a25eaf2906fa1a3a13edac9b9657108af7b703e39063ef8b30f79060240160206040518083038186803b15801561135857600080fd5b505afa15801561136c573d6000803e3d6000fd5b505050506040513d601f19601f820116820180604052508101906113909190611ac3565b9050610d0f565b6001600160a01b03831673a25eaf2906fa1a3a13edac9b9657108af7b703e31480156113df57506001600160a01b03821673b31f66aa3c1e785363f0875a1b74e27b85fd66c7145b15610d0f576040517f4cdad5060000000000000000000000000000000000000000000000000000000081526004810185905273a25eaf2906fa1a3a13edac9b9657108af7b703e390634cdad5069060240160206040518083038186803b15801561144857600080fd5b505afa15801561145c573d6000803e3d6000fd5b505050506040513d601f19601f820116820180604052508101906114809190611ac3565b9050600073a25eaf2906fa1a3a13edac9b9657108af7b703e36001600160a01b03166301e1d1146040518163ffffffff1660e01b815260040160206040518083038186803b1580156114d157600080fd5b505afa1580156114e5573d6000803e3d6000fd5b505050506040513d601f19601f820116820180604052508101906115099190611ac3565b9050600073a25eaf2906fa1a3a13edac9b9657108af7b703e36001600160a01b0316634ff8a0816040518163ffffffff1660e01b815260040160206040518083038186803b15801561155a57600080fd5b505afa15801561156e573d6000803e3d6000fd5b505050506040513d601f19601f820116820180604052508101906115929190611ac3565b905060008183116115a45760006115ae565b6115ae8284611c73565b90508084116115bd57836115bf565b805b9350505050610d0f565b6000828152602081815260408083206001600160a01b038516845290915290205460ff1661067557611605816001600160a01b03166014611789565b611610836020611789565b604051602001611621929190611b88565b60408051601f198184030181529082905262461bcd60e51b825261066291600401611c09565b600080836001600160a01b0316836040516116629190611b6c565b6000604051808303816000865af19150503d806000811461169f576040519150601f19603f3d011682016040523d82523d6000602084013e6116a4565b606091505b5091509150816116f65760405162461bcd60e51b815260206004820181905260248201527f5361666545524332303a206c6f772d6c6576656c2063616c6c206661696c65646044820152606401610662565b80511561178357808060200190518101906117119190611a41565b6117835760405162461bcd60e51b815260206004820152602a60248201527f5361666545524332303a204552433230206f7065726174696f6e20646964206e60448201527f6f742073756363656564000000000000000000000000000000000000000000006064820152608401610662565b50505050565b60606000611798836002611c54565b6117a3906002611c3c565b67ffffffffffffffff8111156117c957634e487b7160e01b600052604160045260246000fd5b6040519080825280601f01601f1916602001820160405280156117f3576020820181803683370190505b5090507f30000000000000000000000000000000000000000000000000000000000000008160008151811061183857634e487b7160e01b600052603260045260246000fd5b60200101906001600160f81b031916908160001a9053507f78000000000000000000000000000000000000000000000000000000000000008160018151811061189157634e487b7160e01b600052603260045260246000fd5b60200101906001600160f81b031916908160001a90535060006118b5846002611c54565b6118c0906001611c3c565b90505b6001811115611961577f303132333435363738396162636465660000000000000000000000000000000085600f166010811061190f57634e487b7160e01b600052603260045260246000fd5b1a60f81b82828151811061193357634e487b7160e01b600052603260045260246000fd5b60200101906001600160f81b031916908160001a90535060049490941c9361195a81611cb6565b90506118c3565b508315610d0f5760405162461bcd60e51b815260206004820181905260248201527f537472696e67733a20686578206c656e67746820696e73756666696369656e746044820152606401610662565b80356001600160a01b03811681146119c757600080fd5b919050565b6000602082840312156119dd578081fd5b610d0f826119b0565b600080604083850312156119f8578081fd5b611a01836119b0565b9150611a0f602084016119b0565b90509250929050565b60008060408385031215611a2a578182fd5b611a33836119b0565b946020939093013593505050565b600060208284031215611a52578081fd5b81518015158114610d0f578182fd5b600060208284031215611a72578081fd5b5035919050565b60008060408385031215611a8b578182fd5b82359150611a0f602084016119b0565b600060208284031215611aac578081fd5b81356001600160e01b031981168114610d0f578182fd5b600060208284031215611ad4578081fd5b5051919050565b600080600060608486031215611aef578081fd5b83359250611aff602085016119b0565b9150611b0d604085016119b0565b90509250925092565b600080600080600060a08688031215611b2d578081fd5b8535945060208601359350611b44604087016119b0565b9250611b52606087016119b0565b9150611b60608087016119b0565b90509295509295909350565b60008251611b7e818460208701611c8a565b9190910192915050565b7f416363657373436f6e74726f6c3a206163636f756e7420000000000000000000815260008351611bc0816017850160208801611c8a565b7f206973206d697373696e6720726f6c65200000000000000000000000000000006017918401918201528351611bfd816028840160208801611c8a565b01602801949350505050565b6020815260008251806020840152611c28816040850160208701611c8a565b601f01601f19169190910160400192915050565b60008219821115611c4f57611c4f611d08565b500190565b6000816000190483118215151615611c6e57611c6e611d08565b500290565b600082821015611c8557611c85611d08565b500390565b60005b83811015611ca5578181015183820152602001611c8d565b838111156117835750506000910152565b600081611cc557611cc5611d08565b506000190190565b600181811c90821680611ce157607f821691505b60208210811415611d0257634e487b7160e01b600052602260045260246000fd5b50919050565b634e487b7160e01b600052601160045260246000fdfea2646970667358221220e75c4a381e8b4e1d28de84e138ae50bd5597ce01f09037888e5727c8d2980ace64736f6c63430008040033",
  "devdoc": {
    "kind": "dev",
    "methods": {
      "getRoleAdmin(bytes32)": {
        "details": "Returns the admin role that controls `role`. See {grantRole} and {revokeRole}. To change a role's admin, use {_setRoleAdmin}."
      },
      "grantRole(bytes32,address)": {
        "details": "Grants `role` to `account`. If `account` had not been already granted `role`, emits a {RoleGranted} event. Requirements: - the caller must have ``role``'s admin role. May emit a {RoleGranted} event."
      },
      "hasRole(bytes32,address)": {
        "details": "Returns `true` if `account` has been granted `role`."
      },
      "renounceRole(bytes32,address)": {
        "details": "Revokes `role` from the calling account. Roles are often managed via {grantRole} and {revokeRole}: this function's purpose is to provide a mechanism for accounts to lose their privileges if they are compromised (such as when a trusted device is misplaced). If the calling account had been revoked `role`, emits a {RoleRevoked} event. Requirements: - the caller must be `account`. May emit a {RoleRevoked} event."
      },
      "revokeRole(bytes32,address)": {
        "details": "Revokes `role` from `account`. If `account` had been granted `role`, emits a {RoleRevoked} event. Requirements: - the caller must have ``role``'s admin role. May emit a {RoleRevoked} event."
      },
      "supportsInterface(bytes4)": {
        "details": "See {IERC165-supportsInterface}."
      }
    },
    "version": 1
  },
  "userdoc": {
    "kind": "user",
    "methods": {},
    "notice": "WAVAX -> ggAVAX",
    "version": 1
  },
  "storageLayout": {
    "storage": [
      {
        "astId": 24,
        "contract": "src/contracts/adapters/GGAvaxAdapter.sol:GGAvaxAdapter",
        "label": "_roles",
        "offset": 0,
        "slot": "0",
        "type": "t_mapping(t_bytes32,t_struct(RoleData)19_storage)"
      },
      {
        "astId": 8782,
        "contract": "src/contracts/adapters/GGAvaxAdapter.sol:GGAvaxAdapter",
        "label": "swapGasEstimate",
        "offset": 0,
        "slot": "1",
        "type": "t_uint256"
      },
      {
        "astId": 8784,
        "contract": "src/contracts/adapters/GGAvaxAdapter.sol:GGAvaxAdapter",
        "label": "name",
        "offset": 0,
        "slot": "2",
        "type": "t_string_storage"
      }
    ],
    "types": {
      "t_address": {
        "encoding": "inplace",
        "label": "address",
        "numberOfBytes": "20"
      },
      "t_bool": {
        "encoding": "inplace",
        "label": "bool",
        "numberOfBytes": "1"
      },
      "t_bytes32": {
        "encoding": "inplace",
        "label": "bytes32",
        "numberOfBytes": "32"
      },
      "t_mapping(t_address,t_bool)": {
        "encoding": "mapping",
        "key": "t_address",
        "label": "mapping(address => bool)",
        "numberOfBytes": "32",
        "value": "t_bool"
      },
      "t_mapping(t_bytes32,t_struct(RoleData)19_storage)": {
        "encoding": "mapping",
        "key": "t_bytes32",
        "label": "mapping(bytes32 => struct AccessControl.RoleData)",
        "numberOfBytes": "32",
        "value": "t_struct(RoleData)19_storage"
      },
      "t_string_storage": {
        "encoding": "bytes",
        "label": "string",
        "numberOfBytes": "32"
      },
      "t_struct(RoleData)19_storage": {
        "encoding": "inplace",
        "label": "struct AccessControl.RoleData",
        "members": [
          {
            "astId": 16,
            "contract": "src/contracts/adapters/GGAvaxAdapter.sol:GGAvaxAdapter",
            "label": "members",
            "offset": 0,
            "slot": "0",
            "type": "t_mapping(t_address,t_bool)"
          },
          {
            "astId": 18,
            "contract": "src/contracts/adapters/GGAvaxAdapter.sol:GGAvaxAdapter",
            "label": "adminRole",
            "offset": 0,
            "slot": "1",
            "type": "t_bytes32"
          }
        ],
        "numberOfBytes": "64"
      },
      "t_uint256": {
        "encoding": "inplace",
        "label": "uint256",
        "numberOfBytes": "32"
      }
    }
  }
}