{
  "address": "0x5d6fCD3108E016912Fa3448636e378B116167104",
  "abi": [
    {
      "inputs": [
        {
          "internalType": "string",
          "name": "_name",
          "type": "string"
        },
        {
          "internalType": "uint256",
          "name": "_gasEstimate",
          "type": "uint256"
        },
        {
          "internalType": "address",
          "name": "_gmxRewardRouter",
          "type": "address"
        },
        {
          "internalType": "address",
          "name": "_glp",
          "type": "address"
        },
        {
          "internalType": "address",
          "name": "_sGlp",
          "type": "address"
        }
      ],
      "stateMutability": "nonpayable",
      "type": "constructor"
    },
    {
      "anonymous": false,
      "inputs": [
        {
          "indexed": true,
          "internalType": "address",
          "name": "_asset",
          "type": "address"
        },
        {
          "indexed": false,
          "internalType": "uint256",
          "name": "amount",
          "type": "uint256"
        }
      ],
      "name": "Recovered",
      "type": "event"
    },
    {
      "anonymous": false,
      "inputs": [
        {
          "indexed": true,
          "internalType": "bytes32",
          "name": "role",
          "type": "bytes32"
        },
        {
          "indexed": true,
          "internalType": "bytes32",
          "name": "previousAdminRole",
          "type": "bytes32"
        },
        {
          "indexed": true,
          "internalType": "bytes32",
          "name": "newAdminRole",
          "type": "bytes32"
        }
      ],
      "name": "RoleAdminChanged",
      "type": "event"
    },
    {
      "anonymous": false,
      "inputs": [
        {
          "indexed": true,
          "internalType": "bytes32",
          "name": "role",
          "type": "bytes32"
        },
        {
          "indexed": true,
          "internalType": "address",
          "name": "account",
          "type": "address"
        },
        {
          "indexed": true,
          "internalType": "address",
          "name": "sender",
          "type": "address"
        }
      ],
      "name": "RoleGranted",
      "type": "event"
    },
    {
      "anonymous": false,
      "inputs": [
        {
          "indexed": true,
          "internalType": "bytes32",
          "name": "role",
          "type": "bytes32"
        },
        {
          "indexed": true,
          "internalType": "address",
          "name": "account",
          "type": "address"
        },
        {
          "indexed": true,
          "internalType": "address",
          "name": "sender",
          "type": "address"
        }
      ],
      "name": "RoleRevoked",
      "type": "event"
    },
    {
      "anonymous": false,
      "inputs": [
        {
          "indexed": true,
          "internalType": "address",
          "name": "_adapter",
          "type": "address"
        },
        {
          "indexed": false,
          "internalType": "uint256",
          "name": "_newEstimate",
          "type": "uint256"
        }
      ],
      "name": "UpdatedGasEstimate",
      "type": "event"
    },
    {
      "anonymous": false,
      "inputs": [
        {
          "indexed": true,
          "internalType": "address",
          "name": "_tokenFrom",
          "type": "address"
        },
        {
          "indexed": true,
          "internalType": "address",
          "name": "_tokenTo",
          "type": "address"
        },
        {
          "indexed": false,
          "internalType": "uint256",
          "name": "_amountIn",
          "type": "uint256"
        },
        {
          "indexed": false,
          "internalType": "uint256",
          "name": "_amountOut",
          "type": "uint256"
        }
      ],
      "name": "YakAdapterSwap",
      "type": "event"
    },
    {
      "inputs": [],
      "name": "BASIS_POINTS_DIVISOR",
      "outputs": [
        {
          "internalType": "uint256",
          "name": "",
          "type": "uint256"
        }
      ],
      "stateMutability": "view",
      "type": "function"
    },
    {
      "inputs": [],
      "name": "DEFAULT_ADMIN_ROLE",
      "outputs": [
        {
          "internalType": "bytes32",
          "name": "",
          "type": "bytes32"
        }
      ],
      "stateMutability": "view",
      "type": "function"
    },
    {
      "inputs": [],
      "name": "GLP",
      "outputs": [
        {
          "internalType": "address",
          "name": "",
          "type": "address"
        }
      ],
      "stateMutability": "view",
      "type": "function"
    },
    {
      "inputs": [],
      "name": "MAINTAINER_ROLE",
      "outputs": [
        {
          "internalType": "bytes32",
          "name": "",
          "type": "bytes32"
        }
      ],
      "stateMutability": "view",
      "type": "function"
    },
    {
      "inputs": [],
      "name": "PRICE_PRECISION",
      "outputs": [
        {
          "internalType": "uint256",
          "name": "",
          "type": "uint256"
        }
      ],
      "stateMutability": "view",
      "type": "function"
    },
    {
      "inputs": [],
      "name": "USDG",
      "outputs": [
        {
          "internalType": "address",
          "name": "",
          "type": "address"
        }
      ],
      "stateMutability": "view",
      "type": "function"
    },
    {
      "inputs": [
        {
          "internalType": "address",
          "name": "addedMaintainer",
          "type": "address"
        }
      ],
      "name": "addMaintainer",
      "outputs": [],
      "stateMutability": "nonpayable",
      "type": "function"
    },
    {
      "inputs": [
        {
          "internalType": "bytes32",
          "name": "role",
          "type": "bytes32"
        }
      ],
      "name": "getRoleAdmin",
      "outputs": [
        {
          "internalType": "bytes32",
          "name": "",
          "type": "bytes32"
        }
      ],
      "stateMutability": "view",
      "type": "function"
    },
    {
      "inputs": [],
      "name": "getTokensIn",
      "outputs": [
        {
          "internalType": "address[]",
          "name": "",
          "type": "address[]"
        }
      ],
      "stateMutability": "view",
      "type": "function"
    },
    {
      "inputs": [],
      "name": "getTokensOut",
      "outputs": [
        {
          "internalType": "address[]",
          "name": "",
          "type": "address[]"
        }
      ],
      "stateMutability": "view",
      "type": "function"
    },
    {
      "inputs": [],
      "name": "getWrappedToken",
      "outputs": [
        {
          "internalType": "address",
          "name": "",
          "type": "address"
        }
      ],
      "stateMutability": "view",
      "type": "function"
    },
    {
      "inputs": [],
      "name": "glpManager",
      "outputs": [
        {
          "internalType": "address",
          "name": "",
          "type": "address"
        }
      ],
      "stateMutability": "view",
      "type": "function"
    },
    {
      "inputs": [
        {
          "internalType": "bytes32",
          "name": "role",
          "type": "bytes32"
        },
        {
          "internalType": "address",
          "name": "account",
          "type": "address"
        }
      ],
      "name": "grantRole",
      "outputs": [],
      "stateMutability": "nonpayable",
      "type": "function"
    },
    {
      "inputs": [
        {
          "internalType": "bytes32",
          "name": "role",
          "type": "bytes32"
        },
        {
          "internalType": "address",
          "name": "account",
          "type": "address"
        }
      ],
      "name": "hasRole",
      "outputs": [
        {
          "internalType": "bool",
          "name": "",
          "type": "bool"
        }
      ],
      "stateMutability": "view",
      "type": "function"
    },
    {
      "inputs": [],
      "name": "name",
      "outputs": [
        {
          "internalType": "string",
          "name": "",
          "type": "string"
        }
      ],
      "stateMutability": "view",
      "type": "function"
    },
    {
      "inputs": [
        {
          "internalType": "uint256",
          "name": "_amountIn",
          "type": "uint256"
        },
        {
          "internalType": "address",
          "name": "_tokenIn",
          "type": "address"
        },
        {
          "internalType": "address",
          "name": "_tokenOut",
          "type": "address"
        }
      ],
      "name": "query",
      "outputs": [
        {
          "internalType": "uint256",
          "name": "",
          "type": "uint256"
        }
      ],
      "stateMutability": "view",
      "type": "function"
    },
    {
      "inputs": [
        {
          "internalType": "uint256",
          "name": "_amount",
          "type": "uint256"
        }
      ],
      "name": "recoverAVAX",
      "outputs": [],
      "stateMutability": "nonpayable",
      "type": "function"
    },
    {
      "inputs": [
        {
          "internalType": "address",
          "name": "_tokenAddress",
          "type": "address"
        },
        {
          "internalType": "uint256",
          "name": "_tokenAmount",
          "type": "uint256"
        }
      ],
      "name": "recoverERC20",
      "outputs": [],
      "stateMutability": "nonpayable",
      "type": "function"
    },
    {
      "inputs": [
        {
          "internalType": "address",
          "name": "removedMaintainer",
          "type": "address"
        }
      ],
      "name": "removeMaintainer",
      "outputs": [],
      "stateMutability": "nonpayable",
      "type": "function"
    },
    {
      "inputs": [
        {
          "internalType": "bytes32",
          "name": "role",
          "type": "bytes32"
        },
        {
          "internalType": "address",
          "name": "account",
          "type": "address"
        }
      ],
      "name": "renounceRole",
      "outputs": [],
      "stateMutability": "nonpayable",
      "type": "function"
    },
    {
      "inputs": [
        {
          "internalType": "bytes32",
          "name": "role",
          "type": "bytes32"
        }
      ],
      "name": "renounceRole",
      "outputs": [],
      "stateMutability": "nonpayable",
      "type": "function"
    },
    {
      "inputs": [
        {
          "internalType": "address",
          "name": "_token",
          "type": "address"
        },
        {
          "internalType": "address",
          "name": "_spender",
          "type": "address"
        }
      ],
      "name": "revokeAllowance",
      "outputs": [],
      "stateMutability": "nonpayable",
      "type": "function"
    },
    {
      "inputs": [
        {
          "internalType": "bytes32",
          "name": "role",
          "type": "bytes32"
        },
        {
          "internalType": "address",
          "name": "account",
          "type": "address"
        }
      ],
      "name": "revokeRole",
      "outputs": [],
      "stateMutability": "nonpayable",
      "type": "function"
    },
    {
      "inputs": [],
      "name": "rewardRouter",
      "outputs": [
        {
          "internalType": "address",
          "name": "",
          "type": "address"
        }
      ],
      "stateMutability": "view",
      "type": "function"
    },
    {
      "inputs": [],
      "name": "sGLP",
      "outputs": [
        {
          "internalType": "address",
          "name": "",
          "type": "address"
        }
      ],
      "stateMutability": "view",
      "type": "function"
    },
    {
      "inputs": [
        {
          "internalType": "uint256",
          "name": "_estimate",
          "type": "uint256"
        }
      ],
      "name": "setSwapGasEstimate",
      "outputs": [],
      "stateMutability": "nonpayable",
      "type": "function"
    },
    {
      "inputs": [
        {
          "internalType": "address[]",
          "name": "tokens",
          "type": "address[]"
        }
      ],
      "name": "setWhitelistedTokens",
      "outputs": [],
      "stateMutability": "nonpayable",
      "type": "function"
    },
    {
      "inputs": [
        {
          "internalType": "bytes4",
          "name": "interfaceId",
          "type": "bytes4"
        }
      ],
      "name": "supportsInterface",
      "outputs": [
        {
          "internalType": "bool",
          "name": "",
          "type": "bool"
        }
      ],
      "stateMutability": "view",
      "type": "function"
    },
    {
      "inputs": [
        {
          "internalType": "uint256",
          "name": "_amountIn",
          "type": "uint256"
        },
        {
          "internalType": "uint256",
          "name": "_amountOut",
          "type": "uint256"
        },
        {
          "internalType": "address",
          "name": "_fromToken",
          "type": "address"
        },
        {
          "internalType": "address",
          "name": "_toToken",
          "type": "address"
        },
        {
          "internalType": "address",
          "name": "_to",
          "type": "address"
        }
      ],
      "name": "swap",
      "outputs": [],
      "stateMutability": "nonpayable",
      "type": "function"
    },
    {
      "inputs": [],
      "name": "swapGasEstimate",
      "outputs": [
        {
          "internalType": "uint256",
          "name": "",
          "type": "uint256"
        }
      ],
      "stateMutability": "view",
      "type": "function"
    },
    {
      "inputs": [
        {
          "internalType": "address",
          "name": "newOwner",
          "type": "address"
        }
      ],
      "name": "transferOwnership",
      "outputs": [],
      "stateMutability": "nonpayable",
      "type": "function"
    },
    {
      "inputs": [],
      "name": "vault",
      "outputs": [
        {
          "internalType": "address",
          "name": "",
          "type": "address"
        }
      ],
      "stateMutability": "view",
      "type": "function"
    },
    {
      "inputs": [],
      "name": "vaultUtils",
      "outputs": [
        {
          "internalType": "address",
          "name": "",
          "type": "address"
        }
      ],
      "stateMutability": "view",
      "type": "function"
    },
    {
      "stateMutability": "payable",
      "type": "receive"
    }
  ],
  "transactionHash": "0x3e117c60cd77b33bbb3f7e4394112db533df10042e457649ba86c835ab4fe12a",
  "args": [
    "GlpWrapper",
    1600000,
    "0xB70B91CE0771d3f4c81D87660f71Da31d48eB3B3",
    "0x01234181085565ed162a948b6a5e88758CD7c7b8",
    "0xaE64d55a6f09E4263421737397D1fdFA71896a69"
  ],
  "solcInputHash": "00ca45a748242f5ad1058ab1d0ff28f5",
  "bytecode": "0x6101606040523480156200001257600080fd5b50604051620036d7380380620036d78339810160408190526200003591620005e0565b848481813362000047600082620002cb565b620000737f339759585899103d2ace64958e37e18ccb0504652c81d4a1b8aa80fe2126ab9582620002cb565b506200007f82620002db565b6200008a8162000344565b505050506000836001600160a01b031663fa6db1bc6040518163ffffffff1660e01b815260040160206040518083038186803b158015620000ca57600080fd5b505afa158015620000df573d6000803e3d6000fd5b505050506040513d601f19601f82011682018060405250810190620001059190620005ba565b90506000816001600160a01b031663fbfa77cf6040518163ffffffff1660e01b815260040160206040518083038186803b1580156200014357600080fd5b505afa15801562000158573d6000803e3d6000fd5b505050506040513d601f19601f820116820180604052508101906200017e9190620005ba565b9050806001600160a01b031663f5b91b7b6040518163ffffffff1660e01b815260040160206040518083038186803b158015620001ba57600080fd5b505afa158015620001cf573d6000803e3d6000fd5b505050506040513d601f19601f82011682018060405250810190620001f59190620005ba565b6001600160a01b03166080816001600160a01b031660601b81525050806001600160a01b0316636abbe0c86040518163ffffffff1660e01b815260040160206040518083038186803b1580156200024b57600080fd5b505afa15801562000260573d6000803e3d6000fd5b505050506040513d601f19601f82011682018060405250810190620002869190620005ba565b6001600160601b0319606091821b81166101405295811b86166101005290811b851660e05290811b84166101205291821b831660a052901b1660c05250620007679050565b620002d7828262000462565b5050565b80516200032f5760405162461bcd60e51b815260206004820152601460248201527f496e76616c69642061646170746572206e616d6500000000000000000000000060448201526064015b60405180910390fd5b8051620002d790600290602084019062000502565b3360008181527fa54247010af6b3693b80aceddfad12e077c5de3571e6243fada502635f0d7d39602052604090205460ff16620003d55760405162461bcd60e51b815260206004820152602860248201527f4d61696e7461696e61626c653a2043616c6c6572206973206e6f742061206d6160448201526734b73a30b4b732b960c11b606482015260840162000326565b81620004245760405162461bcd60e51b815260206004820152601460248201527f496e76616c6964206761732d657374696d617465000000000000000000000000604482015260640162000326565b600182905560405182815230907ff43f23b7a28e6f8ce6843a21bd7b48bce778aa913b8c8cf459edf7d770e8d38a9060200160405180910390a25050565b6000828152602081815260408083206001600160a01b038516845290915290205460ff16620002d7576000828152602081815260408083206001600160a01b03851684529091529020805460ff19166001179055620004be3390565b6001600160a01b0316816001600160a01b0316837f2f8788117e7eff1d82e926ec794901d17c78024a50270940304540a733656f0d60405160405180910390a45050565b8280546200051090620006fb565b90600052602060002090601f0160209004810192826200053457600085556200057f565b82601f106200054f57805160ff19168380011785556200057f565b828001600101855582156200057f579182015b828111156200057f57825182559160200191906001019062000562565b506200058d92915062000591565b5090565b5b808211156200058d576000815560010162000592565b8051620005b5816200074e565b919050565b600060208284031215620005cc578081fd5b8151620005d9816200074e565b9392505050565b600080600080600060a08688031215620005f8578081fd5b85516001600160401b03808211156200060f578283fd5b818801915088601f83011262000623578283fd5b81518181111562000638576200063862000738565b604051601f8201601f19908116603f0116810190838211818310171562000663576200066362000738565b81604052828152602093508b848487010111156200067f578586fd5b8591505b82821015620006a2578482018401518183018501529083019062000683565b82821115620006b357858484830101525b8099505050508088015195505050620006cf60408701620005a8565b9250620006df60608701620005a8565b9150620006ef60808701620005a8565b90509295509295909350565b600181811c908216806200071057607f821691505b602082108114156200073257634e487b7160e01b600052602260045260246000fd5b50919050565b634e487b7160e01b600052604160045260246000fd5b6001600160a01b03811681146200076457600080fd5b50565b60805160601c60a05160601c60c05160601c60e05160601c6101005160601c6101205160601c6101405160601c612e516200088660003960008181610405015261271c0152600081816106c201528181611051015281816119660152611d500152600081816103bb0152818161112d015261122c0152600081816106f601528181611ad301528181611b8b01528181611c6401528181611e9d015281816121c001528181612240015281816122d5015281816123680152818161246c0152818161265b01526128300152600081816105530152818161063801528181611002015281816111b20152611733015260008181610587015281816119e60152611dd001526000818161034f0152818161263001526128050152612e516000f3fe6080604052600436106102025760003560e01c806384a33e631161011d578063d547741f116100b0578063f174e2411161007f578063f874225411610064578063f87422541461067c578063fa6db1bc146106b0578063fbfa77cf146106e457600080fd5b8063f174e24114610629578063f2fde38b1461065c57600080fd5b8063d547741f146105a9578063d8baf7cf146105c9578063eab90da6146105e9578063ef99893a1461060957600080fd5b806395082d25116100ec57806395082d251461050b578063a217fddf1461052c578063a8d7741214610541578063b28147d91461057557600080fd5b806384a33e63146104675780638980f11f146104875780638bb9c5bf146104a757806391d14854146104c757600080fd5b80634ebb79161161019557806369cff80d1161016457806369cff80d146103dd5780636abbe0c8146103f35780636b453c1f146104275780637ae267731461044757600080fd5b80634ebb79161461031d57806357ae3a9f1461033d5780635988f9a5146103895780635a3bb989146103a957600080fd5b8063213cae63116101d1578063213cae6314610265578063248a9ca3146102ab5780632f2ff15d146102db57806336568abe146102fd57600080fd5b806301ffc9a71461020e57806306fdde0314610243578063071bc3c914610265578063126082cf1461028757600080fd5b3661020957005b600080fd5b34801561021a57600080fd5b5061022e610229366004612afa565b610718565b60405190151581526020015b60405180910390f35b34801561024f57600080fd5b50610258610781565b60405161023a9190612cb5565b34801561027157600080fd5b5061027a61080f565b60405161023a9190612c68565b34801561029357600080fd5b5061029d61271081565b60405190815260200161023a565b3480156102b757600080fd5b5061029d6102c6366004612ac0565b60009081526020819052604090206001015490565b3480156102e757600080fd5b506102fb6102f6366004612ad8565b610871565b005b34801561030957600080fd5b506102fb610318366004612ad8565b61089b565b34801561032957600080fd5b506102fb610338366004612ac0565b61092c565b34801561034957600080fd5b506103717f000000000000000000000000000000000000000000000000000000000000000081565b6040516001600160a01b03909116815260200161023a565b34801561039557600080fd5b506102fb6103a43660046129d9565b610a74565b3480156103b557600080fd5b506103717f000000000000000000000000000000000000000000000000000000000000000081565b3480156103e957600080fd5b5061029d60015481565b3480156103ff57600080fd5b506103717f000000000000000000000000000000000000000000000000000000000000000081565b34801561043357600080fd5b506102fb610442366004612964565b610c08565b34801561045357600080fd5b506102fb61046236600461297e565b610c35565b34801561047357600080fd5b506102fb610482366004612ac0565b610cd9565b34801561049357600080fd5b506102fb6104a23660046129b0565b610dec565b3480156104b357600080fd5b506102fb6104c2366004612ac0565b610f27565b3480156104d357600080fd5b5061022e6104e2366004612ad8565b6000918252602082815260408084206001600160a01b0393909316845291905290205460ff1690565b34801561051757600080fd5b5061029d6c0c9f2c9cd04674edea4000000081565b34801561053857600080fd5b5061029d600081565b34801561054d57600080fd5b506103717f000000000000000000000000000000000000000000000000000000000000000081565b34801561058157600080fd5b506103717f000000000000000000000000000000000000000000000000000000000000000081565b3480156105b557600080fd5b506102fb6105c4366004612ad8565b610f32565b3480156105d557600080fd5b506102fb6105e4366004612964565b610f57565b3480156105f557600080fd5b506102fb610604366004612b75565b610f81565b34801561061557600080fd5b5061029d610624366004612b3a565b6113e3565b34801561063557600080fd5b507f0000000000000000000000000000000000000000000000000000000000000000610371565b34801561066857600080fd5b506102fb610677366004612964565b6113f8565b34801561068857600080fd5b5061029d7f339759585899103d2ace64958e37e18ccb0504652c81d4a1b8aa80fe2126ab9581565b3480156106bc57600080fd5b506103717f000000000000000000000000000000000000000000000000000000000000000081565b3480156106f057600080fd5b506103717f000000000000000000000000000000000000000000000000000000000000000081565b60006001600160e01b031982167f7965db0b00000000000000000000000000000000000000000000000000000000148061077b57507f01ffc9a7000000000000000000000000000000000000000000000000000000006001600160e01b03198316145b92915050565b6002805461078e90612d99565b80601f01602080910402602001604051908101604052809291908181526020018280546107ba90612d99565b80156108075780601f106107dc57610100808354040283529160200191610807565b820191906000526020600020905b8154815290600101906020018083116107ea57829003601f168201915b505050505081565b6060600480548060200260200160405190810160405280929190818152602001828054801561086757602002820191906000526020600020905b81546001600160a01b03168152600190910190602001808311610849575b5050505050905090565b60008281526020819052604090206001015461088c8161140f565b6108968383611419565b505050565b6001600160a01b038116331461091e5760405162461bcd60e51b815260206004820152602f60248201527f416363657373436f6e74726f6c3a2063616e206f6e6c792072656e6f756e636560448201527f20726f6c657320666f722073656c66000000000000000000000000000000000060648201526084015b60405180910390fd5b61092882826114b7565b5050565b3360008181527fa54247010af6b3693b80aceddfad12e077c5de3571e6243fada502635f0d7d39602052604090205460ff166109bb5760405162461bcd60e51b815260206004820152602860248201527f4d61696e7461696e61626c653a2043616c6c6572206973206e6f742061206d6160448201526734b73a30b4b732b960c11b6064820152608401610915565b60008211610a0b5760405162461bcd60e51b815260206004820152601e60248201527f59616b416461707465723a204e6f7468696e6720746f207265636f76657200006044820152606401610915565b604051339083156108fc029084906000818181858888f19350505050158015610a38573d6000803e3d6000fd5b506040518281526000907f8c1256b8896378cd5044f80c202f9772b9d77dc85c8a6eb51967210b09bfaa28906020015b60405180910390a25050565b3360008181527fa54247010af6b3693b80aceddfad12e077c5de3571e6243fada502635f0d7d39602052604090205460ff16610b035760405162461bcd60e51b815260206004820152602860248201527f4d61696e7461696e61626c653a2043616c6c6572206973206e6f742061206d6160448201526734b73a30b4b732b960c11b6064820152608401610915565b60005b600454811015610b7d5760006003600060048481548110610b3757634e487b7160e01b600052603260045260246000fd5b6000918252602080832091909101546001600160a01b031683528201929092526040019020805460ff191691151591909117905580610b7581612dd4565b915050610b06565b508151610b919060049060208501906128b6565b5060005b825181101561089657600160036000858481518110610bc457634e487b7160e01b600052603260045260246000fd5b6020908102919091018101516001600160a01b03168252810191909152604001600020805460ff191691151591909117905580610c0081612dd4565b915050610b95565b610c327f339759585899103d2ace64958e37e18ccb0504652c81d4a1b8aa80fe2126ab9582610871565b50565b3360008181527fa54247010af6b3693b80aceddfad12e077c5de3571e6243fada502635f0d7d39602052604090205460ff16610cc45760405162461bcd60e51b815260206004820152602860248201527f4d61696e7461696e61626c653a2043616c6c6572206973206e6f742061206d6160448201526734b73a30b4b732b960c11b6064820152608401610915565b6108966001600160a01b038416836000611536565b3360008181527fa54247010af6b3693b80aceddfad12e077c5de3571e6243fada502635f0d7d39602052604090205460ff16610d685760405162461bcd60e51b815260206004820152602860248201527f4d61696e7461696e61626c653a2043616c6c6572206973206e6f742061206d6160448201526734b73a30b4b732b960c11b6064820152608401610915565b81610db55760405162461bcd60e51b815260206004820152601460248201527f496e76616c6964206761732d657374696d6174650000000000000000000000006044820152606401610915565b600182905560405182815230907ff43f23b7a28e6f8ce6843a21bd7b48bce778aa913b8c8cf459edf7d770e8d38a90602001610a68565b3360008181527fa54247010af6b3693b80aceddfad12e077c5de3571e6243fada502635f0d7d39602052604090205460ff16610e7b5760405162461bcd60e51b815260206004820152602860248201527f4d61696e7461696e61626c653a2043616c6c6572206973206e6f742061206d6160448201526734b73a30b4b732b960c11b6064820152608401610915565b60008211610ecb5760405162461bcd60e51b815260206004820152601e60248201527f59616b416461707465723a204e6f7468696e6720746f207265636f76657200006044820152606401610915565b610edf6001600160a01b03841633846116c2565b826001600160a01b03167f8c1256b8896378cd5044f80c202f9772b9d77dc85c8a6eb51967210b09bfaa2883604051610f1a91815260200190565b60405180910390a2505050565b33610928828261089b565b600082815260208190526040902060010154610f4d8161140f565b61089683836114b7565b610c327f339759585899103d2ace64958e37e18ccb0504652c81d4a1b8aa80fe2126ab9582610f32565b6040516370a0823160e01b81526001600160a01b038281166004830152600091908416906370a082319060240160206040518083038186803b158015610fc657600080fd5b505afa158015610fda573d6000803e3d6000fd5b505050506040513d601f19601f82011682018060405250810190610ffe9190612b22565b90507f00000000000000000000000000000000000000000000000000000000000000006001600160a01b0316836001600160a01b031614156111de5760405163095ea7b360e01b81526001600160a01b037f0000000000000000000000000000000000000000000000000000000000000000811660048301526024820188905285169063095ea7b390604401602060405180830381600087803b1580156110a457600080fd5b505af11580156110b8573d6000803e3d6000fd5b505050506040513d601f19601f820116820180604052508101906110dc9190612aa0565b506040517f364e23110000000000000000000000000000000000000000000000000000000081526001600160a01b0385811660048301526024820188905260006044830181905260648301889052917f00000000000000000000000000000000000000000000000000000000000000009091169063364e231190608401602060405180830381600087803b15801561117357600080fd5b505af1158015611187573d6000803e3d6000fd5b505050506040513d601f19601f820116820180604052508101906111ab9190612b22565b90506111d87f0000000000000000000000000000000000000000000000000000000000000000828561170b565b506112aa565b6040517f0f3aa5540000000000000000000000000000000000000000000000000000000081526001600160a01b038481166004830152602482018890526044820187905283811660648301527f00000000000000000000000000000000000000000000000000000000000000001690630f3aa55490608401602060405180830381600087803b15801561127057600080fd5b505af1158015611284573d6000803e3d6000fd5b505050506040513d601f19601f820116820180604052508101906112a89190612b22565b505b6040516370a0823160e01b81526001600160a01b03838116600483015260009183918616906370a082319060240160206040518083038186803b1580156112f057600080fd5b505afa158015611304573d6000803e3d6000fd5b505050506040513d601f19601f820116820180604052508101906113289190612b22565b6113329190612d3f565b9050858110156113845760405162461bcd60e51b815260206004820152601760248201527f496e73756666696369656e7420616d6f756e742d6f75740000000000000000006044820152606401610915565b836001600160a01b0316856001600160a01b03167fe2bdbc6b7225eb0a972ac943c485a6cc05f7c6811838bce8903f23200fb744fa89896040516113d2929190918252602082015260400190565b60405180910390a350505050505050565b60006113f084848461172f565b949350505050565b33611404600083610871565b61092860008261089b565b610c328133611783565b6000828152602081815260408083206001600160a01b038516845290915290205460ff16610928576000828152602081815260408083206001600160a01b03851684529091529020805460ff191660011790556114733390565b6001600160a01b0316816001600160a01b0316837f2f8788117e7eff1d82e926ec794901d17c78024a50270940304540a733656f0d60405160405180910390a45050565b6000828152602081815260408083206001600160a01b038516845290915290205460ff1615610928576000828152602081815260408083206001600160a01b0385168085529252808320805460ff1916905551339285917ff6391f5c32d9c69d2a47ea670b442974b53935d1edc7fd64eb21e047a839171b9190a45050565b8015806115d857506040517fdd62ed3e0000000000000000000000000000000000000000000000000000000081523060048201526001600160a01b03838116602483015284169063dd62ed3e9060440160206040518083038186803b15801561159e57600080fd5b505afa1580156115b2573d6000803e3d6000fd5b505050506040513d601f19601f820116820180604052508101906115d69190612b22565b155b61164a5760405162461bcd60e51b815260206004820152603660248201527f5361666545524332303a20617070726f76652066726f6d206e6f6e2d7a65726f60448201527f20746f206e6f6e2d7a65726f20616c6c6f77616e6365000000000000000000006064820152608401610915565b6040516001600160a01b03831660248201526044810182905261089690849063095ea7b360e01b906064015b60408051601f198184030181529190526020810180517bffffffffffffffffffffffffffffffffffffffffffffffffffffffff166001600160e01b031990931692909217909152611801565b6040516001600160a01b0383166024820152604481018290526108969084907fa9059cbb0000000000000000000000000000000000000000000000000000000090606401611676565b306001600160a01b03821614610896576108966001600160a01b03841682846116c2565b60007f00000000000000000000000000000000000000000000000000000000000000006001600160a01b0316826001600160a01b031614611779576117748285611943565b6113f0565b6113f08385611d2d565b6000828152602081815260408083206001600160a01b038516845290915290205460ff16610928576117bf816001600160a01b03166014611f55565b6117ca836020611f55565b6040516020016117db929190612be7565b60408051601f198184030181529082905262461bcd60e51b825261091591600401612cb5565b600080836001600160a01b03168360405161181c9190612bcb565b6000604051808303816000865af19150503d8060008114611859576040519150601f19603f3d011682016040523d82523d6000602084013e61185e565b606091505b5091509150816118b05760405162461bcd60e51b815260206004820181905260248201527f5361666545524332303a206c6f772d6c6576656c2063616c6c206661696c65646044820152606401610915565b80511561193d57808060200190518101906118cb9190612aa0565b61193d5760405162461bcd60e51b815260206004820152602a60248201527f5361666545524332303a204552433230206f7065726174696f6e20646964206e60448201527f6f742073756363656564000000000000000000000000000000000000000000006064820152608401610915565b50505050565b604051630345051f60e51b81526000600482018190529081906001600160a01b037f000000000000000000000000000000000000000000000000000000000000000016906368a0a3e09060240160206040518083038186803b1580156119a857600080fd5b505afa1580156119bc573d6000803e3d6000fd5b505050506040513d601f19601f820116820180604052508101906119e09190612b22565b905060007f00000000000000000000000000000000000000000000000000000000000000006001600160a01b03166318160ddd6040518163ffffffff1660e01b815260040160206040518083038186803b158015611a3d57600080fd5b505afa158015611a51573d6000803e3d6000fd5b505050506040513d601f19601f82011682018060405250810190611a759190612b22565b9050600081611a848487612d20565b611a8e9190612d00565b6040517f2c668ec10000000000000000000000000000000000000000000000000000000081526001600160a01b038881166004830152602482018390529192506000917f00000000000000000000000000000000000000000000000000000000000000001690632c668ec19060440160206040518083038186803b158015611b1557600080fd5b505afa158015611b29573d6000803e3d6000fd5b505050506040513d601f19601f82011682018060405250810190611b4d9190612b22565b6040517f52f55eed0000000000000000000000000000000000000000000000000000000081526001600160a01b0389811660048301529192506000917f000000000000000000000000000000000000000000000000000000000000000016906352f55eed9060240160206040518083038186803b158015611bcd57600080fd5b505afa158015611be1573d6000803e3d6000fd5b505050506040513d601f19601f82011682018060405250810190611c059190612b22565b905081811015611c1d5760009550505050505061077b565b611c278282612d3f565b6040517fc3c7b9e90000000000000000000000000000000000000000000000000000000081526001600160a01b038a8116600483015291925082917f0000000000000000000000000000000000000000000000000000000000000000169063c3c7b9e99060240160206040518083038186803b158015611ca657600080fd5b505afa158015611cba573d6000803e3d6000fd5b505050506040513d601f19601f82011682018060405250810190611cde9190612b22565b10611cf15760009550505050505061077b565b6000611cfd8985612183565b9050612710611d0c8282612d3f565b611d169085612d20565b611d209190612d00565b9998505050505050505050565b604051630345051f60e51b81526001600482015260009081906001600160a01b037f000000000000000000000000000000000000000000000000000000000000000016906368a0a3e09060240160206040518083038186803b158015611d9257600080fd5b505afa158015611da6573d6000803e3d6000fd5b505050506040513d601f19601f82011682018060405250810190611dca9190612b22565b905060007f00000000000000000000000000000000000000000000000000000000000000006001600160a01b03166318160ddd6040518163ffffffff1660e01b815260040160206040518083038186803b158015611e2757600080fd5b505afa158015611e3b573d6000803e3d6000fd5b505050506040513d601f19601f82011682018060405250810190611e5f9190612b22565b6040517f81a612d60000000000000000000000000000000000000000000000000000000081526001600160a01b0387811660048301529192506000917f000000000000000000000000000000000000000000000000000000000000000016906381a612d69060240160206040518083038186803b158015611edf57600080fd5b505afa158015611ef3573d6000803e3d6000fd5b505050506040513d601f19601f82011682018060405250810190611f179190612b22565b90506000611f268683896125e6565b90508315611f485783611f398483612d20565b611f439190612d00565b611f4a565b805b979650505050505050565b60606000611f64836002612d20565b611f6f906002612ce8565b67ffffffffffffffff811115611f9557634e487b7160e01b600052604160045260246000fd5b6040519080825280601f01601f191660200182016040528015611fbf576020820181803683370190505b5090507f30000000000000000000000000000000000000000000000000000000000000008160008151811061200457634e487b7160e01b600052603260045260246000fd5b60200101906001600160f81b031916908160001a9053507f78000000000000000000000000000000000000000000000000000000000000008160018151811061205d57634e487b7160e01b600052603260045260246000fd5b60200101906001600160f81b031916908160001a9053506000612081846002612d20565b61208c906001612ce8565b90505b600181111561212d577f303132333435363738396162636465660000000000000000000000000000000085600f16601081106120db57634e487b7160e01b600052603260045260246000fd5b1a60f81b8282815181106120ff57634e487b7160e01b600052603260045260246000fd5b60200101906001600160f81b031916908160001a90535060049490941c9361212681612d82565b905061208f565b50831561217c5760405162461bcd60e51b815260206004820181905260248201527f537472696e67733a20686578206c656e67746820696e73756666696369656e746044820152606401610915565b9392505050565b6040517f1aa4ace50000000000000000000000000000000000000000000000000000000081526001600160a01b03838116600483015260009182917f00000000000000000000000000000000000000000000000000000000000000001690631aa4ace59060240160206040518083038186803b15801561220257600080fd5b505afa158015612216573d6000803e3d6000fd5b505050506040513d601f19601f8201168201806040525081019061223a9190612b22565b905060007f00000000000000000000000000000000000000000000000000000000000000006001600160a01b0316634d47b3046040518163ffffffff1660e01b815260040160206040518083038186803b15801561229757600080fd5b505afa1580156122ab573d6000803e3d6000fd5b505050506040513d601f19601f820116820180604052508101906122cf9190612b22565b905060007f00000000000000000000000000000000000000000000000000000000000000006001600160a01b0316637a210a2b6040518163ffffffff1660e01b815260040160206040518083038186803b15801561232c57600080fd5b505afa158015612340573d6000803e3d6000fd5b505050506040513d601f19601f820116820180604052508101906123649190612b22565b90507f00000000000000000000000000000000000000000000000000000000000000006001600160a01b0316639f392eb36040518163ffffffff1660e01b815260040160206040518083038186803b1580156123bf57600080fd5b505afa1580156123d3573d6000803e3d6000fd5b505050506040513d601f19601f820116820180604052508101906123f79190612aa0565b6124055750915061077b9050565b60006124118685612d3f565b9050600081871161242b576124268783612d3f565b61242e565b60005b6040517f3a05dcc10000000000000000000000000000000000000000000000000000000081526001600160a01b038a811660048301529192506000917f00000000000000000000000000000000000000000000000000000000000000001690633a05dcc19060240160206040518083038186803b1580156124ae57600080fd5b505afa1580156124c2573d6000803e3d6000fd5b505050506040513d601f19601f820116820180604052508101906124e69190612b22565b9050806124fb5784965050505050505061077b565b60008184116125135761250e8483612d3f565b61251d565b61251d8285612d3f565b90506000828411612537576125328484612d3f565b612541565b6125418385612d3f565b90508181101561258d576000836125588489612d20565b6125629190612d00565b905087811161257a576125758189612d3f565b61257d565b60005b995050505050505050505061077b565b6000600261259b8385612ce8565b6125a59190612d00565b9050838111156125b25750825b6000846125bf838a612d20565b6125c99190612d00565b90506125d5818a612ce8565b9d9c50505050505050505050505050565b60006c0c9f2c9cd04674edea400000006126008486612d20565b61260a9190612d00565b604051634215287360e01b8152600481018290526001600160a01b0384811660248301527f0000000000000000000000000000000000000000000000000000000000000000811660448301529192507f00000000000000000000000000000000000000000000000000000000000000009091169063421528739060640160206040518083038186803b15801561269f57600080fd5b505afa1580156126b3573d6000803e3d6000fd5b505050506040513d601f19601f820116820180604052508101906126d79190612b22565b6040517f4adeddc60000000000000000000000000000000000000000000000000000000081526001600160a01b038481166004830152602482018390529192506000917f00000000000000000000000000000000000000000000000000000000000000001690634adeddc69060440160206040518083038186803b15801561275e57600080fd5b505afa158015612772573d6000803e3d6000fd5b505050506040513d601f19601f820116820180604052508101906127969190612b22565b905060006127106127a78382612d3f565b6127b19088612d20565b6127bb9190612d00565b90506c0c9f2c9cd04674edea400000006127d58683612d20565b6127df9190612d00565b604051634215287360e01b8152600481018290526001600160a01b0386811660248301527f0000000000000000000000000000000000000000000000000000000000000000811660448301529194507f00000000000000000000000000000000000000000000000000000000000000009091169063421528739060640160206040518083038186803b15801561287457600080fd5b505afa158015612888573d6000803e3d6000fd5b505050506040513d601f19601f820116820180604052508101906128ac9190612b22565b9695505050505050565b828054828255906000526020600020908101928215612923579160200282015b8281111561292357825182547fffffffffffffffffffffffff0000000000000000000000000000000000000000166001600160a01b039091161782556020909201916001909101906128d6565b5061292f929150612933565b5090565b5b8082111561292f5760008155600101612934565b80356001600160a01b038116811461295f57600080fd5b919050565b600060208284031215612975578081fd5b61217c82612948565b60008060408385031215612990578081fd5b61299983612948565b91506129a760208401612948565b90509250929050565b600080604083850312156129c2578182fd5b6129cb83612948565b946020939093013593505050565b600060208083850312156129eb578182fd5b823567ffffffffffffffff80821115612a02578384fd5b818501915085601f830112612a15578384fd5b813581811115612a2757612a27612e05565b8060051b604051601f19603f83011681018181108582111715612a4c57612a4c612e05565b604052828152858101935084860182860187018a1015612a6a578788fd5b8795505b83861015612a9357612a7f81612948565b855260019590950194938601938601612a6e565b5098975050505050505050565b600060208284031215612ab1578081fd5b8151801515811461217c578182fd5b600060208284031215612ad1578081fd5b5035919050565b60008060408385031215612aea578182fd5b823591506129a760208401612948565b600060208284031215612b0b578081fd5b81356001600160e01b03198116811461217c578182fd5b600060208284031215612b33578081fd5b5051919050565b600080600060608486031215612b4e578081fd5b83359250612b5e60208501612948565b9150612b6c60408501612948565b90509250925092565b600080600080600060a08688031215612b8c578081fd5b8535945060208601359350612ba360408701612948565b9250612bb160608701612948565b9150612bbf60808701612948565b90509295509295909350565b60008251612bdd818460208701612d56565b9190910192915050565b7f416363657373436f6e74726f6c3a206163636f756e7420000000000000000000815260008351612c1f816017850160208801612d56565b7f206973206d697373696e6720726f6c65200000000000000000000000000000006017918401918201528351612c5c816028840160208801612d56565b01602801949350505050565b6020808252825182820181905260009190848201906040850190845b81811015612ca95783516001600160a01b031683529284019291840191600101612c84565b50909695505050505050565b6020815260008251806020840152612cd4816040850160208701612d56565b601f01601f19169190910160400192915050565b60008219821115612cfb57612cfb612def565b500190565b600082612d1b57634e487b7160e01b81526012600452602481fd5b500490565b6000816000190483118215151615612d3a57612d3a612def565b500290565b600082821015612d5157612d51612def565b500390565b60005b83811015612d71578181015183820152602001612d59565b8381111561193d5750506000910152565b600081612d9157612d91612def565b506000190190565b600181811c90821680612dad57607f821691505b60208210811415612dce57634e487b7160e01b600052602260045260246000fd5b50919050565b6000600019821415612de857612de8612def565b5060010190565b634e487b7160e01b600052601160045260246000fd5b634e487b7160e01b600052604160045260246000fdfea26469706673582212205ecffc10ce9c144afbef98cd2c28db9ea40bbec75be95d9f027379e0d61559df64736f6c63430008040033",
  "devdoc": {
    "kind": "dev",
    "methods": {
      "getRoleAdmin(bytes32)": {
        "details": "Returns the admin role that controls `role`. See {grantRole} and {revokeRole}. To change a role's admin, use {_setRoleAdmin}."
      },
      "grantRole(bytes32,address)": {
        "details": "Grants `role` to `account`. If `account` had not been already granted `role`, emits a {RoleGranted} event. Requirements: - the caller must have ``role``'s admin role. May emit a {RoleGranted} event."
      },
      "hasRole(bytes32,address)": {
        "details": "Returns `true` if `account` has been granted `role`."
      },
      "renounceRole(bytes32,address)": {
        "details": "Revokes `role` from the calling account. Roles are often managed via {grantRole} and {revokeRole}: this function's purpose is to provide a mechanism for accounts to lose their privileges if they are compromised (such as when a trusted device is misplaced). If the calling account had been revoked `role`, emits a {RoleRevoked} event. Requirements: - the caller must be `account`. May emit a {RoleRevoked} event."
      },
      "revokeRole(bytes32,address)": {
        "details": "Revokes `role` from `account`. If `account` had been granted `role`, emits a {RoleRevoked} event. Requirements: - the caller must have ``role``'s admin role. May emit a {RoleRevoked} event."
      },
      "supportsInterface(bytes4)": {
        "details": "See {IERC165-supportsInterface}."
      }
    },
    "version": 1
  },
  "userdoc": {
    "kind": "user",
    "methods": {},
    "version": 1
  },
  "storageLayout": {
    "storage": [
      {
        "astId": 24,
        "contract": "src/contracts/wrappers/GlpWrapper.sol:GlpWrapper",
        "label": "_roles",
        "offset": 0,
        "slot": "0",
        "type": "t_mapping(t_bytes32,t_struct(RoleData)19_storage)"
      },
      {
        "astId": 8782,
        "contract": "src/contracts/wrappers/GlpWrapper.sol:GlpWrapper",
        "label": "swapGasEstimate",
        "offset": 0,
        "slot": "1",
        "type": "t_uint256"
      },
      {
        "astId": 8784,
        "contract": "src/contracts/wrappers/GlpWrapper.sol:GlpWrapper",
        "label": "name",
        "offset": 0,
        "slot": "2",
        "type": "t_string_storage"
      },
      {
        "astId": 9785,
        "contract": "src/contracts/wrappers/GlpWrapper.sol:GlpWrapper",
        "label": "isWhitelisted",
        "offset": 0,
        "slot": "3",
        "type": "t_mapping(t_address,t_bool)"
      },
      {
        "astId": 9788,
        "contract": "src/contracts/wrappers/GlpWrapper.sol:GlpWrapper",
        "label": "whitelistedTokens",
        "offset": 0,
        "slot": "4",
        "type": "t_array(t_address)dyn_storage"
      }
    ],
    "types": {
      "t_address": {
        "encoding": "inplace",
        "label": "address",
        "numberOfBytes": "20"
      },
      "t_array(t_address)dyn_storage": {
        "base": "t_address",
        "encoding": "dynamic_array",
        "label": "address[]",
        "numberOfBytes": "32"
      },
      "t_bool": {
        "encoding": "inplace",
        "label": "bool",
        "numberOfBytes": "1"
      },
      "t_bytes32": {
        "encoding": "inplace",
        "label": "bytes32",
        "numberOfBytes": "32"
      },
      "t_mapping(t_address,t_bool)": {
        "encoding": "mapping",
        "key": "t_address",
        "label": "mapping(address => bool)",
        "numberOfBytes": "32",
        "value": "t_bool"
      },
      "t_mapping(t_bytes32,t_struct(RoleData)19_storage)": {
        "encoding": "mapping",
        "key": "t_bytes32",
        "label": "mapping(bytes32 => struct AccessControl.RoleData)",
        "numberOfBytes": "32",
        "value": "t_struct(RoleData)19_storage"
      },
      "t_string_storage": {
        "encoding": "bytes",
        "label": "string",
        "numberOfBytes": "32"
      },
      "t_struct(RoleData)19_storage": {
        "encoding": "inplace",
        "label": "struct AccessControl.RoleData",
        "members": [
          {
            "astId": 16,
            "contract": "src/contracts/wrappers/GlpWrapper.sol:GlpWrapper",
            "label": "members",
            "offset": 0,
            "slot": "0",
            "type": "t_mapping(t_address,t_bool)"
          },
          {
            "astId": 18,
            "contract": "src/contracts/wrappers/GlpWrapper.sol:GlpWrapper",
            "label": "adminRole",
            "offset": 0,
            "slot": "1",
            "type": "t_bytes32"
          }
        ],
        "numberOfBytes": "64"
      },
      "t_uint256": {
        "encoding": "inplace",
        "label": "uint256",
        "numberOfBytes": "32"
      }
    }
  }
}