{
  "address": "0xC5E1166e59AD0c263bb6f2723dBD767E592Ab166",
  "abi": [
    {
      "inputs": [
        {
          "internalType": "string",
          "name": "_name",
          "type": "string"
        },
        {
          "internalType": "uint256",
          "name": "_gasEstimate",
          "type": "uint256"
        },
        {
          "internalType": "address",
          "name": "_gmxRewardRouter",
          "type": "address"
        }
      ],
      "stateMutability": "nonpayable",
      "type": "constructor"
    },
    {
      "anonymous": false,
      "inputs": [
        {
          "indexed": true,
          "internalType": "address",
          "name": "_asset",
          "type": "address"
        },
        {
          "indexed": false,
          "internalType": "uint256",
          "name": "amount",
          "type": "uint256"
        }
      ],
      "name": "Recovered",
      "type": "event"
    },
    {
      "anonymous": false,
      "inputs": [
        {
          "indexed": true,
          "internalType": "bytes32",
          "name": "role",
          "type": "bytes32"
        },
        {
          "indexed": true,
          "internalType": "bytes32",
          "name": "previousAdminRole",
          "type": "bytes32"
        },
        {
          "indexed": true,
          "internalType": "bytes32",
          "name": "newAdminRole",
          "type": "bytes32"
        }
      ],
      "name": "RoleAdminChanged",
      "type": "event"
    },
    {
      "anonymous": false,
      "inputs": [
        {
          "indexed": true,
          "internalType": "bytes32",
          "name": "role",
          "type": "bytes32"
        },
        {
          "indexed": true,
          "internalType": "address",
          "name": "account",
          "type": "address"
        },
        {
          "indexed": true,
          "internalType": "address",
          "name": "sender",
          "type": "address"
        }
      ],
      "name": "RoleGranted",
      "type": "event"
    },
    {
      "anonymous": false,
      "inputs": [
        {
          "indexed": true,
          "internalType": "bytes32",
          "name": "role",
          "type": "bytes32"
        },
        {
          "indexed": true,
          "internalType": "address",
          "name": "account",
          "type": "address"
        },
        {
          "indexed": true,
          "internalType": "address",
          "name": "sender",
          "type": "address"
        }
      ],
      "name": "RoleRevoked",
      "type": "event"
    },
    {
      "anonymous": false,
      "inputs": [
        {
          "indexed": true,
          "internalType": "address",
          "name": "_adapter",
          "type": "address"
        },
        {
          "indexed": false,
          "internalType": "uint256",
          "name": "_newEstimate",
          "type": "uint256"
        }
      ],
      "name": "UpdatedGasEstimate",
      "type": "event"
    },
    {
      "anonymous": false,
      "inputs": [
        {
          "indexed": true,
          "internalType": "address",
          "name": "_tokenFrom",
          "type": "address"
        },
        {
          "indexed": true,
          "internalType": "address",
          "name": "_tokenTo",
          "type": "address"
        },
        {
          "indexed": false,
          "internalType": "uint256",
          "name": "_amountIn",
          "type": "uint256"
        },
        {
          "indexed": false,
          "internalType": "uint256",
          "name": "_amountOut",
          "type": "uint256"
        }
      ],
      "name": "YakAdapterSwap",
      "type": "event"
    },
    {
      "inputs": [],
      "name": "BASIS_POINTS_DIVISOR",
      "outputs": [
        {
          "internalType": "uint256",
          "name": "",
          "type": "uint256"
        }
      ],
      "stateMutability": "view",
      "type": "function"
    },
    {
      "inputs": [],
      "name": "DEFAULT_ADMIN_ROLE",
      "outputs": [
        {
          "internalType": "bytes32",
          "name": "",
          "type": "bytes32"
        }
      ],
      "stateMutability": "view",
      "type": "function"
    },
    {
      "inputs": [],
      "name": "MAINTAINER_ROLE",
      "outputs": [
        {
          "internalType": "bytes32",
          "name": "",
          "type": "bytes32"
        }
      ],
      "stateMutability": "view",
      "type": "function"
    },
    {
      "inputs": [],
      "name": "PRICE_PRECISION",
      "outputs": [
        {
          "internalType": "uint256",
          "name": "",
          "type": "uint256"
        }
      ],
      "stateMutability": "view",
      "type": "function"
    },
    {
      "inputs": [
        {
          "internalType": "address",
          "name": "addedMaintainer",
          "type": "address"
        }
      ],
      "name": "addMaintainer",
      "outputs": [],
      "stateMutability": "nonpayable",
      "type": "function"
    },
    {
      "inputs": [
        {
          "internalType": "bytes32",
          "name": "role",
          "type": "bytes32"
        }
      ],
      "name": "getRoleAdmin",
      "outputs": [
        {
          "internalType": "bytes32",
          "name": "",
          "type": "bytes32"
        }
      ],
      "stateMutability": "view",
      "type": "function"
    },
    {
      "inputs": [],
      "name": "getTokensIn",
      "outputs": [
        {
          "internalType": "address[]",
          "name": "",
          "type": "address[]"
        }
      ],
      "stateMutability": "view",
      "type": "function"
    },
    {
      "inputs": [],
      "name": "getTokensOut",
      "outputs": [
        {
          "internalType": "address[]",
          "name": "",
          "type": "address[]"
        }
      ],
      "stateMutability": "view",
      "type": "function"
    },
    {
      "inputs": [],
      "name": "getWrappedToken",
      "outputs": [
        {
          "internalType": "address",
          "name": "",
          "type": "address"
        }
      ],
      "stateMutability": "pure",
      "type": "function"
    },
    {
      "inputs": [],
      "name": "glpManager",
      "outputs": [
        {
          "internalType": "address",
          "name": "",
          "type": "address"
        }
      ],
      "stateMutability": "view",
      "type": "function"
    },
    {
      "inputs": [
        {
          "internalType": "bytes32",
          "name": "role",
          "type": "bytes32"
        },
        {
          "internalType": "address",
          "name": "account",
          "type": "address"
        }
      ],
      "name": "grantRole",
      "outputs": [],
      "stateMutability": "nonpayable",
      "type": "function"
    },
    {
      "inputs": [
        {
          "internalType": "bytes32",
          "name": "role",
          "type": "bytes32"
        },
        {
          "internalType": "address",
          "name": "account",
          "type": "address"
        }
      ],
      "name": "hasRole",
      "outputs": [
        {
          "internalType": "bool",
          "name": "",
          "type": "bool"
        }
      ],
      "stateMutability": "view",
      "type": "function"
    },
    {
      "inputs": [],
      "name": "name",
      "outputs": [
        {
          "internalType": "string",
          "name": "",
          "type": "string"
        }
      ],
      "stateMutability": "view",
      "type": "function"
    },
    {
      "inputs": [
        {
          "internalType": "uint256",
          "name": "_amountIn",
          "type": "uint256"
        },
        {
          "internalType": "address",
          "name": "_tokenIn",
          "type": "address"
        },
        {
          "internalType": "address",
          "name": "_tokenOut",
          "type": "address"
        }
      ],
      "name": "query",
      "outputs": [
        {
          "internalType": "uint256",
          "name": "",
          "type": "uint256"
        }
      ],
      "stateMutability": "view",
      "type": "function"
    },
    {
      "inputs": [
        {
          "internalType": "uint256",
          "name": "_amount",
          "type": "uint256"
        }
      ],
      "name": "recoverAVAX",
      "outputs": [],
      "stateMutability": "nonpayable",
      "type": "function"
    },
    {
      "inputs": [
        {
          "internalType": "address",
          "name": "_tokenAddress",
          "type": "address"
        },
        {
          "internalType": "uint256",
          "name": "_tokenAmount",
          "type": "uint256"
        }
      ],
      "name": "recoverERC20",
      "outputs": [],
      "stateMutability": "nonpayable",
      "type": "function"
    },
    {
      "inputs": [
        {
          "internalType": "address",
          "name": "removedMaintainer",
          "type": "address"
        }
      ],
      "name": "removeMaintainer",
      "outputs": [],
      "stateMutability": "nonpayable",
      "type": "function"
    },
    {
      "inputs": [
        {
          "internalType": "bytes32",
          "name": "role",
          "type": "bytes32"
        },
        {
          "internalType": "address",
          "name": "account",
          "type": "address"
        }
      ],
      "name": "renounceRole",
      "outputs": [],
      "stateMutability": "nonpayable",
      "type": "function"
    },
    {
      "inputs": [
        {
          "internalType": "bytes32",
          "name": "role",
          "type": "bytes32"
        }
      ],
      "name": "renounceRole",
      "outputs": [],
      "stateMutability": "nonpayable",
      "type": "function"
    },
    {
      "inputs": [
        {
          "internalType": "address",
          "name": "_token",
          "type": "address"
        },
        {
          "internalType": "address",
          "name": "_spender",
          "type": "address"
        }
      ],
      "name": "revokeAllowance",
      "outputs": [],
      "stateMutability": "nonpayable",
      "type": "function"
    },
    {
      "inputs": [
        {
          "internalType": "bytes32",
          "name": "role",
          "type": "bytes32"
        },
        {
          "internalType": "address",
          "name": "account",
          "type": "address"
        }
      ],
      "name": "revokeRole",
      "outputs": [],
      "stateMutability": "nonpayable",
      "type": "function"
    },
    {
      "inputs": [],
      "name": "rewardRouter",
      "outputs": [
        {
          "internalType": "address",
          "name": "",
          "type": "address"
        }
      ],
      "stateMutability": "view",
      "type": "function"
    },
    {
      "inputs": [
        {
          "internalType": "uint256",
          "name": "_estimate",
          "type": "uint256"
        }
      ],
      "name": "setSwapGasEstimate",
      "outputs": [],
      "stateMutability": "nonpayable",
      "type": "function"
    },
    {
      "inputs": [
        {
          "internalType": "address[]",
          "name": "tokens",
          "type": "address[]"
        }
      ],
      "name": "setWhitelistedTokens",
      "outputs": [],
      "stateMutability": "nonpayable",
      "type": "function"
    },
    {
      "inputs": [
        {
          "internalType": "bytes4",
          "name": "interfaceId",
          "type": "bytes4"
        }
      ],
      "name": "supportsInterface",
      "outputs": [
        {
          "internalType": "bool",
          "name": "",
          "type": "bool"
        }
      ],
      "stateMutability": "view",
      "type": "function"
    },
    {
      "inputs": [
        {
          "internalType": "uint256",
          "name": "_amountIn",
          "type": "uint256"
        },
        {
          "internalType": "uint256",
          "name": "_amountOut",
          "type": "uint256"
        },
        {
          "internalType": "address",
          "name": "_fromToken",
          "type": "address"
        },
        {
          "internalType": "address",
          "name": "_toToken",
          "type": "address"
        },
        {
          "internalType": "address",
          "name": "_to",
          "type": "address"
        }
      ],
      "name": "swap",
      "outputs": [],
      "stateMutability": "nonpayable",
      "type": "function"
    },
    {
      "inputs": [],
      "name": "swapGasEstimate",
      "outputs": [
        {
          "internalType": "uint256",
          "name": "",
          "type": "uint256"
        }
      ],
      "stateMutability": "view",
      "type": "function"
    },
    {
      "inputs": [
        {
          "internalType": "address",
          "name": "newOwner",
          "type": "address"
        }
      ],
      "name": "transferOwnership",
      "outputs": [],
      "stateMutability": "nonpayable",
      "type": "function"
    },
    {
      "inputs": [],
      "name": "usdg",
      "outputs": [
        {
          "internalType": "address",
          "name": "",
          "type": "address"
        }
      ],
      "stateMutability": "view",
      "type": "function"
    },
    {
      "inputs": [],
      "name": "vault",
      "outputs": [
        {
          "internalType": "address",
          "name": "",
          "type": "address"
        }
      ],
      "stateMutability": "view",
      "type": "function"
    },
    {
      "inputs": [],
      "name": "vaultUtils",
      "outputs": [
        {
          "internalType": "address",
          "name": "",
          "type": "address"
        }
      ],
      "stateMutability": "view",
      "type": "function"
    },
    {
      "stateMutability": "payable",
      "type": "receive"
    }
  ],
  "transactionHash": "0x1173e0e7941498411607a035d4d8a09f2bfd805d0f54eb54bc23095bfbe46808",
  "args": [
    "GlpWrapper",
    1100000,
    "0xB70B91CE0771d3f4c81D87660f71Da31d48eB3B3"
  ],
  "solcInputHash": "f9a6f4032d4e5cd242dec4b79665d7db",
  "bytecode": "0x6101206040523480156200001257600080fd5b5060405162003036380380620030368339810160408190526200003591620005cd565b828281813362000047600082620002b8565b620000737f339759585899103d2ace64958e37e18ccb0504652c81d4a1b8aa80fe2126ab9582620002b8565b506200007f82620002c8565b6200008a8162000331565b505050506000816001600160a01b031663fa6db1bc6040518163ffffffff1660e01b815260040160206040518083038186803b158015620000ca57600080fd5b505afa158015620000df573d6000803e3d6000fd5b505050506040513d601f19601f82011682018060405250810190620001059190620005a7565b90506000816001600160a01b031663fbfa77cf6040518163ffffffff1660e01b815260040160206040518083038186803b1580156200014357600080fd5b505afa15801562000158573d6000803e3d6000fd5b505050506040513d601f19601f820116820180604052508101906200017e9190620005a7565b9050806001600160a01b031663f5b91b7b6040518163ffffffff1660e01b815260040160206040518083038186803b158015620001ba57600080fd5b505afa158015620001cf573d6000803e3d6000fd5b505050506040513d601f19601f82011682018060405250810190620001f59190620005a7565b6001600160a01b03166080816001600160a01b031660601b81525050806001600160a01b0316636abbe0c86040518163ffffffff1660e01b815260040160206040518083038186803b1580156200024b57600080fd5b505afa15801562000260573d6000803e3d6000fd5b505050506040513d601f19601f82011682018060405250810190620002869190620005a7565b6001600160601b0319606091821b81166101005293811b841660c05290811b831660a0521b1660e052506200072e9050565b620002c482826200044f565b5050565b80516200031c5760405162461bcd60e51b815260206004820152601460248201527f496e76616c69642061646170746572206e616d6500000000000000000000000060448201526064015b60405180910390fd5b8051620002c4906002906020840190620004ef565b3360008181527fa54247010af6b3693b80aceddfad12e077c5de3571e6243fada502635f0d7d39602052604090205460ff16620003c25760405162461bcd60e51b815260206004820152602860248201527f4d61696e7461696e61626c653a2043616c6c6572206973206e6f742061206d6160448201526734b73a30b4b732b960c11b606482015260840162000313565b81620004115760405162461bcd60e51b815260206004820152601460248201527f496e76616c6964206761732d657374696d617465000000000000000000000000604482015260640162000313565b600182905560405182815230907ff43f23b7a28e6f8ce6843a21bd7b48bce778aa913b8c8cf459edf7d770e8d38a9060200160405180910390a25050565b6000828152602081815260408083206001600160a01b038516845290915290205460ff16620002c4576000828152602081815260408083206001600160a01b03851684529091529020805460ff19166001179055620004ab3390565b6001600160a01b0316816001600160a01b0316837f2f8788117e7eff1d82e926ec794901d17c78024a50270940304540a733656f0d60405160405180910390a45050565b828054620004fd90620006c2565b90600052602060002090601f0160209004810192826200052157600085556200056c565b82601f106200053c57805160ff19168380011785556200056c565b828001600101855582156200056c579182015b828111156200056c5782518255916020019190600101906200054f565b506200057a9291506200057e565b5090565b5b808211156200057a57600081556001016200057f565b8051620005a28162000715565b919050565b600060208284031215620005b9578081fd5b8151620005c68162000715565b9392505050565b600080600060608486031215620005e2578182fd5b83516001600160401b0380821115620005f9578384fd5b818601915086601f8301126200060d578384fd5b815181811115620006225762000622620006ff565b604051601f8201601f19908116603f011681019083821181831017156200064d576200064d620006ff565b8160405282815260209350898484870101111562000669578687fd5b8691505b828210156200068c57848201840151818301850152908301906200066d565b828211156200069d57868484830101525b8097505050508086015193505050620006b96040850162000595565b90509250925092565b600181811c90821680620006d757607f821691505b60208210811415620006f957634e487b7160e01b600052602260045260246000fd5b50919050565b634e487b7160e01b600052604160045260246000fd5b6001600160a01b03811681146200072b57600080fd5b50565b60805160601c60a05160601c60c05160601c60e05160601c6101005160601c612859620007dd600039600081816103ab01528181611afb015261212401526000818161062801528181610fe6015281816118db0152611bc7015260008181610349015281816110c201526111b501526000818161065c01528181611a3c01528181611d080152818161206301526122380152600081816105c001528181612038015261220d01526128596000f3fe6080604052600436106101dc5760003560e01c806384a33e6311610102578063eab90da611610095578063f5b91b7b11610064578063f5b91b7b146105ae578063f8742254146105e2578063fa6db1bc14610616578063fbfa77cf1461064a57600080fd5b8063eab90da614610527578063ef99893a14610547578063f174e24114610567578063f2fde38b1461058e57600080fd5b806395082d25116100d157806395082d25146104b1578063a217fddf146104d2578063d547741f146104e7578063d8baf7cf1461050757600080fd5b806384a33e631461040d5780638980f11f1461042d5780638bb9c5bf1461044d57806391d148541461046d57600080fd5b806336568abe1161017a57806369cff80d1161014957806369cff80d146103835780636abbe0c8146103995780636b453c1f146103cd5780637ae26773146103ed57600080fd5b806336568abe146102d75780634ebb7916146102f75780635988f9a5146103175780635a3bb9891461033757600080fd5b8063126082cf116101b6578063126082cf14610261578063213cae631461023f578063248a9ca3146102855780632f2ff15d146102b557600080fd5b806301ffc9a7146101e857806306fdde031461021d578063071bc3c91461023f57600080fd5b366101e357005b600080fd5b3480156101f457600080fd5b50610208610203366004612502565b61067e565b60405190151581526020015b60405180910390f35b34801561022957600080fd5b506102326106e7565b60405161021491906126bd565b34801561024b57600080fd5b50610254610775565b6040516102149190612670565b34801561026d57600080fd5b5061027761271081565b604051908152602001610214565b34801561029157600080fd5b506102776102a03660046124c8565b60009081526020819052604090206001015490565b3480156102c157600080fd5b506102d56102d03660046124e0565b6107d7565b005b3480156102e357600080fd5b506102d56102f23660046124e0565b610801565b34801561030357600080fd5b506102d56103123660046124c8565b610892565b34801561032357600080fd5b506102d56103323660046123e1565b6109da565b34801561034357600080fd5b5061036b7f000000000000000000000000000000000000000000000000000000000000000081565b6040516001600160a01b039091168152602001610214565b34801561038f57600080fd5b5061027760015481565b3480156103a557600080fd5b5061036b7f000000000000000000000000000000000000000000000000000000000000000081565b3480156103d957600080fd5b506102d56103e836600461236c565b610b6e565b3480156103f957600080fd5b506102d5610408366004612386565b610b9b565b34801561041957600080fd5b506102d56104283660046124c8565b610c3f565b34801561043957600080fd5b506102d56104483660046123b8565b610d52565b34801561045957600080fd5b506102d56104683660046124c8565b610e8d565b34801561047957600080fd5b506102086104883660046124e0565b6000918252602082815260408084206001600160a01b0393909316845291905290205460ff1690565b3480156104bd57600080fd5b506102776c0c9f2c9cd04674edea4000000081565b3480156104de57600080fd5b50610277600081565b3480156104f357600080fd5b506102d56105023660046124e0565b610e98565b34801561051357600080fd5b506102d561052236600461236c565b610ebd565b34801561053357600080fd5b506102d561054236600461257d565b610ee7565b34801561055357600080fd5b50610277610562366004612542565b61136d565b34801561057357600080fd5b50730b82a1ad2138e9f62454ac41b702b64e0b73d57b61036b565b34801561059a57600080fd5b506102d56105a936600461236c565b611382565b3480156105ba57600080fd5b5061036b7f000000000000000000000000000000000000000000000000000000000000000081565b3480156105ee57600080fd5b506102777f339759585899103d2ace64958e37e18ccb0504652c81d4a1b8aa80fe2126ab9581565b34801561062257600080fd5b5061036b7f000000000000000000000000000000000000000000000000000000000000000081565b34801561065657600080fd5b5061036b7f000000000000000000000000000000000000000000000000000000000000000081565b60006001600160e01b031982167f7965db0b0000000000000000000000000000000000000000000000000000000014806106e157507f01ffc9a7000000000000000000000000000000000000000000000000000000006001600160e01b03198316145b92915050565b600280546106f4906127a1565b80601f0160208091040260200160405190810160405280929190818152602001828054610720906127a1565b801561076d5780601f106107425761010080835404028352916020019161076d565b820191906000526020600020905b81548152906001019060200180831161075057829003601f168201915b505050505081565b606060048054806020026020016040519081016040528092919081815260200182805480156107cd57602002820191906000526020600020905b81546001600160a01b031681526001909101906020018083116107af575b5050505050905090565b6000828152602081905260409020600101546107f281611399565b6107fc83836113a3565b505050565b6001600160a01b03811633146108845760405162461bcd60e51b815260206004820152602f60248201527f416363657373436f6e74726f6c3a2063616e206f6e6c792072656e6f756e636560448201527f20726f6c657320666f722073656c66000000000000000000000000000000000060648201526084015b60405180910390fd5b61088e8282611441565b5050565b3360008181527fa54247010af6b3693b80aceddfad12e077c5de3571e6243fada502635f0d7d39602052604090205460ff166109215760405162461bcd60e51b815260206004820152602860248201527f4d61696e7461696e61626c653a2043616c6c6572206973206e6f742061206d6160448201526734b73a30b4b732b960c11b606482015260840161087b565b600082116109715760405162461bcd60e51b815260206004820152601e60248201527f59616b416461707465723a204e6f7468696e6720746f207265636f7665720000604482015260640161087b565b604051339083156108fc029084906000818181858888f1935050505015801561099e573d6000803e3d6000fd5b506040518281526000907f8c1256b8896378cd5044f80c202f9772b9d77dc85c8a6eb51967210b09bfaa28906020015b60405180910390a25050565b3360008181527fa54247010af6b3693b80aceddfad12e077c5de3571e6243fada502635f0d7d39602052604090205460ff16610a695760405162461bcd60e51b815260206004820152602860248201527f4d61696e7461696e61626c653a2043616c6c6572206973206e6f742061206d6160448201526734b73a30b4b732b960c11b606482015260840161087b565b60005b600454811015610ae35760006003600060048481548110610a9d57634e487b7160e01b600052603260045260246000fd5b6000918252602080832091909101546001600160a01b031683528201929092526040019020805460ff191691151591909117905580610adb816127dc565b915050610a6c565b508151610af79060049060208501906122be565b5060005b82518110156107fc57600160036000858481518110610b2a57634e487b7160e01b600052603260045260246000fd5b6020908102919091018101516001600160a01b03168252810191909152604001600020805460ff191691151591909117905580610b66816127dc565b915050610afb565b610b987f339759585899103d2ace64958e37e18ccb0504652c81d4a1b8aa80fe2126ab95826107d7565b50565b3360008181527fa54247010af6b3693b80aceddfad12e077c5de3571e6243fada502635f0d7d39602052604090205460ff16610c2a5760405162461bcd60e51b815260206004820152602860248201527f4d61696e7461696e61626c653a2043616c6c6572206973206e6f742061206d6160448201526734b73a30b4b732b960c11b606482015260840161087b565b6107fc6001600160a01b0384168360006114c0565b3360008181527fa54247010af6b3693b80aceddfad12e077c5de3571e6243fada502635f0d7d39602052604090205460ff16610cce5760405162461bcd60e51b815260206004820152602860248201527f4d61696e7461696e61626c653a2043616c6c6572206973206e6f742061206d6160448201526734b73a30b4b732b960c11b606482015260840161087b565b81610d1b5760405162461bcd60e51b815260206004820152601460248201527f496e76616c6964206761732d657374696d617465000000000000000000000000604482015260640161087b565b600182905560405182815230907ff43f23b7a28e6f8ce6843a21bd7b48bce778aa913b8c8cf459edf7d770e8d38a906020016109ce565b3360008181527fa54247010af6b3693b80aceddfad12e077c5de3571e6243fada502635f0d7d39602052604090205460ff16610de15760405162461bcd60e51b815260206004820152602860248201527f4d61696e7461696e61626c653a2043616c6c6572206973206e6f742061206d6160448201526734b73a30b4b732b960c11b606482015260840161087b565b60008211610e315760405162461bcd60e51b815260206004820152601e60248201527f59616b416461707465723a204e6f7468696e6720746f207265636f7665720000604482015260640161087b565b610e456001600160a01b038416338461164c565b826001600160a01b03167f8c1256b8896378cd5044f80c202f9772b9d77dc85c8a6eb51967210b09bfaa2883604051610e8091815260200190565b60405180910390a2505050565b3361088e8282610801565b600082815260208190526040902060010154610eb381611399565b6107fc8383611441565b610b987f339759585899103d2ace64958e37e18ccb0504652c81d4a1b8aa80fe2126ab9582610e98565b60006001600160a01b038316730b82a1ad2138e9f62454ac41b702b64e0b73d57b14610f135782610f29565b739e295b5b976a184b14ad8cd72413ad846c2996605b6040516370a0823160e01b81526001600160a01b0384811660048301529192506000918316906370a082319060240160206040518083038186803b158015610f7057600080fd5b505afa158015610f84573d6000803e3d6000fd5b505050506040513d601f19601f82011682018060405250810190610fa8919061252a565b90506001600160a01b038416730b82a1ad2138e9f62454ac41b702b64e0b73d57b14156111675760405163095ea7b360e01b81526001600160a01b037f0000000000000000000000000000000000000000000000000000000000000000811660048301526024820189905286169063095ea7b390604401602060405180830381600087803b15801561103957600080fd5b505af115801561104d573d6000803e3d6000fd5b505050506040513d601f19601f8201168201806040525081019061107191906124a8565b506040517f364e23110000000000000000000000000000000000000000000000000000000081526001600160a01b0386811660048301526024820189905260006044830181905260648301899052917f00000000000000000000000000000000000000000000000000000000000000009091169063364e231190608401602060405180830381600087803b15801561110857600080fd5b505af115801561111c573d6000803e3d6000fd5b505050506040513d601f19601f82011682018060405250810190611140919061252a565b9050611161730b82a1ad2138e9f62454ac41b702b64e0b73d57b8286611695565b50611233565b6040517f0f3aa5540000000000000000000000000000000000000000000000000000000081526001600160a01b038581166004830152602482018990526044820188905284811660648301527f00000000000000000000000000000000000000000000000000000000000000001690630f3aa55490608401602060405180830381600087803b1580156111f957600080fd5b505af115801561120d573d6000803e3d6000fd5b505050506040513d601f19601f82011682018060405250810190611231919061252a565b505b6040516370a0823160e01b81526001600160a01b03848116600483015260009183918516906370a082319060240160206040518083038186803b15801561127957600080fd5b505afa15801561128d573d6000803e3d6000fd5b505050506040513d601f19601f820116820180604052508101906112b1919061252a565b6112bb9190612747565b90508681101561130d5760405162461bcd60e51b815260206004820152601760248201527f496e73756666696369656e7420616d6f756e742d6f7574000000000000000000604482015260640161087b565b826001600160a01b0316866001600160a01b03167fe2bdbc6b7225eb0a972ac943c485a6cc05f7c6811838bce8903f23200fb744fa8a8a60405161135b929190918252602082015260400190565b60405180910390a35050505050505050565b600061137a8484846116b9565b949350505050565b3361138e6000836107d7565b61088e600082610801565b610b9881336116f8565b6000828152602081815260408083206001600160a01b038516845290915290205460ff1661088e576000828152602081815260408083206001600160a01b03851684529091529020805460ff191660011790556113fd3390565b6001600160a01b0316816001600160a01b0316837f2f8788117e7eff1d82e926ec794901d17c78024a50270940304540a733656f0d60405160405180910390a45050565b6000828152602081815260408083206001600160a01b038516845290915290205460ff161561088e576000828152602081815260408083206001600160a01b0385168085529252808320805460ff1916905551339285917ff6391f5c32d9c69d2a47ea670b442974b53935d1edc7fd64eb21e047a839171b9190a45050565b80158061156257506040517fdd62ed3e0000000000000000000000000000000000000000000000000000000081523060048201526001600160a01b03838116602483015284169063dd62ed3e9060440160206040518083038186803b15801561152857600080fd5b505afa15801561153c573d6000803e3d6000fd5b505050506040513d601f19601f82011682018060405250810190611560919061252a565b155b6115d45760405162461bcd60e51b815260206004820152603660248201527f5361666545524332303a20617070726f76652066726f6d206e6f6e2d7a65726f60448201527f20746f206e6f6e2d7a65726f20616c6c6f77616e636500000000000000000000606482015260840161087b565b6040516001600160a01b0383166024820152604481018290526107fc90849063095ea7b360e01b906064015b60408051601f198184030181529190526020810180517bffffffffffffffffffffffffffffffffffffffffffffffffffffffff166001600160e01b031990931692909217909152611776565b6040516001600160a01b0383166024820152604481018290526107fc9084907fa9059cbb0000000000000000000000000000000000000000000000000000000090606401611600565b306001600160a01b038216146107fc576107fc6001600160a01b038416828461164c565b60006001600160a01b038216730b82a1ad2138e9f62454ac41b702b64e0b73d57b146116ee576116e982856118b8565b61137a565b61137a8385611ba4565b6000828152602081815260408083206001600160a01b038516845290915290205460ff1661088e57611734816001600160a01b03166014611dc0565b61173f836020611dc0565b6040516020016117509291906125ef565b60408051601f198184030181529082905262461bcd60e51b825261087b916004016126bd565b600080836001600160a01b03168360405161179191906125d3565b6000604051808303816000865af19150503d80600081146117ce576040519150601f19603f3d011682016040523d82523d6000602084013e6117d3565b606091505b5091509150816118255760405162461bcd60e51b815260206004820181905260248201527f5361666545524332303a206c6f772d6c6576656c2063616c6c206661696c6564604482015260640161087b565b8051156118b2578080602001905181019061184091906124a8565b6118b25760405162461bcd60e51b815260206004820152602a60248201527f5361666545524332303a204552433230206f7065726174696f6e20646964206e60448201527f6f74207375636365656400000000000000000000000000000000000000000000606482015260840161087b565b50505050565b604051630345051f60e51b81526000600482018190529081906001600160a01b037f000000000000000000000000000000000000000000000000000000000000000016906368a0a3e09060240160206040518083038186803b15801561191d57600080fd5b505afa158015611931573d6000803e3d6000fd5b505050506040513d601f19601f82011682018060405250810190611955919061252a565b905060007301234181085565ed162a948b6a5e88758cd7c7b86001600160a01b03166318160ddd6040518163ffffffff1660e01b815260040160206040518083038186803b1580156119a657600080fd5b505afa1580156119ba573d6000803e3d6000fd5b505050506040513d601f19601f820116820180604052508101906119de919061252a565b90506000816119ed8487612728565b6119f79190612708565b6040517f2c668ec10000000000000000000000000000000000000000000000000000000081526001600160a01b038881166004830152602482018390529192506000917f00000000000000000000000000000000000000000000000000000000000000001690632c668ec19060440160206040518083038186803b158015611a7e57600080fd5b505afa158015611a92573d6000803e3d6000fd5b505050506040513d601f19601f82011682018060405250810190611ab6919061252a565b6040517feb0835bf0000000000000000000000000000000000000000000000000000000081526001600160a01b038981166004830152602482018590529192506000917f0000000000000000000000000000000000000000000000000000000000000000169063eb0835bf9060440160206040518083038186803b158015611b3d57600080fd5b505afa158015611b51573d6000803e3d6000fd5b505050506040513d601f19601f82011682018060405250810190611b75919061252a565b9050612710611b848282612747565b611b8e9084612728565b611b989190612708565b98975050505050505050565b604051630345051f60e51b81526001600482015260009081906001600160a01b037f000000000000000000000000000000000000000000000000000000000000000016906368a0a3e09060240160206040518083038186803b158015611c0957600080fd5b505afa158015611c1d573d6000803e3d6000fd5b505050506040513d601f19601f82011682018060405250810190611c41919061252a565b905060007301234181085565ed162a948b6a5e88758cd7c7b86001600160a01b03166318160ddd6040518163ffffffff1660e01b815260040160206040518083038186803b158015611c9257600080fd5b505afa158015611ca6573d6000803e3d6000fd5b505050506040513d601f19601f82011682018060405250810190611cca919061252a565b6040517f81a612d60000000000000000000000000000000000000000000000000000000081526001600160a01b0387811660048301529192506000917f000000000000000000000000000000000000000000000000000000000000000016906381a612d69060240160206040518083038186803b158015611d4a57600080fd5b505afa158015611d5e573d6000803e3d6000fd5b505050506040513d601f19601f82011682018060405250810190611d82919061252a565b90506000611d91868389611fee565b90508315611db35783611da48483612728565b611dae9190612708565b611db5565b805b979650505050505050565b60606000611dcf836002612728565b611dda9060026126f0565b67ffffffffffffffff811115611e0057634e487b7160e01b600052604160045260246000fd5b6040519080825280601f01601f191660200182016040528015611e2a576020820181803683370190505b5090507f300000000000000000000000000000000000000000000000000000000000000081600081518110611e6f57634e487b7160e01b600052603260045260246000fd5b60200101906001600160f81b031916908160001a9053507f780000000000000000000000000000000000000000000000000000000000000081600181518110611ec857634e487b7160e01b600052603260045260246000fd5b60200101906001600160f81b031916908160001a9053506000611eec846002612728565b611ef79060016126f0565b90505b6001811115611f98577f303132333435363738396162636465660000000000000000000000000000000085600f1660108110611f4657634e487b7160e01b600052603260045260246000fd5b1a60f81b828281518110611f6a57634e487b7160e01b600052603260045260246000fd5b60200101906001600160f81b031916908160001a90535060049490941c93611f918161278a565b9050611efa565b508315611fe75760405162461bcd60e51b815260206004820181905260248201527f537472696e67733a20686578206c656e67746820696e73756666696369656e74604482015260640161087b565b9392505050565b60006c0c9f2c9cd04674edea400000006120088486612728565b6120129190612708565b604051634215287360e01b8152600481018290526001600160a01b0384811660248301527f0000000000000000000000000000000000000000000000000000000000000000811660448301529192507f00000000000000000000000000000000000000000000000000000000000000009091169063421528739060640160206040518083038186803b1580156120a757600080fd5b505afa1580156120bb573d6000803e3d6000fd5b505050506040513d601f19601f820116820180604052508101906120df919061252a565b6040517f4adeddc60000000000000000000000000000000000000000000000000000000081526001600160a01b038481166004830152602482018390529192506000917f00000000000000000000000000000000000000000000000000000000000000001690634adeddc69060440160206040518083038186803b15801561216657600080fd5b505afa15801561217a573d6000803e3d6000fd5b505050506040513d601f19601f8201168201806040525081019061219e919061252a565b905060006127106121af8382612747565b6121b99088612728565b6121c39190612708565b90506c0c9f2c9cd04674edea400000006121dd8683612728565b6121e79190612708565b604051634215287360e01b8152600481018290526001600160a01b0386811660248301527f0000000000000000000000000000000000000000000000000000000000000000811660448301529194507f00000000000000000000000000000000000000000000000000000000000000009091169063421528739060640160206040518083038186803b15801561227c57600080fd5b505afa158015612290573d6000803e3d6000fd5b505050506040513d601f19601f820116820180604052508101906122b4919061252a565b9695505050505050565b82805482825590600052602060002090810192821561232b579160200282015b8281111561232b57825182547fffffffffffffffffffffffff0000000000000000000000000000000000000000166001600160a01b039091161782556020909201916001909101906122de565b5061233792915061233b565b5090565b5b80821115612337576000815560010161233c565b80356001600160a01b038116811461236757600080fd5b919050565b60006020828403121561237d578081fd5b611fe782612350565b60008060408385031215612398578081fd5b6123a183612350565b91506123af60208401612350565b90509250929050565b600080604083850312156123ca578182fd5b6123d383612350565b946020939093013593505050565b600060208083850312156123f3578182fd5b823567ffffffffffffffff8082111561240a578384fd5b818501915085601f83011261241d578384fd5b81358181111561242f5761242f61280d565b8060051b604051601f19603f830116810181811085821117156124545761245461280d565b604052828152858101935084860182860187018a1015612472578788fd5b8795505b8386101561249b5761248781612350565b855260019590950194938601938601612476565b5098975050505050505050565b6000602082840312156124b9578081fd5b81518015158114611fe7578182fd5b6000602082840312156124d9578081fd5b5035919050565b600080604083850312156124f2578182fd5b823591506123af60208401612350565b600060208284031215612513578081fd5b81356001600160e01b031981168114611fe7578182fd5b60006020828403121561253b578081fd5b5051919050565b600080600060608486031215612556578081fd5b8335925061256660208501612350565b915061257460408501612350565b90509250925092565b600080600080600060a08688031215612594578081fd5b85359450602086013593506125ab60408701612350565b92506125b960608701612350565b91506125c760808701612350565b90509295509295909350565b600082516125e581846020870161275e565b9190910192915050565b7f416363657373436f6e74726f6c3a206163636f756e742000000000000000000081526000835161262781601785016020880161275e565b7f206973206d697373696e6720726f6c6520000000000000000000000000000000601791840191820152835161266481602884016020880161275e565b01602801949350505050565b6020808252825182820181905260009190848201906040850190845b818110156126b15783516001600160a01b03168352928401929184019160010161268c565b50909695505050505050565b60208152600082518060208401526126dc81604085016020870161275e565b601f01601f19169190910160400192915050565b60008219821115612703576127036127f7565b500190565b60008261272357634e487b7160e01b81526012600452602481fd5b500490565b6000816000190483118215151615612742576127426127f7565b500290565b600082821015612759576127596127f7565b500390565b60005b83811015612779578181015183820152602001612761565b838111156118b25750506000910152565b600081612799576127996127f7565b506000190190565b600181811c908216806127b557607f821691505b602082108114156127d657634e487b7160e01b600052602260045260246000fd5b50919050565b60006000198214156127f0576127f06127f7565b5060010190565b634e487b7160e01b600052601160045260246000fd5b634e487b7160e01b600052604160045260246000fdfea26469706673582212201e4d20e14d1b1ccf5a54c30176bb0903ad72286dbf14e12010bf25b27175bb7364736f6c63430008040033",
  "devdoc": {
    "kind": "dev",
    "methods": {
      "getRoleAdmin(bytes32)": {
        "details": "Returns the admin role that controls `role`. See {grantRole} and {revokeRole}. To change a role's admin, use {_setRoleAdmin}."
      },
      "grantRole(bytes32,address)": {
        "details": "Grants `role` to `account`. If `account` had not been already granted `role`, emits a {RoleGranted} event. Requirements: - the caller must have ``role``'s admin role. May emit a {RoleGranted} event."
      },
      "hasRole(bytes32,address)": {
        "details": "Returns `true` if `account` has been granted `role`."
      },
      "renounceRole(bytes32,address)": {
        "details": "Revokes `role` from the calling account. Roles are often managed via {grantRole} and {revokeRole}: this function's purpose is to provide a mechanism for accounts to lose their privileges if they are compromised (such as when a trusted device is misplaced). If the calling account had been revoked `role`, emits a {RoleRevoked} event. Requirements: - the caller must be `account`. May emit a {RoleRevoked} event."
      },
      "revokeRole(bytes32,address)": {
        "details": "Revokes `role` from `account`. If `account` had been granted `role`, emits a {RoleRevoked} event. Requirements: - the caller must have ``role``'s admin role. May emit a {RoleRevoked} event."
      },
      "supportsInterface(bytes4)": {
        "details": "See {IERC165-supportsInterface}."
      }
    },
    "version": 1
  },
  "userdoc": {
    "kind": "user",
    "methods": {},
    "version": 1
  },
  "storageLayout": {
    "storage": [
      {
        "astId": 24,
        "contract": "src/contracts/wrappers/GlpWrapper.sol:GlpWrapper",
        "label": "_roles",
        "offset": 0,
        "slot": "0",
        "type": "t_mapping(t_bytes32,t_struct(RoleData)19_storage)"
      },
      {
        "astId": 1452,
        "contract": "src/contracts/wrappers/GlpWrapper.sol:GlpWrapper",
        "label": "swapGasEstimate",
        "offset": 0,
        "slot": "1",
        "type": "t_uint256"
      },
      {
        "astId": 1454,
        "contract": "src/contracts/wrappers/GlpWrapper.sol:GlpWrapper",
        "label": "name",
        "offset": 0,
        "slot": "2",
        "type": "t_string_storage"
      },
      {
        "astId": 18557,
        "contract": "src/contracts/wrappers/GlpWrapper.sol:GlpWrapper",
        "label": "isWhitelisted",
        "offset": 0,
        "slot": "3",
        "type": "t_mapping(t_address,t_bool)"
      },
      {
        "astId": 18560,
        "contract": "src/contracts/wrappers/GlpWrapper.sol:GlpWrapper",
        "label": "whitelistedTokens",
        "offset": 0,
        "slot": "4",
        "type": "t_array(t_address)dyn_storage"
      }
    ],
    "types": {
      "t_address": {
        "encoding": "inplace",
        "label": "address",
        "numberOfBytes": "20"
      },
      "t_array(t_address)dyn_storage": {
        "base": "t_address",
        "encoding": "dynamic_array",
        "label": "address[]",
        "numberOfBytes": "32"
      },
      "t_bool": {
        "encoding": "inplace",
        "label": "bool",
        "numberOfBytes": "1"
      },
      "t_bytes32": {
        "encoding": "inplace",
        "label": "bytes32",
        "numberOfBytes": "32"
      },
      "t_mapping(t_address,t_bool)": {
        "encoding": "mapping",
        "key": "t_address",
        "label": "mapping(address => bool)",
        "numberOfBytes": "32",
        "value": "t_bool"
      },
      "t_mapping(t_bytes32,t_struct(RoleData)19_storage)": {
        "encoding": "mapping",
        "key": "t_bytes32",
        "label": "mapping(bytes32 => struct AccessControl.RoleData)",
        "numberOfBytes": "32",
        "value": "t_struct(RoleData)19_storage"
      },
      "t_string_storage": {
        "encoding": "bytes",
        "label": "string",
        "numberOfBytes": "32"
      },
      "t_struct(RoleData)19_storage": {
        "encoding": "inplace",
        "label": "struct AccessControl.RoleData",
        "members": [
          {
            "astId": 16,
            "contract": "src/contracts/wrappers/GlpWrapper.sol:GlpWrapper",
            "label": "members",
            "offset": 0,
            "slot": "0",
            "type": "t_mapping(t_address,t_bool)"
          },
          {
            "astId": 18,
            "contract": "src/contracts/wrappers/GlpWrapper.sol:GlpWrapper",
            "label": "adminRole",
            "offset": 0,
            "slot": "1",
            "type": "t_bytes32"
          }
        ],
        "numberOfBytes": "64"
      },
      "t_uint256": {
        "encoding": "inplace",
        "label": "uint256",
        "numberOfBytes": "32"
      }
    }
  }
}