{
  "address": "0x442DB6e78e54449B2a5f08A943Fa8a79041C797b",
  "abi": [
    {
      "inputs": [
        {
          "internalType": "string",
          "name": "_name",
          "type": "string"
        },
        {
          "internalType": "uint256",
          "name": "_gasEstimate",
          "type": "uint256"
        },
        {
          "internalType": "address",
          "name": "_gmxRewardRouter",
          "type": "address"
        },
        {
          "internalType": "address",
          "name": "_glp",
          "type": "address"
        },
        {
          "internalType": "address",
          "name": "_sGlp",
          "type": "address"
        }
      ],
      "stateMutability": "nonpayable",
      "type": "constructor"
    },
    {
      "anonymous": false,
      "inputs": [
        {
          "indexed": true,
          "internalType": "address",
          "name": "_asset",
          "type": "address"
        },
        {
          "indexed": false,
          "internalType": "uint256",
          "name": "amount",
          "type": "uint256"
        }
      ],
      "name": "Recovered",
      "type": "event"
    },
    {
      "anonymous": false,
      "inputs": [
        {
          "indexed": true,
          "internalType": "bytes32",
          "name": "role",
          "type": "bytes32"
        },
        {
          "indexed": true,
          "internalType": "bytes32",
          "name": "previousAdminRole",
          "type": "bytes32"
        },
        {
          "indexed": true,
          "internalType": "bytes32",
          "name": "newAdminRole",
          "type": "bytes32"
        }
      ],
      "name": "RoleAdminChanged",
      "type": "event"
    },
    {
      "anonymous": false,
      "inputs": [
        {
          "indexed": true,
          "internalType": "bytes32",
          "name": "role",
          "type": "bytes32"
        },
        {
          "indexed": true,
          "internalType": "address",
          "name": "account",
          "type": "address"
        },
        {
          "indexed": true,
          "internalType": "address",
          "name": "sender",
          "type": "address"
        }
      ],
      "name": "RoleGranted",
      "type": "event"
    },
    {
      "anonymous": false,
      "inputs": [
        {
          "indexed": true,
          "internalType": "bytes32",
          "name": "role",
          "type": "bytes32"
        },
        {
          "indexed": true,
          "internalType": "address",
          "name": "account",
          "type": "address"
        },
        {
          "indexed": true,
          "internalType": "address",
          "name": "sender",
          "type": "address"
        }
      ],
      "name": "RoleRevoked",
      "type": "event"
    },
    {
      "anonymous": false,
      "inputs": [
        {
          "indexed": true,
          "internalType": "address",
          "name": "_adapter",
          "type": "address"
        },
        {
          "indexed": false,
          "internalType": "uint256",
          "name": "_newEstimate",
          "type": "uint256"
        }
      ],
      "name": "UpdatedGasEstimate",
      "type": "event"
    },
    {
      "anonymous": false,
      "inputs": [
        {
          "indexed": true,
          "internalType": "address",
          "name": "_tokenFrom",
          "type": "address"
        },
        {
          "indexed": true,
          "internalType": "address",
          "name": "_tokenTo",
          "type": "address"
        },
        {
          "indexed": false,
          "internalType": "uint256",
          "name": "_amountIn",
          "type": "uint256"
        },
        {
          "indexed": false,
          "internalType": "uint256",
          "name": "_amountOut",
          "type": "uint256"
        }
      ],
      "name": "YakAdapterSwap",
      "type": "event"
    },
    {
      "inputs": [],
      "name": "BASIS_POINTS_DIVISOR",
      "outputs": [
        {
          "internalType": "uint256",
          "name": "",
          "type": "uint256"
        }
      ],
      "stateMutability": "view",
      "type": "function"
    },
    {
      "inputs": [],
      "name": "DEFAULT_ADMIN_ROLE",
      "outputs": [
        {
          "internalType": "bytes32",
          "name": "",
          "type": "bytes32"
        }
      ],
      "stateMutability": "view",
      "type": "function"
    },
    {
      "inputs": [],
      "name": "GLP",
      "outputs": [
        {
          "internalType": "address",
          "name": "",
          "type": "address"
        }
      ],
      "stateMutability": "view",
      "type": "function"
    },
    {
      "inputs": [],
      "name": "MAINTAINER_ROLE",
      "outputs": [
        {
          "internalType": "bytes32",
          "name": "",
          "type": "bytes32"
        }
      ],
      "stateMutability": "view",
      "type": "function"
    },
    {
      "inputs": [],
      "name": "PRICE_PRECISION",
      "outputs": [
        {
          "internalType": "uint256",
          "name": "",
          "type": "uint256"
        }
      ],
      "stateMutability": "view",
      "type": "function"
    },
    {
      "inputs": [],
      "name": "USDG",
      "outputs": [
        {
          "internalType": "address",
          "name": "",
          "type": "address"
        }
      ],
      "stateMutability": "view",
      "type": "function"
    },
    {
      "inputs": [
        {
          "internalType": "address",
          "name": "addedMaintainer",
          "type": "address"
        }
      ],
      "name": "addMaintainer",
      "outputs": [],
      "stateMutability": "nonpayable",
      "type": "function"
    },
    {
      "inputs": [
        {
          "internalType": "bytes32",
          "name": "role",
          "type": "bytes32"
        }
      ],
      "name": "getRoleAdmin",
      "outputs": [
        {
          "internalType": "bytes32",
          "name": "",
          "type": "bytes32"
        }
      ],
      "stateMutability": "view",
      "type": "function"
    },
    {
      "inputs": [],
      "name": "getTokensIn",
      "outputs": [
        {
          "internalType": "address[]",
          "name": "",
          "type": "address[]"
        }
      ],
      "stateMutability": "view",
      "type": "function"
    },
    {
      "inputs": [],
      "name": "getTokensOut",
      "outputs": [
        {
          "internalType": "address[]",
          "name": "",
          "type": "address[]"
        }
      ],
      "stateMutability": "view",
      "type": "function"
    },
    {
      "inputs": [],
      "name": "getWrappedToken",
      "outputs": [
        {
          "internalType": "address",
          "name": "",
          "type": "address"
        }
      ],
      "stateMutability": "view",
      "type": "function"
    },
    {
      "inputs": [],
      "name": "glpManager",
      "outputs": [
        {
          "internalType": "address",
          "name": "",
          "type": "address"
        }
      ],
      "stateMutability": "view",
      "type": "function"
    },
    {
      "inputs": [
        {
          "internalType": "bytes32",
          "name": "role",
          "type": "bytes32"
        },
        {
          "internalType": "address",
          "name": "account",
          "type": "address"
        }
      ],
      "name": "grantRole",
      "outputs": [],
      "stateMutability": "nonpayable",
      "type": "function"
    },
    {
      "inputs": [
        {
          "internalType": "bytes32",
          "name": "role",
          "type": "bytes32"
        },
        {
          "internalType": "address",
          "name": "account",
          "type": "address"
        }
      ],
      "name": "hasRole",
      "outputs": [
        {
          "internalType": "bool",
          "name": "",
          "type": "bool"
        }
      ],
      "stateMutability": "view",
      "type": "function"
    },
    {
      "inputs": [],
      "name": "name",
      "outputs": [
        {
          "internalType": "string",
          "name": "",
          "type": "string"
        }
      ],
      "stateMutability": "view",
      "type": "function"
    },
    {
      "inputs": [
        {
          "internalType": "uint256",
          "name": "_amountIn",
          "type": "uint256"
        },
        {
          "internalType": "address",
          "name": "_tokenIn",
          "type": "address"
        },
        {
          "internalType": "address",
          "name": "_tokenOut",
          "type": "address"
        }
      ],
      "name": "query",
      "outputs": [
        {
          "internalType": "uint256",
          "name": "",
          "type": "uint256"
        }
      ],
      "stateMutability": "view",
      "type": "function"
    },
    {
      "inputs": [
        {
          "internalType": "uint256",
          "name": "_amount",
          "type": "uint256"
        }
      ],
      "name": "recoverAVAX",
      "outputs": [],
      "stateMutability": "nonpayable",
      "type": "function"
    },
    {
      "inputs": [
        {
          "internalType": "address",
          "name": "_tokenAddress",
          "type": "address"
        },
        {
          "internalType": "uint256",
          "name": "_tokenAmount",
          "type": "uint256"
        }
      ],
      "name": "recoverERC20",
      "outputs": [],
      "stateMutability": "nonpayable",
      "type": "function"
    },
    {
      "inputs": [
        {
          "internalType": "address",
          "name": "removedMaintainer",
          "type": "address"
        }
      ],
      "name": "removeMaintainer",
      "outputs": [],
      "stateMutability": "nonpayable",
      "type": "function"
    },
    {
      "inputs": [
        {
          "internalType": "bytes32",
          "name": "role",
          "type": "bytes32"
        },
        {
          "internalType": "address",
          "name": "account",
          "type": "address"
        }
      ],
      "name": "renounceRole",
      "outputs": [],
      "stateMutability": "nonpayable",
      "type": "function"
    },
    {
      "inputs": [
        {
          "internalType": "bytes32",
          "name": "role",
          "type": "bytes32"
        }
      ],
      "name": "renounceRole",
      "outputs": [],
      "stateMutability": "nonpayable",
      "type": "function"
    },
    {
      "inputs": [
        {
          "internalType": "address",
          "name": "_token",
          "type": "address"
        },
        {
          "internalType": "address",
          "name": "_spender",
          "type": "address"
        }
      ],
      "name": "revokeAllowance",
      "outputs": [],
      "stateMutability": "nonpayable",
      "type": "function"
    },
    {
      "inputs": [
        {
          "internalType": "bytes32",
          "name": "role",
          "type": "bytes32"
        },
        {
          "internalType": "address",
          "name": "account",
          "type": "address"
        }
      ],
      "name": "revokeRole",
      "outputs": [],
      "stateMutability": "nonpayable",
      "type": "function"
    },
    {
      "inputs": [],
      "name": "rewardRouter",
      "outputs": [
        {
          "internalType": "address",
          "name": "",
          "type": "address"
        }
      ],
      "stateMutability": "view",
      "type": "function"
    },
    {
      "inputs": [],
      "name": "sGLP",
      "outputs": [
        {
          "internalType": "address",
          "name": "",
          "type": "address"
        }
      ],
      "stateMutability": "view",
      "type": "function"
    },
    {
      "inputs": [
        {
          "internalType": "uint256",
          "name": "_estimate",
          "type": "uint256"
        }
      ],
      "name": "setSwapGasEstimate",
      "outputs": [],
      "stateMutability": "nonpayable",
      "type": "function"
    },
    {
      "inputs": [
        {
          "internalType": "address[]",
          "name": "tokens",
          "type": "address[]"
        }
      ],
      "name": "setWhitelistedTokens",
      "outputs": [],
      "stateMutability": "nonpayable",
      "type": "function"
    },
    {
      "inputs": [
        {
          "internalType": "bytes4",
          "name": "interfaceId",
          "type": "bytes4"
        }
      ],
      "name": "supportsInterface",
      "outputs": [
        {
          "internalType": "bool",
          "name": "",
          "type": "bool"
        }
      ],
      "stateMutability": "view",
      "type": "function"
    },
    {
      "inputs": [
        {
          "internalType": "uint256",
          "name": "_amountIn",
          "type": "uint256"
        },
        {
          "internalType": "uint256",
          "name": "_amountOut",
          "type": "uint256"
        },
        {
          "internalType": "address",
          "name": "_fromToken",
          "type": "address"
        },
        {
          "internalType": "address",
          "name": "_toToken",
          "type": "address"
        },
        {
          "internalType": "address",
          "name": "_to",
          "type": "address"
        }
      ],
      "name": "swap",
      "outputs": [],
      "stateMutability": "nonpayable",
      "type": "function"
    },
    {
      "inputs": [],
      "name": "swapGasEstimate",
      "outputs": [
        {
          "internalType": "uint256",
          "name": "",
          "type": "uint256"
        }
      ],
      "stateMutability": "view",
      "type": "function"
    },
    {
      "inputs": [
        {
          "internalType": "address",
          "name": "newOwner",
          "type": "address"
        }
      ],
      "name": "transferOwnership",
      "outputs": [],
      "stateMutability": "nonpayable",
      "type": "function"
    },
    {
      "inputs": [],
      "name": "vault",
      "outputs": [
        {
          "internalType": "address",
          "name": "",
          "type": "address"
        }
      ],
      "stateMutability": "view",
      "type": "function"
    },
    {
      "inputs": [],
      "name": "vaultUtils",
      "outputs": [
        {
          "internalType": "address",
          "name": "",
          "type": "address"
        }
      ],
      "stateMutability": "view",
      "type": "function"
    },
    {
      "stateMutability": "payable",
      "type": "receive"
    }
  ],
  "transactionHash": "0xf706e048a7b8bd089fabc29d73d87fd3948dfd50de3eb30413d122a9deb69d9e",
  "args": [
    "GlpWrapper",
    1600000,
    "0xB70B91CE0771d3f4c81D87660f71Da31d48eB3B3",
    "0x01234181085565ed162a948b6a5e88758CD7c7b8",
    "0xaE64d55a6f09E4263421737397D1fdFA71896a69"
  ],
  "numDeployments": 1,
  "solcInputHash": "9c25b4fdca0d40861c37c9df688f2e12",
  "bytecode": "0x6101606040523480156200001257600080fd5b5060405162003583380380620035838339810160408190526200003591620005e0565b848481813362000047600082620002cb565b620000737f339759585899103d2ace64958e37e18ccb0504652c81d4a1b8aa80fe2126ab9582620002cb565b506200007f82620002db565b6200008a8162000344565b505050506000836001600160a01b031663fa6db1bc6040518163ffffffff1660e01b815260040160206040518083038186803b158015620000ca57600080fd5b505afa158015620000df573d6000803e3d6000fd5b505050506040513d601f19601f82011682018060405250810190620001059190620005ba565b90506000816001600160a01b031663fbfa77cf6040518163ffffffff1660e01b815260040160206040518083038186803b1580156200014357600080fd5b505afa15801562000158573d6000803e3d6000fd5b505050506040513d601f19601f820116820180604052508101906200017e9190620005ba565b9050806001600160a01b031663f5b91b7b6040518163ffffffff1660e01b815260040160206040518083038186803b158015620001ba57600080fd5b505afa158015620001cf573d6000803e3d6000fd5b505050506040513d601f19601f82011682018060405250810190620001f59190620005ba565b6001600160a01b03166080816001600160a01b031660601b81525050806001600160a01b0316636abbe0c86040518163ffffffff1660e01b815260040160206040518083038186803b1580156200024b57600080fd5b505afa15801562000260573d6000803e3d6000fd5b505050506040513d601f19601f82011682018060405250810190620002869190620005ba565b6001600160601b0319606091821b81166101405295811b86166101005290811b851660e05290811b84166101205291821b831660a052901b1660c05250620007679050565b620002d7828262000462565b5050565b80516200032f5760405162461bcd60e51b815260206004820152601460248201527f496e76616c69642061646170746572206e616d6500000000000000000000000060448201526064015b60405180910390fd5b8051620002d790600290602084019062000502565b3360008181527fa54247010af6b3693b80aceddfad12e077c5de3571e6243fada502635f0d7d39602052604090205460ff16620003d55760405162461bcd60e51b815260206004820152602860248201527f4d61696e7461696e61626c653a2043616c6c6572206973206e6f742061206d6160448201526734b73a30b4b732b960c11b606482015260840162000326565b81620004245760405162461bcd60e51b815260206004820152601460248201527f496e76616c6964206761732d657374696d617465000000000000000000000000604482015260640162000326565b600182905560405182815230907ff43f23b7a28e6f8ce6843a21bd7b48bce778aa913b8c8cf459edf7d770e8d38a9060200160405180910390a25050565b6000828152602081815260408083206001600160a01b038516845290915290205460ff16620002d7576000828152602081815260408083206001600160a01b03851684529091529020805460ff19166001179055620004be3390565b6001600160a01b0316816001600160a01b0316837f2f8788117e7eff1d82e926ec794901d17c78024a50270940304540a733656f0d60405160405180910390a45050565b8280546200051090620006fb565b90600052602060002090601f0160209004810192826200053457600085556200057f565b82601f106200054f57805160ff19168380011785556200057f565b828001600101855582156200057f579182015b828111156200057f57825182559160200191906001019062000562565b506200058d92915062000591565b5090565b5b808211156200058d576000815560010162000592565b8051620005b5816200074e565b919050565b600060208284031215620005cc578081fd5b8151620005d9816200074e565b9392505050565b600080600080600060a08688031215620005f8578081fd5b85516001600160401b03808211156200060f578283fd5b818801915088601f83011262000623578283fd5b81518181111562000638576200063862000738565b604051601f8201601f19908116603f0116810190838211818310171562000663576200066362000738565b81604052828152602093508b848487010111156200067f578586fd5b8591505b82821015620006a2578482018401518183018501529083019062000683565b82821115620006b357858484830101525b8099505050508088015195505050620006cf60408701620005a8565b9250620006df60608701620005a8565b9150620006ef60808701620005a8565b90509295509295909350565b600181811c908216806200071057607f821691505b602082108114156200073257634e487b7160e01b600052602260045260246000fd5b50919050565b634e487b7160e01b600052604160045260246000fd5b6001600160a01b03811681146200076457600080fd5b50565b60805160601c60a05160601c60c05160601c60e05160601c6101005160601c6101205160601c6101405160601c612d0b620008786000396000818161040501526125d60152600081816106c2015281816110b6015281816119cb0152611c120152600081816103bb0152818161119201526112910152600081816106f601528181611b3801528181611d5f0152818161204a015281816120df015281816121720152818161224a015281816123290152818161251501526126ea015260008181610553015281816106380152818161106701528181611217015261179801526000818161058701528181611a4b0152611c9201526000818161034f015281816124ea01526126bf0152612d0b6000f3fe6080604052600436106102025760003560e01c806384a33e631161011d578063d547741f116100b0578063f174e2411161007f578063f874225411610064578063f87422541461067c578063fa6db1bc146106b0578063fbfa77cf146106e457600080fd5b8063f174e24114610629578063f2fde38b1461065c57600080fd5b8063d547741f146105a9578063d8baf7cf146105c9578063eab90da6146105e9578063ef99893a1461060957600080fd5b806395082d25116100ec57806395082d251461050b578063a217fddf1461052c578063a8d7741214610541578063b28147d91461057557600080fd5b806384a33e63146104675780638980f11f146104875780638bb9c5bf146104a757806391d14854146104c757600080fd5b80634ebb79161161019557806369cff80d1161016457806369cff80d146103dd5780636abbe0c8146103f35780636b453c1f146104275780637ae267731461044757600080fd5b80634ebb79161461031d57806357ae3a9f1461033d5780635988f9a5146103895780635a3bb989146103a957600080fd5b8063213cae63116101d1578063213cae6314610265578063248a9ca3146102ab5780632f2ff15d146102db57806336568abe146102fd57600080fd5b806301ffc9a71461020e57806306fdde0314610243578063071bc3c914610265578063126082cf1461028757600080fd5b3661020957005b600080fd5b34801561021a57600080fd5b5061022e6102293660046129b4565b610718565b60405190151581526020015b60405180910390f35b34801561024f57600080fd5b50610258610781565b60405161023a9190612b6f565b34801561027157600080fd5b5061027a61080f565b60405161023a9190612b22565b34801561029357600080fd5b5061029d61271081565b60405190815260200161023a565b3480156102b757600080fd5b5061029d6102c636600461297a565b60009081526020819052604090206001015490565b3480156102e757600080fd5b506102fb6102f6366004612992565b610871565b005b34801561030957600080fd5b506102fb610318366004612992565b61089b565b34801561032957600080fd5b506102fb61033836600461297a565b61092c565b34801561034957600080fd5b506103717f000000000000000000000000000000000000000000000000000000000000000081565b6040516001600160a01b03909116815260200161023a565b34801561039557600080fd5b506102fb6103a4366004612893565b610adf565b3480156103b557600080fd5b506103717f000000000000000000000000000000000000000000000000000000000000000081565b3480156103e957600080fd5b5061029d60015481565b3480156103ff57600080fd5b506103717f000000000000000000000000000000000000000000000000000000000000000081565b34801561043357600080fd5b506102fb61044236600461281e565b610c73565b34801561045357600080fd5b506102fb610462366004612838565b610ca0565b34801561047357600080fd5b506102fb61048236600461297a565b610d44565b34801561049357600080fd5b506102fb6104a236600461286a565b610e5e565b3480156104b357600080fd5b506102fb6104c236600461297a565b610f8c565b3480156104d357600080fd5b5061022e6104e2366004612992565b6000918252602082815260408084206001600160a01b0393909316845291905290205460ff1690565b34801561051757600080fd5b5061029d6c0c9f2c9cd04674edea4000000081565b34801561053857600080fd5b5061029d600081565b34801561054d57600080fd5b506103717f000000000000000000000000000000000000000000000000000000000000000081565b34801561058157600080fd5b506103717f000000000000000000000000000000000000000000000000000000000000000081565b3480156105b557600080fd5b506102fb6105c4366004612992565b610f97565b3480156105d557600080fd5b506102fb6105e436600461281e565b610fbc565b3480156105f557600080fd5b506102fb610604366004612a2f565b610fe6565b34801561061557600080fd5b5061029d6106243660046129f4565b611448565b34801561063557600080fd5b507f0000000000000000000000000000000000000000000000000000000000000000610371565b34801561066857600080fd5b506102fb61067736600461281e565b61145d565b34801561068857600080fd5b5061029d7f339759585899103d2ace64958e37e18ccb0504652c81d4a1b8aa80fe2126ab9581565b3480156106bc57600080fd5b506103717f000000000000000000000000000000000000000000000000000000000000000081565b3480156106f057600080fd5b506103717f000000000000000000000000000000000000000000000000000000000000000081565b60006001600160e01b031982167f7965db0b00000000000000000000000000000000000000000000000000000000148061077b57507f01ffc9a7000000000000000000000000000000000000000000000000000000006001600160e01b03198316145b92915050565b6002805461078e90612c53565b80601f01602080910402602001604051908101604052809291908181526020018280546107ba90612c53565b80156108075780601f106107dc57610100808354040283529160200191610807565b820191906000526020600020905b8154815290600101906020018083116107ea57829003601f168201915b505050505081565b6060600480548060200260200160405190810160405280929190818152602001828054801561086757602002820191906000526020600020905b81546001600160a01b03168152600190910190602001808311610849575b5050505050905090565b60008281526020819052604090206001015461088c81611474565b610896838361147e565b505050565b6001600160a01b038116331461091e5760405162461bcd60e51b815260206004820152602f60248201527f416363657373436f6e74726f6c3a2063616e206f6e6c792072656e6f756e636560448201527f20726f6c657320666f722073656c66000000000000000000000000000000000060648201526084015b60405180910390fd5b610928828261151c565b5050565b3360008181527fa54247010af6b3693b80aceddfad12e077c5de3571e6243fada502635f0d7d39602052604090205460ff166109bb5760405162461bcd60e51b815260206004820152602860248201527f4d61696e7461696e61626c653a2043616c6c6572206973206e6f742061206d6160448201526734b73a30b4b732b960c11b6064820152608401610915565b60008211610a0b5760405162461bcd60e51b815260206004820152601e60248201527f59616b416461707465723a204e6f7468696e6720746f207265636f76657200006044820152606401610915565b604051600090339084908381818185875af1925050503d8060008114610a4d576040519150601f19603f3d011682016040523d82523d6000602084013e610a52565b606091505b5050905080610aa35760405162461bcd60e51b815260206004820152601060248201527f5472616e73666572206661696c65642e000000000000000000000000000000006044820152606401610915565b6040518381526000907f8c1256b8896378cd5044f80c202f9772b9d77dc85c8a6eb51967210b09bfaa28906020015b60405180910390a2505050565b3360008181527fa54247010af6b3693b80aceddfad12e077c5de3571e6243fada502635f0d7d39602052604090205460ff16610b6e5760405162461bcd60e51b815260206004820152602860248201527f4d61696e7461696e61626c653a2043616c6c6572206973206e6f742061206d6160448201526734b73a30b4b732b960c11b6064820152608401610915565b60005b600454811015610be85760006003600060048481548110610ba257634e487b7160e01b600052603260045260246000fd5b6000918252602080832091909101546001600160a01b031683528201929092526040019020805460ff191691151591909117905580610be081612c8e565b915050610b71565b508151610bfc906004906020850190612770565b5060005b825181101561089657600160036000858481518110610c2f57634e487b7160e01b600052603260045260246000fd5b6020908102919091018101516001600160a01b03168252810191909152604001600020805460ff191691151591909117905580610c6b81612c8e565b915050610c00565b610c9d7f339759585899103d2ace64958e37e18ccb0504652c81d4a1b8aa80fe2126ab9582610871565b50565b3360008181527fa54247010af6b3693b80aceddfad12e077c5de3571e6243fada502635f0d7d39602052604090205460ff16610d2f5760405162461bcd60e51b815260206004820152602860248201527f4d61696e7461696e61626c653a2043616c6c6572206973206e6f742061206d6160448201526734b73a30b4b732b960c11b6064820152608401610915565b6108966001600160a01b03841683600061159b565b3360008181527fa54247010af6b3693b80aceddfad12e077c5de3571e6243fada502635f0d7d39602052604090205460ff16610dd35760405162461bcd60e51b815260206004820152602860248201527f4d61696e7461696e61626c653a2043616c6c6572206973206e6f742061206d6160448201526734b73a30b4b732b960c11b6064820152608401610915565b81610e205760405162461bcd60e51b815260206004820152601460248201527f496e76616c6964206761732d657374696d6174650000000000000000000000006044820152606401610915565b600182905560405182815230907ff43f23b7a28e6f8ce6843a21bd7b48bce778aa913b8c8cf459edf7d770e8d38a9060200160405180910390a25050565b3360008181527fa54247010af6b3693b80aceddfad12e077c5de3571e6243fada502635f0d7d39602052604090205460ff16610eed5760405162461bcd60e51b815260206004820152602860248201527f4d61696e7461696e61626c653a2043616c6c6572206973206e6f742061206d6160448201526734b73a30b4b732b960c11b6064820152608401610915565b60008211610f3d5760405162461bcd60e51b815260206004820152601e60248201527f59616b416461707465723a204e6f7468696e6720746f207265636f76657200006044820152606401610915565b610f516001600160a01b0384163384611727565b826001600160a01b03167f8c1256b8896378cd5044f80c202f9772b9d77dc85c8a6eb51967210b09bfaa2883604051610ad291815260200190565b33610928828261089b565b600082815260208190526040902060010154610fb281611474565b610896838361151c565b610c9d7f339759585899103d2ace64958e37e18ccb0504652c81d4a1b8aa80fe2126ab9582610f97565b6040516370a0823160e01b81526001600160a01b038281166004830152600091908416906370a082319060240160206040518083038186803b15801561102b57600080fd5b505afa15801561103f573d6000803e3d6000fd5b505050506040513d601f19601f8201168201806040525081019061106391906129dc565b90507f00000000000000000000000000000000000000000000000000000000000000006001600160a01b0316836001600160a01b031614156112435760405163095ea7b360e01b81526001600160a01b037f0000000000000000000000000000000000000000000000000000000000000000811660048301526024820188905285169063095ea7b390604401602060405180830381600087803b15801561110957600080fd5b505af115801561111d573d6000803e3d6000fd5b505050506040513d601f19601f82011682018060405250810190611141919061295a565b506040517f364e23110000000000000000000000000000000000000000000000000000000081526001600160a01b0385811660048301526024820188905260006044830181905260648301889052917f00000000000000000000000000000000000000000000000000000000000000009091169063364e231190608401602060405180830381600087803b1580156111d857600080fd5b505af11580156111ec573d6000803e3d6000fd5b505050506040513d601f19601f8201168201806040525081019061121091906129dc565b905061123d7f00000000000000000000000000000000000000000000000000000000000000008285611770565b5061130f565b6040517f0f3aa5540000000000000000000000000000000000000000000000000000000081526001600160a01b038481166004830152602482018890526044820187905283811660648301527f00000000000000000000000000000000000000000000000000000000000000001690630f3aa55490608401602060405180830381600087803b1580156112d557600080fd5b505af11580156112e9573d6000803e3d6000fd5b505050506040513d601f19601f8201168201806040525081019061130d91906129dc565b505b6040516370a0823160e01b81526001600160a01b03838116600483015260009183918616906370a082319060240160206040518083038186803b15801561135557600080fd5b505afa158015611369573d6000803e3d6000fd5b505050506040513d601f19601f8201168201806040525081019061138d91906129dc565b6113979190612bf9565b9050858110156113e95760405162461bcd60e51b815260206004820152601760248201527f496e73756666696369656e7420616d6f756e742d6f75740000000000000000006044820152606401610915565b836001600160a01b0316856001600160a01b03167fe2bdbc6b7225eb0a972ac943c485a6cc05f7c6811838bce8903f23200fb744fa8989604051611437929190918252602082015260400190565b60405180910390a350505050505050565b6000611455848484611794565b949350505050565b33611469600083610871565b61092860008261089b565b610c9d81336117e8565b6000828152602081815260408083206001600160a01b038516845290915290205460ff16610928576000828152602081815260408083206001600160a01b03851684529091529020805460ff191660011790556114d83390565b6001600160a01b0316816001600160a01b0316837f2f8788117e7eff1d82e926ec794901d17c78024a50270940304540a733656f0d60405160405180910390a45050565b6000828152602081815260408083206001600160a01b038516845290915290205460ff1615610928576000828152602081815260408083206001600160a01b0385168085529252808320805460ff1916905551339285917ff6391f5c32d9c69d2a47ea670b442974b53935d1edc7fd64eb21e047a839171b9190a45050565b80158061163d57506040517fdd62ed3e0000000000000000000000000000000000000000000000000000000081523060048201526001600160a01b03838116602483015284169063dd62ed3e9060440160206040518083038186803b15801561160357600080fd5b505afa158015611617573d6000803e3d6000fd5b505050506040513d601f19601f8201168201806040525081019061163b91906129dc565b155b6116af5760405162461bcd60e51b815260206004820152603660248201527f5361666545524332303a20617070726f76652066726f6d206e6f6e2d7a65726f60448201527f20746f206e6f6e2d7a65726f20616c6c6f77616e6365000000000000000000006064820152608401610915565b6040516001600160a01b03831660248201526044810182905261089690849063095ea7b360e01b906064015b60408051601f198184030181529190526020810180517bffffffffffffffffffffffffffffffffffffffffffffffffffffffff166001600160e01b031990931692909217909152611866565b6040516001600160a01b0383166024820152604481018290526108969084907fa9059cbb00000000000000000000000000000000000000000000000000000000906064016116db565b306001600160a01b03821614610896576108966001600160a01b0384168284611727565b60007f00000000000000000000000000000000000000000000000000000000000000006001600160a01b0316826001600160a01b0316146117de576117d982856119a8565b611455565b6114558385611bef565b6000828152602081815260408083206001600160a01b038516845290915290205460ff1661092857611824816001600160a01b03166014611e17565b61182f836020611e17565b604051602001611840929190612aa1565b60408051601f198184030181529082905262461bcd60e51b825261091591600401612b6f565b600080836001600160a01b0316836040516118819190612a85565b6000604051808303816000865af19150503d80600081146118be576040519150601f19603f3d011682016040523d82523d6000602084013e6118c3565b606091505b5091509150816119155760405162461bcd60e51b815260206004820181905260248201527f5361666545524332303a206c6f772d6c6576656c2063616c6c206661696c65646044820152606401610915565b8051156119a25780806020019051810190611930919061295a565b6119a25760405162461bcd60e51b815260206004820152602a60248201527f5361666545524332303a204552433230206f7065726174696f6e20646964206e60448201527f6f742073756363656564000000000000000000000000000000000000000000006064820152608401610915565b50505050565b604051630345051f60e51b81526000600482018190529081906001600160a01b037f000000000000000000000000000000000000000000000000000000000000000016906368a0a3e09060240160206040518083038186803b158015611a0d57600080fd5b505afa158015611a21573d6000803e3d6000fd5b505050506040513d601f19601f82011682018060405250810190611a4591906129dc565b905060007f00000000000000000000000000000000000000000000000000000000000000006001600160a01b03166318160ddd6040518163ffffffff1660e01b815260040160206040518083038186803b158015611aa257600080fd5b505afa158015611ab6573d6000803e3d6000fd5b505050506040513d601f19601f82011682018060405250810190611ada91906129dc565b9050600081611ae98487612bda565b611af39190612bba565b6040517f2c668ec10000000000000000000000000000000000000000000000000000000081526001600160a01b038881166004830152602482018390529192506000917f00000000000000000000000000000000000000000000000000000000000000001690632c668ec19060440160206040518083038186803b158015611b7a57600080fd5b505afa158015611b8e573d6000803e3d6000fd5b505050506040513d601f19601f82011682018060405250810190611bb291906129dc565b90506000611bc08884612045565b9050612710611bcf8282612bf9565b611bd99084612bda565b611be39190612bba565b98975050505050505050565b604051630345051f60e51b81526001600482015260009081906001600160a01b037f000000000000000000000000000000000000000000000000000000000000000016906368a0a3e09060240160206040518083038186803b158015611c5457600080fd5b505afa158015611c68573d6000803e3d6000fd5b505050506040513d601f19601f82011682018060405250810190611c8c91906129dc565b905060007f00000000000000000000000000000000000000000000000000000000000000006001600160a01b03166318160ddd6040518163ffffffff1660e01b815260040160206040518083038186803b158015611ce957600080fd5b505afa158015611cfd573d6000803e3d6000fd5b505050506040513d601f19601f82011682018060405250810190611d2191906129dc565b6040517f81a612d60000000000000000000000000000000000000000000000000000000081526001600160a01b0387811660048301529192506000917f000000000000000000000000000000000000000000000000000000000000000016906381a612d69060240160206040518083038186803b158015611da157600080fd5b505afa158015611db5573d6000803e3d6000fd5b505050506040513d601f19601f82011682018060405250810190611dd991906129dc565b90506000611de88683896124a0565b90508315611e0a5783611dfb8483612bda565b611e059190612bba565b611e0c565b805b979650505050505050565b60606000611e26836002612bda565b611e31906002612ba2565b67ffffffffffffffff811115611e5757634e487b7160e01b600052604160045260246000fd5b6040519080825280601f01601f191660200182016040528015611e81576020820181803683370190505b5090507f300000000000000000000000000000000000000000000000000000000000000081600081518110611ec657634e487b7160e01b600052603260045260246000fd5b60200101906001600160f81b031916908160001a9053507f780000000000000000000000000000000000000000000000000000000000000081600181518110611f1f57634e487b7160e01b600052603260045260246000fd5b60200101906001600160f81b031916908160001a9053506000611f43846002612bda565b611f4e906001612ba2565b90505b6001811115611fef577f303132333435363738396162636465660000000000000000000000000000000085600f1660108110611f9d57634e487b7160e01b600052603260045260246000fd5b1a60f81b828281518110611fc157634e487b7160e01b600052603260045260246000fd5b60200101906001600160f81b031916908160001a90535060049490941c93611fe881612c3c565b9050611f51565b50831561203e5760405162461bcd60e51b815260206004820181905260248201527f537472696e67733a20686578206c656e67746820696e73756666696369656e746044820152606401610915565b9392505050565b6000807f00000000000000000000000000000000000000000000000000000000000000006001600160a01b0316634d47b3046040518163ffffffff1660e01b815260040160206040518083038186803b1580156120a157600080fd5b505afa1580156120b5573d6000803e3d6000fd5b505050506040513d601f19601f820116820180604052508101906120d991906129dc565b905060007f00000000000000000000000000000000000000000000000000000000000000006001600160a01b0316637a210a2b6040518163ffffffff1660e01b815260040160206040518083038186803b15801561213657600080fd5b505afa15801561214a573d6000803e3d6000fd5b505050506040513d601f19601f8201168201806040525081019061216e91906129dc565b90507f00000000000000000000000000000000000000000000000000000000000000006001600160a01b0316639f392eb36040518163ffffffff1660e01b815260040160206040518083038186803b1580156121c957600080fd5b505afa1580156121dd573d6000803e3d6000fd5b505050506040513d601f19601f82011682018060405250810190612201919061295a565b61220d5750905061077b565b6040517f1aa4ace50000000000000000000000000000000000000000000000000000000081526001600160a01b03868116600483015260009186917f00000000000000000000000000000000000000000000000000000000000000001690631aa4ace59060240160206040518083038186803b15801561228c57600080fd5b505afa1580156122a0573d6000803e3d6000fd5b505050506040513d601f19601f820116820180604052508101906122c491906129dc565b6122ce9190612bf9565b905060008186116122e8576122e38683612bf9565b6122eb565b60005b6040517f3a05dcc10000000000000000000000000000000000000000000000000000000081526001600160a01b0389811660048301529192506000917f00000000000000000000000000000000000000000000000000000000000000001690633a05dcc19060240160206040518083038186803b15801561236b57600080fd5b505afa15801561237f573d6000803e3d6000fd5b505050506040513d601f19601f820116820180604052508101906123a391906129dc565b9050806123b757849550505050505061077b565b60008184116123cf576123ca8483612bf9565b6123d9565b6123d98285612bf9565b905060008284116123f3576123ee8484612bf9565b6123fd565b6123fd8385612bf9565b905081811015612448576000836124148489612bda565b61241e9190612bba565b9050878111612436576124318189612bf9565b612439565b60005b9850505050505050505061077b565b600060026124568385612ba2565b6124609190612bba565b90508381111561246d5750825b60008461247a838a612bda565b6124849190612bba565b9050612490818a612ba2565b9c9b505050505050505050505050565b60006c0c9f2c9cd04674edea400000006124ba8486612bda565b6124c49190612bba565b604051634215287360e01b8152600481018290526001600160a01b0384811660248301527f0000000000000000000000000000000000000000000000000000000000000000811660448301529192507f00000000000000000000000000000000000000000000000000000000000000009091169063421528739060640160206040518083038186803b15801561255957600080fd5b505afa15801561256d573d6000803e3d6000fd5b505050506040513d601f19601f8201168201806040525081019061259191906129dc565b6040517f4adeddc60000000000000000000000000000000000000000000000000000000081526001600160a01b038481166004830152602482018390529192506000917f00000000000000000000000000000000000000000000000000000000000000001690634adeddc69060440160206040518083038186803b15801561261857600080fd5b505afa15801561262c573d6000803e3d6000fd5b505050506040513d601f19601f8201168201806040525081019061265091906129dc565b905060006127106126618382612bf9565b61266b9088612bda565b6126759190612bba565b90506c0c9f2c9cd04674edea4000000061268f8683612bda565b6126999190612bba565b604051634215287360e01b8152600481018290526001600160a01b0386811660248301527f0000000000000000000000000000000000000000000000000000000000000000811660448301529194507f00000000000000000000000000000000000000000000000000000000000000009091169063421528739060640160206040518083038186803b15801561272e57600080fd5b505afa158015612742573d6000803e3d6000fd5b505050506040513d601f19601f8201168201806040525081019061276691906129dc565b9695505050505050565b8280548282559060005260206000209081019282156127dd579160200282015b828111156127dd57825182547fffffffffffffffffffffffff0000000000000000000000000000000000000000166001600160a01b03909116178255602090920191600190910190612790565b506127e99291506127ed565b5090565b5b808211156127e957600081556001016127ee565b80356001600160a01b038116811461281957600080fd5b919050565b60006020828403121561282f578081fd5b61203e82612802565b6000806040838503121561284a578081fd5b61285383612802565b915061286160208401612802565b90509250929050565b6000806040838503121561287c578182fd5b61288583612802565b946020939093013593505050565b600060208083850312156128a5578182fd5b823567ffffffffffffffff808211156128bc578384fd5b818501915085601f8301126128cf578384fd5b8135818111156128e1576128e1612cbf565b8060051b604051601f19603f8301168101818110858211171561290657612906612cbf565b604052828152858101935084860182860187018a1015612924578788fd5b8795505b8386101561294d5761293981612802565b855260019590950194938601938601612928565b5098975050505050505050565b60006020828403121561296b578081fd5b8151801515811461203e578182fd5b60006020828403121561298b578081fd5b5035919050565b600080604083850312156129a4578182fd5b8235915061286160208401612802565b6000602082840312156129c5578081fd5b81356001600160e01b03198116811461203e578182fd5b6000602082840312156129ed578081fd5b5051919050565b600080600060608486031215612a08578081fd5b83359250612a1860208501612802565b9150612a2660408501612802565b90509250925092565b600080600080600060a08688031215612a46578081fd5b8535945060208601359350612a5d60408701612802565b9250612a6b60608701612802565b9150612a7960808701612802565b90509295509295909350565b60008251612a97818460208701612c10565b9190910192915050565b7f416363657373436f6e74726f6c3a206163636f756e7420000000000000000000815260008351612ad9816017850160208801612c10565b7f206973206d697373696e6720726f6c65200000000000000000000000000000006017918401918201528351612b16816028840160208801612c10565b01602801949350505050565b6020808252825182820181905260009190848201906040850190845b81811015612b635783516001600160a01b031683529284019291840191600101612b3e565b50909695505050505050565b6020815260008251806020840152612b8e816040850160208701612c10565b601f01601f19169190910160400192915050565b60008219821115612bb557612bb5612ca9565b500190565b600082612bd557634e487b7160e01b81526012600452602481fd5b500490565b6000816000190483118215151615612bf457612bf4612ca9565b500290565b600082821015612c0b57612c0b612ca9565b500390565b60005b83811015612c2b578181015183820152602001612c13565b838111156119a25750506000910152565b600081612c4b57612c4b612ca9565b506000190190565b600181811c90821680612c6757607f821691505b60208210811415612c8857634e487b7160e01b600052602260045260246000fd5b50919050565b6000600019821415612ca257612ca2612ca9565b5060010190565b634e487b7160e01b600052601160045260246000fd5b634e487b7160e01b600052604160045260246000fdfea26469706673582212203a019ac15405f6f8182586a2b1326befd6419467be580621dec67070d5c8d04c64736f6c63430008040033",
  "devdoc": {
    "kind": "dev",
    "methods": {
      "getRoleAdmin(bytes32)": {
        "details": "Returns the admin role that controls `role`. See {grantRole} and {revokeRole}. To change a role's admin, use {_setRoleAdmin}."
      },
      "grantRole(bytes32,address)": {
        "details": "Grants `role` to `account`. If `account` had not been already granted `role`, emits a {RoleGranted} event. Requirements: - the caller must have ``role``'s admin role. May emit a {RoleGranted} event."
      },
      "hasRole(bytes32,address)": {
        "details": "Returns `true` if `account` has been granted `role`."
      },
      "renounceRole(bytes32,address)": {
        "details": "Revokes `role` from the calling account. Roles are often managed via {grantRole} and {revokeRole}: this function's purpose is to provide a mechanism for accounts to lose their privileges if they are compromised (such as when a trusted device is misplaced). If the calling account had been revoked `role`, emits a {RoleRevoked} event. Requirements: - the caller must be `account`. May emit a {RoleRevoked} event."
      },
      "revokeRole(bytes32,address)": {
        "details": "Revokes `role` from `account`. If `account` had been granted `role`, emits a {RoleRevoked} event. Requirements: - the caller must have ``role``'s admin role. May emit a {RoleRevoked} event."
      },
      "supportsInterface(bytes4)": {
        "details": "See {IERC165-supportsInterface}."
      }
    },
    "version": 1
  },
  "userdoc": {
    "kind": "user",
    "methods": {},
    "version": 1
  },
  "storageLayout": {
    "storage": [
      {
        "astId": 24,
        "contract": "src/contracts/wrappers/GlpWrapper.sol:GlpWrapper",
        "label": "_roles",
        "offset": 0,
        "slot": "0",
        "type": "t_mapping(t_bytes32,t_struct(RoleData)19_storage)"
      },
      {
        "astId": 718,
        "contract": "src/contracts/wrappers/GlpWrapper.sol:GlpWrapper",
        "label": "swapGasEstimate",
        "offset": 0,
        "slot": "1",
        "type": "t_uint256"
      },
      {
        "astId": 720,
        "contract": "src/contracts/wrappers/GlpWrapper.sol:GlpWrapper",
        "label": "name",
        "offset": 0,
        "slot": "2",
        "type": "t_string_storage"
      },
      {
        "astId": 1726,
        "contract": "src/contracts/wrappers/GlpWrapper.sol:GlpWrapper",
        "label": "isWhitelisted",
        "offset": 0,
        "slot": "3",
        "type": "t_mapping(t_address,t_bool)"
      },
      {
        "astId": 1729,
        "contract": "src/contracts/wrappers/GlpWrapper.sol:GlpWrapper",
        "label": "whitelistedTokens",
        "offset": 0,
        "slot": "4",
        "type": "t_array(t_address)dyn_storage"
      }
    ],
    "types": {
      "t_address": {
        "encoding": "inplace",
        "label": "address",
        "numberOfBytes": "20"
      },
      "t_array(t_address)dyn_storage": {
        "base": "t_address",
        "encoding": "dynamic_array",
        "label": "address[]",
        "numberOfBytes": "32"
      },
      "t_bool": {
        "encoding": "inplace",
        "label": "bool",
        "numberOfBytes": "1"
      },
      "t_bytes32": {
        "encoding": "inplace",
        "label": "bytes32",
        "numberOfBytes": "32"
      },
      "t_mapping(t_address,t_bool)": {
        "encoding": "mapping",
        "key": "t_address",
        "label": "mapping(address => bool)",
        "numberOfBytes": "32",
        "value": "t_bool"
      },
      "t_mapping(t_bytes32,t_struct(RoleData)19_storage)": {
        "encoding": "mapping",
        "key": "t_bytes32",
        "label": "mapping(bytes32 => struct AccessControl.RoleData)",
        "numberOfBytes": "32",
        "value": "t_struct(RoleData)19_storage"
      },
      "t_string_storage": {
        "encoding": "bytes",
        "label": "string",
        "numberOfBytes": "32"
      },
      "t_struct(RoleData)19_storage": {
        "encoding": "inplace",
        "label": "struct AccessControl.RoleData",
        "members": [
          {
            "astId": 16,
            "contract": "src/contracts/wrappers/GlpWrapper.sol:GlpWrapper",
            "label": "members",
            "offset": 0,
            "slot": "0",
            "type": "t_mapping(t_address,t_bool)"
          },
          {
            "astId": 18,
            "contract": "src/contracts/wrappers/GlpWrapper.sol:GlpWrapper",
            "label": "adminRole",
            "offset": 0,
            "slot": "1",
            "type": "t_bytes32"
          }
        ],
        "numberOfBytes": "64"
      },
      "t_uint256": {
        "encoding": "inplace",
        "label": "uint256",
        "numberOfBytes": "32"
      }
    }
  }
}