{
  "address": "0x78cA6aB867664caE279fBF0c1099f743D200D5C5",
  "abi": [
    {
      "inputs": [
        {
          "internalType": "string",
          "name": "_name",
          "type": "string"
        },
        {
          "internalType": "address[]",
          "name": "_pools",
          "type": "address[]"
        },
        {
          "internalType": "uint256",
          "name": "_swapGasEstimate",
          "type": "uint256"
        }
      ],
      "stateMutability": "nonpayable",
      "type": "constructor"
    },
    {
      "anonymous": false,
      "inputs": [
        {
          "indexed": true,
          "internalType": "address",
          "name": "previousOwner",
          "type": "address"
        },
        {
          "indexed": true,
          "internalType": "address",
          "name": "newOwner",
          "type": "address"
        }
      ],
      "name": "OwnershipTransferred",
      "type": "event"
    },
    {
      "anonymous": false,
      "inputs": [
        {
          "indexed": true,
          "internalType": "address",
          "name": "_asset",
          "type": "address"
        },
        {
          "indexed": false,
          "internalType": "uint256",
          "name": "amount",
          "type": "uint256"
        }
      ],
      "name": "Recovered",
      "type": "event"
    },
    {
      "anonymous": false,
      "inputs": [
        {
          "indexed": true,
          "internalType": "address",
          "name": "_adapter",
          "type": "address"
        },
        {
          "indexed": false,
          "internalType": "uint256",
          "name": "_newEstimate",
          "type": "uint256"
        }
      ],
      "name": "UpdatedGasEstimate",
      "type": "event"
    },
    {
      "anonymous": false,
      "inputs": [
        {
          "indexed": true,
          "internalType": "address",
          "name": "_tokenFrom",
          "type": "address"
        },
        {
          "indexed": true,
          "internalType": "address",
          "name": "_tokenTo",
          "type": "address"
        },
        {
          "indexed": false,
          "internalType": "uint256",
          "name": "_amountIn",
          "type": "uint256"
        },
        {
          "indexed": false,
          "internalType": "uint256",
          "name": "_amountOut",
          "type": "uint256"
        }
      ],
      "name": "YakAdapterSwap",
      "type": "event"
    },
    {
      "inputs": [],
      "name": "ID",
      "outputs": [
        {
          "internalType": "bytes32",
          "name": "",
          "type": "bytes32"
        }
      ],
      "stateMutability": "view",
      "type": "function"
    },
    {
      "inputs": [],
      "name": "PRECISION",
      "outputs": [
        {
          "internalType": "uint256",
          "name": "",
          "type": "uint256"
        }
      ],
      "stateMutability": "view",
      "type": "function"
    },
    {
      "inputs": [
        {
          "internalType": "address[]",
          "name": "_pools",
          "type": "address[]"
        }
      ],
      "name": "addPools",
      "outputs": [],
      "stateMutability": "nonpayable",
      "type": "function"
    },
    {
      "inputs": [
        {
          "internalType": "address",
          "name": "tkn0",
          "type": "address"
        },
        {
          "internalType": "address",
          "name": "tkn1",
          "type": "address"
        }
      ],
      "name": "getPool",
      "outputs": [
        {
          "internalType": "address",
          "name": "",
          "type": "address"
        }
      ],
      "stateMutability": "view",
      "type": "function"
    },
    {
      "inputs": [],
      "name": "name",
      "outputs": [
        {
          "internalType": "string",
          "name": "",
          "type": "string"
        }
      ],
      "stateMutability": "view",
      "type": "function"
    },
    {
      "inputs": [],
      "name": "owner",
      "outputs": [
        {
          "internalType": "address",
          "name": "",
          "type": "address"
        }
      ],
      "stateMutability": "view",
      "type": "function"
    },
    {
      "inputs": [
        {
          "internalType": "uint256",
          "name": "_amountIn",
          "type": "uint256"
        },
        {
          "internalType": "address",
          "name": "_tokenIn",
          "type": "address"
        },
        {
          "internalType": "address",
          "name": "_tokenOut",
          "type": "address"
        }
      ],
      "name": "query",
      "outputs": [
        {
          "internalType": "uint256",
          "name": "",
          "type": "uint256"
        }
      ],
      "stateMutability": "view",
      "type": "function"
    },
    {
      "inputs": [
        {
          "internalType": "uint256",
          "name": "_amount",
          "type": "uint256"
        }
      ],
      "name": "recoverAVAX",
      "outputs": [],
      "stateMutability": "nonpayable",
      "type": "function"
    },
    {
      "inputs": [
        {
          "internalType": "address",
          "name": "_tokenAddress",
          "type": "address"
        },
        {
          "internalType": "uint256",
          "name": "_tokenAmount",
          "type": "uint256"
        }
      ],
      "name": "recoverERC20",
      "outputs": [],
      "stateMutability": "nonpayable",
      "type": "function"
    },
    {
      "inputs": [
        {
          "internalType": "address[]",
          "name": "_pools",
          "type": "address[]"
        }
      ],
      "name": "removePools",
      "outputs": [],
      "stateMutability": "nonpayable",
      "type": "function"
    },
    {
      "inputs": [],
      "name": "renounceOwnership",
      "outputs": [],
      "stateMutability": "nonpayable",
      "type": "function"
    },
    {
      "inputs": [
        {
          "internalType": "address",
          "name": "_token",
          "type": "address"
        },
        {
          "internalType": "address",
          "name": "_spender",
          "type": "address"
        }
      ],
      "name": "revokeAllowance",
      "outputs": [],
      "stateMutability": "nonpayable",
      "type": "function"
    },
    {
      "inputs": [],
      "name": "setAllowances",
      "outputs": [],
      "stateMutability": "nonpayable",
      "type": "function"
    },
    {
      "inputs": [
        {
          "internalType": "uint256",
          "name": "_estimate",
          "type": "uint256"
        }
      ],
      "name": "setSwapGasEstimate",
      "outputs": [],
      "stateMutability": "nonpayable",
      "type": "function"
    },
    {
      "inputs": [
        {
          "internalType": "uint256",
          "name": "_amountIn",
          "type": "uint256"
        },
        {
          "internalType": "uint256",
          "name": "_amountOut",
          "type": "uint256"
        },
        {
          "internalType": "address",
          "name": "_fromToken",
          "type": "address"
        },
        {
          "internalType": "address",
          "name": "_toToken",
          "type": "address"
        },
        {
          "internalType": "address",
          "name": "_to",
          "type": "address"
        }
      ],
      "name": "swap",
      "outputs": [],
      "stateMutability": "nonpayable",
      "type": "function"
    },
    {
      "inputs": [],
      "name": "swapGasEstimate",
      "outputs": [
        {
          "internalType": "uint256",
          "name": "",
          "type": "uint256"
        }
      ],
      "stateMutability": "view",
      "type": "function"
    },
    {
      "inputs": [
        {
          "internalType": "address",
          "name": "newOwner",
          "type": "address"
        }
      ],
      "name": "transferOwnership",
      "outputs": [],
      "stateMutability": "nonpayable",
      "type": "function"
    },
    {
      "stateMutability": "payable",
      "type": "receive"
    }
  ],
  "transactionHash": "0x1e0652121d5729c7378d06d9abdda128813bba01632de7093791d593bc606e61",
  "args": [
    "KyberAdapter",
    [
      "0xe1dad9e06380bc8962e259ddd6a5257a4f56d525",
      "0x5f1b43d6056898c1573026955a2516ee5329630b",
      "0x85659e7f611add6c0cc95c90249d9db54071ca2e",
      "0x44d1b2974b3b8ce93b261f6d15dce5ad57f8933b",
      "0x0f0fc5a5029e3d155708356b422d22cc29f8b3d4",
      "0xb34068e28a7853123afafc936c972123eb9895a2",
      "0x535a99a079d64b8c3f4cc264eba70d82992b224b"
    ],
    182000
  ],
  "solcInputHash": "4320d71078ad01ad4c61c76d0ef751e0",
  "bytecode": "0x60806040523480156200001157600080fd5b50604051620023b5380380620023b5833981810160405260608110156200003757600080fd5b81019080805160405193929190846401000000008211156200005857600080fd5b9083019060208201858111156200006e57600080fd5b82516401000000008111828201881017156200008957600080fd5b82525081516020918201929091019080838360005b83811015620000b85781810151838201526020016200009e565b50505050905090810190601f168015620000e65780820380516001836020036101000a031916815260200191505b50604052602001805160405193929190846401000000008211156200010a57600080fd5b9083019060208201858111156200012057600080fd5b82518660208202830111640100000000821117156200013e57600080fd5b82525081516020918201928201910280838360005b838110156200016d57818101518382015260200162000153565b505050509190910160405250602001519150600090506200018d62000216565b600080546001600160a01b0319166001600160a01b0383169081178255604051929350917f8be0079c531659141344cd1fd0a4f28419497f9722a3daafe3b4186f6b6457e0908290a3508251620001ec90600290602086019062000778565b50620001f8816200021a565b6200020382620002c0565b6200020d620004f0565b505050620009b1565b3390565b6200022462000216565b6001600160a01b03166200023762000589565b6001600160a01b03161462000282576040805162461bcd60e51b8152602060048201819052602482015260008051602062002395833981519152604482015290519081900360640190fd5b600181905560408051828152905130917ff43f23b7a28e6f8ce6843a21bd7b48bce778aa913b8c8cf459edf7d770e8d38a919081900360200190a250565b620002ca62000216565b6001600160a01b0316620002dd62000589565b6001600160a01b03161462000328576040805162461bcd60e51b8152602060048201819052602482015260008051602062002395833981519152604482015290519081900360640190fd5b60005b8151811015620004ec5760008282815181106200034457fe5b60200260200101516001600160a01b0316630dfe16816040518163ffffffff1660e01b815260040160206040518083038186803b1580156200038557600080fd5b505afa1580156200039a573d6000803e3d6000fd5b505050506040513d6020811015620003b157600080fd5b50518351909150600090849084908110620003c857fe5b60200260200101516001600160a01b031663d21220a76040518163ffffffff1660e01b815260040160206040518083038186803b1580156200040957600080fd5b505afa1580156200041e573d6000803e3d6000fd5b505050506040513d60208110156200043557600080fd5b505184519091508490849081106200044957fe5b6020908102919091018101516001600160a01b03848116600090815260038452604080822086841683529094529290922080546001600160a01b0319169290911691909117905583518490849081106200049f57fe5b6020908102919091018101516001600160a01b03928316600090815260038352604080822095851682529490925292902080546001600160a01b031916919092161790556001016200032b565b5050565b620004fa62000216565b6001600160a01b03166200050d62000589565b6001600160a01b03161462000558576040805162461bcd60e51b8152602060048201819052602482015260008051602062002395833981519152604482015290519081900360640190fd5b6200058773b31f66aa3c1e785363f0875a1b74e27b85fd66c78060001962000598602090811b620010fd17901c565b565b6000546001600160a01b031690565b801580620006275750604051636eb1769f60e11b81526001600160a01b0384169063dd62ed3e90620005d19030908690600401620008a2565b60206040518083038186803b158015620005ea57600080fd5b505afa158015620005ff573d6000803e3d6000fd5b505050506040513d601f19601f820116820180604052508101906200062591906200084d565b155b6200064f5760405162461bcd60e51b8152600401620006469062000954565b60405180910390fd5b620006aa8363095ea7b360e01b848460405160240162000671929190620008bc565b60408051808303601f190181529190526020810180516001600160e01b0319939093166001600160e01b0393841617905290620006af16565b505050565b600080836001600160a01b031683604051620006cc919062000866565b6000604051808303816000865af19150503d80600081146200070b576040519150601f19603f3d011682016040523d82523d6000602084013e62000710565b606091505b509150915081620007355760405162461bcd60e51b81526004016200064690620008d5565b80511562000772578080602001905181019062000753919062000824565b620007725760405162461bcd60e51b815260040162000646906200090a565b50505050565b828054600181600116156101000203166002900490600052602060002090601f016020900481019282620007b05760008555620007fb565b82601f10620007cb57805160ff1916838001178555620007fb565b82800160010185558215620007fb579182015b82811115620007fb578251825591602001919060010190620007de565b50620008099291506200080d565b5090565b5b808211156200080957600081556001016200080e565b60006020828403121562000836578081fd5b8151801515811462000846578182fd5b9392505050565b6000602082840312156200085f578081fd5b5051919050565b60008251815b818110156200088857602081860181015185830152016200086c565b81811115620008975782828501525b509190910192915050565b6001600160a01b0392831681529116602082015260400190565b6001600160a01b03929092168252602082015260400190565b6020808252818101527f5361666545524332303a206c6f772d6c6576656c2063616c6c206661696c6564604082015260600190565b6020808252602a908201527f5361666545524332303a204552433230206f7065726174696f6e20646964206e6040820152691bdd081cdd58d8d9595960b21b606082015260800190565b60208082526036908201527f5361666545524332303a20617070726f76652066726f6d206e6f6e2d7a65726f60408201527f20746f206e6f6e2d7a65726f20616c6c6f77616e636500000000000000000000606082015260800190565b6119d480620009c16000396000f3fe6080604052600436106101125760003560e01c80638980f11f116100a5578063b3cea21711610074578063eab90da611610059578063eab90da6146104b9578063ef99893a1461050a578063f2fde38b1461054b57610119565b8063b3cea2171461048f578063dbd9a4d4146104a457610119565b80638980f11f1461037c5780638da5cb5b146103b5578063aaf5eb68146103ca578063b36a4ab1146103df57610119565b806369cff80d116100e157806369cff80d146102db578063715018a6146103025780637ae267731461031757806384a33e631461035257610119565b806306fdde031461011e5780634b164140146101a85780634ebb79161461025a578063531aa03e1461028457610119565b3661011957005b600080fd5b34801561012a57600080fd5b5061013361057e565b6040805160208082528351818301528351919283929083019185019080838360005b8381101561016d578181015183820152602001610155565b50505050905090810190601f16801561019a5780820380516001836020036101000a031916815260200191505b509250505060405180910390f35b3480156101b457600080fd5b50610258600480360360208110156101cb57600080fd5b8101906020810181356401000000008111156101e657600080fd5b8201836020820111156101f857600080fd5b8035906020019184602083028401116401000000008311171561021a57600080fd5b919080806020026020016040519081016040528093929190818152602001838360200280828437600092019190915250929550610609945050505050565b005b34801561026657600080fd5b506102586004803603602081101561027d57600080fd5b50356107e0565b34801561029057600080fd5b506102bf600480360360408110156102a757600080fd5b506001600160a01b0381358116916020013516610911565b604080516001600160a01b039092168252519081900360200190f35b3480156102e757600080fd5b506102f0610940565b60408051918252519081900360200190f35b34801561030e57600080fd5b50610258610946565b34801561032357600080fd5b506102586004803603604081101561033a57600080fd5b506001600160a01b0381358116916020013516610a04565b34801561035e57600080fd5b506102586004803603602081101561037557600080fd5b5035610a8d565b34801561038857600080fd5b506102586004803603604081101561039f57600080fd5b506001600160a01b038135169060200135610b3f565b3480156103c157600080fd5b506102bf610c5f565b3480156103d657600080fd5b506102f0610c6e565b3480156103eb57600080fd5b506102586004803603602081101561040257600080fd5b81019060208101813564010000000081111561041d57600080fd5b82018360208201111561042f57600080fd5b8035906020019184602083028401116401000000008311171561045157600080fd5b919080806020026020016040519081016040528093929190818152602001838360200280828437600092019190915250929550610c7a945050505050565b34801561049b57600080fd5b506102f0610ea6565b3480156104b057600080fd5b50610258610eca565b3480156104c557600080fd5b50610258600480360360a08110156104dc57600080fd5b508035906020810135906001600160a01b036040820135811691606081013582169160809091013516610f61565b34801561051657600080fd5b506102f06004803603606081101561052d57600080fd5b508035906001600160a01b0360208201358116916040013516610fd2565b34801561055757600080fd5b506102586004803603602081101561056e57600080fd5b50356001600160a01b0316610fe9565b6002805460408051602060018416156101000260001901909316849004601f810184900484028201840190925281815292918301828280156106015780601f106105d657610100808354040283529160200191610601565b820191906000526020600020905b8154815290600101906020018083116105e457829003601f168201915b505050505081565b61061161124b565b6001600160a01b0316610622610c5f565b6001600160a01b03161461067d576040805162461bcd60e51b815260206004820181905260248201527f4f776e61626c653a2043616c6c6572206973206e6f7420746865206f776e6572604482015290519081900360640190fd5b60005b81518110156107dc57600082828151811061069757fe5b60200260200101516001600160a01b0316630dfe16816040518163ffffffff1660e01b815260040160206040518083038186803b1580156106d757600080fd5b505afa1580156106eb573d6000803e3d6000fd5b505050506040513d602081101561070157600080fd5b5051835190915060009084908490811061071757fe5b60200260200101516001600160a01b031663d21220a76040518163ffffffff1660e01b815260040160206040518083038186803b15801561075757600080fd5b505afa15801561076b573d6000803e3d6000fd5b505050506040513d602081101561078157600080fd5b50516001600160a01b03928316600081815260036020818152604080842097909516835295865283822080546001600160a01b0319908116909155908652838220928252919094529220805490921690915550600101610680565b5050565b6107e861124b565b6001600160a01b03166107f9610c5f565b6001600160a01b031614610854576040805162461bcd60e51b815260206004820181905260248201527f4f776e61626c653a2043616c6c6572206973206e6f7420746865206f776e6572604482015290519081900360640190fd5b600081116108a9576040805162461bcd60e51b815260206004820152601e60248201527f59616b416461707465723a204e6f7468696e6720746f207265636f7665720000604482015290519081900360640190fd5b604051339082156108fc029083906000818181858888f193505050501580156108d6573d6000803e3d6000fd5b506040805182815290516000917f8c1256b8896378cd5044f80c202f9772b9d77dc85c8a6eb51967210b09bfaa28919081900360200190a250565b6001600160a01b0380831660009081526003602090815260408083208585168452909152902054165b92915050565b60015481565b61094e61124b565b6001600160a01b031661095f610c5f565b6001600160a01b0316146109ba576040805162461bcd60e51b815260206004820181905260248201527f4f776e61626c653a2043616c6c6572206973206e6f7420746865206f776e6572604482015290519081900360640190fd5b600080546040516001600160a01b03909116907f8be0079c531659141344cd1fd0a4f28419497f9722a3daafe3b4186f6b6457e0908390a3600080546001600160a01b0319169055565b610a0c61124b565b6001600160a01b0316610a1d610c5f565b6001600160a01b031614610a78576040805162461bcd60e51b815260206004820181905260248201527f4f776e61626c653a2043616c6c6572206973206e6f7420746865206f776e6572604482015290519081900360640190fd5b6107dc6001600160a01b0383168260006110fd565b610a9561124b565b6001600160a01b0316610aa6610c5f565b6001600160a01b031614610b01576040805162461bcd60e51b815260206004820181905260248201527f4f776e61626c653a2043616c6c6572206973206e6f7420746865206f776e6572604482015290519081900360640190fd5b600181905560408051828152905130917ff43f23b7a28e6f8ce6843a21bd7b48bce778aa913b8c8cf459edf7d770e8d38a919081900360200190a250565b610b4761124b565b6001600160a01b0316610b58610c5f565b6001600160a01b031614610bb3576040805162461bcd60e51b815260206004820181905260248201527f4f776e61626c653a2043616c6c6572206973206e6f7420746865206f776e6572604482015290519081900360640190fd5b60008111610c08576040805162461bcd60e51b815260206004820152601e60248201527f59616b416461707465723a204e6f7468696e6720746f207265636f7665720000604482015290519081900360640190fd5b610c1c6001600160a01b038316338361124f565b6040805182815290516001600160a01b038416917f8c1256b8896378cd5044f80c202f9772b9d77dc85c8a6eb51967210b09bfaa28919081900360200190a25050565b6000546001600160a01b031690565b670de0b6b3a764000081565b610c8261124b565b6001600160a01b0316610c93610c5f565b6001600160a01b031614610cee576040805162461bcd60e51b815260206004820181905260248201527f4f776e61626c653a2043616c6c6572206973206e6f7420746865206f776e6572604482015290519081900360640190fd5b60005b81518110156107dc576000828281518110610d0857fe5b60200260200101516001600160a01b0316630dfe16816040518163ffffffff1660e01b815260040160206040518083038186803b158015610d4857600080fd5b505afa158015610d5c573d6000803e3d6000fd5b505050506040513d6020811015610d7257600080fd5b50518351909150600090849084908110610d8857fe5b60200260200101516001600160a01b031663d21220a76040518163ffffffff1660e01b815260040160206040518083038186803b158015610dc857600080fd5b505afa158015610ddc573d6000803e3d6000fd5b505050506040513d6020811015610df257600080fd5b50518451909150849084908110610e0557fe5b6020908102919091018101516001600160a01b03848116600090815260038452604080822086841683529094529290922080546001600160a01b031916929091169190911790558351849084908110610e5a57fe5b6020908102919091018101516001600160a01b03928316600090815260038352604080822095851682529490925292902080546001600160a01b03191691909216179055600101610cf1565b7f945b2d69478e38a426f081f146dcaf19c4ce1e01e67cb838ed4f19b371c3e8c481565b610ed261124b565b6001600160a01b0316610ee3610c5f565b6001600160a01b031614610f3e576040805162461bcd60e51b815260206004820181905260248201527f4f776e61626c653a2043616c6c6572206973206e6f7420746865206f776e6572604482015290519081900360640190fd5b610f5f73b31f66aa3c1e785363f0875a1b74e27b85fd66c7806000196110fd565b565b610f6b83866107dc565b610f78858585858561126e565b816001600160a01b0316836001600160a01b03167fe2bdbc6b7225eb0a972ac943c485a6cc05f7c6811838bce8903f23200fb744fa8787604051808381526020018281526020019250505060405180910390a35050505050565b6000610fdf8484846113cc565b90505b9392505050565b610ff161124b565b6001600160a01b0316611002610c5f565b6001600160a01b03161461105d576040805162461bcd60e51b815260206004820181905260248201527f4f776e61626c653a2043616c6c6572206973206e6f7420746865206f776e6572604482015290519081900360640190fd5b6001600160a01b0381166110a25760405162461bcd60e51b81526004018080602001828103825260268152602001806119796026913960400191505060405180910390fd5b600080546040516001600160a01b03808516939216917f8be0079c531659141344cd1fd0a4f28419497f9722a3daafe3b4186f6b6457e091a3600080546001600160a01b0319166001600160a01b0392909216919091179055565b80158061119e57506040517fdd62ed3e0000000000000000000000000000000000000000000000000000000081526001600160a01b0384169063dd62ed3e9061114c9030908690600401611856565b60206040518083038186803b15801561116457600080fd5b505afa158015611178573d6000803e3d6000fd5b505050506040513d601f19601f8201168201806040525081019061119c9190611805565b155b6111c35760405162461bcd60e51b81526004016111ba9061191b565b60405180910390fd5b6112468363095ea7b360e01b84846040516024016111e2929190611870565b60408051601f198184030181529190526020810180517bffffffffffffffffffffffffffffffffffffffffffffffffffffffff167fffffffff00000000000000000000000000000000000000000000000000000000909316929092179091526115b1565b505050565b3390565b6112468363a9059cbb60e01b84846040516024016111e2929190611870565b600061127a8484610911565b9050600080846001600160a01b0316866001600160a01b0316106112a0578660006112a4565b6000875b90925090506112bd6001600160a01b038716848a61124f565b60408051600080825260208201928390527f022c0d9f00000000000000000000000000000000000000000000000000000000835260248201858152604483018590526001600160a01b038881166064850152608060848501908152845160a486018190529189169563022c0d9f95899589958d9592949093909260c48601928190849084905b8381101561135b578181015183820152602001611343565b50505050905090810190601f1680156113885780820380516001836020036101000a031916815260200191505b5095505050505050600060405180830381600087803b1580156113aa57600080fd5b505af11580156113be573d6000803e3d6000fd5b505050505050505050505050565b6000816001600160a01b0316836001600160a01b031614806113ec575083155b156113f957506000610fe2565b60006114058484610911565b90506001600160a01b03811661141f576000915050610fe2565b6000806000806000856001600160a01b031663d66940276040518163ffffffff1660e01b815260040160a06040518083038186803b15801561146057600080fd5b505afa158015611474573d6000803e3d6000fd5b505050506040513d60a081101561148a57600080fd5b508051602082015160408301516060840151608090940151929850909650945090925090506000806001600160a01b03808b16908c16106114cc5785876114cf565b86865b915091506000808b6001600160a01b03168d6001600160a01b0316106114f65785876114f9565b86865b915091506000846dffffffffffffffffffffffffffff1611801561152d57506000836dffffffffffffffffffffffffffff16115b156115a05760006115608f846dffffffffffffffffffffffffffff16846dffffffffffffffffffffffffffff168961166d565b905080846dffffffffffffffffffffffffffff16111561158c579a50610fe29950505050505050505050565b60009b505050505050505050505050610fe2565b505050505050505050509392505050565b600080836001600160a01b0316836040516115cc919061181d565b6000604051808303816000865af19150503d8060008114611609576040519150601f19603f3d011682016040523d82523d6000602084013e61160e565b606091505b5091509150816116305760405162461bcd60e51b81526004016111ba90611889565b805115611667578080602001905181019061164b91906117e5565b6116675760405162461bcd60e51b81526004016111ba906118be565b50505050565b600080670de0b6b3a764000061168d61168682866116c9565b8890611721565b8161169457fe5b04905060006116a38286611721565b905060006116b1878461178d565b90508082816116bc57fe5b0498975050505050505050565b8082038281111561093a576040805162461bcd60e51b815260206004820152601f60248201527f536166654d6174683a2064732d6d6174682d7375622d756e646572666c6f7700604482015290519081900360640190fd5b600081158061173c5750508082028282828161173957fe5b04145b61093a576040805162461bcd60e51b815260206004820152601e60248201527f536166654d6174683a2064732d6d6174682d6d756c2d6f766572666c6f770000604482015290519081900360640190fd5b8082018281101561093a576040805162461bcd60e51b815260206004820152601e60248201527f536166654d6174683a2064732d6d6174682d6164642d6f766572666c6f770000604482015290519081900360640190fd5b6000602082840312156117f6578081fd5b81518015158114610fe2578182fd5b600060208284031215611816578081fd5b5051919050565b60008251815b8181101561183d5760208186018101518583015201611823565b8181111561184b5782828501525b509190910192915050565b6001600160a01b0392831681529116602082015260400190565b6001600160a01b03929092168252602082015260400190565b6020808252818101527f5361666545524332303a206c6f772d6c6576656c2063616c6c206661696c6564604082015260600190565b6020808252602a908201527f5361666545524332303a204552433230206f7065726174696f6e20646964206e60408201527f6f74207375636365656400000000000000000000000000000000000000000000606082015260800190565b60208082526036908201527f5361666545524332303a20617070726f76652066726f6d206e6f6e2d7a65726f60408201527f20746f206e6f6e2d7a65726f20616c6c6f77616e63650000000000000000000060608201526080019056fe4f776e61626c653a204e6577206f776e657220697320746865207a65726f2061646472657373a264697066735822122061fd1e23169e14339d1e636c460689029e4e9c64ea844b93c8734a3399b276e464736f6c634300070600334f776e61626c653a2043616c6c6572206973206e6f7420746865206f776e6572",
  "devdoc": {
    "kind": "dev",
    "methods": {
      "owner()": {
        "details": "Returns the address of the current owner."
      },
      "recoverAVAX(uint256)": {
        "params": {
          "_amount": "amount"
        }
      },
      "recoverERC20(address,uint256)": {
        "params": {
          "_tokenAddress": "token address",
          "_tokenAmount": "amount to recover"
        }
      },
      "renounceOwnership()": {
        "details": "Leaves the contract without owner. It will not be possible to call `onlyOwner` functions anymore. Can only be called by the current owner. NOTE: Renouncing ownership will leave the contract without an owner, thereby removing any functionality that is only available to the owner."
      },
      "revokeAllowance(address,address)": {
        "params": {
          "_spender": "address",
          "_token": "address"
        }
      },
      "setAllowances()": {
        "details": "Should use modifier `onlyOwner` to avoid griefing"
      },
      "swap(uint256,uint256,address,address,address)": {
        "params": {
          "_amountIn": "input amount in starting token",
          "_amountOut": "amount out in ending token",
          "_fromToken": "ERC20 token being sold",
          "_to": "address where swapped funds should be sent to",
          "_toToken": "ERC20 token being bought"
        }
      },
      "transferOwnership(address)": {
        "details": "Transfers ownership of the contract to a new account (`newOwner`). Can only be called by the current owner."
      }
    },
    "version": 1
  },
  "userdoc": {
    "kind": "user",
    "methods": {
      "recoverAVAX(uint256)": {
        "notice": "Recover AVAX from contract"
      },
      "recoverERC20(address,uint256)": {
        "notice": "Recover ERC20 from contract"
      },
      "revokeAllowance(address,address)": {
        "notice": "Revoke token allowance"
      },
      "setAllowances()": {
        "notice": "Approve tokens for use in Strategy"
      },
      "swap(uint256,uint256,address,address,address)": {
        "notice": "Execute a swap from token to token assuming this contract already holds input tokensInteract through the router"
      }
    },
    "version": 1
  },
  "storageLayout": {
    "storage": [
      {
        "astId": 5952,
        "contract": "contracts/adapters/KyberAdapter.sol:KyberAdapter",
        "label": "_owner",
        "offset": 0,
        "slot": "0",
        "type": "t_address"
      },
      {
        "astId": 50,
        "contract": "contracts/adapters/KyberAdapter.sol:KyberAdapter",
        "label": "swapGasEstimate",
        "offset": 0,
        "slot": "1",
        "type": "t_uint256"
      },
      {
        "astId": 52,
        "contract": "contracts/adapters/KyberAdapter.sol:KyberAdapter",
        "label": "name",
        "offset": 0,
        "slot": "2",
        "type": "t_string_storage"
      },
      {
        "astId": 4059,
        "contract": "contracts/adapters/KyberAdapter.sol:KyberAdapter",
        "label": "TKNS_TO_POOL",
        "offset": 0,
        "slot": "3",
        "type": "t_mapping(t_address,t_mapping(t_address,t_address))"
      }
    ],
    "types": {
      "t_address": {
        "encoding": "inplace",
        "label": "address",
        "numberOfBytes": "20"
      },
      "t_mapping(t_address,t_address)": {
        "encoding": "mapping",
        "key": "t_address",
        "label": "mapping(address => address)",
        "numberOfBytes": "32",
        "value": "t_address"
      },
      "t_mapping(t_address,t_mapping(t_address,t_address))": {
        "encoding": "mapping",
        "key": "t_address",
        "label": "mapping(address => mapping(address => address))",
        "numberOfBytes": "32",
        "value": "t_mapping(t_address,t_address)"
      },
      "t_string_storage": {
        "encoding": "bytes",
        "label": "string",
        "numberOfBytes": "32"
      },
      "t_uint256": {
        "encoding": "inplace",
        "label": "uint256",
        "numberOfBytes": "32"
      }
    }
  }
}