{
  "address": "0xf9F824576F06fF92765f2Af700a5A9923526261e",
  "abi": [
    {
      "inputs": [
        {
          "internalType": "string",
          "name": "_name",
          "type": "string"
        },
        {
          "internalType": "uint256",
          "name": "_swapGasEstimate",
          "type": "uint256"
        },
        {
          "internalType": "uint256",
          "name": "_quoteGasLimit",
          "type": "uint256"
        },
        {
          "internalType": "address",
          "name": "_factory",
          "type": "address"
        }
      ],
      "stateMutability": "nonpayable",
      "type": "constructor"
    },
    {
      "anonymous": false,
      "inputs": [
        {
          "indexed": true,
          "internalType": "address",
          "name": "_asset",
          "type": "address"
        },
        {
          "indexed": false,
          "internalType": "uint256",
          "name": "amount",
          "type": "uint256"
        }
      ],
      "name": "Recovered",
      "type": "event"
    },
    {
      "anonymous": false,
      "inputs": [
        {
          "indexed": true,
          "internalType": "bytes32",
          "name": "role",
          "type": "bytes32"
        },
        {
          "indexed": true,
          "internalType": "bytes32",
          "name": "previousAdminRole",
          "type": "bytes32"
        },
        {
          "indexed": true,
          "internalType": "bytes32",
          "name": "newAdminRole",
          "type": "bytes32"
        }
      ],
      "name": "RoleAdminChanged",
      "type": "event"
    },
    {
      "anonymous": false,
      "inputs": [
        {
          "indexed": true,
          "internalType": "bytes32",
          "name": "role",
          "type": "bytes32"
        },
        {
          "indexed": true,
          "internalType": "address",
          "name": "account",
          "type": "address"
        },
        {
          "indexed": true,
          "internalType": "address",
          "name": "sender",
          "type": "address"
        }
      ],
      "name": "RoleGranted",
      "type": "event"
    },
    {
      "anonymous": false,
      "inputs": [
        {
          "indexed": true,
          "internalType": "bytes32",
          "name": "role",
          "type": "bytes32"
        },
        {
          "indexed": true,
          "internalType": "address",
          "name": "account",
          "type": "address"
        },
        {
          "indexed": true,
          "internalType": "address",
          "name": "sender",
          "type": "address"
        }
      ],
      "name": "RoleRevoked",
      "type": "event"
    },
    {
      "anonymous": false,
      "inputs": [
        {
          "indexed": true,
          "internalType": "address",
          "name": "_adapter",
          "type": "address"
        },
        {
          "indexed": false,
          "internalType": "uint256",
          "name": "_newEstimate",
          "type": "uint256"
        }
      ],
      "name": "UpdatedGasEstimate",
      "type": "event"
    },
    {
      "anonymous": false,
      "inputs": [
        {
          "indexed": true,
          "internalType": "address",
          "name": "_tokenFrom",
          "type": "address"
        },
        {
          "indexed": true,
          "internalType": "address",
          "name": "_tokenTo",
          "type": "address"
        },
        {
          "indexed": false,
          "internalType": "uint256",
          "name": "_amountIn",
          "type": "uint256"
        },
        {
          "indexed": false,
          "internalType": "uint256",
          "name": "_amountOut",
          "type": "uint256"
        }
      ],
      "name": "YakAdapterSwap",
      "type": "event"
    },
    {
      "inputs": [],
      "name": "DEFAULT_ADMIN_ROLE",
      "outputs": [
        {
          "internalType": "bytes32",
          "name": "",
          "type": "bytes32"
        }
      ],
      "stateMutability": "view",
      "type": "function"
    },
    {
      "inputs": [],
      "name": "FACTORY",
      "outputs": [
        {
          "internalType": "address",
          "name": "",
          "type": "address"
        }
      ],
      "stateMutability": "view",
      "type": "function"
    },
    {
      "inputs": [],
      "name": "MAINTAINER_ROLE",
      "outputs": [
        {
          "internalType": "bytes32",
          "name": "",
          "type": "bytes32"
        }
      ],
      "stateMutability": "view",
      "type": "function"
    },
    {
      "inputs": [
        {
          "internalType": "address",
          "name": "addedMaintainer",
          "type": "address"
        }
      ],
      "name": "addMaintainer",
      "outputs": [],
      "stateMutability": "nonpayable",
      "type": "function"
    },
    {
      "inputs": [],
      "name": "allowExternalPairs",
      "outputs": [
        {
          "internalType": "bool",
          "name": "",
          "type": "bool"
        }
      ],
      "stateMutability": "view",
      "type": "function"
    },
    {
      "inputs": [],
      "name": "allowIgnoredPairs",
      "outputs": [
        {
          "internalType": "bool",
          "name": "",
          "type": "bool"
        }
      ],
      "stateMutability": "view",
      "type": "function"
    },
    {
      "inputs": [
        {
          "internalType": "bytes32",
          "name": "role",
          "type": "bytes32"
        }
      ],
      "name": "getRoleAdmin",
      "outputs": [
        {
          "internalType": "bytes32",
          "name": "",
          "type": "bytes32"
        }
      ],
      "stateMutability": "view",
      "type": "function"
    },
    {
      "inputs": [
        {
          "internalType": "bytes32",
          "name": "role",
          "type": "bytes32"
        },
        {
          "internalType": "address",
          "name": "account",
          "type": "address"
        }
      ],
      "name": "grantRole",
      "outputs": [],
      "stateMutability": "nonpayable",
      "type": "function"
    },
    {
      "inputs": [
        {
          "internalType": "bytes32",
          "name": "role",
          "type": "bytes32"
        },
        {
          "internalType": "address",
          "name": "account",
          "type": "address"
        }
      ],
      "name": "hasRole",
      "outputs": [
        {
          "internalType": "bool",
          "name": "",
          "type": "bool"
        }
      ],
      "stateMutability": "view",
      "type": "function"
    },
    {
      "inputs": [],
      "name": "name",
      "outputs": [
        {
          "internalType": "string",
          "name": "",
          "type": "string"
        }
      ],
      "stateMutability": "view",
      "type": "function"
    },
    {
      "inputs": [
        {
          "internalType": "uint256",
          "name": "_amountIn",
          "type": "uint256"
        },
        {
          "internalType": "address",
          "name": "_tokenIn",
          "type": "address"
        },
        {
          "internalType": "address",
          "name": "_tokenOut",
          "type": "address"
        }
      ],
      "name": "query",
      "outputs": [
        {
          "internalType": "uint256",
          "name": "",
          "type": "uint256"
        }
      ],
      "stateMutability": "view",
      "type": "function"
    },
    {
      "inputs": [],
      "name": "quoteGasLimit",
      "outputs": [
        {
          "internalType": "uint256",
          "name": "",
          "type": "uint256"
        }
      ],
      "stateMutability": "view",
      "type": "function"
    },
    {
      "inputs": [
        {
          "internalType": "uint256",
          "name": "_amount",
          "type": "uint256"
        }
      ],
      "name": "recoverAVAX",
      "outputs": [],
      "stateMutability": "nonpayable",
      "type": "function"
    },
    {
      "inputs": [
        {
          "internalType": "address",
          "name": "_tokenAddress",
          "type": "address"
        },
        {
          "internalType": "uint256",
          "name": "_tokenAmount",
          "type": "uint256"
        }
      ],
      "name": "recoverERC20",
      "outputs": [],
      "stateMutability": "nonpayable",
      "type": "function"
    },
    {
      "inputs": [
        {
          "internalType": "address",
          "name": "removedMaintainer",
          "type": "address"
        }
      ],
      "name": "removeMaintainer",
      "outputs": [],
      "stateMutability": "nonpayable",
      "type": "function"
    },
    {
      "inputs": [
        {
          "internalType": "bytes32",
          "name": "role",
          "type": "bytes32"
        },
        {
          "internalType": "address",
          "name": "account",
          "type": "address"
        }
      ],
      "name": "renounceRole",
      "outputs": [],
      "stateMutability": "nonpayable",
      "type": "function"
    },
    {
      "inputs": [
        {
          "internalType": "bytes32",
          "name": "role",
          "type": "bytes32"
        }
      ],
      "name": "renounceRole",
      "outputs": [],
      "stateMutability": "nonpayable",
      "type": "function"
    },
    {
      "inputs": [
        {
          "internalType": "address",
          "name": "_token",
          "type": "address"
        },
        {
          "internalType": "address",
          "name": "_spender",
          "type": "address"
        }
      ],
      "name": "revokeAllowance",
      "outputs": [],
      "stateMutability": "nonpayable",
      "type": "function"
    },
    {
      "inputs": [
        {
          "internalType": "bytes32",
          "name": "role",
          "type": "bytes32"
        },
        {
          "internalType": "address",
          "name": "account",
          "type": "address"
        }
      ],
      "name": "revokeRole",
      "outputs": [],
      "stateMutability": "nonpayable",
      "type": "function"
    },
    {
      "inputs": [
        {
          "internalType": "bool",
          "name": "_allowExternalPairs",
          "type": "bool"
        }
      ],
      "name": "setAllowExternalPairs",
      "outputs": [],
      "stateMutability": "nonpayable",
      "type": "function"
    },
    {
      "inputs": [
        {
          "internalType": "bool",
          "name": "_allowIgnoredPairs",
          "type": "bool"
        }
      ],
      "name": "setAllowIgnoredPairs",
      "outputs": [],
      "stateMutability": "nonpayable",
      "type": "function"
    },
    {
      "inputs": [
        {
          "internalType": "uint256",
          "name": "_quoteGasLimit",
          "type": "uint256"
        }
      ],
      "name": "setQuoteGasLimit",
      "outputs": [],
      "stateMutability": "nonpayable",
      "type": "function"
    },
    {
      "inputs": [
        {
          "internalType": "uint256",
          "name": "_estimate",
          "type": "uint256"
        }
      ],
      "name": "setSwapGasEstimate",
      "outputs": [],
      "stateMutability": "nonpayable",
      "type": "function"
    },
    {
      "inputs": [
        {
          "internalType": "bytes4",
          "name": "interfaceId",
          "type": "bytes4"
        }
      ],
      "name": "supportsInterface",
      "outputs": [
        {
          "internalType": "bool",
          "name": "",
          "type": "bool"
        }
      ],
      "stateMutability": "view",
      "type": "function"
    },
    {
      "inputs": [
        {
          "internalType": "uint256",
          "name": "_amountIn",
          "type": "uint256"
        },
        {
          "internalType": "uint256",
          "name": "_amountOut",
          "type": "uint256"
        },
        {
          "internalType": "address",
          "name": "_fromToken",
          "type": "address"
        },
        {
          "internalType": "address",
          "name": "_toToken",
          "type": "address"
        },
        {
          "internalType": "address",
          "name": "_to",
          "type": "address"
        }
      ],
      "name": "swap",
      "outputs": [],
      "stateMutability": "nonpayable",
      "type": "function"
    },
    {
      "inputs": [],
      "name": "swapGasEstimate",
      "outputs": [
        {
          "internalType": "uint256",
          "name": "",
          "type": "uint256"
        }
      ],
      "stateMutability": "view",
      "type": "function"
    },
    {
      "inputs": [
        {
          "internalType": "address",
          "name": "newOwner",
          "type": "address"
        }
      ],
      "name": "transferOwnership",
      "outputs": [],
      "stateMutability": "nonpayable",
      "type": "function"
    },
    {
      "stateMutability": "payable",
      "type": "receive"
    }
  ],
  "transactionHash": "0x46392d91f42a9ff0b73b8cb4709349dee25515aab9b9dbda77d283eddb7d0fb1",
  "args": [
    "LiquidityBook2.2Adapter",
    1000000,
    600000,
    "0xb43120c4745967fa9b93E79C149E66B0f2D6Fe0c"
  ],
  "solcInputHash": "f41d12f319e58cbfbb9182ea9d302dbe",
  "bytecode": "0x60a06040526003805461ffff1916610101179055620927c06004553480156200002757600080fd5b50604051620027f9380380620027f98339810160408190526200004a9162000412565b8383336200005a600082620000c5565b620000867f339759585899103d2ace64958e37e18ccb0504652c81d4a1b8aa80fe2126ab9582620000c5565b506200009282620000d5565b6200009d816200013e565b50620000ab9050826200023a565b60601b6001600160601b0319166080525062000564915050565b620000d18282620002af565b5050565b8051620001295760405162461bcd60e51b815260206004820152601460248201527f496e76616c69642061646170746572206e616d6500000000000000000000000060448201526064015b60405180910390fd5b8051620000d19060029060208401906200034f565b336000818152600080516020620027b9833981519152602052604090205460ff16620001ad5760405162461bcd60e51b81526020600482015260286024820152600080516020620027d983398151915260448201526734b73a30b4b732b960c11b606482015260840162000120565b81620001fc5760405162461bcd60e51b815260206004820152601460248201527f496e76616c6964206761732d657374696d617465000000000000000000000000604482015260640162000120565b600182905560405182815230907ff43f23b7a28e6f8ce6843a21bd7b48bce778aa913b8c8cf459edf7d770e8d38a9060200160405180910390a25050565b336000818152600080516020620027b9833981519152602052604090205460ff16620002a95760405162461bcd60e51b81526020600482015260286024820152600080516020620027d983398151915260448201526734b73a30b4b732b960c11b606482015260840162000120565b50600455565b6000828152602081815260408083206001600160a01b038516845290915290205460ff16620000d1576000828152602081815260408083206001600160a01b03851684529091529020805460ff191660011790556200030b3390565b6001600160a01b0316816001600160a01b0316837f2f8788117e7eff1d82e926ec794901d17c78024a50270940304540a733656f0d60405160405180910390a45050565b8280546200035d9062000511565b90600052602060002090601f016020900481019282620003815760008555620003cc565b82601f106200039c57805160ff1916838001178555620003cc565b82800160010185558215620003cc579182015b82811115620003cc578251825591602001919060010190620003af565b50620003da929150620003de565b5090565b5b80821115620003da5760008155600101620003df565b80516001600160a01b03811681146200040d57600080fd5b919050565b6000806000806080858703121562000428578384fd5b84516001600160401b03808211156200043f578586fd5b818701915087601f83011262000453578586fd5b8151818111156200046857620004686200054e565b604051601f8201601f19908116603f011681019083821181831017156200049357620004936200054e565b81604052828152602093508a84848701011115620004af578889fd5b8891505b82821015620004d25784820184015181830185015290830190620004b3565b82821115620004e357888484830101525b8098505050508087015194505050604085015191506200050660608601620003f5565b905092959194509250565b600181811c908216806200052657607f821691505b602082108114156200054857634e487b7160e01b600052602260045260246000fd5b50919050565b634e487b7160e01b600052604160045260246000fd5b60805160601c61222f6200058a6000396000818161029b01526116ac015261222f6000f3fe6080604052600436106101b05760003560e01c80637ae26773116100ec578063a217fddf1161008a578063eab90da611610064578063eab90da6146104fd578063ef99893a1461051d578063f2fde38b1461053d578063f87422541461055d57600080fd5b8063a217fddf146104a8578063d547741f146104bd578063d8baf7cf146104dd57600080fd5b80638bb9c5bf116100c65780638bb9c5bf146104055780638ffbc78d1461042557806391d148541461044457806397efe68c1461048857600080fd5b80637ae26773146103a557806384a33e63146103c55780638980f11f146103e557600080fd5b80632f2ff15d116101595780634ebb7916116101335780634ebb79161461032f57806367b2634e1461034f57806369cff80d1461036f5780636b453c1f1461038557600080fd5b80632f2ff15d146102d557806336568abe146102f557806338d967a51461031557600080fd5b8063195491701161018a5780631954917014610237578063248a9ca3146102595780632dd310001461028957600080fd5b806301ffc9a7146101bc57806306fdde03146101f157806314d4cddb1461021357600080fd5b366101b757005b600080fd5b3480156101c857600080fd5b506101dc6101d7366004611e90565b610591565b60405190151581526020015b60405180910390f35b3480156101fd57600080fd5b506102066105fa565b6040516101e89190612036565b34801561021f57600080fd5b5061022960045481565b6040519081526020016101e8565b34801561024357600080fd5b50610257610252366004611e04565b610688565b005b34801561026557600080fd5b50610229610274366004611e3c565b60009081526020819052604090206001015490565b34801561029557600080fd5b506102bd7f000000000000000000000000000000000000000000000000000000000000000081565b6040516001600160a01b0390911681526020016101e8565b3480156102e157600080fd5b506102576102f0366004611e6c565b610737565b34801561030157600080fd5b50610257610310366004611e6c565b610761565b34801561032157600080fd5b506003546101dc9060ff1681565b34801561033b57600080fd5b5061025761034a366004611e3c565b6107ed565b34801561035b57600080fd5b5061025761036a366004611e3c565b610935565b34801561037b57600080fd5b5061022960015481565b34801561039157600080fd5b506102576103a0366004611c60565b6109ca565b3480156103b157600080fd5b506102576103c0366004611c98565b6109f7565b3480156103d157600080fd5b506102576103e0366004611e3c565b610a9b565b3480156103f157600080fd5b50610257610400366004611cd0565b610bae565b34801561041157600080fd5b50610257610420366004611e3c565b610ce9565b34801561043157600080fd5b506003546101dc90610100900460ff1681565b34801561045057600080fd5b506101dc61045f366004611e6c565b6000918252602082815260408084206001600160a01b0393909316845291905290205460ff1690565b34801561049457600080fd5b506102576104a3366004611e04565b610cf4565b3480156104b457600080fd5b50610229600081565b3480156104c957600080fd5b506102576104d8366004611e6c565b610d97565b3480156104e957600080fd5b506102576104f8366004611c60565b610dbc565b34801561050957600080fd5b50610257610518366004611f3b565b610de6565b34801561052957600080fd5b50610229610538366004611efa565b610fab565b34801561054957600080fd5b50610257610558366004611c60565b610fc2565b34801561056957600080fd5b506102297f339759585899103d2ace64958e37e18ccb0504652c81d4a1b8aa80fe2126ab9581565b60006001600160e01b031982167f7965db0b0000000000000000000000000000000000000000000000000000000014806105f457507f01ffc9a7000000000000000000000000000000000000000000000000000000006001600160e01b03198316145b92915050565b6002805461060790612154565b80601f016020809104026020016040519081016040528092919081815260200182805461063390612154565b80156106805780601f1061065557610100808354040283529160200191610680565b820191906000526020600020905b81548152906001019060200180831161066357829003601f168201915b505050505081565b3360008181527fa54247010af6b3693b80aceddfad12e077c5de3571e6243fada502635f0d7d39602052604090205460ff1661071c5760405162461bcd60e51b815260206004820152602860248201527f4d61696e7461696e61626c653a2043616c6c6572206973206e6f742061206d6160448201526734b73a30b4b732b960c11b60648201526084015b60405180910390fd5b50600380549115156101000261ff0019909216919091179055565b60008281526020819052604090206001015461075281610fd9565b61075c8383610fe3565b505050565b6001600160a01b03811633146107df5760405162461bcd60e51b815260206004820152602f60248201527f416363657373436f6e74726f6c3a2063616e206f6e6c792072656e6f756e636560448201527f20726f6c657320666f722073656c6600000000000000000000000000000000006064820152608401610713565b6107e98282611081565b5050565b3360008181527fa54247010af6b3693b80aceddfad12e077c5de3571e6243fada502635f0d7d39602052604090205460ff1661087c5760405162461bcd60e51b815260206004820152602860248201527f4d61696e7461696e61626c653a2043616c6c6572206973206e6f742061206d6160448201526734b73a30b4b732b960c11b6064820152608401610713565b600082116108cc5760405162461bcd60e51b815260206004820152601e60248201527f59616b416461707465723a204e6f7468696e6720746f207265636f76657200006044820152606401610713565b604051339083156108fc029084906000818181858888f193505050501580156108f9573d6000803e3d6000fd5b506040518281526000907f8c1256b8896378cd5044f80c202f9772b9d77dc85c8a6eb51967210b09bfaa28906020015b60405180910390a25050565b3360008181527fa54247010af6b3693b80aceddfad12e077c5de3571e6243fada502635f0d7d39602052604090205460ff166109c45760405162461bcd60e51b815260206004820152602860248201527f4d61696e7461696e61626c653a2043616c6c6572206973206e6f742061206d6160448201526734b73a30b4b732b960c11b6064820152608401610713565b50600455565b6109f47f339759585899103d2ace64958e37e18ccb0504652c81d4a1b8aa80fe2126ab9582610737565b50565b3360008181527fa54247010af6b3693b80aceddfad12e077c5de3571e6243fada502635f0d7d39602052604090205460ff16610a865760405162461bcd60e51b815260206004820152602860248201527f4d61696e7461696e61626c653a2043616c6c6572206973206e6f742061206d6160448201526734b73a30b4b732b960c11b6064820152608401610713565b61075c6001600160a01b038416836000611100565b3360008181527fa54247010af6b3693b80aceddfad12e077c5de3571e6243fada502635f0d7d39602052604090205460ff16610b2a5760405162461bcd60e51b815260206004820152602860248201527f4d61696e7461696e61626c653a2043616c6c6572206973206e6f742061206d6160448201526734b73a30b4b732b960c11b6064820152608401610713565b81610b775760405162461bcd60e51b815260206004820152601460248201527f496e76616c6964206761732d657374696d6174650000000000000000000000006044820152606401610713565b600182905560405182815230907ff43f23b7a28e6f8ce6843a21bd7b48bce778aa913b8c8cf459edf7d770e8d38a90602001610929565b3360008181527fa54247010af6b3693b80aceddfad12e077c5de3571e6243fada502635f0d7d39602052604090205460ff16610c3d5760405162461bcd60e51b815260206004820152602860248201527f4d61696e7461696e61626c653a2043616c6c6572206973206e6f742061206d6160448201526734b73a30b4b732b960c11b6064820152608401610713565b60008211610c8d5760405162461bcd60e51b815260206004820152601e60248201527f59616b416461707465723a204e6f7468696e6720746f207265636f76657200006044820152606401610713565b610ca16001600160a01b03841633846112a5565b826001600160a01b03167f8c1256b8896378cd5044f80c202f9772b9d77dc85c8a6eb51967210b09bfaa2883604051610cdc91815260200190565b60405180910390a2505050565b336107e98282610761565b3360008181527fa54247010af6b3693b80aceddfad12e077c5de3571e6243fada502635f0d7d39602052604090205460ff16610d835760405162461bcd60e51b815260206004820152602860248201527f4d61696e7461696e61626c653a2043616c6c6572206973206e6f742061206d6160448201526734b73a30b4b732b960c11b6064820152608401610713565b506003805460ff1916911515919091179055565b600082815260208190526040902060010154610db281610fd9565b61075c8383611081565b6109f47f339759585899103d2ace64958e37e18ccb0504652c81d4a1b8aa80fe2126ab9582610d97565b6040516370a0823160e01b81526001600160a01b038281166004830152600091908416906370a082319060240160206040518083038186803b158015610e2b57600080fd5b505afa158015610e3f573d6000803e3d6000fd5b505050506040513d601f19601f82011682018060405250810190610e639190611e54565b9050610e7286868686866112d5565b6040516370a0823160e01b81526001600160a01b03838116600483015260009183918616906370a082319060240160206040518083038186803b158015610eb857600080fd5b505afa158015610ecc573d6000803e3d6000fd5b505050506040513d601f19601f82011682018060405250810190610ef09190611e54565b610efa91906120fa565b905085811015610f4c5760405162461bcd60e51b815260206004820152601760248201527f496e73756666696369656e7420616d6f756e742d6f75740000000000000000006044820152606401610713565b836001600160a01b0316856001600160a01b03167fe2bdbc6b7225eb0a972ac943c485a6cc05f7c6811838bce8903f23200fb744fa8989604051610f9a929190918252602082015260400190565b60405180910390a350505050505050565b6000610fb884848461148b565b90505b9392505050565b33610fce600083610737565b6107e9600082610761565b6109f481336114a3565b6000828152602081815260408083206001600160a01b038516845290915290205460ff166107e9576000828152602081815260408083206001600160a01b03851684529091529020805460ff1916600117905561103d3390565b6001600160a01b0316816001600160a01b0316837f2f8788117e7eff1d82e926ec794901d17c78024a50270940304540a733656f0d60405160405180910390a45050565b6000828152602081815260408083206001600160a01b038516845290915290205460ff16156107e9576000828152602081815260408083206001600160a01b0385168085529252808320805460ff1916905551339285917ff6391f5c32d9c69d2a47ea670b442974b53935d1edc7fd64eb21e047a839171b9190a45050565b8015806111a257506040517fdd62ed3e0000000000000000000000000000000000000000000000000000000081523060048201526001600160a01b03838116602483015284169063dd62ed3e9060440160206040518083038186803b15801561116857600080fd5b505afa15801561117c573d6000803e3d6000fd5b505050506040513d601f19601f820116820180604052508101906111a09190611e54565b155b6112145760405162461bcd60e51b815260206004820152603660248201527f5361666545524332303a20617070726f76652066726f6d206e6f6e2d7a65726f60448201527f20746f206e6f6e2d7a65726f20616c6c6f77616e6365000000000000000000006064820152608401610713565b6040516001600160a01b03831660248201526044810182905261075c9084907f095ea7b300000000000000000000000000000000000000000000000000000000906064015b60408051601f198184030181529190526020810180517bffffffffffffffffffffffffffffffffffffffffffffffffffffffff166001600160e01b031990931692909217909152611521565b6040516001600160a01b03831660248201526044810182905261075c90849063a9059cbb60e01b90606401611259565b60008060006112e5888787611663565b925092509250868310156113615760405162461bcd60e51b815260206004820152602a60248201527f4c42416461707465723a20696e73756666696369656e7420616d6f756e744f7560448201527f74207265636569766564000000000000000000000000000000000000000000006064820152608401610713565b60405163a9059cbb60e01b81526001600160a01b038381166004830152602482018a905287169063a9059cbb90604401602060405180830381600087803b1580156113ab57600080fd5b505af11580156113bf573d6000803e3d6000fd5b505050506040513d601f19601f820116820180604052508101906113e39190611e20565b506040517f53c059a000000000000000000000000000000000000000000000000000000000815281151560048201526001600160a01b0385811660248301528316906353c059a090604401602060405180830381600087803b15801561144857600080fd5b505af115801561145c573d6000803e3d6000fd5b505050506040513d601f19601f820116820180604052508101906114809190611e54565b505050505050505050565b6000611498848484611663565b509095945050505050565b6000828152602081815260408083206001600160a01b038516845290915290205460ff166107e9576114df816001600160a01b03166014611928565b6114ea836020611928565b6040516020016114fb929190611fb5565b60408051601f198184030181529082905262461bcd60e51b825261071391600401612036565b600080836001600160a01b03168360405161153c9190611f99565b6000604051808303816000865af19150503d8060008114611579576040519150601f19603f3d011682016040523d82523d6000602084013e61157e565b606091505b5091509150816115d05760405162461bcd60e51b815260206004820181905260248201527f5361666545524332303a206c6f772d6c6576656c2063616c6c206661696c65646044820152606401610713565b80511561165d57808060200190518101906115eb9190611e20565b61165d5760405162461bcd60e51b815260206004820152602a60248201527f5361666545524332303a204552433230206f7065726174696f6e20646964206e60448201527f6f742073756363656564000000000000000000000000000000000000000000006064820152608401610713565b50505050565b6040517f6622e0d70000000000000000000000000000000000000000000000000000000081526001600160a01b03838116600483015282811660248301526000918291829182917f00000000000000000000000000000000000000000000000000000000000000001690636622e0d79060440160006040518083038186803b1580156116ee57600080fd5b505afa158015611702573d6000803e3d6000fd5b505050506040513d6000823e601f3d908101601f1916820160405261172a9190810190611cfb565b9050600080825111801561173e5750600088115b1561191d5760005b825181101561191b5782818151811061176f57634e487b7160e01b600052603260045260246000fd5b60200260200101516060015115801561178b575060035460ff16155b156117955761190b565b8281815181106117b557634e487b7160e01b600052603260045260246000fd5b6020026020010151604001511580156117d65750600354610100900460ff16155b156117e05761190b565b866001600160a01b031683828151811061180a57634e487b7160e01b600052603260045260246000fd5b6020026020010151602001516001600160a01b031663da10610c6040518163ffffffff1660e01b815260040160206040518083038186803b15801561184e57600080fd5b505afa158015611862573d6000803e3d6000fd5b505050506040513d601f19601f820116820180604052508101906118869190611c7c565b6001600160a01b031614915060006118ca8483815181106118b757634e487b7160e01b600052603260045260246000fd5b6020026020010151602001518b85611b4f565b905086811115611909578096508382815181106118f757634e487b7160e01b600052603260045260246000fd5b60200260200101516020015195508294505b505b6119148161218f565b9050611746565b505b505093509350939050565b606060006119378360026120db565b6119429060026120c3565b67ffffffffffffffff81111561196857634e487b7160e01b600052604160045260246000fd5b6040519080825280601f01601f191660200182016040528015611992576020820181803683370190505b5090507f3000000000000000000000000000000000000000000000000000000000000000816000815181106119d757634e487b7160e01b600052603260045260246000fd5b60200101906001600160f81b031916908160001a9053507f780000000000000000000000000000000000000000000000000000000000000081600181518110611a3057634e487b7160e01b600052603260045260246000fd5b60200101906001600160f81b031916908160001a9053506000611a548460026120db565b611a5f9060016120c3565b90505b6001811115611b00577f303132333435363738396162636465660000000000000000000000000000000085600f1660108110611aae57634e487b7160e01b600052603260045260246000fd5b1a60f81b828281518110611ad257634e487b7160e01b600052603260045260246000fd5b60200101906001600160f81b031916908160001a90535060049490941c93611af98161213d565b9050611a62565b508315610fbb5760405162461bcd60e51b815260206004820181905260248201527f537472696e67733a20686578206c656e67746820696e73756666696369656e746044820152606401610713565b600480546040517fe77366f80000000000000000000000000000000000000000000000000000000081526fffffffffffffffffffffffffffffffff85169281019290925282151560248301526000916001600160a01b0386169163e77366f89160440160606040518083038187803b158015611bca57600080fd5b5086fa93505050508015611bfb575060408051601f3d908101601f19168201909252611bf891810190611eb8565b60015b611c0457610fbb565b6fffffffffffffffffffffffffffffffff8316611c3157816fffffffffffffffffffffffffffffffff1693505b5050509392505050565b80516fffffffffffffffffffffffffffffffff81168114611c5b57600080fd5b919050565b600060208284031215611c71578081fd5b8135610fbb816121d6565b600060208284031215611c8d578081fd5b8151610fbb816121d6565b60008060408385031215611caa578081fd5b8235611cb5816121d6565b91506020830135611cc5816121d6565b809150509250929050565b60008060408385031215611ce2578182fd5b8235611ced816121d6565b946020939093013593505050565b60006020808385031215611d0d578182fd5b825167ffffffffffffffff80821115611d24578384fd5b818501915085601f830112611d37578384fd5b815181811115611d4957611d496121c0565b611d57848260051b01612092565b8181528481019250838501600783901b85018601891015611d76578687fd5b8694505b82851015611df857608080828b031215611d92578788fd5b611d9a612069565b825162ffffff81168114611dac57898afd5b815282880151611dbb816121d6565b81890152604083810151611dce816121eb565b90820152606083810151611de1816121eb565b908201528552600195909501949386019301611d7a565b50979650505050505050565b600060208284031215611e15578081fd5b8135610fbb816121eb565b600060208284031215611e31578081fd5b8151610fbb816121eb565b600060208284031215611e4d578081fd5b5035919050565b600060208284031215611e65578081fd5b5051919050565b60008060408385031215611e7e578182fd5b823591506020830135611cc5816121d6565b600060208284031215611ea1578081fd5b81356001600160e01b031981168114610fbb578182fd5b600080600060608486031215611ecc578081fd5b611ed584611c3b565b9250611ee360208501611c3b565b9150611ef160408501611c3b565b90509250925092565b600080600060608486031215611f0e578081fd5b833592506020840135611f20816121d6565b91506040840135611f30816121d6565b809150509250925092565b600080600080600060a08688031215611f52578283fd5b85359450602086013593506040860135611f6b816121d6565b92506060860135611f7b816121d6565b91506080860135611f8b816121d6565b809150509295509295909350565b60008251611fab818460208701612111565b9190910192915050565b7f416363657373436f6e74726f6c3a206163636f756e7420000000000000000000815260008351611fed816017850160208801612111565b7f206973206d697373696e6720726f6c6520000000000000000000000000000000601791840191820152835161202a816028840160208801612111565b01602801949350505050565b6020815260008251806020840152612055816040850160208701612111565b601f01601f19169190910160400192915050565b6040516080810167ffffffffffffffff8111828210171561208c5761208c6121c0565b60405290565b604051601f8201601f1916810167ffffffffffffffff811182821017156120bb576120bb6121c0565b604052919050565b600082198211156120d6576120d66121aa565b500190565b60008160001904831182151516156120f5576120f56121aa565b500290565b60008282101561210c5761210c6121aa565b500390565b60005b8381101561212c578181015183820152602001612114565b8381111561165d5750506000910152565b60008161214c5761214c6121aa565b506000190190565b600181811c9082168061216857607f821691505b6020821081141561218957634e487b7160e01b600052602260045260246000fd5b50919050565b60006000198214156121a3576121a36121aa565b5060010190565b634e487b7160e01b600052601160045260246000fd5b634e487b7160e01b600052604160045260246000fd5b6001600160a01b03811681146109f457600080fd5b80151581146109f457600080fdfea2646970667358221220b1e6cbf971b570e6f1cf78e64fcabcf4c5f3c6e5f46abb5e2c1a079f317cb3d364736f6c63430008040033a54247010af6b3693b80aceddfad12e077c5de3571e6243fada502635f0d7d394d61696e7461696e61626c653a2043616c6c6572206973206e6f742061206d61",
  "devdoc": {
    "kind": "dev",
    "methods": {
      "getRoleAdmin(bytes32)": {
        "details": "Returns the admin role that controls `role`. See {grantRole} and {revokeRole}. To change a role's admin, use {_setRoleAdmin}."
      },
      "grantRole(bytes32,address)": {
        "details": "Grants `role` to `account`. If `account` had not been already granted `role`, emits a {RoleGranted} event. Requirements: - the caller must have ``role``'s admin role. May emit a {RoleGranted} event."
      },
      "hasRole(bytes32,address)": {
        "details": "Returns `true` if `account` has been granted `role`."
      },
      "renounceRole(bytes32,address)": {
        "details": "Revokes `role` from the calling account. Roles are often managed via {grantRole} and {revokeRole}: this function's purpose is to provide a mechanism for accounts to lose their privileges if they are compromised (such as when a trusted device is misplaced). If the calling account had been revoked `role`, emits a {RoleRevoked} event. Requirements: - the caller must be `account`. May emit a {RoleRevoked} event."
      },
      "revokeRole(bytes32,address)": {
        "details": "Revokes `role` from `account`. If `account` had been granted `role`, emits a {RoleRevoked} event. Requirements: - the caller must have ``role``'s admin role. May emit a {RoleRevoked} event."
      },
      "supportsInterface(bytes4)": {
        "details": "See {IERC165-supportsInterface}."
      }
    },
    "version": 1
  },
  "userdoc": {
    "kind": "user",
    "methods": {},
    "version": 1
  },
  "storageLayout": {
    "storage": [
      {
        "astId": 24,
        "contract": "src/contracts/adapters/LB2Adapter.sol:LB2Adapter",
        "label": "_roles",
        "offset": 0,
        "slot": "0",
        "type": "t_mapping(t_bytes32,t_struct(RoleData)19_storage)"
      },
      {
        "astId": 718,
        "contract": "src/contracts/adapters/LB2Adapter.sol:LB2Adapter",
        "label": "swapGasEstimate",
        "offset": 0,
        "slot": "1",
        "type": "t_uint256"
      },
      {
        "astId": 720,
        "contract": "src/contracts/adapters/LB2Adapter.sol:LB2Adapter",
        "label": "name",
        "offset": 0,
        "slot": "2",
        "type": "t_string_storage"
      },
      {
        "astId": 1018,
        "contract": "src/contracts/adapters/LB2Adapter.sol:LB2Adapter",
        "label": "allowIgnoredPairs",
        "offset": 0,
        "slot": "3",
        "type": "t_bool"
      },
      {
        "astId": 1021,
        "contract": "src/contracts/adapters/LB2Adapter.sol:LB2Adapter",
        "label": "allowExternalPairs",
        "offset": 1,
        "slot": "3",
        "type": "t_bool"
      },
      {
        "astId": 1024,
        "contract": "src/contracts/adapters/LB2Adapter.sol:LB2Adapter",
        "label": "quoteGasLimit",
        "offset": 0,
        "slot": "4",
        "type": "t_uint256"
      }
    ],
    "types": {
      "t_address": {
        "encoding": "inplace",
        "label": "address",
        "numberOfBytes": "20"
      },
      "t_bool": {
        "encoding": "inplace",
        "label": "bool",
        "numberOfBytes": "1"
      },
      "t_bytes32": {
        "encoding": "inplace",
        "label": "bytes32",
        "numberOfBytes": "32"
      },
      "t_mapping(t_address,t_bool)": {
        "encoding": "mapping",
        "key": "t_address",
        "label": "mapping(address => bool)",
        "numberOfBytes": "32",
        "value": "t_bool"
      },
      "t_mapping(t_bytes32,t_struct(RoleData)19_storage)": {
        "encoding": "mapping",
        "key": "t_bytes32",
        "label": "mapping(bytes32 => struct AccessControl.RoleData)",
        "numberOfBytes": "32",
        "value": "t_struct(RoleData)19_storage"
      },
      "t_string_storage": {
        "encoding": "bytes",
        "label": "string",
        "numberOfBytes": "32"
      },
      "t_struct(RoleData)19_storage": {
        "encoding": "inplace",
        "label": "struct AccessControl.RoleData",
        "members": [
          {
            "astId": 16,
            "contract": "src/contracts/adapters/LB2Adapter.sol:LB2Adapter",
            "label": "members",
            "offset": 0,
            "slot": "0",
            "type": "t_mapping(t_address,t_bool)"
          },
          {
            "astId": 18,
            "contract": "src/contracts/adapters/LB2Adapter.sol:LB2Adapter",
            "label": "adminRole",
            "offset": 0,
            "slot": "1",
            "type": "t_bytes32"
          }
        ],
        "numberOfBytes": "64"
      },
      "t_uint256": {
        "encoding": "inplace",
        "label": "uint256",
        "numberOfBytes": "32"
      }
    }
  }
}