{
  "address": "0xb2a58c5e5399368716067BE72D3548F0927f0fE4",
  "abi": [
    {
      "inputs": [
        {
          "internalType": "string",
          "name": "_name",
          "type": "string"
        },
        {
          "internalType": "uint256",
          "name": "_swapGasEstimate",
          "type": "uint256"
        },
        {
          "internalType": "address",
          "name": "_router",
          "type": "address"
        }
      ],
      "stateMutability": "nonpayable",
      "type": "constructor"
    },
    {
      "anonymous": false,
      "inputs": [
        {
          "indexed": true,
          "internalType": "address",
          "name": "_asset",
          "type": "address"
        },
        {
          "indexed": false,
          "internalType": "uint256",
          "name": "amount",
          "type": "uint256"
        }
      ],
      "name": "Recovered",
      "type": "event"
    },
    {
      "anonymous": false,
      "inputs": [
        {
          "indexed": true,
          "internalType": "bytes32",
          "name": "role",
          "type": "bytes32"
        },
        {
          "indexed": true,
          "internalType": "bytes32",
          "name": "previousAdminRole",
          "type": "bytes32"
        },
        {
          "indexed": true,
          "internalType": "bytes32",
          "name": "newAdminRole",
          "type": "bytes32"
        }
      ],
      "name": "RoleAdminChanged",
      "type": "event"
    },
    {
      "anonymous": false,
      "inputs": [
        {
          "indexed": true,
          "internalType": "bytes32",
          "name": "role",
          "type": "bytes32"
        },
        {
          "indexed": true,
          "internalType": "address",
          "name": "account",
          "type": "address"
        },
        {
          "indexed": true,
          "internalType": "address",
          "name": "sender",
          "type": "address"
        }
      ],
      "name": "RoleGranted",
      "type": "event"
    },
    {
      "anonymous": false,
      "inputs": [
        {
          "indexed": true,
          "internalType": "bytes32",
          "name": "role",
          "type": "bytes32"
        },
        {
          "indexed": true,
          "internalType": "address",
          "name": "account",
          "type": "address"
        },
        {
          "indexed": true,
          "internalType": "address",
          "name": "sender",
          "type": "address"
        }
      ],
      "name": "RoleRevoked",
      "type": "event"
    },
    {
      "anonymous": false,
      "inputs": [
        {
          "indexed": true,
          "internalType": "address",
          "name": "_adapter",
          "type": "address"
        },
        {
          "indexed": false,
          "internalType": "uint256",
          "name": "_newEstimate",
          "type": "uint256"
        }
      ],
      "name": "UpdatedGasEstimate",
      "type": "event"
    },
    {
      "anonymous": false,
      "inputs": [
        {
          "indexed": true,
          "internalType": "address",
          "name": "_tokenFrom",
          "type": "address"
        },
        {
          "indexed": true,
          "internalType": "address",
          "name": "_tokenTo",
          "type": "address"
        },
        {
          "indexed": false,
          "internalType": "uint256",
          "name": "_amountIn",
          "type": "uint256"
        },
        {
          "indexed": false,
          "internalType": "uint256",
          "name": "_amountOut",
          "type": "uint256"
        }
      ],
      "name": "YakAdapterSwap",
      "type": "event"
    },
    {
      "inputs": [],
      "name": "DEFAULT_ADMIN_ROLE",
      "outputs": [
        {
          "internalType": "bytes32",
          "name": "",
          "type": "bytes32"
        }
      ],
      "stateMutability": "view",
      "type": "function"
    },
    {
      "inputs": [],
      "name": "FACTORY",
      "outputs": [
        {
          "internalType": "address",
          "name": "",
          "type": "address"
        }
      ],
      "stateMutability": "view",
      "type": "function"
    },
    {
      "inputs": [],
      "name": "MAINTAINER_ROLE",
      "outputs": [
        {
          "internalType": "bytes32",
          "name": "",
          "type": "bytes32"
        }
      ],
      "stateMutability": "view",
      "type": "function"
    },
    {
      "inputs": [],
      "name": "ROUTER",
      "outputs": [
        {
          "internalType": "address",
          "name": "",
          "type": "address"
        }
      ],
      "stateMutability": "view",
      "type": "function"
    },
    {
      "inputs": [
        {
          "internalType": "address",
          "name": "addedMaintainer",
          "type": "address"
        }
      ],
      "name": "addMaintainer",
      "outputs": [],
      "stateMutability": "nonpayable",
      "type": "function"
    },
    {
      "inputs": [],
      "name": "allowExternalPairs",
      "outputs": [
        {
          "internalType": "bool",
          "name": "",
          "type": "bool"
        }
      ],
      "stateMutability": "view",
      "type": "function"
    },
    {
      "inputs": [],
      "name": "allowIgnoredPairs",
      "outputs": [
        {
          "internalType": "bool",
          "name": "",
          "type": "bool"
        }
      ],
      "stateMutability": "view",
      "type": "function"
    },
    {
      "inputs": [
        {
          "internalType": "bytes32",
          "name": "role",
          "type": "bytes32"
        }
      ],
      "name": "getRoleAdmin",
      "outputs": [
        {
          "internalType": "bytes32",
          "name": "",
          "type": "bytes32"
        }
      ],
      "stateMutability": "view",
      "type": "function"
    },
    {
      "inputs": [
        {
          "internalType": "bytes32",
          "name": "role",
          "type": "bytes32"
        },
        {
          "internalType": "address",
          "name": "account",
          "type": "address"
        }
      ],
      "name": "grantRole",
      "outputs": [],
      "stateMutability": "nonpayable",
      "type": "function"
    },
    {
      "inputs": [
        {
          "internalType": "bytes32",
          "name": "role",
          "type": "bytes32"
        },
        {
          "internalType": "address",
          "name": "account",
          "type": "address"
        }
      ],
      "name": "hasRole",
      "outputs": [
        {
          "internalType": "bool",
          "name": "",
          "type": "bool"
        }
      ],
      "stateMutability": "view",
      "type": "function"
    },
    {
      "inputs": [],
      "name": "name",
      "outputs": [
        {
          "internalType": "string",
          "name": "",
          "type": "string"
        }
      ],
      "stateMutability": "view",
      "type": "function"
    },
    {
      "inputs": [
        {
          "internalType": "uint256",
          "name": "_amountIn",
          "type": "uint256"
        },
        {
          "internalType": "address",
          "name": "_tokenIn",
          "type": "address"
        },
        {
          "internalType": "address",
          "name": "_tokenOut",
          "type": "address"
        }
      ],
      "name": "query",
      "outputs": [
        {
          "internalType": "uint256",
          "name": "",
          "type": "uint256"
        }
      ],
      "stateMutability": "view",
      "type": "function"
    },
    {
      "inputs": [],
      "name": "quoteGasLimit",
      "outputs": [
        {
          "internalType": "uint256",
          "name": "",
          "type": "uint256"
        }
      ],
      "stateMutability": "view",
      "type": "function"
    },
    {
      "inputs": [
        {
          "internalType": "uint256",
          "name": "_amount",
          "type": "uint256"
        }
      ],
      "name": "recoverAVAX",
      "outputs": [],
      "stateMutability": "nonpayable",
      "type": "function"
    },
    {
      "inputs": [
        {
          "internalType": "address",
          "name": "_tokenAddress",
          "type": "address"
        },
        {
          "internalType": "uint256",
          "name": "_tokenAmount",
          "type": "uint256"
        }
      ],
      "name": "recoverERC20",
      "outputs": [],
      "stateMutability": "nonpayable",
      "type": "function"
    },
    {
      "inputs": [
        {
          "internalType": "address",
          "name": "removedMaintainer",
          "type": "address"
        }
      ],
      "name": "removeMaintainer",
      "outputs": [],
      "stateMutability": "nonpayable",
      "type": "function"
    },
    {
      "inputs": [
        {
          "internalType": "bytes32",
          "name": "role",
          "type": "bytes32"
        },
        {
          "internalType": "address",
          "name": "account",
          "type": "address"
        }
      ],
      "name": "renounceRole",
      "outputs": [],
      "stateMutability": "nonpayable",
      "type": "function"
    },
    {
      "inputs": [
        {
          "internalType": "bytes32",
          "name": "role",
          "type": "bytes32"
        }
      ],
      "name": "renounceRole",
      "outputs": [],
      "stateMutability": "nonpayable",
      "type": "function"
    },
    {
      "inputs": [
        {
          "internalType": "address",
          "name": "_token",
          "type": "address"
        },
        {
          "internalType": "address",
          "name": "_spender",
          "type": "address"
        }
      ],
      "name": "revokeAllowance",
      "outputs": [],
      "stateMutability": "nonpayable",
      "type": "function"
    },
    {
      "inputs": [
        {
          "internalType": "bytes32",
          "name": "role",
          "type": "bytes32"
        },
        {
          "internalType": "address",
          "name": "account",
          "type": "address"
        }
      ],
      "name": "revokeRole",
      "outputs": [],
      "stateMutability": "nonpayable",
      "type": "function"
    },
    {
      "inputs": [
        {
          "internalType": "bool",
          "name": "_allowExternalPairs",
          "type": "bool"
        }
      ],
      "name": "setAllowExternalPairs",
      "outputs": [],
      "stateMutability": "nonpayable",
      "type": "function"
    },
    {
      "inputs": [
        {
          "internalType": "bool",
          "name": "_allowIgnoredPairs",
          "type": "bool"
        }
      ],
      "name": "setAllowIgnoredPairs",
      "outputs": [],
      "stateMutability": "nonpayable",
      "type": "function"
    },
    {
      "inputs": [
        {
          "internalType": "uint256",
          "name": "_quoteGasLimit",
          "type": "uint256"
        }
      ],
      "name": "setQuoteGasLimit",
      "outputs": [],
      "stateMutability": "nonpayable",
      "type": "function"
    },
    {
      "inputs": [
        {
          "internalType": "uint256",
          "name": "_estimate",
          "type": "uint256"
        }
      ],
      "name": "setSwapGasEstimate",
      "outputs": [],
      "stateMutability": "nonpayable",
      "type": "function"
    },
    {
      "inputs": [
        {
          "internalType": "bytes4",
          "name": "interfaceId",
          "type": "bytes4"
        }
      ],
      "name": "supportsInterface",
      "outputs": [
        {
          "internalType": "bool",
          "name": "",
          "type": "bool"
        }
      ],
      "stateMutability": "view",
      "type": "function"
    },
    {
      "inputs": [
        {
          "internalType": "uint256",
          "name": "_amountIn",
          "type": "uint256"
        },
        {
          "internalType": "uint256",
          "name": "_amountOut",
          "type": "uint256"
        },
        {
          "internalType": "address",
          "name": "_fromToken",
          "type": "address"
        },
        {
          "internalType": "address",
          "name": "_toToken",
          "type": "address"
        },
        {
          "internalType": "address",
          "name": "_to",
          "type": "address"
        }
      ],
      "name": "swap",
      "outputs": [],
      "stateMutability": "nonpayable",
      "type": "function"
    },
    {
      "inputs": [],
      "name": "swapGasEstimate",
      "outputs": [
        {
          "internalType": "uint256",
          "name": "",
          "type": "uint256"
        }
      ],
      "stateMutability": "view",
      "type": "function"
    },
    {
      "inputs": [
        {
          "internalType": "address",
          "name": "newOwner",
          "type": "address"
        }
      ],
      "name": "transferOwnership",
      "outputs": [],
      "stateMutability": "nonpayable",
      "type": "function"
    },
    {
      "stateMutability": "payable",
      "type": "receive"
    }
  ],
  "transactionHash": "0x9ea6befd5b5c1f4ab6dd6ad5396e44c178026ce9a08ca176a8732cd9e383bbc9",
  "args": [
    "LiquidityBookAdapter",
    535345,
    "0xE3Ffc583dC176575eEA7FD9dF2A7c65F7E23f4C3"
  ],
  "solcInputHash": "ce85a137a332be87acdbb0a53d27fd99",
  "bytecode": "0x60c06040526003805461ff001960ff1990911660011716610100179055620927c06004553480156200003057600080fd5b50604051620027d1380380620027d18339810160408190526200005391620003d6565b82826000620000616200013c565b90506200007060008262000140565b6200008b600080516020620027b18339815191528262000140565b50620000978262000150565b620000a2816200018f565b5050806001600160a01b031663c45a01556040518163ffffffff1660e01b815260040160206040518083038186803b158015620000de57600080fd5b505afa158015620000f3573d6000803e3d6000fd5b505050506040513d601f19601f82011682018060405250810190620001199190620003b2565b6001600160601b0319606091821b811660805291901b1660a05250620005d49050565b3390565b6200014c82826200023c565b5050565b80516200017a5760405162461bcd60e51b815260040162000171906200050a565b60405180910390fd5b80516200014c906002906020840190620002ef565b60006200019b6200013c565b9050620001b8600080516020620027b183398151915282620002c6565b620001d75760405162461bcd60e51b81526004016200017190620004c2565b81620001f75760405162461bcd60e51b8152600401620001719062000541565b600182905560405130907ff43f23b7a28e6f8ce6843a21bd7b48bce778aa913b8c8cf459edf7d770e8d38a906200023090859062000578565b60405180910390a25050565b620002488282620002c6565b6200014c576000828152602081815260408083206001600160a01b03851684529091529020805460ff19166001179055620002826200013c565b6001600160a01b0316816001600160a01b0316837f2f8788117e7eff1d82e926ec794901d17c78024a50270940304540a733656f0d60405160405180910390a45050565b6000918252602082815260408084206001600160a01b0393909316845291905290205460ff1690565b828054620002fd9062000581565b90600052602060002090601f0160209004810192826200032157600085556200036c565b82601f106200033c57805160ff19168380011785556200036c565b828001600101855582156200036c579182015b828111156200036c5782518255916020019190600101906200034f565b506200037a9291506200037e565b5090565b5b808211156200037a57600081556001016200037f565b80516001600160a01b0381168114620003ad57600080fd5b919050565b600060208284031215620003c4578081fd5b620003cf8262000395565b9392505050565b600080600060608486031215620003eb578182fd5b83516001600160401b038082111562000402578384fd5b818601915086601f83011262000416578384fd5b8151818111156200042b576200042b620005be565b6040516020601f8301601f1916820181018481118382101715620004535762000453620005be565b60405282825284830181018a10156200046a578687fd5b8693505b828410156200048d57848401810151828501820152928301926200046e565b828411156200049e57868184840101525b8801519096509450620004b992505060408601905062000395565b90509250925092565b60208082526028908201527f4d61696e7461696e61626c653a2043616c6c6572206973206e6f742061206d6160408201526734b73a30b4b732b960c11b606082015260800190565b60208082526014908201527f496e76616c69642061646170746572206e616d65000000000000000000000000604082015260600190565b60208082526014908201527f496e76616c6964206761732d657374696d617465000000000000000000000000604082015260600190565b90815260200190565b6002810460018216806200059657607f821691505b60208210811415620005b857634e487b7160e01b600052602260045260246000fd5b50919050565b634e487b7160e01b600052604160045260246000fd5b60805160601c60a05160601c6121a36200060e600039600081816106cf01526117f301526000818161068a01526112d501526121a36000f3fe6080604052600436106101bb5760003560e01c80637ae26773116100ec578063a217fddf1161008a578063eab90da611610064578063eab90da6146104ae578063ef99893a146104ce578063f2fde38b146104ee578063f87422541461050e576101c2565b8063a217fddf14610459578063d547741f1461046e578063d8baf7cf1461048e576101c2565b80638bb9c5bf116100c65780638bb9c5bf146103e45780638ffbc78d1461040457806391d148541461041957806397efe68c14610439576101c2565b80637ae267731461038457806384a33e63146103a45780638980f11f146103c4576101c2565b806332fe7b26116101595780634ebb7916116101335780634ebb79161461030f57806367b2634e1461032f57806369cff80d1461034f5780636b453c1f14610364576101c2565b806332fe7b26146102c557806336568abe146102da57806338d967a5146102fa576101c2565b806319549170116101955780631954917014610241578063248a9ca3146102635780632dd31000146102835780632f2ff15d146102a5576101c2565b806301ffc9a7146101c757806306fdde03146101fd57806314d4cddb1461021f576101c2565b366101c257005b600080fd5b3480156101d357600080fd5b506101e76101e2366004611ab6565b610523565b6040516101f49190611cbf565b60405180910390f35b34801561020957600080fd5b50610212610569565b6040516101f49190611cec565b34801561022b57600080fd5b506102346105f7565b6040516101f49190611ce3565b34801561024d57600080fd5b5061026161025c366004611a42565b6105fd565b005b34801561026f57600080fd5b5061023461027e366004611a7a565b610673565b34801561028f57600080fd5b50610298610688565b6040516101f49190611c55565b3480156102b157600080fd5b506102616102c0366004611a92565b6106ac565b3480156102d157600080fd5b506102986106cd565b3480156102e657600080fd5b506102616102f5366004611a92565b6106f1565b34801561030657600080fd5b506101e7610737565b34801561031b57600080fd5b5061026161032a366004611a7a565b610740565b34801561033b57600080fd5b5061026161034a366004611a7a565b610826565b34801561035b57600080fd5b5061023461087e565b34801561037057600080fd5b5061026161037f366004611888565b610884565b34801561039057600080fd5b5061026161039f3660046118c0565b6108b1565b3480156103b057600080fd5b506102616103bf366004611a7a565b610918565b3480156103d057600080fd5b506102616103df3660046118f8565b6109be565b3480156103f057600080fd5b506102616103ff366004611a7a565b610a8a565b34801561041057600080fd5b506101e7610aa0565b34801561042557600080fd5b506101e7610434366004611a92565b610aae565b34801561044557600080fd5b50610261610454366004611a42565b610ad7565b34801561046557600080fd5b50610234610b3d565b34801561047a57600080fd5b50610261610489366004611a92565b610b42565b34801561049a57600080fd5b506102616104a9366004611888565b610b5e565b3480156104ba57600080fd5b506102616104c9366004611b5a565b610b88565b3480156104da57600080fd5b506102346104e9366004611af6565b610d30565b3480156104fa57600080fd5b50610261610509366004611888565b610d45565b34801561051a57600080fd5b50610234610d67565b60006001600160e01b031982167f7965db0b000000000000000000000000000000000000000000000000000000001480610561575061056182610d8b565b90505b919050565b60028054610576906120c8565b80601f01602080910402602001604051908101604052809291908181526020018280546105a2906120c8565b80156105ef5780601f106105c4576101008083540402835291602001916105ef565b820191906000526020600020905b8154815290600101906020018083116105d257829003601f168201915b505050505081565b60045481565b6000610607610dbd565b90506106337f339759585899103d2ace64958e37e18ccb0504652c81d4a1b8aa80fe2126ab9582610aae565b6106585760405162461bcd60e51b815260040161064f90611de8565b60405180910390fd5b50600380549115156101000261ff0019909216919091179055565b60009081526020819052604090206001015490565b7f000000000000000000000000000000000000000000000000000000000000000081565b6106b582610673565b6106be81610dc1565b6106c88383610dd2565b505050565b7f000000000000000000000000000000000000000000000000000000000000000081565b6106f9610dbd565b6001600160a01b0316816001600160a01b0316146107295760405162461bcd60e51b815260040161064f90611fa2565b6107338282610e57565b5050565b60035460ff1681565b600061074a610dbd565b90506107767f339759585899103d2ace64958e37e18ccb0504652c81d4a1b8aa80fe2126ab9582610aae565b6107925760405162461bcd60e51b815260040161064f90611de8565b600082116107b25760405162461bcd60e51b815260040161064f90611e45565b604051339083156108fc029084906000818181858888f193505050501580156107df573d6000803e3d6000fd5b5060006001600160a01b03167f8c1256b8896378cd5044f80c202f9772b9d77dc85c8a6eb51967210b09bfaa288360405161081a9190611ce3565b60405180910390a25050565b6000610830610dbd565b905061085c7f339759585899103d2ace64958e37e18ccb0504652c81d4a1b8aa80fe2126ab9582610aae565b6108785760405162461bcd60e51b815260040161064f90611de8565b50600455565b60015481565b6108ae7f339759585899103d2ace64958e37e18ccb0504652c81d4a1b8aa80fe2126ab95826106ac565b50565b60006108bb610dbd565b90506108e77f339759585899103d2ace64958e37e18ccb0504652c81d4a1b8aa80fe2126ab9582610aae565b6109035760405162461bcd60e51b815260040161064f90611de8565b6106c86001600160a01b038416836000610eda565b6000610922610dbd565b905061094e7f339759585899103d2ace64958e37e18ccb0504652c81d4a1b8aa80fe2126ab9582610aae565b61096a5760405162461bcd60e51b815260040161064f90611de8565b816109875760405162461bcd60e51b815260040161064f90611eb1565b600182905560405130907ff43f23b7a28e6f8ce6843a21bd7b48bce778aa913b8c8cf459edf7d770e8d38a9061081a908590611ce3565b60006109c8610dbd565b90506109f47f339759585899103d2ace64958e37e18ccb0504652c81d4a1b8aa80fe2126ab9582610aae565b610a105760405162461bcd60e51b815260040161064f90611de8565b60008211610a305760405162461bcd60e51b815260040161064f90611e45565b610a446001600160a01b0384163384611002565b826001600160a01b03167f8c1256b8896378cd5044f80c202f9772b9d77dc85c8a6eb51967210b09bfaa2883604051610a7d9190611ce3565b60405180910390a2505050565b6000610a94610dbd565b905061073382826106f1565b600354610100900460ff1681565b6000918252602082815260408084206001600160a01b0393909316845291905290205460ff1690565b6000610ae1610dbd565b9050610b0d7f339759585899103d2ace64958e37e18ccb0504652c81d4a1b8aa80fe2126ab9582610aae565b610b295760405162461bcd60e51b815260040161064f90611de8565b506003805460ff1916911515919091179055565b600081565b610b4b82610673565b610b5481610dc1565b6106c88383610e57565b6108ae7f339759585899103d2ace64958e37e18ccb0504652c81d4a1b8aa80fe2126ab9582610b42565b6040517f70a082310000000000000000000000000000000000000000000000000000000081526000906001600160a01b038416906370a0823190610bd0908590600401611c55565b60206040518083038186803b158015610be857600080fd5b505afa158015610bfc573d6000803e3d6000fd5b505050506040513d601f19601f82011682018060405250810190610c209190611ade565b9050610c2f8686868686611021565b600081846001600160a01b03166370a08231856040518263ffffffff1660e01b8152600401610c5e9190611c55565b60206040518083038186803b158015610c7657600080fd5b505afa158015610c8a573d6000803e3d6000fd5b505050506040513d601f19601f82011682018060405250810190610cae9190611ade565b610cb8919061206e565b905085811015610cda5760405162461bcd60e51b815260040161064f90611d1f565b836001600160a01b0316856001600160a01b03167fe2bdbc6b7225eb0a972ac943c485a6cc05f7c6811838bce8903f23200fb744fa8989604051610d1f929190611fff565b60405180910390a350505050505050565b6000610d3d848484611195565b949350505050565b6000610d4f610dbd565b9050610d5c6000836106ac565b6107336000826106f1565b7f339759585899103d2ace64958e37e18ccb0504652c81d4a1b8aa80fe2126ab9581565b6001600160e01b031981167f01ffc9a70000000000000000000000000000000000000000000000000000000014919050565b3390565b6108ae81610dcd610dbd565b6111ad565b610ddc8282610aae565b610733576000828152602081815260408083206001600160a01b03851684529091529020805460ff19166001179055610e13610dbd565b6001600160a01b0316816001600160a01b0316837f2f8788117e7eff1d82e926ec794901d17c78024a50270940304540a733656f0d60405160405180910390a45050565b610e618282610aae565b15610733576000828152602081815260408083206001600160a01b03851684529091529020805460ff19169055610e96610dbd565b6001600160a01b0316816001600160a01b0316837ff6391f5c32d9c69d2a47ea670b442974b53935d1edc7fd64eb21e047a839171b60405160405180910390a45050565b801580610f7b57506040517fdd62ed3e0000000000000000000000000000000000000000000000000000000081526001600160a01b0384169063dd62ed3e90610f299030908690600401611c69565b60206040518083038186803b158015610f4157600080fd5b505afa158015610f55573d6000803e3d6000fd5b505050506040513d601f19601f82011682018060405250810190610f799190611ade565b155b610f975760405162461bcd60e51b815260040161064f90611f45565b6106c88363095ea7b360e01b8484604051602401610fb6929190611c83565b60408051601f198184030181529190526020810180517bffffffffffffffffffffffffffffffffffffffffffffffffffffffff166001600160e01b031990931692909217909152611211565b6106c88363a9059cbb60e01b8484604051602401610fb6929190611c83565b60008060006110318887876112cd565b925092509250868310156110575760405162461bcd60e51b815260040161064f90611d8b565b6040517fa9059cbb0000000000000000000000000000000000000000000000000000000081526001600160a01b0387169063a9059cbb9061109e9085908c90600401611c83565b602060405180830381600087803b1580156110b857600080fd5b505af11580156110cc573d6000803e3d6000fd5b505050506040513d601f19601f820116820180604052508101906110f09190611a5e565b506040517f53c059a00000000000000000000000000000000000000000000000000000000081526001600160a01b038316906353c059a0906111389084908890600401611cca565b6040805180830381600087803b15801561115157600080fd5b505af1158015611165573d6000803e3d6000fd5b505050506040513d601f19601f820116820180604052508101906111899190611b37565b50505050505050505050565b60006111a28484846112cd565b509095945050505050565b6111b78282610aae565b610733576111cf816001600160a01b0316601461156e565b6111da83602061156e565b6040516020016111eb929190611bd4565b60408051601f198184030181529082905262461bcd60e51b825261064f91600401611cec565b600080836001600160a01b03168360405161122c9190611bb8565b6000604051808303816000865af19150503d8060008114611269576040519150601f19603f3d011682016040523d82523d6000602084013e61126e565b606091505b5091509150816112905760405162461bcd60e51b815260040161064f90611e7c565b8051156112c757808060200190518101906112ab9190611a5e565b6112c75760405162461bcd60e51b815260040161064f90611ee8565b50505050565b6000806000807f00000000000000000000000000000000000000000000000000000000000000006001600160a01b0316636622e0d787876040518363ffffffff1660e01b8152600401611321929190611c69565b60006040518083038186803b15801561133957600080fd5b505afa15801561134d573d6000803e3d6000fd5b505050506040513d6000823e601f3d908101601f191682016040526113759190810190611923565b9050600081511180156113885750600087115b156115645760005b8151811015611562578181815181106113b957634e487b7160e01b600052603260045260246000fd5b6020026020010151606001511580156113d5575060035460ff16155b156113df57611552565b8181815181106113ff57634e487b7160e01b600052603260045260246000fd5b6020026020010151604001511580156114205750600354610100900460ff16155b1561142a57611552565b856001600160a01b031682828151811061145457634e487b7160e01b600052603260045260246000fd5b6020026020010151602001516001600160a01b031663b7d19fc46040518163ffffffff1660e01b815260040160206040518083038186803b15801561149857600080fd5b505afa1580156114ac573d6000803e3d6000fd5b505050506040513d601f19601f820116820180604052508101906114d091906118a4565b6001600160a01b0316149250600061151483838151811061150157634e487b7160e01b600052603260045260246000fd5b6020026020010151602001518a8661176c565b9050858111156115505780955082828151811061154157634e487b7160e01b600052603260045260246000fd5b60200260200101516020015194505b505b61155b81612103565b9050611390565b505b5093509350939050565b6060600061157d83600261204f565b611588906002612037565b67ffffffffffffffff8111156115ae57634e487b7160e01b600052604160045260246000fd5b6040519080825280601f01601f1916602001820160405280156115d8576020820181803683370190505b5090507f30000000000000000000000000000000000000000000000000000000000000008160008151811061161d57634e487b7160e01b600052603260045260246000fd5b60200101906001600160f81b031916908160001a9053507f78000000000000000000000000000000000000000000000000000000000000008160018151811061167657634e487b7160e01b600052603260045260246000fd5b60200101906001600160f81b031916908160001a905350600061169a84600261204f565b6116a5906001612037565b90505b6001811115611746577f303132333435363738396162636465660000000000000000000000000000000085600f16601081106116f457634e487b7160e01b600052603260045260246000fd5b1a60f81b82828151811061171857634e487b7160e01b600052603260045260246000fd5b60200101906001600160f81b031916908160001a90535060049490941c9361173f816120b1565b90506116a8565b5083156117655760405162461bcd60e51b815260040161064f90611d56565b9392505050565b60008084848460405160240161178493929190611c9c565b60408051601f198184030181529181526020820180517bffffffffffffffffffffffffffffffffffffffffffffffffffffffff167f2004b72400000000000000000000000000000000000000000000000000000000179052600454905191925060009182916001600160a01b037f0000000000000000000000000000000000000000000000000000000000000000169161181f908690611bb8565b6000604051808303818686fa925050503d806000811461185b576040519150601f19603f3d011682016040523d82523d6000602084013e611860565b606091505b5091509150811561187357602081015193505b5050509392505050565b80516105648161215f565b600060208284031215611899578081fd5b81356117658161214a565b6000602082840312156118b5578081fd5b81516117658161214a565b600080604083850312156118d2578081fd5b82356118dd8161214a565b915060208301356118ed8161214a565b809150509250929050565b6000806040838503121561190a578182fd5b82356119158161214a565b946020939093013593505050565b60006020808385031215611935578182fd5b825167ffffffffffffffff8082111561194c578384fd5b818501915085601f83011261195f578384fd5b81518181111561197157611971612134565b61197e848583020161200d565b818152848101908486016080808502870188018b101561199c578889fd5b8896505b84871015611a335780828c0312156119b6578889fd5b6040805182810181811089821117156119d1576119d1612134565b8252835162ffffff811681146119e5578b8cfd5b8152838a01516119f48161214a565b818b0152611a0384830161187d565b8282015260609150611a1682850161187d565b9181019190915284526001969096019592870192908101906119a0565b50909998505050505050505050565b600060208284031215611a53578081fd5b81356117658161215f565b600060208284031215611a6f578081fd5b81516117658161215f565b600060208284031215611a8b578081fd5b5035919050565b60008060408385031215611aa4578182fd5b8235915060208301356118ed8161214a565b600060208284031215611ac7578081fd5b81356001600160e01b031981168114611765578182fd5b600060208284031215611aef578081fd5b5051919050565b600080600060608486031215611b0a578081fd5b833592506020840135611b1c8161214a565b91506040840135611b2c8161214a565b809150509250925092565b60008060408385031215611b49578182fd5b505080516020909101519092909150565b600080600080600060a08688031215611b71578283fd5b85359450602086013593506040860135611b8a8161214a565b92506060860135611b9a8161214a565b91506080860135611baa8161214a565b809150509295509295909350565b60008251611bca818460208701612085565b9190910192915050565b60007f416363657373436f6e74726f6c3a206163636f756e742000000000000000000082528351611c0c816017850160208801612085565b7f206973206d697373696e6720726f6c65200000000000000000000000000000006017918401918201528351611c49816028840160208801612085565b01602801949350505050565b6001600160a01b0391909116815260200190565b6001600160a01b0392831681529116602082015260400190565b6001600160a01b03929092168252602082015260400190565b6001600160a01b0393909316835260208301919091521515604082015260600190565b901515815260200190565b91151582526001600160a01b0316602082015260400190565b90815260200190565b6000602082528251806020840152611d0b816040850160208701612085565b601f01601f19169190910160400192915050565b60208082526017908201527f496e73756666696369656e7420616d6f756e742d6f7574000000000000000000604082015260600190565b6020808252818101527f537472696e67733a20686578206c656e67746820696e73756666696369656e74604082015260600190565b6020808252602a908201527f4c42416461707465723a20696e73756666696369656e7420616d6f756e744f7560408201527f7420726563656976656400000000000000000000000000000000000000000000606082015260800190565b60208082526028908201527f4d61696e7461696e61626c653a2043616c6c6572206973206e6f742061206d6160408201527f696e7461696e6572000000000000000000000000000000000000000000000000606082015260800190565b6020808252601e908201527f59616b416461707465723a204e6f7468696e6720746f207265636f7665720000604082015260600190565b6020808252818101527f5361666545524332303a206c6f772d6c6576656c2063616c6c206661696c6564604082015260600190565b60208082526014908201527f496e76616c6964206761732d657374696d617465000000000000000000000000604082015260600190565b6020808252602a908201527f5361666545524332303a204552433230206f7065726174696f6e20646964206e60408201527f6f74207375636365656400000000000000000000000000000000000000000000606082015260800190565b60208082526036908201527f5361666545524332303a20617070726f76652066726f6d206e6f6e2d7a65726f60408201527f20746f206e6f6e2d7a65726f20616c6c6f77616e636500000000000000000000606082015260800190565b6020808252602f908201527f416363657373436f6e74726f6c3a2063616e206f6e6c792072656e6f756e636560408201527f20726f6c657320666f722073656c660000000000000000000000000000000000606082015260800190565b918252602082015260400190565b60405181810167ffffffffffffffff8111828210171561202f5761202f612134565b604052919050565b6000821982111561204a5761204a61211e565b500190565b60008160001904831182151516156120695761206961211e565b500290565b6000828210156120805761208061211e565b500390565b60005b838110156120a0578181015183820152602001612088565b838111156112c75750506000910152565b6000816120c0576120c061211e565b506000190190565b6002810460018216806120dc57607f821691505b602082108114156120fd57634e487b7160e01b600052602260045260246000fd5b50919050565b60006000198214156121175761211761211e565b5060010190565b634e487b7160e01b600052601160045260246000fd5b634e487b7160e01b600052604160045260246000fd5b6001600160a01b03811681146108ae57600080fd5b80151581146108ae57600080fdfea2646970667358221220f684d7b73f56ff92bd6de8db8b49f852a59143aee550f9d17ce0ca1e9976c74c64736f6c63430008000033339759585899103d2ace64958e37e18ccb0504652c81d4a1b8aa80fe2126ab95",
  "devdoc": {
    "kind": "dev",
    "methods": {
      "getRoleAdmin(bytes32)": {
        "details": "Returns the admin role that controls `role`. See {grantRole} and {revokeRole}. To change a role's admin, use {_setRoleAdmin}."
      },
      "grantRole(bytes32,address)": {
        "details": "Grants `role` to `account`. If `account` had not been already granted `role`, emits a {RoleGranted} event. Requirements: - the caller must have ``role``'s admin role. May emit a {RoleGranted} event."
      },
      "hasRole(bytes32,address)": {
        "details": "Returns `true` if `account` has been granted `role`."
      },
      "renounceRole(bytes32,address)": {
        "details": "Revokes `role` from the calling account. Roles are often managed via {grantRole} and {revokeRole}: this function's purpose is to provide a mechanism for accounts to lose their privileges if they are compromised (such as when a trusted device is misplaced). If the calling account had been revoked `role`, emits a {RoleRevoked} event. Requirements: - the caller must be `account`. May emit a {RoleRevoked} event."
      },
      "revokeRole(bytes32,address)": {
        "details": "Revokes `role` from `account`. If `account` had been granted `role`, emits a {RoleRevoked} event. Requirements: - the caller must have ``role``'s admin role. May emit a {RoleRevoked} event."
      },
      "supportsInterface(bytes4)": {
        "details": "See {IERC165-supportsInterface}."
      }
    },
    "version": 1
  },
  "userdoc": {
    "kind": "user",
    "methods": {},
    "version": 1
  },
  "storageLayout": {
    "storage": [
      {
        "astId": 24,
        "contract": "src/contracts/adapters/LBAdapter.sol:LBAdapter",
        "label": "_roles",
        "offset": 0,
        "slot": "0",
        "type": "t_mapping(t_bytes32,t_struct(RoleData)19_storage)"
      },
      {
        "astId": 1452,
        "contract": "src/contracts/adapters/LBAdapter.sol:LBAdapter",
        "label": "swapGasEstimate",
        "offset": 0,
        "slot": "1",
        "type": "t_uint256"
      },
      {
        "astId": 1454,
        "contract": "src/contracts/adapters/LBAdapter.sol:LBAdapter",
        "label": "name",
        "offset": 0,
        "slot": "2",
        "type": "t_string_storage"
      },
      {
        "astId": 10640,
        "contract": "src/contracts/adapters/LBAdapter.sol:LBAdapter",
        "label": "allowIgnoredPairs",
        "offset": 0,
        "slot": "3",
        "type": "t_bool"
      },
      {
        "astId": 10643,
        "contract": "src/contracts/adapters/LBAdapter.sol:LBAdapter",
        "label": "allowExternalPairs",
        "offset": 1,
        "slot": "3",
        "type": "t_bool"
      },
      {
        "astId": 10646,
        "contract": "src/contracts/adapters/LBAdapter.sol:LBAdapter",
        "label": "quoteGasLimit",
        "offset": 0,
        "slot": "4",
        "type": "t_uint256"
      }
    ],
    "types": {
      "t_address": {
        "encoding": "inplace",
        "label": "address",
        "numberOfBytes": "20"
      },
      "t_bool": {
        "encoding": "inplace",
        "label": "bool",
        "numberOfBytes": "1"
      },
      "t_bytes32": {
        "encoding": "inplace",
        "label": "bytes32",
        "numberOfBytes": "32"
      },
      "t_mapping(t_address,t_bool)": {
        "encoding": "mapping",
        "key": "t_address",
        "label": "mapping(address => bool)",
        "numberOfBytes": "32",
        "value": "t_bool"
      },
      "t_mapping(t_bytes32,t_struct(RoleData)19_storage)": {
        "encoding": "mapping",
        "key": "t_bytes32",
        "label": "mapping(bytes32 => struct AccessControl.RoleData)",
        "numberOfBytes": "32",
        "value": "t_struct(RoleData)19_storage"
      },
      "t_string_storage": {
        "encoding": "bytes",
        "label": "string",
        "numberOfBytes": "32"
      },
      "t_struct(RoleData)19_storage": {
        "encoding": "inplace",
        "label": "struct AccessControl.RoleData",
        "members": [
          {
            "astId": 16,
            "contract": "src/contracts/adapters/LBAdapter.sol:LBAdapter",
            "label": "members",
            "offset": 0,
            "slot": "0",
            "type": "t_mapping(t_address,t_bool)"
          },
          {
            "astId": 18,
            "contract": "src/contracts/adapters/LBAdapter.sol:LBAdapter",
            "label": "adminRole",
            "offset": 0,
            "slot": "1",
            "type": "t_bytes32"
          }
        ],
        "numberOfBytes": "64"
      },
      "t_uint256": {
        "encoding": "inplace",
        "label": "uint256",
        "numberOfBytes": "32"
      }
    }
  }
}