{
  "address": "0xC3BEe4623A7aE76Ca0805078e98069DEbF79E826",
  "abi": [
    {
      "inputs": [
        {
          "internalType": "uint256",
          "name": "_swapGasEstimate",
          "type": "uint256"
        }
      ],
      "stateMutability": "nonpayable",
      "type": "constructor"
    },
    {
      "anonymous": false,
      "inputs": [
        {
          "indexed": true,
          "internalType": "address",
          "name": "previousOwner",
          "type": "address"
        },
        {
          "indexed": true,
          "internalType": "address",
          "name": "newOwner",
          "type": "address"
        }
      ],
      "name": "OwnershipTransferred",
      "type": "event"
    },
    {
      "anonymous": false,
      "inputs": [
        {
          "indexed": true,
          "internalType": "address",
          "name": "_asset",
          "type": "address"
        },
        {
          "indexed": false,
          "internalType": "uint256",
          "name": "amount",
          "type": "uint256"
        }
      ],
      "name": "Recovered",
      "type": "event"
    },
    {
      "anonymous": false,
      "inputs": [
        {
          "indexed": true,
          "internalType": "address",
          "name": "_adapter",
          "type": "address"
        },
        {
          "indexed": false,
          "internalType": "uint256",
          "name": "_newEstimate",
          "type": "uint256"
        }
      ],
      "name": "UpdatedGasEstimate",
      "type": "event"
    },
    {
      "anonymous": false,
      "inputs": [
        {
          "indexed": true,
          "internalType": "address",
          "name": "_tokenFrom",
          "type": "address"
        },
        {
          "indexed": true,
          "internalType": "address",
          "name": "_tokenTo",
          "type": "address"
        },
        {
          "indexed": false,
          "internalType": "uint256",
          "name": "_amountIn",
          "type": "uint256"
        },
        {
          "indexed": false,
          "internalType": "uint256",
          "name": "_amountOut",
          "type": "uint256"
        }
      ],
      "name": "YakAdapterSwap",
      "type": "event"
    },
    {
      "inputs": [],
      "name": "ID",
      "outputs": [
        {
          "internalType": "bytes32",
          "name": "",
          "type": "bytes32"
        }
      ],
      "stateMutability": "view",
      "type": "function"
    },
    {
      "inputs": [],
      "name": "YAK",
      "outputs": [
        {
          "internalType": "address",
          "name": "",
          "type": "address"
        }
      ],
      "stateMutability": "view",
      "type": "function"
    },
    {
      "inputs": [],
      "name": "mYAK",
      "outputs": [
        {
          "internalType": "address",
          "name": "",
          "type": "address"
        }
      ],
      "stateMutability": "view",
      "type": "function"
    },
    {
      "inputs": [],
      "name": "name",
      "outputs": [
        {
          "internalType": "string",
          "name": "",
          "type": "string"
        }
      ],
      "stateMutability": "view",
      "type": "function"
    },
    {
      "inputs": [],
      "name": "owner",
      "outputs": [
        {
          "internalType": "address",
          "name": "",
          "type": "address"
        }
      ],
      "stateMutability": "view",
      "type": "function"
    },
    {
      "inputs": [
        {
          "internalType": "uint256",
          "name": "_amountIn",
          "type": "uint256"
        },
        {
          "internalType": "address",
          "name": "_tokenIn",
          "type": "address"
        },
        {
          "internalType": "address",
          "name": "_tokenOut",
          "type": "address"
        }
      ],
      "name": "query",
      "outputs": [
        {
          "internalType": "uint256",
          "name": "",
          "type": "uint256"
        }
      ],
      "stateMutability": "view",
      "type": "function"
    },
    {
      "inputs": [
        {
          "internalType": "uint256",
          "name": "_amount",
          "type": "uint256"
        }
      ],
      "name": "recoverAVAX",
      "outputs": [],
      "stateMutability": "nonpayable",
      "type": "function"
    },
    {
      "inputs": [
        {
          "internalType": "address",
          "name": "_tokenAddress",
          "type": "address"
        },
        {
          "internalType": "uint256",
          "name": "_tokenAmount",
          "type": "uint256"
        }
      ],
      "name": "recoverERC20",
      "outputs": [],
      "stateMutability": "nonpayable",
      "type": "function"
    },
    {
      "inputs": [],
      "name": "renounceOwnership",
      "outputs": [],
      "stateMutability": "nonpayable",
      "type": "function"
    },
    {
      "inputs": [
        {
          "internalType": "address",
          "name": "_token",
          "type": "address"
        },
        {
          "internalType": "address",
          "name": "_spender",
          "type": "address"
        }
      ],
      "name": "revokeAllowance",
      "outputs": [],
      "stateMutability": "nonpayable",
      "type": "function"
    },
    {
      "inputs": [],
      "name": "setAllowances",
      "outputs": [],
      "stateMutability": "nonpayable",
      "type": "function"
    },
    {
      "inputs": [
        {
          "internalType": "uint256",
          "name": "_estimate",
          "type": "uint256"
        }
      ],
      "name": "setSwapGasEstimate",
      "outputs": [],
      "stateMutability": "nonpayable",
      "type": "function"
    },
    {
      "inputs": [
        {
          "internalType": "uint256",
          "name": "_amountIn",
          "type": "uint256"
        },
        {
          "internalType": "uint256",
          "name": "_amountOut",
          "type": "uint256"
        },
        {
          "internalType": "address",
          "name": "_fromToken",
          "type": "address"
        },
        {
          "internalType": "address",
          "name": "_toToken",
          "type": "address"
        },
        {
          "internalType": "address",
          "name": "_to",
          "type": "address"
        }
      ],
      "name": "swap",
      "outputs": [],
      "stateMutability": "nonpayable",
      "type": "function"
    },
    {
      "inputs": [],
      "name": "swapGasEstimate",
      "outputs": [
        {
          "internalType": "uint256",
          "name": "",
          "type": "uint256"
        }
      ],
      "stateMutability": "view",
      "type": "function"
    },
    {
      "inputs": [
        {
          "internalType": "address",
          "name": "newOwner",
          "type": "address"
        }
      ],
      "name": "transferOwnership",
      "outputs": [],
      "stateMutability": "nonpayable",
      "type": "function"
    },
    {
      "stateMutability": "payable",
      "type": "receive"
    }
  ],
  "transactionHash": "0xc8d8191f7dc908ca306669e165829def1ac344078dc99d822148cd0838683951",
  "args": [
    82000
  ],
  "solcInputHash": "ff94ebf0a91a1596d693132be134d989",
  "bytecode": "0x60806040523480156200001157600080fd5b506040516200175538038062001755833981810160405260208110156200003757600080fd5b5051600062000045620000ab565b600080546001600160a01b0319166001600160a01b0383169081178255604051929350917f8be0079c531659141344cd1fd0a4f28419497f9722a3daafe3b4186f6b6457e0908290a3506200009a81620000af565b620000a462000166565b5062000556565b3390565b620000b9620000ab565b6001600160a01b0316620000cc620001da565b6001600160a01b03161462000128576040805162461bcd60e51b815260206004820181905260248201527f4f776e61626c653a2043616c6c6572206973206e6f7420746865206f776e6572604482015290519081900360640190fd5b600181905560408051828152905130917ff43f23b7a28e6f8ce6843a21bd7b48bce778aa913b8c8cf459edf7d770e8d38a919081900360200190a250565b6200019573ddaaad7366b455aff8e7c82940c43ceb5829b60480600019620001e9602090811b62000b2217901c565b620001d87359414b3089ce2af0010e7523dea7e2b35d776ec773ddaaad7366b455aff8e7c82940c43ceb5829b604600019620001e9602090811b62000b2217901c565b565b6000546001600160a01b031690565b801580620002785750604051636eb1769f60e11b81526001600160a01b0384169063dd62ed3e9062000222903090869060040162000447565b60206040518083038186803b1580156200023b57600080fd5b505afa15801562000250573d6000803e3d6000fd5b505050506040513d601f19601f82011682018060405250810190620002769190620003f2565b155b620002a05760405162461bcd60e51b81526004016200029790620004f9565b60405180910390fd5b620002fb8363095ea7b360e01b8484604051602401620002c292919062000461565b60408051808303601f190181529190526020810180516001600160e01b0319939093166001600160e01b03938416179052906200030016565b505050565b600080836001600160a01b0316836040516200031d91906200040b565b6000604051808303816000865af19150503d80600081146200035c576040519150601f19603f3d011682016040523d82523d6000602084013e62000361565b606091505b509150915081620003865760405162461bcd60e51b815260040162000297906200047a565b805115620003c35780806020019051810190620003a49190620003c9565b620003c35760405162461bcd60e51b81526004016200029790620004af565b50505050565b600060208284031215620003db578081fd5b81518015158114620003eb578182fd5b9392505050565b60006020828403121562000404578081fd5b5051919050565b60008251815b818110156200042d576020818601810151858301520162000411565b818111156200043c5782828501525b509190910192915050565b6001600160a01b0392831681529116602082015260400190565b6001600160a01b03929092168252602082015260400190565b6020808252818101527f5361666545524332303a206c6f772d6c6576656c2063616c6c206661696c6564604082015260600190565b6020808252602a908201527f5361666545524332303a204552433230206f7065726174696f6e20646964206e6040820152691bdd081cdd58d8d9595960b21b606082015260800190565b60208082526036908201527f5361666545524332303a20617070726f76652066726f6d206e6f6e2d7a65726f60408201527f20746f206e6f6e2d7a65726f20616c6c6f77616e636500000000000000000000606082015260800190565b6111ef80620005666000396000f3fe6080604052600436106100ec5760003560e01c80638980f11f1161008a578063dbd9a4d411610059578063dbd9a4d4146102f8578063eab90da61461030d578063ef99893a1461035e578063f2fde38b1461039f576100f3565b80638980f11f146102805780638da5cb5b146102b9578063b3cea217146102ce578063cfdc463e146102e3576100f3565b80636a4ddbe8116100c65780636a4ddbe8146101d5578063715018a6146102065780637ae267731461021b57806384a33e6314610256576100f3565b806306fdde03146100f85780634ebb79161461018257806369cff80d146101ae576100f3565b366100f357005b600080fd5b34801561010457600080fd5b5061010d6103d2565b6040805160208082528351818301528351919283929083019185019080838360005b8381101561014757818101518382015260200161012f565b50505050905090810190601f1680156101745780820380516001836020036101000a031916815260200191505b509250505060405180910390f35b34801561018e57600080fd5b506101ac600480360360208110156101a557600080fd5b503561045d565b005b3480156101ba57600080fd5b506101c361058e565b60408051918252519081900360200190f35b3480156101e157600080fd5b506101ea610594565b604080516001600160a01b039092168252519081900360200190f35b34801561021257600080fd5b506101ac6105ac565b34801561022757600080fd5b506101ac6004803603604081101561023e57600080fd5b506001600160a01b0381358116916020013516610677565b34801561026257600080fd5b506101ac6004803603602081101561027957600080fd5b5035610704565b34801561028c57600080fd5b506101ac600480360360408110156102a357600080fd5b506001600160a01b0381351690602001356107b6565b3480156102c557600080fd5b506101ea6108d6565b3480156102da57600080fd5b506101c36108e5565b3480156102ef57600080fd5b506101ea610909565b34801561030457600080fd5b506101ac610921565b34801561031957600080fd5b506101ac600480360360a081101561033057600080fd5b508035906020810135906001600160a01b036040820135811691606081013582169160809091013516610979565b34801561036a57600080fd5b506101c36004803603606081101561038157600080fd5b508035906001600160a01b03602082013581169160400135166109ea565b3480156103ab57600080fd5b506101ac600480360360208110156103c257600080fd5b50356001600160a01b0316610a01565b6002805460408051602060018416156101000260001901909316849004601f810184900484028201840190925281815292918301828280156104555780601f1061042a57610100808354040283529160200191610455565b820191906000526020600020905b81548152906001019060200180831161043857829003601f168201915b505050505081565b610465610c70565b6001600160a01b03166104766108d6565b6001600160a01b0316146104d1576040805162461bcd60e51b815260206004820181905260248201527f4f776e61626c653a2043616c6c6572206973206e6f7420746865206f776e6572604482015290519081900360640190fd5b60008111610526576040805162461bcd60e51b815260206004820152601e60248201527f59616b416461707465723a204e6f7468696e6720746f207265636f7665720000604482015290519081900360640190fd5b604051339082156108fc029083906000818181858888f19350505050158015610553573d6000803e3d6000fd5b506040805182815290516000917f8c1256b8896378cd5044f80c202f9772b9d77dc85c8a6eb51967210b09bfaa28919081900360200190a250565b60015481565b73ddaaad7366b455aff8e7c82940c43ceb5829b60481565b6105b4610c70565b6001600160a01b03166105c56108d6565b6001600160a01b031614610620576040805162461bcd60e51b815260206004820181905260248201527f4f776e61626c653a2043616c6c6572206973206e6f7420746865206f776e6572604482015290519081900360640190fd5b600080546040516001600160a01b03909116907f8be0079c531659141344cd1fd0a4f28419497f9722a3daafe3b4186f6b6457e0908390a36000805473ffffffffffffffffffffffffffffffffffffffff19169055565b61067f610c70565b6001600160a01b03166106906108d6565b6001600160a01b0316146106eb576040805162461bcd60e51b815260206004820181905260248201527f4f776e61626c653a2043616c6c6572206973206e6f7420746865206f776e6572604482015290519081900360640190fd5b6107006001600160a01b038316826000610b22565b5050565b61070c610c70565b6001600160a01b031661071d6108d6565b6001600160a01b031614610778576040805162461bcd60e51b815260206004820181905260248201527f4f776e61626c653a2043616c6c6572206973206e6f7420746865206f776e6572604482015290519081900360640190fd5b600181905560408051828152905130917ff43f23b7a28e6f8ce6843a21bd7b48bce778aa913b8c8cf459edf7d770e8d38a919081900360200190a250565b6107be610c70565b6001600160a01b03166107cf6108d6565b6001600160a01b03161461082a576040805162461bcd60e51b815260206004820181905260248201527f4f776e61626c653a2043616c6c6572206973206e6f7420746865206f776e6572604482015290519081900360640190fd5b6000811161087f576040805162461bcd60e51b815260206004820152601e60248201527f59616b416461707465723a204e6f7468696e6720746f207265636f7665720000604482015290519081900360640190fd5b6108936001600160a01b0383163383610c74565b6040805182815290516001600160a01b038416917f8c1256b8896378cd5044f80c202f9772b9d77dc85c8a6eb51967210b09bfaa28919081900360200190a25050565b6000546001600160a01b031690565b7f8b68732dbbb33fc3105b497e4a9c179f46524a29755673e58b17e7338679826381565b7359414b3089ce2af0010e7523dea7e2b35d776ec781565b61094273ddaaad7366b455aff8e7c82940c43ceb5829b60480600019610b22565b6109777359414b3089ce2af0010e7523dea7e2b35d776ec773ddaaad7366b455aff8e7c82940c43ceb5829b604600019610b22565b565b6109838386610700565b6109908585858585610c93565b816001600160a01b0316836001600160a01b03167fe2bdbc6b7225eb0a972ac943c485a6cc05f7c6811838bce8903f23200fb744fa8787604051808381526020018281526020019250505060405180910390a35050505050565b60006109f7848484610e7e565b90505b9392505050565b610a09610c70565b6001600160a01b0316610a1a6108d6565b6001600160a01b031614610a75576040805162461bcd60e51b815260206004820181905260248201527f4f776e61626c653a2043616c6c6572206973206e6f7420746865206f776e6572604482015290519081900360640190fd5b6001600160a01b038116610aba5760405162461bcd60e51b81526004018080602001828103825260268152602001806111946026913960400191505060405180910390fd5b600080546040516001600160a01b03808516939216917f8be0079c531659141344cd1fd0a4f28419497f9722a3daafe3b4186f6b6457e091a36000805473ffffffffffffffffffffffffffffffffffffffff19166001600160a01b0392909216919091179055565b801580610bc357506040517fdd62ed3e0000000000000000000000000000000000000000000000000000000081526001600160a01b0384169063dd62ed3e90610b719030908690600401611050565b60206040518083038186803b158015610b8957600080fd5b505afa158015610b9d573d6000803e3d6000fd5b505050506040513d601f19601f82011682018060405250810190610bc19190610fff565b155b610be85760405162461bcd60e51b8152600401610bdf90611115565b60405180910390fd5b610c6b8363095ea7b360e01b8484604051602401610c0792919061106a565b60408051601f198184030181529190526020810180517bffffffffffffffffffffffffffffffffffffffffffffffffffffffff167fffffffff0000000000000000000000000000000000000000000000000000000090931692909217909152610f23565b505050565b3390565b610c6b8363a9059cbb60e01b8484604051602401610c0792919061106a565b6001600160a01b03831673ddaaad7366b455aff8e7c82940c43ceb5829b604148015610cdb57506001600160a01b0382167359414b3089ce2af0010e7523dea7e2b35d776ec7145b15610d7857604080517fcabcc3e9000000000000000000000000000000000000000000000000000000008152600481018790526001600160a01b0383166024820152905173ddaaad7366b455aff8e7c82940c43ceb5829b6049163cabcc3e991604480830192600092919082900301818387803b158015610d5b57600080fd5b505af1158015610d6f573d6000803e3d6000fd5b50505050610e77565b6001600160a01b0383167359414b3089ce2af0010e7523dea7e2b35d776ec7148015610dc057506001600160a01b03821673ddaaad7366b455aff8e7c82940c43ceb5829b604145b15610e4057604080517f55954093000000000000000000000000000000000000000000000000000000008152600481018790526001600160a01b0383166024820152905173ddaaad7366b455aff8e7c82940c43ceb5829b60491635595409391604480830192600092919082900301818387803b158015610d5b57600080fd5b60405162461bcd60e51b81526004018080602001828103825260218152602001806111736021913960400191505060405180910390fd5b5050505050565b60006001600160a01b03831673ddaaad7366b455aff8e7c82940c43ceb5829b604148015610ec857506001600160a01b0382167359414b3089ce2af0010e7523dea7e2b35d776ec7145b80610f1657506001600160a01b0383167359414b3089ce2af0010e7523dea7e2b35d776ec7148015610f1657506001600160a01b03821673ddaaad7366b455aff8e7c82940c43ceb5829b604145b156109fa57509192915050565b600080836001600160a01b031683604051610f3e9190611017565b6000604051808303816000865af19150503d8060008114610f7b576040519150601f19603f3d011682016040523d82523d6000602084013e610f80565b606091505b509150915081610fa25760405162461bcd60e51b8152600401610bdf90611083565b805115610fd95780806020019051810190610fbd9190610fdf565b610fd95760405162461bcd60e51b8152600401610bdf906110b8565b50505050565b600060208284031215610ff0578081fd5b815180151581146109fa578182fd5b600060208284031215611010578081fd5b5051919050565b60008251815b81811015611037576020818601810151858301520161101d565b818111156110455782828501525b509190910192915050565b6001600160a01b0392831681529116602082015260400190565b6001600160a01b03929092168252602082015260400190565b6020808252818101527f5361666545524332303a206c6f772d6c6576656c2063616c6c206661696c6564604082015260600190565b6020808252602a908201527f5361666545524332303a204552433230206f7065726174696f6e20646964206e60408201527f6f74207375636365656400000000000000000000000000000000000000000000606082015260800190565b60208082526036908201527f5361666545524332303a20617070726f76652066726f6d206e6f6e2d7a65726f60408201527f20746f206e6f6e2d7a65726f20616c6c6f77616e63650000000000000000000060608201526080019056fe4d696e6959616b416461707465723a20556e737570706f7274656420746f6b656e4f776e61626c653a204e6577206f776e657220697320746865207a65726f2061646472657373a26469706673582212208b3cfb64947108461ad4763c130d9602d12cf64f02c672308d5d4362e804a18d64736f6c63430007060033",
  "devdoc": {
    "kind": "dev",
    "methods": {
      "owner()": {
        "details": "Returns the address of the current owner."
      },
      "recoverAVAX(uint256)": {
        "params": {
          "_amount": "amount"
        }
      },
      "recoverERC20(address,uint256)": {
        "params": {
          "_tokenAddress": "token address",
          "_tokenAmount": "amount to recover"
        }
      },
      "renounceOwnership()": {
        "details": "Leaves the contract without owner. It will not be possible to call `onlyOwner` functions anymore. Can only be called by the current owner. NOTE: Renouncing ownership will leave the contract without an owner, thereby removing any functionality that is only available to the owner."
      },
      "revokeAllowance(address,address)": {
        "params": {
          "_spender": "address",
          "_token": "address"
        }
      },
      "setAllowances()": {
        "details": "Should use modifier `onlyOwner` to avoid griefing"
      },
      "swap(uint256,uint256,address,address,address)": {
        "params": {
          "_amountIn": "input amount in starting token",
          "_amountOut": "amount out in ending token",
          "_fromToken": "ERC20 token being sold",
          "_to": "address where swapped funds should be sent to",
          "_toToken": "ERC20 token being bought"
        }
      },
      "transferOwnership(address)": {
        "details": "Transfers ownership of the contract to a new account (`newOwner`). Can only be called by the current owner."
      }
    },
    "version": 1
  },
  "userdoc": {
    "kind": "user",
    "methods": {
      "recoverAVAX(uint256)": {
        "notice": "Recover AVAX from contract"
      },
      "recoverERC20(address,uint256)": {
        "notice": "Recover ERC20 from contract"
      },
      "revokeAllowance(address,address)": {
        "notice": "Revoke token allowance"
      },
      "setAllowances()": {
        "notice": "Approve tokens for use in Strategy"
      },
      "swap(uint256,uint256,address,address,address)": {
        "notice": "Execute a swap from token to token assuming this contract already holds input tokensInteract through the router"
      }
    },
    "version": 1
  },
  "storageLayout": {
    "storage": [
      {
        "astId": 4026,
        "contract": "contracts/adapters/MiniYakAdapter.sol:MiniYakAdapter",
        "label": "_owner",
        "offset": 0,
        "slot": "0",
        "type": "t_address"
      },
      {
        "astId": 50,
        "contract": "contracts/adapters/MiniYakAdapter.sol:MiniYakAdapter",
        "label": "swapGasEstimate",
        "offset": 0,
        "slot": "1",
        "type": "t_uint256"
      },
      {
        "astId": 52,
        "contract": "contracts/adapters/MiniYakAdapter.sol:MiniYakAdapter",
        "label": "name",
        "offset": 0,
        "slot": "2",
        "type": "t_string_storage"
      }
    ],
    "types": {
      "t_address": {
        "encoding": "inplace",
        "label": "address",
        "numberOfBytes": "20"
      },
      "t_string_storage": {
        "encoding": "bytes",
        "label": "string",
        "numberOfBytes": "32"
      },
      "t_uint256": {
        "encoding": "inplace",
        "label": "uint256",
        "numberOfBytes": "32"
      }
    }
  }
}