{
  "address": "0x599610cf20379B5D21A4A3Ea84CB76E0F2a5f70f",
  "abi": [
    {
      "inputs": [
        {
          "internalType": "string",
          "name": "_name",
          "type": "string"
        },
        {
          "internalType": "address",
          "name": "_pool",
          "type": "address"
        },
        {
          "internalType": "uint8",
          "name": "_tokenCount",
          "type": "uint8"
        },
        {
          "internalType": "uint256",
          "name": "_swapGasEstimate",
          "type": "uint256"
        }
      ],
      "stateMutability": "nonpayable",
      "type": "constructor"
    },
    {
      "anonymous": false,
      "inputs": [
        {
          "indexed": true,
          "internalType": "address",
          "name": "previousOwner",
          "type": "address"
        },
        {
          "indexed": true,
          "internalType": "address",
          "name": "newOwner",
          "type": "address"
        }
      ],
      "name": "OwnershipTransferred",
      "type": "event"
    },
    {
      "anonymous": false,
      "inputs": [
        {
          "indexed": true,
          "internalType": "address",
          "name": "_asset",
          "type": "address"
        },
        {
          "indexed": false,
          "internalType": "uint256",
          "name": "amount",
          "type": "uint256"
        }
      ],
      "name": "Recovered",
      "type": "event"
    },
    {
      "anonymous": false,
      "inputs": [
        {
          "indexed": true,
          "internalType": "address",
          "name": "_adapter",
          "type": "address"
        },
        {
          "indexed": false,
          "internalType": "uint256",
          "name": "_newEstimate",
          "type": "uint256"
        }
      ],
      "name": "UpdatedGasEstimate",
      "type": "event"
    },
    {
      "anonymous": false,
      "inputs": [
        {
          "indexed": true,
          "internalType": "address",
          "name": "_tokenFrom",
          "type": "address"
        },
        {
          "indexed": true,
          "internalType": "address",
          "name": "_tokenTo",
          "type": "address"
        },
        {
          "indexed": false,
          "internalType": "uint256",
          "name": "_amountIn",
          "type": "uint256"
        },
        {
          "indexed": false,
          "internalType": "uint256",
          "name": "_amountOut",
          "type": "uint256"
        }
      ],
      "name": "YakAdapterSwap",
      "type": "event"
    },
    {
      "inputs": [
        {
          "internalType": "address",
          "name": "",
          "type": "address"
        }
      ],
      "name": "TOKENS_MAP",
      "outputs": [
        {
          "internalType": "bool",
          "name": "",
          "type": "bool"
        }
      ],
      "stateMutability": "view",
      "type": "function"
    },
    {
      "inputs": [],
      "name": "indentifier",
      "outputs": [
        {
          "internalType": "bytes32",
          "name": "",
          "type": "bytes32"
        }
      ],
      "stateMutability": "view",
      "type": "function"
    },
    {
      "inputs": [],
      "name": "name",
      "outputs": [
        {
          "internalType": "string",
          "name": "",
          "type": "string"
        }
      ],
      "stateMutability": "view",
      "type": "function"
    },
    {
      "inputs": [],
      "name": "owner",
      "outputs": [
        {
          "internalType": "address",
          "name": "",
          "type": "address"
        }
      ],
      "stateMutability": "view",
      "type": "function"
    },
    {
      "inputs": [],
      "name": "pool",
      "outputs": [
        {
          "internalType": "address",
          "name": "",
          "type": "address"
        }
      ],
      "stateMutability": "view",
      "type": "function"
    },
    {
      "inputs": [
        {
          "internalType": "uint256",
          "name": "_amountIn",
          "type": "uint256"
        },
        {
          "internalType": "address",
          "name": "_tokenIn",
          "type": "address"
        },
        {
          "internalType": "address",
          "name": "_tokenOut",
          "type": "address"
        }
      ],
      "name": "query",
      "outputs": [
        {
          "internalType": "uint256",
          "name": "",
          "type": "uint256"
        }
      ],
      "stateMutability": "view",
      "type": "function"
    },
    {
      "inputs": [
        {
          "internalType": "uint256",
          "name": "_amount",
          "type": "uint256"
        }
      ],
      "name": "recoverAVAX",
      "outputs": [],
      "stateMutability": "nonpayable",
      "type": "function"
    },
    {
      "inputs": [
        {
          "internalType": "address",
          "name": "_tokenAddress",
          "type": "address"
        },
        {
          "internalType": "uint256",
          "name": "_tokenAmount",
          "type": "uint256"
        }
      ],
      "name": "recoverERC20",
      "outputs": [],
      "stateMutability": "nonpayable",
      "type": "function"
    },
    {
      "inputs": [],
      "name": "renounceOwnership",
      "outputs": [],
      "stateMutability": "nonpayable",
      "type": "function"
    },
    {
      "inputs": [
        {
          "internalType": "address",
          "name": "_token",
          "type": "address"
        },
        {
          "internalType": "address",
          "name": "_spender",
          "type": "address"
        }
      ],
      "name": "revokeAllowance",
      "outputs": [],
      "stateMutability": "nonpayable",
      "type": "function"
    },
    {
      "inputs": [],
      "name": "setAllowances",
      "outputs": [],
      "stateMutability": "nonpayable",
      "type": "function"
    },
    {
      "inputs": [
        {
          "internalType": "uint256",
          "name": "_estimate",
          "type": "uint256"
        }
      ],
      "name": "setSwapGasEstimate",
      "outputs": [],
      "stateMutability": "nonpayable",
      "type": "function"
    },
    {
      "inputs": [
        {
          "internalType": "uint256",
          "name": "_amountIn",
          "type": "uint256"
        },
        {
          "internalType": "uint256",
          "name": "_amountOut",
          "type": "uint256"
        },
        {
          "internalType": "address",
          "name": "_fromToken",
          "type": "address"
        },
        {
          "internalType": "address",
          "name": "_toToken",
          "type": "address"
        },
        {
          "internalType": "address",
          "name": "_to",
          "type": "address"
        }
      ],
      "name": "swap",
      "outputs": [],
      "stateMutability": "nonpayable",
      "type": "function"
    },
    {
      "inputs": [],
      "name": "swapGasEstimate",
      "outputs": [
        {
          "internalType": "uint256",
          "name": "",
          "type": "uint256"
        }
      ],
      "stateMutability": "view",
      "type": "function"
    },
    {
      "inputs": [
        {
          "internalType": "address",
          "name": "newOwner",
          "type": "address"
        }
      ],
      "name": "transferOwnership",
      "outputs": [],
      "stateMutability": "nonpayable",
      "type": "function"
    },
    {
      "stateMutability": "payable",
      "type": "receive"
    }
  ],
  "transactionHash": "0x7ee008509c0a27fdac727a49d80bc381368c7cdeeab1b9a41305fc234be624c0",
  "args": [
    "SnobS4YakAdapterV0",
    "0xA0bE4f05E37617138Ec212D4fB0cD2A8778a535F",
    4,
    300000
  ],
  "solcInputHash": "d9b0559cdc6c4f6c37a22c036da43e60",
  "bytecode": "0x60806040523480156200001157600080fd5b50604051620018c4380380620018c4833981810160405260808110156200003757600080fd5b81019080805160405193929190846401000000008211156200005857600080fd5b9083019060208201858111156200006e57600080fd5b82516401000000008111828201881017156200008957600080fd5b82525081516020918201929091019080838360005b83811015620000b85781810151838201526020016200009e565b50505050905090810190601f168015620000e65780820380516001836020036101000a031916815260200191505b50604090815260208201519082015160609092015190935090915060006200010d620001a8565b600080546001600160a01b0319166001600160a01b0383169081178255604051929350917f8be0079c531659141344cd1fd0a4f28419497f9722a3daafe3b4186f6b6457e0908290a350600480546001600160a01b0319166001600160a01b03851617905583516200018790600290602087019062000339565b506200019381620001ac565b6200019e8262000263565b50505050620003e5565b3390565b620001b6620001a8565b6001600160a01b0316620001c96200032a565b6001600160a01b03161462000225576040805162461bcd60e51b815260206004820181905260248201527f4f776e61626c653a2043616c6c6572206973206e6f7420746865206f776e6572604482015290519081900360640190fd5b600181905560408051828152905130917ff43f23b7a28e6f8ce6843a21bd7b48bce778aa913b8c8cf459edf7d770e8d38a919081900360200190a250565b60005b8160ff168160ff1610156200032657600480546040805162415c3360e91b815260ff851693810193909352516000926001600160a01b03909216916382b86600916024808301926020929190829003018186803b158015620002c757600080fd5b505afa158015620002dc573d6000803e3d6000fd5b505050506040513d6020811015620002f357600080fd5b50516001600160a01b03166000908152600360205260409020805460ff1916600190811790915591909101905062000266565b5050565b6000546001600160a01b031690565b828054600181600116156101000203166002900490600052602060002090601f016020900481019282620003715760008555620003bc565b82601f106200038c57805160ff1916838001178555620003bc565b82800160010185558215620003bc579182015b82811115620003bc5782518255916020019190600101906200039f565b50620003ca929150620003ce565b5090565b5b80821115620003ca5760008155600101620003cf565b6114cf80620003f56000396000f3fe6080604052600436106100ec5760003560e01c806384a33e631161008a578063dbd9a4d411610059578063dbd9a4d41461032a578063eab90da61461033f578063ef99893a14610390578063f2fde38b146103d1576100f3565b806384a33e631461026b5780638980f11f146102955780638da5cb5b146102ce57806397543c3e146102e3576100f3565b80634ebb7916116100c65780634ebb7916146101da57806369cff80d14610206578063715018a61461021b5780637ae2677314610230576100f3565b806306fdde03146100f85780630fef1c061461018257806316f0115b146101a9576100f3565b366100f357005b600080fd5b34801561010457600080fd5b5061010d610404565b6040805160208082528351818301528351919283929083019185019080838360005b8381101561014757818101518382015260200161012f565b50505050905090810190601f1680156101745780820380516001836020036101000a031916815260200191505b509250505060405180910390f35b34801561018e57600080fd5b5061019761048f565b60408051918252519081900360200190f35b3480156101b557600080fd5b506101be6104b3565b604080516001600160a01b039092168252519081900360200190f35b3480156101e657600080fd5b50610204600480360360208110156101fd57600080fd5b50356104c2565b005b34801561021257600080fd5b506101976105f3565b34801561022757600080fd5b506102046105f9565b34801561023c57600080fd5b506102046004803603604081101561025357600080fd5b506001600160a01b03813581169160200135166106c4565b34801561027757600080fd5b506102046004803603602081101561028e57600080fd5b5035610751565b3480156102a157600080fd5b50610204600480360360408110156102b857600080fd5b506001600160a01b038135169060200135610803565b3480156102da57600080fd5b506101be610923565b3480156102ef57600080fd5b506103166004803603602081101561030657600080fd5b50356001600160a01b0316610932565b604080519115158252519081900360200190f35b34801561033657600080fd5b50610204610947565b34801561034b57600080fd5b50610204600480360360a081101561036257600080fd5b508035906020810135906001600160a01b0360408201358116916060810135821691608090910135166109bd565b34801561039c57600080fd5b50610197600480360360608110156103b357600080fd5b508035906001600160a01b0360208201358116916040013516610a2e565b3480156103dd57600080fd5b50610204600480360360208110156103f457600080fd5b50356001600160a01b0316610a45565b6002805460408051602060018416156101000260001901909316849004601f810184900484028201840190925281815292918301828280156104875780601f1061045c57610100808354040283529160200191610487565b820191906000526020600020905b81548152906001019060200180831161046a57829003601f168201915b505050505081565b7f3ad79a287bc781280a436df283c490150f8df078cbfa78807ed7784f1994401a81565b6004546001600160a01b031681565b6104ca610b66565b6001600160a01b03166104db610923565b6001600160a01b031614610536576040805162461bcd60e51b815260206004820181905260248201527f4f776e61626c653a2043616c6c6572206973206e6f7420746865206f776e6572604482015290519081900360640190fd5b6000811161058b576040805162461bcd60e51b815260206004820152601e60248201527f59616b416461707465723a204e6f7468696e6720746f207265636f7665720000604482015290519081900360640190fd5b604051339082156108fc029083906000818181858888f193505050501580156105b8573d6000803e3d6000fd5b506040805182815290516000917f8c1256b8896378cd5044f80c202f9772b9d77dc85c8a6eb51967210b09bfaa28919081900360200190a250565b60015481565b610601610b66565b6001600160a01b0316610612610923565b6001600160a01b03161461066d576040805162461bcd60e51b815260206004820181905260248201527f4f776e61626c653a2043616c6c6572206973206e6f7420746865206f776e6572604482015290519081900360640190fd5b600080546040516001600160a01b03909116907f8be0079c531659141344cd1fd0a4f28419497f9722a3daafe3b4186f6b6457e0908390a36000805473ffffffffffffffffffffffffffffffffffffffff19169055565b6106cc610b66565b6001600160a01b03166106dd610923565b6001600160a01b031614610738576040805162461bcd60e51b815260206004820181905260248201527f4f776e61626c653a2043616c6c6572206973206e6f7420746865206f776e6572604482015290519081900360640190fd5b61074d6001600160a01b038316826000610b6a565b5050565b610759610b66565b6001600160a01b031661076a610923565b6001600160a01b0316146107c5576040805162461bcd60e51b815260206004820181905260248201527f4f776e61626c653a2043616c6c6572206973206e6f7420746865206f776e6572604482015290519081900360640190fd5b600181905560408051828152905130917ff43f23b7a28e6f8ce6843a21bd7b48bce778aa913b8c8cf459edf7d770e8d38a919081900360200190a250565b61080b610b66565b6001600160a01b031661081c610923565b6001600160a01b031614610877576040805162461bcd60e51b815260206004820181905260248201527f4f776e61626c653a2043616c6c6572206973206e6f7420746865206f776e6572604482015290519081900360640190fd5b600081116108cc576040805162461bcd60e51b815260206004820152601e60248201527f59616b416461707465723a204e6f7468696e6720746f207265636f7665720000604482015290519081900360640190fd5b6108e06001600160a01b0383163383610c9f565b6040805182815290516001600160a01b038416917f8c1256b8896378cd5044f80c202f9772b9d77dc85c8a6eb51967210b09bfaa28919081900360200190a25050565b6000546001600160a01b031690565b60036020526000908152604090205460ff1681565b61094f610b66565b6001600160a01b0316610960610923565b6001600160a01b0316146109bb576040805162461bcd60e51b815260206004820181905260248201527f4f776e61626c653a2043616c6c6572206973206e6f7420746865206f776e6572604482015290519081900360640190fd5b565b6109c78386610cbe565b6109d48585858585610d67565b816001600160a01b0316836001600160a01b03167fe2bdbc6b7225eb0a972ac943c485a6cc05f7c6811838bce8903f23200fb744fa8787604051808381526020018281526020019250505060405180910390a35050505050565b6000610a3b848484610f1e565b90505b9392505050565b610a4d610b66565b6001600160a01b0316610a5e610923565b6001600160a01b031614610ab9576040805162461bcd60e51b815260206004820181905260248201527f4f776e61626c653a2043616c6c6572206973206e6f7420746865206f776e6572604482015290519081900360640190fd5b6001600160a01b038116610afe5760405162461bcd60e51b81526004018080602001828103825260268152602001806114746026913960400191505060405180910390fd5b600080546040516001600160a01b03808516939216917f8be0079c531659141344cd1fd0a4f28419497f9722a3daafe3b4186f6b6457e091a36000805473ffffffffffffffffffffffffffffffffffffffff19166001600160a01b0392909216919091179055565b3390565b801580610bf25750604051636eb1769f60e11b81526001600160a01b0384169063dd62ed3e90610ba09030908690600401611351565b60206040518083038186803b158015610bb857600080fd5b505afa158015610bcc573d6000803e3d6000fd5b505050506040513d601f19601f82011682018060405250810190610bf09190611300565b155b610c175760405162461bcd60e51b8152600401610c0e90611416565b60405180910390fd5b610c9a8363095ea7b360e01b8484604051602401610c3692919061136b565b60408051601f198184030181529190526020810180517bffffffffffffffffffffffffffffffffffffffffffffffffffffffff167fffffffff0000000000000000000000000000000000000000000000000000000090931692909217909152611200565b505050565b610c9a8363a9059cbb60e01b8484604051602401610c3692919061136b565b6004805460408051636eb1769f60e11b815230938101939093526001600160a01b039182166024840152516000929185169163dd62ed3e916044808301926020929190829003018186803b158015610d1557600080fd5b505afa158015610d29573d6000803e3d6000fd5b505050506040513d6020811015610d3f57600080fd5b5051905081811015610c9a57600454610c9a906001600160a01b038581169116600019610b6a565b60048054604080516319b02f4960e21b81526001600160a01b03878116948201949094529051929091169163916955869183916366c0bd2491602480820192602092909190829003018186803b158015610dc057600080fd5b505afa158015610dd4573d6000803e3d6000fd5b505050506040513d6020811015610dea57600080fd5b505160048054604080516319b02f4960e21b81526001600160a01b0389811694820194909452905192909116916366c0bd2491602480820192602092909190829003018186803b158015610e3d57600080fd5b505afa158015610e51573d6000803e3d6000fd5b505050506040513d6020811015610e6757600080fd5b5051604080517fffffffff0000000000000000000000000000000000000000000000000000000060e086901b16815260ff938416600482015292909116602483015260448201899052606482018890524260848301525160a48083019260209291908290030181600087803b158015610edf57600080fd5b505af1158015610ef3573d6000803e3d6000fd5b505050506040513d6020811015610f0957600080fd5b50610f1790508285836112bc565b5050505050565b6000816001600160a01b0316836001600160a01b03161415610f4257506000610a3e565b60048054604080517f5c975abb00000000000000000000000000000000000000000000000000000000815290516001600160a01b0390921692635c975abb928282019260209290829003018186803b158015610f9d57600080fd5b505afa158015610fb1573d6000803e3d6000fd5b505050506040513d6020811015610fc757600080fd5b505180610fd2575083155b15610fdf57506000610a3e565b6001600160a01b03831660009081526003602052604090205460ff16158061102057506001600160a01b03821660009081526003602052604090205460ff16155b1561102d57506000610a3e565b6000600460009054906101000a90046001600160a01b03166001600160a01b03166366c0bd24856040518263ffffffff1660e01b815260040180826001600160a01b0316815260200191505060206040518083038186803b15801561109157600080fd5b505afa1580156110a5573d6000803e3d6000fd5b505050506040513d60208110156110bb57600080fd5b505160048054604080516319b02f4960e21b81526001600160a01b0388811694820194909452905160ff909416945060009392909116916366c0bd2491602480820192602092909190829003018186803b15801561111857600080fd5b505afa15801561112c573d6000803e3d6000fd5b505050506040513d602081101561114257600080fd5b505160048054604080517fa95b089f00000000000000000000000000000000000000000000000000000000815260ff878116948201949094529290931660248301819052604483018a905292519293506001600160a01b03169163a95b089f91606480820192602092909190829003018186803b1580156111c257600080fd5b505afa9250505080156111e757506040513d60208110156111e257600080fd5b505160015b6111f657600092505050610a3e565b9250610a3e915050565b600080836001600160a01b03168360405161121b9190611318565b6000604051808303816000865af19150503d8060008114611258576040519150601f19603f3d011682016040523d82523d6000602084013e61125d565b606091505b50915091508161127f5760405162461bcd60e51b8152600401610c0e90611384565b8051156112b6578080602001905181019061129a91906112e0565b6112b65760405162461bcd60e51b8152600401610c0e906113b9565b50505050565b306001600160a01b03821614610c9a57610c9a6001600160a01b0384168284610c9f565b6000602082840312156112f1578081fd5b81518015158114610a3e578182fd5b600060208284031215611311578081fd5b5051919050565b60008251815b81811015611338576020818601810151858301520161131e565b818111156113465782828501525b509190910192915050565b6001600160a01b0392831681529116602082015260400190565b6001600160a01b03929092168252602082015260400190565b6020808252818101527f5361666545524332303a206c6f772d6c6576656c2063616c6c206661696c6564604082015260600190565b6020808252602a908201527f5361666545524332303a204552433230206f7065726174696f6e20646964206e60408201527f6f74207375636365656400000000000000000000000000000000000000000000606082015260800190565b60208082526036908201527f5361666545524332303a20617070726f76652066726f6d206e6f6e2d7a65726f60408201527f20746f206e6f6e2d7a65726f20616c6c6f77616e63650000000000000000000060608201526080019056fe4f776e61626c653a204e6577206f776e657220697320746865207a65726f2061646472657373a26469706673582212207a7fb842da266366813acdd72ffcedbec7ae50d1267776c5e9c0361f8edc029364736f6c63430007060033",
  "devdoc": {
    "kind": "dev",
    "methods": {
      "owner()": {
        "details": "Returns the address of the current owner."
      },
      "recoverAVAX(uint256)": {
        "params": {
          "_amount": "amount"
        }
      },
      "recoverERC20(address,uint256)": {
        "params": {
          "_tokenAddress": "token address",
          "_tokenAmount": "amount to recover"
        }
      },
      "renounceOwnership()": {
        "details": "Leaves the contract without owner. It will not be possible to call `onlyOwner` functions anymore. Can only be called by the current owner. NOTE: Renouncing ownership will leave the contract without an owner, thereby removing any functionality that is only available to the owner."
      },
      "revokeAllowance(address,address)": {
        "params": {
          "_spender": "address",
          "_token": "address"
        }
      },
      "setAllowances()": {
        "details": "Should use modifier `onlyOwner` to avoid griefing"
      },
      "swap(uint256,uint256,address,address,address)": {
        "params": {
          "_amountIn": "input amount in starting token",
          "_amountOut": "amount out in ending token",
          "_fromToken": "ERC20 token being sold",
          "_to": "address where swapped funds should be sent to",
          "_toToken": "ERC20 token being bought"
        }
      },
      "transferOwnership(address)": {
        "details": "Transfers ownership of the contract to a new account (`newOwner`). Can only be called by the current owner."
      }
    },
    "version": 1
  },
  "userdoc": {
    "kind": "user",
    "methods": {
      "recoverAVAX(uint256)": {
        "notice": "Recover AVAX from contract"
      },
      "recoverERC20(address,uint256)": {
        "notice": "Recover ERC20 from contract"
      },
      "revokeAllowance(address,address)": {
        "notice": "Revoke token allowance"
      },
      "setAllowances()": {
        "notice": "Approve tokens for use in Strategy"
      },
      "swap(uint256,uint256,address,address,address)": {
        "notice": "Execute a swap from token to token assuming this contract already holds input tokensInteract through the router"
      }
    },
    "version": 1
  },
  "storageLayout": {
    "storage": [
      {
        "astId": 3848,
        "contract": "contracts/adapters/CurveLikeAdapter.sol:CurveLikeAdapter",
        "label": "_owner",
        "offset": 0,
        "slot": "0",
        "type": "t_address"
      },
      {
        "astId": 50,
        "contract": "contracts/adapters/CurveLikeAdapter.sol:CurveLikeAdapter",
        "label": "swapGasEstimate",
        "offset": 0,
        "slot": "1",
        "type": "t_uint256"
      },
      {
        "astId": 52,
        "contract": "contracts/adapters/CurveLikeAdapter.sol:CurveLikeAdapter",
        "label": "name",
        "offset": 0,
        "slot": "2",
        "type": "t_string_storage"
      },
      {
        "astId": 2487,
        "contract": "contracts/adapters/CurveLikeAdapter.sol:CurveLikeAdapter",
        "label": "TOKENS_MAP",
        "offset": 0,
        "slot": "3",
        "type": "t_mapping(t_address,t_bool)"
      },
      {
        "astId": 2489,
        "contract": "contracts/adapters/CurveLikeAdapter.sol:CurveLikeAdapter",
        "label": "pool",
        "offset": 0,
        "slot": "4",
        "type": "t_address"
      }
    ],
    "types": {
      "t_address": {
        "encoding": "inplace",
        "label": "address",
        "numberOfBytes": "20"
      },
      "t_bool": {
        "encoding": "inplace",
        "label": "bool",
        "numberOfBytes": "1"
      },
      "t_mapping(t_address,t_bool)": {
        "encoding": "mapping",
        "key": "t_address",
        "label": "mapping(address => bool)",
        "numberOfBytes": "32",
        "value": "t_bool"
      },
      "t_string_storage": {
        "encoding": "bytes",
        "label": "string",
        "numberOfBytes": "32"
      },
      "t_uint256": {
        "encoding": "inplace",
        "label": "uint256",
        "numberOfBytes": "32"
      }
    }
  }
}