{
  "address": "0x214617987145Ef7c5462870362FdCAe9cacdf3C8",
  "abi": [
    {
      "inputs": [
        {
          "internalType": "string",
          "name": "_name",
          "type": "string"
        },
        {
          "internalType": "address",
          "name": "_factory",
          "type": "address"
        },
        {
          "internalType": "address",
          "name": "_referrer",
          "type": "address"
        },
        {
          "internalType": "uint256",
          "name": "_swapGasEstimate",
          "type": "uint256"
        }
      ],
      "stateMutability": "nonpayable",
      "type": "constructor"
    },
    {
      "anonymous": false,
      "inputs": [
        {
          "indexed": true,
          "internalType": "address",
          "name": "_asset",
          "type": "address"
        },
        {
          "indexed": false,
          "internalType": "uint256",
          "name": "amount",
          "type": "uint256"
        }
      ],
      "name": "Recovered",
      "type": "event"
    },
    {
      "anonymous": false,
      "inputs": [
        {
          "indexed": true,
          "internalType": "bytes32",
          "name": "role",
          "type": "bytes32"
        },
        {
          "indexed": true,
          "internalType": "bytes32",
          "name": "previousAdminRole",
          "type": "bytes32"
        },
        {
          "indexed": true,
          "internalType": "bytes32",
          "name": "newAdminRole",
          "type": "bytes32"
        }
      ],
      "name": "RoleAdminChanged",
      "type": "event"
    },
    {
      "anonymous": false,
      "inputs": [
        {
          "indexed": true,
          "internalType": "bytes32",
          "name": "role",
          "type": "bytes32"
        },
        {
          "indexed": true,
          "internalType": "address",
          "name": "account",
          "type": "address"
        },
        {
          "indexed": true,
          "internalType": "address",
          "name": "sender",
          "type": "address"
        }
      ],
      "name": "RoleGranted",
      "type": "event"
    },
    {
      "anonymous": false,
      "inputs": [
        {
          "indexed": true,
          "internalType": "bytes32",
          "name": "role",
          "type": "bytes32"
        },
        {
          "indexed": true,
          "internalType": "address",
          "name": "account",
          "type": "address"
        },
        {
          "indexed": true,
          "internalType": "address",
          "name": "sender",
          "type": "address"
        }
      ],
      "name": "RoleRevoked",
      "type": "event"
    },
    {
      "anonymous": false,
      "inputs": [
        {
          "indexed": true,
          "internalType": "address",
          "name": "_adapter",
          "type": "address"
        },
        {
          "indexed": false,
          "internalType": "uint256",
          "name": "_newEstimate",
          "type": "uint256"
        }
      ],
      "name": "UpdatedGasEstimate",
      "type": "event"
    },
    {
      "anonymous": false,
      "inputs": [
        {
          "indexed": true,
          "internalType": "address",
          "name": "_tokenFrom",
          "type": "address"
        },
        {
          "indexed": true,
          "internalType": "address",
          "name": "_tokenTo",
          "type": "address"
        },
        {
          "indexed": false,
          "internalType": "uint256",
          "name": "_amountIn",
          "type": "uint256"
        },
        {
          "indexed": false,
          "internalType": "uint256",
          "name": "_amountOut",
          "type": "uint256"
        }
      ],
      "name": "YakAdapterSwap",
      "type": "event"
    },
    {
      "inputs": [],
      "name": "DEFAULT_ADMIN_ROLE",
      "outputs": [
        {
          "internalType": "bytes32",
          "name": "",
          "type": "bytes32"
        }
      ],
      "stateMutability": "view",
      "type": "function"
    },
    {
      "inputs": [],
      "name": "MAINTAINER_ROLE",
      "outputs": [
        {
          "internalType": "bytes32",
          "name": "",
          "type": "bytes32"
        }
      ],
      "stateMutability": "view",
      "type": "function"
    },
    {
      "inputs": [
        {
          "internalType": "address",
          "name": "addedMaintainer",
          "type": "address"
        }
      ],
      "name": "addMaintainer",
      "outputs": [],
      "stateMutability": "nonpayable",
      "type": "function"
    },
    {
      "inputs": [],
      "name": "factory",
      "outputs": [
        {
          "internalType": "address",
          "name": "",
          "type": "address"
        }
      ],
      "stateMutability": "view",
      "type": "function"
    },
    {
      "inputs": [
        {
          "internalType": "bytes32",
          "name": "role",
          "type": "bytes32"
        }
      ],
      "name": "getRoleAdmin",
      "outputs": [
        {
          "internalType": "bytes32",
          "name": "",
          "type": "bytes32"
        }
      ],
      "stateMutability": "view",
      "type": "function"
    },
    {
      "inputs": [
        {
          "internalType": "bytes32",
          "name": "role",
          "type": "bytes32"
        },
        {
          "internalType": "address",
          "name": "account",
          "type": "address"
        }
      ],
      "name": "grantRole",
      "outputs": [],
      "stateMutability": "nonpayable",
      "type": "function"
    },
    {
      "inputs": [
        {
          "internalType": "bytes32",
          "name": "role",
          "type": "bytes32"
        },
        {
          "internalType": "address",
          "name": "account",
          "type": "address"
        }
      ],
      "name": "hasRole",
      "outputs": [
        {
          "internalType": "bool",
          "name": "",
          "type": "bool"
        }
      ],
      "stateMutability": "view",
      "type": "function"
    },
    {
      "inputs": [],
      "name": "name",
      "outputs": [
        {
          "internalType": "string",
          "name": "",
          "type": "string"
        }
      ],
      "stateMutability": "view",
      "type": "function"
    },
    {
      "inputs": [
        {
          "internalType": "uint256",
          "name": "_amountIn",
          "type": "uint256"
        },
        {
          "internalType": "address",
          "name": "_tokenIn",
          "type": "address"
        },
        {
          "internalType": "address",
          "name": "_tokenOut",
          "type": "address"
        }
      ],
      "name": "query",
      "outputs": [
        {
          "internalType": "uint256",
          "name": "",
          "type": "uint256"
        }
      ],
      "stateMutability": "view",
      "type": "function"
    },
    {
      "inputs": [
        {
          "internalType": "uint256",
          "name": "_amount",
          "type": "uint256"
        }
      ],
      "name": "recoverAVAX",
      "outputs": [],
      "stateMutability": "nonpayable",
      "type": "function"
    },
    {
      "inputs": [
        {
          "internalType": "address",
          "name": "_tokenAddress",
          "type": "address"
        },
        {
          "internalType": "uint256",
          "name": "_tokenAmount",
          "type": "uint256"
        }
      ],
      "name": "recoverERC20",
      "outputs": [],
      "stateMutability": "nonpayable",
      "type": "function"
    },
    {
      "inputs": [],
      "name": "referrer",
      "outputs": [
        {
          "internalType": "address",
          "name": "",
          "type": "address"
        }
      ],
      "stateMutability": "view",
      "type": "function"
    },
    {
      "inputs": [
        {
          "internalType": "address",
          "name": "removedMaintainer",
          "type": "address"
        }
      ],
      "name": "removeMaintainer",
      "outputs": [],
      "stateMutability": "nonpayable",
      "type": "function"
    },
    {
      "inputs": [
        {
          "internalType": "bytes32",
          "name": "role",
          "type": "bytes32"
        },
        {
          "internalType": "address",
          "name": "account",
          "type": "address"
        }
      ],
      "name": "renounceRole",
      "outputs": [],
      "stateMutability": "nonpayable",
      "type": "function"
    },
    {
      "inputs": [
        {
          "internalType": "bytes32",
          "name": "role",
          "type": "bytes32"
        }
      ],
      "name": "renounceRole",
      "outputs": [],
      "stateMutability": "nonpayable",
      "type": "function"
    },
    {
      "inputs": [
        {
          "internalType": "address",
          "name": "_token",
          "type": "address"
        },
        {
          "internalType": "address",
          "name": "_spender",
          "type": "address"
        }
      ],
      "name": "revokeAllowance",
      "outputs": [],
      "stateMutability": "nonpayable",
      "type": "function"
    },
    {
      "inputs": [
        {
          "internalType": "bytes32",
          "name": "role",
          "type": "bytes32"
        },
        {
          "internalType": "address",
          "name": "account",
          "type": "address"
        }
      ],
      "name": "revokeRole",
      "outputs": [],
      "stateMutability": "nonpayable",
      "type": "function"
    },
    {
      "inputs": [
        {
          "internalType": "uint256",
          "name": "_estimate",
          "type": "uint256"
        }
      ],
      "name": "setSwapGasEstimate",
      "outputs": [],
      "stateMutability": "nonpayable",
      "type": "function"
    },
    {
      "inputs": [
        {
          "internalType": "bytes4",
          "name": "interfaceId",
          "type": "bytes4"
        }
      ],
      "name": "supportsInterface",
      "outputs": [
        {
          "internalType": "bool",
          "name": "",
          "type": "bool"
        }
      ],
      "stateMutability": "view",
      "type": "function"
    },
    {
      "inputs": [
        {
          "internalType": "uint256",
          "name": "_amountIn",
          "type": "uint256"
        },
        {
          "internalType": "uint256",
          "name": "_amountOut",
          "type": "uint256"
        },
        {
          "internalType": "address",
          "name": "_fromToken",
          "type": "address"
        },
        {
          "internalType": "address",
          "name": "_toToken",
          "type": "address"
        },
        {
          "internalType": "address",
          "name": "_to",
          "type": "address"
        }
      ],
      "name": "swap",
      "outputs": [],
      "stateMutability": "nonpayable",
      "type": "function"
    },
    {
      "inputs": [],
      "name": "swapGasEstimate",
      "outputs": [
        {
          "internalType": "uint256",
          "name": "",
          "type": "uint256"
        }
      ],
      "stateMutability": "view",
      "type": "function"
    },
    {
      "inputs": [
        {
          "internalType": "address",
          "name": "newOwner",
          "type": "address"
        }
      ],
      "name": "transferOwnership",
      "outputs": [],
      "stateMutability": "nonpayable",
      "type": "function"
    },
    {
      "stateMutability": "payable",
      "type": "receive"
    }
  ],
  "transactionHash": "0x548437a2dc920c5862a459feb733098fa3dbd27b923f163730509eeefc77f467",
  "args": [
    "TokenMillAdapter",
    "0x501ee2D4AA611C906F785e10cC868e145183FCE4",
    "0xDcEDF06Fd33E1D7b6eb4b309f779a0e9D3172e44",
    210000
  ],
  "solcInputHash": "4c7c55a5b08d081d77b4006408c4f415",
  "bytecode": "0x60c06040523480156200001157600080fd5b506040516200224f3803806200224f8339810160408190526200003491620003a4565b83813362000044600082620000aa565b620000707f339759585899103d2ace64958e37e18ccb0504652c81d4a1b8aa80fe2126ab9582620000aa565b506200007c82620000ba565b620000878162000123565b5050506001600160601b0319606092831b8116608052911b1660a05250620004fc565b620000b6828262000241565b5050565b80516200010e5760405162461bcd60e51b815260206004820152601460248201527f496e76616c69642061646170746572206e616d6500000000000000000000000060448201526064015b60405180910390fd5b8051620000b6906002906020840190620002e1565b3360008181527fa54247010af6b3693b80aceddfad12e077c5de3571e6243fada502635f0d7d39602052604090205460ff16620001b45760405162461bcd60e51b815260206004820152602860248201527f4d61696e7461696e61626c653a2043616c6c6572206973206e6f742061206d6160448201526734b73a30b4b732b960c11b606482015260840162000105565b81620002035760405162461bcd60e51b815260206004820152601460248201527f496e76616c6964206761732d657374696d617465000000000000000000000000604482015260640162000105565b600182905560405182815230907ff43f23b7a28e6f8ce6843a21bd7b48bce778aa913b8c8cf459edf7d770e8d38a9060200160405180910390a25050565b6000828152602081815260408083206001600160a01b038516845290915290205460ff16620000b6576000828152602081815260408083206001600160a01b03851684529091529020805460ff191660011790556200029d3390565b6001600160a01b0316816001600160a01b0316837f2f8788117e7eff1d82e926ec794901d17c78024a50270940304540a733656f0d60405160405180910390a45050565b828054620002ef90620004a9565b90600052602060002090601f0160209004810192826200031357600085556200035e565b82601f106200032e57805160ff19168380011785556200035e565b828001600101855582156200035e579182015b828111156200035e57825182559160200191906001019062000341565b506200036c92915062000370565b5090565b5b808211156200036c576000815560010162000371565b80516001600160a01b03811681146200039f57600080fd5b919050565b60008060008060808587031215620003ba578384fd5b84516001600160401b0380821115620003d1578586fd5b818701915087601f830112620003e5578586fd5b815181811115620003fa57620003fa620004e6565b604051601f8201601f19908116603f01168101908382118183101715620004255762000425620004e6565b81604052828152602093508a8484870101111562000441578889fd5b8891505b8282101562000464578482018401518183018501529083019062000445565b828211156200047557888484830101525b97506200048791505087820162000387565b94505050620004996040860162000387565b6060959095015193969295505050565b600181811c90821680620004be57607f821691505b60208210811415620004e057634e487b7160e01b600052602260045260246000fd5b50919050565b634e487b7160e01b600052604160045260246000fd5b60805160601c60a05160601c611d126200053d6000396000818161028e01526111c70152600081816103e90152818161106d015261134f0152611d126000f3fe6080604052600436106101795760003560e01c80638980f11f116100cb578063d547741f1161007f578063ef99893a11610059578063ef99893a1461046b578063f2fde38b1461048b578063f8742254146104ab57600080fd5b8063d547741f1461040b578063d8baf7cf1461042b578063eab90da61461044b57600080fd5b806391d14854116100b057806391d148541461037e578063a217fddf146103c2578063c45a0155146103d757600080fd5b80638980f11f1461033e5780638bb9c5bf1461035e57600080fd5b80634ebb79161161012d5780636b453c1f116101075780636b453c1f146102de5780637ae26773146102fe57806384a33e631461031e57600080fd5b80634ebb79161461025c57806368447c931461027c57806369cff80d146102c857600080fd5b8063248a9ca31161015e578063248a9ca3146101dc5780632f2ff15d1461021a57806336568abe1461023c57600080fd5b806301ffc9a71461018557806306fdde03146101ba57600080fd5b3661018057005b600080fd5b34801561019157600080fd5b506101a56101a03660046119b0565b6104df565b60405190151581526020015b60405180910390f35b3480156101c657600080fd5b506101cf610548565b6040516101b19190611b7c565b3480156101e857600080fd5b5061020c6101f7366004611974565b60009081526020819052604090206001015490565b6040519081526020016101b1565b34801561022657600080fd5b5061023a61023536600461198c565b6105d6565b005b34801561024857600080fd5b5061023a61025736600461198c565b610600565b34801561026857600080fd5b5061023a610277366004611974565b610691565b34801561028857600080fd5b506102b07f000000000000000000000000000000000000000000000000000000000000000081565b6040516001600160a01b0390911681526020016101b1565b3480156102d457600080fd5b5061020c60015481565b3480156102ea57600080fd5b5061023a6102f93660046118b0565b6107d9565b34801561030a57600080fd5b5061023a6103193660046118cc565b610806565b34801561032a57600080fd5b5061023a610339366004611974565b6108aa565b34801561034a57600080fd5b5061023a610359366004611904565b6109bd565b34801561036a57600080fd5b5061023a610379366004611974565b610af8565b34801561038a57600080fd5b506101a561039936600461198c565b6000918252602082815260408084206001600160a01b0393909316845291905290205460ff1690565b3480156103ce57600080fd5b5061020c600081565b3480156103e357600080fd5b506102b07f000000000000000000000000000000000000000000000000000000000000000081565b34801561041757600080fd5b5061023a61042636600461198c565b610b03565b34801561043757600080fd5b5061023a6104463660046118b0565b610b28565b34801561045757600080fd5b5061023a610466366004611a81565b610b52565b34801561047757600080fd5b5061020c610486366004611a40565b610d17565b34801561049757600080fd5b5061023a6104a63660046118b0565b610d2e565b3480156104b757600080fd5b5061020c7f339759585899103d2ace64958e37e18ccb0504652c81d4a1b8aa80fe2126ab9581565b60006001600160e01b031982167f7965db0b00000000000000000000000000000000000000000000000000000000148061054257507f01ffc9a7000000000000000000000000000000000000000000000000000000006001600160e01b03198316145b92915050565b6002805461055590611c40565b80601f016020809104026020016040519081016040528092919081815260200182805461058190611c40565b80156105ce5780601f106105a3576101008083540402835291602001916105ce565b820191906000526020600020905b8154815290600101906020018083116105b157829003601f168201915b505050505081565b6000828152602081905260409020600101546105f181610d45565b6105fb8383610d4f565b505050565b6001600160a01b03811633146106835760405162461bcd60e51b815260206004820152602f60248201527f416363657373436f6e74726f6c3a2063616e206f6e6c792072656e6f756e636560448201527f20726f6c657320666f722073656c66000000000000000000000000000000000060648201526084015b60405180910390fd5b61068d8282610ded565b5050565b3360008181527fa54247010af6b3693b80aceddfad12e077c5de3571e6243fada502635f0d7d39602052604090205460ff166107205760405162461bcd60e51b815260206004820152602860248201527f4d61696e7461696e61626c653a2043616c6c6572206973206e6f742061206d6160448201526734b73a30b4b732b960c11b606482015260840161067a565b600082116107705760405162461bcd60e51b815260206004820152601e60248201527f59616b416461707465723a204e6f7468696e6720746f207265636f7665720000604482015260640161067a565b604051339083156108fc029084906000818181858888f1935050505015801561079d573d6000803e3d6000fd5b506040518281526000907f8c1256b8896378cd5044f80c202f9772b9d77dc85c8a6eb51967210b09bfaa28906020015b60405180910390a25050565b6108037f339759585899103d2ace64958e37e18ccb0504652c81d4a1b8aa80fe2126ab95826105d6565b50565b3360008181527fa54247010af6b3693b80aceddfad12e077c5de3571e6243fada502635f0d7d39602052604090205460ff166108955760405162461bcd60e51b815260206004820152602860248201527f4d61696e7461696e61626c653a2043616c6c6572206973206e6f742061206d6160448201526734b73a30b4b732b960c11b606482015260840161067a565b6105fb6001600160a01b038416836000610e6c565b3360008181527fa54247010af6b3693b80aceddfad12e077c5de3571e6243fada502635f0d7d39602052604090205460ff166109395760405162461bcd60e51b815260206004820152602860248201527f4d61696e7461696e61626c653a2043616c6c6572206973206e6f742061206d6160448201526734b73a30b4b732b960c11b606482015260840161067a565b816109865760405162461bcd60e51b815260206004820152601460248201527f496e76616c6964206761732d657374696d617465000000000000000000000000604482015260640161067a565b600182905560405182815230907ff43f23b7a28e6f8ce6843a21bd7b48bce778aa913b8c8cf459edf7d770e8d38a906020016107cd565b3360008181527fa54247010af6b3693b80aceddfad12e077c5de3571e6243fada502635f0d7d39602052604090205460ff16610a4c5760405162461bcd60e51b815260206004820152602860248201527f4d61696e7461696e61626c653a2043616c6c6572206973206e6f742061206d6160448201526734b73a30b4b732b960c11b606482015260840161067a565b60008211610a9c5760405162461bcd60e51b815260206004820152601e60248201527f59616b416461707465723a204e6f7468696e6720746f207265636f7665720000604482015260640161067a565b610ab06001600160a01b0384163384611011565b826001600160a01b03167f8c1256b8896378cd5044f80c202f9772b9d77dc85c8a6eb51967210b09bfaa2883604051610aeb91815260200190565b60405180910390a2505050565b3361068d8282610600565b600082815260208190526040902060010154610b1e81610d45565b6105fb8383610ded565b6108037f339759585899103d2ace64958e37e18ccb0504652c81d4a1b8aa80fe2126ab9582610b03565b6040516370a0823160e01b81526001600160a01b038281166004830152600091908416906370a082319060240160206040518083038186803b158015610b9757600080fd5b505afa158015610bab573d6000803e3d6000fd5b505050506040513d601f19601f82011682018060405250810190610bcf9190611a28565b9050610bde8686868686611041565b6040516370a0823160e01b81526001600160a01b03838116600483015260009183918616906370a082319060240160206040518083038186803b158015610c2457600080fd5b505afa158015610c38573d6000803e3d6000fd5b505050506040513d601f19601f82011682018060405250810190610c5c9190611a28565b610c669190611be6565b905085811015610cb85760405162461bcd60e51b815260206004820152601760248201527f496e73756666696369656e7420616d6f756e742d6f7574000000000000000000604482015260640161067a565b836001600160a01b0316856001600160a01b03167fe2bdbc6b7225eb0a972ac943c485a6cc05f7c6811838bce8903f23200fb744fa8989604051610d06929190918252602082015260400190565b60405180910390a350505050505050565b6000610d248484846112f6565b90505b9392505050565b33610d3a6000836105d6565b61068d600082610600565b61080381336114b4565b6000828152602081815260408083206001600160a01b038516845290915290205460ff1661068d576000828152602081815260408083206001600160a01b03851684529091529020805460ff19166001179055610da93390565b6001600160a01b0316816001600160a01b0316837f2f8788117e7eff1d82e926ec794901d17c78024a50270940304540a733656f0d60405160405180910390a45050565b6000828152602081815260408083206001600160a01b038516845290915290205460ff161561068d576000828152602081815260408083206001600160a01b0385168085529252808320805460ff1916905551339285917ff6391f5c32d9c69d2a47ea670b442974b53935d1edc7fd64eb21e047a839171b9190a45050565b801580610f0e57506040517fdd62ed3e0000000000000000000000000000000000000000000000000000000081523060048201526001600160a01b03838116602483015284169063dd62ed3e9060440160206040518083038186803b158015610ed457600080fd5b505afa158015610ee8573d6000803e3d6000fd5b505050506040513d601f19601f82011682018060405250810190610f0c9190611a28565b155b610f805760405162461bcd60e51b815260206004820152603660248201527f5361666545524332303a20617070726f76652066726f6d206e6f6e2d7a65726f60448201527f20746f206e6f6e2d7a65726f20616c6c6f77616e636500000000000000000000606482015260840161067a565b6040516001600160a01b0383166024820152604481018290526105fb9084907f095ea7b300000000000000000000000000000000000000000000000000000000906064015b60408051601f198184030181529190526020810180517bffffffffffffffffffffffffffffffffffffffffffffffffffffffff166001600160e01b031990931692909217909152611532565b6040516001600160a01b0383166024820152604481018290526105fb90849063a9059cbb60e01b90606401610fc5565b60405163714af34b60e01b81526001600160a01b038481166004830152838116602483015260009182917f0000000000000000000000000000000000000000000000000000000000000000169063714af34b90604401604080518083038186803b1580156110ae57600080fd5b505afa1580156110c2573d6000803e3d6000fd5b505050506040513d601f19601f820116820180604052508101906110e69190611949565b60405163a9059cbb60e01b81526001600160a01b038083166004830152602482018b90529294509092509086169063a9059cbb90604401602060405180830381600087803b15801561113757600080fd5b505af115801561114b573d6000803e3d6000fd5b505050506040513d601f19601f8201168201806040525081019061116f919061192f565b506040517fdc35ff770000000000000000000000000000000000000000000000000000000081526001600160a01b03848116600483015260248201899052831515604483015260a06064830152600060a483018190527f00000000000000000000000000000000000000000000000000000000000000008216608484015291829184169063dc35ff779060c4016040805180830381600087803b15801561121557600080fd5b505af1158015611229573d6000803e3d6000fd5b505050506040513d601f19601f8201168201806040525081019061124d91906119d8565b91509150600084611267578161126284611c7b565b611271565b8261127183611c7b565b915050888110156112ea5760405162461bcd60e51b815260206004820152602960248201527f546f6b656e4d696c6c416461707465723a20696e73756666696369656e74206160448201527f6d6f756e74206f75740000000000000000000000000000000000000000000000606482015260840161067a565b50505050505050505050565b6000816001600160a01b0316836001600160a01b03161480611316575083155b1561132357506000610d27565b60405163714af34b60e01b81526001600160a01b038481166004830152838116602483015260009182917f0000000000000000000000000000000000000000000000000000000000000000169063714af34b90604401604080518083038186803b15801561139057600080fd5b505afa1580156113a4573d6000803e3d6000fd5b505050506040513d601f19601f820116820180604052508101906113c89190611949565b90925090506001600160a01b0381166113e657600092505050610d27565b6040517fcd56aadc00000000000000000000000000000000000000000000000000000000815260048101879052821515602482015260009081906001600160a01b0384169063cd56aadc9060440160606040518083038186803b15801561144c57600080fd5b505afa158015611460573d6000803e3d6000fd5b505050506040513d601f19601f8201168201806040525081019061148491906119fb565b50915091508361149d578061149883611c7b565b6114a7565b816114a782611c7b565b9998505050505050505050565b6000828152602081815260408083206001600160a01b038516845290915290205460ff1661068d576114f0816001600160a01b03166014611674565b6114fb836020611674565b60405160200161150c929190611afb565b60408051601f198184030181529082905262461bcd60e51b825261067a91600401611b7c565b600080836001600160a01b03168360405161154d9190611adf565b6000604051808303816000865af19150503d806000811461158a576040519150601f19603f3d011682016040523d82523d6000602084013e61158f565b606091505b5091509150816115e15760405162461bcd60e51b815260206004820181905260248201527f5361666545524332303a206c6f772d6c6576656c2063616c6c206661696c6564604482015260640161067a565b80511561166e57808060200190518101906115fc919061192f565b61166e5760405162461bcd60e51b815260206004820152602a60248201527f5361666545524332303a204552433230206f7065726174696f6e20646964206e60448201527f6f74207375636365656400000000000000000000000000000000000000000000606482015260840161067a565b50505050565b60606000611683836002611bc7565b61168e906002611baf565b67ffffffffffffffff8111156116b457634e487b7160e01b600052604160045260246000fd5b6040519080825280601f01601f1916602001820160405280156116de576020820181803683370190505b5090507f30000000000000000000000000000000000000000000000000000000000000008160008151811061172357634e487b7160e01b600052603260045260246000fd5b60200101906001600160f81b031916908160001a9053507f78000000000000000000000000000000000000000000000000000000000000008160018151811061177c57634e487b7160e01b600052603260045260246000fd5b60200101906001600160f81b031916908160001a90535060006117a0846002611bc7565b6117ab906001611baf565b90505b600181111561184c577f303132333435363738396162636465660000000000000000000000000000000085600f16601081106117fa57634e487b7160e01b600052603260045260246000fd5b1a60f81b82828151811061181e57634e487b7160e01b600052603260045260246000fd5b60200101906001600160f81b031916908160001a90535060049490941c9361184581611c29565b90506117ae565b508315610d275760405162461bcd60e51b815260206004820181905260248201527f537472696e67733a20686578206c656e67746820696e73756666696369656e74604482015260640161067a565b805180151581146118ab57600080fd5b919050565b6000602082840312156118c1578081fd5b8135610d2781611cc7565b600080604083850312156118de578081fd5b82356118e981611cc7565b915060208301356118f981611cc7565b809150509250929050565b60008060408385031215611916578182fd5b823561192181611cc7565b946020939093013593505050565b600060208284031215611940578081fd5b610d278261189b565b6000806040838503121561195b578182fd5b6119648361189b565b915060208301516118f981611cc7565b600060208284031215611985578081fd5b5035919050565b6000806040838503121561199e578182fd5b8235915060208301356118f981611cc7565b6000602082840312156119c1578081fd5b81356001600160e01b031981168114610d27578182fd5b600080604083850312156119ea578182fd5b505080516020909101519092909150565b600080600060608486031215611a0f578081fd5b8351925060208401519150604084015190509250925092565b600060208284031215611a39578081fd5b5051919050565b600080600060608486031215611a54578283fd5b833592506020840135611a6681611cc7565b91506040840135611a7681611cc7565b809150509250925092565b600080600080600060a08688031215611a98578081fd5b85359450602086013593506040860135611ab181611cc7565b92506060860135611ac181611cc7565b91506080860135611ad181611cc7565b809150509295509295909350565b60008251611af1818460208701611bfd565b9190910192915050565b7f416363657373436f6e74726f6c3a206163636f756e7420000000000000000000815260008351611b33816017850160208801611bfd565b7f206973206d697373696e6720726f6c65200000000000000000000000000000006017918401918201528351611b70816028840160208801611bfd565b01602801949350505050565b6020815260008251806020840152611b9b816040850160208701611bfd565b601f01601f19169190910160400192915050565b60008219821115611bc257611bc2611cb1565b500190565b6000816000190483118215151615611be157611be1611cb1565b500290565b600082821015611bf857611bf8611cb1565b500390565b60005b83811015611c18578181015183820152602001611c00565b8381111561166e5750506000910152565b600081611c3857611c38611cb1565b506000190190565b600181811c90821680611c5457607f821691505b60208210811415611c7557634e487b7160e01b600052602260045260246000fd5b50919050565b60007f8000000000000000000000000000000000000000000000000000000000000000821415611cad57611cad611cb1565b0390565b634e487b7160e01b600052601160045260246000fd5b6001600160a01b038116811461080357600080fdfea26469706673582212202a6a6674208fbe47691e479c5e727fd78eee7b088b5d18e30c047c6897d4948c64736f6c63430008040033",
  "devdoc": {
    "kind": "dev",
    "methods": {
      "getRoleAdmin(bytes32)": {
        "details": "Returns the admin role that controls `role`. See {grantRole} and {revokeRole}. To change a role's admin, use {_setRoleAdmin}."
      },
      "grantRole(bytes32,address)": {
        "details": "Grants `role` to `account`. If `account` had not been already granted `role`, emits a {RoleGranted} event. Requirements: - the caller must have ``role``'s admin role. May emit a {RoleGranted} event."
      },
      "hasRole(bytes32,address)": {
        "details": "Returns `true` if `account` has been granted `role`."
      },
      "renounceRole(bytes32,address)": {
        "details": "Revokes `role` from the calling account. Roles are often managed via {grantRole} and {revokeRole}: this function's purpose is to provide a mechanism for accounts to lose their privileges if they are compromised (such as when a trusted device is misplaced). If the calling account had been revoked `role`, emits a {RoleRevoked} event. Requirements: - the caller must be `account`. May emit a {RoleRevoked} event."
      },
      "revokeRole(bytes32,address)": {
        "details": "Revokes `role` from `account`. If `account` had been granted `role`, emits a {RoleRevoked} event. Requirements: - the caller must have ``role``'s admin role. May emit a {RoleRevoked} event."
      },
      "supportsInterface(bytes4)": {
        "details": "See {IERC165-supportsInterface}."
      }
    },
    "version": 1
  },
  "userdoc": {
    "kind": "user",
    "methods": {},
    "version": 1
  },
  "storageLayout": {
    "storage": [
      {
        "astId": 24,
        "contract": "src/contracts/adapters/TokenMillAdapter.sol:TokenMillAdapter",
        "label": "_roles",
        "offset": 0,
        "slot": "0",
        "type": "t_mapping(t_bytes32,t_struct(RoleData)19_storage)"
      },
      {
        "astId": 718,
        "contract": "src/contracts/adapters/TokenMillAdapter.sol:TokenMillAdapter",
        "label": "swapGasEstimate",
        "offset": 0,
        "slot": "1",
        "type": "t_uint256"
      },
      {
        "astId": 720,
        "contract": "src/contracts/adapters/TokenMillAdapter.sol:TokenMillAdapter",
        "label": "name",
        "offset": 0,
        "slot": "2",
        "type": "t_string_storage"
      }
    ],
    "types": {
      "t_address": {
        "encoding": "inplace",
        "label": "address",
        "numberOfBytes": "20"
      },
      "t_bool": {
        "encoding": "inplace",
        "label": "bool",
        "numberOfBytes": "1"
      },
      "t_bytes32": {
        "encoding": "inplace",
        "label": "bytes32",
        "numberOfBytes": "32"
      },
      "t_mapping(t_address,t_bool)": {
        "encoding": "mapping",
        "key": "t_address",
        "label": "mapping(address => bool)",
        "numberOfBytes": "32",
        "value": "t_bool"
      },
      "t_mapping(t_bytes32,t_struct(RoleData)19_storage)": {
        "encoding": "mapping",
        "key": "t_bytes32",
        "label": "mapping(bytes32 => struct AccessControl.RoleData)",
        "numberOfBytes": "32",
        "value": "t_struct(RoleData)19_storage"
      },
      "t_string_storage": {
        "encoding": "bytes",
        "label": "string",
        "numberOfBytes": "32"
      },
      "t_struct(RoleData)19_storage": {
        "encoding": "inplace",
        "label": "struct AccessControl.RoleData",
        "members": [
          {
            "astId": 16,
            "contract": "src/contracts/adapters/TokenMillAdapter.sol:TokenMillAdapter",
            "label": "members",
            "offset": 0,
            "slot": "0",
            "type": "t_mapping(t_address,t_bool)"
          },
          {
            "astId": 18,
            "contract": "src/contracts/adapters/TokenMillAdapter.sol:TokenMillAdapter",
            "label": "adminRole",
            "offset": 0,
            "slot": "1",
            "type": "t_bytes32"
          }
        ],
        "numberOfBytes": "64"
      },
      "t_uint256": {
        "encoding": "inplace",
        "label": "uint256",
        "numberOfBytes": "32"
      }
    }
  }
}