{
  "address": "0x29deCcD2f4Fdb046D24585d01B1DcDFb902ACAcD",
  "abi": [
    {
      "inputs": [
        {
          "internalType": "string",
          "name": "_name",
          "type": "string"
        },
        {
          "internalType": "uint256",
          "name": "_swapGasEstimate",
          "type": "uint256"
        },
        {
          "internalType": "uint256",
          "name": "_quoterGasLimit",
          "type": "uint256"
        },
        {
          "internalType": "address",
          "name": "_quoter",
          "type": "address"
        },
        {
          "internalType": "address",
          "name": "_factory",
          "type": "address"
        },
        {
          "internalType": "uint24[]",
          "name": "_defaultFees",
          "type": "uint24[]"
        }
      ],
      "stateMutability": "nonpayable",
      "type": "constructor"
    },
    {
      "anonymous": false,
      "inputs": [
        {
          "indexed": true,
          "internalType": "address",
          "name": "_asset",
          "type": "address"
        },
        {
          "indexed": false,
          "internalType": "uint256",
          "name": "amount",
          "type": "uint256"
        }
      ],
      "name": "Recovered",
      "type": "event"
    },
    {
      "anonymous": false,
      "inputs": [
        {
          "indexed": true,
          "internalType": "bytes32",
          "name": "role",
          "type": "bytes32"
        },
        {
          "indexed": true,
          "internalType": "bytes32",
          "name": "previousAdminRole",
          "type": "bytes32"
        },
        {
          "indexed": true,
          "internalType": "bytes32",
          "name": "newAdminRole",
          "type": "bytes32"
        }
      ],
      "name": "RoleAdminChanged",
      "type": "event"
    },
    {
      "anonymous": false,
      "inputs": [
        {
          "indexed": true,
          "internalType": "bytes32",
          "name": "role",
          "type": "bytes32"
        },
        {
          "indexed": true,
          "internalType": "address",
          "name": "account",
          "type": "address"
        },
        {
          "indexed": true,
          "internalType": "address",
          "name": "sender",
          "type": "address"
        }
      ],
      "name": "RoleGranted",
      "type": "event"
    },
    {
      "anonymous": false,
      "inputs": [
        {
          "indexed": true,
          "internalType": "bytes32",
          "name": "role",
          "type": "bytes32"
        },
        {
          "indexed": true,
          "internalType": "address",
          "name": "account",
          "type": "address"
        },
        {
          "indexed": true,
          "internalType": "address",
          "name": "sender",
          "type": "address"
        }
      ],
      "name": "RoleRevoked",
      "type": "event"
    },
    {
      "anonymous": false,
      "inputs": [
        {
          "indexed": true,
          "internalType": "address",
          "name": "_adapter",
          "type": "address"
        },
        {
          "indexed": false,
          "internalType": "uint256",
          "name": "_newEstimate",
          "type": "uint256"
        }
      ],
      "name": "UpdatedGasEstimate",
      "type": "event"
    },
    {
      "anonymous": false,
      "inputs": [
        {
          "indexed": true,
          "internalType": "address",
          "name": "_tokenFrom",
          "type": "address"
        },
        {
          "indexed": true,
          "internalType": "address",
          "name": "_tokenTo",
          "type": "address"
        },
        {
          "indexed": false,
          "internalType": "uint256",
          "name": "_amountIn",
          "type": "uint256"
        },
        {
          "indexed": false,
          "internalType": "uint256",
          "name": "_amountOut",
          "type": "uint256"
        }
      ],
      "name": "YakAdapterSwap",
      "type": "event"
    },
    {
      "inputs": [],
      "name": "DEFAULT_ADMIN_ROLE",
      "outputs": [
        {
          "internalType": "bytes32",
          "name": "",
          "type": "bytes32"
        }
      ],
      "stateMutability": "view",
      "type": "function"
    },
    {
      "inputs": [],
      "name": "MAINTAINER_ROLE",
      "outputs": [
        {
          "internalType": "bytes32",
          "name": "",
          "type": "bytes32"
        }
      ],
      "stateMutability": "view",
      "type": "function"
    },
    {
      "inputs": [
        {
          "internalType": "address",
          "name": "addedMaintainer",
          "type": "address"
        }
      ],
      "name": "addMaintainer",
      "outputs": [],
      "stateMutability": "nonpayable",
      "type": "function"
    },
    {
      "inputs": [
        {
          "internalType": "uint24[]",
          "name": "_amounts",
          "type": "uint24[]"
        }
      ],
      "name": "enableFeeAmounts",
      "outputs": [],
      "stateMutability": "nonpayable",
      "type": "function"
    },
    {
      "inputs": [
        {
          "internalType": "uint256",
          "name": "",
          "type": "uint256"
        }
      ],
      "name": "feeAmounts",
      "outputs": [
        {
          "internalType": "uint24",
          "name": "",
          "type": "uint24"
        }
      ],
      "stateMutability": "view",
      "type": "function"
    },
    {
      "inputs": [
        {
          "internalType": "address",
          "name": "pool",
          "type": "address"
        },
        {
          "internalType": "int256",
          "name": "amountIn",
          "type": "int256"
        },
        {
          "internalType": "address",
          "name": "tokenIn",
          "type": "address"
        },
        {
          "internalType": "address",
          "name": "tokenOut",
          "type": "address"
        }
      ],
      "name": "getQuoteForPool",
      "outputs": [
        {
          "internalType": "uint256",
          "name": "",
          "type": "uint256"
        }
      ],
      "stateMutability": "view",
      "type": "function"
    },
    {
      "inputs": [
        {
          "internalType": "bytes32",
          "name": "role",
          "type": "bytes32"
        }
      ],
      "name": "getRoleAdmin",
      "outputs": [
        {
          "internalType": "bytes32",
          "name": "",
          "type": "bytes32"
        }
      ],
      "stateMutability": "view",
      "type": "function"
    },
    {
      "inputs": [
        {
          "internalType": "bytes32",
          "name": "role",
          "type": "bytes32"
        },
        {
          "internalType": "address",
          "name": "account",
          "type": "address"
        }
      ],
      "name": "grantRole",
      "outputs": [],
      "stateMutability": "nonpayable",
      "type": "function"
    },
    {
      "inputs": [
        {
          "internalType": "bytes32",
          "name": "role",
          "type": "bytes32"
        },
        {
          "internalType": "address",
          "name": "account",
          "type": "address"
        }
      ],
      "name": "hasRole",
      "outputs": [
        {
          "internalType": "bool",
          "name": "",
          "type": "bool"
        }
      ],
      "stateMutability": "view",
      "type": "function"
    },
    {
      "inputs": [
        {
          "internalType": "uint24",
          "name": "",
          "type": "uint24"
        }
      ],
      "name": "isFeeAmountEnabled",
      "outputs": [
        {
          "internalType": "bool",
          "name": "",
          "type": "bool"
        }
      ],
      "stateMutability": "view",
      "type": "function"
    },
    {
      "inputs": [],
      "name": "name",
      "outputs": [
        {
          "internalType": "string",
          "name": "",
          "type": "string"
        }
      ],
      "stateMutability": "view",
      "type": "function"
    },
    {
      "inputs": [
        {
          "internalType": "uint256",
          "name": "_amountIn",
          "type": "uint256"
        },
        {
          "internalType": "address",
          "name": "_tokenIn",
          "type": "address"
        },
        {
          "internalType": "address",
          "name": "_tokenOut",
          "type": "address"
        }
      ],
      "name": "query",
      "outputs": [
        {
          "internalType": "uint256",
          "name": "",
          "type": "uint256"
        }
      ],
      "stateMutability": "view",
      "type": "function"
    },
    {
      "inputs": [],
      "name": "quoter",
      "outputs": [
        {
          "internalType": "address",
          "name": "",
          "type": "address"
        }
      ],
      "stateMutability": "view",
      "type": "function"
    },
    {
      "inputs": [],
      "name": "quoterGasLimit",
      "outputs": [
        {
          "internalType": "uint256",
          "name": "",
          "type": "uint256"
        }
      ],
      "stateMutability": "view",
      "type": "function"
    },
    {
      "inputs": [
        {
          "internalType": "uint256",
          "name": "_amount",
          "type": "uint256"
        }
      ],
      "name": "recoverAVAX",
      "outputs": [],
      "stateMutability": "nonpayable",
      "type": "function"
    },
    {
      "inputs": [
        {
          "internalType": "address",
          "name": "_tokenAddress",
          "type": "address"
        },
        {
          "internalType": "uint256",
          "name": "_tokenAmount",
          "type": "uint256"
        }
      ],
      "name": "recoverERC20",
      "outputs": [],
      "stateMutability": "nonpayable",
      "type": "function"
    },
    {
      "inputs": [
        {
          "internalType": "address",
          "name": "removedMaintainer",
          "type": "address"
        }
      ],
      "name": "removeMaintainer",
      "outputs": [],
      "stateMutability": "nonpayable",
      "type": "function"
    },
    {
      "inputs": [
        {
          "internalType": "bytes32",
          "name": "role",
          "type": "bytes32"
        },
        {
          "internalType": "address",
          "name": "account",
          "type": "address"
        }
      ],
      "name": "renounceRole",
      "outputs": [],
      "stateMutability": "nonpayable",
      "type": "function"
    },
    {
      "inputs": [
        {
          "internalType": "bytes32",
          "name": "role",
          "type": "bytes32"
        }
      ],
      "name": "renounceRole",
      "outputs": [],
      "stateMutability": "nonpayable",
      "type": "function"
    },
    {
      "inputs": [
        {
          "internalType": "address",
          "name": "_token",
          "type": "address"
        },
        {
          "internalType": "address",
          "name": "_spender",
          "type": "address"
        }
      ],
      "name": "revokeAllowance",
      "outputs": [],
      "stateMutability": "nonpayable",
      "type": "function"
    },
    {
      "inputs": [
        {
          "internalType": "bytes32",
          "name": "role",
          "type": "bytes32"
        },
        {
          "internalType": "address",
          "name": "account",
          "type": "address"
        }
      ],
      "name": "revokeRole",
      "outputs": [],
      "stateMutability": "nonpayable",
      "type": "function"
    },
    {
      "inputs": [
        {
          "internalType": "address",
          "name": "newQuoter",
          "type": "address"
        }
      ],
      "name": "setQuoter",
      "outputs": [],
      "stateMutability": "nonpayable",
      "type": "function"
    },
    {
      "inputs": [
        {
          "internalType": "uint256",
          "name": "newLimit",
          "type": "uint256"
        }
      ],
      "name": "setQuoterGasLimit",
      "outputs": [],
      "stateMutability": "nonpayable",
      "type": "function"
    },
    {
      "inputs": [
        {
          "internalType": "uint256",
          "name": "_estimate",
          "type": "uint256"
        }
      ],
      "name": "setSwapGasEstimate",
      "outputs": [],
      "stateMutability": "nonpayable",
      "type": "function"
    },
    {
      "inputs": [
        {
          "internalType": "bytes4",
          "name": "interfaceId",
          "type": "bytes4"
        }
      ],
      "name": "supportsInterface",
      "outputs": [
        {
          "internalType": "bool",
          "name": "",
          "type": "bool"
        }
      ],
      "stateMutability": "view",
      "type": "function"
    },
    {
      "inputs": [
        {
          "internalType": "uint256",
          "name": "_amountIn",
          "type": "uint256"
        },
        {
          "internalType": "uint256",
          "name": "_amountOut",
          "type": "uint256"
        },
        {
          "internalType": "address",
          "name": "_fromToken",
          "type": "address"
        },
        {
          "internalType": "address",
          "name": "_toToken",
          "type": "address"
        },
        {
          "internalType": "address",
          "name": "_to",
          "type": "address"
        }
      ],
      "name": "swap",
      "outputs": [],
      "stateMutability": "nonpayable",
      "type": "function"
    },
    {
      "inputs": [],
      "name": "swapGasEstimate",
      "outputs": [
        {
          "internalType": "uint256",
          "name": "",
          "type": "uint256"
        }
      ],
      "stateMutability": "view",
      "type": "function"
    },
    {
      "inputs": [
        {
          "internalType": "address",
          "name": "newOwner",
          "type": "address"
        }
      ],
      "name": "transferOwnership",
      "outputs": [],
      "stateMutability": "nonpayable",
      "type": "function"
    },
    {
      "inputs": [
        {
          "internalType": "int256",
          "name": "amount0Delta",
          "type": "int256"
        },
        {
          "internalType": "int256",
          "name": "amount1Delta",
          "type": "int256"
        },
        {
          "internalType": "bytes",
          "name": "",
          "type": "bytes"
        }
      ],
      "name": "uniswapV3SwapCallback",
      "outputs": [],
      "stateMutability": "nonpayable",
      "type": "function"
    },
    {
      "stateMutability": "payable",
      "type": "receive"
    }
  ],
  "transactionHash": "0x33bbf4b7cb76e8df539e63f95d903c6d947d36d334dc260375a38d54d1030644",
  "args": [
    "UniswapV3Adapter",
    300000,
    240000,
    "0x0fBEef458a443B4fd679187804f4afEc73f12AC8",
    "0x740b1c1de25031C31FF4fC9A62f554A55cdC1baD",
    [
      500,
      3000,
      10000
    ]
  ],
  "solcInputHash": "c63216e5dea0ee3451108c607815cc9b",
  "bytecode": "0x60a06040523480156200001157600080fd5b506040516200318538038062003185833981016040819052620000349162000660565b858584868383336200004860008262000122565b620000747f339759585899103d2ace64958e37e18ccb0504652c81d4a1b8aa80fe2126ab958262000122565b50620000808262000132565b6200008b816200019b565b506200009990508162000297565b620000a4826200035b565b5050506001600160601b0319606084901b166080525060005b8151811015620001155762000100828281518110620000ec57634e487b7160e01b600052603260045260246000fd5b6020026020010151620003ed60201b60201c565b806200010c81620007e6565b915050620000bd565b5050505050505062000824565b6200012e828262000461565b5050565b8051620001865760405162461bcd60e51b815260206004820152601460248201527f496e76616c69642061646170746572206e616d6500000000000000000000000060448201526064015b60405180910390fd5b80516200012e90600290602084019062000501565b33600081815260008051602062003145833981519152602052604090205460ff166200020a5760405162461bcd60e51b815260206004820152602860248201526000805160206200316583398151915260448201526734b73a30b4b732b960c11b60648201526084016200017d565b81620002595760405162461bcd60e51b815260206004820152601460248201527f496e76616c6964206761732d657374696d61746500000000000000000000000060448201526064016200017d565b600182905560405182815230907ff43f23b7a28e6f8ce6843a21bd7b48bce778aa913b8c8cf459edf7d770e8d38a9060200160405180910390a25050565b33600081815260008051602062003145833981519152602052604090205460ff16620003065760405162461bcd60e51b815260206004820152602860248201526000805160206200316583398151915260448201526734b73a30b4b732b960c11b60648201526084016200017d565b81620003555760405162461bcd60e51b815260206004820152601b60248201527f71756572794761734c696d69742063616e2774206265207a65726f000000000060448201526064016200017d565b50600355565b33600081815260008051602062003145833981519152602052604090205460ff16620003ca5760405162461bcd60e51b815260206004820152602860248201526000805160206200316583398151915260448201526734b73a30b4b732b960c11b60648201526084016200017d565b50600480546001600160a01b0319166001600160a01b0392909216919091179055565b62ffffff9081166000818152600560205260408120805460ff19166001908117909155600680549182018155909152600a8082047ff652222313e28459528d920b65115c16c04f3efc82aaedc97be59f3f377c0d3f018054600392909306919091026101000a928302929093021916179055565b6000828152602081815260408083206001600160a01b038516845290915290205460ff166200012e576000828152602081815260408083206001600160a01b03851684529091529020805460ff19166001179055620004bd3390565b6001600160a01b0316816001600160a01b0316837f2f8788117e7eff1d82e926ec794901d17c78024a50270940304540a733656f0d60405160405180910390a45050565b8280546200050f90620007a9565b90600052602060002090601f0160209004810192826200053357600085556200057e565b82601f106200054e57805160ff19168380011785556200057e565b828001600101855582156200057e579182015b828111156200057e57825182559160200191906001019062000561565b506200058c92915062000590565b5090565b5b808211156200058c576000815560010162000591565b80516001600160a01b0381168114620005bf57600080fd5b919050565b600082601f830112620005d5578081fd5b815160206001600160401b03821115620005f357620005f36200080e565b8160051b6200060482820162000776565b8381528281019086840183880185018910156200061f578687fd5b8693505b858410156200065457805162ffffff811681146200063f578788fd5b83526001939093019291840191840162000623565b50979650505050505050565b60008060008060008060c0878903121562000679578182fd5b86516001600160401b038082111562000690578384fd5b818901915089601f830112620006a4578384fd5b815181811115620006b957620006b96200080e565b6020620006cf601f8301601f1916820162000776565b8281528c82848701011115620006e3578687fd5b865b8381101562000702578581018301518282018401528201620006e5565b838111156200071357878385840101525b50908b015160408c0151919a509850965062000734905060608a01620005a7565b94506200074460808a01620005a7565b935060a08901519150808211156200075a578283fd5b506200076989828a01620005c4565b9150509295509295509295565b604051601f8201601f191681016001600160401b0381118282101715620007a157620007a16200080e565b604052919050565b600181811c90821680620007be57607f821691505b60208210811415620007e057634e487b7160e01b600052602260045260246000fd5b50919050565b60006000198214156200080757634e487b7160e01b81526011600452602481fd5b5060010190565b634e487b7160e01b600052604160045260246000fd5b60805160601c6128fb6200084a60003960008181611589015261209e01526128fb6000f3fe6080604052600436106101c65760003560e01c80638bb9c5bf116100f7578063d8baf7cf11610095578063f35c4d4511610064578063f35c4d451461056a578063f87422541461058a578063f912c64b146105be578063fa461e33146105de57600080fd5b8063d8baf7cf146104ea578063eab90da61461050a578063ef99893a1461052a578063f2fde38b1461054a57600080fd5b8063a2e64137116100d1578063a2e641371461042e578063c6bbd5a714610462578063ce62f6c41461049a578063d547741f146104ca57600080fd5b80638bb9c5bf146103b557806391d14854146103d5578063a217fddf1461041957600080fd5b80634ebb79161161016457806373ec15661161013e57806373ec1566146103355780637ae267731461035557806384a33e63146103755780638980f11f1461039557600080fd5b80634ebb7916146102df57806369cff80d146102ff5780636b453c1f1461031557600080fd5b8063248a9ca3116101a0578063248a9ca3146102575780632bc857a0146102875780632f2ff15d1461029d57806336568abe146102bf57600080fd5b806301ffc9a7146101d257806305e3f4dc1461020757806306fdde031461023557600080fd5b366101cd57005b600080fd5b3480156101de57600080fd5b506101f26101ed366004612429565b6105fe565b60405190151581526020015b60405180910390f35b34801561021357600080fd5b506102276102223660046122e0565b610667565b6040519081526020016101fe565b34801561024157600080fd5b5061024a6106a8565b6040516101fe919061271d565b34801561026357600080fd5b506102276102723660046123ed565b60009081526020819052604090206001015490565b34801561029357600080fd5b5061022760035481565b3480156102a957600080fd5b506102bd6102b8366004612405565b610736565b005b3480156102cb57600080fd5b506102bd6102da366004612405565b610760565b3480156102eb57600080fd5b506102bd6102fa3660046123ed565b6107f1565b34801561030b57600080fd5b5061022760015481565b34801561032157600080fd5b506102bd610330366004612270565b610939565b34801561034157600080fd5b506102bd61035036600461235d565b610966565b34801561036157600080fd5b506102bd6103703660046122a8565b610a53565b34801561038157600080fd5b506102bd6103903660046123ed565b610af7565b3480156103a157600080fd5b506102bd6103b0366004612332565b610c0a565b3480156103c157600080fd5b506102bd6103d03660046123ed565b610d45565b3480156103e157600080fd5b506101f26103f0366004612405565b6000918252602082815260408084206001600160a01b0393909316845291905290205460ff1690565b34801561042557600080fd5b50610227600081565b34801561043a57600080fd5b5061044e6104493660046123ed565b610d50565b60405162ffffff90911681526020016101fe565b34801561046e57600080fd5b50600454610482906001600160a01b031681565b6040516001600160a01b0390911681526020016101fe565b3480156104a657600080fd5b506101f26104b5366004612540565b60056020526000908152604090205460ff1681565b3480156104d657600080fd5b506102bd6104e5366004612405565b610d89565b3480156104f657600080fd5b506102bd610505366004612270565b610dae565b34801561051657600080fd5b506102bd6105253660046125bc565b610dd8565b34801561053657600080fd5b5061022761054536600461257b565b610f9d565b34801561055657600080fd5b506102bd610565366004612270565b610fb2565b34801561057657600080fd5b506102bd6105853660046123ed565b610fc9565b34801561059657600080fd5b506102277f339759585899103d2ace64958e37e18ccb0504652c81d4a1b8aa80fe2126ab9581565b3480156105ca57600080fd5b506102bd6105d9366004612270565b6110ab565b3480156105ea57600080fd5b506102bd6105f9366004612495565b611175565b60006001600160e01b031982167f7965db0b00000000000000000000000000000000000000000000000000000000148061066157507f01ffc9a7000000000000000000000000000000000000000000000000000000006001600160e01b03198316145b92915050565b604080516080810182526000606082018190529181018590526001600160a01b0384811682528316602082015261069e8682611371565b9695505050505050565b600280546106b590612814565b80601f01602080910402602001604051908101604052809291908181526020018280546106e190612814565b801561072e5780601f106107035761010080835404028352916020019161072e565b820191906000526020600020905b81548152906001019060200180831161071157829003601f168201915b505050505081565b600082815260208190526040902060010154610751816113ca565b61075b83836113d4565b505050565b6001600160a01b03811633146107e35760405162461bcd60e51b815260206004820152602f60248201527f416363657373436f6e74726f6c3a2063616e206f6e6c792072656e6f756e636560448201527f20726f6c657320666f722073656c66000000000000000000000000000000000060648201526084015b60405180910390fd5b6107ed8282611472565b5050565b3360008181527fa54247010af6b3693b80aceddfad12e077c5de3571e6243fada502635f0d7d39602052604090205460ff166108805760405162461bcd60e51b815260206004820152602860248201527f4d61696e7461696e61626c653a2043616c6c6572206973206e6f742061206d6160448201526734b73a30b4b732b960c11b60648201526084016107da565b600082116108d05760405162461bcd60e51b815260206004820152601e60248201527f59616b416461707465723a204e6f7468696e6720746f207265636f766572000060448201526064016107da565b604051339083156108fc029084906000818181858888f193505050501580156108fd573d6000803e3d6000fd5b506040518281526000907f8c1256b8896378cd5044f80c202f9772b9d77dc85c8a6eb51967210b09bfaa28906020015b60405180910390a25050565b6109637f339759585899103d2ace64958e37e18ccb0504652c81d4a1b8aa80fe2126ab9582610736565b50565b3360008181527fa54247010af6b3693b80aceddfad12e077c5de3571e6243fada502635f0d7d39602052604090205460ff166109f55760405162461bcd60e51b815260206004820152602860248201527f4d61696e7461696e61626c653a2043616c6c6572206973206e6f742061206d6160448201526734b73a30b4b732b960c11b60648201526084016107da565b60005b82811015610a4d57610a3d848483818110610a2357634e487b7160e01b600052603260045260246000fd5b9050602002016020810190610a389190612540565b6114f1565b610a4681612849565b90506109f8565b50505050565b3360008181527fa54247010af6b3693b80aceddfad12e077c5de3571e6243fada502635f0d7d39602052604090205460ff16610ae25760405162461bcd60e51b815260206004820152602860248201527f4d61696e7461696e61626c653a2043616c6c6572206973206e6f742061206d6160448201526734b73a30b4b732b960c11b60648201526084016107da565b61075b6001600160a01b0384168360006116d2565b3360008181527fa54247010af6b3693b80aceddfad12e077c5de3571e6243fada502635f0d7d39602052604090205460ff16610b865760405162461bcd60e51b815260206004820152602860248201527f4d61696e7461696e61626c653a2043616c6c6572206973206e6f742061206d6160448201526734b73a30b4b732b960c11b60648201526084016107da565b81610bd35760405162461bcd60e51b815260206004820152601460248201527f496e76616c6964206761732d657374696d61746500000000000000000000000060448201526064016107da565b600182905560405182815230907ff43f23b7a28e6f8ce6843a21bd7b48bce778aa913b8c8cf459edf7d770e8d38a9060200161092d565b3360008181527fa54247010af6b3693b80aceddfad12e077c5de3571e6243fada502635f0d7d39602052604090205460ff16610c995760405162461bcd60e51b815260206004820152602860248201527f4d61696e7461696e61626c653a2043616c6c6572206973206e6f742061206d6160448201526734b73a30b4b732b960c11b60648201526084016107da565b60008211610ce95760405162461bcd60e51b815260206004820152601e60248201527f59616b416461707465723a204e6f7468696e6720746f207265636f766572000060448201526064016107da565b610cfd6001600160a01b0384163384611877565b826001600160a01b03167f8c1256b8896378cd5044f80c202f9772b9d77dc85c8a6eb51967210b09bfaa2883604051610d3891815260200190565b60405180910390a2505050565b336107ed8282610760565b60068181548110610d6057600080fd5b90600052602060002090600a9182820401919006600302915054906101000a900462ffffff1681565b600082815260208190526040902060010154610da4816113ca565b61075b8383611472565b6109637f339759585899103d2ace64958e37e18ccb0504652c81d4a1b8aa80fe2126ab9582610d89565b6040516370a0823160e01b81526001600160a01b038281166004830152600091908416906370a082319060240160206040518083038186803b158015610e1d57600080fd5b505afa158015610e31573d6000803e3d6000fd5b505050506040513d601f19601f82011682018060405250810190610e559190612563565b9050610e6486868686866118a7565b6040516370a0823160e01b81526001600160a01b03838116600483015260009183918616906370a082319060240160206040518083038186803b158015610eaa57600080fd5b505afa158015610ebe573d6000803e3d6000fd5b505050506040513d601f19601f82011682018060405250810190610ee29190612563565b610eec91906127ba565b905085811015610f3e5760405162461bcd60e51b815260206004820152601760248201527f496e73756666696369656e7420616d6f756e742d6f757400000000000000000060448201526064016107da565b836001600160a01b0316856001600160a01b03167fe2bdbc6b7225eb0a972ac943c485a6cc05f7c6811838bce8903f23200fb744fa8989604051610f8c929190918252602082015260400190565b60405180910390a350505050505050565b6000610faa848484611971565b949350505050565b33610fbe600083610736565b6107ed600082610760565b3360008181527fa54247010af6b3693b80aceddfad12e077c5de3571e6243fada502635f0d7d39602052604090205460ff166110585760405162461bcd60e51b815260206004820152602860248201527f4d61696e7461696e61626c653a2043616c6c6572206973206e6f742061206d6160448201526734b73a30b4b732b960c11b60648201526084016107da565b816110a55760405162461bcd60e51b815260206004820152601b60248201527f71756572794761734c696d69742063616e2774206265207a65726f000000000060448201526064016107da565b50600355565b3360008181527fa54247010af6b3693b80aceddfad12e077c5de3571e6243fada502635f0d7d39602052604090205460ff1661113a5760405162461bcd60e51b815260206004820152602860248201527f4d61696e7461696e61626c653a2043616c6c6572206973206e6f742061206d6160448201526734b73a30b4b732b960c11b60648201526084016107da565b50600480547fffffffffffffffffffffffff0000000000000000000000000000000000000000166001600160a01b0392909216919091179055565b600084131561127757336001600160a01b0316630dfe16816040518163ffffffff1660e01b815260040160206040518083038186803b1580156111b757600080fd5b505afa1580156111cb573d6000803e3d6000fd5b505050506040513d601f19601f820116820180604052508101906111ef919061228c565b60405163a9059cbb60e01b8152336004820152602481018690526001600160a01b03919091169063a9059cbb90604401602060405180830381600087803b15801561123957600080fd5b505af115801561124d573d6000803e3d6000fd5b505050506040513d601f19601f8201168201806040525081019061127191906123cd565b50610a4d565b336001600160a01b031663d21220a76040518163ffffffff1660e01b815260040160206040518083038186803b1580156112b057600080fd5b505afa1580156112c4573d6000803e3d6000fd5b505050506040513d601f19601f820116820180604052508101906112e8919061228c565b60405163a9059cbb60e01b8152336004820152602481018590526001600160a01b03919091169063a9059cbb90604401602060405180830381600087803b15801561133257600080fd5b505af1158015611346573d6000803e3d6000fd5b505050506040513d601f19601f8201168201806040525081019061136a91906123cd565b5050505050565b6000806000611388846000015185602001516119cf565b9150915060008061139f8785886040015186611a22565b91509150836113b6576113b182612864565b6113bf565b6113bf81612864565b979650505050505050565b6109638133611aeb565b6000828152602081815260408083206001600160a01b038516845290915290205460ff166107ed576000828152602081815260408083206001600160a01b03851684529091529020805460ff1916600117905561142e3390565b6001600160a01b0316816001600160a01b0316837f2f8788117e7eff1d82e926ec794901d17c78024a50270940304540a733656f0d60405160405180910390a45050565b6000828152602081815260408083206001600160a01b038516845290915290205460ff16156107ed576000828152602081815260408083206001600160a01b0385168085529252808320805460ff1916905551339285917ff6391f5c32d9c69d2a47ea670b442974b53935d1edc7fd64eb21e047a839171b9190a45050565b62ffffff811660009081526005602052604090205460ff16156115565760405162461bcd60e51b815260206004820152601360248201527f46656520616c726561647920656e61626c65640000000000000000000000000060448201526064016107da565b6040517f22afcccb00000000000000000000000000000000000000000000000000000000815262ffffff821660048201527f00000000000000000000000000000000000000000000000000000000000000006001600160a01b0316906322afcccb9060240160206040518083038186803b1580156115d357600080fd5b505afa1580156115e7573d6000803e3d6000fd5b505050506040513d601f19601f8201168201806040525081019061160b9190612451565b60020b61165a5760405162461bcd60e51b815260206004820152601b60248201527f466163746f727920646f65736e277420737570706f727420666565000000000060448201526064016107da565b6109638162ffffff9081166000818152600560205260408120805460ff19166001908117909155600680549182018155909152600a8082047ff652222313e28459528d920b65115c16c04f3efc82aaedc97be59f3f377c0d3f018054600392909306919091026101000a928302929093021916179055565b80158061177457506040517fdd62ed3e0000000000000000000000000000000000000000000000000000000081523060048201526001600160a01b03838116602483015284169063dd62ed3e9060440160206040518083038186803b15801561173a57600080fd5b505afa15801561174e573d6000803e3d6000fd5b505050506040513d601f19601f820116820180604052508101906117729190612563565b155b6117e65760405162461bcd60e51b815260206004820152603660248201527f5361666545524332303a20617070726f76652066726f6d206e6f6e2d7a65726f60448201527f20746f206e6f6e2d7a65726f20616c6c6f77616e63650000000000000000000060648201526084016107da565b6040516001600160a01b03831660248201526044810182905261075b9084907f095ea7b300000000000000000000000000000000000000000000000000000000906064015b60408051601f198184030181529190526020810180517bffffffffffffffffffffffffffffffffffffffffffffffffffffffff166001600160e01b031990931692909217909152611b69565b6040516001600160a01b03831660248201526044810182905261075b90849063a9059cbb60e01b9060640161182b565b6040805160808082018352600080835260208084018290528385018290526060938401829052845192830185526001600160a01b0388811684528716838201528285018a90529282018190528351818152928301909352919061190b908390611ca5565b90508581101561195d5760405162461bcd60e51b815260206004820152601660248201527f496e73756666696369656e7420616d6f756e744f75740000000000000000000060448201526064016107da565b611968848285611d8d565b50505050505050565b6040805160808082018352600080835260208084018290528385018290526060938401829052845192830185526001600160a01b0380881684528616908301529281018690529081018290526119c681611db1565b95945050505050565b6001600160a01b0380821690831610600081611a0957611a04600173fffd8963efd1fc6a506488495d951d5263988d26612792565b611a19565b611a196401000276a36001612730565b90509250929050565b6040516001600160a01b038086166024830152841515604483015260648201849052821660848201526000908190819060a40160408051601f198184030181529190526020810180517bffffffffffffffffffffffffffffffffffffffffffffffffffffffff167f90405d36000000000000000000000000000000000000000000000000000000001790529050600080611abb83611dea565b915091508115611adf5780806020019051810190611ad99190612472565b90955093505b50505094509492505050565b6000828152602081815260408083206001600160a01b038516845290915290205460ff166107ed57611b27816001600160a01b03166014611e5c565b611b32836020611e5c565b604051602001611b43929190612662565b60408051601f198184030181529082905262461bcd60e51b82526107da9160040161271d565b600080836001600160a01b031683604051611b849190612646565b6000604051808303816000865af19150503d8060008114611bc1576040519150601f19603f3d011682016040523d82523d6000602084013e611bc6565b606091505b509150915081611c185760405162461bcd60e51b815260206004820181905260248201527f5361666545524332303a206c6f772d6c6576656c2063616c6c206661696c656460448201526064016107da565b805115610a4d5780806020019051810190611c3391906123cd565b610a4d5760405162461bcd60e51b815260206004820152602a60248201527f5361666545524332303a204552433230206f7065726174696f6e20646964206e60448201527f6f7420737563636565640000000000000000000000000000000000000000000060648201526084016107da565b600080611cba8460000151856020015161208a565b9050600080611cd1866000015187602001516119cf565b91509150600080846001600160a01b031663128acb0830868b60400151878c6040518663ffffffff1660e01b8152600401611d109594939291906126e3565b6040805180830381600087803b158015611d2957600080fd5b505af1158015611d3d573d6000803e3d6000fd5b505050506040513d601f19601f82011682018060405250810190611d619190612472565b9150915083611d7857611d7382612864565b611d81565b611d8181612864565b98975050505050505050565b306001600160a01b0382161461075b5761075b6001600160a01b0384168284611877565b600080611dc68360000151846020015161208a565b90506001600160a01b03811615611de457611de18184611371565b91505b50919050565b6004546003546040516000926060926001600160a01b0390911691611e10908690612646565b6000604051808303818686fa925050503d8060008114611e4c576040519150601f19603f3d011682016040523d82523d6000602084013e611e51565b606091505b509094909350915050565b60606000611e6b836002612773565b611e7690600261275b565b67ffffffffffffffff811115611e9c57634e487b7160e01b600052604160045260246000fd5b6040519080825280601f01601f191660200182016040528015611ec6576020820181803683370190505b5090507f300000000000000000000000000000000000000000000000000000000000000081600081518110611f0b57634e487b7160e01b600052603260045260246000fd5b60200101906001600160f81b031916908160001a9053507f780000000000000000000000000000000000000000000000000000000000000081600181518110611f6457634e487b7160e01b600052603260045260246000fd5b60200101906001600160f81b031916908160001a9053506000611f88846002612773565b611f9390600161275b565b90505b6001811115612034577f303132333435363738396162636465660000000000000000000000000000000085600f1660108110611fe257634e487b7160e01b600052603260045260246000fd5b1a60f81b82828151811061200657634e487b7160e01b600052603260045260246000fd5b60200101906001600160f81b031916908160001a90535060049490941c9361202d816127fd565b9050611f96565b5083156120835760405162461bcd60e51b815260206004820181905260248201527f537472696e67733a20686578206c656e67746820696e73756666696369656e7460448201526064016107da565b9392505050565b60008060005b6006548110156122685760007f00000000000000000000000000000000000000000000000000000000000000006001600160a01b0316631698ee828787600686815481106120ee57634e487b7160e01b600052603260045260246000fd5b60009182526020909120600a8083049091015460405160e087901b6001600160e01b03191681526001600160a01b03958616600482015293909416602484015290066003026101000a90910462ffffff16604482015260640160206040518083038186803b15801561215f57600080fd5b505afa158015612173573d6000803e3d6000fd5b505050506040513d601f19601f82011682018060405250810190612197919061228c565b90506001600160a01b0381166121ad5750612258565b6000816001600160a01b0316631a6865026040518163ffffffff1660e01b815260040160206040518083038186803b1580156121e857600080fd5b505afa1580156121fc573d6000803e3d6000fd5b505050506040513d601f19601f820116820180604052508101906122209190612510565b9050836fffffffffffffffffffffffffffffffff16816fffffffffffffffffffffffffffffffff161115612255578093508194505b50505b61226181612849565b9050612090565b505092915050565b600060208284031215612281578081fd5b8135612083816128b0565b60006020828403121561229d578081fd5b8151612083816128b0565b600080604083850312156122ba578081fd5b82356122c5816128b0565b915060208301356122d5816128b0565b809150509250929050565b600080600080608085870312156122f5578182fd5b8435612300816128b0565b9350602085013592506040850135612317816128b0565b91506060850135612327816128b0565b939692955090935050565b60008060408385031215612344578182fd5b823561234f816128b0565b946020939093013593505050565b6000806020838503121561236f578182fd5b823567ffffffffffffffff80821115612386578384fd5b818501915085601f830112612399578384fd5b8135818111156123a7578485fd5b8660208260051b85010111156123bb578485fd5b60209290920196919550909350505050565b6000602082840312156123de578081fd5b81518015158114612083578182fd5b6000602082840312156123fe578081fd5b5035919050565b60008060408385031215612417578182fd5b8235915060208301356122d5816128b0565b60006020828403121561243a578081fd5b81356001600160e01b031981168114612083578182fd5b600060208284031215612462578081fd5b81518060020b8114612083578182fd5b60008060408385031215612484578182fd5b505080516020909101519092909150565b600080600080606085870312156124aa578182fd5b8435935060208501359250604085013567ffffffffffffffff808211156124cf578384fd5b818701915087601f8301126124e2578384fd5b8135818111156124f0578485fd5b886020828501011115612501578485fd5b95989497505060200194505050565b600060208284031215612521578081fd5b81516fffffffffffffffffffffffffffffffff81168114612083578182fd5b600060208284031215612551578081fd5b813562ffffff81168114612083578182fd5b600060208284031215612574578081fd5b5051919050565b60008060006060848603121561258f578081fd5b8335925060208401356125a1816128b0565b915060408401356125b1816128b0565b809150509250925092565b600080600080600060a086880312156125d3578283fd5b853594506020860135935060408601356125ec816128b0565b925060608601356125fc816128b0565b9150608086013561260c816128b0565b809150509295509295909350565b600081518084526126328160208601602086016127d1565b601f01601f19169290920160200192915050565b600082516126588184602087016127d1565b9190910192915050565b7f416363657373436f6e74726f6c3a206163636f756e742000000000000000000081526000835161269a8160178501602088016127d1565b7f206973206d697373696e6720726f6c652000000000000000000000000000000060179184019182015283516126d78160288401602088016127d1565b01602801949350505050565b60006001600160a01b038088168352861515602084015285604084015280851660608401525060a060808301526113bf60a083018461261a565b602081526000612083602083018461261a565b60006001600160a01b038083168185168083038211156127525761275261289a565b01949350505050565b6000821982111561276e5761276e61289a565b500190565b600081600019048311821515161561278d5761278d61289a565b500290565b60006001600160a01b03838116908316818110156127b2576127b261289a565b039392505050565b6000828210156127cc576127cc61289a565b500390565b60005b838110156127ec5781810151838201526020016127d4565b83811115610a4d5750506000910152565b60008161280c5761280c61289a565b506000190190565b600181811c9082168061282857607f821691505b60208210811415611de457634e487b7160e01b600052602260045260246000fd5b600060001982141561285d5761285d61289a565b5060010190565b60007f80000000000000000000000000000000000000000000000000000000000000008214156128965761289661289a565b0390565b634e487b7160e01b600052601160045260246000fd5b6001600160a01b038116811461096357600080fdfea2646970667358221220373c9e4cc5de2ce684b36e9f2c3ea55641770d7b530bf6c0dae61c8bbf1fd8aa64736f6c63430008040033a54247010af6b3693b80aceddfad12e077c5de3571e6243fada502635f0d7d394d61696e7461696e61626c653a2043616c6c6572206973206e6f742061206d61",
  "devdoc": {
    "kind": "dev",
    "methods": {
      "getRoleAdmin(bytes32)": {
        "details": "Returns the admin role that controls `role`. See {grantRole} and {revokeRole}. To change a role's admin, use {_setRoleAdmin}."
      },
      "grantRole(bytes32,address)": {
        "details": "Grants `role` to `account`. If `account` had not been already granted `role`, emits a {RoleGranted} event. Requirements: - the caller must have ``role``'s admin role. May emit a {RoleGranted} event."
      },
      "hasRole(bytes32,address)": {
        "details": "Returns `true` if `account` has been granted `role`."
      },
      "renounceRole(bytes32,address)": {
        "details": "Revokes `role` from the calling account. Roles are often managed via {grantRole} and {revokeRole}: this function's purpose is to provide a mechanism for accounts to lose their privileges if they are compromised (such as when a trusted device is misplaced). If the calling account had been revoked `role`, emits a {RoleRevoked} event. Requirements: - the caller must be `account`. May emit a {RoleRevoked} event."
      },
      "revokeRole(bytes32,address)": {
        "details": "Revokes `role` from `account`. If `account` had been granted `role`, emits a {RoleRevoked} event. Requirements: - the caller must have ``role``'s admin role. May emit a {RoleRevoked} event."
      },
      "supportsInterface(bytes4)": {
        "details": "See {IERC165-supportsInterface}."
      }
    },
    "version": 1
  },
  "userdoc": {
    "kind": "user",
    "methods": {},
    "version": 1
  },
  "storageLayout": {
    "storage": [
      {
        "astId": 24,
        "contract": "src/contracts/adapters/UniswapV3Adapter.sol:UniswapV3Adapter",
        "label": "_roles",
        "offset": 0,
        "slot": "0",
        "type": "t_mapping(t_bytes32,t_struct(RoleData)19_storage)"
      },
      {
        "astId": 718,
        "contract": "src/contracts/adapters/UniswapV3Adapter.sol:UniswapV3Adapter",
        "label": "swapGasEstimate",
        "offset": 0,
        "slot": "1",
        "type": "t_uint256"
      },
      {
        "astId": 720,
        "contract": "src/contracts/adapters/UniswapV3Adapter.sol:UniswapV3Adapter",
        "label": "name",
        "offset": 0,
        "slot": "2",
        "type": "t_string_storage"
      },
      {
        "astId": 1355,
        "contract": "src/contracts/adapters/UniswapV3Adapter.sol:UniswapV3Adapter",
        "label": "quoterGasLimit",
        "offset": 0,
        "slot": "3",
        "type": "t_uint256"
      },
      {
        "astId": 1357,
        "contract": "src/contracts/adapters/UniswapV3Adapter.sol:UniswapV3Adapter",
        "label": "quoter",
        "offset": 0,
        "slot": "4",
        "type": "t_address"
      },
      {
        "astId": 1027,
        "contract": "src/contracts/adapters/UniswapV3Adapter.sol:UniswapV3Adapter",
        "label": "isFeeAmountEnabled",
        "offset": 0,
        "slot": "5",
        "type": "t_mapping(t_uint24,t_bool)"
      },
      {
        "astId": 1030,
        "contract": "src/contracts/adapters/UniswapV3Adapter.sol:UniswapV3Adapter",
        "label": "feeAmounts",
        "offset": 0,
        "slot": "6",
        "type": "t_array(t_uint24)dyn_storage"
      }
    ],
    "types": {
      "t_address": {
        "encoding": "inplace",
        "label": "address",
        "numberOfBytes": "20"
      },
      "t_array(t_uint24)dyn_storage": {
        "base": "t_uint24",
        "encoding": "dynamic_array",
        "label": "uint24[]",
        "numberOfBytes": "32"
      },
      "t_bool": {
        "encoding": "inplace",
        "label": "bool",
        "numberOfBytes": "1"
      },
      "t_bytes32": {
        "encoding": "inplace",
        "label": "bytes32",
        "numberOfBytes": "32"
      },
      "t_mapping(t_address,t_bool)": {
        "encoding": "mapping",
        "key": "t_address",
        "label": "mapping(address => bool)",
        "numberOfBytes": "32",
        "value": "t_bool"
      },
      "t_mapping(t_bytes32,t_struct(RoleData)19_storage)": {
        "encoding": "mapping",
        "key": "t_bytes32",
        "label": "mapping(bytes32 => struct AccessControl.RoleData)",
        "numberOfBytes": "32",
        "value": "t_struct(RoleData)19_storage"
      },
      "t_mapping(t_uint24,t_bool)": {
        "encoding": "mapping",
        "key": "t_uint24",
        "label": "mapping(uint24 => bool)",
        "numberOfBytes": "32",
        "value": "t_bool"
      },
      "t_string_storage": {
        "encoding": "bytes",
        "label": "string",
        "numberOfBytes": "32"
      },
      "t_struct(RoleData)19_storage": {
        "encoding": "inplace",
        "label": "struct AccessControl.RoleData",
        "members": [
          {
            "astId": 16,
            "contract": "src/contracts/adapters/UniswapV3Adapter.sol:UniswapV3Adapter",
            "label": "members",
            "offset": 0,
            "slot": "0",
            "type": "t_mapping(t_address,t_bool)"
          },
          {
            "astId": 18,
            "contract": "src/contracts/adapters/UniswapV3Adapter.sol:UniswapV3Adapter",
            "label": "adminRole",
            "offset": 0,
            "slot": "1",
            "type": "t_bytes32"
          }
        ],
        "numberOfBytes": "64"
      },
      "t_uint24": {
        "encoding": "inplace",
        "label": "uint24",
        "numberOfBytes": "3"
      },
      "t_uint256": {
        "encoding": "inplace",
        "label": "uint256",
        "numberOfBytes": "32"
      }
    }
  }
}