{
  "address": "0xC4729E56b831d74bBc18797e0e17A295fA77488c",
  "abi": [
    {
      "inputs": [
        {
          "internalType": "address[]",
          "name": "_adapters",
          "type": "address[]"
        },
        {
          "internalType": "address[]",
          "name": "_trustedTokens",
          "type": "address[]"
        },
        {
          "internalType": "address",
          "name": "_feeClaimer",
          "type": "address"
        }
      ],
      "stateMutability": "nonpayable",
      "type": "constructor"
    },
    {
      "anonymous": false,
      "inputs": [
        {
          "indexed": true,
          "internalType": "address",
          "name": "previousOwner",
          "type": "address"
        },
        {
          "indexed": true,
          "internalType": "address",
          "name": "newOwner",
          "type": "address"
        }
      ],
      "name": "OwnershipTransferred",
      "type": "event"
    },
    {
      "anonymous": false,
      "inputs": [
        {
          "indexed": true,
          "internalType": "address",
          "name": "_asset",
          "type": "address"
        },
        {
          "indexed": false,
          "internalType": "uint256",
          "name": "amount",
          "type": "uint256"
        }
      ],
      "name": "Recovered",
      "type": "event"
    },
    {
      "anonymous": false,
      "inputs": [
        {
          "indexed": false,
          "internalType": "address[]",
          "name": "_newAdapters",
          "type": "address[]"
        }
      ],
      "name": "UpdatedAdapters",
      "type": "event"
    },
    {
      "anonymous": false,
      "inputs": [
        {
          "indexed": false,
          "internalType": "address",
          "name": "_oldFeeClaimer",
          "type": "address"
        },
        {
          "indexed": false,
          "internalType": "address",
          "name": "_newFeeClaimer",
          "type": "address"
        }
      ],
      "name": "UpdatedFeeClaimer",
      "type": "event"
    },
    {
      "anonymous": false,
      "inputs": [
        {
          "indexed": false,
          "internalType": "uint256",
          "name": "_oldMinFee",
          "type": "uint256"
        },
        {
          "indexed": false,
          "internalType": "uint256",
          "name": "_newMinFee",
          "type": "uint256"
        }
      ],
      "name": "UpdatedMinFee",
      "type": "event"
    },
    {
      "anonymous": false,
      "inputs": [
        {
          "indexed": false,
          "internalType": "address[]",
          "name": "_newTrustedTokens",
          "type": "address[]"
        }
      ],
      "name": "UpdatedTrustedTokens",
      "type": "event"
    },
    {
      "anonymous": false,
      "inputs": [
        {
          "indexed": true,
          "internalType": "address",
          "name": "_tokenIn",
          "type": "address"
        },
        {
          "indexed": true,
          "internalType": "address",
          "name": "_tokenOut",
          "type": "address"
        },
        {
          "indexed": false,
          "internalType": "uint256",
          "name": "_amountIn",
          "type": "uint256"
        },
        {
          "indexed": false,
          "internalType": "uint256",
          "name": "_amountOut",
          "type": "uint256"
        }
      ],
      "name": "YakSwap",
      "type": "event"
    },
    {
      "inputs": [
        {
          "internalType": "uint256",
          "name": "",
          "type": "uint256"
        }
      ],
      "name": "ADAPTERS",
      "outputs": [
        {
          "internalType": "address",
          "name": "",
          "type": "address"
        }
      ],
      "stateMutability": "view",
      "type": "function"
    },
    {
      "inputs": [],
      "name": "AVAX",
      "outputs": [
        {
          "internalType": "address",
          "name": "",
          "type": "address"
        }
      ],
      "stateMutability": "view",
      "type": "function"
    },
    {
      "inputs": [],
      "name": "FEE_CLAIMER",
      "outputs": [
        {
          "internalType": "address",
          "name": "",
          "type": "address"
        }
      ],
      "stateMutability": "view",
      "type": "function"
    },
    {
      "inputs": [],
      "name": "FEE_DENOMINATOR",
      "outputs": [
        {
          "internalType": "uint256",
          "name": "",
          "type": "uint256"
        }
      ],
      "stateMutability": "view",
      "type": "function"
    },
    {
      "inputs": [],
      "name": "MIN_FEE",
      "outputs": [
        {
          "internalType": "uint256",
          "name": "",
          "type": "uint256"
        }
      ],
      "stateMutability": "view",
      "type": "function"
    },
    {
      "inputs": [],
      "name": "NAME",
      "outputs": [
        {
          "internalType": "string",
          "name": "",
          "type": "string"
        }
      ],
      "stateMutability": "view",
      "type": "function"
    },
    {
      "inputs": [
        {
          "internalType": "uint256",
          "name": "",
          "type": "uint256"
        }
      ],
      "name": "TRUSTED_TOKENS",
      "outputs": [
        {
          "internalType": "address",
          "name": "",
          "type": "address"
        }
      ],
      "stateMutability": "view",
      "type": "function"
    },
    {
      "inputs": [],
      "name": "WAVAX",
      "outputs": [
        {
          "internalType": "address",
          "name": "",
          "type": "address"
        }
      ],
      "stateMutability": "view",
      "type": "function"
    },
    {
      "inputs": [],
      "name": "adaptersCount",
      "outputs": [
        {
          "internalType": "uint256",
          "name": "",
          "type": "uint256"
        }
      ],
      "stateMutability": "view",
      "type": "function"
    },
    {
      "inputs": [
        {
          "internalType": "uint256",
          "name": "_amountIn",
          "type": "uint256"
        },
        {
          "internalType": "address",
          "name": "_tokenIn",
          "type": "address"
        },
        {
          "internalType": "address",
          "name": "_tokenOut",
          "type": "address"
        },
        {
          "internalType": "uint256",
          "name": "_maxSteps",
          "type": "uint256"
        }
      ],
      "name": "findBestPath",
      "outputs": [
        {
          "components": [
            {
              "internalType": "uint256[]",
              "name": "amounts",
              "type": "uint256[]"
            },
            {
              "internalType": "address[]",
              "name": "adapters",
              "type": "address[]"
            },
            {
              "internalType": "address[]",
              "name": "path",
              "type": "address[]"
            }
          ],
          "internalType": "struct YakRouter.FormattedOffer",
          "name": "",
          "type": "tuple"
        }
      ],
      "stateMutability": "view",
      "type": "function"
    },
    {
      "inputs": [
        {
          "internalType": "uint256",
          "name": "_amountIn",
          "type": "uint256"
        },
        {
          "internalType": "address",
          "name": "_tokenIn",
          "type": "address"
        },
        {
          "internalType": "address",
          "name": "_tokenOut",
          "type": "address"
        },
        {
          "internalType": "uint256",
          "name": "_maxSteps",
          "type": "uint256"
        },
        {
          "internalType": "uint256",
          "name": "_gasPrice",
          "type": "uint256"
        }
      ],
      "name": "findBestPathWithGas",
      "outputs": [
        {
          "components": [
            {
              "internalType": "uint256[]",
              "name": "amounts",
              "type": "uint256[]"
            },
            {
              "internalType": "address[]",
              "name": "adapters",
              "type": "address[]"
            },
            {
              "internalType": "address[]",
              "name": "path",
              "type": "address[]"
            },
            {
              "internalType": "uint256",
              "name": "gasEstimate",
              "type": "uint256"
            }
          ],
          "internalType": "struct YakRouter.FormattedOfferWithGas",
          "name": "",
          "type": "tuple"
        }
      ],
      "stateMutability": "view",
      "type": "function"
    },
    {
      "inputs": [],
      "name": "owner",
      "outputs": [
        {
          "internalType": "address",
          "name": "",
          "type": "address"
        }
      ],
      "stateMutability": "view",
      "type": "function"
    },
    {
      "inputs": [
        {
          "internalType": "uint256",
          "name": "_amountIn",
          "type": "uint256"
        },
        {
          "internalType": "address",
          "name": "_tokenIn",
          "type": "address"
        },
        {
          "internalType": "address",
          "name": "_tokenOut",
          "type": "address"
        },
        {
          "internalType": "uint8",
          "name": "_index",
          "type": "uint8"
        }
      ],
      "name": "queryAdapter",
      "outputs": [
        {
          "internalType": "uint256",
          "name": "",
          "type": "uint256"
        }
      ],
      "stateMutability": "view",
      "type": "function"
    },
    {
      "inputs": [
        {
          "internalType": "uint256",
          "name": "_amountIn",
          "type": "uint256"
        },
        {
          "internalType": "address",
          "name": "_tokenIn",
          "type": "address"
        },
        {
          "internalType": "address",
          "name": "_tokenOut",
          "type": "address"
        },
        {
          "internalType": "uint8[]",
          "name": "_options",
          "type": "uint8[]"
        }
      ],
      "name": "queryNoSplit",
      "outputs": [
        {
          "components": [
            {
              "internalType": "address",
              "name": "adapter",
              "type": "address"
            },
            {
              "internalType": "address",
              "name": "tokenIn",
              "type": "address"
            },
            {
              "internalType": "address",
              "name": "tokenOut",
              "type": "address"
            },
            {
              "internalType": "uint256",
              "name": "amountOut",
              "type": "uint256"
            }
          ],
          "internalType": "struct YakRouter.Query",
          "name": "",
          "type": "tuple"
        }
      ],
      "stateMutability": "view",
      "type": "function"
    },
    {
      "inputs": [
        {
          "internalType": "uint256",
          "name": "_amountIn",
          "type": "uint256"
        },
        {
          "internalType": "address",
          "name": "_tokenIn",
          "type": "address"
        },
        {
          "internalType": "address",
          "name": "_tokenOut",
          "type": "address"
        }
      ],
      "name": "queryNoSplit",
      "outputs": [
        {
          "components": [
            {
              "internalType": "address",
              "name": "adapter",
              "type": "address"
            },
            {
              "internalType": "address",
              "name": "tokenIn",
              "type": "address"
            },
            {
              "internalType": "address",
              "name": "tokenOut",
              "type": "address"
            },
            {
              "internalType": "uint256",
              "name": "amountOut",
              "type": "uint256"
            }
          ],
          "internalType": "struct YakRouter.Query",
          "name": "",
          "type": "tuple"
        }
      ],
      "stateMutability": "view",
      "type": "function"
    },
    {
      "inputs": [
        {
          "internalType": "uint256",
          "name": "_amount",
          "type": "uint256"
        }
      ],
      "name": "recoverAVAX",
      "outputs": [],
      "stateMutability": "nonpayable",
      "type": "function"
    },
    {
      "inputs": [
        {
          "internalType": "address",
          "name": "_tokenAddress",
          "type": "address"
        },
        {
          "internalType": "uint256",
          "name": "_tokenAmount",
          "type": "uint256"
        }
      ],
      "name": "recoverERC20",
      "outputs": [],
      "stateMutability": "nonpayable",
      "type": "function"
    },
    {
      "inputs": [],
      "name": "renounceOwnership",
      "outputs": [],
      "stateMutability": "nonpayable",
      "type": "function"
    },
    {
      "inputs": [
        {
          "internalType": "address[]",
          "name": "_adapters",
          "type": "address[]"
        }
      ],
      "name": "setAdapters",
      "outputs": [],
      "stateMutability": "nonpayable",
      "type": "function"
    },
    {
      "inputs": [
        {
          "internalType": "address",
          "name": "_claimer",
          "type": "address"
        }
      ],
      "name": "setFeeClaimer",
      "outputs": [],
      "stateMutability": "nonpayable",
      "type": "function"
    },
    {
      "inputs": [
        {
          "internalType": "uint256",
          "name": "_fee",
          "type": "uint256"
        }
      ],
      "name": "setMinFee",
      "outputs": [],
      "stateMutability": "nonpayable",
      "type": "function"
    },
    {
      "inputs": [
        {
          "internalType": "address[]",
          "name": "_trustedTokens",
          "type": "address[]"
        }
      ],
      "name": "setTrustedTokens",
      "outputs": [],
      "stateMutability": "nonpayable",
      "type": "function"
    },
    {
      "inputs": [
        {
          "components": [
            {
              "internalType": "uint256",
              "name": "amountIn",
              "type": "uint256"
            },
            {
              "internalType": "uint256",
              "name": "amountOut",
              "type": "uint256"
            },
            {
              "internalType": "address[]",
              "name": "path",
              "type": "address[]"
            },
            {
              "internalType": "address[]",
              "name": "adapters",
              "type": "address[]"
            }
          ],
          "internalType": "struct YakRouter.Trade",
          "name": "_trade",
          "type": "tuple"
        },
        {
          "internalType": "address",
          "name": "_to",
          "type": "address"
        },
        {
          "internalType": "uint256",
          "name": "_fee",
          "type": "uint256"
        }
      ],
      "name": "swapNoSplit",
      "outputs": [],
      "stateMutability": "nonpayable",
      "type": "function"
    },
    {
      "inputs": [
        {
          "components": [
            {
              "internalType": "uint256",
              "name": "amountIn",
              "type": "uint256"
            },
            {
              "internalType": "uint256",
              "name": "amountOut",
              "type": "uint256"
            },
            {
              "internalType": "address[]",
              "name": "path",
              "type": "address[]"
            },
            {
              "internalType": "address[]",
              "name": "adapters",
              "type": "address[]"
            }
          ],
          "internalType": "struct YakRouter.Trade",
          "name": "_trade",
          "type": "tuple"
        },
        {
          "internalType": "address",
          "name": "_to",
          "type": "address"
        },
        {
          "internalType": "uint256",
          "name": "_fee",
          "type": "uint256"
        }
      ],
      "name": "swapNoSplitFromAVAX",
      "outputs": [],
      "stateMutability": "payable",
      "type": "function"
    },
    {
      "inputs": [
        {
          "components": [
            {
              "internalType": "uint256",
              "name": "amountIn",
              "type": "uint256"
            },
            {
              "internalType": "uint256",
              "name": "amountOut",
              "type": "uint256"
            },
            {
              "internalType": "address[]",
              "name": "path",
              "type": "address[]"
            },
            {
              "internalType": "address[]",
              "name": "adapters",
              "type": "address[]"
            }
          ],
          "internalType": "struct YakRouter.Trade",
          "name": "_trade",
          "type": "tuple"
        },
        {
          "internalType": "address",
          "name": "_to",
          "type": "address"
        },
        {
          "internalType": "uint256",
          "name": "_fee",
          "type": "uint256"
        }
      ],
      "name": "swapNoSplitToAVAX",
      "outputs": [],
      "stateMutability": "nonpayable",
      "type": "function"
    },
    {
      "inputs": [
        {
          "components": [
            {
              "internalType": "uint256",
              "name": "amountIn",
              "type": "uint256"
            },
            {
              "internalType": "uint256",
              "name": "amountOut",
              "type": "uint256"
            },
            {
              "internalType": "address[]",
              "name": "path",
              "type": "address[]"
            },
            {
              "internalType": "address[]",
              "name": "adapters",
              "type": "address[]"
            }
          ],
          "internalType": "struct YakRouter.Trade",
          "name": "_trade",
          "type": "tuple"
        },
        {
          "internalType": "address",
          "name": "_to",
          "type": "address"
        },
        {
          "internalType": "uint256",
          "name": "_fee",
          "type": "uint256"
        },
        {
          "internalType": "uint256",
          "name": "_deadline",
          "type": "uint256"
        },
        {
          "internalType": "uint8",
          "name": "_v",
          "type": "uint8"
        },
        {
          "internalType": "bytes32",
          "name": "_r",
          "type": "bytes32"
        },
        {
          "internalType": "bytes32",
          "name": "_s",
          "type": "bytes32"
        }
      ],
      "name": "swapNoSplitToAVAXWithPermit",
      "outputs": [],
      "stateMutability": "nonpayable",
      "type": "function"
    },
    {
      "inputs": [
        {
          "components": [
            {
              "internalType": "uint256",
              "name": "amountIn",
              "type": "uint256"
            },
            {
              "internalType": "uint256",
              "name": "amountOut",
              "type": "uint256"
            },
            {
              "internalType": "address[]",
              "name": "path",
              "type": "address[]"
            },
            {
              "internalType": "address[]",
              "name": "adapters",
              "type": "address[]"
            }
          ],
          "internalType": "struct YakRouter.Trade",
          "name": "_trade",
          "type": "tuple"
        },
        {
          "internalType": "address",
          "name": "_to",
          "type": "address"
        },
        {
          "internalType": "uint256",
          "name": "_fee",
          "type": "uint256"
        },
        {
          "internalType": "uint256",
          "name": "_deadline",
          "type": "uint256"
        },
        {
          "internalType": "uint8",
          "name": "_v",
          "type": "uint8"
        },
        {
          "internalType": "bytes32",
          "name": "_r",
          "type": "bytes32"
        },
        {
          "internalType": "bytes32",
          "name": "_s",
          "type": "bytes32"
        }
      ],
      "name": "swapNoSplitWithPermit",
      "outputs": [],
      "stateMutability": "nonpayable",
      "type": "function"
    },
    {
      "inputs": [
        {
          "internalType": "address",
          "name": "newOwner",
          "type": "address"
        }
      ],
      "name": "transferOwnership",
      "outputs": [],
      "stateMutability": "nonpayable",
      "type": "function"
    },
    {
      "inputs": [],
      "name": "trustedTokensCount",
      "outputs": [
        {
          "internalType": "uint256",
          "name": "",
          "type": "uint256"
        }
      ],
      "stateMutability": "view",
      "type": "function"
    },
    {
      "stateMutability": "payable",
      "type": "receive"
    }
  ],
  "transactionHash": "0x2e08d30abf4c62311a51edd6483ead24646f912180d9b6adb165ad04e50f2cba",
  "args": [
    [
      "0x3614657EDc3cb90BA420E5f4F61679777e4974E3",
      "0x3f314530a4964acCA1f20dad2D35275C23Ed7F5d",
      "0x17C452a812eBDbF36df61b0103B62Fa6C46F4475",
      "0xA5e0B490be8A2f8281e09d5920953c65e803a1DC",
      "0x5dDa78a87c6C9131C07081E0fd49c432884E9dB1",
      "0x1753199414f075C6D6Bb41699381b2415957daC7",
      "0xa2Cf5836EcF2Da58cdA01690Feb644800C22B896",
      "0x960C437F0ED35dDFDB7797CA77A0AceB65f66751",
      "0x2296706d53e6522942E8714Bdbc2e50625C5d4D4",
      "0x4884E64D9Ae8e00e9Da80f0B7791c998ac8828B7",
      "0x592E3D359E4A8Ed5f08f38806B1b7f70AA3DB4F2",
      "0x87E6989A7AB5C707608Fd6773Fe32413871F4C8e",
      "0x599610cf20379B5D21A4A3Ea84CB76E0F2a5f70f",
      "0x1276350e5855B2BCD089722a678C7D16f3ab5923",
      "0xb2e51D2E2B85DbbE8C758C753b5BdA3f86Af05E4",
      "0x4E5a8D1EB5250c766AD55eE18314a76Fcb92A867",
      "0x2BC16C1D9A5E6af362277ED424130cC6b2DDe2D9",
      "0xDB66686Ac8bEA67400CF9E5DD6c8849575B90148",
      "0xd311F964Dd5bb5ecBd971592E845b0fb74c98b39",
      "0x364FD64a98bD60aA798Ea8c61bb30d404102E900",
      "0x0EF5922f909374ccd7841a81F44ab109648b7ba5",
      "0x9a76D67e67aE285856846C2Fa080adEcE60CfC9A",
      "0x6E73F353e4AE3E5005daaD619F22D7C7B790c4f3",
      "0x273FcA9cd4C4873EFC303b0b61b5E5CB35CD9A70",
      "0x5BaCF41D5D6B16183c2B980BcE0FbbE5ea125d2F"
    ],
    [
      "0xB31f66AA3C1e785363F0875A1B74E27b85FD66c7",
      "0x49D5c2BdFfac6CE2BFdB6640F4F80f226bc10bAB",
      "0xc7198437980c041c805A1EDcbA50c1Ce5db95118",
      "0xA7D7079b0FEaD91F3e65f86E8915Cb59c1a4C664",
      "0xd586E7F844cEa2F87f50152665BCbc2C279D8d70",
      "0x50b7545627a5162F82A992c33b87aDc75187B218",
      "0x5947BB275c521040051D82396192181b413227A3",
      "0x60781C2586D68229fde47564546784ab3fACA982",
      "0x6e84a6216eA6dACC71eE8E6b0a5B7322EEbC0fDd",
      "0xe896CDeaAC9615145c0cA09C8Cd5C25bced6384c",
      "0xC38f41A296A4493Ff429F1238e030924A1542e50"
    ],
    "0xd22044706DeA3c342f68396bEDBCf6a2536d951D"
  ],
  "solcInputHash": "d9b0559cdc6c4f6c37a22c036da43e60",
  "bytecode": "0x608060405260006001553480156200001657600080fd5b5060405162003f2638038062003f26833981016040819052620000399162000662565b600062000045620000c3565b600080546001600160a01b0319166001600160a01b0383169081178255604051929350917f8be0079c531659141344cd1fd0a4f28419497f9722a3daafe3b4186f6b6457e0908290a3506200009a82620000c7565b620000a58162000181565b620000b08362000254565b620000ba6200030a565b505050620008b7565b3390565b620000d1620000c3565b6001600160a01b0316620000e46200033b565b6001600160a01b0316146200012f576040805162461bcd60e51b8152602060048201819052602482015260008051602062003f06833981519152604482015290519081900360640190fd5b7f658ff1688002926d8f426cb10c052ec29003f50042df9652d8613484c1a58647816040516200016091906200078c565b60405180910390a180516200017d9060039060208401906200052a565b5050565b6200018b620000c3565b6001600160a01b03166200019e6200033b565b6001600160a01b031614620001e9576040805162461bcd60e51b8152602060048201819052602482015260008051602062003f06833981519152604482015290519081900360640190fd5b6002546040517fb2c853ac4d80d18d058c43d8018d077a036e542a79acae1647f5ad2a8c76f4e2916200022a916001600160a01b0390911690849062000759565b60405180910390a1600280546001600160a01b0319166001600160a01b0392909216919091179055565b6200025e620000c3565b6001600160a01b0316620002716200033b565b6001600160a01b031614620002bc576040805162461bcd60e51b8152602060048201819052602482015260008051602062003f06833981519152604482015290519081900360640190fd5b7febf7325f48e05e5e38809c69f8b02a7c907ed31d8768e6c2d841b1296a9225fe81604051620002ed91906200078c565b60405180910390a180516200017d9060049060208401906200052a565b6200033973b31f66aa3c1e785363f0875a1b74e27b85fd66c7806000196200034a602090811b6200147f17901c565b565b6000546001600160a01b031690565b801580620003d95750604051636eb1769f60e11b81526001600160a01b0384169063dd62ed3e9062000383903090869060040162000759565b60206040518083038186803b1580156200039c57600080fd5b505afa158015620003b1573d6000803e3d6000fd5b505050506040513d601f19601f82011682018060405250810190620003d7919062000704565b155b620004015760405162461bcd60e51b8152600401620003f8906200085a565b60405180910390fd5b6200045c8363095ea7b360e01b84846040516024016200042392919062000773565b60408051808303601f190181529190526020810180516001600160e01b0319939093166001600160e01b03938416179052906200046116565b505050565b600080836001600160a01b0316836040516200047e91906200071d565b6000604051808303816000865af19150503d8060008114620004bd576040519150601f19603f3d011682016040523d82523d6000602084013e620004c2565b606091505b509150915081620004e75760405162461bcd60e51b8152600401620003f890620007db565b805115620005245780806020019051810190620005059190620006db565b620005245760405162461bcd60e51b8152600401620003f89062000810565b50505050565b82805482825590600052602060002090810192821562000582579160200282015b828111156200058257825182546001600160a01b0319166001600160a01b039091161782556020909201916001909101906200054b565b506200059092915062000594565b5090565b5b8082111562000590576000815560010162000595565b80516001600160a01b0381168114620005c357600080fd5b919050565b600082601f830112620005d9578081fd5b815160206001600160401b0380831115620005f057fe5b818302604051838282010181811084821117156200060a57fe5b6040528481528381019250868401828801850189101562000629578687fd5b8692505b8583101562000656576200064181620005ab565b8452928401926001929092019184016200062d565b50979650505050505050565b60008060006060848603121562000677578283fd5b83516001600160401b03808211156200068e578485fd5b6200069c87838801620005c8565b94506020860151915080821115620006b2578384fd5b50620006c186828701620005c8565b925050620006d260408501620005ab565b90509250925092565b600060208284031215620006ed578081fd5b81518015158114620006fd578182fd5b9392505050565b60006020828403121562000716578081fd5b5051919050565b60008251815b818110156200073f576020818601810151858301520162000723565b818111156200074e5782828501525b509190910192915050565b6001600160a01b0392831681529116602082015260400190565b6001600160a01b03929092168252602082015260400190565b6020808252825182820181905260009190848201906040850190845b81811015620007cf5783516001600160a01b031683529284019291840191600101620007a8565b50909695505050505050565b6020808252818101527f5361666545524332303a206c6f772d6c6576656c2063616c6c206661696c6564604082015260600190565b6020808252602a908201527f5361666545524332303a204552433230206f7065726174696f6e20646964206e6040820152691bdd081cdd58d8d9595960b21b606082015260800190565b60208082526036908201527f5361666545524332303a20617070726f76652066726f6d206e6f6e2d7a65726f60408201527f20746f206e6f6e2d7a65726f20616c6c6f77616e636500000000000000000000606082015260800190565b61363f80620008c76000396000f3fe6080604052600436106101c55760003560e01c80637c7a561b116100f7578063b59f091e11610095578063dede7f1511610064578063dede7f15146104dc578063f0350382146104fc578063f2fde38b1461051c578063fe38c5e61461053c576101cc565b8063b59f091e14610472578063c3accd4814610487578063c8a3a5c6146104a7578063d73792a9146104c7576101cc565b80638da5cb5b116100d15780638da5cb5b146103ee57806392f5d88a14610403578063952e901214610430578063a3f4df7e14610450576101cc565b80637c7a561b14610399578063809356aa146103ae5780638980f11f146103ce576101cc565b806352a52ab01161016457806373b295c21161013e57806373b295c21461032d57806375d199471461034257806376c7a3c71461036257806376ebe69c14610384576101cc565b806352a52ab0146102d85780636bf2df86146102f8578063715018a614610318576101cc565b806331ac9920116101a057806331ac99201461024b5780633a9a40811461026b5780634c09cf4e1461028b5780634ebb7916146102b8576101cc565b8062b99e36146101d1578063061b15e7146101fc5780631e189dc214610229576101cc565b366101cc57005b600080fd5b3480156101dd57600080fd5b506101e661054f565b6040516101f39190613030565b60405180910390f35b34801561020857600080fd5b5061021c610217366004612ec3565b61055e565b6040516101f391906133db565b34801561023557600080fd5b50610249610244366004612cfa565b610679565b005b34801561025757600080fd5b50610249610266366004612d7d565b610727565b34801561027757600080fd5b50610249610286366004612b5c565b6107db565b34801561029757600080fd5b506102ab6102a6366004612e80565b61089d565b6040516101f3919061344a565b3480156102c457600080fd5b506102496102d3366004612d7d565b610944565b3480156102e457600080fd5b506101e66102f3366004612d7d565b610a4b565b34801561030457600080fd5b50610249610313366004612ca5565b610a75565b34801561032457600080fd5b50610249610a87565b34801561033957600080fd5b506101e6610b52565b34801561034e57600080fd5b5061024961035d366004612cfa565b610b6a565b34801561036e57600080fd5b50610377610c0f565b6040516101f391906134e1565b34801561039057600080fd5b50610377610c15565b3480156103a557600080fd5b50610377610c1b565b3480156103ba57600080fd5b506103776103c9366004612f10565b610c21565b3480156103da57600080fd5b506102496103e9366004612b33565b610cce565b3480156103fa57600080fd5b506101e6610dbb565b34801561040f57600080fd5b5061042361041e366004612de8565b610dca565b6040516101f391906134a2565b34801561043c57600080fd5b506101e661044b366004612d7d565b610f1a565b34801561045c57600080fd5b50610465610f2a565b6040516101f3919061311d565b34801561047e57600080fd5b506101e6610f63565b34801561049357600080fd5b506102496104a2366004612b19565b610f68565b3480156104b357600080fd5b506102496104c2366004612b5c565b611052565b3480156104d357600080fd5b50610377611110565b3480156104e857600080fd5b506104236104f7366004612dad565b611116565b34801561050857600080fd5b50610249610517366004612ca5565b611243565b34801561052857600080fd5b50610249610537366004612b19565b6112e0565b61024961054a366004612ca5565b611401565b6002546001600160a01b031681565b6105666129e3565b6000831180156105765750600583105b61059b5760405162461bcd60e51b815260040161059290613130565b60405180910390fd5b6105a36129e3565b6105ac876115c4565b81526105b7866115c4565b604082015260006105e7670de0b6b3a764000073b31f66aa3c1e785363f0875a1b74e27b85fd66c788600261089d565b90506000610621633b9aca0086845180519290910491600019810190811061060b57fe5b60200260200101516115ee90919063ffffffff16565b9050610631898989898786611660565b925082602001515160001415610663576040805160208082018352600080835291865282519081018352908152908401525b61066c83611974565b9998505050505050505050565b6106866040880188613545565b600081811061069157fe5b90506020020160208101906106a69190612b19565b60405163d505accf60e01b81526001600160a01b03919091169063d505accf906106e190339030908c35908a908a908a908a90600401613044565b600060405180830381600087803b1580156106fb57600080fd5b505af115801561070f573d6000803e3d6000fd5b5050505061071e878787611243565b50505050505050565b61072f6119cd565b6001600160a01b0316610740610dbb565b6001600160a01b03161461079b576040805162461bcd60e51b815260206004820181905260248201527f4f776e61626c653a2043616c6c6572206973206e6f7420746865206f776e6572604482015290519081900360640190fd5b7f4bb8a6184424e4bb853a4836042f5a726e4e710873989bfc6abdab19966f5b70600154826040516107ce929190613509565b60405180910390a1600155565b6107e36119cd565b6001600160a01b03166107f4610dbb565b6001600160a01b03161461084f576040805162461bcd60e51b815260206004820181905260248201527f4f776e61626c653a2043616c6c6572206973206e6f7420746865206f776e6572604482015290519081900360640190fd5b7febf7325f48e05e5e38809c69f8b02a7c907ed31d8768e6c2d841b1296a9225fe8160405161087e91906130dc565b60405180910390a18051610899906004906020840190612a0b565b5050565b6108a5612a7d565b6000821180156108b55750600582105b6108d15760405162461bcd60e51b815260040161059290613130565b6108d9612a7d565b6108e2866115c4565b81526108ed856115c4565b60408201526108ff86868686856119d1565b905080602001515160001415610931576040805160208082018352600080835291845282519081018352908152908201525b61093a81611b7b565b9695505050505050565b61094c6119cd565b6001600160a01b031661095d610dbb565b6001600160a01b0316146109b8576040805162461bcd60e51b815260206004820181905260248201527f4f776e61626c653a2043616c6c6572206973206e6f7420746865206f776e6572604482015290519081900360640190fd5b600081116109d85760405162461bcd60e51b8152600401610592906133a4565b604051339082156108fc029083906000818181858888f19350505050158015610a05573d6000803e3d6000fd5b5060006001600160a01b03167f8c1256b8896378cd5044f80c202f9772b9d77dc85c8a6eb51967210b09bfaa2882604051610a4091906134e1565b60405180910390a250565b60038181548110610a5b57600080fd5b6000918252602090912001546001600160a01b0316905081565b610a8183338484611bc7565b50505050565b610a8f6119cd565b6001600160a01b0316610aa0610dbb565b6001600160a01b031614610afb576040805162461bcd60e51b815260206004820181905260248201527f4f776e61626c653a2043616c6c6572206973206e6f7420746865206f776e6572604482015290519081900360640190fd5b600080546040516001600160a01b03909116907f8be0079c531659141344cd1fd0a4f28419497f9722a3daafe3b4186f6b6457e0908390a36000805473ffffffffffffffffffffffffffffffffffffffff19169055565b73b31f66aa3c1e785363f0875a1b74e27b85fd66c781565b610b776040880188613545565b6000818110610b8257fe5b9050602002016020810190610b979190612b19565b60405163d505accf60e01b81526001600160a01b03919091169063d505accf90610bd290339030908c35908a908a908a908a90600401613044565b600060405180830381600087803b158015610bec57600080fd5b505af1158015610c00573d6000803e3d6000fd5b5050505061071e878787610a75565b60015481565b60035490565b60045490565b60008060048360ff1681548110610c3457fe5b60009182526020822001546040516377ccc49d60e11b81526001600160a01b039091169250829063ef99893a90610c73908a908a908a906004016134ea565b60206040518083038186803b158015610c8b57600080fd5b505afa158015610c9f573d6000803e3d6000fd5b505050506040513d601f19601f82011682018060405250810190610cc39190612d95565b979650505050505050565b610cd66119cd565b6001600160a01b0316610ce7610dbb565b6001600160a01b031614610d42576040805162461bcd60e51b815260206004820181905260248201527f4f776e61626c653a2043616c6c6572206973206e6f7420746865206f776e6572604482015290519081900360640190fd5b60008111610d625760405162461bcd60e51b8152600401610592906133a4565b610d766001600160a01b0383163383612165565b816001600160a01b03167f8c1256b8896378cd5044f80c202f9772b9d77dc85c8a6eb51967210b09bfaa2882604051610daf91906134e1565b60405180910390a25050565b6000546001600160a01b031690565b610dd2612a9e565b610dda612a9e565b60005b60ff8116841115610f0f576000600486868460ff16818110610dfb57fe5b9050602002016020810190610e109190612f5c565b60ff1681548110610e1d57fe5b60009182526020822001546040516377ccc49d60e11b81526001600160a01b039091169250829063ef99893a90610e5c908d908d908d906004016134ea565b60206040518083038186803b158015610e7457600080fd5b505afa158015610e88573d6000803e3d6000fd5b505050506040513d601f19601f82011682018060405250810190610eac9190612d95565b905060ff83161580610ec15750836060015181115b15610f05576040518060800160405280836001600160a01b031681526020018a6001600160a01b03168152602001896001600160a01b031681526020018281525093505b5050600101610ddd565b509695505050505050565b60048181548110610a5b57600080fd5b6040518060400160405280600981526020017f59616b526f75746572000000000000000000000000000000000000000000000081525081565b600081565b610f706119cd565b6001600160a01b0316610f81610dbb565b6001600160a01b031614610fdc576040805162461bcd60e51b815260206004820181905260248201527f4f776e61626c653a2043616c6c6572206973206e6f7420746865206f776e6572604482015290519081900360640190fd5b6002546040517fb2c853ac4d80d18d058c43d8018d077a036e542a79acae1647f5ad2a8c76f4e29161101b916001600160a01b03909116908490613085565b60405180910390a16002805473ffffffffffffffffffffffffffffffffffffffff19166001600160a01b0392909216919091179055565b61105a6119cd565b6001600160a01b031661106b610dbb565b6001600160a01b0316146110c6576040805162461bcd60e51b815260206004820181905260248201527f4f776e61626c653a2043616c6c6572206973206e6f7420746865206f776e6572604482015290519081900360640190fd5b7f658ff1688002926d8f426cb10c052ec29003f50042df9652d8613484c1a58647816040516110f591906130dc565b60405180910390a18051610899906003906020840190612a0b565b61271081565b61111e612a9e565b611126612a9e565b60005b60045460ff8216101561123a57600060048260ff168154811061114857fe5b60009182526020822001546040516377ccc49d60e11b81526001600160a01b039091169250829063ef99893a90611187908b908b908b906004016134ea565b60206040518083038186803b15801561119f57600080fd5b505afa1580156111b3573d6000803e3d6000fd5b505050506040513d601f19601f820116820180604052508101906111d79190612d95565b905060ff831615806111ec5750836060015181115b15611230576040518060800160405280836001600160a01b03168152602001886001600160a01b03168152602001876001600160a01b031681526020018281525093505b5050600101611129565b50949350505050565b73b31f66aa3c1e785363f0875a1b74e27b85fd66c76112656040850185613545565b60016112746040880188613545565b90500381811061128057fe5b90506020020160208101906112959190612b19565b6001600160a01b0316146112bb5760405162461bcd60e51b815260040161059290613167565b60006112c984333085611bc7565b90506112d481612184565b610a8160008285612209565b6112e86119cd565b6001600160a01b03166112f9610dbb565b6001600160a01b031614611354576040805162461bcd60e51b815260206004820181905260248201527f4f776e61626c653a2043616c6c6572206973206e6f7420746865206f776e6572604482015290519081900360640190fd5b6001600160a01b0381166113995760405162461bcd60e51b81526004018080602001828103825260268152602001806135e46026913960400191505060405180910390fd5b600080546040516001600160a01b03808516939216917f8be0079c531659141344cd1fd0a4f28419497f9722a3daafe3b4186f6b6457e091a36000805473ffffffffffffffffffffffffffffffffffffffff19166001600160a01b0392909216919091179055565b73b31f66aa3c1e785363f0875a1b74e27b85fd66c76114236040850185613545565b600081811061142e57fe5b90506020020160208101906114439190612b19565b6001600160a01b0316146114695760405162461bcd60e51b8152600401610592906131f9565b6114738335612277565b610a8183308484611bc7565b80158061152057506040517fdd62ed3e0000000000000000000000000000000000000000000000000000000081526001600160a01b0384169063dd62ed3e906114ce9030908690600401613085565b60206040518083038186803b1580156114e657600080fd5b505afa1580156114fa573d6000803e3d6000fd5b505050506040513d601f19601f8201168201806040525081019061151e9190612d95565b155b61153c5760405162461bcd60e51b815260040161059290613347565b6115bf8363095ea7b360e01b848460405160240161155b9291906130c3565b60408051601f198184030181529190526020810180517bffffffffffffffffffffffffffffffffffffffffffffffffffffffff167fffffffff00000000000000000000000000000000000000000000000000000000909316929092179091526122e2565b505050565b60408051602080825281830190925260609160208201818036833750505060208101929092525090565b60008115806116095750508082028282828161160657fe5b04145b61165a576040805162461bcd60e51b815260206004820152601e60248201527f536166654d6174683a2064732d6d6174682d6d756c2d6f766572666c6f770000604482015290519081900360640190fd5b92915050565b6116686129e3565b600061167384612398565b90506000806116838a8a8a611116565b9050806060015160001461172c57600081600001516001600160a01b03166369cff80d6040518163ffffffff1660e01b815260040160206040518083038186803b1580156116d057600080fd5b505afa1580156116e4573d6000803e3d6000fd5b505050506040513d601f19601f820116820180604052508101906117089190612d95565b905061172384836060015184600001518560400151856123d8565b81606001519250505b60018711801561174e57506002870360208760200151518161174a57fe5b0411155b156119665760005b600354811015611964576003818154811061176d57fe5b6000918252602090912001546001600160a01b038b8116911614156117915761195c565b60006117bf8c8c600385815481106117a557fe5b6000918252602090912001546001600160a01b0316611116565b90508060600151600014156117d4575061195c565b60006117df89612398565b9050600082600001516001600160a01b03166369cff80d6040518163ffffffff1660e01b815260040160206040518083038186803b15801561182057600080fd5b505afa158015611834573d6000803e3d6000fd5b505050506040513d601f19601f820116820180604052508101906118589190612d95565b905061187382846060015185600001518660400151856123d8565b6118a683606001516003868154811061188857fe5b6000918252602090912001546001600160a01b03168e8e868e611660565b915060006118bd83604001515184604001516125c2565b835180519192506000916118d0916125c2565b9050816001600160a01b03168e6001600160a01b03161480156118f257508781115b156119565788606001518460600151111561194f576000633b9aca0061192b8b606001518760600151038e6115ee90919063ffffffff16565b8161193257fe5b0490508882038082111561194c575050505050505061195c565b50505b8097508398505b50505050505b600101611756565b505b509098975050505050505050565b61197c6129e3565b604051806080016040528061199484600001516125d5565b81526020016119a6846020015161266f565b81526020016119b8846040015161266f565b8152602001836060015181525090505b919050565b3390565b6119d9612a7d565b60006119e48361270e565b90506000806119f4898989611116565b90508060600151600014611a2257611a1a8382606001518360000151846040015161273a565b806060015191505b600186118015611a44575060028603602086602001515181611a4057fe5b0411155b15611b6e5760005b600354811015611b6c5760038181548110611a6357fe5b6000918252602090912001546001600160a01b038a811691161415611a8757611b64565b6000611a9b8b8b600385815481106117a557fe5b9050806060015160001415611ab05750611b64565b6000611abb8861270e565b9050611ad58183606001518460000151856040015161273a565b611b07826060015160038581548110611aea57fe5b6000918252602090912001546001600160a01b03168c8c856119d1565b90506000611b1e82604001515183604001516125c2565b82518051919250600091611b31916125c2565b9050816001600160a01b03168c6001600160a01b0316148015611b5357508681115b15611b5f578096508297505b505050505b600101611a4c565b505b5090979650505050505050565b611b83612a7d565b6040518060600160405280611b9b84600001516125d5565b8152602001611bad846020015161266f565b8152602001611bbf846040015161266f565b905292915050565b600080611bd76040870187613545565b905067ffffffffffffffff81118015611bef57600080fd5b50604051908082528060200260200182016040528015611c19578160200160208202803683370190505b5090506000831180611c2d57506000600154115b15611cde57611c3d86358461291b565b81600081518110611c4a57fe5b602002602001018181525050611cd985600260009054906101000a90046001600160a01b0316611c9b84600081518110611c8057fe5b60200260200101518a6000013561296590919063ffffffff16565b611ca860408b018b613545565b6000818110611cb357fe5b9050602002016020810190611cc89190612b19565b6001600160a01b03169291906129bd565b611cfd565b856000013581600081518110611cf057fe5b6020026020010181815250505b611d5385611d0e6060890189613545565b6000818110611d1957fe5b9050602002016020810190611d2e9190612b19565b83600081518110611d3b57fe5b6020026020010151898060400190611ca89190613545565b60005b611d636060880188613545565b9050811015611ea857611d796060880188613545565b82818110611d8357fe5b9050602002016020810190611d989190612b19565b6001600160a01b031663ef99893a838381518110611db257fe5b6020026020010151898060400190611dca9190613545565b85818110611dd457fe5b9050602002016020810190611de99190612b19565b611df660408c018c613545565b86600101818110611e0357fe5b9050602002016020810190611e189190612b19565b6040518463ffffffff1660e01b8152600401611e36939291906134ea565b60206040518083038186803b158015611e4e57600080fd5b505afa158015611e62573d6000803e3d6000fd5b505050506040513d601f19601f82011682018060405250810190611e869190612d95565b828260010181518110611e9557fe5b6020908102919091010152600101611d56565b50856020013581600183510381518110611ebe57fe5b60200260200101511015611ee45760405162461bcd60e51b8152600401610592906132ea565b60005b611ef46060880188613545565b90508110156120715760006001611f0e60608a018a613545565b9050038210611f1d5785611f4c565b611f2a6060890189613545565b83600101818110611f3757fe5b9050602002016020810190611f4c9190612b19565b9050611f5b6060890189613545565b83818110611f6557fe5b9050602002016020810190611f7a9190612b19565b6001600160a01b031663eab90da6848481518110611f9457fe5b6020026020010151858560010181518110611fab57fe5b60200260200101518b8060400190611fc39190613545565b87818110611fcd57fe5b9050602002016020810190611fe29190612b19565b611fef60408e018e613545565b88600101818110611ffc57fe5b90506020020160208101906120119190612b19565b866040518663ffffffff1660e01b8152600401612032959493929190613517565b600060405180830381600087803b15801561204c57600080fd5b505af1158015612060573d6000803e3d6000fd5b505060019093019250611ee7915050565b5061207f6040870187613545565b600161208e60408a018a613545565b90500381811061209a57fe5b90506020020160208101906120af9190612b19565b6001600160a01b03166120c56040880188613545565b60008181106120d057fe5b90506020020160208101906120e59190612b19565b6001600160a01b03167f9fc8352e52998db4087d5e6e1c1aafa38788e749e5d7a24f5cb230f73795440288600001358460018651038151811061212457fe5b602002602001015160405161213a929190613509565b60405180910390a38060018251038151811061215257fe5b6020026020010151915050949350505050565b6115bf8363a9059cbb60e01b848460405160240161155b9291906130c3565b6040517f2e1a7d4d00000000000000000000000000000000000000000000000000000000815273b31f66aa3c1e785363f0875a1b74e27b85fd66c790632e1a7d4d906121d49084906004016134e1565b600060405180830381600087803b1580156121ee57600080fd5b505af1158015612202573d6000803e3d6000fd5b5050505050565b306001600160a01b038216146115bf576001600160a01b038316612263576040516001600160a01b0382169083156108fc029084906000818181858888f1935050505015801561225d573d6000803e3d6000fd5b506115bf565b6115bf6001600160a01b0384168284612165565b73b31f66aa3c1e785363f0875a1b74e27b85fd66c76001600160a01b031663d0e30db0826040518263ffffffff1660e01b81526004016000604051808303818588803b1580156122c657600080fd5b505af11580156122da573d6000803e3d6000fd5b505050505050565b600080836001600160a01b0316836040516122fd9190613014565b6000604051808303816000865af19150503d806000811461233a576040519150601f19603f3d011682016040523d82523d6000602084013e61233f565b606091505b5091509150816123615760405162461bcd60e51b8152600401610592906131c4565b805115610a81578080602001905181019061237c9190612c04565b610a815760405162461bcd60e51b81526004016105929061328d565b6123a06129e3565b604051806080016040528083600001518152602001836020015181526020018360400151815260200183606001518152509050919050565b73dd892a0b5Bcfd435489e31D8e2ec9C9B83f85977632f9680f58660400151612400856115c4565b6040518363ffffffff1660e01b815260040161241d9291906130ef565b60006040518083038186803b15801561243557600080fd5b505af4158015612449573d6000803e3d6000fd5b505050506040513d6000823e601f3d908101601f191682016040526124719190810190612c24565b6040860152845173dd892a0b5Bcfd435489e31D8e2ec9C9B83f8597790632f9680f59061249d876115c4565b6040518363ffffffff1660e01b81526004016124ba9291906130ef565b60006040518083038186803b1580156124d257600080fd5b505af41580156124e6573d6000803e3d6000fd5b505050506040513d6000823e601f3d908101601f1916820160405261250e9190810190612c24565b8552602085015173dd892a0b5Bcfd435489e31D8e2ec9C9B83f8597790632f9680f59061253a866115c4565b6040518363ffffffff1660e01b81526004016125579291906130ef565b60006040518083038186803b15801561256f57600080fd5b505af4158015612583573d6000803e3d6000fd5b505050506040513d6000823e601f3d908101601f191682016040526125ab9190810190612c24565b602086015260609094018051909401909352505050565b60006125ce83836129de565b9392505050565b6060600060208351816125e457fe5b04905060008167ffffffffffffffff8111801561260057600080fd5b5060405190808252806020026020018201604052801561262a578160200160208202803683370190505b50905060005b828110156126675761264881602002602001866125c2565b82828151811061265457fe5b6020908102919091010152600101612630565b509392505050565b60606000602083518161267e57fe5b04905060008167ffffffffffffffff8111801561269a57600080fd5b506040519080825280602002602001820160405280156126c4578160200160208202803683370190505b50905060005b82811015612667576126e281602002602001866125c2565b8282815181106126ee57fe5b6001600160a01b03909216602092830291909101909101526001016126ca565b612716612a7d565b50604080516060810182528251815260208084015190820152918101519082015290565b73dd892a0b5Bcfd435489e31D8e2ec9C9B83f85977632f9680f58560400151612762846115c4565b6040518363ffffffff1660e01b815260040161277f9291906130ef565b60006040518083038186803b15801561279757600080fd5b505af41580156127ab573d6000803e3d6000fd5b505050506040513d6000823e601f3d908101601f191682016040526127d39190810190612c24565b6040850152835173dd892a0b5Bcfd435489e31D8e2ec9C9B83f8597790632f9680f5906127ff866115c4565b6040518363ffffffff1660e01b815260040161281c9291906130ef565b60006040518083038186803b15801561283457600080fd5b505af4158015612848573d6000803e3d6000fd5b505050506040513d6000823e601f3d908101601f191682016040526128709190810190612c24565b8452602084015173dd892a0b5Bcfd435489e31D8e2ec9C9B83f8597790632f9680f59061289c856115c4565b6040518363ffffffff1660e01b81526004016128b99291906130ef565b60006040518083038186803b1580156128d157600080fd5b505af41580156128e5573d6000803e3d6000fd5b505050506040513d6000823e601f3d908101601f1916820160405261290d9190810190612c24565b846020018190525050505050565b600060015482101561293f5760405162461bcd60e51b815260040161059290613256565b61271061295661294f8285612965565b85906115ee565b8161295d57fe5b049392505050565b8082038281111561165a576040805162461bcd60e51b815260206004820152601f60248201527f536166654d6174683a2064732d6d6174682d7375622d756e646572666c6f7700604482015290519081900360640190fd5b610a81846323b872dd60e01b85858560405160240161155b9392919061309f565b015190565b6040518060800160405280606081526020016060815260200160608152602001600081525090565b828054828255906000526020600020908101928215612a6d579160200282015b82811115612a6d578251825473ffffffffffffffffffffffffffffffffffffffff19166001600160a01b03909116178255602090920191600190910190612a2b565b50612a79929150612ac5565b5090565b60405180606001604052806060815260200160608152602001606081525090565b60408051608081018252600080825260208201819052918101829052606081019190915290565b5b80821115612a795760008155600101612ac6565b80356001600160a01b03811681146119c857600080fd5b600060808284031215612b02578081fd5b50919050565b803560ff811681146119c857600080fd5b600060208284031215612b2a578081fd5b6125ce82612ada565b60008060408385031215612b45578081fd5b612b4e83612ada565b946020939093013593505050565b60006020808385031215612b6e578182fd5b823567ffffffffffffffff80821115612b85578384fd5b818501915085601f830112612b98578384fd5b813581811115612ba457fe5b8381029150612bb4848301613593565b8181528481019084860184860187018a1015612bce578788fd5b8795505b83861015612bf757612be381612ada565b835260019590950194918601918601612bd2565b5098975050505050505050565b600060208284031215612c15578081fd5b815180151581146125ce578182fd5b600060208284031215612c35578081fd5b815167ffffffffffffffff80821115612c4c578283fd5b818401915084601f830112612c5f578283fd5b815181811115612c6b57fe5b612c7e601f8201601f1916602001613593565b9150808252856020828501011115612c94578384fd5b61123a8160208401602086016135b7565b600080600060608486031215612cb9578081fd5b833567ffffffffffffffff811115612ccf578182fd5b612cdb86828701612af1565b935050612cea60208501612ada565b9150604084013590509250925092565b600080600080600080600060e0888a031215612d14578283fd5b873567ffffffffffffffff811115612d2a578384fd5b612d368a828b01612af1565b975050612d4560208901612ada565b95506040880135945060608801359350612d6160808901612b08565b925060a0880135915060c0880135905092959891949750929550565b600060208284031215612d8e578081fd5b5035919050565b600060208284031215612da6578081fd5b5051919050565b600080600060608486031215612dc1578283fd5b83359250612dd160208501612ada565b9150612ddf60408501612ada565b90509250925092565b600080600080600060808688031215612dff578081fd5b85359450612e0f60208701612ada565b9350612e1d60408701612ada565b9250606086013567ffffffffffffffff80821115612e39578283fd5b818801915088601f830112612e4c578283fd5b813581811115612e5a578384fd5b8960208083028501011115612e6d578384fd5b9699959850939650602001949392505050565b60008060008060808587031215612e95578182fd5b84359350612ea560208601612ada565b9250612eb360408601612ada565b9396929550929360600135925050565b600080600080600060a08688031215612eda578283fd5b85359450612eea60208701612ada565b9350612ef860408701612ada565b94979396509394606081013594506080013592915050565b60008060008060808587031215612f25578182fd5b84359350612f3560208601612ada565b9250612f4360408601612ada565b9150612f5160608601612b08565b905092959194509250565b600060208284031215612f6d578081fd5b6125ce82612b08565b6000815180845260208085019450808401835b83811015612fae5781516001600160a01b031687529582019590820190600101612f89565b509495945050505050565b6000815180845260208085019450808401835b83811015612fae57815187529582019590820190600101612fcc565b600081518084526130008160208601602086016135b7565b601f01601f19169290920160200192915050565b600082516130268184602087016135b7565b9190910192915050565b6001600160a01b0391909116815260200190565b6001600160a01b0397881681529590961660208601526040850193909352606084019190915260ff16608083015260a082015260c081019190915260e00190565b6001600160a01b0392831681529116602082015260400190565b6001600160a01b039384168152919092166020820152604081019190915260600190565b6001600160a01b03929092168252602082015260400190565b6000602082526125ce6020830184612f76565b6000604082526131026040830185612fe8565b82810360208401526131148185612fe8565b95945050505050565b6000602082526125ce6020830184612fe8565b6020808252601c908201527f59616b526f757465723a20496e76616c6964206d61782d737465707300000000604082015260600190565b60208082526027908201527f59616b526f757465723a2050617468206e6565647320746f20656e642077697460408201527f6820574156415800000000000000000000000000000000000000000000000000606082015260800190565b6020808252818101527f5361666545524332303a206c6f772d6c6576656c2063616c6c206661696c6564604082015260600190565b60208082526029908201527f59616b526f757465723a2050617468206e6565647320746f20626567696e207760408201527f6974682057415641580000000000000000000000000000000000000000000000606082015260800190565b6020808252601b908201527f59616b526f757465723a20496e73756666696369656e74206665650000000000604082015260600190565b6020808252602a908201527f5361666545524332303a204552433230206f7065726174696f6e20646964206e60408201527f6f74207375636365656400000000000000000000000000000000000000000000606082015260800190565b60208082526025908201527f59616b526f757465723a20496e73756666696369656e74206f7574707574206160408201527f6d6f756e74000000000000000000000000000000000000000000000000000000606082015260800190565b60208082526036908201527f5361666545524332303a20617070726f76652066726f6d206e6f6e2d7a65726f60408201527f20746f206e6f6e2d7a65726f20616c6c6f77616e636500000000000000000000606082015260800190565b6020808252601d908201527f59616b526f757465723a204e6f7468696e6720746f207265636f766572000000604082015260600190565b6000602082528251608060208401526133f760a0840182612fb9565b90506020840151601f19808584030160408601526134158383612f76565b92506040860151915080858403016060860152506134338282612f76565b915050606084015160808401528091505092915050565b6000602082528251606060208401526134666080840182612fb9565b90506020840151601f19808584030160408601526134848383612f76565b92506040860151915080858403016060860152506131148282612f76565b60006080820190506001600160a01b03808451168352806020850151166020840152806040850151166040840152506060830151606083015292915050565b90815260200190565b9283526001600160a01b03918216602084015216604082015260600190565b918252602082015260400190565b94855260208501939093526001600160a01b0391821660408501528116606084015216608082015260a00190565b6000808335601e1984360301811261355b578283fd5b83018035915067ffffffffffffffff821115613575578283fd5b602090810192508102360382131561358c57600080fd5b9250929050565b60405181810167ffffffffffffffff811182821017156135af57fe5b604052919050565b60005b838110156135d25781810151838201526020016135ba565b83811115610a81575050600091015256fe4f776e61626c653a204e6577206f776e657220697320746865207a65726f2061646472657373a264697066735822122014d4243511c7a7f7eaba29e8955fce816e35029facf35d20bf00759818ca438664736f6c634300070600334f776e61626c653a2043616c6c6572206973206e6f7420746865206f776e6572",
  "deployedBytecode": "0x6080604052600436106101c55760003560e01c80637c7a561b116100f7578063b59f091e11610095578063dede7f1511610064578063dede7f15146104dc578063f0350382146104fc578063f2fde38b1461051c578063fe38c5e61461053c576101cc565b8063b59f091e14610472578063c3accd4814610487578063c8a3a5c6146104a7578063d73792a9146104c7576101cc565b80638da5cb5b116100d15780638da5cb5b146103ee57806392f5d88a14610403578063952e901214610430578063a3f4df7e14610450576101cc565b80637c7a561b14610399578063809356aa146103ae5780638980f11f146103ce576101cc565b806352a52ab01161016457806373b295c21161013e57806373b295c21461032d57806375d199471461034257806376c7a3c71461036257806376ebe69c14610384576101cc565b806352a52ab0146102d85780636bf2df86146102f8578063715018a614610318576101cc565b806331ac9920116101a057806331ac99201461024b5780633a9a40811461026b5780634c09cf4e1461028b5780634ebb7916146102b8576101cc565b8062b99e36146101d1578063061b15e7146101fc5780631e189dc214610229576101cc565b366101cc57005b600080fd5b3480156101dd57600080fd5b506101e661054f565b6040516101f39190613030565b60405180910390f35b34801561020857600080fd5b5061021c610217366004612ec3565b61055e565b6040516101f391906133db565b34801561023557600080fd5b50610249610244366004612cfa565b610679565b005b34801561025757600080fd5b50610249610266366004612d7d565b610727565b34801561027757600080fd5b50610249610286366004612b5c565b6107db565b34801561029757600080fd5b506102ab6102a6366004612e80565b61089d565b6040516101f3919061344a565b3480156102c457600080fd5b506102496102d3366004612d7d565b610944565b3480156102e457600080fd5b506101e66102f3366004612d7d565b610a4b565b34801561030457600080fd5b50610249610313366004612ca5565b610a75565b34801561032457600080fd5b50610249610a87565b34801561033957600080fd5b506101e6610b52565b34801561034e57600080fd5b5061024961035d366004612cfa565b610b6a565b34801561036e57600080fd5b50610377610c0f565b6040516101f391906134e1565b34801561039057600080fd5b50610377610c15565b3480156103a557600080fd5b50610377610c1b565b3480156103ba57600080fd5b506103776103c9366004612f10565b610c21565b3480156103da57600080fd5b506102496103e9366004612b33565b610cce565b3480156103fa57600080fd5b506101e6610dbb565b34801561040f57600080fd5b5061042361041e366004612de8565b610dca565b6040516101f391906134a2565b34801561043c57600080fd5b506101e661044b366004612d7d565b610f1a565b34801561045c57600080fd5b50610465610f2a565b6040516101f3919061311d565b34801561047e57600080fd5b506101e6610f63565b34801561049357600080fd5b506102496104a2366004612b19565b610f68565b3480156104b357600080fd5b506102496104c2366004612b5c565b611052565b3480156104d357600080fd5b50610377611110565b3480156104e857600080fd5b506104236104f7366004612dad565b611116565b34801561050857600080fd5b50610249610517366004612ca5565b611243565b34801561052857600080fd5b50610249610537366004612b19565b6112e0565b61024961054a366004612ca5565b611401565b6002546001600160a01b031681565b6105666129e3565b6000831180156105765750600583105b61059b5760405162461bcd60e51b815260040161059290613130565b60405180910390fd5b6105a36129e3565b6105ac876115c4565b81526105b7866115c4565b604082015260006105e7670de0b6b3a764000073b31f66aa3c1e785363f0875a1b74e27b85fd66c788600261089d565b90506000610621633b9aca0086845180519290910491600019810190811061060b57fe5b60200260200101516115ee90919063ffffffff16565b9050610631898989898786611660565b925082602001515160001415610663576040805160208082018352600080835291865282519081018352908152908401525b61066c83611974565b9998505050505050505050565b6106866040880188613545565b600081811061069157fe5b90506020020160208101906106a69190612b19565b60405163d505accf60e01b81526001600160a01b03919091169063d505accf906106e190339030908c35908a908a908a908a90600401613044565b600060405180830381600087803b1580156106fb57600080fd5b505af115801561070f573d6000803e3d6000fd5b5050505061071e878787611243565b50505050505050565b61072f6119cd565b6001600160a01b0316610740610dbb565b6001600160a01b03161461079b576040805162461bcd60e51b815260206004820181905260248201527f4f776e61626c653a2043616c6c6572206973206e6f7420746865206f776e6572604482015290519081900360640190fd5b7f4bb8a6184424e4bb853a4836042f5a726e4e710873989bfc6abdab19966f5b70600154826040516107ce929190613509565b60405180910390a1600155565b6107e36119cd565b6001600160a01b03166107f4610dbb565b6001600160a01b03161461084f576040805162461bcd60e51b815260206004820181905260248201527f4f776e61626c653a2043616c6c6572206973206e6f7420746865206f776e6572604482015290519081900360640190fd5b7febf7325f48e05e5e38809c69f8b02a7c907ed31d8768e6c2d841b1296a9225fe8160405161087e91906130dc565b60405180910390a18051610899906004906020840190612a0b565b5050565b6108a5612a7d565b6000821180156108b55750600582105b6108d15760405162461bcd60e51b815260040161059290613130565b6108d9612a7d565b6108e2866115c4565b81526108ed856115c4565b60408201526108ff86868686856119d1565b905080602001515160001415610931576040805160208082018352600080835291845282519081018352908152908201525b61093a81611b7b565b9695505050505050565b61094c6119cd565b6001600160a01b031661095d610dbb565b6001600160a01b0316146109b8576040805162461bcd60e51b815260206004820181905260248201527f4f776e61626c653a2043616c6c6572206973206e6f7420746865206f776e6572604482015290519081900360640190fd5b600081116109d85760405162461bcd60e51b8152600401610592906133a4565b604051339082156108fc029083906000818181858888f19350505050158015610a05573d6000803e3d6000fd5b5060006001600160a01b03167f8c1256b8896378cd5044f80c202f9772b9d77dc85c8a6eb51967210b09bfaa2882604051610a4091906134e1565b60405180910390a250565b60038181548110610a5b57600080fd5b6000918252602090912001546001600160a01b0316905081565b610a8183338484611bc7565b50505050565b610a8f6119cd565b6001600160a01b0316610aa0610dbb565b6001600160a01b031614610afb576040805162461bcd60e51b815260206004820181905260248201527f4f776e61626c653a2043616c6c6572206973206e6f7420746865206f776e6572604482015290519081900360640190fd5b600080546040516001600160a01b03909116907f8be0079c531659141344cd1fd0a4f28419497f9722a3daafe3b4186f6b6457e0908390a36000805473ffffffffffffffffffffffffffffffffffffffff19169055565b73b31f66aa3c1e785363f0875a1b74e27b85fd66c781565b610b776040880188613545565b6000818110610b8257fe5b9050602002016020810190610b979190612b19565b60405163d505accf60e01b81526001600160a01b03919091169063d505accf90610bd290339030908c35908a908a908a908a90600401613044565b600060405180830381600087803b158015610bec57600080fd5b505af1158015610c00573d6000803e3d6000fd5b5050505061071e878787610a75565b60015481565b60035490565b60045490565b60008060048360ff1681548110610c3457fe5b60009182526020822001546040516377ccc49d60e11b81526001600160a01b039091169250829063ef99893a90610c73908a908a908a906004016134ea565b60206040518083038186803b158015610c8b57600080fd5b505afa158015610c9f573d6000803e3d6000fd5b505050506040513d601f19601f82011682018060405250810190610cc39190612d95565b979650505050505050565b610cd66119cd565b6001600160a01b0316610ce7610dbb565b6001600160a01b031614610d42576040805162461bcd60e51b815260206004820181905260248201527f4f776e61626c653a2043616c6c6572206973206e6f7420746865206f776e6572604482015290519081900360640190fd5b60008111610d625760405162461bcd60e51b8152600401610592906133a4565b610d766001600160a01b0383163383612165565b816001600160a01b03167f8c1256b8896378cd5044f80c202f9772b9d77dc85c8a6eb51967210b09bfaa2882604051610daf91906134e1565b60405180910390a25050565b6000546001600160a01b031690565b610dd2612a9e565b610dda612a9e565b60005b60ff8116841115610f0f576000600486868460ff16818110610dfb57fe5b9050602002016020810190610e109190612f5c565b60ff1681548110610e1d57fe5b60009182526020822001546040516377ccc49d60e11b81526001600160a01b039091169250829063ef99893a90610e5c908d908d908d906004016134ea565b60206040518083038186803b158015610e7457600080fd5b505afa158015610e88573d6000803e3d6000fd5b505050506040513d601f19601f82011682018060405250810190610eac9190612d95565b905060ff83161580610ec15750836060015181115b15610f05576040518060800160405280836001600160a01b031681526020018a6001600160a01b03168152602001896001600160a01b031681526020018281525093505b5050600101610ddd565b509695505050505050565b60048181548110610a5b57600080fd5b6040518060400160405280600981526020017f59616b526f75746572000000000000000000000000000000000000000000000081525081565b600081565b610f706119cd565b6001600160a01b0316610f81610dbb565b6001600160a01b031614610fdc576040805162461bcd60e51b815260206004820181905260248201527f4f776e61626c653a2043616c6c6572206973206e6f7420746865206f776e6572604482015290519081900360640190fd5b6002546040517fb2c853ac4d80d18d058c43d8018d077a036e542a79acae1647f5ad2a8c76f4e29161101b916001600160a01b03909116908490613085565b60405180910390a16002805473ffffffffffffffffffffffffffffffffffffffff19166001600160a01b0392909216919091179055565b61105a6119cd565b6001600160a01b031661106b610dbb565b6001600160a01b0316146110c6576040805162461bcd60e51b815260206004820181905260248201527f4f776e61626c653a2043616c6c6572206973206e6f7420746865206f776e6572604482015290519081900360640190fd5b7f658ff1688002926d8f426cb10c052ec29003f50042df9652d8613484c1a58647816040516110f591906130dc565b60405180910390a18051610899906003906020840190612a0b565b61271081565b61111e612a9e565b611126612a9e565b60005b60045460ff8216101561123a57600060048260ff168154811061114857fe5b60009182526020822001546040516377ccc49d60e11b81526001600160a01b039091169250829063ef99893a90611187908b908b908b906004016134ea565b60206040518083038186803b15801561119f57600080fd5b505afa1580156111b3573d6000803e3d6000fd5b505050506040513d601f19601f820116820180604052508101906111d79190612d95565b905060ff831615806111ec5750836060015181115b15611230576040518060800160405280836001600160a01b03168152602001886001600160a01b03168152602001876001600160a01b031681526020018281525093505b5050600101611129565b50949350505050565b73b31f66aa3c1e785363f0875a1b74e27b85fd66c76112656040850185613545565b60016112746040880188613545565b90500381811061128057fe5b90506020020160208101906112959190612b19565b6001600160a01b0316146112bb5760405162461bcd60e51b815260040161059290613167565b60006112c984333085611bc7565b90506112d481612184565b610a8160008285612209565b6112e86119cd565b6001600160a01b03166112f9610dbb565b6001600160a01b031614611354576040805162461bcd60e51b815260206004820181905260248201527f4f776e61626c653a2043616c6c6572206973206e6f7420746865206f776e6572604482015290519081900360640190fd5b6001600160a01b0381166113995760405162461bcd60e51b81526004018080602001828103825260268152602001806135e46026913960400191505060405180910390fd5b600080546040516001600160a01b03808516939216917f8be0079c531659141344cd1fd0a4f28419497f9722a3daafe3b4186f6b6457e091a36000805473ffffffffffffffffffffffffffffffffffffffff19166001600160a01b0392909216919091179055565b73b31f66aa3c1e785363f0875a1b74e27b85fd66c76114236040850185613545565b600081811061142e57fe5b90506020020160208101906114439190612b19565b6001600160a01b0316146114695760405162461bcd60e51b8152600401610592906131f9565b6114738335612277565b610a8183308484611bc7565b80158061152057506040517fdd62ed3e0000000000000000000000000000000000000000000000000000000081526001600160a01b0384169063dd62ed3e906114ce9030908690600401613085565b60206040518083038186803b1580156114e657600080fd5b505afa1580156114fa573d6000803e3d6000fd5b505050506040513d601f19601f8201168201806040525081019061151e9190612d95565b155b61153c5760405162461bcd60e51b815260040161059290613347565b6115bf8363095ea7b360e01b848460405160240161155b9291906130c3565b60408051601f198184030181529190526020810180517bffffffffffffffffffffffffffffffffffffffffffffffffffffffff167fffffffff00000000000000000000000000000000000000000000000000000000909316929092179091526122e2565b505050565b60408051602080825281830190925260609160208201818036833750505060208101929092525090565b60008115806116095750508082028282828161160657fe5b04145b61165a576040805162461bcd60e51b815260206004820152601e60248201527f536166654d6174683a2064732d6d6174682d6d756c2d6f766572666c6f770000604482015290519081900360640190fd5b92915050565b6116686129e3565b600061167384612398565b90506000806116838a8a8a611116565b9050806060015160001461172c57600081600001516001600160a01b03166369cff80d6040518163ffffffff1660e01b815260040160206040518083038186803b1580156116d057600080fd5b505afa1580156116e4573d6000803e3d6000fd5b505050506040513d601f19601f820116820180604052508101906117089190612d95565b905061172384836060015184600001518560400151856123d8565b81606001519250505b60018711801561174e57506002870360208760200151518161174a57fe5b0411155b156119665760005b600354811015611964576003818154811061176d57fe5b6000918252602090912001546001600160a01b038b8116911614156117915761195c565b60006117bf8c8c600385815481106117a557fe5b6000918252602090912001546001600160a01b0316611116565b90508060600151600014156117d4575061195c565b60006117df89612398565b9050600082600001516001600160a01b03166369cff80d6040518163ffffffff1660e01b815260040160206040518083038186803b15801561182057600080fd5b505afa158015611834573d6000803e3d6000fd5b505050506040513d601f19601f820116820180604052508101906118589190612d95565b905061187382846060015185600001518660400151856123d8565b6118a683606001516003868154811061188857fe5b6000918252602090912001546001600160a01b03168e8e868e611660565b915060006118bd83604001515184604001516125c2565b835180519192506000916118d0916125c2565b9050816001600160a01b03168e6001600160a01b03161480156118f257508781115b156119565788606001518460600151111561194f576000633b9aca0061192b8b606001518760600151038e6115ee90919063ffffffff16565b8161193257fe5b0490508882038082111561194c575050505050505061195c565b50505b8097508398505b50505050505b600101611756565b505b509098975050505050505050565b61197c6129e3565b604051806080016040528061199484600001516125d5565b81526020016119a6846020015161266f565b81526020016119b8846040015161266f565b8152602001836060015181525090505b919050565b3390565b6119d9612a7d565b60006119e48361270e565b90506000806119f4898989611116565b90508060600151600014611a2257611a1a8382606001518360000151846040015161273a565b806060015191505b600186118015611a44575060028603602086602001515181611a4057fe5b0411155b15611b6e5760005b600354811015611b6c5760038181548110611a6357fe5b6000918252602090912001546001600160a01b038a811691161415611a8757611b64565b6000611a9b8b8b600385815481106117a557fe5b9050806060015160001415611ab05750611b64565b6000611abb8861270e565b9050611ad58183606001518460000151856040015161273a565b611b07826060015160038581548110611aea57fe5b6000918252602090912001546001600160a01b03168c8c856119d1565b90506000611b1e82604001515183604001516125c2565b82518051919250600091611b31916125c2565b9050816001600160a01b03168c6001600160a01b0316148015611b5357508681115b15611b5f578096508297505b505050505b600101611a4c565b505b5090979650505050505050565b611b83612a7d565b6040518060600160405280611b9b84600001516125d5565b8152602001611bad846020015161266f565b8152602001611bbf846040015161266f565b905292915050565b600080611bd76040870187613545565b905067ffffffffffffffff81118015611bef57600080fd5b50604051908082528060200260200182016040528015611c19578160200160208202803683370190505b5090506000831180611c2d57506000600154115b15611cde57611c3d86358461291b565b81600081518110611c4a57fe5b602002602001018181525050611cd985600260009054906101000a90046001600160a01b0316611c9b84600081518110611c8057fe5b60200260200101518a6000013561296590919063ffffffff16565b611ca860408b018b613545565b6000818110611cb357fe5b9050602002016020810190611cc89190612b19565b6001600160a01b03169291906129bd565b611cfd565b856000013581600081518110611cf057fe5b6020026020010181815250505b611d5385611d0e6060890189613545565b6000818110611d1957fe5b9050602002016020810190611d2e9190612b19565b83600081518110611d3b57fe5b6020026020010151898060400190611ca89190613545565b60005b611d636060880188613545565b9050811015611ea857611d796060880188613545565b82818110611d8357fe5b9050602002016020810190611d989190612b19565b6001600160a01b031663ef99893a838381518110611db257fe5b6020026020010151898060400190611dca9190613545565b85818110611dd457fe5b9050602002016020810190611de99190612b19565b611df660408c018c613545565b86600101818110611e0357fe5b9050602002016020810190611e189190612b19565b6040518463ffffffff1660e01b8152600401611e36939291906134ea565b60206040518083038186803b158015611e4e57600080fd5b505afa158015611e62573d6000803e3d6000fd5b505050506040513d601f19601f82011682018060405250810190611e869190612d95565b828260010181518110611e9557fe5b6020908102919091010152600101611d56565b50856020013581600183510381518110611ebe57fe5b60200260200101511015611ee45760405162461bcd60e51b8152600401610592906132ea565b60005b611ef46060880188613545565b90508110156120715760006001611f0e60608a018a613545565b9050038210611f1d5785611f4c565b611f2a6060890189613545565b83600101818110611f3757fe5b9050602002016020810190611f4c9190612b19565b9050611f5b6060890189613545565b83818110611f6557fe5b9050602002016020810190611f7a9190612b19565b6001600160a01b031663eab90da6848481518110611f9457fe5b6020026020010151858560010181518110611fab57fe5b60200260200101518b8060400190611fc39190613545565b87818110611fcd57fe5b9050602002016020810190611fe29190612b19565b611fef60408e018e613545565b88600101818110611ffc57fe5b90506020020160208101906120119190612b19565b866040518663ffffffff1660e01b8152600401612032959493929190613517565b600060405180830381600087803b15801561204c57600080fd5b505af1158015612060573d6000803e3d6000fd5b505060019093019250611ee7915050565b5061207f6040870187613545565b600161208e60408a018a613545565b90500381811061209a57fe5b90506020020160208101906120af9190612b19565b6001600160a01b03166120c56040880188613545565b60008181106120d057fe5b90506020020160208101906120e59190612b19565b6001600160a01b03167f9fc8352e52998db4087d5e6e1c1aafa38788e749e5d7a24f5cb230f73795440288600001358460018651038151811061212457fe5b602002602001015160405161213a929190613509565b60405180910390a38060018251038151811061215257fe5b6020026020010151915050949350505050565b6115bf8363a9059cbb60e01b848460405160240161155b9291906130c3565b6040517f2e1a7d4d00000000000000000000000000000000000000000000000000000000815273b31f66aa3c1e785363f0875a1b74e27b85fd66c790632e1a7d4d906121d49084906004016134e1565b600060405180830381600087803b1580156121ee57600080fd5b505af1158015612202573d6000803e3d6000fd5b5050505050565b306001600160a01b038216146115bf576001600160a01b038316612263576040516001600160a01b0382169083156108fc029084906000818181858888f1935050505015801561225d573d6000803e3d6000fd5b506115bf565b6115bf6001600160a01b0384168284612165565b73b31f66aa3c1e785363f0875a1b74e27b85fd66c76001600160a01b031663d0e30db0826040518263ffffffff1660e01b81526004016000604051808303818588803b1580156122c657600080fd5b505af11580156122da573d6000803e3d6000fd5b505050505050565b600080836001600160a01b0316836040516122fd9190613014565b6000604051808303816000865af19150503d806000811461233a576040519150601f19603f3d011682016040523d82523d6000602084013e61233f565b606091505b5091509150816123615760405162461bcd60e51b8152600401610592906131c4565b805115610a81578080602001905181019061237c9190612c04565b610a815760405162461bcd60e51b81526004016105929061328d565b6123a06129e3565b604051806080016040528083600001518152602001836020015181526020018360400151815260200183606001518152509050919050565b73__$857ff2140b64a1715bf5e031eaa4c618fa$__632f9680f58660400151612400856115c4565b6040518363ffffffff1660e01b815260040161241d9291906130ef565b60006040518083038186803b15801561243557600080fd5b505af4158015612449573d6000803e3d6000fd5b505050506040513d6000823e601f3d908101601f191682016040526124719190810190612c24565b6040860152845173__$857ff2140b64a1715bf5e031eaa4c618fa$__90632f9680f59061249d876115c4565b6040518363ffffffff1660e01b81526004016124ba9291906130ef565b60006040518083038186803b1580156124d257600080fd5b505af41580156124e6573d6000803e3d6000fd5b505050506040513d6000823e601f3d908101601f1916820160405261250e9190810190612c24565b8552602085015173__$857ff2140b64a1715bf5e031eaa4c618fa$__90632f9680f59061253a866115c4565b6040518363ffffffff1660e01b81526004016125579291906130ef565b60006040518083038186803b15801561256f57600080fd5b505af4158015612583573d6000803e3d6000fd5b505050506040513d6000823e601f3d908101601f191682016040526125ab9190810190612c24565b602086015260609094018051909401909352505050565b60006125ce83836129de565b9392505050565b6060600060208351816125e457fe5b04905060008167ffffffffffffffff8111801561260057600080fd5b5060405190808252806020026020018201604052801561262a578160200160208202803683370190505b50905060005b828110156126675761264881602002602001866125c2565b82828151811061265457fe5b6020908102919091010152600101612630565b509392505050565b60606000602083518161267e57fe5b04905060008167ffffffffffffffff8111801561269a57600080fd5b506040519080825280602002602001820160405280156126c4578160200160208202803683370190505b50905060005b82811015612667576126e281602002602001866125c2565b8282815181106126ee57fe5b6001600160a01b03909216602092830291909101909101526001016126ca565b612716612a7d565b50604080516060810182528251815260208084015190820152918101519082015290565b73__$857ff2140b64a1715bf5e031eaa4c618fa$__632f9680f58560400151612762846115c4565b6040518363ffffffff1660e01b815260040161277f9291906130ef565b60006040518083038186803b15801561279757600080fd5b505af41580156127ab573d6000803e3d6000fd5b505050506040513d6000823e601f3d908101601f191682016040526127d39190810190612c24565b6040850152835173__$857ff2140b64a1715bf5e031eaa4c618fa$__90632f9680f5906127ff866115c4565b6040518363ffffffff1660e01b815260040161281c9291906130ef565b60006040518083038186803b15801561283457600080fd5b505af4158015612848573d6000803e3d6000fd5b505050506040513d6000823e601f3d908101601f191682016040526128709190810190612c24565b8452602084015173__$857ff2140b64a1715bf5e031eaa4c618fa$__90632f9680f59061289c856115c4565b6040518363ffffffff1660e01b81526004016128b99291906130ef565b60006040518083038186803b1580156128d157600080fd5b505af41580156128e5573d6000803e3d6000fd5b505050506040513d6000823e601f3d908101601f1916820160405261290d9190810190612c24565b846020018190525050505050565b600060015482101561293f5760405162461bcd60e51b815260040161059290613256565b61271061295661294f8285612965565b85906115ee565b8161295d57fe5b049392505050565b8082038281111561165a576040805162461bcd60e51b815260206004820152601f60248201527f536166654d6174683a2064732d6d6174682d7375622d756e646572666c6f7700604482015290519081900360640190fd5b610a81846323b872dd60e01b85858560405160240161155b9392919061309f565b015190565b6040518060800160405280606081526020016060815260200160608152602001600081525090565b828054828255906000526020600020908101928215612a6d579160200282015b82811115612a6d578251825473ffffffffffffffffffffffffffffffffffffffff19166001600160a01b03909116178255602090920191600190910190612a2b565b50612a79929150612ac5565b5090565b60405180606001604052806060815260200160608152602001606081525090565b60408051608081018252600080825260208201819052918101829052606081019190915290565b5b80821115612a795760008155600101612ac6565b80356001600160a01b03811681146119c857600080fd5b600060808284031215612b02578081fd5b50919050565b803560ff811681146119c857600080fd5b600060208284031215612b2a578081fd5b6125ce82612ada565b60008060408385031215612b45578081fd5b612b4e83612ada565b946020939093013593505050565b60006020808385031215612b6e578182fd5b823567ffffffffffffffff80821115612b85578384fd5b818501915085601f830112612b98578384fd5b813581811115612ba457fe5b8381029150612bb4848301613593565b8181528481019084860184860187018a1015612bce578788fd5b8795505b83861015612bf757612be381612ada565b835260019590950194918601918601612bd2565b5098975050505050505050565b600060208284031215612c15578081fd5b815180151581146125ce578182fd5b600060208284031215612c35578081fd5b815167ffffffffffffffff80821115612c4c578283fd5b818401915084601f830112612c5f578283fd5b815181811115612c6b57fe5b612c7e601f8201601f1916602001613593565b9150808252856020828501011115612c94578384fd5b61123a8160208401602086016135b7565b600080600060608486031215612cb9578081fd5b833567ffffffffffffffff811115612ccf578182fd5b612cdb86828701612af1565b935050612cea60208501612ada565b9150604084013590509250925092565b600080600080600080600060e0888a031215612d14578283fd5b873567ffffffffffffffff811115612d2a578384fd5b612d368a828b01612af1565b975050612d4560208901612ada565b95506040880135945060608801359350612d6160808901612b08565b925060a0880135915060c0880135905092959891949750929550565b600060208284031215612d8e578081fd5b5035919050565b600060208284031215612da6578081fd5b5051919050565b600080600060608486031215612dc1578283fd5b83359250612dd160208501612ada565b9150612ddf60408501612ada565b90509250925092565b600080600080600060808688031215612dff578081fd5b85359450612e0f60208701612ada565b9350612e1d60408701612ada565b9250606086013567ffffffffffffffff80821115612e39578283fd5b818801915088601f830112612e4c578283fd5b813581811115612e5a578384fd5b8960208083028501011115612e6d578384fd5b9699959850939650602001949392505050565b60008060008060808587031215612e95578182fd5b84359350612ea560208601612ada565b9250612eb360408601612ada565b9396929550929360600135925050565b600080600080600060a08688031215612eda578283fd5b85359450612eea60208701612ada565b9350612ef860408701612ada565b94979396509394606081013594506080013592915050565b60008060008060808587031215612f25578182fd5b84359350612f3560208601612ada565b9250612f4360408601612ada565b9150612f5160608601612b08565b905092959194509250565b600060208284031215612f6d578081fd5b6125ce82612b08565b6000815180845260208085019450808401835b83811015612fae5781516001600160a01b031687529582019590820190600101612f89565b509495945050505050565b6000815180845260208085019450808401835b83811015612fae57815187529582019590820190600101612fcc565b600081518084526130008160208601602086016135b7565b601f01601f19169290920160200192915050565b600082516130268184602087016135b7565b9190910192915050565b6001600160a01b0391909116815260200190565b6001600160a01b0397881681529590961660208601526040850193909352606084019190915260ff16608083015260a082015260c081019190915260e00190565b6001600160a01b0392831681529116602082015260400190565b6001600160a01b039384168152919092166020820152604081019190915260600190565b6001600160a01b03929092168252602082015260400190565b6000602082526125ce6020830184612f76565b6000604082526131026040830185612fe8565b82810360208401526131148185612fe8565b95945050505050565b6000602082526125ce6020830184612fe8565b6020808252601c908201527f59616b526f757465723a20496e76616c6964206d61782d737465707300000000604082015260600190565b60208082526027908201527f59616b526f757465723a2050617468206e6565647320746f20656e642077697460408201527f6820574156415800000000000000000000000000000000000000000000000000606082015260800190565b6020808252818101527f5361666545524332303a206c6f772d6c6576656c2063616c6c206661696c6564604082015260600190565b60208082526029908201527f59616b526f757465723a2050617468206e6565647320746f20626567696e207760408201527f6974682057415641580000000000000000000000000000000000000000000000606082015260800190565b6020808252601b908201527f59616b526f757465723a20496e73756666696369656e74206665650000000000604082015260600190565b6020808252602a908201527f5361666545524332303a204552433230206f7065726174696f6e20646964206e60408201527f6f74207375636365656400000000000000000000000000000000000000000000606082015260800190565b60208082526025908201527f59616b526f757465723a20496e73756666696369656e74206f7574707574206160408201527f6d6f756e74000000000000000000000000000000000000000000000000000000606082015260800190565b60208082526036908201527f5361666545524332303a20617070726f76652066726f6d206e6f6e2d7a65726f60408201527f20746f206e6f6e2d7a65726f20616c6c6f77616e636500000000000000000000606082015260800190565b6020808252601d908201527f59616b526f757465723a204e6f7468696e6720746f207265636f766572000000604082015260600190565b6000602082528251608060208401526133f760a0840182612fb9565b90506020840151601f19808584030160408601526134158383612f76565b92506040860151915080858403016060860152506134338282612f76565b915050606084015160808401528091505092915050565b6000602082528251606060208401526134666080840182612fb9565b90506020840151601f19808584030160408601526134848383612f76565b92506040860151915080858403016060860152506131148282612f76565b60006080820190506001600160a01b03808451168352806020850151166020840152806040850151166040840152506060830151606083015292915050565b90815260200190565b9283526001600160a01b03918216602084015216604082015260600190565b918252602082015260400190565b94855260208501939093526001600160a01b0391821660408501528116606084015216608082015260a00190565b6000808335601e1984360301811261355b578283fd5b83018035915067ffffffffffffffff821115613575578283fd5b602090810192508102360382131561358c57600080fd5b9250929050565b60405181810167ffffffffffffffff811182821017156135af57fe5b604052919050565b60005b838110156135d25781810151838201526020016135ba565b83811115610a81575050600091015256fe4f776e61626c653a204e6577206f776e657220697320746865207a65726f2061646472657373a264697066735822122014d4243511c7a7f7eaba29e8955fce816e35029facf35d20bf00759818ca438664736f6c63430007060033",
  "libraries": {
    "BytesManipulation": "0xdd892a0b5Bcfd435489e31D8e2ec9C9B83f85977"
  },
  "devdoc": {
    "kind": "dev",
    "methods": {
      "owner()": {
        "details": "Returns the address of the current owner."
      },
      "renounceOwnership()": {
        "details": "Leaves the contract without owner. It will not be possible to call `onlyOwner` functions anymore. Can only be called by the current owner. NOTE: Renouncing ownership will leave the contract without an owner, thereby removing any functionality that is only available to the owner."
      },
      "transferOwnership(address)": {
        "details": "Transfers ownership of the contract to a new account (`newOwner`). Can only be called by the current owner."
      }
    },
    "version": 1
  },
  "userdoc": {
    "kind": "user",
    "methods": {
      "findBestPath(uint256,address,address,uint256)": {
        "notice": "Return path with best returns between two tokens"
      },
      "findBestPathWithGas(uint256,address,address,uint256,uint256)": {
        "notice": "Return path with best returns between two tokens Takes gas-cost into account"
      },
      "queryAdapter(uint256,address,address,uint8)": {
        "notice": "Query single adapter"
      },
      "queryNoSplit(uint256,address,address)": {
        "notice": "Query all adapters"
      },
      "queryNoSplit(uint256,address,address,uint8[])": {
        "notice": "Query specified adapters"
      },
      "swapNoSplitToAVAXWithPermit((uint256,uint256,address[],address[]),address,uint256,uint256,uint8,bytes32,bytes32)": {
        "notice": "Swap token to AVAX without the need to approve the first token"
      },
      "swapNoSplitWithPermit((uint256,uint256,address[],address[]),address,uint256,uint256,uint8,bytes32,bytes32)": {
        "notice": "Swap token to token without the need to approve the first token"
      }
    },
    "version": 1
  },
  "storageLayout": {
    "storage": [
      {
        "astId": 3848,
        "contract": "contracts/YakRouter.sol:YakRouter",
        "label": "_owner",
        "offset": 0,
        "slot": "0",
        "type": "t_address"
      },
      {
        "astId": 342,
        "contract": "contracts/YakRouter.sol:YakRouter",
        "label": "MIN_FEE",
        "offset": 0,
        "slot": "1",
        "type": "t_uint256"
      },
      {
        "astId": 344,
        "contract": "contracts/YakRouter.sol:YakRouter",
        "label": "FEE_CLAIMER",
        "offset": 0,
        "slot": "2",
        "type": "t_address"
      },
      {
        "astId": 347,
        "contract": "contracts/YakRouter.sol:YakRouter",
        "label": "TRUSTED_TOKENS",
        "offset": 0,
        "slot": "3",
        "type": "t_array(t_address)dyn_storage"
      },
      {
        "astId": 350,
        "contract": "contracts/YakRouter.sol:YakRouter",
        "label": "ADAPTERS",
        "offset": 0,
        "slot": "4",
        "type": "t_array(t_address)dyn_storage"
      }
    ],
    "types": {
      "t_address": {
        "encoding": "inplace",
        "label": "address",
        "numberOfBytes": "20"
      },
      "t_array(t_address)dyn_storage": {
        "base": "t_address",
        "encoding": "dynamic_array",
        "label": "address[]",
        "numberOfBytes": "32"
      },
      "t_uint256": {
        "encoding": "inplace",
        "label": "uint256",
        "numberOfBytes": "32"
      }
    }
  }
}