{
  "address": "0x000DB880C56985ECf98ea01a46a2bdDD7285A67B",
  "abi": [
    {
      "inputs": [
        {
          "internalType": "address",
          "name": "_router",
          "type": "address"
        }
      ],
      "stateMutability": "nonpayable",
      "type": "constructor"
    },
    {
      "anonymous": false,
      "inputs": [
        {
          "indexed": true,
          "internalType": "bytes32",
          "name": "role",
          "type": "bytes32"
        },
        {
          "indexed": true,
          "internalType": "bytes32",
          "name": "previousAdminRole",
          "type": "bytes32"
        },
        {
          "indexed": true,
          "internalType": "bytes32",
          "name": "newAdminRole",
          "type": "bytes32"
        }
      ],
      "name": "RoleAdminChanged",
      "type": "event"
    },
    {
      "anonymous": false,
      "inputs": [
        {
          "indexed": true,
          "internalType": "bytes32",
          "name": "role",
          "type": "bytes32"
        },
        {
          "indexed": true,
          "internalType": "address",
          "name": "account",
          "type": "address"
        },
        {
          "indexed": true,
          "internalType": "address",
          "name": "sender",
          "type": "address"
        }
      ],
      "name": "RoleGranted",
      "type": "event"
    },
    {
      "anonymous": false,
      "inputs": [
        {
          "indexed": true,
          "internalType": "bytes32",
          "name": "role",
          "type": "bytes32"
        },
        {
          "indexed": true,
          "internalType": "address",
          "name": "account",
          "type": "address"
        },
        {
          "indexed": true,
          "internalType": "address",
          "name": "sender",
          "type": "address"
        }
      ],
      "name": "RoleRevoked",
      "type": "event"
    },
    {
      "inputs": [],
      "name": "DEFAULT_ADMIN_ROLE",
      "outputs": [
        {
          "internalType": "bytes32",
          "name": "",
          "type": "bytes32"
        }
      ],
      "stateMutability": "view",
      "type": "function"
    },
    {
      "inputs": [],
      "name": "MAINTAINER_ROLE",
      "outputs": [
        {
          "internalType": "bytes32",
          "name": "",
          "type": "bytes32"
        }
      ],
      "stateMutability": "view",
      "type": "function"
    },
    {
      "inputs": [
        {
          "internalType": "address",
          "name": "addedMaintainer",
          "type": "address"
        }
      ],
      "name": "addMaintainer",
      "outputs": [],
      "stateMutability": "nonpayable",
      "type": "function"
    },
    {
      "inputs": [
        {
          "internalType": "uint256",
          "name": "amountIn",
          "type": "uint256"
        },
        {
          "internalType": "address",
          "name": "tokenIn",
          "type": "address"
        },
        {
          "internalType": "address",
          "name": "wrapper",
          "type": "address"
        },
        {
          "internalType": "uint256",
          "name": "maxSteps",
          "type": "uint256"
        },
        {
          "internalType": "uint256",
          "name": "gasPrice",
          "type": "uint256"
        }
      ],
      "name": "findBestPathAndWrap",
      "outputs": [
        {
          "components": [
            {
              "internalType": "uint256[]",
              "name": "amounts",
              "type": "uint256[]"
            },
            {
              "internalType": "address[]",
              "name": "adapters",
              "type": "address[]"
            },
            {
              "internalType": "address[]",
              "name": "path",
              "type": "address[]"
            },
            {
              "internalType": "uint256",
              "name": "gasEstimate",
              "type": "uint256"
            }
          ],
          "internalType": "struct FormattedOffer",
          "name": "bestOffer",
          "type": "tuple"
        }
      ],
      "stateMutability": "view",
      "type": "function"
    },
    {
      "inputs": [
        {
          "internalType": "bytes32",
          "name": "role",
          "type": "bytes32"
        }
      ],
      "name": "getRoleAdmin",
      "outputs": [
        {
          "internalType": "bytes32",
          "name": "",
          "type": "bytes32"
        }
      ],
      "stateMutability": "view",
      "type": "function"
    },
    {
      "inputs": [
        {
          "internalType": "bytes32",
          "name": "role",
          "type": "bytes32"
        },
        {
          "internalType": "address",
          "name": "account",
          "type": "address"
        }
      ],
      "name": "grantRole",
      "outputs": [],
      "stateMutability": "nonpayable",
      "type": "function"
    },
    {
      "inputs": [
        {
          "internalType": "bytes32",
          "name": "role",
          "type": "bytes32"
        },
        {
          "internalType": "address",
          "name": "account",
          "type": "address"
        }
      ],
      "name": "hasRole",
      "outputs": [
        {
          "internalType": "bool",
          "name": "",
          "type": "bool"
        }
      ],
      "stateMutability": "view",
      "type": "function"
    },
    {
      "inputs": [
        {
          "internalType": "address",
          "name": "removedMaintainer",
          "type": "address"
        }
      ],
      "name": "removeMaintainer",
      "outputs": [],
      "stateMutability": "nonpayable",
      "type": "function"
    },
    {
      "inputs": [
        {
          "internalType": "bytes32",
          "name": "role",
          "type": "bytes32"
        },
        {
          "internalType": "address",
          "name": "account",
          "type": "address"
        }
      ],
      "name": "renounceRole",
      "outputs": [],
      "stateMutability": "nonpayable",
      "type": "function"
    },
    {
      "inputs": [
        {
          "internalType": "bytes32",
          "name": "role",
          "type": "bytes32"
        }
      ],
      "name": "renounceRole",
      "outputs": [],
      "stateMutability": "nonpayable",
      "type": "function"
    },
    {
      "inputs": [
        {
          "internalType": "bytes32",
          "name": "role",
          "type": "bytes32"
        },
        {
          "internalType": "address",
          "name": "account",
          "type": "address"
        }
      ],
      "name": "revokeRole",
      "outputs": [],
      "stateMutability": "nonpayable",
      "type": "function"
    },
    {
      "inputs": [],
      "name": "router",
      "outputs": [
        {
          "internalType": "contract IYakRouter",
          "name": "",
          "type": "address"
        }
      ],
      "stateMutability": "view",
      "type": "function"
    },
    {
      "inputs": [
        {
          "internalType": "address",
          "name": "_router",
          "type": "address"
        }
      ],
      "name": "setRouter",
      "outputs": [],
      "stateMutability": "nonpayable",
      "type": "function"
    },
    {
      "inputs": [
        {
          "internalType": "bytes4",
          "name": "interfaceId",
          "type": "bytes4"
        }
      ],
      "name": "supportsInterface",
      "outputs": [
        {
          "internalType": "bool",
          "name": "",
          "type": "bool"
        }
      ],
      "stateMutability": "view",
      "type": "function"
    },
    {
      "inputs": [
        {
          "internalType": "address",
          "name": "newOwner",
          "type": "address"
        }
      ],
      "name": "transferOwnership",
      "outputs": [],
      "stateMutability": "nonpayable",
      "type": "function"
    },
    {
      "inputs": [
        {
          "internalType": "uint256",
          "name": "amountIn",
          "type": "uint256"
        },
        {
          "internalType": "address",
          "name": "tokenOut",
          "type": "address"
        },
        {
          "internalType": "address",
          "name": "wrapper",
          "type": "address"
        },
        {
          "internalType": "uint256",
          "name": "maxSteps",
          "type": "uint256"
        },
        {
          "internalType": "uint256",
          "name": "gasPrice",
          "type": "uint256"
        }
      ],
      "name": "unwrapAndFindBestPath",
      "outputs": [
        {
          "components": [
            {
              "internalType": "uint256[]",
              "name": "amounts",
              "type": "uint256[]"
            },
            {
              "internalType": "address[]",
              "name": "adapters",
              "type": "address[]"
            },
            {
              "internalType": "address[]",
              "name": "path",
              "type": "address[]"
            },
            {
              "internalType": "uint256",
              "name": "gasEstimate",
              "type": "uint256"
            }
          ],
          "internalType": "struct FormattedOffer",
          "name": "bestOffer",
          "type": "tuple"
        }
      ],
      "stateMutability": "view",
      "type": "function"
    }
  ],
  "transactionHash": "0xf7c1819ac303366090fc327d854de5928369ef9685cc3035537e2dc312f63d72",
  "args": [
    "0xEaE98D2834DE23Dd56982c74571de89149C3642a"
  ],
  "solcInputHash": "7f9a380052ec74a5424d22707537f79b",
  "bytecode": "0x60806040523480156200001157600080fd5b5060405162001d5738038062001d578339810160408190526200003491620001e8565b336200004260008262000081565b6200006e7f339759585899103d2ace64958e37e18ccb0504652c81d4a1b8aa80fe2126ab958262000081565b506200007a8162000091565b5062000218565b6200008d828262000148565b5050565b3360008181527fa54247010af6b3693b80aceddfad12e077c5de3571e6243fada502635f0d7d39602052604090205460ff16620001255760405162461bcd60e51b815260206004820152602860248201527f4d61696e7461696e61626c653a2043616c6c6572206973206e6f742061206d6160448201526734b73a30b4b732b960c11b606482015260840160405180910390fd5b50600180546001600160a01b0319166001600160a01b0392909216919091179055565b6000828152602081815260408083206001600160a01b038516845290915290205460ff166200008d576000828152602081815260408083206001600160a01b03851684529091529020805460ff19166001179055620001a43390565b6001600160a01b0316816001600160a01b0316837f2f8788117e7eff1d82e926ec794901d17c78024a50270940304540a733656f0d60405160405180910390a45050565b600060208284031215620001fa578081fd5b81516001600160a01b038116811462000211578182fd5b9392505050565b611b2f80620002286000396000f3fe608060405234801561001057600080fd5b50600436106101005760003560e01c80639ddb764d11610097578063d8baf7cf11610066578063d8baf7cf14610244578063f2fde38b14610257578063f87422541461026a578063f887ea401461029157600080fd5b80639ddb764d14610203578063a217fddf14610216578063c0d786551461021e578063d547741f1461023157600080fd5b80636b453c1f116100d35780636b453c1f146101865780638bb9c5bf1461019957806391d14854146101ac578063980d473a146101e357600080fd5b806301ffc9a714610105578063248a9ca31461012d5780632f2ff15d1461015e57806336568abe14610173575b600080fd5b6101186101133660046115f4565b6102bc565b60405190151581526020015b60405180910390f35b61015061013b3660046115ad565b60009081526020819052604090206001015490565b604051908152602001610124565b61017161016c3660046115c5565b610325565b005b6101716101813660046115c5565b61034f565b61017161019436600461153a565b6103e0565b6101716101a73660046115ad565b61040d565b6101186101ba3660046115c5565b6000918252602082815260408084206001600160a01b0393909316845291905290205460ff1690565b6101f66101f13660046116f0565b610418565b60405161012491906118d0565b6101f66102113660046116f0565b6107da565b610150600081565b61017161022c36600461153a565b610b6a565b61017161023f3660046115c5565b610c49565b61017161025236600461153a565b610c6e565b61017161026536600461153a565b610c98565b6101507f339759585899103d2ace64958e37e18ccb0504652c81d4a1b8aa80fe2126ab9581565b6001546102a4906001600160a01b031681565b6040516001600160a01b039091168152602001610124565b60006001600160e01b031982167f7965db0b00000000000000000000000000000000000000000000000000000000148061031f57507f01ffc9a7000000000000000000000000000000000000000000000000000000006001600160e01b03198316145b92915050565b60008281526020819052604090206001015461034081610caf565b61034a8383610cb9565b505050565b6001600160a01b03811633146103d25760405162461bcd60e51b815260206004820152602f60248201527f416363657373436f6e74726f6c3a2063616e206f6e6c792072656e6f756e636560448201527f20726f6c657320666f722073656c66000000000000000000000000000000000060648201526084015b60405180910390fd5b6103dc8282610d57565b5050565b61040a7f339759585899103d2ace64958e37e18ccb0504652c81d4a1b8aa80fe2126ab9582610325565b50565b336103dc828261034f565b6104436040518060800160405280606081526020016060815260200160608152602001600081525090565b6000846001600160a01b031663213cae636040518163ffffffff1660e01b815260040160006040518083038186803b15801561047e57600080fd5b505afa158015610492573d6000803e3d6000fd5b505050506040513d6000823e601f3d908101601f191682016040526104ba9190810190611572565b90506000856001600160a01b031663f174e2416040518163ffffffff1660e01b815260040160206040518083038186803b1580156104f757600080fd5b505afa15801561050b573d6000803e3d6000fd5b505050506040513d601f19601f8201168201806040525081019061052f9190611556565b90506000866001600160a01b03166369cff80d6040518163ffffffff1660e01b815260040160206040518083038186803b15801561056c57600080fd5b505afa158015610580573d6000803e3d6000fd5b505050506040513d601f19601f820116820180604052508101906105a491906116d8565b905060005b83518110156107cd5760015484516000916001600160a01b03169063061b15e7908d908d908990879081106105ee57634e487b7160e01b600052603260045260246000fd5b60209081029190910101516040516001600160e01b031960e086901b16815260048101939093526001600160a01b039182166024840152166044820152606481018b9052608481018a905260a40160006040518083038186803b15801561065457600080fd5b505afa158015610668573d6000803e3d6000fd5b505050506040513d6000823e601f3d908101601f19168201604052610690919081019061161c565b805180519192506000916001600160a01b038c169163ef99893a916106b790600190611a3f565b815181106106d557634e487b7160e01b600052603260045260246000fd5b60200260200101518886815181106106fd57634e487b7160e01b600052603260045260246000fd5b6020026020010151886040518463ffffffff1660e01b815260040161073e939291909283526001600160a01b03918216602084015216604082015260600190565b60206040518083038186803b15801561075657600080fd5b505afa15801561076a573d6000803e3d6000fd5b505050506040513d601f19601f8201168201806040525081019061078e91906116d8565b90508215806107a457506107a187610dd6565b81115b156107ba576107b682828c8888610e17565b8196505b5050806107c690611a9d565b90506105a9565b5050505095945050505050565b6108056040518060800160405280606081526020016060815260200160608152602001600081525090565b6000846001600160a01b031663071bc3c96040518163ffffffff1660e01b815260040160006040518083038186803b15801561084057600080fd5b505afa158015610854573d6000803e3d6000fd5b505050506040513d6000823e601f3d908101601f1916820160405261087c9190810190611572565b90506000856001600160a01b031663f174e2416040518163ffffffff1660e01b815260040160206040518083038186803b1580156108b957600080fd5b505afa1580156108cd573d6000803e3d6000fd5b505050506040513d601f19601f820116820180604052508101906108f19190611556565b90506000866001600160a01b03166369cff80d6040518163ffffffff1660e01b815260040160206040518083038186803b15801561092e57600080fd5b505afa158015610942573d6000803e3d6000fd5b505050506040513d601f19601f8201168201806040525081019061096691906116d8565b905060005b83518110156107cd576000886001600160a01b031663ef99893a8c868886815181106109a757634e487b7160e01b600052603260045260246000fd5b60200260200101516040518463ffffffff1660e01b81526004016109e7939291909283526001600160a01b03918216602084015216604082015260600190565b60206040518083038186803b1580156109ff57600080fd5b505afa158015610a13573d6000803e3d6000fd5b505050506040513d601f19601f82011682018060405250810190610a3791906116d8565b90506000600160009054906101000a90046001600160a01b03166001600160a01b031663061b15e783888681518110610a8057634e487b7160e01b600052603260045260246000fd5b60209081029190910101516040516001600160e01b031960e085901b16815260048101929092526001600160a01b0390811660248301528e166044820152606481018c9052608481018b905260a40160006040518083038186803b158015610ae757600080fd5b505afa158015610afb573d6000803e3d6000fd5b505050506040513d6000823e601f3d908101601f19168201604052610b23919081019061161c565b9050821580610b415750610b3687610dd6565b610b3f82610dd6565b115b15610b5757610b53818d8c8888610f2d565b8096505b505080610b6390611a9d565b905061096b565b3360008181527fa54247010af6b3693b80aceddfad12e077c5de3571e6243fada502635f0d7d39602052604090205460ff16610c0e5760405162461bcd60e51b815260206004820152602860248201527f4d61696e7461696e61626c653a2043616c6c6572206973206e6f742061206d6160448201527f696e7461696e657200000000000000000000000000000000000000000000000060648201526084016103c9565b50600180547fffffffffffffffffffffffff0000000000000000000000000000000000000000166001600160a01b0392909216919091179055565b600082815260208190526040902060010154610c6481610caf565b61034a8383610d57565b61040a7f339759585899103d2ace64958e37e18ccb0504652c81d4a1b8aa80fe2126ab9582610c49565b33610ca4600083610325565b6103dc60008261034f565b61040a8133610fe0565b6000828152602081815260408083206001600160a01b038516845290915290205460ff166103dc576000828152602081815260408083206001600160a01b03851684529091529020805460ff19166001179055610d133390565b6001600160a01b0316816001600160a01b0316837f2f8788117e7eff1d82e926ec794901d17c78024a50270940304540a733656f0d60405160405180910390a45050565b6000828152602081815260408083206001600160a01b038516845290915290205460ff16156103dc576000828152602081815260408083206001600160a01b0385168085529252808320805460ff1916905551339285917ff6391f5c32d9c69d2a47ea670b442974b53935d1edc7fd64eb21e047a839171b9190a45050565b8051805160009190610dea90600190611a3f565b81518110610e0857634e487b7160e01b600052603260045260246000fd5b60200260200101519050919050565b8451604051610e6991610e2c916020016117c3565b604051602081830303815290604052610e448661105e565b604051602001610e559291906117ed565b604051602081830303815290604052611088565b8552602080860151604051610ec992610e83929101611784565b604051602081830303815290604052610ea4856001600160a01b031661105e565b604051602001610eb59291906117ed565b604051602081830303815290604052611164565b8560200181905250610f0a8560400151604051602001610ee99190611784565b604051602081830303815290604052610ea4846001600160a01b031661105e565b6040860152606085018051829190610f239083906119e8565b9052505050505050565b610f69610f398561105e565b8651604051610f4b91906020016117c3565b60408051601f1981840301815290829052610e5592916020016117ed565b8552610fb1610f806001600160a01b03851661105e565b602080880151604051610f939201611784565b60408051601f1981840301815290829052610eb592916020016117ed565b6020860152610f0a610fcb6001600160a01b03841661105e565b8660400151604051602001610f939190611784565b6000828152602081815260408083206001600160a01b038516845290915290205460ff166103dc5761101c816001600160a01b03166014611237565b611027836020611237565b60405160200161103892919061181c565b60408051601f198184030181529082905262461bcd60e51b82526103c99160040161189d565b60408051602080825281830190925260609160208201818036833750505060208101929092525090565b6060602082516110989190611a00565b67ffffffffffffffff8111156110be57634e487b7160e01b600052604160045260246000fd5b6040519080825280602002602001820160405280156110e7578160200160208202803683370190505b50905060005b602083516110fb9190611a00565b81101561115e5761112183611111836020611a20565b61111c9060206119e8565b015190565b82828151811061114157634e487b7160e01b600052603260045260246000fd5b60209081029190910101528061115681611a9d565b9150506110ed565b50919050565b6060602082516111749190611a00565b67ffffffffffffffff81111561119a57634e487b7160e01b600052604160045260246000fd5b6040519080825280602002602001820160405280156111c3578160200160208202803683370190505b50905060005b602083516111d79190611a00565b81101561115e576111ed83611111836020611a20565b82828151811061120d57634e487b7160e01b600052603260045260246000fd5b6001600160a01b03909216602092830291909101909101528061122f81611a9d565b9150506111c9565b60606000611246836002611a20565b6112519060026119e8565b67ffffffffffffffff81111561127757634e487b7160e01b600052604160045260246000fd5b6040519080825280601f01601f1916602001820160405280156112a1576020820181803683370190505b5090507f3000000000000000000000000000000000000000000000000000000000000000816000815181106112e657634e487b7160e01b600052603260045260246000fd5b60200101906001600160f81b031916908160001a9053507f78000000000000000000000000000000000000000000000000000000000000008160018151811061133f57634e487b7160e01b600052603260045260246000fd5b60200101906001600160f81b031916908160001a9053506000611363846002611a20565b61136e9060016119e8565b90505b600181111561140f577f303132333435363738396162636465660000000000000000000000000000000085600f16601081106113bd57634e487b7160e01b600052603260045260246000fd5b1a60f81b8282815181106113e157634e487b7160e01b600052603260045260246000fd5b60200101906001600160f81b031916908160001a90535060049490941c9361140881611a86565b9050611371565b50831561145e5760405162461bcd60e51b815260206004820181905260248201527f537472696e67733a20686578206c656e67746820696e73756666696369656e7460448201526064016103c9565b9392505050565b600082601f830112611475578081fd5b8151602061148a611485836119c4565b611993565b80838252828201915082860187848660051b89010111156114a9578586fd5b855b858110156114d05781516114be81611ae4565b845292840192908401906001016114ab565b5090979650505050505050565b600082601f8301126114ed578081fd5b815160206114fd611485836119c4565b80838252828201915082860187848660051b890101111561151c578586fd5b855b858110156114d05781518452928401929084019060010161151e565b60006020828403121561154b578081fd5b813561145e81611ae4565b600060208284031215611567578081fd5b815161145e81611ae4565b600060208284031215611583578081fd5b815167ffffffffffffffff811115611599578182fd5b6115a584828501611465565b949350505050565b6000602082840312156115be578081fd5b5035919050565b600080604083850312156115d7578081fd5b8235915060208301356115e981611ae4565b809150509250929050565b600060208284031215611605578081fd5b81356001600160e01b03198116811461145e578182fd5b60006020828403121561162d578081fd5b815167ffffffffffffffff80821115611644578283fd5b9083019060808286031215611657578283fd5b61165f61196a565b82518281111561166d578485fd5b611679878286016114dd565b82525060208301518281111561168d578485fd5b61169987828601611465565b6020830152506040830151828111156116b0578485fd5b6116bc87828601611465565b6040830152506060830151606082015280935050505092915050565b6000602082840312156116e9578081fd5b5051919050565b600080600080600060a08688031215611707578081fd5b85359450602086013561171981611ae4565b9350604086013561172981611ae4565b94979396509394606081013594506080013592915050565b6000815180845260208085019450808401835b838110156117795781516001600160a01b031687529582019590820190600101611754565b509495945050505050565b815160009082906020808601845b838110156117b75781516001600160a01b031685529382019390820190600101611792565b50929695505050505050565b815160009082906020808601845b838110156117b7578151855293820193908201906001016117d1565b600083516117ff818460208801611a56565b835190830190611813818360208801611a56565b01949350505050565b7f416363657373436f6e74726f6c3a206163636f756e7420000000000000000000815260008351611854816017850160208801611a56565b7f206973206d697373696e6720726f6c65200000000000000000000000000000006017918401918201528351611891816028840160208801611a56565b01602801949350505050565b60208152600082518060208401526118bc816040850160208701611a56565b601f01601f19169190910160400192915050565b60208082528251608083830152805160a0840181905260009291820190839060c08601905b8083101561191557835182529284019260019290920191908401906118f5565b50838701519350601f199250828682030160408701526119358185611741565b935050506040850151818584030160608601526119528382611741565b92505050606084015160808401528091505092915050565b6040516080810167ffffffffffffffff8111828210171561198d5761198d611ace565b60405290565b604051601f8201601f1916810167ffffffffffffffff811182821017156119bc576119bc611ace565b604052919050565b600067ffffffffffffffff8211156119de576119de611ace565b5060051b60200190565b600082198211156119fb576119fb611ab8565b500190565b600082611a1b57634e487b7160e01b81526012600452602481fd5b500490565b6000816000190483118215151615611a3a57611a3a611ab8565b500290565b600082821015611a5157611a51611ab8565b500390565b60005b83811015611a71578181015183820152602001611a59565b83811115611a80576000848401525b50505050565b600081611a9557611a95611ab8565b506000190190565b6000600019821415611ab157611ab1611ab8565b5060010190565b634e487b7160e01b600052601160045260246000fd5b634e487b7160e01b600052604160045260246000fd5b6001600160a01b038116811461040a57600080fdfea2646970667358221220227fa659d3922caa2bdc987524768a077d8a145d21bbbb583ad592de9c7fa0e064736f6c63430008040033",
  "devdoc": {
    "kind": "dev",
    "methods": {
      "getRoleAdmin(bytes32)": {
        "details": "Returns the admin role that controls `role`. See {grantRole} and {revokeRole}. To change a role's admin, use {_setRoleAdmin}."
      },
      "grantRole(bytes32,address)": {
        "details": "Grants `role` to `account`. If `account` had not been already granted `role`, emits a {RoleGranted} event. Requirements: - the caller must have ``role``'s admin role. May emit a {RoleGranted} event."
      },
      "hasRole(bytes32,address)": {
        "details": "Returns `true` if `account` has been granted `role`."
      },
      "renounceRole(bytes32,address)": {
        "details": "Revokes `role` from the calling account. Roles are often managed via {grantRole} and {revokeRole}: this function's purpose is to provide a mechanism for accounts to lose their privileges if they are compromised (such as when a trusted device is misplaced). If the calling account had been revoked `role`, emits a {RoleRevoked} event. Requirements: - the caller must be `account`. May emit a {RoleRevoked} event."
      },
      "revokeRole(bytes32,address)": {
        "details": "Revokes `role` from `account`. If `account` had been granted `role`, emits a {RoleRevoked} event. Requirements: - the caller must have ``role``'s admin role. May emit a {RoleRevoked} event."
      },
      "supportsInterface(bytes4)": {
        "details": "See {IERC165-supportsInterface}."
      }
    },
    "version": 1
  },
  "userdoc": {
    "kind": "user",
    "methods": {},
    "version": 1
  },
  "storageLayout": {
    "storage": [
      {
        "astId": 24,
        "contract": "src/contracts/YakWrapRouter.sol:YakWrapRouter",
        "label": "_roles",
        "offset": 0,
        "slot": "0",
        "type": "t_mapping(t_bytes32,t_struct(RoleData)19_storage)"
      },
      {
        "astId": 3096,
        "contract": "src/contracts/YakWrapRouter.sol:YakWrapRouter",
        "label": "router",
        "offset": 0,
        "slot": "1",
        "type": "t_contract(IYakRouter)16353"
      }
    ],
    "types": {
      "t_address": {
        "encoding": "inplace",
        "label": "address",
        "numberOfBytes": "20"
      },
      "t_bool": {
        "encoding": "inplace",
        "label": "bool",
        "numberOfBytes": "1"
      },
      "t_bytes32": {
        "encoding": "inplace",
        "label": "bytes32",
        "numberOfBytes": "32"
      },
      "t_contract(IYakRouter)16353": {
        "encoding": "inplace",
        "label": "contract IYakRouter",
        "numberOfBytes": "20"
      },
      "t_mapping(t_address,t_bool)": {
        "encoding": "mapping",
        "key": "t_address",
        "label": "mapping(address => bool)",
        "numberOfBytes": "32",
        "value": "t_bool"
      },
      "t_mapping(t_bytes32,t_struct(RoleData)19_storage)": {
        "encoding": "mapping",
        "key": "t_bytes32",
        "label": "mapping(bytes32 => struct AccessControl.RoleData)",
        "numberOfBytes": "32",
        "value": "t_struct(RoleData)19_storage"
      },
      "t_struct(RoleData)19_storage": {
        "encoding": "inplace",
        "label": "struct AccessControl.RoleData",
        "members": [
          {
            "astId": 16,
            "contract": "src/contracts/YakWrapRouter.sol:YakWrapRouter",
            "label": "members",
            "offset": 0,
            "slot": "0",
            "type": "t_mapping(t_address,t_bool)"
          },
          {
            "astId": 18,
            "contract": "src/contracts/YakWrapRouter.sol:YakWrapRouter",
            "label": "adminRole",
            "offset": 0,
            "slot": "1",
            "type": "t_bytes32"
          }
        ],
        "numberOfBytes": "64"
      }
    }
  }
}