{
  "abi": [
    {
      "inputs": [
        {
          "internalType": "string",
          "name": "_name",
          "type": "string"
        },
        {
          "internalType": "address",
          "name": "_vault",
          "type": "address"
        },
        {
          "internalType": "uint256",
          "name": "_swapGasEstimate",
          "type": "uint256"
        }
      ],
      "stateMutability": "nonpayable",
      "type": "constructor"
    },
    {
      "anonymous": false,
      "inputs": [
        {
          "indexed": true,
          "internalType": "address",
          "name": "_asset",
          "type": "address"
        },
        {
          "indexed": false,
          "internalType": "uint256",
          "name": "amount",
          "type": "uint256"
        }
      ],
      "name": "Recovered",
      "type": "event"
    },
    {
      "anonymous": false,
      "inputs": [
        {
          "indexed": true,
          "internalType": "bytes32",
          "name": "role",
          "type": "bytes32"
        },
        {
          "indexed": true,
          "internalType": "bytes32",
          "name": "previousAdminRole",
          "type": "bytes32"
        },
        {
          "indexed": true,
          "internalType": "bytes32",
          "name": "newAdminRole",
          "type": "bytes32"
        }
      ],
      "name": "RoleAdminChanged",
      "type": "event"
    },
    {
      "anonymous": false,
      "inputs": [
        {
          "indexed": true,
          "internalType": "bytes32",
          "name": "role",
          "type": "bytes32"
        },
        {
          "indexed": true,
          "internalType": "address",
          "name": "account",
          "type": "address"
        },
        {
          "indexed": true,
          "internalType": "address",
          "name": "sender",
          "type": "address"
        }
      ],
      "name": "RoleGranted",
      "type": "event"
    },
    {
      "anonymous": false,
      "inputs": [
        {
          "indexed": true,
          "internalType": "bytes32",
          "name": "role",
          "type": "bytes32"
        },
        {
          "indexed": true,
          "internalType": "address",
          "name": "account",
          "type": "address"
        },
        {
          "indexed": true,
          "internalType": "address",
          "name": "sender",
          "type": "address"
        }
      ],
      "name": "RoleRevoked",
      "type": "event"
    },
    {
      "anonymous": false,
      "inputs": [
        {
          "indexed": true,
          "internalType": "address",
          "name": "_adapter",
          "type": "address"
        },
        {
          "indexed": false,
          "internalType": "uint256",
          "name": "_newEstimate",
          "type": "uint256"
        }
      ],
      "name": "UpdatedGasEstimate",
      "type": "event"
    },
    {
      "anonymous": false,
      "inputs": [
        {
          "indexed": true,
          "internalType": "address",
          "name": "_tokenFrom",
          "type": "address"
        },
        {
          "indexed": true,
          "internalType": "address",
          "name": "_tokenTo",
          "type": "address"
        },
        {
          "indexed": false,
          "internalType": "uint256",
          "name": "_amountIn",
          "type": "uint256"
        },
        {
          "indexed": false,
          "internalType": "uint256",
          "name": "_amountOut",
          "type": "uint256"
        }
      ],
      "name": "YakAdapterSwap",
      "type": "event"
    },
    {
      "inputs": [],
      "name": "BASIS_POINTS_DIVISOR",
      "outputs": [
        {
          "internalType": "uint256",
          "name": "",
          "type": "uint256"
        }
      ],
      "stateMutability": "view",
      "type": "function"
    },
    {
      "inputs": [],
      "name": "DEFAULT_ADMIN_ROLE",
      "outputs": [
        {
          "internalType": "bytes32",
          "name": "",
          "type": "bytes32"
        }
      ],
      "stateMutability": "view",
      "type": "function"
    },
    {
      "inputs": [],
      "name": "MAINTAINER_ROLE",
      "outputs": [
        {
          "internalType": "bytes32",
          "name": "",
          "type": "bytes32"
        }
      ],
      "stateMutability": "view",
      "type": "function"
    },
    {
      "inputs": [],
      "name": "PRICE_PRECISION",
      "outputs": [
        {
          "internalType": "uint256",
          "name": "",
          "type": "uint256"
        }
      ],
      "stateMutability": "view",
      "type": "function"
    },
    {
      "inputs": [],
      "name": "USDG_DECIMALS",
      "outputs": [
        {
          "internalType": "uint256",
          "name": "",
          "type": "uint256"
        }
      ],
      "stateMutability": "view",
      "type": "function"
    },
    {
      "inputs": [],
      "name": "VAULT",
      "outputs": [
        {
          "internalType": "address",
          "name": "",
          "type": "address"
        }
      ],
      "stateMutability": "view",
      "type": "function"
    },
    {
      "inputs": [
        {
          "internalType": "address",
          "name": "addedMaintainer",
          "type": "address"
        }
      ],
      "name": "addMaintainer",
      "outputs": [],
      "stateMutability": "nonpayable",
      "type": "function"
    },
    {
      "inputs": [
        {
          "internalType": "address[]",
          "name": "_tokens",
          "type": "address[]"
        }
      ],
      "name": "addPoolTkns",
      "outputs": [],
      "stateMutability": "nonpayable",
      "type": "function"
    },
    {
      "inputs": [
        {
          "internalType": "bytes32",
          "name": "role",
          "type": "bytes32"
        }
      ],
      "name": "getRoleAdmin",
      "outputs": [
        {
          "internalType": "bytes32",
          "name": "",
          "type": "bytes32"
        }
      ],
      "stateMutability": "view",
      "type": "function"
    },
    {
      "inputs": [
        {
          "internalType": "bytes32",
          "name": "role",
          "type": "bytes32"
        },
        {
          "internalType": "address",
          "name": "account",
          "type": "address"
        }
      ],
      "name": "grantRole",
      "outputs": [],
      "stateMutability": "nonpayable",
      "type": "function"
    },
    {
      "inputs": [
        {
          "internalType": "bytes32",
          "name": "role",
          "type": "bytes32"
        },
        {
          "internalType": "address",
          "name": "account",
          "type": "address"
        }
      ],
      "name": "hasRole",
      "outputs": [
        {
          "internalType": "bool",
          "name": "",
          "type": "bool"
        }
      ],
      "stateMutability": "view",
      "type": "function"
    },
    {
      "inputs": [
        {
          "internalType": "address",
          "name": "",
          "type": "address"
        }
      ],
      "name": "isPoolTkn",
      "outputs": [
        {
          "internalType": "bool",
          "name": "",
          "type": "bool"
        }
      ],
      "stateMutability": "view",
      "type": "function"
    },
    {
      "inputs": [],
      "name": "name",
      "outputs": [
        {
          "internalType": "string",
          "name": "",
          "type": "string"
        }
      ],
      "stateMutability": "view",
      "type": "function"
    },
    {
      "inputs": [
        {
          "internalType": "uint256",
          "name": "_amountIn",
          "type": "uint256"
        },
        {
          "internalType": "address",
          "name": "_tokenIn",
          "type": "address"
        },
        {
          "internalType": "address",
          "name": "_tokenOut",
          "type": "address"
        }
      ],
      "name": "query",
      "outputs": [
        {
          "internalType": "uint256",
          "name": "",
          "type": "uint256"
        }
      ],
      "stateMutability": "view",
      "type": "function"
    },
    {
      "inputs": [
        {
          "internalType": "uint256",
          "name": "_amount",
          "type": "uint256"
        }
      ],
      "name": "recoverAVAX",
      "outputs": [],
      "stateMutability": "nonpayable",
      "type": "function"
    },
    {
      "inputs": [
        {
          "internalType": "address",
          "name": "_tokenAddress",
          "type": "address"
        },
        {
          "internalType": "uint256",
          "name": "_tokenAmount",
          "type": "uint256"
        }
      ],
      "name": "recoverERC20",
      "outputs": [],
      "stateMutability": "nonpayable",
      "type": "function"
    },
    {
      "inputs": [
        {
          "internalType": "address",
          "name": "removedMaintainer",
          "type": "address"
        }
      ],
      "name": "removeMaintainer",
      "outputs": [],
      "stateMutability": "nonpayable",
      "type": "function"
    },
    {
      "inputs": [
        {
          "internalType": "bytes32",
          "name": "role",
          "type": "bytes32"
        },
        {
          "internalType": "address",
          "name": "account",
          "type": "address"
        }
      ],
      "name": "renounceRole",
      "outputs": [],
      "stateMutability": "nonpayable",
      "type": "function"
    },
    {
      "inputs": [
        {
          "internalType": "bytes32",
          "name": "role",
          "type": "bytes32"
        }
      ],
      "name": "renounceRole",
      "outputs": [],
      "stateMutability": "nonpayable",
      "type": "function"
    },
    {
      "inputs": [
        {
          "internalType": "address",
          "name": "_token",
          "type": "address"
        },
        {
          "internalType": "address",
          "name": "_spender",
          "type": "address"
        }
      ],
      "name": "revokeAllowance",
      "outputs": [],
      "stateMutability": "nonpayable",
      "type": "function"
    },
    {
      "inputs": [
        {
          "internalType": "bytes32",
          "name": "role",
          "type": "bytes32"
        },
        {
          "internalType": "address",
          "name": "account",
          "type": "address"
        }
      ],
      "name": "revokeRole",
      "outputs": [],
      "stateMutability": "nonpayable",
      "type": "function"
    },
    {
      "inputs": [
        {
          "internalType": "address[]",
          "name": "_tokens",
          "type": "address[]"
        }
      ],
      "name": "rmPoolTkns",
      "outputs": [],
      "stateMutability": "nonpayable",
      "type": "function"
    },
    {
      "inputs": [
        {
          "internalType": "uint256",
          "name": "_estimate",
          "type": "uint256"
        }
      ],
      "name": "setSwapGasEstimate",
      "outputs": [],
      "stateMutability": "nonpayable",
      "type": "function"
    },
    {
      "inputs": [
        {
          "internalType": "bytes4",
          "name": "interfaceId",
          "type": "bytes4"
        }
      ],
      "name": "supportsInterface",
      "outputs": [
        {
          "internalType": "bool",
          "name": "",
          "type": "bool"
        }
      ],
      "stateMutability": "view",
      "type": "function"
    },
    {
      "inputs": [
        {
          "internalType": "uint256",
          "name": "_amountIn",
          "type": "uint256"
        },
        {
          "internalType": "uint256",
          "name": "_amountOut",
          "type": "uint256"
        },
        {
          "internalType": "address",
          "name": "_fromToken",
          "type": "address"
        },
        {
          "internalType": "address",
          "name": "_toToken",
          "type": "address"
        },
        {
          "internalType": "address",
          "name": "_to",
          "type": "address"
        }
      ],
      "name": "swap",
      "outputs": [],
      "stateMutability": "nonpayable",
      "type": "function"
    },
    {
      "inputs": [],
      "name": "swapGasEstimate",
      "outputs": [
        {
          "internalType": "uint256",
          "name": "",
          "type": "uint256"
        }
      ],
      "stateMutability": "view",
      "type": "function"
    },
    {
      "inputs": [
        {
          "internalType": "address",
          "name": "newOwner",
          "type": "address"
        }
      ],
      "name": "transferOwnership",
      "outputs": [],
      "stateMutability": "nonpayable",
      "type": "function"
    },
    {
      "stateMutability": "payable",
      "type": "receive"
    }
  ],
  "bytecode": {
    "object": "0x60e06040523480156200001157600080fd5b506040516200333f3803806200333f8339810160408190526200003491620005c2565b828133620000446000826200012e565b620000707f339759585899103d2ace64958e37e18ccb0504652c81d4a1b8aa80fe2126ab95826200012e565b506200007c826200013e565b6200008781620001a3565b5062000095905082620002c4565b620000a082620003d0565b151560a081151581525050816001600160a01b031663f5b91b7b6040518163ffffffff1660e01b8152600401602060405180830381865afa158015620000ea573d6000803e3d6000fd5b505050506040513d601f19601f82011682018060405250810190620001109190620006b3565b6001600160a01b0390811660c05291909116608052506200089b9050565b6200013a82826200044a565b5050565b8051600003620001955760405162461bcd60e51b815260206004820152601460248201527f496e76616c69642061646170746572206e616d6500000000000000000000000060448201526064015b60405180910390fd5b60026200013a828262000768565b3360008181527fa54247010af6b3693b80aceddfad12e077c5de3571e6243fada502635f0d7d39602052604090205460ff16620002345760405162461bcd60e51b815260206004820152602860248201527f4d61696e7461696e61626c653a2043616c6c6572206973206e6f742061206d6160448201526734b73a30b4b732b960c11b60648201526084016200018c565b81600003620002865760405162461bcd60e51b815260206004820152601460248201527f496e76616c6964206761732d657374696d61746500000000000000000000000060448201526064016200018c565b600182905560405182815230907ff43f23b7a28e6f8ce6843a21bd7b48bce778aa913b8c8cf459edf7d770e8d38a9060200160405180910390a25050565b6000816001600160a01b0316630842b0766040518163ffffffff1660e01b8152600401602060405180830381865afa15801562000305573d6000803e3d6000fd5b505050506040513d601f19601f820116820180604052508101906200032b919062000834565b905060005b81811015620003cb57604051630e468baf60e41b8152600481018290526000906001600160a01b0385169063e468baf090602401602060405180830381865afa15801562000382573d6000803e3d6000fd5b505050506040513d601f19601f82011682018060405250810190620003a89190620006b3565b9050620003b581620004ea565b5080620003c2816200084e565b91505062000330565b505050565b6000816001600160a01b0316636abbe0c86040518163ffffffff1660e01b8152600401602060405180830381865afa9250505080156200042f575060408051601f3d908101601f191682019092526200042c91810190620006b3565b60015b6200043c57506000919050565b50600192915050565b919050565b6000828152602081815260408083206001600160a01b038516845290915290205460ff166200013a576000828152602081815260408083206001600160a01b03851684529091529020805460ff19166001179055620004a63390565b6001600160a01b0316816001600160a01b0316837f2f8788117e7eff1d82e926ec794901d17c78024a50270940304540a733656f0d60405160405180910390a45050565b806001600160a01b031663313ce5676040518163ffffffff1660e01b8152600401602060405180830381865afa15801562000529573d6000803e3d6000fd5b505050506040513d601f19601f820116820180604052508101906200054f919062000876565b6001600160a01b03909116600090815260046020908152604080832060ff949094169093556003905220805460ff19166001179055565b634e487b7160e01b600052604160045260246000fd5b6001600160a01b0381168114620005b257600080fd5b50565b805162000445816200059c565b600080600060608486031215620005d857600080fd5b83516001600160401b0380821115620005f057600080fd5b818601915086601f8301126200060557600080fd5b8151818111156200061a576200061a62000586565b604051601f8201601f19908116603f0116810190838211818310171562000645576200064562000586565b816040528281526020935089848487010111156200066257600080fd5b600091505b8282101562000686578482018401518183018501529083019062000667565b6000848483010152809750505050620006a1818701620005b5565b93505050604084015190509250925092565b600060208284031215620006c657600080fd5b8151620006d3816200059c565b9392505050565b600181811c90821680620006ef57607f821691505b6020821081036200071057634e487b7160e01b600052602260045260246000fd5b50919050565b601f821115620003cb57600081815260208120601f850160051c810160208610156200073f5750805b601f850160051c820191505b8181101562000760578281556001016200074b565b505050505050565b81516001600160401b0381111562000784576200078462000586565b6200079c81620007958454620006da565b8462000716565b602080601f831160018114620007d45760008415620007bb5750858301515b600019600386901b1c1916600185901b17855562000760565b600085815260208120601f198616915b828110156200080557888601518255948401946001909101908401620007e4565b5085821015620008245787850151600019600388901b60f8161c191681555b5050505050600190811b01905550565b6000602082840312156200084757600080fd5b5051919050565b6000600182016200086f57634e487b7160e01b600052601160045260246000fd5b5060010190565b6000602082840312156200088957600080fd5b815160ff81168114620006d357600080fd5b60805160a05160c0516129d36200096c60003960008181611961015281816119bf0152611a7001526000611a980152600081816102ab015281816110340152818161108601528181611336015281816113c70152818161143b015281816116aa015281816117cc01528181611abe01528181611c0b01528181611cf801528181611d8901528181611dff01528181611e8601528181611f1101528181611f980152818161205901528181612104015281816121b10152818161224b0152818161229e015261234101526129d36000f3fe6080604052600436106101a05760003560e01c8063870d917c116100ec578063d8baf7cf1161008a578063eab90da611610064578063eab90da6146104d6578063ef99893a146104f6578063f2fde38b14610516578063f87422541461053657600080fd5b8063d8baf7cf14610476578063e2eba5f014610496578063e98f45f0146104b657600080fd5b806391d14854116100c657806391d148541461040057806395082d2514610420578063a217fddf14610441578063d547741f1461045657600080fd5b8063870d917c146103ab5780638980f11f146103c05780638bb9c5bf146103e057600080fd5b8063411557d11161015957806369cff80d1161013357806369cff80d146103355780636b453c1f1461034b5780637ae267731461036b57806384a33e631461038b57600080fd5b8063411557d1146102995780634ebb7916146102e557806367818e3d1461030557600080fd5b806301ffc9a7146101ac57806306fdde03146101e1578063126082cf14610203578063248a9ca3146102275780632f2ff15d1461025757806336568abe1461027957600080fd5b366101a757005b600080fd5b3480156101b857600080fd5b506101cc6101c73660046123c2565b610558565b60405190151581526020015b60405180910390f35b3480156101ed57600080fd5b506101f661058f565b6040516101d89190612410565b34801561020f57600080fd5b5061021961271081565b6040519081526020016101d8565b34801561023357600080fd5b50610219610242366004612443565b60009081526020819052604090206001015490565b34801561026357600080fd5b50610277610272366004612471565b61061d565b005b34801561028557600080fd5b50610277610294366004612471565b610647565b3480156102a557600080fd5b506102cd7f000000000000000000000000000000000000000000000000000000000000000081565b6040516001600160a01b0390911681526020016101d8565b3480156102f157600080fd5b50610277610300366004612443565b6106ca565b34801561031157600080fd5b506101cc6103203660046124a1565b60036020526000908152604090205460ff1681565b34801561034157600080fd5b5061021960015481565b34801561035757600080fd5b506102776103663660046124a1565b6107b8565b34801561037757600080fd5b506102776103863660046124be565b6107d3565b34801561039757600080fd5b506102776103a6366004612443565b61081d565b3480156103b757600080fd5b50610219601281565b3480156103cc57600080fd5b506102776103db3660046124ec565b6108d0565b3480156103ec57600080fd5b506102776103fb366004612443565b6109b1565b34801561040c57600080fd5b506101cc61041b366004612471565b6109bc565b34801561042c57600080fd5b506102196c0c9f2c9cd04674edea4000000081565b34801561044d57600080fd5b50610219600081565b34801561046257600080fd5b50610277610471366004612471565b6109e5565b34801561048257600080fd5b506102776104913660046124a1565b610a0a565b3480156104a257600080fd5b506102776104b1366004612518565b610a22565b3480156104c257600080fd5b506102776104d1366004612518565b610aa7565b3480156104e257600080fd5b506102776104f136600461258d565b610b4c565b34801561050257600080fd5b506102196105113660046125ec565b610cf3565b34801561052257600080fd5b506102776105313660046124a1565b610d0a565b34801561054257600080fd5b5061021960008051602061297e83398151915281565b60006001600160e01b03198216637965db0b60e01b148061058957506301ffc9a760e01b6001600160e01b03198316145b92915050565b6002805461059c9061262e565b80601f01602080910402602001604051908101604052809291908181526020018280546105c89061262e565b80156106155780601f106105ea57610100808354040283529160200191610615565b820191906000526020600020905b8154815290600101906020018083116105f857829003601f168201915b505050505081565b60008281526020819052604090206001015461063881610d21565b6106428383610d2b565b505050565b6001600160a01b03811633146106bc5760405162461bcd60e51b815260206004820152602f60248201527f416363657373436f6e74726f6c3a2063616e206f6e6c792072656e6f756e636560448201526e103937b632b9903337b91039b2b63360891b60648201526084015b60405180910390fd5b6106c68282610daf565b5050565b336106e360008051602061297e833981519152826109bc565b6106ff5760405162461bcd60e51b81526004016106b390612668565b6000821161074f5760405162461bcd60e51b815260206004820152601e60248201527f59616b416461707465723a204e6f7468696e6720746f207265636f766572000060448201526064016106b3565b604051339083156108fc029084906000818181858888f1935050505015801561077c573d6000803e3d6000fd5b506040518281526000907f8c1256b8896378cd5044f80c202f9772b9d77dc85c8a6eb51967210b09bfaa28906020015b60405180910390a25050565b6107d060008051602061297e8339815191528261061d565b50565b336107ec60008051602061297e833981519152826109bc565b6108085760405162461bcd60e51b81526004016106b390612668565b6106426001600160a01b038416836000610e14565b3361083660008051602061297e833981519152826109bc565b6108525760405162461bcd60e51b81526004016106b390612668565b816000036108995760405162461bcd60e51b8152602060048201526014602482015273496e76616c6964206761732d657374696d61746560601b60448201526064016106b3565b600182905560405182815230907ff43f23b7a28e6f8ce6843a21bd7b48bce778aa913b8c8cf459edf7d770e8d38a906020016107ac565b336108e960008051602061297e833981519152826109bc565b6109055760405162461bcd60e51b81526004016106b390612668565b600082116109555760405162461bcd60e51b815260206004820152601e60248201527f59616b416461707465723a204e6f7468696e6720746f207265636f766572000060448201526064016106b3565b6109696001600160a01b0384163384610f5c565b826001600160a01b03167f8c1256b8896378cd5044f80c202f9772b9d77dc85c8a6eb51967210b09bfaa28836040516109a491815260200190565b60405180910390a2505050565b336106c68282610647565b6000918252602082815260408084206001600160a01b0393909316845291905290205460ff1690565b600082815260208190526040902060010154610a0081610d21565b6106428383610daf565b6107d060008051602061297e833981519152826109e5565b33610a3b60008051602061297e833981519152826109bc565b610a575760405162461bcd60e51b81526004016106b390612668565b60005b82811015610aa157610a91848483818110610a7757610a776126b0565b9050602002016020810190610a8c91906124a1565b610f8c565b610a9a816126dc565b9050610a5a565b50505050565b33610ac060008051602061297e833981519152826109bc565b610adc5760405162461bcd60e51b81526004016106b390612668565b60005b82811015610aa157600060036000868685818110610aff57610aff6126b0565b9050602002016020810190610b1491906124a1565b6001600160a01b031681526020810191909152604001600020805460ff1916911515919091179055610b45816126dc565b9050610adf565b6040516370a0823160e01b81526001600160a01b038281166004830152600091908416906370a0823190602401602060405180830381865afa158015610b96573d6000803e3d6000fd5b505050506040513d601f19601f82011682018060405250810190610bba91906126f5565b9050610bc98686868686611025565b6040516370a0823160e01b81526001600160a01b03838116600483015260009183918616906370a0823190602401602060405180830381865afa158015610c14573d6000803e3d6000fd5b505050506040513d601f19601f82011682018060405250810190610c3891906126f5565b610c42919061270e565b905085811015610c945760405162461bcd60e51b815260206004820152601760248201527f496e73756666696369656e7420616d6f756e742d6f757400000000000000000060448201526064016106b3565b836001600160a01b0316856001600160a01b03167fe2bdbc6b7225eb0a972ac943c485a6cc05f7c6811838bce8903f23200fb744fa8989604051610ce2929190918252602082015260400190565b60405180910390a350505050505050565b6000610d008484846110f4565b90505b9392505050565b33610d1660008361061d565b6106c6600082610647565b6107d08133611118565b610d3582826109bc565b6106c6576000828152602081815260408083206001600160a01b03851684529091529020805460ff19166001179055610d6b3390565b6001600160a01b0316816001600160a01b0316837f2f8788117e7eff1d82e926ec794901d17c78024a50270940304540a733656f0d60405160405180910390a45050565b610db982826109bc565b156106c6576000828152602081815260408083206001600160a01b0385168085529252808320805460ff1916905551339285917ff6391f5c32d9c69d2a47ea670b442974b53935d1edc7fd64eb21e047a839171b9190a45050565b801580610e8e5750604051636eb1769f60e11b81523060048201526001600160a01b03838116602483015284169063dd62ed3e90604401602060405180830381865afa158015610e68573d6000803e3d6000fd5b505050506040513d601f19601f82011682018060405250810190610e8c91906126f5565b155b610ef95760405162461bcd60e51b815260206004820152603660248201527f5361666545524332303a20617070726f76652066726f6d206e6f6e2d7a65726f60448201527520746f206e6f6e2d7a65726f20616c6c6f77616e636560501b60648201526084016106b3565b6040516001600160a01b03831660248201526044810182905261064290849063095ea7b360e01b906064015b60408051601f198184030181529190526020810180516001600160e01b03166001600160e01b03199093169290921790915261117c565b6040516001600160a01b03831660248201526044810182905261064290849063a9059cbb60e01b90606401610f25565b806001600160a01b031663313ce5676040518163ffffffff1660e01b8152600401602060405180830381865afa158015610fca573d6000803e3d6000fd5b505050506040513d601f19601f82011682018060405250810190610fee9190612721565b6001600160a01b03909116600090815260046020908152604080832060ff949094169093556003905220805460ff19166001179055565b6110596001600160a01b0384167f000000000000000000000000000000000000000000000000000000000000000087610f5c565b604051634998b10960e11b81526001600160a01b03848116600483015283811660248301523060448301527f00000000000000000000000000000000000000000000000000000000000000001690639331621290606401600060405180830381600087803b1580156110ca57600080fd5b505af11580156110de573d6000803e3d6000fd5b505050506110ed8285836112a5565b5050505050565b60006111018484846112c9565b15610d03576111118484846114cd565b9050610d03565b61112282826109bc565b6106c65761113a816001600160a01b031660146114f7565b6111458360206114f7565b604051602001611156929190612744565b60408051601f198184030181529082905262461bcd60e51b82526106b391600401612410565b600080836001600160a01b03168360405161119791906127b9565b6000604051808303816000865af19150503d80600081146111d4576040519150601f19603f3d011682016040523d82523d6000602084013e6111d9565b606091505b50915091508161122b5760405162461bcd60e51b815260206004820181905260248201527f5361666545524332303a206c6f772d6c6576656c2063616c6c206661696c656460448201526064016106b3565b805115610aa1578080602001905181019061124691906127d5565b610aa15760405162461bcd60e51b815260206004820152602a60248201527f5361666545524332303a204552433230206f7065726174696f6e20646964206e6044820152691bdd081cdd58d8d9595960b21b60648201526084016106b3565b306001600160a01b03821614610642576106426001600160a01b0384168284610f5c565b600083158015906112ec5750816001600160a01b0316836001600160a01b031614155b801561131057506001600160a01b03831660009081526003602052604090205460ff165b80156113a15750604051630daf9c2160e41b81526001600160a01b0384811660048301527f0000000000000000000000000000000000000000000000000000000000000000169063daf9c21090602401602060405180830381865afa15801561137d573d6000803e3d6000fd5b505050506040513d601f19601f820116820180604052508101906113a191906127d5565b80156114325750604051630daf9c2160e41b81526001600160a01b0383811660048301527f0000000000000000000000000000000000000000000000000000000000000000169063daf9c21090602401602060405180830381865afa15801561140e573d6000803e3d6000fd5b505050506040513d601f19601f8201168201806040525081019061143291906127d5565b80156114bb57507f00000000000000000000000000000000000000000000000000000000000000006001600160a01b031663351a964d6040518163ffffffff1660e01b8152600401602060405180830381865afa158015611497573d6000803e3d6000fd5b505050506040513d601f19601f820116820180604052508101906114bb91906127d5565b8015610d005750610d00836001611693565b60008060006114dd86868661172b565b915091506114ed8585848461177b565b9695505050505050565b606060006115068360026127f7565b61151190600261280e565b67ffffffffffffffff81111561152957611529612821565b6040519080825280601f01601f191660200182016040528015611553576020820181803683370190505b509050600360fc1b8160008151811061156e5761156e6126b0565b60200101906001600160f81b031916908160001a905350600f60fb1b8160018151811061159d5761159d6126b0565b60200101906001600160f81b031916908160001a90535060006115c18460026127f7565b6115cc90600161280e565b90505b6001811115611644576f181899199a1a9b1b9c1cb0b131b232b360811b85600f1660108110611600576116006126b0565b1a60f81b828281518110611616576116166126b0565b60200101906001600160f81b031916908160001a90535060049490941c9361163d81612837565b90506115cf565b508315610d035760405162461bcd60e51b815260206004820181905260248201527f537472696e67733a20686578206c656e67746820696e73756666696369656e7460448201526064016106b3565b6040516370a0823160e01b81526001600160a01b037f00000000000000000000000000000000000000000000000000000000000000008116600483015260009183918516906370a0823190602401602060405180830381865afa1580156116fe573d6000803e3d6000fd5b505050506040513d601f19601f8201168201806040525081019061172291906126f5565b10159392505050565b60008060008061173b86866117c5565b90925090508061174b83896127f7565b611755919061284e565b935061176284878761195c565b935061176f878388611a43565b92505050935093915050565b600080611789868685611a94565b905060006117978583611bc4565b905060006117a788888785611be7565b905080156117b9575091506117bd9050565b5050505b949350505050565b60008060007f00000000000000000000000000000000000000000000000000000000000000006001600160a01b031663741bef1a6040518163ffffffff1660e01b8152600401602060405180830381865afa158015611828573d6000803e3d6000fd5b505050506040513d601f19601f8201168201806040525081019061184c9190612870565b6040516317e1d38560e11b81526001600160a01b03878116600483015260006024830152600160448301819052606483015291925090821690632fc3a70a90608401602060405180830381865afa1580156118ab573d6000803e3d6000fd5b505050506040513d601f19601f820116820180604052508101906118cf91906126f5565b6040516317e1d38560e11b81526001600160a01b03868116600483015260016024830181905260448301819052606483015291945090821690632fc3a70a90608401602060405180830381865afa15801561192e573d6000803e3d6000fd5b505050506040513d601f19601f8201168201806040525081019061195291906126f5565b9150509250929050565b6000807f00000000000000000000000000000000000000000000000000000000000000006001600160a01b0316846001600160a01b0316146119b6576001600160a01b0384166000908152600460205260409020546119b9565b60125b905060007f00000000000000000000000000000000000000000000000000000000000000006001600160a01b0316846001600160a01b031614611a14576001600160a01b038416600090815260046020526040902054611a17565b60125b9050611a2482600a612971565b611a2f82600a612971565b611a3990886127f7565b6114ed919061284e565b60006c0c9f2c9cd04674edea40000000611a5d84866127f7565b611a67919061284e565b9050610d0081837f000000000000000000000000000000000000000000000000000000000000000061195c565b60007f000000000000000000000000000000000000000000000000000000000000000015611bb9577f00000000000000000000000000000000000000000000000000000000000000006001600160a01b0316636abbe0c86040518163ffffffff1660e01b8152600401602060405180830381865afa158015611b1a573d6000803e3d6000fd5b505050506040513d601f19601f82011682018060405250810190611b3e9190612870565b604051636d099c0b60e11b81526001600160a01b038681166004830152858116602483015260448201859052919091169063da13381690606401602060405180830381865afa158015611b95573d6000803e3d6000fd5b505050506040513d601f19601f8201168201806040525081019061111191906126f5565b610d00848484611cd4565b6000612710611bd3838261270e565b611bdd90856127f7565b610d03919061284e565b6040516352f55eed60e01b81526001600160a01b03848116600483015260009182917f000000000000000000000000000000000000000000000000000000000000000016906352f55eed90602401602060405180830381865afa158015611c52573d6000803e3d6000fd5b505050506040513d601f19601f82011682018060405250810190611c7691906126f5565b905082811015611c8a5760009150506117bd565b6000611c96848361270e565b9050611ca2818761218d565b158015611cb65750611cb48187612227565b155b8015611cc95750611cc7858861227a565b155b979650505050505050565b6040516342b60b0360e01b81526001600160a01b03848116600483015260009182917f000000000000000000000000000000000000000000000000000000000000000016906342b60b0390602401602060405180830381865afa158015611d3f573d6000803e3d6000fd5b505050506040513d601f19601f82011682018060405250810190611d6391906127d5565b8015611df457506040516342b60b0360e01b81526001600160a01b0385811660048301527f000000000000000000000000000000000000000000000000000000000000000016906342b60b0390602401602060405180830381865afa158015611dd0573d6000803e3d6000fd5b505050506040513d601f19601f82011682018060405250810190611df491906127d5565b9050600081611e84577f00000000000000000000000000000000000000000000000000000000000000006001600160a01b031663a22f23926040518163ffffffff1660e01b8152600401602060405180830381865afa158015611e5b573d6000803e3d6000fd5b505050506040513d601f19601f82011682018060405250810190611e7f91906126f5565b611f06565b7f00000000000000000000000000000000000000000000000000000000000000006001600160a01b031663df73a2676040518163ffffffff1660e01b8152600401602060405180830381865afa158015611ee2573d6000803e3d6000fd5b505050506040513d601f19601f82011682018060405250810190611f0691906126f5565b9050600082611f96577f00000000000000000000000000000000000000000000000000000000000000006001600160a01b0316637a210a2b6040518163ffffffff1660e01b8152600401602060405180830381865afa158015611f6d573d6000803e3d6000fd5b505050506040513d601f19601f82011682018060405250810190611f9191906126f5565b612018565b7f00000000000000000000000000000000000000000000000000000000000000006001600160a01b03166310eb56c26040518163ffffffff1660e01b8152600401602060405180830381865afa158015611ff4573d6000803e3d6000fd5b505050506040513d601f19601f8201168201806040525081019061201891906126f5565b60405163c7e074c360e01b81526001600160a01b038981166004830152602482018890526044820185905260648201839052600160848301529192506000917f0000000000000000000000000000000000000000000000000000000000000000169063c7e074c39060a401602060405180830381865afa1580156120a0573d6000803e3d6000fd5b505050506040513d601f19601f820116820180604052508101906120c491906126f5565b60405163c7e074c360e01b81526001600160a01b0389811660048301526024820189905260448201869052606482018590526000608483018190529293507f0000000000000000000000000000000000000000000000000000000000000000169063c7e074c39060a401602060405180830381865afa15801561214b573d6000803e3d6000fd5b505050506040513d601f19601f8201168201806040525081019061216f91906126f5565b905080821161217e5780612180565b815b9998505050505050505050565b60405163c3c7b9e960e01b81526001600160a01b03828116600483015260009182917f0000000000000000000000000000000000000000000000000000000000000000169063c3c7b9e9906024015b602060405180830381865afa1580156121f9573d6000803e3d6000fd5b505050506040513d601f19601f8201168201806040525081019061221d91906126f5565b9093109392505050565b604051634a993ee960e01b81526001600160a01b03828116600483015260009182917f00000000000000000000000000000000000000000000000000000000000000001690634a993ee9906024016121dc565b60405163ad1e4f8d60e01b81526001600160a01b03828116600483015260009182917f0000000000000000000000000000000000000000000000000000000000000000169063ad1e4f8d90602401602060405180830381865afa1580156122e5573d6000803e3d6000fd5b505050506040513d601f19601f8201168201806040525081019061230991906126f5565b90508060000361231d576000915050610589565b604051631aa4ace560e01b81526001600160a01b03848116600483015260009186917f00000000000000000000000000000000000000000000000000000000000000001690631aa4ace590602401602060405180830381865afa158015612388573d6000803e3d6000fd5b505050506040513d601f19601f820116820180604052508101906123ac91906126f5565b6123b6919061280e565b91909111949350505050565b6000602082840312156123d457600080fd5b81356001600160e01b031981168114610d0357600080fd5b60005b838110156124075781810151838201526020016123ef565b50506000910152565b602081526000825180602084015261242f8160408501602087016123ec565b601f01601f19169190910160400192915050565b60006020828403121561245557600080fd5b5035919050565b6001600160a01b03811681146107d057600080fd5b6000806040838503121561248457600080fd5b8235915060208301356124968161245c565b809150509250929050565b6000602082840312156124b357600080fd5b8135610d038161245c565b600080604083850312156124d157600080fd5b82356124dc8161245c565b915060208301356124968161245c565b600080604083850312156124ff57600080fd5b823561250a8161245c565b946020939093013593505050565b6000806020838503121561252b57600080fd5b823567ffffffffffffffff8082111561254357600080fd5b818501915085601f83011261255757600080fd5b81358181111561256657600080fd5b8660208260051b850101111561257b57600080fd5b60209290920196919550909350505050565b600080600080600060a086880312156125a557600080fd5b853594506020860135935060408601356125be8161245c565b925060608601356125ce8161245c565b915060808601356125de8161245c565b809150509295509295909350565b60008060006060848603121561260157600080fd5b8335925060208401356126138161245c565b915060408401356126238161245c565b809150509250925092565b600181811c9082168061264257607f821691505b60208210810361266257634e487b7160e01b600052602260045260246000fd5b50919050565b60208082526028908201527f4d61696e7461696e61626c653a2043616c6c6572206973206e6f742061206d6160408201526734b73a30b4b732b960c11b606082015260800190565b634e487b7160e01b600052603260045260246000fd5b634e487b7160e01b600052601160045260246000fd5b6000600182016126ee576126ee6126c6565b5060010190565b60006020828403121561270757600080fd5b5051919050565b81810381811115610589576105896126c6565b60006020828403121561273357600080fd5b815160ff81168114610d0357600080fd5b7f416363657373436f6e74726f6c3a206163636f756e742000000000000000000081526000835161277c8160178501602088016123ec565b7001034b99036b4b9b9b4b733903937b6329607d1b60179184019182015283516127ad8160288401602088016123ec565b01602801949350505050565b600082516127cb8184602087016123ec565b9190910192915050565b6000602082840312156127e757600080fd5b81518015158114610d0357600080fd5b8082028115828204841417610589576105896126c6565b80820180821115610589576105896126c6565b634e487b7160e01b600052604160045260246000fd5b600081612846576128466126c6565b506000190190565b60008261286b57634e487b7160e01b600052601260045260246000fd5b500490565b60006020828403121561288257600080fd5b8151610d038161245c565b600181815b808511156128c85781600019048211156128ae576128ae6126c6565b808516156128bb57918102915b93841c9390800290612892565b509250929050565b6000826128df57506001610589565b816128ec57506000610589565b8160018114612902576002811461290c57612928565b6001915050610589565b60ff84111561291d5761291d6126c6565b50506001821b610589565b5060208310610133831016604e8410600b841016171561294b575081810a610589565b612955838361288d565b8060001904821115612969576129696126c6565b029392505050565b6000610d0383836128d056fe339759585899103d2ace64958e37e18ccb0504652c81d4a1b8aa80fe2126ab95a264697066735822122017f9f20a09212080f7526d0f2e83a9a4968190fce577a4fefc11b7b67e4274cd64736f6c63430008110033",
    "linkReferences": {}
  },
  "methodIdentifiers": {
    "BASIS_POINTS_DIVISOR()": "126082cf",
    "DEFAULT_ADMIN_ROLE()": "a217fddf",
    "MAINTAINER_ROLE()": "f8742254",
    "PRICE_PRECISION()": "95082d25",
    "USDG_DECIMALS()": "870d917c",
    "VAULT()": "411557d1",
    "addMaintainer(address)": "6b453c1f",
    "addPoolTkns(address[])": "e2eba5f0",
    "getRoleAdmin(bytes32)": "248a9ca3",
    "grantRole(bytes32,address)": "2f2ff15d",
    "hasRole(bytes32,address)": "91d14854",
    "isPoolTkn(address)": "67818e3d",
    "name()": "06fdde03",
    "query(uint256,address,address)": "ef99893a",
    "recoverAVAX(uint256)": "4ebb7916",
    "recoverERC20(address,uint256)": "8980f11f",
    "removeMaintainer(address)": "d8baf7cf",
    "renounceRole(bytes32)": "8bb9c5bf",
    "renounceRole(bytes32,address)": "36568abe",
    "revokeAllowance(address,address)": "7ae26773",
    "revokeRole(bytes32,address)": "d547741f",
    "rmPoolTkns(address[])": "e98f45f0",
    "setSwapGasEstimate(uint256)": "84a33e63",
    "supportsInterface(bytes4)": "01ffc9a7",
    "swap(uint256,uint256,address,address,address)": "eab90da6",
    "swapGasEstimate()": "69cff80d",
    "transferOwnership(address)": "f2fde38b"
  },
  "id": 28
}