{
  "abi": [
    {
      "inputs": [
        {
          "internalType": "string",
          "name": "_name",
          "type": "string"
        },
        {
          "internalType": "address[]",
          "name": "_pools",
          "type": "address[]"
        },
        {
          "internalType": "uint256",
          "name": "_gasEstimate",
          "type": "uint256"
        }
      ],
      "stateMutability": "nonpayable",
      "type": "constructor"
    },
    {
      "anonymous": false,
      "inputs": [
        {
          "indexed": true,
          "internalType": "address",
          "name": "_asset",
          "type": "address"
        },
        {
          "indexed": false,
          "internalType": "uint256",
          "name": "amount",
          "type": "uint256"
        }
      ],
      "name": "Recovered",
      "type": "event"
    },
    {
      "anonymous": false,
      "inputs": [
        {
          "indexed": true,
          "internalType": "bytes32",
          "name": "role",
          "type": "bytes32"
        },
        {
          "indexed": true,
          "internalType": "bytes32",
          "name": "previousAdminRole",
          "type": "bytes32"
        },
        {
          "indexed": true,
          "internalType": "bytes32",
          "name": "newAdminRole",
          "type": "bytes32"
        }
      ],
      "name": "RoleAdminChanged",
      "type": "event"
    },
    {
      "anonymous": false,
      "inputs": [
        {
          "indexed": true,
          "internalType": "bytes32",
          "name": "role",
          "type": "bytes32"
        },
        {
          "indexed": true,
          "internalType": "address",
          "name": "account",
          "type": "address"
        },
        {
          "indexed": true,
          "internalType": "address",
          "name": "sender",
          "type": "address"
        }
      ],
      "name": "RoleGranted",
      "type": "event"
    },
    {
      "anonymous": false,
      "inputs": [
        {
          "indexed": true,
          "internalType": "bytes32",
          "name": "role",
          "type": "bytes32"
        },
        {
          "indexed": true,
          "internalType": "address",
          "name": "account",
          "type": "address"
        },
        {
          "indexed": true,
          "internalType": "address",
          "name": "sender",
          "type": "address"
        }
      ],
      "name": "RoleRevoked",
      "type": "event"
    },
    {
      "anonymous": false,
      "inputs": [
        {
          "indexed": true,
          "internalType": "address",
          "name": "_adapter",
          "type": "address"
        },
        {
          "indexed": false,
          "internalType": "uint256",
          "name": "_newEstimate",
          "type": "uint256"
        }
      ],
      "name": "UpdatedGasEstimate",
      "type": "event"
    },
    {
      "anonymous": false,
      "inputs": [
        {
          "indexed": true,
          "internalType": "address",
          "name": "_tokenFrom",
          "type": "address"
        },
        {
          "indexed": true,
          "internalType": "address",
          "name": "_tokenTo",
          "type": "address"
        },
        {
          "indexed": false,
          "internalType": "uint256",
          "name": "_amountIn",
          "type": "uint256"
        },
        {
          "indexed": false,
          "internalType": "uint256",
          "name": "_amountOut",
          "type": "uint256"
        }
      ],
      "name": "YakAdapterSwap",
      "type": "event"
    },
    {
      "inputs": [],
      "name": "DEFAULT_ADMIN_ROLE",
      "outputs": [
        {
          "internalType": "bytes32",
          "name": "",
          "type": "bytes32"
        }
      ],
      "stateMutability": "view",
      "type": "function"
    },
    {
      "inputs": [],
      "name": "MAINTAINER_ROLE",
      "outputs": [
        {
          "internalType": "bytes32",
          "name": "",
          "type": "bytes32"
        }
      ],
      "stateMutability": "view",
      "type": "function"
    },
    {
      "inputs": [
        {
          "internalType": "address[]",
          "name": "_pools",
          "type": "address[]"
        }
      ],
      "name": "_rmPools",
      "outputs": [],
      "stateMutability": "nonpayable",
      "type": "function"
    },
    {
      "inputs": [
        {
          "internalType": "address",
          "name": "addedMaintainer",
          "type": "address"
        }
      ],
      "name": "addMaintainer",
      "outputs": [],
      "stateMutability": "nonpayable",
      "type": "function"
    },
    {
      "inputs": [
        {
          "internalType": "bytes32",
          "name": "role",
          "type": "bytes32"
        }
      ],
      "name": "getRoleAdmin",
      "outputs": [
        {
          "internalType": "bytes32",
          "name": "",
          "type": "bytes32"
        }
      ],
      "stateMutability": "view",
      "type": "function"
    },
    {
      "inputs": [
        {
          "internalType": "bytes32",
          "name": "role",
          "type": "bytes32"
        },
        {
          "internalType": "address",
          "name": "account",
          "type": "address"
        }
      ],
      "name": "grantRole",
      "outputs": [],
      "stateMutability": "nonpayable",
      "type": "function"
    },
    {
      "inputs": [
        {
          "internalType": "bytes32",
          "name": "role",
          "type": "bytes32"
        },
        {
          "internalType": "address",
          "name": "account",
          "type": "address"
        }
      ],
      "name": "hasRole",
      "outputs": [
        {
          "internalType": "bool",
          "name": "",
          "type": "bool"
        }
      ],
      "stateMutability": "view",
      "type": "function"
    },
    {
      "inputs": [],
      "name": "name",
      "outputs": [
        {
          "internalType": "string",
          "name": "",
          "type": "string"
        }
      ],
      "stateMutability": "view",
      "type": "function"
    },
    {
      "inputs": [
        {
          "internalType": "uint256",
          "name": "_amountIn",
          "type": "uint256"
        },
        {
          "internalType": "address",
          "name": "_tokenIn",
          "type": "address"
        },
        {
          "internalType": "address",
          "name": "_tokenOut",
          "type": "address"
        }
      ],
      "name": "query",
      "outputs": [
        {
          "internalType": "uint256",
          "name": "",
          "type": "uint256"
        }
      ],
      "stateMutability": "view",
      "type": "function"
    },
    {
      "inputs": [
        {
          "internalType": "uint256",
          "name": "_amount",
          "type": "uint256"
        }
      ],
      "name": "recoverAVAX",
      "outputs": [],
      "stateMutability": "nonpayable",
      "type": "function"
    },
    {
      "inputs": [
        {
          "internalType": "address",
          "name": "_tokenAddress",
          "type": "address"
        },
        {
          "internalType": "uint256",
          "name": "_tokenAmount",
          "type": "uint256"
        }
      ],
      "name": "recoverERC20",
      "outputs": [],
      "stateMutability": "nonpayable",
      "type": "function"
    },
    {
      "inputs": [
        {
          "internalType": "address",
          "name": "removedMaintainer",
          "type": "address"
        }
      ],
      "name": "removeMaintainer",
      "outputs": [],
      "stateMutability": "nonpayable",
      "type": "function"
    },
    {
      "inputs": [
        {
          "internalType": "bytes32",
          "name": "role",
          "type": "bytes32"
        },
        {
          "internalType": "address",
          "name": "account",
          "type": "address"
        }
      ],
      "name": "renounceRole",
      "outputs": [],
      "stateMutability": "nonpayable",
      "type": "function"
    },
    {
      "inputs": [
        {
          "internalType": "bytes32",
          "name": "role",
          "type": "bytes32"
        }
      ],
      "name": "renounceRole",
      "outputs": [],
      "stateMutability": "nonpayable",
      "type": "function"
    },
    {
      "inputs": [
        {
          "internalType": "address",
          "name": "_token",
          "type": "address"
        },
        {
          "internalType": "address",
          "name": "_spender",
          "type": "address"
        }
      ],
      "name": "revokeAllowance",
      "outputs": [],
      "stateMutability": "nonpayable",
      "type": "function"
    },
    {
      "inputs": [
        {
          "internalType": "bytes32",
          "name": "role",
          "type": "bytes32"
        },
        {
          "internalType": "address",
          "name": "account",
          "type": "address"
        }
      ],
      "name": "revokeRole",
      "outputs": [],
      "stateMutability": "nonpayable",
      "type": "function"
    },
    {
      "inputs": [
        {
          "internalType": "address[]",
          "name": "_pools",
          "type": "address[]"
        },
        {
          "internalType": "bool",
          "name": "overwrite",
          "type": "bool"
        }
      ],
      "name": "setPools",
      "outputs": [],
      "stateMutability": "nonpayable",
      "type": "function"
    },
    {
      "inputs": [
        {
          "internalType": "uint256",
          "name": "_estimate",
          "type": "uint256"
        }
      ],
      "name": "setSwapGasEstimate",
      "outputs": [],
      "stateMutability": "nonpayable",
      "type": "function"
    },
    {
      "inputs": [
        {
          "internalType": "bytes4",
          "name": "interfaceId",
          "type": "bytes4"
        }
      ],
      "name": "supportsInterface",
      "outputs": [
        {
          "internalType": "bool",
          "name": "",
          "type": "bool"
        }
      ],
      "stateMutability": "view",
      "type": "function"
    },
    {
      "inputs": [
        {
          "internalType": "uint256",
          "name": "_amountIn",
          "type": "uint256"
        },
        {
          "internalType": "uint256",
          "name": "_amountOut",
          "type": "uint256"
        },
        {
          "internalType": "address",
          "name": "_fromToken",
          "type": "address"
        },
        {
          "internalType": "address",
          "name": "_toToken",
          "type": "address"
        },
        {
          "internalType": "address",
          "name": "_to",
          "type": "address"
        }
      ],
      "name": "swap",
      "outputs": [],
      "stateMutability": "nonpayable",
      "type": "function"
    },
    {
      "inputs": [],
      "name": "swapGasEstimate",
      "outputs": [
        {
          "internalType": "uint256",
          "name": "",
          "type": "uint256"
        }
      ],
      "stateMutability": "view",
      "type": "function"
    },
    {
      "inputs": [
        {
          "internalType": "address",
          "name": "",
          "type": "address"
        },
        {
          "internalType": "address",
          "name": "",
          "type": "address"
        }
      ],
      "name": "tknsToPool",
      "outputs": [
        {
          "internalType": "address",
          "name": "",
          "type": "address"
        }
      ],
      "stateMutability": "view",
      "type": "function"
    },
    {
      "inputs": [
        {
          "internalType": "address",
          "name": "newOwner",
          "type": "address"
        }
      ],
      "name": "transferOwnership",
      "outputs": [],
      "stateMutability": "nonpayable",
      "type": "function"
    },
    {
      "stateMutability": "payable",
      "type": "receive"
    }
  ],
  "bytecode": {
    "object": "0x60806040523480156200001157600080fd5b506040516200251f3803806200251f8339810160408190526200003491620005f4565b82813362000044600082620000a0565b620000707f339759585899103d2ace64958e37e18ccb0504652c81d4a1b8aa80fe2126ab9582620000a0565b506200007c82620000b0565b620000878162000115565b5062000097905082600162000236565b50505062000896565b620000ac828262000289565b5050565b8051600003620001075760405162461bcd60e51b815260206004820152601460248201527f496e76616c69642061646170746572206e616d6500000000000000000000000060448201526064015b60405180910390fd5b6002620000ac828262000767565b3360008181527fa54247010af6b3693b80aceddfad12e077c5de3571e6243fada502635f0d7d39602052604090205460ff16620001a65760405162461bcd60e51b815260206004820152602860248201527f4d61696e7461696e61626c653a2043616c6c6572206973206e6f742061206d6160448201526734b73a30b4b732b960c11b6064820152608401620000fe565b81600003620001f85760405162461bcd60e51b815260206004820152601460248201527f496e76616c6964206761732d657374696d6174650000000000000000000000006044820152606401620000fe565b600182905560405182815230907ff43f23b7a28e6f8ce6843a21bd7b48bce778aa913b8c8cf459edf7d770e8d38a9060200160405180910390a25050565b60005b82518110156200028457620002718382815181106200025c576200025c62000833565b6020026020010151836200032960201b60201c565b6200027c8162000849565b905062000239565b505050565b6000828152602081815260408083206001600160a01b038516845290915290205460ff16620000ac576000828152602081815260408083206001600160a01b03851684529091529020805460ff19166001179055620002e53390565b6001600160a01b0316816001600160a01b0316837f2f8788117e7eff1d82e926ec794901d17c78024a50270940304540a733656f0d60405160405180910390a45050565b60008062000337846200038c565b91509150826200034e576200034e82828662000462565b6001600160a01b0391821660009081526003602090815260408083209385168352929052208054919093166001600160a01b03199091161790915550565b600080826001600160a01b0316634a248d2a6040518163ffffffff1660e01b8152600401602060405180830381865afa158015620003ce573d6000803e3d6000fd5b505050506040513d601f19601f82011682018060405250810190620003f4919062000871565b9150826001600160a01b031663d4b970466040518163ffffffff1660e01b8152600401602060405180830381865afa15801562000435573d6000803e3d6000fd5b505050506040513d601f19601f820116820180604052508101906200045b919062000871565b9050915091565b6001600160a01b038084166000908152600360209081526040808320868516845290915290205416801580620004a95750816001600160a01b0316816001600160a01b0316145b620004f75760405162461bcd60e51b815260206004820152601860248201527f4e6f7420616c6c6f77656420746f206f766572777269746500000000000000006044820152606401620000fe565b50505050565b634e487b7160e01b600052604160045260246000fd5b604051601f8201601f191681016001600160401b03811182821017156200053e576200053e620004fd565b604052919050565b80516001600160a01b03811681146200055e57600080fd5b919050565b600082601f8301126200057557600080fd5b815160206001600160401b03821115620005935762000593620004fd565b8160051b620005a482820162000513565b9283528481018201928281019087851115620005bf57600080fd5b83870192505b84831015620005e957620005d98362000546565b82529183019190830190620005c5565b979650505050505050565b6000806000606084860312156200060a57600080fd5b83516001600160401b03808211156200062257600080fd5b818601915086601f8301126200063757600080fd5b8151818111156200064c576200064c620004fd565b602062000662601f8301601f1916820162000513565b82815289828487010111156200067757600080fd5b60005b83811015620006975785810183015182820184015282016200067a565b506000928101820192909252870151909550915080821115620006b957600080fd5b50620006c88682870162000563565b925050604084015190509250925092565b600181811c90821680620006ee57607f821691505b6020821081036200070f57634e487b7160e01b600052602260045260246000fd5b50919050565b601f8211156200028457600081815260208120601f850160051c810160208610156200073e5750805b601f850160051c820191505b818110156200075f578281556001016200074a565b505050505050565b81516001600160401b03811115620007835762000783620004fd565b6200079b81620007948454620006d9565b8462000715565b602080601f831160018114620007d35760008415620007ba5750858301515b600019600386901b1c1916600185901b1785556200075f565b600085815260208120601f198616915b828110156200080457888601518255948401946001909101908401620007e3565b5085821015620008235787850151600019600388901b60f8161c191681555b5050505050600190811b01905550565b634e487b7160e01b600052603260045260246000fd5b6000600182016200086a57634e487b7160e01b600052601160045260246000fd5b5060010190565b6000602082840312156200088457600080fd5b6200088f8262000546565b9392505050565b611c7980620008a66000396000f3fe6080604052600436106101445760003560e01c806384a33e63116100b6578063d547741f1161006f578063d547741f146103cb578063d8baf7cf146103eb578063eab90da61461040b578063ef99893a1461042b578063f2fde38b1461044b578063f87422541461046b57600080fd5b806384a33e63146103165780638980f11f146103365780638bb9c5bf1461035657806391d1485414610376578063a217fddf14610396578063a746e4b2146103ab57600080fd5b806349e38f321161010857806349e38f32146102275780634ebb79161461024757806369cff80d146102675780636b453c1f1461027d57806372d52c0b1461029d5780637ae26773146102f657600080fd5b806301ffc9a71461015057806306fdde0314610185578063248a9ca3146101a75780632f2ff15d146101e557806336568abe1461020757600080fd5b3661014b57005b600080fd5b34801561015c57600080fd5b5061017061016b3660046116de565b61048d565b60405190151581526020015b60405180910390f35b34801561019157600080fd5b5061019a6104c4565b60405161017c919061172c565b3480156101b357600080fd5b506101d76101c236600461175f565b60009081526020819052604090206001015490565b60405190815260200161017c565b3480156101f157600080fd5b5061020561020036600461179d565b610552565b005b34801561021357600080fd5b5061020561022236600461179d565b61057c565b34801561023357600080fd5b50610205610242366004611888565b6105ff565b34801561025357600080fd5b5061020561026236600461175f565b61063e565b34801561027357600080fd5b506101d760015481565b34801561028957600080fd5b506102056102983660046118cf565b61072c565b3480156102a957600080fd5b506102de6102b83660046118ec565b60036020908152600092835260408084209091529082529020546001600160a01b031681565b6040516001600160a01b03909116815260200161017c565b34801561030257600080fd5b506102056103113660046118ec565b610747565b34801561032257600080fd5b5061020561033136600461175f565b610791565b34801561034257600080fd5b5061020561035136600461191a565b610844565b34801561036257600080fd5b5061020561037136600461175f565b610925565b34801561038257600080fd5b5061017061039136600461179d565b610930565b3480156103a257600080fd5b506101d7600081565b3480156103b757600080fd5b506102056103c6366004611946565b610959565b3480156103d757600080fd5b506102056103e636600461179d565b610a07565b3480156103f757600080fd5b506102056104063660046118cf565b610a2c565b34801561041757600080fd5b50610205610426366004611983565b610a44565b34801561043757600080fd5b506101d76104463660046119e2565b610be5565b34801561045757600080fd5b506102056104663660046118cf565b610bfc565b34801561047757600080fd5b506101d7600080516020611c2483398151915281565b60006001600160e01b03198216637965db0b60e01b14806104be57506301ffc9a760e01b6001600160e01b03198316145b92915050565b600280546104d190611a24565b80601f01602080910402602001604051908101604052809291908181526020018280546104fd90611a24565b801561054a5780601f1061051f5761010080835404028352916020019161054a565b820191906000526020600020905b81548152906001019060200180831161052d57829003601f168201915b505050505081565b60008281526020819052604090206001015461056d81610c13565b6105778383610c1d565b505050565b6001600160a01b03811633146105f15760405162461bcd60e51b815260206004820152602f60248201527f416363657373436f6e74726f6c3a2063616e206f6e6c792072656e6f756e636560448201526e103937b632b9903337b91039b2b63360891b60648201526084015b60405180910390fd5b6105fb8282610ca1565b5050565b33610618600080516020611c2483398151915282610930565b6106345760405162461bcd60e51b81526004016105e890611a5e565b6105778383610d06565b33610657600080516020611c2483398151915282610930565b6106735760405162461bcd60e51b81526004016105e890611a5e565b600082116106c35760405162461bcd60e51b815260206004820152601e60248201527f59616b416461707465723a204e6f7468696e6720746f207265636f766572000060448201526064016105e8565b604051339083156108fc029084906000818181858888f193505050501580156106f0573d6000803e3d6000fd5b506040518281526000907f8c1256b8896378cd5044f80c202f9772b9d77dc85c8a6eb51967210b09bfaa28906020015b60405180910390a25050565b610744600080516020611c2483398151915282610552565b50565b33610760600080516020611c2483398151915282610930565b61077c5760405162461bcd60e51b81526004016105e890611a5e565b6105776001600160a01b038416836000610d45565b336107aa600080516020611c2483398151915282610930565b6107c65760405162461bcd60e51b81526004016105e890611a5e565b8160000361080d5760405162461bcd60e51b8152602060048201526014602482015273496e76616c6964206761732d657374696d61746560601b60448201526064016105e8565b600182905560405182815230907ff43f23b7a28e6f8ce6843a21bd7b48bce778aa913b8c8cf459edf7d770e8d38a90602001610720565b3361085d600080516020611c2483398151915282610930565b6108795760405162461bcd60e51b81526004016105e890611a5e565b600082116108c95760405162461bcd60e51b815260206004820152601e60248201527f59616b416461707465723a204e6f7468696e6720746f207265636f766572000060448201526064016105e8565b6108dd6001600160a01b0384163384610e8d565b826001600160a01b03167f8c1256b8896378cd5044f80c202f9772b9d77dc85c8a6eb51967210b09bfaa288360405161091891815260200190565b60405180910390a2505050565b336105fb828261057c565b6000918252602082815260408084206001600160a01b0393909316845291905290205460ff1690565b33610972600080516020611c2483398151915282610930565b61098e5760405162461bcd60e51b81526004016105e890611a5e565b60005b8251811015610577576000806109bf8584815181106109b2576109b2611aa6565b6020026020010151610ebd565b6001600160a01b039182166000908152600360209081526040808320939094168252919091522080546001600160a01b031916905550610a00905081611ad2565b9050610991565b600082815260208190526040902060010154610a2281610c13565b6105778383610ca1565b610744600080516020611c2483398151915282610a07565b6040516370a0823160e01b81526001600160a01b038281166004830152600091908416906370a0823190602401602060405180830381865afa158015610a8e573d6000803e3d6000fd5b505050506040513d601f19601f82011682018060405250810190610ab29190611aeb565b9050610ac18686868686610f8d565b6040516370a0823160e01b81526001600160a01b03838116600483015260009183918616906370a0823190602401602060405180830381865afa158015610b0c573d6000803e3d6000fd5b505050506040513d601f19601f82011682018060405250810190610b309190611aeb565b610b3a9190611b04565b905085811015610b865760405162461bcd60e51b8152602060048201526017602482015276125b9cdd59999a58da595b9d08185b5bdd5b9d0b5bdd5d604a1b60448201526064016105e8565b836001600160a01b0316856001600160a01b03167fe2bdbc6b7225eb0a972ac943c485a6cc05f7c6811838bce8903f23200fb744fa8989604051610bd4929190918252602082015260400190565b60405180910390a350505050505050565b6000610bf2848484610ff9565b90505b9392505050565b33610c08600083610552565b6105fb60008261057c565b610744813361111b565b610c278282610930565b6105fb576000828152602081815260408083206001600160a01b03851684529091529020805460ff19166001179055610c5d3390565b6001600160a01b0316816001600160a01b0316837f2f8788117e7eff1d82e926ec794901d17c78024a50270940304540a733656f0d60405160405180910390a45050565b610cab8282610930565b156105fb576000828152602081815260408083206001600160a01b0385168085529252808320805460ff1916905551339285917ff6391f5c32d9c69d2a47ea670b442974b53935d1edc7fd64eb21e047a839171b9190a45050565b60005b825181101561057757610d35838281518110610d2757610d27611aa6565b60200260200101518361117f565b610d3e81611ad2565b9050610d09565b801580610dbf5750604051636eb1769f60e11b81523060048201526001600160a01b03838116602483015284169063dd62ed3e90604401602060405180830381865afa158015610d99573d6000803e3d6000fd5b505050506040513d601f19601f82011682018060405250810190610dbd9190611aeb565b155b610e2a5760405162461bcd60e51b815260206004820152603660248201527f5361666545524332303a20617070726f76652066726f6d206e6f6e2d7a65726f60448201527520746f206e6f6e2d7a65726f20616c6c6f77616e636560501b60648201526084016105e8565b6040516001600160a01b03831660248201526044810182905261057790849063095ea7b360e01b906064015b60408051601f198184030181529190526020810180516001600160e01b03166001600160e01b0319909316929092179091526111dd565b6040516001600160a01b03831660248201526044810182905261057790849063a9059cbb60e01b90606401610e56565b600080826001600160a01b0316634a248d2a6040518163ffffffff1660e01b8152600401602060405180830381865afa158015610efe573d6000803e3d6000fd5b505050506040513d601f19601f82011682018060405250810190610f229190611b17565b9150826001600160a01b031663d4b970466040518163ffffffff1660e01b8152600401602060405180830381865afa158015610f62573d6000803e3d6000fd5b505050506040513d601f19601f82011682018060405250810190610f869190611b17565b9050915091565b6000610f9a86858561130c565b905084811015610fe65760405162461bcd60e51b8152602060048201526017602482015276125b9cdd59999a58da595b9d08185b5bdd5b9d0b5bdd5d604a1b60448201526064016105e8565b610ff18382846113a6565b505050505050565b60008360000361100b57506000610bf5565b6001600160a01b03808416600090815260036020908152604080832086851684529091529020541680156110b157604051633cd0243b60e11b8152306004820152602481018690526001600160a01b038216906379a04876906044015b602060405180830381865afa158015611085573d6000803e3d6000fd5b505050506040513d601f19601f820116820180604052508101906110a99190611aeb565b915050610bf5565b506001600160a01b0380831660009081526003602090815260408083208785168452909152902054168015611113576040516366410a2160e01b8152306004820152602481018690526001600160a01b038216906366410a2190604401611068565b509392505050565b6111258282610930565b6105fb5761113d816001600160a01b031660146113ca565b6111488360206113ca565b604051602001611159929190611b34565b60408051601f198184030181529082905262461bcd60e51b82526105e89160040161172c565b60008061118b84610ebd565b915091508261119f5761119f828286611566565b6001600160a01b0391821660009081526003602090815260408083209385168352929052208054919093166001600160a01b03199091161790915550565b600080836001600160a01b0316836040516111f89190611ba9565b6000604051808303816000865af19150503d8060008114611235576040519150601f19603f3d011682016040523d82523d6000602084013e61123a565b606091505b50915091508161128c5760405162461bcd60e51b815260206004820181905260248201527f5361666545524332303a206c6f772d6c6576656c2063616c6c206661696c656460448201526064016105e8565b80511561130657808060200190518101906112a79190611bc5565b6113065760405162461bcd60e51b815260206004820152602a60248201527f5361666545524332303a204552433230206f7065726174696f6e20646964206e6044820152691bdd081cdd58d8d9595960b21b60648201526084016105e8565b50505050565b60008060008061131c86866115f8565b919450925090506113376001600160a01b0387168289610e8d565b6040516001600160e01b031960e084901b168152306004820152839083906024016020604051808303816000875af1158015611377573d6000803e3d6000fd5b505050506040513d601f19601f8201168201806040525081019061139b9190611aeb565b979650505050505050565b306001600160a01b03821614610577576105776001600160a01b0384168284610e8d565b606060006113d9836002611be2565b6113e4906002611bf9565b67ffffffffffffffff8111156113fc576113fc6117cd565b6040519080825280601f01601f191660200182016040528015611426576020820181803683370190505b509050600360fc1b8160008151811061144157611441611aa6565b60200101906001600160f81b031916908160001a905350600f60fb1b8160018151811061147057611470611aa6565b60200101906001600160f81b031916908160001a9053506000611494846002611be2565b61149f906001611bf9565b90505b6001811115611517576f181899199a1a9b1b9c1cb0b131b232b360811b85600f16601081106114d3576114d3611aa6565b1a60f81b8282815181106114e9576114e9611aa6565b60200101906001600160f81b031916908160001a90535060049490941c9361151081611c0c565b90506114a2565b508315610bf55760405162461bcd60e51b815260206004820181905260248201527f537472696e67733a20686578206c656e67746820696e73756666696369656e7460448201526064016105e8565b6001600160a01b0380841660009081526003602090815260408083208685168452909152902054168015806115ac5750816001600160a01b0316816001600160a01b0316145b6113065760405162461bcd60e51b815260206004820152601860248201527f4e6f7420616c6c6f77656420746f206f7665727772697465000000000000000060448201526064016105e8565b6001600160a01b0380831660009081526003602090815260408083208585168452909152812054909182918291168015611646576001600160a01b038116935063bd6015b4925090506116d7565b506001600160a01b038085166000908152600360209081526040808320898516845290915290205416801561168f576001600160a01b038116935063dd93f59a925090506116d7565b60405162461bcd60e51b815260206004820152601860248201527f546f6b656e2070616972206e6f7420737570706f72746564000000000000000060448201526064016105e8565b9250925092565b6000602082840312156116f057600080fd5b81356001600160e01b031981168114610bf557600080fd5b60005b8381101561172357818101518382015260200161170b565b50506000910152565b602081526000825180602084015261174b816040850160208701611708565b601f01601f19169190910160400192915050565b60006020828403121561177157600080fd5b5035919050565b6001600160a01b038116811461074457600080fd5b803561179881611778565b919050565b600080604083850312156117b057600080fd5b8235915060208301356117c281611778565b809150509250929050565b634e487b7160e01b600052604160045260246000fd5b600082601f8301126117f457600080fd5b8135602067ffffffffffffffff80831115611811576118116117cd565b8260051b604051601f19603f83011681018181108482111715611836576118366117cd565b60405293845285810183019383810192508785111561185457600080fd5b83870191505b8482101561139b5761186b8261178d565b8352918301919083019061185a565b801515811461074457600080fd5b6000806040838503121561189b57600080fd5b823567ffffffffffffffff8111156118b257600080fd5b6118be858286016117e3565b92505060208301356117c28161187a565b6000602082840312156118e157600080fd5b8135610bf581611778565b600080604083850312156118ff57600080fd5b823561190a81611778565b915060208301356117c281611778565b6000806040838503121561192d57600080fd5b823561193881611778565b946020939093013593505050565b60006020828403121561195857600080fd5b813567ffffffffffffffff81111561196f57600080fd5b61197b848285016117e3565b949350505050565b600080600080600060a0868803121561199b57600080fd5b853594506020860135935060408601356119b481611778565b925060608601356119c481611778565b915060808601356119d481611778565b809150509295509295909350565b6000806000606084860312156119f757600080fd5b833592506020840135611a0981611778565b91506040840135611a1981611778565b809150509250925092565b600181811c90821680611a3857607f821691505b602082108103611a5857634e487b7160e01b600052602260045260246000fd5b50919050565b60208082526028908201527f4d61696e7461696e61626c653a2043616c6c6572206973206e6f742061206d6160408201526734b73a30b4b732b960c11b606082015260800190565b634e487b7160e01b600052603260045260246000fd5b634e487b7160e01b600052601160045260246000fd5b600060018201611ae457611ae4611abc565b5060010190565b600060208284031215611afd57600080fd5b5051919050565b818103818111156104be576104be611abc565b600060208284031215611b2957600080fd5b8151610bf581611778565b7f416363657373436f6e74726f6c3a206163636f756e7420000000000000000000815260008351611b6c816017850160208801611708565b7001034b99036b4b9b9b4b733903937b6329607d1b6017918401918201528351611b9d816028840160208801611708565b01602801949350505050565b60008251611bbb818460208701611708565b9190910192915050565b600060208284031215611bd757600080fd5b8151610bf58161187a565b80820281158282048414176104be576104be611abc565b808201808211156104be576104be611abc565b600081611c1b57611c1b611abc565b50600019019056fe339759585899103d2ace64958e37e18ccb0504652c81d4a1b8aa80fe2126ab95a26469706673582212203b0461b51665098aa922502c37ef29c084668bba9ba8b32090ed7730320c419764736f6c63430008110033",
    "linkReferences": {}
  },
  "methodIdentifiers": {
    "DEFAULT_ADMIN_ROLE()": "a217fddf",
    "MAINTAINER_ROLE()": "f8742254",
    "_rmPools(address[])": "a746e4b2",
    "addMaintainer(address)": "6b453c1f",
    "getRoleAdmin(bytes32)": "248a9ca3",
    "grantRole(bytes32,address)": "2f2ff15d",
    "hasRole(bytes32,address)": "91d14854",
    "name()": "06fdde03",
    "query(uint256,address,address)": "ef99893a",
    "recoverAVAX(uint256)": "4ebb7916",
    "recoverERC20(address,uint256)": "8980f11f",
    "removeMaintainer(address)": "d8baf7cf",
    "renounceRole(bytes32)": "8bb9c5bf",
    "renounceRole(bytes32,address)": "36568abe",
    "revokeAllowance(address,address)": "7ae26773",
    "revokeRole(bytes32,address)": "d547741f",
    "setPools(address[],bool)": "49e38f32",
    "setSwapGasEstimate(uint256)": "84a33e63",
    "supportsInterface(bytes4)": "01ffc9a7",
    "swap(uint256,uint256,address,address,address)": "eab90da6",
    "swapGasEstimate()": "69cff80d",
    "tknsToPool(address,address)": "72d52c0b",
    "transferOwnership(address)": "f2fde38b"
  },
  "id": 25
}