{
  "abi": [
    {
      "inputs": [
        {
          "internalType": "string",
          "name": "_name",
          "type": "string"
        },
        {
          "internalType": "address[]",
          "name": "_pools",
          "type": "address[]"
        },
        {
          "internalType": "uint256",
          "name": "_swapGasEstimate",
          "type": "uint256"
        }
      ],
      "stateMutability": "nonpayable",
      "type": "constructor"
    },
    {
      "anonymous": false,
      "inputs": [
        {
          "indexed": true,
          "internalType": "address",
          "name": "_asset",
          "type": "address"
        },
        {
          "indexed": false,
          "internalType": "uint256",
          "name": "amount",
          "type": "uint256"
        }
      ],
      "name": "Recovered",
      "type": "event"
    },
    {
      "anonymous": false,
      "inputs": [
        {
          "indexed": true,
          "internalType": "bytes32",
          "name": "role",
          "type": "bytes32"
        },
        {
          "indexed": true,
          "internalType": "bytes32",
          "name": "previousAdminRole",
          "type": "bytes32"
        },
        {
          "indexed": true,
          "internalType": "bytes32",
          "name": "newAdminRole",
          "type": "bytes32"
        }
      ],
      "name": "RoleAdminChanged",
      "type": "event"
    },
    {
      "anonymous": false,
      "inputs": [
        {
          "indexed": true,
          "internalType": "bytes32",
          "name": "role",
          "type": "bytes32"
        },
        {
          "indexed": true,
          "internalType": "address",
          "name": "account",
          "type": "address"
        },
        {
          "indexed": true,
          "internalType": "address",
          "name": "sender",
          "type": "address"
        }
      ],
      "name": "RoleGranted",
      "type": "event"
    },
    {
      "anonymous": false,
      "inputs": [
        {
          "indexed": true,
          "internalType": "bytes32",
          "name": "role",
          "type": "bytes32"
        },
        {
          "indexed": true,
          "internalType": "address",
          "name": "account",
          "type": "address"
        },
        {
          "indexed": true,
          "internalType": "address",
          "name": "sender",
          "type": "address"
        }
      ],
      "name": "RoleRevoked",
      "type": "event"
    },
    {
      "anonymous": false,
      "inputs": [
        {
          "indexed": true,
          "internalType": "address",
          "name": "_adapter",
          "type": "address"
        },
        {
          "indexed": false,
          "internalType": "uint256",
          "name": "_newEstimate",
          "type": "uint256"
        }
      ],
      "name": "UpdatedGasEstimate",
      "type": "event"
    },
    {
      "anonymous": false,
      "inputs": [
        {
          "indexed": true,
          "internalType": "address",
          "name": "_tokenFrom",
          "type": "address"
        },
        {
          "indexed": true,
          "internalType": "address",
          "name": "_tokenTo",
          "type": "address"
        },
        {
          "indexed": false,
          "internalType": "uint256",
          "name": "_amountIn",
          "type": "uint256"
        },
        {
          "indexed": false,
          "internalType": "uint256",
          "name": "_amountOut",
          "type": "uint256"
        }
      ],
      "name": "YakAdapterSwap",
      "type": "event"
    },
    {
      "inputs": [],
      "name": "DEFAULT_ADMIN_ROLE",
      "outputs": [
        {
          "internalType": "bytes32",
          "name": "",
          "type": "bytes32"
        }
      ],
      "stateMutability": "view",
      "type": "function"
    },
    {
      "inputs": [],
      "name": "MAINTAINER_ROLE",
      "outputs": [
        {
          "internalType": "bytes32",
          "name": "",
          "type": "bytes32"
        }
      ],
      "stateMutability": "view",
      "type": "function"
    },
    {
      "inputs": [
        {
          "internalType": "address",
          "name": "addedMaintainer",
          "type": "address"
        }
      ],
      "name": "addMaintainer",
      "outputs": [],
      "stateMutability": "nonpayable",
      "type": "function"
    },
    {
      "inputs": [
        {
          "internalType": "address",
          "name": "tkn0",
          "type": "address"
        },
        {
          "internalType": "address",
          "name": "tkn1",
          "type": "address"
        }
      ],
      "name": "getPool",
      "outputs": [
        {
          "internalType": "address",
          "name": "",
          "type": "address"
        }
      ],
      "stateMutability": "view",
      "type": "function"
    },
    {
      "inputs": [
        {
          "internalType": "bytes32",
          "name": "role",
          "type": "bytes32"
        }
      ],
      "name": "getRoleAdmin",
      "outputs": [
        {
          "internalType": "bytes32",
          "name": "",
          "type": "bytes32"
        }
      ],
      "stateMutability": "view",
      "type": "function"
    },
    {
      "inputs": [
        {
          "internalType": "bytes32",
          "name": "role",
          "type": "bytes32"
        },
        {
          "internalType": "address",
          "name": "account",
          "type": "address"
        }
      ],
      "name": "grantRole",
      "outputs": [],
      "stateMutability": "nonpayable",
      "type": "function"
    },
    {
      "inputs": [
        {
          "internalType": "bytes32",
          "name": "role",
          "type": "bytes32"
        },
        {
          "internalType": "address",
          "name": "account",
          "type": "address"
        }
      ],
      "name": "hasRole",
      "outputs": [
        {
          "internalType": "bool",
          "name": "",
          "type": "bool"
        }
      ],
      "stateMutability": "view",
      "type": "function"
    },
    {
      "inputs": [],
      "name": "name",
      "outputs": [
        {
          "internalType": "string",
          "name": "",
          "type": "string"
        }
      ],
      "stateMutability": "view",
      "type": "function"
    },
    {
      "inputs": [
        {
          "internalType": "address",
          "name": "",
          "type": "address"
        },
        {
          "internalType": "address",
          "name": "",
          "type": "address"
        }
      ],
      "name": "poolForTokens",
      "outputs": [
        {
          "internalType": "address",
          "name": "",
          "type": "address"
        }
      ],
      "stateMutability": "view",
      "type": "function"
    },
    {
      "inputs": [
        {
          "internalType": "uint256",
          "name": "_amountIn",
          "type": "uint256"
        },
        {
          "internalType": "address",
          "name": "_tokenIn",
          "type": "address"
        },
        {
          "internalType": "address",
          "name": "_tokenOut",
          "type": "address"
        }
      ],
      "name": "query",
      "outputs": [
        {
          "internalType": "uint256",
          "name": "",
          "type": "uint256"
        }
      ],
      "stateMutability": "view",
      "type": "function"
    },
    {
      "inputs": [
        {
          "internalType": "uint256",
          "name": "_amount",
          "type": "uint256"
        }
      ],
      "name": "recoverAVAX",
      "outputs": [],
      "stateMutability": "nonpayable",
      "type": "function"
    },
    {
      "inputs": [
        {
          "internalType": "address",
          "name": "_tokenAddress",
          "type": "address"
        },
        {
          "internalType": "uint256",
          "name": "_tokenAmount",
          "type": "uint256"
        }
      ],
      "name": "recoverERC20",
      "outputs": [],
      "stateMutability": "nonpayable",
      "type": "function"
    },
    {
      "inputs": [
        {
          "internalType": "address",
          "name": "removedMaintainer",
          "type": "address"
        }
      ],
      "name": "removeMaintainer",
      "outputs": [],
      "stateMutability": "nonpayable",
      "type": "function"
    },
    {
      "inputs": [
        {
          "internalType": "bytes32",
          "name": "role",
          "type": "bytes32"
        },
        {
          "internalType": "address",
          "name": "account",
          "type": "address"
        }
      ],
      "name": "renounceRole",
      "outputs": [],
      "stateMutability": "nonpayable",
      "type": "function"
    },
    {
      "inputs": [
        {
          "internalType": "bytes32",
          "name": "role",
          "type": "bytes32"
        }
      ],
      "name": "renounceRole",
      "outputs": [],
      "stateMutability": "nonpayable",
      "type": "function"
    },
    {
      "inputs": [
        {
          "internalType": "address",
          "name": "_token",
          "type": "address"
        },
        {
          "internalType": "address",
          "name": "_spender",
          "type": "address"
        }
      ],
      "name": "revokeAllowance",
      "outputs": [],
      "stateMutability": "nonpayable",
      "type": "function"
    },
    {
      "inputs": [
        {
          "internalType": "bytes32",
          "name": "role",
          "type": "bytes32"
        },
        {
          "internalType": "address",
          "name": "account",
          "type": "address"
        }
      ],
      "name": "revokeRole",
      "outputs": [],
      "stateMutability": "nonpayable",
      "type": "function"
    },
    {
      "inputs": [
        {
          "internalType": "address[]",
          "name": "_pools",
          "type": "address[]"
        }
      ],
      "name": "rmPools",
      "outputs": [],
      "stateMutability": "nonpayable",
      "type": "function"
    },
    {
      "inputs": [
        {
          "internalType": "address[]",
          "name": "_pools",
          "type": "address[]"
        }
      ],
      "name": "setPools",
      "outputs": [],
      "stateMutability": "nonpayable",
      "type": "function"
    },
    {
      "inputs": [
        {
          "internalType": "uint256",
          "name": "_estimate",
          "type": "uint256"
        }
      ],
      "name": "setSwapGasEstimate",
      "outputs": [],
      "stateMutability": "nonpayable",
      "type": "function"
    },
    {
      "inputs": [
        {
          "internalType": "bytes4",
          "name": "interfaceId",
          "type": "bytes4"
        }
      ],
      "name": "supportsInterface",
      "outputs": [
        {
          "internalType": "bool",
          "name": "",
          "type": "bool"
        }
      ],
      "stateMutability": "view",
      "type": "function"
    },
    {
      "inputs": [
        {
          "internalType": "uint256",
          "name": "_amountIn",
          "type": "uint256"
        },
        {
          "internalType": "uint256",
          "name": "_amountOut",
          "type": "uint256"
        },
        {
          "internalType": "address",
          "name": "_fromToken",
          "type": "address"
        },
        {
          "internalType": "address",
          "name": "_toToken",
          "type": "address"
        },
        {
          "internalType": "address",
          "name": "_to",
          "type": "address"
        }
      ],
      "name": "swap",
      "outputs": [],
      "stateMutability": "nonpayable",
      "type": "function"
    },
    {
      "inputs": [],
      "name": "swapGasEstimate",
      "outputs": [
        {
          "internalType": "uint256",
          "name": "",
          "type": "uint256"
        }
      ],
      "stateMutability": "view",
      "type": "function"
    },
    {
      "inputs": [
        {
          "internalType": "address",
          "name": "",
          "type": "address"
        },
        {
          "internalType": "address",
          "name": "",
          "type": "address"
        }
      ],
      "name": "tokenIndexForPool",
      "outputs": [
        {
          "internalType": "int128",
          "name": "",
          "type": "int128"
        }
      ],
      "stateMutability": "view",
      "type": "function"
    },
    {
      "inputs": [
        {
          "internalType": "address",
          "name": "newOwner",
          "type": "address"
        }
      ],
      "name": "transferOwnership",
      "outputs": [],
      "stateMutability": "nonpayable",
      "type": "function"
    },
    {
      "stateMutability": "payable",
      "type": "receive"
    }
  ],
  "bytecode": {
    "object": "0x60806040523480156200001157600080fd5b5060405162002a9338038062002a938339810160408190526200003491620009ac565b828133620000446000826200008d565b6200005f60008051602062002a53833981519152826200008d565b506200006b826200009d565b620000768162000102565b5062000084905082620001fc565b50505062000cce565b620000998282620002b8565b5050565b8051600003620000f45760405162461bcd60e51b815260206004820152601460248201527f496e76616c69642061646170746572206e616d6500000000000000000000000060448201526064015b60405180910390fd5b600262000099828262000b09565b336200011e60008051602062002a538339815191528262000340565b6200016c5760405162461bcd60e51b8152602060048201526028602482015260008051602062002a7383398151915260448201526734b73a30b4b732b960c11b6064820152608401620000eb565b81600003620001be5760405162461bcd60e51b815260206004820152601460248201527f496e76616c6964206761732d657374696d6174650000000000000000000000006044820152606401620000eb565b600182905560405182815230907ff43f23b7a28e6f8ce6843a21bd7b48bce778aa913b8c8cf459edf7d770e8d38a9060200160405180910390a25050565b336200021860008051602062002a538339815191528262000340565b620002665760405162461bcd60e51b8152602060048201526028602482015260008051602062002a7383398151915260448201526734b73a30b4b732b960c11b6064820152608401620000eb565b60005b8251811015620002b357620002a08382815181106200028c576200028c62000bd5565b60200260200101516200036b60201b60201c565b620002ab8162000c01565b905062000269565b505050565b620002c4828262000340565b62000099576000828152602081815260408083206001600160a01b03851684529091529020805460ff19166001179055620002fc3390565b6001600160a01b0316816001600160a01b0316837f2f8788117e7eff1d82e926ec794901d17c78024a50270940304540a733656f0d60405160405180910390a45050565b6000828152602081815260408083206001600160a01b038516845290915290205460ff165b92915050565b6000806200037983620003f5565b91509150620003a483600019846001600160a01b0316620004dc60201b62000cd0179092919060201c565b60005b6000620003b5838362000626565b90506001600160a01b038116620003cd5750620003ef565b620003db858583856200069b565b50620003e78162000c01565b9050620003a7565b50505050565b60405163c661065760e01b81526000600482018190529081906001600160a01b0384169063c661065790602401602060405180830381865afa15801562000440573d6000803e3d6000fd5b505050506040513d601f19601f8201168201806040525081019062000466919062000c1d565b60405163c661065760e01b8152600160048201529092506001600160a01b0384169063c661065790602401602060405180830381865afa158015620004af573d6000803e3d6000fd5b505050506040513d601f19601f82011682018060405250810190620004d5919062000c1d565b9050915091565b8015806200055a5750604051636eb1769f60e11b81523060048201526001600160a01b03838116602483015284169063dd62ed3e90604401602060405180830381865afa15801562000532573d6000803e3d6000fd5b505050506040513d601f19601f8201168201806040525081019062000558919062000c42565b155b620005ce5760405162461bcd60e51b815260206004820152603660248201527f5361666545524332303a20617070726f76652066726f6d206e6f6e2d7a65726f60448201527f20746f206e6f6e2d7a65726f20616c6c6f77616e6365000000000000000000006064820152608401620000eb565b604080516001600160a01b038416602482015260448082018490528251808303909101815260649091019091526020810180516001600160e01b0390811663095ea7b360e01b17909152620002b39185916200075b16565b60405163c661065760e01b8152600481018290526000906001600160a01b0384169063c661065790602401602060405180830381865afa9250505080156200068d575060408051601f3d908101601f191682019092526200068a9181019062000c1d565b60015b156200036557905062000365565b620006c284600019846001600160a01b0316620004dc60201b62000cd0179092919060201c565b620006cf81600162000c5c565b6001600160a01b03948516600081815260036020908152604080832096891680845296825280832080546001600160801b0319166001600160801b039690961695909517909455600480825284832097909816825295865282812080546001600160a01b0319908116841790915596865282812094815293909452909120805490931690911790915550565b600080836001600160a01b03168360405162000778919062000c8c565b6000604051808303816000865af19150503d8060008114620007b7576040519150601f19603f3d011682016040523d82523d6000602084013e620007bc565b606091505b509150915081620008105760405162461bcd60e51b815260206004820181905260248201527f5361666545524332303a206c6f772d6c6576656c2063616c6c206661696c65646044820152606401620000eb565b805115620003ef57808060200190518101906200082e919062000caa565b620003ef5760405162461bcd60e51b815260206004820152602a60248201527f5361666545524332303a204552433230206f7065726174696f6e20646964206e6044820152691bdd081cdd58d8d9595960b21b6064820152608401620000eb565b634e487b7160e01b600052604160045260246000fd5b604051601f8201601f191681016001600160401b0381118282101715620008d057620008d06200088f565b604052919050565b60005b83811015620008f5578181015183820152602001620008db565b50506000910152565b80516001600160a01b03811681146200091657600080fd5b919050565b600082601f8301126200092d57600080fd5b815160206001600160401b038211156200094b576200094b6200088f565b8160051b6200095c828201620008a5565b92835284810182019282810190878511156200097757600080fd5b83870192505b84831015620009a1576200099183620008fe565b825291830191908301906200097d565b979650505050505050565b600080600060608486031215620009c257600080fd5b83516001600160401b0380821115620009da57600080fd5b818601915086601f830112620009ef57600080fd5b81518181111562000a045762000a046200088f565b62000a19601f8201601f1916602001620008a5565b81815288602083860101111562000a2f57600080fd5b62000a42826020830160208701620008d8565b60208801519096509250508082111562000a5b57600080fd5b5062000a6a868287016200091b565b925050604084015190509250925092565b600181811c9082168062000a9057607f821691505b60208210810362000ab157634e487b7160e01b600052602260045260246000fd5b50919050565b601f821115620002b357600081815260208120601f850160051c8101602086101562000ae05750805b601f850160051c820191505b8181101562000b015782815560010162000aec565b505050505050565b81516001600160401b0381111562000b255762000b256200088f565b62000b3d8162000b36845462000a7b565b8462000ab7565b602080601f83116001811462000b75576000841562000b5c5750858301515b600019600386901b1c1916600185901b17855562000b01565b600085815260208120601f198616915b8281101562000ba65788860151825594840194600190910190840162000b85565b508582101562000bc55787850151600019600388901b60f8161c191681555b5050505050600190811b01905550565b634e487b7160e01b600052603260045260246000fd5b634e487b7160e01b600052601160045260246000fd5b60006001820162000c165762000c1662000beb565b5060010190565b60006020828403121562000c3057600080fd5b62000c3b82620008fe565b9392505050565b60006020828403121562000c5557600080fd5b5051919050565b600f81810b9083900b0160016001607f1b03811360016001607f1b03198212171562000365576200036562000beb565b6000825162000ca0818460208701620008d8565b9190910192915050565b60006020828403121562000cbd57600080fd5b8151801515811462000c3b57600080fd5b611d758062000cde6000396000f3fe60806040526004361061016a5760003560e01c806384a33e63116100d1578063a217fddf1161008a578063eab90da611610064578063eab90da61461049f578063ef99893a146104bf578063f2fde38b146104df578063f8742254146104ff57600080fd5b8063a217fddf1461044a578063d547741f1461045f578063d8baf7cf1461047f57600080fd5b806384a33e63146103695780638544c53b146103895780638980f11f146103a95780638bb9c5bf146103c957806391d14854146103e95780639b04b0091461040957600080fd5b80634ebb7916116101235780634ebb79161461026d578063531aa03e1461028d57806369cff80d146102c55780636b453c1f146102db578063700123e0146102fb5780637ae267731461034957600080fd5b806301ffc9a71461017657806306fdde03146101ab578063248a9ca3146101cd5780632f2ff15d1461020b57806336568abe1461022d5780634490af061461024d57600080fd5b3661017157005b600080fd5b34801561018257600080fd5b506101966101913660046117d8565b610521565b60405190151581526020015b60405180910390f35b3480156101b757600080fd5b506101c0610558565b6040516101a29190611826565b3480156101d957600080fd5b506101fd6101e8366004611859565b60009081526020819052604090206001015490565b6040519081526020016101a2565b34801561021757600080fd5b5061022b610226366004611897565b6105e6565b005b34801561023957600080fd5b5061022b610248366004611897565b610610565b34801561025957600080fd5b5061022b6102683660046118dd565b610693565b34801561027957600080fd5b5061022b610288366004611859565b610706565b34801561029957600080fd5b506102ad6102a83660046119a2565b6107f4565b6040516001600160a01b0390911681526020016101a2565b3480156102d157600080fd5b506101fd60015481565b3480156102e757600080fd5b5061022b6102f63660046119d0565b61081e565b34801561030757600080fd5b506103366103163660046119a2565b6003602090815260009283526040808420909152908252902054600f0b81565b604051600f9190910b81526020016101a2565b34801561035557600080fd5b5061022b6103643660046119a2565b610839565b34801561037557600080fd5b5061022b610384366004611859565b610883565b34801561039557600080fd5b5061022b6103a43660046118dd565b610936565b3480156103b557600080fd5b5061022b6103c43660046119ed565b6109a9565b3480156103d557600080fd5b5061022b6103e4366004611859565b610a8a565b3480156103f557600080fd5b50610196610404366004611897565b610a95565b34801561041557600080fd5b506102ad6104243660046119a2565b60046020908152600092835260408084209091529082529020546001600160a01b031681565b34801561045657600080fd5b506101fd600081565b34801561046b57600080fd5b5061022b61047a366004611897565b610abe565b34801561048b57600080fd5b5061022b61049a3660046119d0565b610ae3565b3480156104ab57600080fd5b5061022b6104ba366004611a19565b610afb565b3480156104cb57600080fd5b506101fd6104da366004611a78565b610ca2565b3480156104eb57600080fd5b5061022b6104fa3660046119d0565b610cb9565b34801561050b57600080fd5b506101fd600080516020611d2083398151915281565b60006001600160e01b03198216637965db0b60e01b148061055257506301ffc9a760e01b6001600160e01b03198316145b92915050565b6002805461056590611aba565b80601f016020809104026020016040519081016040528092919081815260200182805461059190611aba565b80156105de5780601f106105b3576101008083540402835291602001916105de565b820191906000526020600020905b8154815290600101906020018083116105c157829003601f168201915b505050505081565b60008281526020819052604090206001015461060181610e18565b61060b8383610e22565b505050565b6001600160a01b03811633146106855760405162461bcd60e51b815260206004820152602f60248201527f416363657373436f6e74726f6c3a2063616e206f6e6c792072656e6f756e636560448201526e103937b632b9903337b91039b2b63360891b60648201526084015b60405180910390fd5b61068f8282610ea6565b5050565b336106ac600080516020611d2083398151915282610a95565b6106c85760405162461bcd60e51b815260040161067c90611af4565b60005b825181101561060b576106f68382815181106106e9576106e9611b3c565b6020026020010151610f0b565b6106ff81611b68565b90506106cb565b3361071f600080516020611d2083398151915282610a95565b61073b5760405162461bcd60e51b815260040161067c90611af4565b6000821161078b5760405162461bcd60e51b815260206004820152601e60248201527f59616b416461707465723a204e6f7468696e6720746f207265636f7665720000604482015260640161067c565b604051339083156108fc029084906000818181858888f193505050501580156107b8573d6000803e3d6000fd5b506040518281526000907f8c1256b8896378cd5044f80c202f9772b9d77dc85c8a6eb51967210b09bfaa28906020015b60405180910390a25050565b6001600160a01b039182166000908152600460209081526040808320938516835292905220541690565b610836600080516020611d20833981519152826105e6565b50565b33610852600080516020611d2083398151915282610a95565b61086e5760405162461bcd60e51b815260040161067c90611af4565b61060b6001600160a01b038416836000610cd0565b3361089c600080516020611d2083398151915282610a95565b6108b85760405162461bcd60e51b815260040161067c90611af4565b816000036108ff5760405162461bcd60e51b8152602060048201526014602482015273496e76616c6964206761732d657374696d61746560601b604482015260640161067c565b600182905560405182815230907ff43f23b7a28e6f8ce6843a21bd7b48bce778aa913b8c8cf459edf7d770e8d38a906020016107e8565b3361094f600080516020611d2083398151915282610a95565b61096b5760405162461bcd60e51b815260040161067c90611af4565b60005b825181101561060b5761099983828151811061098c5761098c611b3c565b6020026020010151610fa6565b6109a281611b68565b905061096e565b336109c2600080516020611d2083398151915282610a95565b6109de5760405162461bcd60e51b815260040161067c90611af4565b60008211610a2e5760405162461bcd60e51b815260206004820152601e60248201527f59616b416461707465723a204e6f7468696e6720746f207265636f7665720000604482015260640161067c565b610a426001600160a01b038416338461100f565b826001600160a01b03167f8c1256b8896378cd5044f80c202f9772b9d77dc85c8a6eb51967210b09bfaa2883604051610a7d91815260200190565b60405180910390a2505050565b3361068f8282610610565b6000918252602082815260408084206001600160a01b0393909316845291905290205460ff1690565b600082815260208190526040902060010154610ad981610e18565b61060b8383610ea6565b610836600080516020611d2083398151915282610abe565b6040516370a0823160e01b81526001600160a01b038281166004830152600091908416906370a0823190602401602060405180830381865afa158015610b45573d6000803e3d6000fd5b505050506040513d601f19601f82011682018060405250810190610b699190611b81565b9050610b78868686868661103f565b6040516370a0823160e01b81526001600160a01b03838116600483015260009183918616906370a0823190602401602060405180830381865afa158015610bc3573d6000803e3d6000fd5b505050506040513d601f19601f82011682018060405250810190610be79190611b81565b610bf19190611b9a565b905085811015610c435760405162461bcd60e51b815260206004820152601760248201527f496e73756666696369656e7420616d6f756e742d6f7574000000000000000000604482015260640161067c565b836001600160a01b0316856001600160a01b03167fe2bdbc6b7225eb0a972ac943c485a6cc05f7c6811838bce8903f23200fb744fa8989604051610c91929190918252602082015260400190565b60405180910390a350505050505050565b6000610caf848484611167565b90505b9392505050565b33610cc56000836105e6565b61068f600082610610565b801580610d4a5750604051636eb1769f60e11b81523060048201526001600160a01b03838116602483015284169063dd62ed3e90604401602060405180830381865afa158015610d24573d6000803e3d6000fd5b505050506040513d601f19601f82011682018060405250810190610d489190611b81565b155b610db55760405162461bcd60e51b815260206004820152603660248201527f5361666545524332303a20617070726f76652066726f6d206e6f6e2d7a65726f60448201527520746f206e6f6e2d7a65726f20616c6c6f77616e636560501b606482015260840161067c565b6040516001600160a01b03831660248201526044810182905261060b90849063095ea7b360e01b906064015b60408051601f198184030181529190526020810180516001600160e01b03166001600160e01b0319909316929092179091526111cc565b61083681336112f5565b610e2c8282610a95565b61068f576000828152602081815260408083206001600160a01b03851684529091529020805460ff19166001179055610e623390565b6001600160a01b0316816001600160a01b0316837f2f8788117e7eff1d82e926ec794901d17c78024a50270940304540a733656f0d60405160405180910390a45050565b610eb08282610a95565b1561068f576000828152602081815260408083206001600160a01b0385168085529252808320805460ff1916905551339285917ff6391f5c32d9c69d2a47ea670b442974b53935d1edc7fd64eb21e047a839171b9190a45050565b600080610f1783611359565b9150915060005b6000610f2a838361143a565b90506001600160a01b038116610f405750610fa0565b6001600160a01b039081166000818152600460208181526040808420958916845294815284832080546001600160a01b0319908116909155918152848320938352929092529190912080549091169055610f9981611b68565b9050610f1e565b50505050565b600080610fb283611359565b9092509050610fcd6001600160a01b03831684600019610cd0565b60005b6000610fdc838361143a565b90506001600160a01b038116610ff25750610fa0565b610ffe858583856114aa565b5061100881611b68565b9050610fd0565b6040516001600160a01b03831660248201526044810182905261060b90849063a9059cbb60e01b90606401610de1565b600061104b84846107f4565b6001600160a01b0381811660008181526003602090815260408083208a8616845290915280822054938816825290819020549051635320bf6b60e11b8152600f93840b6004820152920b6024830152604482018990526064820188905291925063a6417ed690608401600060405180830381600087803b1580156110ce57600080fd5b505af11580156110e2573d6000803e3d6000fd5b50506040516370a0823160e01b8152306004820152600092506001600160a01b03861691506370a0823190602401602060405180830381865afa15801561112d573d6000803e3d6000fd5b505050506040513d601f19601f820116820180604052508101906111519190611b81565b905061115e848285611569565b50505050505050565b60008061117484846107f4565b90506001600160a01b038116158061118a575084155b15611199576000915050610cb2565b60006111a78287878761158d565b90506127106111b88261270f611bad565b6111c29190611bc4565b9695505050505050565b600080836001600160a01b0316836040516111e79190611be6565b6000604051808303816000865af19150503d8060008114611224576040519150601f19603f3d011682016040523d82523d6000602084013e611229565b606091505b50915091508161127b5760405162461bcd60e51b815260206004820181905260248201527f5361666545524332303a206c6f772d6c6576656c2063616c6c206661696c6564604482015260640161067c565b805115610fa057808060200190518101906112969190611c02565b610fa05760405162461bcd60e51b815260206004820152602a60248201527f5361666545524332303a204552433230206f7065726174696f6e20646964206e6044820152691bdd081cdd58d8d9595960b21b606482015260840161067c565b6112ff8282610a95565b61068f57611317816001600160a01b0316601461163c565b61132283602061163c565b604051602001611333929190611c24565b60408051601f198184030181529082905262461bcd60e51b825261067c91600401611826565b60405163c661065760e01b81526000600482018190529081906001600160a01b0384169063c661065790602401602060405180830381865afa1580156113a3573d6000803e3d6000fd5b505050506040513d601f19601f820116820180604052508101906113c79190611c99565b60405163c661065760e01b8152600160048201529092506001600160a01b0384169063c661065790602401602060405180830381865afa15801561140f573d6000803e3d6000fd5b505050506040513d601f19601f820116820180604052508101906114339190611c99565b9050915091565b60405163c661065760e01b8152600481018290526000906001600160a01b0384169063c661065790602401602060405180830381865afa92505050801561149e575060408051601f3d908101601f1916820190925261149b91810190611c99565b60015b15610552579050610552565b6114c06001600160a01b03831685600019610cd0565b6114cb816001611cb6565b6001600160a01b03948516600081815260036020908152604080832096891680845296825280832080546fffffffffffffffffffffffffffffffff19166fffffffffffffffffffffffffffffffff9690961695909517909455600480825284832097909816825295865282812080546001600160a01b0319908116841790915596865282812094815293909452909120805490931690911790915550565b306001600160a01b0382161461060b5761060b6001600160a01b038416828461100f565b6001600160a01b03848116600081815260036020908152604080832087861684529091528082205493851682528082205490516307211ef760e01b8152600f94850b6004820152930b602484015260448301869052916307211ef790606401602060405180830381865afa925050508015611625575060408051601f3d908101601f1916820190925261162291810190611b81565b60015b61163157506000611634565b90505b949350505050565b6060600061164b836002611bad565b611656906002611cf5565b67ffffffffffffffff81111561166e5761166e6118c7565b6040519080825280601f01601f191660200182016040528015611698576020820181803683370190505b509050600360fc1b816000815181106116b3576116b3611b3c565b60200101906001600160f81b031916908160001a905350600f60fb1b816001815181106116e2576116e2611b3c565b60200101906001600160f81b031916908160001a9053506000611706846002611bad565b611711906001611cf5565b90505b6001811115611789576f181899199a1a9b1b9c1cb0b131b232b360811b85600f166010811061174557611745611b3c565b1a60f81b82828151811061175b5761175b611b3c565b60200101906001600160f81b031916908160001a90535060049490941c9361178281611d08565b9050611714565b508315610cb25760405162461bcd60e51b815260206004820181905260248201527f537472696e67733a20686578206c656e67746820696e73756666696369656e74604482015260640161067c565b6000602082840312156117ea57600080fd5b81356001600160e01b031981168114610cb257600080fd5b60005b8381101561181d578181015183820152602001611805565b50506000910152565b6020815260008251806020840152611845816040850160208701611802565b601f01601f19169190910160400192915050565b60006020828403121561186b57600080fd5b5035919050565b6001600160a01b038116811461083657600080fd5b803561189281611872565b919050565b600080604083850312156118aa57600080fd5b8235915060208301356118bc81611872565b809150509250929050565b634e487b7160e01b600052604160045260246000fd5b600060208083850312156118f057600080fd5b823567ffffffffffffffff8082111561190857600080fd5b818501915085601f83011261191c57600080fd5b81358181111561192e5761192e6118c7565b8060051b604051601f19603f83011681018181108582111715611953576119536118c7565b60405291825284820192508381018501918883111561197157600080fd5b938501935b828510156119965761198785611887565b84529385019392850192611976565b98975050505050505050565b600080604083850312156119b557600080fd5b82356119c081611872565b915060208301356118bc81611872565b6000602082840312156119e257600080fd5b8135610cb281611872565b60008060408385031215611a0057600080fd5b8235611a0b81611872565b946020939093013593505050565b600080600080600060a08688031215611a3157600080fd5b85359450602086013593506040860135611a4a81611872565b92506060860135611a5a81611872565b91506080860135611a6a81611872565b809150509295509295909350565b600080600060608486031215611a8d57600080fd5b833592506020840135611a9f81611872565b91506040840135611aaf81611872565b809150509250925092565b600181811c90821680611ace57607f821691505b602082108103611aee57634e487b7160e01b600052602260045260246000fd5b50919050565b60208082526028908201527f4d61696e7461696e61626c653a2043616c6c6572206973206e6f742061206d6160408201526734b73a30b4b732b960c11b606082015260800190565b634e487b7160e01b600052603260045260246000fd5b634e487b7160e01b600052601160045260246000fd5b600060018201611b7a57611b7a611b52565b5060010190565b600060208284031215611b9357600080fd5b5051919050565b8181038181111561055257610552611b52565b808202811582820484141761055257610552611b52565b600082611be157634e487b7160e01b600052601260045260246000fd5b500490565b60008251611bf8818460208701611802565b9190910192915050565b600060208284031215611c1457600080fd5b81518015158114610cb257600080fd5b7f416363657373436f6e74726f6c3a206163636f756e7420000000000000000000815260008351611c5c816017850160208801611802565b7001034b99036b4b9b9b4b733903937b6329607d1b6017918401918201528351611c8d816028840160208801611802565b01602801949350505050565b600060208284031215611cab57600080fd5b8151610cb281611872565b600f81810b9083900b016f7fffffffffffffffffffffffffffffff81136f7fffffffffffffffffffffffffffffff198212171561055257610552611b52565b8082018082111561055257610552611b52565b600081611d1757611d17611b52565b50600019019056fe339759585899103d2ace64958e37e18ccb0504652c81d4a1b8aa80fe2126ab95a2646970667358221220f17065962b6fed2e88a90c4f2b75b39f4839d3ed02a7c077c3845c292e1ba68464736f6c63430008110033339759585899103d2ace64958e37e18ccb0504652c81d4a1b8aa80fe2126ab954d61696e7461696e61626c653a2043616c6c6572206973206e6f742061206d61",
    "linkReferences": {}
  },
  "methodIdentifiers": {
    "DEFAULT_ADMIN_ROLE()": "a217fddf",
    "MAINTAINER_ROLE()": "f8742254",
    "addMaintainer(address)": "6b453c1f",
    "getPool(address,address)": "531aa03e",
    "getRoleAdmin(bytes32)": "248a9ca3",
    "grantRole(bytes32,address)": "2f2ff15d",
    "hasRole(bytes32,address)": "91d14854",
    "name()": "06fdde03",
    "poolForTokens(address,address)": "9b04b009",
    "query(uint256,address,address)": "ef99893a",
    "recoverAVAX(uint256)": "4ebb7916",
    "recoverERC20(address,uint256)": "8980f11f",
    "removeMaintainer(address)": "d8baf7cf",
    "renounceRole(bytes32)": "8bb9c5bf",
    "renounceRole(bytes32,address)": "36568abe",
    "revokeAllowance(address,address)": "7ae26773",
    "revokeRole(bytes32,address)": "d547741f",
    "rmPools(address[])": "4490af06",
    "setPools(address[])": "8544c53b",
    "setSwapGasEstimate(uint256)": "84a33e63",
    "supportsInterface(bytes4)": "01ffc9a7",
    "swap(uint256,uint256,address,address,address)": "eab90da6",
    "swapGasEstimate()": "69cff80d",
    "tokenIndexForPool(address,address)": "700123e0",
    "transferOwnership(address)": "f2fde38b"
  },
  "id": 20
}