{
  "address": "0xf2acd5F10E16BCd2b436701647513bB6C20cF62F",
  "abi": [
    {
      "inputs": [
        {
          "internalType": "string",
          "name": "_name",
          "type": "string"
        },
        {
          "internalType": "address",
          "name": "_factory",
          "type": "address"
        },
        {
          "internalType": "uint256",
          "name": "_fee",
          "type": "uint256"
        },
        {
          "internalType": "uint256",
          "name": "_swapGasEstimate",
          "type": "uint256"
        }
      ],
      "stateMutability": "nonpayable",
      "type": "constructor"
    },
    {
      "anonymous": false,
      "inputs": [
        {
          "indexed": true,
          "internalType": "address",
          "name": "previousOwner",
          "type": "address"
        },
        {
          "indexed": true,
          "internalType": "address",
          "name": "newOwner",
          "type": "address"
        }
      ],
      "name": "OwnershipTransferred",
      "type": "event"
    },
    {
      "anonymous": false,
      "inputs": [
        {
          "indexed": true,
          "internalType": "address",
          "name": "_asset",
          "type": "address"
        },
        {
          "indexed": false,
          "internalType": "uint256",
          "name": "amount",
          "type": "uint256"
        }
      ],
      "name": "Recovered",
      "type": "event"
    },
    {
      "anonymous": false,
      "inputs": [
        {
          "indexed": true,
          "internalType": "address",
          "name": "_adapter",
          "type": "address"
        },
        {
          "indexed": false,
          "internalType": "uint256",
          "name": "_newEstimate",
          "type": "uint256"
        }
      ],
      "name": "UpdatedGasEstimate",
      "type": "event"
    },
    {
      "anonymous": false,
      "inputs": [
        {
          "indexed": true,
          "internalType": "address",
          "name": "_tokenFrom",
          "type": "address"
        },
        {
          "indexed": true,
          "internalType": "address",
          "name": "_tokenTo",
          "type": "address"
        },
        {
          "indexed": false,
          "internalType": "uint256",
          "name": "_amountIn",
          "type": "uint256"
        },
        {
          "indexed": false,
          "internalType": "uint256",
          "name": "_amountOut",
          "type": "uint256"
        }
      ],
      "name": "YakAdapterSwap",
      "type": "event"
    },
    {
      "inputs": [],
      "name": "factory",
      "outputs": [
        {
          "internalType": "address",
          "name": "",
          "type": "address"
        }
      ],
      "stateMutability": "view",
      "type": "function"
    },
    {
      "inputs": [],
      "name": "feeCompliment",
      "outputs": [
        {
          "internalType": "uint256",
          "name": "",
          "type": "uint256"
        }
      ],
      "stateMutability": "view",
      "type": "function"
    },
    {
      "inputs": [],
      "name": "name",
      "outputs": [
        {
          "internalType": "string",
          "name": "",
          "type": "string"
        }
      ],
      "stateMutability": "view",
      "type": "function"
    },
    {
      "inputs": [],
      "name": "owner",
      "outputs": [
        {
          "internalType": "address",
          "name": "",
          "type": "address"
        }
      ],
      "stateMutability": "view",
      "type": "function"
    },
    {
      "inputs": [
        {
          "internalType": "uint256",
          "name": "_amountIn",
          "type": "uint256"
        },
        {
          "internalType": "address",
          "name": "_tokenIn",
          "type": "address"
        },
        {
          "internalType": "address",
          "name": "_tokenOut",
          "type": "address"
        }
      ],
      "name": "query",
      "outputs": [
        {
          "internalType": "uint256",
          "name": "",
          "type": "uint256"
        }
      ],
      "stateMutability": "view",
      "type": "function"
    },
    {
      "inputs": [
        {
          "internalType": "uint256",
          "name": "_amount",
          "type": "uint256"
        }
      ],
      "name": "recoverAVAX",
      "outputs": [],
      "stateMutability": "nonpayable",
      "type": "function"
    },
    {
      "inputs": [
        {
          "internalType": "address",
          "name": "_tokenAddress",
          "type": "address"
        },
        {
          "internalType": "uint256",
          "name": "_tokenAmount",
          "type": "uint256"
        }
      ],
      "name": "recoverERC20",
      "outputs": [],
      "stateMutability": "nonpayable",
      "type": "function"
    },
    {
      "inputs": [],
      "name": "renounceOwnership",
      "outputs": [],
      "stateMutability": "nonpayable",
      "type": "function"
    },
    {
      "inputs": [
        {
          "internalType": "address",
          "name": "_token",
          "type": "address"
        },
        {
          "internalType": "address",
          "name": "_spender",
          "type": "address"
        }
      ],
      "name": "revokeAllowance",
      "outputs": [],
      "stateMutability": "nonpayable",
      "type": "function"
    },
    {
      "inputs": [
        {
          "internalType": "uint256",
          "name": "_estimate",
          "type": "uint256"
        }
      ],
      "name": "setSwapGasEstimate",
      "outputs": [],
      "stateMutability": "nonpayable",
      "type": "function"
    },
    {
      "inputs": [
        {
          "internalType": "uint256",
          "name": "_amountIn",
          "type": "uint256"
        },
        {
          "internalType": "uint256",
          "name": "_amountOut",
          "type": "uint256"
        },
        {
          "internalType": "address",
          "name": "_fromToken",
          "type": "address"
        },
        {
          "internalType": "address",
          "name": "_toToken",
          "type": "address"
        },
        {
          "internalType": "address",
          "name": "_to",
          "type": "address"
        }
      ],
      "name": "swap",
      "outputs": [],
      "stateMutability": "nonpayable",
      "type": "function"
    },
    {
      "inputs": [],
      "name": "swapGasEstimate",
      "outputs": [
        {
          "internalType": "uint256",
          "name": "",
          "type": "uint256"
        }
      ],
      "stateMutability": "view",
      "type": "function"
    },
    {
      "inputs": [
        {
          "internalType": "address",
          "name": "newOwner",
          "type": "address"
        }
      ],
      "name": "transferOwnership",
      "outputs": [],
      "stateMutability": "nonpayable",
      "type": "function"
    },
    {
      "stateMutability": "payable",
      "type": "receive"
    }
  ],
  "transactionHash": "0x20deaf7ee6783c8e37d0def56a92d92e31f95dee09d7c6e308122bea69631050",
  "args": [
    "DogeSwapAdapter",
    "0xD27D9d61590874Bf9ee2a19b27E265399929C9C3",
    2,
    120000
  ],
  "solcInputHash": "f3797818a37fb82d775750768bfe50df",
  "bytecode": "0x60c06040523480156200001157600080fd5b506040516200187238038062001872833981016040819052620000349162000292565b8381600062000042620000cf565b600080546001600160a01b0319166001600160a01b0383169081178255604051929350917f8be0079c531659141344cd1fd0a4f28419497f9722a3daafe3b4186f6b6457e0908290a3506200009782620000d3565b620000a28162000116565b50620000b39050826103e862000432565b608052505060601b6001600160601b03191660a05250620004a9565b3390565b8051620000fd5760405162461bcd60e51b8152600401620000f490620003bb565b60405180910390fd5b805162000112906002906020840190620001cf565b5050565b62000120620000cf565b6001600160a01b031662000133620001c0565b6001600160a01b0316146200015c5760405162461bcd60e51b8152600401620000f49062000386565b806200017c5760405162461bcd60e51b8152600401620000f490620003f2565b600181905560405130907ff43f23b7a28e6f8ce6843a21bd7b48bce778aa913b8c8cf459edf7d770e8d38a90620001b590849062000429565b60405180910390a250565b6000546001600160a01b031690565b828054620001dd9062000456565b90600052602060002090601f0160209004810192826200020157600085556200024c565b82601f106200021c57805160ff19168380011785556200024c565b828001600101855582156200024c579182015b828111156200024c5782518255916020019190600101906200022f565b506200025a9291506200025e565b5090565b5b808211156200025a57600081556001016200025f565b80516001600160a01b03811681146200028d57600080fd5b919050565b60008060008060808587031215620002a8578384fd5b84516001600160401b0380821115620002bf578586fd5b818701915087601f830112620002d3578586fd5b815181811115620002e857620002e862000493565b6040516020601f8301601f191682018101848111838210171562000310576200031062000493565b60405282825284830181018b101562000327578889fd5b8893505b828410156200034a57848401810151828501820152928301926200032b565b828411156200035b57888184840101525b8198506200036b818b0162000275565b60408b01516060909b0151999c909b50975050505050505050565b6020808252818101527f4f776e61626c653a2043616c6c6572206973206e6f7420746865206f776e6572604082015260600190565b60208082526014908201527f496e76616c69642061646170746572206e616d65000000000000000000000000604082015260600190565b60208082526014908201527f496e76616c6964206761732d657374696d617465000000000000000000000000604082015260600190565b90815260200190565b6000828210156200045157634e487b7160e01b81526011600452602481fd5b500390565b6002810460018216806200046b57607f821691505b602082108114156200048d57634e487b7160e01b600052602260045260246000fd5b50919050565b634e487b7160e01b600052604160045260246000fd5b60805160a05160601c61138b620004e76000396000818161064f015281816109380152610add0152600081816103020152610d34015261138b6000f3fe6080604052600436106100d65760003560e01c806384a33e631161007f578063c45a015511610059578063c45a0155146101fd578063eab90da614610212578063ef99893a14610232578063f2fde38b14610252576100dd565b806384a33e631461019b5780638980f11f146101bb5780638da5cb5b146101db576100dd565b806369cff80d116100b057806369cff80d14610151578063715018a6146101665780637ae267731461017b576100dd565b806306fdde03146100e25780633b720fca1461010d5780634ebb79161461012f576100dd565b366100dd57005b600080fd5b3480156100ee57600080fd5b506100f7610272565b6040516101049190611018565b60405180910390f35b34801561011957600080fd5b50610122610300565b604051610104919061121a565b34801561013b57600080fd5b5061014f61014a366004610ec5565b610324565b005b34801561015d57600080fd5b506101226103ff565b34801561017257600080fd5b5061014f610405565b34801561018757600080fd5b5061014f610196366004610df4565b61049b565b3480156101a757600080fd5b5061014f6101b6366004610ec5565b6104f3565b3480156101c757600080fd5b5061014f6101d6366004610e2c565b610586565b3480156101e757600080fd5b506101f061063e565b6040516101049190610fd1565b34801561020957600080fd5b506101f061064d565b34801561021e57600080fd5b5061014f61022d366004610f2b565b610671565b34801561023e57600080fd5b5061012261024d366004610ef5565b6106d2565b34801561025e57600080fd5b5061014f61026d366004610dbc565b6106e9565b6002805461027f906112ec565b80601f01602080910402602001604051908101604052809291908181526020018280546102ab906112ec565b80156102f85780601f106102cd576101008083540402835291602001916102f8565b820191906000526020600020905b8154815290600101906020018083116102db57829003601f168201915b505050505081565b7f000000000000000000000000000000000000000000000000000000000000000081565b61032c6107b6565b6001600160a01b031661033d61063e565b6001600160a01b03161461036c5760405162461bcd60e51b81526004016103639061102b565b60405180910390fd5b6000811161038c5760405162461bcd60e51b815260040161036390611060565b604051339082156108fc029083906000818181858888f193505050501580156103b9573d6000803e3d6000fd5b5060006001600160a01b03167f8c1256b8896378cd5044f80c202f9772b9d77dc85c8a6eb51967210b09bfaa28826040516103f4919061121a565b60405180910390a250565b60015481565b61040d6107b6565b6001600160a01b031661041e61063e565b6001600160a01b0316146104445760405162461bcd60e51b81526004016103639061102b565b600080546040516001600160a01b03909116907f8be0079c531659141344cd1fd0a4f28419497f9722a3daafe3b4186f6b6457e0908390a36000805473ffffffffffffffffffffffffffffffffffffffff19169055565b6104a36107b6565b6001600160a01b03166104b461063e565b6001600160a01b0316146104da5760405162461bcd60e51b81526004016103639061102b565b6104ef6001600160a01b0383168260006107ba565b5050565b6104fb6107b6565b6001600160a01b031661050c61063e565b6001600160a01b0316146105325760405162461bcd60e51b81526004016103639061102b565b8061054f5760405162461bcd60e51b8152600401610363906110cc565b600181905560405130907ff43f23b7a28e6f8ce6843a21bd7b48bce778aa913b8c8cf459edf7d770e8d38a906103f490849061121a565b61058e6107b6565b6001600160a01b031661059f61063e565b6001600160a01b0316146105c55760405162461bcd60e51b81526004016103639061102b565b600081116105e55760405162461bcd60e51b815260040161036390611060565b6105f96001600160a01b03831633836108ff565b816001600160a01b03167f8c1256b8896378cd5044f80c202f9772b9d77dc85c8a6eb51967210b09bfaa2882604051610632919061121a565b60405180910390a25050565b6000546001600160a01b031690565b7f000000000000000000000000000000000000000000000000000000000000000081565b61067e858585858561091e565b816001600160a01b0316836001600160a01b03167fe2bdbc6b7225eb0a972ac943c485a6cc05f7c6811838bce8903f23200fb744fa87876040516106c3929190611223565b60405180910390a35050505050565b60006106df848484610a96565b90505b9392505050565b6106f16107b6565b6001600160a01b031661070261063e565b6001600160a01b0316146107285760405162461bcd60e51b81526004016103639061102b565b6001600160a01b03811661074e5760405162461bcd60e51b815260040161036390611103565b600080546040516001600160a01b03808516939216917f8be0079c531659141344cd1fd0a4f28419497f9722a3daafe3b4186f6b6457e091a36000805473ffffffffffffffffffffffffffffffffffffffff19166001600160a01b0392909216919091179055565b3390565b80158061085b57506040517fdd62ed3e0000000000000000000000000000000000000000000000000000000081526001600160a01b0384169063dd62ed3e906108099030908690600401610fe5565b60206040518083038186803b15801561082157600080fd5b505afa158015610835573d6000803e3d6000fd5b505050506040513d601f19601f820116820180604052508101906108599190610edd565b155b6108775760405162461bcd60e51b8152600401610363906111bd565b6108fa8363095ea7b360e01b8484604051602401610896929190610fff565b60408051601f198184030181529190526020810180517bffffffffffffffffffffffffffffffffffffffffffffffffffffffff167fffffffff0000000000000000000000000000000000000000000000000000000090931692909217909152610c70565b505050565b6108fa8363a9059cbb60e01b8484604051602401610896929190610fff565b60405163e6a4390560e01b81526000906001600160a01b037f0000000000000000000000000000000000000000000000000000000000000000169063e6a439059061096f9087908790600401610fe5565b60206040518083038186803b15801561098757600080fd5b505afa15801561099b573d6000803e3d6000fd5b505050506040513d601f19601f820116820180604052508101906109bf9190610dd8565b9050600080846001600160a01b0316866001600160a01b0316106109e5578660006109e9565b6000875b9092509050610a026001600160a01b038716848a6108ff565b604080516000815260208101918290527f022c0d9f000000000000000000000000000000000000000000000000000000009091526001600160a01b0384169063022c0d9f90610a5a9085908590899060248101611231565b600060405180830381600087803b158015610a7457600080fd5b505af1158015610a88573d6000803e3d6000fd5b505050505050505050505050565b6000816001600160a01b0316836001600160a01b03161480610ab6575083155b15610ac3575060006106e2565b60405163e6a4390560e01b81526000906001600160a01b037f0000000000000000000000000000000000000000000000000000000000000000169063e6a4390590610b149087908790600401610fe5565b60206040518083038186803b158015610b2c57600080fd5b505afa158015610b40573d6000803e3d6000fd5b505050506040513d601f19601f82011682018060405250810190610b649190610dd8565b90506001600160a01b038116610b7e5760009150506106e2565b600080826001600160a01b0316630902f1ac6040518163ffffffff1660e01b815260040160606040518083038186803b158015610bba57600080fd5b505afa158015610bce573d6000803e3d6000fd5b505050506040513d601f19601f82011682018060405250810190610bf29190610e77565b506dffffffffffffffffffffffffffff1691506dffffffffffffffffffffffffffff169150600080866001600160a01b0316886001600160a01b031610610c3a578284610c3d565b83835b91509150600082118015610c515750600081115b15610c6457610c61898383610d2c565b95505b50505050509392505050565b600080836001600160a01b031683604051610c8b9190610fb5565b6000604051808303816000865af19150503d8060008114610cc8576040519150601f19603f3d011682016040523d82523d6000602084013e610ccd565b606091505b509150915081610cef5760405162461bcd60e51b815260040161036390611097565b805115610d265780806020019051810190610d0a9190610e57565b610d265760405162461bcd60e51b815260040161036390611160565b50505050565b600080610d597f0000000000000000000000000000000000000000000000000000000000000000866112a1565b90506000610d6784836112a1565b9050600082610d786103e8886112a1565b610d829190611269565b9050610d8e8183611281565b979650505050505050565b80516dffffffffffffffffffffffffffff81168114610db757600080fd5b919050565b600060208284031215610dcd578081fd5b81356106e28161133d565b600060208284031215610de9578081fd5b81516106e28161133d565b60008060408385031215610e06578081fd5b8235610e118161133d565b91506020830135610e218161133d565b809150509250929050565b60008060408385031215610e3e578182fd5b8235610e498161133d565b946020939093013593505050565b600060208284031215610e68578081fd5b815180151581146106e2578182fd5b600080600060608486031215610e8b578081fd5b610e9484610d99565b9250610ea260208501610d99565b9150604084015163ffffffff81168114610eba578182fd5b809150509250925092565b600060208284031215610ed6578081fd5b5035919050565b600060208284031215610eee578081fd5b5051919050565b600080600060608486031215610f09578283fd5b833592506020840135610f1b8161133d565b91506040840135610eba8161133d565b600080600080600060a08688031215610f42578081fd5b85359450602086013593506040860135610f5b8161133d565b92506060860135610f6b8161133d565b91506080860135610f7b8161133d565b809150509295509295909350565b60008151808452610fa18160208601602086016112c0565b601f01601f19169290920160200192915050565b60008251610fc78184602087016112c0565b9190910192915050565b6001600160a01b0391909116815260200190565b6001600160a01b0392831681529116602082015260400190565b6001600160a01b03929092168252602082015260400190565b6000602082526106e26020830184610f89565b6020808252818101527f4f776e61626c653a2043616c6c6572206973206e6f7420746865206f776e6572604082015260600190565b6020808252601e908201527f59616b416461707465723a204e6f7468696e6720746f207265636f7665720000604082015260600190565b6020808252818101527f5361666545524332303a206c6f772d6c6576656c2063616c6c206661696c6564604082015260600190565b60208082526014908201527f496e76616c6964206761732d657374696d617465000000000000000000000000604082015260600190565b60208082526026908201527f4f776e61626c653a204e6577206f776e657220697320746865207a65726f206160408201527f6464726573730000000000000000000000000000000000000000000000000000606082015260800190565b6020808252602a908201527f5361666545524332303a204552433230206f7065726174696f6e20646964206e60408201527f6f74207375636365656400000000000000000000000000000000000000000000606082015260800190565b60208082526036908201527f5361666545524332303a20617070726f76652066726f6d206e6f6e2d7a65726f60408201527f20746f206e6f6e2d7a65726f20616c6c6f77616e636500000000000000000000606082015260800190565b90815260200190565b918252602082015260400190565b60008582528460208301526001600160a01b03841660408301526080606083015261125f6080830184610f89565b9695505050505050565b6000821982111561127c5761127c611327565b500190565b60008261129c57634e487b7160e01b81526012600452602481fd5b500490565b60008160001904831182151516156112bb576112bb611327565b500290565b60005b838110156112db5781810151838201526020016112c3565b83811115610d265750506000910152565b60028104600182168061130057607f821691505b6020821081141561132157634e487b7160e01b600052602260045260246000fd5b50919050565b634e487b7160e01b600052601160045260246000fd5b6001600160a01b038116811461135257600080fd5b5056fea2646970667358221220cc0cc7dc0e4132dd346cabf24fe9f3437c26342db9585513539c4dcb3b65814364736f6c63430008000033",
  "devdoc": {
    "kind": "dev",
    "methods": {
      "owner()": {
        "details": "Returns the address of the current owner."
      },
      "renounceOwnership()": {
        "details": "Leaves the contract without owner. It will not be possible to call `onlyOwner` functions anymore. Can only be called by the current owner. NOTE: Renouncing ownership will leave the contract without an owner, thereby removing any functionality that is only available to the owner."
      },
      "transferOwnership(address)": {
        "details": "Transfers ownership of the contract to a new account (`newOwner`). Can only be called by the current owner."
      }
    },
    "version": 1
  },
  "userdoc": {
    "kind": "user",
    "methods": {},
    "version": 1
  },
  "storageLayout": {
    "storage": [
      {
        "astId": 13873,
        "contract": "src/contracts/adapters/UniswapV2Adapter.sol:UniswapV2Adapter",
        "label": "_owner",
        "offset": 0,
        "slot": "0",
        "type": "t_address"
      },
      {
        "astId": 42,
        "contract": "src/contracts/adapters/UniswapV2Adapter.sol:UniswapV2Adapter",
        "label": "swapGasEstimate",
        "offset": 0,
        "slot": "1",
        "type": "t_uint256"
      },
      {
        "astId": 44,
        "contract": "src/contracts/adapters/UniswapV2Adapter.sol:UniswapV2Adapter",
        "label": "name",
        "offset": 0,
        "slot": "2",
        "type": "t_string_storage"
      }
    ],
    "types": {
      "t_address": {
        "encoding": "inplace",
        "label": "address",
        "numberOfBytes": "20"
      },
      "t_string_storage": {
        "encoding": "bytes",
        "label": "string",
        "numberOfBytes": "32"
      },
      "t_uint256": {
        "encoding": "inplace",
        "label": "uint256",
        "numberOfBytes": "32"
      }
    }
  }
}