{
  "address": "0x3b2378a29F9CbDb1f20A72611C0f000aF05630cb",
  "abi": [
    {
      "inputs": [
        {
          "internalType": "string",
          "name": "_name",
          "type": "string"
        },
        {
          "internalType": "uint256",
          "name": "_swapGasEstimate",
          "type": "uint256"
        },
        {
          "internalType": "uint256",
          "name": "_quoterGasLimit",
          "type": "uint256"
        },
        {
          "internalType": "address",
          "name": "_quoter",
          "type": "address"
        },
        {
          "internalType": "address",
          "name": "_factory",
          "type": "address"
        }
      ],
      "stateMutability": "nonpayable",
      "type": "constructor"
    },
    {
      "anonymous": false,
      "inputs": [
        {
          "indexed": true,
          "internalType": "address",
          "name": "_asset",
          "type": "address"
        },
        {
          "indexed": false,
          "internalType": "uint256",
          "name": "amount",
          "type": "uint256"
        }
      ],
      "name": "Recovered",
      "type": "event"
    },
    {
      "anonymous": false,
      "inputs": [
        {
          "indexed": true,
          "internalType": "bytes32",
          "name": "role",
          "type": "bytes32"
        },
        {
          "indexed": true,
          "internalType": "bytes32",
          "name": "previousAdminRole",
          "type": "bytes32"
        },
        {
          "indexed": true,
          "internalType": "bytes32",
          "name": "newAdminRole",
          "type": "bytes32"
        }
      ],
      "name": "RoleAdminChanged",
      "type": "event"
    },
    {
      "anonymous": false,
      "inputs": [
        {
          "indexed": true,
          "internalType": "bytes32",
          "name": "role",
          "type": "bytes32"
        },
        {
          "indexed": true,
          "internalType": "address",
          "name": "account",
          "type": "address"
        },
        {
          "indexed": true,
          "internalType": "address",
          "name": "sender",
          "type": "address"
        }
      ],
      "name": "RoleGranted",
      "type": "event"
    },
    {
      "anonymous": false,
      "inputs": [
        {
          "indexed": true,
          "internalType": "bytes32",
          "name": "role",
          "type": "bytes32"
        },
        {
          "indexed": true,
          "internalType": "address",
          "name": "account",
          "type": "address"
        },
        {
          "indexed": true,
          "internalType": "address",
          "name": "sender",
          "type": "address"
        }
      ],
      "name": "RoleRevoked",
      "type": "event"
    },
    {
      "anonymous": false,
      "inputs": [
        {
          "indexed": true,
          "internalType": "address",
          "name": "_adapter",
          "type": "address"
        },
        {
          "indexed": false,
          "internalType": "uint256",
          "name": "_newEstimate",
          "type": "uint256"
        }
      ],
      "name": "UpdatedGasEstimate",
      "type": "event"
    },
    {
      "anonymous": false,
      "inputs": [
        {
          "indexed": true,
          "internalType": "address",
          "name": "_tokenFrom",
          "type": "address"
        },
        {
          "indexed": true,
          "internalType": "address",
          "name": "_tokenTo",
          "type": "address"
        },
        {
          "indexed": false,
          "internalType": "uint256",
          "name": "_amountIn",
          "type": "uint256"
        },
        {
          "indexed": false,
          "internalType": "uint256",
          "name": "_amountOut",
          "type": "uint256"
        }
      ],
      "name": "YakAdapterSwap",
      "type": "event"
    },
    {
      "inputs": [],
      "name": "DEFAULT_ADMIN_ROLE",
      "outputs": [
        {
          "internalType": "bytes32",
          "name": "",
          "type": "bytes32"
        }
      ],
      "stateMutability": "view",
      "type": "function"
    },
    {
      "inputs": [],
      "name": "MAINTAINER_ROLE",
      "outputs": [
        {
          "internalType": "bytes32",
          "name": "",
          "type": "bytes32"
        }
      ],
      "stateMutability": "view",
      "type": "function"
    },
    {
      "inputs": [
        {
          "internalType": "address",
          "name": "addedMaintainer",
          "type": "address"
        }
      ],
      "name": "addMaintainer",
      "outputs": [],
      "stateMutability": "nonpayable",
      "type": "function"
    },
    {
      "inputs": [
        {
          "internalType": "int256",
          "name": "amount0Delta",
          "type": "int256"
        },
        {
          "internalType": "int256",
          "name": "amount1Delta",
          "type": "int256"
        },
        {
          "internalType": "bytes",
          "name": "",
          "type": "bytes"
        }
      ],
      "name": "algebraSwapCallback",
      "outputs": [],
      "stateMutability": "nonpayable",
      "type": "function"
    },
    {
      "inputs": [
        {
          "internalType": "address",
          "name": "pool",
          "type": "address"
        },
        {
          "internalType": "int256",
          "name": "amountIn",
          "type": "int256"
        },
        {
          "internalType": "address",
          "name": "tokenIn",
          "type": "address"
        },
        {
          "internalType": "address",
          "name": "tokenOut",
          "type": "address"
        }
      ],
      "name": "getQuoteForPool",
      "outputs": [
        {
          "internalType": "uint256",
          "name": "",
          "type": "uint256"
        }
      ],
      "stateMutability": "view",
      "type": "function"
    },
    {
      "inputs": [
        {
          "internalType": "bytes32",
          "name": "role",
          "type": "bytes32"
        }
      ],
      "name": "getRoleAdmin",
      "outputs": [
        {
          "internalType": "bytes32",
          "name": "",
          "type": "bytes32"
        }
      ],
      "stateMutability": "view",
      "type": "function"
    },
    {
      "inputs": [
        {
          "internalType": "bytes32",
          "name": "role",
          "type": "bytes32"
        },
        {
          "internalType": "address",
          "name": "account",
          "type": "address"
        }
      ],
      "name": "grantRole",
      "outputs": [],
      "stateMutability": "nonpayable",
      "type": "function"
    },
    {
      "inputs": [
        {
          "internalType": "bytes32",
          "name": "role",
          "type": "bytes32"
        },
        {
          "internalType": "address",
          "name": "account",
          "type": "address"
        }
      ],
      "name": "hasRole",
      "outputs": [
        {
          "internalType": "bool",
          "name": "",
          "type": "bool"
        }
      ],
      "stateMutability": "view",
      "type": "function"
    },
    {
      "inputs": [],
      "name": "name",
      "outputs": [
        {
          "internalType": "string",
          "name": "",
          "type": "string"
        }
      ],
      "stateMutability": "view",
      "type": "function"
    },
    {
      "inputs": [
        {
          "internalType": "uint256",
          "name": "_amountIn",
          "type": "uint256"
        },
        {
          "internalType": "address",
          "name": "_tokenIn",
          "type": "address"
        },
        {
          "internalType": "address",
          "name": "_tokenOut",
          "type": "address"
        }
      ],
      "name": "query",
      "outputs": [
        {
          "internalType": "uint256",
          "name": "",
          "type": "uint256"
        }
      ],
      "stateMutability": "view",
      "type": "function"
    },
    {
      "inputs": [],
      "name": "quoter",
      "outputs": [
        {
          "internalType": "address",
          "name": "",
          "type": "address"
        }
      ],
      "stateMutability": "view",
      "type": "function"
    },
    {
      "inputs": [],
      "name": "quoterGasLimit",
      "outputs": [
        {
          "internalType": "uint256",
          "name": "",
          "type": "uint256"
        }
      ],
      "stateMutability": "view",
      "type": "function"
    },
    {
      "inputs": [
        {
          "internalType": "uint256",
          "name": "_amount",
          "type": "uint256"
        }
      ],
      "name": "recoverAVAX",
      "outputs": [],
      "stateMutability": "nonpayable",
      "type": "function"
    },
    {
      "inputs": [
        {
          "internalType": "address",
          "name": "_tokenAddress",
          "type": "address"
        },
        {
          "internalType": "uint256",
          "name": "_tokenAmount",
          "type": "uint256"
        }
      ],
      "name": "recoverERC20",
      "outputs": [],
      "stateMutability": "nonpayable",
      "type": "function"
    },
    {
      "inputs": [
        {
          "internalType": "address",
          "name": "removedMaintainer",
          "type": "address"
        }
      ],
      "name": "removeMaintainer",
      "outputs": [],
      "stateMutability": "nonpayable",
      "type": "function"
    },
    {
      "inputs": [
        {
          "internalType": "bytes32",
          "name": "role",
          "type": "bytes32"
        },
        {
          "internalType": "address",
          "name": "account",
          "type": "address"
        }
      ],
      "name": "renounceRole",
      "outputs": [],
      "stateMutability": "nonpayable",
      "type": "function"
    },
    {
      "inputs": [
        {
          "internalType": "bytes32",
          "name": "role",
          "type": "bytes32"
        }
      ],
      "name": "renounceRole",
      "outputs": [],
      "stateMutability": "nonpayable",
      "type": "function"
    },
    {
      "inputs": [
        {
          "internalType": "address",
          "name": "_token",
          "type": "address"
        },
        {
          "internalType": "address",
          "name": "_spender",
          "type": "address"
        }
      ],
      "name": "revokeAllowance",
      "outputs": [],
      "stateMutability": "nonpayable",
      "type": "function"
    },
    {
      "inputs": [
        {
          "internalType": "bytes32",
          "name": "role",
          "type": "bytes32"
        },
        {
          "internalType": "address",
          "name": "account",
          "type": "address"
        }
      ],
      "name": "revokeRole",
      "outputs": [],
      "stateMutability": "nonpayable",
      "type": "function"
    },
    {
      "inputs": [
        {
          "internalType": "address",
          "name": "newQuoter",
          "type": "address"
        }
      ],
      "name": "setQuoter",
      "outputs": [],
      "stateMutability": "nonpayable",
      "type": "function"
    },
    {
      "inputs": [
        {
          "internalType": "uint256",
          "name": "newLimit",
          "type": "uint256"
        }
      ],
      "name": "setQuoterGasLimit",
      "outputs": [],
      "stateMutability": "nonpayable",
      "type": "function"
    },
    {
      "inputs": [
        {
          "internalType": "uint256",
          "name": "_estimate",
          "type": "uint256"
        }
      ],
      "name": "setSwapGasEstimate",
      "outputs": [],
      "stateMutability": "nonpayable",
      "type": "function"
    },
    {
      "inputs": [
        {
          "internalType": "bytes4",
          "name": "interfaceId",
          "type": "bytes4"
        }
      ],
      "name": "supportsInterface",
      "outputs": [
        {
          "internalType": "bool",
          "name": "",
          "type": "bool"
        }
      ],
      "stateMutability": "view",
      "type": "function"
    },
    {
      "inputs": [
        {
          "internalType": "uint256",
          "name": "_amountIn",
          "type": "uint256"
        },
        {
          "internalType": "uint256",
          "name": "_amountOut",
          "type": "uint256"
        },
        {
          "internalType": "address",
          "name": "_fromToken",
          "type": "address"
        },
        {
          "internalType": "address",
          "name": "_toToken",
          "type": "address"
        },
        {
          "internalType": "address",
          "name": "_to",
          "type": "address"
        }
      ],
      "name": "swap",
      "outputs": [],
      "stateMutability": "nonpayable",
      "type": "function"
    },
    {
      "inputs": [],
      "name": "swapGasEstimate",
      "outputs": [
        {
          "internalType": "uint256",
          "name": "",
          "type": "uint256"
        }
      ],
      "stateMutability": "view",
      "type": "function"
    },
    {
      "inputs": [
        {
          "internalType": "address",
          "name": "newOwner",
          "type": "address"
        }
      ],
      "name": "transferOwnership",
      "outputs": [],
      "stateMutability": "nonpayable",
      "type": "function"
    },
    {
      "stateMutability": "payable",
      "type": "receive"
    }
  ],
  "transactionHash": "0xb5f7328706840e9426d60680e54730a31f235ae35179c8552b566203c9805cda",
  "args": [
    "QuickswapAdapter",
    250000,
    250000,
    "0xf558C5Bb5C77f658453dD4baF74B69F2aDd3d934",
    "0xd2480162Aa7F02Ead7BF4C127465446150D58452"
  ],
  "solcInputHash": "874d12ece4c919f2c3b425938ea86a63",
  "bytecode": "0x60a06040523480156200001157600080fd5b50604051620027883803806200278883398101604081905262000034916200040e565b848483858383600062000046620000bf565b905062000055600082620000c3565b620000706000805160206200276883398151915282620000c3565b506200007c82620000d3565b620000878162000112565b5062000095905081620001bf565b620000a0826200022d565b5050505060601b6001600160601b031916608052506200066092505050565b3390565b620000cf828262000298565b5050565b8051620000fd5760405162461bcd60e51b8152600401620000f4906200055f565b60405180910390fd5b8051620000cf9060029060208401906200034b565b60006200011e620000bf565b90506200013b600080516020620027688339815191528262000322565b6200015a5760405162461bcd60e51b8152600401620000f49062000517565b816200017a5760405162461bcd60e51b8152600401620000f490620005cd565b600182905560405130907ff43f23b7a28e6f8ce6843a21bd7b48bce778aa913b8c8cf459edf7d770e8d38a90620001b390859062000604565b60405180910390a25050565b6000620001cb620000bf565b9050620001e8600080516020620027688339815191528262000322565b620002075760405162461bcd60e51b8152600401620000f49062000517565b81620002275760405162461bcd60e51b8152600401620000f49062000596565b50600355565b600062000239620000bf565b905062000256600080516020620027688339815191528262000322565b620002755760405162461bcd60e51b8152600401620000f49062000517565b50600480546001600160a01b0319166001600160a01b0392909216919091179055565b620002a4828262000322565b620000cf576000828152602081815260408083206001600160a01b03851684529091529020805460ff19166001179055620002de620000bf565b6001600160a01b0316816001600160a01b0316837f2f8788117e7eff1d82e926ec794901d17c78024a50270940304540a733656f0d60405160405180910390a45050565b6000918252602082815260408084206001600160a01b0393909316845291905290205460ff1690565b82805462000359906200060d565b90600052602060002090601f0160209004810192826200037d5760008555620003c8565b82601f106200039857805160ff1916838001178555620003c8565b82800160010185558215620003c8579182015b82811115620003c8578251825591602001919060010190620003ab565b50620003d6929150620003da565b5090565b5b80821115620003d65760008155600101620003db565b80516001600160a01b03811681146200040957600080fd5b919050565b600080600080600060a0868803121562000426578081fd5b85516001600160401b03808211156200043d578283fd5b818801915088601f83011262000451578283fd5b8151818111156200046657620004666200064a565b6040516020601f8301601f19168201810184811183821017156200048e576200048e6200064a565b60405282825284830181018c1015620004a5578586fd5b8593505b82841015620004c85784840181015182850182015292830192620004a9565b82841115620004d957858184840101525b8a015160408b015191995097509550620004fb925050606088019050620003f1565b91506200050b60808701620003f1565b90509295509295909350565b60208082526028908201527f4d61696e7461696e61626c653a2043616c6c6572206973206e6f742061206d6160408201526734b73a30b4b732b960c11b606082015260800190565b60208082526014908201527f496e76616c69642061646170746572206e616d65000000000000000000000000604082015260600190565b6020808252601b908201527f71756572794761734c696d69742063616e2774206265207a65726f0000000000604082015260600190565b60208082526014908201527f496e76616c6964206761732d657374696d617465000000000000000000000000604082015260600190565b90815260200190565b6002810460018216806200062257607f821691505b602082108114156200064457634e487b7160e01b600052602260045260246000fd5b50919050565b634e487b7160e01b600052604160045260246000fd5b60805160601c6120e96200067f600039600061177801526120e96000f3fe6080604052600436106101a55760003560e01c80638980f11f116100e1578063d8baf7cf1161008a578063f2fde38b11610064578063f2fde38b14610479578063f35c4d4514610499578063f8742254146104b9578063f912c64b146104ce576101ac565b8063d8baf7cf14610419578063eab90da614610439578063ef99893a14610459576101ac565b8063a217fddf116100bb578063a217fddf146103c2578063c6bbd5a7146103d7578063d547741f146103f9576101ac565b80638980f11f146103625780638bb9c5bf1461038257806391d14854146103a2576101ac565b80632f2ff15d1161014e57806369cff80d1161012857806369cff80d146102ed5780636b453c1f146103025780637ae267731461032257806384a33e6314610342576101ac565b80632f2ff15d1461028d57806336568abe146102ad5780634ebb7916146102cd576101ac565b8063248a9ca31161017f578063248a9ca3146102365780632bc857a0146102565780632c8958f61461026b576101ac565b806301ffc9a7146101b157806305e3f4dc146101e757806306fdde0314610214576101ac565b366101ac57005b600080fd5b3480156101bd57600080fd5b506101d16101cc36600461196f565b6104ee565b6040516101de9190611c61565b60405180910390f35b3480156101f357600080fd5b50610207610202366004611896565b610532565b6040516101de9190611c6c565b34801561022057600080fd5b5061022961056b565b6040516101de9190611c75565b34801561024257600080fd5b50610207610251366004611933565b6105f9565b34801561026257600080fd5b5061020761060e565b34801561027757600080fd5b5061028b6102863660046119ba565b610614565b005b34801561029957600080fd5b5061028b6102a836600461194b565b61080b565b3480156102b957600080fd5b5061028b6102c836600461194b565b61082c565b3480156102d957600080fd5b5061028b6102e8366004611933565b61087b565b3480156102f957600080fd5b50610207610961565b34801561030e57600080fd5b5061028b61031d366004611826565b610967565b34801561032e57600080fd5b5061028b61033d36600461185e565b610994565b34801561034e57600080fd5b5061028b61035d366004611933565b6109fb565b34801561036e57600080fd5b5061028b61037d3660046118e8565b610aa1565b34801561038e57600080fd5b5061028b61039d366004611933565b610b6d565b3480156103ae57600080fd5b506101d16103bd36600461194b565b610b83565b3480156103ce57600080fd5b50610207610bac565b3480156103e357600080fd5b506103ec610bb1565b6040516101de9190611bb5565b34801561040557600080fd5b5061028b61041436600461194b565b610bc0565b34801561042557600080fd5b5061028b610434366004611826565b610bdc565b34801561044557600080fd5b5061028b610454366004611a8e565b610c06565b34801561046557600080fd5b50610207610474366004611a4d565b610c67565b34801561048557600080fd5b5061028b610494366004611826565b610c7c565b3480156104a557600080fd5b5061028b6104b4366004611933565b610c9e565b3480156104c557600080fd5b50610207610d13565b3480156104da57600080fd5b5061028b6104e9366004611826565b610d37565b60006001600160e01b031982167f7965db0b00000000000000000000000000000000000000000000000000000000148061052c575061052c82610dc4565b92915050565b600061053c6117ff565b604081018590526001600160a01b038085168252831660208201526105618682610df6565b9695505050505050565b600280546105789061201d565b80601f01602080910402602001604051908101604052809291908181526020018280546105a49061201d565b80156105f15780601f106105c6576101008083540402835291602001916105f1565b820191906000526020600020905b8154815290600101906020018083116105d457829003601f168201915b505050505081565b60009081526020819052604090206001015490565b60035481565b600084131561071357336001600160a01b0316630dfe16816040518163ffffffff1660e01b815260040160206040518083038186803b15801561065657600080fd5b505afa15801561066a573d6000803e3d6000fd5b505050506040513d601f19601f8201168201806040525081019061068e9190611842565b6001600160a01b031663a9059cbb33866040518363ffffffff1660e01b81526004016106bb929190611c48565b602060405180830381600087803b1580156106d557600080fd5b505af11580156106e9573d6000803e3d6000fd5b505050506040513d601f19601f8201168201806040525081019061070d9190611913565b50610805565b336001600160a01b031663d21220a76040518163ffffffff1660e01b815260040160206040518083038186803b15801561074c57600080fd5b505afa158015610760573d6000803e3d6000fd5b505050506040513d601f19601f820116820180604052508101906107849190611842565b6001600160a01b031663a9059cbb33856040518363ffffffff1660e01b81526004016107b1929190611c48565b602060405180830381600087803b1580156107cb57600080fd5b505af11580156107df573d6000803e3d6000fd5b505050506040513d601f19601f820116820180604052508101906108039190611913565b505b50505050565b610814826105f9565b61081d81610e4f565b6108278383610e60565b505050565b610834610ee5565b6001600160a01b0316816001600160a01b03161461086d5760405162461bcd60e51b815260040161086490611ee5565b60405180910390fd5b6108778282610ee9565b5050565b6000610885610ee5565b90506108b17f339759585899103d2ace64958e37e18ccb0504652c81d4a1b8aa80fe2126ab9582610b83565b6108cd5760405162461bcd60e51b815260040161086490611cf4565b600082116108ed5760405162461bcd60e51b815260040161086490611d51565b604051339083156108fc029084906000818181858888f1935050505015801561091a573d6000803e3d6000fd5b5060006001600160a01b03167f8c1256b8896378cd5044f80c202f9772b9d77dc85c8a6eb51967210b09bfaa28836040516109559190611c6c565b60405180910390a25050565b60015481565b6109917f339759585899103d2ace64958e37e18ccb0504652c81d4a1b8aa80fe2126ab958261080b565b50565b600061099e610ee5565b90506109ca7f339759585899103d2ace64958e37e18ccb0504652c81d4a1b8aa80fe2126ab9582610b83565b6109e65760405162461bcd60e51b815260040161086490611cf4565b6108276001600160a01b038416836000610f6c565b6000610a05610ee5565b9050610a317f339759585899103d2ace64958e37e18ccb0504652c81d4a1b8aa80fe2126ab9582610b83565b610a4d5760405162461bcd60e51b815260040161086490611cf4565b81610a6a5760405162461bcd60e51b815260040161086490611df4565b600182905560405130907ff43f23b7a28e6f8ce6843a21bd7b48bce778aa913b8c8cf459edf7d770e8d38a90610955908590611c6c565b6000610aab610ee5565b9050610ad77f339759585899103d2ace64958e37e18ccb0504652c81d4a1b8aa80fe2126ab9582610b83565b610af35760405162461bcd60e51b815260040161086490611cf4565b60008211610b135760405162461bcd60e51b815260040161086490611d51565b610b276001600160a01b0384163384611094565b826001600160a01b03167f8c1256b8896378cd5044f80c202f9772b9d77dc85c8a6eb51967210b09bfaa2883604051610b609190611c6c565b60405180910390a2505050565b6000610b77610ee5565b9050610877828261082c565b6000918252602082815260408084206001600160a01b0393909316845291905290205460ff1690565b600081565b6004546001600160a01b031681565b610bc9826105f9565b610bd281610e4f565b6108278383610ee9565b6109917f339759585899103d2ace64958e37e18ccb0504652c81d4a1b8aa80fe2126ab9582610bc0565b610c1385858585856110b3565b816001600160a01b0316836001600160a01b03167fe2bdbc6b7225eb0a972ac943c485a6cc05f7c6811838bce8903f23200fb744fa8787604051610c58929190611f42565b60405180910390a35050505050565b6000610c74848484611115565b949350505050565b6000610c86610ee5565b9050610c9360008361080b565b61087760008261082c565b6000610ca8610ee5565b9050610cd47f339759585899103d2ace64958e37e18ccb0504652c81d4a1b8aa80fe2126ab9582610b83565b610cf05760405162461bcd60e51b815260040161086490611cf4565b81610d0d5760405162461bcd60e51b815260040161086490611dbd565b50600355565b7f339759585899103d2ace64958e37e18ccb0504652c81d4a1b8aa80fe2126ab9581565b6000610d41610ee5565b9050610d6d7f339759585899103d2ace64958e37e18ccb0504652c81d4a1b8aa80fe2126ab9582610b83565b610d895760405162461bcd60e51b815260040161086490611cf4565b50600480547fffffffffffffffffffffffff0000000000000000000000000000000000000000166001600160a01b0392909216919091179055565b6001600160e01b031981167f01ffc9a70000000000000000000000000000000000000000000000000000000014919050565b6000806000610e0d84600001518560200151611137565b91509150600080610e24878588604001518661118a565b9150915083610e3b57610e3682612052565b610e44565b610e4481612052565b979650505050505050565b61099181610e5b610ee5565b61123c565b610e6a8282610b83565b610877576000828152602081815260408083206001600160a01b03851684529091529020805460ff19166001179055610ea1610ee5565b6001600160a01b0316816001600160a01b0316837f2f8788117e7eff1d82e926ec794901d17c78024a50270940304540a733656f0d60405160405180910390a45050565b3390565b610ef38282610b83565b15610877576000828152602081815260408083206001600160a01b03851684529091529020805460ff19169055610f28610ee5565b6001600160a01b0316816001600160a01b0316837ff6391f5c32d9c69d2a47ea670b442974b53935d1edc7fd64eb21e047a839171b60405160405180910390a45050565b80158061100d57506040517fdd62ed3e0000000000000000000000000000000000000000000000000000000081526001600160a01b0384169063dd62ed3e90610fbb9030908690600401611bc9565b60206040518083038186803b158015610fd357600080fd5b505afa158015610fe7573d6000803e3d6000fd5b505050506040513d601f19601f8201168201806040525081019061100b9190611a35565b155b6110295760405162461bcd60e51b815260040161086490611e88565b6108278363095ea7b360e01b8484604051602401611048929190611c48565b60408051601f198184030181529190526020810180517bffffffffffffffffffffffffffffffffffffffffffffffffffffffff166001600160e01b0319909316929092179091526112a0565b6108278363a9059cbb60e01b8484604051602401611048929190611c48565b60006110c0868585611356565b60408051600080825260208201909252919250906110df908390611390565b9050858110156111015760405162461bcd60e51b815260040161086490611cbd565b61110c848285611478565b50505050505050565b600080611123858585611356565b905061112e8161149c565b95945050505050565b6001600160a01b03808216908316106000816111715761116c600173fffd8963efd1fc6a506488495d951d5263988d26611fb2565b611181565b6111816401000276a36001611f50565b90509250929050565b6000806000868686866040516024016111a69493929190611be3565b60408051601f198184030181529190526020810180517bffffffffffffffffffffffffffffffffffffffffffffffffffffffff167f90405d3600000000000000000000000000000000000000000000000000000000179052905060008061120c836114d5565b915091508115611230578080602001905181019061122a9190611997565b90955093505b50505094509492505050565b6112468282610b83565b6108775761125e816001600160a01b03166014611547565b611269836020611547565b60405160200161127a929190611b34565b60408051601f198184030181529082905262461bcd60e51b825261086491600401611c75565b600080836001600160a01b0316836040516112bb9190611b18565b6000604051808303816000865af19150503d80600081146112f8576040519150601f19603f3d011682016040523d82523d6000602084013e6112fd565b606091505b50915091508161131f5760405162461bcd60e51b815260040161086490611d88565b805115610805578080602001905181019061133a9190611913565b6108055760405162461bcd60e51b815260040161086490611e2b565b61135e6117ff565b50604080516080810182526001600160a01b039384168152919092166020820152908101919091526000606082015290565b6000806113a584600001518560200151611745565b90506000806113bc86600001518760200151611137565b91509150600080846001600160a01b031663128acb0830868b60400151878c6040518663ffffffff1660e01b81526004016113fb959493929190611c0e565b6040805180830381600087803b15801561141457600080fd5b505af1158015611428573d6000803e3d6000fd5b505050506040513d601f19601f8201168201806040525081019061144c9190611997565b91509150836114635761145e82612052565b61146c565b61146c81612052565b98975050505050505050565b306001600160a01b03821614610827576108276001600160a01b0384168284611094565b6000806114b183600001518460200151611745565b90506001600160a01b038116156114cf576114cc8184610df6565b91505b50919050565b6004546003546040516000926060926001600160a01b03909116916114fb908690611b18565b6000604051808303818686fa925050503d8060008114611537576040519150601f19603f3d011682016040523d82523d6000602084013e61153c565b606091505b509094909350915050565b60606000611556836002611f93565b611561906002611f7b565b67ffffffffffffffff81111561158757634e487b7160e01b600052604160045260246000fd5b6040519080825280601f01601f1916602001820160405280156115b1576020820181803683370190505b5090507f3000000000000000000000000000000000000000000000000000000000000000816000815181106115f657634e487b7160e01b600052603260045260246000fd5b60200101906001600160f81b031916908160001a9053507f78000000000000000000000000000000000000000000000000000000000000008160018151811061164f57634e487b7160e01b600052603260045260246000fd5b60200101906001600160f81b031916908160001a9053506000611673846002611f93565b61167e906001611f7b565b90505b600181111561171f577f303132333435363738396162636465660000000000000000000000000000000085600f16601081106116cd57634e487b7160e01b600052603260045260246000fd5b1a60f81b8282815181106116f157634e487b7160e01b600052603260045260246000fd5b60200101906001600160f81b031916908160001a90535060049490941c9361171881612006565b9050611681565b50831561173e5760405162461bcd60e51b815260040161086490611c88565b9392505050565b6040517fd9a641e10000000000000000000000000000000000000000000000000000000081526000906001600160a01b037f0000000000000000000000000000000000000000000000000000000000000000169063d9a641e1906117af9086908690600401611bc9565b60206040518083038186803b1580156117c757600080fd5b505afa1580156117db573d6000803e3d6000fd5b505050506040513d601f19601f8201168201806040525081019061173e9190611842565b60408051608081018252600080825260208201819052918101829052606081019190915290565b600060208284031215611837578081fd5b813561173e8161209e565b600060208284031215611853578081fd5b815161173e8161209e565b60008060408385031215611870578081fd5b823561187b8161209e565b9150602083013561188b8161209e565b809150509250929050565b600080600080608085870312156118ab578182fd5b84356118b68161209e565b93506020850135925060408501356118cd8161209e565b915060608501356118dd8161209e565b939692955090935050565b600080604083850312156118fa578182fd5b82356119058161209e565b946020939093013593505050565b600060208284031215611924578081fd5b8151801515811461173e578182fd5b600060208284031215611944578081fd5b5035919050565b6000806040838503121561195d578182fd5b82359150602083013561188b8161209e565b600060208284031215611980578081fd5b81356001600160e01b03198116811461173e578182fd5b600080604083850312156119a9578182fd5b505080516020909101519092909150565b600080600080606085870312156119cf578384fd5b8435935060208501359250604085013567ffffffffffffffff808211156119f4578384fd5b818701915087601f830112611a07578384fd5b813581811115611a15578485fd5b886020828501011115611a26578485fd5b95989497505060200194505050565b600060208284031215611a46578081fd5b5051919050565b600080600060608486031215611a61578283fd5b833592506020840135611a738161209e565b91506040840135611a838161209e565b809150509250925092565b600080600080600060a08688031215611aa5578283fd5b85359450602086013593506040860135611abe8161209e565b92506060860135611ace8161209e565b91506080860135611ade8161209e565b809150509295509295909350565b60008151808452611b04816020860160208601611fda565b601f01601f19169290920160200192915050565b60008251611b2a818460208701611fda565b9190910192915050565b60007f416363657373436f6e74726f6c3a206163636f756e742000000000000000000082528351611b6c816017850160208801611fda565b7f206973206d697373696e6720726f6c65200000000000000000000000000000006017918401918201528351611ba9816028840160208801611fda565b01602801949350505050565b6001600160a01b0391909116815260200190565b6001600160a01b0392831681529116602082015260400190565b6001600160a01b03948516815292151560208401526040830191909152909116606082015260800190565b60006001600160a01b038088168352861515602084015285604084015280851660608401525060a06080830152610e4460a0830184611aec565b6001600160a01b03929092168252602082015260400190565b901515815260200190565b90815260200190565b60006020825261173e6020830184611aec565b6020808252818101527f537472696e67733a20686578206c656e67746820696e73756666696369656e74604082015260600190565b60208082526016908201527f496e73756666696369656e7420616d6f756e744f757400000000000000000000604082015260600190565b60208082526028908201527f4d61696e7461696e61626c653a2043616c6c6572206973206e6f742061206d6160408201527f696e7461696e6572000000000000000000000000000000000000000000000000606082015260800190565b6020808252601e908201527f59616b416461707465723a204e6f7468696e6720746f207265636f7665720000604082015260600190565b6020808252818101527f5361666545524332303a206c6f772d6c6576656c2063616c6c206661696c6564604082015260600190565b6020808252601b908201527f71756572794761734c696d69742063616e2774206265207a65726f0000000000604082015260600190565b60208082526014908201527f496e76616c6964206761732d657374696d617465000000000000000000000000604082015260600190565b6020808252602a908201527f5361666545524332303a204552433230206f7065726174696f6e20646964206e60408201527f6f74207375636365656400000000000000000000000000000000000000000000606082015260800190565b60208082526036908201527f5361666545524332303a20617070726f76652066726f6d206e6f6e2d7a65726f60408201527f20746f206e6f6e2d7a65726f20616c6c6f77616e636500000000000000000000606082015260800190565b6020808252602f908201527f416363657373436f6e74726f6c3a2063616e206f6e6c792072656e6f756e636560408201527f20726f6c657320666f722073656c660000000000000000000000000000000000606082015260800190565b918252602082015260400190565b60006001600160a01b03808316818516808303821115611f7257611f72612088565b01949350505050565b60008219821115611f8e57611f8e612088565b500190565b6000816000190483118215151615611fad57611fad612088565b500290565b60006001600160a01b0383811690831681811015611fd257611fd2612088565b039392505050565b60005b83811015611ff5578181015183820152602001611fdd565b838111156108055750506000910152565b60008161201557612015612088565b506000190190565b60028104600182168061203157607f821691505b602082108114156114cf57634e487b7160e01b600052602260045260246000fd5b60007f800000000000000000000000000000000000000000000000000000000000000082141561208457612084612088565b0390565b634e487b7160e01b600052601160045260246000fd5b6001600160a01b038116811461099157600080fdfea26469706673582212207cd1e18812f072220a2cda2c96722cf7ee2c3b3ea7fcf0dc815e2c891734183d64736f6c63430008000033339759585899103d2ace64958e37e18ccb0504652c81d4a1b8aa80fe2126ab95",
  "devdoc": {
    "kind": "dev",
    "methods": {
      "getRoleAdmin(bytes32)": {
        "details": "Returns the admin role that controls `role`. See {grantRole} and {revokeRole}. To change a role's admin, use {_setRoleAdmin}."
      },
      "grantRole(bytes32,address)": {
        "details": "Grants `role` to `account`. If `account` had not been already granted `role`, emits a {RoleGranted} event. Requirements: - the caller must have ``role``'s admin role. May emit a {RoleGranted} event."
      },
      "hasRole(bytes32,address)": {
        "details": "Returns `true` if `account` has been granted `role`."
      },
      "renounceRole(bytes32,address)": {
        "details": "Revokes `role` from the calling account. Roles are often managed via {grantRole} and {revokeRole}: this function's purpose is to provide a mechanism for accounts to lose their privileges if they are compromised (such as when a trusted device is misplaced). If the calling account had been revoked `role`, emits a {RoleRevoked} event. Requirements: - the caller must be `account`. May emit a {RoleRevoked} event."
      },
      "revokeRole(bytes32,address)": {
        "details": "Revokes `role` from `account`. If `account` had been granted `role`, emits a {RoleRevoked} event. Requirements: - the caller must have ``role``'s admin role. May emit a {RoleRevoked} event."
      },
      "supportsInterface(bytes4)": {
        "details": "See {IERC165-supportsInterface}."
      }
    },
    "version": 1
  },
  "userdoc": {
    "kind": "user",
    "methods": {},
    "version": 1
  },
  "storageLayout": {
    "storage": [
      {
        "astId": 24,
        "contract": "src/contracts/adapters/AlgebraAdapter.sol:AlgebraAdapter",
        "label": "_roles",
        "offset": 0,
        "slot": "0",
        "type": "t_mapping(t_bytes32,t_struct(RoleData)19_storage)"
      },
      {
        "astId": 1452,
        "contract": "src/contracts/adapters/AlgebraAdapter.sol:AlgebraAdapter",
        "label": "swapGasEstimate",
        "offset": 0,
        "slot": "1",
        "type": "t_uint256"
      },
      {
        "astId": 1454,
        "contract": "src/contracts/adapters/AlgebraAdapter.sol:AlgebraAdapter",
        "label": "name",
        "offset": 0,
        "slot": "2",
        "type": "t_string_storage"
      },
      {
        "astId": 12394,
        "contract": "src/contracts/adapters/AlgebraAdapter.sol:AlgebraAdapter",
        "label": "quoterGasLimit",
        "offset": 0,
        "slot": "3",
        "type": "t_uint256"
      },
      {
        "astId": 12396,
        "contract": "src/contracts/adapters/AlgebraAdapter.sol:AlgebraAdapter",
        "label": "quoter",
        "offset": 0,
        "slot": "4",
        "type": "t_address"
      }
    ],
    "types": {
      "t_address": {
        "encoding": "inplace",
        "label": "address",
        "numberOfBytes": "20"
      },
      "t_bool": {
        "encoding": "inplace",
        "label": "bool",
        "numberOfBytes": "1"
      },
      "t_bytes32": {
        "encoding": "inplace",
        "label": "bytes32",
        "numberOfBytes": "32"
      },
      "t_mapping(t_address,t_bool)": {
        "encoding": "mapping",
        "key": "t_address",
        "label": "mapping(address => bool)",
        "numberOfBytes": "32",
        "value": "t_bool"
      },
      "t_mapping(t_bytes32,t_struct(RoleData)19_storage)": {
        "encoding": "mapping",
        "key": "t_bytes32",
        "label": "mapping(bytes32 => struct AccessControl.RoleData)",
        "numberOfBytes": "32",
        "value": "t_struct(RoleData)19_storage"
      },
      "t_string_storage": {
        "encoding": "bytes",
        "label": "string",
        "numberOfBytes": "32"
      },
      "t_struct(RoleData)19_storage": {
        "encoding": "inplace",
        "label": "struct AccessControl.RoleData",
        "members": [
          {
            "astId": 16,
            "contract": "src/contracts/adapters/AlgebraAdapter.sol:AlgebraAdapter",
            "label": "members",
            "offset": 0,
            "slot": "0",
            "type": "t_mapping(t_address,t_bool)"
          },
          {
            "astId": 18,
            "contract": "src/contracts/adapters/AlgebraAdapter.sol:AlgebraAdapter",
            "label": "adminRole",
            "offset": 0,
            "slot": "1",
            "type": "t_bytes32"
          }
        ],
        "numberOfBytes": "64"
      },
      "t_uint256": {
        "encoding": "inplace",
        "label": "uint256",
        "numberOfBytes": "32"
      }
    }
  }
}