{
  "abi": [
    {
      "inputs": [
        {
          "internalType": "string",
          "name": "_name",
          "type": "string"
        },
        {
          "internalType": "uint256",
          "name": "_swapGasEstimate",
          "type": "uint256"
        },
        {
          "internalType": "uint256",
          "name": "_quoterGasLimit",
          "type": "uint256"
        },
        {
          "internalType": "address",
          "name": "_quoter",
          "type": "address"
        },
        {
          "internalType": "address[]",
          "name": "_whitelistedPools",
          "type": "address[]"
        }
      ],
      "stateMutability": "nonpayable",
      "type": "constructor"
    },
    {
      "anonymous": false,
      "inputs": [
        {
          "indexed": true,
          "internalType": "address",
          "name": "_asset",
          "type": "address"
        },
        {
          "indexed": false,
          "internalType": "uint256",
          "name": "amount",
          "type": "uint256"
        }
      ],
      "name": "Recovered",
      "type": "event"
    },
    {
      "anonymous": false,
      "inputs": [
        {
          "indexed": true,
          "internalType": "bytes32",
          "name": "role",
          "type": "bytes32"
        },
        {
          "indexed": true,
          "internalType": "bytes32",
          "name": "previousAdminRole",
          "type": "bytes32"
        },
        {
          "indexed": true,
          "internalType": "bytes32",
          "name": "newAdminRole",
          "type": "bytes32"
        }
      ],
      "name": "RoleAdminChanged",
      "type": "event"
    },
    {
      "anonymous": false,
      "inputs": [
        {
          "indexed": true,
          "internalType": "bytes32",
          "name": "role",
          "type": "bytes32"
        },
        {
          "indexed": true,
          "internalType": "address",
          "name": "account",
          "type": "address"
        },
        {
          "indexed": true,
          "internalType": "address",
          "name": "sender",
          "type": "address"
        }
      ],
      "name": "RoleGranted",
      "type": "event"
    },
    {
      "anonymous": false,
      "inputs": [
        {
          "indexed": true,
          "internalType": "bytes32",
          "name": "role",
          "type": "bytes32"
        },
        {
          "indexed": true,
          "internalType": "address",
          "name": "account",
          "type": "address"
        },
        {
          "indexed": true,
          "internalType": "address",
          "name": "sender",
          "type": "address"
        }
      ],
      "name": "RoleRevoked",
      "type": "event"
    },
    {
      "anonymous": false,
      "inputs": [
        {
          "indexed": true,
          "internalType": "address",
          "name": "_adapter",
          "type": "address"
        },
        {
          "indexed": false,
          "internalType": "uint256",
          "name": "_newEstimate",
          "type": "uint256"
        }
      ],
      "name": "UpdatedGasEstimate",
      "type": "event"
    },
    {
      "anonymous": false,
      "inputs": [
        {
          "indexed": true,
          "internalType": "address",
          "name": "_tokenFrom",
          "type": "address"
        },
        {
          "indexed": true,
          "internalType": "address",
          "name": "_tokenTo",
          "type": "address"
        },
        {
          "indexed": false,
          "internalType": "uint256",
          "name": "_amountIn",
          "type": "uint256"
        },
        {
          "indexed": false,
          "internalType": "uint256",
          "name": "_amountOut",
          "type": "uint256"
        }
      ],
      "name": "YakAdapterSwap",
      "type": "event"
    },
    {
      "inputs": [],
      "name": "DEFAULT_ADMIN_ROLE",
      "outputs": [
        {
          "internalType": "bytes32",
          "name": "",
          "type": "bytes32"
        }
      ],
      "stateMutability": "view",
      "type": "function"
    },
    {
      "inputs": [],
      "name": "MAINTAINER_ROLE",
      "outputs": [
        {
          "internalType": "bytes32",
          "name": "",
          "type": "bytes32"
        }
      ],
      "stateMutability": "view",
      "type": "function"
    },
    {
      "inputs": [
        {
          "internalType": "address",
          "name": "addedMaintainer",
          "type": "address"
        }
      ],
      "name": "addMaintainer",
      "outputs": [],
      "stateMutability": "nonpayable",
      "type": "function"
    },
    {
      "inputs": [
        {
          "internalType": "address[]",
          "name": "pools",
          "type": "address[]"
        }
      ],
      "name": "addPoolsToWL",
      "outputs": [],
      "stateMutability": "nonpayable",
      "type": "function"
    },
    {
      "inputs": [
        {
          "internalType": "address",
          "name": "pool",
          "type": "address"
        },
        {
          "internalType": "int256",
          "name": "amountIn",
          "type": "int256"
        },
        {
          "internalType": "address",
          "name": "tokenIn",
          "type": "address"
        },
        {
          "internalType": "address",
          "name": "tokenOut",
          "type": "address"
        }
      ],
      "name": "getQuoteForPool",
      "outputs": [
        {
          "internalType": "uint256",
          "name": "",
          "type": "uint256"
        }
      ],
      "stateMutability": "view",
      "type": "function"
    },
    {
      "inputs": [
        {
          "internalType": "bytes32",
          "name": "role",
          "type": "bytes32"
        }
      ],
      "name": "getRoleAdmin",
      "outputs": [
        {
          "internalType": "bytes32",
          "name": "",
          "type": "bytes32"
        }
      ],
      "stateMutability": "view",
      "type": "function"
    },
    {
      "inputs": [
        {
          "internalType": "bytes32",
          "name": "role",
          "type": "bytes32"
        },
        {
          "internalType": "address",
          "name": "account",
          "type": "address"
        }
      ],
      "name": "grantRole",
      "outputs": [],
      "stateMutability": "nonpayable",
      "type": "function"
    },
    {
      "inputs": [
        {
          "internalType": "bytes32",
          "name": "role",
          "type": "bytes32"
        },
        {
          "internalType": "address",
          "name": "account",
          "type": "address"
        }
      ],
      "name": "hasRole",
      "outputs": [
        {
          "internalType": "bool",
          "name": "",
          "type": "bool"
        }
      ],
      "stateMutability": "view",
      "type": "function"
    },
    {
      "inputs": [],
      "name": "name",
      "outputs": [
        {
          "internalType": "string",
          "name": "",
          "type": "string"
        }
      ],
      "stateMutability": "view",
      "type": "function"
    },
    {
      "inputs": [
        {
          "internalType": "uint256",
          "name": "_amountIn",
          "type": "uint256"
        },
        {
          "internalType": "address",
          "name": "_tokenIn",
          "type": "address"
        },
        {
          "internalType": "address",
          "name": "_tokenOut",
          "type": "address"
        }
      ],
      "name": "query",
      "outputs": [
        {
          "internalType": "uint256",
          "name": "",
          "type": "uint256"
        }
      ],
      "stateMutability": "view",
      "type": "function"
    },
    {
      "inputs": [],
      "name": "quoter",
      "outputs": [
        {
          "internalType": "address",
          "name": "",
          "type": "address"
        }
      ],
      "stateMutability": "view",
      "type": "function"
    },
    {
      "inputs": [],
      "name": "quoterGasLimit",
      "outputs": [
        {
          "internalType": "uint256",
          "name": "",
          "type": "uint256"
        }
      ],
      "stateMutability": "view",
      "type": "function"
    },
    {
      "inputs": [
        {
          "internalType": "uint256",
          "name": "_amount",
          "type": "uint256"
        }
      ],
      "name": "recoverAVAX",
      "outputs": [],
      "stateMutability": "nonpayable",
      "type": "function"
    },
    {
      "inputs": [
        {
          "internalType": "address",
          "name": "_tokenAddress",
          "type": "address"
        },
        {
          "internalType": "uint256",
          "name": "_tokenAmount",
          "type": "uint256"
        }
      ],
      "name": "recoverERC20",
      "outputs": [],
      "stateMutability": "nonpayable",
      "type": "function"
    },
    {
      "inputs": [
        {
          "internalType": "address",
          "name": "removedMaintainer",
          "type": "address"
        }
      ],
      "name": "removeMaintainer",
      "outputs": [],
      "stateMutability": "nonpayable",
      "type": "function"
    },
    {
      "inputs": [
        {
          "internalType": "bytes32",
          "name": "role",
          "type": "bytes32"
        },
        {
          "internalType": "address",
          "name": "account",
          "type": "address"
        }
      ],
      "name": "renounceRole",
      "outputs": [],
      "stateMutability": "nonpayable",
      "type": "function"
    },
    {
      "inputs": [
        {
          "internalType": "bytes32",
          "name": "role",
          "type": "bytes32"
        }
      ],
      "name": "renounceRole",
      "outputs": [],
      "stateMutability": "nonpayable",
      "type": "function"
    },
    {
      "inputs": [
        {
          "internalType": "address",
          "name": "_token",
          "type": "address"
        },
        {
          "internalType": "address",
          "name": "_spender",
          "type": "address"
        }
      ],
      "name": "revokeAllowance",
      "outputs": [],
      "stateMutability": "nonpayable",
      "type": "function"
    },
    {
      "inputs": [
        {
          "internalType": "bytes32",
          "name": "role",
          "type": "bytes32"
        },
        {
          "internalType": "address",
          "name": "account",
          "type": "address"
        }
      ],
      "name": "revokeRole",
      "outputs": [],
      "stateMutability": "nonpayable",
      "type": "function"
    },
    {
      "inputs": [
        {
          "internalType": "address[]",
          "name": "pools",
          "type": "address[]"
        }
      ],
      "name": "rmPoolsFromWL",
      "outputs": [],
      "stateMutability": "nonpayable",
      "type": "function"
    },
    {
      "inputs": [
        {
          "internalType": "address",
          "name": "newQuoter",
          "type": "address"
        }
      ],
      "name": "setQuoter",
      "outputs": [],
      "stateMutability": "nonpayable",
      "type": "function"
    },
    {
      "inputs": [
        {
          "internalType": "uint256",
          "name": "newLimit",
          "type": "uint256"
        }
      ],
      "name": "setQuoterGasLimit",
      "outputs": [],
      "stateMutability": "nonpayable",
      "type": "function"
    },
    {
      "inputs": [
        {
          "internalType": "uint256",
          "name": "_estimate",
          "type": "uint256"
        }
      ],
      "name": "setSwapGasEstimate",
      "outputs": [],
      "stateMutability": "nonpayable",
      "type": "function"
    },
    {
      "inputs": [
        {
          "internalType": "bytes4",
          "name": "interfaceId",
          "type": "bytes4"
        }
      ],
      "name": "supportsInterface",
      "outputs": [
        {
          "internalType": "bool",
          "name": "",
          "type": "bool"
        }
      ],
      "stateMutability": "view",
      "type": "function"
    },
    {
      "inputs": [
        {
          "internalType": "uint256",
          "name": "_amountIn",
          "type": "uint256"
        },
        {
          "internalType": "uint256",
          "name": "_amountOut",
          "type": "uint256"
        },
        {
          "internalType": "address",
          "name": "_fromToken",
          "type": "address"
        },
        {
          "internalType": "address",
          "name": "_toToken",
          "type": "address"
        },
        {
          "internalType": "address",
          "name": "_to",
          "type": "address"
        }
      ],
      "name": "swap",
      "outputs": [],
      "stateMutability": "nonpayable",
      "type": "function"
    },
    {
      "inputs": [
        {
          "internalType": "int256",
          "name": "amount0Delta",
          "type": "int256"
        },
        {
          "internalType": "int256",
          "name": "amount1Delta",
          "type": "int256"
        },
        {
          "internalType": "bytes",
          "name": "",
          "type": "bytes"
        }
      ],
      "name": "swapCallback",
      "outputs": [],
      "stateMutability": "nonpayable",
      "type": "function"
    },
    {
      "inputs": [],
      "name": "swapGasEstimate",
      "outputs": [
        {
          "internalType": "uint256",
          "name": "",
          "type": "uint256"
        }
      ],
      "stateMutability": "view",
      "type": "function"
    },
    {
      "inputs": [
        {
          "internalType": "address",
          "name": "",
          "type": "address"
        },
        {
          "internalType": "address",
          "name": "",
          "type": "address"
        }
      ],
      "name": "tknsToPoolWL",
      "outputs": [
        {
          "internalType": "address",
          "name": "",
          "type": "address"
        }
      ],
      "stateMutability": "view",
      "type": "function"
    },
    {
      "inputs": [
        {
          "internalType": "address",
          "name": "newOwner",
          "type": "address"
        }
      ],
      "name": "transferOwnership",
      "outputs": [],
      "stateMutability": "nonpayable",
      "type": "function"
    },
    {
      "stateMutability": "payable",
      "type": "receive"
    }
  ],
  "bytecode": {
    "object": "0x60806040523480156200001157600080fd5b5060405162002d3538038062002d35833981016040819052620000349162000712565b8484838583833362000048600082620000c4565b620000747f339759585899103d2ace64958e37e18ccb0504652c81d4a1b8aa80fe2126ab9582620000c4565b506200008082620000d4565b6200008b8162000139565b506200009990508162000238565b620000a482620002ff565b50505050620000b9816200039160201b60201c565b5050505050620009d1565b620000d0828262000452565b5050565b80516000036200012b5760405162461bcd60e51b815260206004820152601460248201527f496e76616c69642061646170746572206e616d6500000000000000000000000060448201526064015b60405180910390fd5b6002620000d08282620008a2565b33600081815260008051602062002cf5833981519152602052604090205460ff16620001a85760405162461bcd60e51b8152602060048201526028602482015260008051602062002d1583398151915260448201526734b73a30b4b732b960c11b606482015260840162000122565b81600003620001fa5760405162461bcd60e51b815260206004820152601460248201527f496e76616c6964206761732d657374696d617465000000000000000000000000604482015260640162000122565b600182905560405182815230907ff43f23b7a28e6f8ce6843a21bd7b48bce778aa913b8c8cf459edf7d770e8d38a9060200160405180910390a25050565b33600081815260008051602062002cf5833981519152602052604090205460ff16620002a75760405162461bcd60e51b8152602060048201526028602482015260008051602062002d1583398151915260448201526734b73a30b4b732b960c11b606482015260840162000122565b81600003620002f95760405162461bcd60e51b815260206004820152601b60248201527f71756572794761734c696d69742063616e2774206265207a65726f0000000000604482015260640162000122565b50600355565b33600081815260008051602062002cf5833981519152602052604090205460ff166200036e5760405162461bcd60e51b8152602060048201526028602482015260008051602062002d1583398151915260448201526734b73a30b4b732b960c11b606482015260840162000122565b50600480546001600160a01b0319166001600160a01b0392909216919091179055565b33600081815260008051602062002cf5833981519152602052604090205460ff16620004005760405162461bcd60e51b8152602060048201526028602482015260008051602062002d1583398151915260448201526734b73a30b4b732b960c11b606482015260840162000122565b60005b82518110156200044d576200043a8382815181106200042657620004266200096e565b6020026020010151620004f260201b60201c565b620004458162000984565b905062000403565b505050565b6000828152602081815260408083206001600160a01b038516845290915290205460ff16620000d0576000828152602081815260408083206001600160a01b03851684529091529020805460ff19166001179055620004ae3390565b6001600160a01b0316816001600160a01b0316837f2f8788117e7eff1d82e926ec794901d17c78024a50270940304540a733656f0d60405160405180910390a45050565b6000816001600160a01b0316630dfe16816040518163ffffffff1660e01b8152600401602060405180830381865afa15801562000533573d6000803e3d6000fd5b505050506040513d601f19601f82011682018060405250810190620005599190620009ac565b90506000826001600160a01b031663d21220a76040518163ffffffff1660e01b8152600401602060405180830381865afa1580156200059c573d6000803e3d6000fd5b505050506040513d601f19601f82011682018060405250810190620005c29190620009ac565b6001600160a01b03928316600081815260056020818152604080842095881684529481528483208054979098166001600160a01b0319978816811790985590815283822092825291909152208054909216909217905550565b634e487b7160e01b600052604160045260246000fd5b604051601f8201601f191681016001600160401b03811182821017156200065c576200065c6200061b565b604052919050565b80516001600160a01b03811681146200067c57600080fd5b919050565b600082601f8301126200069357600080fd5b815160206001600160401b03821115620006b157620006b16200061b565b8160051b620006c282820162000631565b9283528481018201928281019087851115620006dd57600080fd5b83870192505b848310156200070757620006f78362000664565b82529183019190830190620006e3565b979650505050505050565b600080600080600060a086880312156200072b57600080fd5b85516001600160401b03808211156200074357600080fd5b818801915088601f8301126200075857600080fd5b8151818111156200076d576200076d6200061b565b602062000783601f8301601f1916820162000631565b8281528b828487010111156200079857600080fd5b60005b83811015620007b85785810183015182820184015282016200079b565b50600092810182019290925289015160408a015191985096509450620007e16060890162000664565b93506080880151915080821115620007f857600080fd5b50620008078882890162000681565b9150509295509295909350565b600181811c908216806200082957607f821691505b6020821081036200084a57634e487b7160e01b600052602260045260246000fd5b50919050565b601f8211156200044d57600081815260208120601f850160051c81016020861015620008795750805b601f850160051c820191505b818110156200089a5782815560010162000885565b505050505050565b81516001600160401b03811115620008be57620008be6200061b565b620008d681620008cf845462000814565b8462000850565b602080601f8311600181146200090e5760008415620008f55750858301515b600019600386901b1c1916600185901b1785556200089a565b600085815260208120601f198616915b828110156200093f578886015182559484019460019091019084016200091e565b50858210156200095e5787850151600019600388901b60f8161c191681555b5050505050600190811b01905550565b634e487b7160e01b600052603260045260246000fd5b600060018201620009a557634e487b7160e01b600052601160045260246000fd5b5060010190565b600060208284031215620009bf57600080fd5b620009ca8262000664565b9392505050565b61231480620009e16000396000f3fe6080604052600436106101c65760003560e01c80638bb9c5bf116100f7578063eab90da611610095578063f35c4d4511610064578063f35c4d4514610543578063f874225414610563578063f912c64b14610585578063fa483e72146105a557600080fd5b8063eab90da6146104c3578063ef99893a146104e3578063f06c21eb14610503578063f2fde38b1461052357600080fd5b8063c6bbd5a7116100d1578063c6bbd5a71461040a578063d547741f14610442578063d7e9444914610462578063d8baf7cf146104a357600080fd5b80638bb9c5bf146103b557806391d14854146103d5578063a217fddf146103f557600080fd5b806336568abe116101645780636b453c1f1161013e5780636b453c1f146103355780637ae267731461035557806384a33e63146103755780638980f11f1461039557600080fd5b806336568abe146102df5780634ebb7916146102ff57806369cff80d1461031f57600080fd5b8063248a9ca3116101a0578063248a9ca3146102575780632bc857a0146102875780632f2ff15d1461029d57806335f7c24d146102bf57600080fd5b806301ffc9a7146101d257806305e3f4dc1461020757806306fdde031461023557600080fd5b366101cd57005b600080fd5b3480156101de57600080fd5b506101f26101ed366004611c49565b6105c5565b60405190151581526020015b60405180910390f35b34801561021357600080fd5b50610227610222366004611c98565b6105fc565b6040519081526020016101fe565b34801561024157600080fd5b5061024a61063d565b6040516101fe9190611d3b565b34801561026357600080fd5b50610227610272366004611d4e565b60009081526020819052604090206001015490565b34801561029357600080fd5b5061022760035481565b3480156102a957600080fd5b506102bd6102b8366004611d67565b6106cb565b005b3480156102cb57600080fd5b506102bd6102da366004611dad565b6106f5565b3480156102eb57600080fd5b506102bd6102fa366004611d67565b610771565b34801561030b57600080fd5b506102bd61031a366004611d4e565b6107ef565b34801561032b57600080fd5b5061022760015481565b34801561034157600080fd5b506102bd610350366004611e66565b6108dd565b34801561036157600080fd5b506102bd610370366004611e83565b6108f8565b34801561038157600080fd5b506102bd610390366004611d4e565b610942565b3480156103a157600080fd5b506102bd6103b0366004611eb1565b6109f5565b3480156103c157600080fd5b506102bd6103d0366004611d4e565b610ad6565b3480156103e157600080fd5b506101f26103f0366004611d67565b610ae1565b34801561040157600080fd5b50610227600081565b34801561041657600080fd5b5060045461042a906001600160a01b031681565b6040516001600160a01b0390911681526020016101fe565b34801561044e57600080fd5b506102bd61045d366004611d67565b610b0a565b34801561046e57600080fd5b5061042a61047d366004611e83565b60056020908152600092835260408084209091529082529020546001600160a01b031681565b3480156104af57600080fd5b506102bd6104be366004611e66565b610b2f565b3480156104cf57600080fd5b506102bd6104de366004611edd565b610b47565b3480156104ef57600080fd5b506102276104fe366004611f3c565b610cee565b34801561050f57600080fd5b506102bd61051e366004611dad565b610d03565b34801561052f57600080fd5b506102bd61053e366004611e66565b610d76565b34801561054f57600080fd5b506102bd61055e366004611d4e565b610d8d565b34801561056f57600080fd5b506102276000805160206122bf83398151915281565b34801561059157600080fd5b506102bd6105a0366004611e66565b610e18565b3480156105b157600080fd5b506102bd6105c0366004611f7e565b610e70565b60006001600160e01b03198216637965db0b60e01b14806105f657506301ffc9a760e01b6001600160e01b03198316145b92915050565b604080516080810182526000606082018190529181018590526001600160a01b038481168252831660208201526106338682611031565b9695505050505050565b6002805461064a90611ffe565b80601f016020809104026020016040519081016040528092919081815260200182805461067690611ffe565b80156106c35780601f10610698576101008083540402835291602001916106c3565b820191906000526020600020905b8154815290600101906020018083116106a657829003601f168201915b505050505081565b6000828152602081905260409020600101546106e68161108a565b6106f08383611094565b505050565b3361070e6000805160206122bf83398151915282610ae1565b6107335760405162461bcd60e51b815260040161072a90612032565b60405180910390fd5b60005b82518110156106f0576107618382815181106107545761075461207a565b6020026020010151611118565b61076a816120a6565b9050610736565b6001600160a01b03811633146107e15760405162461bcd60e51b815260206004820152602f60248201527f416363657373436f6e74726f6c3a2063616e206f6e6c792072656e6f756e636560448201526e103937b632b9903337b91039b2b63360891b606482015260840161072a565b6107eb8282611236565b5050565b336108086000805160206122bf83398151915282610ae1565b6108245760405162461bcd60e51b815260040161072a90612032565b600082116108745760405162461bcd60e51b815260206004820152601e60248201527f59616b416461707465723a204e6f7468696e6720746f207265636f7665720000604482015260640161072a565b604051339083156108fc029084906000818181858888f193505050501580156108a1573d6000803e3d6000fd5b506040518281526000907f8c1256b8896378cd5044f80c202f9772b9d77dc85c8a6eb51967210b09bfaa28906020015b60405180910390a25050565b6108f56000805160206122bf833981519152826106cb565b50565b336109116000805160206122bf83398151915282610ae1565b61092d5760405162461bcd60e51b815260040161072a90612032565b6106f06001600160a01b03841683600061129b565b3361095b6000805160206122bf83398151915282610ae1565b6109775760405162461bcd60e51b815260040161072a90612032565b816000036109be5760405162461bcd60e51b8152602060048201526014602482015273496e76616c6964206761732d657374696d61746560601b604482015260640161072a565b600182905560405182815230907ff43f23b7a28e6f8ce6843a21bd7b48bce778aa913b8c8cf459edf7d770e8d38a906020016108d1565b33610a0e6000805160206122bf83398151915282610ae1565b610a2a5760405162461bcd60e51b815260040161072a90612032565b60008211610a7a5760405162461bcd60e51b815260206004820152601e60248201527f59616b416461707465723a204e6f7468696e6720746f207265636f7665720000604482015260640161072a565b610a8e6001600160a01b03841633846113e3565b826001600160a01b03167f8c1256b8896378cd5044f80c202f9772b9d77dc85c8a6eb51967210b09bfaa2883604051610ac991815260200190565b60405180910390a2505050565b336107eb8282610771565b6000918252602082815260408084206001600160a01b0393909316845291905290205460ff1690565b600082815260208190526040902060010154610b258161108a565b6106f08383611236565b6108f56000805160206122bf83398151915282610b0a565b6040516370a0823160e01b81526001600160a01b038281166004830152600091908416906370a0823190602401602060405180830381865afa158015610b91573d6000803e3d6000fd5b505050506040513d601f19601f82011682018060405250810190610bb591906120bf565b9050610bc48686868686611413565b6040516370a0823160e01b81526001600160a01b03838116600483015260009183918616906370a0823190602401602060405180830381865afa158015610c0f573d6000803e3d6000fd5b505050506040513d601f19601f82011682018060405250810190610c3391906120bf565b610c3d91906120d8565b905085811015610c8f5760405162461bcd60e51b815260206004820152601760248201527f496e73756666696369656e7420616d6f756e742d6f7574000000000000000000604482015260640161072a565b836001600160a01b0316856001600160a01b03167fe2bdbc6b7225eb0a972ac943c485a6cc05f7c6811838bce8903f23200fb744fa8989604051610cdd929190918252602082015260400190565b60405180910390a350505050505050565b6000610cfb84848461149e565b949350505050565b33610d1c6000805160206122bf83398151915282610ae1565b610d385760405162461bcd60e51b815260040161072a90612032565b60005b82518110156106f057610d66838281518110610d5957610d5961207a565b60200260200101516114c0565b610d6f816120a6565b9050610d3b565b33610d826000836106cb565b6107eb600082610771565b33610da66000805160206122bf83398151915282610ae1565b610dc25760405162461bcd60e51b815260040161072a90612032565b81600003610e125760405162461bcd60e51b815260206004820152601b60248201527f71756572794761734c696d69742063616e2774206265207a65726f0000000000604482015260640161072a565b50600355565b33610e316000805160206122bf83398151915282610ae1565b610e4d5760405162461bcd60e51b815260040161072a90612032565b50600480546001600160a01b0319166001600160a01b0392909216919091179055565b6000841315610f5457336001600160a01b0316630dfe16816040518163ffffffff1660e01b8152600401602060405180830381865afa158015610eb7573d6000803e3d6000fd5b505050506040513d601f19601f82011682018060405250810190610edb91906120eb565b60405163a9059cbb60e01b8152336004820152602481018690526001600160a01b03919091169063a9059cbb906044016020604051808303816000875af1158015610f2a573d6000803e3d6000fd5b505050506040513d601f19601f82011682018060405250810190610f4e9190612108565b5061102b565b336001600160a01b031663d21220a76040518163ffffffff1660e01b8152600401602060405180830381865afa158015610f92573d6000803e3d6000fd5b505050506040513d601f19601f82011682018060405250810190610fb691906120eb565b60405163a9059cbb60e01b8152336004820152602481018590526001600160a01b03919091169063a9059cbb906044016020604051808303816000875af1158015611005573d6000803e3d6000fd5b505050506040513d601f19601f820116820180604052508101906110299190612108565b505b50505050565b6000806000611048846000015185602001516115e3565b9150915060008061105f8785886040015186611636565b9150915083611076576110718261212a565b61107f565b61107f8161212a565b979650505050505050565b6108f581336116d1565b61109e8282610ae1565b6107eb576000828152602081815260408083206001600160a01b03851684529091529020805460ff191660011790556110d43390565b6001600160a01b0316816001600160a01b0316837f2f8788117e7eff1d82e926ec794901d17c78024a50270940304540a733656f0d60405160405180910390a45050565b6000816001600160a01b0316630dfe16816040518163ffffffff1660e01b8152600401602060405180830381865afa158015611158573d6000803e3d6000fd5b505050506040513d601f19601f8201168201806040525081019061117c91906120eb565b90506000826001600160a01b031663d21220a76040518163ffffffff1660e01b8152600401602060405180830381865afa1580156111be573d6000803e3d6000fd5b505050506040513d601f19601f820116820180604052508101906111e291906120eb565b6001600160a01b03928316600081815260056020818152604080842097909516835295865283822080546001600160a01b031990811690915590865283822092825291909452922080549092169091555050565b6112408282610ae1565b156107eb576000828152602081815260408083206001600160a01b0385168085529252808320805460ff1916905551339285917ff6391f5c32d9c69d2a47ea670b442974b53935d1edc7fd64eb21e047a839171b9190a45050565b8015806113155750604051636eb1769f60e11b81523060048201526001600160a01b03838116602483015284169063dd62ed3e90604401602060405180830381865afa1580156112ef573d6000803e3d6000fd5b505050506040513d601f19601f8201168201806040525081019061131391906120bf565b155b6113805760405162461bcd60e51b815260206004820152603660248201527f5361666545524332303a20617070726f76652066726f6d206e6f6e2d7a65726f60448201527520746f206e6f6e2d7a65726f20616c6c6f77616e636560501b606482015260840161072a565b6040516001600160a01b0383166024820152604481018290526106f090849063095ea7b360e01b906064015b60408051601f198184030181529190526020810180516001600160e01b03166001600160e01b031990931692909217909152611735565b6040516001600160a01b0383166024820152604481018290526106f090849063a9059cbb60e01b906064016113ac565b600061142086858561185e565b604080516000808252602082019092529192509061143f9083906118b4565b90508581101561148a5760405162461bcd60e51b8152602060048201526016602482015275125b9cdd59999a58da595b9d08185b5bdd5b9d13dd5d60521b604482015260640161072a565b6114958482856119b2565b50505050505050565b6000806114ac85858561185e565b90506114b7816119d6565b95945050505050565b6000816001600160a01b0316630dfe16816040518163ffffffff1660e01b8152600401602060405180830381865afa158015611500573d6000803e3d6000fd5b505050506040513d601f19601f8201168201806040525081019061152491906120eb565b90506000826001600160a01b031663d21220a76040518163ffffffff1660e01b8152600401602060405180830381865afa158015611566573d6000803e3d6000fd5b505050506040513d601f19601f8201168201806040525081019061158a91906120eb565b6001600160a01b03928316600081815260056020818152604080842095881684529481528483208054979098166001600160a01b0319978816811790985590815283822092825291909152208054909216909217905550565b6001600160a01b038082169083161060008161161d57611618600173fffd8963efd1fc6a506488495d951d5263988d26612146565b61162d565b61162d6401000276a3600161216d565b90509250929050565b6040516001600160a01b038086166024830152841515604483015260648201849052821660848201526000908190819060a40160408051601f198184030181529190526020810180516001600160e01b03166348202e9b60e11b17905290506000806116a183611a34565b9150915081156116c557808060200190518101906116bf919061218d565b90955093505b50505094509492505050565b6116db8282610ae1565b6107eb576116f3816001600160a01b03166014611aa6565b6116fe836020611aa6565b60405160200161170f9291906121b1565b60408051601f198184030181529082905262461bcd60e51b825261072a91600401611d3b565b600080836001600160a01b0316836040516117509190612226565b6000604051808303816000865af19150503d806000811461178d576040519150601f19603f3d011682016040523d82523d6000602084013e611792565b606091505b5091509150816117e45760405162461bcd60e51b815260206004820181905260248201527f5361666545524332303a206c6f772d6c6576656c2063616c6c206661696c6564604482015260640161072a565b80511561102b57808060200190518101906117ff9190612108565b61102b5760405162461bcd60e51b815260206004820152602a60248201527f5361666545524332303a204552433230206f7065726174696f6e20646964206e6044820152691bdd081cdd58d8d9595960b21b606482015260840161072a565b60408051608081018252600080825260208201819052918101829052606081019190915250604080516080810182526001600160a01b039384168152919092166020820152908101919091526000606082015290565b6000806118ee846000015185602001516001600160a01b039182166000908152600560209081526040808320938516835292905220541690565b9050600080611905866000015187602001516115e3565b91509150600080846001600160a01b03166324b31a0c308a6040015187878c6040518663ffffffff1660e01b8152600401611944959493929190612242565b60408051808303816000875af1158015611962573d6000803e3d6000fd5b505050506040513d601f19601f82011682018060405250810190611986919061218d565b915091508361199d576119988261212a565b6119a6565b6119a68161212a565b98975050505050505050565b306001600160a01b038216146106f0576106f06001600160a01b03841682846113e3565b600080611a10836000015184602001516001600160a01b039182166000908152600560209081526040808320938516835292905220541690565b90506001600160a01b03811615611a2e57611a2b8184611031565b91505b50919050565b6004546003546040516000926060926001600160a01b0390911691611a5a908690612226565b6000604051808303818686fa925050503d8060008114611a96576040519150601f19603f3d011682016040523d82523d6000602084013e611a9b565b606091505b509094909350915050565b60606000611ab583600261227d565b611ac0906002612294565b67ffffffffffffffff811115611ad857611ad8611d97565b6040519080825280601f01601f191660200182016040528015611b02576020820181803683370190505b509050600360fc1b81600081518110611b1d57611b1d61207a565b60200101906001600160f81b031916908160001a905350600f60fb1b81600181518110611b4c57611b4c61207a565b60200101906001600160f81b031916908160001a9053506000611b7084600261227d565b611b7b906001612294565b90505b6001811115611bf3576f181899199a1a9b1b9c1cb0b131b232b360811b85600f1660108110611baf57611baf61207a565b1a60f81b828281518110611bc557611bc561207a565b60200101906001600160f81b031916908160001a90535060049490941c93611bec816122a7565b9050611b7e565b508315611c425760405162461bcd60e51b815260206004820181905260248201527f537472696e67733a20686578206c656e67746820696e73756666696369656e74604482015260640161072a565b9392505050565b600060208284031215611c5b57600080fd5b81356001600160e01b031981168114611c4257600080fd5b6001600160a01b03811681146108f557600080fd5b8035611c9381611c73565b919050565b60008060008060808587031215611cae57600080fd5b8435611cb981611c73565b9350602085013592506040850135611cd081611c73565b91506060850135611ce081611c73565b939692955090935050565b60005b83811015611d06578181015183820152602001611cee565b50506000910152565b60008151808452611d27816020860160208601611ceb565b601f01601f19169290920160200192915050565b602081526000611c426020830184611d0f565b600060208284031215611d6057600080fd5b5035919050565b60008060408385031215611d7a57600080fd5b823591506020830135611d8c81611c73565b809150509250929050565b634e487b7160e01b600052604160045260246000fd5b60006020808385031215611dc057600080fd5b823567ffffffffffffffff80821115611dd857600080fd5b818501915085601f830112611dec57600080fd5b813581811115611dfe57611dfe611d97565b8060051b604051601f19603f83011681018181108582111715611e2357611e23611d97565b604052918252848201925083810185019188831115611e4157600080fd5b938501935b828510156119a657611e5785611c88565b84529385019392850192611e46565b600060208284031215611e7857600080fd5b8135611c4281611c73565b60008060408385031215611e9657600080fd5b8235611ea181611c73565b91506020830135611d8c81611c73565b60008060408385031215611ec457600080fd5b8235611ecf81611c73565b946020939093013593505050565b600080600080600060a08688031215611ef557600080fd5b85359450602086013593506040860135611f0e81611c73565b92506060860135611f1e81611c73565b91506080860135611f2e81611c73565b809150509295509295909350565b600080600060608486031215611f5157600080fd5b833592506020840135611f6381611c73565b91506040840135611f7381611c73565b809150509250925092565b60008060008060608587031215611f9457600080fd5b8435935060208501359250604085013567ffffffffffffffff80821115611fba57600080fd5b818701915087601f830112611fce57600080fd5b813581811115611fdd57600080fd5b886020828501011115611fef57600080fd5b95989497505060200194505050565b600181811c9082168061201257607f821691505b602082108103611a2e57634e487b7160e01b600052602260045260246000fd5b60208082526028908201527f4d61696e7461696e61626c653a2043616c6c6572206973206e6f742061206d6160408201526734b73a30b4b732b960c11b606082015260800190565b634e487b7160e01b600052603260045260246000fd5b634e487b7160e01b600052601160045260246000fd5b6000600182016120b8576120b8612090565b5060010190565b6000602082840312156120d157600080fd5b5051919050565b818103818111156105f6576105f6612090565b6000602082840312156120fd57600080fd5b8151611c4281611c73565b60006020828403121561211a57600080fd5b81518015158114611c4257600080fd5b6000600160ff1b820161213f5761213f612090565b5060000390565b6001600160a01b0382811682821603908082111561216657612166612090565b5092915050565b6001600160a01b0381811683821601908082111561216657612166612090565b600080604083850312156121a057600080fd5b505080516020909101519092909150565b7f416363657373436f6e74726f6c3a206163636f756e74200000000000000000008152600083516121e9816017850160208801611ceb565b7001034b99036b4b9b9b4b733903937b6329607d1b601791840191820152835161221a816028840160208801611ceb565b01602801949350505050565b60008251612238818460208701611ceb565b9190910192915050565b6001600160a01b0386811682526020820186905284151560408301528316606082015260a06080820181905260009061107f90830184611d0f565b80820281158282048414176105f6576105f6612090565b808201808211156105f6576105f6612090565b6000816122b6576122b6612090565b50600019019056fe339759585899103d2ace64958e37e18ccb0504652c81d4a1b8aa80fe2126ab95a264697066735822122010dde00eb151c7062b15b1418cbd3e9153daa1d84172afd322c355fb8fa02da064736f6c63430008110033a54247010af6b3693b80aceddfad12e077c5de3571e6243fada502635f0d7d394d61696e7461696e61626c653a2043616c6c6572206973206e6f742061206d61",
    "linkReferences": {}
  },
  "methodIdentifiers": {
    "DEFAULT_ADMIN_ROLE()": "a217fddf",
    "MAINTAINER_ROLE()": "f8742254",
    "addMaintainer(address)": "6b453c1f",
    "addPoolsToWL(address[])": "f06c21eb",
    "getQuoteForPool(address,int256,address,address)": "05e3f4dc",
    "getRoleAdmin(bytes32)": "248a9ca3",
    "grantRole(bytes32,address)": "2f2ff15d",
    "hasRole(bytes32,address)": "91d14854",
    "name()": "06fdde03",
    "query(uint256,address,address)": "ef99893a",
    "quoter()": "c6bbd5a7",
    "quoterGasLimit()": "2bc857a0",
    "recoverAVAX(uint256)": "4ebb7916",
    "recoverERC20(address,uint256)": "8980f11f",
    "removeMaintainer(address)": "d8baf7cf",
    "renounceRole(bytes32)": "8bb9c5bf",
    "renounceRole(bytes32,address)": "36568abe",
    "revokeAllowance(address,address)": "7ae26773",
    "revokeRole(bytes32,address)": "d547741f",
    "rmPoolsFromWL(address[])": "35f7c24d",
    "setQuoter(address)": "f912c64b",
    "setQuoterGasLimit(uint256)": "f35c4d45",
    "setSwapGasEstimate(uint256)": "84a33e63",
    "supportsInterface(bytes4)": "01ffc9a7",
    "swap(uint256,uint256,address,address,address)": "eab90da6",
    "swapCallback(int256,int256,bytes)": "fa483e72",
    "swapGasEstimate()": "69cff80d",
    "tknsToPoolWL(address,address)": "d7e94449",
    "transferOwnership(address)": "f2fde38b"
  },
  "id": 30
}