{
  "abi": [
    {
      "inputs": [
        {
          "internalType": "string",
          "name": "_name",
          "type": "string"
        },
        {
          "internalType": "address",
          "name": "_pool",
          "type": "address"
        },
        {
          "internalType": "uint256",
          "name": "_swapGasEstimate",
          "type": "uint256"
        }
      ],
      "stateMutability": "nonpayable",
      "type": "constructor"
    },
    {
      "anonymous": false,
      "inputs": [
        {
          "indexed": true,
          "internalType": "address",
          "name": "_asset",
          "type": "address"
        },
        {
          "indexed": false,
          "internalType": "uint256",
          "name": "amount",
          "type": "uint256"
        }
      ],
      "name": "Recovered",
      "type": "event"
    },
    {
      "anonymous": false,
      "inputs": [
        {
          "indexed": true,
          "internalType": "bytes32",
          "name": "role",
          "type": "bytes32"
        },
        {
          "indexed": true,
          "internalType": "bytes32",
          "name": "previousAdminRole",
          "type": "bytes32"
        },
        {
          "indexed": true,
          "internalType": "bytes32",
          "name": "newAdminRole",
          "type": "bytes32"
        }
      ],
      "name": "RoleAdminChanged",
      "type": "event"
    },
    {
      "anonymous": false,
      "inputs": [
        {
          "indexed": true,
          "internalType": "bytes32",
          "name": "role",
          "type": "bytes32"
        },
        {
          "indexed": true,
          "internalType": "address",
          "name": "account",
          "type": "address"
        },
        {
          "indexed": true,
          "internalType": "address",
          "name": "sender",
          "type": "address"
        }
      ],
      "name": "RoleGranted",
      "type": "event"
    },
    {
      "anonymous": false,
      "inputs": [
        {
          "indexed": true,
          "internalType": "bytes32",
          "name": "role",
          "type": "bytes32"
        },
        {
          "indexed": true,
          "internalType": "address",
          "name": "account",
          "type": "address"
        },
        {
          "indexed": true,
          "internalType": "address",
          "name": "sender",
          "type": "address"
        }
      ],
      "name": "RoleRevoked",
      "type": "event"
    },
    {
      "anonymous": false,
      "inputs": [
        {
          "indexed": true,
          "internalType": "address",
          "name": "_adapter",
          "type": "address"
        },
        {
          "indexed": false,
          "internalType": "uint256",
          "name": "_newEstimate",
          "type": "uint256"
        }
      ],
      "name": "UpdatedGasEstimate",
      "type": "event"
    },
    {
      "anonymous": false,
      "inputs": [
        {
          "indexed": true,
          "internalType": "address",
          "name": "_tokenFrom",
          "type": "address"
        },
        {
          "indexed": true,
          "internalType": "address",
          "name": "_tokenTo",
          "type": "address"
        },
        {
          "indexed": false,
          "internalType": "uint256",
          "name": "_amountIn",
          "type": "uint256"
        },
        {
          "indexed": false,
          "internalType": "uint256",
          "name": "_amountOut",
          "type": "uint256"
        }
      ],
      "name": "YakAdapterSwap",
      "type": "event"
    },
    {
      "inputs": [],
      "name": "DEFAULT_ADMIN_ROLE",
      "outputs": [
        {
          "internalType": "bytes32",
          "name": "",
          "type": "bytes32"
        }
      ],
      "stateMutability": "view",
      "type": "function"
    },
    {
      "inputs": [],
      "name": "MAINTAINER_ROLE",
      "outputs": [
        {
          "internalType": "bytes32",
          "name": "",
          "type": "bytes32"
        }
      ],
      "stateMutability": "view",
      "type": "function"
    },
    {
      "inputs": [
        {
          "internalType": "address",
          "name": "addedMaintainer",
          "type": "address"
        }
      ],
      "name": "addMaintainer",
      "outputs": [],
      "stateMutability": "nonpayable",
      "type": "function"
    },
    {
      "inputs": [
        {
          "internalType": "bytes32",
          "name": "role",
          "type": "bytes32"
        }
      ],
      "name": "getRoleAdmin",
      "outputs": [
        {
          "internalType": "bytes32",
          "name": "",
          "type": "bytes32"
        }
      ],
      "stateMutability": "view",
      "type": "function"
    },
    {
      "inputs": [
        {
          "internalType": "bytes32",
          "name": "role",
          "type": "bytes32"
        },
        {
          "internalType": "address",
          "name": "account",
          "type": "address"
        }
      ],
      "name": "grantRole",
      "outputs": [],
      "stateMutability": "nonpayable",
      "type": "function"
    },
    {
      "inputs": [
        {
          "internalType": "bytes32",
          "name": "role",
          "type": "bytes32"
        },
        {
          "internalType": "address",
          "name": "account",
          "type": "address"
        }
      ],
      "name": "hasRole",
      "outputs": [
        {
          "internalType": "bool",
          "name": "",
          "type": "bool"
        }
      ],
      "stateMutability": "view",
      "type": "function"
    },
    {
      "inputs": [
        {
          "internalType": "address",
          "name": "",
          "type": "address"
        }
      ],
      "name": "isPoolToken",
      "outputs": [
        {
          "internalType": "bool",
          "name": "",
          "type": "bool"
        }
      ],
      "stateMutability": "view",
      "type": "function"
    },
    {
      "inputs": [],
      "name": "name",
      "outputs": [
        {
          "internalType": "string",
          "name": "",
          "type": "string"
        }
      ],
      "stateMutability": "view",
      "type": "function"
    },
    {
      "inputs": [],
      "name": "pool",
      "outputs": [
        {
          "internalType": "address",
          "name": "",
          "type": "address"
        }
      ],
      "stateMutability": "view",
      "type": "function"
    },
    {
      "inputs": [
        {
          "internalType": "uint256",
          "name": "_amountIn",
          "type": "uint256"
        },
        {
          "internalType": "address",
          "name": "_tokenIn",
          "type": "address"
        },
        {
          "internalType": "address",
          "name": "_tokenOut",
          "type": "address"
        }
      ],
      "name": "query",
      "outputs": [
        {
          "internalType": "uint256",
          "name": "",
          "type": "uint256"
        }
      ],
      "stateMutability": "view",
      "type": "function"
    },
    {
      "inputs": [
        {
          "internalType": "uint256",
          "name": "_amount",
          "type": "uint256"
        }
      ],
      "name": "recoverAVAX",
      "outputs": [],
      "stateMutability": "nonpayable",
      "type": "function"
    },
    {
      "inputs": [
        {
          "internalType": "address",
          "name": "_tokenAddress",
          "type": "address"
        },
        {
          "internalType": "uint256",
          "name": "_tokenAmount",
          "type": "uint256"
        }
      ],
      "name": "recoverERC20",
      "outputs": [],
      "stateMutability": "nonpayable",
      "type": "function"
    },
    {
      "inputs": [
        {
          "internalType": "address",
          "name": "removedMaintainer",
          "type": "address"
        }
      ],
      "name": "removeMaintainer",
      "outputs": [],
      "stateMutability": "nonpayable",
      "type": "function"
    },
    {
      "inputs": [
        {
          "internalType": "bytes32",
          "name": "role",
          "type": "bytes32"
        },
        {
          "internalType": "address",
          "name": "account",
          "type": "address"
        }
      ],
      "name": "renounceRole",
      "outputs": [],
      "stateMutability": "nonpayable",
      "type": "function"
    },
    {
      "inputs": [
        {
          "internalType": "bytes32",
          "name": "role",
          "type": "bytes32"
        }
      ],
      "name": "renounceRole",
      "outputs": [],
      "stateMutability": "nonpayable",
      "type": "function"
    },
    {
      "inputs": [
        {
          "internalType": "address",
          "name": "_token",
          "type": "address"
        },
        {
          "internalType": "address",
          "name": "_spender",
          "type": "address"
        }
      ],
      "name": "revokeAllowance",
      "outputs": [],
      "stateMutability": "nonpayable",
      "type": "function"
    },
    {
      "inputs": [
        {
          "internalType": "bytes32",
          "name": "role",
          "type": "bytes32"
        },
        {
          "internalType": "address",
          "name": "account",
          "type": "address"
        }
      ],
      "name": "revokeRole",
      "outputs": [],
      "stateMutability": "nonpayable",
      "type": "function"
    },
    {
      "inputs": [
        {
          "internalType": "uint256",
          "name": "_estimate",
          "type": "uint256"
        }
      ],
      "name": "setSwapGasEstimate",
      "outputs": [],
      "stateMutability": "nonpayable",
      "type": "function"
    },
    {
      "inputs": [
        {
          "internalType": "bytes4",
          "name": "interfaceId",
          "type": "bytes4"
        }
      ],
      "name": "supportsInterface",
      "outputs": [
        {
          "internalType": "bool",
          "name": "",
          "type": "bool"
        }
      ],
      "stateMutability": "view",
      "type": "function"
    },
    {
      "inputs": [
        {
          "internalType": "uint256",
          "name": "_amountIn",
          "type": "uint256"
        },
        {
          "internalType": "uint256",
          "name": "_amountOut",
          "type": "uint256"
        },
        {
          "internalType": "address",
          "name": "_fromToken",
          "type": "address"
        },
        {
          "internalType": "address",
          "name": "_toToken",
          "type": "address"
        },
        {
          "internalType": "address",
          "name": "_to",
          "type": "address"
        }
      ],
      "name": "swap",
      "outputs": [],
      "stateMutability": "nonpayable",
      "type": "function"
    },
    {
      "inputs": [],
      "name": "swapGasEstimate",
      "outputs": [
        {
          "internalType": "uint256",
          "name": "",
          "type": "uint256"
        }
      ],
      "stateMutability": "view",
      "type": "function"
    },
    {
      "inputs": [
        {
          "internalType": "address",
          "name": "",
          "type": "address"
        }
      ],
      "name": "tokenIndex",
      "outputs": [
        {
          "internalType": "uint256",
          "name": "",
          "type": "uint256"
        }
      ],
      "stateMutability": "view",
      "type": "function"
    },
    {
      "inputs": [
        {
          "internalType": "address",
          "name": "newOwner",
          "type": "address"
        }
      ],
      "name": "transferOwnership",
      "outputs": [],
      "stateMutability": "nonpayable",
      "type": "function"
    },
    {
      "stateMutability": "payable",
      "type": "receive"
    }
  ],
  "bytecode": {
    "object": "0x60806040523480156200001157600080fd5b5060405162001ea938038062001ea983398101604081905262000034916200045c565b82813362000044600082620000b7565b620000707f339759585899103d2ace64958e37e18ccb0504652c81d4a1b8aa80fe2126ab9582620000b7565b506200007c82620000c7565b62000087816200012c565b5050600580546001600160a01b0319166001600160a01b038416179055620000ae6200024d565b50505062000719565b620000c382826200030e565b5050565b80516000036200011e5760405162461bcd60e51b815260206004820152601460248201527f496e76616c69642061646170746572206e616d6500000000000000000000000060448201526064015b60405180910390fd5b6002620000c38282620005dc565b3360008181527fa54247010af6b3693b80aceddfad12e077c5de3571e6243fada502635f0d7d39602052604090205460ff16620001bd5760405162461bcd60e51b815260206004820152602860248201527f4d61696e7461696e61626c653a2043616c6c6572206973206e6f742061206d6160448201526734b73a30b4b732b960c11b606482015260840162000115565b816000036200020f5760405162461bcd60e51b815260206004820152601460248201527f496e76616c6964206761732d657374696d617465000000000000000000000000604482015260640162000115565b600182905560405182815230907ff43f23b7a28e6f8ce6843a21bd7b48bce778aa913b8c8cf459edf7d770e8d38a9060200160405180910390a25050565b60005b600554604051630b9947eb60e41b8152600481018390526001600160a01b039091169063b9947eb090602401602060405180830381865afa925050508015620002b8575060408051601f3d908101601f19168201909252620002b591810190620006a8565b60015b156200030b57620002c981620003ae565b6001600160a01b03166000908152600460209081526040808320805460ff19166001179055600390915290208190556200030381620006cd565b905062000250565b50565b6000828152602081815260408083206001600160a01b038516845290915290205460ff16620000c3576000828152602081815260408083206001600160a01b03851684529091529020805460ff191660011790556200036a3390565b6001600160a01b0316816001600160a01b0316837f2f8788117e7eff1d82e926ec794901d17c78024a50270940304540a733656f0d60405160405180910390a45050565b60055460405163095ea7b360e01b81526001600160a01b03918216600482015260001960248201529082169063095ea7b3906044016020604051808303816000875af115801562000403573d6000803e3d6000fd5b505050506040513d601f19601f82011682018060405250810190620000c39190620006f5565b634e487b7160e01b600052604160045260246000fd5b80516001600160a01b03811681146200045757600080fd5b919050565b6000806000606084860312156200047257600080fd5b83516001600160401b03808211156200048a57600080fd5b818601915086601f8301126200049f57600080fd5b815181811115620004b457620004b462000429565b604051601f8201601f19908116603f01168101908382118183101715620004df57620004df62000429565b81604052828152602093508984848701011115620004fc57600080fd5b600091505b8282101562000520578482018401518183018501529083019062000501565b60008484830101528097505050506200053b8187016200043f565b93505050604084015190509250925092565b600181811c908216806200056257607f821691505b6020821081036200058357634e487b7160e01b600052602260045260246000fd5b50919050565b601f821115620005d757600081815260208120601f850160051c81016020861015620005b25750805b601f850160051c820191505b81811015620005d357828155600101620005be565b5050505b505050565b81516001600160401b03811115620005f857620005f862000429565b62000610816200060984546200054d565b8462000589565b602080601f8311600181146200064857600084156200062f5750858301515b600019600386901b1c1916600185901b178555620005d3565b600085815260208120601f198616915b82811015620006795788860151825594840194600190910190840162000658565b5085821015620006985787850151600019600388901b60f8161c191681555b5050505050600190811b01905550565b600060208284031215620006bb57600080fd5b620006c6826200043f565b9392505050565b600060018201620006ee57634e487b7160e01b600052601160045260246000fd5b5060010190565b6000602082840312156200070857600080fd5b81518015158114620006c657600080fd5b61178080620007296000396000f3fe6080604052600436106101445760003560e01c806384a33e63116100b6578063d8baf7cf1161006f578063d8baf7cf146103b7578063de260f37146103d7578063eab90da614610407578063ef99893a14610427578063f2fde38b14610447578063f87422541461046757600080fd5b806384a33e63146103025780638980f11f146103225780638bb9c5bf1461034257806391d1485414610362578063a217fddf14610382578063d547741f1461039757600080fd5b806336568abe1161010857806336568abe1461023f578063427f91a61461025f5780634ebb79161461028c57806369cff80d146102ac5780636b453c1f146102c25780637ae26773146102e257600080fd5b806301ffc9a71461015057806306fdde031461018557806316f0115b146101a7578063248a9ca3146101df5780632f2ff15d1461021d57600080fd5b3661014b57005b600080fd5b34801561015c57600080fd5b5061017061016b366004611340565b610489565b60405190151581526020015b60405180910390f35b34801561019157600080fd5b5061019a6104c0565b60405161017c919061138e565b3480156101b357600080fd5b506005546101c7906001600160a01b031681565b6040516001600160a01b03909116815260200161017c565b3480156101eb57600080fd5b5061020f6101fa3660046113c1565b60009081526020819052604090206001015490565b60405190815260200161017c565b34801561022957600080fd5b5061023d6102383660046113f6565b61054e565b005b34801561024b57600080fd5b5061023d61025a3660046113f6565b610578565b34801561026b57600080fd5b5061020f61027a366004611422565b60036020526000908152604090205481565b34801561029857600080fd5b5061023d6102a73660046113c1565b6105fb565b3480156102b857600080fd5b5061020f60015481565b3480156102ce57600080fd5b5061023d6102dd366004611422565b6106e9565b3480156102ee57600080fd5b5061023d6102fd36600461143d565b610704565b34801561030e57600080fd5b5061023d61031d3660046113c1565b61074e565b34801561032e57600080fd5b5061023d61033d366004611467565b610801565b34801561034e57600080fd5b5061023d61035d3660046113c1565b6108e2565b34801561036e57600080fd5b5061017061037d3660046113f6565b6108ed565b34801561038e57600080fd5b5061020f600081565b3480156103a357600080fd5b5061023d6103b23660046113f6565b610916565b3480156103c357600080fd5b5061023d6103d2366004611422565b61093b565b3480156103e357600080fd5b506101706103f2366004611422565b60046020526000908152604090205460ff1681565b34801561041357600080fd5b5061023d610422366004611491565b610953565b34801561043357600080fd5b5061020f6104423660046114e8565b610afa565b34801561045357600080fd5b5061023d610462366004611422565b610b11565b34801561047357600080fd5b5061020f60008051602061172b83398151915281565b60006001600160e01b03198216637965db0b60e01b14806104ba57506301ffc9a760e01b6001600160e01b03198316145b92915050565b600280546104cd90611524565b80601f01602080910402602001604051908101604052809291908181526020018280546104f990611524565b80156105465780601f1061051b57610100808354040283529160200191610546565b820191906000526020600020905b81548152906001019060200180831161052957829003601f168201915b505050505081565b60008281526020819052604090206001015461056981610b28565b6105738383610b32565b505050565b6001600160a01b03811633146105ed5760405162461bcd60e51b815260206004820152602f60248201527f416363657373436f6e74726f6c3a2063616e206f6e6c792072656e6f756e636560448201526e103937b632b9903337b91039b2b63360891b60648201526084015b60405180910390fd5b6105f78282610bb6565b5050565b3361061460008051602061172b833981519152826108ed565b6106305760405162461bcd60e51b81526004016105e49061155e565b600082116106805760405162461bcd60e51b815260206004820152601e60248201527f59616b416461707465723a204e6f7468696e6720746f207265636f766572000060448201526064016105e4565b604051339083156108fc029084906000818181858888f193505050501580156106ad573d6000803e3d6000fd5b506040518281526000907f8c1256b8896378cd5044f80c202f9772b9d77dc85c8a6eb51967210b09bfaa28906020015b60405180910390a25050565b61070160008051602061172b8339815191528261054e565b50565b3361071d60008051602061172b833981519152826108ed565b6107395760405162461bcd60e51b81526004016105e49061155e565b6105736001600160a01b038416836000610c1b565b3361076760008051602061172b833981519152826108ed565b6107835760405162461bcd60e51b81526004016105e49061155e565b816000036107ca5760405162461bcd60e51b8152602060048201526014602482015273496e76616c6964206761732d657374696d61746560601b60448201526064016105e4565b600182905560405182815230907ff43f23b7a28e6f8ce6843a21bd7b48bce778aa913b8c8cf459edf7d770e8d38a906020016106dd565b3361081a60008051602061172b833981519152826108ed565b6108365760405162461bcd60e51b81526004016105e49061155e565b600082116108865760405162461bcd60e51b815260206004820152601e60248201527f59616b416461707465723a204e6f7468696e6720746f207265636f766572000060448201526064016105e4565b61089a6001600160a01b0384163384610d63565b826001600160a01b03167f8c1256b8896378cd5044f80c202f9772b9d77dc85c8a6eb51967210b09bfaa28836040516108d591815260200190565b60405180910390a2505050565b336105f78282610578565b6000918252602082815260408084206001600160a01b0393909316845291905290205460ff1690565b60008281526020819052604090206001015461093181610b28565b6105738383610bb6565b61070160008051602061172b83398151915282610916565b6040516370a0823160e01b81526001600160a01b038281166004830152600091908416906370a0823190602401602060405180830381865afa15801561099d573d6000803e3d6000fd5b505050506040513d601f19601f820116820180604052508101906109c191906115a6565b90506109d08686868686610d93565b6040516370a0823160e01b81526001600160a01b03838116600483015260009183918616906370a0823190602401602060405180830381865afa158015610a1b573d6000803e3d6000fd5b505050506040513d601f19601f82011682018060405250810190610a3f91906115a6565b610a4991906115d5565b905085811015610a9b5760405162461bcd60e51b815260206004820152601760248201527f496e73756666696369656e7420616d6f756e742d6f757400000000000000000060448201526064016105e4565b836001600160a01b0316856001600160a01b03167fe2bdbc6b7225eb0a972ac943c485a6cc05f7c6811838bce8903f23200fb744fa8989604051610ae9929190918252602082015260400190565b60405180910390a350505050505050565b6000610b07848484610ea0565b90505b9392505050565b33610b1d60008361054e565b6105f7600082610578565b6107018133610fbf565b610b3c82826108ed565b6105f7576000828152602081815260408083206001600160a01b03851684529091529020805460ff19166001179055610b723390565b6001600160a01b0316816001600160a01b0316837f2f8788117e7eff1d82e926ec794901d17c78024a50270940304540a733656f0d60405160405180910390a45050565b610bc082826108ed565b156105f7576000828152602081815260408083206001600160a01b0385168085529252808320805460ff1916905551339285917ff6391f5c32d9c69d2a47ea670b442974b53935d1edc7fd64eb21e047a839171b9190a45050565b801580610c955750604051636eb1769f60e11b81523060048201526001600160a01b03838116602483015284169063dd62ed3e90604401602060405180830381865afa158015610c6f573d6000803e3d6000fd5b505050506040513d601f19601f82011682018060405250810190610c9391906115a6565b155b610d005760405162461bcd60e51b815260206004820152603660248201527f5361666545524332303a20617070726f76652066726f6d206e6f6e2d7a65726f60448201527520746f206e6f6e2d7a65726f20616c6c6f77616e636560501b60648201526084016105e4565b6040516001600160a01b03831660248201526044810182905261057390849063095ea7b360e01b906064015b60408051601f198184030181529190526020810180516001600160e01b03166001600160e01b031990931692909217909152611023565b6040516001600160a01b03831660248201526044810182905261057390849063a9059cbb60e01b90606401610d2c565b6005546001600160a01b03848116600090815260036020526040808220548684168352918190205490516365b2489b60e01b81526004810192909252602482015260448101889052606481018790529116906365b2489b90608401600060405180830381600087803b158015610e0857600080fd5b505af1158015610e1c573d6000803e3d6000fd5b50506040516370a0823160e01b8152306004820152600092506001600160a01b03851691506370a0823190602401602060405180830381865afa158015610e67573d6000803e3d6000fd5b505050506040513d601f19601f82011682018060405250810190610e8b91906115a6565b9050610e98838284611152565b505050505050565b6000831580610ec05750816001600160a01b0316836001600160a01b0316145b80610ee457506001600160a01b03831660009081526004602052604090205460ff16155b80610f0857506001600160a01b03821660009081526004602052604090205460ff16155b15610f1557506000610b0a565b6005546001600160a01b03848116600090815260036020526040808220548684168352918190205490516342f88e8f60e11b815260048101929092526024820152604481018790529116906385f11d1e90606401602060405180830381865afa925050508015610fa2575060408051601f3d908101601f19168201909252610f9f918101906115a6565b60015b610fae57506000610b0a565b610fb781611176565b915050610b0a565b610fc982826108ed565b6105f757610fe1816001600160a01b031660146111a4565b610fec8360206111a4565b604051602001610ffd9291906115e8565b60408051601f198184030181529082905262461bcd60e51b82526105e49160040161138e565b600080836001600160a01b03168360405161103e919061165d565b6000604051808303816000865af19150503d806000811461107b576040519150601f19603f3d011682016040523d82523d6000602084013e611080565b606091505b5091509150816110d25760405162461bcd60e51b815260206004820181905260248201527f5361666545524332303a206c6f772d6c6576656c2063616c6c206661696c656460448201526064016105e4565b80511561114c57808060200190518101906110ed9190611679565b61114c5760405162461bcd60e51b815260206004820152602a60248201527f5361666545524332303a204552433230206f7065726174696f6e20646964206e6044820152691bdd081cdd58d8d9595960b21b60648201526084016105e4565b50505050565b306001600160a01b03821614610573576105736001600160a01b0384168284610d63565b6000811561119c5761271061118d8361270c61169b565b61119791906116b2565b6104ba565b600092915050565b606060006111b383600261169b565b6111be9060026116d4565b67ffffffffffffffff8111156111d6576111d66116e7565b6040519080825280601f01601f191660200182016040528015611200576020820181803683370190505b509050600360fc1b8160008151811061121b5761121b6116fd565b60200101906001600160f81b031916908160001a905350600f60fb1b8160018151811061124a5761124a6116fd565b60200101906001600160f81b031916908160001a905350600061126e84600261169b565b6112799060016116d4565b90505b60018111156112f1576f181899199a1a9b1b9c1cb0b131b232b360811b85600f16601081106112ad576112ad6116fd565b1a60f81b8282815181106112c3576112c36116fd565b60200101906001600160f81b031916908160001a90535060049490941c936112ea81611713565b905061127c565b508315610b0a5760405162461bcd60e51b815260206004820181905260248201527f537472696e67733a20686578206c656e67746820696e73756666696369656e7460448201526064016105e4565b60006020828403121561135257600080fd5b81356001600160e01b031981168114610b0a57600080fd5b60005b8381101561138557818101518382015260200161136d565b50506000910152565b60208152600082518060208401526113ad81604085016020870161136a565b601f01601f19169190910160400192915050565b6000602082840312156113d357600080fd5b5035919050565b80356001600160a01b03811681146113f157600080fd5b919050565b6000806040838503121561140957600080fd5b82359150611419602084016113da565b90509250929050565b60006020828403121561143457600080fd5b610b0a826113da565b6000806040838503121561145057600080fd5b611459836113da565b9150611419602084016113da565b6000806040838503121561147a57600080fd5b611483836113da565b946020939093013593505050565b600080600080600060a086880312156114a957600080fd5b85359450602086013593506114c0604087016113da565b92506114ce606087016113da565b91506114dc608087016113da565b90509295509295909350565b6000806000606084860312156114fd57600080fd5b8335925061150d602085016113da565b915061151b604085016113da565b90509250925092565b600181811c9082168061153857607f821691505b60208210810361155857634e487b7160e01b600052602260045260246000fd5b50919050565b60208082526028908201527f4d61696e7461696e61626c653a2043616c6c6572206973206e6f742061206d6160408201526734b73a30b4b732b960c11b606082015260800190565b6000602082840312156115b857600080fd5b5051919050565b634e487b7160e01b600052601160045260246000fd5b818103818111156104ba576104ba6115bf565b7f416363657373436f6e74726f6c3a206163636f756e742000000000000000000081526000835161162081601785016020880161136a565b7001034b99036b4b9b9b4b733903937b6329607d1b601791840191820152835161165181602884016020880161136a565b01602801949350505050565b6000825161166f81846020870161136a565b9190910192915050565b60006020828403121561168b57600080fd5b81518015158114610b0a57600080fd5b80820281158282048414176104ba576104ba6115bf565b6000826116cf57634e487b7160e01b600052601260045260246000fd5b500490565b808201808211156104ba576104ba6115bf565b634e487b7160e01b600052604160045260246000fd5b634e487b7160e01b600052603260045260246000fd5b600081611722576117226115bf565b50600019019056fe339759585899103d2ace64958e37e18ccb0504652c81d4a1b8aa80fe2126ab95a26469706673582212203509e400f7f380a8eddfa6ea52e584b0e424513dc41b992a23e0505a1725a8ef64736f6c63430008110033",
    "linkReferences": {}
  },
  "methodIdentifiers": {
    "DEFAULT_ADMIN_ROLE()": "a217fddf",
    "MAINTAINER_ROLE()": "f8742254",
    "addMaintainer(address)": "6b453c1f",
    "getRoleAdmin(bytes32)": "248a9ca3",
    "grantRole(bytes32,address)": "2f2ff15d",
    "hasRole(bytes32,address)": "91d14854",
    "isPoolToken(address)": "de260f37",
    "name()": "06fdde03",
    "pool()": "16f0115b",
    "query(uint256,address,address)": "ef99893a",
    "recoverAVAX(uint256)": "4ebb7916",
    "recoverERC20(address,uint256)": "8980f11f",
    "removeMaintainer(address)": "d8baf7cf",
    "renounceRole(bytes32)": "8bb9c5bf",
    "renounceRole(bytes32,address)": "36568abe",
    "revokeAllowance(address,address)": "7ae26773",
    "revokeRole(bytes32,address)": "d547741f",
    "setSwapGasEstimate(uint256)": "84a33e63",
    "supportsInterface(bytes4)": "01ffc9a7",
    "swap(uint256,uint256,address,address,address)": "eab90da6",
    "swapGasEstimate()": "69cff80d",
    "tokenIndex(address)": "427f91a6",
    "transferOwnership(address)": "f2fde38b"
  },
  "id": 16
}