{
  "address": "0xA479b3aF0476a9e605133975C1F0C414d0654D12",
  "abi": [
    {
      "inputs": [
        {
          "internalType": "bytes",
          "name": "a",
          "type": "bytes"
        },
        {
          "internalType": "bytes",
          "name": "b",
          "type": "bytes"
        }
      ],
      "name": "mergeBytes",
      "outputs": [
        {
          "internalType": "bytes",
          "name": "c",
          "type": "bytes"
        }
      ],
      "stateMutability": "pure",
      "type": "function"
    }
  ],
  "transactionHash": "0x8cd1df007198750e6e7b09dc371a0fb452624f1ec627676f1294c2b591c76d7e",
  "args": [],
  "solcInputHash": "2f7c552725bac4cbb59f7eeca6343ccc",
  "bytecode": "0x6102d761003a600b82828239805160001a60731461002d57634e487b7160e01b600052600060045260246000fd5b30600052607381538281f3fe73000000000000000000000000000000000000000030146080604052600436106100355760003560e01c80632f9680f51461003a575b600080fd5b61004d610048366004610193565b610063565b60405161005a91906101f4565b60405180910390f35b81518151606091906000906100789083610247565b9050600060208651601f61008c9190610247565b610096919061026b565b9050600060208651601f6100aa9190610247565b6100b4919061026b565b905060405183815260005b838110156100db576001016020810289810151908301526100bf565b5060005b828110156100fd5760010160208102888101519087018301526100df565b50928301602001604052509095945050505050565b600082601f830112610122578081fd5b813567ffffffffffffffff8082111561013d5761013d61028b565b604051601f8301601f1916810160200182811182821017156101615761016161028b565b604052828152848301602001861015610178578384fd5b82602086016020830137918201602001929092529392505050565b600080604083850312156101a5578182fd5b823567ffffffffffffffff808211156101bc578384fd5b6101c886838701610112565b935060208501359150808211156101dd578283fd5b506101ea85828601610112565b9150509250929050565b6000602080835283518082850152825b8181101561022057858101830151858201604001528201610204565b818111156102315783604083870101525b50601f01601f1916929092016040019392505050565b6000821982111561026657634e487b7160e01b81526011600452602481fd5b500190565b60008261028657634e487b7160e01b81526012600452602481fd5b500490565b634e487b7160e01b600052604160045260246000fdfea26469706673582212201ee0bc8015f6b0db4e87eba26d2b78955d24ebf524bc221d0eeb1740616f4f8464736f6c63430008000033",
  "devdoc": {
    "kind": "dev",
    "methods": {},
    "version": 1
  },
  "userdoc": {
    "kind": "user",
    "methods": {},
    "version": 1
  },
  "storageLayout": {
    "storage": [],
    "types": null
  }
}