{
  "address": "0xFcc774F10018290603BE13e55135410aE95BA69f",
  "abi": [
    {
      "inputs": [
        {
          "internalType": "string",
          "name": "_name",
          "type": "string"
        },
        {
          "internalType": "uint256",
          "name": "_swapGasEstimate",
          "type": "uint256"
        },
        {
          "internalType": "uint256",
          "name": "_quoterGasLimit",
          "type": "uint256"
        },
        {
          "internalType": "address",
          "name": "_quoter",
          "type": "address"
        },
        {
          "internalType": "address",
          "name": "_factory",
          "type": "address"
        }
      ],
      "stateMutability": "nonpayable",
      "type": "constructor"
    },
    {
      "anonymous": false,
      "inputs": [
        {
          "indexed": true,
          "internalType": "address",
          "name": "_asset",
          "type": "address"
        },
        {
          "indexed": false,
          "internalType": "uint256",
          "name": "amount",
          "type": "uint256"
        }
      ],
      "name": "Recovered",
      "type": "event"
    },
    {
      "anonymous": false,
      "inputs": [
        {
          "indexed": true,
          "internalType": "bytes32",
          "name": "role",
          "type": "bytes32"
        },
        {
          "indexed": true,
          "internalType": "bytes32",
          "name": "previousAdminRole",
          "type": "bytes32"
        },
        {
          "indexed": true,
          "internalType": "bytes32",
          "name": "newAdminRole",
          "type": "bytes32"
        }
      ],
      "name": "RoleAdminChanged",
      "type": "event"
    },
    {
      "anonymous": false,
      "inputs": [
        {
          "indexed": true,
          "internalType": "bytes32",
          "name": "role",
          "type": "bytes32"
        },
        {
          "indexed": true,
          "internalType": "address",
          "name": "account",
          "type": "address"
        },
        {
          "indexed": true,
          "internalType": "address",
          "name": "sender",
          "type": "address"
        }
      ],
      "name": "RoleGranted",
      "type": "event"
    },
    {
      "anonymous": false,
      "inputs": [
        {
          "indexed": true,
          "internalType": "bytes32",
          "name": "role",
          "type": "bytes32"
        },
        {
          "indexed": true,
          "internalType": "address",
          "name": "account",
          "type": "address"
        },
        {
          "indexed": true,
          "internalType": "address",
          "name": "sender",
          "type": "address"
        }
      ],
      "name": "RoleRevoked",
      "type": "event"
    },
    {
      "anonymous": false,
      "inputs": [
        {
          "indexed": true,
          "internalType": "address",
          "name": "_adapter",
          "type": "address"
        },
        {
          "indexed": false,
          "internalType": "uint256",
          "name": "_newEstimate",
          "type": "uint256"
        }
      ],
      "name": "UpdatedGasEstimate",
      "type": "event"
    },
    {
      "anonymous": false,
      "inputs": [
        {
          "indexed": true,
          "internalType": "address",
          "name": "_tokenFrom",
          "type": "address"
        },
        {
          "indexed": true,
          "internalType": "address",
          "name": "_tokenTo",
          "type": "address"
        },
        {
          "indexed": false,
          "internalType": "uint256",
          "name": "_amountIn",
          "type": "uint256"
        },
        {
          "indexed": false,
          "internalType": "uint256",
          "name": "_amountOut",
          "type": "uint256"
        }
      ],
      "name": "YakAdapterSwap",
      "type": "event"
    },
    {
      "inputs": [],
      "name": "DEFAULT_ADMIN_ROLE",
      "outputs": [
        {
          "internalType": "bytes32",
          "name": "",
          "type": "bytes32"
        }
      ],
      "stateMutability": "view",
      "type": "function"
    },
    {
      "inputs": [],
      "name": "MAINTAINER_ROLE",
      "outputs": [
        {
          "internalType": "bytes32",
          "name": "",
          "type": "bytes32"
        }
      ],
      "stateMutability": "view",
      "type": "function"
    },
    {
      "inputs": [
        {
          "internalType": "address",
          "name": "addedMaintainer",
          "type": "address"
        }
      ],
      "name": "addMaintainer",
      "outputs": [],
      "stateMutability": "nonpayable",
      "type": "function"
    },
    {
      "inputs": [
        {
          "internalType": "int256",
          "name": "amount0Delta",
          "type": "int256"
        },
        {
          "internalType": "int256",
          "name": "amount1Delta",
          "type": "int256"
        },
        {
          "internalType": "bytes",
          "name": "",
          "type": "bytes"
        }
      ],
      "name": "algebraSwapCallback",
      "outputs": [],
      "stateMutability": "nonpayable",
      "type": "function"
    },
    {
      "inputs": [
        {
          "internalType": "address",
          "name": "pool",
          "type": "address"
        },
        {
          "internalType": "int256",
          "name": "amountIn",
          "type": "int256"
        },
        {
          "internalType": "address",
          "name": "tokenIn",
          "type": "address"
        },
        {
          "internalType": "address",
          "name": "tokenOut",
          "type": "address"
        }
      ],
      "name": "getQuoteForPool",
      "outputs": [
        {
          "internalType": "uint256",
          "name": "",
          "type": "uint256"
        }
      ],
      "stateMutability": "view",
      "type": "function"
    },
    {
      "inputs": [
        {
          "internalType": "bytes32",
          "name": "role",
          "type": "bytes32"
        }
      ],
      "name": "getRoleAdmin",
      "outputs": [
        {
          "internalType": "bytes32",
          "name": "",
          "type": "bytes32"
        }
      ],
      "stateMutability": "view",
      "type": "function"
    },
    {
      "inputs": [
        {
          "internalType": "bytes32",
          "name": "role",
          "type": "bytes32"
        },
        {
          "internalType": "address",
          "name": "account",
          "type": "address"
        }
      ],
      "name": "grantRole",
      "outputs": [],
      "stateMutability": "nonpayable",
      "type": "function"
    },
    {
      "inputs": [
        {
          "internalType": "bytes32",
          "name": "role",
          "type": "bytes32"
        },
        {
          "internalType": "address",
          "name": "account",
          "type": "address"
        }
      ],
      "name": "hasRole",
      "outputs": [
        {
          "internalType": "bool",
          "name": "",
          "type": "bool"
        }
      ],
      "stateMutability": "view",
      "type": "function"
    },
    {
      "inputs": [],
      "name": "name",
      "outputs": [
        {
          "internalType": "string",
          "name": "",
          "type": "string"
        }
      ],
      "stateMutability": "view",
      "type": "function"
    },
    {
      "inputs": [
        {
          "internalType": "uint256",
          "name": "_amountIn",
          "type": "uint256"
        },
        {
          "internalType": "address",
          "name": "_tokenIn",
          "type": "address"
        },
        {
          "internalType": "address",
          "name": "_tokenOut",
          "type": "address"
        }
      ],
      "name": "query",
      "outputs": [
        {
          "internalType": "uint256",
          "name": "",
          "type": "uint256"
        }
      ],
      "stateMutability": "view",
      "type": "function"
    },
    {
      "inputs": [],
      "name": "quoter",
      "outputs": [
        {
          "internalType": "address",
          "name": "",
          "type": "address"
        }
      ],
      "stateMutability": "view",
      "type": "function"
    },
    {
      "inputs": [],
      "name": "quoterGasLimit",
      "outputs": [
        {
          "internalType": "uint256",
          "name": "",
          "type": "uint256"
        }
      ],
      "stateMutability": "view",
      "type": "function"
    },
    {
      "inputs": [
        {
          "internalType": "uint256",
          "name": "_amount",
          "type": "uint256"
        }
      ],
      "name": "recoverAVAX",
      "outputs": [],
      "stateMutability": "nonpayable",
      "type": "function"
    },
    {
      "inputs": [
        {
          "internalType": "address",
          "name": "_tokenAddress",
          "type": "address"
        },
        {
          "internalType": "uint256",
          "name": "_tokenAmount",
          "type": "uint256"
        }
      ],
      "name": "recoverERC20",
      "outputs": [],
      "stateMutability": "nonpayable",
      "type": "function"
    },
    {
      "inputs": [
        {
          "internalType": "address",
          "name": "removedMaintainer",
          "type": "address"
        }
      ],
      "name": "removeMaintainer",
      "outputs": [],
      "stateMutability": "nonpayable",
      "type": "function"
    },
    {
      "inputs": [
        {
          "internalType": "bytes32",
          "name": "role",
          "type": "bytes32"
        },
        {
          "internalType": "address",
          "name": "account",
          "type": "address"
        }
      ],
      "name": "renounceRole",
      "outputs": [],
      "stateMutability": "nonpayable",
      "type": "function"
    },
    {
      "inputs": [
        {
          "internalType": "bytes32",
          "name": "role",
          "type": "bytes32"
        }
      ],
      "name": "renounceRole",
      "outputs": [],
      "stateMutability": "nonpayable",
      "type": "function"
    },
    {
      "inputs": [
        {
          "internalType": "address",
          "name": "_token",
          "type": "address"
        },
        {
          "internalType": "address",
          "name": "_spender",
          "type": "address"
        }
      ],
      "name": "revokeAllowance",
      "outputs": [],
      "stateMutability": "nonpayable",
      "type": "function"
    },
    {
      "inputs": [
        {
          "internalType": "bytes32",
          "name": "role",
          "type": "bytes32"
        },
        {
          "internalType": "address",
          "name": "account",
          "type": "address"
        }
      ],
      "name": "revokeRole",
      "outputs": [],
      "stateMutability": "nonpayable",
      "type": "function"
    },
    {
      "inputs": [
        {
          "internalType": "address",
          "name": "newQuoter",
          "type": "address"
        }
      ],
      "name": "setQuoter",
      "outputs": [],
      "stateMutability": "nonpayable",
      "type": "function"
    },
    {
      "inputs": [
        {
          "internalType": "uint256",
          "name": "newLimit",
          "type": "uint256"
        }
      ],
      "name": "setQuoterGasLimit",
      "outputs": [],
      "stateMutability": "nonpayable",
      "type": "function"
    },
    {
      "inputs": [
        {
          "internalType": "uint256",
          "name": "_estimate",
          "type": "uint256"
        }
      ],
      "name": "setSwapGasEstimate",
      "outputs": [],
      "stateMutability": "nonpayable",
      "type": "function"
    },
    {
      "inputs": [
        {
          "internalType": "bytes4",
          "name": "interfaceId",
          "type": "bytes4"
        }
      ],
      "name": "supportsInterface",
      "outputs": [
        {
          "internalType": "bool",
          "name": "",
          "type": "bool"
        }
      ],
      "stateMutability": "view",
      "type": "function"
    },
    {
      "inputs": [
        {
          "internalType": "uint256",
          "name": "_amountIn",
          "type": "uint256"
        },
        {
          "internalType": "uint256",
          "name": "_amountOut",
          "type": "uint256"
        },
        {
          "internalType": "address",
          "name": "_fromToken",
          "type": "address"
        },
        {
          "internalType": "address",
          "name": "_toToken",
          "type": "address"
        },
        {
          "internalType": "address",
          "name": "_to",
          "type": "address"
        }
      ],
      "name": "swap",
      "outputs": [],
      "stateMutability": "nonpayable",
      "type": "function"
    },
    {
      "inputs": [],
      "name": "swapGasEstimate",
      "outputs": [
        {
          "internalType": "uint256",
          "name": "",
          "type": "uint256"
        }
      ],
      "stateMutability": "view",
      "type": "function"
    },
    {
      "inputs": [
        {
          "internalType": "address",
          "name": "newOwner",
          "type": "address"
        }
      ],
      "name": "transferOwnership",
      "outputs": [],
      "stateMutability": "nonpayable",
      "type": "function"
    },
    {
      "stateMutability": "payable",
      "type": "receive"
    }
  ],
  "transactionHash": "0xdd7dbf377aa74f55278bc7ff133c5dfc06746545897f0233f5fce9199898bdae",
  "args": [
    "CamelotAlgebraAdapter",
    250000,
    250000,
    "0x11E68A3CE9A5A0F95ca9c4B0B8F17849752e24DD",
    "0xd490F2F6990C0291597fd1247651b4E0dCF684Dd"
  ],
  "solcInputHash": "50979828fa2949427bff7dfcbe4b8236",
  "bytecode": "0x60a06040523480156200001157600080fd5b50604051620029df380380620029df8339810160408190526200003491620004f1565b8484838583833362000048600082620000c3565b620000747f339759585899103d2ace64958e37e18ccb0504652c81d4a1b8aa80fe2126ab9582620000c3565b506200008082620000d3565b6200008b816200013c565b506200009990508162000238565b620000a482620002fc565b5050505060601b6001600160601b031916608052506200065692505050565b620000cf82826200038e565b5050565b8051620001275760405162461bcd60e51b815260206004820152601460248201527f496e76616c69642061646170746572206e616d6500000000000000000000000060448201526064015b60405180910390fd5b8051620000cf9060029060208401906200042e565b3360008181526000805160206200299f833981519152602052604090205460ff16620001ab5760405162461bcd60e51b81526020600482015260286024820152600080516020620029bf83398151915260448201526734b73a30b4b732b960c11b60648201526084016200011e565b81620001fa5760405162461bcd60e51b815260206004820152601460248201527f496e76616c6964206761732d657374696d61746500000000000000000000000060448201526064016200011e565b600182905560405182815230907ff43f23b7a28e6f8ce6843a21bd7b48bce778aa913b8c8cf459edf7d770e8d38a9060200160405180910390a25050565b3360008181526000805160206200299f833981519152602052604090205460ff16620002a75760405162461bcd60e51b81526020600482015260286024820152600080516020620029bf83398151915260448201526734b73a30b4b732b960c11b60648201526084016200011e565b81620002f65760405162461bcd60e51b815260206004820152601b60248201527f71756572794761734c696d69742063616e2774206265207a65726f000000000060448201526064016200011e565b50600355565b3360008181526000805160206200299f833981519152602052604090205460ff166200036b5760405162461bcd60e51b81526020600482015260286024820152600080516020620029bf83398151915260448201526734b73a30b4b732b960c11b60648201526084016200011e565b50600480546001600160a01b0319166001600160a01b0392909216919091179055565b6000828152602081815260408083206001600160a01b038516845290915290205460ff16620000cf576000828152602081815260408083206001600160a01b03851684529091529020805460ff19166001179055620003ea3390565b6001600160a01b0316816001600160a01b0316837f2f8788117e7eff1d82e926ec794901d17c78024a50270940304540a733656f0d60405160405180910390a45050565b8280546200043c9062000603565b90600052602060002090601f016020900481019282620004605760008555620004ab565b82601f106200047b57805160ff1916838001178555620004ab565b82800160010185558215620004ab579182015b82811115620004ab5782518255916020019190600101906200048e565b50620004b9929150620004bd565b5090565b5b80821115620004b95760008155600101620004be565b80516001600160a01b0381168114620004ec57600080fd5b919050565b600080600080600060a0868803121562000509578081fd5b85516001600160401b038082111562000520578283fd5b818801915088601f83011262000534578283fd5b81518181111562000549576200054962000640565b604051601f8201601f19908116603f0116810190838211818310171562000574576200057462000640565b81604052828152602093508b8484870101111562000590578586fd5b8591505b82821015620005b3578482018401518183018501529083019062000594565b82821115620005c457858484830101525b809950505050808801519550505060408601519250620005e760608701620004d4565b9150620005f760808701620004d4565b90509295509295909350565b600181811c908216806200061857607f821691505b602082108114156200063a57634e487b7160e01b600052602260045260246000fd5b50919050565b634e487b7160e01b600052604160045260246000fd5b60805160601c61232a620006756000396000611d22015261232a6000f3fe6080604052600436106101a55760003560e01c80638980f11f116100e1578063d8baf7cf1161008a578063f2fde38b11610064578063f2fde38b146104c5578063f35c4d45146104e5578063f874225414610505578063f912c64b1461053957600080fd5b8063d8baf7cf14610465578063eab90da614610485578063ef99893a146104a557600080fd5b8063a217fddf116100bb578063a217fddf146103f8578063c6bbd5a71461040d578063d547741f1461044557600080fd5b80638980f11f146103745780638bb9c5bf1461039457806391d14854146103b457600080fd5b80632f2ff15d1161014e57806369cff80d1161012857806369cff80d146102fe5780636b453c1f146103145780637ae267731461033457806384a33e631461035457600080fd5b80632f2ff15d1461029e57806336568abe146102be5780634ebb7916146102de57600080fd5b8063248a9ca31161017f578063248a9ca3146102365780632bc857a0146102665780632c8958f61461027c57600080fd5b806301ffc9a7146101b157806305e3f4dc146101e657806306fdde031461021457600080fd5b366101ac57005b600080fd5b3480156101bd57600080fd5b506101d16101cc366004611ee7565b610559565b60405190151581526020015b60405180910390f35b3480156101f257600080fd5b50610206610201366004611e0e565b6105c2565b6040519081526020016101dd565b34801561022057600080fd5b50610229610603565b6040516101dd9190612167565b34801561024257600080fd5b50610206610251366004611eab565b60009081526020819052604090206001015490565b34801561027257600080fd5b5061020660035481565b34801561028857600080fd5b5061029c610297366004611f32565b610691565b005b3480156102aa57600080fd5b5061029c6102b9366004611ec3565b61088e565b3480156102ca57600080fd5b5061029c6102d9366004611ec3565b6108b8565b3480156102ea57600080fd5b5061029c6102f9366004611eab565b610949565b34801561030a57600080fd5b5061020660015481565b34801561032057600080fd5b5061029c61032f366004611d9e565b610a91565b34801561034057600080fd5b5061029c61034f366004611dd6565b610abe565b34801561036057600080fd5b5061029c61036f366004611eab565b610b62565b34801561038057600080fd5b5061029c61038f366004611e60565b610c75565b3480156103a057600080fd5b5061029c6103af366004611eab565b610db0565b3480156103c057600080fd5b506101d16103cf366004611ec3565b6000918252602082815260408084206001600160a01b0393909316845291905290205460ff1690565b34801561040457600080fd5b50610206600081565b34801561041957600080fd5b5060045461042d906001600160a01b031681565b6040516001600160a01b0390911681526020016101dd565b34801561045157600080fd5b5061029c610460366004611ec3565b610dbb565b34801561047157600080fd5b5061029c610480366004611d9e565b610de0565b34801561049157600080fd5b5061029c6104a0366004612006565b610e0a565b3480156104b157600080fd5b506102066104c0366004611fc5565b610fcf565b3480156104d157600080fd5b5061029c6104e0366004611d9e565b610fe4565b3480156104f157600080fd5b5061029c610500366004611eab565b610ffb565b34801561051157600080fd5b506102067f339759585899103d2ace64958e37e18ccb0504652c81d4a1b8aa80fe2126ab9581565b34801561054557600080fd5b5061029c610554366004611d9e565b6110dd565b60006001600160e01b031982167f7965db0b0000000000000000000000000000000000000000000000000000000014806105bc57507f01ffc9a7000000000000000000000000000000000000000000000000000000006001600160e01b03198316145b92915050565b604080516080810182526000606082018190529181018590526001600160a01b038481168252831660208201526105f986826111a7565b9695505050505050565b600280546106109061225e565b80601f016020809104026020016040519081016040528092919081815260200182805461063c9061225e565b80156106895780601f1061065e57610100808354040283529160200191610689565b820191906000526020600020905b81548152906001019060200180831161066c57829003601f168201915b505050505081565b600084131561079357336001600160a01b0316630dfe16816040518163ffffffff1660e01b815260040160206040518083038186803b1580156106d357600080fd5b505afa1580156106e7573d6000803e3d6000fd5b505050506040513d601f19601f8201168201806040525081019061070b9190611dba565b60405163a9059cbb60e01b8152336004820152602481018690526001600160a01b03919091169063a9059cbb90604401602060405180830381600087803b15801561075557600080fd5b505af1158015610769573d6000803e3d6000fd5b505050506040513d601f19601f8201168201806040525081019061078d9190611e8b565b50610888565b336001600160a01b031663d21220a76040518163ffffffff1660e01b815260040160206040518083038186803b1580156107cc57600080fd5b505afa1580156107e0573d6000803e3d6000fd5b505050506040513d601f19601f820116820180604052508101906108049190611dba565b60405163a9059cbb60e01b8152336004820152602481018590526001600160a01b03919091169063a9059cbb90604401602060405180830381600087803b15801561084e57600080fd5b505af1158015610862573d6000803e3d6000fd5b505050506040513d601f19601f820116820180604052508101906108869190611e8b565b505b50505050565b6000828152602081905260409020600101546108a981611200565b6108b3838361120a565b505050565b6001600160a01b038116331461093b5760405162461bcd60e51b815260206004820152602f60248201527f416363657373436f6e74726f6c3a2063616e206f6e6c792072656e6f756e636560448201527f20726f6c657320666f722073656c66000000000000000000000000000000000060648201526084015b60405180910390fd5b61094582826112a8565b5050565b3360008181527fa54247010af6b3693b80aceddfad12e077c5de3571e6243fada502635f0d7d39602052604090205460ff166109d85760405162461bcd60e51b815260206004820152602860248201527f4d61696e7461696e61626c653a2043616c6c6572206973206e6f742061206d6160448201526734b73a30b4b732b960c11b6064820152608401610932565b60008211610a285760405162461bcd60e51b815260206004820152601e60248201527f59616b416461707465723a204e6f7468696e6720746f207265636f76657200006044820152606401610932565b604051339083156108fc029084906000818181858888f19350505050158015610a55573d6000803e3d6000fd5b506040518281526000907f8c1256b8896378cd5044f80c202f9772b9d77dc85c8a6eb51967210b09bfaa28906020015b60405180910390a25050565b610abb7f339759585899103d2ace64958e37e18ccb0504652c81d4a1b8aa80fe2126ab958261088e565b50565b3360008181527fa54247010af6b3693b80aceddfad12e077c5de3571e6243fada502635f0d7d39602052604090205460ff16610b4d5760405162461bcd60e51b815260206004820152602860248201527f4d61696e7461696e61626c653a2043616c6c6572206973206e6f742061206d6160448201526734b73a30b4b732b960c11b6064820152608401610932565b6108b36001600160a01b038416836000611327565b3360008181527fa54247010af6b3693b80aceddfad12e077c5de3571e6243fada502635f0d7d39602052604090205460ff16610bf15760405162461bcd60e51b815260206004820152602860248201527f4d61696e7461696e61626c653a2043616c6c6572206973206e6f742061206d6160448201526734b73a30b4b732b960c11b6064820152608401610932565b81610c3e5760405162461bcd60e51b815260206004820152601460248201527f496e76616c6964206761732d657374696d6174650000000000000000000000006044820152606401610932565b600182905560405182815230907ff43f23b7a28e6f8ce6843a21bd7b48bce778aa913b8c8cf459edf7d770e8d38a90602001610a85565b3360008181527fa54247010af6b3693b80aceddfad12e077c5de3571e6243fada502635f0d7d39602052604090205460ff16610d045760405162461bcd60e51b815260206004820152602860248201527f4d61696e7461696e61626c653a2043616c6c6572206973206e6f742061206d6160448201526734b73a30b4b732b960c11b6064820152608401610932565b60008211610d545760405162461bcd60e51b815260206004820152601e60248201527f59616b416461707465723a204e6f7468696e6720746f207265636f76657200006044820152606401610932565b610d686001600160a01b03841633846114cc565b826001600160a01b03167f8c1256b8896378cd5044f80c202f9772b9d77dc85c8a6eb51967210b09bfaa2883604051610da391815260200190565b60405180910390a2505050565b3361094582826108b8565b600082815260208190526040902060010154610dd681611200565b6108b383836112a8565b610abb7f339759585899103d2ace64958e37e18ccb0504652c81d4a1b8aa80fe2126ab9582610dbb565b6040516370a0823160e01b81526001600160a01b038281166004830152600091908416906370a082319060240160206040518083038186803b158015610e4f57600080fd5b505afa158015610e63573d6000803e3d6000fd5b505050506040513d601f19601f82011682018060405250810190610e879190611fad565b9050610e9686868686866114fc565b6040516370a0823160e01b81526001600160a01b03838116600483015260009183918616906370a082319060240160206040518083038186803b158015610edc57600080fd5b505afa158015610ef0573d6000803e3d6000fd5b505050506040513d601f19601f82011682018060405250810190610f149190611fad565b610f1e9190612204565b905085811015610f705760405162461bcd60e51b815260206004820152601760248201527f496e73756666696369656e7420616d6f756e742d6f75740000000000000000006044820152606401610932565b836001600160a01b0316856001600160a01b03167fe2bdbc6b7225eb0a972ac943c485a6cc05f7c6811838bce8903f23200fb744fa8989604051610fbe929190918252602082015260400190565b60405180910390a350505050505050565b6000610fdc8484846115c6565b949350505050565b33610ff060008361088e565b6109456000826108b8565b3360008181527fa54247010af6b3693b80aceddfad12e077c5de3571e6243fada502635f0d7d39602052604090205460ff1661108a5760405162461bcd60e51b815260206004820152602860248201527f4d61696e7461696e61626c653a2043616c6c6572206973206e6f742061206d6160448201526734b73a30b4b732b960c11b6064820152608401610932565b816110d75760405162461bcd60e51b815260206004820152601b60248201527f71756572794761734c696d69742063616e2774206265207a65726f00000000006044820152606401610932565b50600355565b3360008181527fa54247010af6b3693b80aceddfad12e077c5de3571e6243fada502635f0d7d39602052604090205460ff1661116c5760405162461bcd60e51b815260206004820152602860248201527f4d61696e7461696e61626c653a2043616c6c6572206973206e6f742061206d6160448201526734b73a30b4b732b960c11b6064820152608401610932565b50600480547fffffffffffffffffffffffff0000000000000000000000000000000000000000166001600160a01b0392909216919091179055565b60008060006111be84600001518560200151611624565b915091506000806111d58785886040015186611677565b91509150836111ec576111e782612293565b6111f5565b6111f581612293565b979650505050505050565b610abb8133611740565b6000828152602081815260408083206001600160a01b038516845290915290205460ff16610945576000828152602081815260408083206001600160a01b03851684529091529020805460ff191660011790556112643390565b6001600160a01b0316816001600160a01b0316837f2f8788117e7eff1d82e926ec794901d17c78024a50270940304540a733656f0d60405160405180910390a45050565b6000828152602081815260408083206001600160a01b038516845290915290205460ff1615610945576000828152602081815260408083206001600160a01b0385168085529252808320805460ff1916905551339285917ff6391f5c32d9c69d2a47ea670b442974b53935d1edc7fd64eb21e047a839171b9190a45050565b8015806113c957506040517fdd62ed3e0000000000000000000000000000000000000000000000000000000081523060048201526001600160a01b03838116602483015284169063dd62ed3e9060440160206040518083038186803b15801561138f57600080fd5b505afa1580156113a3573d6000803e3d6000fd5b505050506040513d601f19601f820116820180604052508101906113c79190611fad565b155b61143b5760405162461bcd60e51b815260206004820152603660248201527f5361666545524332303a20617070726f76652066726f6d206e6f6e2d7a65726f60448201527f20746f206e6f6e2d7a65726f20616c6c6f77616e6365000000000000000000006064820152608401610932565b6040516001600160a01b0383166024820152604481018290526108b39084907f095ea7b300000000000000000000000000000000000000000000000000000000906064015b60408051601f198184030181529190526020810180517bffffffffffffffffffffffffffffffffffffffffffffffffffffffff166001600160e01b0319909316929092179091526117be565b6040516001600160a01b0383166024820152604481018290526108b390849063a9059cbb60e01b90606401611480565b6040805160808082018352600080835260208084018290528385018290526060938401829052845192830185526001600160a01b0388811684528716838201528285018a9052928201819052835181815292830190935291906115609083906118fa565b9050858110156115b25760405162461bcd60e51b815260206004820152601660248201527f496e73756666696369656e7420616d6f756e744f7574000000000000000000006044820152606401610932565b6115bd8482856119e2565b50505050505050565b6040805160808082018352600080835260208084018290528385018290526060938401829052845192830185526001600160a01b03808816845286169083015292810186905290810182905261161b81611a06565b95945050505050565b6001600160a01b038082169083161060008161165e57611659600173fffd8963efd1fc6a506488495d951d5263988d266121dc565b61166e565b61166e6401000276a3600161217a565b90509250929050565b6040516001600160a01b038086166024830152841515604483015260648201849052821660848201526000908190819060a40160408051601f198184030181529190526020810180517bffffffffffffffffffffffffffffffffffffffffffffffffffffffff167f90405d3600000000000000000000000000000000000000000000000000000000179052905060008061171083611a3f565b915091508115611734578080602001905181019061172e9190611f0f565b90955093505b50505094509492505050565b6000828152602081815260408083206001600160a01b038516845290915290205460ff166109455761177c816001600160a01b03166014611ab1565b611787836020611ab1565b6040516020016117989291906120ac565b60408051601f198184030181529082905262461bcd60e51b825261093291600401612167565b600080836001600160a01b0316836040516117d99190612090565b6000604051808303816000865af19150503d8060008114611816576040519150601f19603f3d011682016040523d82523d6000602084013e61181b565b606091505b50915091508161186d5760405162461bcd60e51b815260206004820181905260248201527f5361666545524332303a206c6f772d6c6576656c2063616c6c206661696c65646044820152606401610932565b80511561088857808060200190518101906118889190611e8b565b6108885760405162461bcd60e51b815260206004820152602a60248201527f5361666545524332303a204552433230206f7065726174696f6e20646964206e60448201527f6f742073756363656564000000000000000000000000000000000000000000006064820152608401610932565b60008061190f84600001518560200151611cdf565b905060008061192686600001518760200151611624565b91509150600080846001600160a01b031663128acb0830868b60400151878c6040518663ffffffff1660e01b815260040161196595949392919061212d565b6040805180830381600087803b15801561197e57600080fd5b505af1158015611992573d6000803e3d6000fd5b505050506040513d601f19601f820116820180604052508101906119b69190611f0f565b91509150836119cd576119c882612293565b6119d6565b6119d681612293565b98975050505050505050565b306001600160a01b038216146108b3576108b36001600160a01b03841682846114cc565b600080611a1b83600001518460200151611cdf565b90506001600160a01b03811615611a3957611a3681846111a7565b91505b50919050565b6004546003546040516000926060926001600160a01b0390911691611a65908690612090565b6000604051808303818686fa925050503d8060008114611aa1576040519150601f19603f3d011682016040523d82523d6000602084013e611aa6565b606091505b509094909350915050565b60606000611ac08360026121bd565b611acb9060026121a5565b67ffffffffffffffff811115611af157634e487b7160e01b600052604160045260246000fd5b6040519080825280601f01601f191660200182016040528015611b1b576020820181803683370190505b5090507f300000000000000000000000000000000000000000000000000000000000000081600081518110611b6057634e487b7160e01b600052603260045260246000fd5b60200101906001600160f81b031916908160001a9053507f780000000000000000000000000000000000000000000000000000000000000081600181518110611bb957634e487b7160e01b600052603260045260246000fd5b60200101906001600160f81b031916908160001a9053506000611bdd8460026121bd565b611be89060016121a5565b90505b6001811115611c89577f303132333435363738396162636465660000000000000000000000000000000085600f1660108110611c3757634e487b7160e01b600052603260045260246000fd5b1a60f81b828281518110611c5b57634e487b7160e01b600052603260045260246000fd5b60200101906001600160f81b031916908160001a90535060049490941c93611c8281612247565b9050611beb565b508315611cd85760405162461bcd60e51b815260206004820181905260248201527f537472696e67733a20686578206c656e67746820696e73756666696369656e746044820152606401610932565b9392505050565b6040517fd9a641e10000000000000000000000000000000000000000000000000000000081526001600160a01b03838116600483015282811660248301526000917f00000000000000000000000000000000000000000000000000000000000000009091169063d9a641e19060440160206040518083038186803b158015611d6657600080fd5b505afa158015611d7a573d6000803e3d6000fd5b505050506040513d601f19601f82011682018060405250810190611cd89190611dba565b600060208284031215611daf578081fd5b8135611cd8816122df565b600060208284031215611dcb578081fd5b8151611cd8816122df565b60008060408385031215611de8578081fd5b8235611df3816122df565b91506020830135611e03816122df565b809150509250929050565b60008060008060808587031215611e23578182fd5b8435611e2e816122df565b9350602085013592506040850135611e45816122df565b91506060850135611e55816122df565b939692955090935050565b60008060408385031215611e72578182fd5b8235611e7d816122df565b946020939093013593505050565b600060208284031215611e9c578081fd5b81518015158114611cd8578182fd5b600060208284031215611ebc578081fd5b5035919050565b60008060408385031215611ed5578182fd5b823591506020830135611e03816122df565b600060208284031215611ef8578081fd5b81356001600160e01b031981168114611cd8578182fd5b60008060408385031215611f21578182fd5b505080516020909101519092909150565b60008060008060608587031215611f47578384fd5b8435935060208501359250604085013567ffffffffffffffff80821115611f6c578384fd5b818701915087601f830112611f7f578384fd5b813581811115611f8d578485fd5b886020828501011115611f9e578485fd5b95989497505060200194505050565b600060208284031215611fbe578081fd5b5051919050565b600080600060608486031215611fd9578283fd5b833592506020840135611feb816122df565b91506040840135611ffb816122df565b809150509250925092565b600080600080600060a0868803121561201d578283fd5b85359450602086013593506040860135612036816122df565b92506060860135612046816122df565b91506080860135612056816122df565b809150509295509295909350565b6000815180845261207c81602086016020860161221b565b601f01601f19169290920160200192915050565b600082516120a281846020870161221b565b9190910192915050565b7f416363657373436f6e74726f6c3a206163636f756e74200000000000000000008152600083516120e481601785016020880161221b565b7f206973206d697373696e6720726f6c6520000000000000000000000000000000601791840191820152835161212181602884016020880161221b565b01602801949350505050565b60006001600160a01b038088168352861515602084015285604084015280851660608401525060a060808301526111f560a0830184612064565b602081526000611cd86020830184612064565b60006001600160a01b0380831681851680830382111561219c5761219c6122c9565b01949350505050565b600082198211156121b8576121b86122c9565b500190565b60008160001904831182151516156121d7576121d76122c9565b500290565b60006001600160a01b03838116908316818110156121fc576121fc6122c9565b039392505050565b600082821015612216576122166122c9565b500390565b60005b8381101561223657818101518382015260200161221e565b838111156108885750506000910152565b600081612256576122566122c9565b506000190190565b600181811c9082168061227257607f821691505b60208210811415611a3957634e487b7160e01b600052602260045260246000fd5b60007f80000000000000000000000000000000000000000000000000000000000000008214156122c5576122c56122c9565b0390565b634e487b7160e01b600052601160045260246000fd5b6001600160a01b0381168114610abb57600080fdfea26469706673582212201a6f38ea6c9dd93b9082ff160323102436dafe8aac423d526dc2e71c3c29b06a64736f6c63430008040033a54247010af6b3693b80aceddfad12e077c5de3571e6243fada502635f0d7d394d61696e7461696e61626c653a2043616c6c6572206973206e6f742061206d61",
  "devdoc": {
    "kind": "dev",
    "methods": {
      "getRoleAdmin(bytes32)": {
        "details": "Returns the admin role that controls `role`. See {grantRole} and {revokeRole}. To change a role's admin, use {_setRoleAdmin}."
      },
      "grantRole(bytes32,address)": {
        "details": "Grants `role` to `account`. If `account` had not been already granted `role`, emits a {RoleGranted} event. Requirements: - the caller must have ``role``'s admin role. May emit a {RoleGranted} event."
      },
      "hasRole(bytes32,address)": {
        "details": "Returns `true` if `account` has been granted `role`."
      },
      "renounceRole(bytes32,address)": {
        "details": "Revokes `role` from the calling account. Roles are often managed via {grantRole} and {revokeRole}: this function's purpose is to provide a mechanism for accounts to lose their privileges if they are compromised (such as when a trusted device is misplaced). If the calling account had been revoked `role`, emits a {RoleRevoked} event. Requirements: - the caller must be `account`. May emit a {RoleRevoked} event."
      },
      "revokeRole(bytes32,address)": {
        "details": "Revokes `role` from `account`. If `account` had been granted `role`, emits a {RoleRevoked} event. Requirements: - the caller must have ``role``'s admin role. May emit a {RoleRevoked} event."
      },
      "supportsInterface(bytes4)": {
        "details": "See {IERC165-supportsInterface}."
      }
    },
    "version": 1
  },
  "userdoc": {
    "kind": "user",
    "methods": {},
    "version": 1
  },
  "storageLayout": {
    "storage": [
      {
        "astId": 24,
        "contract": "src/contracts/adapters/AlgebraAdapter.sol:AlgebraAdapter",
        "label": "_roles",
        "offset": 0,
        "slot": "0",
        "type": "t_mapping(t_bytes32,t_struct(RoleData)19_storage)"
      },
      {
        "astId": 1451,
        "contract": "src/contracts/adapters/AlgebraAdapter.sol:AlgebraAdapter",
        "label": "swapGasEstimate",
        "offset": 0,
        "slot": "1",
        "type": "t_uint256"
      },
      {
        "astId": 1453,
        "contract": "src/contracts/adapters/AlgebraAdapter.sol:AlgebraAdapter",
        "label": "name",
        "offset": 0,
        "slot": "2",
        "type": "t_string_storage"
      },
      {
        "astId": 13341,
        "contract": "src/contracts/adapters/AlgebraAdapter.sol:AlgebraAdapter",
        "label": "quoterGasLimit",
        "offset": 0,
        "slot": "3",
        "type": "t_uint256"
      },
      {
        "astId": 13343,
        "contract": "src/contracts/adapters/AlgebraAdapter.sol:AlgebraAdapter",
        "label": "quoter",
        "offset": 0,
        "slot": "4",
        "type": "t_address"
      }
    ],
    "types": {
      "t_address": {
        "encoding": "inplace",
        "label": "address",
        "numberOfBytes": "20"
      },
      "t_bool": {
        "encoding": "inplace",
        "label": "bool",
        "numberOfBytes": "1"
      },
      "t_bytes32": {
        "encoding": "inplace",
        "label": "bytes32",
        "numberOfBytes": "32"
      },
      "t_mapping(t_address,t_bool)": {
        "encoding": "mapping",
        "key": "t_address",
        "label": "mapping(address => bool)",
        "numberOfBytes": "32",
        "value": "t_bool"
      },
      "t_mapping(t_bytes32,t_struct(RoleData)19_storage)": {
        "encoding": "mapping",
        "key": "t_bytes32",
        "label": "mapping(bytes32 => struct AccessControl.RoleData)",
        "numberOfBytes": "32",
        "value": "t_struct(RoleData)19_storage"
      },
      "t_string_storage": {
        "encoding": "bytes",
        "label": "string",
        "numberOfBytes": "32"
      },
      "t_struct(RoleData)19_storage": {
        "encoding": "inplace",
        "label": "struct AccessControl.RoleData",
        "members": [
          {
            "astId": 16,
            "contract": "src/contracts/adapters/AlgebraAdapter.sol:AlgebraAdapter",
            "label": "members",
            "offset": 0,
            "slot": "0",
            "type": "t_mapping(t_address,t_bool)"
          },
          {
            "astId": 18,
            "contract": "src/contracts/adapters/AlgebraAdapter.sol:AlgebraAdapter",
            "label": "adminRole",
            "offset": 0,
            "slot": "1",
            "type": "t_bytes32"
          }
        ],
        "numberOfBytes": "64"
      },
      "t_uint256": {
        "encoding": "inplace",
        "label": "uint256",
        "numberOfBytes": "32"
      }
    }
  }
}