{
  "address": "0x81544aCDBcFfdc9c0A265CFB220408E1E85AA43D",
  "abi": [
    {
      "inputs": [
        {
          "internalType": "string",
          "name": "_name",
          "type": "string"
        },
        {
          "internalType": "address",
          "name": "_pool",
          "type": "address"
        },
        {
          "internalType": "uint256",
          "name": "_swapGasEstimate",
          "type": "uint256"
        }
      ],
      "stateMutability": "nonpayable",
      "type": "constructor"
    },
    {
      "anonymous": false,
      "inputs": [
        {
          "indexed": true,
          "internalType": "address",
          "name": "_asset",
          "type": "address"
        },
        {
          "indexed": false,
          "internalType": "uint256",
          "name": "amount",
          "type": "uint256"
        }
      ],
      "name": "Recovered",
      "type": "event"
    },
    {
      "anonymous": false,
      "inputs": [
        {
          "indexed": true,
          "internalType": "bytes32",
          "name": "role",
          "type": "bytes32"
        },
        {
          "indexed": true,
          "internalType": "bytes32",
          "name": "previousAdminRole",
          "type": "bytes32"
        },
        {
          "indexed": true,
          "internalType": "bytes32",
          "name": "newAdminRole",
          "type": "bytes32"
        }
      ],
      "name": "RoleAdminChanged",
      "type": "event"
    },
    {
      "anonymous": false,
      "inputs": [
        {
          "indexed": true,
          "internalType": "bytes32",
          "name": "role",
          "type": "bytes32"
        },
        {
          "indexed": true,
          "internalType": "address",
          "name": "account",
          "type": "address"
        },
        {
          "indexed": true,
          "internalType": "address",
          "name": "sender",
          "type": "address"
        }
      ],
      "name": "RoleGranted",
      "type": "event"
    },
    {
      "anonymous": false,
      "inputs": [
        {
          "indexed": true,
          "internalType": "bytes32",
          "name": "role",
          "type": "bytes32"
        },
        {
          "indexed": true,
          "internalType": "address",
          "name": "account",
          "type": "address"
        },
        {
          "indexed": true,
          "internalType": "address",
          "name": "sender",
          "type": "address"
        }
      ],
      "name": "RoleRevoked",
      "type": "event"
    },
    {
      "anonymous": false,
      "inputs": [
        {
          "indexed": true,
          "internalType": "address",
          "name": "_adapter",
          "type": "address"
        },
        {
          "indexed": false,
          "internalType": "uint256",
          "name": "_newEstimate",
          "type": "uint256"
        }
      ],
      "name": "UpdatedGasEstimate",
      "type": "event"
    },
    {
      "anonymous": false,
      "inputs": [
        {
          "indexed": true,
          "internalType": "address",
          "name": "_tokenFrom",
          "type": "address"
        },
        {
          "indexed": true,
          "internalType": "address",
          "name": "_tokenTo",
          "type": "address"
        },
        {
          "indexed": false,
          "internalType": "uint256",
          "name": "_amountIn",
          "type": "uint256"
        },
        {
          "indexed": false,
          "internalType": "uint256",
          "name": "_amountOut",
          "type": "uint256"
        }
      ],
      "name": "YakAdapterSwap",
      "type": "event"
    },
    {
      "inputs": [],
      "name": "DEFAULT_ADMIN_ROLE",
      "outputs": [
        {
          "internalType": "bytes32",
          "name": "",
          "type": "bytes32"
        }
      ],
      "stateMutability": "view",
      "type": "function"
    },
    {
      "inputs": [],
      "name": "MAINTAINER_ROLE",
      "outputs": [
        {
          "internalType": "bytes32",
          "name": "",
          "type": "bytes32"
        }
      ],
      "stateMutability": "view",
      "type": "function"
    },
    {
      "inputs": [],
      "name": "POOL",
      "outputs": [
        {
          "internalType": "address",
          "name": "",
          "type": "address"
        }
      ],
      "stateMutability": "view",
      "type": "function"
    },
    {
      "inputs": [
        {
          "internalType": "address",
          "name": "addedMaintainer",
          "type": "address"
        }
      ],
      "name": "addMaintainer",
      "outputs": [],
      "stateMutability": "nonpayable",
      "type": "function"
    },
    {
      "inputs": [
        {
          "internalType": "bytes32",
          "name": "role",
          "type": "bytes32"
        }
      ],
      "name": "getRoleAdmin",
      "outputs": [
        {
          "internalType": "bytes32",
          "name": "",
          "type": "bytes32"
        }
      ],
      "stateMutability": "view",
      "type": "function"
    },
    {
      "inputs": [
        {
          "internalType": "bytes32",
          "name": "role",
          "type": "bytes32"
        },
        {
          "internalType": "address",
          "name": "account",
          "type": "address"
        }
      ],
      "name": "grantRole",
      "outputs": [],
      "stateMutability": "nonpayable",
      "type": "function"
    },
    {
      "inputs": [
        {
          "internalType": "bytes32",
          "name": "role",
          "type": "bytes32"
        },
        {
          "internalType": "address",
          "name": "account",
          "type": "address"
        }
      ],
      "name": "hasRole",
      "outputs": [
        {
          "internalType": "bool",
          "name": "",
          "type": "bool"
        }
      ],
      "stateMutability": "view",
      "type": "function"
    },
    {
      "inputs": [
        {
          "internalType": "address",
          "name": "",
          "type": "address"
        }
      ],
      "name": "isPoolToken",
      "outputs": [
        {
          "internalType": "bool",
          "name": "",
          "type": "bool"
        }
      ],
      "stateMutability": "view",
      "type": "function"
    },
    {
      "inputs": [],
      "name": "name",
      "outputs": [
        {
          "internalType": "string",
          "name": "",
          "type": "string"
        }
      ],
      "stateMutability": "view",
      "type": "function"
    },
    {
      "inputs": [
        {
          "internalType": "uint256",
          "name": "_amountIn",
          "type": "uint256"
        },
        {
          "internalType": "address",
          "name": "_tokenIn",
          "type": "address"
        },
        {
          "internalType": "address",
          "name": "_tokenOut",
          "type": "address"
        }
      ],
      "name": "query",
      "outputs": [
        {
          "internalType": "uint256",
          "name": "",
          "type": "uint256"
        }
      ],
      "stateMutability": "view",
      "type": "function"
    },
    {
      "inputs": [
        {
          "internalType": "uint256",
          "name": "_amount",
          "type": "uint256"
        }
      ],
      "name": "recoverAVAX",
      "outputs": [],
      "stateMutability": "nonpayable",
      "type": "function"
    },
    {
      "inputs": [
        {
          "internalType": "address",
          "name": "_tokenAddress",
          "type": "address"
        },
        {
          "internalType": "uint256",
          "name": "_tokenAmount",
          "type": "uint256"
        }
      ],
      "name": "recoverERC20",
      "outputs": [],
      "stateMutability": "nonpayable",
      "type": "function"
    },
    {
      "inputs": [
        {
          "internalType": "address",
          "name": "removedMaintainer",
          "type": "address"
        }
      ],
      "name": "removeMaintainer",
      "outputs": [],
      "stateMutability": "nonpayable",
      "type": "function"
    },
    {
      "inputs": [
        {
          "internalType": "bytes32",
          "name": "role",
          "type": "bytes32"
        },
        {
          "internalType": "address",
          "name": "account",
          "type": "address"
        }
      ],
      "name": "renounceRole",
      "outputs": [],
      "stateMutability": "nonpayable",
      "type": "function"
    },
    {
      "inputs": [
        {
          "internalType": "bytes32",
          "name": "role",
          "type": "bytes32"
        }
      ],
      "name": "renounceRole",
      "outputs": [],
      "stateMutability": "nonpayable",
      "type": "function"
    },
    {
      "inputs": [
        {
          "internalType": "address",
          "name": "_token",
          "type": "address"
        },
        {
          "internalType": "address",
          "name": "_spender",
          "type": "address"
        }
      ],
      "name": "revokeAllowance",
      "outputs": [],
      "stateMutability": "nonpayable",
      "type": "function"
    },
    {
      "inputs": [
        {
          "internalType": "bytes32",
          "name": "role",
          "type": "bytes32"
        },
        {
          "internalType": "address",
          "name": "account",
          "type": "address"
        }
      ],
      "name": "revokeRole",
      "outputs": [],
      "stateMutability": "nonpayable",
      "type": "function"
    },
    {
      "inputs": [
        {
          "internalType": "uint256",
          "name": "_estimate",
          "type": "uint256"
        }
      ],
      "name": "setSwapGasEstimate",
      "outputs": [],
      "stateMutability": "nonpayable",
      "type": "function"
    },
    {
      "inputs": [
        {
          "internalType": "bytes4",
          "name": "interfaceId",
          "type": "bytes4"
        }
      ],
      "name": "supportsInterface",
      "outputs": [
        {
          "internalType": "bool",
          "name": "",
          "type": "bool"
        }
      ],
      "stateMutability": "view",
      "type": "function"
    },
    {
      "inputs": [
        {
          "internalType": "uint256",
          "name": "_amountIn",
          "type": "uint256"
        },
        {
          "internalType": "uint256",
          "name": "_amountOut",
          "type": "uint256"
        },
        {
          "internalType": "address",
          "name": "_fromToken",
          "type": "address"
        },
        {
          "internalType": "address",
          "name": "_toToken",
          "type": "address"
        },
        {
          "internalType": "address",
          "name": "_to",
          "type": "address"
        }
      ],
      "name": "swap",
      "outputs": [],
      "stateMutability": "nonpayable",
      "type": "function"
    },
    {
      "inputs": [],
      "name": "swapGasEstimate",
      "outputs": [
        {
          "internalType": "uint256",
          "name": "",
          "type": "uint256"
        }
      ],
      "stateMutability": "view",
      "type": "function"
    },
    {
      "inputs": [
        {
          "internalType": "address",
          "name": "",
          "type": "address"
        }
      ],
      "name": "tokenIndex",
      "outputs": [
        {
          "internalType": "int128",
          "name": "",
          "type": "int128"
        }
      ],
      "stateMutability": "view",
      "type": "function"
    },
    {
      "inputs": [
        {
          "internalType": "address",
          "name": "newOwner",
          "type": "address"
        }
      ],
      "name": "transferOwnership",
      "outputs": [],
      "stateMutability": "nonpayable",
      "type": "function"
    },
    {
      "stateMutability": "payable",
      "type": "receive"
    }
  ],
  "transactionHash": "0xef2d02481e03f47da8238d6b1ab530f2bfd962626c303c4fa3ba1d9c75ca97dd",
  "args": [
    "CurveFraxVstAdapter",
    "0x59bF0545FCa0E5Ad48E13DA269faCD2E8C886Ba4",
    660000
  ],
  "solcInputHash": "179be234bf310622fd3658efc7f3a159",
  "bytecode": "0x60a06040523480156200001157600080fd5b506040516200251738038062002517833981016040819052620000349162000663565b8281600062000042620000ab565b905062000051600082620000af565b6200006c600080516020620024f783398151915282620000af565b506200007882620000bf565b6200008381620000fe565b50506001600160601b0319606083901b16608052620000a282620001ab565b505050620009dd565b3390565b620000bb828262000256565b5050565b8051620000e95760405162461bcd60e51b8152600401620000e09062000815565b60405180910390fd5b8051620000bb9060029060208401906200055a565b60006200010a620000ab565b905062000127600080516020620024f783398151915282620002e0565b620001465760405162461bcd60e51b8152600401620000e09062000798565b81620001665760405162461bcd60e51b8152600401620000e0906200084c565b600182905560405130907ff43f23b7a28e6f8ce6843a21bd7b48bce778aa913b8c8cf459edf7d770e8d38a906200019f9085906200092a565b60405180910390a25050565b60005b60405163c661065760e01b81526001600160a01b0383169063c661065790620001dc9084906004016200092a565b60206040518083038186803b158015620001f557600080fd5b505afa92505050801562000228575060408051601f3d908101601f1916820190925262000225918101906200061d565b60015b6200023357620000bb565b6200024083828462000309565b50806200024d816200099f565b915050620001ae565b620002628282620002e0565b620000bb576000828152602081815260408083206001600160a01b03851684529091529020805460ff191660011790556200029c620000ab565b6001600160a01b0316816001600160a01b0316837f2f8788117e7eff1d82e926ec794901d17c78024a50270940304540a733656f0d60405160405180910390a45050565b6000918252602082815260408084206001600160a01b0393909316845291905290205460ff1690565b6200033083600019846001600160a01b03166200038360201b62000bad179092919060201c565b6001600160a01b0390911660009081526003602090815260408083208054600f9590950b6001600160801b03166001600160801b0319909516949094179093556004905220805460ff1916600117905550565b801580620004125750604051636eb1769f60e11b81526001600160a01b0384169063dd62ed3e90620003bc903090869060040162000765565b60206040518083038186803b158015620003d557600080fd5b505afa158015620003ea573d6000803e3d6000fd5b505050506040513d601f19601f820116820180604052508101906200041091906200072e565b155b620004315760405162461bcd60e51b8152600401620000e090620008cd565b6200048c8363095ea7b360e01b8484604051602401620004539291906200077f565b60408051808303601f190181529190526020810180516001600160e01b0319939093166001600160e01b03938416179052906200049116565b505050565b600080836001600160a01b031683604051620004ae919062000747565b6000604051808303816000865af19150503d8060008114620004ed576040519150601f19603f3d011682016040523d82523d6000602084013e620004f2565b606091505b509150915081620005175760405162461bcd60e51b8152600401620000e090620007e0565b80511562000554578080602001905181019062000535919062000641565b620005545760405162461bcd60e51b8152600401620000e09062000883565b50505050565b828054620005689062000962565b90600052602060002090601f0160209004810192826200058c5760008555620005d7565b82601f10620005a757805160ff1916838001178555620005d7565b82800160010185558215620005d7579182015b82811115620005d7578251825591602001919060010190620005ba565b50620005e5929150620005e9565b5090565b5b80821115620005e55760008155600101620005ea565b80516001600160a01b03811681146200061857600080fd5b919050565b6000602082840312156200062f578081fd5b6200063a8262000600565b9392505050565b60006020828403121562000653578081fd5b815180151581146200063a578182fd5b60008060006060848603121562000678578182fd5b83516001600160401b03808211156200068f578384fd5b818601915086601f830112620006a3578384fd5b815181811115620006b857620006b8620009c7565b604051601f8201601f191681016020018381118282101715620006df57620006df620009c7565b604052818152838201602001891015620006f7578586fd5b6200070a82602083016020870162000933565b95506200071e925050506020850162000600565b9150604084015190509250925092565b60006020828403121562000740578081fd5b5051919050565b600082516200075b81846020870162000933565b9190910192915050565b6001600160a01b0392831681529116602082015260400190565b6001600160a01b03929092168252602082015260400190565b60208082526028908201527f4d61696e7461696e61626c653a2043616c6c6572206973206e6f742061206d6160408201526734b73a30b4b732b960c11b606082015260800190565b6020808252818101527f5361666545524332303a206c6f772d6c6576656c2063616c6c206661696c6564604082015260600190565b60208082526014908201527f496e76616c69642061646170746572206e616d65000000000000000000000000604082015260600190565b60208082526014908201527f496e76616c6964206761732d657374696d617465000000000000000000000000604082015260600190565b6020808252602a908201527f5361666545524332303a204552433230206f7065726174696f6e20646964206e6040820152691bdd081cdd58d8d9595960b21b606082015260800190565b60208082526036908201527f5361666545524332303a20617070726f76652066726f6d206e6f6e2d7a65726f60408201527f20746f206e6f6e2d7a65726f20616c6c6f77616e636500000000000000000000606082015260800190565b90815260200190565b60005b838110156200095057818101518382015260200162000936565b83811115620005545750506000910152565b6002810460018216806200097757607f821691505b602082108114156200099957634e487b7160e01b600052602260045260246000fd5b50919050565b6000600019821415620009c057634e487b7160e01b81526011600452602481fd5b5060010190565b634e487b7160e01b600052604160045260246000fd5b60805160601c611aed62000a0a6000396000818161070e01528181610e8f01526111820152611aed6000f3fe6080604052600436106101845760003560e01c806384a33e63116100d6578063d8baf7cf1161007f578063ef99893a11610059578063ef99893a14610430578063f2fde38b14610450578063f8742254146104705761018b565b8063d8baf7cf146103d0578063de260f37146103f0578063eab90da6146104105761018b565b806391d14854116100b057806391d148541461037b578063a217fddf1461039b578063d547741f146103b05761018b565b806384a33e631461031b5780638980f11f1461033b5780638bb9c5bf1461035b5761018b565b8063427f91a6116101385780636b453c1f116101125780636b453c1f146102b95780637535d246146102d95780637ae26773146102fb5761018b565b8063427f91a6146102575780634ebb79161461028457806369cff80d146102a45761018b565b8063248a9ca311610169578063248a9ca3146101e85780632f2ff15d1461021557806336568abe146102375761018b565b806301ffc9a71461019057806306fdde03146101c65761018b565b3661018b57005b600080fd5b34801561019c57600080fd5b506101b06101ab3660046114f9565b610485565b6040516101bd91906116ae565b60405180910390f35b3480156101d257600080fd5b506101db6104cb565b6040516101bd9190611711565b3480156101f457600080fd5b506102086102033660046114bf565b610559565b6040516101bd91906116b9565b34801561022157600080fd5b506102356102303660046114d7565b61056e565b005b34801561024357600080fd5b506102356102523660046114d7565b61058f565b34801561026357600080fd5b5061027761027236600461142a565b6105de565b6040516101bd91906116c2565b34801561029057600080fd5b5061023561029f3660046114bf565b6105f3565b3480156102b057600080fd5b506102086106d9565b3480156102c557600080fd5b506102356102d436600461142a565b6106df565b3480156102e557600080fd5b506102ee61070c565b6040516101bd9190611667565b34801561030757600080fd5b50610235610316366004611444565b610730565b34801561032757600080fd5b506102356103363660046114bf565b610797565b34801561034757600080fd5b50610235610356366004611476565b61083d565b34801561036757600080fd5b506102356103763660046114bf565b610909565b34801561038757600080fd5b506101b06103963660046114d7565b61091f565b3480156103a757600080fd5b50610208610948565b3480156103bc57600080fd5b506102356103cb3660046114d7565b61094d565b3480156103dc57600080fd5b506102356103eb36600461142a565b610969565b3480156103fc57600080fd5b506101b061040b36600461142a565b610993565b34801561041c57600080fd5b5061023561042b366004611574565b6109a8565b34801561043c57600080fd5b5061020861044b366004611539565b610b50565b34801561045c57600080fd5b5061023561046b36600461142a565b610b67565b34801561047c57600080fd5b50610208610b89565b60006001600160e01b031982167f7965db0b0000000000000000000000000000000000000000000000000000000014806104c357506104c382610cd5565b90505b919050565b600280546104d890611a66565b80601f016020809104026020016040519081016040528092919081815260200182805461050490611a66565b80156105515780601f1061052657610100808354040283529160200191610551565b820191906000526020600020905b81548152906001019060200180831161053457829003601f168201915b505050505081565b60009081526020819052604090206001015490565b61057782610559565b61058081610d07565b61058a8383610d18565b505050565b610597610d9d565b6001600160a01b0316816001600160a01b0316146105d05760405162461bcd60e51b81526004016105c79061196a565b60405180910390fd5b6105da8282610da1565b5050565b600360205260009081526040902054600f0b81565b60006105fd610d9d565b90506106297f339759585899103d2ace64958e37e18ccb0504652c81d4a1b8aa80fe2126ab958261091f565b6106455760405162461bcd60e51b81526004016105c7906117b0565b600082116106655760405162461bcd60e51b81526004016105c79061180d565b604051339083156108fc029084906000818181858888f19350505050158015610692573d6000803e3d6000fd5b5060006001600160a01b03167f8c1256b8896378cd5044f80c202f9772b9d77dc85c8a6eb51967210b09bfaa28836040516106cd91906116b9565b60405180910390a25050565b60015481565b6107097f339759585899103d2ace64958e37e18ccb0504652c81d4a1b8aa80fe2126ab958261056e565b50565b7f000000000000000000000000000000000000000000000000000000000000000081565b600061073a610d9d565b90506107667f339759585899103d2ace64958e37e18ccb0504652c81d4a1b8aa80fe2126ab958261091f565b6107825760405162461bcd60e51b81526004016105c7906117b0565b61058a6001600160a01b038416836000610bad565b60006107a1610d9d565b90506107cd7f339759585899103d2ace64958e37e18ccb0504652c81d4a1b8aa80fe2126ab958261091f565b6107e95760405162461bcd60e51b81526004016105c7906117b0565b816108065760405162461bcd60e51b81526004016105c790611879565b600182905560405130907ff43f23b7a28e6f8ce6843a21bd7b48bce778aa913b8c8cf459edf7d770e8d38a906106cd9085906116b9565b6000610847610d9d565b90506108737f339759585899103d2ace64958e37e18ccb0504652c81d4a1b8aa80fe2126ab958261091f565b61088f5760405162461bcd60e51b81526004016105c7906117b0565b600082116108af5760405162461bcd60e51b81526004016105c79061180d565b6108c36001600160a01b0384163384610e24565b826001600160a01b03167f8c1256b8896378cd5044f80c202f9772b9d77dc85c8a6eb51967210b09bfaa28836040516108fc91906116b9565b60405180910390a2505050565b6000610913610d9d565b90506105da828261058f565b6000918252602082815260408084206001600160a01b0393909316845291905290205460ff1690565b600081565b61095682610559565b61095f81610d07565b61058a8383610da1565b6107097f339759585899103d2ace64958e37e18ccb0504652c81d4a1b8aa80fe2126ab958261094d565b60046020526000908152604090205460ff1681565b6040517f70a082310000000000000000000000000000000000000000000000000000000081526000906001600160a01b038416906370a08231906109f0908590600401611667565b60206040518083038186803b158015610a0857600080fd5b505afa158015610a1c573d6000803e3d6000fd5b505050506040513d601f19601f82011682018060405250810190610a409190611521565b9050610a4f8686868686610e43565b600081846001600160a01b03166370a08231856040518263ffffffff1660e01b8152600401610a7e9190611667565b60206040518083038186803b158015610a9657600080fd5b505afa158015610aaa573d6000803e3d6000fd5b505050506040513d601f19601f82011682018060405250810190610ace9190611521565b610ad89190611a0c565b905085811015610afa5760405162461bcd60e51b81526004016105c790611744565b836001600160a01b0316856001600160a01b03167fe2bdbc6b7225eb0a972ac943c485a6cc05f7c6811838bce8903f23200fb744fa8989604051610b3f9291906119c7565b60405180910390a350505050505050565b6000610b5d848484610f36565b90505b9392505050565b6000610b71610d9d565b9050610b7e60008361056e565b6105da60008261058f565b7f339759585899103d2ace64958e37e18ccb0504652c81d4a1b8aa80fe2126ab9581565b801580610c4e57506040517fdd62ed3e0000000000000000000000000000000000000000000000000000000081526001600160a01b0384169063dd62ed3e90610bfc903090869060040161167b565b60206040518083038186803b158015610c1457600080fd5b505afa158015610c28573d6000803e3d6000fd5b505050506040513d601f19601f82011682018060405250810190610c4c9190611521565b155b610c6a5760405162461bcd60e51b81526004016105c79061190d565b61058a8363095ea7b360e01b8484604051602401610c89929190611695565b60408051601f198184030181529190526020810180517bffffffffffffffffffffffffffffffffffffffffffffffffffffffff166001600160e01b031990931692909217909152610f81565b6001600160e01b031981167f01ffc9a70000000000000000000000000000000000000000000000000000000014919050565b61070981610d13610d9d565b61103d565b610d22828261091f565b6105da576000828152602081815260408083206001600160a01b03851684529091529020805460ff19166001179055610d59610d9d565b6001600160a01b0316816001600160a01b0316837f2f8788117e7eff1d82e926ec794901d17c78024a50270940304540a733656f0d60405160405180910390a45050565b3390565b610dab828261091f565b156105da576000828152602081815260408083206001600160a01b03851684529091529020805460ff19169055610de0610d9d565b6001600160a01b0316816001600160a01b0316837ff6391f5c32d9c69d2a47ea670b442974b53935d1edc7fd64eb21e047a839171b60405160405180910390a45050565b61058a8363a9059cbb60e01b8484604051602401610c89929190611695565b6001600160a01b03838116600090815260036020526040808220548584168352918190205490517f3df021240000000000000000000000000000000000000000000000000000000081527f000000000000000000000000000000000000000000000000000000000000000090931692633df0212492610ed192600f91820b92910b908a908a906004016116ee565b602060405180830381600087803b158015610eeb57600080fd5b505af1158015610eff573d6000803e3d6000fd5b505050506040513d601f19601f82011682018060405250810190610f239190611521565b50610f2f8285836110a1565b5050505050565b6000610f438484846110c5565b610f4f57506000610b60565b6000610f5c858585611135565b905060008111610f6d576000610f78565b610f78600182611a0c565b95945050505050565b600080836001600160a01b031683604051610f9c91906115ca565b6000604051808303816000865af19150503d8060008114610fd9576040519150601f19603f3d011682016040523d82523d6000602084013e610fde565b606091505b5091509150816110005760405162461bcd60e51b81526004016105c790611844565b805115611037578080602001905181019061101b919061149f565b6110375760405162461bcd60e51b81526004016105c7906118b0565b50505050565b611047828261091f565b6105da5761105f816001600160a01b0316601461121c565b61106a83602061121c565b60405160200161107b9291906115e6565b60408051601f198184030181529082905262461bcd60e51b82526105c791600401611711565b306001600160a01b0382161461058a5761058a6001600160a01b0384168284610e24565b600083158015906110e85750816001600160a01b0316836001600160a01b031614155b801561110c57506001600160a01b03831660009081526004602052604090205460ff165b8015610b5d5750506001600160a01b031660009081526004602052604090205460ff1692915050565b6001600160a01b038281166000908152600360205260408082205484841683528183205491517f5e0d443f00000000000000000000000000000000000000000000000000000000815292937f00000000000000000000000000000000000000000000000000000000000000001692635e0d443f926111c192600f90810b9291900b9089906004016116d0565b60206040518083038186803b1580156111d957600080fd5b505afa925050508015611209575060408051601f3d908101601f1916820190925261120691810190611521565b60015b61121557506000610b60565b9050610b60565b6060600061122b8360026119ed565b6112369060026119d5565b67ffffffffffffffff81111561125c57634e487b7160e01b600052604160045260246000fd5b6040519080825280601f01601f191660200182016040528015611286576020820181803683370190505b5090507f3000000000000000000000000000000000000000000000000000000000000000816000815181106112cb57634e487b7160e01b600052603260045260246000fd5b60200101906001600160f81b031916908160001a9053507f78000000000000000000000000000000000000000000000000000000000000008160018151811061132457634e487b7160e01b600052603260045260246000fd5b60200101906001600160f81b031916908160001a90535060006113488460026119ed565b6113539060016119d5565b90505b60018111156113f4577f303132333435363738396162636465660000000000000000000000000000000085600f16601081106113a257634e487b7160e01b600052603260045260246000fd5b1a60f81b8282815181106113c657634e487b7160e01b600052603260045260246000fd5b60200101906001600160f81b031916908160001a90535060049490941c936113ed81611a4f565b9050611356565b508315610b605760405162461bcd60e51b81526004016105c79061177b565b80356001600160a01b03811681146104c657600080fd5b60006020828403121561143b578081fd5b610b6082611413565b60008060408385031215611456578081fd5b61145f83611413565b915061146d60208401611413565b90509250929050565b60008060408385031215611488578182fd5b61149183611413565b946020939093013593505050565b6000602082840312156114b0578081fd5b81518015158114610b60578182fd5b6000602082840312156114d0578081fd5b5035919050565b600080604083850312156114e9578182fd5b8235915061146d60208401611413565b60006020828403121561150a578081fd5b81356001600160e01b031981168114610b60578182fd5b600060208284031215611532578081fd5b5051919050565b60008060006060848603121561154d578081fd5b8335925061155d60208501611413565b915061156b60408501611413565b90509250925092565b600080600080600060a0868803121561158b578081fd5b85359450602086013593506115a260408701611413565b92506115b060608701611413565b91506115be60808701611413565b90509295509295909350565b600082516115dc818460208701611a23565b9190910192915050565b60007f416363657373436f6e74726f6c3a206163636f756e74200000000000000000008252835161161e816017850160208801611a23565b7f206973206d697373696e6720726f6c6520000000000000000000000000000000601791840191820152835161165b816028840160208801611a23565b01602801949350505050565b6001600160a01b0391909116815260200190565b6001600160a01b0392831681529116602082015260400190565b6001600160a01b03929092168252602082015260400190565b901515815260200190565b90815260200190565b600f9190910b815260200190565b600f93840b81529190920b6020820152604081019190915260600190565b600f94850b81529290930b60208301526040820152606081019190915260800190565b6000602082528251806020840152611730816040850160208701611a23565b601f01601f19169190910160400192915050565b60208082526017908201527f496e73756666696369656e7420616d6f756e742d6f7574000000000000000000604082015260600190565b6020808252818101527f537472696e67733a20686578206c656e67746820696e73756666696369656e74604082015260600190565b60208082526028908201527f4d61696e7461696e61626c653a2043616c6c6572206973206e6f742061206d6160408201527f696e7461696e6572000000000000000000000000000000000000000000000000606082015260800190565b6020808252601e908201527f59616b416461707465723a204e6f7468696e6720746f207265636f7665720000604082015260600190565b6020808252818101527f5361666545524332303a206c6f772d6c6576656c2063616c6c206661696c6564604082015260600190565b60208082526014908201527f496e76616c6964206761732d657374696d617465000000000000000000000000604082015260600190565b6020808252602a908201527f5361666545524332303a204552433230206f7065726174696f6e20646964206e60408201527f6f74207375636365656400000000000000000000000000000000000000000000606082015260800190565b60208082526036908201527f5361666545524332303a20617070726f76652066726f6d206e6f6e2d7a65726f60408201527f20746f206e6f6e2d7a65726f20616c6c6f77616e636500000000000000000000606082015260800190565b6020808252602f908201527f416363657373436f6e74726f6c3a2063616e206f6e6c792072656e6f756e636560408201527f20726f6c657320666f722073656c660000000000000000000000000000000000606082015260800190565b918252602082015260400190565b600082198211156119e8576119e8611aa1565b500190565b6000816000190483118215151615611a0757611a07611aa1565b500290565b600082821015611a1e57611a1e611aa1565b500390565b60005b83811015611a3e578181015183820152602001611a26565b838111156110375750506000910152565b600081611a5e57611a5e611aa1565b506000190190565b600281046001821680611a7a57607f821691505b60208210811415611a9b57634e487b7160e01b600052602260045260246000fd5b50919050565b634e487b7160e01b600052601160045260246000fdfea264697066735822122055d81b3b271dabdd74bdc858321e1323dfcec14a7ecf8256fc65ee89397a130064736f6c63430008000033339759585899103d2ace64958e37e18ccb0504652c81d4a1b8aa80fe2126ab95",
  "devdoc": {
    "kind": "dev",
    "methods": {
      "getRoleAdmin(bytes32)": {
        "details": "Returns the admin role that controls `role`. See {grantRole} and {revokeRole}. To change a role's admin, use {_setRoleAdmin}."
      },
      "grantRole(bytes32,address)": {
        "details": "Grants `role` to `account`. If `account` had not been already granted `role`, emits a {RoleGranted} event. Requirements: - the caller must have ``role``'s admin role. May emit a {RoleGranted} event."
      },
      "hasRole(bytes32,address)": {
        "details": "Returns `true` if `account` has been granted `role`."
      },
      "renounceRole(bytes32,address)": {
        "details": "Revokes `role` from the calling account. Roles are often managed via {grantRole} and {revokeRole}: this function's purpose is to provide a mechanism for accounts to lose their privileges if they are compromised (such as when a trusted device is misplaced). If the calling account had been revoked `role`, emits a {RoleRevoked} event. Requirements: - the caller must be `account`. May emit a {RoleRevoked} event."
      },
      "revokeRole(bytes32,address)": {
        "details": "Revokes `role` from `account`. If `account` had been granted `role`, emits a {RoleRevoked} event. Requirements: - the caller must have ``role``'s admin role. May emit a {RoleRevoked} event."
      },
      "supportsInterface(bytes4)": {
        "details": "See {IERC165-supportsInterface}."
      }
    },
    "version": 1
  },
  "userdoc": {
    "kind": "user",
    "methods": {},
    "version": 1
  },
  "storageLayout": {
    "storage": [
      {
        "astId": 24,
        "contract": "src/contracts/adapters/CurvePlain128Adapter.sol:CurvePlain128Adapter",
        "label": "_roles",
        "offset": 0,
        "slot": "0",
        "type": "t_mapping(t_bytes32,t_struct(RoleData)19_storage)"
      },
      {
        "astId": 1452,
        "contract": "src/contracts/adapters/CurvePlain128Adapter.sol:CurvePlain128Adapter",
        "label": "swapGasEstimate",
        "offset": 0,
        "slot": "1",
        "type": "t_uint256"
      },
      {
        "astId": 1454,
        "contract": "src/contracts/adapters/CurvePlain128Adapter.sol:CurvePlain128Adapter",
        "label": "name",
        "offset": 0,
        "slot": "2",
        "type": "t_string_storage"
      },
      {
        "astId": 6920,
        "contract": "src/contracts/adapters/CurvePlain128Adapter.sol:CurvePlain128Adapter",
        "label": "tokenIndex",
        "offset": 0,
        "slot": "3",
        "type": "t_mapping(t_address,t_int128)"
      },
      {
        "astId": 6924,
        "contract": "src/contracts/adapters/CurvePlain128Adapter.sol:CurvePlain128Adapter",
        "label": "isPoolToken",
        "offset": 0,
        "slot": "4",
        "type": "t_mapping(t_address,t_bool)"
      }
    ],
    "types": {
      "t_address": {
        "encoding": "inplace",
        "label": "address",
        "numberOfBytes": "20"
      },
      "t_bool": {
        "encoding": "inplace",
        "label": "bool",
        "numberOfBytes": "1"
      },
      "t_bytes32": {
        "encoding": "inplace",
        "label": "bytes32",
        "numberOfBytes": "32"
      },
      "t_int128": {
        "encoding": "inplace",
        "label": "int128",
        "numberOfBytes": "16"
      },
      "t_mapping(t_address,t_bool)": {
        "encoding": "mapping",
        "key": "t_address",
        "label": "mapping(address => bool)",
        "numberOfBytes": "32",
        "value": "t_bool"
      },
      "t_mapping(t_address,t_int128)": {
        "encoding": "mapping",
        "key": "t_address",
        "label": "mapping(address => int128)",
        "numberOfBytes": "32",
        "value": "t_int128"
      },
      "t_mapping(t_bytes32,t_struct(RoleData)19_storage)": {
        "encoding": "mapping",
        "key": "t_bytes32",
        "label": "mapping(bytes32 => struct AccessControl.RoleData)",
        "numberOfBytes": "32",
        "value": "t_struct(RoleData)19_storage"
      },
      "t_string_storage": {
        "encoding": "bytes",
        "label": "string",
        "numberOfBytes": "32"
      },
      "t_struct(RoleData)19_storage": {
        "encoding": "inplace",
        "label": "struct AccessControl.RoleData",
        "members": [
          {
            "astId": 16,
            "contract": "src/contracts/adapters/CurvePlain128Adapter.sol:CurvePlain128Adapter",
            "label": "members",
            "offset": 0,
            "slot": "0",
            "type": "t_mapping(t_address,t_bool)"
          },
          {
            "astId": 18,
            "contract": "src/contracts/adapters/CurvePlain128Adapter.sol:CurvePlain128Adapter",
            "label": "adminRole",
            "offset": 0,
            "slot": "1",
            "type": "t_bytes32"
          }
        ],
        "numberOfBytes": "64"
      },
      "t_uint256": {
        "encoding": "inplace",
        "label": "uint256",
        "numberOfBytes": "32"
      }
    }
  }
}