{
  "address": "0x5F030dC08EeA2AbFcc497f3c5351746daC971ad2",
  "abi": [
    {
      "inputs": [
        {
          "internalType": "string",
          "name": "_name",
          "type": "string"
        },
        {
          "internalType": "address[]",
          "name": "_pools",
          "type": "address[]"
        },
        {
          "internalType": "address",
          "name": "_helper",
          "type": "address"
        },
        {
          "internalType": "uint256",
          "name": "_gasEstimate",
          "type": "uint256"
        }
      ],
      "stateMutability": "nonpayable",
      "type": "constructor"
    },
    {
      "anonymous": false,
      "inputs": [
        {
          "indexed": true,
          "internalType": "address",
          "name": "_asset",
          "type": "address"
        },
        {
          "indexed": false,
          "internalType": "uint256",
          "name": "amount",
          "type": "uint256"
        }
      ],
      "name": "Recovered",
      "type": "event"
    },
    {
      "anonymous": false,
      "inputs": [
        {
          "indexed": true,
          "internalType": "bytes32",
          "name": "role",
          "type": "bytes32"
        },
        {
          "indexed": true,
          "internalType": "bytes32",
          "name": "previousAdminRole",
          "type": "bytes32"
        },
        {
          "indexed": true,
          "internalType": "bytes32",
          "name": "newAdminRole",
          "type": "bytes32"
        }
      ],
      "name": "RoleAdminChanged",
      "type": "event"
    },
    {
      "anonymous": false,
      "inputs": [
        {
          "indexed": true,
          "internalType": "bytes32",
          "name": "role",
          "type": "bytes32"
        },
        {
          "indexed": true,
          "internalType": "address",
          "name": "account",
          "type": "address"
        },
        {
          "indexed": true,
          "internalType": "address",
          "name": "sender",
          "type": "address"
        }
      ],
      "name": "RoleGranted",
      "type": "event"
    },
    {
      "anonymous": false,
      "inputs": [
        {
          "indexed": true,
          "internalType": "bytes32",
          "name": "role",
          "type": "bytes32"
        },
        {
          "indexed": true,
          "internalType": "address",
          "name": "account",
          "type": "address"
        },
        {
          "indexed": true,
          "internalType": "address",
          "name": "sender",
          "type": "address"
        }
      ],
      "name": "RoleRevoked",
      "type": "event"
    },
    {
      "anonymous": false,
      "inputs": [
        {
          "indexed": true,
          "internalType": "address",
          "name": "_adapter",
          "type": "address"
        },
        {
          "indexed": false,
          "internalType": "uint256",
          "name": "_newEstimate",
          "type": "uint256"
        }
      ],
      "name": "UpdatedGasEstimate",
      "type": "event"
    },
    {
      "anonymous": false,
      "inputs": [
        {
          "indexed": true,
          "internalType": "address",
          "name": "_tokenFrom",
          "type": "address"
        },
        {
          "indexed": true,
          "internalType": "address",
          "name": "_tokenTo",
          "type": "address"
        },
        {
          "indexed": false,
          "internalType": "uint256",
          "name": "_amountIn",
          "type": "uint256"
        },
        {
          "indexed": false,
          "internalType": "uint256",
          "name": "_amountOut",
          "type": "uint256"
        }
      ],
      "name": "YakAdapterSwap",
      "type": "event"
    },
    {
      "inputs": [],
      "name": "DEFAULT_ADMIN_ROLE",
      "outputs": [
        {
          "internalType": "bytes32",
          "name": "",
          "type": "bytes32"
        }
      ],
      "stateMutability": "view",
      "type": "function"
    },
    {
      "inputs": [],
      "name": "HELPER",
      "outputs": [
        {
          "internalType": "address",
          "name": "",
          "type": "address"
        }
      ],
      "stateMutability": "view",
      "type": "function"
    },
    {
      "inputs": [],
      "name": "MAINTAINER_ROLE",
      "outputs": [
        {
          "internalType": "bytes32",
          "name": "",
          "type": "bytes32"
        }
      ],
      "stateMutability": "view",
      "type": "function"
    },
    {
      "inputs": [
        {
          "internalType": "address[]",
          "name": "_pools",
          "type": "address[]"
        }
      ],
      "name": "_rmPools",
      "outputs": [],
      "stateMutability": "nonpayable",
      "type": "function"
    },
    {
      "inputs": [
        {
          "internalType": "address",
          "name": "addedMaintainer",
          "type": "address"
        }
      ],
      "name": "addMaintainer",
      "outputs": [],
      "stateMutability": "nonpayable",
      "type": "function"
    },
    {
      "inputs": [
        {
          "internalType": "bytes32",
          "name": "role",
          "type": "bytes32"
        }
      ],
      "name": "getRoleAdmin",
      "outputs": [
        {
          "internalType": "bytes32",
          "name": "",
          "type": "bytes32"
        }
      ],
      "stateMutability": "view",
      "type": "function"
    },
    {
      "inputs": [
        {
          "internalType": "bytes32",
          "name": "role",
          "type": "bytes32"
        },
        {
          "internalType": "address",
          "name": "account",
          "type": "address"
        }
      ],
      "name": "grantRole",
      "outputs": [],
      "stateMutability": "nonpayable",
      "type": "function"
    },
    {
      "inputs": [
        {
          "internalType": "bytes32",
          "name": "role",
          "type": "bytes32"
        },
        {
          "internalType": "address",
          "name": "account",
          "type": "address"
        }
      ],
      "name": "hasRole",
      "outputs": [
        {
          "internalType": "bool",
          "name": "",
          "type": "bool"
        }
      ],
      "stateMutability": "view",
      "type": "function"
    },
    {
      "inputs": [],
      "name": "name",
      "outputs": [
        {
          "internalType": "string",
          "name": "",
          "type": "string"
        }
      ],
      "stateMutability": "view",
      "type": "function"
    },
    {
      "inputs": [
        {
          "internalType": "uint256",
          "name": "_amountIn",
          "type": "uint256"
        },
        {
          "internalType": "address",
          "name": "_tokenIn",
          "type": "address"
        },
        {
          "internalType": "address",
          "name": "_tokenOut",
          "type": "address"
        }
      ],
      "name": "query",
      "outputs": [
        {
          "internalType": "uint256",
          "name": "",
          "type": "uint256"
        }
      ],
      "stateMutability": "view",
      "type": "function"
    },
    {
      "inputs": [
        {
          "internalType": "uint256",
          "name": "_amount",
          "type": "uint256"
        }
      ],
      "name": "recoverAVAX",
      "outputs": [],
      "stateMutability": "nonpayable",
      "type": "function"
    },
    {
      "inputs": [
        {
          "internalType": "address",
          "name": "_tokenAddress",
          "type": "address"
        },
        {
          "internalType": "uint256",
          "name": "_tokenAmount",
          "type": "uint256"
        }
      ],
      "name": "recoverERC20",
      "outputs": [],
      "stateMutability": "nonpayable",
      "type": "function"
    },
    {
      "inputs": [
        {
          "internalType": "address",
          "name": "removedMaintainer",
          "type": "address"
        }
      ],
      "name": "removeMaintainer",
      "outputs": [],
      "stateMutability": "nonpayable",
      "type": "function"
    },
    {
      "inputs": [
        {
          "internalType": "bytes32",
          "name": "role",
          "type": "bytes32"
        },
        {
          "internalType": "address",
          "name": "account",
          "type": "address"
        }
      ],
      "name": "renounceRole",
      "outputs": [],
      "stateMutability": "nonpayable",
      "type": "function"
    },
    {
      "inputs": [
        {
          "internalType": "bytes32",
          "name": "role",
          "type": "bytes32"
        }
      ],
      "name": "renounceRole",
      "outputs": [],
      "stateMutability": "nonpayable",
      "type": "function"
    },
    {
      "inputs": [
        {
          "internalType": "address",
          "name": "_token",
          "type": "address"
        },
        {
          "internalType": "address",
          "name": "_spender",
          "type": "address"
        }
      ],
      "name": "revokeAllowance",
      "outputs": [],
      "stateMutability": "nonpayable",
      "type": "function"
    },
    {
      "inputs": [
        {
          "internalType": "bytes32",
          "name": "role",
          "type": "bytes32"
        },
        {
          "internalType": "address",
          "name": "account",
          "type": "address"
        }
      ],
      "name": "revokeRole",
      "outputs": [],
      "stateMutability": "nonpayable",
      "type": "function"
    },
    {
      "inputs": [
        {
          "internalType": "address[]",
          "name": "_pools",
          "type": "address[]"
        },
        {
          "internalType": "bool",
          "name": "overwrite",
          "type": "bool"
        }
      ],
      "name": "setPools",
      "outputs": [],
      "stateMutability": "nonpayable",
      "type": "function"
    },
    {
      "inputs": [
        {
          "internalType": "uint256",
          "name": "_estimate",
          "type": "uint256"
        }
      ],
      "name": "setSwapGasEstimate",
      "outputs": [],
      "stateMutability": "nonpayable",
      "type": "function"
    },
    {
      "inputs": [
        {
          "internalType": "bytes4",
          "name": "interfaceId",
          "type": "bytes4"
        }
      ],
      "name": "supportsInterface",
      "outputs": [
        {
          "internalType": "bool",
          "name": "",
          "type": "bool"
        }
      ],
      "stateMutability": "view",
      "type": "function"
    },
    {
      "inputs": [
        {
          "internalType": "uint256",
          "name": "_amountIn",
          "type": "uint256"
        },
        {
          "internalType": "uint256",
          "name": "_amountOut",
          "type": "uint256"
        },
        {
          "internalType": "address",
          "name": "_fromToken",
          "type": "address"
        },
        {
          "internalType": "address",
          "name": "_toToken",
          "type": "address"
        },
        {
          "internalType": "address",
          "name": "_to",
          "type": "address"
        }
      ],
      "name": "swap",
      "outputs": [],
      "stateMutability": "nonpayable",
      "type": "function"
    },
    {
      "inputs": [],
      "name": "swapGasEstimate",
      "outputs": [
        {
          "internalType": "uint256",
          "name": "",
          "type": "uint256"
        }
      ],
      "stateMutability": "view",
      "type": "function"
    },
    {
      "inputs": [
        {
          "internalType": "address",
          "name": "newOwner",
          "type": "address"
        }
      ],
      "name": "transferOwnership",
      "outputs": [],
      "stateMutability": "nonpayable",
      "type": "function"
    },
    {
      "stateMutability": "payable",
      "type": "receive"
    }
  ],
  "transactionHash": "0x5d03d92434a5d930ac340d0858dd4b8a544aaf651670bca0a069748b8be0dd7e",
  "args": [
    "DodoV1Adapter",
    [
      "0xb42a054D950daFD872808B3c839Fbb7AFb86E14C",
      "0xe4B2Dfc82977dd2DCE7E8d37895a6A8F50CbB4fB",
      "0xFE176A2b1e1F67250d2903B8d25f56C0DaBcd6b2"
    ],
    "0xA5F36E822540eFD11FcD77ec46626b916B217c3e",
    335000
  ],
  "solcInputHash": "2f7c552725bac4cbb59f7eeca6343ccc",
  "bytecode": "0x60a06040523480156200001157600080fd5b5060405162002cd838038062002cd8833981016040819052620000349162000847565b8381600062000042620000ad565b905062000051600082620000b1565b6200006c60008051602062002cb883398151915282620000b1565b506200007882620000c1565b620000838162000100565b50620000939050836001620001ad565b5060601b6001600160601b0319166080525062000c349050565b3390565b620000bd82826200020c565b5050565b8051620000eb5760405162461bcd60e51b8152600401620000e29062000a40565b60405180910390fd5b8051620000bd906002906020840190620006ab565b60006200010c620000ad565b90506200012960008051602062002cb88339815191528262000296565b620001485760405162461bcd60e51b8152600401620000e2906200098c565b81620001685760405162461bcd60e51b8152600401620000e29062000a77565b600182905560405130907ff43f23b7a28e6f8ce6843a21bd7b48bce778aa913b8c8cf459edf7d770e8d38a90620001a190859062000b55565b60405180910390a25050565b60005b82518110156200020757620001f4838281518110620001df57634e487b7160e01b600052603260045260246000fd5b602002602001015183620002bf60201b60201c565b620001ff8162000bf6565b9050620001b0565b505050565b62000218828262000296565b620000bd576000828152602081815260408083206001600160a01b03851684529091529020805460ff1916600117905562000252620000ad565b6001600160a01b0316816001600160a01b0316837f2f8788117e7eff1d82e926ec794901d17c78024a50270940304540a733656f0d60405160405180910390a45050565b6000918252602082815260408084206001600160a01b0393909316845291905290205460ff1690565b600080620002cd846200032f565b9150915082620002e457620002e482828662000425565b620002f182828662000491565b6001600160a01b0391821660009081526003602090815260408083209385168352929052208054919093166001600160a01b03199091161790915550565b600080826001600160a01b0316634a248d2a6040518163ffffffff1660e01b815260040160206040518083038186803b1580156200036c57600080fd5b505afa15801562000381573d6000803e3d6000fd5b505050506040513d601f19601f82011682018060405250810190620003a7919062000801565b9150826001600160a01b031663d4b970466040518163ffffffff1660e01b815260040160206040518083038186803b158015620003e357600080fd5b505afa158015620003f8573d6000803e3d6000fd5b505050506040513d601f19601f820116820180604052508101906200041e919062000801565b9050915091565b6001600160a01b0380841660009081526003602090815260408083208685168452909152902054168015806200046c5750816001600160a01b0316816001600160a01b0316145b6200048b5760405162461bcd60e51b8152600401620000e29062000a09565b50505050565b620004b881600019856001600160a01b0316620004df60201b62000cb8179092919060201c565b6200020781600019846001600160a01b0316620004df60201b62000cb8179092919060201c565b8015806200056e5750604051636eb1769f60e11b81526001600160a01b0384169063dd62ed3e9062000518903090869060040162000959565b60206040518083038186803b1580156200053157600080fd5b505afa15801562000546573d6000803e3d6000fd5b505050506040513d601f19601f820116820180604052508101906200056c919062000922565b155b6200058d5760405162461bcd60e51b8152600401620000e29062000af8565b620002078363095ea7b360e01b8484604051602401620005af92919062000973565b60408051808303601f190181529190526020810180516001600160e01b0319939093166001600160e01b0393841617905290620005e816565b600080836001600160a01b0316836040516200060591906200093b565b6000604051808303816000865af19150503d806000811462000644576040519150601f19603f3d011682016040523d82523d6000602084013e62000649565b606091505b5091509150816200066e5760405162461bcd60e51b8152600401620000e290620009d4565b8051156200048b57808060200190518101906200068c919062000825565b6200048b5760405162461bcd60e51b8152600401620000e29062000aae565b828054620006b99062000bb9565b90600052602060002090601f016020900481019282620006dd576000855562000728565b82601f10620006f857805160ff191683800117855562000728565b8280016001018555821562000728579182015b82811115620007285782518255916020019190600101906200070b565b50620007369291506200073a565b5090565b5b808211156200073657600081556001016200073b565b80516001600160a01b03811681146200076957600080fd5b919050565b600082601f8301126200077f578081fd5b815160206001600160401b038211156200079d576200079d62000c1e565b808202620007ad82820162000b5e565b838152828101908684018388018501891015620007c8578687fd5b8693505b85841015620007f557620007e08162000751565b835260019390930192918401918401620007cc565b50979650505050505050565b60006020828403121562000813578081fd5b6200081e8262000751565b9392505050565b60006020828403121562000837578081fd5b815180151581146200081e578182fd5b600080600080608085870312156200085d578283fd5b84516001600160401b038082111562000874578485fd5b818701915087601f83011262000888578485fd5b8151818111156200089d576200089d62000c1e565b620008b2601f8201601f191660200162000b5e565b818152896020838601011115620008c7578687fd5b620008da82602083016020870162000b8a565b602089015190975092505080821115620008f2578485fd5b5062000901878288016200076e565b935050620009126040860162000751565b6060959095015193969295505050565b60006020828403121562000934578081fd5b5051919050565b600082516200094f81846020870162000b8a565b9190910192915050565b6001600160a01b0392831681529116602082015260400190565b6001600160a01b03929092168252602082015260400190565b60208082526028908201527f4d61696e7461696e61626c653a2043616c6c6572206973206e6f742061206d6160408201526734b73a30b4b732b960c11b606082015260800190565b6020808252818101527f5361666545524332303a206c6f772d6c6576656c2063616c6c206661696c6564604082015260600190565b60208082526018908201527f4e6f7420616c6c6f77656420746f206f76657277726974650000000000000000604082015260600190565b60208082526014908201527f496e76616c69642061646170746572206e616d65000000000000000000000000604082015260600190565b60208082526014908201527f496e76616c6964206761732d657374696d617465000000000000000000000000604082015260600190565b6020808252602a908201527f5361666545524332303a204552433230206f7065726174696f6e20646964206e6040820152691bdd081cdd58d8d9595960b21b606082015260800190565b60208082526036908201527f5361666545524332303a20617070726f76652066726f6d206e6f6e2d7a65726f60408201527f20746f206e6f6e2d7a65726f20616c6c6f77616e636500000000000000000000606082015260800190565b90815260200190565b6040518181016001600160401b038111828210171562000b825762000b8262000c1e565b604052919050565b60005b8381101562000ba757818101518382015260200162000b8d565b838111156200048b5750506000910152565b60028104600182168062000bce57607f821691505b6020821081141562000bf057634e487b7160e01b600052602260045260246000fd5b50919050565b600060001982141562000c1757634e487b7160e01b81526011600452602481fd5b5060010190565b634e487b7160e01b600052604160045260246000fd5b60805160601c61205e62000c5a60003960008181610c720152611368015261205e6000f3fe6080604052600436106101845760003560e01c80638980f11f116100d6578063d8baf7cf1161007f578063f2fde38b11610059578063f2fde38b14610421578063f551bf2014610441578063f8742254146104635761018b565b8063d8baf7cf146103c1578063eab90da6146103e1578063ef99893a146104015761018b565b8063a217fddf116100b0578063a217fddf1461036c578063a746e4b214610381578063d547741f146103a15761018b565b80638980f11f1461030c5780638bb9c5bf1461032c57806391d148541461034c5761018b565b806349e38f32116101385780636b453c1f116101125780636b453c1f146102ac5780637ae26773146102cc57806384a33e63146102ec5761018b565b806349e38f32146102575780634ebb79161461027757806369cff80d146102975761018b565b8063248a9ca311610169578063248a9ca3146101e85780632f2ff15d1461021557806336568abe146102375761018b565b806301ffc9a71461019057806306fdde03146101c65761018b565b3661018b57005b600080fd5b34801561019c57600080fd5b506101b06101ab366004611a03565b610478565b6040516101bd9190611bc6565b60405180910390f35b3480156101d257600080fd5b506101db6104be565b6040516101bd9190611bda565b3480156101f457600080fd5b506102086102033660046119c7565b61054c565b6040516101bd9190611bd1565b34801561022157600080fd5b506102356102303660046119df565b610561565b005b34801561024357600080fd5b506102356102523660046119df565b610582565b34801561026357600080fd5b50610235610272366004611966565b6105d1565b34801561028357600080fd5b506102356102923660046119c7565b61062d565b3480156102a357600080fd5b50610208610713565b3480156102b857600080fd5b506102356102c7366004611890565b610719565b3480156102d857600080fd5b506102356102e73660046118c8565b610746565b3480156102f857600080fd5b506102356103073660046119c7565b6107ad565b34801561031857600080fd5b50610235610327366004611900565b610853565b34801561033857600080fd5b506102356103473660046119c7565b61091f565b34801561035857600080fd5b506101b06103673660046119df565b610935565b34801561037857600080fd5b5061020861095e565b34801561038d57600080fd5b5061023561039c36600461192b565b610963565b3480156103ad57600080fd5b506102356103bc3660046119df565b610a49565b3480156103cd57600080fd5b506102356103dc366004611890565b610a65565b3480156103ed57600080fd5b506102356103fc366004611a84565b610a8f565b34801561040d57600080fd5b5061020861041c366004611a43565b610c37565b34801561042d57600080fd5b5061023561043c366004611890565b610c4e565b34801561044d57600080fd5b50610456610c70565b6040516101bd9190611b7f565b34801561046f57600080fd5b50610208610c94565b60006001600160e01b031982167f7965db0b0000000000000000000000000000000000000000000000000000000014806104b657506104b682610de0565b90505b919050565b600280546104cb90611f83565b80601f01602080910402602001604051908101604052809291908181526020018280546104f790611f83565b80156105445780601f1061051957610100808354040283529160200191610544565b820191906000526020600020905b81548152906001019060200180831161052757829003601f168201915b505050505081565b60009081526020819052604090206001015490565b61056a8261054c565b61057381610e12565b61057d8383610e23565b505050565b61058a610ea8565b6001600160a01b0316816001600160a01b0316146105c35760405162461bcd60e51b81526004016105ba90611e6a565b60405180910390fd5b6105cd8282610eac565b5050565b60006105db610ea8565b90506106077f339759585899103d2ace64958e37e18ccb0504652c81d4a1b8aa80fe2126ab9582610935565b6106235760405162461bcd60e51b81526004016105ba90611c79565b61057d8383610f2f565b6000610637610ea8565b90506106637f339759585899103d2ace64958e37e18ccb0504652c81d4a1b8aa80fe2126ab9582610935565b61067f5760405162461bcd60e51b81526004016105ba90611c79565b6000821161069f5760405162461bcd60e51b81526004016105ba90611cd6565b604051339083156108fc029084906000818181858888f193505050501580156106cc573d6000803e3d6000fd5b5060006001600160a01b03167f8c1256b8896378cd5044f80c202f9772b9d77dc85c8a6eb51967210b09bfaa28836040516107079190611bd1565b60405180910390a25050565b60015481565b6107437f339759585899103d2ace64958e37e18ccb0504652c81d4a1b8aa80fe2126ab9582610561565b50565b6000610750610ea8565b905061077c7f339759585899103d2ace64958e37e18ccb0504652c81d4a1b8aa80fe2126ab9582610935565b6107985760405162461bcd60e51b81526004016105ba90611c79565b61057d6001600160a01b038416836000610cb8565b60006107b7610ea8565b90506107e37f339759585899103d2ace64958e37e18ccb0504652c81d4a1b8aa80fe2126ab9582610935565b6107ff5760405162461bcd60e51b81526004016105ba90611c79565b8161081c5760405162461bcd60e51b81526004016105ba90611d79565b600182905560405130907ff43f23b7a28e6f8ce6843a21bd7b48bce778aa913b8c8cf459edf7d770e8d38a90610707908590611bd1565b600061085d610ea8565b90506108897f339759585899103d2ace64958e37e18ccb0504652c81d4a1b8aa80fe2126ab9582610935565b6108a55760405162461bcd60e51b81526004016105ba90611c79565b600082116108c55760405162461bcd60e51b81526004016105ba90611cd6565b6108d96001600160a01b0384163384610f7c565b826001600160a01b03167f8c1256b8896378cd5044f80c202f9772b9d77dc85c8a6eb51967210b09bfaa28836040516109129190611bd1565b60405180910390a2505050565b6000610929610ea8565b90506105cd8282610582565b6000918252602082815260408084206001600160a01b0393909316845291905290205460ff1690565b600081565b600061096d610ea8565b90506109997f339759585899103d2ace64958e37e18ccb0504652c81d4a1b8aa80fe2126ab9582610935565b6109b55760405162461bcd60e51b81526004016105ba90611c79565b60005b825181101561057d576000806109f48584815181106109e757634e487b7160e01b600052603260045260246000fd5b6020026020010151610f9b565b6001600160a01b0391821660009081526003602090815260408083209390941682529190915220805473ffffffffffffffffffffffffffffffffffffffff1916905550610a42905081611fbe565b90506109b8565b610a528261054c565b610a5b81610e12565b61057d8383610eac565b6107437f339759585899103d2ace64958e37e18ccb0504652c81d4a1b8aa80fe2126ab9582610a49565b6040517f70a082310000000000000000000000000000000000000000000000000000000081526000906001600160a01b038416906370a0823190610ad7908590600401611b7f565b60206040518083038186803b158015610aef57600080fd5b505afa158015610b03573d6000803e3d6000fd5b505050506040513d601f19601f82011682018060405250810190610b279190611a2b565b9050610b368686868686611089565b600081846001600160a01b03166370a08231856040518263ffffffff1660e01b8152600401610b659190611b7f565b60206040518083038186803b158015610b7d57600080fd5b505afa158015610b91573d6000803e3d6000fd5b505050506040513d601f19601f82011682018060405250810190610bb59190611a2b565b610bbf9190611f29565b905085811015610be15760405162461bcd60e51b81526004016105ba90611c0d565b836001600160a01b0316856001600160a01b03167fe2bdbc6b7225eb0a972ac943c485a6cc05f7c6811838bce8903f23200fb744fa8989604051610c26929190611ec7565b60405180910390a350505050505050565b6000610c4484848461122f565b90505b9392505050565b6000610c58610ea8565b9050610c65600083610561565b6105cd600082610582565b7f000000000000000000000000000000000000000000000000000000000000000081565b7f339759585899103d2ace64958e37e18ccb0504652c81d4a1b8aa80fe2126ab9581565b801580610d5957506040517fdd62ed3e0000000000000000000000000000000000000000000000000000000081526001600160a01b0384169063dd62ed3e90610d079030908690600401611b93565b60206040518083038186803b158015610d1f57600080fd5b505afa158015610d33573d6000803e3d6000fd5b505050506040513d601f19601f82011682018060405250810190610d579190611a2b565b155b610d755760405162461bcd60e51b81526004016105ba90611e0d565b61057d8363095ea7b360e01b8484604051602401610d94929190611bad565b60408051601f198184030181529190526020810180517bffffffffffffffffffffffffffffffffffffffffffffffffffffffff166001600160e01b0319909316929092179091526113a7565b6001600160e01b031981167f01ffc9a70000000000000000000000000000000000000000000000000000000014919050565b61074381610e1e610ea8565b611463565b610e2d8282610935565b6105cd576000828152602081815260408083206001600160a01b03851684529091529020805460ff19166001179055610e64610ea8565b6001600160a01b0316816001600160a01b0316837f2f8788117e7eff1d82e926ec794901d17c78024a50270940304540a733656f0d60405160405180910390a45050565b3390565b610eb68282610935565b156105cd576000828152602081815260408083206001600160a01b03851684529091529020805460ff19169055610eeb610ea8565b6001600160a01b0316816001600160a01b0316837ff6391f5c32d9c69d2a47ea670b442974b53935d1edc7fd64eb21e047a839171b60405160405180910390a45050565b60005b825181101561057d57610f6c838281518110610f5e57634e487b7160e01b600052603260045260246000fd5b6020026020010151836114c7565b610f7581611fbe565b9050610f32565b61057d8363a9059cbb60e01b8484604051602401610d94929190611bad565b600080826001600160a01b0316634a248d2a6040518163ffffffff1660e01b815260040160206040518083038186803b158015610fd757600080fd5b505afa158015610feb573d6000803e3d6000fd5b505050506040513d601f19601f8201168201806040525081019061100f91906118ac565b9150826001600160a01b031663d4b970466040518163ffffffff1660e01b815260040160206040518083038186803b15801561104a57600080fd5b505afa15801561105e573d6000803e3d6000fd5b505050506040513d601f19601f8201168201806040525081019061108291906118ac565b9050915091565b6001600160a01b0380841660009081526003602090815260408083208685168452909152902054168015611152576040517f8dae73330000000000000000000000000000000000000000000000000000000081526001600160a01b03821690638dae7333906110fe9089908990600401611ed5565b602060405180830381600087803b15801561111857600080fd5b505af115801561112c573d6000803e3d6000fd5b505050506040513d601f19601f820116820180604052508101906111509190611a2b565b505b506001600160a01b038083166000908152600360209081526040808320878516845290915290205416801561121c576040517fe67ce7060000000000000000000000000000000000000000000000000000000081526001600160a01b0382169063e67ce706906111c89088908a90600401611ed5565b602060405180830381600087803b1580156111e257600080fd5b505af11580156111f6573d6000803e3d6000fd5b505050506040513d601f19601f8201168201806040525081019061121a9190611a2b565b505b61122783868461153d565b505050505050565b60008361123e57506000610c47565b6001600160a01b0380841660009081526003602090815260408083208685168452909152902054168015611309576040517fa2801e160000000000000000000000000000000000000000000000000000000081526001600160a01b0382169063a2801e16906112b1908890600401611bd1565b60206040518083038186803b1580156112c957600080fd5b505afa1580156112dd573d6000803e3d6000fd5b505050506040513d601f19601f820116820180604052508101906113019190611a2b565b915050610c47565b506001600160a01b038083166000908152600360209081526040808320878516845290915290205416801561139f576040517fca19ebd90000000000000000000000000000000000000000000000000000000081526001600160a01b037f0000000000000000000000000000000000000000000000000000000000000000169063ca19ebd9906112b19084908990600401611bad565b509392505050565b600080836001600160a01b0316836040516113c29190611ae2565b6000604051808303816000865af19150503d80600081146113ff576040519150601f19603f3d011682016040523d82523d6000602084013e611404565b606091505b5091509150816114265760405162461bcd60e51b81526004016105ba90611d0d565b80511561145d578080602001905181019061144191906119ab565b61145d5760405162461bcd60e51b81526004016105ba90611db0565b50505050565b61146d8282610935565b6105cd57611485816001600160a01b03166014611561565b611490836020611561565b6040516020016114a1929190611afe565b60408051601f198184030181529082905262461bcd60e51b82526105ba91600401611bda565b6000806114d384610f9b565b91509150826114e7576114e7828286611758565b6114f28282866117ba565b6001600160a01b03918216600090815260036020908152604080832093851683529290522080549190931673ffffffffffffffffffffffffffffffffffffffff199091161790915550565b306001600160a01b0382161461057d5761057d6001600160a01b0384168284610f7c565b60606000611570836002611f0a565b61157b906002611ef2565b67ffffffffffffffff8111156115a157634e487b7160e01b600052604160045260246000fd5b6040519080825280601f01601f1916602001820160405280156115cb576020820181803683370190505b5090507f30000000000000000000000000000000000000000000000000000000000000008160008151811061161057634e487b7160e01b600052603260045260246000fd5b60200101906001600160f81b031916908160001a9053507f78000000000000000000000000000000000000000000000000000000000000008160018151811061166957634e487b7160e01b600052603260045260246000fd5b60200101906001600160f81b031916908160001a905350600061168d846002611f0a565b611698906001611ef2565b90505b6001811115611739577f303132333435363738396162636465660000000000000000000000000000000085600f16601081106116e757634e487b7160e01b600052603260045260246000fd5b1a60f81b82828151811061170b57634e487b7160e01b600052603260045260246000fd5b60200101906001600160f81b031916908160001a90535060049490941c9361173281611f6c565b905061169b565b508315610c475760405162461bcd60e51b81526004016105ba90611c44565b6001600160a01b03808416600090815260036020908152604080832086851684529091529020541680158061179e5750816001600160a01b0316816001600160a01b0316145b61145d5760405162461bcd60e51b81526004016105ba90611d42565b6117d06001600160a01b03841682600019610cb8565b61057d6001600160a01b03831682600019610cb8565b80356104b981612005565b600082601f830112611801578081fd5b8135602067ffffffffffffffff8083111561181e5761181e611fef565b8183026040518382820101818110848211171561183d5761183d611fef565b6040528481528381019250868401828801850189101561185b578687fd5b8692505b8583101561188457611870816117e6565b84529284019260019290920191840161185f565b50979650505050505050565b6000602082840312156118a1578081fd5b8135610c4781612005565b6000602082840312156118bd578081fd5b8151610c4781612005565b600080604083850312156118da578081fd5b82356118e581612005565b915060208301356118f581612005565b809150509250929050565b60008060408385031215611912578182fd5b823561191d81612005565b946020939093013593505050565b60006020828403121561193c578081fd5b813567ffffffffffffffff811115611952578182fd5b61195e848285016117f1565b949350505050565b60008060408385031215611978578182fd5b823567ffffffffffffffff81111561198e578283fd5b61199a858286016117f1565b92505060208301356118f58161201a565b6000602082840312156119bc578081fd5b8151610c478161201a565b6000602082840312156119d8578081fd5b5035919050565b600080604083850312156119f1578182fd5b8235915060208301356118f581612005565b600060208284031215611a14578081fd5b81356001600160e01b031981168114610c47578182fd5b600060208284031215611a3c578081fd5b5051919050565b600080600060608486031215611a57578081fd5b833592506020840135611a6981612005565b91506040840135611a7981612005565b809150509250925092565b600080600080600060a08688031215611a9b578081fd5b85359450602086013593506040860135611ab481612005565b92506060860135611ac481612005565b91506080860135611ad481612005565b809150509295509295909350565b60008251611af4818460208701611f40565b9190910192915050565b60007f416363657373436f6e74726f6c3a206163636f756e742000000000000000000082528351611b36816017850160208801611f40565b7f206973206d697373696e6720726f6c65200000000000000000000000000000006017918401918201528351611b73816028840160208801611f40565b01602801949350505050565b6001600160a01b0391909116815260200190565b6001600160a01b0392831681529116602082015260400190565b6001600160a01b03929092168252602082015260400190565b901515815260200190565b90815260200190565b6000602082528251806020840152611bf9816040850160208701611f40565b601f01601f19169190910160400192915050565b60208082526017908201527f496e73756666696369656e7420616d6f756e742d6f7574000000000000000000604082015260600190565b6020808252818101527f537472696e67733a20686578206c656e67746820696e73756666696369656e74604082015260600190565b60208082526028908201527f4d61696e7461696e61626c653a2043616c6c6572206973206e6f742061206d6160408201527f696e7461696e6572000000000000000000000000000000000000000000000000606082015260800190565b6020808252601e908201527f59616b416461707465723a204e6f7468696e6720746f207265636f7665720000604082015260600190565b6020808252818101527f5361666545524332303a206c6f772d6c6576656c2063616c6c206661696c6564604082015260600190565b60208082526018908201527f4e6f7420616c6c6f77656420746f206f76657277726974650000000000000000604082015260600190565b60208082526014908201527f496e76616c6964206761732d657374696d617465000000000000000000000000604082015260600190565b6020808252602a908201527f5361666545524332303a204552433230206f7065726174696f6e20646964206e60408201527f6f74207375636365656400000000000000000000000000000000000000000000606082015260800190565b60208082526036908201527f5361666545524332303a20617070726f76652066726f6d206e6f6e2d7a65726f60408201527f20746f206e6f6e2d7a65726f20616c6c6f77616e636500000000000000000000606082015260800190565b6020808252602f908201527f416363657373436f6e74726f6c3a2063616e206f6e6c792072656e6f756e636560408201527f20726f6c657320666f722073656c660000000000000000000000000000000000606082015260800190565b918252602082015260400190565b918252602082015260606040820181905260009082015260800190565b60008219821115611f0557611f05611fd9565b500190565b6000816000190483118215151615611f2457611f24611fd9565b500290565b600082821015611f3b57611f3b611fd9565b500390565b60005b83811015611f5b578181015183820152602001611f43565b8381111561145d5750506000910152565b600081611f7b57611f7b611fd9565b506000190190565b600281046001821680611f9757607f821691505b60208210811415611fb857634e487b7160e01b600052602260045260246000fd5b50919050565b6000600019821415611fd257611fd2611fd9565b5060010190565b634e487b7160e01b600052601160045260246000fd5b634e487b7160e01b600052604160045260246000fd5b6001600160a01b038116811461074357600080fd5b801515811461074357600080fdfea264697066735822122016e1d15c863c6528b25baad3e072d768b05afb8c27df404f97385bec9016b14b64736f6c63430008000033339759585899103d2ace64958e37e18ccb0504652c81d4a1b8aa80fe2126ab95",
  "devdoc": {
    "kind": "dev",
    "methods": {
      "getRoleAdmin(bytes32)": {
        "details": "Returns the admin role that controls `role`. See {grantRole} and {revokeRole}. To change a role's admin, use {_setRoleAdmin}."
      },
      "grantRole(bytes32,address)": {
        "details": "Grants `role` to `account`. If `account` had not been already granted `role`, emits a {RoleGranted} event. Requirements: - the caller must have ``role``'s admin role. May emit a {RoleGranted} event."
      },
      "hasRole(bytes32,address)": {
        "details": "Returns `true` if `account` has been granted `role`."
      },
      "renounceRole(bytes32,address)": {
        "details": "Revokes `role` from the calling account. Roles are often managed via {grantRole} and {revokeRole}: this function's purpose is to provide a mechanism for accounts to lose their privileges if they are compromised (such as when a trusted device is misplaced). If the calling account had been revoked `role`, emits a {RoleRevoked} event. Requirements: - the caller must be `account`. May emit a {RoleRevoked} event."
      },
      "revokeRole(bytes32,address)": {
        "details": "Revokes `role` from `account`. If `account` had been granted `role`, emits a {RoleRevoked} event. Requirements: - the caller must have ``role``'s admin role. May emit a {RoleRevoked} event."
      },
      "supportsInterface(bytes4)": {
        "details": "See {IERC165-supportsInterface}."
      }
    },
    "version": 1
  },
  "userdoc": {
    "kind": "user",
    "methods": {},
    "version": 1
  },
  "storageLayout": {
    "storage": [
      {
        "astId": 24,
        "contract": "src/contracts/adapters/DodoV1Adapter.sol:DodoV1Adapter",
        "label": "_roles",
        "offset": 0,
        "slot": "0",
        "type": "t_mapping(t_bytes32,t_struct(RoleData)19_storage)"
      },
      {
        "astId": 1452,
        "contract": "src/contracts/adapters/DodoV1Adapter.sol:DodoV1Adapter",
        "label": "swapGasEstimate",
        "offset": 0,
        "slot": "1",
        "type": "t_uint256"
      },
      {
        "astId": 1454,
        "contract": "src/contracts/adapters/DodoV1Adapter.sol:DodoV1Adapter",
        "label": "name",
        "offset": 0,
        "slot": "2",
        "type": "t_string_storage"
      },
      {
        "astId": 7464,
        "contract": "src/contracts/adapters/DodoV1Adapter.sol:DodoV1Adapter",
        "label": "tknsToPool",
        "offset": 0,
        "slot": "3",
        "type": "t_mapping(t_address,t_mapping(t_address,t_address))"
      }
    ],
    "types": {
      "t_address": {
        "encoding": "inplace",
        "label": "address",
        "numberOfBytes": "20"
      },
      "t_bool": {
        "encoding": "inplace",
        "label": "bool",
        "numberOfBytes": "1"
      },
      "t_bytes32": {
        "encoding": "inplace",
        "label": "bytes32",
        "numberOfBytes": "32"
      },
      "t_mapping(t_address,t_address)": {
        "encoding": "mapping",
        "key": "t_address",
        "label": "mapping(address => address)",
        "numberOfBytes": "32",
        "value": "t_address"
      },
      "t_mapping(t_address,t_bool)": {
        "encoding": "mapping",
        "key": "t_address",
        "label": "mapping(address => bool)",
        "numberOfBytes": "32",
        "value": "t_bool"
      },
      "t_mapping(t_address,t_mapping(t_address,t_address))": {
        "encoding": "mapping",
        "key": "t_address",
        "label": "mapping(address => mapping(address => address))",
        "numberOfBytes": "32",
        "value": "t_mapping(t_address,t_address)"
      },
      "t_mapping(t_bytes32,t_struct(RoleData)19_storage)": {
        "encoding": "mapping",
        "key": "t_bytes32",
        "label": "mapping(bytes32 => struct AccessControl.RoleData)",
        "numberOfBytes": "32",
        "value": "t_struct(RoleData)19_storage"
      },
      "t_string_storage": {
        "encoding": "bytes",
        "label": "string",
        "numberOfBytes": "32"
      },
      "t_struct(RoleData)19_storage": {
        "encoding": "inplace",
        "label": "struct AccessControl.RoleData",
        "members": [
          {
            "astId": 16,
            "contract": "src/contracts/adapters/DodoV1Adapter.sol:DodoV1Adapter",
            "label": "members",
            "offset": 0,
            "slot": "0",
            "type": "t_mapping(t_address,t_bool)"
          },
          {
            "astId": 18,
            "contract": "src/contracts/adapters/DodoV1Adapter.sol:DodoV1Adapter",
            "label": "adminRole",
            "offset": 0,
            "slot": "1",
            "type": "t_bytes32"
          }
        ],
        "numberOfBytes": "64"
      },
      "t_uint256": {
        "encoding": "inplace",
        "label": "uint256",
        "numberOfBytes": "32"
      }
    }
  }
}