{
  "address": "0x1d3E01bD14214fE3cd10904690DFa908C23b37A1",
  "abi": [
    {
      "inputs": [
        {
          "internalType": "string",
          "name": "_name",
          "type": "string"
        },
        {
          "internalType": "address[]",
          "name": "_pools",
          "type": "address[]"
        },
        {
          "internalType": "uint256",
          "name": "_gasEstimate",
          "type": "uint256"
        }
      ],
      "stateMutability": "nonpayable",
      "type": "constructor"
    },
    {
      "anonymous": false,
      "inputs": [
        {
          "indexed": true,
          "internalType": "address",
          "name": "_asset",
          "type": "address"
        },
        {
          "indexed": false,
          "internalType": "uint256",
          "name": "amount",
          "type": "uint256"
        }
      ],
      "name": "Recovered",
      "type": "event"
    },
    {
      "anonymous": false,
      "inputs": [
        {
          "indexed": true,
          "internalType": "bytes32",
          "name": "role",
          "type": "bytes32"
        },
        {
          "indexed": true,
          "internalType": "bytes32",
          "name": "previousAdminRole",
          "type": "bytes32"
        },
        {
          "indexed": true,
          "internalType": "bytes32",
          "name": "newAdminRole",
          "type": "bytes32"
        }
      ],
      "name": "RoleAdminChanged",
      "type": "event"
    },
    {
      "anonymous": false,
      "inputs": [
        {
          "indexed": true,
          "internalType": "bytes32",
          "name": "role",
          "type": "bytes32"
        },
        {
          "indexed": true,
          "internalType": "address",
          "name": "account",
          "type": "address"
        },
        {
          "indexed": true,
          "internalType": "address",
          "name": "sender",
          "type": "address"
        }
      ],
      "name": "RoleGranted",
      "type": "event"
    },
    {
      "anonymous": false,
      "inputs": [
        {
          "indexed": true,
          "internalType": "bytes32",
          "name": "role",
          "type": "bytes32"
        },
        {
          "indexed": true,
          "internalType": "address",
          "name": "account",
          "type": "address"
        },
        {
          "indexed": true,
          "internalType": "address",
          "name": "sender",
          "type": "address"
        }
      ],
      "name": "RoleRevoked",
      "type": "event"
    },
    {
      "anonymous": false,
      "inputs": [
        {
          "indexed": true,
          "internalType": "address",
          "name": "_adapter",
          "type": "address"
        },
        {
          "indexed": false,
          "internalType": "uint256",
          "name": "_newEstimate",
          "type": "uint256"
        }
      ],
      "name": "UpdatedGasEstimate",
      "type": "event"
    },
    {
      "anonymous": false,
      "inputs": [
        {
          "indexed": true,
          "internalType": "address",
          "name": "_tokenFrom",
          "type": "address"
        },
        {
          "indexed": true,
          "internalType": "address",
          "name": "_tokenTo",
          "type": "address"
        },
        {
          "indexed": false,
          "internalType": "uint256",
          "name": "_amountIn",
          "type": "uint256"
        },
        {
          "indexed": false,
          "internalType": "uint256",
          "name": "_amountOut",
          "type": "uint256"
        }
      ],
      "name": "YakAdapterSwap",
      "type": "event"
    },
    {
      "inputs": [],
      "name": "DEFAULT_ADMIN_ROLE",
      "outputs": [
        {
          "internalType": "bytes32",
          "name": "",
          "type": "bytes32"
        }
      ],
      "stateMutability": "view",
      "type": "function"
    },
    {
      "inputs": [],
      "name": "MAINTAINER_ROLE",
      "outputs": [
        {
          "internalType": "bytes32",
          "name": "",
          "type": "bytes32"
        }
      ],
      "stateMutability": "view",
      "type": "function"
    },
    {
      "inputs": [
        {
          "internalType": "address[]",
          "name": "_pools",
          "type": "address[]"
        }
      ],
      "name": "_rmPools",
      "outputs": [],
      "stateMutability": "nonpayable",
      "type": "function"
    },
    {
      "inputs": [
        {
          "internalType": "address",
          "name": "addedMaintainer",
          "type": "address"
        }
      ],
      "name": "addMaintainer",
      "outputs": [],
      "stateMutability": "nonpayable",
      "type": "function"
    },
    {
      "inputs": [
        {
          "internalType": "bytes32",
          "name": "role",
          "type": "bytes32"
        }
      ],
      "name": "getRoleAdmin",
      "outputs": [
        {
          "internalType": "bytes32",
          "name": "",
          "type": "bytes32"
        }
      ],
      "stateMutability": "view",
      "type": "function"
    },
    {
      "inputs": [
        {
          "internalType": "bytes32",
          "name": "role",
          "type": "bytes32"
        },
        {
          "internalType": "address",
          "name": "account",
          "type": "address"
        }
      ],
      "name": "grantRole",
      "outputs": [],
      "stateMutability": "nonpayable",
      "type": "function"
    },
    {
      "inputs": [
        {
          "internalType": "bytes32",
          "name": "role",
          "type": "bytes32"
        },
        {
          "internalType": "address",
          "name": "account",
          "type": "address"
        }
      ],
      "name": "hasRole",
      "outputs": [
        {
          "internalType": "bool",
          "name": "",
          "type": "bool"
        }
      ],
      "stateMutability": "view",
      "type": "function"
    },
    {
      "inputs": [],
      "name": "name",
      "outputs": [
        {
          "internalType": "string",
          "name": "",
          "type": "string"
        }
      ],
      "stateMutability": "view",
      "type": "function"
    },
    {
      "inputs": [
        {
          "internalType": "uint256",
          "name": "_amountIn",
          "type": "uint256"
        },
        {
          "internalType": "address",
          "name": "_tokenIn",
          "type": "address"
        },
        {
          "internalType": "address",
          "name": "_tokenOut",
          "type": "address"
        }
      ],
      "name": "query",
      "outputs": [
        {
          "internalType": "uint256",
          "name": "",
          "type": "uint256"
        }
      ],
      "stateMutability": "view",
      "type": "function"
    },
    {
      "inputs": [
        {
          "internalType": "uint256",
          "name": "_amount",
          "type": "uint256"
        }
      ],
      "name": "recoverAVAX",
      "outputs": [],
      "stateMutability": "nonpayable",
      "type": "function"
    },
    {
      "inputs": [
        {
          "internalType": "address",
          "name": "_tokenAddress",
          "type": "address"
        },
        {
          "internalType": "uint256",
          "name": "_tokenAmount",
          "type": "uint256"
        }
      ],
      "name": "recoverERC20",
      "outputs": [],
      "stateMutability": "nonpayable",
      "type": "function"
    },
    {
      "inputs": [
        {
          "internalType": "address",
          "name": "removedMaintainer",
          "type": "address"
        }
      ],
      "name": "removeMaintainer",
      "outputs": [],
      "stateMutability": "nonpayable",
      "type": "function"
    },
    {
      "inputs": [
        {
          "internalType": "bytes32",
          "name": "role",
          "type": "bytes32"
        },
        {
          "internalType": "address",
          "name": "account",
          "type": "address"
        }
      ],
      "name": "renounceRole",
      "outputs": [],
      "stateMutability": "nonpayable",
      "type": "function"
    },
    {
      "inputs": [
        {
          "internalType": "bytes32",
          "name": "role",
          "type": "bytes32"
        }
      ],
      "name": "renounceRole",
      "outputs": [],
      "stateMutability": "nonpayable",
      "type": "function"
    },
    {
      "inputs": [
        {
          "internalType": "address",
          "name": "_token",
          "type": "address"
        },
        {
          "internalType": "address",
          "name": "_spender",
          "type": "address"
        }
      ],
      "name": "revokeAllowance",
      "outputs": [],
      "stateMutability": "nonpayable",
      "type": "function"
    },
    {
      "inputs": [
        {
          "internalType": "bytes32",
          "name": "role",
          "type": "bytes32"
        },
        {
          "internalType": "address",
          "name": "account",
          "type": "address"
        }
      ],
      "name": "revokeRole",
      "outputs": [],
      "stateMutability": "nonpayable",
      "type": "function"
    },
    {
      "inputs": [
        {
          "internalType": "address[]",
          "name": "_pools",
          "type": "address[]"
        },
        {
          "internalType": "bool",
          "name": "overwrite",
          "type": "bool"
        }
      ],
      "name": "setPools",
      "outputs": [],
      "stateMutability": "nonpayable",
      "type": "function"
    },
    {
      "inputs": [
        {
          "internalType": "uint256",
          "name": "_estimate",
          "type": "uint256"
        }
      ],
      "name": "setSwapGasEstimate",
      "outputs": [],
      "stateMutability": "nonpayable",
      "type": "function"
    },
    {
      "inputs": [
        {
          "internalType": "bytes4",
          "name": "interfaceId",
          "type": "bytes4"
        }
      ],
      "name": "supportsInterface",
      "outputs": [
        {
          "internalType": "bool",
          "name": "",
          "type": "bool"
        }
      ],
      "stateMutability": "view",
      "type": "function"
    },
    {
      "inputs": [
        {
          "internalType": "uint256",
          "name": "_amountIn",
          "type": "uint256"
        },
        {
          "internalType": "uint256",
          "name": "_amountOut",
          "type": "uint256"
        },
        {
          "internalType": "address",
          "name": "_fromToken",
          "type": "address"
        },
        {
          "internalType": "address",
          "name": "_toToken",
          "type": "address"
        },
        {
          "internalType": "address",
          "name": "_to",
          "type": "address"
        }
      ],
      "name": "swap",
      "outputs": [],
      "stateMutability": "nonpayable",
      "type": "function"
    },
    {
      "inputs": [],
      "name": "swapGasEstimate",
      "outputs": [
        {
          "internalType": "uint256",
          "name": "",
          "type": "uint256"
        }
      ],
      "stateMutability": "view",
      "type": "function"
    },
    {
      "inputs": [
        {
          "internalType": "address",
          "name": "",
          "type": "address"
        },
        {
          "internalType": "address",
          "name": "",
          "type": "address"
        }
      ],
      "name": "tknsToPool",
      "outputs": [
        {
          "internalType": "address",
          "name": "",
          "type": "address"
        }
      ],
      "stateMutability": "view",
      "type": "function"
    },
    {
      "inputs": [
        {
          "internalType": "address",
          "name": "newOwner",
          "type": "address"
        }
      ],
      "name": "transferOwnership",
      "outputs": [],
      "stateMutability": "nonpayable",
      "type": "function"
    },
    {
      "stateMutability": "payable",
      "type": "receive"
    }
  ],
  "transactionHash": "0xa2e9353cc21db9fa2582ec2674f0e79510223cc28b14e9e119a3cf63ea7e3b1e",
  "args": [
    "DodoV2Adapter",
    [
      "0x6a58c68FF5C4e4D90EB6561449CC74A64F818dA5"
    ],
    290000
  ],
  "solcInputHash": "2f7c552725bac4cbb59f7eeca6343ccc",
  "bytecode": "0x60806040523480156200001157600080fd5b50604051620028ca380380620028ca8339810160408190526200003491620005ed565b82816000620000426200009c565b905062000051600082620000a0565b6200006c600080516020620028aa83398151915282620000a0565b506200007882620000b0565b6200008381620000ef565b506200009390508260016200019c565b50505062000871565b3390565b620000ac8282620001fb565b5050565b8051620000da5760405162461bcd60e51b8152600401620000d19062000753565b60405180910390fd5b8051620000ac90600290602084019062000473565b6000620000fb6200009c565b905062000118600080516020620028aa8339815191528262000285565b620001375760405162461bcd60e51b8152600401620000d190620006d4565b81620001575760405162461bcd60e51b8152600401620000d1906200078a565b600182905560405130907ff43f23b7a28e6f8ce6843a21bd7b48bce778aa913b8c8cf459edf7d770e8d38a9062000190908590620007c1565b60405180910390a25050565b60005b8251811015620001f657620001e3838281518110620001ce57634e487b7160e01b600052603260045260246000fd5b602002602001015183620002ae60201b60201c565b620001ee8162000833565b90506200019f565b505050565b62000207828262000285565b620000ac576000828152602081815260408083206001600160a01b03851684529091529020805460ff19166001179055620002416200009c565b6001600160a01b0316816001600160a01b0316837f2f8788117e7eff1d82e926ec794901d17c78024a50270940304540a733656f0d60405160405180910390a45050565b6000918252602082815260408084206001600160a01b0393909316845291905290205460ff1690565b600080620002bc8462000311565b9150915082620002d357620002d382828662000407565b6001600160a01b0391821660009081526003602090815260408083209385168352929052208054919093166001600160a01b03199091161790915550565b600080826001600160a01b0316634a248d2a6040518163ffffffff1660e01b815260040160206040518083038186803b1580156200034e57600080fd5b505afa15801562000363573d6000803e3d6000fd5b505050506040513d601f19601f82011682018060405250810190620003899190620005c9565b9150826001600160a01b031663d4b970466040518163ffffffff1660e01b815260040160206040518083038186803b158015620003c557600080fd5b505afa158015620003da573d6000803e3d6000fd5b505050506040513d601f19601f82011682018060405250810190620004009190620005c9565b9050915091565b6001600160a01b0380841660009081526003602090815260408083208685168452909152902054168015806200044e5750816001600160a01b0316816001600160a01b0316145b6200046d5760405162461bcd60e51b8152600401620000d1906200071c565b50505050565b8280546200048190620007f6565b90600052602060002090601f016020900481019282620004a55760008555620004f0565b82601f10620004c057805160ff1916838001178555620004f0565b82800160010185558215620004f0579182015b82811115620004f0578251825591602001919060010190620004d3565b50620004fe92915062000502565b5090565b5b80821115620004fe576000815560010162000503565b80516001600160a01b03811681146200053157600080fd5b919050565b600082601f83011262000547578081fd5b815160206001600160401b038211156200056557620005656200085b565b80820262000575828201620007ca565b83815282810190868401838801850189101562000590578687fd5b8693505b85841015620005bd57620005a88162000519565b83526001939093019291840191840162000594565b50979650505050505050565b600060208284031215620005db578081fd5b620005e68262000519565b9392505050565b60008060006060848603121562000602578182fd5b83516001600160401b038082111562000619578384fd5b818601915086601f8301126200062d578384fd5b8151818111156200064257620006426200085b565b602062000658601f8301601f19168201620007ca565b82815289828487010111156200066c578687fd5b865b838110156200068b5785810183015182820184015282016200066e565b838111156200069c57878385840101525b509088015190965092505080821115620006b4578384fd5b50620006c38682870162000536565b925050604084015190509250925092565b60208082526028908201527f4d61696e7461696e61626c653a2043616c6c6572206973206e6f742061206d6160408201526734b73a30b4b732b960c11b606082015260800190565b60208082526018908201527f4e6f7420616c6c6f77656420746f206f76657277726974650000000000000000604082015260600190565b60208082526014908201527f496e76616c69642061646170746572206e616d65000000000000000000000000604082015260600190565b60208082526014908201527f496e76616c6964206761732d657374696d617465000000000000000000000000604082015260600190565b90815260200190565b6040518181016001600160401b0381118282101715620007ee57620007ee6200085b565b604052919050565b6002810460018216806200080b57607f821691505b602082108114156200082d57634e487b7160e01b600052602260045260246000fd5b50919050565b60006000198214156200085457634e487b7160e01b81526011600452602481fd5b5060010190565b634e487b7160e01b600052604160045260246000fd5b61202980620008816000396000f3fe6080604052600436106101845760003560e01c806384a33e63116100d6578063d547741f1161007f578063ef99893a11610059578063ef99893a1461042e578063f2fde38b1461044e578063f87422541461046e5761018b565b8063d547741f146103ce578063d8baf7cf146103ee578063eab90da61461040e5761018b565b806391d14854116100b057806391d1485414610379578063a217fddf14610399578063a746e4b2146103ae5761018b565b806384a33e63146103195780638980f11f146103395780638bb9c5bf146103595761018b565b806349e38f32116101385780636b453c1f116101125780636b453c1f146102ac57806372d52c0b146102cc5780637ae26773146102f95761018b565b806349e38f32146102575780634ebb79161461027757806369cff80d146102975761018b565b8063248a9ca311610169578063248a9ca3146101e85780632f2ff15d1461021557806336568abe146102375761018b565b806301ffc9a71461019057806306fdde03146101c65761018b565b3661018b57005b600080fd5b34801561019c57600080fd5b506101b06101ab3660046119b4565b610483565b6040516101bd9190611b77565b60405180910390f35b3480156101d257600080fd5b506101db6104c9565b6040516101bd9190611b8b565b3480156101f457600080fd5b50610208610203366004611978565b610557565b6040516101bd9190611b82565b34801561022157600080fd5b50610235610230366004611990565b61056c565b005b34801561024357600080fd5b50610235610252366004611990565b61058d565b34801561026357600080fd5b50610235610272366004611917565b6105dc565b34801561028357600080fd5b50610235610292366004611978565b610638565b3480156102a357600080fd5b5061020861071e565b3480156102b857600080fd5b506102356102c7366004611841565b610724565b3480156102d857600080fd5b506102ec6102e7366004611879565b610751565b6040516101bd9190611b30565b34801561030557600080fd5b50610235610314366004611879565b610777565b34801561032557600080fd5b50610235610334366004611978565b6107de565b34801561034557600080fd5b506102356103543660046118b1565b610884565b34801561036557600080fd5b50610235610374366004611978565b610950565b34801561038557600080fd5b506101b0610394366004611990565b610966565b3480156103a557600080fd5b5061020861098f565b3480156103ba57600080fd5b506102356103c93660046118dc565b610994565b3480156103da57600080fd5b506102356103e9366004611990565b610a7a565b3480156103fa57600080fd5b50610235610409366004611841565b610a96565b34801561041a57600080fd5b50610235610429366004611a35565b610ac0565b34801561043a57600080fd5b506102086104493660046119f4565b610c68565b34801561045a57600080fd5b50610235610469366004611841565b610c7f565b34801561047a57600080fd5b50610208610ca1565b60006001600160e01b031982167f7965db0b0000000000000000000000000000000000000000000000000000000014806104c157506104c182610cc5565b90505b919050565b600280546104d690611f4e565b80601f016020809104026020016040519081016040528092919081815260200182805461050290611f4e565b801561054f5780601f106105245761010080835404028352916020019161054f565b820191906000526020600020905b81548152906001019060200180831161053257829003601f168201915b505050505081565b60009081526020819052604090206001015490565b61057582610557565b61057e81610cf7565b6105888383610d08565b505050565b610595610d8d565b6001600160a01b0316816001600160a01b0316146105ce5760405162461bcd60e51b81526004016105c590611e1b565b60405180910390fd5b6105d88282610d91565b5050565b60006105e6610d8d565b90506106127f339759585899103d2ace64958e37e18ccb0504652c81d4a1b8aa80fe2126ab9582610966565b61062e5760405162461bcd60e51b81526004016105c590611c2a565b6105888383610e14565b6000610642610d8d565b905061066e7f339759585899103d2ace64958e37e18ccb0504652c81d4a1b8aa80fe2126ab9582610966565b61068a5760405162461bcd60e51b81526004016105c590611c2a565b600082116106aa5760405162461bcd60e51b81526004016105c590611c87565b604051339083156108fc029084906000818181858888f193505050501580156106d7573d6000803e3d6000fd5b5060006001600160a01b03167f8c1256b8896378cd5044f80c202f9772b9d77dc85c8a6eb51967210b09bfaa28836040516107129190611b82565b60405180910390a25050565b60015481565b61074e7f339759585899103d2ace64958e37e18ccb0504652c81d4a1b8aa80fe2126ab958261056c565b50565b60036020908152600092835260408084209091529082529020546001600160a01b031681565b6000610781610d8d565b90506107ad7f339759585899103d2ace64958e37e18ccb0504652c81d4a1b8aa80fe2126ab9582610966565b6107c95760405162461bcd60e51b81526004016105c590611c2a565b6105886001600160a01b038416836000610e61565b60006107e8610d8d565b90506108147f339759585899103d2ace64958e37e18ccb0504652c81d4a1b8aa80fe2126ab9582610966565b6108305760405162461bcd60e51b81526004016105c590611c2a565b8161084d5760405162461bcd60e51b81526004016105c590611d2a565b600182905560405130907ff43f23b7a28e6f8ce6843a21bd7b48bce778aa913b8c8cf459edf7d770e8d38a90610712908590611b82565b600061088e610d8d565b90506108ba7f339759585899103d2ace64958e37e18ccb0504652c81d4a1b8aa80fe2126ab9582610966565b6108d65760405162461bcd60e51b81526004016105c590611c2a565b600082116108f65760405162461bcd60e51b81526004016105c590611c87565b61090a6001600160a01b0384163384610f89565b826001600160a01b03167f8c1256b8896378cd5044f80c202f9772b9d77dc85c8a6eb51967210b09bfaa28836040516109439190611b82565b60405180910390a2505050565b600061095a610d8d565b90506105d8828261058d565b6000918252602082815260408084206001600160a01b0393909316845291905290205460ff1690565b600081565b600061099e610d8d565b90506109ca7f339759585899103d2ace64958e37e18ccb0504652c81d4a1b8aa80fe2126ab9582610966565b6109e65760405162461bcd60e51b81526004016105c590611c2a565b60005b825181101561058857600080610a25858481518110610a1857634e487b7160e01b600052603260045260246000fd5b6020026020010151610fa8565b6001600160a01b0391821660009081526003602090815260408083209390941682529190915220805473ffffffffffffffffffffffffffffffffffffffff1916905550610a73905081611f89565b90506109e9565b610a8382610557565b610a8c81610cf7565b6105888383610d91565b61074e7f339759585899103d2ace64958e37e18ccb0504652c81d4a1b8aa80fe2126ab9582610a7a565b6040517f70a082310000000000000000000000000000000000000000000000000000000081526000906001600160a01b038416906370a0823190610b08908590600401611b30565b60206040518083038186803b158015610b2057600080fd5b505afa158015610b34573d6000803e3d6000fd5b505050506040513d601f19601f82011682018060405250810190610b5891906119dc565b9050610b678686868686611096565b600081846001600160a01b03166370a08231856040518263ffffffff1660e01b8152600401610b969190611b30565b60206040518083038186803b158015610bae57600080fd5b505afa158015610bc2573d6000803e3d6000fd5b505050506040513d601f19601f82011682018060405250810190610be691906119dc565b610bf09190611ef4565b905085811015610c125760405162461bcd60e51b81526004016105c590611bbe565b836001600160a01b0316856001600160a01b03167fe2bdbc6b7225eb0a972ac943c485a6cc05f7c6811838bce8903f23200fb744fa8989604051610c57929190611eaf565b60405180910390a350505050505050565b6000610c758484846110d8565b90505b9392505050565b6000610c89610d8d565b9050610c9660008361056c565b6105d860008261058d565b7f339759585899103d2ace64958e37e18ccb0504652c81d4a1b8aa80fe2126ab9581565b6001600160e01b031981167f01ffc9a70000000000000000000000000000000000000000000000000000000014919050565b61074e81610d03610d8d565b611232565b610d128282610966565b6105d8576000828152602081815260408083206001600160a01b03851684529091529020805460ff19166001179055610d49610d8d565b6001600160a01b0316816001600160a01b0316837f2f8788117e7eff1d82e926ec794901d17c78024a50270940304540a733656f0d60405160405180910390a45050565b3390565b610d9b8282610966565b156105d8576000828152602081815260408083206001600160a01b03851684529091529020805460ff19169055610dd0610d8d565b6001600160a01b0316816001600160a01b0316837ff6391f5c32d9c69d2a47ea670b442974b53935d1edc7fd64eb21e047a839171b60405160405180910390a45050565b60005b825181101561058857610e51838281518110610e4357634e487b7160e01b600052603260045260246000fd5b602002602001015183611296565b610e5a81611f89565b9050610e17565b801580610f0257506040517fdd62ed3e0000000000000000000000000000000000000000000000000000000081526001600160a01b0384169063dd62ed3e90610eb09030908690600401611b44565b60206040518083038186803b158015610ec857600080fd5b505afa158015610edc573d6000803e3d6000fd5b505050506040513d601f19601f82011682018060405250810190610f0091906119dc565b155b610f1e5760405162461bcd60e51b81526004016105c590611dbe565b6105888363095ea7b360e01b8484604051602401610f3d929190611b5e565b60408051601f198184030181529190526020810180517bffffffffffffffffffffffffffffffffffffffffffffffffffffffff166001600160e01b031990931692909217909152611301565b6105888363a9059cbb60e01b8484604051602401610f3d929190611b5e565b600080826001600160a01b0316634a248d2a6040518163ffffffff1660e01b815260040160206040518083038186803b158015610fe457600080fd5b505afa158015610ff8573d6000803e3d6000fd5b505050506040513d601f19601f8201168201806040525081019061101c919061185d565b9150826001600160a01b031663d4b970466040518163ffffffff1660e01b815260040160206040518083038186803b15801561105757600080fd5b505afa15801561106b573d6000803e3d6000fd5b505050506040513d601f19601f8201168201806040525081019061108f919061185d565b9050915091565b60006110a38685856113bd565b9050848110156110c55760405162461bcd60e51b81526004016105c590611bbe565b6110d0838284611464565b505050505050565b6000836110e757506000610c78565b6001600160a01b03808416600090815260036020908152604080832086851684529091529020541680156111b4576040517f79a048760000000000000000000000000000000000000000000000000000000081526001600160a01b038216906379a048769061115c9030908990600401611b5e565b60206040518083038186803b15801561117457600080fd5b505afa158015611188573d6000803e3d6000fd5b505050506040513d601f19601f820116820180604052508101906111ac91906119dc565b915050610c78565b506001600160a01b038083166000908152600360209081526040808320878516845290915290205416801561122a576040517f66410a210000000000000000000000000000000000000000000000000000000081526001600160a01b038216906366410a219061115c9030908990600401611b5e565b509392505050565b61123c8282610966565b6105d857611254816001600160a01b03166014611488565b61125f836020611488565b604051602001611270929190611aaf565b60408051601f198184030181529082905262461bcd60e51b82526105c591600401611b8b565b6000806112a284610fa8565b91509150826112b6576112b682828661167f565b6001600160a01b03918216600090815260036020908152604080832093851683529290522080549190931673ffffffffffffffffffffffffffffffffffffffff199091161790915550565b600080836001600160a01b03168360405161131c9190611a93565b6000604051808303816000865af19150503d8060008114611359576040519150601f19603f3d011682016040523d82523d6000602084013e61135e565b606091505b5091509150816113805760405162461bcd60e51b81526004016105c590611cbe565b8051156113b7578080602001905181019061139b919061195c565b6113b75760405162461bcd60e51b81526004016105c590611d61565b50505050565b6000806000806113cd86866116e1565b919450925090506113e86001600160a01b0387168289610f89565b8282306040518263ffffffff1660e01b81526004016114079190611b30565b602060405180830381600087803b15801561142157600080fd5b505af1158015611435573d6000803e3d6000fd5b505050506040513d601f19601f8201168201806040525081019061145991906119dc565b979650505050505050565b306001600160a01b03821614610588576105886001600160a01b0384168284610f89565b60606000611497836002611ed5565b6114a2906002611ebd565b67ffffffffffffffff8111156114c857634e487b7160e01b600052604160045260246000fd5b6040519080825280601f01601f1916602001820160405280156114f2576020820181803683370190505b5090507f30000000000000000000000000000000000000000000000000000000000000008160008151811061153757634e487b7160e01b600052603260045260246000fd5b60200101906001600160f81b031916908160001a9053507f78000000000000000000000000000000000000000000000000000000000000008160018151811061159057634e487b7160e01b600052603260045260246000fd5b60200101906001600160f81b031916908160001a90535060006115b4846002611ed5565b6115bf906001611ebd565b90505b6001811115611660577f303132333435363738396162636465660000000000000000000000000000000085600f166010811061160e57634e487b7160e01b600052603260045260246000fd5b1a60f81b82828151811061163257634e487b7160e01b600052603260045260246000fd5b60200101906001600160f81b031916908160001a90535060049490941c9361165981611f37565b90506115c2565b508315610c785760405162461bcd60e51b81526004016105c590611bf5565b6001600160a01b0380841660009081526003602090815260408083208685168452909152902054168015806116c55750816001600160a01b0316816001600160a01b0316145b6113b75760405162461bcd60e51b81526004016105c590611cf3565b6001600160a01b038083166000908152600360209081526040808320858516845290915281205490918291829116801561172f576001600160a01b038116935063bd6015b492509050611790565b506001600160a01b0380851660009081526003602090815260408083208985168452909152902054168015611778576001600160a01b038116935063dd93f59a92509050611790565b60405162461bcd60e51b81526004016105c590611e78565b9250925092565b80356104c481611fd0565b600082601f8301126117b2578081fd5b8135602067ffffffffffffffff808311156117cf576117cf611fba565b818302604051838282010181811084821117156117ee576117ee611fba565b6040528481528381019250868401828801850189101561180c578687fd5b8692505b858310156118355761182181611797565b845292840192600192909201918401611810565b50979650505050505050565b600060208284031215611852578081fd5b8135610c7881611fd0565b60006020828403121561186e578081fd5b8151610c7881611fd0565b6000806040838503121561188b578081fd5b823561189681611fd0565b915060208301356118a681611fd0565b809150509250929050565b600080604083850312156118c3578182fd5b82356118ce81611fd0565b946020939093013593505050565b6000602082840312156118ed578081fd5b813567ffffffffffffffff811115611903578182fd5b61190f848285016117a2565b949350505050565b60008060408385031215611929578182fd5b823567ffffffffffffffff81111561193f578283fd5b61194b858286016117a2565b92505060208301356118a681611fe5565b60006020828403121561196d578081fd5b8151610c7881611fe5565b600060208284031215611989578081fd5b5035919050565b600080604083850312156119a2578182fd5b8235915060208301356118a681611fd0565b6000602082840312156119c5578081fd5b81356001600160e01b031981168114610c78578182fd5b6000602082840312156119ed578081fd5b5051919050565b600080600060608486031215611a08578081fd5b833592506020840135611a1a81611fd0565b91506040840135611a2a81611fd0565b809150509250925092565b600080600080600060a08688031215611a4c578081fd5b85359450602086013593506040860135611a6581611fd0565b92506060860135611a7581611fd0565b91506080860135611a8581611fd0565b809150509295509295909350565b60008251611aa5818460208701611f0b565b9190910192915050565b60007f416363657373436f6e74726f6c3a206163636f756e742000000000000000000082528351611ae7816017850160208801611f0b565b7f206973206d697373696e6720726f6c65200000000000000000000000000000006017918401918201528351611b24816028840160208801611f0b565b01602801949350505050565b6001600160a01b0391909116815260200190565b6001600160a01b0392831681529116602082015260400190565b6001600160a01b03929092168252602082015260400190565b901515815260200190565b90815260200190565b6000602082528251806020840152611baa816040850160208701611f0b565b601f01601f19169190910160400192915050565b60208082526017908201527f496e73756666696369656e7420616d6f756e742d6f7574000000000000000000604082015260600190565b6020808252818101527f537472696e67733a20686578206c656e67746820696e73756666696369656e74604082015260600190565b60208082526028908201527f4d61696e7461696e61626c653a2043616c6c6572206973206e6f742061206d6160408201527f696e7461696e6572000000000000000000000000000000000000000000000000606082015260800190565b6020808252601e908201527f59616b416461707465723a204e6f7468696e6720746f207265636f7665720000604082015260600190565b6020808252818101527f5361666545524332303a206c6f772d6c6576656c2063616c6c206661696c6564604082015260600190565b60208082526018908201527f4e6f7420616c6c6f77656420746f206f76657277726974650000000000000000604082015260600190565b60208082526014908201527f496e76616c6964206761732d657374696d617465000000000000000000000000604082015260600190565b6020808252602a908201527f5361666545524332303a204552433230206f7065726174696f6e20646964206e60408201527f6f74207375636365656400000000000000000000000000000000000000000000606082015260800190565b60208082526036908201527f5361666545524332303a20617070726f76652066726f6d206e6f6e2d7a65726f60408201527f20746f206e6f6e2d7a65726f20616c6c6f77616e636500000000000000000000606082015260800190565b6020808252602f908201527f416363657373436f6e74726f6c3a2063616e206f6e6c792072656e6f756e636560408201527f20726f6c657320666f722073656c660000000000000000000000000000000000606082015260800190565b60208082526018908201527f546f6b656e2070616972206e6f7420737570706f727465640000000000000000604082015260600190565b918252602082015260400190565b60008219821115611ed057611ed0611fa4565b500190565b6000816000190483118215151615611eef57611eef611fa4565b500290565b600082821015611f0657611f06611fa4565b500390565b60005b83811015611f26578181015183820152602001611f0e565b838111156113b75750506000910152565b600081611f4657611f46611fa4565b506000190190565b600281046001821680611f6257607f821691505b60208210811415611f8357634e487b7160e01b600052602260045260246000fd5b50919050565b6000600019821415611f9d57611f9d611fa4565b5060010190565b634e487b7160e01b600052601160045260246000fd5b634e487b7160e01b600052604160045260246000fd5b6001600160a01b038116811461074e57600080fd5b801515811461074e57600080fdfea26469706673582212203ee5b008b815d7dbbf22d2a8ac8358af624fa0e31f17cca767c62a51bd4a7e3e64736f6c63430008000033339759585899103d2ace64958e37e18ccb0504652c81d4a1b8aa80fe2126ab95",
  "devdoc": {
    "kind": "dev",
    "methods": {
      "getRoleAdmin(bytes32)": {
        "details": "Returns the admin role that controls `role`. See {grantRole} and {revokeRole}. To change a role's admin, use {_setRoleAdmin}."
      },
      "grantRole(bytes32,address)": {
        "details": "Grants `role` to `account`. If `account` had not been already granted `role`, emits a {RoleGranted} event. Requirements: - the caller must have ``role``'s admin role. May emit a {RoleGranted} event."
      },
      "hasRole(bytes32,address)": {
        "details": "Returns `true` if `account` has been granted `role`."
      },
      "renounceRole(bytes32,address)": {
        "details": "Revokes `role` from the calling account. Roles are often managed via {grantRole} and {revokeRole}: this function's purpose is to provide a mechanism for accounts to lose their privileges if they are compromised (such as when a trusted device is misplaced). If the calling account had been revoked `role`, emits a {RoleRevoked} event. Requirements: - the caller must be `account`. May emit a {RoleRevoked} event."
      },
      "revokeRole(bytes32,address)": {
        "details": "Revokes `role` from `account`. If `account` had been granted `role`, emits a {RoleRevoked} event. Requirements: - the caller must have ``role``'s admin role. May emit a {RoleRevoked} event."
      },
      "supportsInterface(bytes4)": {
        "details": "See {IERC165-supportsInterface}."
      }
    },
    "version": 1
  },
  "userdoc": {
    "kind": "user",
    "methods": {},
    "version": 1
  },
  "storageLayout": {
    "storage": [
      {
        "astId": 24,
        "contract": "src/contracts/adapters/DodoV2Adapter.sol:DodoV2Adapter",
        "label": "_roles",
        "offset": 0,
        "slot": "0",
        "type": "t_mapping(t_bytes32,t_struct(RoleData)19_storage)"
      },
      {
        "astId": 1452,
        "contract": "src/contracts/adapters/DodoV2Adapter.sol:DodoV2Adapter",
        "label": "swapGasEstimate",
        "offset": 0,
        "slot": "1",
        "type": "t_uint256"
      },
      {
        "astId": 1454,
        "contract": "src/contracts/adapters/DodoV2Adapter.sol:DodoV2Adapter",
        "label": "name",
        "offset": 0,
        "slot": "2",
        "type": "t_string_storage"
      },
      {
        "astId": 7850,
        "contract": "src/contracts/adapters/DodoV2Adapter.sol:DodoV2Adapter",
        "label": "tknsToPool",
        "offset": 0,
        "slot": "3",
        "type": "t_mapping(t_address,t_mapping(t_address,t_address))"
      }
    ],
    "types": {
      "t_address": {
        "encoding": "inplace",
        "label": "address",
        "numberOfBytes": "20"
      },
      "t_bool": {
        "encoding": "inplace",
        "label": "bool",
        "numberOfBytes": "1"
      },
      "t_bytes32": {
        "encoding": "inplace",
        "label": "bytes32",
        "numberOfBytes": "32"
      },
      "t_mapping(t_address,t_address)": {
        "encoding": "mapping",
        "key": "t_address",
        "label": "mapping(address => address)",
        "numberOfBytes": "32",
        "value": "t_address"
      },
      "t_mapping(t_address,t_bool)": {
        "encoding": "mapping",
        "key": "t_address",
        "label": "mapping(address => bool)",
        "numberOfBytes": "32",
        "value": "t_bool"
      },
      "t_mapping(t_address,t_mapping(t_address,t_address))": {
        "encoding": "mapping",
        "key": "t_address",
        "label": "mapping(address => mapping(address => address))",
        "numberOfBytes": "32",
        "value": "t_mapping(t_address,t_address)"
      },
      "t_mapping(t_bytes32,t_struct(RoleData)19_storage)": {
        "encoding": "mapping",
        "key": "t_bytes32",
        "label": "mapping(bytes32 => struct AccessControl.RoleData)",
        "numberOfBytes": "32",
        "value": "t_struct(RoleData)19_storage"
      },
      "t_string_storage": {
        "encoding": "bytes",
        "label": "string",
        "numberOfBytes": "32"
      },
      "t_struct(RoleData)19_storage": {
        "encoding": "inplace",
        "label": "struct AccessControl.RoleData",
        "members": [
          {
            "astId": 16,
            "contract": "src/contracts/adapters/DodoV2Adapter.sol:DodoV2Adapter",
            "label": "members",
            "offset": 0,
            "slot": "0",
            "type": "t_mapping(t_address,t_bool)"
          },
          {
            "astId": 18,
            "contract": "src/contracts/adapters/DodoV2Adapter.sol:DodoV2Adapter",
            "label": "adminRole",
            "offset": 0,
            "slot": "1",
            "type": "t_bytes32"
          }
        ],
        "numberOfBytes": "64"
      },
      "t_uint256": {
        "encoding": "inplace",
        "label": "uint256",
        "numberOfBytes": "32"
      }
    }
  }
}