{
  "address": "0x3af64C06dbd0910a76255f3eE6070e58d61caF2D",
  "abi": [
    {
      "inputs": [
        {
          "internalType": "string",
          "name": "_name",
          "type": "string"
        },
        {
          "internalType": "uint256",
          "name": "_gasEstimate",
          "type": "uint256"
        },
        {
          "internalType": "address",
          "name": "_gmxRewardRouter",
          "type": "address"
        },
        {
          "internalType": "address[]",
          "name": "_whiteListedTokens",
          "type": "address[]"
        },
        {
          "internalType": "uint256",
          "name": "_feeUsdgAmount",
          "type": "uint256"
        },
        {
          "internalType": "uint256",
          "name": "_inOutCount",
          "type": "uint256"
        },
        {
          "internalType": "address",
          "name": "_glp",
          "type": "address"
        },
        {
          "internalType": "address",
          "name": "_sGlp",
          "type": "address"
        }
      ],
      "stateMutability": "nonpayable",
      "type": "constructor"
    },
    {
      "anonymous": false,
      "inputs": [
        {
          "indexed": true,
          "internalType": "address",
          "name": "_asset",
          "type": "address"
        },
        {
          "indexed": false,
          "internalType": "uint256",
          "name": "amount",
          "type": "uint256"
        }
      ],
      "name": "Recovered",
      "type": "event"
    },
    {
      "anonymous": false,
      "inputs": [
        {
          "indexed": true,
          "internalType": "bytes32",
          "name": "role",
          "type": "bytes32"
        },
        {
          "indexed": true,
          "internalType": "bytes32",
          "name": "previousAdminRole",
          "type": "bytes32"
        },
        {
          "indexed": true,
          "internalType": "bytes32",
          "name": "newAdminRole",
          "type": "bytes32"
        }
      ],
      "name": "RoleAdminChanged",
      "type": "event"
    },
    {
      "anonymous": false,
      "inputs": [
        {
          "indexed": true,
          "internalType": "bytes32",
          "name": "role",
          "type": "bytes32"
        },
        {
          "indexed": true,
          "internalType": "address",
          "name": "account",
          "type": "address"
        },
        {
          "indexed": true,
          "internalType": "address",
          "name": "sender",
          "type": "address"
        }
      ],
      "name": "RoleGranted",
      "type": "event"
    },
    {
      "anonymous": false,
      "inputs": [
        {
          "indexed": true,
          "internalType": "bytes32",
          "name": "role",
          "type": "bytes32"
        },
        {
          "indexed": true,
          "internalType": "address",
          "name": "account",
          "type": "address"
        },
        {
          "indexed": true,
          "internalType": "address",
          "name": "sender",
          "type": "address"
        }
      ],
      "name": "RoleRevoked",
      "type": "event"
    },
    {
      "anonymous": false,
      "inputs": [
        {
          "indexed": true,
          "internalType": "address",
          "name": "_adapter",
          "type": "address"
        },
        {
          "indexed": false,
          "internalType": "uint256",
          "name": "_newEstimate",
          "type": "uint256"
        }
      ],
      "name": "UpdatedGasEstimate",
      "type": "event"
    },
    {
      "anonymous": false,
      "inputs": [
        {
          "indexed": true,
          "internalType": "address",
          "name": "_tokenFrom",
          "type": "address"
        },
        {
          "indexed": true,
          "internalType": "address",
          "name": "_tokenTo",
          "type": "address"
        },
        {
          "indexed": false,
          "internalType": "uint256",
          "name": "_amountIn",
          "type": "uint256"
        },
        {
          "indexed": false,
          "internalType": "uint256",
          "name": "_amountOut",
          "type": "uint256"
        }
      ],
      "name": "YakAdapterSwap",
      "type": "event"
    },
    {
      "inputs": [],
      "name": "BASIS_POINTS_DIVISOR",
      "outputs": [
        {
          "internalType": "uint256",
          "name": "",
          "type": "uint256"
        }
      ],
      "stateMutability": "view",
      "type": "function"
    },
    {
      "inputs": [],
      "name": "DEFAULT_ADMIN_ROLE",
      "outputs": [
        {
          "internalType": "bytes32",
          "name": "",
          "type": "bytes32"
        }
      ],
      "stateMutability": "view",
      "type": "function"
    },
    {
      "inputs": [],
      "name": "GLP",
      "outputs": [
        {
          "internalType": "address",
          "name": "",
          "type": "address"
        }
      ],
      "stateMutability": "view",
      "type": "function"
    },
    {
      "inputs": [],
      "name": "MAINTAINER_ROLE",
      "outputs": [
        {
          "internalType": "bytes32",
          "name": "",
          "type": "bytes32"
        }
      ],
      "stateMutability": "view",
      "type": "function"
    },
    {
      "inputs": [],
      "name": "PRICE_PRECISION",
      "outputs": [
        {
          "internalType": "uint256",
          "name": "",
          "type": "uint256"
        }
      ],
      "stateMutability": "view",
      "type": "function"
    },
    {
      "inputs": [],
      "name": "USDG",
      "outputs": [
        {
          "internalType": "address",
          "name": "",
          "type": "address"
        }
      ],
      "stateMutability": "view",
      "type": "function"
    },
    {
      "inputs": [
        {
          "internalType": "address",
          "name": "addedMaintainer",
          "type": "address"
        }
      ],
      "name": "addMaintainer",
      "outputs": [],
      "stateMutability": "nonpayable",
      "type": "function"
    },
    {
      "inputs": [],
      "name": "feeUsdgAmount",
      "outputs": [
        {
          "internalType": "uint256",
          "name": "",
          "type": "uint256"
        }
      ],
      "stateMutability": "view",
      "type": "function"
    },
    {
      "inputs": [
        {
          "internalType": "bytes32",
          "name": "role",
          "type": "bytes32"
        }
      ],
      "name": "getRoleAdmin",
      "outputs": [
        {
          "internalType": "bytes32",
          "name": "",
          "type": "bytes32"
        }
      ],
      "stateMutability": "view",
      "type": "function"
    },
    {
      "inputs": [],
      "name": "getTokensIn",
      "outputs": [
        {
          "internalType": "address[]",
          "name": "",
          "type": "address[]"
        }
      ],
      "stateMutability": "view",
      "type": "function"
    },
    {
      "inputs": [],
      "name": "getTokensOut",
      "outputs": [
        {
          "internalType": "address[]",
          "name": "",
          "type": "address[]"
        }
      ],
      "stateMutability": "view",
      "type": "function"
    },
    {
      "inputs": [],
      "name": "getWrappedToken",
      "outputs": [
        {
          "internalType": "address",
          "name": "",
          "type": "address"
        }
      ],
      "stateMutability": "view",
      "type": "function"
    },
    {
      "inputs": [],
      "name": "glpManager",
      "outputs": [
        {
          "internalType": "address",
          "name": "",
          "type": "address"
        }
      ],
      "stateMutability": "view",
      "type": "function"
    },
    {
      "inputs": [
        {
          "internalType": "bytes32",
          "name": "role",
          "type": "bytes32"
        },
        {
          "internalType": "address",
          "name": "account",
          "type": "address"
        }
      ],
      "name": "grantRole",
      "outputs": [],
      "stateMutability": "nonpayable",
      "type": "function"
    },
    {
      "inputs": [
        {
          "internalType": "bytes32",
          "name": "role",
          "type": "bytes32"
        },
        {
          "internalType": "address",
          "name": "account",
          "type": "address"
        }
      ],
      "name": "hasRole",
      "outputs": [
        {
          "internalType": "bool",
          "name": "",
          "type": "bool"
        }
      ],
      "stateMutability": "view",
      "type": "function"
    },
    {
      "inputs": [],
      "name": "inOutCount",
      "outputs": [
        {
          "internalType": "uint256",
          "name": "",
          "type": "uint256"
        }
      ],
      "stateMutability": "view",
      "type": "function"
    },
    {
      "inputs": [
        {
          "internalType": "address",
          "name": "",
          "type": "address"
        }
      ],
      "name": "isWhitelisted",
      "outputs": [
        {
          "internalType": "bool",
          "name": "",
          "type": "bool"
        }
      ],
      "stateMutability": "view",
      "type": "function"
    },
    {
      "inputs": [],
      "name": "name",
      "outputs": [
        {
          "internalType": "string",
          "name": "",
          "type": "string"
        }
      ],
      "stateMutability": "view",
      "type": "function"
    },
    {
      "inputs": [
        {
          "internalType": "uint256",
          "name": "_amountIn",
          "type": "uint256"
        },
        {
          "internalType": "address",
          "name": "_tokenIn",
          "type": "address"
        },
        {
          "internalType": "address",
          "name": "_tokenOut",
          "type": "address"
        }
      ],
      "name": "query",
      "outputs": [
        {
          "internalType": "uint256",
          "name": "",
          "type": "uint256"
        }
      ],
      "stateMutability": "view",
      "type": "function"
    },
    {
      "inputs": [
        {
          "internalType": "uint256",
          "name": "_amount",
          "type": "uint256"
        }
      ],
      "name": "recoverAVAX",
      "outputs": [],
      "stateMutability": "nonpayable",
      "type": "function"
    },
    {
      "inputs": [
        {
          "internalType": "address",
          "name": "_tokenAddress",
          "type": "address"
        },
        {
          "internalType": "uint256",
          "name": "_tokenAmount",
          "type": "uint256"
        }
      ],
      "name": "recoverERC20",
      "outputs": [],
      "stateMutability": "nonpayable",
      "type": "function"
    },
    {
      "inputs": [
        {
          "internalType": "address",
          "name": "removedMaintainer",
          "type": "address"
        }
      ],
      "name": "removeMaintainer",
      "outputs": [],
      "stateMutability": "nonpayable",
      "type": "function"
    },
    {
      "inputs": [
        {
          "internalType": "bytes32",
          "name": "role",
          "type": "bytes32"
        },
        {
          "internalType": "address",
          "name": "account",
          "type": "address"
        }
      ],
      "name": "renounceRole",
      "outputs": [],
      "stateMutability": "nonpayable",
      "type": "function"
    },
    {
      "inputs": [
        {
          "internalType": "bytes32",
          "name": "role",
          "type": "bytes32"
        }
      ],
      "name": "renounceRole",
      "outputs": [],
      "stateMutability": "nonpayable",
      "type": "function"
    },
    {
      "inputs": [
        {
          "internalType": "address",
          "name": "_token",
          "type": "address"
        },
        {
          "internalType": "address",
          "name": "_spender",
          "type": "address"
        }
      ],
      "name": "revokeAllowance",
      "outputs": [],
      "stateMutability": "nonpayable",
      "type": "function"
    },
    {
      "inputs": [
        {
          "internalType": "bytes32",
          "name": "role",
          "type": "bytes32"
        },
        {
          "internalType": "address",
          "name": "account",
          "type": "address"
        }
      ],
      "name": "revokeRole",
      "outputs": [],
      "stateMutability": "nonpayable",
      "type": "function"
    },
    {
      "inputs": [],
      "name": "rewardRouter",
      "outputs": [
        {
          "internalType": "address",
          "name": "",
          "type": "address"
        }
      ],
      "stateMutability": "view",
      "type": "function"
    },
    {
      "inputs": [],
      "name": "sGLP",
      "outputs": [
        {
          "internalType": "address",
          "name": "",
          "type": "address"
        }
      ],
      "stateMutability": "view",
      "type": "function"
    },
    {
      "inputs": [
        {
          "internalType": "uint256",
          "name": "_estimate",
          "type": "uint256"
        }
      ],
      "name": "setSwapGasEstimate",
      "outputs": [],
      "stateMutability": "nonpayable",
      "type": "function"
    },
    {
      "inputs": [
        {
          "internalType": "address[]",
          "name": "tokens",
          "type": "address[]"
        }
      ],
      "name": "setWhitelistedTokens",
      "outputs": [],
      "stateMutability": "nonpayable",
      "type": "function"
    },
    {
      "inputs": [
        {
          "internalType": "bytes4",
          "name": "interfaceId",
          "type": "bytes4"
        }
      ],
      "name": "supportsInterface",
      "outputs": [
        {
          "internalType": "bool",
          "name": "",
          "type": "bool"
        }
      ],
      "stateMutability": "view",
      "type": "function"
    },
    {
      "inputs": [
        {
          "internalType": "uint256",
          "name": "_amountIn",
          "type": "uint256"
        },
        {
          "internalType": "uint256",
          "name": "_amountOut",
          "type": "uint256"
        },
        {
          "internalType": "address",
          "name": "_fromToken",
          "type": "address"
        },
        {
          "internalType": "address",
          "name": "_toToken",
          "type": "address"
        },
        {
          "internalType": "address",
          "name": "_to",
          "type": "address"
        }
      ],
      "name": "swap",
      "outputs": [],
      "stateMutability": "nonpayable",
      "type": "function"
    },
    {
      "inputs": [],
      "name": "swapGasEstimate",
      "outputs": [
        {
          "internalType": "uint256",
          "name": "",
          "type": "uint256"
        }
      ],
      "stateMutability": "view",
      "type": "function"
    },
    {
      "inputs": [
        {
          "internalType": "address",
          "name": "newOwner",
          "type": "address"
        }
      ],
      "name": "transferOwnership",
      "outputs": [],
      "stateMutability": "nonpayable",
      "type": "function"
    },
    {
      "inputs": [
        {
          "internalType": "uint256",
          "name": "_usdgAmount",
          "type": "uint256"
        },
        {
          "internalType": "uint256",
          "name": "_inOutCount",
          "type": "uint256"
        }
      ],
      "name": "updateFeeSelectionProperties",
      "outputs": [],
      "stateMutability": "nonpayable",
      "type": "function"
    },
    {
      "inputs": [],
      "name": "vault",
      "outputs": [
        {
          "internalType": "address",
          "name": "",
          "type": "address"
        }
      ],
      "stateMutability": "view",
      "type": "function"
    },
    {
      "inputs": [],
      "name": "vaultUtils",
      "outputs": [
        {
          "internalType": "address",
          "name": "",
          "type": "address"
        }
      ],
      "stateMutability": "view",
      "type": "function"
    },
    {
      "inputs": [
        {
          "internalType": "uint256",
          "name": "",
          "type": "uint256"
        }
      ],
      "name": "whitelistedTokens",
      "outputs": [
        {
          "internalType": "address",
          "name": "",
          "type": "address"
        }
      ],
      "stateMutability": "view",
      "type": "function"
    },
    {
      "stateMutability": "payable",
      "type": "receive"
    }
  ],
  "transactionHash": "0x55f10f147ba0f2edfa45dbadc44e89785e9123b99a9d0a0bcb879c1b564ad72c",
  "args": [
    "GlpWrapper",
    1600000,
    "0xB95DB5B167D75e6d04227CfFFA61069348d271F5",
    [
      "0x82aF49447D8a07e3bd95BD0d56f35241523fBab1",
      "0x2f2a2543B76A4166549F7aaB2e75Bef0aefC5B0f",
      "0xf97f4df75117a78c1A5a0DBb814Af92458539FB4",
      "0xFa7F8980b0f1E64A2062791cc3b0871572f1F7f0",
      "0xFF970A61A04b1cA14834A43f5dE4533eBDDB5CC8",
      "0xaf88d065e77c8cC2239327C5EDb3A432268e5831",
      "0xFd086bC7CD5C481DCC9C85ebE478A1C0b69FCbb9",
      "0xDA10009cBd5D07dd0CeCc66161FC93D7c9000da1",
      "0x17FC002b466eEc40DaE837Fc4bE5c67993ddBd6F"
    ],
    10000,
    3,
    "0x4277f8F2c384827B5273592FF7CeBd9f2C1ac258",
    "0x5402B5F40310bDED796c7D0F3FF6683f5C0cFfdf"
  ],
  "solcInputHash": "b69b18266f35a19e29ab258127d21a51",
  "bytecode": "0x6101606040523480156200001257600080fd5b50604051620044bf380380620044bf83398101604081905262000035916200085e565b878781813362000047600082620002f8565b620000737f339759585899103d2ace64958e37e18ccb0504652c81d4a1b8aa80fe2126ab9582620002f8565b506200007f8262000308565b6200008a8162000371565b505050506000866001600160a01b031663fa6db1bc6040518163ffffffff1660e01b815260040160206040518083038186803b158015620000ca57600080fd5b505afa158015620000df573d6000803e3d6000fd5b505050506040513d601f19601f8201168201806040525081019062000105919062000838565b90506000816001600160a01b031663fbfa77cf6040518163ffffffff1660e01b815260040160206040518083038186803b1580156200014357600080fd5b505afa15801562000158573d6000803e3d6000fd5b505050506040513d601f19601f820116820180604052508101906200017e919062000838565b9050806001600160a01b031663f5b91b7b6040518163ffffffff1660e01b815260040160206040518083038186803b158015620001ba57600080fd5b505afa158015620001cf573d6000803e3d6000fd5b505050506040513d601f19601f82011682018060405250810190620001f5919062000838565b6001600160a01b03166080816001600160a01b031660601b815250506000816001600160a01b0316636abbe0c86040518163ffffffff1660e01b815260040160206040518083038186803b1580156200024d57600080fd5b505afa92505050801562000280575060408051601f3d908101601f191682019092526200027d9181019062000838565b60015b6200028b576200028e565b90505b6001600160601b0319606082811b8216610140528a901b1661010052620002b5886200046d565b506004959095556005939093556001600160601b0319606094851b811660e05292841b83166101205290831b821660a05290911b1660c0525062000a5992505050565b620003048282620005f2565b5050565b80516200035c5760405162461bcd60e51b815260206004820152601460248201527f496e76616c69642061646170746572206e616d6500000000000000000000000060448201526064015b60405180910390fd5b80516200030490600290602084019062000692565b3360008181526000805160206200447f833981519152602052604090205460ff16620003e05760405162461bcd60e51b815260206004820152602860248201526000805160206200449f83398151915260448201526734b73a30b4b732b960c11b606482015260840162000353565b816200042f5760405162461bcd60e51b815260206004820152601460248201527f496e76616c6964206761732d657374696d617465000000000000000000000000604482015260640162000353565b600182905560405182815230907ff43f23b7a28e6f8ce6843a21bd7b48bce778aa913b8c8cf459edf7d770e8d38a9060200160405180910390a25050565b3360008181526000805160206200447f833981519152602052604090205460ff16620004dc5760405162461bcd60e51b815260206004820152602860248201526000805160206200449f83398151915260448201526734b73a30b4b732b960c11b606482015260840162000353565b60005b6003548110156200055b57600060066000600384815481106200051257634e487b7160e01b600052603260045260246000fd5b6000918252602080832091909101546001600160a01b031683528201929092526040019020805460ff191691151591909117905580620005528162000a02565b915050620004df565b5081516200057190600390602085019062000721565b5060005b8251811015620005ed57600160066000858481518110620005a657634e487b7160e01b600052603260045260246000fd5b6020908102919091018101516001600160a01b03168252810191909152604001600020805460ff191691151591909117905580620005e48162000a02565b91505062000575565b505050565b6000828152602081815260408083206001600160a01b038516845290915290205460ff1662000304576000828152602081815260408083206001600160a01b03851684529091529020805460ff191660011790556200064e3390565b6001600160a01b0316816001600160a01b0316837f2f8788117e7eff1d82e926ec794901d17c78024a50270940304540a733656f0d60405160405180910390a45050565b828054620006a090620009c5565b90600052602060002090601f016020900481019282620006c457600085556200070f565b82601f10620006df57805160ff19168380011785556200070f565b828001600101855582156200070f579182015b828111156200070f578251825591602001919060010190620006f2565b506200071d92915062000779565b5090565b8280548282559060005260206000209081019282156200070f579160200282015b828111156200070f57825182546001600160a01b0319166001600160a01b0390911617825560209092019160019091019062000742565b5b808211156200071d57600081556001016200077a565b80516200079d8162000a40565b919050565b600082601f830112620007b3578081fd5b815160206001600160401b03821115620007d157620007d162000a2a565b8160051b620007e282820162000992565b838152828101908684018388018501891015620007fd578687fd5b8693505b858410156200082c578051620008178162000a40565b83526001939093019291840191840162000801565b50979650505050505050565b6000602082840312156200084a578081fd5b8151620008578162000a40565b9392505050565b600080600080600080600080610100898b0312156200087b578384fd5b88516001600160401b038082111562000892578586fd5b818b0191508b601f830112620008a6578586fd5b815181811115620008bb57620008bb62000a2a565b6020620008d1601f8301601f1916820162000992565b8281528e82848701011115620008e5578889fd5b885b8381101562000904578581018301518282018401528201620008e7565b838111156200091557898385840101525b50908d0151909b5099506200092f905060408c0162000790565b975060608b015191508082111562000945578586fd5b50620009548b828c01620007a2565b9550506080890151935060a089015192506200097360c08a0162000790565b91506200098360e08a0162000790565b90509295985092959890939650565b604051601f8201601f191681016001600160401b0381118282101715620009bd57620009bd62000a2a565b604052919050565b600181811c90821680620009da57607f821691505b60208210811415620009fc57634e487b7160e01b600052602260045260246000fd5b50919050565b600060001982141562000a2357634e487b7160e01b81526011600452602481fd5b5060010190565b634e487b7160e01b600052604160045260246000fd5b6001600160a01b038116811462000a5657600080fd5b50565b60805160601c60a05160601c60c05160601c60e05160601c6101005160601c6101205160601c6101405160601c6138c862000bb760003960008181610527015281816128bd015281816129290152818161301e015261308a0152600081816107fa015281816112390152818161209c01526124860152600081816104dd01528181611315015261141401526000818161082e015281816116070152818161169c0152818161182c01528181612209015281816122c10152818161239a015281816125d3015281816129af01528181612a4401528181612ad701528181612baf01528181612c8e01528181612e7a01528181612f9e015281816130bd01528181613152015261321f01526000818161068b01528181610770015281816111ea0152818161139a0152611d120152600081816106bf0152818161211c015261250601526000818161048901528181612e4f0152612f7301526138c86000f3fe6080604052600436106102895760003560e01c80637ae2677311610153578063b28147d9116100cb578063f174e2411161007f578063f874225411610064578063f8742254146107b4578063fa6db1bc146107e8578063fbfa77cf1461081c57600080fd5b8063f174e24114610761578063f2fde38b1461079457600080fd5b8063d8baf7cf116100b0578063d8baf7cf14610701578063eab90da614610721578063ef99893a1461074157600080fd5b8063b28147d9146106ad578063d547741f146106e157600080fd5b806391d14854116101225780639e83ad1f116101075780639e83ad1f1461064e578063a217fddf14610664578063a8d774121461067957600080fd5b806391d14854146105e957806395082d251461062d57600080fd5b80637ae267731461056957806384a33e63146105895780638980f11f146105a95780638bb9c5bf146105c957600080fd5b80632f2ff15d116102015780635988f9a5116101b557806369cff80d1161019a57806369cff80d146104ff5780636abbe0c8146105155780636b453c1f1461054957600080fd5b80635988f9a5146104ab5780635a3bb989146104cb57600080fd5b80633af32abf116101e65780633af32abf146104275780634ebb79161461045757806357ae3a9f1461047757600080fd5b80632f2ff15d146103e757806336568abe1461040757600080fd5b80630d22470d11610258578063213cae631161023d578063213cae631461036a5780632154bc441461037f578063248a9ca3146103b757600080fd5b80630d22470d14610332578063126082cf1461035457600080fd5b806301ffc9a714610295578063034b41e4146102ca57806306fdde03146102ee578063071bc3c91461031057600080fd5b3661029057005b600080fd5b3480156102a157600080fd5b506102b56102b03660046134e8565b610850565b60405190151581526020015b60405180910390f35b3480156102d657600080fd5b506102e060045481565b6040519081526020016102c1565b3480156102fa57600080fd5b506103036108b9565b6040516102c191906136c4565b34801561031c57600080fd5b50610325610947565b6040516102c19190613677565b34801561033e57600080fd5b5061035261034d366004613563565b610966565b005b34801561036057600080fd5b506102e061271081565b34801561037657600080fd5b50610325610a26565b34801561038b57600080fd5b5061039f61039a3660046134ae565b610a34565b6040516001600160a01b0390911681526020016102c1565b3480156103c357600080fd5b506102e06103d23660046134ae565b60009081526020819052604090206001015490565b3480156103f357600080fd5b506103526104023660046134c6565b610a5e565b34801561041357600080fd5b506103526104223660046134c6565b610a88565b34801561043357600080fd5b506102b5610442366004613352565b60066020526000908152604090205460ff1681565b34801561046357600080fd5b506103526104723660046134ae565b610b14565b34801561048357600080fd5b5061039f7f000000000000000000000000000000000000000000000000000000000000000081565b3480156104b757600080fd5b506103526104c63660046133c7565b610c5c565b3480156104d757600080fd5b5061039f7f000000000000000000000000000000000000000000000000000000000000000081565b34801561050b57600080fd5b506102e060015481565b34801561052157600080fd5b5061039f7f000000000000000000000000000000000000000000000000000000000000000081565b34801561055557600080fd5b50610352610564366004613352565b610df0565b34801561057557600080fd5b5061035261058436600461336c565b610e1d565b34801561059557600080fd5b506103526105a43660046134ae565b610ec1565b3480156105b557600080fd5b506103526105c436600461339e565b610fd4565b3480156105d557600080fd5b506103526105e43660046134ae565b61110f565b3480156105f557600080fd5b506102b56106043660046134c6565b6000918252602082815260408084206001600160a01b0393909316845291905290205460ff1690565b34801561063957600080fd5b506102e06c0c9f2c9cd04674edea4000000081565b34801561065a57600080fd5b506102e060055481565b34801561067057600080fd5b506102e0600081565b34801561068557600080fd5b5061039f7f000000000000000000000000000000000000000000000000000000000000000081565b3480156106b957600080fd5b5061039f7f000000000000000000000000000000000000000000000000000000000000000081565b3480156106ed57600080fd5b506103526106fc3660046134c6565b61111a565b34801561070d57600080fd5b5061035261071c366004613352565b61113f565b34801561072d57600080fd5b5061035261073c366004613584565b611169565b34801561074d57600080fd5b506102e061075c366004613528565b6115cb565b34801561076d57600080fd5b507f000000000000000000000000000000000000000000000000000000000000000061039f565b3480156107a057600080fd5b506103526107af366004613352565b6115e0565b3480156107c057600080fd5b506102e07f339759585899103d2ace64958e37e18ccb0504652c81d4a1b8aa80fe2126ab9581565b3480156107f457600080fd5b5061039f7f000000000000000000000000000000000000000000000000000000000000000081565b34801561082857600080fd5b5061039f7f000000000000000000000000000000000000000000000000000000000000000081565b60006001600160e01b031982167f7965db0b0000000000000000000000000000000000000000000000000000000014806108b357507f01ffc9a7000000000000000000000000000000000000000000000000000000006001600160e01b03198316145b92915050565b600280546108c690613816565b80601f01602080910402602001604051908101604052809291908181526020018280546108f290613816565b801561093f5780601f106109145761010080835404028352916020019161093f565b820191906000526020600020905b81548152906001019060200180831161092257829003601f168201915b505050505081565b6060600061095560006115f7565b9050610960816118fc565b91505090565b3360008181527fa54247010af6b3693b80aceddfad12e077c5de3571e6243fada502635f0d7d39602052604090205460ff166109fa5760405162461bcd60e51b815260206004820152602860248201527f4d61696e7461696e61626c653a2043616c6c6572206973206e6f742061206d6160448201526734b73a30b4b732b960c11b60648201526084015b60405180910390fd5b60008311610a0a57600454610a0c565b825b60045581610a1c57600554610a1e565b815b600555505050565b6060600061095560016115f7565b60038181548110610a4457600080fd5b6000918252602090912001546001600160a01b0316905081565b600082815260208190526040902060010154610a79816119ee565b610a8383836119f8565b505050565b6001600160a01b0381163314610b065760405162461bcd60e51b815260206004820152602f60248201527f416363657373436f6e74726f6c3a2063616e206f6e6c792072656e6f756e636560448201527f20726f6c657320666f722073656c66000000000000000000000000000000000060648201526084016109f1565b610b108282611a96565b5050565b3360008181527fa54247010af6b3693b80aceddfad12e077c5de3571e6243fada502635f0d7d39602052604090205460ff16610ba35760405162461bcd60e51b815260206004820152602860248201527f4d61696e7461696e61626c653a2043616c6c6572206973206e6f742061206d6160448201526734b73a30b4b732b960c11b60648201526084016109f1565b60008211610bf35760405162461bcd60e51b815260206004820152601e60248201527f59616b416461707465723a204e6f7468696e6720746f207265636f766572000060448201526064016109f1565b604051339083156108fc029084906000818181858888f19350505050158015610c20573d6000803e3d6000fd5b506040518281526000907f8c1256b8896378cd5044f80c202f9772b9d77dc85c8a6eb51967210b09bfaa28906020015b60405180910390a25050565b3360008181527fa54247010af6b3693b80aceddfad12e077c5de3571e6243fada502635f0d7d39602052604090205460ff16610ceb5760405162461bcd60e51b815260206004820152602860248201527f4d61696e7461696e61626c653a2043616c6c6572206973206e6f742061206d6160448201526734b73a30b4b732b960c11b60648201526084016109f1565b60005b600354811015610d655760006006600060038481548110610d1f57634e487b7160e01b600052603260045260246000fd5b6000918252602080832091909101546001600160a01b031683528201929092526040019020805460ff191691151591909117905580610d5d8161384b565b915050610cee565b508151610d799060039060208501906132a4565b5060005b8251811015610a8357600160066000858481518110610dac57634e487b7160e01b600052603260045260246000fd5b6020908102919091018101516001600160a01b03168252810191909152604001600020805460ff191691151591909117905580610de88161384b565b915050610d7d565b610e1a7f339759585899103d2ace64958e37e18ccb0504652c81d4a1b8aa80fe2126ab9582610a5e565b50565b3360008181527fa54247010af6b3693b80aceddfad12e077c5de3571e6243fada502635f0d7d39602052604090205460ff16610eac5760405162461bcd60e51b815260206004820152602860248201527f4d61696e7461696e61626c653a2043616c6c6572206973206e6f742061206d6160448201526734b73a30b4b732b960c11b60648201526084016109f1565b610a836001600160a01b038416836000611b15565b3360008181527fa54247010af6b3693b80aceddfad12e077c5de3571e6243fada502635f0d7d39602052604090205460ff16610f505760405162461bcd60e51b815260206004820152602860248201527f4d61696e7461696e61626c653a2043616c6c6572206973206e6f742061206d6160448201526734b73a30b4b732b960c11b60648201526084016109f1565b81610f9d5760405162461bcd60e51b815260206004820152601460248201527f496e76616c6964206761732d657374696d61746500000000000000000000000060448201526064016109f1565b600182905560405182815230907ff43f23b7a28e6f8ce6843a21bd7b48bce778aa913b8c8cf459edf7d770e8d38a90602001610c50565b3360008181527fa54247010af6b3693b80aceddfad12e077c5de3571e6243fada502635f0d7d39602052604090205460ff166110635760405162461bcd60e51b815260206004820152602860248201527f4d61696e7461696e61626c653a2043616c6c6572206973206e6f742061206d6160448201526734b73a30b4b732b960c11b60648201526084016109f1565b600082116110b35760405162461bcd60e51b815260206004820152601e60248201527f59616b416461707465723a204e6f7468696e6720746f207265636f766572000060448201526064016109f1565b6110c76001600160a01b0384163384611ca1565b826001600160a01b03167f8c1256b8896378cd5044f80c202f9772b9d77dc85c8a6eb51967210b09bfaa288360405161110291815260200190565b60405180910390a2505050565b33610b108282610a88565b600082815260208190526040902060010154611135816119ee565b610a838383611a96565b610e1a7f339759585899103d2ace64958e37e18ccb0504652c81d4a1b8aa80fe2126ab958261111a565b6040516370a0823160e01b81526001600160a01b038281166004830152600091908416906370a082319060240160206040518083038186803b1580156111ae57600080fd5b505afa1580156111c2573d6000803e3d6000fd5b505050506040513d601f19601f820116820180604052508101906111e69190613510565b90507f00000000000000000000000000000000000000000000000000000000000000006001600160a01b0316836001600160a01b031614156113c65760405163095ea7b360e01b81526001600160a01b037f0000000000000000000000000000000000000000000000000000000000000000811660048301526024820188905285169063095ea7b390604401602060405180830381600087803b15801561128c57600080fd5b505af11580156112a0573d6000803e3d6000fd5b505050506040513d601f19601f820116820180604052508101906112c4919061348e565b506040517f364e23110000000000000000000000000000000000000000000000000000000081526001600160a01b0385811660048301526024820188905260006044830181905260648301889052917f00000000000000000000000000000000000000000000000000000000000000009091169063364e231190608401602060405180830381600087803b15801561135b57600080fd5b505af115801561136f573d6000803e3d6000fd5b505050506040513d601f19601f820116820180604052508101906113939190613510565b90506113c07f00000000000000000000000000000000000000000000000000000000000000008285611cea565b50611492565b6040517f0f3aa5540000000000000000000000000000000000000000000000000000000081526001600160a01b038481166004830152602482018890526044820187905283811660648301527f00000000000000000000000000000000000000000000000000000000000000001690630f3aa55490608401602060405180830381600087803b15801561145857600080fd5b505af115801561146c573d6000803e3d6000fd5b505050506040513d601f19601f820116820180604052508101906114909190613510565b505b6040516370a0823160e01b81526001600160a01b03838116600483015260009183918616906370a082319060240160206040518083038186803b1580156114d857600080fd5b505afa1580156114ec573d6000803e3d6000fd5b505050506040513d601f19601f820116820180604052508101906115109190613510565b61151a91906137a6565b90508581101561156c5760405162461bcd60e51b815260206004820152601760248201527f496e73756666696369656e7420616d6f756e742d6f757400000000000000000060448201526064016109f1565b836001600160a01b0316856001600160a01b03167fe2bdbc6b7225eb0a972ac943c485a6cc05f7c6811838bce8903f23200fb744fa89896040516115ba929190918252602082015260400190565b60405180910390a350505050505050565b60006115d8848484611d0e565b949350505050565b336115ec600083610a5e565b610b10600082610a88565b60606000600380549050905060007f00000000000000000000000000000000000000000000000000000000000000006001600160a01b0316634d47b3046040518163ffffffff1660e01b815260040160206040518083038186803b15801561165e57600080fd5b505afa158015611672573d6000803e3d6000fd5b505050506040513d601f19601f820116820180604052508101906116969190613510565b905060007f00000000000000000000000000000000000000000000000000000000000000006001600160a01b0316637a210a2b6040518163ffffffff1660e01b815260040160206040518083038186803b1580156116f357600080fd5b505afa158015611707573d6000803e3d6000fd5b505050506040513d601f19601f8201168201806040525081019061172b9190613510565b905060008367ffffffffffffffff81111561175657634e487b7160e01b600052604160045260246000fd5b60405190808252806020026020018201604052801561179b57816020015b60408051808201909152600080825260208201528152602001906001900390816117745790505b50905060005b848110156118e8576000600382815481106117cc57634e487b7160e01b600052603260045260246000fd5b600091825260209182902001546040805180820182526001600160a01b0392831680825260048054935163c7e074c360e01b81529081018290526024810193909352604483018a9052606483018990528c151560848401529450928301917f0000000000000000000000000000000000000000000000000000000000000000169063c7e074c39060a40160206040518083038186803b15801561186e57600080fd5b505afa158015611882573d6000803e3d6000fd5b505050506040513d601f19601f820116820180604052508101906118a69190613510565b8152508383815181106118c957634e487b7160e01b600052603260045260246000fd5b60200260200101819052505080806118e09061384b565b9150506117a1565b506118f281611d62565b9695505050505050565b606060055482511015611910578151611914565b6005545b67ffffffffffffffff81111561193a57634e487b7160e01b600052604160045260246000fd5b604051908082528060200260200182016040528015611963578160200160208202803683370190505b50905060005b81518110156119e85782818151811061199257634e487b7160e01b600052603260045260246000fd5b6020026020010151600001518282815181106119be57634e487b7160e01b600052603260045260246000fd5b6001600160a01b0390921660209283029190910190910152806119e08161384b565b915050611969565b50919050565b610e1a8133611eb9565b6000828152602081815260408083206001600160a01b038516845290915290205460ff16610b10576000828152602081815260408083206001600160a01b03851684529091529020805460ff19166001179055611a523390565b6001600160a01b0316816001600160a01b0316837f2f8788117e7eff1d82e926ec794901d17c78024a50270940304540a733656f0d60405160405180910390a45050565b6000828152602081815260408083206001600160a01b038516845290915290205460ff1615610b10576000828152602081815260408083206001600160a01b0385168085529252808320805460ff1916905551339285917ff6391f5c32d9c69d2a47ea670b442974b53935d1edc7fd64eb21e047a839171b9190a45050565b801580611bb757506040517fdd62ed3e0000000000000000000000000000000000000000000000000000000081523060048201526001600160a01b03838116602483015284169063dd62ed3e9060440160206040518083038186803b158015611b7d57600080fd5b505afa158015611b91573d6000803e3d6000fd5b505050506040513d601f19601f82011682018060405250810190611bb59190613510565b155b611c295760405162461bcd60e51b815260206004820152603660248201527f5361666545524332303a20617070726f76652066726f6d206e6f6e2d7a65726f60448201527f20746f206e6f6e2d7a65726f20616c6c6f77616e63650000000000000000000060648201526084016109f1565b6040516001600160a01b038316602482015260448101829052610a8390849063095ea7b360e01b906064015b60408051601f198184030181529190526020810180517bffffffffffffffffffffffffffffffffffffffffffffffffffffffff166001600160e01b031990931692909217909152611f37565b6040516001600160a01b038316602482015260448101829052610a839084907fa9059cbb0000000000000000000000000000000000000000000000000000000090606401611c55565b306001600160a01b03821614610a8357610a836001600160a01b0384168284611ca1565b60007f00000000000000000000000000000000000000000000000000000000000000006001600160a01b0316826001600160a01b031614611d5857611d538285612079565b6115d8565b6115d88385612463565b805160609060015b81811015611eb1576000848281518110611d9457634e487b7160e01b600052603260045260246000fd5b602002602001015190506000600183611dad91906137a6565b90505b60008112158015611def57508160200151868281518110611de157634e487b7160e01b600052603260045260246000fd5b602002602001015160200151115b15611e6657858181518110611e1457634e487b7160e01b600052603260045260246000fd5b602002602001015186826001611e2a91906136f7565b81518110611e4857634e487b7160e01b600052603260045260246000fd5b60200260200101819052508080611e5e906137e9565b915050611db0565b8186611e738360016136f7565b81518110611e9157634e487b7160e01b600052603260045260246000fd5b602002602001018190525050508080611ea99061384b565b915050611d6a565b509192915050565b6000828152602081815260408083206001600160a01b038516845290915290205460ff16610b1057611ef5816001600160a01b0316601461268b565b611f0083602061268b565b604051602001611f119291906135f6565b60408051601f198184030181529082905262461bcd60e51b82526109f1916004016136c4565b600080836001600160a01b031683604051611f5291906135da565b6000604051808303816000865af19150503d8060008114611f8f576040519150601f19603f3d011682016040523d82523d6000602084013e611f94565b606091505b509150915081611fe65760405162461bcd60e51b815260206004820181905260248201527f5361666545524332303a206c6f772d6c6576656c2063616c6c206661696c656460448201526064016109f1565b8051156120735780806020019051810190612001919061348e565b6120735760405162461bcd60e51b815260206004820152602a60248201527f5361666545524332303a204552433230206f7065726174696f6e20646964206e60448201527f6f7420737563636565640000000000000000000000000000000000000000000060648201526084016109f1565b50505050565b604051630345051f60e51b81526000600482018190529081906001600160a01b037f000000000000000000000000000000000000000000000000000000000000000016906368a0a3e09060240160206040518083038186803b1580156120de57600080fd5b505afa1580156120f2573d6000803e3d6000fd5b505050506040513d601f19601f820116820180604052508101906121169190613510565b905060007f00000000000000000000000000000000000000000000000000000000000000006001600160a01b03166318160ddd6040518163ffffffff1660e01b815260040160206040518083038186803b15801561217357600080fd5b505afa158015612187573d6000803e3d6000fd5b505050506040513d601f19601f820116820180604052508101906121ab9190613510565b90506000816121ba8487613787565b6121c49190613767565b6040517f2c668ec10000000000000000000000000000000000000000000000000000000081526001600160a01b038881166004830152602482018390529192506000917f00000000000000000000000000000000000000000000000000000000000000001690632c668ec19060440160206040518083038186803b15801561224b57600080fd5b505afa15801561225f573d6000803e3d6000fd5b505050506040513d601f19601f820116820180604052508101906122839190613510565b6040517f52f55eed0000000000000000000000000000000000000000000000000000000081526001600160a01b0389811660048301529192506000917f000000000000000000000000000000000000000000000000000000000000000016906352f55eed9060240160206040518083038186803b15801561230357600080fd5b505afa158015612317573d6000803e3d6000fd5b505050506040513d601f19601f8201168201806040525081019061233b9190613510565b905081811015612353576000955050505050506108b3565b61235d82826137a6565b6040517fc3c7b9e90000000000000000000000000000000000000000000000000000000081526001600160a01b038a8116600483015291925082917f0000000000000000000000000000000000000000000000000000000000000000169063c3c7b9e99060240160206040518083038186803b1580156123dc57600080fd5b505afa1580156123f0573d6000803e3d6000fd5b505050506040513d601f19601f820116820180604052508101906124149190613510565b10612427576000955050505050506108b3565b600061243389856128b9565b905061271061244282826137a6565b61244c9085613787565b6124569190613767565b9998505050505050505050565b604051630345051f60e51b81526001600482015260009081906001600160a01b037f000000000000000000000000000000000000000000000000000000000000000016906368a0a3e09060240160206040518083038186803b1580156124c857600080fd5b505afa1580156124dc573d6000803e3d6000fd5b505050506040513d601f19601f820116820180604052508101906125009190613510565b905060007f00000000000000000000000000000000000000000000000000000000000000006001600160a01b03166318160ddd6040518163ffffffff1660e01b815260040160206040518083038186803b15801561255d57600080fd5b505afa158015612571573d6000803e3d6000fd5b505050506040513d601f19601f820116820180604052508101906125959190613510565b6040517f81a612d60000000000000000000000000000000000000000000000000000000081526001600160a01b0387811660048301529192506000917f000000000000000000000000000000000000000000000000000000000000000016906381a612d69060240160206040518083038186803b15801561261557600080fd5b505afa158015612629573d6000803e3d6000fd5b505050506040513d601f19601f8201168201806040525081019061264d9190613510565b9050600061265c868389612e05565b9050831561267e578361266f8483613787565b6126799190613767565b612680565b805b979650505050505050565b6060600061269a836002613787565b6126a590600261374f565b67ffffffffffffffff8111156126cb57634e487b7160e01b600052604160045260246000fd5b6040519080825280601f01601f1916602001820160405280156126f5576020820181803683370190505b5090507f30000000000000000000000000000000000000000000000000000000000000008160008151811061273a57634e487b7160e01b600052603260045260246000fd5b60200101906001600160f81b031916908160001a9053507f78000000000000000000000000000000000000000000000000000000000000008160018151811061279357634e487b7160e01b600052603260045260246000fd5b60200101906001600160f81b031916908160001a90535060006127b7846002613787565b6127c290600161374f565b90505b6001811115612863577f303132333435363738396162636465660000000000000000000000000000000085600f166010811061281157634e487b7160e01b600052603260045260246000fd5b1a60f81b82828151811061283557634e487b7160e01b600052603260045260246000fd5b60200101906001600160f81b031916908160001a90535060049490941c9361285c81613807565b90506127c5565b5083156128b25760405162461bcd60e51b815260206004820181905260248201527f537472696e67733a20686578206c656e67746820696e73756666696369656e7460448201526064016109f1565b9392505050565b60007f00000000000000000000000000000000000000000000000000000000000000006001600160a01b0316156129ab576040517feb0835bf0000000000000000000000000000000000000000000000000000000081526001600160a01b038481166004830152602482018490527f0000000000000000000000000000000000000000000000000000000000000000169063eb0835bf906044015b60206040518083038186803b15801561296c57600080fd5b505afa158015612980573d6000803e3d6000fd5b505050506040513d601f19601f820116820180604052508101906129a49190613510565b90506108b3565b60007f00000000000000000000000000000000000000000000000000000000000000006001600160a01b0316634d47b3046040518163ffffffff1660e01b815260040160206040518083038186803b158015612a0657600080fd5b505afa158015612a1a573d6000803e3d6000fd5b505050506040513d601f19601f82011682018060405250810190612a3e9190613510565b905060007f00000000000000000000000000000000000000000000000000000000000000006001600160a01b0316637a210a2b6040518163ffffffff1660e01b815260040160206040518083038186803b158015612a9b57600080fd5b505afa158015612aaf573d6000803e3d6000fd5b505050506040513d601f19601f82011682018060405250810190612ad39190613510565b90507f00000000000000000000000000000000000000000000000000000000000000006001600160a01b0316639f392eb36040518163ffffffff1660e01b815260040160206040518083038186803b158015612b2e57600080fd5b505afa158015612b42573d6000803e3d6000fd5b505050506040513d601f19601f82011682018060405250810190612b66919061348e565b612b72575090506108b3565b6040517f1aa4ace50000000000000000000000000000000000000000000000000000000081526001600160a01b03868116600483015260009186917f00000000000000000000000000000000000000000000000000000000000000001690631aa4ace59060240160206040518083038186803b158015612bf157600080fd5b505afa158015612c05573d6000803e3d6000fd5b505050506040513d601f19601f82011682018060405250810190612c299190613510565b612c3391906137a6565b90506000818611612c4d57612c4886836137a6565b612c50565b60005b6040517f3a05dcc10000000000000000000000000000000000000000000000000000000081526001600160a01b0389811660048301529192506000917f00000000000000000000000000000000000000000000000000000000000000001690633a05dcc19060240160206040518083038186803b158015612cd057600080fd5b505afa158015612ce4573d6000803e3d6000fd5b505050506040513d601f19601f82011682018060405250810190612d089190613510565b905080612d1c5784955050505050506108b3565b6000818411612d3457612d2f84836137a6565b612d3e565b612d3e82856137a6565b90506000828411612d5857612d5384846137a6565b612d62565b612d6283856137a6565b905081811015612dad57600083612d798489613787565b612d839190613767565b9050878111612d9b57612d9681896137a6565b612d9e565b60005b985050505050505050506108b3565b60006002612dbb838561374f565b612dc59190613767565b905083811115612dd25750825b600084612ddf838a613787565b612de99190613767565b9050612df5818a61374f565b9c9b505050505050505050505050565b60006c0c9f2c9cd04674edea40000000612e1f8486613787565b612e299190613767565b604051634215287360e01b8152600481018290526001600160a01b0384811660248301527f0000000000000000000000000000000000000000000000000000000000000000811660448301529192507f00000000000000000000000000000000000000000000000000000000000000009091169063421528739060640160206040518083038186803b158015612ebe57600080fd5b505afa158015612ed2573d6000803e3d6000fd5b505050506040513d601f19601f82011682018060405250810190612ef69190613510565b90506000612f04838361301a565b90506000612710612f1583826137a6565b612f1f9088613787565b612f299190613767565b90506c0c9f2c9cd04674edea40000000612f438683613787565b612f4d9190613767565b604051634215287360e01b8152600481018290526001600160a01b0386811660248301527f0000000000000000000000000000000000000000000000000000000000000000811660448301529194507f00000000000000000000000000000000000000000000000000000000000000009091169063421528739060640160206040518083038186803b158015612fe257600080fd5b505afa158015612ff6573d6000803e3d6000fd5b505050506040513d601f19601f820116820180604052508101906118f29190613510565b60007f00000000000000000000000000000000000000000000000000000000000000006001600160a01b0316156130b9576040517f4adeddc60000000000000000000000000000000000000000000000000000000081526001600160a01b038481166004830152602482018490527f00000000000000000000000000000000000000000000000000000000000000001690634adeddc690604401612954565b60007f00000000000000000000000000000000000000000000000000000000000000006001600160a01b0316634d47b3046040518163ffffffff1660e01b815260040160206040518083038186803b15801561311457600080fd5b505afa158015613128573d6000803e3d6000fd5b505050506040513d601f19601f8201168201806040525081019061314c9190613510565b905060007f00000000000000000000000000000000000000000000000000000000000000006001600160a01b0316637a210a2b6040518163ffffffff1660e01b815260040160206040518083038186803b1580156131a957600080fd5b505afa1580156131bd573d6000803e3d6000fd5b505050506040513d601f19601f820116820180604052508101906131e19190613510565b60405163c7e074c360e01b81526001600160a01b038781166004830152602482018790526044820185905260648201839052600160848301529192507f00000000000000000000000000000000000000000000000000000000000000009091169063c7e074c39060a40160206040518083038186803b15801561326357600080fd5b505afa158015613277573d6000803e3d6000fd5b505050506040513d601f19601f8201168201806040525081019061329b9190613510565b95945050505050565b828054828255906000526020600020908101928215613311579160200282015b8281111561331157825182547fffffffffffffffffffffffff0000000000000000000000000000000000000000166001600160a01b039091161782556020909201916001909101906132c4565b5061331d929150613321565b5090565b5b8082111561331d5760008155600101613322565b80356001600160a01b038116811461334d57600080fd5b919050565b600060208284031215613363578081fd5b6128b282613336565b6000806040838503121561337e578081fd5b61338783613336565b915061339560208401613336565b90509250929050565b600080604083850312156133b0578182fd5b6133b983613336565b946020939093013593505050565b600060208083850312156133d9578182fd5b823567ffffffffffffffff808211156133f0578384fd5b818501915085601f830112613403578384fd5b8135818111156134155761341561387c565b8060051b604051601f19603f8301168101818110858211171561343a5761343a61387c565b604052828152858101935084860182860187018a1015613458578788fd5b8795505b838610156134815761346d81613336565b85526001959095019493860193860161345c565b5098975050505050505050565b60006020828403121561349f578081fd5b815180151581146128b2578182fd5b6000602082840312156134bf578081fd5b5035919050565b600080604083850312156134d8578182fd5b8235915061339560208401613336565b6000602082840312156134f9578081fd5b81356001600160e01b0319811681146128b2578182fd5b600060208284031215613521578081fd5b5051919050565b60008060006060848603121561353c578081fd5b8335925061354c60208501613336565b915061355a60408501613336565b90509250925092565b60008060408385031215613575578182fd5b50508035926020909101359150565b600080600080600060a0868803121561359b578081fd5b85359450602086013593506135b260408701613336565b92506135c060608701613336565b91506135ce60808701613336565b90509295509295909350565b600082516135ec8184602087016137bd565b9190910192915050565b7f416363657373436f6e74726f6c3a206163636f756e742000000000000000000081526000835161362e8160178501602088016137bd565b7f206973206d697373696e6720726f6c6520000000000000000000000000000000601791840191820152835161366b8160288401602088016137bd565b01602801949350505050565b6020808252825182820181905260009190848201906040850190845b818110156136b85783516001600160a01b031683529284019291840191600101613693565b50909695505050505050565b60208152600082518060208401526136e38160408501602087016137bd565b601f01601f19169190910160400192915050565b6000808212827f7fffffffffffffffffffffffffffffffffffffffffffffffffffffffffffffff0384138115161561373157613731613866565b82600160ff1b03841281161561374957613749613866565b50500190565b6000821982111561376257613762613866565b500190565b60008261378257634e487b7160e01b81526012600452602481fd5b500490565b60008160001904831182151516156137a1576137a1613866565b500290565b6000828210156137b8576137b8613866565b500390565b60005b838110156137d85781810151838201526020016137c0565b838111156120735750506000910152565b6000600160ff1b8214156137ff576137ff613866565b506000190190565b6000816137ff576137ff613866565b600181811c9082168061382a57607f821691505b602082108114156119e857634e487b7160e01b600052602260045260246000fd5b600060001982141561385f5761385f613866565b5060010190565b634e487b7160e01b600052601160045260246000fd5b634e487b7160e01b600052604160045260246000fdfea264697066735822122035fe87894f1668efad1ac3ef1849271a8645688c702c4072dc49004c7193ba9c64736f6c63430008040033a54247010af6b3693b80aceddfad12e077c5de3571e6243fada502635f0d7d394d61696e7461696e61626c653a2043616c6c6572206973206e6f742061206d61",
  "devdoc": {
    "kind": "dev",
    "methods": {
      "getRoleAdmin(bytes32)": {
        "details": "Returns the admin role that controls `role`. See {grantRole} and {revokeRole}. To change a role's admin, use {_setRoleAdmin}."
      },
      "grantRole(bytes32,address)": {
        "details": "Grants `role` to `account`. If `account` had not been already granted `role`, emits a {RoleGranted} event. Requirements: - the caller must have ``role``'s admin role. May emit a {RoleGranted} event."
      },
      "hasRole(bytes32,address)": {
        "details": "Returns `true` if `account` has been granted `role`."
      },
      "renounceRole(bytes32,address)": {
        "details": "Revokes `role` from the calling account. Roles are often managed via {grantRole} and {revokeRole}: this function's purpose is to provide a mechanism for accounts to lose their privileges if they are compromised (such as when a trusted device is misplaced). If the calling account had been revoked `role`, emits a {RoleRevoked} event. Requirements: - the caller must be `account`. May emit a {RoleRevoked} event."
      },
      "revokeRole(bytes32,address)": {
        "details": "Revokes `role` from `account`. If `account` had been granted `role`, emits a {RoleRevoked} event. Requirements: - the caller must have ``role``'s admin role. May emit a {RoleRevoked} event."
      },
      "supportsInterface(bytes4)": {
        "details": "See {IERC165-supportsInterface}."
      }
    },
    "version": 1
  },
  "userdoc": {
    "kind": "user",
    "methods": {},
    "version": 1
  },
  "storageLayout": {
    "storage": [
      {
        "astId": 24,
        "contract": "src/contracts/wrappers/GlpWrapperFeeSelection.sol:GlpWrapperFeeSelection",
        "label": "_roles",
        "offset": 0,
        "slot": "0",
        "type": "t_mapping(t_bytes32,t_struct(RoleData)19_storage)"
      },
      {
        "astId": 718,
        "contract": "src/contracts/wrappers/GlpWrapperFeeSelection.sol:GlpWrapperFeeSelection",
        "label": "swapGasEstimate",
        "offset": 0,
        "slot": "1",
        "type": "t_uint256"
      },
      {
        "astId": 720,
        "contract": "src/contracts/wrappers/GlpWrapperFeeSelection.sol:GlpWrapperFeeSelection",
        "label": "name",
        "offset": 0,
        "slot": "2",
        "type": "t_string_storage"
      },
      {
        "astId": 1724,
        "contract": "src/contracts/wrappers/GlpWrapperFeeSelection.sol:GlpWrapperFeeSelection",
        "label": "whitelistedTokens",
        "offset": 0,
        "slot": "3",
        "type": "t_array(t_address)dyn_storage"
      },
      {
        "astId": 1726,
        "contract": "src/contracts/wrappers/GlpWrapperFeeSelection.sol:GlpWrapperFeeSelection",
        "label": "feeUsdgAmount",
        "offset": 0,
        "slot": "4",
        "type": "t_uint256"
      },
      {
        "astId": 1728,
        "contract": "src/contracts/wrappers/GlpWrapperFeeSelection.sol:GlpWrapperFeeSelection",
        "label": "inOutCount",
        "offset": 0,
        "slot": "5",
        "type": "t_uint256"
      },
      {
        "astId": 1732,
        "contract": "src/contracts/wrappers/GlpWrapperFeeSelection.sol:GlpWrapperFeeSelection",
        "label": "isWhitelisted",
        "offset": 0,
        "slot": "6",
        "type": "t_mapping(t_address,t_bool)"
      }
    ],
    "types": {
      "t_address": {
        "encoding": "inplace",
        "label": "address",
        "numberOfBytes": "20"
      },
      "t_array(t_address)dyn_storage": {
        "base": "t_address",
        "encoding": "dynamic_array",
        "label": "address[]",
        "numberOfBytes": "32"
      },
      "t_bool": {
        "encoding": "inplace",
        "label": "bool",
        "numberOfBytes": "1"
      },
      "t_bytes32": {
        "encoding": "inplace",
        "label": "bytes32",
        "numberOfBytes": "32"
      },
      "t_mapping(t_address,t_bool)": {
        "encoding": "mapping",
        "key": "t_address",
        "label": "mapping(address => bool)",
        "numberOfBytes": "32",
        "value": "t_bool"
      },
      "t_mapping(t_bytes32,t_struct(RoleData)19_storage)": {
        "encoding": "mapping",
        "key": "t_bytes32",
        "label": "mapping(bytes32 => struct AccessControl.RoleData)",
        "numberOfBytes": "32",
        "value": "t_struct(RoleData)19_storage"
      },
      "t_string_storage": {
        "encoding": "bytes",
        "label": "string",
        "numberOfBytes": "32"
      },
      "t_struct(RoleData)19_storage": {
        "encoding": "inplace",
        "label": "struct AccessControl.RoleData",
        "members": [
          {
            "astId": 16,
            "contract": "src/contracts/wrappers/GlpWrapperFeeSelection.sol:GlpWrapperFeeSelection",
            "label": "members",
            "offset": 0,
            "slot": "0",
            "type": "t_mapping(t_address,t_bool)"
          },
          {
            "astId": 18,
            "contract": "src/contracts/wrappers/GlpWrapperFeeSelection.sol:GlpWrapperFeeSelection",
            "label": "adminRole",
            "offset": 0,
            "slot": "1",
            "type": "t_bytes32"
          }
        ],
        "numberOfBytes": "64"
      },
      "t_uint256": {
        "encoding": "inplace",
        "label": "uint256",
        "numberOfBytes": "32"
      }
    }
  }
}