{
  "address": "0xf558C5Bb5C77f658453dD4baF74B69F2aDd3d934",
  "abi": [
    {
      "inputs": [
        {
          "internalType": "string",
          "name": "_name",
          "type": "string"
        },
        {
          "internalType": "address[]",
          "name": "_pools",
          "type": "address[]"
        },
        {
          "internalType": "uint256",
          "name": "_swapGasEstimate",
          "type": "uint256"
        }
      ],
      "stateMutability": "nonpayable",
      "type": "constructor"
    },
    {
      "anonymous": false,
      "inputs": [
        {
          "indexed": true,
          "internalType": "address",
          "name": "_asset",
          "type": "address"
        },
        {
          "indexed": false,
          "internalType": "uint256",
          "name": "amount",
          "type": "uint256"
        }
      ],
      "name": "Recovered",
      "type": "event"
    },
    {
      "anonymous": false,
      "inputs": [
        {
          "indexed": true,
          "internalType": "bytes32",
          "name": "role",
          "type": "bytes32"
        },
        {
          "indexed": true,
          "internalType": "bytes32",
          "name": "previousAdminRole",
          "type": "bytes32"
        },
        {
          "indexed": true,
          "internalType": "bytes32",
          "name": "newAdminRole",
          "type": "bytes32"
        }
      ],
      "name": "RoleAdminChanged",
      "type": "event"
    },
    {
      "anonymous": false,
      "inputs": [
        {
          "indexed": true,
          "internalType": "bytes32",
          "name": "role",
          "type": "bytes32"
        },
        {
          "indexed": true,
          "internalType": "address",
          "name": "account",
          "type": "address"
        },
        {
          "indexed": true,
          "internalType": "address",
          "name": "sender",
          "type": "address"
        }
      ],
      "name": "RoleGranted",
      "type": "event"
    },
    {
      "anonymous": false,
      "inputs": [
        {
          "indexed": true,
          "internalType": "bytes32",
          "name": "role",
          "type": "bytes32"
        },
        {
          "indexed": true,
          "internalType": "address",
          "name": "account",
          "type": "address"
        },
        {
          "indexed": true,
          "internalType": "address",
          "name": "sender",
          "type": "address"
        }
      ],
      "name": "RoleRevoked",
      "type": "event"
    },
    {
      "anonymous": false,
      "inputs": [
        {
          "indexed": true,
          "internalType": "address",
          "name": "_adapter",
          "type": "address"
        },
        {
          "indexed": false,
          "internalType": "uint256",
          "name": "_newEstimate",
          "type": "uint256"
        }
      ],
      "name": "UpdatedGasEstimate",
      "type": "event"
    },
    {
      "anonymous": false,
      "inputs": [
        {
          "indexed": true,
          "internalType": "address",
          "name": "_tokenFrom",
          "type": "address"
        },
        {
          "indexed": true,
          "internalType": "address",
          "name": "_tokenTo",
          "type": "address"
        },
        {
          "indexed": false,
          "internalType": "uint256",
          "name": "_amountIn",
          "type": "uint256"
        },
        {
          "indexed": false,
          "internalType": "uint256",
          "name": "_amountOut",
          "type": "uint256"
        }
      ],
      "name": "YakAdapterSwap",
      "type": "event"
    },
    {
      "inputs": [],
      "name": "DEFAULT_ADMIN_ROLE",
      "outputs": [
        {
          "internalType": "bytes32",
          "name": "",
          "type": "bytes32"
        }
      ],
      "stateMutability": "view",
      "type": "function"
    },
    {
      "inputs": [],
      "name": "MAINTAINER_ROLE",
      "outputs": [
        {
          "internalType": "bytes32",
          "name": "",
          "type": "bytes32"
        }
      ],
      "stateMutability": "view",
      "type": "function"
    },
    {
      "inputs": [],
      "name": "PRECISION",
      "outputs": [
        {
          "internalType": "uint256",
          "name": "",
          "type": "uint256"
        }
      ],
      "stateMutability": "view",
      "type": "function"
    },
    {
      "inputs": [
        {
          "internalType": "address",
          "name": "addedMaintainer",
          "type": "address"
        }
      ],
      "name": "addMaintainer",
      "outputs": [],
      "stateMutability": "nonpayable",
      "type": "function"
    },
    {
      "inputs": [
        {
          "internalType": "address[]",
          "name": "_pools",
          "type": "address[]"
        }
      ],
      "name": "addPools",
      "outputs": [],
      "stateMutability": "nonpayable",
      "type": "function"
    },
    {
      "inputs": [
        {
          "internalType": "address",
          "name": "tkn0",
          "type": "address"
        },
        {
          "internalType": "address",
          "name": "tkn1",
          "type": "address"
        }
      ],
      "name": "getPool",
      "outputs": [
        {
          "internalType": "address",
          "name": "",
          "type": "address"
        }
      ],
      "stateMutability": "view",
      "type": "function"
    },
    {
      "inputs": [
        {
          "internalType": "bytes32",
          "name": "role",
          "type": "bytes32"
        }
      ],
      "name": "getRoleAdmin",
      "outputs": [
        {
          "internalType": "bytes32",
          "name": "",
          "type": "bytes32"
        }
      ],
      "stateMutability": "view",
      "type": "function"
    },
    {
      "inputs": [
        {
          "internalType": "bytes32",
          "name": "role",
          "type": "bytes32"
        },
        {
          "internalType": "address",
          "name": "account",
          "type": "address"
        }
      ],
      "name": "grantRole",
      "outputs": [],
      "stateMutability": "nonpayable",
      "type": "function"
    },
    {
      "inputs": [
        {
          "internalType": "bytes32",
          "name": "role",
          "type": "bytes32"
        },
        {
          "internalType": "address",
          "name": "account",
          "type": "address"
        }
      ],
      "name": "hasRole",
      "outputs": [
        {
          "internalType": "bool",
          "name": "",
          "type": "bool"
        }
      ],
      "stateMutability": "view",
      "type": "function"
    },
    {
      "inputs": [],
      "name": "name",
      "outputs": [
        {
          "internalType": "string",
          "name": "",
          "type": "string"
        }
      ],
      "stateMutability": "view",
      "type": "function"
    },
    {
      "inputs": [
        {
          "internalType": "uint256",
          "name": "_amountIn",
          "type": "uint256"
        },
        {
          "internalType": "address",
          "name": "_tokenIn",
          "type": "address"
        },
        {
          "internalType": "address",
          "name": "_tokenOut",
          "type": "address"
        }
      ],
      "name": "query",
      "outputs": [
        {
          "internalType": "uint256",
          "name": "",
          "type": "uint256"
        }
      ],
      "stateMutability": "view",
      "type": "function"
    },
    {
      "inputs": [
        {
          "internalType": "uint256",
          "name": "_amount",
          "type": "uint256"
        }
      ],
      "name": "recoverAVAX",
      "outputs": [],
      "stateMutability": "nonpayable",
      "type": "function"
    },
    {
      "inputs": [
        {
          "internalType": "address",
          "name": "_tokenAddress",
          "type": "address"
        },
        {
          "internalType": "uint256",
          "name": "_tokenAmount",
          "type": "uint256"
        }
      ],
      "name": "recoverERC20",
      "outputs": [],
      "stateMutability": "nonpayable",
      "type": "function"
    },
    {
      "inputs": [
        {
          "internalType": "address",
          "name": "removedMaintainer",
          "type": "address"
        }
      ],
      "name": "removeMaintainer",
      "outputs": [],
      "stateMutability": "nonpayable",
      "type": "function"
    },
    {
      "inputs": [
        {
          "internalType": "address[]",
          "name": "_pools",
          "type": "address[]"
        }
      ],
      "name": "removePools",
      "outputs": [],
      "stateMutability": "nonpayable",
      "type": "function"
    },
    {
      "inputs": [
        {
          "internalType": "bytes32",
          "name": "role",
          "type": "bytes32"
        },
        {
          "internalType": "address",
          "name": "account",
          "type": "address"
        }
      ],
      "name": "renounceRole",
      "outputs": [],
      "stateMutability": "nonpayable",
      "type": "function"
    },
    {
      "inputs": [
        {
          "internalType": "bytes32",
          "name": "role",
          "type": "bytes32"
        }
      ],
      "name": "renounceRole",
      "outputs": [],
      "stateMutability": "nonpayable",
      "type": "function"
    },
    {
      "inputs": [
        {
          "internalType": "address",
          "name": "_token",
          "type": "address"
        },
        {
          "internalType": "address",
          "name": "_spender",
          "type": "address"
        }
      ],
      "name": "revokeAllowance",
      "outputs": [],
      "stateMutability": "nonpayable",
      "type": "function"
    },
    {
      "inputs": [
        {
          "internalType": "bytes32",
          "name": "role",
          "type": "bytes32"
        },
        {
          "internalType": "address",
          "name": "account",
          "type": "address"
        }
      ],
      "name": "revokeRole",
      "outputs": [],
      "stateMutability": "nonpayable",
      "type": "function"
    },
    {
      "inputs": [
        {
          "internalType": "uint256",
          "name": "_estimate",
          "type": "uint256"
        }
      ],
      "name": "setSwapGasEstimate",
      "outputs": [],
      "stateMutability": "nonpayable",
      "type": "function"
    },
    {
      "inputs": [
        {
          "internalType": "bytes4",
          "name": "interfaceId",
          "type": "bytes4"
        }
      ],
      "name": "supportsInterface",
      "outputs": [
        {
          "internalType": "bool",
          "name": "",
          "type": "bool"
        }
      ],
      "stateMutability": "view",
      "type": "function"
    },
    {
      "inputs": [
        {
          "internalType": "uint256",
          "name": "_amountIn",
          "type": "uint256"
        },
        {
          "internalType": "uint256",
          "name": "_amountOut",
          "type": "uint256"
        },
        {
          "internalType": "address",
          "name": "_fromToken",
          "type": "address"
        },
        {
          "internalType": "address",
          "name": "_toToken",
          "type": "address"
        },
        {
          "internalType": "address",
          "name": "_to",
          "type": "address"
        }
      ],
      "name": "swap",
      "outputs": [],
      "stateMutability": "nonpayable",
      "type": "function"
    },
    {
      "inputs": [],
      "name": "swapGasEstimate",
      "outputs": [
        {
          "internalType": "uint256",
          "name": "",
          "type": "uint256"
        }
      ],
      "stateMutability": "view",
      "type": "function"
    },
    {
      "inputs": [
        {
          "internalType": "address",
          "name": "newOwner",
          "type": "address"
        }
      ],
      "name": "transferOwnership",
      "outputs": [],
      "stateMutability": "nonpayable",
      "type": "function"
    },
    {
      "stateMutability": "payable",
      "type": "receive"
    }
  ],
  "transactionHash": "0xb6fb69d8bdfaaa4bca2cfcaeaa92b220ec4d288ff4373c304da7b62dded35a84",
  "args": [
    "KyberAdapter",
    [
      "0x6a4d5f8385ff6e7fc4ebf6f726e12a958daa1cba"
    ],
    182000
  ],
  "solcInputHash": "2f7c552725bac4cbb59f7eeca6343ccc",
  "bytecode": "0x60806040523480156200001157600080fd5b5060405162002a5138038062002a51833981016040819052620000349162000647565b82816000620000426200009a565b9050620000516000826200009e565b6200006c60008051602062002a31833981519152826200009e565b506200007882620000ae565b6200008381620000ed565b50620000919050826200019a565b50505062000894565b3390565b620000aa82826200041a565b5050565b8051620000d85760405162461bcd60e51b8152600401620000cf9062000776565b60405180910390fd5b8051620000aa906002906020840190620004cd565b6000620000f96200009a565b90506200011660008051602062002a3183398151915282620004a4565b620001355760405162461bcd60e51b8152600401620000cf906200072e565b81620001555760405162461bcd60e51b8152600401620000cf90620007ad565b600182905560405130907ff43f23b7a28e6f8ce6843a21bd7b48bce778aa913b8c8cf459edf7d770e8d38a906200018e908590620007e4565b60405180910390a25050565b6000620001a66200009a565b9050620001c360008051602062002a3183398151915282620004a4565b620001e25760405162461bcd60e51b8152600401620000cf906200072e565b60005b8251811015620004155760008382815181106200021257634e487b7160e01b600052603260045260246000fd5b60200260200101516001600160a01b0316630dfe16816040518163ffffffff1660e01b815260040160206040518083038186803b1580156200025357600080fd5b505afa15801562000268573d6000803e3d6000fd5b505050506040513d601f19601f820116820180604052508101906200028e919062000623565b90506000848381518110620002b357634e487b7160e01b600052603260045260246000fd5b60200260200101516001600160a01b031663d21220a76040518163ffffffff1660e01b815260040160206040518083038186803b158015620002f457600080fd5b505afa15801562000309573d6000803e3d6000fd5b505050506040513d601f19601f820116820180604052508101906200032f919062000623565b90508483815181106200035257634e487b7160e01b600052603260045260246000fd5b6020908102919091018101516001600160a01b03848116600090815260038452604080822086841683529094529290922080546001600160a01b031916929091169190911790558451859084908110620003bc57634e487b7160e01b600052603260045260246000fd5b6020908102919091018101516001600160a01b03928316600090815260038352604080822095851682529490925292902080546001600160a01b03191691909216179055806200040c8162000856565b915050620001e5565b505050565b620004268282620004a4565b620000aa576000828152602081815260408083206001600160a01b03851684529091529020805460ff19166001179055620004606200009a565b6001600160a01b0316816001600160a01b0316837f2f8788117e7eff1d82e926ec794901d17c78024a50270940304540a733656f0d60405160405180910390a45050565b6000918252602082815260408084206001600160a01b0393909316845291905290205460ff1690565b828054620004db9062000819565b90600052602060002090601f016020900481019282620004ff57600085556200054a565b82601f106200051a57805160ff19168380011785556200054a565b828001600101855582156200054a579182015b828111156200054a5782518255916020019190600101906200052d565b50620005589291506200055c565b5090565b5b808211156200055857600081556001016200055d565b80516001600160a01b03811681146200058b57600080fd5b919050565b600082601f830112620005a1578081fd5b815160206001600160401b03821115620005bf57620005bf6200087e565b808202620005cf828201620007ed565b838152828101908684018388018501891015620005ea578687fd5b8693505b858410156200061757620006028162000573565b835260019390930192918401918401620005ee565b50979650505050505050565b60006020828403121562000635578081fd5b620006408262000573565b9392505050565b6000806000606084860312156200065c578182fd5b83516001600160401b038082111562000673578384fd5b818601915086601f83011262000687578384fd5b8151818111156200069c576200069c6200087e565b6020620006b2601f8301601f19168201620007ed565b8281528982848701011115620006c6578687fd5b865b83811015620006e5578581018301518282018401528201620006c8565b83811115620006f657878385840101525b5090880151909650925050808211156200070e578384fd5b506200071d8682870162000590565b925050604084015190509250925092565b60208082526028908201527f4d61696e7461696e61626c653a2043616c6c6572206973206e6f742061206d6160408201526734b73a30b4b732b960c11b606082015260800190565b60208082526014908201527f496e76616c69642061646170746572206e616d65000000000000000000000000604082015260600190565b60208082526014908201527f496e76616c6964206761732d657374696d617465000000000000000000000000604082015260600190565b90815260200190565b6040518181016001600160401b03811182821017156200081157620008116200087e565b604052919050565b6002810460018216806200082e57607f821691505b602082108114156200085057634e487b7160e01b600052602260045260246000fd5b50919050565b60006000198214156200087757634e487b7160e01b81526011600452602481fd5b5060010190565b634e487b7160e01b600052604160045260246000fd5b61218d80620008a46000396000f3fe60806040526004361061018f5760003560e01c80638980f11f116100d6578063d547741f1161007f578063ef99893a11610059578063ef99893a1461044e578063f2fde38b1461046e578063f87422541461048e57610196565b8063d547741f146103ee578063d8baf7cf1461040e578063eab90da61461042e57610196565b8063a217fddf116100b0578063a217fddf146103a4578063aaf5eb68146103b9578063b36a4ab1146103ce57610196565b80638980f11f146103445780638bb9c5bf1461036457806391d148541461038457610196565b80634ebb7916116101385780636b453c1f116101125780636b453c1f146102e45780637ae267731461030457806384a33e631461032457610196565b80634ebb791614610282578063531aa03e146102a257806369cff80d146102cf57610196565b80632f2ff15d116101695780632f2ff15d1461022057806336568abe146102425780634b1641401461026257610196565b806301ffc9a71461019b57806306fdde03146101d1578063248a9ca3146101f357610196565b3661019657005b600080fd5b3480156101a757600080fd5b506101bb6101b6366004611ad3565b6104a3565b6040516101c89190611d1f565b60405180910390f35b3480156101dd57600080fd5b506101e66104e9565b6040516101c89190611d33565b3480156101ff57600080fd5b5061021361020e366004611a97565b610577565b6040516101c89190611d2a565b34801561022c57600080fd5b5061024061023b366004611aaf565b61058c565b005b34801561024e57600080fd5b5061024061025d366004611aaf565b6105ad565b34801561026e57600080fd5b5061024061027d3660046119b6565b6105fc565b34801561028e57600080fd5b5061024061029d366004611a97565b610800565b3480156102ae57600080fd5b506102c26102bd366004611953565b6108e6565b6040516101c89190611cd8565b3480156102db57600080fd5b50610213610910565b3480156102f057600080fd5b506102406102ff36600461191b565b610916565b34801561031057600080fd5b5061024061031f366004611953565b610943565b34801561033057600080fd5b5061024061033f366004611a97565b6109aa565b34801561035057600080fd5b5061024061035f36600461198b565b610a50565b34801561037057600080fd5b5061024061037f366004611a97565b610b1c565b34801561039057600080fd5b506101bb61039f366004611aaf565b610b32565b3480156103b057600080fd5b50610213610b5b565b3480156103c557600080fd5b50610213610b60565b3480156103da57600080fd5b506102406103e93660046119b6565b610b6c565b3480156103fa57600080fd5b50610240610409366004611aaf565b610dfb565b34801561041a57600080fd5b5061024061042936600461191b565b610e17565b34801561043a57600080fd5b50610240610449366004611bb1565b610e41565b34801561045a57600080fd5b50610213610469366004611b70565b610fe9565b34801561047a57600080fd5b5061024061048936600461191b565b611000565b34801561049a57600080fd5b50610213611022565b60006001600160e01b031982167f7965db0b0000000000000000000000000000000000000000000000000000000014806104e157506104e182611046565b90505b919050565b600280546104f6906120c0565b80601f0160208091040260200160405190810160405280929190818152602001828054610522906120c0565b801561056f5780601f106105445761010080835404028352916020019161056f565b820191906000526020600020905b81548152906001019060200180831161055257829003601f168201915b505050505081565b60009081526020819052604090206001015490565b61059582610577565b61059e81611078565b6105a88383611089565b505050565b6105b561110e565b6001600160a01b0316816001600160a01b0316146105ee5760405162461bcd60e51b81526004016105e590611f6c565b60405180910390fd5b6105f88282611112565b5050565b600061060661110e565b90506106327f339759585899103d2ace64958e37e18ccb0504652c81d4a1b8aa80fe2126ab9582610b32565b61064e5760405162461bcd60e51b81526004016105e590611db2565b60005b82518110156105a857600083828151811061067c57634e487b7160e01b600052603260045260246000fd5b60200260200101516001600160a01b0316630dfe16816040518163ffffffff1660e01b815260040160206040518083038186803b1580156106bc57600080fd5b505afa1580156106d0573d6000803e3d6000fd5b505050506040513d601f19601f820116820180604052508101906106f49190611937565b9050600084838151811061071857634e487b7160e01b600052603260045260246000fd5b60200260200101516001600160a01b031663d21220a76040518163ffffffff1660e01b815260040160206040518083038186803b15801561075857600080fd5b505afa15801561076c573d6000803e3d6000fd5b505050506040513d601f19601f820116820180604052508101906107909190611937565b6001600160a01b039283166000818152600360208181526040808420979095168352958652838220805473ffffffffffffffffffffffffffffffffffffffff19908116909155908652838220928252919094529220805490921690915550806107f8816120fb565b915050610651565b600061080a61110e565b90506108367f339759585899103d2ace64958e37e18ccb0504652c81d4a1b8aa80fe2126ab9582610b32565b6108525760405162461bcd60e51b81526004016105e590611db2565b600082116108725760405162461bcd60e51b81526004016105e590611e0f565b604051339083156108fc029084906000818181858888f1935050505015801561089f573d6000803e3d6000fd5b5060006001600160a01b03167f8c1256b8896378cd5044f80c202f9772b9d77dc85c8a6eb51967210b09bfaa28836040516108da9190611d2a565b60405180910390a25050565b6001600160a01b039182166000908152600360209081526040808320938516835292905220541690565b60015481565b6109407f339759585899103d2ace64958e37e18ccb0504652c81d4a1b8aa80fe2126ab958261058c565b50565b600061094d61110e565b90506109797f339759585899103d2ace64958e37e18ccb0504652c81d4a1b8aa80fe2126ab9582610b32565b6109955760405162461bcd60e51b81526004016105e590611db2565b6105a86001600160a01b038416836000611195565b60006109b461110e565b90506109e07f339759585899103d2ace64958e37e18ccb0504652c81d4a1b8aa80fe2126ab9582610b32565b6109fc5760405162461bcd60e51b81526004016105e590611db2565b81610a195760405162461bcd60e51b81526004016105e590611e7b565b600182905560405130907ff43f23b7a28e6f8ce6843a21bd7b48bce778aa913b8c8cf459edf7d770e8d38a906108da908590611d2a565b6000610a5a61110e565b9050610a867f339759585899103d2ace64958e37e18ccb0504652c81d4a1b8aa80fe2126ab9582610b32565b610aa25760405162461bcd60e51b81526004016105e590611db2565b60008211610ac25760405162461bcd60e51b81526004016105e590611e0f565b610ad66001600160a01b03841633846112bd565b826001600160a01b03167f8c1256b8896378cd5044f80c202f9772b9d77dc85c8a6eb51967210b09bfaa2883604051610b0f9190611d2a565b60405180910390a2505050565b6000610b2661110e565b90506105f882826105ad565b6000918252602082815260408084206001600160a01b0393909316845291905290205460ff1690565b600081565b670de0b6b3a764000081565b6000610b7661110e565b9050610ba27f339759585899103d2ace64958e37e18ccb0504652c81d4a1b8aa80fe2126ab9582610b32565b610bbe5760405162461bcd60e51b81526004016105e590611db2565b60005b82518110156105a8576000838281518110610bec57634e487b7160e01b600052603260045260246000fd5b60200260200101516001600160a01b0316630dfe16816040518163ffffffff1660e01b815260040160206040518083038186803b158015610c2c57600080fd5b505afa158015610c40573d6000803e3d6000fd5b505050506040513d601f19601f82011682018060405250810190610c649190611937565b90506000848381518110610c8857634e487b7160e01b600052603260045260246000fd5b60200260200101516001600160a01b031663d21220a76040518163ffffffff1660e01b815260040160206040518083038186803b158015610cc857600080fd5b505afa158015610cdc573d6000803e3d6000fd5b505050506040513d601f19601f82011682018060405250810190610d009190611937565b9050848381518110610d2257634e487b7160e01b600052603260045260246000fd5b6020908102919091018101516001600160a01b038481166000908152600384526040808220868416835290945292909220805473ffffffffffffffffffffffffffffffffffffffff1916929091169190911790558451859084908110610d9857634e487b7160e01b600052603260045260246000fd5b6020908102919091018101516001600160a01b039283166000908152600383526040808220958516825294909252929020805473ffffffffffffffffffffffffffffffffffffffff19169190921617905580610df3816120fb565b915050610bc1565b610e0482610577565b610e0d81611078565b6105a88383611112565b6109407f339759585899103d2ace64958e37e18ccb0504652c81d4a1b8aa80fe2126ab9582610dfb565b6040517f70a082310000000000000000000000000000000000000000000000000000000081526000906001600160a01b038416906370a0823190610e89908590600401611cd8565b60206040518083038186803b158015610ea157600080fd5b505afa158015610eb5573d6000803e3d6000fd5b505050506040513d601f19601f82011682018060405250810190610ed99190611b58565b9050610ee886868686866112dc565b600081846001600160a01b03166370a08231856040518263ffffffff1660e01b8152600401610f179190611cd8565b60206040518083038186803b158015610f2f57600080fd5b505afa158015610f43573d6000803e3d6000fd5b505050506040513d601f19601f82011682018060405250810190610f679190611b58565b610f719190612066565b905085811015610f935760405162461bcd60e51b81526004016105e590611d46565b836001600160a01b0316856001600160a01b03167fe2bdbc6b7225eb0a972ac943c485a6cc05f7c6811838bce8903f23200fb744fa8989604051610fd8929190611fc9565b60405180910390a350505050505050565b6000610ff68484846113bf565b90505b9392505050565b600061100a61110e565b905061101760008361058c565b6105f86000826105ad565b7f339759585899103d2ace64958e37e18ccb0504652c81d4a1b8aa80fe2126ab9581565b6001600160e01b031981167f01ffc9a70000000000000000000000000000000000000000000000000000000014919050565b6109408161108461110e565b61157d565b6110938282610b32565b6105f8576000828152602081815260408083206001600160a01b03851684529091529020805460ff191660011790556110ca61110e565b6001600160a01b0316816001600160a01b0316837f2f8788117e7eff1d82e926ec794901d17c78024a50270940304540a733656f0d60405160405180910390a45050565b3390565b61111c8282610b32565b156105f8576000828152602081815260408083206001600160a01b03851684529091529020805460ff1916905561115161110e565b6001600160a01b0316816001600160a01b0316837ff6391f5c32d9c69d2a47ea670b442974b53935d1edc7fd64eb21e047a839171b60405160405180910390a45050565b80158061123657506040517fdd62ed3e0000000000000000000000000000000000000000000000000000000081526001600160a01b0384169063dd62ed3e906111e49030908690600401611cec565b60206040518083038186803b1580156111fc57600080fd5b505afa158015611210573d6000803e3d6000fd5b505050506040513d601f19601f820116820180604052508101906112349190611b58565b155b6112525760405162461bcd60e51b81526004016105e590611f0f565b6105a88363095ea7b360e01b8484604051602401611271929190611d06565b60408051601f198184030181529190526020810180517bffffffffffffffffffffffffffffffffffffffffffffffffffffffff166001600160e01b0319909316929092179091526115e1565b6105a88363a9059cbb60e01b8484604051602401611271929190611d06565b60006112e884846108e6565b9050600080846001600160a01b0316866001600160a01b03161061130e57866000611312565b6000875b909250905061132b6001600160a01b038716848a6112bd565b604080516000815260208101918290527f022c0d9f000000000000000000000000000000000000000000000000000000009091526001600160a01b0384169063022c0d9f906113839085908590899060248101611fd7565b600060405180830381600087803b15801561139d57600080fd5b505af11580156113b1573d6000803e3d6000fd5b505050505050505050505050565b6000816001600160a01b0316836001600160a01b031614806113df575083155b156113ec57506000610ff9565b60006113f884846108e6565b90506001600160a01b038116611412576000915050610ff9565b6000806000806000856001600160a01b031663d66940276040518163ffffffff1660e01b815260040160a06040518083038186803b15801561145357600080fd5b505afa158015611467573d6000803e3d6000fd5b505050506040513d601f19601f8201168201806040525081019061148b9190611afb565b94509450945094509450600080896001600160a01b03168b6001600160a01b0316106114b85785876114bb565b86865b915091506000808b6001600160a01b03168d6001600160a01b0316106114e25785876114e5565b86865b915091506000846dffffffffffffffffffffffffffff1611801561151957506000836dffffffffffffffffffffffffffff16115b1561156c57600061154c8f846dffffffffffffffffffffffffffff16846dffffffffffffffffffffffffffff168961169d565b90508b846dffffffffffffffffffffffffffff16111561156a57809b505b505b505050505050505050509392505050565b6115878282610b32565b6105f85761159f816001600160a01b031660146116fb565b6115aa8360206116fb565b6040516020016115bb929190611c57565b60408051601f198184030181529082905262461bcd60e51b82526105e591600401611d33565b600080836001600160a01b0316836040516115fc9190611c3b565b6000604051808303816000865af19150503d8060008114611639576040519150601f19603f3d011682016040523d82523d6000602084013e61163e565b606091505b5091509150816116605760405162461bcd60e51b81526004016105e590611e46565b805115611697578080602001905181019061167b9190611a77565b6116975760405162461bcd60e51b81526004016105e590611eb2565b50505050565b600080670de0b6b3a76400006116b38482612066565b6116bd9088612047565b6116c79190612027565b905060006116d58583612047565b905060006116e3838861200f565b90506116ef8183612027565b98975050505050505050565b6060600061170a836002612047565b61171590600261200f565b67ffffffffffffffff81111561173b57634e487b7160e01b600052604160045260246000fd5b6040519080825280601f01601f191660200182016040528015611765576020820181803683370190505b5090507f3000000000000000000000000000000000000000000000000000000000000000816000815181106117aa57634e487b7160e01b600052603260045260246000fd5b60200101906001600160f81b031916908160001a9053507f78000000000000000000000000000000000000000000000000000000000000008160018151811061180357634e487b7160e01b600052603260045260246000fd5b60200101906001600160f81b031916908160001a9053506000611827846002612047565b61183290600161200f565b90505b60018111156118d3577f303132333435363738396162636465660000000000000000000000000000000085600f166010811061188157634e487b7160e01b600052603260045260246000fd5b1a60f81b8282815181106118a557634e487b7160e01b600052603260045260246000fd5b60200101906001600160f81b031916908160001a90535060049490941c936118cc816120a9565b9050611835565b508315610ff95760405162461bcd60e51b81526004016105e590611d7d565b80356104e481612142565b80516dffffffffffffffffffffffffffff811681146104e457600080fd5b60006020828403121561192c578081fd5b8135610ff981612142565b600060208284031215611948578081fd5b8151610ff981612142565b60008060408385031215611965578081fd5b823561197081612142565b9150602083013561198081612142565b809150509250929050565b6000806040838503121561199d578182fd5b82356119a881612142565b946020939093013593505050565b600060208083850312156119c8578182fd5b823567ffffffffffffffff808211156119df578384fd5b818501915085601f8301126119f2578384fd5b813581811115611a0457611a0461212c565b83810260405185828201018181108582111715611a2357611a2361212c565b604052828152858101935084860182860187018a1015611a41578788fd5b8795505b83861015611a6a57611a56816118f2565b855260019590950194938601938601611a45565b5098975050505050505050565b600060208284031215611a88578081fd5b81518015158114610ff9578182fd5b600060208284031215611aa8578081fd5b5035919050565b60008060408385031215611ac1578182fd5b82359150602083013561198081612142565b600060208284031215611ae4578081fd5b81356001600160e01b031981168114610ff9578182fd5b600080600080600060a08688031215611b12578081fd5b611b1b866118fd565b9450611b29602087016118fd565b9350611b37604087016118fd565b9250611b45606087016118fd565b9150608086015190509295509295909350565b600060208284031215611b69578081fd5b5051919050565b600080600060608486031215611b84578283fd5b833592506020840135611b9681612142565b91506040840135611ba681612142565b809150509250925092565b600080600080600060a08688031215611bc8578081fd5b85359450602086013593506040860135611be181612142565b92506060860135611bf181612142565b91506080860135611c0181612142565b809150509295509295909350565b60008151808452611c2781602086016020860161207d565b601f01601f19169290920160200192915050565b60008251611c4d81846020870161207d565b9190910192915050565b60007f416363657373436f6e74726f6c3a206163636f756e742000000000000000000082528351611c8f81601785016020880161207d565b7f206973206d697373696e6720726f6c65200000000000000000000000000000006017918401918201528351611ccc81602884016020880161207d565b01602801949350505050565b6001600160a01b0391909116815260200190565b6001600160a01b0392831681529116602082015260400190565b6001600160a01b03929092168252602082015260400190565b901515815260200190565b90815260200190565b600060208252610ff96020830184611c0f565b60208082526017908201527f496e73756666696369656e7420616d6f756e742d6f7574000000000000000000604082015260600190565b6020808252818101527f537472696e67733a20686578206c656e67746820696e73756666696369656e74604082015260600190565b60208082526028908201527f4d61696e7461696e61626c653a2043616c6c6572206973206e6f742061206d6160408201527f696e7461696e6572000000000000000000000000000000000000000000000000606082015260800190565b6020808252601e908201527f59616b416461707465723a204e6f7468696e6720746f207265636f7665720000604082015260600190565b6020808252818101527f5361666545524332303a206c6f772d6c6576656c2063616c6c206661696c6564604082015260600190565b60208082526014908201527f496e76616c6964206761732d657374696d617465000000000000000000000000604082015260600190565b6020808252602a908201527f5361666545524332303a204552433230206f7065726174696f6e20646964206e60408201527f6f74207375636365656400000000000000000000000000000000000000000000606082015260800190565b60208082526036908201527f5361666545524332303a20617070726f76652066726f6d206e6f6e2d7a65726f60408201527f20746f206e6f6e2d7a65726f20616c6c6f77616e636500000000000000000000606082015260800190565b6020808252602f908201527f416363657373436f6e74726f6c3a2063616e206f6e6c792072656e6f756e636560408201527f20726f6c657320666f722073656c660000000000000000000000000000000000606082015260800190565b918252602082015260400190565b60008582528460208301526001600160a01b0384166040830152608060608301526120056080830184611c0f565b9695505050505050565b6000821982111561202257612022612116565b500190565b60008261204257634e487b7160e01b81526012600452602481fd5b500490565b600081600019048311821515161561206157612061612116565b500290565b60008282101561207857612078612116565b500390565b60005b83811015612098578181015183820152602001612080565b838111156116975750506000910152565b6000816120b8576120b8612116565b506000190190565b6002810460018216806120d457607f821691505b602082108114156120f557634e487b7160e01b600052602260045260246000fd5b50919050565b600060001982141561210f5761210f612116565b5060010190565b634e487b7160e01b600052601160045260246000fd5b634e487b7160e01b600052604160045260246000fd5b6001600160a01b038116811461094057600080fdfea26469706673582212204e673050d49b0d0f41e1f357ab6182ce012f77ff7fea294d91ee9f26262eb20c64736f6c63430008000033339759585899103d2ace64958e37e18ccb0504652c81d4a1b8aa80fe2126ab95",
  "devdoc": {
    "kind": "dev",
    "methods": {
      "getRoleAdmin(bytes32)": {
        "details": "Returns the admin role that controls `role`. See {grantRole} and {revokeRole}. To change a role's admin, use {_setRoleAdmin}."
      },
      "grantRole(bytes32,address)": {
        "details": "Grants `role` to `account`. If `account` had not been already granted `role`, emits a {RoleGranted} event. Requirements: - the caller must have ``role``'s admin role. May emit a {RoleGranted} event."
      },
      "hasRole(bytes32,address)": {
        "details": "Returns `true` if `account` has been granted `role`."
      },
      "renounceRole(bytes32,address)": {
        "details": "Revokes `role` from the calling account. Roles are often managed via {grantRole} and {revokeRole}: this function's purpose is to provide a mechanism for accounts to lose their privileges if they are compromised (such as when a trusted device is misplaced). If the calling account had been revoked `role`, emits a {RoleRevoked} event. Requirements: - the caller must be `account`. May emit a {RoleRevoked} event."
      },
      "revokeRole(bytes32,address)": {
        "details": "Revokes `role` from `account`. If `account` had been granted `role`, emits a {RoleRevoked} event. Requirements: - the caller must have ``role``'s admin role. May emit a {RoleRevoked} event."
      },
      "supportsInterface(bytes4)": {
        "details": "See {IERC165-supportsInterface}."
      }
    },
    "version": 1
  },
  "userdoc": {
    "kind": "user",
    "methods": {},
    "version": 1
  },
  "storageLayout": {
    "storage": [
      {
        "astId": 24,
        "contract": "src/contracts/adapters/KyberAdapter.sol:KyberAdapter",
        "label": "_roles",
        "offset": 0,
        "slot": "0",
        "type": "t_mapping(t_bytes32,t_struct(RoleData)19_storage)"
      },
      {
        "astId": 1452,
        "contract": "src/contracts/adapters/KyberAdapter.sol:KyberAdapter",
        "label": "swapGasEstimate",
        "offset": 0,
        "slot": "1",
        "type": "t_uint256"
      },
      {
        "astId": 1454,
        "contract": "src/contracts/adapters/KyberAdapter.sol:KyberAdapter",
        "label": "name",
        "offset": 0,
        "slot": "2",
        "type": "t_string_storage"
      },
      {
        "astId": 9891,
        "contract": "src/contracts/adapters/KyberAdapter.sol:KyberAdapter",
        "label": "TKNS_TO_POOL",
        "offset": 0,
        "slot": "3",
        "type": "t_mapping(t_address,t_mapping(t_address,t_address))"
      }
    ],
    "types": {
      "t_address": {
        "encoding": "inplace",
        "label": "address",
        "numberOfBytes": "20"
      },
      "t_bool": {
        "encoding": "inplace",
        "label": "bool",
        "numberOfBytes": "1"
      },
      "t_bytes32": {
        "encoding": "inplace",
        "label": "bytes32",
        "numberOfBytes": "32"
      },
      "t_mapping(t_address,t_address)": {
        "encoding": "mapping",
        "key": "t_address",
        "label": "mapping(address => address)",
        "numberOfBytes": "32",
        "value": "t_address"
      },
      "t_mapping(t_address,t_bool)": {
        "encoding": "mapping",
        "key": "t_address",
        "label": "mapping(address => bool)",
        "numberOfBytes": "32",
        "value": "t_bool"
      },
      "t_mapping(t_address,t_mapping(t_address,t_address))": {
        "encoding": "mapping",
        "key": "t_address",
        "label": "mapping(address => mapping(address => address))",
        "numberOfBytes": "32",
        "value": "t_mapping(t_address,t_address)"
      },
      "t_mapping(t_bytes32,t_struct(RoleData)19_storage)": {
        "encoding": "mapping",
        "key": "t_bytes32",
        "label": "mapping(bytes32 => struct AccessControl.RoleData)",
        "numberOfBytes": "32",
        "value": "t_struct(RoleData)19_storage"
      },
      "t_string_storage": {
        "encoding": "bytes",
        "label": "string",
        "numberOfBytes": "32"
      },
      "t_struct(RoleData)19_storage": {
        "encoding": "inplace",
        "label": "struct AccessControl.RoleData",
        "members": [
          {
            "astId": 16,
            "contract": "src/contracts/adapters/KyberAdapter.sol:KyberAdapter",
            "label": "members",
            "offset": 0,
            "slot": "0",
            "type": "t_mapping(t_address,t_bool)"
          },
          {
            "astId": 18,
            "contract": "src/contracts/adapters/KyberAdapter.sol:KyberAdapter",
            "label": "adminRole",
            "offset": 0,
            "slot": "1",
            "type": "t_bytes32"
          }
        ],
        "numberOfBytes": "64"
      },
      "t_uint256": {
        "encoding": "inplace",
        "label": "uint256",
        "numberOfBytes": "32"
      }
    }
  }
}