{
  "address": "0x0FdF64B6746BA759d120e973C85349a8B9CdE8D4",
  "abi": [
    {
      "inputs": [
        {
          "internalType": "string",
          "name": "_name",
          "type": "string"
        },
        {
          "internalType": "uint256",
          "name": "_swapGasEstimate",
          "type": "uint256"
        },
        {
          "internalType": "uint256",
          "name": "_quoterGasLimit",
          "type": "uint256"
        },
        {
          "internalType": "address",
          "name": "_quoter",
          "type": "address"
        },
        {
          "internalType": "address[]",
          "name": "_whitelistedPools",
          "type": "address[]"
        }
      ],
      "stateMutability": "nonpayable",
      "type": "constructor"
    },
    {
      "anonymous": false,
      "inputs": [
        {
          "indexed": true,
          "internalType": "address",
          "name": "_asset",
          "type": "address"
        },
        {
          "indexed": false,
          "internalType": "uint256",
          "name": "amount",
          "type": "uint256"
        }
      ],
      "name": "Recovered",
      "type": "event"
    },
    {
      "anonymous": false,
      "inputs": [
        {
          "indexed": true,
          "internalType": "bytes32",
          "name": "role",
          "type": "bytes32"
        },
        {
          "indexed": true,
          "internalType": "bytes32",
          "name": "previousAdminRole",
          "type": "bytes32"
        },
        {
          "indexed": true,
          "internalType": "bytes32",
          "name": "newAdminRole",
          "type": "bytes32"
        }
      ],
      "name": "RoleAdminChanged",
      "type": "event"
    },
    {
      "anonymous": false,
      "inputs": [
        {
          "indexed": true,
          "internalType": "bytes32",
          "name": "role",
          "type": "bytes32"
        },
        {
          "indexed": true,
          "internalType": "address",
          "name": "account",
          "type": "address"
        },
        {
          "indexed": true,
          "internalType": "address",
          "name": "sender",
          "type": "address"
        }
      ],
      "name": "RoleGranted",
      "type": "event"
    },
    {
      "anonymous": false,
      "inputs": [
        {
          "indexed": true,
          "internalType": "bytes32",
          "name": "role",
          "type": "bytes32"
        },
        {
          "indexed": true,
          "internalType": "address",
          "name": "account",
          "type": "address"
        },
        {
          "indexed": true,
          "internalType": "address",
          "name": "sender",
          "type": "address"
        }
      ],
      "name": "RoleRevoked",
      "type": "event"
    },
    {
      "anonymous": false,
      "inputs": [
        {
          "indexed": true,
          "internalType": "address",
          "name": "_adapter",
          "type": "address"
        },
        {
          "indexed": false,
          "internalType": "uint256",
          "name": "_newEstimate",
          "type": "uint256"
        }
      ],
      "name": "UpdatedGasEstimate",
      "type": "event"
    },
    {
      "anonymous": false,
      "inputs": [
        {
          "indexed": true,
          "internalType": "address",
          "name": "_tokenFrom",
          "type": "address"
        },
        {
          "indexed": true,
          "internalType": "address",
          "name": "_tokenTo",
          "type": "address"
        },
        {
          "indexed": false,
          "internalType": "uint256",
          "name": "_amountIn",
          "type": "uint256"
        },
        {
          "indexed": false,
          "internalType": "uint256",
          "name": "_amountOut",
          "type": "uint256"
        }
      ],
      "name": "YakAdapterSwap",
      "type": "event"
    },
    {
      "inputs": [],
      "name": "DEFAULT_ADMIN_ROLE",
      "outputs": [
        {
          "internalType": "bytes32",
          "name": "",
          "type": "bytes32"
        }
      ],
      "stateMutability": "view",
      "type": "function"
    },
    {
      "inputs": [],
      "name": "MAINTAINER_ROLE",
      "outputs": [
        {
          "internalType": "bytes32",
          "name": "",
          "type": "bytes32"
        }
      ],
      "stateMutability": "view",
      "type": "function"
    },
    {
      "inputs": [
        {
          "internalType": "address",
          "name": "addedMaintainer",
          "type": "address"
        }
      ],
      "name": "addMaintainer",
      "outputs": [],
      "stateMutability": "nonpayable",
      "type": "function"
    },
    {
      "inputs": [
        {
          "internalType": "address[]",
          "name": "pools",
          "type": "address[]"
        }
      ],
      "name": "addPoolsToWL",
      "outputs": [],
      "stateMutability": "nonpayable",
      "type": "function"
    },
    {
      "inputs": [
        {
          "internalType": "address",
          "name": "pool",
          "type": "address"
        },
        {
          "internalType": "int256",
          "name": "amountIn",
          "type": "int256"
        },
        {
          "internalType": "address",
          "name": "tokenIn",
          "type": "address"
        },
        {
          "internalType": "address",
          "name": "tokenOut",
          "type": "address"
        }
      ],
      "name": "getQuoteForPool",
      "outputs": [
        {
          "internalType": "uint256",
          "name": "",
          "type": "uint256"
        }
      ],
      "stateMutability": "view",
      "type": "function"
    },
    {
      "inputs": [
        {
          "internalType": "bytes32",
          "name": "role",
          "type": "bytes32"
        }
      ],
      "name": "getRoleAdmin",
      "outputs": [
        {
          "internalType": "bytes32",
          "name": "",
          "type": "bytes32"
        }
      ],
      "stateMutability": "view",
      "type": "function"
    },
    {
      "inputs": [
        {
          "internalType": "bytes32",
          "name": "role",
          "type": "bytes32"
        },
        {
          "internalType": "address",
          "name": "account",
          "type": "address"
        }
      ],
      "name": "grantRole",
      "outputs": [],
      "stateMutability": "nonpayable",
      "type": "function"
    },
    {
      "inputs": [
        {
          "internalType": "bytes32",
          "name": "role",
          "type": "bytes32"
        },
        {
          "internalType": "address",
          "name": "account",
          "type": "address"
        }
      ],
      "name": "hasRole",
      "outputs": [
        {
          "internalType": "bool",
          "name": "",
          "type": "bool"
        }
      ],
      "stateMutability": "view",
      "type": "function"
    },
    {
      "inputs": [],
      "name": "name",
      "outputs": [
        {
          "internalType": "string",
          "name": "",
          "type": "string"
        }
      ],
      "stateMutability": "view",
      "type": "function"
    },
    {
      "inputs": [
        {
          "internalType": "uint256",
          "name": "_amountIn",
          "type": "uint256"
        },
        {
          "internalType": "address",
          "name": "_tokenIn",
          "type": "address"
        },
        {
          "internalType": "address",
          "name": "_tokenOut",
          "type": "address"
        }
      ],
      "name": "query",
      "outputs": [
        {
          "internalType": "uint256",
          "name": "",
          "type": "uint256"
        }
      ],
      "stateMutability": "view",
      "type": "function"
    },
    {
      "inputs": [],
      "name": "quoter",
      "outputs": [
        {
          "internalType": "address",
          "name": "",
          "type": "address"
        }
      ],
      "stateMutability": "view",
      "type": "function"
    },
    {
      "inputs": [],
      "name": "quoterGasLimit",
      "outputs": [
        {
          "internalType": "uint256",
          "name": "",
          "type": "uint256"
        }
      ],
      "stateMutability": "view",
      "type": "function"
    },
    {
      "inputs": [
        {
          "internalType": "uint256",
          "name": "_amount",
          "type": "uint256"
        }
      ],
      "name": "recoverAVAX",
      "outputs": [],
      "stateMutability": "nonpayable",
      "type": "function"
    },
    {
      "inputs": [
        {
          "internalType": "address",
          "name": "_tokenAddress",
          "type": "address"
        },
        {
          "internalType": "uint256",
          "name": "_tokenAmount",
          "type": "uint256"
        }
      ],
      "name": "recoverERC20",
      "outputs": [],
      "stateMutability": "nonpayable",
      "type": "function"
    },
    {
      "inputs": [
        {
          "internalType": "address",
          "name": "removedMaintainer",
          "type": "address"
        }
      ],
      "name": "removeMaintainer",
      "outputs": [],
      "stateMutability": "nonpayable",
      "type": "function"
    },
    {
      "inputs": [
        {
          "internalType": "bytes32",
          "name": "role",
          "type": "bytes32"
        },
        {
          "internalType": "address",
          "name": "account",
          "type": "address"
        }
      ],
      "name": "renounceRole",
      "outputs": [],
      "stateMutability": "nonpayable",
      "type": "function"
    },
    {
      "inputs": [
        {
          "internalType": "bytes32",
          "name": "role",
          "type": "bytes32"
        }
      ],
      "name": "renounceRole",
      "outputs": [],
      "stateMutability": "nonpayable",
      "type": "function"
    },
    {
      "inputs": [
        {
          "internalType": "address",
          "name": "_token",
          "type": "address"
        },
        {
          "internalType": "address",
          "name": "_spender",
          "type": "address"
        }
      ],
      "name": "revokeAllowance",
      "outputs": [],
      "stateMutability": "nonpayable",
      "type": "function"
    },
    {
      "inputs": [
        {
          "internalType": "bytes32",
          "name": "role",
          "type": "bytes32"
        },
        {
          "internalType": "address",
          "name": "account",
          "type": "address"
        }
      ],
      "name": "revokeRole",
      "outputs": [],
      "stateMutability": "nonpayable",
      "type": "function"
    },
    {
      "inputs": [
        {
          "internalType": "address[]",
          "name": "pools",
          "type": "address[]"
        }
      ],
      "name": "rmPoolsFromWL",
      "outputs": [],
      "stateMutability": "nonpayable",
      "type": "function"
    },
    {
      "inputs": [
        {
          "internalType": "address",
          "name": "newQuoter",
          "type": "address"
        }
      ],
      "name": "setQuoter",
      "outputs": [],
      "stateMutability": "nonpayable",
      "type": "function"
    },
    {
      "inputs": [
        {
          "internalType": "uint256",
          "name": "newLimit",
          "type": "uint256"
        }
      ],
      "name": "setQuoterGasLimit",
      "outputs": [],
      "stateMutability": "nonpayable",
      "type": "function"
    },
    {
      "inputs": [
        {
          "internalType": "uint256",
          "name": "_estimate",
          "type": "uint256"
        }
      ],
      "name": "setSwapGasEstimate",
      "outputs": [],
      "stateMutability": "nonpayable",
      "type": "function"
    },
    {
      "inputs": [
        {
          "internalType": "bytes4",
          "name": "interfaceId",
          "type": "bytes4"
        }
      ],
      "name": "supportsInterface",
      "outputs": [
        {
          "internalType": "bool",
          "name": "",
          "type": "bool"
        }
      ],
      "stateMutability": "view",
      "type": "function"
    },
    {
      "inputs": [
        {
          "internalType": "uint256",
          "name": "_amountIn",
          "type": "uint256"
        },
        {
          "internalType": "uint256",
          "name": "_amountOut",
          "type": "uint256"
        },
        {
          "internalType": "address",
          "name": "_fromToken",
          "type": "address"
        },
        {
          "internalType": "address",
          "name": "_toToken",
          "type": "address"
        },
        {
          "internalType": "address",
          "name": "_to",
          "type": "address"
        }
      ],
      "name": "swap",
      "outputs": [],
      "stateMutability": "nonpayable",
      "type": "function"
    },
    {
      "inputs": [
        {
          "internalType": "int256",
          "name": "amount0Delta",
          "type": "int256"
        },
        {
          "internalType": "int256",
          "name": "amount1Delta",
          "type": "int256"
        },
        {
          "internalType": "bytes",
          "name": "",
          "type": "bytes"
        }
      ],
      "name": "swapCallback",
      "outputs": [],
      "stateMutability": "nonpayable",
      "type": "function"
    },
    {
      "inputs": [],
      "name": "swapGasEstimate",
      "outputs": [
        {
          "internalType": "uint256",
          "name": "",
          "type": "uint256"
        }
      ],
      "stateMutability": "view",
      "type": "function"
    },
    {
      "inputs": [
        {
          "internalType": "address",
          "name": "",
          "type": "address"
        },
        {
          "internalType": "address",
          "name": "",
          "type": "address"
        }
      ],
      "name": "tknsToPoolWL",
      "outputs": [
        {
          "internalType": "address",
          "name": "",
          "type": "address"
        }
      ],
      "stateMutability": "view",
      "type": "function"
    },
    {
      "inputs": [
        {
          "internalType": "address",
          "name": "newOwner",
          "type": "address"
        }
      ],
      "name": "transferOwnership",
      "outputs": [],
      "stateMutability": "nonpayable",
      "type": "function"
    },
    {
      "stateMutability": "payable",
      "type": "receive"
    }
  ],
  "transactionHash": "0xf43bded56dac26854940fc2a8969bbd0c80ead2bf47c5403bd19c99a69a13b86",
  "args": [
    "KyberElasticAdapter",
    210000,
    210000,
    "0xf2acd5F10E16BCd2b436701647513bB6C20cF62F",
    [
      "0x087abaab9cd85025a8b3916948c69fe173c837ea",
      "0xbf0aa7eef5b94fe11d4d0a72be9d29882415e3bb",
      "0x114de2affc6a335433dbe9d3d51a8f31a5591fdf",
      "0x7acbea3b8ab7cdf4a595c6ed81e7d3e26038d494",
      "0xd5b03a99441b088df2923f9e266c906971af2ded",
      "0xd98fca6160c5265c1da4ba709d686b85f490a21d",
      "0x2a83e1aa650b364ac88b39f1f67a34abcca8e6f2",
      "0xf9d234bad87825aa8906826f0a68d4c5bbbb1461",
      "0x26333db71b82e2df33d1c11158470b73e3d27072",
      "0x8285530c639b9aee36557312facd2f7d6c797c18",
      "0x1e662bfc7595565215a322575d0d9693f17df2e4",
      "0x30e4bd4a5b02f73a6863f499c2fba257025e827b",
      "0xae338fe2521c609437ab996f187819ab59082f94",
      "0x9497954d3d99b458808b7e9e3349edb3f193464d",
      "0xc1f8fe4afed59e461cbea887c3a578076ffb707f",
      "0x6ce912d22a9763226ae90126edf2f53bda429e2d",
      "0x8d1a0676f7f3c4d55c59a963ee710540e6a3deba",
      "0xc7ff48e5a7e6a14bc4d7dca1c3e4b38321121d0b",
      "0x369f3f702d449f1e5e741643b1b90a8bf175f839",
      "0x35758351bdbb30b0704e472ec36e6887ac0d794e",
      "0x8a33c7e7fa8969909654cca6f8190beda84eb023",
      "0xb100ba0b98b6d997fbf95c0c051ae66d79bd07b3"
    ]
  ],
  "solcInputHash": "2f7c552725bac4cbb59f7eeca6343ccc",
  "bytecode": "0x60806040523480156200001157600080fd5b506040516200303d3803806200303d8339810160408190526200003491620006b5565b848483858383600062000046620000c0565b905062000055600082620000c4565b620000706000805160206200301d83398151915282620000c4565b506200007c82620000d4565b620000878162000113565b5062000095905081620001c0565b620000a0826200022e565b50505050620000b5816200029960201b60201c565b505050505062000957565b3390565b620000d082826200033f565b5050565b8051620000fe5760405162461bcd60e51b8152600401620000f59062000802565b60405180910390fd5b8051620000d09060029060208401906200053b565b60006200011f620000c0565b90506200013c6000805160206200301d83398151915282620003c9565b6200015b5760405162461bcd60e51b8152600401620000f590620007ba565b816200017b5760405162461bcd60e51b8152600401620000f59062000870565b600182905560405130907ff43f23b7a28e6f8ce6843a21bd7b48bce778aa913b8c8cf459edf7d770e8d38a90620001b4908590620008a7565b60405180910390a25050565b6000620001cc620000c0565b9050620001e96000805160206200301d83398151915282620003c9565b620002085760405162461bcd60e51b8152600401620000f590620007ba565b81620002285760405162461bcd60e51b8152600401620000f59062000839565b50600355565b60006200023a620000c0565b9050620002576000805160206200301d83398151915282620003c9565b620002765760405162461bcd60e51b8152600401620000f590620007ba565b50600480546001600160a01b0319166001600160a01b0392909216919091179055565b6000620002a5620000c0565b9050620002c26000805160206200301d83398151915282620003c9565b620002e15760405162461bcd60e51b8152600401620000f590620007ba565b60005b82518110156200033a57620003278382815181106200031357634e487b7160e01b600052603260045260246000fd5b6020026020010151620003f260201b60201c565b620003328162000919565b9050620002e4565b505050565b6200034b8282620003c9565b620000d0576000828152602081815260408083206001600160a01b03851684529091529020805460ff1916600117905562000385620000c0565b6001600160a01b0316816001600160a01b0316837f2f8788117e7eff1d82e926ec794901d17c78024a50270940304540a733656f0d60405160405180910390a45050565b6000918252602082815260408084206001600160a01b0393909316845291905290205460ff1690565b6000816001600160a01b0316630dfe16816040518163ffffffff1660e01b815260040160206040518083038186803b1580156200042e57600080fd5b505afa15801562000443573d6000803e3d6000fd5b505050506040513d601f19601f8201168201806040525081019062000469919062000691565b90506000826001600160a01b031663d21220a76040518163ffffffff1660e01b815260040160206040518083038186803b158015620004a757600080fd5b505afa158015620004bc573d6000803e3d6000fd5b505050506040513d601f19601f82011682018060405250810190620004e2919062000691565b6001600160a01b03928316600081815260056020818152604080842095881684529481528483208054979098166001600160a01b0319978816811790985590815283822092825291909152208054909216909217905550565b8280546200054990620008dc565b90600052602060002090601f0160209004810192826200056d5760008555620005b8565b82601f106200058857805160ff1916838001178555620005b8565b82800160010185558215620005b8579182015b82811115620005b85782518255916020019190600101906200059b565b50620005c6929150620005ca565b5090565b5b80821115620005c65760008155600101620005cb565b80516001600160a01b0381168114620005f957600080fd5b919050565b600082601f8301126200060f578081fd5b815160206001600160401b038211156200062d576200062d62000941565b8082026200063d828201620008b0565b83815282810190868401838801850189101562000658578687fd5b8693505b8584101562000685576200067081620005e1565b8352600193909301929184019184016200065c565b50979650505050505050565b600060208284031215620006a3578081fd5b620006ae82620005e1565b9392505050565b600080600080600060a08688031215620006cd578081fd5b85516001600160401b0380821115620006e4578283fd5b818801915088601f830112620006f8578283fd5b8151818111156200070d576200070d62000941565b602062000723601f8301601f19168201620008b0565b8281528b8284870101111562000737578586fd5b855b838110156200075657858101830151828201840152820162000739565b838111156200076757868385840101525b50908a015160408b01519199509750955062000788905060608901620005e1565b935060808801519150808211156200079e578283fd5b50620007ad88828901620005fe565b9150509295509295909350565b60208082526028908201527f4d61696e7461696e61626c653a2043616c6c6572206973206e6f742061206d6160408201526734b73a30b4b732b960c11b606082015260800190565b60208082526014908201527f496e76616c69642061646170746572206e616d65000000000000000000000000604082015260600190565b6020808252601b908201527f71756572794761734c696d69742063616e2774206265207a65726f0000000000604082015260600190565b60208082526014908201527f496e76616c6964206761732d657374696d617465000000000000000000000000604082015260600190565b90815260200190565b6040518181016001600160401b0381118282101715620008d457620008d462000941565b604052919050565b600281046001821680620008f157607f821691505b602082108114156200091357634e487b7160e01b600052602260045260246000fd5b50919050565b60006000198214156200093a57634e487b7160e01b81526011600452602481fd5b5060010190565b634e487b7160e01b600052604160045260246000fd5b6126b680620009676000396000f3fe6080604052600436106101c65760003560e01c80638bb9c5bf116100f7578063eab90da611610095578063f35c4d4511610064578063f35c4d45146104fa578063f87422541461051a578063f912c64b1461052f578063fa483e721461054f576101cd565b8063eab90da61461047a578063ef99893a1461049a578063f06c21eb146104ba578063f2fde38b146104da576101cd565b8063c6bbd5a7116100d1578063c6bbd5a7146103f8578063d547741f1461041a578063d7e944491461043a578063d8baf7cf1461045a576101cd565b80638bb9c5bf146103a357806391d14854146103c3578063a217fddf146103e3576101cd565b806336568abe116101645780636b453c1f1161013e5780636b453c1f146103235780637ae267731461034357806384a33e63146103635780638980f11f14610383576101cd565b806336568abe146102ce5780634ebb7916146102ee57806369cff80d1461030e576101cd565b8063248a9ca3116101a0578063248a9ca3146102575780632bc857a0146102775780632f2ff15d1461028c57806335f7c24d146102ae576101cd565b806301ffc9a7146101d257806305e3f4dc1461020857806306fdde0314610235576101cd565b366101cd57005b600080fd5b3480156101de57600080fd5b506101f26101ed366004611e9d565b61056f565b6040516101ff919061218f565b60405180910390f35b34801561021457600080fd5b50610228610223366004611d03565b6105b5565b6040516101ff919061219a565b34801561024157600080fd5b5061024a6105ee565b6040516101ff91906121a3565b34801561026357600080fd5b50610228610272366004611e61565b61067c565b34801561028357600080fd5b50610228610691565b34801561029857600080fd5b506102ac6102a7366004611e79565b610697565b005b3480156102ba57600080fd5b506102ac6102c9366004611d80565b6106b8565b3480156102da57600080fd5b506102ac6102e9366004611e79565b61074d565b3480156102fa57600080fd5b506102ac610309366004611e61565b610793565b34801561031a57600080fd5b50610228610867565b34801561032f57600080fd5b506102ac61033e366004611c93565b61086d565b34801561034f57600080fd5b506102ac61035e366004611ccb565b610888565b34801561036f57600080fd5b506102ac61037e366004611e61565b6108dd565b34801561038f57600080fd5b506102ac61039e366004611d55565b610971565b3480156103af57600080fd5b506102ac6103be366004611e61565b610a2b565b3480156103cf57600080fd5b506101f26103de366004611e79565b610a41565b3480156103ef57600080fd5b50610228610a6a565b34801561040457600080fd5b5061040d610a6f565b6040516101ff91906120e3565b34801561042657600080fd5b506102ac610435366004611e79565b610a7e565b34801561044657600080fd5b5061040d610455366004611ccb565b610a9a565b34801561046657600080fd5b506102ac610475366004611c93565b610ac0565b34801561048657600080fd5b506102ac610495366004611fbc565b610ad8565b3480156104a657600080fd5b506102286104b5366004611f7b565b610c80565b3480156104c657600080fd5b506102ac6104d5366004611d80565b610c95565b3480156104e657600080fd5b506102ac6104f5366004611c93565b610d21565b34801561050657600080fd5b506102ac610515366004611e61565b610d43565b34801561052657600080fd5b50610228610da6565b34801561053b57600080fd5b506102ac61054a366004611c93565b610db8565b34801561055b57600080fd5b506102ac61056a366004611ee8565b610e28565b60006001600160e01b031982167f7965db0b0000000000000000000000000000000000000000000000000000000014806105ad57506105ad8261101f565b90505b919050565b60006105bf611c61565b604081018590526001600160a01b038085168252831660208201526105e48682611051565b9695505050505050565b600280546105fb90612599565b80601f016020809104026020016040519081016040528092919081815260200182805461062790612599565b80156106745780601f1061064957610100808354040283529160200191610674565b820191906000526020600020905b81548152906001019060200180831161065757829003601f168201915b505050505081565b60009081526020819052604090206001015490565b60035481565b6106a08261067c565b6106a9816110aa565b6106b383836110bb565b505050565b60006106c2611140565b90506106dc60008051602061266183398151915282610a41565b6107015760405162461bcd60e51b81526004016106f890612259565b60405180910390fd5b60005b82518110156106b35761073d83828151811061073057634e487b7160e01b600052603260045260246000fd5b6020026020010151611144565b610746816125ce565b9050610704565b610755611140565b6001600160a01b0316816001600160a01b0316146107855760405162461bcd60e51b81526004016106f89061244a565b61078f828261128d565b5050565b600061079d611140565b90506107b760008051602061266183398151915282610a41565b6107d35760405162461bcd60e51b81526004016106f890612259565b600082116107f35760405162461bcd60e51b81526004016106f8906122b6565b604051339083156108fc029084906000818181858888f19350505050158015610820573d6000803e3d6000fd5b5060006001600160a01b03167f8c1256b8896378cd5044f80c202f9772b9d77dc85c8a6eb51967210b09bfaa288360405161085b919061219a565b60405180910390a25050565b60015481565b61088560008051602061266183398151915282610697565b50565b6000610892611140565b90506108ac60008051602061266183398151915282610a41565b6108c85760405162461bcd60e51b81526004016106f890612259565b6106b36001600160a01b038416836000611310565b60006108e7611140565b905061090160008051602061266183398151915282610a41565b61091d5760405162461bcd60e51b81526004016106f890612259565b8161093a5760405162461bcd60e51b81526004016106f890612359565b600182905560405130907ff43f23b7a28e6f8ce6843a21bd7b48bce778aa913b8c8cf459edf7d770e8d38a9061085b90859061219a565b600061097b611140565b905061099560008051602061266183398151915282610a41565b6109b15760405162461bcd60e51b81526004016106f890612259565b600082116109d15760405162461bcd60e51b81526004016106f8906122b6565b6109e56001600160a01b0384163384611438565b826001600160a01b03167f8c1256b8896378cd5044f80c202f9772b9d77dc85c8a6eb51967210b09bfaa2883604051610a1e919061219a565b60405180910390a2505050565b6000610a35611140565b905061078f828261074d565b6000918252602082815260408084206001600160a01b0393909316845291905290205460ff1690565b600081565b6004546001600160a01b031681565b610a878261067c565b610a90816110aa565b6106b3838361128d565b60056020908152600092835260408084209091529082529020546001600160a01b031681565b61088560008051602061266183398151915282610a7e565b6040517f70a082310000000000000000000000000000000000000000000000000000000081526000906001600160a01b038416906370a0823190610b209085906004016120e3565b60206040518083038186803b158015610b3857600080fd5b505afa158015610b4c573d6000803e3d6000fd5b505050506040513d601f19601f82011682018060405250810190610b709190611f63565b9050610b7f8686868686611457565b600081846001600160a01b03166370a08231856040518263ffffffff1660e01b8152600401610bae91906120e3565b60206040518083038186803b158015610bc657600080fd5b505afa158015610bda573d6000803e3d6000fd5b505050506040513d601f19601f82011682018060405250810190610bfe9190611f63565b610c08919061253f565b905085811015610c2a5760405162461bcd60e51b81526004016106f8906121b6565b836001600160a01b0316856001600160a01b03167fe2bdbc6b7225eb0a972ac943c485a6cc05f7c6811838bce8903f23200fb744fa8989604051610c6f9291906124a7565b60405180910390a350505050505050565b6000610c8d8484846114b9565b949350505050565b6000610c9f611140565b9050610cb960008051602061266183398151915282610a41565b610cd55760405162461bcd60e51b81526004016106f890612259565b60005b82518110156106b357610d11838281518110610d0457634e487b7160e01b600052603260045260246000fd5b60200260200101516114db565b610d1a816125ce565b9050610cd8565b6000610d2b611140565b9050610d38600083610697565b61078f60008261074d565b6000610d4d611140565b9050610d6760008051602061266183398151915282610a41565b610d835760405162461bcd60e51b81526004016106f890612259565b81610da05760405162461bcd60e51b81526004016106f890612322565b50600355565b60008051602061266183398151915281565b6000610dc2611140565b9050610ddc60008051602061266183398151915282610a41565b610df85760405162461bcd60e51b81526004016106f890612259565b506004805473ffffffffffffffffffffffffffffffffffffffff19166001600160a01b0392909216919091179055565b6000841315610f2757336001600160a01b0316630dfe16816040518163ffffffff1660e01b815260040160206040518083038186803b158015610e6a57600080fd5b505afa158015610e7e573d6000803e3d6000fd5b505050506040513d601f19601f82011682018060405250810190610ea29190611caf565b6001600160a01b031663a9059cbb33866040518363ffffffff1660e01b8152600401610ecf929190612176565b602060405180830381600087803b158015610ee957600080fd5b505af1158015610efd573d6000803e3d6000fd5b505050506040513d601f19601f82011682018060405250810190610f219190611e41565b50611019565b336001600160a01b031663d21220a76040518163ffffffff1660e01b815260040160206040518083038186803b158015610f6057600080fd5b505afa158015610f74573d6000803e3d6000fd5b505050506040513d601f19601f82011682018060405250810190610f989190611caf565b6001600160a01b031663a9059cbb33856040518363ffffffff1660e01b8152600401610fc5929190612176565b602060405180830381600087803b158015610fdf57600080fd5b505af1158015610ff3573d6000803e3d6000fd5b505050506040513d601f19601f820116820180604052508101906110179190611e41565b505b50505050565b6001600160e01b031981167f01ffc9a70000000000000000000000000000000000000000000000000000000014919050565b600080600061106884600001518560200151611629565b9150915060008061107f878588604001518661167c565b915091508361109657611091826125e9565b61109f565b61109f816125e9565b979650505050505050565b610885816110b6611140565b61172e565b6110c58282610a41565b61078f576000828152602081815260408083206001600160a01b03851684529091529020805460ff191660011790556110fc611140565b6001600160a01b0316816001600160a01b0316837f2f8788117e7eff1d82e926ec794901d17c78024a50270940304540a733656f0d60405160405180910390a45050565b3390565b6000816001600160a01b0316630dfe16816040518163ffffffff1660e01b815260040160206040518083038186803b15801561117f57600080fd5b505afa158015611193573d6000803e3d6000fd5b505050506040513d601f19601f820116820180604052508101906111b79190611caf565b90506000826001600160a01b031663d21220a76040518163ffffffff1660e01b815260040160206040518083038186803b1580156111f457600080fd5b505afa158015611208573d6000803e3d6000fd5b505050506040513d601f19601f8201168201806040525081019061122c9190611caf565b6001600160a01b039283166000818152600560208181526040808420979095168352958652838220805473ffffffffffffffffffffffffffffffffffffffff1990811690915590865283822092825291909452922080549092169091555050565b6112978282610a41565b1561078f576000828152602081815260408083206001600160a01b03851684529091529020805460ff191690556112cc611140565b6001600160a01b0316816001600160a01b0316837ff6391f5c32d9c69d2a47ea670b442974b53935d1edc7fd64eb21e047a839171b60405160405180910390a45050565b8015806113b157506040517fdd62ed3e0000000000000000000000000000000000000000000000000000000081526001600160a01b0384169063dd62ed3e9061135f90309086906004016120f7565b60206040518083038186803b15801561137757600080fd5b505afa15801561138b573d6000803e3d6000fd5b505050506040513d601f19601f820116820180604052508101906113af9190611f63565b155b6113cd5760405162461bcd60e51b81526004016106f8906123ed565b6106b38363095ea7b360e01b84846040516024016113ec929190612176565b60408051601f198184030181529190526020810180517bffffffffffffffffffffffffffffffffffffffffffffffffffffffff166001600160e01b031990931692909217909152611792565b6106b38363a9059cbb60e01b84846040516024016113ec929190612176565b6000611464868585611848565b6040805160008082526020820190925291925090611483908390611882565b9050858110156114a55760405162461bcd60e51b81526004016106f890612222565b6114b084828561196a565b50505050505050565b6000806114c7858585611848565b90506114d28161198e565b95945050505050565b6000816001600160a01b0316630dfe16816040518163ffffffff1660e01b815260040160206040518083038186803b15801561151657600080fd5b505afa15801561152a573d6000803e3d6000fd5b505050506040513d601f19601f8201168201806040525081019061154e9190611caf565b90506000826001600160a01b031663d21220a76040518163ffffffff1660e01b815260040160206040518083038186803b15801561158b57600080fd5b505afa15801561159f573d6000803e3d6000fd5b505050506040513d601f19601f820116820180604052508101906115c39190611caf565b6001600160a01b039283166000818152600560208181526040808420958816845294815284832080549790981673ffffffffffffffffffffffffffffffffffffffff19978816811790985590815283822092825291909152208054909216909217905550565b6001600160a01b03808216908316106000816116635761165e600173fffd8963efd1fc6a506488495d951d5263988d26612517565b611673565b6116736401000276a360016124b5565b90509250929050565b6000806000868686866040516024016116989493929190612111565b60408051601f198184030181529190526020810180517bffffffffffffffffffffffffffffffffffffffffffffffffffffffff167f90405d360000000000000000000000000000000000000000000000000000000017905290506000806116fe836119c7565b915091508115611722578080602001905181019061171c9190611ec5565b90955093505b50505094509492505050565b6117388282610a41565b61078f57611750816001600160a01b03166014611a39565b61175b836020611a39565b60405160200161176c929190612062565b60408051601f198184030181529082905262461bcd60e51b82526106f8916004016121a3565b600080836001600160a01b0316836040516117ad9190612046565b6000604051808303816000865af19150503d80600081146117ea576040519150601f19603f3d011682016040523d82523d6000602084013e6117ef565b606091505b5091509150816118115760405162461bcd60e51b81526004016106f8906122ed565b805115611019578080602001905181019061182c9190611e41565b6110195760405162461bcd60e51b81526004016106f890612390565b611850611c61565b50604080516080810182526001600160a01b039384168152919092166020820152908101919091526000606082015290565b60008061189784600001518560200151611c37565b90506000806118ae86600001518760200151611629565b91509150600080846001600160a01b03166324b31a0c308a6040015187878c6040518663ffffffff1660e01b81526004016118ed95949392919061213c565b6040805180830381600087803b15801561190657600080fd5b505af115801561191a573d6000803e3d6000fd5b505050506040513d601f19601f8201168201806040525081019061193e9190611ec5565b915091508361195557611950826125e9565b61195e565b61195e816125e9565b98975050505050505050565b306001600160a01b038216146106b3576106b36001600160a01b0384168284611438565b6000806119a383600001518460200151611c37565b90506001600160a01b038116156119c1576119be8184611051565b91505b50919050565b6004546003546040516000926060926001600160a01b03909116916119ed908690612046565b6000604051808303818686fa925050503d8060008114611a29576040519150601f19603f3d011682016040523d82523d6000602084013e611a2e565b606091505b509094909350915050565b60606000611a488360026124f8565b611a539060026124e0565b67ffffffffffffffff811115611a7957634e487b7160e01b600052604160045260246000fd5b6040519080825280601f01601f191660200182016040528015611aa3576020820181803683370190505b5090507f300000000000000000000000000000000000000000000000000000000000000081600081518110611ae857634e487b7160e01b600052603260045260246000fd5b60200101906001600160f81b031916908160001a9053507f780000000000000000000000000000000000000000000000000000000000000081600181518110611b4157634e487b7160e01b600052603260045260246000fd5b60200101906001600160f81b031916908160001a9053506000611b658460026124f8565b611b709060016124e0565b90505b6001811115611c11577f303132333435363738396162636465660000000000000000000000000000000085600f1660108110611bbf57634e487b7160e01b600052603260045260246000fd5b1a60f81b828281518110611be357634e487b7160e01b600052603260045260246000fd5b60200101906001600160f81b031916908160001a90535060049490941c93611c0a81612582565b9050611b73565b508315611c305760405162461bcd60e51b81526004016106f8906121ed565b9392505050565b6001600160a01b039182166000908152600560209081526040808320938516835292905220541690565b60408051608081018252600080825260208201819052918101829052606081019190915290565b80356105b08161264b565b600060208284031215611ca4578081fd5b8135611c308161264b565b600060208284031215611cc0578081fd5b8151611c308161264b565b60008060408385031215611cdd578081fd5b8235611ce88161264b565b91506020830135611cf88161264b565b809150509250929050565b60008060008060808587031215611d18578182fd5b8435611d238161264b565b9350602085013592506040850135611d3a8161264b565b91506060850135611d4a8161264b565b939692955090935050565b60008060408385031215611d67578182fd5b8235611d728161264b565b946020939093013593505050565b60006020808385031215611d92578182fd5b823567ffffffffffffffff80821115611da9578384fd5b818501915085601f830112611dbc578384fd5b813581811115611dce57611dce612635565b83810260405185828201018181108582111715611ded57611ded612635565b604052828152858101935084860182860187018a1015611e0b578788fd5b8795505b83861015611e3457611e2081611c88565b855260019590950194938601938601611e0f565b5098975050505050505050565b600060208284031215611e52578081fd5b81518015158114611c30578182fd5b600060208284031215611e72578081fd5b5035919050565b60008060408385031215611e8b578182fd5b823591506020830135611cf88161264b565b600060208284031215611eae578081fd5b81356001600160e01b031981168114611c30578182fd5b60008060408385031215611ed7578182fd5b505080516020909101519092909150565b60008060008060608587031215611efd578384fd5b8435935060208501359250604085013567ffffffffffffffff80821115611f22578384fd5b818701915087601f830112611f35578384fd5b813581811115611f43578485fd5b886020828501011115611f54578485fd5b95989497505060200194505050565b600060208284031215611f74578081fd5b5051919050565b600080600060608486031215611f8f578081fd5b833592506020840135611fa18161264b565b91506040840135611fb18161264b565b809150509250925092565b600080600080600060a08688031215611fd3578283fd5b85359450602086013593506040860135611fec8161264b565b92506060860135611ffc8161264b565b9150608086013561200c8161264b565b809150509295509295909350565b60008151808452612032816020860160208601612556565b601f01601f19169290920160200192915050565b60008251612058818460208701612556565b9190910192915050565b60007f416363657373436f6e74726f6c3a206163636f756e74200000000000000000008252835161209a816017850160208801612556565b7f206973206d697373696e6720726f6c652000000000000000000000000000000060179184019182015283516120d7816028840160208801612556565b01602801949350505050565b6001600160a01b0391909116815260200190565b6001600160a01b0392831681529116602082015260400190565b6001600160a01b03948516815292151560208401526040830191909152909116606082015260800190565b60006001600160a01b038088168352866020840152851515604084015280851660608401525060a0608083015261109f60a083018461201a565b6001600160a01b03929092168252602082015260400190565b901515815260200190565b90815260200190565b600060208252611c30602083018461201a565b60208082526017908201527f496e73756666696369656e7420616d6f756e742d6f7574000000000000000000604082015260600190565b6020808252818101527f537472696e67733a20686578206c656e67746820696e73756666696369656e74604082015260600190565b60208082526016908201527f496e73756666696369656e7420616d6f756e744f757400000000000000000000604082015260600190565b60208082526028908201527f4d61696e7461696e61626c653a2043616c6c6572206973206e6f742061206d6160408201527f696e7461696e6572000000000000000000000000000000000000000000000000606082015260800190565b6020808252601e908201527f59616b416461707465723a204e6f7468696e6720746f207265636f7665720000604082015260600190565b6020808252818101527f5361666545524332303a206c6f772d6c6576656c2063616c6c206661696c6564604082015260600190565b6020808252601b908201527f71756572794761734c696d69742063616e2774206265207a65726f0000000000604082015260600190565b60208082526014908201527f496e76616c6964206761732d657374696d617465000000000000000000000000604082015260600190565b6020808252602a908201527f5361666545524332303a204552433230206f7065726174696f6e20646964206e60408201527f6f74207375636365656400000000000000000000000000000000000000000000606082015260800190565b60208082526036908201527f5361666545524332303a20617070726f76652066726f6d206e6f6e2d7a65726f60408201527f20746f206e6f6e2d7a65726f20616c6c6f77616e636500000000000000000000606082015260800190565b6020808252602f908201527f416363657373436f6e74726f6c3a2063616e206f6e6c792072656e6f756e636560408201527f20726f6c657320666f722073656c660000000000000000000000000000000000606082015260800190565b918252602082015260400190565b60006001600160a01b038083168185168083038211156124d7576124d761261f565b01949350505050565b600082198211156124f3576124f361261f565b500190565b60008160001904831182151516156125125761251261261f565b500290565b60006001600160a01b03838116908316818110156125375761253761261f565b039392505050565b6000828210156125515761255161261f565b500390565b60005b83811015612571578181015183820152602001612559565b838111156110195750506000910152565b6000816125915761259161261f565b506000190190565b6002810460018216806125ad57607f821691505b602082108114156119c157634e487b7160e01b600052602260045260246000fd5b60006000198214156125e2576125e261261f565b5060010190565b60007f800000000000000000000000000000000000000000000000000000000000000082141561261b5761261b61261f565b0390565b634e487b7160e01b600052601160045260246000fd5b634e487b7160e01b600052604160045260246000fd5b6001600160a01b038116811461088557600080fdfe339759585899103d2ace64958e37e18ccb0504652c81d4a1b8aa80fe2126ab95a2646970667358221220d00f47551c3d1b2312d24078bf14b1ea31f727f3fb46698b70c5e39f3f90aa1764736f6c63430008000033339759585899103d2ace64958e37e18ccb0504652c81d4a1b8aa80fe2126ab95",
  "devdoc": {
    "kind": "dev",
    "methods": {
      "getRoleAdmin(bytes32)": {
        "details": "Returns the admin role that controls `role`. See {grantRole} and {revokeRole}. To change a role's admin, use {_setRoleAdmin}."
      },
      "grantRole(bytes32,address)": {
        "details": "Grants `role` to `account`. If `account` had not been already granted `role`, emits a {RoleGranted} event. Requirements: - the caller must have ``role``'s admin role. May emit a {RoleGranted} event."
      },
      "hasRole(bytes32,address)": {
        "details": "Returns `true` if `account` has been granted `role`."
      },
      "renounceRole(bytes32,address)": {
        "details": "Revokes `role` from the calling account. Roles are often managed via {grantRole} and {revokeRole}: this function's purpose is to provide a mechanism for accounts to lose their privileges if they are compromised (such as when a trusted device is misplaced). If the calling account had been revoked `role`, emits a {RoleRevoked} event. Requirements: - the caller must be `account`. May emit a {RoleRevoked} event."
      },
      "revokeRole(bytes32,address)": {
        "details": "Revokes `role` from `account`. If `account` had been granted `role`, emits a {RoleRevoked} event. Requirements: - the caller must have ``role``'s admin role. May emit a {RoleRevoked} event."
      },
      "supportsInterface(bytes4)": {
        "details": "See {IERC165-supportsInterface}."
      }
    },
    "version": 1
  },
  "userdoc": {
    "kind": "user",
    "methods": {},
    "version": 1
  },
  "storageLayout": {
    "storage": [
      {
        "astId": 24,
        "contract": "src/contracts/adapters/KyberElasticAdapter.sol:KyberElasticAdapter",
        "label": "_roles",
        "offset": 0,
        "slot": "0",
        "type": "t_mapping(t_bytes32,t_struct(RoleData)19_storage)"
      },
      {
        "astId": 1452,
        "contract": "src/contracts/adapters/KyberElasticAdapter.sol:KyberElasticAdapter",
        "label": "swapGasEstimate",
        "offset": 0,
        "slot": "1",
        "type": "t_uint256"
      },
      {
        "astId": 1454,
        "contract": "src/contracts/adapters/KyberElasticAdapter.sol:KyberElasticAdapter",
        "label": "name",
        "offset": 0,
        "slot": "2",
        "type": "t_string_storage"
      },
      {
        "astId": 12740,
        "contract": "src/contracts/adapters/KyberElasticAdapter.sol:KyberElasticAdapter",
        "label": "quoterGasLimit",
        "offset": 0,
        "slot": "3",
        "type": "t_uint256"
      },
      {
        "astId": 12742,
        "contract": "src/contracts/adapters/KyberElasticAdapter.sol:KyberElasticAdapter",
        "label": "quoter",
        "offset": 0,
        "slot": "4",
        "type": "t_address"
      },
      {
        "astId": 10318,
        "contract": "src/contracts/adapters/KyberElasticAdapter.sol:KyberElasticAdapter",
        "label": "tknsToPoolWL",
        "offset": 0,
        "slot": "5",
        "type": "t_mapping(t_address,t_mapping(t_address,t_address))"
      }
    ],
    "types": {
      "t_address": {
        "encoding": "inplace",
        "label": "address",
        "numberOfBytes": "20"
      },
      "t_bool": {
        "encoding": "inplace",
        "label": "bool",
        "numberOfBytes": "1"
      },
      "t_bytes32": {
        "encoding": "inplace",
        "label": "bytes32",
        "numberOfBytes": "32"
      },
      "t_mapping(t_address,t_address)": {
        "encoding": "mapping",
        "key": "t_address",
        "label": "mapping(address => address)",
        "numberOfBytes": "32",
        "value": "t_address"
      },
      "t_mapping(t_address,t_bool)": {
        "encoding": "mapping",
        "key": "t_address",
        "label": "mapping(address => bool)",
        "numberOfBytes": "32",
        "value": "t_bool"
      },
      "t_mapping(t_address,t_mapping(t_address,t_address))": {
        "encoding": "mapping",
        "key": "t_address",
        "label": "mapping(address => mapping(address => address))",
        "numberOfBytes": "32",
        "value": "t_mapping(t_address,t_address)"
      },
      "t_mapping(t_bytes32,t_struct(RoleData)19_storage)": {
        "encoding": "mapping",
        "key": "t_bytes32",
        "label": "mapping(bytes32 => struct AccessControl.RoleData)",
        "numberOfBytes": "32",
        "value": "t_struct(RoleData)19_storage"
      },
      "t_string_storage": {
        "encoding": "bytes",
        "label": "string",
        "numberOfBytes": "32"
      },
      "t_struct(RoleData)19_storage": {
        "encoding": "inplace",
        "label": "struct AccessControl.RoleData",
        "members": [
          {
            "astId": 16,
            "contract": "src/contracts/adapters/KyberElasticAdapter.sol:KyberElasticAdapter",
            "label": "members",
            "offset": 0,
            "slot": "0",
            "type": "t_mapping(t_address,t_bool)"
          },
          {
            "astId": 18,
            "contract": "src/contracts/adapters/KyberElasticAdapter.sol:KyberElasticAdapter",
            "label": "adminRole",
            "offset": 0,
            "slot": "1",
            "type": "t_bytes32"
          }
        ],
        "numberOfBytes": "64"
      },
      "t_uint256": {
        "encoding": "inplace",
        "label": "uint256",
        "numberOfBytes": "32"
      }
    }
  }
}