{
  "address": "0x4aacd032a541176CEeb39AB06d67637097819a35",
  "abi": [
    {
      "inputs": [
        {
          "internalType": "string",
          "name": "_name",
          "type": "string"
        },
        {
          "internalType": "uint256",
          "name": "_swapGasEstimate",
          "type": "uint256"
        },
        {
          "internalType": "uint256",
          "name": "_quoterGasLimit",
          "type": "uint256"
        },
        {
          "internalType": "address",
          "name": "_quoter",
          "type": "address"
        },
        {
          "internalType": "address",
          "name": "_factory",
          "type": "address"
        },
        {
          "internalType": "uint24[]",
          "name": "_defaultFees",
          "type": "uint24[]"
        }
      ],
      "stateMutability": "nonpayable",
      "type": "constructor"
    },
    {
      "anonymous": false,
      "inputs": [
        {
          "indexed": true,
          "internalType": "address",
          "name": "_asset",
          "type": "address"
        },
        {
          "indexed": false,
          "internalType": "uint256",
          "name": "amount",
          "type": "uint256"
        }
      ],
      "name": "Recovered",
      "type": "event"
    },
    {
      "anonymous": false,
      "inputs": [
        {
          "indexed": true,
          "internalType": "bytes32",
          "name": "role",
          "type": "bytes32"
        },
        {
          "indexed": true,
          "internalType": "bytes32",
          "name": "previousAdminRole",
          "type": "bytes32"
        },
        {
          "indexed": true,
          "internalType": "bytes32",
          "name": "newAdminRole",
          "type": "bytes32"
        }
      ],
      "name": "RoleAdminChanged",
      "type": "event"
    },
    {
      "anonymous": false,
      "inputs": [
        {
          "indexed": true,
          "internalType": "bytes32",
          "name": "role",
          "type": "bytes32"
        },
        {
          "indexed": true,
          "internalType": "address",
          "name": "account",
          "type": "address"
        },
        {
          "indexed": true,
          "internalType": "address",
          "name": "sender",
          "type": "address"
        }
      ],
      "name": "RoleGranted",
      "type": "event"
    },
    {
      "anonymous": false,
      "inputs": [
        {
          "indexed": true,
          "internalType": "bytes32",
          "name": "role",
          "type": "bytes32"
        },
        {
          "indexed": true,
          "internalType": "address",
          "name": "account",
          "type": "address"
        },
        {
          "indexed": true,
          "internalType": "address",
          "name": "sender",
          "type": "address"
        }
      ],
      "name": "RoleRevoked",
      "type": "event"
    },
    {
      "anonymous": false,
      "inputs": [
        {
          "indexed": true,
          "internalType": "address",
          "name": "_adapter",
          "type": "address"
        },
        {
          "indexed": false,
          "internalType": "uint256",
          "name": "_newEstimate",
          "type": "uint256"
        }
      ],
      "name": "UpdatedGasEstimate",
      "type": "event"
    },
    {
      "anonymous": false,
      "inputs": [
        {
          "indexed": true,
          "internalType": "address",
          "name": "_tokenFrom",
          "type": "address"
        },
        {
          "indexed": true,
          "internalType": "address",
          "name": "_tokenTo",
          "type": "address"
        },
        {
          "indexed": false,
          "internalType": "uint256",
          "name": "_amountIn",
          "type": "uint256"
        },
        {
          "indexed": false,
          "internalType": "uint256",
          "name": "_amountOut",
          "type": "uint256"
        }
      ],
      "name": "YakAdapterSwap",
      "type": "event"
    },
    {
      "inputs": [],
      "name": "DEFAULT_ADMIN_ROLE",
      "outputs": [
        {
          "internalType": "bytes32",
          "name": "",
          "type": "bytes32"
        }
      ],
      "stateMutability": "view",
      "type": "function"
    },
    {
      "inputs": [],
      "name": "MAINTAINER_ROLE",
      "outputs": [
        {
          "internalType": "bytes32",
          "name": "",
          "type": "bytes32"
        }
      ],
      "stateMutability": "view",
      "type": "function"
    },
    {
      "inputs": [
        {
          "internalType": "address",
          "name": "addedMaintainer",
          "type": "address"
        }
      ],
      "name": "addMaintainer",
      "outputs": [],
      "stateMutability": "nonpayable",
      "type": "function"
    },
    {
      "inputs": [
        {
          "internalType": "uint24[]",
          "name": "_amounts",
          "type": "uint24[]"
        }
      ],
      "name": "enableFeeAmounts",
      "outputs": [],
      "stateMutability": "nonpayable",
      "type": "function"
    },
    {
      "inputs": [
        {
          "internalType": "uint256",
          "name": "",
          "type": "uint256"
        }
      ],
      "name": "feeAmounts",
      "outputs": [
        {
          "internalType": "uint24",
          "name": "",
          "type": "uint24"
        }
      ],
      "stateMutability": "view",
      "type": "function"
    },
    {
      "inputs": [
        {
          "internalType": "address",
          "name": "pool",
          "type": "address"
        },
        {
          "internalType": "int256",
          "name": "amountIn",
          "type": "int256"
        },
        {
          "internalType": "address",
          "name": "tokenIn",
          "type": "address"
        },
        {
          "internalType": "address",
          "name": "tokenOut",
          "type": "address"
        }
      ],
      "name": "getQuoteForPool",
      "outputs": [
        {
          "internalType": "uint256",
          "name": "",
          "type": "uint256"
        }
      ],
      "stateMutability": "view",
      "type": "function"
    },
    {
      "inputs": [
        {
          "internalType": "bytes32",
          "name": "role",
          "type": "bytes32"
        }
      ],
      "name": "getRoleAdmin",
      "outputs": [
        {
          "internalType": "bytes32",
          "name": "",
          "type": "bytes32"
        }
      ],
      "stateMutability": "view",
      "type": "function"
    },
    {
      "inputs": [
        {
          "internalType": "bytes32",
          "name": "role",
          "type": "bytes32"
        },
        {
          "internalType": "address",
          "name": "account",
          "type": "address"
        }
      ],
      "name": "grantRole",
      "outputs": [],
      "stateMutability": "nonpayable",
      "type": "function"
    },
    {
      "inputs": [
        {
          "internalType": "bytes32",
          "name": "role",
          "type": "bytes32"
        },
        {
          "internalType": "address",
          "name": "account",
          "type": "address"
        }
      ],
      "name": "hasRole",
      "outputs": [
        {
          "internalType": "bool",
          "name": "",
          "type": "bool"
        }
      ],
      "stateMutability": "view",
      "type": "function"
    },
    {
      "inputs": [
        {
          "internalType": "uint24",
          "name": "",
          "type": "uint24"
        }
      ],
      "name": "isFeeAmountEnabled",
      "outputs": [
        {
          "internalType": "bool",
          "name": "",
          "type": "bool"
        }
      ],
      "stateMutability": "view",
      "type": "function"
    },
    {
      "inputs": [],
      "name": "name",
      "outputs": [
        {
          "internalType": "string",
          "name": "",
          "type": "string"
        }
      ],
      "stateMutability": "view",
      "type": "function"
    },
    {
      "inputs": [
        {
          "internalType": "uint256",
          "name": "_amountIn",
          "type": "uint256"
        },
        {
          "internalType": "address",
          "name": "_tokenIn",
          "type": "address"
        },
        {
          "internalType": "address",
          "name": "_tokenOut",
          "type": "address"
        }
      ],
      "name": "query",
      "outputs": [
        {
          "internalType": "uint256",
          "name": "",
          "type": "uint256"
        }
      ],
      "stateMutability": "view",
      "type": "function"
    },
    {
      "inputs": [],
      "name": "quoter",
      "outputs": [
        {
          "internalType": "address",
          "name": "",
          "type": "address"
        }
      ],
      "stateMutability": "view",
      "type": "function"
    },
    {
      "inputs": [],
      "name": "quoterGasLimit",
      "outputs": [
        {
          "internalType": "uint256",
          "name": "",
          "type": "uint256"
        }
      ],
      "stateMutability": "view",
      "type": "function"
    },
    {
      "inputs": [
        {
          "internalType": "int256",
          "name": "amount0Delta",
          "type": "int256"
        },
        {
          "internalType": "int256",
          "name": "amount1Delta",
          "type": "int256"
        },
        {
          "internalType": "bytes",
          "name": "",
          "type": "bytes"
        }
      ],
      "name": "ramsesV2SwapCallback",
      "outputs": [],
      "stateMutability": "nonpayable",
      "type": "function"
    },
    {
      "inputs": [
        {
          "internalType": "uint256",
          "name": "_amount",
          "type": "uint256"
        }
      ],
      "name": "recoverAVAX",
      "outputs": [],
      "stateMutability": "nonpayable",
      "type": "function"
    },
    {
      "inputs": [
        {
          "internalType": "address",
          "name": "_tokenAddress",
          "type": "address"
        },
        {
          "internalType": "uint256",
          "name": "_tokenAmount",
          "type": "uint256"
        }
      ],
      "name": "recoverERC20",
      "outputs": [],
      "stateMutability": "nonpayable",
      "type": "function"
    },
    {
      "inputs": [
        {
          "internalType": "address",
          "name": "removedMaintainer",
          "type": "address"
        }
      ],
      "name": "removeMaintainer",
      "outputs": [],
      "stateMutability": "nonpayable",
      "type": "function"
    },
    {
      "inputs": [
        {
          "internalType": "bytes32",
          "name": "role",
          "type": "bytes32"
        },
        {
          "internalType": "address",
          "name": "account",
          "type": "address"
        }
      ],
      "name": "renounceRole",
      "outputs": [],
      "stateMutability": "nonpayable",
      "type": "function"
    },
    {
      "inputs": [
        {
          "internalType": "bytes32",
          "name": "role",
          "type": "bytes32"
        }
      ],
      "name": "renounceRole",
      "outputs": [],
      "stateMutability": "nonpayable",
      "type": "function"
    },
    {
      "inputs": [
        {
          "internalType": "address",
          "name": "_token",
          "type": "address"
        },
        {
          "internalType": "address",
          "name": "_spender",
          "type": "address"
        }
      ],
      "name": "revokeAllowance",
      "outputs": [],
      "stateMutability": "nonpayable",
      "type": "function"
    },
    {
      "inputs": [
        {
          "internalType": "bytes32",
          "name": "role",
          "type": "bytes32"
        },
        {
          "internalType": "address",
          "name": "account",
          "type": "address"
        }
      ],
      "name": "revokeRole",
      "outputs": [],
      "stateMutability": "nonpayable",
      "type": "function"
    },
    {
      "inputs": [
        {
          "internalType": "address",
          "name": "newQuoter",
          "type": "address"
        }
      ],
      "name": "setQuoter",
      "outputs": [],
      "stateMutability": "nonpayable",
      "type": "function"
    },
    {
      "inputs": [
        {
          "internalType": "uint256",
          "name": "newLimit",
          "type": "uint256"
        }
      ],
      "name": "setQuoterGasLimit",
      "outputs": [],
      "stateMutability": "nonpayable",
      "type": "function"
    },
    {
      "inputs": [
        {
          "internalType": "uint256",
          "name": "_estimate",
          "type": "uint256"
        }
      ],
      "name": "setSwapGasEstimate",
      "outputs": [],
      "stateMutability": "nonpayable",
      "type": "function"
    },
    {
      "inputs": [
        {
          "internalType": "bytes4",
          "name": "interfaceId",
          "type": "bytes4"
        }
      ],
      "name": "supportsInterface",
      "outputs": [
        {
          "internalType": "bool",
          "name": "",
          "type": "bool"
        }
      ],
      "stateMutability": "view",
      "type": "function"
    },
    {
      "inputs": [
        {
          "internalType": "uint256",
          "name": "_amountIn",
          "type": "uint256"
        },
        {
          "internalType": "uint256",
          "name": "_amountOut",
          "type": "uint256"
        },
        {
          "internalType": "address",
          "name": "_fromToken",
          "type": "address"
        },
        {
          "internalType": "address",
          "name": "_toToken",
          "type": "address"
        },
        {
          "internalType": "address",
          "name": "_to",
          "type": "address"
        }
      ],
      "name": "swap",
      "outputs": [],
      "stateMutability": "nonpayable",
      "type": "function"
    },
    {
      "inputs": [],
      "name": "swapGasEstimate",
      "outputs": [
        {
          "internalType": "uint256",
          "name": "",
          "type": "uint256"
        }
      ],
      "stateMutability": "view",
      "type": "function"
    },
    {
      "inputs": [
        {
          "internalType": "address",
          "name": "newOwner",
          "type": "address"
        }
      ],
      "name": "transferOwnership",
      "outputs": [],
      "stateMutability": "nonpayable",
      "type": "function"
    },
    {
      "stateMutability": "payable",
      "type": "receive"
    }
  ],
  "transactionHash": "0x0d9d4430d4866b890efe2b27629657f2e5a3012b75309add8bf1698c1f51df45",
  "args": [
    "RamsesAdapter",
    400000,
    340000,
    "0x1553804c340ac418797A701e330578593C78A91E",
    "0xAA2cd7477c451E703f3B9Ba5663334914763edF8",
    [
      50,
      100,
      250,
      500,
      3000,
      10000
    ]
  ],
  "solcInputHash": "8d057c001a3740562bb605e9433c4073",
  "bytecode": "0x60a06040523480156200001157600080fd5b506040516200318038038062003180833981016040819052620000349162000660565b858584868383336200004860008262000122565b620000747f339759585899103d2ace64958e37e18ccb0504652c81d4a1b8aa80fe2126ab958262000122565b50620000808262000132565b6200008b816200019b565b506200009990508162000297565b620000a4826200035b565b5050506001600160601b0319606084901b166080525060005b8151811015620001155762000100828281518110620000ec57634e487b7160e01b600052603260045260246000fd5b6020026020010151620003ed60201b60201c565b806200010c81620007e6565b915050620000bd565b5050505050505062000824565b6200012e828262000461565b5050565b8051620001865760405162461bcd60e51b815260206004820152601460248201527f496e76616c69642061646170746572206e616d6500000000000000000000000060448201526064015b60405180910390fd5b80516200012e90600290602084019062000501565b33600081815260008051602062003140833981519152602052604090205460ff166200020a5760405162461bcd60e51b815260206004820152602860248201526000805160206200316083398151915260448201526734b73a30b4b732b960c11b60648201526084016200017d565b81620002595760405162461bcd60e51b815260206004820152601460248201527f496e76616c6964206761732d657374696d61746500000000000000000000000060448201526064016200017d565b600182905560405182815230907ff43f23b7a28e6f8ce6843a21bd7b48bce778aa913b8c8cf459edf7d770e8d38a9060200160405180910390a25050565b33600081815260008051602062003140833981519152602052604090205460ff16620003065760405162461bcd60e51b815260206004820152602860248201526000805160206200316083398151915260448201526734b73a30b4b732b960c11b60648201526084016200017d565b81620003555760405162461bcd60e51b815260206004820152601b60248201527f71756572794761734c696d69742063616e2774206265207a65726f000000000060448201526064016200017d565b50600355565b33600081815260008051602062003140833981519152602052604090205460ff16620003ca5760405162461bcd60e51b815260206004820152602860248201526000805160206200316083398151915260448201526734b73a30b4b732b960c11b60648201526084016200017d565b50600480546001600160a01b0319166001600160a01b0392909216919091179055565b62ffffff9081166000818152600560205260408120805460ff19166001908117909155600680549182018155909152600a8082047ff652222313e28459528d920b65115c16c04f3efc82aaedc97be59f3f377c0d3f018054600392909306919091026101000a928302929093021916179055565b6000828152602081815260408083206001600160a01b038516845290915290205460ff166200012e576000828152602081815260408083206001600160a01b03851684529091529020805460ff19166001179055620004bd3390565b6001600160a01b0316816001600160a01b0316837f2f8788117e7eff1d82e926ec794901d17c78024a50270940304540a733656f0d60405160405180910390a45050565b8280546200050f90620007a9565b90600052602060002090601f0160209004810192826200053357600085556200057e565b82601f106200054e57805160ff19168380011785556200057e565b828001600101855582156200057e579182015b828111156200057e57825182559160200191906001019062000561565b506200058c92915062000590565b5090565b5b808211156200058c576000815560010162000591565b80516001600160a01b0381168114620005bf57600080fd5b919050565b600082601f830112620005d5578081fd5b815160206001600160401b03821115620005f357620005f36200080e565b8160051b6200060482820162000776565b8381528281019086840183880185018910156200061f578687fd5b8693505b858410156200065457805162ffffff811681146200063f578788fd5b83526001939093019291840191840162000623565b50979650505050505050565b60008060008060008060c0878903121562000679578182fd5b86516001600160401b038082111562000690578384fd5b818901915089601f830112620006a4578384fd5b815181811115620006b957620006b96200080e565b6020620006cf601f8301601f1916820162000776565b8281528c82848701011115620006e3578687fd5b865b8381101562000702578581018301518282018401528201620006e5565b838111156200071357878385840101525b50908b015160408c0151919a509850965062000734905060608a01620005a7565b94506200074460808a01620005a7565b935060a08901519150808211156200075a578283fd5b506200076989828a01620005c4565b9150509295509295509295565b604051601f8201601f191681016001600160401b0381118282101715620007a157620007a16200080e565b604052919050565b600181811c90821680620007be57607f821691505b60208210811415620007e057634e487b7160e01b600052602260045260246000fd5b50919050565b60006000198214156200080757634e487b7160e01b81526011600452602481fd5b5060010190565b634e487b7160e01b600052604160045260246000fd5b60805160601c6128f66200084a60003960008181611584015261209901526128f66000f3fe6080604052600436106101c65760003560e01c80638980f11f116100f7578063d547741f11610095578063f2fde38b11610064578063f2fde38b1461056a578063f35c4d451461058a578063f8742254146105aa578063f912c64b146105de57600080fd5b8063d547741f146104ea578063d8baf7cf1461050a578063eab90da61461052a578063ef99893a1461054a57600080fd5b8063a217fddf116100d1578063a217fddf14610439578063a2e641371461044e578063c6bbd5a714610482578063ce62f6c4146104ba57600080fd5b80638980f11f146103b55780638bb9c5bf146103d557806391d14854146103f557600080fd5b80634ebb7916116101645780636b453c1f1161013e5780636b453c1f1461033557806373ec1566146103555780637ae267731461037557806384a33e631461039557600080fd5b80634ebb7916146102df578063654b6487146102ff57806369cff80d1461031f57600080fd5b8063248a9ca3116101a0578063248a9ca3146102575780632bc857a0146102875780632f2ff15d1461029d57806336568abe146102bf57600080fd5b806301ffc9a7146101d257806305e3f4dc1461020757806306fdde031461023557600080fd5b366101cd57005b600080fd5b3480156101de57600080fd5b506101f26101ed366004612424565b6105fe565b60405190151581526020015b60405180910390f35b34801561021357600080fd5b506102276102223660046122db565b610667565b6040519081526020016101fe565b34801561024157600080fd5b5061024a6106a8565b6040516101fe9190612718565b34801561026357600080fd5b506102276102723660046123e8565b60009081526020819052604090206001015490565b34801561029357600080fd5b5061022760035481565b3480156102a957600080fd5b506102bd6102b8366004612400565b610736565b005b3480156102cb57600080fd5b506102bd6102da366004612400565b610760565b3480156102eb57600080fd5b506102bd6102fa3660046123e8565b6107f1565b34801561030b57600080fd5b506102bd61031a366004612490565b610939565b34801561032b57600080fd5b5061022760015481565b34801561034157600080fd5b506102bd61035036600461226b565b610b36565b34801561036157600080fd5b506102bd610370366004612358565b610b63565b34801561038157600080fd5b506102bd6103903660046122a3565b610c4a565b3480156103a157600080fd5b506102bd6103b03660046123e8565b610cee565b3480156103c157600080fd5b506102bd6103d036600461232d565b610e01565b3480156103e157600080fd5b506102bd6103f03660046123e8565b610f3c565b34801561040157600080fd5b506101f2610410366004612400565b6000918252602082815260408084206001600160a01b0393909316845291905290205460ff1690565b34801561044557600080fd5b50610227600081565b34801561045a57600080fd5b5061046e6104693660046123e8565b610f47565b60405162ffffff90911681526020016101fe565b34801561048e57600080fd5b506004546104a2906001600160a01b031681565b6040516001600160a01b0390911681526020016101fe565b3480156104c657600080fd5b506101f26104d536600461253b565b60056020526000908152604090205460ff1681565b3480156104f657600080fd5b506102bd610505366004612400565b610f80565b34801561051657600080fd5b506102bd61052536600461226b565b610fa5565b34801561053657600080fd5b506102bd6105453660046125b7565b610fcf565b34801561055657600080fd5b50610227610565366004612576565b611194565b34801561057657600080fd5b506102bd61058536600461226b565b6111a9565b34801561059657600080fd5b506102bd6105a53660046123e8565b6111c0565b3480156105b657600080fd5b506102277f339759585899103d2ace64958e37e18ccb0504652c81d4a1b8aa80fe2126ab9581565b3480156105ea57600080fd5b506102bd6105f936600461226b565b6112a2565b60006001600160e01b031982167f7965db0b00000000000000000000000000000000000000000000000000000000148061066157507f01ffc9a7000000000000000000000000000000000000000000000000000000006001600160e01b03198316145b92915050565b604080516080810182526000606082018190529181018590526001600160a01b0384811682528316602082015261069e868261136c565b9695505050505050565b600280546106b59061280f565b80601f01602080910402602001604051908101604052809291908181526020018280546106e19061280f565b801561072e5780601f106107035761010080835404028352916020019161072e565b820191906000526020600020905b81548152906001019060200180831161071157829003601f168201915b505050505081565b600082815260208190526040902060010154610751816113c5565b61075b83836113cf565b505050565b6001600160a01b03811633146107e35760405162461bcd60e51b815260206004820152602f60248201527f416363657373436f6e74726f6c3a2063616e206f6e6c792072656e6f756e636560448201527f20726f6c657320666f722073656c66000000000000000000000000000000000060648201526084015b60405180910390fd5b6107ed828261146d565b5050565b3360008181527fa54247010af6b3693b80aceddfad12e077c5de3571e6243fada502635f0d7d39602052604090205460ff166108805760405162461bcd60e51b815260206004820152602860248201527f4d61696e7461696e61626c653a2043616c6c6572206973206e6f742061206d6160448201526734b73a30b4b732b960c11b60648201526084016107da565b600082116108d05760405162461bcd60e51b815260206004820152601e60248201527f59616b416461707465723a204e6f7468696e6720746f207265636f766572000060448201526064016107da565b604051339083156108fc029084906000818181858888f193505050501580156108fd573d6000803e3d6000fd5b506040518281526000907f8c1256b8896378cd5044f80c202f9772b9d77dc85c8a6eb51967210b09bfaa28906020015b60405180910390a25050565b6000841315610a3b57336001600160a01b0316630dfe16816040518163ffffffff1660e01b815260040160206040518083038186803b15801561097b57600080fd5b505afa15801561098f573d6000803e3d6000fd5b505050506040513d601f19601f820116820180604052508101906109b39190612287565b60405163a9059cbb60e01b8152336004820152602481018690526001600160a01b03919091169063a9059cbb90604401602060405180830381600087803b1580156109fd57600080fd5b505af1158015610a11573d6000803e3d6000fd5b505050506040513d601f19601f82011682018060405250810190610a3591906123c8565b50610b30565b336001600160a01b031663d21220a76040518163ffffffff1660e01b815260040160206040518083038186803b158015610a7457600080fd5b505afa158015610a88573d6000803e3d6000fd5b505050506040513d601f19601f82011682018060405250810190610aac9190612287565b60405163a9059cbb60e01b8152336004820152602481018590526001600160a01b03919091169063a9059cbb90604401602060405180830381600087803b158015610af657600080fd5b505af1158015610b0a573d6000803e3d6000fd5b505050506040513d601f19601f82011682018060405250810190610b2e91906123c8565b505b50505050565b610b607f339759585899103d2ace64958e37e18ccb0504652c81d4a1b8aa80fe2126ab9582610736565b50565b3360008181527fa54247010af6b3693b80aceddfad12e077c5de3571e6243fada502635f0d7d39602052604090205460ff16610bf25760405162461bcd60e51b815260206004820152602860248201527f4d61696e7461696e61626c653a2043616c6c6572206973206e6f742061206d6160448201526734b73a30b4b732b960c11b60648201526084016107da565b60005b82811015610b3057610c3a848483818110610c2057634e487b7160e01b600052603260045260246000fd5b9050602002016020810190610c35919061253b565b6114ec565b610c4381612844565b9050610bf5565b3360008181527fa54247010af6b3693b80aceddfad12e077c5de3571e6243fada502635f0d7d39602052604090205460ff16610cd95760405162461bcd60e51b815260206004820152602860248201527f4d61696e7461696e61626c653a2043616c6c6572206973206e6f742061206d6160448201526734b73a30b4b732b960c11b60648201526084016107da565b61075b6001600160a01b0384168360006116cd565b3360008181527fa54247010af6b3693b80aceddfad12e077c5de3571e6243fada502635f0d7d39602052604090205460ff16610d7d5760405162461bcd60e51b815260206004820152602860248201527f4d61696e7461696e61626c653a2043616c6c6572206973206e6f742061206d6160448201526734b73a30b4b732b960c11b60648201526084016107da565b81610dca5760405162461bcd60e51b815260206004820152601460248201527f496e76616c6964206761732d657374696d61746500000000000000000000000060448201526064016107da565b600182905560405182815230907ff43f23b7a28e6f8ce6843a21bd7b48bce778aa913b8c8cf459edf7d770e8d38a9060200161092d565b3360008181527fa54247010af6b3693b80aceddfad12e077c5de3571e6243fada502635f0d7d39602052604090205460ff16610e905760405162461bcd60e51b815260206004820152602860248201527f4d61696e7461696e61626c653a2043616c6c6572206973206e6f742061206d6160448201526734b73a30b4b732b960c11b60648201526084016107da565b60008211610ee05760405162461bcd60e51b815260206004820152601e60248201527f59616b416461707465723a204e6f7468696e6720746f207265636f766572000060448201526064016107da565b610ef46001600160a01b0384163384611872565b826001600160a01b03167f8c1256b8896378cd5044f80c202f9772b9d77dc85c8a6eb51967210b09bfaa2883604051610f2f91815260200190565b60405180910390a2505050565b336107ed8282610760565b60068181548110610f5757600080fd5b90600052602060002090600a9182820401919006600302915054906101000a900462ffffff1681565b600082815260208190526040902060010154610f9b816113c5565b61075b838361146d565b610b607f339759585899103d2ace64958e37e18ccb0504652c81d4a1b8aa80fe2126ab9582610f80565b6040516370a0823160e01b81526001600160a01b038281166004830152600091908416906370a082319060240160206040518083038186803b15801561101457600080fd5b505afa158015611028573d6000803e3d6000fd5b505050506040513d601f19601f8201168201806040525081019061104c919061255e565b905061105b86868686866118a2565b6040516370a0823160e01b81526001600160a01b03838116600483015260009183918616906370a082319060240160206040518083038186803b1580156110a157600080fd5b505afa1580156110b5573d6000803e3d6000fd5b505050506040513d601f19601f820116820180604052508101906110d9919061255e565b6110e391906127b5565b9050858110156111355760405162461bcd60e51b815260206004820152601760248201527f496e73756666696369656e7420616d6f756e742d6f757400000000000000000060448201526064016107da565b836001600160a01b0316856001600160a01b03167fe2bdbc6b7225eb0a972ac943c485a6cc05f7c6811838bce8903f23200fb744fa8989604051611183929190918252602082015260400190565b60405180910390a350505050505050565b60006111a184848461196c565b949350505050565b336111b5600083610736565b6107ed600082610760565b3360008181527fa54247010af6b3693b80aceddfad12e077c5de3571e6243fada502635f0d7d39602052604090205460ff1661124f5760405162461bcd60e51b815260206004820152602860248201527f4d61696e7461696e61626c653a2043616c6c6572206973206e6f742061206d6160448201526734b73a30b4b732b960c11b60648201526084016107da565b8161129c5760405162461bcd60e51b815260206004820152601b60248201527f71756572794761734c696d69742063616e2774206265207a65726f000000000060448201526064016107da565b50600355565b3360008181527fa54247010af6b3693b80aceddfad12e077c5de3571e6243fada502635f0d7d39602052604090205460ff166113315760405162461bcd60e51b815260206004820152602860248201527f4d61696e7461696e61626c653a2043616c6c6572206973206e6f742061206d6160448201526734b73a30b4b732b960c11b60648201526084016107da565b50600480547fffffffffffffffffffffffff0000000000000000000000000000000000000000166001600160a01b0392909216919091179055565b6000806000611383846000015185602001516119ca565b9150915060008061139a8785886040015186611a1d565b91509150836113b1576113ac8261285f565b6113ba565b6113ba8161285f565b979650505050505050565b610b608133611ae6565b6000828152602081815260408083206001600160a01b038516845290915290205460ff166107ed576000828152602081815260408083206001600160a01b03851684529091529020805460ff191660011790556114293390565b6001600160a01b0316816001600160a01b0316837f2f8788117e7eff1d82e926ec794901d17c78024a50270940304540a733656f0d60405160405180910390a45050565b6000828152602081815260408083206001600160a01b038516845290915290205460ff16156107ed576000828152602081815260408083206001600160a01b0385168085529252808320805460ff1916905551339285917ff6391f5c32d9c69d2a47ea670b442974b53935d1edc7fd64eb21e047a839171b9190a45050565b62ffffff811660009081526005602052604090205460ff16156115515760405162461bcd60e51b815260206004820152601360248201527f46656520616c726561647920656e61626c65640000000000000000000000000060448201526064016107da565b6040517f22afcccb00000000000000000000000000000000000000000000000000000000815262ffffff821660048201527f00000000000000000000000000000000000000000000000000000000000000006001600160a01b0316906322afcccb9060240160206040518083038186803b1580156115ce57600080fd5b505afa1580156115e2573d6000803e3d6000fd5b505050506040513d601f19601f82011682018060405250810190611606919061244c565b60020b6116555760405162461bcd60e51b815260206004820152601b60248201527f466163746f727920646f65736e277420737570706f727420666565000000000060448201526064016107da565b610b608162ffffff9081166000818152600560205260408120805460ff19166001908117909155600680549182018155909152600a8082047ff652222313e28459528d920b65115c16c04f3efc82aaedc97be59f3f377c0d3f018054600392909306919091026101000a928302929093021916179055565b80158061176f57506040517fdd62ed3e0000000000000000000000000000000000000000000000000000000081523060048201526001600160a01b03838116602483015284169063dd62ed3e9060440160206040518083038186803b15801561173557600080fd5b505afa158015611749573d6000803e3d6000fd5b505050506040513d601f19601f8201168201806040525081019061176d919061255e565b155b6117e15760405162461bcd60e51b815260206004820152603660248201527f5361666545524332303a20617070726f76652066726f6d206e6f6e2d7a65726f60448201527f20746f206e6f6e2d7a65726f20616c6c6f77616e63650000000000000000000060648201526084016107da565b6040516001600160a01b03831660248201526044810182905261075b9084907f095ea7b300000000000000000000000000000000000000000000000000000000906064015b60408051601f198184030181529190526020810180517bffffffffffffffffffffffffffffffffffffffffffffffffffffffff166001600160e01b031990931692909217909152611b64565b6040516001600160a01b03831660248201526044810182905261075b90849063a9059cbb60e01b90606401611826565b6040805160808082018352600080835260208084018290528385018290526060938401829052845192830185526001600160a01b0388811684528716838201528285018a905292820181905283518181529283019093529190611906908390611ca0565b9050858110156119585760405162461bcd60e51b815260206004820152601660248201527f496e73756666696369656e7420616d6f756e744f75740000000000000000000060448201526064016107da565b611963848285611d88565b50505050505050565b6040805160808082018352600080835260208084018290528385018290526060938401829052845192830185526001600160a01b0380881684528616908301529281018690529081018290526119c181611dac565b95945050505050565b6001600160a01b0380821690831610600081611a04576119ff600173fffd8963efd1fc6a506488495d951d5263988d2661278d565b611a14565b611a146401000276a3600161272b565b90509250929050565b6040516001600160a01b038086166024830152841515604483015260648201849052821660848201526000908190819060a40160408051601f198184030181529190526020810180517bffffffffffffffffffffffffffffffffffffffffffffffffffffffff167f90405d36000000000000000000000000000000000000000000000000000000001790529050600080611ab683611de5565b915091508115611ada5780806020019051810190611ad4919061246d565b90955093505b50505094509492505050565b6000828152602081815260408083206001600160a01b038516845290915290205460ff166107ed57611b22816001600160a01b03166014611e57565b611b2d836020611e57565b604051602001611b3e92919061265d565b60408051601f198184030181529082905262461bcd60e51b82526107da91600401612718565b600080836001600160a01b031683604051611b7f9190612641565b6000604051808303816000865af19150503d8060008114611bbc576040519150601f19603f3d011682016040523d82523d6000602084013e611bc1565b606091505b509150915081611c135760405162461bcd60e51b815260206004820181905260248201527f5361666545524332303a206c6f772d6c6576656c2063616c6c206661696c656460448201526064016107da565b805115610b305780806020019051810190611c2e91906123c8565b610b305760405162461bcd60e51b815260206004820152602a60248201527f5361666545524332303a204552433230206f7065726174696f6e20646964206e60448201527f6f7420737563636565640000000000000000000000000000000000000000000060648201526084016107da565b600080611cb584600001518560200151612085565b9050600080611ccc866000015187602001516119ca565b91509150600080846001600160a01b031663128acb0830868b60400151878c6040518663ffffffff1660e01b8152600401611d0b9594939291906126de565b6040805180830381600087803b158015611d2457600080fd5b505af1158015611d38573d6000803e3d6000fd5b505050506040513d601f19601f82011682018060405250810190611d5c919061246d565b9150915083611d7357611d6e8261285f565b611d7c565b611d7c8161285f565b98975050505050505050565b306001600160a01b0382161461075b5761075b6001600160a01b0384168284611872565b600080611dc183600001518460200151612085565b90506001600160a01b03811615611ddf57611ddc818461136c565b91505b50919050565b6004546003546040516000926060926001600160a01b0390911691611e0b908690612641565b6000604051808303818686fa925050503d8060008114611e47576040519150601f19603f3d011682016040523d82523d6000602084013e611e4c565b606091505b509094909350915050565b60606000611e6683600261276e565b611e71906002612756565b67ffffffffffffffff811115611e9757634e487b7160e01b600052604160045260246000fd5b6040519080825280601f01601f191660200182016040528015611ec1576020820181803683370190505b5090507f300000000000000000000000000000000000000000000000000000000000000081600081518110611f0657634e487b7160e01b600052603260045260246000fd5b60200101906001600160f81b031916908160001a9053507f780000000000000000000000000000000000000000000000000000000000000081600181518110611f5f57634e487b7160e01b600052603260045260246000fd5b60200101906001600160f81b031916908160001a9053506000611f8384600261276e565b611f8e906001612756565b90505b600181111561202f577f303132333435363738396162636465660000000000000000000000000000000085600f1660108110611fdd57634e487b7160e01b600052603260045260246000fd5b1a60f81b82828151811061200157634e487b7160e01b600052603260045260246000fd5b60200101906001600160f81b031916908160001a90535060049490941c93612028816127f8565b9050611f91565b50831561207e5760405162461bcd60e51b815260206004820181905260248201527f537472696e67733a20686578206c656e67746820696e73756666696369656e7460448201526064016107da565b9392505050565b60008060005b6006548110156122635760007f00000000000000000000000000000000000000000000000000000000000000006001600160a01b0316631698ee828787600686815481106120e957634e487b7160e01b600052603260045260246000fd5b60009182526020909120600a8083049091015460405160e087901b6001600160e01b03191681526001600160a01b03958616600482015293909416602484015290066003026101000a90910462ffffff16604482015260640160206040518083038186803b15801561215a57600080fd5b505afa15801561216e573d6000803e3d6000fd5b505050506040513d601f19601f820116820180604052508101906121929190612287565b90506001600160a01b0381166121a85750612253565b6000816001600160a01b0316631a6865026040518163ffffffff1660e01b815260040160206040518083038186803b1580156121e357600080fd5b505afa1580156121f7573d6000803e3d6000fd5b505050506040513d601f19601f8201168201806040525081019061221b919061250b565b9050836fffffffffffffffffffffffffffffffff16816fffffffffffffffffffffffffffffffff161115612250578093508194505b50505b61225c81612844565b905061208b565b505092915050565b60006020828403121561227c578081fd5b813561207e816128ab565b600060208284031215612298578081fd5b815161207e816128ab565b600080604083850312156122b5578081fd5b82356122c0816128ab565b915060208301356122d0816128ab565b809150509250929050565b600080600080608085870312156122f0578182fd5b84356122fb816128ab565b9350602085013592506040850135612312816128ab565b91506060850135612322816128ab565b939692955090935050565b6000806040838503121561233f578182fd5b823561234a816128ab565b946020939093013593505050565b6000806020838503121561236a578182fd5b823567ffffffffffffffff80821115612381578384fd5b818501915085601f830112612394578384fd5b8135818111156123a2578485fd5b8660208260051b85010111156123b6578485fd5b60209290920196919550909350505050565b6000602082840312156123d9578081fd5b8151801515811461207e578182fd5b6000602082840312156123f9578081fd5b5035919050565b60008060408385031215612412578182fd5b8235915060208301356122d0816128ab565b600060208284031215612435578081fd5b81356001600160e01b03198116811461207e578182fd5b60006020828403121561245d578081fd5b81518060020b811461207e578182fd5b6000806040838503121561247f578182fd5b505080516020909101519092909150565b600080600080606085870312156124a5578182fd5b8435935060208501359250604085013567ffffffffffffffff808211156124ca578384fd5b818701915087601f8301126124dd578384fd5b8135818111156124eb578485fd5b8860208285010111156124fc578485fd5b95989497505060200194505050565b60006020828403121561251c578081fd5b81516fffffffffffffffffffffffffffffffff8116811461207e578182fd5b60006020828403121561254c578081fd5b813562ffffff8116811461207e578182fd5b60006020828403121561256f578081fd5b5051919050565b60008060006060848603121561258a578081fd5b83359250602084013561259c816128ab565b915060408401356125ac816128ab565b809150509250925092565b600080600080600060a086880312156125ce578283fd5b853594506020860135935060408601356125e7816128ab565b925060608601356125f7816128ab565b91506080860135612607816128ab565b809150509295509295909350565b6000815180845261262d8160208601602086016127cc565b601f01601f19169290920160200192915050565b600082516126538184602087016127cc565b9190910192915050565b7f416363657373436f6e74726f6c3a206163636f756e74200000000000000000008152600083516126958160178501602088016127cc565b7f206973206d697373696e6720726f6c652000000000000000000000000000000060179184019182015283516126d28160288401602088016127cc565b01602801949350505050565b60006001600160a01b038088168352861515602084015285604084015280851660608401525060a060808301526113ba60a0830184612615565b60208152600061207e6020830184612615565b60006001600160a01b0380831681851680830382111561274d5761274d612895565b01949350505050565b6000821982111561276957612769612895565b500190565b600081600019048311821515161561278857612788612895565b500290565b60006001600160a01b03838116908316818110156127ad576127ad612895565b039392505050565b6000828210156127c7576127c7612895565b500390565b60005b838110156127e75781810151838201526020016127cf565b83811115610b305750506000910152565b60008161280757612807612895565b506000190190565b600181811c9082168061282357607f821691505b60208210811415611ddf57634e487b7160e01b600052602260045260246000fd5b600060001982141561285857612858612895565b5060010190565b60007f800000000000000000000000000000000000000000000000000000000000000082141561289157612891612895565b0390565b634e487b7160e01b600052601160045260246000fd5b6001600160a01b0381168114610b6057600080fdfea2646970667358221220d6cadd72bbbdd73e562692b3320c4ef82cac25cdc4e463f5d60f7cb5ea6641a764736f6c63430008040033a54247010af6b3693b80aceddfad12e077c5de3571e6243fada502635f0d7d394d61696e7461696e61626c653a2043616c6c6572206973206e6f742061206d61",
  "devdoc": {
    "kind": "dev",
    "methods": {
      "getRoleAdmin(bytes32)": {
        "details": "Returns the admin role that controls `role`. See {grantRole} and {revokeRole}. To change a role's admin, use {_setRoleAdmin}."
      },
      "grantRole(bytes32,address)": {
        "details": "Grants `role` to `account`. If `account` had not been already granted `role`, emits a {RoleGranted} event. Requirements: - the caller must have ``role``'s admin role. May emit a {RoleGranted} event."
      },
      "hasRole(bytes32,address)": {
        "details": "Returns `true` if `account` has been granted `role`."
      },
      "renounceRole(bytes32,address)": {
        "details": "Revokes `role` from the calling account. Roles are often managed via {grantRole} and {revokeRole}: this function's purpose is to provide a mechanism for accounts to lose their privileges if they are compromised (such as when a trusted device is misplaced). If the calling account had been revoked `role`, emits a {RoleRevoked} event. Requirements: - the caller must be `account`. May emit a {RoleRevoked} event."
      },
      "revokeRole(bytes32,address)": {
        "details": "Revokes `role` from `account`. If `account` had been granted `role`, emits a {RoleRevoked} event. Requirements: - the caller must have ``role``'s admin role. May emit a {RoleRevoked} event."
      },
      "supportsInterface(bytes4)": {
        "details": "See {IERC165-supportsInterface}."
      }
    },
    "version": 1
  },
  "userdoc": {
    "kind": "user",
    "methods": {},
    "version": 1
  },
  "storageLayout": {
    "storage": [
      {
        "astId": 24,
        "contract": "src/contracts/adapters/RamsesV2Adapter.sol:RamsesV2Adapter",
        "label": "_roles",
        "offset": 0,
        "slot": "0",
        "type": "t_mapping(t_bytes32,t_struct(RoleData)19_storage)"
      },
      {
        "astId": 1451,
        "contract": "src/contracts/adapters/RamsesV2Adapter.sol:RamsesV2Adapter",
        "label": "swapGasEstimate",
        "offset": 0,
        "slot": "1",
        "type": "t_uint256"
      },
      {
        "astId": 1453,
        "contract": "src/contracts/adapters/RamsesV2Adapter.sol:RamsesV2Adapter",
        "label": "name",
        "offset": 0,
        "slot": "2",
        "type": "t_string_storage"
      },
      {
        "astId": 14236,
        "contract": "src/contracts/adapters/RamsesV2Adapter.sol:RamsesV2Adapter",
        "label": "quoterGasLimit",
        "offset": 0,
        "slot": "3",
        "type": "t_uint256"
      },
      {
        "astId": 14238,
        "contract": "src/contracts/adapters/RamsesV2Adapter.sol:RamsesV2Adapter",
        "label": "quoter",
        "offset": 0,
        "slot": "4",
        "type": "t_address"
      },
      {
        "astId": 12511,
        "contract": "src/contracts/adapters/RamsesV2Adapter.sol:RamsesV2Adapter",
        "label": "isFeeAmountEnabled",
        "offset": 0,
        "slot": "5",
        "type": "t_mapping(t_uint24,t_bool)"
      },
      {
        "astId": 12514,
        "contract": "src/contracts/adapters/RamsesV2Adapter.sol:RamsesV2Adapter",
        "label": "feeAmounts",
        "offset": 0,
        "slot": "6",
        "type": "t_array(t_uint24)dyn_storage"
      }
    ],
    "types": {
      "t_address": {
        "encoding": "inplace",
        "label": "address",
        "numberOfBytes": "20"
      },
      "t_array(t_uint24)dyn_storage": {
        "base": "t_uint24",
        "encoding": "dynamic_array",
        "label": "uint24[]",
        "numberOfBytes": "32"
      },
      "t_bool": {
        "encoding": "inplace",
        "label": "bool",
        "numberOfBytes": "1"
      },
      "t_bytes32": {
        "encoding": "inplace",
        "label": "bytes32",
        "numberOfBytes": "32"
      },
      "t_mapping(t_address,t_bool)": {
        "encoding": "mapping",
        "key": "t_address",
        "label": "mapping(address => bool)",
        "numberOfBytes": "32",
        "value": "t_bool"
      },
      "t_mapping(t_bytes32,t_struct(RoleData)19_storage)": {
        "encoding": "mapping",
        "key": "t_bytes32",
        "label": "mapping(bytes32 => struct AccessControl.RoleData)",
        "numberOfBytes": "32",
        "value": "t_struct(RoleData)19_storage"
      },
      "t_mapping(t_uint24,t_bool)": {
        "encoding": "mapping",
        "key": "t_uint24",
        "label": "mapping(uint24 => bool)",
        "numberOfBytes": "32",
        "value": "t_bool"
      },
      "t_string_storage": {
        "encoding": "bytes",
        "label": "string",
        "numberOfBytes": "32"
      },
      "t_struct(RoleData)19_storage": {
        "encoding": "inplace",
        "label": "struct AccessControl.RoleData",
        "members": [
          {
            "astId": 16,
            "contract": "src/contracts/adapters/RamsesV2Adapter.sol:RamsesV2Adapter",
            "label": "members",
            "offset": 0,
            "slot": "0",
            "type": "t_mapping(t_address,t_bool)"
          },
          {
            "astId": 18,
            "contract": "src/contracts/adapters/RamsesV2Adapter.sol:RamsesV2Adapter",
            "label": "adminRole",
            "offset": 0,
            "slot": "1",
            "type": "t_bytes32"
          }
        ],
        "numberOfBytes": "64"
      },
      "t_uint24": {
        "encoding": "inplace",
        "label": "uint24",
        "numberOfBytes": "3"
      },
      "t_uint256": {
        "encoding": "inplace",
        "label": "uint256",
        "numberOfBytes": "32"
      }
    }
  }
}