{
  "address": "0x3b2378a29F9CbDb1f20A72611C0f000aF05630cb",
  "abi": [
    {
      "inputs": [
        {
          "internalType": "string",
          "name": "_name",
          "type": "string"
        },
        {
          "internalType": "address",
          "name": "_factory",
          "type": "address"
        },
        {
          "internalType": "uint256",
          "name": "_fee",
          "type": "uint256"
        },
        {
          "internalType": "uint256",
          "name": "_swapGasEstimate",
          "type": "uint256"
        }
      ],
      "stateMutability": "nonpayable",
      "type": "constructor"
    },
    {
      "anonymous": false,
      "inputs": [
        {
          "indexed": true,
          "internalType": "address",
          "name": "_asset",
          "type": "address"
        },
        {
          "indexed": false,
          "internalType": "uint256",
          "name": "amount",
          "type": "uint256"
        }
      ],
      "name": "Recovered",
      "type": "event"
    },
    {
      "anonymous": false,
      "inputs": [
        {
          "indexed": true,
          "internalType": "bytes32",
          "name": "role",
          "type": "bytes32"
        },
        {
          "indexed": true,
          "internalType": "bytes32",
          "name": "previousAdminRole",
          "type": "bytes32"
        },
        {
          "indexed": true,
          "internalType": "bytes32",
          "name": "newAdminRole",
          "type": "bytes32"
        }
      ],
      "name": "RoleAdminChanged",
      "type": "event"
    },
    {
      "anonymous": false,
      "inputs": [
        {
          "indexed": true,
          "internalType": "bytes32",
          "name": "role",
          "type": "bytes32"
        },
        {
          "indexed": true,
          "internalType": "address",
          "name": "account",
          "type": "address"
        },
        {
          "indexed": true,
          "internalType": "address",
          "name": "sender",
          "type": "address"
        }
      ],
      "name": "RoleGranted",
      "type": "event"
    },
    {
      "anonymous": false,
      "inputs": [
        {
          "indexed": true,
          "internalType": "bytes32",
          "name": "role",
          "type": "bytes32"
        },
        {
          "indexed": true,
          "internalType": "address",
          "name": "account",
          "type": "address"
        },
        {
          "indexed": true,
          "internalType": "address",
          "name": "sender",
          "type": "address"
        }
      ],
      "name": "RoleRevoked",
      "type": "event"
    },
    {
      "anonymous": false,
      "inputs": [
        {
          "indexed": true,
          "internalType": "address",
          "name": "_adapter",
          "type": "address"
        },
        {
          "indexed": false,
          "internalType": "uint256",
          "name": "_newEstimate",
          "type": "uint256"
        }
      ],
      "name": "UpdatedGasEstimate",
      "type": "event"
    },
    {
      "anonymous": false,
      "inputs": [
        {
          "indexed": true,
          "internalType": "address",
          "name": "_tokenFrom",
          "type": "address"
        },
        {
          "indexed": true,
          "internalType": "address",
          "name": "_tokenTo",
          "type": "address"
        },
        {
          "indexed": false,
          "internalType": "uint256",
          "name": "_amountIn",
          "type": "uint256"
        },
        {
          "indexed": false,
          "internalType": "uint256",
          "name": "_amountOut",
          "type": "uint256"
        }
      ],
      "name": "YakAdapterSwap",
      "type": "event"
    },
    {
      "inputs": [],
      "name": "DEFAULT_ADMIN_ROLE",
      "outputs": [
        {
          "internalType": "bytes32",
          "name": "",
          "type": "bytes32"
        }
      ],
      "stateMutability": "view",
      "type": "function"
    },
    {
      "inputs": [],
      "name": "MAINTAINER_ROLE",
      "outputs": [
        {
          "internalType": "bytes32",
          "name": "",
          "type": "bytes32"
        }
      ],
      "stateMutability": "view",
      "type": "function"
    },
    {
      "inputs": [
        {
          "internalType": "address",
          "name": "addedMaintainer",
          "type": "address"
        }
      ],
      "name": "addMaintainer",
      "outputs": [],
      "stateMutability": "nonpayable",
      "type": "function"
    },
    {
      "inputs": [],
      "name": "factory",
      "outputs": [
        {
          "internalType": "address",
          "name": "",
          "type": "address"
        }
      ],
      "stateMutability": "view",
      "type": "function"
    },
    {
      "inputs": [],
      "name": "feeCompliment",
      "outputs": [
        {
          "internalType": "uint256",
          "name": "",
          "type": "uint256"
        }
      ],
      "stateMutability": "view",
      "type": "function"
    },
    {
      "inputs": [
        {
          "internalType": "bytes32",
          "name": "role",
          "type": "bytes32"
        }
      ],
      "name": "getRoleAdmin",
      "outputs": [
        {
          "internalType": "bytes32",
          "name": "",
          "type": "bytes32"
        }
      ],
      "stateMutability": "view",
      "type": "function"
    },
    {
      "inputs": [
        {
          "internalType": "bytes32",
          "name": "role",
          "type": "bytes32"
        },
        {
          "internalType": "address",
          "name": "account",
          "type": "address"
        }
      ],
      "name": "grantRole",
      "outputs": [],
      "stateMutability": "nonpayable",
      "type": "function"
    },
    {
      "inputs": [
        {
          "internalType": "bytes32",
          "name": "role",
          "type": "bytes32"
        },
        {
          "internalType": "address",
          "name": "account",
          "type": "address"
        }
      ],
      "name": "hasRole",
      "outputs": [
        {
          "internalType": "bool",
          "name": "",
          "type": "bool"
        }
      ],
      "stateMutability": "view",
      "type": "function"
    },
    {
      "inputs": [],
      "name": "name",
      "outputs": [
        {
          "internalType": "string",
          "name": "",
          "type": "string"
        }
      ],
      "stateMutability": "view",
      "type": "function"
    },
    {
      "inputs": [
        {
          "internalType": "uint256",
          "name": "_amountIn",
          "type": "uint256"
        },
        {
          "internalType": "address",
          "name": "_tokenIn",
          "type": "address"
        },
        {
          "internalType": "address",
          "name": "_tokenOut",
          "type": "address"
        }
      ],
      "name": "query",
      "outputs": [
        {
          "internalType": "uint256",
          "name": "",
          "type": "uint256"
        }
      ],
      "stateMutability": "view",
      "type": "function"
    },
    {
      "inputs": [
        {
          "internalType": "uint256",
          "name": "_amount",
          "type": "uint256"
        }
      ],
      "name": "recoverAVAX",
      "outputs": [],
      "stateMutability": "nonpayable",
      "type": "function"
    },
    {
      "inputs": [
        {
          "internalType": "address",
          "name": "_tokenAddress",
          "type": "address"
        },
        {
          "internalType": "uint256",
          "name": "_tokenAmount",
          "type": "uint256"
        }
      ],
      "name": "recoverERC20",
      "outputs": [],
      "stateMutability": "nonpayable",
      "type": "function"
    },
    {
      "inputs": [
        {
          "internalType": "address",
          "name": "removedMaintainer",
          "type": "address"
        }
      ],
      "name": "removeMaintainer",
      "outputs": [],
      "stateMutability": "nonpayable",
      "type": "function"
    },
    {
      "inputs": [
        {
          "internalType": "bytes32",
          "name": "role",
          "type": "bytes32"
        },
        {
          "internalType": "address",
          "name": "account",
          "type": "address"
        }
      ],
      "name": "renounceRole",
      "outputs": [],
      "stateMutability": "nonpayable",
      "type": "function"
    },
    {
      "inputs": [
        {
          "internalType": "bytes32",
          "name": "role",
          "type": "bytes32"
        }
      ],
      "name": "renounceRole",
      "outputs": [],
      "stateMutability": "nonpayable",
      "type": "function"
    },
    {
      "inputs": [
        {
          "internalType": "address",
          "name": "_token",
          "type": "address"
        },
        {
          "internalType": "address",
          "name": "_spender",
          "type": "address"
        }
      ],
      "name": "revokeAllowance",
      "outputs": [],
      "stateMutability": "nonpayable",
      "type": "function"
    },
    {
      "inputs": [
        {
          "internalType": "bytes32",
          "name": "role",
          "type": "bytes32"
        },
        {
          "internalType": "address",
          "name": "account",
          "type": "address"
        }
      ],
      "name": "revokeRole",
      "outputs": [],
      "stateMutability": "nonpayable",
      "type": "function"
    },
    {
      "inputs": [
        {
          "internalType": "uint256",
          "name": "_estimate",
          "type": "uint256"
        }
      ],
      "name": "setSwapGasEstimate",
      "outputs": [],
      "stateMutability": "nonpayable",
      "type": "function"
    },
    {
      "inputs": [
        {
          "internalType": "bytes4",
          "name": "interfaceId",
          "type": "bytes4"
        }
      ],
      "name": "supportsInterface",
      "outputs": [
        {
          "internalType": "bool",
          "name": "",
          "type": "bool"
        }
      ],
      "stateMutability": "view",
      "type": "function"
    },
    {
      "inputs": [
        {
          "internalType": "uint256",
          "name": "_amountIn",
          "type": "uint256"
        },
        {
          "internalType": "uint256",
          "name": "_amountOut",
          "type": "uint256"
        },
        {
          "internalType": "address",
          "name": "_fromToken",
          "type": "address"
        },
        {
          "internalType": "address",
          "name": "_toToken",
          "type": "address"
        },
        {
          "internalType": "address",
          "name": "_to",
          "type": "address"
        }
      ],
      "name": "swap",
      "outputs": [],
      "stateMutability": "nonpayable",
      "type": "function"
    },
    {
      "inputs": [],
      "name": "swapGasEstimate",
      "outputs": [
        {
          "internalType": "uint256",
          "name": "",
          "type": "uint256"
        }
      ],
      "stateMutability": "view",
      "type": "function"
    },
    {
      "inputs": [
        {
          "internalType": "address",
          "name": "newOwner",
          "type": "address"
        }
      ],
      "name": "transferOwnership",
      "outputs": [],
      "stateMutability": "nonpayable",
      "type": "function"
    },
    {
      "stateMutability": "payable",
      "type": "receive"
    }
  ],
  "transactionHash": "0x3736e9d5b1af4add9afa6837ef4ca6d87bea5fd3cf3077e39d7c924a607c4e98",
  "args": [
    "SushiswapAdapter",
    "0xc35DADB65012eC5796536bD9864eD8773aBc74C4",
    3,
    120000
  ],
  "solcInputHash": "2f7c552725bac4cbb59f7eeca6343ccc",
  "bytecode": "0x60c06040523480156200001157600080fd5b506040516200220238038062002202833981016040819052620000349162000326565b8381600062000042620000b0565b905062000051600082620000b4565b6200006c600080516020620021e283398151915282620000b4565b506200007882620000c4565b620000838162000103565b50620000949050826103e8620004d9565b608052505060601b6001600160601b03191660a0525062000550565b3390565b620000c08282620001b0565b5050565b8051620000ee5760405162461bcd60e51b8152600401620000e59062000462565b60405180910390fd5b8051620000c090600290602084019062000263565b60006200010f620000b0565b90506200012c600080516020620021e2833981519152826200023a565b6200014b5760405162461bcd60e51b8152600401620000e5906200041a565b816200016b5760405162461bcd60e51b8152600401620000e59062000499565b600182905560405130907ff43f23b7a28e6f8ce6843a21bd7b48bce778aa913b8c8cf459edf7d770e8d38a90620001a4908590620004d0565b60405180910390a25050565b620001bc82826200023a565b620000c0576000828152602081815260408083206001600160a01b03851684529091529020805460ff19166001179055620001f6620000b0565b6001600160a01b0316816001600160a01b0316837f2f8788117e7eff1d82e926ec794901d17c78024a50270940304540a733656f0d60405160405180910390a45050565b6000918252602082815260408084206001600160a01b0393909316845291905290205460ff1690565b8280546200027190620004fd565b90600052602060002090601f016020900481019282620002955760008555620002e0565b82601f10620002b057805160ff1916838001178555620002e0565b82800160010185558215620002e0579182015b82811115620002e0578251825591602001919060010190620002c3565b50620002ee929150620002f2565b5090565b5b80821115620002ee5760008155600101620002f3565b80516001600160a01b03811681146200032157600080fd5b919050565b600080600080608085870312156200033c578384fd5b84516001600160401b038082111562000353578586fd5b818701915087601f83011262000367578586fd5b8151818111156200037c576200037c6200053a565b6040516020601f8301601f1916820181018481118382101715620003a457620003a46200053a565b60405282825284830181018b1015620003bb578889fd5b8893505b82841015620003de5784840181015182850182015292830192620003bf565b82841115620003ef57888184840101525b819850620003ff818b0162000309565b60408b01516060909b0151999c909b50975050505050505050565b60208082526028908201527f4d61696e7461696e61626c653a2043616c6c6572206973206e6f742061206d6160408201526734b73a30b4b732b960c11b606082015260800190565b60208082526014908201527f496e76616c69642061646170746572206e616d65000000000000000000000000604082015260600190565b60208082526014908201527f496e76616c6964206761732d657374696d617465000000000000000000000000604082015260600190565b90815260200190565b600082821015620004f857634e487b7160e01b81526011600452602481fd5b500390565b6002810460018216806200051257607f821691505b602082108114156200053457634e487b7160e01b600052602260045260246000fd5b50919050565b634e487b7160e01b600052604160045260246000fd5b60805160a05160601c611c546200058e600039600081816108f701528181610e140152610fb901526000818161059d01526112740152611c546000f3fe6080604052600436106101795760003560e01c80638980f11f116100cb578063d547741f1161007f578063ef99893a11610059578063ef99893a146103ed578063f2fde38b1461040d578063f87422541461042d57610180565b8063d547741f1461038d578063d8baf7cf146103ad578063eab90da6146103cd57610180565b806391d14854116100b057806391d1485414610336578063a217fddf14610356578063c45a01551461036b57610180565b80638980f11f146102f65780638bb9c5bf1461031657610180565b80633b720fca1161012d5780636b453c1f116101075780636b453c1f146102965780637ae26773146102b657806384a33e63146102d657610180565b80633b720fca1461024c5780634ebb79161461026157806369cff80d1461028157610180565b8063248a9ca31161015e578063248a9ca3146101dd5780632f2ff15d1461020a57806336568abe1461022c57610180565b806301ffc9a71461018557806306fdde03146101bb57610180565b3661018057005b600080fd5b34801561019157600080fd5b506101a56101a03660046115e5565b610442565b6040516101b29190611817565b60405180910390f35b3480156101c757600080fd5b506101d0610488565b6040516101b2919061182b565b3480156101e957600080fd5b506101fd6101f83660046115a9565b610516565b6040516101b29190611822565b34801561021657600080fd5b5061022a6102253660046115c1565b61052b565b005b34801561023857600080fd5b5061022a6102473660046115c1565b61054c565b34801561025857600080fd5b506101fd61059b565b34801561026d57600080fd5b5061022a61027c3660046115a9565b6105bf565b34801561028d57600080fd5b506101fd6106a5565b3480156102a257600080fd5b5061022a6102b13660046114ee565b6106ab565b3480156102c257600080fd5b5061022a6102d1366004611526565b6106d8565b3480156102e257600080fd5b5061022a6102f13660046115a9565b61073f565b34801561030257600080fd5b5061022a61031136600461155e565b6107e5565b34801561032257600080fd5b5061022a6103313660046115a9565b6108b1565b34801561034257600080fd5b506101a56103513660046115c1565b6108c7565b34801561036257600080fd5b506101fd6108f0565b34801561037757600080fd5b506103806108f5565b6040516101b291906117d0565b34801561039957600080fd5b5061022a6103a83660046115c1565b610919565b3480156103b957600080fd5b5061022a6103c83660046114ee565b610935565b3480156103d957600080fd5b5061022a6103e83660046116a9565b61095f565b3480156103f957600080fd5b506101fd610408366004611673565b610b07565b34801561041957600080fd5b5061022a6104283660046114ee565b610b1e565b34801561043957600080fd5b506101fd610b40565b60006001600160e01b031982167f7965db0b000000000000000000000000000000000000000000000000000000001480610480575061048082610b64565b90505b919050565b6002805461049590611bb8565b80601f01602080910402602001604051908101604052809291908181526020018280546104c190611bb8565b801561050e5780601f106104e35761010080835404028352916020019161050e565b820191906000526020600020905b8154815290600101906020018083116104f157829003601f168201915b505050505081565b60009081526020819052604090206001015490565b61053482610516565b61053d81610b96565b6105478383610ba7565b505050565b610554610c2c565b6001600160a01b0316816001600160a01b03161461058d5760405162461bcd60e51b815260040161058490611a64565b60405180910390fd5b6105978282610c30565b5050565b7f000000000000000000000000000000000000000000000000000000000000000081565b60006105c9610c2c565b90506105f57f339759585899103d2ace64958e37e18ccb0504652c81d4a1b8aa80fe2126ab95826108c7565b6106115760405162461bcd60e51b8152600401610584906118aa565b600082116106315760405162461bcd60e51b815260040161058490611907565b604051339083156108fc029084906000818181858888f1935050505015801561065e573d6000803e3d6000fd5b5060006001600160a01b03167f8c1256b8896378cd5044f80c202f9772b9d77dc85c8a6eb51967210b09bfaa28836040516106999190611822565b60405180910390a25050565b60015481565b6106d57f339759585899103d2ace64958e37e18ccb0504652c81d4a1b8aa80fe2126ab958261052b565b50565b60006106e2610c2c565b905061070e7f339759585899103d2ace64958e37e18ccb0504652c81d4a1b8aa80fe2126ab95826108c7565b61072a5760405162461bcd60e51b8152600401610584906118aa565b6105476001600160a01b038416836000610cb3565b6000610749610c2c565b90506107757f339759585899103d2ace64958e37e18ccb0504652c81d4a1b8aa80fe2126ab95826108c7565b6107915760405162461bcd60e51b8152600401610584906118aa565b816107ae5760405162461bcd60e51b815260040161058490611973565b600182905560405130907ff43f23b7a28e6f8ce6843a21bd7b48bce778aa913b8c8cf459edf7d770e8d38a90610699908590611822565b60006107ef610c2c565b905061081b7f339759585899103d2ace64958e37e18ccb0504652c81d4a1b8aa80fe2126ab95826108c7565b6108375760405162461bcd60e51b8152600401610584906118aa565b600082116108575760405162461bcd60e51b815260040161058490611907565b61086b6001600160a01b0384163384610ddb565b826001600160a01b03167f8c1256b8896378cd5044f80c202f9772b9d77dc85c8a6eb51967210b09bfaa28836040516108a49190611822565b60405180910390a2505050565b60006108bb610c2c565b9050610597828261054c565b6000918252602082815260408084206001600160a01b0393909316845291905290205460ff1690565b600081565b7f000000000000000000000000000000000000000000000000000000000000000081565b61092282610516565b61092b81610b96565b6105478383610c30565b6106d57f339759585899103d2ace64958e37e18ccb0504652c81d4a1b8aa80fe2126ab9582610919565b6040517f70a082310000000000000000000000000000000000000000000000000000000081526000906001600160a01b038416906370a08231906109a79085906004016117d0565b60206040518083038186803b1580156109bf57600080fd5b505afa1580156109d3573d6000803e3d6000fd5b505050506040513d601f19601f820116820180604052508101906109f7919061165b565b9050610a068686868686610dfa565b600081846001600160a01b03166370a08231856040518263ffffffff1660e01b8152600401610a3591906117d0565b60206040518083038186803b158015610a4d57600080fd5b505afa158015610a61573d6000803e3d6000fd5b505050506040513d601f19601f82011682018060405250810190610a85919061165b565b610a8f9190611b5e565b905085811015610ab15760405162461bcd60e51b81526004016105849061183e565b836001600160a01b0316856001600160a01b03167fe2bdbc6b7225eb0a972ac943c485a6cc05f7c6811838bce8903f23200fb744fa8989604051610af6929190611ac1565b60405180910390a350505050505050565b6000610b14848484610f72565b90505b9392505050565b6000610b28610c2c565b9050610b3560008361052b565b61059760008261054c565b7f339759585899103d2ace64958e37e18ccb0504652c81d4a1b8aa80fe2126ab9581565b6001600160e01b031981167f01ffc9a70000000000000000000000000000000000000000000000000000000014919050565b6106d581610ba2610c2c565b61114c565b610bb182826108c7565b610597576000828152602081815260408083206001600160a01b03851684529091529020805460ff19166001179055610be8610c2c565b6001600160a01b0316816001600160a01b0316837f2f8788117e7eff1d82e926ec794901d17c78024a50270940304540a733656f0d60405160405180910390a45050565b3390565b610c3a82826108c7565b15610597576000828152602081815260408083206001600160a01b03851684529091529020805460ff19169055610c6f610c2c565b6001600160a01b0316816001600160a01b0316837ff6391f5c32d9c69d2a47ea670b442974b53935d1edc7fd64eb21e047a839171b60405160405180910390a45050565b801580610d5457506040517fdd62ed3e0000000000000000000000000000000000000000000000000000000081526001600160a01b0384169063dd62ed3e90610d0290309086906004016117e4565b60206040518083038186803b158015610d1a57600080fd5b505afa158015610d2e573d6000803e3d6000fd5b505050506040513d601f19601f82011682018060405250810190610d52919061165b565b155b610d705760405162461bcd60e51b815260040161058490611a07565b6105478363095ea7b360e01b8484604051602401610d8f9291906117fe565b60408051601f198184030181529190526020810180517bffffffffffffffffffffffffffffffffffffffffffffffffffffffff166001600160e01b0319909316929092179091526111b0565b6105478363a9059cbb60e01b8484604051602401610d8f9291906117fe565b60405163e6a4390560e01b81526000906001600160a01b037f0000000000000000000000000000000000000000000000000000000000000000169063e6a4390590610e4b90879087906004016117e4565b60206040518083038186803b158015610e6357600080fd5b505afa158015610e77573d6000803e3d6000fd5b505050506040513d601f19601f82011682018060405250810190610e9b919061150a565b9050600080846001600160a01b0316866001600160a01b031610610ec157866000610ec5565b6000875b9092509050610ede6001600160a01b038716848a610ddb565b604080516000815260208101918290527f022c0d9f000000000000000000000000000000000000000000000000000000009091526001600160a01b0384169063022c0d9f90610f369085908590899060248101611acf565b600060405180830381600087803b158015610f5057600080fd5b505af1158015610f64573d6000803e3d6000fd5b505050505050505050505050565b6000816001600160a01b0316836001600160a01b03161480610f92575083155b15610f9f57506000610b17565b60405163e6a4390560e01b81526000906001600160a01b037f0000000000000000000000000000000000000000000000000000000000000000169063e6a4390590610ff090879087906004016117e4565b60206040518083038186803b15801561100857600080fd5b505afa15801561101c573d6000803e3d6000fd5b505050506040513d601f19601f82011682018060405250810190611040919061150a565b90506001600160a01b03811661105a576000915050610b17565b600080826001600160a01b0316630902f1ac6040518163ffffffff1660e01b815260040160606040518083038186803b15801561109657600080fd5b505afa1580156110aa573d6000803e3d6000fd5b505050506040513d601f19601f820116820180604052508101906110ce919061160d565b506dffffffffffffffffffffffffffff1691506dffffffffffffffffffffffffffff169150600080866001600160a01b0316886001600160a01b031610611116578284611119565b83835b9150915060008211801561112d5750600081115b156111405761113d89838361126c565b95505b50505050509392505050565b61115682826108c7565b6105975761116e816001600160a01b031660146112d9565b6111798360206112d9565b60405160200161118a92919061174f565b60408051601f198184030181529082905262461bcd60e51b82526105849160040161182b565b600080836001600160a01b0316836040516111cb9190611733565b6000604051808303816000865af19150503d8060008114611208576040519150601f19603f3d011682016040523d82523d6000602084013e61120d565b606091505b50915091508161122f5760405162461bcd60e51b81526004016105849061193e565b805115611266578080602001905181019061124a9190611589565b6112665760405162461bcd60e51b8152600401610584906119aa565b50505050565b6000806112997f000000000000000000000000000000000000000000000000000000000000000086611b3f565b905060006112a78483611b3f565b90506000826112b86103e888611b3f565b6112c29190611b07565b90506112ce8183611b1f565b979650505050505050565b606060006112e8836002611b3f565b6112f3906002611b07565b67ffffffffffffffff81111561131957634e487b7160e01b600052604160045260246000fd5b6040519080825280601f01601f191660200182016040528015611343576020820181803683370190505b5090507f30000000000000000000000000000000000000000000000000000000000000008160008151811061138857634e487b7160e01b600052603260045260246000fd5b60200101906001600160f81b031916908160001a9053507f7800000000000000000000000000000000000000000000000000000000000000816001815181106113e157634e487b7160e01b600052603260045260246000fd5b60200101906001600160f81b031916908160001a9053506000611405846002611b3f565b611410906001611b07565b90505b60018111156114b1577f303132333435363738396162636465660000000000000000000000000000000085600f166010811061145f57634e487b7160e01b600052603260045260246000fd5b1a60f81b82828151811061148357634e487b7160e01b600052603260045260246000fd5b60200101906001600160f81b031916908160001a90535060049490941c936114aa81611ba1565b9050611413565b508315610b175760405162461bcd60e51b815260040161058490611875565b80516dffffffffffffffffffffffffffff8116811461048357600080fd5b6000602082840312156114ff578081fd5b8135610b1781611c09565b60006020828403121561151b578081fd5b8151610b1781611c09565b60008060408385031215611538578081fd5b823561154381611c09565b9150602083013561155381611c09565b809150509250929050565b60008060408385031215611570578182fd5b823561157b81611c09565b946020939093013593505050565b60006020828403121561159a578081fd5b81518015158114610b17578182fd5b6000602082840312156115ba578081fd5b5035919050565b600080604083850312156115d3578182fd5b82359150602083013561155381611c09565b6000602082840312156115f6578081fd5b81356001600160e01b031981168114610b17578182fd5b600080600060608486031215611621578081fd5b61162a846114d0565b9250611638602085016114d0565b9150604084015163ffffffff81168114611650578182fd5b809150509250925092565b60006020828403121561166c578081fd5b5051919050565b600080600060608486031215611687578283fd5b83359250602084013561169981611c09565b9150604084013561165081611c09565b600080600080600060a086880312156116c0578081fd5b853594506020860135935060408601356116d981611c09565b925060608601356116e981611c09565b915060808601356116f981611c09565b809150509295509295909350565b6000815180845261171f816020860160208601611b75565b601f01601f19169290920160200192915050565b60008251611745818460208701611b75565b9190910192915050565b60007f416363657373436f6e74726f6c3a206163636f756e742000000000000000000082528351611787816017850160208801611b75565b7f206973206d697373696e6720726f6c652000000000000000000000000000000060179184019182015283516117c4816028840160208801611b75565b01602801949350505050565b6001600160a01b0391909116815260200190565b6001600160a01b0392831681529116602082015260400190565b6001600160a01b03929092168252602082015260400190565b901515815260200190565b90815260200190565b600060208252610b176020830184611707565b60208082526017908201527f496e73756666696369656e7420616d6f756e742d6f7574000000000000000000604082015260600190565b6020808252818101527f537472696e67733a20686578206c656e67746820696e73756666696369656e74604082015260600190565b60208082526028908201527f4d61696e7461696e61626c653a2043616c6c6572206973206e6f742061206d6160408201527f696e7461696e6572000000000000000000000000000000000000000000000000606082015260800190565b6020808252601e908201527f59616b416461707465723a204e6f7468696e6720746f207265636f7665720000604082015260600190565b6020808252818101527f5361666545524332303a206c6f772d6c6576656c2063616c6c206661696c6564604082015260600190565b60208082526014908201527f496e76616c6964206761732d657374696d617465000000000000000000000000604082015260600190565b6020808252602a908201527f5361666545524332303a204552433230206f7065726174696f6e20646964206e60408201527f6f74207375636365656400000000000000000000000000000000000000000000606082015260800190565b60208082526036908201527f5361666545524332303a20617070726f76652066726f6d206e6f6e2d7a65726f60408201527f20746f206e6f6e2d7a65726f20616c6c6f77616e636500000000000000000000606082015260800190565b6020808252602f908201527f416363657373436f6e74726f6c3a2063616e206f6e6c792072656e6f756e636560408201527f20726f6c657320666f722073656c660000000000000000000000000000000000606082015260800190565b918252602082015260400190565b60008582528460208301526001600160a01b038416604083015260806060830152611afd6080830184611707565b9695505050505050565b60008219821115611b1a57611b1a611bf3565b500190565b600082611b3a57634e487b7160e01b81526012600452602481fd5b500490565b6000816000190483118215151615611b5957611b59611bf3565b500290565b600082821015611b7057611b70611bf3565b500390565b60005b83811015611b90578181015183820152602001611b78565b838111156112665750506000910152565b600081611bb057611bb0611bf3565b506000190190565b600281046001821680611bcc57607f821691505b60208210811415611bed57634e487b7160e01b600052602260045260246000fd5b50919050565b634e487b7160e01b600052601160045260246000fd5b6001600160a01b03811681146106d557600080fdfea264697066735822122050e5b0e1c4b7e3813174cc5ac6d04a4a904547e5b116c2680043267cbd5ccb0f64736f6c63430008000033339759585899103d2ace64958e37e18ccb0504652c81d4a1b8aa80fe2126ab95",
  "devdoc": {
    "kind": "dev",
    "methods": {
      "getRoleAdmin(bytes32)": {
        "details": "Returns the admin role that controls `role`. See {grantRole} and {revokeRole}. To change a role's admin, use {_setRoleAdmin}."
      },
      "grantRole(bytes32,address)": {
        "details": "Grants `role` to `account`. If `account` had not been already granted `role`, emits a {RoleGranted} event. Requirements: - the caller must have ``role``'s admin role. May emit a {RoleGranted} event."
      },
      "hasRole(bytes32,address)": {
        "details": "Returns `true` if `account` has been granted `role`."
      },
      "renounceRole(bytes32,address)": {
        "details": "Revokes `role` from the calling account. Roles are often managed via {grantRole} and {revokeRole}: this function's purpose is to provide a mechanism for accounts to lose their privileges if they are compromised (such as when a trusted device is misplaced). If the calling account had been revoked `role`, emits a {RoleRevoked} event. Requirements: - the caller must be `account`. May emit a {RoleRevoked} event."
      },
      "revokeRole(bytes32,address)": {
        "details": "Revokes `role` from `account`. If `account` had been granted `role`, emits a {RoleRevoked} event. Requirements: - the caller must have ``role``'s admin role. May emit a {RoleRevoked} event."
      },
      "supportsInterface(bytes4)": {
        "details": "See {IERC165-supportsInterface}."
      }
    },
    "version": 1
  },
  "userdoc": {
    "kind": "user",
    "methods": {},
    "version": 1
  },
  "storageLayout": {
    "storage": [
      {
        "astId": 24,
        "contract": "src/contracts/adapters/UniswapV2Adapter.sol:UniswapV2Adapter",
        "label": "_roles",
        "offset": 0,
        "slot": "0",
        "type": "t_mapping(t_bytes32,t_struct(RoleData)19_storage)"
      },
      {
        "astId": 1452,
        "contract": "src/contracts/adapters/UniswapV2Adapter.sol:UniswapV2Adapter",
        "label": "swapGasEstimate",
        "offset": 0,
        "slot": "1",
        "type": "t_uint256"
      },
      {
        "astId": 1454,
        "contract": "src/contracts/adapters/UniswapV2Adapter.sol:UniswapV2Adapter",
        "label": "name",
        "offset": 0,
        "slot": "2",
        "type": "t_string_storage"
      }
    ],
    "types": {
      "t_address": {
        "encoding": "inplace",
        "label": "address",
        "numberOfBytes": "20"
      },
      "t_bool": {
        "encoding": "inplace",
        "label": "bool",
        "numberOfBytes": "1"
      },
      "t_bytes32": {
        "encoding": "inplace",
        "label": "bytes32",
        "numberOfBytes": "32"
      },
      "t_mapping(t_address,t_bool)": {
        "encoding": "mapping",
        "key": "t_address",
        "label": "mapping(address => bool)",
        "numberOfBytes": "32",
        "value": "t_bool"
      },
      "t_mapping(t_bytes32,t_struct(RoleData)19_storage)": {
        "encoding": "mapping",
        "key": "t_bytes32",
        "label": "mapping(bytes32 => struct AccessControl.RoleData)",
        "numberOfBytes": "32",
        "value": "t_struct(RoleData)19_storage"
      },
      "t_string_storage": {
        "encoding": "bytes",
        "label": "string",
        "numberOfBytes": "32"
      },
      "t_struct(RoleData)19_storage": {
        "encoding": "inplace",
        "label": "struct AccessControl.RoleData",
        "members": [
          {
            "astId": 16,
            "contract": "src/contracts/adapters/UniswapV2Adapter.sol:UniswapV2Adapter",
            "label": "members",
            "offset": 0,
            "slot": "0",
            "type": "t_mapping(t_address,t_bool)"
          },
          {
            "astId": 18,
            "contract": "src/contracts/adapters/UniswapV2Adapter.sol:UniswapV2Adapter",
            "label": "adminRole",
            "offset": 0,
            "slot": "1",
            "type": "t_bytes32"
          }
        ],
        "numberOfBytes": "64"
      },
      "t_uint256": {
        "encoding": "inplace",
        "label": "uint256",
        "numberOfBytes": "32"
      }
    }
  }
}