{
  "address": "0x610460dAB540dAE1eb84C22ea97866BFc0482c3F",
  "abi": [
    {
      "inputs": [
        {
          "internalType": "string",
          "name": "_name",
          "type": "string"
        },
        {
          "internalType": "address",
          "name": "_factory",
          "type": "address"
        },
        {
          "internalType": "uint256",
          "name": "_swapGasEstimate",
          "type": "uint256"
        }
      ],
      "stateMutability": "nonpayable",
      "type": "constructor"
    },
    {
      "anonymous": false,
      "inputs": [
        {
          "indexed": true,
          "internalType": "address",
          "name": "_asset",
          "type": "address"
        },
        {
          "indexed": false,
          "internalType": "uint256",
          "name": "amount",
          "type": "uint256"
        }
      ],
      "name": "Recovered",
      "type": "event"
    },
    {
      "anonymous": false,
      "inputs": [
        {
          "indexed": true,
          "internalType": "bytes32",
          "name": "role",
          "type": "bytes32"
        },
        {
          "indexed": true,
          "internalType": "bytes32",
          "name": "previousAdminRole",
          "type": "bytes32"
        },
        {
          "indexed": true,
          "internalType": "bytes32",
          "name": "newAdminRole",
          "type": "bytes32"
        }
      ],
      "name": "RoleAdminChanged",
      "type": "event"
    },
    {
      "anonymous": false,
      "inputs": [
        {
          "indexed": true,
          "internalType": "bytes32",
          "name": "role",
          "type": "bytes32"
        },
        {
          "indexed": true,
          "internalType": "address",
          "name": "account",
          "type": "address"
        },
        {
          "indexed": true,
          "internalType": "address",
          "name": "sender",
          "type": "address"
        }
      ],
      "name": "RoleGranted",
      "type": "event"
    },
    {
      "anonymous": false,
      "inputs": [
        {
          "indexed": true,
          "internalType": "bytes32",
          "name": "role",
          "type": "bytes32"
        },
        {
          "indexed": true,
          "internalType": "address",
          "name": "account",
          "type": "address"
        },
        {
          "indexed": true,
          "internalType": "address",
          "name": "sender",
          "type": "address"
        }
      ],
      "name": "RoleRevoked",
      "type": "event"
    },
    {
      "anonymous": false,
      "inputs": [
        {
          "indexed": true,
          "internalType": "address",
          "name": "_adapter",
          "type": "address"
        },
        {
          "indexed": false,
          "internalType": "uint256",
          "name": "_newEstimate",
          "type": "uint256"
        }
      ],
      "name": "UpdatedGasEstimate",
      "type": "event"
    },
    {
      "anonymous": false,
      "inputs": [
        {
          "indexed": true,
          "internalType": "address",
          "name": "_tokenFrom",
          "type": "address"
        },
        {
          "indexed": true,
          "internalType": "address",
          "name": "_tokenTo",
          "type": "address"
        },
        {
          "indexed": false,
          "internalType": "uint256",
          "name": "_amountIn",
          "type": "uint256"
        },
        {
          "indexed": false,
          "internalType": "uint256",
          "name": "_amountOut",
          "type": "uint256"
        }
      ],
      "name": "YakAdapterSwap",
      "type": "event"
    },
    {
      "inputs": [],
      "name": "DEFAULT_ADMIN_ROLE",
      "outputs": [
        {
          "internalType": "bytes32",
          "name": "",
          "type": "bytes32"
        }
      ],
      "stateMutability": "view",
      "type": "function"
    },
    {
      "inputs": [],
      "name": "FACTORY",
      "outputs": [
        {
          "internalType": "address",
          "name": "",
          "type": "address"
        }
      ],
      "stateMutability": "view",
      "type": "function"
    },
    {
      "inputs": [],
      "name": "MAINTAINER_ROLE",
      "outputs": [
        {
          "internalType": "bytes32",
          "name": "",
          "type": "bytes32"
        }
      ],
      "stateMutability": "view",
      "type": "function"
    },
    {
      "inputs": [
        {
          "internalType": "address",
          "name": "addedMaintainer",
          "type": "address"
        }
      ],
      "name": "addMaintainer",
      "outputs": [],
      "stateMutability": "nonpayable",
      "type": "function"
    },
    {
      "inputs": [
        {
          "internalType": "bytes32",
          "name": "role",
          "type": "bytes32"
        }
      ],
      "name": "getRoleAdmin",
      "outputs": [
        {
          "internalType": "bytes32",
          "name": "",
          "type": "bytes32"
        }
      ],
      "stateMutability": "view",
      "type": "function"
    },
    {
      "inputs": [
        {
          "internalType": "bytes32",
          "name": "role",
          "type": "bytes32"
        },
        {
          "internalType": "address",
          "name": "account",
          "type": "address"
        }
      ],
      "name": "grantRole",
      "outputs": [],
      "stateMutability": "nonpayable",
      "type": "function"
    },
    {
      "inputs": [
        {
          "internalType": "bytes32",
          "name": "role",
          "type": "bytes32"
        },
        {
          "internalType": "address",
          "name": "account",
          "type": "address"
        }
      ],
      "name": "hasRole",
      "outputs": [
        {
          "internalType": "bool",
          "name": "",
          "type": "bool"
        }
      ],
      "stateMutability": "view",
      "type": "function"
    },
    {
      "inputs": [],
      "name": "name",
      "outputs": [
        {
          "internalType": "string",
          "name": "",
          "type": "string"
        }
      ],
      "stateMutability": "view",
      "type": "function"
    },
    {
      "inputs": [
        {
          "internalType": "uint256",
          "name": "_amountIn",
          "type": "uint256"
        },
        {
          "internalType": "address",
          "name": "_tokenIn",
          "type": "address"
        },
        {
          "internalType": "address",
          "name": "_tokenOut",
          "type": "address"
        }
      ],
      "name": "query",
      "outputs": [
        {
          "internalType": "uint256",
          "name": "",
          "type": "uint256"
        }
      ],
      "stateMutability": "view",
      "type": "function"
    },
    {
      "inputs": [
        {
          "internalType": "uint256",
          "name": "_amount",
          "type": "uint256"
        }
      ],
      "name": "recoverAVAX",
      "outputs": [],
      "stateMutability": "nonpayable",
      "type": "function"
    },
    {
      "inputs": [
        {
          "internalType": "address",
          "name": "_tokenAddress",
          "type": "address"
        },
        {
          "internalType": "uint256",
          "name": "_tokenAmount",
          "type": "uint256"
        }
      ],
      "name": "recoverERC20",
      "outputs": [],
      "stateMutability": "nonpayable",
      "type": "function"
    },
    {
      "inputs": [
        {
          "internalType": "address",
          "name": "removedMaintainer",
          "type": "address"
        }
      ],
      "name": "removeMaintainer",
      "outputs": [],
      "stateMutability": "nonpayable",
      "type": "function"
    },
    {
      "inputs": [
        {
          "internalType": "bytes32",
          "name": "role",
          "type": "bytes32"
        },
        {
          "internalType": "address",
          "name": "account",
          "type": "address"
        }
      ],
      "name": "renounceRole",
      "outputs": [],
      "stateMutability": "nonpayable",
      "type": "function"
    },
    {
      "inputs": [
        {
          "internalType": "bytes32",
          "name": "role",
          "type": "bytes32"
        }
      ],
      "name": "renounceRole",
      "outputs": [],
      "stateMutability": "nonpayable",
      "type": "function"
    },
    {
      "inputs": [
        {
          "internalType": "address",
          "name": "_token",
          "type": "address"
        },
        {
          "internalType": "address",
          "name": "_spender",
          "type": "address"
        }
      ],
      "name": "revokeAllowance",
      "outputs": [],
      "stateMutability": "nonpayable",
      "type": "function"
    },
    {
      "inputs": [
        {
          "internalType": "bytes32",
          "name": "role",
          "type": "bytes32"
        },
        {
          "internalType": "address",
          "name": "account",
          "type": "address"
        }
      ],
      "name": "revokeRole",
      "outputs": [],
      "stateMutability": "nonpayable",
      "type": "function"
    },
    {
      "inputs": [
        {
          "internalType": "uint256",
          "name": "_estimate",
          "type": "uint256"
        }
      ],
      "name": "setSwapGasEstimate",
      "outputs": [],
      "stateMutability": "nonpayable",
      "type": "function"
    },
    {
      "inputs": [
        {
          "internalType": "bytes4",
          "name": "interfaceId",
          "type": "bytes4"
        }
      ],
      "name": "supportsInterface",
      "outputs": [
        {
          "internalType": "bool",
          "name": "",
          "type": "bool"
        }
      ],
      "stateMutability": "view",
      "type": "function"
    },
    {
      "inputs": [
        {
          "internalType": "uint256",
          "name": "_amountIn",
          "type": "uint256"
        },
        {
          "internalType": "uint256",
          "name": "_amountOut",
          "type": "uint256"
        },
        {
          "internalType": "address",
          "name": "_fromToken",
          "type": "address"
        },
        {
          "internalType": "address",
          "name": "_toToken",
          "type": "address"
        },
        {
          "internalType": "address",
          "name": "_to",
          "type": "address"
        }
      ],
      "name": "swap",
      "outputs": [],
      "stateMutability": "nonpayable",
      "type": "function"
    },
    {
      "inputs": [],
      "name": "swapGasEstimate",
      "outputs": [
        {
          "internalType": "uint256",
          "name": "",
          "type": "uint256"
        }
      ],
      "stateMutability": "view",
      "type": "function"
    },
    {
      "inputs": [
        {
          "internalType": "address",
          "name": "newOwner",
          "type": "address"
        }
      ],
      "name": "transferOwnership",
      "outputs": [],
      "stateMutability": "nonpayable",
      "type": "function"
    },
    {
      "stateMutability": "payable",
      "type": "receive"
    }
  ],
  "transactionHash": "0xc93e0baa003c2aadaa15a5e649dbffb7f7035092c61d3e094dd3e35a3c301d5c",
  "args": [
    "SwaprAdapter",
    "0x359F20Ad0F42D75a5077e65F30274cABe6f4F01a",
    180000
  ],
  "solcInputHash": "2f7c552725bac4cbb59f7eeca6343ccc",
  "bytecode": "0x60a06040523480156200001157600080fd5b50604051620021e1380380620021e1833981016040819052620000349162000313565b82816000620000426200009d565b905062000051600082620000a1565b6200006c600080516020620021c183398151915282620000a1565b506200007882620000b1565b6200008381620000f0565b50505060601b6001600160601b0319166080525062000512565b3390565b620000ad82826200019d565b5050565b8051620000db5760405162461bcd60e51b8152600401620000d29062000448565b60405180910390fd5b8051620000ad90600290602084019062000250565b6000620000fc6200009d565b905062000119600080516020620021c18339815191528262000227565b620001385760405162461bcd60e51b8152600401620000d29062000400565b81620001585760405162461bcd60e51b8152600401620000d2906200047f565b600182905560405130907ff43f23b7a28e6f8ce6843a21bd7b48bce778aa913b8c8cf459edf7d770e8d38a9062000191908590620004b6565b60405180910390a25050565b620001a9828262000227565b620000ad576000828152602081815260408083206001600160a01b03851684529091529020805460ff19166001179055620001e36200009d565b6001600160a01b0316816001600160a01b0316837f2f8788117e7eff1d82e926ec794901d17c78024a50270940304540a733656f0d60405160405180910390a45050565b6000918252602082815260408084206001600160a01b0393909316845291905290205460ff1690565b8280546200025e90620004bf565b90600052602060002090601f016020900481019282620002825760008555620002cd565b82601f106200029d57805160ff1916838001178555620002cd565b82800160010185558215620002cd579182015b82811115620002cd578251825591602001919060010190620002b0565b50620002db929150620002df565b5090565b5b80821115620002db5760008155600101620002e0565b80516001600160a01b03811681146200030e57600080fd5b919050565b60008060006060848603121562000328578283fd5b83516001600160401b03808211156200033f578485fd5b818601915086601f83011262000353578485fd5b815181811115620003685762000368620004fc565b6040516020601f8301601f1916820181018481118382101715620003905762000390620004fc565b60405282825284830181018a1015620003a7578788fd5b8793505b82841015620003ca5784840181015182850182015292830192620003ab565b82841115620003db57878184840101525b819750620003eb818a01620002f6565b96505050505050604084015190509250925092565b60208082526028908201527f4d61696e7461696e61626c653a2043616c6c6572206973206e6f742061206d6160408201526734b73a30b4b732b960c11b606082015260800190565b60208082526014908201527f496e76616c69642061646170746572206e616d65000000000000000000000000604082015260600190565b60208082526014908201527f496e76616c6964206761732d657374696d617465000000000000000000000000604082015260600190565b90815260200190565b600281046001821680620004d457607f821691505b60208210811415620004f657634e487b7160e01b600052602260045260246000fd5b50919050565b634e487b7160e01b600052604160045260246000fd5b60805160601c611c826200053f6000396000818161050d01528181610dd00152610f750152611c826000f3fe60806040526004361061016e5760003560e01c806384a33e63116100cb578063d547741f1161007f578063ef99893a11610059578063ef99893a146103cd578063f2fde38b146103ed578063f87422541461040d57610175565b8063d547741f1461036d578063d8baf7cf1461038d578063eab90da6146103ad57610175565b80638bb9c5bf116100b05780638bb9c5bf1461031857806391d1485414610338578063a217fddf1461035857610175565b806384a33e63146102d85780638980f11f146102f857610175565b806336568abe1161012257806369cff80d1161010757806369cff80d146102835780636b453c1f146102985780637ae26773146102b857610175565b806336568abe146102435780634ebb79161461026357610175565b8063248a9ca311610153578063248a9ca3146101d25780632dd31000146101ff5780632f2ff15d1461022157610175565b806301ffc9a71461017a57806306fdde03146101b057610175565b3661017557005b600080fd5b34801561018657600080fd5b5061019a610195366004611613565b610422565b6040516101a79190611845565b60405180910390f35b3480156101bc57600080fd5b506101c5610468565b6040516101a79190611859565b3480156101de57600080fd5b506101f26101ed3660046115d7565b6104f6565b6040516101a79190611850565b34801561020b57600080fd5b5061021461050b565b6040516101a791906117fe565b34801561022d57600080fd5b5061024161023c3660046115ef565b61052f565b005b34801561024f57600080fd5b5061024161025e3660046115ef565b610550565b34801561026f57600080fd5b5061024161027e3660046115d7565b61059f565b34801561028f57600080fd5b506101f2610685565b3480156102a457600080fd5b506102416102b336600461151c565b61068b565b3480156102c457600080fd5b506102416102d3366004611554565b6106b8565b3480156102e457600080fd5b506102416102f33660046115d7565b61071f565b34801561030457600080fd5b5061024161031336600461158c565b6107c5565b34801561032457600080fd5b506102416103333660046115d7565b610891565b34801561034457600080fd5b5061019a6103533660046115ef565b6108a7565b34801561036457600080fd5b506101f26108d0565b34801561037957600080fd5b506102416103883660046115ef565b6108d5565b34801561039957600080fd5b506102416103a836600461151c565b6108f1565b3480156103b957600080fd5b506102416103c83660046116d7565b61091b565b3480156103d957600080fd5b506101f26103e83660046116a1565b610ac3565b3480156103f957600080fd5b5061024161040836600461151c565b610ada565b34801561041957600080fd5b506101f2610afc565b60006001600160e01b031982167f7965db0b000000000000000000000000000000000000000000000000000000001480610460575061046082610b20565b90505b919050565b6002805461047590611be6565b80601f01602080910402602001604051908101604052809291908181526020018280546104a190611be6565b80156104ee5780601f106104c3576101008083540402835291602001916104ee565b820191906000526020600020905b8154815290600101906020018083116104d157829003601f168201915b505050505081565b60009081526020819052604090206001015490565b7f000000000000000000000000000000000000000000000000000000000000000081565b610538826104f6565b61054181610b52565b61054b8383610b63565b505050565b610558610be8565b6001600160a01b0316816001600160a01b0316146105915760405162461bcd60e51b815260040161058890611a92565b60405180910390fd5b61059b8282610bec565b5050565b60006105a9610be8565b90506105d57f339759585899103d2ace64958e37e18ccb0504652c81d4a1b8aa80fe2126ab95826108a7565b6105f15760405162461bcd60e51b8152600401610588906118d8565b600082116106115760405162461bcd60e51b815260040161058890611935565b604051339083156108fc029084906000818181858888f1935050505015801561063e573d6000803e3d6000fd5b5060006001600160a01b03167f8c1256b8896378cd5044f80c202f9772b9d77dc85c8a6eb51967210b09bfaa28836040516106799190611850565b60405180910390a25050565b60015481565b6106b57f339759585899103d2ace64958e37e18ccb0504652c81d4a1b8aa80fe2126ab958261052f565b50565b60006106c2610be8565b90506106ee7f339759585899103d2ace64958e37e18ccb0504652c81d4a1b8aa80fe2126ab95826108a7565b61070a5760405162461bcd60e51b8152600401610588906118d8565b61054b6001600160a01b038416836000610c6f565b6000610729610be8565b90506107557f339759585899103d2ace64958e37e18ccb0504652c81d4a1b8aa80fe2126ab95826108a7565b6107715760405162461bcd60e51b8152600401610588906118d8565b8161078e5760405162461bcd60e51b8152600401610588906119a1565b600182905560405130907ff43f23b7a28e6f8ce6843a21bd7b48bce778aa913b8c8cf459edf7d770e8d38a90610679908590611850565b60006107cf610be8565b90506107fb7f339759585899103d2ace64958e37e18ccb0504652c81d4a1b8aa80fe2126ab95826108a7565b6108175760405162461bcd60e51b8152600401610588906118d8565b600082116108375760405162461bcd60e51b815260040161058890611935565b61084b6001600160a01b0384163384610d97565b826001600160a01b03167f8c1256b8896378cd5044f80c202f9772b9d77dc85c8a6eb51967210b09bfaa28836040516108849190611850565b60405180910390a2505050565b600061089b610be8565b905061059b8282610550565b6000918252602082815260408084206001600160a01b0393909316845291905290205460ff1690565b600081565b6108de826104f6565b6108e781610b52565b61054b8383610bec565b6106b57f339759585899103d2ace64958e37e18ccb0504652c81d4a1b8aa80fe2126ab95826108d5565b6040517f70a082310000000000000000000000000000000000000000000000000000000081526000906001600160a01b038416906370a08231906109639085906004016117fe565b60206040518083038186803b15801561097b57600080fd5b505afa15801561098f573d6000803e3d6000fd5b505050506040513d601f19601f820116820180604052508101906109b39190611689565b90506109c28686868686610db6565b600081846001600160a01b03166370a08231856040518263ffffffff1660e01b81526004016109f191906117fe565b60206040518083038186803b158015610a0957600080fd5b505afa158015610a1d573d6000803e3d6000fd5b505050506040513d601f19601f82011682018060405250810190610a419190611689565b610a4b9190611b8c565b905085811015610a6d5760405162461bcd60e51b81526004016105889061186c565b836001600160a01b0316856001600160a01b03167fe2bdbc6b7225eb0a972ac943c485a6cc05f7c6811838bce8903f23200fb744fa8989604051610ab2929190611aef565b60405180910390a350505050505050565b6000610ad0848484610f2e565b90505b9392505050565b6000610ae4610be8565b9050610af160008361052f565b61059b600082610550565b7f339759585899103d2ace64958e37e18ccb0504652c81d4a1b8aa80fe2126ab9581565b6001600160e01b031981167f01ffc9a70000000000000000000000000000000000000000000000000000000014919050565b6106b581610b5e610be8565b611188565b610b6d82826108a7565b61059b576000828152602081815260408083206001600160a01b03851684529091529020805460ff19166001179055610ba4610be8565b6001600160a01b0316816001600160a01b0316837f2f8788117e7eff1d82e926ec794901d17c78024a50270940304540a733656f0d60405160405180910390a45050565b3390565b610bf682826108a7565b1561059b576000828152602081815260408083206001600160a01b03851684529091529020805460ff19169055610c2b610be8565b6001600160a01b0316816001600160a01b0316837ff6391f5c32d9c69d2a47ea670b442974b53935d1edc7fd64eb21e047a839171b60405160405180910390a45050565b801580610d1057506040517fdd62ed3e0000000000000000000000000000000000000000000000000000000081526001600160a01b0384169063dd62ed3e90610cbe9030908690600401611812565b60206040518083038186803b158015610cd657600080fd5b505afa158015610cea573d6000803e3d6000fd5b505050506040513d601f19601f82011682018060405250810190610d0e9190611689565b155b610d2c5760405162461bcd60e51b815260040161058890611a35565b61054b8363095ea7b360e01b8484604051602401610d4b92919061182c565b60408051601f198184030181529190526020810180517bffffffffffffffffffffffffffffffffffffffffffffffffffffffff166001600160e01b0319909316929092179091526111ec565b61054b8363a9059cbb60e01b8484604051602401610d4b92919061182c565b60405163e6a4390560e01b81526000906001600160a01b037f0000000000000000000000000000000000000000000000000000000000000000169063e6a4390590610e079087908790600401611812565b60206040518083038186803b158015610e1f57600080fd5b505afa158015610e33573d6000803e3d6000fd5b505050506040513d601f19601f82011682018060405250810190610e579190611538565b9050600080846001600160a01b0316866001600160a01b031610610e7d57866000610e81565b6000875b9092509050610e9a6001600160a01b038716848a610d97565b604080516000815260208101918290527f022c0d9f000000000000000000000000000000000000000000000000000000009091526001600160a01b0384169063022c0d9f90610ef29085908590899060248101611afd565b600060405180830381600087803b158015610f0c57600080fd5b505af1158015610f20573d6000803e3d6000fd5b505050505050505050505050565b6000816001600160a01b0316836001600160a01b03161480610f4e575083155b15610f5b57506000610ad3565b60405163e6a4390560e01b81526000906001600160a01b037f0000000000000000000000000000000000000000000000000000000000000000169063e6a4390590610fac9087908790600401611812565b60206040518083038186803b158015610fc457600080fd5b505afa158015610fd8573d6000803e3d6000fd5b505050506040513d601f19601f82011682018060405250810190610ffc9190611538565b90506001600160a01b038116611016576000915050610ad3565b600080826001600160a01b0316630902f1ac6040518163ffffffff1660e01b815260040160606040518083038186803b15801561105257600080fd5b505afa158015611066573d6000803e3d6000fd5b505050506040513d601f19601f8201168201806040525081019061108a919061163b565b506dffffffffffffffffffffffffffff1691506dffffffffffffffffffffffffffff169150600080866001600160a01b0316886001600160a01b0316106110d25782846110d5565b83835b915091506000821180156110e95750600081115b1561117c576000856001600160a01b03166354cf2aeb6040518163ffffffff1660e01b815260040160206040518083038186803b15801561112957600080fd5b505afa15801561113d573d6000803e3d6000fd5b505050506040513d601f19601f820116820180604052508101906111619190611689565b905061116f8a8484846112a8565b9650505050505050610ad3565b50505050509392505050565b61119282826108a7565b61059b576111aa816001600160a01b03166014611307565b6111b5836020611307565b6040516020016111c692919061177d565b60408051601f198184030181529082905262461bcd60e51b825261058891600401611859565b600080836001600160a01b0316836040516112079190611761565b6000604051808303816000865af19150503d8060008114611244576040519150601f19603f3d011682016040523d82523d6000602084013e611249565b606091505b50915091508161126b5760405162461bcd60e51b81526004016105889061196c565b8051156112a2578080602001905181019061128691906115b7565b6112a25760405162461bcd60e51b8152600401610588906119d8565b50505050565b6000806112b783612710611b8c565b905060006112c58288611b6d565b905060006112d38683611b6d565b90506000826112e46127108a611b6d565b6112ee9190611b35565b90506112fa8183611b4d565b9998505050505050505050565b60606000611316836002611b6d565b611321906002611b35565b67ffffffffffffffff81111561134757634e487b7160e01b600052604160045260246000fd5b6040519080825280601f01601f191660200182016040528015611371576020820181803683370190505b5090507f3000000000000000000000000000000000000000000000000000000000000000816000815181106113b657634e487b7160e01b600052603260045260246000fd5b60200101906001600160f81b031916908160001a9053507f78000000000000000000000000000000000000000000000000000000000000008160018151811061140f57634e487b7160e01b600052603260045260246000fd5b60200101906001600160f81b031916908160001a9053506000611433846002611b6d565b61143e906001611b35565b90505b60018111156114df577f303132333435363738396162636465660000000000000000000000000000000085600f166010811061148d57634e487b7160e01b600052603260045260246000fd5b1a60f81b8282815181106114b157634e487b7160e01b600052603260045260246000fd5b60200101906001600160f81b031916908160001a90535060049490941c936114d881611bcf565b9050611441565b508315610ad35760405162461bcd60e51b8152600401610588906118a3565b80516dffffffffffffffffffffffffffff8116811461046357600080fd5b60006020828403121561152d578081fd5b8135610ad381611c37565b600060208284031215611549578081fd5b8151610ad381611c37565b60008060408385031215611566578081fd5b823561157181611c37565b9150602083013561158181611c37565b809150509250929050565b6000806040838503121561159e578182fd5b82356115a981611c37565b946020939093013593505050565b6000602082840312156115c8578081fd5b81518015158114610ad3578182fd5b6000602082840312156115e8578081fd5b5035919050565b60008060408385031215611601578182fd5b82359150602083013561158181611c37565b600060208284031215611624578081fd5b81356001600160e01b031981168114610ad3578182fd5b60008060006060848603121561164f578081fd5b611658846114fe565b9250611666602085016114fe565b9150604084015163ffffffff8116811461167e578182fd5b809150509250925092565b60006020828403121561169a578081fd5b5051919050565b6000806000606084860312156116b5578283fd5b8335925060208401356116c781611c37565b9150604084013561167e81611c37565b600080600080600060a086880312156116ee578081fd5b8535945060208601359350604086013561170781611c37565b9250606086013561171781611c37565b9150608086013561172781611c37565b809150509295509295909350565b6000815180845261174d816020860160208601611ba3565b601f01601f19169290920160200192915050565b60008251611773818460208701611ba3565b9190910192915050565b60007f416363657373436f6e74726f6c3a206163636f756e7420000000000000000000825283516117b5816017850160208801611ba3565b7f206973206d697373696e6720726f6c652000000000000000000000000000000060179184019182015283516117f2816028840160208801611ba3565b01602801949350505050565b6001600160a01b0391909116815260200190565b6001600160a01b0392831681529116602082015260400190565b6001600160a01b03929092168252602082015260400190565b901515815260200190565b90815260200190565b600060208252610ad36020830184611735565b60208082526017908201527f496e73756666696369656e7420616d6f756e742d6f7574000000000000000000604082015260600190565b6020808252818101527f537472696e67733a20686578206c656e67746820696e73756666696369656e74604082015260600190565b60208082526028908201527f4d61696e7461696e61626c653a2043616c6c6572206973206e6f742061206d6160408201527f696e7461696e6572000000000000000000000000000000000000000000000000606082015260800190565b6020808252601e908201527f59616b416461707465723a204e6f7468696e6720746f207265636f7665720000604082015260600190565b6020808252818101527f5361666545524332303a206c6f772d6c6576656c2063616c6c206661696c6564604082015260600190565b60208082526014908201527f496e76616c6964206761732d657374696d617465000000000000000000000000604082015260600190565b6020808252602a908201527f5361666545524332303a204552433230206f7065726174696f6e20646964206e60408201527f6f74207375636365656400000000000000000000000000000000000000000000606082015260800190565b60208082526036908201527f5361666545524332303a20617070726f76652066726f6d206e6f6e2d7a65726f60408201527f20746f206e6f6e2d7a65726f20616c6c6f77616e636500000000000000000000606082015260800190565b6020808252602f908201527f416363657373436f6e74726f6c3a2063616e206f6e6c792072656e6f756e636560408201527f20726f6c657320666f722073656c660000000000000000000000000000000000606082015260800190565b918252602082015260400190565b60008582528460208301526001600160a01b038416604083015260806060830152611b2b6080830184611735565b9695505050505050565b60008219821115611b4857611b48611c21565b500190565b600082611b6857634e487b7160e01b81526012600452602481fd5b500490565b6000816000190483118215151615611b8757611b87611c21565b500290565b600082821015611b9e57611b9e611c21565b500390565b60005b83811015611bbe578181015183820152602001611ba6565b838111156112a25750506000910152565b600081611bde57611bde611c21565b506000190190565b600281046001821680611bfa57607f821691505b60208210811415611c1b57634e487b7160e01b600052602260045260246000fd5b50919050565b634e487b7160e01b600052601160045260246000fd5b6001600160a01b03811681146106b557600080fdfea2646970667358221220d25527f34021e23aaf1bca542deed51b768b287f959252673f2661b11e6ec38164736f6c63430008000033339759585899103d2ace64958e37e18ccb0504652c81d4a1b8aa80fe2126ab95",
  "devdoc": {
    "kind": "dev",
    "methods": {
      "getRoleAdmin(bytes32)": {
        "details": "Returns the admin role that controls `role`. See {grantRole} and {revokeRole}. To change a role's admin, use {_setRoleAdmin}."
      },
      "grantRole(bytes32,address)": {
        "details": "Grants `role` to `account`. If `account` had not been already granted `role`, emits a {RoleGranted} event. Requirements: - the caller must have ``role``'s admin role. May emit a {RoleGranted} event."
      },
      "hasRole(bytes32,address)": {
        "details": "Returns `true` if `account` has been granted `role`."
      },
      "renounceRole(bytes32,address)": {
        "details": "Revokes `role` from the calling account. Roles are often managed via {grantRole} and {revokeRole}: this function's purpose is to provide a mechanism for accounts to lose their privileges if they are compromised (such as when a trusted device is misplaced). If the calling account had been revoked `role`, emits a {RoleRevoked} event. Requirements: - the caller must be `account`. May emit a {RoleRevoked} event."
      },
      "revokeRole(bytes32,address)": {
        "details": "Revokes `role` from `account`. If `account` had been granted `role`, emits a {RoleRevoked} event. Requirements: - the caller must have ``role``'s admin role. May emit a {RoleRevoked} event."
      },
      "supportsInterface(bytes4)": {
        "details": "See {IERC165-supportsInterface}."
      }
    },
    "version": 1
  },
  "userdoc": {
    "kind": "user",
    "methods": {},
    "version": 1
  },
  "storageLayout": {
    "storage": [
      {
        "astId": 24,
        "contract": "src/contracts/adapters/DxSwapAdapter.sol:DxSwapAdapter",
        "label": "_roles",
        "offset": 0,
        "slot": "0",
        "type": "t_mapping(t_bytes32,t_struct(RoleData)19_storage)"
      },
      {
        "astId": 1452,
        "contract": "src/contracts/adapters/DxSwapAdapter.sol:DxSwapAdapter",
        "label": "swapGasEstimate",
        "offset": 0,
        "slot": "1",
        "type": "t_uint256"
      },
      {
        "astId": 1454,
        "contract": "src/contracts/adapters/DxSwapAdapter.sol:DxSwapAdapter",
        "label": "name",
        "offset": 0,
        "slot": "2",
        "type": "t_string_storage"
      }
    ],
    "types": {
      "t_address": {
        "encoding": "inplace",
        "label": "address",
        "numberOfBytes": "20"
      },
      "t_bool": {
        "encoding": "inplace",
        "label": "bool",
        "numberOfBytes": "1"
      },
      "t_bytes32": {
        "encoding": "inplace",
        "label": "bytes32",
        "numberOfBytes": "32"
      },
      "t_mapping(t_address,t_bool)": {
        "encoding": "mapping",
        "key": "t_address",
        "label": "mapping(address => bool)",
        "numberOfBytes": "32",
        "value": "t_bool"
      },
      "t_mapping(t_bytes32,t_struct(RoleData)19_storage)": {
        "encoding": "mapping",
        "key": "t_bytes32",
        "label": "mapping(bytes32 => struct AccessControl.RoleData)",
        "numberOfBytes": "32",
        "value": "t_struct(RoleData)19_storage"
      },
      "t_string_storage": {
        "encoding": "bytes",
        "label": "string",
        "numberOfBytes": "32"
      },
      "t_struct(RoleData)19_storage": {
        "encoding": "inplace",
        "label": "struct AccessControl.RoleData",
        "members": [
          {
            "astId": 16,
            "contract": "src/contracts/adapters/DxSwapAdapter.sol:DxSwapAdapter",
            "label": "members",
            "offset": 0,
            "slot": "0",
            "type": "t_mapping(t_address,t_bool)"
          },
          {
            "astId": 18,
            "contract": "src/contracts/adapters/DxSwapAdapter.sol:DxSwapAdapter",
            "label": "adminRole",
            "offset": 0,
            "slot": "1",
            "type": "t_bytes32"
          }
        ],
        "numberOfBytes": "64"
      },
      "t_uint256": {
        "encoding": "inplace",
        "label": "uint256",
        "numberOfBytes": "32"
      }
    }
  }
}