{
  "address": "0x4a6c794192831fB9F4782E61Bec05d6C5cC9F3eA",
  "abi": [
    {
      "inputs": [
        {
          "internalType": "string",
          "name": "_name",
          "type": "string"
        },
        {
          "internalType": "uint256",
          "name": "_swapGasEstimate",
          "type": "uint256"
        },
        {
          "internalType": "address",
          "name": "_pool",
          "type": "address"
        }
      ],
      "stateMutability": "nonpayable",
      "type": "constructor"
    },
    {
      "anonymous": false,
      "inputs": [
        {
          "indexed": true,
          "internalType": "address",
          "name": "_asset",
          "type": "address"
        },
        {
          "indexed": false,
          "internalType": "uint256",
          "name": "amount",
          "type": "uint256"
        }
      ],
      "name": "Recovered",
      "type": "event"
    },
    {
      "anonymous": false,
      "inputs": [
        {
          "indexed": true,
          "internalType": "bytes32",
          "name": "role",
          "type": "bytes32"
        },
        {
          "indexed": true,
          "internalType": "bytes32",
          "name": "previousAdminRole",
          "type": "bytes32"
        },
        {
          "indexed": true,
          "internalType": "bytes32",
          "name": "newAdminRole",
          "type": "bytes32"
        }
      ],
      "name": "RoleAdminChanged",
      "type": "event"
    },
    {
      "anonymous": false,
      "inputs": [
        {
          "indexed": true,
          "internalType": "bytes32",
          "name": "role",
          "type": "bytes32"
        },
        {
          "indexed": true,
          "internalType": "address",
          "name": "account",
          "type": "address"
        },
        {
          "indexed": true,
          "internalType": "address",
          "name": "sender",
          "type": "address"
        }
      ],
      "name": "RoleGranted",
      "type": "event"
    },
    {
      "anonymous": false,
      "inputs": [
        {
          "indexed": true,
          "internalType": "bytes32",
          "name": "role",
          "type": "bytes32"
        },
        {
          "indexed": true,
          "internalType": "address",
          "name": "account",
          "type": "address"
        },
        {
          "indexed": true,
          "internalType": "address",
          "name": "sender",
          "type": "address"
        }
      ],
      "name": "RoleRevoked",
      "type": "event"
    },
    {
      "anonymous": false,
      "inputs": [
        {
          "indexed": true,
          "internalType": "address",
          "name": "_adapter",
          "type": "address"
        },
        {
          "indexed": false,
          "internalType": "uint256",
          "name": "_newEstimate",
          "type": "uint256"
        }
      ],
      "name": "UpdatedGasEstimate",
      "type": "event"
    },
    {
      "anonymous": false,
      "inputs": [
        {
          "indexed": true,
          "internalType": "address",
          "name": "_tokenFrom",
          "type": "address"
        },
        {
          "indexed": true,
          "internalType": "address",
          "name": "_tokenTo",
          "type": "address"
        },
        {
          "indexed": false,
          "internalType": "uint256",
          "name": "_amountIn",
          "type": "uint256"
        },
        {
          "indexed": false,
          "internalType": "uint256",
          "name": "_amountOut",
          "type": "uint256"
        }
      ],
      "name": "YakAdapterSwap",
      "type": "event"
    },
    {
      "inputs": [],
      "name": "DEFAULT_ADMIN_ROLE",
      "outputs": [
        {
          "internalType": "bytes32",
          "name": "",
          "type": "bytes32"
        }
      ],
      "stateMutability": "view",
      "type": "function"
    },
    {
      "inputs": [],
      "name": "MAINTAINER_ROLE",
      "outputs": [
        {
          "internalType": "bytes32",
          "name": "",
          "type": "bytes32"
        }
      ],
      "stateMutability": "view",
      "type": "function"
    },
    {
      "inputs": [
        {
          "internalType": "address",
          "name": "addedMaintainer",
          "type": "address"
        }
      ],
      "name": "addMaintainer",
      "outputs": [],
      "stateMutability": "nonpayable",
      "type": "function"
    },
    {
      "inputs": [
        {
          "internalType": "bytes32",
          "name": "role",
          "type": "bytes32"
        }
      ],
      "name": "getRoleAdmin",
      "outputs": [
        {
          "internalType": "bytes32",
          "name": "",
          "type": "bytes32"
        }
      ],
      "stateMutability": "view",
      "type": "function"
    },
    {
      "inputs": [
        {
          "internalType": "bytes32",
          "name": "role",
          "type": "bytes32"
        },
        {
          "internalType": "address",
          "name": "account",
          "type": "address"
        }
      ],
      "name": "grantRole",
      "outputs": [],
      "stateMutability": "nonpayable",
      "type": "function"
    },
    {
      "inputs": [
        {
          "internalType": "bytes32",
          "name": "role",
          "type": "bytes32"
        },
        {
          "internalType": "address",
          "name": "account",
          "type": "address"
        }
      ],
      "name": "hasRole",
      "outputs": [
        {
          "internalType": "bool",
          "name": "",
          "type": "bool"
        }
      ],
      "stateMutability": "view",
      "type": "function"
    },
    {
      "inputs": [],
      "name": "name",
      "outputs": [
        {
          "internalType": "string",
          "name": "",
          "type": "string"
        }
      ],
      "stateMutability": "view",
      "type": "function"
    },
    {
      "inputs": [],
      "name": "pool",
      "outputs": [
        {
          "internalType": "address",
          "name": "",
          "type": "address"
        }
      ],
      "stateMutability": "view",
      "type": "function"
    },
    {
      "inputs": [
        {
          "internalType": "uint256",
          "name": "_amountIn",
          "type": "uint256"
        },
        {
          "internalType": "address",
          "name": "_tokenIn",
          "type": "address"
        },
        {
          "internalType": "address",
          "name": "_tokenOut",
          "type": "address"
        }
      ],
      "name": "query",
      "outputs": [
        {
          "internalType": "uint256",
          "name": "",
          "type": "uint256"
        }
      ],
      "stateMutability": "view",
      "type": "function"
    },
    {
      "inputs": [],
      "name": "rebateCollector",
      "outputs": [
        {
          "internalType": "address",
          "name": "",
          "type": "address"
        }
      ],
      "stateMutability": "view",
      "type": "function"
    },
    {
      "inputs": [
        {
          "internalType": "uint256",
          "name": "_amount",
          "type": "uint256"
        }
      ],
      "name": "recoverAVAX",
      "outputs": [],
      "stateMutability": "nonpayable",
      "type": "function"
    },
    {
      "inputs": [
        {
          "internalType": "address",
          "name": "_tokenAddress",
          "type": "address"
        },
        {
          "internalType": "uint256",
          "name": "_tokenAmount",
          "type": "uint256"
        }
      ],
      "name": "recoverERC20",
      "outputs": [],
      "stateMutability": "nonpayable",
      "type": "function"
    },
    {
      "inputs": [
        {
          "internalType": "address",
          "name": "removedMaintainer",
          "type": "address"
        }
      ],
      "name": "removeMaintainer",
      "outputs": [],
      "stateMutability": "nonpayable",
      "type": "function"
    },
    {
      "inputs": [
        {
          "internalType": "bytes32",
          "name": "role",
          "type": "bytes32"
        },
        {
          "internalType": "address",
          "name": "account",
          "type": "address"
        }
      ],
      "name": "renounceRole",
      "outputs": [],
      "stateMutability": "nonpayable",
      "type": "function"
    },
    {
      "inputs": [
        {
          "internalType": "bytes32",
          "name": "role",
          "type": "bytes32"
        }
      ],
      "name": "renounceRole",
      "outputs": [],
      "stateMutability": "nonpayable",
      "type": "function"
    },
    {
      "inputs": [
        {
          "internalType": "address",
          "name": "_token",
          "type": "address"
        },
        {
          "internalType": "address",
          "name": "_spender",
          "type": "address"
        }
      ],
      "name": "revokeAllowance",
      "outputs": [],
      "stateMutability": "nonpayable",
      "type": "function"
    },
    {
      "inputs": [
        {
          "internalType": "bytes32",
          "name": "role",
          "type": "bytes32"
        },
        {
          "internalType": "address",
          "name": "account",
          "type": "address"
        }
      ],
      "name": "revokeRole",
      "outputs": [],
      "stateMutability": "nonpayable",
      "type": "function"
    },
    {
      "inputs": [
        {
          "internalType": "address",
          "name": "_rebateCollector",
          "type": "address"
        }
      ],
      "name": "setRebateCollector",
      "outputs": [],
      "stateMutability": "nonpayable",
      "type": "function"
    },
    {
      "inputs": [
        {
          "internalType": "uint256",
          "name": "_estimate",
          "type": "uint256"
        }
      ],
      "name": "setSwapGasEstimate",
      "outputs": [],
      "stateMutability": "nonpayable",
      "type": "function"
    },
    {
      "inputs": [
        {
          "internalType": "bytes4",
          "name": "interfaceId",
          "type": "bytes4"
        }
      ],
      "name": "supportsInterface",
      "outputs": [
        {
          "internalType": "bool",
          "name": "",
          "type": "bool"
        }
      ],
      "stateMutability": "view",
      "type": "function"
    },
    {
      "inputs": [
        {
          "internalType": "uint256",
          "name": "_amountIn",
          "type": "uint256"
        },
        {
          "internalType": "uint256",
          "name": "_amountOut",
          "type": "uint256"
        },
        {
          "internalType": "address",
          "name": "_fromToken",
          "type": "address"
        },
        {
          "internalType": "address",
          "name": "_toToken",
          "type": "address"
        },
        {
          "internalType": "address",
          "name": "_to",
          "type": "address"
        }
      ],
      "name": "swap",
      "outputs": [],
      "stateMutability": "nonpayable",
      "type": "function"
    },
    {
      "inputs": [],
      "name": "swapGasEstimate",
      "outputs": [
        {
          "internalType": "uint256",
          "name": "",
          "type": "uint256"
        }
      ],
      "stateMutability": "view",
      "type": "function"
    },
    {
      "inputs": [
        {
          "internalType": "address",
          "name": "newOwner",
          "type": "address"
        }
      ],
      "name": "transferOwnership",
      "outputs": [],
      "stateMutability": "nonpayable",
      "type": "function"
    },
    {
      "stateMutability": "payable",
      "type": "receive"
    }
  ],
  "transactionHash": "0xef02b5861a8ea1c29be08edd9aeeb75f964c861fd7596e27229f5fb35c8fec0a",
  "args": [
    "WoofiV2Adapter",
    410000,
    "0xeFF23B4bE1091b53205E35f3AfCD9C7182bf3062"
  ],
  "solcInputHash": "2f7c552725bac4cbb59f7eeca6343ccc",
  "bytecode": "0x60a06040523480156200001157600080fd5b5060405162001fd838038062001fd8833981016040819052620000349162000314565b82826000620000426200009e565b905062000051600082620000a2565b6200006c60008051602062001fb883398151915282620000a2565b506200007882620000b2565b6200008381620000f1565b505060601b6001600160601b03191660805250620005129050565b3390565b620000ae82826200019e565b5050565b8051620000dc5760405162461bcd60e51b8152600401620000d39062000448565b60405180910390fd5b8051620000ae90600290602084019062000251565b6000620000fd6200009e565b90506200011a60008051602062001fb88339815191528262000228565b620001395760405162461bcd60e51b8152600401620000d39062000400565b81620001595760405162461bcd60e51b8152600401620000d3906200047f565b600182905560405130907ff43f23b7a28e6f8ce6843a21bd7b48bce778aa913b8c8cf459edf7d770e8d38a9062000192908590620004b6565b60405180910390a25050565b620001aa828262000228565b620000ae576000828152602081815260408083206001600160a01b03851684529091529020805460ff19166001179055620001e46200009e565b6001600160a01b0316816001600160a01b0316837f2f8788117e7eff1d82e926ec794901d17c78024a50270940304540a733656f0d60405160405180910390a45050565b6000918252602082815260408084206001600160a01b0393909316845291905290205460ff1690565b8280546200025f90620004bf565b90600052602060002090601f016020900481019282620002835760008555620002ce565b82601f106200029e57805160ff1916838001178555620002ce565b82800160010185558215620002ce579182015b82811115620002ce578251825591602001919060010190620002b1565b50620002dc929150620002e0565b5090565b5b80821115620002dc5760008155600101620002e1565b80516001600160a01b03811681146200030f57600080fd5b919050565b60008060006060848603121562000329578283fd5b83516001600160401b038082111562000340578485fd5b818601915086601f83011262000354578485fd5b815181811115620003695762000369620004fc565b6040516020601f8301601f1916820181018481118382101715620003915762000391620004fc565b60405282825284830181018a1015620003a8578788fd5b8793505b82841015620003cb5784840181015182850182015292830192620003ac565b82841115620003dc57878184840101525b8801519096509450620003f7925050604086019050620002f7565b90509250925092565b60208082526028908201527f4d61696e7461696e61626c653a2043616c6c6572206973206e6f742061206d6160408201526734b73a30b4b732b960c11b606082015260800190565b60208082526014908201527f496e76616c69642061646170746572206e616d65000000000000000000000000604082015260600190565b60208082526014908201527f496e76616c6964206761732d657374696d617465000000000000000000000000604082015260600190565b90815260200190565b600281046001821680620004d457607f821691505b60208210811415620004f657634e487b7160e01b600052602260045260246000fd5b50919050565b634e487b7160e01b600052604160045260246000fd5b60805160601c611a72620005466000396000818161054301528181610eac01528181610f040152610fde0152611a726000f3fe6080604052600436106101845760003560e01c806384a33e63116100d6578063d547741f1161007f578063ef99893a11610059578063ef99893a14610418578063f2fde38b14610438578063f8742254146104585761018b565b8063d547741f146103b8578063d8baf7cf146103d8578063eab90da6146103f85761018b565b806391d14854116100b057806391d1485414610363578063a217fddf14610383578063c2f92d44146103985761018b565b806384a33e63146103035780638980f11f146103235780638bb9c5bf146103435761018b565b806336568abe1161013857806369cff80d1161011257806369cff80d146102ae5780636b453c1f146102c35780637ae26773146102e35761018b565b806336568abe146102595780634ebb79161461027957806354f03cdd146102995761018b565b806316f0115b1161016957806316f0115b146101e8578063248a9ca31461020a5780632f2ff15d146102375761018b565b806301ffc9a71461019057806306fdde03146101c65761018b565b3661018b57005b600080fd5b34801561019c57600080fd5b506101b06101ab36600461146f565b61046d565b6040516101bd9190611682565b60405180910390f35b3480156101d257600080fd5b506101db6104b3565b6040516101bd9190611696565b3480156101f457600080fd5b506101fd610541565b6040516101bd91906115dd565b34801561021657600080fd5b5061022a610225366004611435565b610565565b6040516101bd919061168d565b34801561024357600080fd5b5061025761025236600461144d565b61057a565b005b34801561026557600080fd5b5061025761027436600461144d565b61059b565b34801561028557600080fd5b50610257610294366004611435565b6105ea565b3480156102a557600080fd5b506101fd6106d0565b3480156102ba57600080fd5b5061022a6106df565b3480156102cf57600080fd5b506102576102de3660046113a0565b6106e5565b3480156102ef57600080fd5b506102576102fe3660046113ba565b610712565b34801561030f57600080fd5b5061025761031e366004611435565b610779565b34801561032f57600080fd5b5061025761033e3660046113ec565b61081f565b34801561034f57600080fd5b5061025761035e366004611435565b6108eb565b34801561036f57600080fd5b506101b061037e36600461144d565b610901565b34801561038f57600080fd5b5061022a61092a565b3480156103a457600080fd5b506102576103b33660046113a0565b61092f565b3480156103c457600080fd5b506102576103d336600461144d565b6109bc565b3480156103e457600080fd5b506102576103f33660046113a0565b6109d8565b34801561040457600080fd5b506102576104133660046114ea565b610a02565b34801561042457600080fd5b5061022a6104333660046114af565b610baa565b34801561044457600080fd5b506102576104533660046113a0565b610bc1565b34801561046457600080fd5b5061022a610be3565b60006001600160e01b031982167f7965db0b0000000000000000000000000000000000000000000000000000000014806104ab57506104ab82610c07565b90505b919050565b600280546104c0906119eb565b80601f01602080910402602001604051908101604052809291908181526020018280546104ec906119eb565b80156105395780601f1061050e57610100808354040283529160200191610539565b820191906000526020600020905b81548152906001019060200180831161051c57829003601f168201915b505050505081565b7f000000000000000000000000000000000000000000000000000000000000000081565b60009081526020819052604090206001015490565b61058382610565565b61058c81610c39565b6105968383610c4a565b505050565b6105a3610ccf565b6001600160a01b0316816001600160a01b0316146105dc5760405162461bcd60e51b81526004016105d3906118ef565b60405180910390fd5b6105e68282610cd3565b5050565b60006105f4610ccf565b90506106207f339759585899103d2ace64958e37e18ccb0504652c81d4a1b8aa80fe2126ab9582610901565b61063c5760405162461bcd60e51b81526004016105d390611735565b6000821161065c5760405162461bcd60e51b81526004016105d390611792565b604051339083156108fc029084906000818181858888f19350505050158015610689573d6000803e3d6000fd5b5060006001600160a01b03167f8c1256b8896378cd5044f80c202f9772b9d77dc85c8a6eb51967210b09bfaa28836040516106c4919061168d565b60405180910390a25050565b6003546001600160a01b031681565b60015481565b61070f7f339759585899103d2ace64958e37e18ccb0504652c81d4a1b8aa80fe2126ab958261057a565b50565b600061071c610ccf565b90506107487f339759585899103d2ace64958e37e18ccb0504652c81d4a1b8aa80fe2126ab9582610901565b6107645760405162461bcd60e51b81526004016105d390611735565b6105966001600160a01b038416836000610d56565b6000610783610ccf565b90506107af7f339759585899103d2ace64958e37e18ccb0504652c81d4a1b8aa80fe2126ab9582610901565b6107cb5760405162461bcd60e51b81526004016105d390611735565b816107e85760405162461bcd60e51b81526004016105d3906117fe565b600182905560405130907ff43f23b7a28e6f8ce6843a21bd7b48bce778aa913b8c8cf459edf7d770e8d38a906106c490859061168d565b6000610829610ccf565b90506108557f339759585899103d2ace64958e37e18ccb0504652c81d4a1b8aa80fe2126ab9582610901565b6108715760405162461bcd60e51b81526004016105d390611735565b600082116108915760405162461bcd60e51b81526004016105d390611792565b6108a56001600160a01b0384163384610e7e565b826001600160a01b03167f8c1256b8896378cd5044f80c202f9772b9d77dc85c8a6eb51967210b09bfaa28836040516108de919061168d565b60405180910390a2505050565b60006108f5610ccf565b90506105e6828261059b565b6000918252602082815260408084206001600160a01b0393909316845291905290205460ff1690565b600081565b6000610939610ccf565b90506109657f339759585899103d2ace64958e37e18ccb0504652c81d4a1b8aa80fe2126ab9582610901565b6109815760405162461bcd60e51b81526004016105d390611735565b50600380547fffffffffffffffffffffffff0000000000000000000000000000000000000000166001600160a01b0392909216919091179055565b6109c582610565565b6109ce81610c39565b6105968383610cd3565b61070f7f339759585899103d2ace64958e37e18ccb0504652c81d4a1b8aa80fe2126ab95826109bc565b6040517f70a082310000000000000000000000000000000000000000000000000000000081526000906001600160a01b038416906370a0823190610a4a9085906004016115dd565b60206040518083038186803b158015610a6257600080fd5b505afa158015610a76573d6000803e3d6000fd5b505050506040513d601f19601f82011682018060405250810190610a9a9190611497565b9050610aa98686868686610e9d565b600081846001600160a01b03166370a08231856040518263ffffffff1660e01b8152600401610ad891906115dd565b60206040518083038186803b158015610af057600080fd5b505afa158015610b04573d6000803e3d6000fd5b505050506040513d601f19601f82011682018060405250810190610b289190611497565b610b329190611991565b905085811015610b545760405162461bcd60e51b81526004016105d3906116c9565b836001600160a01b0316856001600160a01b03167fe2bdbc6b7225eb0a972ac943c485a6cc05f7c6811838bce8903f23200fb744fa8989604051610b9992919061194c565b60405180910390a350505050505050565b6000610bb7848484610f9f565b90505b9392505050565b6000610bcb610ccf565b9050610bd860008361057a565b6105e660008261059b565b7f339759585899103d2ace64958e37e18ccb0504652c81d4a1b8aa80fe2126ab9581565b6001600160e01b031981167f01ffc9a70000000000000000000000000000000000000000000000000000000014919050565b61070f81610c45610ccf565b611072565b610c548282610901565b6105e6576000828152602081815260408083206001600160a01b03851684529091529020805460ff19166001179055610c8b610ccf565b6001600160a01b0316816001600160a01b0316837f2f8788117e7eff1d82e926ec794901d17c78024a50270940304540a733656f0d60405160405180910390a45050565b3390565b610cdd8282610901565b156105e6576000828152602081815260408083206001600160a01b03851684529091529020805460ff19169055610d12610ccf565b6001600160a01b0316816001600160a01b0316837ff6391f5c32d9c69d2a47ea670b442974b53935d1edc7fd64eb21e047a839171b60405160405180910390a45050565b801580610df757506040517fdd62ed3e0000000000000000000000000000000000000000000000000000000081526001600160a01b0384169063dd62ed3e90610da590309086906004016115f1565b60206040518083038186803b158015610dbd57600080fd5b505afa158015610dd1573d6000803e3d6000fd5b505050506040513d601f19601f82011682018060405250810190610df59190611497565b155b610e135760405162461bcd60e51b81526004016105d390611892565b6105968363095ea7b360e01b8484604051602401610e32929190611669565b60408051601f198184030181529190526020810180517bffffffffffffffffffffffffffffffffffffffffffffffffffffffff166001600160e01b0319909316929092179091526110d6565b6105968363a9059cbb60e01b8484604051602401610e32929190611669565b610ed16001600160a01b0384167f000000000000000000000000000000000000000000000000000000000000000087610e7e565b6003546040517f7dc203820000000000000000000000000000000000000000000000000000000081526001600160a01b037f0000000000000000000000000000000000000000000000000000000000000000811692637dc2038292610f4592889288928c928c928a9291169060040161162f565b602060405180830381600087803b158015610f5f57600080fd5b505af1158015610f73573d6000803e3d6000fd5b505050506040513d601f19601f82011682018060405250810190610f979190611497565b505050505050565b600083610fae57506000610bba565b6040517ff58a435f0000000000000000000000000000000000000000000000000000000081526001600160a01b037f0000000000000000000000000000000000000000000000000000000000000000169063f58a435f906110179086908690899060040161160b565b60206040518083038186803b15801561102f57600080fd5b505afa92505050801561105f575060408051601f3d908101601f1916820190925261105c91810190611497565b60015b61106b57506000610bba565b9050610bba565b61107c8282610901565b6105e657611094816001600160a01b03166014611192565b61109f836020611192565b6040516020016110b092919061155c565b60408051601f198184030181529082905262461bcd60e51b82526105d391600401611696565b600080836001600160a01b0316836040516110f19190611540565b6000604051808303816000865af19150503d806000811461112e576040519150601f19603f3d011682016040523d82523d6000602084013e611133565b606091505b5091509150816111555760405162461bcd60e51b81526004016105d3906117c9565b80511561118c57808060200190518101906111709190611415565b61118c5760405162461bcd60e51b81526004016105d390611835565b50505050565b606060006111a1836002611972565b6111ac90600261195a565b67ffffffffffffffff8111156111d257634e487b7160e01b600052604160045260246000fd5b6040519080825280601f01601f1916602001820160405280156111fc576020820181803683370190505b5090507f30000000000000000000000000000000000000000000000000000000000000008160008151811061124157634e487b7160e01b600052603260045260246000fd5b60200101906001600160f81b031916908160001a9053507f78000000000000000000000000000000000000000000000000000000000000008160018151811061129a57634e487b7160e01b600052603260045260246000fd5b60200101906001600160f81b031916908160001a90535060006112be846002611972565b6112c990600161195a565b90505b600181111561136a577f303132333435363738396162636465660000000000000000000000000000000085600f166010811061131857634e487b7160e01b600052603260045260246000fd5b1a60f81b82828151811061133c57634e487b7160e01b600052603260045260246000fd5b60200101906001600160f81b031916908160001a90535060049490941c93611363816119d4565b90506112cc565b508315610bba5760405162461bcd60e51b81526004016105d390611700565b80356001600160a01b03811681146104ae57600080fd5b6000602082840312156113b1578081fd5b610bba82611389565b600080604083850312156113cc578081fd5b6113d583611389565b91506113e360208401611389565b90509250929050565b600080604083850312156113fe578182fd5b61140783611389565b946020939093013593505050565b600060208284031215611426578081fd5b81518015158114610bba578182fd5b600060208284031215611446578081fd5b5035919050565b6000806040838503121561145f578182fd5b823591506113e360208401611389565b600060208284031215611480578081fd5b81356001600160e01b031981168114610bba578182fd5b6000602082840312156114a8578081fd5b5051919050565b6000806000606084860312156114c3578081fd5b833592506114d360208501611389565b91506114e160408501611389565b90509250925092565b600080600080600060a08688031215611501578081fd5b853594506020860135935061151860408701611389565b925061152660608701611389565b915061153460808701611389565b90509295509295909350565b600082516115528184602087016119a8565b9190910192915050565b60007f416363657373436f6e74726f6c3a206163636f756e7420000000000000000000825283516115948160178501602088016119a8565b7f206973206d697373696e6720726f6c652000000000000000000000000000000060179184019182015283516115d18160288401602088016119a8565b01602801949350505050565b6001600160a01b0391909116815260200190565b6001600160a01b0392831681529116602082015260400190565b6001600160a01b039384168152919092166020820152604081019190915260600190565b6001600160a01b0396871681529486166020860152604085019390935260608401919091528316608083015290911660a082015260c00190565b6001600160a01b03929092168252602082015260400190565b901515815260200190565b90815260200190565b60006020825282518060208401526116b58160408501602087016119a8565b601f01601f19169190910160400192915050565b60208082526017908201527f496e73756666696369656e7420616d6f756e742d6f7574000000000000000000604082015260600190565b6020808252818101527f537472696e67733a20686578206c656e67746820696e73756666696369656e74604082015260600190565b60208082526028908201527f4d61696e7461696e61626c653a2043616c6c6572206973206e6f742061206d6160408201527f696e7461696e6572000000000000000000000000000000000000000000000000606082015260800190565b6020808252601e908201527f59616b416461707465723a204e6f7468696e6720746f207265636f7665720000604082015260600190565b6020808252818101527f5361666545524332303a206c6f772d6c6576656c2063616c6c206661696c6564604082015260600190565b60208082526014908201527f496e76616c6964206761732d657374696d617465000000000000000000000000604082015260600190565b6020808252602a908201527f5361666545524332303a204552433230206f7065726174696f6e20646964206e60408201527f6f74207375636365656400000000000000000000000000000000000000000000606082015260800190565b60208082526036908201527f5361666545524332303a20617070726f76652066726f6d206e6f6e2d7a65726f60408201527f20746f206e6f6e2d7a65726f20616c6c6f77616e636500000000000000000000606082015260800190565b6020808252602f908201527f416363657373436f6e74726f6c3a2063616e206f6e6c792072656e6f756e636560408201527f20726f6c657320666f722073656c660000000000000000000000000000000000606082015260800190565b918252602082015260400190565b6000821982111561196d5761196d611a26565b500190565b600081600019048311821515161561198c5761198c611a26565b500290565b6000828210156119a3576119a3611a26565b500390565b60005b838110156119c35781810151838201526020016119ab565b8381111561118c5750506000910152565b6000816119e3576119e3611a26565b506000190190565b6002810460018216806119ff57607f821691505b60208210811415611a2057634e487b7160e01b600052602260045260246000fd5b50919050565b634e487b7160e01b600052601160045260246000fdfea2646970667358221220bfdb3106b6343f5d540aaeeb3ddeaf19fc4674171c534c93ea227a62f55b42ca64736f6c63430008000033339759585899103d2ace64958e37e18ccb0504652c81d4a1b8aa80fe2126ab95",
  "devdoc": {
    "kind": "dev",
    "methods": {
      "getRoleAdmin(bytes32)": {
        "details": "Returns the admin role that controls `role`. See {grantRole} and {revokeRole}. To change a role's admin, use {_setRoleAdmin}."
      },
      "grantRole(bytes32,address)": {
        "details": "Grants `role` to `account`. If `account` had not been already granted `role`, emits a {RoleGranted} event. Requirements: - the caller must have ``role``'s admin role. May emit a {RoleGranted} event."
      },
      "hasRole(bytes32,address)": {
        "details": "Returns `true` if `account` has been granted `role`."
      },
      "renounceRole(bytes32,address)": {
        "details": "Revokes `role` from the calling account. Roles are often managed via {grantRole} and {revokeRole}: this function's purpose is to provide a mechanism for accounts to lose their privileges if they are compromised (such as when a trusted device is misplaced). If the calling account had been revoked `role`, emits a {RoleRevoked} event. Requirements: - the caller must be `account`. May emit a {RoleRevoked} event."
      },
      "revokeRole(bytes32,address)": {
        "details": "Revokes `role` from `account`. If `account` had been granted `role`, emits a {RoleRevoked} event. Requirements: - the caller must have ``role``'s admin role. May emit a {RoleRevoked} event."
      },
      "supportsInterface(bytes4)": {
        "details": "See {IERC165-supportsInterface}."
      }
    },
    "version": 1
  },
  "userdoc": {
    "kind": "user",
    "methods": {},
    "version": 1
  },
  "storageLayout": {
    "storage": [
      {
        "astId": 24,
        "contract": "src/contracts/adapters/WoofiV2Adapter.sol:WoofiV2Adapter",
        "label": "_roles",
        "offset": 0,
        "slot": "0",
        "type": "t_mapping(t_bytes32,t_struct(RoleData)19_storage)"
      },
      {
        "astId": 1452,
        "contract": "src/contracts/adapters/WoofiV2Adapter.sol:WoofiV2Adapter",
        "label": "swapGasEstimate",
        "offset": 0,
        "slot": "1",
        "type": "t_uint256"
      },
      {
        "astId": 1454,
        "contract": "src/contracts/adapters/WoofiV2Adapter.sol:WoofiV2Adapter",
        "label": "name",
        "offset": 0,
        "slot": "2",
        "type": "t_string_storage"
      },
      {
        "astId": 13939,
        "contract": "src/contracts/adapters/WoofiV2Adapter.sol:WoofiV2Adapter",
        "label": "rebateCollector",
        "offset": 0,
        "slot": "3",
        "type": "t_address"
      }
    ],
    "types": {
      "t_address": {
        "encoding": "inplace",
        "label": "address",
        "numberOfBytes": "20"
      },
      "t_bool": {
        "encoding": "inplace",
        "label": "bool",
        "numberOfBytes": "1"
      },
      "t_bytes32": {
        "encoding": "inplace",
        "label": "bytes32",
        "numberOfBytes": "32"
      },
      "t_mapping(t_address,t_bool)": {
        "encoding": "mapping",
        "key": "t_address",
        "label": "mapping(address => bool)",
        "numberOfBytes": "32",
        "value": "t_bool"
      },
      "t_mapping(t_bytes32,t_struct(RoleData)19_storage)": {
        "encoding": "mapping",
        "key": "t_bytes32",
        "label": "mapping(bytes32 => struct AccessControl.RoleData)",
        "numberOfBytes": "32",
        "value": "t_struct(RoleData)19_storage"
      },
      "t_string_storage": {
        "encoding": "bytes",
        "label": "string",
        "numberOfBytes": "32"
      },
      "t_struct(RoleData)19_storage": {
        "encoding": "inplace",
        "label": "struct AccessControl.RoleData",
        "members": [
          {
            "astId": 16,
            "contract": "src/contracts/adapters/WoofiV2Adapter.sol:WoofiV2Adapter",
            "label": "members",
            "offset": 0,
            "slot": "0",
            "type": "t_mapping(t_address,t_bool)"
          },
          {
            "astId": 18,
            "contract": "src/contracts/adapters/WoofiV2Adapter.sol:WoofiV2Adapter",
            "label": "adminRole",
            "offset": 0,
            "slot": "1",
            "type": "t_bytes32"
          }
        ],
        "numberOfBytes": "64"
      },
      "t_uint256": {
        "encoding": "inplace",
        "label": "uint256",
        "numberOfBytes": "32"
      }
    }
  }
}