{
  "address": "0x19BAd0f0038fB22b59f1E858fb8B3Ad7A1380957",
  "abi": [
    {
      "inputs": [
        {
          "internalType": "address",
          "name": "_router",
          "type": "address"
        }
      ],
      "stateMutability": "nonpayable",
      "type": "constructor"
    },
    {
      "anonymous": false,
      "inputs": [
        {
          "indexed": true,
          "internalType": "bytes32",
          "name": "role",
          "type": "bytes32"
        },
        {
          "indexed": true,
          "internalType": "bytes32",
          "name": "previousAdminRole",
          "type": "bytes32"
        },
        {
          "indexed": true,
          "internalType": "bytes32",
          "name": "newAdminRole",
          "type": "bytes32"
        }
      ],
      "name": "RoleAdminChanged",
      "type": "event"
    },
    {
      "anonymous": false,
      "inputs": [
        {
          "indexed": true,
          "internalType": "bytes32",
          "name": "role",
          "type": "bytes32"
        },
        {
          "indexed": true,
          "internalType": "address",
          "name": "account",
          "type": "address"
        },
        {
          "indexed": true,
          "internalType": "address",
          "name": "sender",
          "type": "address"
        }
      ],
      "name": "RoleGranted",
      "type": "event"
    },
    {
      "anonymous": false,
      "inputs": [
        {
          "indexed": true,
          "internalType": "bytes32",
          "name": "role",
          "type": "bytes32"
        },
        {
          "indexed": true,
          "internalType": "address",
          "name": "account",
          "type": "address"
        },
        {
          "indexed": true,
          "internalType": "address",
          "name": "sender",
          "type": "address"
        }
      ],
      "name": "RoleRevoked",
      "type": "event"
    },
    {
      "inputs": [],
      "name": "DEFAULT_ADMIN_ROLE",
      "outputs": [
        {
          "internalType": "bytes32",
          "name": "",
          "type": "bytes32"
        }
      ],
      "stateMutability": "view",
      "type": "function"
    },
    {
      "inputs": [],
      "name": "MAINTAINER_ROLE",
      "outputs": [
        {
          "internalType": "bytes32",
          "name": "",
          "type": "bytes32"
        }
      ],
      "stateMutability": "view",
      "type": "function"
    },
    {
      "inputs": [
        {
          "internalType": "address",
          "name": "addedMaintainer",
          "type": "address"
        }
      ],
      "name": "addMaintainer",
      "outputs": [],
      "stateMutability": "nonpayable",
      "type": "function"
    },
    {
      "inputs": [
        {
          "internalType": "uint256",
          "name": "amountIn",
          "type": "uint256"
        },
        {
          "internalType": "address",
          "name": "tokenIn",
          "type": "address"
        },
        {
          "internalType": "address",
          "name": "wrapper",
          "type": "address"
        },
        {
          "internalType": "uint256",
          "name": "maxSteps",
          "type": "uint256"
        },
        {
          "internalType": "uint256",
          "name": "gasPrice",
          "type": "uint256"
        }
      ],
      "name": "findBestPathAndWrap",
      "outputs": [
        {
          "components": [
            {
              "internalType": "uint256[]",
              "name": "amounts",
              "type": "uint256[]"
            },
            {
              "internalType": "address[]",
              "name": "adapters",
              "type": "address[]"
            },
            {
              "internalType": "address[]",
              "name": "path",
              "type": "address[]"
            },
            {
              "internalType": "uint256",
              "name": "gasEstimate",
              "type": "uint256"
            }
          ],
          "internalType": "struct FormattedOffer",
          "name": "bestOffer",
          "type": "tuple"
        }
      ],
      "stateMutability": "view",
      "type": "function"
    },
    {
      "inputs": [
        {
          "internalType": "bytes32",
          "name": "role",
          "type": "bytes32"
        }
      ],
      "name": "getRoleAdmin",
      "outputs": [
        {
          "internalType": "bytes32",
          "name": "",
          "type": "bytes32"
        }
      ],
      "stateMutability": "view",
      "type": "function"
    },
    {
      "inputs": [
        {
          "internalType": "bytes32",
          "name": "role",
          "type": "bytes32"
        },
        {
          "internalType": "address",
          "name": "account",
          "type": "address"
        }
      ],
      "name": "grantRole",
      "outputs": [],
      "stateMutability": "nonpayable",
      "type": "function"
    },
    {
      "inputs": [
        {
          "internalType": "bytes32",
          "name": "role",
          "type": "bytes32"
        },
        {
          "internalType": "address",
          "name": "account",
          "type": "address"
        }
      ],
      "name": "hasRole",
      "outputs": [
        {
          "internalType": "bool",
          "name": "",
          "type": "bool"
        }
      ],
      "stateMutability": "view",
      "type": "function"
    },
    {
      "inputs": [
        {
          "internalType": "address",
          "name": "removedMaintainer",
          "type": "address"
        }
      ],
      "name": "removeMaintainer",
      "outputs": [],
      "stateMutability": "nonpayable",
      "type": "function"
    },
    {
      "inputs": [
        {
          "internalType": "bytes32",
          "name": "role",
          "type": "bytes32"
        },
        {
          "internalType": "address",
          "name": "account",
          "type": "address"
        }
      ],
      "name": "renounceRole",
      "outputs": [],
      "stateMutability": "nonpayable",
      "type": "function"
    },
    {
      "inputs": [
        {
          "internalType": "bytes32",
          "name": "role",
          "type": "bytes32"
        }
      ],
      "name": "renounceRole",
      "outputs": [],
      "stateMutability": "nonpayable",
      "type": "function"
    },
    {
      "inputs": [
        {
          "internalType": "bytes32",
          "name": "role",
          "type": "bytes32"
        },
        {
          "internalType": "address",
          "name": "account",
          "type": "address"
        }
      ],
      "name": "revokeRole",
      "outputs": [],
      "stateMutability": "nonpayable",
      "type": "function"
    },
    {
      "inputs": [],
      "name": "router",
      "outputs": [
        {
          "internalType": "contract IYakRouter",
          "name": "",
          "type": "address"
        }
      ],
      "stateMutability": "view",
      "type": "function"
    },
    {
      "inputs": [
        {
          "internalType": "address",
          "name": "_router",
          "type": "address"
        }
      ],
      "name": "setRouter",
      "outputs": [],
      "stateMutability": "nonpayable",
      "type": "function"
    },
    {
      "inputs": [
        {
          "internalType": "bytes4",
          "name": "interfaceId",
          "type": "bytes4"
        }
      ],
      "name": "supportsInterface",
      "outputs": [
        {
          "internalType": "bool",
          "name": "",
          "type": "bool"
        }
      ],
      "stateMutability": "view",
      "type": "function"
    },
    {
      "inputs": [
        {
          "internalType": "address",
          "name": "newOwner",
          "type": "address"
        }
      ],
      "name": "transferOwnership",
      "outputs": [],
      "stateMutability": "nonpayable",
      "type": "function"
    },
    {
      "inputs": [
        {
          "internalType": "uint256",
          "name": "amountIn",
          "type": "uint256"
        },
        {
          "internalType": "address",
          "name": "tokenOut",
          "type": "address"
        },
        {
          "internalType": "address",
          "name": "wrapper",
          "type": "address"
        },
        {
          "internalType": "uint256",
          "name": "maxSteps",
          "type": "uint256"
        },
        {
          "internalType": "uint256",
          "name": "gasPrice",
          "type": "uint256"
        }
      ],
      "name": "unwrapAndFindBestPath",
      "outputs": [
        {
          "components": [
            {
              "internalType": "uint256[]",
              "name": "amounts",
              "type": "uint256[]"
            },
            {
              "internalType": "address[]",
              "name": "adapters",
              "type": "address[]"
            },
            {
              "internalType": "address[]",
              "name": "path",
              "type": "address[]"
            },
            {
              "internalType": "uint256",
              "name": "gasEstimate",
              "type": "uint256"
            }
          ],
          "internalType": "struct FormattedOffer",
          "name": "bestOffer",
          "type": "tuple"
        }
      ],
      "stateMutability": "view",
      "type": "function"
    }
  ],
  "transactionHash": "0x115bb287e3e21e883a8c2ba1b06cabb7328129025caca02d5b03d1661ecf5d05",
  "args": [
    "0xb32C79a25291265eF240Eb32E9faBbc6DcEE3cE3"
  ],
  "solcInputHash": "b19bf4bd7fc2018aea4e0bcaaaafabcb",
  "bytecode": "0x60806040523480156200001157600080fd5b5060405162002143380380620021438339810160408190526200003491620001e8565b336200004260008262000081565b6200006e7f339759585899103d2ace64958e37e18ccb0504652c81d4a1b8aa80fe2126ab958262000081565b506200007a8162000091565b5062000218565b6200008d828262000148565b5050565b3360008181527fa54247010af6b3693b80aceddfad12e077c5de3571e6243fada502635f0d7d39602052604090205460ff16620001255760405162461bcd60e51b815260206004820152602860248201527f4d61696e7461696e61626c653a2043616c6c6572206973206e6f742061206d6160448201526734b73a30b4b732b960c11b606482015260840160405180910390fd5b50600180546001600160a01b0319166001600160a01b0392909216919091179055565b6000828152602081815260408083206001600160a01b038516845290915290205460ff166200008d576000828152602081815260408083206001600160a01b03851684529091529020805460ff19166001179055620001a43390565b6001600160a01b0316816001600160a01b0316837f2f8788117e7eff1d82e926ec794901d17c78024a50270940304540a733656f0d60405160405180910390a45050565b600060208284031215620001fa578081fd5b81516001600160a01b038116811462000211578182fd5b9392505050565b611f1b80620002286000396000f3fe608060405234801561001057600080fd5b50600436106101005760003560e01c80639ddb764d11610097578063d8baf7cf11610066578063d8baf7cf14610244578063f2fde38b14610257578063f87422541461026a578063f887ea401461029157600080fd5b80639ddb764d14610203578063a217fddf14610216578063c0d786551461021e578063d547741f1461023157600080fd5b80636b453c1f116100d35780636b453c1f146101865780638bb9c5bf1461019957806391d14854146101ac578063980d473a146101e357600080fd5b806301ffc9a714610105578063248a9ca31461012d5780632f2ff15d1461015e57806336568abe14610173575b600080fd5b6101186101133660046119e0565b6102bc565b60405190151581526020015b60405180910390f35b61015061013b366004611999565b60009081526020819052604090206001015490565b604051908152602001610124565b61017161016c3660046119b1565b610325565b005b6101716101813660046119b1565b61034f565b610171610194366004611906565b6103e0565b6101716101a7366004611999565b61040d565b6101186101ba3660046119b1565b6000918252602082815260408084206001600160a01b0393909316845291905290205460ff1690565b6101f66101f1366004611adc565b610418565b6040516101249190611cbc565b6101f6610211366004611adc565b61092a565b610150600081565b61017161022c366004611906565b610e0c565b61017161023f3660046119b1565b610eeb565b610171610252366004611906565b610f10565b610171610265366004611906565b610f3a565b6101507f339759585899103d2ace64958e37e18ccb0504652c81d4a1b8aa80fe2126ab9581565b6001546102a4906001600160a01b031681565b6040516001600160a01b039091168152602001610124565b60006001600160e01b031982167f7965db0b00000000000000000000000000000000000000000000000000000000148061031f57507f01ffc9a7000000000000000000000000000000000000000000000000000000006001600160e01b03198316145b92915050565b60008281526020819052604090206001015461034081610f51565b61034a8383610f5b565b505050565b6001600160a01b03811633146103d25760405162461bcd60e51b815260206004820152602f60248201527f416363657373436f6e74726f6c3a2063616e206f6e6c792072656e6f756e636560448201527f20726f6c657320666f722073656c66000000000000000000000000000000000060648201526084015b60405180910390fd5b6103dc8282610ff9565b5050565b61040a7f339759585899103d2ace64958e37e18ccb0504652c81d4a1b8aa80fe2126ab9582610325565b50565b336103dc828261034f565b6104436040518060800160405280606081526020016060815260200160608152602001600081525090565b6000846001600160a01b031663213cae636040518163ffffffff1660e01b815260040160006040518083038186803b15801561047e57600080fd5b505afa158015610492573d6000803e3d6000fd5b505050506040513d6000823e601f3d908101601f191682016040526104ba919081019061193e565b90506000856001600160a01b031663f174e2416040518163ffffffff1660e01b815260040160206040518083038186803b1580156104f757600080fd5b505afa15801561050b573d6000803e3d6000fd5b505050506040513d601f19601f8201168201806040525081019061052f9190611922565b90506000866001600160a01b03166369cff80d6040518163ffffffff1660e01b815260040160206040518083038186803b15801561056c57600080fd5b505afa158015610580573d6000803e3d6000fd5b505050506040513d601f19601f820116820180604052508101906105a49190611ac4565b604051633af32abf60e01b81526001600160a01b038a8116600483015291925090881690633af32abf9060240160206040518083038186803b1580156105e957600080fd5b505afa1580156105fd573d6000803e3d6000fd5b505050506040513d601f19601f820116820180604052508101906106219190611979565b156106c6576040516377ccc49d60e11b8152600481018a90526001600160a01b03898116602483015283811660448301526000919089169063ef99893a9060640160206040518083038186803b15801561067a57600080fd5b505afa15801561068e573d6000803e3d6000fd5b505050506040513d601f19601f820116820180604052508101906106b29190611ac4565b90506106c289848c848c87611078565b9450505b60005b835181101561091d576106fd6040518060800160405280606081526020016060815260200160608152602001600081525090565b60015485516000916001600160a01b03169063061b15e7908e908e908a908890811061073957634e487b7160e01b600052603260045260246000fd5b60209081029190910101516040516001600160e01b031960e086901b16815260048101939093526001600160a01b039182166024840152166044820152606481018c9052608481018b905260a40160006040518083038186803b15801561079f57600080fd5b505afa1580156107b3573d6000803e3d6000fd5b505050506040513d6000823e601f3d908101601f191682016040526107db9190810190611a08565b805180519193506001600160a01b038c169163ef99893a919061080090600190611e2b565b8151811061081e57634e487b7160e01b600052603260045260246000fd5b602002602001015188868151811061084657634e487b7160e01b600052603260045260246000fd5b6020026020010151886040518463ffffffff1660e01b8152600401610887939291909283526001600160a01b03918216602084015216604082015260600190565b60206040518083038186803b15801561089f57600080fd5b505afa1580156108b3573d6000803e3d6000fd5b505050506040513d601f19601f820116820180604052508101906108d79190611ac4565b9050866040015151600014806108f457506108f1876110d4565b81115b1561090a5761090682828c8888611115565b8196505b50508061091690611e89565b90506106c9565b5050505095945050505050565b6109556040518060800160405280606081526020016060815260200160608152602001600081525090565b6000846001600160a01b031663071bc3c96040518163ffffffff1660e01b815260040160006040518083038186803b15801561099057600080fd5b505afa1580156109a4573d6000803e3d6000fd5b505050506040513d6000823e601f3d908101601f191682016040526109cc919081019061193e565b90506000856001600160a01b031663f174e2416040518163ffffffff1660e01b815260040160206040518083038186803b158015610a0957600080fd5b505afa158015610a1d573d6000803e3d6000fd5b505050506040513d601f19601f82011682018060405250810190610a419190611922565b90506000866001600160a01b03166369cff80d6040518163ffffffff1660e01b815260040160206040518083038186803b158015610a7e57600080fd5b505afa158015610a92573d6000803e3d6000fd5b505050506040513d601f19601f82011682018060405250810190610ab69190611ac4565b604051633af32abf60e01b81526001600160a01b038a8116600483015291925090881690633af32abf9060240160206040518083038186803b158015610afb57600080fd5b505afa158015610b0f573d6000803e3d6000fd5b505050506040513d601f19601f82011682018060405250810190610b339190611979565b15610bd8576040516377ccc49d60e11b8152600481018a90526001600160a01b03838116602483015289811660448301526000919089169063ef99893a9060640160206040518083038186803b158015610b8c57600080fd5b505afa158015610ba0573d6000803e3d6000fd5b505050506040513d601f19601f82011682018060405250810190610bc49190611ac4565b9050610bd4838a8c848c87611078565b9450505b60005b835181101561091d576000886001600160a01b031663ef99893a8c86888681518110610c1757634e487b7160e01b600052603260045260246000fd5b60200260200101516040518463ffffffff1660e01b8152600401610c57939291909283526001600160a01b03918216602084015216604082015260600190565b60206040518083038186803b158015610c6f57600080fd5b505afa158015610c83573d6000803e3d6000fd5b505050506040513d601f19601f82011682018060405250810190610ca79190611ac4565b905080610cb45750610dfc565b610cdf6040518060800160405280606081526020016060815260200160608152602001600081525090565b60015486516001600160a01b039091169063061b15e7908490899087908110610d1857634e487b7160e01b600052603260045260246000fd5b60209081029190910101516040516001600160e01b031960e085901b16815260048101929092526001600160a01b0390811660248301528e166044820152606481018c9052608481018b905260a40160006040518083038186803b158015610d7f57600080fd5b505afa158015610d93573d6000803e3d6000fd5b505050506040513d6000823e601f3d908101601f19168201604052610dbb9190810190611a08565b9050610dc6816110d4565b915086604001515160001480610de35750610de0876110d4565b82115b15610df957610df5818d8c888861122b565b8096505b50505b610e0581611e89565b9050610bdb565b3360008181527fa54247010af6b3693b80aceddfad12e077c5de3571e6243fada502635f0d7d39602052604090205460ff16610eb05760405162461bcd60e51b815260206004820152602860248201527f4d61696e7461696e61626c653a2043616c6c6572206973206e6f742061206d6160448201527f696e7461696e657200000000000000000000000000000000000000000000000060648201526084016103c9565b50600180547fffffffffffffffffffffffff0000000000000000000000000000000000000000166001600160a01b0392909216919091179055565b600082815260208190526040902060010154610f0681610f51565b61034a8383610ff9565b61040a7f339759585899103d2ace64958e37e18ccb0504652c81d4a1b8aa80fe2126ab9582610eeb565b33610f46600083610325565b6103dc60008261034f565b61040a81336112de565b6000828152602081815260408083206001600160a01b038516845290915290205460ff166103dc576000828152602081815260408083206001600160a01b03851684529091529020805460ff19166001179055610fb53390565b6001600160a01b0316816001600160a01b0316837f2f8788117e7eff1d82e926ec794901d17c78024a50270940304540a733656f0d60405160405180910390a45050565b6000828152602081815260408083206001600160a01b038516845290915290205460ff16156103dc576000828152602081815260408083206001600160a01b0385168085529252808320805460ff1916905551339285917ff6391f5c32d9c69d2a47ea670b442974b53935d1edc7fd64eb21e047a839171b9190a45050565b6110a36040518060800160405280606081526020016060815260200160608152602001600081525090565b60006110af868961135c565b90506110ba816113af565b91506110c98286868a87611115565b509695505050505050565b80518051600091906110e890600190611e2b565b8151811061110657634e487b7160e01b600052603260045260246000fd5b60200260200101519050919050565b84516040516111679161112a91602001611baf565b6040516020818303038152906040526111428661142a565b604051602001611153929190611bd9565b604051602081830303815290604052611454565b85526020808601516040516111c792611181929101611b70565b6040516020818303038152906040526111a2856001600160a01b031661142a565b6040516020016111b3929190611bd9565b604051602081830303815290604052611530565b856020018190525061120885604001516040516020016111e79190611b70565b6040516020818303038152906040526111a2846001600160a01b031661142a565b6040860152606085018051829190611221908390611dd4565b9052505050505050565b6112676112378561142a565b86516040516112499190602001611baf565b60408051601f19818403018152908290526111539291602001611bd9565b85526112af61127e6001600160a01b03851661142a565b6020808801516040516112919201611b70565b60408051601f19818403018152908290526111b39291602001611bd9565b60208601526112086112c96001600160a01b03841661142a565b86604001516040516020016112919190611b70565b6000828152602081815260408083206001600160a01b038516845290915290205460ff166103dc5761131a816001600160a01b03166014611603565b611325836020611603565b604051602001611336929190611c08565b60408051601f198184030181529082905262461bcd60e51b82526103c991600401611c89565b6113876040518060800160405280606081526020016060815260200160608152602001600081525090565b6113908361142a565b81526113a46001600160a01b03831661142a565b604082015292915050565b6113da6040518060800160405280606081526020016060815260200160608152602001600081525090565b60405180608001604052806113f28460000151611454565b81526020016114048460200151611530565b81526020016114168460400151611530565b815260200183606001518152509050919050565b60408051602080825281830190925260609160208201818036833750505060208101929092525090565b6060602082516114649190611dec565b67ffffffffffffffff81111561148a57634e487b7160e01b600052604160045260246000fd5b6040519080825280602002602001820160405280156114b3578160200160208202803683370190505b50905060005b602083516114c79190611dec565b81101561152a576114ed836114dd836020611e0c565b6114e8906020611dd4565b015190565b82828151811061150d57634e487b7160e01b600052603260045260246000fd5b60209081029190910101528061152281611e89565b9150506114b9565b50919050565b6060602082516115409190611dec565b67ffffffffffffffff81111561156657634e487b7160e01b600052604160045260246000fd5b60405190808252806020026020018201604052801561158f578160200160208202803683370190505b50905060005b602083516115a39190611dec565b81101561152a576115b9836114dd836020611e0c565b8282815181106115d957634e487b7160e01b600052603260045260246000fd5b6001600160a01b0390921660209283029190910190910152806115fb81611e89565b915050611595565b60606000611612836002611e0c565b61161d906002611dd4565b67ffffffffffffffff81111561164357634e487b7160e01b600052604160045260246000fd5b6040519080825280601f01601f19166020018201604052801561166d576020820181803683370190505b5090507f3000000000000000000000000000000000000000000000000000000000000000816000815181106116b257634e487b7160e01b600052603260045260246000fd5b60200101906001600160f81b031916908160001a9053507f78000000000000000000000000000000000000000000000000000000000000008160018151811061170b57634e487b7160e01b600052603260045260246000fd5b60200101906001600160f81b031916908160001a905350600061172f846002611e0c565b61173a906001611dd4565b90505b60018111156117db577f303132333435363738396162636465660000000000000000000000000000000085600f166010811061178957634e487b7160e01b600052603260045260246000fd5b1a60f81b8282815181106117ad57634e487b7160e01b600052603260045260246000fd5b60200101906001600160f81b031916908160001a90535060049490941c936117d481611e72565b905061173d565b50831561182a5760405162461bcd60e51b815260206004820181905260248201527f537472696e67733a20686578206c656e67746820696e73756666696369656e7460448201526064016103c9565b9392505050565b600082601f830112611841578081fd5b8151602061185661185183611db0565b611d7f565b80838252828201915082860187848660051b8901011115611875578586fd5b855b8581101561189c57815161188a81611ed0565b84529284019290840190600101611877565b5090979650505050505050565b600082601f8301126118b9578081fd5b815160206118c961185183611db0565b80838252828201915082860187848660051b89010111156118e8578586fd5b855b8581101561189c578151845292840192908401906001016118ea565b600060208284031215611917578081fd5b813561182a81611ed0565b600060208284031215611933578081fd5b815161182a81611ed0565b60006020828403121561194f578081fd5b815167ffffffffffffffff811115611965578182fd5b61197184828501611831565b949350505050565b60006020828403121561198a578081fd5b8151801515811461182a578182fd5b6000602082840312156119aa578081fd5b5035919050565b600080604083850312156119c3578081fd5b8235915060208301356119d581611ed0565b809150509250929050565b6000602082840312156119f1578081fd5b81356001600160e01b03198116811461182a578182fd5b600060208284031215611a19578081fd5b815167ffffffffffffffff80821115611a30578283fd5b9083019060808286031215611a43578283fd5b611a4b611d56565b825182811115611a59578485fd5b611a65878286016118a9565b825250602083015182811115611a79578485fd5b611a8587828601611831565b602083015250604083015182811115611a9c578485fd5b611aa887828601611831565b6040830152506060830151606082015280935050505092915050565b600060208284031215611ad5578081fd5b5051919050565b600080600080600060a08688031215611af3578081fd5b853594506020860135611b0581611ed0565b93506040860135611b1581611ed0565b94979396509394606081013594506080013592915050565b6000815180845260208085019450808401835b83811015611b655781516001600160a01b031687529582019590820190600101611b40565b509495945050505050565b815160009082906020808601845b83811015611ba35781516001600160a01b031685529382019390820190600101611b7e565b50929695505050505050565b815160009082906020808601845b83811015611ba357815185529382019390820190600101611bbd565b60008351611beb818460208801611e42565b835190830190611bff818360208801611e42565b01949350505050565b7f416363657373436f6e74726f6c3a206163636f756e7420000000000000000000815260008351611c40816017850160208801611e42565b7f206973206d697373696e6720726f6c65200000000000000000000000000000006017918401918201528351611c7d816028840160208801611e42565b01602801949350505050565b6020815260008251806020840152611ca8816040850160208701611e42565b601f01601f19169190910160400192915050565b60208082528251608083830152805160a0840181905260009291820190839060c08601905b80831015611d015783518252928401926001929092019190840190611ce1565b50838701519350601f19925082868203016040870152611d218185611b2d565b93505050604085015181858403016060860152611d3e8382611b2d565b92505050606084015160808401528091505092915050565b6040516080810167ffffffffffffffff81118282101715611d7957611d79611eba565b60405290565b604051601f8201601f1916810167ffffffffffffffff81118282101715611da857611da8611eba565b604052919050565b600067ffffffffffffffff821115611dca57611dca611eba565b5060051b60200190565b60008219821115611de757611de7611ea4565b500190565b600082611e0757634e487b7160e01b81526012600452602481fd5b500490565b6000816000190483118215151615611e2657611e26611ea4565b500290565b600082821015611e3d57611e3d611ea4565b500390565b60005b83811015611e5d578181015183820152602001611e45565b83811115611e6c576000848401525b50505050565b600081611e8157611e81611ea4565b506000190190565b6000600019821415611e9d57611e9d611ea4565b5060010190565b634e487b7160e01b600052601160045260246000fd5b634e487b7160e01b600052604160045260246000fd5b6001600160a01b038116811461040a57600080fdfea264697066735822122056949368f1feeb66b257cd719d53121e980a5407f79c0d5a9bf727e7a733956d64736f6c63430008040033",
  "devdoc": {
    "kind": "dev",
    "methods": {
      "getRoleAdmin(bytes32)": {
        "details": "Returns the admin role that controls `role`. See {grantRole} and {revokeRole}. To change a role's admin, use {_setRoleAdmin}."
      },
      "grantRole(bytes32,address)": {
        "details": "Grants `role` to `account`. If `account` had not been already granted `role`, emits a {RoleGranted} event. Requirements: - the caller must have ``role``'s admin role. May emit a {RoleGranted} event."
      },
      "hasRole(bytes32,address)": {
        "details": "Returns `true` if `account` has been granted `role`."
      },
      "renounceRole(bytes32,address)": {
        "details": "Revokes `role` from the calling account. Roles are often managed via {grantRole} and {revokeRole}: this function's purpose is to provide a mechanism for accounts to lose their privileges if they are compromised (such as when a trusted device is misplaced). If the calling account had been revoked `role`, emits a {RoleRevoked} event. Requirements: - the caller must be `account`. May emit a {RoleRevoked} event."
      },
      "revokeRole(bytes32,address)": {
        "details": "Revokes `role` from `account`. If `account` had been granted `role`, emits a {RoleRevoked} event. Requirements: - the caller must have ``role``'s admin role. May emit a {RoleRevoked} event."
      },
      "supportsInterface(bytes4)": {
        "details": "See {IERC165-supportsInterface}."
      }
    },
    "version": 1
  },
  "userdoc": {
    "kind": "user",
    "methods": {},
    "version": 1
  },
  "storageLayout": {
    "storage": [
      {
        "astId": 24,
        "contract": "src/contracts/YakWrapRouterAlt.sol:YakWrapRouterAlt",
        "label": "_roles",
        "offset": 0,
        "slot": "0",
        "type": "t_mapping(t_bytes32,t_struct(RoleData)19_storage)"
      },
      {
        "astId": 1056,
        "contract": "src/contracts/YakWrapRouterAlt.sol:YakWrapRouterAlt",
        "label": "router",
        "offset": 0,
        "slot": "1",
        "type": "t_contract(IYakRouter)1740"
      }
    ],
    "types": {
      "t_address": {
        "encoding": "inplace",
        "label": "address",
        "numberOfBytes": "20"
      },
      "t_bool": {
        "encoding": "inplace",
        "label": "bool",
        "numberOfBytes": "1"
      },
      "t_bytes32": {
        "encoding": "inplace",
        "label": "bytes32",
        "numberOfBytes": "32"
      },
      "t_contract(IYakRouter)1740": {
        "encoding": "inplace",
        "label": "contract IYakRouter",
        "numberOfBytes": "20"
      },
      "t_mapping(t_address,t_bool)": {
        "encoding": "mapping",
        "key": "t_address",
        "label": "mapping(address => bool)",
        "numberOfBytes": "32",
        "value": "t_bool"
      },
      "t_mapping(t_bytes32,t_struct(RoleData)19_storage)": {
        "encoding": "mapping",
        "key": "t_bytes32",
        "label": "mapping(bytes32 => struct AccessControl.RoleData)",
        "numberOfBytes": "32",
        "value": "t_struct(RoleData)19_storage"
      },
      "t_struct(RoleData)19_storage": {
        "encoding": "inplace",
        "label": "struct AccessControl.RoleData",
        "members": [
          {
            "astId": 16,
            "contract": "src/contracts/YakWrapRouterAlt.sol:YakWrapRouterAlt",
            "label": "members",
            "offset": 0,
            "slot": "0",
            "type": "t_mapping(t_address,t_bool)"
          },
          {
            "astId": 18,
            "contract": "src/contracts/YakWrapRouterAlt.sol:YakWrapRouterAlt",
            "label": "adminRole",
            "offset": 0,
            "slot": "1",
            "type": "t_bytes32"
          }
        ],
        "numberOfBytes": "64"
      }
    }
  }
}