{
  "abi": [
    {
      "inputs": [
        {
          "internalType": "string",
          "name": "_name",
          "type": "string"
        },
        {
          "internalType": "address",
          "name": "_portal",
          "type": "address"
        },
        {
          "internalType": "uint256",
          "name": "_pooledTknId",
          "type": "uint256"
        },
        {
          "internalType": "uint256",
          "name": "_swapGasEstimate",
          "type": "uint256"
        }
      ],
      "stateMutability": "nonpayable",
      "type": "constructor"
    },
    {
      "anonymous": false,
      "inputs": [
        {
          "indexed": true,
          "internalType": "address",
          "name": "_asset",
          "type": "address"
        },
        {
          "indexed": false,
          "internalType": "uint256",
          "name": "amount",
          "type": "uint256"
        }
      ],
      "name": "Recovered",
      "type": "event"
    },
    {
      "anonymous": false,
      "inputs": [
        {
          "indexed": true,
          "internalType": "bytes32",
          "name": "role",
          "type": "bytes32"
        },
        {
          "indexed": true,
          "internalType": "bytes32",
          "name": "previousAdminRole",
          "type": "bytes32"
        },
        {
          "indexed": true,
          "internalType": "bytes32",
          "name": "newAdminRole",
          "type": "bytes32"
        }
      ],
      "name": "RoleAdminChanged",
      "type": "event"
    },
    {
      "anonymous": false,
      "inputs": [
        {
          "indexed": true,
          "internalType": "bytes32",
          "name": "role",
          "type": "bytes32"
        },
        {
          "indexed": true,
          "internalType": "address",
          "name": "account",
          "type": "address"
        },
        {
          "indexed": true,
          "internalType": "address",
          "name": "sender",
          "type": "address"
        }
      ],
      "name": "RoleGranted",
      "type": "event"
    },
    {
      "anonymous": false,
      "inputs": [
        {
          "indexed": true,
          "internalType": "bytes32",
          "name": "role",
          "type": "bytes32"
        },
        {
          "indexed": true,
          "internalType": "address",
          "name": "account",
          "type": "address"
        },
        {
          "indexed": true,
          "internalType": "address",
          "name": "sender",
          "type": "address"
        }
      ],
      "name": "RoleRevoked",
      "type": "event"
    },
    {
      "anonymous": false,
      "inputs": [
        {
          "indexed": true,
          "internalType": "address",
          "name": "_adapter",
          "type": "address"
        },
        {
          "indexed": false,
          "internalType": "uint256",
          "name": "_newEstimate",
          "type": "uint256"
        }
      ],
      "name": "UpdatedGasEstimate",
      "type": "event"
    },
    {
      "anonymous": false,
      "inputs": [
        {
          "indexed": true,
          "internalType": "address",
          "name": "_tokenFrom",
          "type": "address"
        },
        {
          "indexed": true,
          "internalType": "address",
          "name": "_tokenTo",
          "type": "address"
        },
        {
          "indexed": false,
          "internalType": "uint256",
          "name": "_amountIn",
          "type": "uint256"
        },
        {
          "indexed": false,
          "internalType": "uint256",
          "name": "_amountOut",
          "type": "uint256"
        }
      ],
      "name": "YakAdapterSwap",
      "type": "event"
    },
    {
      "inputs": [],
      "name": "DEFAULT_ADMIN_ROLE",
      "outputs": [
        {
          "internalType": "bytes32",
          "name": "",
          "type": "bytes32"
        }
      ],
      "stateMutability": "view",
      "type": "function"
    },
    {
      "inputs": [],
      "name": "MAINTAINER_ROLE",
      "outputs": [
        {
          "internalType": "bytes32",
          "name": "",
          "type": "bytes32"
        }
      ],
      "stateMutability": "view",
      "type": "function"
    },
    {
      "inputs": [
        {
          "internalType": "address",
          "name": "addedMaintainer",
          "type": "address"
        }
      ],
      "name": "addMaintainer",
      "outputs": [],
      "stateMutability": "nonpayable",
      "type": "function"
    },
    {
      "inputs": [],
      "name": "gavax",
      "outputs": [
        {
          "internalType": "address",
          "name": "",
          "type": "address"
        }
      ],
      "stateMutability": "view",
      "type": "function"
    },
    {
      "inputs": [
        {
          "internalType": "bytes32",
          "name": "role",
          "type": "bytes32"
        }
      ],
      "name": "getRoleAdmin",
      "outputs": [
        {
          "internalType": "bytes32",
          "name": "",
          "type": "bytes32"
        }
      ],
      "stateMutability": "view",
      "type": "function"
    },
    {
      "inputs": [
        {
          "internalType": "bytes32",
          "name": "role",
          "type": "bytes32"
        },
        {
          "internalType": "address",
          "name": "account",
          "type": "address"
        }
      ],
      "name": "grantRole",
      "outputs": [],
      "stateMutability": "nonpayable",
      "type": "function"
    },
    {
      "inputs": [
        {
          "internalType": "bytes32",
          "name": "role",
          "type": "bytes32"
        },
        {
          "internalType": "address",
          "name": "account",
          "type": "address"
        }
      ],
      "name": "hasRole",
      "outputs": [
        {
          "internalType": "bool",
          "name": "",
          "type": "bool"
        }
      ],
      "stateMutability": "view",
      "type": "function"
    },
    {
      "inputs": [],
      "name": "name",
      "outputs": [
        {
          "internalType": "string",
          "name": "",
          "type": "string"
        }
      ],
      "stateMutability": "view",
      "type": "function"
    },
    {
      "inputs": [
        {
          "internalType": "address",
          "name": "",
          "type": "address"
        },
        {
          "internalType": "address",
          "name": "",
          "type": "address"
        },
        {
          "internalType": "uint256",
          "name": "",
          "type": "uint256"
        },
        {
          "internalType": "uint256",
          "name": "",
          "type": "uint256"
        },
        {
          "internalType": "bytes",
          "name": "",
          "type": "bytes"
        }
      ],
      "name": "onERC1155Received",
      "outputs": [
        {
          "internalType": "bytes4",
          "name": "",
          "type": "bytes4"
        }
      ],
      "stateMutability": "nonpayable",
      "type": "function"
    },
    {
      "inputs": [],
      "name": "pool",
      "outputs": [
        {
          "internalType": "address",
          "name": "",
          "type": "address"
        }
      ],
      "stateMutability": "view",
      "type": "function"
    },
    {
      "inputs": [],
      "name": "pooledTknId",
      "outputs": [
        {
          "internalType": "uint256",
          "name": "",
          "type": "uint256"
        }
      ],
      "stateMutability": "view",
      "type": "function"
    },
    {
      "inputs": [],
      "name": "pooledTknInterface",
      "outputs": [
        {
          "internalType": "address",
          "name": "",
          "type": "address"
        }
      ],
      "stateMutability": "view",
      "type": "function"
    },
    {
      "inputs": [],
      "name": "portal",
      "outputs": [
        {
          "internalType": "address",
          "name": "",
          "type": "address"
        }
      ],
      "stateMutability": "view",
      "type": "function"
    },
    {
      "inputs": [
        {
          "internalType": "uint256",
          "name": "_amountIn",
          "type": "uint256"
        },
        {
          "internalType": "address",
          "name": "_tokenIn",
          "type": "address"
        },
        {
          "internalType": "address",
          "name": "_tokenOut",
          "type": "address"
        }
      ],
      "name": "query",
      "outputs": [
        {
          "internalType": "uint256",
          "name": "",
          "type": "uint256"
        }
      ],
      "stateMutability": "view",
      "type": "function"
    },
    {
      "inputs": [
        {
          "internalType": "uint256",
          "name": "_amount",
          "type": "uint256"
        }
      ],
      "name": "recoverAVAX",
      "outputs": [],
      "stateMutability": "nonpayable",
      "type": "function"
    },
    {
      "inputs": [
        {
          "internalType": "address",
          "name": "_tokenAddress",
          "type": "address"
        },
        {
          "internalType": "uint256",
          "name": "_tokenAmount",
          "type": "uint256"
        }
      ],
      "name": "recoverERC20",
      "outputs": [],
      "stateMutability": "nonpayable",
      "type": "function"
    },
    {
      "inputs": [
        {
          "internalType": "address",
          "name": "removedMaintainer",
          "type": "address"
        }
      ],
      "name": "removeMaintainer",
      "outputs": [],
      "stateMutability": "nonpayable",
      "type": "function"
    },
    {
      "inputs": [
        {
          "internalType": "bytes32",
          "name": "role",
          "type": "bytes32"
        },
        {
          "internalType": "address",
          "name": "account",
          "type": "address"
        }
      ],
      "name": "renounceRole",
      "outputs": [],
      "stateMutability": "nonpayable",
      "type": "function"
    },
    {
      "inputs": [
        {
          "internalType": "bytes32",
          "name": "role",
          "type": "bytes32"
        }
      ],
      "name": "renounceRole",
      "outputs": [],
      "stateMutability": "nonpayable",
      "type": "function"
    },
    {
      "inputs": [
        {
          "internalType": "address",
          "name": "_token",
          "type": "address"
        },
        {
          "internalType": "address",
          "name": "_spender",
          "type": "address"
        }
      ],
      "name": "revokeAllowance",
      "outputs": [],
      "stateMutability": "nonpayable",
      "type": "function"
    },
    {
      "inputs": [],
      "name": "revokeGAvaxAllowance",
      "outputs": [],
      "stateMutability": "nonpayable",
      "type": "function"
    },
    {
      "inputs": [
        {
          "internalType": "bytes32",
          "name": "role",
          "type": "bytes32"
        },
        {
          "internalType": "address",
          "name": "account",
          "type": "address"
        }
      ],
      "name": "revokeRole",
      "outputs": [],
      "stateMutability": "nonpayable",
      "type": "function"
    },
    {
      "inputs": [],
      "name": "setGAvaxAllowance",
      "outputs": [],
      "stateMutability": "nonpayable",
      "type": "function"
    },
    {
      "inputs": [
        {
          "internalType": "address",
          "name": "interfaceAddress",
          "type": "address"
        }
      ],
      "name": "setInterfaceForPooledTkn",
      "outputs": [],
      "stateMutability": "nonpayable",
      "type": "function"
    },
    {
      "inputs": [
        {
          "internalType": "uint256",
          "name": "_estimate",
          "type": "uint256"
        }
      ],
      "name": "setSwapGasEstimate",
      "outputs": [],
      "stateMutability": "nonpayable",
      "type": "function"
    },
    {
      "inputs": [
        {
          "internalType": "bytes4",
          "name": "interfaceId",
          "type": "bytes4"
        }
      ],
      "name": "supportsInterface",
      "outputs": [
        {
          "internalType": "bool",
          "name": "",
          "type": "bool"
        }
      ],
      "stateMutability": "view",
      "type": "function"
    },
    {
      "inputs": [
        {
          "internalType": "uint256",
          "name": "_amountIn",
          "type": "uint256"
        },
        {
          "internalType": "uint256",
          "name": "_amountOut",
          "type": "uint256"
        },
        {
          "internalType": "address",
          "name": "_fromToken",
          "type": "address"
        },
        {
          "internalType": "address",
          "name": "_toToken",
          "type": "address"
        },
        {
          "internalType": "address",
          "name": "_to",
          "type": "address"
        }
      ],
      "name": "swap",
      "outputs": [],
      "stateMutability": "nonpayable",
      "type": "function"
    },
    {
      "inputs": [],
      "name": "swapGasEstimate",
      "outputs": [
        {
          "internalType": "uint256",
          "name": "",
          "type": "uint256"
        }
      ],
      "stateMutability": "view",
      "type": "function"
    },
    {
      "inputs": [
        {
          "internalType": "address",
          "name": "newOwner",
          "type": "address"
        }
      ],
      "name": "transferOwnership",
      "outputs": [],
      "stateMutability": "nonpayable",
      "type": "function"
    },
    {
      "stateMutability": "payable",
      "type": "receive"
    }
  ],
  "bytecode": {
    "object": "0x6101006040523480156200001257600080fd5b5060405162002a0638038062002a068339810160408190526200003591620004db565b8381336200004560008262000272565b620000717f339759585899103d2ace64958e37e18ccb0504652c81d4a1b8aa80fe2126ab958262000272565b506200007d8262000282565b6200008881620002e7565b505060405163c50daead60e01b8152600481018390526001600160a01b0384169063c50daead90602401602060405180830381865afa158015620000d0573d6000803e3d6000fd5b505050506040513d601f19601f82011682018060405250810190620000f69190620005d3565b600380546001600160a01b0319166001600160a01b03928316179055604051636c8b02f760e01b815260048101849052600091851690636c8b02f790602401602060405180830381865afa15801562000153573d6000803e3d6000fd5b505050506040513d601f19601f82011682018060405250810190620001799190620005d3565b90506000846001600160a01b031663413133ce6040518163ffffffff1660e01b8152600401602060405180830381865afa158015620001bc573d6000803e3d6000fd5b505050506040513d601f19601f82011682018060405250810190620001e29190620005d3565b60405163a22cb46560e01b81526001600160a01b038481166004830152600160248301529192509082169063a22cb46590604401600060405180830381600087803b1580156200023157600080fd5b505af115801562000246573d6000803e3d6000fd5b5050506080949094526001600160a01b0394851660a052841660c05290921660e0525062000753915050565b6200027e828262000408565b5050565b8051600003620002d95760405162461bcd60e51b815260206004820152601460248201527f496e76616c69642061646170746572206e616d6500000000000000000000000060448201526064015b60405180910390fd5b60026200027e828262000687565b3360008181527fa54247010af6b3693b80aceddfad12e077c5de3571e6243fada502635f0d7d39602052604090205460ff16620003785760405162461bcd60e51b815260206004820152602860248201527f4d61696e7461696e61626c653a2043616c6c6572206973206e6f742061206d6160448201526734b73a30b4b732b960c11b6064820152608401620002d0565b81600003620003ca5760405162461bcd60e51b815260206004820152601460248201527f496e76616c6964206761732d657374696d6174650000000000000000000000006044820152606401620002d0565b600182905560405182815230907ff43f23b7a28e6f8ce6843a21bd7b48bce778aa913b8c8cf459edf7d770e8d38a9060200160405180910390a25050565b6000828152602081815260408083206001600160a01b038516845290915290205460ff166200027e576000828152602081815260408083206001600160a01b03851684529091529020805460ff19166001179055620004643390565b6001600160a01b0316816001600160a01b0316837f2f8788117e7eff1d82e926ec794901d17c78024a50270940304540a733656f0d60405160405180910390a45050565b634e487b7160e01b600052604160045260246000fd5b80516001600160a01b0381168114620004d657600080fd5b919050565b60008060008060808587031215620004f257600080fd5b84516001600160401b03808211156200050a57600080fd5b818701915087601f8301126200051f57600080fd5b815181811115620005345762000534620004a8565b604051601f8201601f19908116603f011681019083821181831017156200055f576200055f620004a8565b81604052828152602093508a848487010111156200057c57600080fd5b600091505b82821015620005a0578482018401518183018501529083019062000581565b6000848483010152809850505050620005bb818801620004be565b60408801516060909801519699909850945050505050565b600060208284031215620005e657600080fd5b620005f182620004be565b9392505050565b600181811c908216806200060d57607f821691505b6020821081036200062e57634e487b7160e01b600052602260045260246000fd5b50919050565b601f8211156200068257600081815260208120601f850160051c810160208610156200065d5750805b601f850160051c820191505b818110156200067e5782815560010162000669565b5050505b505050565b81516001600160401b03811115620006a357620006a3620004a8565b620006bb81620006b48454620005f8565b8462000634565b602080601f831160018114620006f35760008415620006da5750858301515b600019600386901b1c1916600185901b1785556200067e565b600085815260208120601f198616915b82811015620007245788860151825594840194600190910190840162000703565b5085821015620007435787850151600019600388901b60f8161c191681555b5050505050600190811b01905550565b60805160a05160c05160e051612209620007fd6000396000818161023b015281816108d401528181610aac015281816113f00152818161178d015281816118e60152611a0a0152600081816103c60152818161090301528181610adb01528181610cd60152611c5f015260008181610327015281816116e1015261184601526000818161056401528181610cb0015281816116b8015281816118130152611c2c01526122096000f3fe6080604052600436106101c65760003560e01c806384a33e63116100f7578063d8baf7cf11610095578063f101ec3211610064578063f101ec3214610552578063f23a6e6114610586578063f2fde38b146105cb578063f8742254146105eb57600080fd5b8063d8baf7cf146104d2578063e52eb3db146104f2578063eab90da614610512578063ef99893a1461053257600080fd5b80638bb9c5bf116100d15780638bb9c5bf1461045d57806391d148541461047d578063a217fddf1461049d578063d547741f146104b257600080fd5b806384a33e6314610408578063865e7987146104285780638980f11f1461043d57600080fd5b80636425666b1161016457806370253d821161013e57806370253d821461037f5780637ae26773146103945780637b067076146103b45780638408f499146103e857600080fd5b80636425666b1461031557806369cff80d146103495780636b453c1f1461035f57600080fd5b8063248a9ca3116101a0578063248a9ca3146102755780632f2ff15d146102b357806336568abe146102d55780634ebb7916146102f557600080fd5b806301ffc9a7146101d257806306fdde031461020757806316f0115b1461022957600080fd5b366101cd57005b600080fd5b3480156101de57600080fd5b506101f26101ed366004611ce9565b61060d565b60405190151581526020015b60405180910390f35b34801561021357600080fd5b5061021c610644565b6040516101fe9190611d37565b34801561023557600080fd5b5061025d7f000000000000000000000000000000000000000000000000000000000000000081565b6040516001600160a01b0390911681526020016101fe565b34801561028157600080fd5b506102a5610290366004611d6a565b60009081526020819052604090206001015490565b6040519081526020016101fe565b3480156102bf57600080fd5b506102d36102ce366004611d9f565b6106d2565b005b3480156102e157600080fd5b506102d36102f0366004611d9f565b6106fc565b34801561030157600080fd5b506102d3610310366004611d6a565b61077f565b34801561032157600080fd5b5061025d7f000000000000000000000000000000000000000000000000000000000000000081565b34801561035557600080fd5b506102a560015481565b34801561036b57600080fd5b506102d361037a366004611dcb565b61086d565b34801561038b57600080fd5b506102d3610888565b3480156103a057600080fd5b506102d36103af366004611de6565b610963565b3480156103c057600080fd5b5061025d7f000000000000000000000000000000000000000000000000000000000000000081565b3480156103f457600080fd5b5060035461025d906001600160a01b031681565b34801561041457600080fd5b506102d3610423366004611d6a565b6109ad565b34801561043457600080fd5b506102d3610a60565b34801561044957600080fd5b506102d3610458366004611e10565b610b0a565b34801561046957600080fd5b506102d3610478366004611d6a565b610beb565b34801561048957600080fd5b506101f2610498366004611d9f565b610bf6565b3480156104a957600080fd5b506102a5600081565b3480156104be57600080fd5b506102d36104cd366004611d9f565b610c1f565b3480156104de57600080fd5b506102d36104ed366004611dcb565b610c44565b3480156104fe57600080fd5b506102d361050d366004611dcb565b610c5c565b34801561051e57600080fd5b506102d361052d366004611e3a565b610da6565b34801561053e57600080fd5b506102a561054d366004611e91565b610f4d565b34801561055e57600080fd5b506102a57f000000000000000000000000000000000000000000000000000000000000000081565b34801561059257600080fd5b506105b26105a1366004611ee3565b63f23a6e6160e01b95945050505050565b6040516001600160e01b031990911681526020016101fe565b3480156105d757600080fd5b506102d36105e6366004611dcb565b610f64565b3480156105f757600080fd5b506102a56000805160206121b483398151915281565b60006001600160e01b03198216637965db0b60e01b148061063e57506301ffc9a760e01b6001600160e01b03198316145b92915050565b6002805461065190611fc9565b80601f016020809104026020016040519081016040528092919081815260200182805461067d90611fc9565b80156106ca5780601f1061069f576101008083540402835291602001916106ca565b820191906000526020600020905b8154815290600101906020018083116106ad57829003601f168201915b505050505081565b6000828152602081905260409020600101546106ed81610f7b565b6106f78383610f85565b505050565b6001600160a01b03811633146107715760405162461bcd60e51b815260206004820152602f60248201527f416363657373436f6e74726f6c3a2063616e206f6e6c792072656e6f756e636560448201526e103937b632b9903337b91039b2b63360891b60648201526084015b60405180910390fd5b61077b8282611009565b5050565b336107986000805160206121b483398151915282610bf6565b6107b45760405162461bcd60e51b815260040161076890611ffd565b600082116108045760405162461bcd60e51b815260206004820152601e60248201527f59616b416461707465723a204e6f7468696e6720746f207265636f76657200006044820152606401610768565b604051339083156108fc029084906000818181858888f19350505050158015610831573d6000803e3d6000fd5b506040518281526000907f8c1256b8896378cd5044f80c202f9772b9d77dc85c8a6eb51967210b09bfaa28906020015b60405180910390a25050565b6108856000805160206121b4833981519152826106d2565b50565b336108a16000805160206121b483398151915282610bf6565b6108bd5760405162461bcd60e51b815260040161076890611ffd565b60405163a22cb46560e01b81526001600160a01b037f000000000000000000000000000000000000000000000000000000000000000081166004830152600060248301527f0000000000000000000000000000000000000000000000000000000000000000169063a22cb465906044015b600060405180830381600087803b15801561094857600080fd5b505af115801561095c573d6000803e3d6000fd5b5050505050565b3361097c6000805160206121b483398151915282610bf6565b6109985760405162461bcd60e51b815260040161076890611ffd565b6106f76001600160a01b03841683600061106e565b336109c66000805160206121b483398151915282610bf6565b6109e25760405162461bcd60e51b815260040161076890611ffd565b81600003610a295760405162461bcd60e51b8152602060048201526014602482015273496e76616c6964206761732d657374696d61746560601b6044820152606401610768565b600182905560405182815230907ff43f23b7a28e6f8ce6843a21bd7b48bce778aa913b8c8cf459edf7d770e8d38a90602001610861565b33610a796000805160206121b483398151915282610bf6565b610a955760405162461bcd60e51b815260040161076890611ffd565b60405163a22cb46560e01b81526001600160a01b037f000000000000000000000000000000000000000000000000000000000000000081166004830152600160248301527f0000000000000000000000000000000000000000000000000000000000000000169063a22cb4659060440161092e565b33610b236000805160206121b483398151915282610bf6565b610b3f5760405162461bcd60e51b815260040161076890611ffd565b60008211610b8f5760405162461bcd60e51b815260206004820152601e60248201527f59616b416461707465723a204e6f7468696e6720746f207265636f76657200006044820152606401610768565b610ba36001600160a01b03841633846111b6565b826001600160a01b03167f8c1256b8896378cd5044f80c202f9772b9d77dc85c8a6eb51967210b09bfaa2883604051610bde91815260200190565b60405180910390a2505050565b3361077b82826106fc565b6000918252602082815260408084206001600160a01b0393909316845291905290205460ff1690565b600082815260208190526040902060010154610c3a81610f7b565b6106f78383611009565b6108856000805160206121b483398151915282610c1f565b33610c756000805160206121b483398151915282610bf6565b610c915760405162461bcd60e51b815260040161076890611ffd565b60405163fcd295e360e01b81526001600160a01b0383811660048301527f000000000000000000000000000000000000000000000000000000000000000060248301527f0000000000000000000000000000000000000000000000000000000000000000169063fcd295e390604401602060405180830381865afa158015610d1d573d6000803e3d6000fd5b505050506040513d601f19601f82011682018060405250810190610d419190612045565b610d835760405162461bcd60e51b81526020600482015260136024820152724e6f742076616c696420696e7465726661636560681b6044820152606401610768565b50600380546001600160a01b0319166001600160a01b0392909216919091179055565b6040516370a0823160e01b81526001600160a01b038281166004830152600091908416906370a0823190602401602060405180830381865afa158015610df0573d6000803e3d6000fd5b505050506040513d601f19601f82011682018060405250810190610e149190612067565b9050610e2386868686866111e6565b6040516370a0823160e01b81526001600160a01b03838116600483015260009183918616906370a0823190602401602060405180830381865afa158015610e6e573d6000803e3d6000fd5b505050506040513d601f19601f82011682018060405250810190610e929190612067565b610e9c9190612096565b905085811015610eee5760405162461bcd60e51b815260206004820152601760248201527f496e73756666696369656e7420616d6f756e742d6f75740000000000000000006044820152606401610768565b836001600160a01b0316856001600160a01b03167fe2bdbc6b7225eb0a972ac943c485a6cc05f7c6811838bce8903f23200fb744fa8989604051610f3c929190918252602082015260400190565b60405180910390a350505050505050565b6000610f5a8484846113e4565b90505b9392505050565b33610f706000836106d2565b61077b6000826106fc565b6108858133611516565b610f8f8282610bf6565b61077b576000828152602081815260408083206001600160a01b03851684529091529020805460ff19166001179055610fc53390565b6001600160a01b0316816001600160a01b0316837f2f8788117e7eff1d82e926ec794901d17c78024a50270940304540a733656f0d60405160405180910390a45050565b6110138282610bf6565b1561077b576000828152602081815260408083206001600160a01b0385168085529252808320805460ff1916905551339285917ff6391f5c32d9c69d2a47ea670b442974b53935d1edc7fd64eb21e047a839171b9190a45050565b8015806110e85750604051636eb1769f60e11b81523060048201526001600160a01b03838116602483015284169063dd62ed3e90604401602060405180830381865afa1580156110c2573d6000803e3d6000fd5b505050506040513d601f19601f820116820180604052508101906110e69190612067565b155b6111535760405162461bcd60e51b815260206004820152603660248201527f5361666545524332303a20617070726f76652066726f6d206e6f6e2d7a65726f60448201527520746f206e6f6e2d7a65726f20616c6c6f77616e636560501b6064820152608401610768565b6040516001600160a01b0383166024820152604481018290526106f790849063095ea7b360e01b906064015b60408051601f198184030181529190526020810180516001600160e01b03166001600160e01b03199093169290921790915261157a565b6040516001600160a01b0383166024820152604481018290526106f790849063a9059cbb60e01b9060640161117f565b73b31f66aa3c1e785363f0875a1b74e27b85fd66c6196001600160a01b0384160161129b57604051632e1a7d4d60e01b81526004810186905273b31f66aa3c1e785363f0875a1b74e27b85fd66c790632e1a7d4d90602401600060405180830381600087803b15801561125857600080fd5b505af115801561126c573d6000803e3d6000fd5b505050506112786116a9565b156112915761128c60006001878789611759565b611314565b61128c8585611804565b6112ab6001600087876000611759565b73b31f66aa3c1e785363f0875a1b74e27b85fd66c76001600160a01b031663d0e30db0476040518263ffffffff1660e01b81526004016000604051808303818588803b1580156112fa57600080fd5b505af115801561130e573d6000803e3d6000fd5b50505050505b6040516370a0823160e01b81523060048201526000906001600160a01b038416906370a0823190602401602060405180830381865afa15801561135b573d6000803e3d6000fd5b505050506040513d601f19601f8201168201806040525081019061137f9190612067565b9050848110156113d15760405162461bcd60e51b815260206004820152601760248201527f496e73756666696369656e7420616d6f756e74206f75740000000000000000006044820152606401610768565b6113dc8382846118bd565b505050505050565b600083158061147057507f00000000000000000000000000000000000000000000000000000000000000006001600160a01b0316635c975abb6040518163ffffffff1660e01b8152600401602060405180830381865afa15801561144c573d6000803e3d6000fd5b505050506040513d601f19601f820116820180604052508101906114709190612045565b1561147d57506000610f5d565b6001600160a01b03831673b31f66aa3c1e785363f0875a1b74e27b85fd66c71480156114b657506003546001600160a01b038381169116145b156114cb576114c4846118e1565b9050610f5d565b6001600160a01b03821673b31f66aa3c1e785363f0875a1b74e27b85fd66c714801561150457506003546001600160a01b038481169116145b15610f5d57610f5a60016000866119e0565b6115208282610bf6565b61077b57611538816001600160a01b03166014611a81565b611543836020611a81565b6040516020016115549291906120a9565b60408051601f198184030181529082905262461bcd60e51b825261076891600401611d37565b600080836001600160a01b031683604051611595919061211e565b6000604051808303816000865af19150503d80600081146115d2576040519150601f19603f3d011682016040523d82523d6000602084013e6115d7565b606091505b5091509150816116295760405162461bcd60e51b815260206004820181905260248201527f5361666545524332303a206c6f772d6c6576656c2063616c6c206661696c65646044820152606401610768565b8051156116a357808060200190518101906116449190612045565b6116a35760405162461bcd60e51b815260206004820152602a60248201527f5361666545524332303a204552433230206f7065726174696f6e20646964206e6044820152691bdd081cdd58d8d9595960b21b6064820152608401610768565b50505050565b6040516325b1c76d60e21b81527f000000000000000000000000000000000000000000000000000000000000000060048201526000907f00000000000000000000000000000000000000000000000000000000000000006001600160a01b0316906396c71db490602401602060405180830381865afa158015611730573d6000803e3d6000fd5b505050506040513d601f19601f820116820180604052508101906117549190612045565b905090565b6040516348b4aac360e11b815260ff80871660048301528516602482015260448101849052606481018390524260848201527f00000000000000000000000000000000000000000000000000000000000000006001600160a01b031690639169558690839060a40160206040518083038185885af11580156117df573d6000803e3d6000fd5b50505050506040513d601f19601f820116820180604052508101906113dc9190612067565b60405163531c797160e11b81527f00000000000000000000000000000000000000000000000000000000000000006004820152602481018290524260448201527f00000000000000000000000000000000000000000000000000000000000000006001600160a01b03169063a638f2e290849060640160206040518083038185885af1158015611898573d6000803e3d6000fd5b50505050506040513d601f19601f820116820180604052508101906106f79190612067565b306001600160a01b038216146106f7576106f76001600160a01b03841682846111b6565b6000807f00000000000000000000000000000000000000000000000000000000000000006001600160a01b03166314a6bf0f6040518163ffffffff1660e01b8152600401602060405180830381865afa158015611942573d6000803e3d6000fd5b505050506040513d601f19601f820116820180604052508101906119669190612067565b9050828110158061197a575061197a6116a9565b1561198c57610f5d60006001856119e0565b6000670de0b6b3a76400008211156119ba576119ab60006001846119e0565b90506119b78285612096565b93505b60006119c585611c1d565b90506119d1818361213a565b95945050505050565b50919050565b60405163a95b089f60e01b815260ff808516600483015283166024820152604481018290526000907f00000000000000000000000000000000000000000000000000000000000000006001600160a01b03169063a95b089f90606401602060405180830381865afa925050508015611a75575060408051601f3d908101601f19168201909252611a7291810190612067565b60015b6114c457506000610f5d565b60606000611a9083600261214d565b611a9b90600261213a565b67ffffffffffffffff811115611ab357611ab3611ecd565b6040519080825280601f01601f191660200182016040528015611add576020820181803683370190505b509050600360fc1b81600081518110611af857611af8612164565b60200101906001600160f81b031916908160001a905350600f60fb1b81600181518110611b2757611b27612164565b60200101906001600160f81b031916908160001a9053506000611b4b84600261214d565b611b5690600161213a565b90505b6001811115611bce576f181899199a1a9b1b9c1cb0b131b232b360811b85600f1660108110611b8a57611b8a612164565b1a60f81b828281518110611ba057611ba0612164565b60200101906001600160f81b031916908160001a90535060049490941c93611bc78161217a565b9050611b59565b508315610f5d5760405162461bcd60e51b815260206004820181905260248201527f537472696e67733a20686578206c656e67746820696e73756666696369656e746044820152606401610768565b60405163f759cc3b60e01b81527f0000000000000000000000000000000000000000000000000000000000000000600482015260009081906001600160a01b037f0000000000000000000000000000000000000000000000000000000000000000169063f759cc3b90602401602060405180830381865afa158015611ca6573d6000803e3d6000fd5b505050506040513d601f19601f82011682018060405250810190611cca9190612067565b905080611cdf670de0b6b3a76400008561214d565b610f5d9190612191565b600060208284031215611cfb57600080fd5b81356001600160e01b031981168114610f5d57600080fd5b60005b83811015611d2e578181015183820152602001611d16565b50506000910152565b6020815260008251806020840152611d56816040850160208701611d13565b601f01601f19169190910160400192915050565b600060208284031215611d7c57600080fd5b5035919050565b80356001600160a01b0381168114611d9a57600080fd5b919050565b60008060408385031215611db257600080fd5b82359150611dc260208401611d83565b90509250929050565b600060208284031215611ddd57600080fd5b610f5d82611d83565b60008060408385031215611df957600080fd5b611e0283611d83565b9150611dc260208401611d83565b60008060408385031215611e2357600080fd5b611e2c83611d83565b946020939093013593505050565b600080600080600060a08688031215611e5257600080fd5b8535945060208601359350611e6960408701611d83565b9250611e7760608701611d83565b9150611e8560808701611d83565b90509295509295909350565b600080600060608486031215611ea657600080fd5b83359250611eb660208501611d83565b9150611ec460408501611d83565b90509250925092565b634e487b7160e01b600052604160045260246000fd5b600080600080600060a08688031215611efb57600080fd5b611f0486611d83565b9450611f1260208701611d83565b93506040860135925060608601359150608086013567ffffffffffffffff80821115611f3d57600080fd5b818801915088601f830112611f5157600080fd5b813581811115611f6357611f63611ecd565b604051601f8201601f19908116603f01168101908382118183101715611f8b57611f8b611ecd565b816040528281528b6020848701011115611fa457600080fd5b8260208601602083013760006020848301015280955050505050509295509295909350565b600181811c90821680611fdd57607f821691505b6020821081036119da57634e487b7160e01b600052602260045260246000fd5b60208082526028908201527f4d61696e7461696e61626c653a2043616c6c6572206973206e6f742061206d6160408201526734b73a30b4b732b960c11b606082015260800190565b60006020828403121561205757600080fd5b81518015158114610f5d57600080fd5b60006020828403121561207957600080fd5b5051919050565b634e487b7160e01b600052601160045260246000fd5b8181038181111561063e5761063e612080565b7f416363657373436f6e74726f6c3a206163636f756e74200000000000000000008152600083516120e1816017850160208801611d13565b7001034b99036b4b9b9b4b733903937b6329607d1b6017918401918201528351612112816028840160208801611d13565b01602801949350505050565b60008251612130818460208701611d13565b9190910192915050565b8082018082111561063e5761063e612080565b808202811582820484141761063e5761063e612080565b634e487b7160e01b600052603260045260246000fd5b60008161218957612189612080565b506000190190565b6000826121ae57634e487b7160e01b600052601260045260246000fd5b50049056fe339759585899103d2ace64958e37e18ccb0504652c81d4a1b8aa80fe2126ab95a2646970667358221220dbd6d4866a8b9971f29581ff951cd5dcb28e5468f0fc54fd3a46ce6a39ad322664736f6c63430008110033",
    "linkReferences": {}
  },
  "methodIdentifiers": {
    "DEFAULT_ADMIN_ROLE()": "a217fddf",
    "MAINTAINER_ROLE()": "f8742254",
    "addMaintainer(address)": "6b453c1f",
    "gavax()": "7b067076",
    "getRoleAdmin(bytes32)": "248a9ca3",
    "grantRole(bytes32,address)": "2f2ff15d",
    "hasRole(bytes32,address)": "91d14854",
    "name()": "06fdde03",
    "onERC1155Received(address,address,uint256,uint256,bytes)": "f23a6e61",
    "pool()": "16f0115b",
    "pooledTknId()": "f101ec32",
    "pooledTknInterface()": "8408f499",
    "portal()": "6425666b",
    "query(uint256,address,address)": "ef99893a",
    "recoverAVAX(uint256)": "4ebb7916",
    "recoverERC20(address,uint256)": "8980f11f",
    "removeMaintainer(address)": "d8baf7cf",
    "renounceRole(bytes32)": "8bb9c5bf",
    "renounceRole(bytes32,address)": "36568abe",
    "revokeAllowance(address,address)": "7ae26773",
    "revokeGAvaxAllowance()": "70253d82",
    "revokeRole(bytes32,address)": "d547741f",
    "setGAvaxAllowance()": "865e7987",
    "setInterfaceForPooledTkn(address)": "e52eb3db",
    "setSwapGasEstimate(uint256)": "84a33e63",
    "supportsInterface(bytes4)": "01ffc9a7",
    "swap(uint256,uint256,address,address,address)": "eab90da6",
    "swapGasEstimate()": "69cff80d",
    "transferOwnership(address)": "f2fde38b"
  },
  "id": 27
}