{
  "address": "0x70f0AC4CbAc1B078ac3c1c63cb18f1595d5D81aA",
  "abi": [
    {
      "inputs": [
        {
          "internalType": "string",
          "name": "_name",
          "type": "string"
        },
        {
          "internalType": "address",
          "name": "_vault",
          "type": "address"
        },
        {
          "internalType": "uint256",
          "name": "_swapGasEstimate",
          "type": "uint256"
        }
      ],
      "stateMutability": "nonpayable",
      "type": "constructor"
    },
    {
      "anonymous": false,
      "inputs": [
        {
          "indexed": true,
          "internalType": "address",
          "name": "previousOwner",
          "type": "address"
        },
        {
          "indexed": true,
          "internalType": "address",
          "name": "newOwner",
          "type": "address"
        }
      ],
      "name": "OwnershipTransferred",
      "type": "event"
    },
    {
      "anonymous": false,
      "inputs": [
        {
          "indexed": true,
          "internalType": "address",
          "name": "_asset",
          "type": "address"
        },
        {
          "indexed": false,
          "internalType": "uint256",
          "name": "amount",
          "type": "uint256"
        }
      ],
      "name": "Recovered",
      "type": "event"
    },
    {
      "anonymous": false,
      "inputs": [
        {
          "indexed": true,
          "internalType": "address",
          "name": "_adapter",
          "type": "address"
        },
        {
          "indexed": false,
          "internalType": "uint256",
          "name": "_newEstimate",
          "type": "uint256"
        }
      ],
      "name": "UpdatedGasEstimate",
      "type": "event"
    },
    {
      "anonymous": false,
      "inputs": [
        {
          "indexed": true,
          "internalType": "address",
          "name": "_tokenFrom",
          "type": "address"
        },
        {
          "indexed": true,
          "internalType": "address",
          "name": "_tokenTo",
          "type": "address"
        },
        {
          "indexed": false,
          "internalType": "uint256",
          "name": "_amountIn",
          "type": "uint256"
        },
        {
          "indexed": false,
          "internalType": "uint256",
          "name": "_amountOut",
          "type": "uint256"
        }
      ],
      "name": "YakAdapterSwap",
      "type": "event"
    },
    {
      "inputs": [],
      "name": "id",
      "outputs": [
        {
          "internalType": "bytes32",
          "name": "",
          "type": "bytes32"
        }
      ],
      "stateMutability": "view",
      "type": "function"
    },
    {
      "inputs": [],
      "name": "name",
      "outputs": [
        {
          "internalType": "string",
          "name": "",
          "type": "string"
        }
      ],
      "stateMutability": "view",
      "type": "function"
    },
    {
      "inputs": [],
      "name": "owner",
      "outputs": [
        {
          "internalType": "address",
          "name": "",
          "type": "address"
        }
      ],
      "stateMutability": "view",
      "type": "function"
    },
    {
      "inputs": [
        {
          "internalType": "uint256",
          "name": "_amountIn",
          "type": "uint256"
        },
        {
          "internalType": "address",
          "name": "_tokenIn",
          "type": "address"
        },
        {
          "internalType": "address",
          "name": "_tokenOut",
          "type": "address"
        }
      ],
      "name": "query",
      "outputs": [
        {
          "internalType": "uint256",
          "name": "",
          "type": "uint256"
        }
      ],
      "stateMutability": "view",
      "type": "function"
    },
    {
      "inputs": [
        {
          "internalType": "uint256",
          "name": "_amount",
          "type": "uint256"
        }
      ],
      "name": "recoverAVAX",
      "outputs": [],
      "stateMutability": "nonpayable",
      "type": "function"
    },
    {
      "inputs": [
        {
          "internalType": "address",
          "name": "_tokenAddress",
          "type": "address"
        },
        {
          "internalType": "uint256",
          "name": "_tokenAmount",
          "type": "uint256"
        }
      ],
      "name": "recoverERC20",
      "outputs": [],
      "stateMutability": "nonpayable",
      "type": "function"
    },
    {
      "inputs": [],
      "name": "renounceOwnership",
      "outputs": [],
      "stateMutability": "nonpayable",
      "type": "function"
    },
    {
      "inputs": [
        {
          "internalType": "address",
          "name": "_token",
          "type": "address"
        },
        {
          "internalType": "address",
          "name": "_spender",
          "type": "address"
        }
      ],
      "name": "revokeAllowance",
      "outputs": [],
      "stateMutability": "nonpayable",
      "type": "function"
    },
    {
      "inputs": [],
      "name": "setAllowances",
      "outputs": [],
      "stateMutability": "nonpayable",
      "type": "function"
    },
    {
      "inputs": [],
      "name": "setPoolTokens",
      "outputs": [],
      "stateMutability": "nonpayable",
      "type": "function"
    },
    {
      "inputs": [
        {
          "internalType": "uint256",
          "name": "_estimate",
          "type": "uint256"
        }
      ],
      "name": "setSwapGasEstimate",
      "outputs": [],
      "stateMutability": "nonpayable",
      "type": "function"
    },
    {
      "inputs": [
        {
          "internalType": "uint256",
          "name": "_amountIn",
          "type": "uint256"
        },
        {
          "internalType": "uint256",
          "name": "_amountOut",
          "type": "uint256"
        },
        {
          "internalType": "address",
          "name": "_fromToken",
          "type": "address"
        },
        {
          "internalType": "address",
          "name": "_toToken",
          "type": "address"
        },
        {
          "internalType": "address",
          "name": "_to",
          "type": "address"
        }
      ],
      "name": "swap",
      "outputs": [],
      "stateMutability": "nonpayable",
      "type": "function"
    },
    {
      "inputs": [],
      "name": "swapGasEstimate",
      "outputs": [
        {
          "internalType": "uint256",
          "name": "",
          "type": "uint256"
        }
      ],
      "stateMutability": "view",
      "type": "function"
    },
    {
      "inputs": [
        {
          "internalType": "address",
          "name": "",
          "type": "address"
        }
      ],
      "name": "tokenDecimals",
      "outputs": [
        {
          "internalType": "uint256",
          "name": "",
          "type": "uint256"
        }
      ],
      "stateMutability": "view",
      "type": "function"
    },
    {
      "inputs": [
        {
          "internalType": "address",
          "name": "newOwner",
          "type": "address"
        }
      ],
      "name": "transferOwnership",
      "outputs": [],
      "stateMutability": "nonpayable",
      "type": "function"
    },
    {
      "inputs": [],
      "name": "vault",
      "outputs": [
        {
          "internalType": "address",
          "name": "",
          "type": "address"
        }
      ],
      "stateMutability": "view",
      "type": "function"
    },
    {
      "stateMutability": "payable",
      "type": "receive"
    }
  ],
  "transactionHash": "0x9f8b277c23ca1bfb1d70cad262ee07e0c90abc9c6ff500f3af91d1d177f73f67",
  "args": [
    "ArableAdapter",
    "0xF39b1c8b977030F5FC81117C244Bf7B9514Ee562",
    235000
  ],
  "solcInputHash": "30fea43f8b47c0563b28a8124c9d7d35",
  "bytecode": "0x60806040523480156200001157600080fd5b506040516200220438038062002204833981810160405260608110156200003757600080fd5b81019080805160405193929190846401000000008211156200005857600080fd5b9083019060208201858111156200006e57600080fd5b82516401000000008111828201881017156200008957600080fd5b82525081516020918201929091019080838360005b83811015620000b85781810151838201526020016200009e565b50505050905090810190601f168015620000e65780820380516001836020036101000a031916815260200191505b506040908152602082015191015190925090506000620001056200019e565b600080546001600160a01b0319166001600160a01b0383169081178255604051929350917f8be0079c531659141344cd1fd0a4f28419497f9722a3daafe3b4186f6b6457e0908290a3508251620001649060029060208601906200073c565b50600380546001600160a01b0319166001600160a01b0384161790556200018b81620001a2565b6200019562000259565b50505062000975565b3390565b620001ac6200019e565b6001600160a01b0316620001bf6200054d565b6001600160a01b0316146200021b576040805162461bcd60e51b815260206004820181905260248201527f4f776e61626c653a2043616c6c6572206973206e6f7420746865206f776e6572604482015290519081900360640190fd5b600181905560408051828152905130917ff43f23b7a28e6f8ce6843a21bd7b48bce778aa913b8c8cf459edf7d770e8d38a919081900360200190a250565b60035460408051635fc1bad360e01b815290516000926001600160a01b031691635fc1bad3916004808301926020929190829003018186803b1580156200029f57600080fd5b505afa158015620002b4573d6000803e3d6000fd5b505050506040513d6020811015620002cb57600080fd5b5051905060005b8181101562000549576003546040805163a195c25360e01b815290516000926001600160a01b03169163a195c2539160048083019286929190829003018186803b1580156200032057600080fd5b505afa15801562000335573d6000803e3d6000fd5b505050506040513d6000823e601f3d908101601f1916820160405260208110156200035f57600080fd5b81019080805160405193929190846401000000008211156200038057600080fd5b9083019060208201858111156200039657600080fd5b8251866020820283011164010000000082111715620003b457600080fd5b82525081516020918201928201910280838360005b83811015620003e3578181015183820152602001620003c9565b505050509050016040525050508281518110620003fc57fe5b60200260200101519050806001600160a01b031663313ce5676040518163ffffffff1660e01b815260040160206040518083038186803b1580156200044057600080fd5b505afa15801562000455573d6000803e3d6000fd5b505050506040513d60208110156200046c57600080fd5b50516001600160a01b03808316600081815260046020818152604080842060ff9097169096556003548651636eb1769f60e11b81523093810193909352909416602482015293519093919263dd62ed3e9260448082019391829003018186803b158015620004d957600080fd5b505afa158015620004ee573d6000803e3d6000fd5b505050506040513d60208110156200050557600080fd5b505190506000198110156200053e576003546200053e906001600160a01b0384811691166000196200055c602090811b62000e6e17901c565b5050600101620002d2565b5050565b6000546001600160a01b031690565b801580620005eb5750604051636eb1769f60e11b81526001600160a01b0384169063dd62ed3e9062000595903090869060040162000866565b60206040518083038186803b158015620005ae57600080fd5b505afa158015620005c3573d6000803e3d6000fd5b505050506040513d601f19601f82011682018060405250810190620005e9919062000811565b155b620006135760405162461bcd60e51b81526004016200060a9062000918565b60405180910390fd5b6200066e8363095ea7b360e01b84846040516024016200063592919062000880565b60408051808303601f190181529190526020810180516001600160e01b0319939093166001600160e01b03938416179052906200067316565b505050565b600080836001600160a01b0316836040516200069091906200082a565b6000604051808303816000865af19150503d8060008114620006cf576040519150601f19603f3d011682016040523d82523d6000602084013e620006d4565b606091505b509150915081620006f95760405162461bcd60e51b81526004016200060a9062000899565b805115620007365780806020019051810190620007179190620007e8565b620007365760405162461bcd60e51b81526004016200060a90620008ce565b50505050565b828054600181600116156101000203166002900490600052602060002090601f016020900481019282620007745760008555620007bf565b82601f106200078f57805160ff1916838001178555620007bf565b82800160010185558215620007bf579182015b82811115620007bf578251825591602001919060010190620007a2565b50620007cd929150620007d1565b5090565b5b80821115620007cd5760008155600101620007d2565b600060208284031215620007fa578081fd5b815180151581146200080a578182fd5b9392505050565b60006020828403121562000823578081fd5b5051919050565b60008251815b818110156200084c576020818601810151858301520162000830565b818111156200085b5782828501525b509190910192915050565b6001600160a01b0392831681529116602082015260400190565b6001600160a01b03929092168252602082015260400190565b6020808252818101527f5361666545524332303a206c6f772d6c6576656c2063616c6c206661696c6564604082015260600190565b6020808252602a908201527f5361666545524332303a204552433230206f7065726174696f6e20646964206e6040820152691bdd081cdd58d8d9595960b21b606082015260800190565b60208082526036908201527f5361666545524332303a20617070726f76652066726f6d206e6f6e2d7a65726f60408201527f20746f206e6f6e2d7a65726f20616c6c6f77616e636500000000000000000000606082015260800190565b61187f80620009856000396000f3fe6080604052600436106100f75760003560e01c80638da5cb5b1161008a578063eab90da611610059578063eab90da614610336578063ef99893a14610387578063f2fde38b146103c8578063fbfa77cf146103fb576100fe565b80638da5cb5b146102a85780638ee573ac146102d9578063af640d0f1461030c578063dbd9a4d414610321576100fe565b8063715018a6116100c6578063715018a6146101f55780637ae267731461020a57806384a33e63146102455780638980f11f1461026f576100fe565b806306fdde0314610103578063114e4ce41461018d5780634ebb7916146101a457806369cff80d146101ce576100fe565b366100fe57005b600080fd5b34801561010f57600080fd5b50610118610410565b6040805160208082528351818301528351919283929083019185019080838360005b8381101561015257818101518382015260200161013a565b50505050905090810190601f16801561017f5780820380516001836020036101000a031916815260200191505b509250505060405180910390f35b34801561019957600080fd5b506101a261049b565b005b3480156101b057600080fd5b506101a2600480360360208110156101c757600080fd5b503561079e565b3480156101da57600080fd5b506101e36108cf565b60408051918252519081900360200190f35b34801561020157600080fd5b506101a26108d5565b34801561021657600080fd5b506101a26004803603604081101561022d57600080fd5b506001600160a01b03813581169160200135166109a0565b34801561025157600080fd5b506101a26004803603602081101561026857600080fd5b5035610a29565b34801561027b57600080fd5b506101a26004803603604081101561029257600080fd5b506001600160a01b038135169060200135610adb565b3480156102b457600080fd5b506102bd610bfb565b604080516001600160a01b039092168252519081900360200190f35b3480156102e557600080fd5b506101e3600480360360208110156102fc57600080fd5b50356001600160a01b0316610c0a565b34801561031857600080fd5b506101e3610c1c565b34801561032d57600080fd5b506101a2610c40565b34801561034257600080fd5b506101a2600480360360a081101561035957600080fd5b508035906020810135906001600160a01b036040820135811691606081013582169160809091013516610cb6565b34801561039357600080fd5b506101e3600480360360608110156103aa57600080fd5b508035906001600160a01b0360208201358116916040013516610d27565b3480156103d457600080fd5b506101a2600480360360208110156103eb57600080fd5b50356001600160a01b0316610d3e565b34801561040757600080fd5b506102bd610e5f565b6002805460408051602060018416156101000260001901909316849004601f810184900484028201840190925281815292918301828280156104935780601f1061046857610100808354040283529160200191610493565b820191906000526020600020905b81548152906001019060200180831161047657829003601f168201915b505050505081565b600354604080517f5fc1bad300000000000000000000000000000000000000000000000000000000815290516000926001600160a01b031691635fc1bad3916004808301926020929190829003018186803b1580156104f957600080fd5b505afa15801561050d573d6000803e3d6000fd5b505050506040513d602081101561052357600080fd5b5051905060005b8181101561079a57600354604080517fa195c25300000000000000000000000000000000000000000000000000000000815290516000926001600160a01b03169163a195c2539160048083019286929190829003018186803b15801561058f57600080fd5b505afa1580156105a3573d6000803e3d6000fd5b505050506040513d6000823e601f3d908101601f1916820160405260208110156105cc57600080fd5b81019080805160405193929190846401000000008211156105ec57600080fd5b90830190602082018581111561060157600080fd5b825186602082028301116401000000008211171561061e57600080fd5b82525081516020918201928201910280838360005b8381101561064b578181015183820152602001610633565b50505050905001604052505050828151811061066357fe5b60200260200101519050806001600160a01b031663313ce5676040518163ffffffff1660e01b815260040160206040518083038186803b1580156106a657600080fd5b505afa1580156106ba573d6000803e3d6000fd5b505050506040513d60208110156106d057600080fd5b50516001600160a01b03808316600081815260046020818152604080842060ff9097169096556003548651636eb1769f60e11b81523093810193909352909416602482015293519093919263dd62ed3e9260448082019391829003018186803b15801561073c57600080fd5b505afa158015610750573d6000803e3d6000fd5b505050506040513d602081101561076657600080fd5b5051905060001981101561079057600354610790906001600160a01b038481169116600019610e6e565b505060010161052a565b5050565b6107a6610fa3565b6001600160a01b03166107b7610bfb565b6001600160a01b031614610812576040805162461bcd60e51b815260206004820181905260248201527f4f776e61626c653a2043616c6c6572206973206e6f7420746865206f776e6572604482015290519081900360640190fd5b60008111610867576040805162461bcd60e51b815260206004820152601e60248201527f59616b416461707465723a204e6f7468696e6720746f207265636f7665720000604482015290519081900360640190fd5b604051339082156108fc029083906000818181858888f19350505050158015610894573d6000803e3d6000fd5b506040805182815290516000917f8c1256b8896378cd5044f80c202f9772b9d77dc85c8a6eb51967210b09bfaa28919081900360200190a250565b60015481565b6108dd610fa3565b6001600160a01b03166108ee610bfb565b6001600160a01b031614610949576040805162461bcd60e51b815260206004820181905260248201527f4f776e61626c653a2043616c6c6572206973206e6f7420746865206f776e6572604482015290519081900360640190fd5b600080546040516001600160a01b03909116907f8be0079c531659141344cd1fd0a4f28419497f9722a3daafe3b4186f6b6457e0908390a36000805473ffffffffffffffffffffffffffffffffffffffff19169055565b6109a8610fa3565b6001600160a01b03166109b9610bfb565b6001600160a01b031614610a14576040805162461bcd60e51b815260206004820181905260248201527f4f776e61626c653a2043616c6c6572206973206e6f7420746865206f776e6572604482015290519081900360640190fd5b61079a6001600160a01b038316826000610e6e565b610a31610fa3565b6001600160a01b0316610a42610bfb565b6001600160a01b031614610a9d576040805162461bcd60e51b815260206004820181905260248201527f4f776e61626c653a2043616c6c6572206973206e6f7420746865206f776e6572604482015290519081900360640190fd5b600181905560408051828152905130917ff43f23b7a28e6f8ce6843a21bd7b48bce778aa913b8c8cf459edf7d770e8d38a919081900360200190a250565b610ae3610fa3565b6001600160a01b0316610af4610bfb565b6001600160a01b031614610b4f576040805162461bcd60e51b815260206004820181905260248201527f4f776e61626c653a2043616c6c6572206973206e6f7420746865206f776e6572604482015290519081900360640190fd5b60008111610ba4576040805162461bcd60e51b815260206004820152601e60248201527f59616b416461707465723a204e6f7468696e6720746f207265636f7665720000604482015290519081900360640190fd5b610bb86001600160a01b0383163383610fa7565b6040805182815290516001600160a01b038416917f8c1256b8896378cd5044f80c202f9772b9d77dc85c8a6eb51967210b09bfaa28919081900360200190a25050565b6000546001600160a01b031690565b60046020526000908152604090205481565b7f896ecc4035234d8c97fc44d0e34e76417de0cdd53a3f7e3a19ca3efbcb9156ef81565b610c48610fa3565b6001600160a01b0316610c59610bfb565b6001600160a01b031614610cb4576040805162461bcd60e51b815260206004820181905260248201527f4f776e61626c653a2043616c6c6572206973206e6f7420746865206f776e6572604482015290519081900360640190fd5b565b610cc0838661079a565b610ccd8585858585610fc6565b816001600160a01b0316836001600160a01b03167fe2bdbc6b7225eb0a972ac943c485a6cc05f7c6811838bce8903f23200fb744fa8787604051808381526020018281526020019250505060405180910390a35050505050565b6000610d34848484611066565b90505b9392505050565b610d46610fa3565b6001600160a01b0316610d57610bfb565b6001600160a01b031614610db2576040805162461bcd60e51b815260206004820181905260248201527f4f776e61626c653a2043616c6c6572206973206e6f7420746865206f776e6572604482015290519081900360640190fd5b6001600160a01b038116610df75760405162461bcd60e51b81526004018080602001828103825260268152602001806118246026913960400191505060405180910390fd5b600080546040516001600160a01b03808516939216917f8be0079c531659141344cd1fd0a4f28419497f9722a3daafe3b4186f6b6457e091a36000805473ffffffffffffffffffffffffffffffffffffffff19166001600160a01b0392909216919091179055565b6003546001600160a01b031681565b801580610ef65750604051636eb1769f60e11b81526001600160a01b0384169063dd62ed3e90610ea49030908690600401611701565b60206040518083038186803b158015610ebc57600080fd5b505afa158015610ed0573d6000803e3d6000fd5b505050506040513d601f19601f82011682018060405250810190610ef491906116b0565b155b610f1b5760405162461bcd60e51b8152600401610f12906117c6565b60405180910390fd5b610f9e8363095ea7b360e01b8484604051602401610f3a92919061171b565b60408051601f198184030181529190526020810180517bffffffffffffffffffffffffffffffffffffffffffffffffffffffff167fffffffff00000000000000000000000000000000000000000000000000000000909316929092179091526113fa565b505050565b3390565b610f9e8363a9059cbb60e01b8484604051602401610f3a92919061171b565b600354604080517f6d069a670000000000000000000000000000000000000000000000000000000081526001600160a01b03868116600483015260248201899052858116604483015291519190921691636d069a6791606480830192600092919082900301818387803b15801561103c57600080fd5b505af1158015611050573d6000803e3d6000fd5b5050505061105f8285836114b6565b5050505050565b60008315806110865750816001600160a01b0316836001600160a01b0316145b80611107575060035460408051634e34f26b60e01b81526001600160a01b03868116600483015291519190921691634e34f26b916024808301926020929190829003018186803b1580156110d957600080fd5b505afa1580156110ed573d6000803e3d6000fd5b505050506040513d602081101561110357600080fd5b5051155b80611188575060035460408051634e34f26b60e01b81526001600160a01b03858116600483015291519190921691634e34f26b916024808301926020929190829003018186803b15801561115a57600080fd5b505afa15801561116e573d6000803e3d6000fd5b505050506040513d602081101561118457600080fd5b5051155b80611208575060035460408051636925cf9160e01b81526001600160a01b03868116600483015291519190921691636925cf91916024808301926020929190829003018186803b1580156111db57600080fd5b505afa1580156111ef573d6000803e3d6000fd5b505050506040513d602081101561120557600080fd5b50515b80611288575060035460408051636925cf9160e01b81526001600160a01b03858116600483015291519190921691636925cf91916024808301926020929190829003018186803b15801561125b57600080fd5b505afa15801561126f573d6000803e3d6000fd5b505050506040513d602081101561128557600080fd5b50515b8061130a5750600360009054906101000a90046001600160a01b03166001600160a01b0316636ddd17136040518163ffffffff1660e01b815260040160206040518083038186803b1580156112dc57600080fd5b505afa1580156112f0573d6000803e3d6000fd5b505050506040513d602081101561130657600080fd5b5051155b1561131757506000610d37565b60006113248585856114da565b90506000600360009054906101000a90046001600160a01b03166001600160a01b03166354cf2aeb6040518163ffffffff1660e01b815260040160206040518083038186803b15801561137657600080fd5b505afa15801561138a573d6000803e3d6000fd5b505050506040513d60208110156113a057600080fd5b50519050670de0b6b3a76400006000816113ba8585611526565b816113c157fe5b04905060006113d08583611598565b90506113dc87826115f0565b6113ee57600095505050505050610d37565b98975050505050505050565b600080836001600160a01b03168360405161141591906116c8565b6000604051808303816000865af19150503d8060008114611452576040519150601f19603f3d011682016040523d82523d6000602084013e611457565b606091505b5091509150816114795760405162461bcd60e51b8152600401610f1290611734565b8051156114b057808060200190518101906114949190611690565b6114b05760405162461bcd60e51b8152600401610f1290611769565b50505050565b306001600160a01b03821614610f9e57610f9e6001600160a01b0384168284610fa7565b6001600160a01b03808316600090815260046020526040808220549284168252812054909190600a82810a9061151490889084900a611526565b8161151b57fe5b049695505050505050565b60008115806115415750508082028282828161153e57fe5b04145b611592576040805162461bcd60e51b815260206004820152601e60248201527f536166654d6174683a2064732d6d6174682d6d756c2d6f766572666c6f770000604482015290519081900360640190fd5b92915050565b80820382811115611592576040805162461bcd60e51b815260206004820152601f60248201527f536166654d6174683a2064732d6d6174682d7375622d756e646572666c6f7700604482015290519081900360640190fd5b600354604080517f70a082310000000000000000000000000000000000000000000000000000000081526001600160a01b03928316600482015290516000928492908616916370a0823191602480820192602092909190829003018186803b15801561165b57600080fd5b505afa15801561166f573d6000803e3d6000fd5b505050506040513d602081101561168557600080fd5b505110159392505050565b6000602082840312156116a1578081fd5b81518015158114610d37578182fd5b6000602082840312156116c1578081fd5b5051919050565b60008251815b818110156116e857602081860181015185830152016116ce565b818111156116f65782828501525b509190910192915050565b6001600160a01b0392831681529116602082015260400190565b6001600160a01b03929092168252602082015260400190565b6020808252818101527f5361666545524332303a206c6f772d6c6576656c2063616c6c206661696c6564604082015260600190565b6020808252602a908201527f5361666545524332303a204552433230206f7065726174696f6e20646964206e60408201527f6f74207375636365656400000000000000000000000000000000000000000000606082015260800190565b60208082526036908201527f5361666545524332303a20617070726f76652066726f6d206e6f6e2d7a65726f60408201527f20746f206e6f6e2d7a65726f20616c6c6f77616e63650000000000000000000060608201526080019056fe4f776e61626c653a204e6577206f776e657220697320746865207a65726f2061646472657373a26469706673582212202ecc0cdb52349b7154c553b16b2ba68bf445c3d17a0bfb03b4a368d3c6485d9c64736f6c63430007060033",
  "devdoc": {
    "kind": "dev",
    "methods": {
      "owner()": {
        "details": "Returns the address of the current owner."
      },
      "recoverAVAX(uint256)": {
        "params": {
          "_amount": "amount"
        }
      },
      "recoverERC20(address,uint256)": {
        "params": {
          "_tokenAddress": "token address",
          "_tokenAmount": "amount to recover"
        }
      },
      "renounceOwnership()": {
        "details": "Leaves the contract without owner. It will not be possible to call `onlyOwner` functions anymore. Can only be called by the current owner. NOTE: Renouncing ownership will leave the contract without an owner, thereby removing any functionality that is only available to the owner."
      },
      "revokeAllowance(address,address)": {
        "params": {
          "_spender": "address",
          "_token": "address"
        }
      },
      "setAllowances()": {
        "details": "Should use modifier `onlyOwner` to avoid griefing"
      },
      "swap(uint256,uint256,address,address,address)": {
        "params": {
          "_amountIn": "input amount in starting token",
          "_amountOut": "amount out in ending token",
          "_fromToken": "ERC20 token being sold",
          "_to": "address where swapped funds should be sent to",
          "_toToken": "ERC20 token being bought"
        }
      },
      "transferOwnership(address)": {
        "details": "Transfers ownership of the contract to a new account (`newOwner`). Can only be called by the current owner."
      }
    },
    "version": 1
  },
  "userdoc": {
    "kind": "user",
    "methods": {
      "recoverAVAX(uint256)": {
        "notice": "Recover AVAX from contract"
      },
      "recoverERC20(address,uint256)": {
        "notice": "Recover ERC20 from contract"
      },
      "revokeAllowance(address,address)": {
        "notice": "Revoke token allowance"
      },
      "setAllowances()": {
        "notice": "Approve tokens for use in Strategy"
      },
      "swap(uint256,uint256,address,address,address)": {
        "notice": "Execute a swap from token to token assuming this contract already holds input tokensInteract through the router"
      }
    },
    "version": 1
  },
  "storageLayout": {
    "storage": [
      {
        "astId": 10345,
        "contract": "contracts/adapters/ArableSFAdapter.sol:ArableSFAdapter",
        "label": "_owner",
        "offset": 0,
        "slot": "0",
        "type": "t_address"
      },
      {
        "astId": 50,
        "contract": "contracts/adapters/ArableSFAdapter.sol:ArableSFAdapter",
        "label": "swapGasEstimate",
        "offset": 0,
        "slot": "1",
        "type": "t_uint256"
      },
      {
        "astId": 52,
        "contract": "contracts/adapters/ArableSFAdapter.sol:ArableSFAdapter",
        "label": "name",
        "offset": 0,
        "slot": "2",
        "type": "t_string_storage"
      },
      {
        "astId": 2283,
        "contract": "contracts/adapters/ArableSFAdapter.sol:ArableSFAdapter",
        "label": "vault",
        "offset": 0,
        "slot": "3",
        "type": "t_address"
      },
      {
        "astId": 2287,
        "contract": "contracts/adapters/ArableSFAdapter.sol:ArableSFAdapter",
        "label": "tokenDecimals",
        "offset": 0,
        "slot": "4",
        "type": "t_mapping(t_address,t_uint256)"
      }
    ],
    "types": {
      "t_address": {
        "encoding": "inplace",
        "label": "address",
        "numberOfBytes": "20"
      },
      "t_mapping(t_address,t_uint256)": {
        "encoding": "mapping",
        "key": "t_address",
        "label": "mapping(address => uint256)",
        "numberOfBytes": "32",
        "value": "t_uint256"
      },
      "t_string_storage": {
        "encoding": "bytes",
        "label": "string",
        "numberOfBytes": "32"
      },
      "t_uint256": {
        "encoding": "inplace",
        "label": "uint256",
        "numberOfBytes": "32"
      }
    }
  }
}