{
  "address": "0xd311F964Dd5bb5ecBd971592E845b0fb74c98b39",
  "abi": [
    {
      "inputs": [
        {
          "internalType": "address[]",
          "name": "_newTokens",
          "type": "address[]"
        },
        {
          "internalType": "address[]",
          "name": "_oldTokens",
          "type": "address[]"
        },
        {
          "internalType": "uint256",
          "name": "_swapGasEstimate",
          "type": "uint256"
        }
      ],
      "stateMutability": "nonpayable",
      "type": "constructor"
    },
    {
      "anonymous": false,
      "inputs": [
        {
          "indexed": true,
          "internalType": "address",
          "name": "previousOwner",
          "type": "address"
        },
        {
          "indexed": true,
          "internalType": "address",
          "name": "newOwner",
          "type": "address"
        }
      ],
      "name": "OwnershipTransferred",
      "type": "event"
    },
    {
      "anonymous": false,
      "inputs": [
        {
          "indexed": true,
          "internalType": "address",
          "name": "_asset",
          "type": "address"
        },
        {
          "indexed": false,
          "internalType": "uint256",
          "name": "amount",
          "type": "uint256"
        }
      ],
      "name": "Recovered",
      "type": "event"
    },
    {
      "anonymous": false,
      "inputs": [
        {
          "indexed": true,
          "internalType": "address",
          "name": "_adapter",
          "type": "address"
        },
        {
          "indexed": false,
          "internalType": "uint256",
          "name": "_newEstimate",
          "type": "uint256"
        }
      ],
      "name": "UpdatedGasEstimate",
      "type": "event"
    },
    {
      "anonymous": false,
      "inputs": [
        {
          "indexed": true,
          "internalType": "address",
          "name": "_tokenFrom",
          "type": "address"
        },
        {
          "indexed": true,
          "internalType": "address",
          "name": "_tokenTo",
          "type": "address"
        },
        {
          "indexed": false,
          "internalType": "uint256",
          "name": "_amountIn",
          "type": "uint256"
        },
        {
          "indexed": false,
          "internalType": "uint256",
          "name": "_amountOut",
          "type": "uint256"
        }
      ],
      "name": "YakAdapterSwap",
      "type": "event"
    },
    {
      "inputs": [],
      "name": "ID",
      "outputs": [
        {
          "internalType": "bytes32",
          "name": "",
          "type": "bytes32"
        }
      ],
      "stateMutability": "view",
      "type": "function"
    },
    {
      "inputs": [
        {
          "internalType": "address",
          "name": "",
          "type": "address"
        }
      ],
      "name": "isNewBridgeToken",
      "outputs": [
        {
          "internalType": "bool",
          "name": "",
          "type": "bool"
        }
      ],
      "stateMutability": "view",
      "type": "function"
    },
    {
      "inputs": [],
      "name": "name",
      "outputs": [
        {
          "internalType": "string",
          "name": "",
          "type": "string"
        }
      ],
      "stateMutability": "view",
      "type": "function"
    },
    {
      "inputs": [],
      "name": "owner",
      "outputs": [
        {
          "internalType": "address",
          "name": "",
          "type": "address"
        }
      ],
      "stateMutability": "view",
      "type": "function"
    },
    {
      "inputs": [
        {
          "internalType": "uint256",
          "name": "_amountIn",
          "type": "uint256"
        },
        {
          "internalType": "address",
          "name": "_tokenIn",
          "type": "address"
        },
        {
          "internalType": "address",
          "name": "_tokenOut",
          "type": "address"
        }
      ],
      "name": "query",
      "outputs": [
        {
          "internalType": "uint256",
          "name": "",
          "type": "uint256"
        }
      ],
      "stateMutability": "view",
      "type": "function"
    },
    {
      "inputs": [
        {
          "internalType": "uint256",
          "name": "_amount",
          "type": "uint256"
        }
      ],
      "name": "recoverAVAX",
      "outputs": [],
      "stateMutability": "nonpayable",
      "type": "function"
    },
    {
      "inputs": [
        {
          "internalType": "address",
          "name": "_tokenAddress",
          "type": "address"
        },
        {
          "internalType": "uint256",
          "name": "_tokenAmount",
          "type": "uint256"
        }
      ],
      "name": "recoverERC20",
      "outputs": [],
      "stateMutability": "nonpayable",
      "type": "function"
    },
    {
      "inputs": [],
      "name": "renounceOwnership",
      "outputs": [],
      "stateMutability": "nonpayable",
      "type": "function"
    },
    {
      "inputs": [
        {
          "internalType": "address",
          "name": "_token",
          "type": "address"
        },
        {
          "internalType": "address",
          "name": "_spender",
          "type": "address"
        }
      ],
      "name": "revokeAllowance",
      "outputs": [],
      "stateMutability": "nonpayable",
      "type": "function"
    },
    {
      "inputs": [],
      "name": "setAllowances",
      "outputs": [],
      "stateMutability": "nonpayable",
      "type": "function"
    },
    {
      "inputs": [
        {
          "internalType": "address[]",
          "name": "_newTokens",
          "type": "address[]"
        },
        {
          "internalType": "address[]",
          "name": "_oldTokens",
          "type": "address[]"
        }
      ],
      "name": "setNewBridgeTokens",
      "outputs": [],
      "stateMutability": "nonpayable",
      "type": "function"
    },
    {
      "inputs": [
        {
          "internalType": "uint256",
          "name": "_estimate",
          "type": "uint256"
        }
      ],
      "name": "setSwapGasEstimate",
      "outputs": [],
      "stateMutability": "nonpayable",
      "type": "function"
    },
    {
      "inputs": [
        {
          "internalType": "uint256",
          "name": "_amountIn",
          "type": "uint256"
        },
        {
          "internalType": "uint256",
          "name": "_amountOut",
          "type": "uint256"
        },
        {
          "internalType": "address",
          "name": "_fromToken",
          "type": "address"
        },
        {
          "internalType": "address",
          "name": "_toToken",
          "type": "address"
        },
        {
          "internalType": "address",
          "name": "_to",
          "type": "address"
        }
      ],
      "name": "swap",
      "outputs": [],
      "stateMutability": "nonpayable",
      "type": "function"
    },
    {
      "inputs": [],
      "name": "swapGasEstimate",
      "outputs": [
        {
          "internalType": "uint256",
          "name": "",
          "type": "uint256"
        }
      ],
      "stateMutability": "view",
      "type": "function"
    },
    {
      "inputs": [
        {
          "internalType": "address",
          "name": "newOwner",
          "type": "address"
        }
      ],
      "name": "transferOwnership",
      "outputs": [],
      "stateMutability": "nonpayable",
      "type": "function"
    },
    {
      "stateMutability": "payable",
      "type": "receive"
    }
  ],
  "transactionHash": "0x6b7cc829933f5ed58ea20b0f28a05ffceab5ef977da29d857d118e27cdd0b739",
  "args": [
    [
      "0x49D5c2BdFfac6CE2BFdB6640F4F80f226bc10bAB",
      "0x50b7545627a5162F82A992c33b87aDc75187B218",
      "0xd586E7F844cEa2F87f50152665BCbc2C279D8d70",
      "0xc7198437980c041c805A1EDcbA50c1Ce5db95118",
      "0x5947BB275c521040051D82396192181b413227A3",
      "0x8ebaf22b6f053dffeaf46f4dd9efa95d89ba8580",
      "0x37b608519f91f70f2eeb0e5ed9af4061722e4f76",
      "0x19860ccb0a68fd4213ab9d8266f7bbf05a8dde98"
    ],
    [
      "0xf20d962a6c8f70c731bd838a3a388D7d48fA6e15",
      "0x408D4cD0ADb7ceBd1F1A1C33A0Ba2098E1295bAB",
      "0xbA7dEebBFC5fA1100Fb055a87773e1E99Cd3507a",
      "0xde3A24028580884448a5397872046a019649b084",
      "0xB3fe5374F67D7a22886A0eE082b2E2f9d2651651",
      "0xf39f9671906d8630812f9d9863bBEf5D523c84Ab",
      "0x39cf1BD5f15fb22eC3D9Ff86b0727aFc203427cc",
      "0xaEb044650278731Ef3DC244692AB9F64C78FfaEA"
    ],
    90000
  ],
  "solcInputHash": "d9b0559cdc6c4f6c37a22c036da43e60",
  "bytecode": "0x60806040523480156200001157600080fd5b5060405162001dc038038062001dc0833981810160405260608110156200003757600080fd5b81019080805160405193929190846401000000008211156200005857600080fd5b9083019060208201858111156200006e57600080fd5b82518660208202830111640100000000821117156200008c57600080fd5b82525081516020918201928201910280838360005b83811015620000bb578181015183820152602001620000a1565b5050505090500160405260200180516040519392919084640100000000821115620000e557600080fd5b908301906020820185811115620000fb57600080fd5b82518660208202830111640100000000821117156200011957600080fd5b82525081516020918201928201910280838360005b83811015620001485781810151838201526020016200012e565b5050505091909101604052506020015191506000905062000168620001d2565b600080546001600160a01b0319166001600160a01b0383169081178255604051929350917f8be0079c531659141344cd1fd0a4f28419497f9722a3daafe3b4186f6b6457e0908290a350620001bd81620001d6565b620001c983836200027c565b505050620008cf565b3390565b620001e0620001d2565b6001600160a01b0316620001f3620004a4565b6001600160a01b0316146200023e576040805162461bcd60e51b8152602060048201819052602482015260008051602062001d72833981519152604482015290519081900360640190fd5b600181905560408051828152905130917ff43f23b7a28e6f8ce6843a21bd7b48bce778aa913b8c8cf459edf7d770e8d38a919081900360200190a250565b62000286620001d2565b6001600160a01b031662000299620004a4565b6001600160a01b031614620002e4576040805162461bcd60e51b8152602060048201819052602482015260008051602062001d72833981519152604482015290519081900360640190fd5b8051825114620003265760405162461bcd60e51b815260040180806020018281038252602e81526020018062001d92602e913960400191505060405180910390fd5b60005b82518110156200049f5760008382815181106200034257fe5b60200260200101516001600160a01b031663ab32dbb78484815181106200036557fe5b60200260200101516040518263ffffffff1660e01b815260040180826001600160a01b0316815260200191505060206040518083038186803b158015620003ab57600080fd5b505afa158015620003c0573d6000803e3d6000fd5b505050506040513d6020811015620003d757600080fd5b505111620004175760405162461bcd60e51b815260040180806020018281038252602b81526020018062001d47602b913960400191505060405180910390fd5b620004518382815181106200042857fe5b60200260200101518383815181106200043d57fe5b6020026020010151620004b360201b60201c565b6001600360008584815181106200046457fe5b6020908102919091018101516001600160a01b03168252810191909152604001600020805460ff191691151591909117905560010162000329565b505050565b6000546001600160a01b031690565b60408051636eb1769f60e11b81523060048201526001600160a01b038481166024830152915160009284169163dd62ed3e916044808301926020929190829003018186803b1580156200050557600080fd5b505afa1580156200051a573d6000803e3d6000fd5b505050506040513d60208110156200053157600080fd5b505190506000198110156200049f576200049f83600019846001600160a01b03166200056760201b62000e20179092919060201c565b801580620005f65750604051636eb1769f60e11b81526001600160a01b0384169063dd62ed3e90620005a09030908690600401620007c0565b60206040518083038186803b158015620005b957600080fd5b505afa158015620005ce573d6000803e3d6000fd5b505050506040513d601f19601f82011682018060405250810190620005f491906200076b565b155b6200061e5760405162461bcd60e51b8152600401620006159062000872565b60405180910390fd5b6200049f8363095ea7b360e01b848460405160240162000640929190620007da565b60408051808303601f190181529190526020810180516001600160e01b0319939093166001600160e01b03938416179052906200067916565b600080836001600160a01b03168360405162000696919062000784565b6000604051808303816000865af19150503d8060008114620006d5576040519150601f19603f3d011682016040523d82523d6000602084013e620006da565b606091505b509150915081620006ff5760405162461bcd60e51b81526004016200061590620007f3565b8051156200073c57808060200190518101906200071d919062000742565b6200073c5760405162461bcd60e51b8152600401620006159062000828565b50505050565b60006020828403121562000754578081fd5b8151801515811462000764578182fd5b9392505050565b6000602082840312156200077d578081fd5b5051919050565b60008251815b81811015620007a657602081860181015185830152016200078a565b81811115620007b55782828501525b509190910192915050565b6001600160a01b0392831681529116602082015260400190565b6001600160a01b03929092168252602082015260400190565b6020808252818101527f5361666545524332303a206c6f772d6c6576656c2063616c6c206661696c6564604082015260600190565b6020808252602a908201527f5361666545524332303a204552433230206f7065726174696f6e20646964206e6040820152691bdd081cdd58d8d9595960b21b606082015260800190565b60208082526036908201527f5361666545524332303a20617070726f76652066726f6d206e6f6e2d7a65726f60408201527f20746f206e6f6e2d7a65726f20616c6c6f77616e636500000000000000000000606082015260800190565b61146880620008df6000396000f3fe6080604052600436106100ec5760003560e01c80638980f11f1161008a578063eab90da611610059578063eab90da61461032a578063ef99893a1461037b578063f045f3f3146103bc578063f2fde38b146104f0576100f3565b80638980f11f146102965780638da5cb5b146102cf578063b3cea21714610300578063dbd9a4d414610315576100f3565b806369cff80d116100c657806369cff80d146101f5578063715018a61461021c5780637ae267731461023157806384a33e631461026c576100f3565b806301d790c6146100f857806306fdde031461013f5780634ebb7916146101c9576100f3565b366100f357005b600080fd5b34801561010457600080fd5b5061012b6004803603602081101561011b57600080fd5b50356001600160a01b0316610523565b604080519115158252519081900360200190f35b34801561014b57600080fd5b50610154610538565b6040805160208082528351818301528351919283929083019185019080838360005b8381101561018e578181015183820152602001610176565b50505050905090810190601f1680156101bb5780820380516001836020036101000a031916815260200191505b509250505060405180910390f35b3480156101d557600080fd5b506101f3600480360360208110156101ec57600080fd5b50356105c3565b005b34801561020157600080fd5b5061020a6106f4565b60408051918252519081900360200190f35b34801561022857600080fd5b506101f36106fa565b34801561023d57600080fd5b506101f36004803603604081101561025457600080fd5b506001600160a01b03813581169160200135166107c5565b34801561027857600080fd5b506101f36004803603602081101561028f57600080fd5b5035610852565b3480156102a257600080fd5b506101f3600480360360408110156102b957600080fd5b506001600160a01b038135169060200135610904565b3480156102db57600080fd5b506102e4610a24565b604080516001600160a01b039092168252519081900360200190f35b34801561030c57600080fd5b5061020a610a33565b34801561032157600080fd5b506101f3610a57565b34801561033657600080fd5b506101f3600480360360a081101561034d57600080fd5b508035906020810135906001600160a01b036040820135811691606081013582169160809091013516610a59565b34801561038757600080fd5b5061020a6004803603606081101561039e57600080fd5b508035906001600160a01b0360208201358116916040013516610aca565b3480156103c857600080fd5b506101f3600480360360408110156103df57600080fd5b8101906020810181356401000000008111156103fa57600080fd5b82018360208201111561040c57600080fd5b8035906020019184602083028401116401000000008311171561042e57600080fd5b919080806020026020016040519081016040528093929190818152602001838360200280828437600092019190915250929594936020810193503591505064010000000081111561047e57600080fd5b82018360208201111561049057600080fd5b803590602001918460208302840111640100000000831117156104b257600080fd5b919080806020026020016040519081016040528093929190818152602001838360200280828437600092019190915250929550610ae1945050505050565b3480156104fc57600080fd5b506101f36004803603602081101561051357600080fd5b50356001600160a01b0316610cff565b60036020526000908152604090205460ff1681565b6002805460408051602060018416156101000260001901909316849004601f810184900484028201840190925281815292918301828280156105bb5780601f10610590576101008083540402835291602001916105bb565b820191906000526020600020905b81548152906001019060200180831161059e57829003601f168201915b505050505081565b6105cb610f50565b6001600160a01b03166105dc610a24565b6001600160a01b031614610637576040805162461bcd60e51b815260206004820181905260248201527f4f776e61626c653a2043616c6c6572206973206e6f7420746865206f776e6572604482015290519081900360640190fd5b6000811161068c576040805162461bcd60e51b815260206004820152601e60248201527f59616b416461707465723a204e6f7468696e6720746f207265636f7665720000604482015290519081900360640190fd5b604051339082156108fc029083906000818181858888f193505050501580156106b9573d6000803e3d6000fd5b506040805182815290516000917f8c1256b8896378cd5044f80c202f9772b9d77dc85c8a6eb51967210b09bfaa28919081900360200190a250565b60015481565b610702610f50565b6001600160a01b0316610713610a24565b6001600160a01b03161461076e576040805162461bcd60e51b815260206004820181905260248201527f4f776e61626c653a2043616c6c6572206973206e6f7420746865206f776e6572604482015290519081900360640190fd5b600080546040516001600160a01b03909116907f8be0079c531659141344cd1fd0a4f28419497f9722a3daafe3b4186f6b6457e0908390a36000805473ffffffffffffffffffffffffffffffffffffffff19169055565b6107cd610f50565b6001600160a01b03166107de610a24565b6001600160a01b031614610839576040805162461bcd60e51b815260206004820181905260248201527f4f776e61626c653a2043616c6c6572206973206e6f7420746865206f776e6572604482015290519081900360640190fd5b61084e6001600160a01b038316826000610e20565b5050565b61085a610f50565b6001600160a01b031661086b610a24565b6001600160a01b0316146108c6576040805162461bcd60e51b815260206004820181905260248201527f4f776e61626c653a2043616c6c6572206973206e6f7420746865206f776e6572604482015290519081900360640190fd5b600181905560408051828152905130917ff43f23b7a28e6f8ce6843a21bd7b48bce778aa913b8c8cf459edf7d770e8d38a919081900360200190a250565b61090c610f50565b6001600160a01b031661091d610a24565b6001600160a01b031614610978576040805162461bcd60e51b815260206004820181905260248201527f4f776e61626c653a2043616c6c6572206973206e6f7420746865206f776e6572604482015290519081900360640190fd5b600081116109cd576040805162461bcd60e51b815260206004820152601e60248201527f59616b416461707465723a204e6f7468696e6720746f207265636f7665720000604482015290519081900360640190fd5b6109e16001600160a01b0383163383610f54565b6040805182815290516001600160a01b038416917f8c1256b8896378cd5044f80c202f9772b9d77dc85c8a6eb51967210b09bfaa28919081900360200190a25050565b6000546001600160a01b031690565b7f7cfea44b8a642647acf7ff6f45de523823af55b97f9337d7fbe15104722ada2581565b565b610a63838661084e565b610a708585858585610f73565b816001600160a01b0316836001600160a01b03167fe2bdbc6b7225eb0a972ac943c485a6cc05f7c6811838bce8903f23200fb744fa8787604051808381526020018281526020019250505060405180910390a35050505050565b6000610ad7848484610ff4565b90505b9392505050565b610ae9610f50565b6001600160a01b0316610afa610a24565b6001600160a01b031614610b55576040805162461bcd60e51b815260206004820181905260248201527f4f776e61626c653a2043616c6c6572206973206e6f7420746865206f776e6572604482015290519081900360640190fd5b8051825114610b955760405162461bcd60e51b815260040180806020018281038252602e815260200180611405602e913960400191505060405180910390fd5b60005b8251811015610cfa576000838281518110610baf57fe5b60200260200101516001600160a01b031663ab32dbb7848481518110610bd157fe5b60200260200101516040518263ffffffff1660e01b815260040180826001600160a01b0316815260200191505060206040518083038186803b158015610c1657600080fd5b505afa158015610c2a573d6000803e3d6000fd5b505050506040513d6020811015610c4057600080fd5b505111610c7e5760405162461bcd60e51b815260040180806020018281038252602b8152602001806113b4602b913960400191505060405180910390fd5b610cae838281518110610c8d57fe5b6020026020010151838381518110610ca157fe5b60200260200101516110a1565b600160036000858481518110610cc057fe5b6020908102919091018101516001600160a01b03168252810191909152604001600020805460ff1916911515919091179055600101610b98565b505050565b610d07610f50565b6001600160a01b0316610d18610a24565b6001600160a01b031614610d73576040805162461bcd60e51b815260206004820181905260248201527f4f776e61626c653a2043616c6c6572206973206e6f7420746865206f776e6572604482015290519081900360640190fd5b6001600160a01b038116610db85760405162461bcd60e51b81526004018080602001828103825260268152602001806113df6026913960400191505060405180910390fd5b600080546040516001600160a01b03808516939216917f8be0079c531659141344cd1fd0a4f28419497f9722a3daafe3b4186f6b6457e091a36000805473ffffffffffffffffffffffffffffffffffffffff19166001600160a01b0392909216919091179055565b801580610ea85750604051636eb1769f60e11b81526001600160a01b0384169063dd62ed3e90610e569030908690600401611291565b60206040518083038186803b158015610e6e57600080fd5b505afa158015610e82573d6000803e3d6000fd5b505050506040513d601f19601f82011682018060405250810190610ea69190611240565b155b610ecd5760405162461bcd60e51b8152600401610ec490611356565b60405180910390fd5b610cfa8363095ea7b360e01b8484604051602401610eec9291906112ab565b60408051601f198184030181529190526020810180517bffffffffffffffffffffffffffffffffffffffffffffffffffffffff167fffffffff0000000000000000000000000000000000000000000000000000000090931692909217909152611140565b3390565b610cfa8363a9059cbb60e01b8484604051602401610eec9291906112ab565b816001600160a01b031663d004f0f784876040518363ffffffff1660e01b815260040180836001600160a01b0316815260200182815260200192505050600060405180830381600087803b158015610fca57600080fd5b505af1158015610fde573d6000803e3d6000fd5b50505050610fed8285836111fc565b5050505050565b6001600160a01b03811660009081526003602052604081205460ff168015611094575083826001600160a01b031663ab32dbb7856040518263ffffffff1660e01b815260040180826001600160a01b0316815260200191505060206040518083038186803b15801561106557600080fd5b505afa158015611079573d6000803e3d6000fd5b505050506040513d602081101561108f57600080fd5b505110155b15610ada57509192915050565b60408051636eb1769f60e11b81523060048201526001600160a01b038481166024830152915160009284169163dd62ed3e916044808301926020929190829003018186803b1580156110f257600080fd5b505afa158015611106573d6000803e3d6000fd5b505050506040513d602081101561111c57600080fd5b50519050600019811015610cfa57610cfa6001600160a01b03831684600019610e20565b600080836001600160a01b03168360405161115b9190611258565b6000604051808303816000865af19150503d8060008114611198576040519150601f19603f3d011682016040523d82523d6000602084013e61119d565b606091505b5091509150816111bf5760405162461bcd60e51b8152600401610ec4906112c4565b8051156111f657808060200190518101906111da9190611220565b6111f65760405162461bcd60e51b8152600401610ec4906112f9565b50505050565b306001600160a01b03821614610cfa57610cfa6001600160a01b0384168284610f54565b600060208284031215611231578081fd5b81518015158114610ada578182fd5b600060208284031215611251578081fd5b5051919050565b60008251815b81811015611278576020818601810151858301520161125e565b818111156112865782828501525b509190910192915050565b6001600160a01b0392831681529116602082015260400190565b6001600160a01b03929092168252602082015260400190565b6020808252818101527f5361666545524332303a206c6f772d6c6576656c2063616c6c206661696c6564604082015260600190565b6020808252602a908201527f5361666545524332303a204552433230206f7065726174696f6e20646964206e60408201527f6f74207375636365656400000000000000000000000000000000000000000000606082015260800190565b60208082526036908201527f5361666545524332303a20617070726f76652066726f6d206e6f6e2d7a65726f60408201527f20746f206e6f6e2d7a65726f20616c6c6f77616e63650000000000000000000060608201526080019056fe4272696467654d6967726174696f6e416461707465723a20496e76616c696420636f6d62696e6174696f6e4f776e61626c653a204e6577206f776e657220697320746865207a65726f20616464726573734272696467654d6967726174696f6e416461707465723a204e6565647320746f206265207375726a656374697665a2646970667358221220efc2b1f9dd505840cd00be8cd62ee101c8480cede38dbf52f94b428d08d2bc3164736f6c634300070600334272696467654d6967726174696f6e416461707465723a20496e76616c696420636f6d62696e6174696f6e4f776e61626c653a2043616c6c6572206973206e6f7420746865206f776e65724272696467654d6967726174696f6e416461707465723a204e6565647320746f206265207375726a656374697665",
  "devdoc": {
    "kind": "dev",
    "methods": {
      "owner()": {
        "details": "Returns the address of the current owner."
      },
      "recoverAVAX(uint256)": {
        "params": {
          "_amount": "amount"
        }
      },
      "recoverERC20(address,uint256)": {
        "params": {
          "_tokenAddress": "token address",
          "_tokenAmount": "amount to recover"
        }
      },
      "renounceOwnership()": {
        "details": "Leaves the contract without owner. It will not be possible to call `onlyOwner` functions anymore. Can only be called by the current owner. NOTE: Renouncing ownership will leave the contract without an owner, thereby removing any functionality that is only available to the owner."
      },
      "revokeAllowance(address,address)": {
        "params": {
          "_spender": "address",
          "_token": "address"
        }
      },
      "setAllowances()": {
        "details": "Should use modifier `onlyOwner` to avoid griefing"
      },
      "swap(uint256,uint256,address,address,address)": {
        "params": {
          "_amountIn": "input amount in starting token",
          "_amountOut": "amount out in ending token",
          "_fromToken": "ERC20 token being sold",
          "_to": "address where swapped funds should be sent to",
          "_toToken": "ERC20 token being bought"
        }
      },
      "transferOwnership(address)": {
        "details": "Transfers ownership of the contract to a new account (`newOwner`). Can only be called by the current owner."
      }
    },
    "version": 1
  },
  "userdoc": {
    "kind": "user",
    "methods": {
      "recoverAVAX(uint256)": {
        "notice": "Recover AVAX from contract"
      },
      "recoverERC20(address,uint256)": {
        "notice": "Recover ERC20 from contract"
      },
      "revokeAllowance(address,address)": {
        "notice": "Revoke token allowance"
      },
      "setAllowances()": {
        "notice": "Approve tokens for use in Strategy"
      },
      "swap(uint256,uint256,address,address,address)": {
        "notice": "Execute a swap from token to token assuming this contract already holds input tokensInteract through the router"
      }
    },
    "version": 1
  },
  "storageLayout": {
    "storage": [
      {
        "astId": 3848,
        "contract": "contracts/adapters/BridgeMigrationAdapter.sol:BridgeMigrationAdapter",
        "label": "_owner",
        "offset": 0,
        "slot": "0",
        "type": "t_address"
      },
      {
        "astId": 50,
        "contract": "contracts/adapters/BridgeMigrationAdapter.sol:BridgeMigrationAdapter",
        "label": "swapGasEstimate",
        "offset": 0,
        "slot": "1",
        "type": "t_uint256"
      },
      {
        "astId": 52,
        "contract": "contracts/adapters/BridgeMigrationAdapter.sol:BridgeMigrationAdapter",
        "label": "name",
        "offset": 0,
        "slot": "2",
        "type": "t_string_storage"
      },
      {
        "astId": 2270,
        "contract": "contracts/adapters/BridgeMigrationAdapter.sol:BridgeMigrationAdapter",
        "label": "isNewBridgeToken",
        "offset": 0,
        "slot": "3",
        "type": "t_mapping(t_address,t_bool)"
      }
    ],
    "types": {
      "t_address": {
        "encoding": "inplace",
        "label": "address",
        "numberOfBytes": "20"
      },
      "t_bool": {
        "encoding": "inplace",
        "label": "bool",
        "numberOfBytes": "1"
      },
      "t_mapping(t_address,t_bool)": {
        "encoding": "mapping",
        "key": "t_address",
        "label": "mapping(address => bool)",
        "numberOfBytes": "32",
        "value": "t_bool"
      },
      "t_string_storage": {
        "encoding": "bytes",
        "label": "string",
        "numberOfBytes": "32"
      },
      "t_uint256": {
        "encoding": "inplace",
        "label": "uint256",
        "numberOfBytes": "32"
      }
    }
  }
}