{
  "address": "0x3Cd74241df1B9BC75F41a4333F6De273965Fa6b1",
  "abi": [
    {
      "inputs": [
        {
          "internalType": "string",
          "name": "_name",
          "type": "string"
        },
        {
          "internalType": "uint256",
          "name": "_swapGasEstimate",
          "type": "uint256"
        }
      ],
      "stateMutability": "nonpayable",
      "type": "constructor"
    },
    {
      "anonymous": false,
      "inputs": [
        {
          "indexed": true,
          "internalType": "address",
          "name": "previousOwner",
          "type": "address"
        },
        {
          "indexed": true,
          "internalType": "address",
          "name": "newOwner",
          "type": "address"
        }
      ],
      "name": "OwnershipTransferred",
      "type": "event"
    },
    {
      "anonymous": false,
      "inputs": [
        {
          "indexed": true,
          "internalType": "address",
          "name": "_asset",
          "type": "address"
        },
        {
          "indexed": false,
          "internalType": "uint256",
          "name": "amount",
          "type": "uint256"
        }
      ],
      "name": "Recovered",
      "type": "event"
    },
    {
      "anonymous": false,
      "inputs": [
        {
          "indexed": true,
          "internalType": "address",
          "name": "_adapter",
          "type": "address"
        },
        {
          "indexed": false,
          "internalType": "uint256",
          "name": "_newEstimate",
          "type": "uint256"
        }
      ],
      "name": "UpdatedGasEstimate",
      "type": "event"
    },
    {
      "anonymous": false,
      "inputs": [
        {
          "indexed": true,
          "internalType": "address",
          "name": "_tokenFrom",
          "type": "address"
        },
        {
          "indexed": true,
          "internalType": "address",
          "name": "_tokenTo",
          "type": "address"
        },
        {
          "indexed": false,
          "internalType": "uint256",
          "name": "_amountIn",
          "type": "uint256"
        },
        {
          "indexed": false,
          "internalType": "uint256",
          "name": "_amountOut",
          "type": "uint256"
        }
      ],
      "name": "YakAdapterSwap",
      "type": "event"
    },
    {
      "inputs": [],
      "name": "BASE_POOL",
      "outputs": [
        {
          "internalType": "address",
          "name": "",
          "type": "address"
        }
      ],
      "stateMutability": "view",
      "type": "function"
    },
    {
      "inputs": [],
      "name": "POOL",
      "outputs": [
        {
          "internalType": "address",
          "name": "",
          "type": "address"
        }
      ],
      "stateMutability": "view",
      "type": "function"
    },
    {
      "inputs": [],
      "name": "SWAPPER",
      "outputs": [
        {
          "internalType": "address",
          "name": "",
          "type": "address"
        }
      ],
      "stateMutability": "view",
      "type": "function"
    },
    {
      "inputs": [],
      "name": "deUSDC",
      "outputs": [
        {
          "internalType": "address",
          "name": "",
          "type": "address"
        }
      ],
      "stateMutability": "view",
      "type": "function"
    },
    {
      "inputs": [],
      "name": "id",
      "outputs": [
        {
          "internalType": "bytes32",
          "name": "",
          "type": "bytes32"
        }
      ],
      "stateMutability": "view",
      "type": "function"
    },
    {
      "inputs": [
        {
          "internalType": "address",
          "name": "",
          "type": "address"
        }
      ],
      "name": "isUnderlyingToken",
      "outputs": [
        {
          "internalType": "bool",
          "name": "",
          "type": "bool"
        }
      ],
      "stateMutability": "view",
      "type": "function"
    },
    {
      "inputs": [],
      "name": "name",
      "outputs": [
        {
          "internalType": "string",
          "name": "",
          "type": "string"
        }
      ],
      "stateMutability": "view",
      "type": "function"
    },
    {
      "inputs": [],
      "name": "owner",
      "outputs": [
        {
          "internalType": "address",
          "name": "",
          "type": "address"
        }
      ],
      "stateMutability": "view",
      "type": "function"
    },
    {
      "inputs": [
        {
          "internalType": "uint256",
          "name": "_amountIn",
          "type": "uint256"
        },
        {
          "internalType": "address",
          "name": "_tokenIn",
          "type": "address"
        },
        {
          "internalType": "address",
          "name": "_tokenOut",
          "type": "address"
        }
      ],
      "name": "query",
      "outputs": [
        {
          "internalType": "uint256",
          "name": "",
          "type": "uint256"
        }
      ],
      "stateMutability": "view",
      "type": "function"
    },
    {
      "inputs": [
        {
          "internalType": "uint256",
          "name": "_amount",
          "type": "uint256"
        }
      ],
      "name": "recoverAVAX",
      "outputs": [],
      "stateMutability": "nonpayable",
      "type": "function"
    },
    {
      "inputs": [
        {
          "internalType": "address",
          "name": "_tokenAddress",
          "type": "address"
        },
        {
          "internalType": "uint256",
          "name": "_tokenAmount",
          "type": "uint256"
        }
      ],
      "name": "recoverERC20",
      "outputs": [],
      "stateMutability": "nonpayable",
      "type": "function"
    },
    {
      "inputs": [],
      "name": "renounceOwnership",
      "outputs": [],
      "stateMutability": "nonpayable",
      "type": "function"
    },
    {
      "inputs": [
        {
          "internalType": "address",
          "name": "_token",
          "type": "address"
        },
        {
          "internalType": "address",
          "name": "_spender",
          "type": "address"
        }
      ],
      "name": "revokeAllowance",
      "outputs": [],
      "stateMutability": "nonpayable",
      "type": "function"
    },
    {
      "inputs": [],
      "name": "setAllowances",
      "outputs": [],
      "stateMutability": "nonpayable",
      "type": "function"
    },
    {
      "inputs": [
        {
          "internalType": "uint256",
          "name": "_estimate",
          "type": "uint256"
        }
      ],
      "name": "setSwapGasEstimate",
      "outputs": [],
      "stateMutability": "nonpayable",
      "type": "function"
    },
    {
      "inputs": [
        {
          "internalType": "uint256",
          "name": "_amountIn",
          "type": "uint256"
        },
        {
          "internalType": "uint256",
          "name": "_amountOut",
          "type": "uint256"
        },
        {
          "internalType": "address",
          "name": "_fromToken",
          "type": "address"
        },
        {
          "internalType": "address",
          "name": "_toToken",
          "type": "address"
        },
        {
          "internalType": "address",
          "name": "_to",
          "type": "address"
        }
      ],
      "name": "swap",
      "outputs": [],
      "stateMutability": "nonpayable",
      "type": "function"
    },
    {
      "inputs": [],
      "name": "swapGasEstimate",
      "outputs": [
        {
          "internalType": "uint256",
          "name": "",
          "type": "uint256"
        }
      ],
      "stateMutability": "view",
      "type": "function"
    },
    {
      "inputs": [
        {
          "internalType": "address",
          "name": "",
          "type": "address"
        }
      ],
      "name": "tokenIndex",
      "outputs": [
        {
          "internalType": "int128",
          "name": "",
          "type": "int128"
        }
      ],
      "stateMutability": "view",
      "type": "function"
    },
    {
      "inputs": [
        {
          "internalType": "address",
          "name": "newOwner",
          "type": "address"
        }
      ],
      "name": "transferOwnership",
      "outputs": [],
      "stateMutability": "nonpayable",
      "type": "function"
    },
    {
      "stateMutability": "payable",
      "type": "receive"
    }
  ],
  "transactionHash": "0x27025029db40a4250816877f9cb225e748d594120631d40d00cdab07ded9426a",
  "args": [
    "CurveDeUSDCAdapterV0",
    1250000
  ],
  "solcInputHash": "28ee8270ec1222a9ff9ac2bd04df5129",
  "bytecode": "0x60806040523480156200001157600080fd5b50604051620018ea380380620018ea833981810160405260408110156200003757600080fd5b81019080805160405193929190846401000000008211156200005857600080fd5b9083019060208201858111156200006e57600080fd5b82516401000000008111828201881017156200008957600080fd5b82525081516020918201929091019080838360005b83811015620000b85781810151838201526020016200009e565b50505050905090810190601f168015620000e65780820380516001836020036101000a031916815260200191505b5060405260200151915060009050620000fe6200017b565b600080546001600160a01b0319166001600160a01b0383169081178255604051929350917f8be0079c531659141344cd1fd0a4f28419497f9722a3daafe3b4186f6b6457e0908290a35081516200015d9060029060208501906200037b565b50620001686200017f565b6200017381620002b5565b505062000427565b3390565b7328690ec942671ac8d9bc442b667ec338ede6dfd3600090815260046020527f65542e7e8ed262fd703e7994b8a254c4778a4e357a4bc0efb5ba516a2eccde83805460ff191660011790555b737f90122bf0700f9e7e1f688fe926940e8839f3536001600160a01b031663b9947eb0826040518263ffffffff1660e01b81526004018082815260200191505060206040518083038186803b1580156200022457600080fd5b505afa9250505080156200024b57506040513d60208110156200024657600080fd5b505160015b6200025657620002b2565b6001600160a01b03166000908152600460209081526040808320805460ff1916600190811790915560039092529091208054918301600f0b6001600160801b03166001600160801b0319909216919091179055600101620001cb565b50565b620002bf6200017b565b6001600160a01b0316620002d26200036c565b6001600160a01b0316146200032e576040805162461bcd60e51b815260206004820181905260248201527f4f776e61626c653a2043616c6c6572206973206e6f7420746865206f776e6572604482015290519081900360640190fd5b600181905560408051828152905130917ff43f23b7a28e6f8ce6843a21bd7b48bce778aa913b8c8cf459edf7d770e8d38a919081900360200190a250565b6000546001600160a01b031690565b828054600181600116156101000203166002900490600052602060002090601f016020900481019282620003b35760008555620003fe565b82601f10620003ce57805160ff1916838001178555620003fe565b82800160010185558215620003fe579182015b82811115620003fe578251825591602001919060010190620003e1565b506200040c92915062000410565b5090565b5b808211156200040c576000815560010162000411565b6114b380620004376000396000f3fe6080604052600436106101485760003560e01c806384a33e63116100c0578063af640d0f11610074578063eab90da611610059578063eab90da614610424578063ef99893a14610475578063f2fde38b146104b65761014f565b8063af640d0f146103fa578063dbd9a4d41461040f5761014f565b80638da5cb5b116100a55780638da5cb5b14610389578063a8bad2071461039e578063a917998c146103e55761014f565b806384a33e63146103265780638980f11f146103505761014f565b8063700d85ae1161011757806371511a5e116100fc57806371511a5e146102c15780637535d246146102d65780637ae26773146102eb5761014f565b8063700d85ae1461027b578063715018a6146102ac5761014f565b806306fdde0314610154578063427f91a6146101de5780634ebb79161461022857806369cff80d146102545761014f565b3661014f57005b600080fd5b34801561016057600080fd5b506101696104e9565b6040805160208082528351818301528351919283929083019185019080838360005b838110156101a357818101518382015260200161018b565b50505050905090810190601f1680156101d05780820380516001836020036101000a031916815260200191505b509250505060405180910390f35b3480156101ea57600080fd5b506102116004803603602081101561020157600080fd5b50356001600160a01b0316610574565b60408051600f9290920b8252519081900360200190f35b34801561023457600080fd5b506102526004803603602081101561024b57600080fd5b5035610589565b005b34801561026057600080fd5b506102696106ba565b60408051918252519081900360200190f35b34801561028757600080fd5b506102906106c0565b604080516001600160a01b039092168252519081900360200190f35b3480156102b857600080fd5b506102526106d7565b3480156102cd57600080fd5b506102906107a2565b3480156102e257600080fd5b506102906107ba565b3480156102f757600080fd5b506102526004803603604081101561030e57600080fd5b506001600160a01b03813581169160200135166107d2565b34801561033257600080fd5b506102526004803603602081101561034957600080fd5b503561085f565b34801561035c57600080fd5b506102526004803603604081101561037357600080fd5b506001600160a01b038135169060200135610911565b34801561039557600080fd5b50610290610a31565b3480156103aa57600080fd5b506103d1600480360360208110156103c157600080fd5b50356001600160a01b0316610a40565b604080519115158252519081900360200190f35b3480156103f157600080fd5b50610290610a55565b34801561040657600080fd5b50610269610a6d565b34801561041b57600080fd5b50610252610a91565b34801561043057600080fd5b50610252600480360360a081101561044757600080fd5b508035906020810135906001600160a01b036040820135811691606081013582169160809091013516610b07565b34801561048157600080fd5b506102696004803603606081101561049857600080fd5b508035906001600160a01b0360208201358116916040013516610b78565b3480156104c257600080fd5b50610252600480360360208110156104d957600080fd5b50356001600160a01b0316610b8f565b6002805460408051602060018416156101000260001901909316849004601f8101849004840282018401909252818152929183018282801561056c5780601f106105415761010080835404028352916020019161056c565b820191906000526020600020905b81548152906001019060200180831161054f57829003601f168201915b505050505081565b600360205260009081526040902054600f0b81565b610591610cb0565b6001600160a01b03166105a2610a31565b6001600160a01b0316146105fd576040805162461bcd60e51b815260206004820181905260248201527f4f776e61626c653a2043616c6c6572206973206e6f7420746865206f776e6572604482015290519081900360640190fd5b60008111610652576040805162461bcd60e51b815260206004820152601e60248201527f59616b416461707465723a204e6f7468696e6720746f207265636f7665720000604482015290519081900360640190fd5b604051339082156108fc029083906000818181858888f1935050505015801561067f573d6000803e3d6000fd5b506040805182815290516000917f8c1256b8896378cd5044f80c202f9772b9d77dc85c8a6eb51967210b09bfaa28919081900360200190a250565b60015481565b721e3ba199b4ff4b5b6e97acd96dafc0e2e4156e81565b6106df610cb0565b6001600160a01b03166106f0610a31565b6001600160a01b03161461074b576040805162461bcd60e51b815260206004820181905260248201527f4f776e61626c653a2043616c6c6572206973206e6f7420746865206f776e6572604482015290519081900360640190fd5b600080546040516001600160a01b03909116907f8be0079c531659141344cd1fd0a4f28419497f9722a3daafe3b4186f6b6457e0908390a36000805473ffffffffffffffffffffffffffffffffffffffff19169055565b737f90122bf0700f9e7e1f688fe926940e8839f35381565b73d39016475200ab8957e9c772c949ef54bda6911181565b6107da610cb0565b6001600160a01b03166107eb610a31565b6001600160a01b031614610846576040805162461bcd60e51b815260206004820181905260248201527f4f776e61626c653a2043616c6c6572206973206e6f7420746865206f776e6572604482015290519081900360640190fd5b61085b6001600160a01b038316826000610cb4565b5050565b610867610cb0565b6001600160a01b0316610878610a31565b6001600160a01b0316146108d3576040805162461bcd60e51b815260206004820181905260248201527f4f776e61626c653a2043616c6c6572206973206e6f7420746865206f776e6572604482015290519081900360640190fd5b600181905560408051828152905130917ff43f23b7a28e6f8ce6843a21bd7b48bce778aa913b8c8cf459edf7d770e8d38a919081900360200190a250565b610919610cb0565b6001600160a01b031661092a610a31565b6001600160a01b031614610985576040805162461bcd60e51b815260206004820181905260248201527f4f776e61626c653a2043616c6c6572206973206e6f7420746865206f776e6572604482015290519081900360640190fd5b600081116109da576040805162461bcd60e51b815260206004820152601e60248201527f59616b416461707465723a204e6f7468696e6720746f207265636f7665720000604482015290519081900360640190fd5b6109ee6001600160a01b0383163383610de9565b6040805182815290516001600160a01b038416917f8c1256b8896378cd5044f80c202f9772b9d77dc85c8a6eb51967210b09bfaa28919081900360200190a25050565b6000546001600160a01b031690565b60046020526000908152604090205460ff1681565b7328690ec942671ac8d9bc442b667ec338ede6dfd381565b7fa43ff3ee5a660c7a114243986f107a245d3cd681a4667167e78cc2b24eb5fe9e81565b610a99610cb0565b6001600160a01b0316610aaa610a31565b6001600160a01b031614610b05576040805162461bcd60e51b815260206004820181905260248201527f4f776e61626c653a2043616c6c6572206973206e6f7420746865206f776e6572604482015290519081900360640190fd5b565b610b118386610e08565b610b1e8585858585610eca565b816001600160a01b0316836001600160a01b03167fe2bdbc6b7225eb0a972ac943c485a6cc05f7c6811838bce8903f23200fb744fa8787604051808381526020018281526020019250505060405180910390a35050505050565b6000610b8584848461102d565b90505b9392505050565b610b97610cb0565b6001600160a01b0316610ba8610a31565b6001600160a01b031614610c03576040805162461bcd60e51b815260206004820181905260248201527f4f776e61626c653a2043616c6c6572206973206e6f7420746865206f776e6572604482015290519081900360640190fd5b6001600160a01b038116610c485760405162461bcd60e51b81526004018080602001828103825260268152602001806114586026913960400191505060405180910390fd5b600080546040516001600160a01b03808516939216917f8be0079c531659141344cd1fd0a4f28419497f9722a3daafe3b4186f6b6457e091a36000805473ffffffffffffffffffffffffffffffffffffffff19166001600160a01b0392909216919091179055565b3390565b801580610d3c5750604051636eb1769f60e11b81526001600160a01b0384169063dd62ed3e90610cea9030908690600401611335565b60206040518083038186803b158015610d0257600080fd5b505afa158015610d16573d6000803e3d6000fd5b505050506040513d601f19601f82011682018060405250810190610d3a91906112e4565b155b610d615760405162461bcd60e51b8152600401610d58906113fa565b60405180910390fd5b610de48363095ea7b360e01b8484604051602401610d8092919061134f565b60408051601f198184030181529190526020810180517bffffffffffffffffffffffffffffffffffffffffffffffffffffffff167fffffffff00000000000000000000000000000000000000000000000000000000909316929092179091526111e4565b505050565b610de48363a9059cbb60e01b8484604051602401610d8092919061134f565b60408051636eb1769f60e11b8152306004820152721e3ba199b4ff4b5b6e97acd96dafc0e2e4156e602482015290516000916001600160a01b0385169163dd62ed3e91604480820192602092909190829003018186803b158015610e6b57600080fd5b505afa158015610e7f573d6000803e3d6000fd5b505050506040513d6020811015610e9557600080fd5b5051905081811015610de457610de46001600160a01b038416721e3ba199b4ff4b5b6e97acd96dafc0e2e4156e600019610cb4565b6001600160a01b038381166000908152600360205260408082205492851682528082205481517f7981c43e00000000000000000000000000000000000000000000000000000000815273d39016475200ab8957e9c772c949ef54bda691116004820152600f94850b850b602482015290840b90930b6044840152606483018890526084830187905251721e3ba199b4ff4b5b6e97acd96dafc0e2e4156e92637981c43e9260a480830193919282900301818387803b158015610f8b57600080fd5b505af1158015610f9f573d6000803e3d6000fd5b5050505061102682836001600160a01b03166370a08231306040518263ffffffff1660e01b815260040180826001600160a01b0316815260200191505060206040518083038186803b158015610ff457600080fd5b505afa158015611008573d6000803e3d6000fd5b505050506040513d602081101561101e57600080fd5b5051836112a0565b5050505050565b600083158061104d5750816001600160a01b0316836001600160a01b0316145b806110e357506001600160a01b0382167328690ec942671ac8d9bc442b667ec338ede6dfd314801561109757506001600160a01b03831660009081526004602052604090205460ff165b806110e157506001600160a01b0383167328690ec942671ac8d9bc442b667ec338ede6dfd31480156110e157506001600160a01b03821660009081526004602052604090205460ff165b155b156110f057506000610b88565b6001600160a01b038381166000908152600360209081526040808320549386168352918290205482517f07211ef7000000000000000000000000000000000000000000000000000000008152600f94850b850b600482015290840b90930b602484015260448301879052905173d39016475200ab8957e9c772c949ef54bda69111926307211ef7926064808301939192829003018186803b15801561119457600080fd5b505afa9250505080156111b957506040513d60208110156111b457600080fd5b505160015b6111c557506000610b88565b80156111d95761271061270c8202046111dc565b60005b915050610b88565b600080836001600160a01b0316836040516111ff91906112fc565b6000604051808303816000865af19150503d806000811461123c576040519150601f19603f3d011682016040523d82523d6000602084013e611241565b606091505b5091509150816112635760405162461bcd60e51b8152600401610d5890611368565b80511561129a578080602001905181019061127e91906112c4565b61129a5760405162461bcd60e51b8152600401610d589061139d565b50505050565b306001600160a01b03821614610de457610de46001600160a01b0384168284610de9565b6000602082840312156112d5578081fd5b81518015158114610b88578182fd5b6000602082840312156112f5578081fd5b5051919050565b60008251815b8181101561131c5760208186018101518583015201611302565b8181111561132a5782828501525b509190910192915050565b6001600160a01b0392831681529116602082015260400190565b6001600160a01b03929092168252602082015260400190565b6020808252818101527f5361666545524332303a206c6f772d6c6576656c2063616c6c206661696c6564604082015260600190565b6020808252602a908201527f5361666545524332303a204552433230206f7065726174696f6e20646964206e60408201527f6f74207375636365656400000000000000000000000000000000000000000000606082015260800190565b60208082526036908201527f5361666545524332303a20617070726f76652066726f6d206e6f6e2d7a65726f60408201527f20746f206e6f6e2d7a65726f20616c6c6f77616e63650000000000000000000060608201526080019056fe4f776e61626c653a204e6577206f776e657220697320746865207a65726f2061646472657373a2646970667358221220de01b84d23c7776f7b74745cc29eb7819aeb78024f051bc73edd81f787fc3a1064736f6c63430007060033",
  "devdoc": {
    "kind": "dev",
    "methods": {
      "owner()": {
        "details": "Returns the address of the current owner."
      },
      "recoverAVAX(uint256)": {
        "params": {
          "_amount": "amount"
        }
      },
      "recoverERC20(address,uint256)": {
        "params": {
          "_tokenAddress": "token address",
          "_tokenAmount": "amount to recover"
        }
      },
      "renounceOwnership()": {
        "details": "Leaves the contract without owner. It will not be possible to call `onlyOwner` functions anymore. Can only be called by the current owner. NOTE: Renouncing ownership will leave the contract without an owner, thereby removing any functionality that is only available to the owner."
      },
      "revokeAllowance(address,address)": {
        "params": {
          "_spender": "address",
          "_token": "address"
        }
      },
      "setAllowances()": {
        "details": "Should use modifier `onlyOwner` to avoid griefing"
      },
      "swap(uint256,uint256,address,address,address)": {
        "params": {
          "_amountIn": "input amount in starting token",
          "_amountOut": "amount out in ending token",
          "_fromToken": "ERC20 token being sold",
          "_to": "address where swapped funds should be sent to",
          "_toToken": "ERC20 token being bought"
        }
      },
      "transferOwnership(address)": {
        "details": "Transfers ownership of the contract to a new account (`newOwner`). Can only be called by the current owner."
      }
    },
    "version": 1
  },
  "userdoc": {
    "kind": "user",
    "methods": {
      "recoverAVAX(uint256)": {
        "notice": "Recover AVAX from contract"
      },
      "recoverERC20(address,uint256)": {
        "notice": "Recover ERC20 from contract"
      },
      "revokeAllowance(address,address)": {
        "notice": "Revoke token allowance"
      },
      "setAllowances()": {
        "notice": "Approve tokens for use in Strategy"
      },
      "swap(uint256,uint256,address,address,address)": {
        "notice": "Execute a swap from token to token assuming this contract already holds input tokensInteract through the router"
      }
    },
    "version": 1
  },
  "storageLayout": {
    "storage": [
      {
        "astId": 9006,
        "contract": "contracts/adapters/CurveDeUSDCAdapter.sol:CurveDeUSDCAdapter",
        "label": "_owner",
        "offset": 0,
        "slot": "0",
        "type": "t_address"
      },
      {
        "astId": 50,
        "contract": "contracts/adapters/CurveDeUSDCAdapter.sol:CurveDeUSDCAdapter",
        "label": "swapGasEstimate",
        "offset": 0,
        "slot": "1",
        "type": "t_uint256"
      },
      {
        "astId": 52,
        "contract": "contracts/adapters/CurveDeUSDCAdapter.sol:CurveDeUSDCAdapter",
        "label": "name",
        "offset": 0,
        "slot": "2",
        "type": "t_string_storage"
      },
      {
        "astId": 3762,
        "contract": "contracts/adapters/CurveDeUSDCAdapter.sol:CurveDeUSDCAdapter",
        "label": "tokenIndex",
        "offset": 0,
        "slot": "3",
        "type": "t_mapping(t_address,t_int128)"
      },
      {
        "astId": 3766,
        "contract": "contracts/adapters/CurveDeUSDCAdapter.sol:CurveDeUSDCAdapter",
        "label": "isUnderlyingToken",
        "offset": 0,
        "slot": "4",
        "type": "t_mapping(t_address,t_bool)"
      }
    ],
    "types": {
      "t_address": {
        "encoding": "inplace",
        "label": "address",
        "numberOfBytes": "20"
      },
      "t_bool": {
        "encoding": "inplace",
        "label": "bool",
        "numberOfBytes": "1"
      },
      "t_int128": {
        "encoding": "inplace",
        "label": "int128",
        "numberOfBytes": "16"
      },
      "t_mapping(t_address,t_bool)": {
        "encoding": "mapping",
        "key": "t_address",
        "label": "mapping(address => bool)",
        "numberOfBytes": "32",
        "value": "t_bool"
      },
      "t_mapping(t_address,t_int128)": {
        "encoding": "mapping",
        "key": "t_address",
        "label": "mapping(address => int128)",
        "numberOfBytes": "32",
        "value": "t_int128"
      },
      "t_string_storage": {
        "encoding": "bytes",
        "label": "string",
        "numberOfBytes": "32"
      },
      "t_uint256": {
        "encoding": "inplace",
        "label": "uint256",
        "numberOfBytes": "32"
      }
    }
  }
}