{
  "address": "0x4E5a8D1EB5250c766AD55eE18314a76Fcb92A867",
  "abi": [
    {
      "inputs": [
        {
          "internalType": "string",
          "name": "_name",
          "type": "string"
        },
        {
          "internalType": "address",
          "name": "_factory",
          "type": "address"
        },
        {
          "internalType": "uint256",
          "name": "_fee",
          "type": "uint256"
        },
        {
          "internalType": "uint256",
          "name": "_swapGasEstimate",
          "type": "uint256"
        }
      ],
      "stateMutability": "nonpayable",
      "type": "constructor"
    },
    {
      "anonymous": false,
      "inputs": [
        {
          "indexed": true,
          "internalType": "address",
          "name": "previousOwner",
          "type": "address"
        },
        {
          "indexed": true,
          "internalType": "address",
          "name": "newOwner",
          "type": "address"
        }
      ],
      "name": "OwnershipTransferred",
      "type": "event"
    },
    {
      "anonymous": false,
      "inputs": [
        {
          "indexed": true,
          "internalType": "address",
          "name": "_asset",
          "type": "address"
        },
        {
          "indexed": false,
          "internalType": "uint256",
          "name": "amount",
          "type": "uint256"
        }
      ],
      "name": "Recovered",
      "type": "event"
    },
    {
      "anonymous": false,
      "inputs": [
        {
          "indexed": true,
          "internalType": "address",
          "name": "_adapter",
          "type": "address"
        },
        {
          "indexed": false,
          "internalType": "uint256",
          "name": "_newEstimate",
          "type": "uint256"
        }
      ],
      "name": "UpdatedGasEstimate",
      "type": "event"
    },
    {
      "anonymous": false,
      "inputs": [
        {
          "indexed": true,
          "internalType": "address",
          "name": "_tokenFrom",
          "type": "address"
        },
        {
          "indexed": true,
          "internalType": "address",
          "name": "_tokenTo",
          "type": "address"
        },
        {
          "indexed": false,
          "internalType": "uint256",
          "name": "_amountIn",
          "type": "uint256"
        },
        {
          "indexed": false,
          "internalType": "uint256",
          "name": "_amountOut",
          "type": "uint256"
        }
      ],
      "name": "YakAdapterSwap",
      "type": "event"
    },
    {
      "inputs": [],
      "name": "ID",
      "outputs": [
        {
          "internalType": "bytes32",
          "name": "",
          "type": "bytes32"
        }
      ],
      "stateMutability": "view",
      "type": "function"
    },
    {
      "inputs": [],
      "name": "factory",
      "outputs": [
        {
          "internalType": "address",
          "name": "",
          "type": "address"
        }
      ],
      "stateMutability": "view",
      "type": "function"
    },
    {
      "inputs": [],
      "name": "feeCompliment",
      "outputs": [
        {
          "internalType": "uint256",
          "name": "",
          "type": "uint256"
        }
      ],
      "stateMutability": "view",
      "type": "function"
    },
    {
      "inputs": [],
      "name": "name",
      "outputs": [
        {
          "internalType": "string",
          "name": "",
          "type": "string"
        }
      ],
      "stateMutability": "view",
      "type": "function"
    },
    {
      "inputs": [],
      "name": "owner",
      "outputs": [
        {
          "internalType": "address",
          "name": "",
          "type": "address"
        }
      ],
      "stateMutability": "view",
      "type": "function"
    },
    {
      "inputs": [
        {
          "internalType": "uint256",
          "name": "_amountIn",
          "type": "uint256"
        },
        {
          "internalType": "address",
          "name": "_tokenIn",
          "type": "address"
        },
        {
          "internalType": "address",
          "name": "_tokenOut",
          "type": "address"
        }
      ],
      "name": "query",
      "outputs": [
        {
          "internalType": "uint256",
          "name": "",
          "type": "uint256"
        }
      ],
      "stateMutability": "view",
      "type": "function"
    },
    {
      "inputs": [
        {
          "internalType": "uint256",
          "name": "_amount",
          "type": "uint256"
        }
      ],
      "name": "recoverAVAX",
      "outputs": [],
      "stateMutability": "nonpayable",
      "type": "function"
    },
    {
      "inputs": [
        {
          "internalType": "address",
          "name": "_tokenAddress",
          "type": "address"
        },
        {
          "internalType": "uint256",
          "name": "_tokenAmount",
          "type": "uint256"
        }
      ],
      "name": "recoverERC20",
      "outputs": [],
      "stateMutability": "nonpayable",
      "type": "function"
    },
    {
      "inputs": [],
      "name": "renounceOwnership",
      "outputs": [],
      "stateMutability": "nonpayable",
      "type": "function"
    },
    {
      "inputs": [
        {
          "internalType": "address",
          "name": "_token",
          "type": "address"
        },
        {
          "internalType": "address",
          "name": "_spender",
          "type": "address"
        }
      ],
      "name": "revokeAllowance",
      "outputs": [],
      "stateMutability": "nonpayable",
      "type": "function"
    },
    {
      "inputs": [],
      "name": "setAllowances",
      "outputs": [],
      "stateMutability": "nonpayable",
      "type": "function"
    },
    {
      "inputs": [
        {
          "internalType": "uint256",
          "name": "_estimate",
          "type": "uint256"
        }
      ],
      "name": "setSwapGasEstimate",
      "outputs": [],
      "stateMutability": "nonpayable",
      "type": "function"
    },
    {
      "inputs": [
        {
          "internalType": "uint256",
          "name": "_amountIn",
          "type": "uint256"
        },
        {
          "internalType": "uint256",
          "name": "_amountOut",
          "type": "uint256"
        },
        {
          "internalType": "address",
          "name": "_fromToken",
          "type": "address"
        },
        {
          "internalType": "address",
          "name": "_toToken",
          "type": "address"
        },
        {
          "internalType": "address",
          "name": "_to",
          "type": "address"
        }
      ],
      "name": "swap",
      "outputs": [],
      "stateMutability": "nonpayable",
      "type": "function"
    },
    {
      "inputs": [],
      "name": "swapGasEstimate",
      "outputs": [
        {
          "internalType": "uint256",
          "name": "",
          "type": "uint256"
        }
      ],
      "stateMutability": "view",
      "type": "function"
    },
    {
      "inputs": [
        {
          "internalType": "address",
          "name": "newOwner",
          "type": "address"
        }
      ],
      "name": "transferOwnership",
      "outputs": [],
      "stateMutability": "nonpayable",
      "type": "function"
    },
    {
      "stateMutability": "payable",
      "type": "receive"
    }
  ],
  "transactionHash": "0xf77f0cd2fc589e2acdf214f1d48b520792481623015dfe53f37eedf795774290",
  "args": [
    "PandaYakAdapterV0",
    "0xc7e37A28bB17EdB59E99d5485Dc8c51BC87aE699",
    3,
    120000
  ],
  "solcInputHash": "d9b0559cdc6c4f6c37a22c036da43e60",
  "bytecode": "0x60c06040523480156200001157600080fd5b5060405162001d4238038062001d42833981810160405260808110156200003757600080fd5b81019080805160405193929190846401000000008211156200005857600080fd5b9083019060208201858111156200006e57600080fd5b82516401000000008111828201881017156200008957600080fd5b82525081516020918201929091019080838360005b83811015620000b85781810151838201526020016200009e565b50505050905090810190601f168015620000e65780820380516001836020036101000a031916815260200191505b50604090815260208201519082015160609092015190935090915060006200010d620001ff565b600080546001600160a01b0319166001600160a01b0383169081178255604051929350917f8be0079c531659141344cd1fd0a4f28419497f9722a3daafe3b4186f6b6457e0908290a350816103e811620001995760405162461bcd60e51b815260040180806020018281038252603381526020018062001d0f6033913960400191505060405180910390fd5b6001600160601b0319606084901b1660a0528351620001c090600290602087019062000590565b50620001dd826103e86200020360201b62000b791790919060201c565b608052620001eb8162000262565b620001f562000308565b50505050620007c9565b3390565b808203828111156200025c576040805162461bcd60e51b815260206004820152601f60248201527f536166654d6174683a2064732d6d6174682d7375622d756e646572666c6f7700604482015290519081900360640190fd5b92915050565b6200026c620001ff565b6001600160a01b03166200027f620003a1565b6001600160a01b031614620002ca576040805162461bcd60e51b8152602060048201819052602482015260008051602062001cef833981519152604482015290519081900360640190fd5b600181905560408051828152905130917ff43f23b7a28e6f8ce6843a21bd7b48bce778aa913b8c8cf459edf7d770e8d38a919081900360200190a250565b62000312620001ff565b6001600160a01b031662000325620003a1565b6001600160a01b03161462000370576040805162461bcd60e51b8152602060048201819052602482015260008051602062001cef833981519152604482015290519081900360640190fd5b6200039f73b31f66aa3c1e785363f0875a1b74e27b85fd66c780600019620003b0602090811b62000bd717901c565b565b6000546001600160a01b031690565b8015806200043f5750604051636eb1769f60e11b81526001600160a01b0384169063dd62ed3e90620003e99030908690600401620006ba565b60206040518083038186803b1580156200040257600080fd5b505afa15801562000417573d6000803e3d6000fd5b505050506040513d601f19601f820116820180604052508101906200043d919062000665565b155b620004675760405162461bcd60e51b81526004016200045e906200076c565b60405180910390fd5b620004c28363095ea7b360e01b848460405160240162000489929190620006d4565b60408051808303601f190181529190526020810180516001600160e01b0319939093166001600160e01b0393841617905290620004c716565b505050565b600080836001600160a01b031683604051620004e491906200067e565b6000604051808303816000865af19150503d806000811462000523576040519150601f19603f3d011682016040523d82523d6000602084013e62000528565b606091505b5091509150816200054d5760405162461bcd60e51b81526004016200045e90620006ed565b8051156200058a57808060200190518101906200056b91906200063c565b6200058a5760405162461bcd60e51b81526004016200045e9062000722565b50505050565b828054600181600116156101000203166002900490600052602060002090601f016020900481019282620005c8576000855562000613565b82601f10620005e357805160ff191683800117855562000613565b8280016001018555821562000613579182015b8281111562000613578251825591602001919060010190620005f6565b506200062192915062000625565b5090565b5b8082111562000621576000815560010162000626565b6000602082840312156200064e578081fd5b815180151581146200065e578182fd5b9392505050565b60006020828403121562000677578081fd5b5051919050565b60008251815b81811015620006a0576020818601810151858301520162000684565b81811115620006af5782828501525b509190910192915050565b6001600160a01b0392831681529116602082015260400190565b6001600160a01b03929092168252602082015260400190565b6020808252818101527f5361666545524332303a206c6f772d6c6576656c2063616c6c206661696c6564604082015260600190565b6020808252602a908201527f5361666545524332303a204552433230206f7065726174696f6e20646964206e6040820152691bdd081cdd58d8d9595960b21b606082015260800190565b60208082526036908201527f5361666545524332303a20617070726f76652066726f6d206e6f6e2d7a65726f60408201527f20746f206e6f6e2d7a65726f20616c6c6f77616e636500000000000000000000606082015260800190565b60805160a05160601c6114f0620007ff600039806109175280610d4c5280610f7152508061045f52806111da52506114f06000f3fe6080604052600436106100ec5760003560e01c80638980f11f1161008a578063dbd9a4d411610059578063dbd9a4d4146102f8578063eab90da61461030d578063ef99893a1461035e578063f2fde38b1461039f576100f3565b80638980f11f146102645780638da5cb5b1461029d578063b3cea217146102ce578063c45a0155146102e3576100f3565b806369cff80d116100c657806369cff80d146101d5578063715018a6146101ea5780637ae26773146101ff57806384a33e631461023a576100f3565b806306fdde03146100f85780633b720fca146101825780634ebb7916146101a9576100f3565b366100f357005b600080fd5b34801561010457600080fd5b5061010d6103d2565b6040805160208082528351818301528351919283929083019185019080838360005b8381101561014757818101518382015260200161012f565b50505050905090810190601f1680156101745780820380516001836020036101000a031916815260200191505b509250505060405180910390f35b34801561018e57600080fd5b5061019761045d565b60408051918252519081900360200190f35b3480156101b557600080fd5b506101d3600480360360208110156101cc57600080fd5b5035610481565b005b3480156101e157600080fd5b506101976105b2565b3480156101f657600080fd5b506101d36105b8565b34801561020b57600080fd5b506101d36004803603604081101561022257600080fd5b506001600160a01b0381358116916020013516610683565b34801561024657600080fd5b506101d36004803603602081101561025d57600080fd5b5035610710565b34801561027057600080fd5b506101d36004803603604081101561028757600080fd5b506001600160a01b0381351690602001356107c2565b3480156102a957600080fd5b506102b26108e2565b604080516001600160a01b039092168252519081900360200190f35b3480156102da57600080fd5b506101976108f1565b3480156102ef57600080fd5b506102b2610915565b34801561030457600080fd5b506101d3610939565b34801561031957600080fd5b506101d3600480360360a081101561033057600080fd5b508035906020810135906001600160a01b0360408201358116916060810135821691608090910135166109d0565b34801561036a57600080fd5b506101976004803603606081101561038157600080fd5b508035906001600160a01b0360208201358116916040013516610a41565b3480156103ab57600080fd5b506101d3600480360360208110156103c257600080fd5b50356001600160a01b0316610a58565b6002805460408051602060018416156101000260001901909316849004601f810184900484028201840190925281815292918301828280156104555780601f1061042a57610100808354040283529160200191610455565b820191906000526020600020905b81548152906001019060200180831161043857829003601f168201915b505050505081565b7f000000000000000000000000000000000000000000000000000000000000000081565b610489610d25565b6001600160a01b031661049a6108e2565b6001600160a01b0316146104f5576040805162461bcd60e51b815260206004820181905260248201527f4f776e61626c653a2043616c6c6572206973206e6f7420746865206f776e6572604482015290519081900360640190fd5b6000811161054a576040805162461bcd60e51b815260206004820152601e60248201527f59616b416461707465723a204e6f7468696e6720746f207265636f7665720000604482015290519081900360640190fd5b604051339082156108fc029083906000818181858888f19350505050158015610577573d6000803e3d6000fd5b506040805182815290516000917f8c1256b8896378cd5044f80c202f9772b9d77dc85c8a6eb51967210b09bfaa28919081900360200190a250565b60015481565b6105c0610d25565b6001600160a01b03166105d16108e2565b6001600160a01b03161461062c576040805162461bcd60e51b815260206004820181905260248201527f4f776e61626c653a2043616c6c6572206973206e6f7420746865206f776e6572604482015290519081900360640190fd5b600080546040516001600160a01b03909116907f8be0079c531659141344cd1fd0a4f28419497f9722a3daafe3b4186f6b6457e0908390a36000805473ffffffffffffffffffffffffffffffffffffffff19169055565b61068b610d25565b6001600160a01b031661069c6108e2565b6001600160a01b0316146106f7576040805162461bcd60e51b815260206004820181905260248201527f4f776e61626c653a2043616c6c6572206973206e6f7420746865206f776e6572604482015290519081900360640190fd5b61070c6001600160a01b038316826000610bd7565b5050565b610718610d25565b6001600160a01b03166107296108e2565b6001600160a01b031614610784576040805162461bcd60e51b815260206004820181905260248201527f4f776e61626c653a2043616c6c6572206973206e6f7420746865206f776e6572604482015290519081900360640190fd5b600181905560408051828152905130917ff43f23b7a28e6f8ce6843a21bd7b48bce778aa913b8c8cf459edf7d770e8d38a919081900360200190a250565b6107ca610d25565b6001600160a01b03166107db6108e2565b6001600160a01b031614610836576040805162461bcd60e51b815260206004820181905260248201527f4f776e61626c653a2043616c6c6572206973206e6f7420746865206f776e6572604482015290519081900360640190fd5b6000811161088b576040805162461bcd60e51b815260206004820152601e60248201527f59616b416461707465723a204e6f7468696e6720746f207265636f7665720000604482015290519081900360640190fd5b61089f6001600160a01b0383163383610d29565b6040805182815290516001600160a01b038416917f8c1256b8896378cd5044f80c202f9772b9d77dc85c8a6eb51967210b09bfaa28919081900360200190a25050565b6000546001600160a01b031690565b7f5a00738292e8f8894f4160e3c913031e8c8786932c57a8c836165d1801a15f1081565b7f000000000000000000000000000000000000000000000000000000000000000081565b610941610d25565b6001600160a01b03166109526108e2565b6001600160a01b0316146109ad576040805162461bcd60e51b815260206004820181905260248201527f4f776e61626c653a2043616c6c6572206973206e6f7420746865206f776e6572604482015290519081900360640190fd5b6109ce73b31f66aa3c1e785363f0875a1b74e27b85fd66c780600019610bd7565b565b6109da838661070c565b6109e78585858585610d48565b816001600160a01b0316836001600160a01b03167fe2bdbc6b7225eb0a972ac943c485a6cc05f7c6811838bce8903f23200fb744fa8787604051808381526020018281526020019250505060405180910390a35050505050565b6000610a4e848484610f40565b90505b9392505050565b610a60610d25565b6001600160a01b0316610a716108e2565b6001600160a01b031614610acc576040805162461bcd60e51b815260206004820181905260248201527f4f776e61626c653a2043616c6c6572206973206e6f7420746865206f776e6572604482015290519081900360640190fd5b6001600160a01b038116610b115760405162461bcd60e51b81526004018080602001828103825260268152602001806114956026913960400191505060405180910390fd5b600080546040516001600160a01b03808516939216917f8be0079c531659141344cd1fd0a4f28419497f9722a3daafe3b4186f6b6457e091a36000805473ffffffffffffffffffffffffffffffffffffffff19166001600160a01b0392909216919091179055565b80820382811115610bd1576040805162461bcd60e51b815260206004820152601f60248201527f536166654d6174683a2064732d6d6174682d7375622d756e646572666c6f7700604482015290519081900360640190fd5b92915050565b801580610c7857506040517fdd62ed3e0000000000000000000000000000000000000000000000000000000081526001600160a01b0384169063dd62ed3e90610c269030908690600401611372565b60206040518083038186803b158015610c3e57600080fd5b505afa158015610c52573d6000803e3d6000fd5b505050506040513d601f19601f82011682018060405250810190610c769190611321565b155b610c9d5760405162461bcd60e51b8152600401610c9490611437565b60405180910390fd5b610d208363095ea7b360e01b8484604051602401610cbc92919061138c565b60408051601f198184030181529190526020810180517bffffffffffffffffffffffffffffffffffffffffffffffffffffffff167fffffffff0000000000000000000000000000000000000000000000000000000090931692909217909152611115565b505050565b3390565b610d208363a9059cbb60e01b8484604051602401610cbc92919061138c565b60007f00000000000000000000000000000000000000000000000000000000000000006001600160a01b031663e6a4390585856040518363ffffffff1660e01b815260040180836001600160a01b03168152602001826001600160a01b031681526020019250505060206040518083038186803b158015610dc857600080fd5b505afa158015610ddc573d6000803e3d6000fd5b505050506040513d6020811015610df257600080fd5b505190506000806001600160a01b0380861690871610610e1457866000610e18565b6000875b9092509050610e316001600160a01b038716848a610d29565b60408051600080825260208201928390527f022c0d9f00000000000000000000000000000000000000000000000000000000835260248201858152604483018590526001600160a01b038881166064850152608060848501908152845160a486018190529189169563022c0d9f95899589958d9592949093909260c48601928190849084905b83811015610ecf578181015183820152602001610eb7565b50505050905090810190601f168015610efc5780820380516001836020036101000a031916815260200191505b5095505050505050600060405180830381600087803b158015610f1e57600080fd5b505af1158015610f32573d6000803e3d6000fd5b505050505050505050505050565b6000816001600160a01b0316836001600160a01b03161480610f60575083155b15610f6d57506000610a51565b60007f00000000000000000000000000000000000000000000000000000000000000006001600160a01b031663e6a4390585856040518363ffffffff1660e01b815260040180836001600160a01b03168152602001826001600160a01b031681526020019250505060206040518083038186803b158015610fed57600080fd5b505afa158015611001573d6000803e3d6000fd5b505050506040513d602081101561101757600080fd5b505190506001600160a01b038116611033576000915050610a51565b600080826001600160a01b0316630902f1ac6040518163ffffffff1660e01b815260040160606040518083038186803b15801561106f57600080fd5b505afa158015611083573d6000803e3d6000fd5b505050506040513d606081101561109957600080fd5b5080516020909101516dffffffffffffffffffffffffffff91821693501690506000806001600160a01b03808816908916106110d65782846110d9565b83835b915091506000821180156110ed5750600081115b15611109576110fd8983836111d1565b95505050505050610a51565b50505050509392505050565b600080836001600160a01b0316836040516111309190611339565b6000604051808303816000865af19150503d806000811461116d576040519150601f19603f3d011682016040523d82523d6000602084013e611172565b606091505b5091509150816111945760405162461bcd60e51b8152600401610c94906113a5565b8051156111cb57808060200190518101906111af9190611301565b6111cb5760405162461bcd60e51b8152600401610c94906113da565b50505050565b6000806111fe857f000000000000000000000000000000000000000000000000000000000000000061123d565b9050600061120c828561123d565b9050600061122683611220886103e861123d565b906112a9565b905080828161123157fe5b04979650505050505050565b60008115806112585750508082028282828161125557fe5b04145b610bd1576040805162461bcd60e51b815260206004820152601e60248201527f536166654d6174683a2064732d6d6174682d6d756c2d6f766572666c6f770000604482015290519081900360640190fd5b80820182811015610bd1576040805162461bcd60e51b815260206004820152601e60248201527f536166654d6174683a2064732d6d6174682d6164642d6f766572666c6f770000604482015290519081900360640190fd5b600060208284031215611312578081fd5b81518015158114610a51578182fd5b600060208284031215611332578081fd5b5051919050565b60008251815b81811015611359576020818601810151858301520161133f565b818111156113675782828501525b509190910192915050565b6001600160a01b0392831681529116602082015260400190565b6001600160a01b03929092168252602082015260400190565b6020808252818101527f5361666545524332303a206c6f772d6c6576656c2063616c6c206661696c6564604082015260600190565b6020808252602a908201527f5361666545524332303a204552433230206f7065726174696f6e20646964206e60408201527f6f74207375636365656400000000000000000000000000000000000000000000606082015260800190565b60208082526036908201527f5361666545524332303a20617070726f76652066726f6d206e6f6e2d7a65726f60408201527f20746f206e6f6e2d7a65726f20616c6c6f77616e63650000000000000000000060608201526080019056fe4f776e61626c653a204e6577206f776e657220697320746865207a65726f2061646472657373a26469706673582212202d301cf632bae78c9150c99152b5e8eedfb04e140f8d8d80ae3f9b616559c06f64736f6c634300070600334f776e61626c653a2043616c6c6572206973206e6f7420746865206f776e657259616b556e696c696b65416461707465723a204665652067726561746572207468616e207468652064656e6f6d696e61746f72",
  "devdoc": {
    "kind": "dev",
    "methods": {
      "owner()": {
        "details": "Returns the address of the current owner."
      },
      "recoverAVAX(uint256)": {
        "params": {
          "_amount": "amount"
        }
      },
      "recoverERC20(address,uint256)": {
        "params": {
          "_tokenAddress": "token address",
          "_tokenAmount": "amount to recover"
        }
      },
      "renounceOwnership()": {
        "details": "Leaves the contract without owner. It will not be possible to call `onlyOwner` functions anymore. Can only be called by the current owner. NOTE: Renouncing ownership will leave the contract without an owner, thereby removing any functionality that is only available to the owner."
      },
      "revokeAllowance(address,address)": {
        "params": {
          "_spender": "address",
          "_token": "address"
        }
      },
      "setAllowances()": {
        "details": "Should use modifier `onlyOwner` to avoid griefing"
      },
      "swap(uint256,uint256,address,address,address)": {
        "params": {
          "_amountIn": "input amount in starting token",
          "_amountOut": "amount out in ending token",
          "_fromToken": "ERC20 token being sold",
          "_to": "address where swapped funds should be sent to",
          "_toToken": "ERC20 token being bought"
        }
      },
      "transferOwnership(address)": {
        "details": "Transfers ownership of the contract to a new account (`newOwner`). Can only be called by the current owner."
      }
    },
    "version": 1
  },
  "userdoc": {
    "kind": "user",
    "methods": {
      "recoverAVAX(uint256)": {
        "notice": "Recover AVAX from contract"
      },
      "recoverERC20(address,uint256)": {
        "notice": "Recover ERC20 from contract"
      },
      "revokeAllowance(address,address)": {
        "notice": "Revoke token allowance"
      },
      "setAllowances()": {
        "notice": "Approve tokens for use in Strategy"
      },
      "swap(uint256,uint256,address,address,address)": {
        "notice": "Execute a swap from token to token assuming this contract already holds input tokensInteract through the router"
      }
    },
    "version": 1
  },
  "storageLayout": {
    "storage": [
      {
        "astId": 3848,
        "contract": "contracts/adapters/UnilikeAdapter.sol:UnilikeAdapter",
        "label": "_owner",
        "offset": 0,
        "slot": "0",
        "type": "t_address"
      },
      {
        "astId": 50,
        "contract": "contracts/adapters/UnilikeAdapter.sol:UnilikeAdapter",
        "label": "swapGasEstimate",
        "offset": 0,
        "slot": "1",
        "type": "t_uint256"
      },
      {
        "astId": 52,
        "contract": "contracts/adapters/UnilikeAdapter.sol:UnilikeAdapter",
        "label": "name",
        "offset": 0,
        "slot": "2",
        "type": "t_string_storage"
      }
    ],
    "types": {
      "t_address": {
        "encoding": "inplace",
        "label": "address",
        "numberOfBytes": "20"
      },
      "t_string_storage": {
        "encoding": "bytes",
        "label": "string",
        "numberOfBytes": "32"
      },
      "t_uint256": {
        "encoding": "inplace",
        "label": "uint256",
        "numberOfBytes": "32"
      }
    }
  }
}