{
  "address": "0xDA7C650AA72166aEB7cc335DA429C9047fc0c405",
  "abi": [
    {
      "inputs": [
        {
          "internalType": "string",
          "name": "_name",
          "type": "string"
        },
        {
          "internalType": "address",
          "name": "_pool",
          "type": "address"
        },
        {
          "internalType": "uint256",
          "name": "_swapGasEstimate",
          "type": "uint256"
        }
      ],
      "stateMutability": "nonpayable",
      "type": "constructor"
    },
    {
      "anonymous": false,
      "inputs": [
        {
          "indexed": true,
          "internalType": "address",
          "name": "previousOwner",
          "type": "address"
        },
        {
          "indexed": true,
          "internalType": "address",
          "name": "newOwner",
          "type": "address"
        }
      ],
      "name": "OwnershipTransferred",
      "type": "event"
    },
    {
      "anonymous": false,
      "inputs": [
        {
          "indexed": true,
          "internalType": "address",
          "name": "_asset",
          "type": "address"
        },
        {
          "indexed": false,
          "internalType": "uint256",
          "name": "amount",
          "type": "uint256"
        }
      ],
      "name": "Recovered",
      "type": "event"
    },
    {
      "anonymous": false,
      "inputs": [
        {
          "indexed": true,
          "internalType": "address",
          "name": "_adapter",
          "type": "address"
        },
        {
          "indexed": false,
          "internalType": "uint256",
          "name": "_newEstimate",
          "type": "uint256"
        }
      ],
      "name": "UpdatedGasEstimate",
      "type": "event"
    },
    {
      "anonymous": false,
      "inputs": [
        {
          "indexed": true,
          "internalType": "address",
          "name": "_tokenFrom",
          "type": "address"
        },
        {
          "indexed": true,
          "internalType": "address",
          "name": "_tokenTo",
          "type": "address"
        },
        {
          "indexed": false,
          "internalType": "uint256",
          "name": "_amountIn",
          "type": "uint256"
        },
        {
          "indexed": false,
          "internalType": "uint256",
          "name": "_amountOut",
          "type": "uint256"
        }
      ],
      "name": "YakAdapterSwap",
      "type": "event"
    },
    {
      "inputs": [],
      "name": "indentifier",
      "outputs": [
        {
          "internalType": "bytes32",
          "name": "",
          "type": "bytes32"
        }
      ],
      "stateMutability": "view",
      "type": "function"
    },
    {
      "inputs": [
        {
          "internalType": "address",
          "name": "",
          "type": "address"
        }
      ],
      "name": "isPoolToken",
      "outputs": [
        {
          "internalType": "bool",
          "name": "",
          "type": "bool"
        }
      ],
      "stateMutability": "view",
      "type": "function"
    },
    {
      "inputs": [],
      "name": "name",
      "outputs": [
        {
          "internalType": "string",
          "name": "",
          "type": "string"
        }
      ],
      "stateMutability": "view",
      "type": "function"
    },
    {
      "inputs": [],
      "name": "owner",
      "outputs": [
        {
          "internalType": "address",
          "name": "",
          "type": "address"
        }
      ],
      "stateMutability": "view",
      "type": "function"
    },
    {
      "inputs": [],
      "name": "pool",
      "outputs": [
        {
          "internalType": "address",
          "name": "",
          "type": "address"
        }
      ],
      "stateMutability": "view",
      "type": "function"
    },
    {
      "inputs": [
        {
          "internalType": "uint256",
          "name": "_amountIn",
          "type": "uint256"
        },
        {
          "internalType": "address",
          "name": "_tokenIn",
          "type": "address"
        },
        {
          "internalType": "address",
          "name": "_tokenOut",
          "type": "address"
        }
      ],
      "name": "query",
      "outputs": [
        {
          "internalType": "uint256",
          "name": "",
          "type": "uint256"
        }
      ],
      "stateMutability": "view",
      "type": "function"
    },
    {
      "inputs": [
        {
          "internalType": "uint256",
          "name": "_amount",
          "type": "uint256"
        }
      ],
      "name": "recoverAVAX",
      "outputs": [],
      "stateMutability": "nonpayable",
      "type": "function"
    },
    {
      "inputs": [
        {
          "internalType": "address",
          "name": "_tokenAddress",
          "type": "address"
        },
        {
          "internalType": "uint256",
          "name": "_tokenAmount",
          "type": "uint256"
        }
      ],
      "name": "recoverERC20",
      "outputs": [],
      "stateMutability": "nonpayable",
      "type": "function"
    },
    {
      "inputs": [],
      "name": "renounceOwnership",
      "outputs": [],
      "stateMutability": "nonpayable",
      "type": "function"
    },
    {
      "inputs": [
        {
          "internalType": "address",
          "name": "_token",
          "type": "address"
        },
        {
          "internalType": "address",
          "name": "_spender",
          "type": "address"
        }
      ],
      "name": "revokeAllowance",
      "outputs": [],
      "stateMutability": "nonpayable",
      "type": "function"
    },
    {
      "inputs": [],
      "name": "setAllowances",
      "outputs": [],
      "stateMutability": "nonpayable",
      "type": "function"
    },
    {
      "inputs": [],
      "name": "setPoolTokens",
      "outputs": [],
      "stateMutability": "nonpayable",
      "type": "function"
    },
    {
      "inputs": [
        {
          "internalType": "uint256",
          "name": "_estimate",
          "type": "uint256"
        }
      ],
      "name": "setSwapGasEstimate",
      "outputs": [],
      "stateMutability": "nonpayable",
      "type": "function"
    },
    {
      "inputs": [
        {
          "internalType": "uint256",
          "name": "_amountIn",
          "type": "uint256"
        },
        {
          "internalType": "uint256",
          "name": "_amountOut",
          "type": "uint256"
        },
        {
          "internalType": "address",
          "name": "_fromToken",
          "type": "address"
        },
        {
          "internalType": "address",
          "name": "_toToken",
          "type": "address"
        },
        {
          "internalType": "address",
          "name": "_to",
          "type": "address"
        }
      ],
      "name": "swap",
      "outputs": [],
      "stateMutability": "nonpayable",
      "type": "function"
    },
    {
      "inputs": [],
      "name": "swapGasEstimate",
      "outputs": [
        {
          "internalType": "uint256",
          "name": "",
          "type": "uint256"
        }
      ],
      "stateMutability": "view",
      "type": "function"
    },
    {
      "inputs": [
        {
          "internalType": "address",
          "name": "newOwner",
          "type": "address"
        }
      ],
      "name": "transferOwnership",
      "outputs": [],
      "stateMutability": "nonpayable",
      "type": "function"
    },
    {
      "stateMutability": "payable",
      "type": "receive"
    }
  ],
  "transactionHash": "0xbf5801ecef8d97a9b3aa7df03997a7123609f9813f35caef533bf239d68fed7b",
  "args": [
    "PlatypusV1YakAdapterV0",
    "0x66357dCaCe80431aee0A7507e2E361B7e2402370",
    514000
  ],
  "solcInputHash": "5593fdd594f884f36a9b1ab0ad7c6cd8",
  "bytecode": "0x60806040523480156200001157600080fd5b50604051620018b7380380620018b7833981810160405260608110156200003757600080fd5b81019080805160405193929190846401000000008211156200005857600080fd5b9083019060208201858111156200006e57600080fd5b82516401000000008111828201881017156200008957600080fd5b82525081516020918201929091019080838360005b83811015620000b85781810151838201526020016200009e565b50505050905090810190601f168015620000e65780820380516001836020036101000a031916815260200191505b506040908152602082015191015190925090506000620001056200019e565b600080546001600160a01b0319166001600160a01b0383169081178255604051929350917f8be0079c531659141344cd1fd0a4f28419497f9722a3daafe3b4186f6b6457e0908290a350600480546001600160a01b0319166001600160a01b03841617905582516200017f906002906020860190620003f0565b506200018b81620001a2565b6200019562000259565b5050506200049c565b3390565b620001ac6200019e565b6001600160a01b0316620001bf620003e1565b6001600160a01b0316146200021b576040805162461bcd60e51b815260206004820181905260248201527f4f776e61626c653a2043616c6c6572206973206e6f7420746865206f776e6572604482015290519081900360640190fd5b600181905560408051828152905130917ff43f23b7a28e6f8ce6843a21bd7b48bce778aa913b8c8cf459edf7d770e8d38a919081900360200190a250565b6000600460009054906101000a90046001600160a01b03166001600160a01b031663ee8c24b86040518163ffffffff1660e01b815260040160006040518083038186803b158015620002aa57600080fd5b505afa158015620002bf573d6000803e3d6000fd5b505050506040513d6000823e601f3d908101601f191682016040526020811015620002e957600080fd5b81019080805160405193929190846401000000008211156200030a57600080fd5b9083019060208201858111156200032057600080fd5b82518660208202830111640100000000821117156200033e57600080fd5b82525081516020918201928201910280838360005b838110156200036d57818101518382015260200162000353565b50505050905001604052505050905060005b81518160ff161015620003dd57600160036000848460ff1681518110620003a257fe5b6020908102919091018101516001600160a01b03168252810191909152604001600020805460ff19169115159190911790556001016200037f565b5050565b6000546001600160a01b031690565b828054600181600116156101000203166002900490600052602060002090601f01602090048101928262000428576000855562000473565b82601f106200044357805160ff191683800117855562000473565b8280016001018555821562000473579182015b828111156200047357825182559160200191906001019062000456565b506200048192915062000485565b5090565b5b8082111562000481576000815560010162000486565b61140b80620004ac6000396000f3fe6080604052600436106100f75760003560e01c806384a33e631161008a578063de260f3711610059578063de260f3714610318578063eab90da61461035f578063ef99893a146103b0578063f2fde38b146103f1576100fe565b806384a33e631461028b5780638980f11f146102b55780638da5cb5b146102ee578063dbd9a4d414610303576100fe565b80634ebb7916116100c65780634ebb7916146101fc57806369cff80d14610226578063715018a61461023b5780637ae2677314610250576100fe565b806306fdde03146101035780630fef1c061461018d578063114e4ce4146101b457806316f0115b146101cb576100fe565b366100fe57005b600080fd5b34801561010f57600080fd5b50610118610424565b6040805160208082528351818301528351919283929083019185019080838360005b8381101561015257818101518382015260200161013a565b50505050905090810190601f16801561017f5780820380516001836020036101000a031916815260200191505b509250505060405180910390f35b34801561019957600080fd5b506101a26104af565b60408051918252519081900360200190f35b3480156101c057600080fd5b506101c96104d3565b005b3480156101d757600080fd5b506101e0610650565b604080516001600160a01b039092168252519081900360200190f35b34801561020857600080fd5b506101c96004803603602081101561021f57600080fd5b503561065f565b34801561023257600080fd5b506101a2610790565b34801561024757600080fd5b506101c9610796565b34801561025c57600080fd5b506101c96004803603604081101561027357600080fd5b506001600160a01b0381358116916020013516610861565b34801561029757600080fd5b506101c9600480360360208110156102ae57600080fd5b50356108ea565b3480156102c157600080fd5b506101c9600480360360408110156102d857600080fd5b506001600160a01b03813516906020013561099c565b3480156102fa57600080fd5b506101e0610abc565b34801561030f57600080fd5b506101c9610acb565b34801561032457600080fd5b5061034b6004803603602081101561033b57600080fd5b50356001600160a01b0316610b41565b604080519115158252519081900360200190f35b34801561036b57600080fd5b506101c9600480360360a081101561038257600080fd5b508035906020810135906001600160a01b036040820135811691606081013582169160809091013516610b56565b3480156103bc57600080fd5b506101a2600480360360608110156103d357600080fd5b508035906001600160a01b0360208201358116916040013516610bc7565b3480156103fd57600080fd5b506101c96004803603602081101561041457600080fd5b50356001600160a01b0316610bde565b6002805460408051602060018416156101000260001901909316849004601f810184900484028201840190925281815292918301828280156104a75780601f1061047c576101008083540402835291602001916104a7565b820191906000526020600020905b81548152906001019060200180831161048a57829003601f168201915b505050505081565b7fa58605943571627895e9199c4b9bee82981358c9253a80848fa54eae46a75fb481565b6000600460009054906101000a90046001600160a01b03166001600160a01b031663ee8c24b86040518163ffffffff1660e01b815260040160006040518083038186803b15801561052357600080fd5b505afa158015610537573d6000803e3d6000fd5b505050506040513d6000823e601f3d908101601f19168201604052602081101561056057600080fd5b810190808051604051939291908464010000000082111561058057600080fd5b90830190602082018581111561059557600080fd5b82518660208202830111640100000000821117156105b257600080fd5b82525081516020918201928201910280838360005b838110156105df5781810151838201526020016105c7565b50505050905001604052505050905060005b81518160ff16101561064c57600160036000848460ff168151811061061257fe5b6020908102919091018101516001600160a01b03168252810191909152604001600020805460ff19169115159190911790556001016105f1565b5050565b6004546001600160a01b031681565b610667610cff565b6001600160a01b0316610678610abc565b6001600160a01b0316146106d3576040805162461bcd60e51b815260206004820181905260248201527f4f776e61626c653a2043616c6c6572206973206e6f7420746865206f776e6572604482015290519081900360640190fd5b60008111610728576040805162461bcd60e51b815260206004820152601e60248201527f59616b416461707465723a204e6f7468696e6720746f207265636f7665720000604482015290519081900360640190fd5b604051339082156108fc029083906000818181858888f19350505050158015610755573d6000803e3d6000fd5b506040805182815290516000917f8c1256b8896378cd5044f80c202f9772b9d77dc85c8a6eb51967210b09bfaa28919081900360200190a250565b60015481565b61079e610cff565b6001600160a01b03166107af610abc565b6001600160a01b03161461080a576040805162461bcd60e51b815260206004820181905260248201527f4f776e61626c653a2043616c6c6572206973206e6f7420746865206f776e6572604482015290519081900360640190fd5b600080546040516001600160a01b03909116907f8be0079c531659141344cd1fd0a4f28419497f9722a3daafe3b4186f6b6457e0908390a36000805473ffffffffffffffffffffffffffffffffffffffff19169055565b610869610cff565b6001600160a01b031661087a610abc565b6001600160a01b0316146108d5576040805162461bcd60e51b815260206004820181905260248201527f4f776e61626c653a2043616c6c6572206973206e6f7420746865206f776e6572604482015290519081900360640190fd5b61064c6001600160a01b038316826000610d03565b6108f2610cff565b6001600160a01b0316610903610abc565b6001600160a01b03161461095e576040805162461bcd60e51b815260206004820181905260248201527f4f776e61626c653a2043616c6c6572206973206e6f7420746865206f776e6572604482015290519081900360640190fd5b600181905560408051828152905130917ff43f23b7a28e6f8ce6843a21bd7b48bce778aa913b8c8cf459edf7d770e8d38a919081900360200190a250565b6109a4610cff565b6001600160a01b03166109b5610abc565b6001600160a01b031614610a10576040805162461bcd60e51b815260206004820181905260248201527f4f776e61626c653a2043616c6c6572206973206e6f7420746865206f776e6572604482015290519081900360640190fd5b60008111610a65576040805162461bcd60e51b815260206004820152601e60248201527f59616b416461707465723a204e6f7468696e6720746f207265636f7665720000604482015290519081900360640190fd5b610a796001600160a01b0383163383610e38565b6040805182815290516001600160a01b038416917f8c1256b8896378cd5044f80c202f9772b9d77dc85c8a6eb51967210b09bfaa28919081900360200190a25050565b6000546001600160a01b031690565b610ad3610cff565b6001600160a01b0316610ae4610abc565b6001600160a01b031614610b3f576040805162461bcd60e51b815260206004820181905260248201527f4f776e61626c653a2043616c6c6572206973206e6f7420746865206f776e6572604482015290519081900360640190fd5b565b60036020526000908152604090205460ff1681565b610b608386610e57565b610b6d8585858585610f00565b816001600160a01b0316836001600160a01b03167fe2bdbc6b7225eb0a972ac943c485a6cc05f7c6811838bce8903f23200fb744fa8787604051808381526020018281526020019250505060405180910390a35050505050565b6000610bd4848484610fae565b90505b9392505050565b610be6610cff565b6001600160a01b0316610bf7610abc565b6001600160a01b031614610c52576040805162461bcd60e51b815260206004820181905260248201527f4f776e61626c653a2043616c6c6572206973206e6f7420746865206f776e6572604482015290519081900360640190fd5b6001600160a01b038116610c975760405162461bcd60e51b81526004018080602001828103825260268152602001806113b06026913960400191505060405180910390fd5b600080546040516001600160a01b03808516939216917f8be0079c531659141344cd1fd0a4f28419497f9722a3daafe3b4186f6b6457e091a36000805473ffffffffffffffffffffffffffffffffffffffff19166001600160a01b0392909216919091179055565b3390565b801580610d8b5750604051636eb1769f60e11b81526001600160a01b0384169063dd62ed3e90610d39903090869060040161128d565b60206040518083038186803b158015610d5157600080fd5b505afa158015610d65573d6000803e3d6000fd5b505050506040513d601f19601f82011682018060405250810190610d89919061123c565b155b610db05760405162461bcd60e51b8152600401610da790611352565b60405180910390fd5b610e338363095ea7b360e01b8484604051602401610dcf9291906112a7565b60408051601f198184030181529190526020810180517bffffffffffffffffffffffffffffffffffffffffffffffffffffffff167fffffffff0000000000000000000000000000000000000000000000000000000090931692909217909152611160565b505050565b610e338363a9059cbb60e01b8484604051602401610dcf9291906112a7565b6004805460408051636eb1769f60e11b815230938101939093526001600160a01b039182166024840152516000929185169163dd62ed3e916044808301926020929190829003018186803b158015610eae57600080fd5b505afa158015610ec2573d6000803e3d6000fd5b505050506040513d6020811015610ed857600080fd5b5051905081811015610e3357600454610e33906001600160a01b038581169116600019610d03565b60048054604080517f9908fc8b0000000000000000000000000000000000000000000000000000000081526001600160a01b03878116948201949094528584166024820152604481018990526064810188905284841660848201524260a482015290519290911691639908fc8b9160c48082019260009290919082900301818387803b158015610f8f57600080fd5b505af1158015610fa3573d6000803e3d6000fd5b505050505050505050565b6001600160a01b03821660009081526003602052604081205460ff161580610fef57506001600160a01b03821660009081526003602052604090205460ff16155b8061100b5750816001600160a01b0316836001600160a01b0316145b80611014575083155b806110a2575060048054604080517f5c975abb00000000000000000000000000000000000000000000000000000000815290516001600160a01b0390921692635c975abb928282019260209290829003018186803b15801561107557600080fd5b505afa158015611089573d6000803e3d6000fd5b505050506040513d602081101561109f57600080fd5b50515b156110af57506000610bd7565b60048054604080517f43c2e2f50000000000000000000000000000000000000000000000000000000081526001600160a01b0387811694820194909452858416602482015260448101889052905192909116916343c2e2f591606480820192602092909190829003018186803b15801561112857600080fd5b505afa92505050801561114d57506040513d602081101561114857600080fd5b505160015b61115957506000610bd7565b9050610bd7565b600080836001600160a01b03168360405161117b9190611254565b6000604051808303816000865af19150503d80600081146111b8576040519150601f19603f3d011682016040523d82523d6000602084013e6111bd565b606091505b5091509150816111df5760405162461bcd60e51b8152600401610da7906112c0565b80511561121657808060200190518101906111fa919061121c565b6112165760405162461bcd60e51b8152600401610da7906112f5565b50505050565b60006020828403121561122d578081fd5b81518015158114610bd7578182fd5b60006020828403121561124d578081fd5b5051919050565b60008251815b81811015611274576020818601810151858301520161125a565b818111156112825782828501525b509190910192915050565b6001600160a01b0392831681529116602082015260400190565b6001600160a01b03929092168252602082015260400190565b6020808252818101527f5361666545524332303a206c6f772d6c6576656c2063616c6c206661696c6564604082015260600190565b6020808252602a908201527f5361666545524332303a204552433230206f7065726174696f6e20646964206e60408201527f6f74207375636365656400000000000000000000000000000000000000000000606082015260800190565b60208082526036908201527f5361666545524332303a20617070726f76652066726f6d206e6f6e2d7a65726f60408201527f20746f206e6f6e2d7a65726f20616c6c6f77616e63650000000000000000000060608201526080019056fe4f776e61626c653a204e6577206f776e657220697320746865207a65726f2061646472657373a26469706673582212201d5ddb14657811a31be5c7c855cce754902ed692cc75565c53eb2d85f075966164736f6c63430007060033",
  "devdoc": {
    "kind": "dev",
    "methods": {
      "owner()": {
        "details": "Returns the address of the current owner."
      },
      "recoverAVAX(uint256)": {
        "params": {
          "_amount": "amount"
        }
      },
      "recoverERC20(address,uint256)": {
        "params": {
          "_tokenAddress": "token address",
          "_tokenAmount": "amount to recover"
        }
      },
      "renounceOwnership()": {
        "details": "Leaves the contract without owner. It will not be possible to call `onlyOwner` functions anymore. Can only be called by the current owner. NOTE: Renouncing ownership will leave the contract without an owner, thereby removing any functionality that is only available to the owner."
      },
      "revokeAllowance(address,address)": {
        "params": {
          "_spender": "address",
          "_token": "address"
        }
      },
      "setAllowances()": {
        "details": "Should use modifier `onlyOwner` to avoid griefing"
      },
      "swap(uint256,uint256,address,address,address)": {
        "params": {
          "_amountIn": "input amount in starting token",
          "_amountOut": "amount out in ending token",
          "_fromToken": "ERC20 token being sold",
          "_to": "address where swapped funds should be sent to",
          "_toToken": "ERC20 token being bought"
        }
      },
      "transferOwnership(address)": {
        "details": "Transfers ownership of the contract to a new account (`newOwner`). Can only be called by the current owner."
      }
    },
    "version": 1
  },
  "userdoc": {
    "kind": "user",
    "methods": {
      "recoverAVAX(uint256)": {
        "notice": "Recover AVAX from contract"
      },
      "recoverERC20(address,uint256)": {
        "notice": "Recover ERC20 from contract"
      },
      "revokeAllowance(address,address)": {
        "notice": "Revoke token allowance"
      },
      "setAllowances()": {
        "notice": "Approve tokens for use in Strategy"
      },
      "swap(uint256,uint256,address,address,address)": {
        "notice": "Execute a swap from token to token assuming this contract already holds input tokensInteract through the router"
      }
    },
    "version": 1
  },
  "storageLayout": {
    "storage": [
      {
        "astId": 8359,
        "contract": "contracts/adapters/PlatypusAdapter.sol:PlatypusAdapter",
        "label": "_owner",
        "offset": 0,
        "slot": "0",
        "type": "t_address"
      },
      {
        "astId": 50,
        "contract": "contracts/adapters/PlatypusAdapter.sol:PlatypusAdapter",
        "label": "swapGasEstimate",
        "offset": 0,
        "slot": "1",
        "type": "t_uint256"
      },
      {
        "astId": 52,
        "contract": "contracts/adapters/PlatypusAdapter.sol:PlatypusAdapter",
        "label": "name",
        "offset": 0,
        "slot": "2",
        "type": "t_string_storage"
      },
      {
        "astId": 6244,
        "contract": "contracts/adapters/PlatypusAdapter.sol:PlatypusAdapter",
        "label": "isPoolToken",
        "offset": 0,
        "slot": "3",
        "type": "t_mapping(t_address,t_bool)"
      },
      {
        "astId": 6246,
        "contract": "contracts/adapters/PlatypusAdapter.sol:PlatypusAdapter",
        "label": "pool",
        "offset": 0,
        "slot": "4",
        "type": "t_address"
      }
    ],
    "types": {
      "t_address": {
        "encoding": "inplace",
        "label": "address",
        "numberOfBytes": "20"
      },
      "t_bool": {
        "encoding": "inplace",
        "label": "bool",
        "numberOfBytes": "1"
      },
      "t_mapping(t_address,t_bool)": {
        "encoding": "mapping",
        "key": "t_address",
        "label": "mapping(address => bool)",
        "numberOfBytes": "32",
        "value": "t_bool"
      },
      "t_string_storage": {
        "encoding": "bytes",
        "label": "string",
        "numberOfBytes": "32"
      },
      "t_uint256": {
        "encoding": "inplace",
        "label": "uint256",
        "numberOfBytes": "32"
      }
    }
  }
}