{
  "address": "0x364FD64a98bD60aA798Ea8c61bb30d404102E900",
  "abi": [
    {
      "inputs": [
        {
          "internalType": "string",
          "name": "_name",
          "type": "string"
        },
        {
          "internalType": "address",
          "name": "_pool",
          "type": "address"
        },
        {
          "internalType": "uint256",
          "name": "_swapGasEstimate",
          "type": "uint256"
        }
      ],
      "stateMutability": "nonpayable",
      "type": "constructor"
    },
    {
      "anonymous": false,
      "inputs": [
        {
          "indexed": true,
          "internalType": "address",
          "name": "previousOwner",
          "type": "address"
        },
        {
          "indexed": true,
          "internalType": "address",
          "name": "newOwner",
          "type": "address"
        }
      ],
      "name": "OwnershipTransferred",
      "type": "event"
    },
    {
      "anonymous": false,
      "inputs": [
        {
          "indexed": true,
          "internalType": "address",
          "name": "_asset",
          "type": "address"
        },
        {
          "indexed": false,
          "internalType": "uint256",
          "name": "amount",
          "type": "uint256"
        }
      ],
      "name": "Recovered",
      "type": "event"
    },
    {
      "anonymous": false,
      "inputs": [
        {
          "indexed": true,
          "internalType": "address",
          "name": "_adapter",
          "type": "address"
        },
        {
          "indexed": false,
          "internalType": "uint256",
          "name": "_newEstimate",
          "type": "uint256"
        }
      ],
      "name": "UpdatedGasEstimate",
      "type": "event"
    },
    {
      "anonymous": false,
      "inputs": [
        {
          "indexed": true,
          "internalType": "address",
          "name": "_tokenFrom",
          "type": "address"
        },
        {
          "indexed": true,
          "internalType": "address",
          "name": "_tokenTo",
          "type": "address"
        },
        {
          "indexed": false,
          "internalType": "uint256",
          "name": "_amountIn",
          "type": "uint256"
        },
        {
          "indexed": false,
          "internalType": "uint256",
          "name": "_amountOut",
          "type": "uint256"
        }
      ],
      "name": "YakAdapterSwap",
      "type": "event"
    },
    {
      "inputs": [],
      "name": "bips",
      "outputs": [
        {
          "internalType": "uint256",
          "name": "",
          "type": "uint256"
        }
      ],
      "stateMutability": "view",
      "type": "function"
    },
    {
      "inputs": [],
      "name": "id",
      "outputs": [
        {
          "internalType": "bytes32",
          "name": "",
          "type": "bytes32"
        }
      ],
      "stateMutability": "view",
      "type": "function"
    },
    {
      "inputs": [
        {
          "internalType": "address",
          "name": "",
          "type": "address"
        }
      ],
      "name": "isPoolToken",
      "outputs": [
        {
          "internalType": "bool",
          "name": "",
          "type": "bool"
        }
      ],
      "stateMutability": "view",
      "type": "function"
    },
    {
      "inputs": [],
      "name": "metaPool",
      "outputs": [
        {
          "internalType": "address",
          "name": "",
          "type": "address"
        }
      ],
      "stateMutability": "view",
      "type": "function"
    },
    {
      "inputs": [],
      "name": "name",
      "outputs": [
        {
          "internalType": "string",
          "name": "",
          "type": "string"
        }
      ],
      "stateMutability": "view",
      "type": "function"
    },
    {
      "inputs": [],
      "name": "owner",
      "outputs": [
        {
          "internalType": "address",
          "name": "",
          "type": "address"
        }
      ],
      "stateMutability": "view",
      "type": "function"
    },
    {
      "inputs": [],
      "name": "pool",
      "outputs": [
        {
          "internalType": "address",
          "name": "",
          "type": "address"
        }
      ],
      "stateMutability": "view",
      "type": "function"
    },
    {
      "inputs": [],
      "name": "poolFeeCompliment",
      "outputs": [
        {
          "internalType": "uint256",
          "name": "",
          "type": "uint256"
        }
      ],
      "stateMutability": "view",
      "type": "function"
    },
    {
      "inputs": [
        {
          "internalType": "uint256",
          "name": "_amountIn",
          "type": "uint256"
        },
        {
          "internalType": "address",
          "name": "_tokenIn",
          "type": "address"
        },
        {
          "internalType": "address",
          "name": "_tokenOut",
          "type": "address"
        }
      ],
      "name": "query",
      "outputs": [
        {
          "internalType": "uint256",
          "name": "",
          "type": "uint256"
        }
      ],
      "stateMutability": "view",
      "type": "function"
    },
    {
      "inputs": [
        {
          "internalType": "uint256",
          "name": "_amount",
          "type": "uint256"
        }
      ],
      "name": "recoverAVAX",
      "outputs": [],
      "stateMutability": "nonpayable",
      "type": "function"
    },
    {
      "inputs": [
        {
          "internalType": "address",
          "name": "_tokenAddress",
          "type": "address"
        },
        {
          "internalType": "uint256",
          "name": "_tokenAmount",
          "type": "uint256"
        }
      ],
      "name": "recoverERC20",
      "outputs": [],
      "stateMutability": "nonpayable",
      "type": "function"
    },
    {
      "inputs": [],
      "name": "renounceOwnership",
      "outputs": [],
      "stateMutability": "nonpayable",
      "type": "function"
    },
    {
      "inputs": [
        {
          "internalType": "address",
          "name": "_token",
          "type": "address"
        },
        {
          "internalType": "address",
          "name": "_spender",
          "type": "address"
        }
      ],
      "name": "revokeAllowance",
      "outputs": [],
      "stateMutability": "nonpayable",
      "type": "function"
    },
    {
      "inputs": [],
      "name": "setAllowances",
      "outputs": [],
      "stateMutability": "nonpayable",
      "type": "function"
    },
    {
      "inputs": [
        {
          "internalType": "uint256",
          "name": "_estimate",
          "type": "uint256"
        }
      ],
      "name": "setSwapGasEstimate",
      "outputs": [],
      "stateMutability": "nonpayable",
      "type": "function"
    },
    {
      "inputs": [
        {
          "internalType": "uint256",
          "name": "_amountIn",
          "type": "uint256"
        },
        {
          "internalType": "uint256",
          "name": "_amountOut",
          "type": "uint256"
        },
        {
          "internalType": "address",
          "name": "_fromToken",
          "type": "address"
        },
        {
          "internalType": "address",
          "name": "_toToken",
          "type": "address"
        },
        {
          "internalType": "address",
          "name": "_to",
          "type": "address"
        }
      ],
      "name": "swap",
      "outputs": [],
      "stateMutability": "nonpayable",
      "type": "function"
    },
    {
      "inputs": [],
      "name": "swapGasEstimate",
      "outputs": [
        {
          "internalType": "uint256",
          "name": "",
          "type": "uint256"
        }
      ],
      "stateMutability": "view",
      "type": "function"
    },
    {
      "inputs": [
        {
          "internalType": "address",
          "name": "",
          "type": "address"
        }
      ],
      "name": "tokenIndex",
      "outputs": [
        {
          "internalType": "uint8",
          "name": "",
          "type": "uint8"
        }
      ],
      "stateMutability": "view",
      "type": "function"
    },
    {
      "inputs": [
        {
          "internalType": "address",
          "name": "newOwner",
          "type": "address"
        }
      ],
      "name": "transferOwnership",
      "outputs": [],
      "stateMutability": "nonpayable",
      "type": "function"
    },
    {
      "stateMutability": "payable",
      "type": "receive"
    }
  ],
  "transactionHash": "0xc7704ad6b5e629874486199e96ac4a3d8198189f5a60f103853734ec950783fb",
  "args": [
    "SynapseAdapterV0",
    "0xF44938b0125A6662f9536281aD2CD6c499F22004",
    350000
  ],
  "solcInputHash": "6b088325b46bd7d8175e56de056bf1d2",
  "bytecode": "0x60806040523480156200001157600080fd5b5060405162001a5538038062001a55833981810160405260608110156200003757600080fd5b81019080805160405193929190846401000000008211156200005857600080fd5b9083019060208201858111156200006e57600080fd5b82516401000000008111828201881017156200008957600080fd5b82525081516020918201929091019080838360005b83811015620000b85781810151838201526020016200009e565b50505050905090810190601f168015620000e65780820380516001836020036101000a031916815260200191505b506040908152602082015191015190925090506000620001056200023c565b600080546001600160a01b0319166001600160a01b0383169081178255604051929350917f8be0079c531659141344cd1fd0a4f28419497f9722a3daafe3b4186f6b6457e0908290a350600580546001600160a01b0319166001600160a01b03841617905582516200017f9060029060208601906200048b565b50600560009054906101000a90046001600160a01b03166001600160a01b0316632d74d4e96040518163ffffffff1660e01b8152600401602060405180830381600087803b158015620001d157600080fd5b505af1158015620001e6573d6000803e3d6000fd5b505050506040513d6020811015620001fd57600080fd5b5051600680546001600160a01b0319166001600160a01b039092169190911790556200022862000240565b6200023381620003c5565b50505062000537565b3390565b6005546040805162415c3360e91b8152600060048201819052915191926001600160a01b0316916382b8660091602480820192602092909190829003018186803b1580156200028e57600080fd5b505afa158015620002a3573d6000803e3d6000fd5b505050506040513d6020811015620002ba57600080fd5b50516001600160a01b0381166000908152600360209081526040808320805460ff1990811660011790915560049092528220805490911690559091505b6006546040805162415c3360e91b815260ff8416600482015290516001600160a01b03909216916382b8660091602480820192602092909190829003018186803b1580156200034557600080fd5b505afa9250505080156200036c57506040513d60208110156200036757600080fd5b505160015b6200037757620003c1565b6001600160a01b031660009081526003602090815260408083208054600160ff19918216811790925560049093529220805490911660ff93909201928316919091179055620002f7565b5050565b620003cf6200023c565b6001600160a01b0316620003e26200047c565b6001600160a01b0316146200043e576040805162461bcd60e51b815260206004820181905260248201527f4f776e61626c653a2043616c6c6572206973206e6f7420746865206f776e6572604482015290519081900360640190fd5b600181905560408051828152905130917ff43f23b7a28e6f8ce6843a21bd7b48bce778aa913b8c8cf459edf7d770e8d38a919081900360200190a250565b6000546001600160a01b031690565b828054600181600116156101000203166002900490600052602060002090601f016020900481019282620004c357600085556200050e565b82601f10620004de57805160ff19168380011785556200050e565b828001600101855582156200050e579182015b828111156200050e578251825591602001919060010190620004f1565b506200051c92915062000520565b5090565b5b808211156200051c576000815560010162000521565b61150e80620005476000396000f3fe6080604052600436106101485760003560e01c806384a33e63116100c0578063dbd9a4d411610074578063eab90da611610059578063eab90da614610423578063ef99893a14610474578063f2fde38b146104b55761014f565b8063dbd9a4d4146103c7578063de260f37146103dc5761014f565b80638da5cb5b116100a55780638da5cb5b14610388578063af640d0f1461039d578063ce41de50146103b25761014f565b806384a33e63146103255780638980f11f1461034f5761014f565b80634ebb79161161011757806369cff80d116100fc57806369cff80d146102c0578063715018a6146102d55780637ae26773146102ea5761014f565b80634ebb79161461027f5780635acb5da9146102ab5761014f565b806306fdde031461015457806316f0115b146101de5780632580d3651461020f578063427f91a6146102365761014f565b3661014f57005b600080fd5b34801561016057600080fd5b506101696104e8565b6040805160208082528351818301528351919283929083019185019080838360005b838110156101a357818101518382015260200161018b565b50505050905090810190601f1680156101d05780820380516001836020036101000a031916815260200191505b509250505060405180910390f35b3480156101ea57600080fd5b506101f3610573565b604080516001600160a01b039092168252519081900360200190f35b34801561021b57600080fd5b50610224610582565b60408051918252519081900360200190f35b34801561024257600080fd5b506102696004803603602081101561025957600080fd5b50356001600160a01b0316610588565b6040805160ff9092168252519081900360200190f35b34801561028b57600080fd5b506102a9600480360360208110156102a257600080fd5b503561059d565b005b3480156102b757600080fd5b506101f36106ce565b3480156102cc57600080fd5b506102246106dd565b3480156102e157600080fd5b506102a96106e3565b3480156102f657600080fd5b506102a96004803603604081101561030d57600080fd5b506001600160a01b03813581169160200135166107ae565b34801561033157600080fd5b506102a96004803603602081101561034857600080fd5b503561083b565b34801561035b57600080fd5b506102a96004803603604081101561037257600080fd5b506001600160a01b0381351690602001356108ed565b34801561039457600080fd5b506101f3610a0d565b3480156103a957600080fd5b50610224610a1c565b3480156103be57600080fd5b50610224610a40565b3480156103d357600080fd5b506102a9610a46565b3480156103e857600080fd5b5061040f600480360360208110156103ff57600080fd5b50356001600160a01b0316610abc565b604080519115158252519081900360200190f35b34801561042f57600080fd5b506102a9600480360360a081101561044657600080fd5b508035906020810135906001600160a01b036040820135811691606081013582169160809091013516610ad1565b34801561048057600080fd5b506102246004803603606081101561049757600080fd5b508035906001600160a01b0360208201358116916040013516610b42565b3480156104c157600080fd5b506102a9600480360360208110156104d857600080fd5b50356001600160a01b0316610b59565b6002805460408051602060018416156101000260001901909316849004601f8101849004840282018401909252818152929183018282801561056b5780601f106105405761010080835404028352916020019161056b565b820191906000526020600020905b81548152906001019060200180831161054e57829003601f168201915b505050505081565b6005546001600160a01b031681565b61270c81565b60046020526000908152604090205460ff1681565b6105a5610c7a565b6001600160a01b03166105b6610a0d565b6001600160a01b031614610611576040805162461bcd60e51b815260206004820181905260248201527f4f776e61626c653a2043616c6c6572206973206e6f7420746865206f776e6572604482015290519081900360640190fd5b60008111610666576040805162461bcd60e51b815260206004820152601e60248201527f59616b416461707465723a204e6f7468696e6720746f207265636f7665720000604482015290519081900360640190fd5b604051339082156108fc029083906000818181858888f19350505050158015610693573d6000803e3d6000fd5b506040805182815290516000917f8c1256b8896378cd5044f80c202f9772b9d77dc85c8a6eb51967210b09bfaa28919081900360200190a250565b6006546001600160a01b031681565b60015481565b6106eb610c7a565b6001600160a01b03166106fc610a0d565b6001600160a01b031614610757576040805162461bcd60e51b815260206004820181905260248201527f4f776e61626c653a2043616c6c6572206973206e6f7420746865206f776e6572604482015290519081900360640190fd5b600080546040516001600160a01b03909116907f8be0079c531659141344cd1fd0a4f28419497f9722a3daafe3b4186f6b6457e0908390a36000805473ffffffffffffffffffffffffffffffffffffffff19169055565b6107b6610c7a565b6001600160a01b03166107c7610a0d565b6001600160a01b031614610822576040805162461bcd60e51b815260206004820181905260248201527f4f776e61626c653a2043616c6c6572206973206e6f7420746865206f776e6572604482015290519081900360640190fd5b6108376001600160a01b038316826000610c7e565b5050565b610843610c7a565b6001600160a01b0316610854610a0d565b6001600160a01b0316146108af576040805162461bcd60e51b815260206004820181905260248201527f4f776e61626c653a2043616c6c6572206973206e6f7420746865206f776e6572604482015290519081900360640190fd5b600181905560408051828152905130917ff43f23b7a28e6f8ce6843a21bd7b48bce778aa913b8c8cf459edf7d770e8d38a919081900360200190a250565b6108f5610c7a565b6001600160a01b0316610906610a0d565b6001600160a01b031614610961576040805162461bcd60e51b815260206004820181905260248201527f4f776e61626c653a2043616c6c6572206973206e6f7420746865206f776e6572604482015290519081900360640190fd5b600081116109b6576040805162461bcd60e51b815260206004820152601e60248201527f59616b416461707465723a204e6f7468696e6720746f207265636f7665720000604482015290519081900360640190fd5b6109ca6001600160a01b0383163383610db3565b6040805182815290516001600160a01b038416917f8c1256b8896378cd5044f80c202f9772b9d77dc85c8a6eb51967210b09bfaa28919081900360200190a25050565b6000546001600160a01b031690565b7fe9f9e782993e11afd411ec665efc51cc89cd6c1ad8415be7a919700e44df36a281565b61271081565b610a4e610c7a565b6001600160a01b0316610a5f610a0d565b6001600160a01b031614610aba576040805162461bcd60e51b815260206004820181905260248201527f4f776e61626c653a2043616c6c6572206973206e6f7420746865206f776e6572604482015290519081900360640190fd5b565b60036020526000908152604090205460ff1681565b610adb8386610dd2565b610ae88585858585610e78565b816001600160a01b0316836001600160a01b03167fe2bdbc6b7225eb0a972ac943c485a6cc05f7c6811838bce8903f23200fb744fa8787604051808381526020018281526020019250505060405180910390a35050505050565b6000610b4f848484610f58565b90505b9392505050565b610b61610c7a565b6001600160a01b0316610b72610a0d565b6001600160a01b031614610bcd576040805162461bcd60e51b815260206004820181905260248201527f4f776e61626c653a2043616c6c6572206973206e6f7420746865206f776e6572604482015290519081900360640190fd5b6001600160a01b038116610c125760405162461bcd60e51b81526004018080602001828103825260268152602001806114b36026913960400191505060405180910390fd5b600080546040516001600160a01b03808516939216917f8be0079c531659141344cd1fd0a4f28419497f9722a3daafe3b4186f6b6457e091a36000805473ffffffffffffffffffffffffffffffffffffffff19166001600160a01b0392909216919091179055565b3390565b801580610d065750604051636eb1769f60e11b81526001600160a01b0384169063dd62ed3e90610cb49030908690600401611390565b60206040518083038186803b158015610ccc57600080fd5b505afa158015610ce0573d6000803e3d6000fd5b505050506040513d601f19601f82011682018060405250810190610d04919061133f565b155b610d2b5760405162461bcd60e51b8152600401610d2290611455565b60405180910390fd5b610dae8363095ea7b360e01b8484604051602401610d4a9291906113aa565b60408051601f198184030181529190526020810180517bffffffffffffffffffffffffffffffffffffffffffffffffffffffff167fffffffff00000000000000000000000000000000000000000000000000000000909316929092179091526110bd565b505050565b610dae8363a9059cbb60e01b8484604051602401610d4a9291906113aa565b60055460408051636eb1769f60e11b81523060048201526001600160a01b039283166024820152905160009285169163dd62ed3e916044808301926020929190829003018186803b158015610e2657600080fd5b505afa158015610e3a573d6000803e3d6000fd5b505050506040513d6020811015610e5057600080fd5b5051905081811015610dae57600554610dae906001600160a01b038581169116600019610c7e565b6005546001600160a01b0384811660009081526004602081815260408084205488861685528185205482517f78e0fae800000000000000000000000000000000000000000000000000000000815260ff92831695810195909552166024840152604483018b9052606483018a90524260848401525193909416936378e0fae89360a48084019492939192918390030190829087803b158015610f1957600080fd5b505af1158015610f2d573d6000803e3d6000fd5b505050506040513d6020811015610f4357600080fd5b50610f519050828583611179565b5050505050565b6000831580610f785750816001600160a01b0316836001600160a01b0316145b80610f9c57506001600160a01b03831660009081526003602052604090205460ff16155b80610fc057506001600160a01b03821660009081526003602052604090205460ff16155b80610fce5750610fce61119d565b15610fdb57506000610b52565b6005546001600160a01b038481166000908152600460208181526040808420548886168552938190205481517f75d8e3e400000000000000000000000000000000000000000000000000000000815260ff95861694810194909452909316602483015260448201899052915192909316926375d8e3e49260648083019392829003018186803b15801561106d57600080fd5b505afa92505050801561109257506040513d602081101561108d57600080fd5b505160015b61109e57506000610b52565b6127106110ad8261270c6112ad565b816110b457fe5b04915050610b52565b600080836001600160a01b0316836040516110d89190611357565b6000604051808303816000865af19150503d8060008114611115576040519150601f19603f3d011682016040523d82523d6000602084013e61111a565b606091505b50915091508161113c5760405162461bcd60e51b8152600401610d22906113c3565b8051156111735780806020019051810190611157919061131f565b6111735760405162461bcd60e51b8152600401610d22906113f8565b50505050565b306001600160a01b03821614610dae57610dae6001600160a01b0384168284610db3565b600554604080517f5c975abb00000000000000000000000000000000000000000000000000000000815290516000926001600160a01b031691635c975abb916004808301926020929190829003018186803b1580156111fb57600080fd5b505afa15801561120f573d6000803e3d6000fd5b505050506040513d602081101561122557600080fd5b5051806112a85750600660009054906101000a90046001600160a01b03166001600160a01b0316635c975abb6040518163ffffffff1660e01b815260040160206040518083038186803b15801561127b57600080fd5b505afa15801561128f573d6000803e3d6000fd5b505050506040513d60208110156112a557600080fd5b50515b905090565b60008115806112c8575050808202828282816112c557fe5b04145b611319576040805162461bcd60e51b815260206004820152601e60248201527f536166654d6174683a2064732d6d6174682d6d756c2d6f766572666c6f770000604482015290519081900360640190fd5b92915050565b600060208284031215611330578081fd5b81518015158114610b52578182fd5b600060208284031215611350578081fd5b5051919050565b60008251815b81811015611377576020818601810151858301520161135d565b818111156113855782828501525b509190910192915050565b6001600160a01b0392831681529116602082015260400190565b6001600160a01b03929092168252602082015260400190565b6020808252818101527f5361666545524332303a206c6f772d6c6576656c2063616c6c206661696c6564604082015260600190565b6020808252602a908201527f5361666545524332303a204552433230206f7065726174696f6e20646964206e60408201527f6f74207375636365656400000000000000000000000000000000000000000000606082015260800190565b60208082526036908201527f5361666545524332303a20617070726f76652066726f6d206e6f6e2d7a65726f60408201527f20746f206e6f6e2d7a65726f20616c6c6f77616e63650000000000000000000060608201526080019056fe4f776e61626c653a204e6577206f776e657220697320746865207a65726f2061646472657373a2646970667358221220967035045798696a385f7c1f611f05133fdc0b79725e5aa9a04bb945818acf1f64736f6c63430007060033",
  "devdoc": {
    "kind": "dev",
    "methods": {
      "owner()": {
        "details": "Returns the address of the current owner."
      },
      "recoverAVAX(uint256)": {
        "params": {
          "_amount": "amount"
        }
      },
      "recoverERC20(address,uint256)": {
        "params": {
          "_tokenAddress": "token address",
          "_tokenAmount": "amount to recover"
        }
      },
      "renounceOwnership()": {
        "details": "Leaves the contract without owner. It will not be possible to call `onlyOwner` functions anymore. Can only be called by the current owner. NOTE: Renouncing ownership will leave the contract without an owner, thereby removing any functionality that is only available to the owner."
      },
      "revokeAllowance(address,address)": {
        "params": {
          "_spender": "address",
          "_token": "address"
        }
      },
      "setAllowances()": {
        "details": "Should use modifier `onlyOwner` to avoid griefing"
      },
      "swap(uint256,uint256,address,address,address)": {
        "params": {
          "_amountIn": "input amount in starting token",
          "_amountOut": "amount out in ending token",
          "_fromToken": "ERC20 token being sold",
          "_to": "address where swapped funds should be sent to",
          "_toToken": "ERC20 token being bought"
        }
      },
      "transferOwnership(address)": {
        "details": "Transfers ownership of the contract to a new account (`newOwner`). Can only be called by the current owner."
      }
    },
    "version": 1
  },
  "userdoc": {
    "kind": "user",
    "methods": {
      "recoverAVAX(uint256)": {
        "notice": "Recover AVAX from contract"
      },
      "recoverERC20(address,uint256)": {
        "notice": "Recover ERC20 from contract"
      },
      "revokeAllowance(address,address)": {
        "notice": "Revoke token allowance"
      },
      "setAllowances()": {
        "notice": "Approve tokens for use in Strategy"
      },
      "swap(uint256,uint256,address,address,address)": {
        "notice": "Execute a swap from token to token assuming this contract already holds input tokensInteract through the router"
      }
    },
    "version": 1
  },
  "storageLayout": {
    "storage": [
      {
        "astId": 3841,
        "contract": "contracts/adapters/SynapseAdapter.sol:SynapseAdapter",
        "label": "_owner",
        "offset": 0,
        "slot": "0",
        "type": "t_address"
      },
      {
        "astId": 50,
        "contract": "contracts/adapters/SynapseAdapter.sol:SynapseAdapter",
        "label": "swapGasEstimate",
        "offset": 0,
        "slot": "1",
        "type": "t_uint256"
      },
      {
        "astId": 52,
        "contract": "contracts/adapters/SynapseAdapter.sol:SynapseAdapter",
        "label": "name",
        "offset": 0,
        "slot": "2",
        "type": "t_string_storage"
      },
      {
        "astId": 2750,
        "contract": "contracts/adapters/SynapseAdapter.sol:SynapseAdapter",
        "label": "isPoolToken",
        "offset": 0,
        "slot": "3",
        "type": "t_mapping(t_address,t_bool)"
      },
      {
        "astId": 2754,
        "contract": "contracts/adapters/SynapseAdapter.sol:SynapseAdapter",
        "label": "tokenIndex",
        "offset": 0,
        "slot": "4",
        "type": "t_mapping(t_address,t_uint8)"
      },
      {
        "astId": 2756,
        "contract": "contracts/adapters/SynapseAdapter.sol:SynapseAdapter",
        "label": "pool",
        "offset": 0,
        "slot": "5",
        "type": "t_address"
      },
      {
        "astId": 2758,
        "contract": "contracts/adapters/SynapseAdapter.sol:SynapseAdapter",
        "label": "metaPool",
        "offset": 0,
        "slot": "6",
        "type": "t_address"
      }
    ],
    "types": {
      "t_address": {
        "encoding": "inplace",
        "label": "address",
        "numberOfBytes": "20"
      },
      "t_bool": {
        "encoding": "inplace",
        "label": "bool",
        "numberOfBytes": "1"
      },
      "t_mapping(t_address,t_bool)": {
        "encoding": "mapping",
        "key": "t_address",
        "label": "mapping(address => bool)",
        "numberOfBytes": "32",
        "value": "t_bool"
      },
      "t_mapping(t_address,t_uint8)": {
        "encoding": "mapping",
        "key": "t_address",
        "label": "mapping(address => uint8)",
        "numberOfBytes": "32",
        "value": "t_uint8"
      },
      "t_string_storage": {
        "encoding": "bytes",
        "label": "string",
        "numberOfBytes": "32"
      },
      "t_uint256": {
        "encoding": "inplace",
        "label": "uint256",
        "numberOfBytes": "32"
      },
      "t_uint8": {
        "encoding": "inplace",
        "label": "uint8",
        "numberOfBytes": "1"
      }
    }
  }
}