{
  "abi": [
    {
      "inputs": [
        {
          "internalType": "uint256",
          "name": "_swapGasEstimate",
          "type": "uint256"
        }
      ],
      "stateMutability": "nonpayable",
      "type": "constructor"
    },
    {
      "anonymous": false,
      "inputs": [
        {
          "indexed": true,
          "internalType": "address",
          "name": "_asset",
          "type": "address"
        },
        {
          "indexed": false,
          "internalType": "uint256",
          "name": "amount",
          "type": "uint256"
        }
      ],
      "name": "Recovered",
      "type": "event"
    },
    {
      "anonymous": false,
      "inputs": [
        {
          "indexed": true,
          "internalType": "bytes32",
          "name": "role",
          "type": "bytes32"
        },
        {
          "indexed": true,
          "internalType": "bytes32",
          "name": "previousAdminRole",
          "type": "bytes32"
        },
        {
          "indexed": true,
          "internalType": "bytes32",
          "name": "newAdminRole",
          "type": "bytes32"
        }
      ],
      "name": "RoleAdminChanged",
      "type": "event"
    },
    {
      "anonymous": false,
      "inputs": [
        {
          "indexed": true,
          "internalType": "bytes32",
          "name": "role",
          "type": "bytes32"
        },
        {
          "indexed": true,
          "internalType": "address",
          "name": "account",
          "type": "address"
        },
        {
          "indexed": true,
          "internalType": "address",
          "name": "sender",
          "type": "address"
        }
      ],
      "name": "RoleGranted",
      "type": "event"
    },
    {
      "anonymous": false,
      "inputs": [
        {
          "indexed": true,
          "internalType": "bytes32",
          "name": "role",
          "type": "bytes32"
        },
        {
          "indexed": true,
          "internalType": "address",
          "name": "account",
          "type": "address"
        },
        {
          "indexed": true,
          "internalType": "address",
          "name": "sender",
          "type": "address"
        }
      ],
      "name": "RoleRevoked",
      "type": "event"
    },
    {
      "anonymous": false,
      "inputs": [
        {
          "indexed": true,
          "internalType": "address",
          "name": "_adapter",
          "type": "address"
        },
        {
          "indexed": false,
          "internalType": "uint256",
          "name": "_newEstimate",
          "type": "uint256"
        }
      ],
      "name": "UpdatedGasEstimate",
      "type": "event"
    },
    {
      "anonymous": false,
      "inputs": [
        {
          "indexed": true,
          "internalType": "address",
          "name": "_tokenFrom",
          "type": "address"
        },
        {
          "indexed": true,
          "internalType": "address",
          "name": "_tokenTo",
          "type": "address"
        },
        {
          "indexed": false,
          "internalType": "uint256",
          "name": "_amountIn",
          "type": "uint256"
        },
        {
          "indexed": false,
          "internalType": "uint256",
          "name": "_amountOut",
          "type": "uint256"
        }
      ],
      "name": "YakAdapterSwap",
      "type": "event"
    },
    {
      "inputs": [],
      "name": "DEFAULT_ADMIN_ROLE",
      "outputs": [
        {
          "internalType": "bytes32",
          "name": "",
          "type": "bytes32"
        }
      ],
      "stateMutability": "view",
      "type": "function"
    },
    {
      "inputs": [],
      "name": "MAINTAINER_ROLE",
      "outputs": [
        {
          "internalType": "bytes32",
          "name": "",
          "type": "bytes32"
        }
      ],
      "stateMutability": "view",
      "type": "function"
    },
    {
      "inputs": [
        {
          "internalType": "address",
          "name": "addedMaintainer",
          "type": "address"
        }
      ],
      "name": "addMaintainer",
      "outputs": [],
      "stateMutability": "nonpayable",
      "type": "function"
    },
    {
      "inputs": [
        {
          "internalType": "bytes32",
          "name": "role",
          "type": "bytes32"
        }
      ],
      "name": "getRoleAdmin",
      "outputs": [
        {
          "internalType": "bytes32",
          "name": "",
          "type": "bytes32"
        }
      ],
      "stateMutability": "view",
      "type": "function"
    },
    {
      "inputs": [
        {
          "internalType": "bytes32",
          "name": "role",
          "type": "bytes32"
        },
        {
          "internalType": "address",
          "name": "account",
          "type": "address"
        }
      ],
      "name": "grantRole",
      "outputs": [],
      "stateMutability": "nonpayable",
      "type": "function"
    },
    {
      "inputs": [
        {
          "internalType": "bytes32",
          "name": "role",
          "type": "bytes32"
        },
        {
          "internalType": "address",
          "name": "account",
          "type": "address"
        }
      ],
      "name": "hasRole",
      "outputs": [
        {
          "internalType": "bool",
          "name": "",
          "type": "bool"
        }
      ],
      "stateMutability": "view",
      "type": "function"
    },
    {
      "inputs": [],
      "name": "name",
      "outputs": [
        {
          "internalType": "string",
          "name": "",
          "type": "string"
        }
      ],
      "stateMutability": "view",
      "type": "function"
    },
    {
      "inputs": [
        {
          "internalType": "uint256",
          "name": "_amountIn",
          "type": "uint256"
        },
        {
          "internalType": "address",
          "name": "_tokenIn",
          "type": "address"
        },
        {
          "internalType": "address",
          "name": "_tokenOut",
          "type": "address"
        }
      ],
      "name": "query",
      "outputs": [
        {
          "internalType": "uint256",
          "name": "",
          "type": "uint256"
        }
      ],
      "stateMutability": "view",
      "type": "function"
    },
    {
      "inputs": [
        {
          "internalType": "uint256",
          "name": "_amount",
          "type": "uint256"
        }
      ],
      "name": "recoverAVAX",
      "outputs": [],
      "stateMutability": "nonpayable",
      "type": "function"
    },
    {
      "inputs": [
        {
          "internalType": "address",
          "name": "_tokenAddress",
          "type": "address"
        },
        {
          "internalType": "uint256",
          "name": "_tokenAmount",
          "type": "uint256"
        }
      ],
      "name": "recoverERC20",
      "outputs": [],
      "stateMutability": "nonpayable",
      "type": "function"
    },
    {
      "inputs": [
        {
          "internalType": "address",
          "name": "removedMaintainer",
          "type": "address"
        }
      ],
      "name": "removeMaintainer",
      "outputs": [],
      "stateMutability": "nonpayable",
      "type": "function"
    },
    {
      "inputs": [
        {
          "internalType": "bytes32",
          "name": "role",
          "type": "bytes32"
        },
        {
          "internalType": "address",
          "name": "account",
          "type": "address"
        }
      ],
      "name": "renounceRole",
      "outputs": [],
      "stateMutability": "nonpayable",
      "type": "function"
    },
    {
      "inputs": [
        {
          "internalType": "bytes32",
          "name": "role",
          "type": "bytes32"
        }
      ],
      "name": "renounceRole",
      "outputs": [],
      "stateMutability": "nonpayable",
      "type": "function"
    },
    {
      "inputs": [
        {
          "internalType": "address",
          "name": "_token",
          "type": "address"
        },
        {
          "internalType": "address",
          "name": "_spender",
          "type": "address"
        }
      ],
      "name": "revokeAllowance",
      "outputs": [],
      "stateMutability": "nonpayable",
      "type": "function"
    },
    {
      "inputs": [
        {
          "internalType": "bytes32",
          "name": "role",
          "type": "bytes32"
        },
        {
          "internalType": "address",
          "name": "account",
          "type": "address"
        }
      ],
      "name": "revokeRole",
      "outputs": [],
      "stateMutability": "nonpayable",
      "type": "function"
    },
    {
      "inputs": [
        {
          "internalType": "uint256",
          "name": "_estimate",
          "type": "uint256"
        }
      ],
      "name": "setSwapGasEstimate",
      "outputs": [],
      "stateMutability": "nonpayable",
      "type": "function"
    },
    {
      "inputs": [
        {
          "internalType": "bytes4",
          "name": "interfaceId",
          "type": "bytes4"
        }
      ],
      "name": "supportsInterface",
      "outputs": [
        {
          "internalType": "bool",
          "name": "",
          "type": "bool"
        }
      ],
      "stateMutability": "view",
      "type": "function"
    },
    {
      "inputs": [
        {
          "internalType": "uint256",
          "name": "_amountIn",
          "type": "uint256"
        },
        {
          "internalType": "uint256",
          "name": "_amountOut",
          "type": "uint256"
        },
        {
          "internalType": "address",
          "name": "_fromToken",
          "type": "address"
        },
        {
          "internalType": "address",
          "name": "_toToken",
          "type": "address"
        },
        {
          "internalType": "address",
          "name": "_to",
          "type": "address"
        }
      ],
      "name": "swap",
      "outputs": [],
      "stateMutability": "nonpayable",
      "type": "function"
    },
    {
      "inputs": [],
      "name": "swapGasEstimate",
      "outputs": [
        {
          "internalType": "uint256",
          "name": "",
          "type": "uint256"
        }
      ],
      "stateMutability": "view",
      "type": "function"
    },
    {
      "inputs": [
        {
          "internalType": "address",
          "name": "newOwner",
          "type": "address"
        }
      ],
      "name": "transferOwnership",
      "outputs": [],
      "stateMutability": "nonpayable",
      "type": "function"
    },
    {
      "stateMutability": "payable",
      "type": "receive"
    }
  ],
  "bytecode": {
    "object": "0x60806040523480156200001157600080fd5b5060405162001946380380620019468339810160408190526200003491620002f4565b60408051808201909152600c81526b2ba0bb30bc20b230b83a32b960a11b6020820152813362000066600082620000be565b620000927f339759585899103d2ace64958e37e18ccb0504652c81d4a1b8aa80fe2126ab9582620000be565b506200009e82620000ce565b620000a98162000133565b50620000b790508162000133565b506200047f565b620000ca828262000254565b5050565b8051600003620001255760405162461bcd60e51b815260206004820152601460248201527f496e76616c69642061646170746572206e616d6500000000000000000000000060448201526064015b60405180910390fd5b6002620000ca8282620003b3565b3360008181527fa54247010af6b3693b80aceddfad12e077c5de3571e6243fada502635f0d7d39602052604090205460ff16620001c45760405162461bcd60e51b815260206004820152602860248201527f4d61696e7461696e61626c653a2043616c6c6572206973206e6f742061206d6160448201526734b73a30b4b732b960c11b60648201526084016200011c565b81600003620002165760405162461bcd60e51b815260206004820152601460248201527f496e76616c6964206761732d657374696d61746500000000000000000000000060448201526064016200011c565b600182905560405182815230907ff43f23b7a28e6f8ce6843a21bd7b48bce778aa913b8c8cf459edf7d770e8d38a9060200160405180910390a25050565b6000828152602081815260408083206001600160a01b038516845290915290205460ff16620000ca576000828152602081815260408083206001600160a01b03851684529091529020805460ff19166001179055620002b03390565b6001600160a01b0316816001600160a01b0316837f2f8788117e7eff1d82e926ec794901d17c78024a50270940304540a733656f0d60405160405180910390a45050565b6000602082840312156200030757600080fd5b5051919050565b634e487b7160e01b600052604160045260246000fd5b600181811c908216806200033957607f821691505b6020821081036200035a57634e487b7160e01b600052602260045260246000fd5b50919050565b601f821115620003ae57600081815260208120601f850160051c81016020861015620003895750805b601f850160051c820191505b81811015620003aa5782815560010162000395565b5050505b505050565b81516001600160401b03811115620003cf57620003cf6200030e565b620003e781620003e0845462000324565b8462000360565b602080601f8311600181146200041f5760008415620004065750858301515b600019600386901b1c1916600185901b178555620003aa565b600085815260208120601f198616915b8281101562000450578886015182559484019460019091019084016200042f565b50858210156200046f5787850151600019600388901b60f8161c191681555b5050505050600190811b01905550565b6114b7806200048f6000396000f3fe6080604052600436106101235760003560e01c80638980f11f116100a0578063d8baf7cf11610064578063d8baf7cf14610331578063eab90da614610351578063ef99893a14610371578063f2fde38b14610391578063f8742254146103b157600080fd5b80638980f11f1461029c5780638bb9c5bf146102bc57806391d14854146102dc578063a217fddf146102fc578063d547741f1461031157600080fd5b80634ebb7916116100e75780634ebb79161461020657806369cff80d146102265780636b453c1f1461023c5780637ae267731461025c57806384a33e631461027c57600080fd5b806301ffc9a71461012f57806306fdde0314610164578063248a9ca3146101865780632f2ff15d146101c457806336568abe146101e657600080fd5b3661012a57005b600080fd5b34801561013b57600080fd5b5061014f61014a366004611099565b6103d3565b60405190151581526020015b60405180910390f35b34801561017057600080fd5b5061017961040a565b60405161015b91906110e7565b34801561019257600080fd5b506101b66101a136600461111a565b60009081526020819052604090206001015490565b60405190815260200161015b565b3480156101d057600080fd5b506101e46101df36600461114f565b610498565b005b3480156101f257600080fd5b506101e461020136600461114f565b6104c2565b34801561021257600080fd5b506101e461022136600461111a565b610545565b34801561023257600080fd5b506101b660015481565b34801561024857600080fd5b506101e461025736600461117b565b610633565b34801561026857600080fd5b506101e4610277366004611196565b61064e565b34801561028857600080fd5b506101e461029736600461111a565b610698565b3480156102a857600080fd5b506101e46102b73660046111c0565b61074b565b3480156102c857600080fd5b506101e46102d736600461111a565b61082c565b3480156102e857600080fd5b5061014f6102f736600461114f565b610837565b34801561030857600080fd5b506101b6600081565b34801561031d57600080fd5b506101e461032c36600461114f565b610860565b34801561033d57600080fd5b506101e461034c36600461117b565b610885565b34801561035d57600080fd5b506101e461036c3660046111ea565b61089d565b34801561037d57600080fd5b506101b661038c366004611241565b610a44565b34801561039d57600080fd5b506101e46103ac36600461117b565b610a5b565b3480156103bd57600080fd5b506101b660008051602061146283398151915281565b60006001600160e01b03198216637965db0b60e01b148061040457506301ffc9a760e01b6001600160e01b03198316145b92915050565b600280546104179061127d565b80601f01602080910402602001604051908101604052809291908181526020018280546104439061127d565b80156104905780601f1061046557610100808354040283529160200191610490565b820191906000526020600020905b81548152906001019060200180831161047357829003601f168201915b505050505081565b6000828152602081905260409020600101546104b381610a72565b6104bd8383610a7c565b505050565b6001600160a01b03811633146105375760405162461bcd60e51b815260206004820152602f60248201527f416363657373436f6e74726f6c3a2063616e206f6e6c792072656e6f756e636560448201526e103937b632b9903337b91039b2b63360891b60648201526084015b60405180910390fd5b6105418282610b00565b5050565b3361055e60008051602061146283398151915282610837565b61057a5760405162461bcd60e51b815260040161052e906112b7565b600082116105ca5760405162461bcd60e51b815260206004820152601e60248201527f59616b416461707465723a204e6f7468696e6720746f207265636f7665720000604482015260640161052e565b604051339083156108fc029084906000818181858888f193505050501580156105f7573d6000803e3d6000fd5b506040518281526000907f8c1256b8896378cd5044f80c202f9772b9d77dc85c8a6eb51967210b09bfaa28906020015b60405180910390a25050565b61064b60008051602061146283398151915282610498565b50565b3361066760008051602061146283398151915282610837565b6106835760405162461bcd60e51b815260040161052e906112b7565b6104bd6001600160a01b038416836000610b65565b336106b160008051602061146283398151915282610837565b6106cd5760405162461bcd60e51b815260040161052e906112b7565b816000036107145760405162461bcd60e51b8152602060048201526014602482015273496e76616c6964206761732d657374696d61746560601b604482015260640161052e565b600182905560405182815230907ff43f23b7a28e6f8ce6843a21bd7b48bce778aa913b8c8cf459edf7d770e8d38a90602001610627565b3361076460008051602061146283398151915282610837565b6107805760405162461bcd60e51b815260040161052e906112b7565b600082116107d05760405162461bcd60e51b815260206004820152601e60248201527f59616b416461707465723a204e6f7468696e6720746f207265636f7665720000604482015260640161052e565b6107e46001600160a01b0384163384610cad565b826001600160a01b03167f8c1256b8896378cd5044f80c202f9772b9d77dc85c8a6eb51967210b09bfaa288360405161081f91815260200190565b60405180910390a2505050565b3361054182826104c2565b6000918252602082815260408084206001600160a01b0393909316845291905290205460ff1690565b60008281526020819052604090206001015461087b81610a72565b6104bd8383610b00565b61064b60008051602061146283398151915282610860565b6040516370a0823160e01b81526001600160a01b038281166004830152600091908416906370a0823190602401602060405180830381865afa1580156108e7573d6000803e3d6000fd5b505050506040513d601f19601f8201168201806040525081019061090b91906112ff565b905061091a8686868686610cdd565b6040516370a0823160e01b81526001600160a01b03838116600483015260009183918616906370a0823190602401602060405180830381865afa158015610965573d6000803e3d6000fd5b505050506040513d601f19601f8201168201806040525081019061098991906112ff565b610993919061132e565b9050858110156109e55760405162461bcd60e51b815260206004820152601760248201527f496e73756666696369656e7420616d6f756e742d6f7574000000000000000000604482015260640161052e565b836001600160a01b0316856001600160a01b03167fe2bdbc6b7225eb0a972ac943c485a6cc05f7c6811838bce8903f23200fb744fa8989604051610a33929190918252602082015260400190565b60405180910390a350505050505050565b6000610a51848484610cef565b90505b9392505050565b33610a67600083610498565b6105416000826104c2565b61064b8133610d46565b610a868282610837565b610541576000828152602081815260408083206001600160a01b03851684529091529020805460ff19166001179055610abc3390565b6001600160a01b0316816001600160a01b0316837f2f8788117e7eff1d82e926ec794901d17c78024a50270940304540a733656f0d60405160405180910390a45050565b610b0a8282610837565b15610541576000828152602081815260408083206001600160a01b0385168085529252808320805460ff1916905551339285917ff6391f5c32d9c69d2a47ea670b442974b53935d1edc7fd64eb21e047a839171b9190a45050565b801580610bdf5750604051636eb1769f60e11b81523060048201526001600160a01b03838116602483015284169063dd62ed3e90604401602060405180830381865afa158015610bb9573d6000803e3d6000fd5b505050506040513d601f19601f82011682018060405250810190610bdd91906112ff565b155b610c4a5760405162461bcd60e51b815260206004820152603660248201527f5361666545524332303a20617070726f76652066726f6d206e6f6e2d7a65726f60448201527520746f206e6f6e2d7a65726f20616c6c6f77616e636560501b606482015260840161052e565b6040516001600160a01b0383166024820152604481018290526104bd90849063095ea7b360e01b906064015b60408051601f198184030181529190526020810180516001600160e01b03166001600160e01b031990931692909217909152610daa565b6040516001600160a01b0383166024820152604481018290526104bd90849063a9059cbb60e01b90606401610c76565b610ce8828583610ed9565b5050505050565b60006001600160a01b03831673b31f66aa3c1e785363f0875a1b74e27b85fd66c7148015610d3957506001600160a01b03821673b31f66aa3c1e785363f0875a1b74e27b85fd66c7145b15610a5457509192915050565b610d508282610837565b61054157610d68816001600160a01b03166014610efd565b610d73836020610efd565b604051602001610d84929190611341565b60408051601f198184030181529082905262461bcd60e51b825261052e916004016110e7565b600080836001600160a01b031683604051610dc591906113b6565b6000604051808303816000865af19150503d8060008114610e02576040519150601f19603f3d011682016040523d82523d6000602084013e610e07565b606091505b509150915081610e595760405162461bcd60e51b815260206004820181905260248201527f5361666545524332303a206c6f772d6c6576656c2063616c6c206661696c6564604482015260640161052e565b805115610ed35780806020019051810190610e7491906113d2565b610ed35760405162461bcd60e51b815260206004820152602a60248201527f5361666545524332303a204552433230206f7065726174696f6e20646964206e6044820152691bdd081cdd58d8d9595960b21b606482015260840161052e565b50505050565b306001600160a01b038216146104bd576104bd6001600160a01b0384168284610cad565b60606000610f0c8360026113f4565b610f1790600261140b565b67ffffffffffffffff811115610f2f57610f2f61141e565b6040519080825280601f01601f191660200182016040528015610f59576020820181803683370190505b509050600360fc1b81600081518110610f7457610f74611434565b60200101906001600160f81b031916908160001a905350600f60fb1b81600181518110610fa357610fa3611434565b60200101906001600160f81b031916908160001a9053506000610fc78460026113f4565b610fd290600161140b565b90505b600181111561104a576f181899199a1a9b1b9c1cb0b131b232b360811b85600f166010811061100657611006611434565b1a60f81b82828151811061101c5761101c611434565b60200101906001600160f81b031916908160001a90535060049490941c936110438161144a565b9050610fd5565b508315610a545760405162461bcd60e51b815260206004820181905260248201527f537472696e67733a20686578206c656e67746820696e73756666696369656e74604482015260640161052e565b6000602082840312156110ab57600080fd5b81356001600160e01b031981168114610a5457600080fd5b60005b838110156110de5781810151838201526020016110c6565b50506000910152565b60208152600082518060208401526111068160408501602087016110c3565b601f01601f19169190910160400192915050565b60006020828403121561112c57600080fd5b5035919050565b80356001600160a01b038116811461114a57600080fd5b919050565b6000806040838503121561116257600080fd5b8235915061117260208401611133565b90509250929050565b60006020828403121561118d57600080fd5b610a5482611133565b600080604083850312156111a957600080fd5b6111b283611133565b915061117260208401611133565b600080604083850312156111d357600080fd5b6111dc83611133565b946020939093013593505050565b600080600080600060a0868803121561120257600080fd5b853594506020860135935061121960408701611133565b925061122760608701611133565b915061123560808701611133565b90509295509295909350565b60008060006060848603121561125657600080fd5b8335925061126660208501611133565b915061127460408501611133565b90509250925092565b600181811c9082168061129157607f821691505b6020821081036112b157634e487b7160e01b600052602260045260246000fd5b50919050565b60208082526028908201527f4d61696e7461696e61626c653a2043616c6c6572206973206e6f742061206d6160408201526734b73a30b4b732b960c11b606082015260800190565b60006020828403121561131157600080fd5b5051919050565b634e487b7160e01b600052601160045260246000fd5b8181038181111561040457610404611318565b7f416363657373436f6e74726f6c3a206163636f756e74200000000000000000008152600083516113798160178501602088016110c3565b7001034b99036b4b9b9b4b733903937b6329607d1b60179184019182015283516113aa8160288401602088016110c3565b01602801949350505050565b600082516113c88184602087016110c3565b9190910192915050565b6000602082840312156113e457600080fd5b81518015158114610a5457600080fd5b808202811582820484141761040457610404611318565b8082018082111561040457610404611318565b634e487b7160e01b600052604160045260246000fd5b634e487b7160e01b600052603260045260246000fd5b60008161145957611459611318565b50600019019056fe339759585899103d2ace64958e37e18ccb0504652c81d4a1b8aa80fe2126ab95a26469706673582212205b4c512fa5547f9a2ae883e4682e3435563f40ecec98149acb45bf0b5414494364736f6c63430008110033",
    "linkReferences": {}
  },
  "methodIdentifiers": {
    "DEFAULT_ADMIN_ROLE()": "a217fddf",
    "MAINTAINER_ROLE()": "f8742254",
    "addMaintainer(address)": "6b453c1f",
    "getRoleAdmin(bytes32)": "248a9ca3",
    "grantRole(bytes32,address)": "2f2ff15d",
    "hasRole(bytes32,address)": "91d14854",
    "name()": "06fdde03",
    "query(uint256,address,address)": "ef99893a",
    "recoverAVAX(uint256)": "4ebb7916",
    "recoverERC20(address,uint256)": "8980f11f",
    "removeMaintainer(address)": "d8baf7cf",
    "renounceRole(bytes32)": "8bb9c5bf",
    "renounceRole(bytes32,address)": "36568abe",
    "revokeAllowance(address,address)": "7ae26773",
    "revokeRole(bytes32,address)": "d547741f",
    "setSwapGasEstimate(uint256)": "84a33e63",
    "supportsInterface(bytes4)": "01ffc9a7",
    "swap(uint256,uint256,address,address,address)": "eab90da6",
    "swapGasEstimate()": "69cff80d",
    "transferOwnership(address)": "f2fde38b"
  },
  "id": 39
}