{
  "abi": [
    {
      "anonymous": false,
      "inputs": [
        {
          "indexed": true,
          "internalType": "bytes32",
          "name": "role",
          "type": "bytes32"
        },
        {
          "indexed": true,
          "internalType": "bytes32",
          "name": "previousAdminRole",
          "type": "bytes32"
        },
        {
          "indexed": true,
          "internalType": "bytes32",
          "name": "newAdminRole",
          "type": "bytes32"
        }
      ],
      "name": "RoleAdminChanged",
      "type": "event"
    },
    {
      "anonymous": false,
      "inputs": [
        {
          "indexed": true,
          "internalType": "bytes32",
          "name": "role",
          "type": "bytes32"
        },
        {
          "indexed": true,
          "internalType": "address",
          "name": "account",
          "type": "address"
        },
        {
          "indexed": true,
          "internalType": "address",
          "name": "sender",
          "type": "address"
        }
      ],
      "name": "RoleGranted",
      "type": "event"
    },
    {
      "anonymous": false,
      "inputs": [
        {
          "indexed": true,
          "internalType": "bytes32",
          "name": "role",
          "type": "bytes32"
        },
        {
          "indexed": true,
          "internalType": "address",
          "name": "account",
          "type": "address"
        },
        {
          "indexed": true,
          "internalType": "address",
          "name": "sender",
          "type": "address"
        }
      ],
      "name": "RoleRevoked",
      "type": "event"
    },
    {
      "inputs": [],
      "name": "DEFAULT_ADMIN_ROLE",
      "outputs": [
        {
          "internalType": "bytes32",
          "name": "",
          "type": "bytes32"
        }
      ],
      "stateMutability": "view",
      "type": "function"
    },
    {
      "inputs": [],
      "name": "MAINTAINER_ROLE",
      "outputs": [
        {
          "internalType": "bytes32",
          "name": "",
          "type": "bytes32"
        }
      ],
      "stateMutability": "view",
      "type": "function"
    },
    {
      "inputs": [
        {
          "internalType": "address",
          "name": "addedMaintainer",
          "type": "address"
        }
      ],
      "name": "addMaintainer",
      "outputs": [],
      "stateMutability": "nonpayable",
      "type": "function"
    },
    {
      "inputs": [
        {
          "internalType": "bytes32",
          "name": "role",
          "type": "bytes32"
        }
      ],
      "name": "getRoleAdmin",
      "outputs": [
        {
          "internalType": "bytes32",
          "name": "",
          "type": "bytes32"
        }
      ],
      "stateMutability": "view",
      "type": "function"
    },
    {
      "inputs": [
        {
          "internalType": "bytes32",
          "name": "role",
          "type": "bytes32"
        },
        {
          "internalType": "address",
          "name": "account",
          "type": "address"
        }
      ],
      "name": "grantRole",
      "outputs": [],
      "stateMutability": "nonpayable",
      "type": "function"
    },
    {
      "inputs": [
        {
          "internalType": "bytes32",
          "name": "role",
          "type": "bytes32"
        },
        {
          "internalType": "address",
          "name": "account",
          "type": "address"
        }
      ],
      "name": "hasRole",
      "outputs": [
        {
          "internalType": "bool",
          "name": "",
          "type": "bool"
        }
      ],
      "stateMutability": "view",
      "type": "function"
    },
    {
      "inputs": [],
      "name": "onlyMaintainerFunction",
      "outputs": [],
      "stateMutability": "nonpayable",
      "type": "function"
    },
    {
      "inputs": [
        {
          "internalType": "address",
          "name": "removedMaintainer",
          "type": "address"
        }
      ],
      "name": "removeMaintainer",
      "outputs": [],
      "stateMutability": "nonpayable",
      "type": "function"
    },
    {
      "inputs": [
        {
          "internalType": "bytes32",
          "name": "role",
          "type": "bytes32"
        },
        {
          "internalType": "address",
          "name": "account",
          "type": "address"
        }
      ],
      "name": "renounceRole",
      "outputs": [],
      "stateMutability": "nonpayable",
      "type": "function"
    },
    {
      "inputs": [
        {
          "internalType": "bytes32",
          "name": "role",
          "type": "bytes32"
        }
      ],
      "name": "renounceRole",
      "outputs": [],
      "stateMutability": "nonpayable",
      "type": "function"
    },
    {
      "inputs": [
        {
          "internalType": "bytes32",
          "name": "role",
          "type": "bytes32"
        },
        {
          "internalType": "address",
          "name": "account",
          "type": "address"
        }
      ],
      "name": "revokeRole",
      "outputs": [],
      "stateMutability": "nonpayable",
      "type": "function"
    },
    {
      "inputs": [
        {
          "internalType": "bytes4",
          "name": "interfaceId",
          "type": "bytes4"
        }
      ],
      "name": "supportsInterface",
      "outputs": [
        {
          "internalType": "bool",
          "name": "",
          "type": "bool"
        }
      ],
      "stateMutability": "view",
      "type": "function"
    },
    {
      "inputs": [
        {
          "internalType": "address",
          "name": "newOwner",
          "type": "address"
        }
      ],
      "name": "transferOwnership",
      "outputs": [],
      "stateMutability": "nonpayable",
      "type": "function"
    }
  ],
  "bytecode": {
    "object": "0x608060405234801561001057600080fd5b503361001d60008261004d565b6100477f339759585899103d2ace64958e37e18ccb0504652c81d4a1b8aa80fe2126ab958261004d565b506100f9565b610057828261005b565b5050565b6000828152602081815260408083206001600160a01b038516845290915290205460ff16610057576000828152602081815260408083206001600160a01b03851684529091529020805460ff191660011790556100b53390565b6001600160a01b0316816001600160a01b0316837f2f8788117e7eff1d82e926ec794901d17c78024a50270940304540a733656f0d60405160405180910390a45050565b61092e806101086000396000f3fe608060405234801561001057600080fd5b50600436106100cf5760003560e01c806391d148541161008c578063d8baf7cf11610066578063d8baf7cf146101a9578063f2fde38b146101bc578063f8742254146101cf578063f9f0fdb7146101e457600080fd5b806391d148541461017b578063a217fddf1461018e578063d547741f1461019657600080fd5b806301ffc9a7146100d4578063248a9ca3146100fc5780632f2ff15d1461012d57806336568abe146101425780636b453c1f146101555780638bb9c5bf14610168575b600080fd5b6100e76100e23660046106e3565b6101ec565b60405190151581526020015b60405180910390f35b61011f61010a36600461070d565b60009081526020819052604090206001015490565b6040519081526020016100f3565b61014061013b366004610742565b610223565b005b610140610150366004610742565b61024d565b61014061016336600461076e565b6102d0565b61014061017636600461070d565b6102eb565b6100e7610189366004610742565b6102f6565b61011f600081565b6101406101a4366004610742565b61031f565b6101406101b736600461076e565b610344565b6101406101ca36600461076e565b61035c565b61011f6000805160206108d983398151915281565b610140610373565b60006001600160e01b03198216637965db0b60e01b148061021d57506301ffc9a760e01b6001600160e01b03198316145b92915050565b60008281526020819052604090206001015461023e816103e9565b61024883836103f3565b505050565b6001600160a01b03811633146102c25760405162461bcd60e51b815260206004820152602f60248201527f416363657373436f6e74726f6c3a2063616e206f6e6c792072656e6f756e636560448201526e103937b632b9903337b91039b2b63360891b60648201526084015b60405180910390fd5b6102cc8282610477565b5050565b6102e86000805160206108d983398151915282610223565b50565b336102cc828261024d565b6000918252602082815260408084206001600160a01b0393909316845291905290205460ff1690565b60008281526020819052604090206001015461033a816103e9565b6102488383610477565b6102e86000805160206108d98339815191528261031f565b33610368600083610223565b6102cc60008261024d565b3361038c6000805160206108d9833981519152826102f6565b6102e85760405162461bcd60e51b815260206004820152602860248201527f4d61696e7461696e61626c653a2043616c6c6572206973206e6f742061206d6160448201526734b73a30b4b732b960c11b60648201526084016102b9565b6102e881336104dc565b6103fd82826102f6565b6102cc576000828152602081815260408083206001600160a01b03851684529091529020805460ff191660011790556104333390565b6001600160a01b0316816001600160a01b0316837f2f8788117e7eff1d82e926ec794901d17c78024a50270940304540a733656f0d60405160405180910390a45050565b61048182826102f6565b156102cc576000828152602081815260408083206001600160a01b0385168085529252808320805460ff1916905551339285917ff6391f5c32d9c69d2a47ea670b442974b53935d1edc7fd64eb21e047a839171b9190a45050565b6104e682826102f6565b6102cc576104fe816001600160a01b03166014610540565b610509836020610540565b60405160200161051a9291906107ad565b60408051601f198184030181529082905262461bcd60e51b82526102b991600401610822565b6060600061054f83600261086b565b61055a906002610882565b67ffffffffffffffff81111561057257610572610895565b6040519080825280601f01601f19166020018201604052801561059c576020820181803683370190505b509050600360fc1b816000815181106105b7576105b76108ab565b60200101906001600160f81b031916908160001a905350600f60fb1b816001815181106105e6576105e66108ab565b60200101906001600160f81b031916908160001a905350600061060a84600261086b565b610615906001610882565b90505b600181111561068d576f181899199a1a9b1b9c1cb0b131b232b360811b85600f1660108110610649576106496108ab565b1a60f81b82828151811061065f5761065f6108ab565b60200101906001600160f81b031916908160001a90535060049490941c93610686816108c1565b9050610618565b5083156106dc5760405162461bcd60e51b815260206004820181905260248201527f537472696e67733a20686578206c656e67746820696e73756666696369656e7460448201526064016102b9565b9392505050565b6000602082840312156106f557600080fd5b81356001600160e01b0319811681146106dc57600080fd5b60006020828403121561071f57600080fd5b5035919050565b80356001600160a01b038116811461073d57600080fd5b919050565b6000806040838503121561075557600080fd5b8235915061076560208401610726565b90509250929050565b60006020828403121561078057600080fd5b6106dc82610726565b60005b838110156107a457818101518382015260200161078c565b50506000910152565b7f416363657373436f6e74726f6c3a206163636f756e74200000000000000000008152600083516107e5816017850160208801610789565b7001034b99036b4b9b9b4b733903937b6329607d1b6017918401918201528351610816816028840160208801610789565b01602801949350505050565b6020815260008251806020840152610841816040850160208701610789565b601f01601f19169190910160400192915050565b634e487b7160e01b600052601160045260246000fd5b808202811582820484141761021d5761021d610855565b8082018082111561021d5761021d610855565b634e487b7160e01b600052604160045260246000fd5b634e487b7160e01b600052603260045260246000fd5b6000816108d0576108d0610855565b50600019019056fe339759585899103d2ace64958e37e18ccb0504652c81d4a1b8aa80fe2126ab95a26469706673582212201910ba3af9c757e522e844dabd8b2b2e6cc5013d00320b8c6dd07bc416a7278d64736f6c63430008110033",
    "linkReferences": {}
  },
  "methodIdentifiers": {
    "DEFAULT_ADMIN_ROLE()": "a217fddf",
    "MAINTAINER_ROLE()": "f8742254",
    "addMaintainer(address)": "6b453c1f",
    "getRoleAdmin(bytes32)": "248a9ca3",
    "grantRole(bytes32,address)": "2f2ff15d",
    "hasRole(bytes32,address)": "91d14854",
    "onlyMaintainerFunction()": "f9f0fdb7",
    "removeMaintainer(address)": "d8baf7cf",
    "renounceRole(bytes32)": "8bb9c5bf",
    "renounceRole(bytes32,address)": "36568abe",
    "revokeRole(bytes32,address)": "d547741f",
    "supportsInterface(bytes4)": "01ffc9a7",
    "transferOwnership(address)": "f2fde38b"
  },
  "id": 82
}