{
  "abi": [
    {
      "inputs": [
        {
          "internalType": "string",
          "name": "_name",
          "type": "string"
        },
        {
          "internalType": "uint256",
          "name": "_swapGasEstimate",
          "type": "uint256"
        },
        {
          "internalType": "address",
          "name": "_metaPool",
          "type": "address"
        },
        {
          "internalType": "address",
          "name": "_basePool",
          "type": "address"
        },
        {
          "internalType": "address",
          "name": "_swapper",
          "type": "address"
        }
      ],
      "stateMutability": "nonpayable",
      "type": "constructor"
    },
    {
      "anonymous": false,
      "inputs": [
        {
          "indexed": true,
          "internalType": "address",
          "name": "_asset",
          "type": "address"
        },
        {
          "indexed": false,
          "internalType": "uint256",
          "name": "amount",
          "type": "uint256"
        }
      ],
      "name": "Recovered",
      "type": "event"
    },
    {
      "anonymous": false,
      "inputs": [
        {
          "indexed": true,
          "internalType": "bytes32",
          "name": "role",
          "type": "bytes32"
        },
        {
          "indexed": true,
          "internalType": "bytes32",
          "name": "previousAdminRole",
          "type": "bytes32"
        },
        {
          "indexed": true,
          "internalType": "bytes32",
          "name": "newAdminRole",
          "type": "bytes32"
        }
      ],
      "name": "RoleAdminChanged",
      "type": "event"
    },
    {
      "anonymous": false,
      "inputs": [
        {
          "indexed": true,
          "internalType": "bytes32",
          "name": "role",
          "type": "bytes32"
        },
        {
          "indexed": true,
          "internalType": "address",
          "name": "account",
          "type": "address"
        },
        {
          "indexed": true,
          "internalType": "address",
          "name": "sender",
          "type": "address"
        }
      ],
      "name": "RoleGranted",
      "type": "event"
    },
    {
      "anonymous": false,
      "inputs": [
        {
          "indexed": true,
          "internalType": "bytes32",
          "name": "role",
          "type": "bytes32"
        },
        {
          "indexed": true,
          "internalType": "address",
          "name": "account",
          "type": "address"
        },
        {
          "indexed": true,
          "internalType": "address",
          "name": "sender",
          "type": "address"
        }
      ],
      "name": "RoleRevoked",
      "type": "event"
    },
    {
      "anonymous": false,
      "inputs": [
        {
          "indexed": true,
          "internalType": "address",
          "name": "_adapter",
          "type": "address"
        },
        {
          "indexed": false,
          "internalType": "uint256",
          "name": "_newEstimate",
          "type": "uint256"
        }
      ],
      "name": "UpdatedGasEstimate",
      "type": "event"
    },
    {
      "anonymous": false,
      "inputs": [
        {
          "indexed": true,
          "internalType": "address",
          "name": "_tokenFrom",
          "type": "address"
        },
        {
          "indexed": true,
          "internalType": "address",
          "name": "_tokenTo",
          "type": "address"
        },
        {
          "indexed": false,
          "internalType": "uint256",
          "name": "_amountIn",
          "type": "uint256"
        },
        {
          "indexed": false,
          "internalType": "uint256",
          "name": "_amountOut",
          "type": "uint256"
        }
      ],
      "name": "YakAdapterSwap",
      "type": "event"
    },
    {
      "inputs": [],
      "name": "DEFAULT_ADMIN_ROLE",
      "outputs": [
        {
          "internalType": "bytes32",
          "name": "",
          "type": "bytes32"
        }
      ],
      "stateMutability": "view",
      "type": "function"
    },
    {
      "inputs": [],
      "name": "MAINTAINER_ROLE",
      "outputs": [
        {
          "internalType": "bytes32",
          "name": "",
          "type": "bytes32"
        }
      ],
      "stateMutability": "view",
      "type": "function"
    },
    {
      "inputs": [
        {
          "internalType": "address",
          "name": "addedMaintainer",
          "type": "address"
        }
      ],
      "name": "addMaintainer",
      "outputs": [],
      "stateMutability": "nonpayable",
      "type": "function"
    },
    {
      "inputs": [],
      "name": "basePool",
      "outputs": [
        {
          "internalType": "address",
          "name": "",
          "type": "address"
        }
      ],
      "stateMutability": "view",
      "type": "function"
    },
    {
      "inputs": [
        {
          "internalType": "bytes32",
          "name": "role",
          "type": "bytes32"
        }
      ],
      "name": "getRoleAdmin",
      "outputs": [
        {
          "internalType": "bytes32",
          "name": "",
          "type": "bytes32"
        }
      ],
      "stateMutability": "view",
      "type": "function"
    },
    {
      "inputs": [
        {
          "internalType": "bytes32",
          "name": "role",
          "type": "bytes32"
        },
        {
          "internalType": "address",
          "name": "account",
          "type": "address"
        }
      ],
      "name": "grantRole",
      "outputs": [],
      "stateMutability": "nonpayable",
      "type": "function"
    },
    {
      "inputs": [
        {
          "internalType": "bytes32",
          "name": "role",
          "type": "bytes32"
        },
        {
          "internalType": "address",
          "name": "account",
          "type": "address"
        }
      ],
      "name": "hasRole",
      "outputs": [
        {
          "internalType": "bool",
          "name": "",
          "type": "bool"
        }
      ],
      "stateMutability": "view",
      "type": "function"
    },
    {
      "inputs": [
        {
          "internalType": "address",
          "name": "",
          "type": "address"
        }
      ],
      "name": "isPoolToken",
      "outputs": [
        {
          "internalType": "bool",
          "name": "",
          "type": "bool"
        }
      ],
      "stateMutability": "view",
      "type": "function"
    },
    {
      "inputs": [],
      "name": "metaPool",
      "outputs": [
        {
          "internalType": "address",
          "name": "",
          "type": "address"
        }
      ],
      "stateMutability": "view",
      "type": "function"
    },
    {
      "inputs": [],
      "name": "metaTkn",
      "outputs": [
        {
          "internalType": "address",
          "name": "",
          "type": "address"
        }
      ],
      "stateMutability": "view",
      "type": "function"
    },
    {
      "inputs": [],
      "name": "name",
      "outputs": [
        {
          "internalType": "string",
          "name": "",
          "type": "string"
        }
      ],
      "stateMutability": "view",
      "type": "function"
    },
    {
      "inputs": [
        {
          "internalType": "uint256",
          "name": "_amountIn",
          "type": "uint256"
        },
        {
          "internalType": "address",
          "name": "_tokenIn",
          "type": "address"
        },
        {
          "internalType": "address",
          "name": "_tokenOut",
          "type": "address"
        }
      ],
      "name": "query",
      "outputs": [
        {
          "internalType": "uint256",
          "name": "",
          "type": "uint256"
        }
      ],
      "stateMutability": "view",
      "type": "function"
    },
    {
      "inputs": [
        {
          "internalType": "uint256",
          "name": "_amount",
          "type": "uint256"
        }
      ],
      "name": "recoverAVAX",
      "outputs": [],
      "stateMutability": "nonpayable",
      "type": "function"
    },
    {
      "inputs": [
        {
          "internalType": "address",
          "name": "_tokenAddress",
          "type": "address"
        },
        {
          "internalType": "uint256",
          "name": "_tokenAmount",
          "type": "uint256"
        }
      ],
      "name": "recoverERC20",
      "outputs": [],
      "stateMutability": "nonpayable",
      "type": "function"
    },
    {
      "inputs": [
        {
          "internalType": "address",
          "name": "removedMaintainer",
          "type": "address"
        }
      ],
      "name": "removeMaintainer",
      "outputs": [],
      "stateMutability": "nonpayable",
      "type": "function"
    },
    {
      "inputs": [
        {
          "internalType": "bytes32",
          "name": "role",
          "type": "bytes32"
        },
        {
          "internalType": "address",
          "name": "account",
          "type": "address"
        }
      ],
      "name": "renounceRole",
      "outputs": [],
      "stateMutability": "nonpayable",
      "type": "function"
    },
    {
      "inputs": [
        {
          "internalType": "bytes32",
          "name": "role",
          "type": "bytes32"
        }
      ],
      "name": "renounceRole",
      "outputs": [],
      "stateMutability": "nonpayable",
      "type": "function"
    },
    {
      "inputs": [
        {
          "internalType": "address",
          "name": "_token",
          "type": "address"
        },
        {
          "internalType": "address",
          "name": "_spender",
          "type": "address"
        }
      ],
      "name": "revokeAllowance",
      "outputs": [],
      "stateMutability": "nonpayable",
      "type": "function"
    },
    {
      "inputs": [
        {
          "internalType": "bytes32",
          "name": "role",
          "type": "bytes32"
        },
        {
          "internalType": "address",
          "name": "account",
          "type": "address"
        }
      ],
      "name": "revokeRole",
      "outputs": [],
      "stateMutability": "nonpayable",
      "type": "function"
    },
    {
      "inputs": [
        {
          "internalType": "uint256",
          "name": "_estimate",
          "type": "uint256"
        }
      ],
      "name": "setSwapGasEstimate",
      "outputs": [],
      "stateMutability": "nonpayable",
      "type": "function"
    },
    {
      "inputs": [
        {
          "internalType": "bytes4",
          "name": "interfaceId",
          "type": "bytes4"
        }
      ],
      "name": "supportsInterface",
      "outputs": [
        {
          "internalType": "bool",
          "name": "",
          "type": "bool"
        }
      ],
      "stateMutability": "view",
      "type": "function"
    },
    {
      "inputs": [
        {
          "internalType": "uint256",
          "name": "_amountIn",
          "type": "uint256"
        },
        {
          "internalType": "uint256",
          "name": "_amountOut",
          "type": "uint256"
        },
        {
          "internalType": "address",
          "name": "_fromToken",
          "type": "address"
        },
        {
          "internalType": "address",
          "name": "_toToken",
          "type": "address"
        },
        {
          "internalType": "address",
          "name": "_to",
          "type": "address"
        }
      ],
      "name": "swap",
      "outputs": [],
      "stateMutability": "nonpayable",
      "type": "function"
    },
    {
      "inputs": [],
      "name": "swapGasEstimate",
      "outputs": [
        {
          "internalType": "uint256",
          "name": "",
          "type": "uint256"
        }
      ],
      "stateMutability": "view",
      "type": "function"
    },
    {
      "inputs": [],
      "name": "swapper",
      "outputs": [
        {
          "internalType": "address",
          "name": "",
          "type": "address"
        }
      ],
      "stateMutability": "view",
      "type": "function"
    },
    {
      "inputs": [
        {
          "internalType": "address",
          "name": "",
          "type": "address"
        }
      ],
      "name": "tokenIndex",
      "outputs": [
        {
          "internalType": "int128",
          "name": "",
          "type": "int128"
        }
      ],
      "stateMutability": "view",
      "type": "function"
    },
    {
      "inputs": [
        {
          "internalType": "address",
          "name": "newOwner",
          "type": "address"
        }
      ],
      "name": "transferOwnership",
      "outputs": [],
      "stateMutability": "nonpayable",
      "type": "function"
    },
    {
      "stateMutability": "payable",
      "type": "receive"
    }
  ],
  "bytecode": {
    "object": "0x6101006040523480156200001257600080fd5b50604051620022ac380380620022ac833981016040819052620000359162000554565b84843362000045600082620000bc565b620000606000805160206200228c83398151915282620000bc565b506200006c82620000cc565b620000778162000131565b5062000086905083826200023c565b6001600160a01b0390811660e05283811660805282811660a052811660c052620000b18282620002fa565b505050505062000870565b620000c88282620003f7565b5050565b8051600003620001235760405162461bcd60e51b815260206004820152601460248201527f496e76616c69642061646170746572206e616d6500000000000000000000000060448201526064015b60405180910390fd5b6002620000c88282620006f9565b336200014d6000805160206200228c833981519152826200047f565b620001ac5760405162461bcd60e51b815260206004820152602860248201527f4d61696e7461696e61626c653a2043616c6c6572206973206e6f742061206d6160448201526734b73a30b4b732b960c11b60648201526084016200011a565b81600003620001fe5760405162461bcd60e51b815260206004820152601460248201527f496e76616c6964206761732d657374696d61746500000000000000000000000060448201526064016200011a565b600182905560405182815230907ff43f23b7a28e6f8ce6843a21bd7b48bce778aa913b8c8cf459edf7d770e8d38a9060200160405180910390a25050565b60405163c661065760e01b8152600060048201819052906001600160a01b0384169063c661065790602401602060405180830381865afa15801562000285573d6000803e3d6000fd5b505050506040513d601f19601f82011682018060405250810190620002ab9190620007c5565b9050620002b98183620004aa565b6001600160a01b0381166000908152600460209081526040808320805460ff191660011790556003909152902080546001600160801b031916905592915050565b60005b604051630b9947eb60e41b8152600481018290526001600160a01b0384169063b9947eb090602401602060405180830381865afa92505050801562000361575060408051601f3d908101601f191682019092526200035e91810190620007c5565b60015b15620003f257620003738184620004aa565b6001600160a01b0381166000908152600460205260409020805460ff19166001908117909155620003a690839062000800565b6001600160a01b0391909116600090815260036020526040902080546001600160801b0319166001600160801b0390921691909117905580620003e98162000830565b915050620002fd565b505050565b6200040382826200047f565b620000c8576000828152602081815260408083206001600160a01b03851684529091529020805460ff191660011790556200043b3390565b6001600160a01b0316816001600160a01b0316837f2f8788117e7eff1d82e926ec794901d17c78024a50270940304540a733656f0d60405160405180910390a45050565b6000828152602081815260408083206001600160a01b038516845290915290205460ff165b92915050565b60405163095ea7b360e01b81526001600160a01b038281166004830152600019602483015283169063095ea7b3906044016020604051808303816000875af1158015620004fb573d6000803e3d6000fd5b505050506040513d601f19601f82011682018060405250810190620003f291906200084c565b634e487b7160e01b600052604160045260246000fd5b80516001600160a01b03811681146200054f57600080fd5b919050565b600080600080600060a086880312156200056d57600080fd5b85516001600160401b03808211156200058557600080fd5b818801915088601f8301126200059a57600080fd5b815181811115620005af57620005af62000521565b604051601f8201601f19908116603f01168101908382118183101715620005da57620005da62000521565b81604052828152602093508b84848701011115620005f757600080fd5b600091505b828210156200061b5784820184015181830185015290830190620005fc565b600084848301015280995050505080880151955050506200063f6040870162000537565b92506200064f6060870162000537565b91506200065f6080870162000537565b90509295509295909350565b600181811c908216806200068057607f821691505b602082108103620006a157634e487b7160e01b600052602260045260246000fd5b50919050565b601f821115620003f257600081815260208120601f850160051c81016020861015620006d05750805b601f850160051c820191505b81811015620006f157828155600101620006dc565b505050505050565b81516001600160401b0381111562000715576200071562000521565b6200072d816200072684546200066b565b84620006a7565b602080601f8311600181146200076557600084156200074c5750858301515b600019600386901b1c1916600185901b178555620006f1565b600085815260208120601f198616915b82811015620007965788860151825594840194600190910190840162000775565b5085821015620007b55787850151600019600388901b60f8161c191681555b5050505050600190811b01905550565b600060208284031215620007d857600080fd5b620007e38262000537565b9392505050565b634e487b7160e01b600052601160045260246000fd5b600f81810b9083900b0160016001607f1b03811360016001607f1b031982121715620004a457620004a4620007ea565b600060018201620008455762000845620007ea565b5060010190565b6000602082840312156200085f57600080fd5b81518015158114620007e357600080fd5b60805160a05160c05160e0516119bf620008cd6000396000818161054c015281816114c601526115250152600081816102380152610f0f0152600061044801526000818161032901528181610ec6015261109b01526119bf6000f3fe6080604052600436106101855760003560e01c80638980f11f116100d1578063d8baf7cf1161008a578063ef99893a11610064578063ef99893a146104fa578063f2fde38b1461051a578063f45dc4781461053a578063f87422541461056e57600080fd5b8063d8baf7cf1461048a578063de260f37146104aa578063eab90da6146104da57600080fd5b80638980f11f146103c15780638bb9c5bf146103e157806391d1485414610401578063a217fddf14610421578063c531e24f14610436578063d547741f1461046a57600080fd5b8063427f91a61161013e57806369cff80d1161011857806369cff80d1461034b5780636b453c1f146103615780637ae267731461038157806384a33e63146103a157600080fd5b8063427f91a6146102b45780634ebb7916146102f75780635acb5da91461031757600080fd5b806301ffc9a71461019157806306fdde03146101c6578063248a9ca3146101e85780632b3297f9146102265780632f2ff15d1461027257806336568abe1461029457600080fd5b3661018c57005b600080fd5b34801561019d57600080fd5b506101b16101ac36600461157f565b610590565b60405190151581526020015b60405180910390f35b3480156101d257600080fd5b506101db6105c7565b6040516101bd91906115cd565b3480156101f457600080fd5b50610218610203366004611600565b60009081526020819052604090206001015490565b6040519081526020016101bd565b34801561023257600080fd5b5061025a7f000000000000000000000000000000000000000000000000000000000000000081565b6040516001600160a01b0390911681526020016101bd565b34801561027e57600080fd5b5061029261028d366004611635565b610655565b005b3480156102a057600080fd5b506102926102af366004611635565b61067f565b3480156102c057600080fd5b506102e46102cf366004611661565b600360205260009081526040902054600f0b81565b604051600f9190910b81526020016101bd565b34801561030357600080fd5b50610292610312366004611600565b610702565b34801561032357600080fd5b5061025a7f000000000000000000000000000000000000000000000000000000000000000081565b34801561035757600080fd5b5061021860015481565b34801561036d57600080fd5b5061029261037c366004611661565b6107f0565b34801561038d57600080fd5b5061029261039c36600461167c565b61080b565b3480156103ad57600080fd5b506102926103bc366004611600565b610855565b3480156103cd57600080fd5b506102926103dc3660046116a6565b610908565b3480156103ed57600080fd5b506102926103fc366004611600565b6109e9565b34801561040d57600080fd5b506101b161041c366004611635565b6109f4565b34801561042d57600080fd5b50610218600081565b34801561044257600080fd5b5061025a7f000000000000000000000000000000000000000000000000000000000000000081565b34801561047657600080fd5b50610292610485366004611635565b610a1d565b34801561049657600080fd5b506102926104a5366004611661565b610a42565b3480156104b657600080fd5b506101b16104c5366004611661565b60046020526000908152604090205460ff1681565b3480156104e657600080fd5b506102926104f53660046116d0565b610a5a565b34801561050657600080fd5b50610218610515366004611727565b610bfb565b34801561052657600080fd5b50610292610535366004611661565b610c12565b34801561054657600080fd5b5061025a7f000000000000000000000000000000000000000000000000000000000000000081565b34801561057a57600080fd5b5061021860008051602061196a83398151915281565b60006001600160e01b03198216637965db0b60e01b14806105c157506301ffc9a760e01b6001600160e01b03198316145b92915050565b600280546105d490611763565b80601f016020809104026020016040519081016040528092919081815260200182805461060090611763565b801561064d5780601f106106225761010080835404028352916020019161064d565b820191906000526020600020905b81548152906001019060200180831161063057829003601f168201915b505050505081565b60008281526020819052604090206001015461067081610c29565b61067a8383610c33565b505050565b6001600160a01b03811633146106f45760405162461bcd60e51b815260206004820152602f60248201527f416363657373436f6e74726f6c3a2063616e206f6e6c792072656e6f756e636560448201526e103937b632b9903337b91039b2b63360891b60648201526084015b60405180910390fd5b6106fe8282610cb7565b5050565b3361071b60008051602061196a833981519152826109f4565b6107375760405162461bcd60e51b81526004016106eb9061179d565b600082116107875760405162461bcd60e51b815260206004820152601e60248201527f59616b416461707465723a204e6f7468696e6720746f207265636f766572000060448201526064016106eb565b604051339083156108fc029084906000818181858888f193505050501580156107b4573d6000803e3d6000fd5b506040518281526000907f8c1256b8896378cd5044f80c202f9772b9d77dc85c8a6eb51967210b09bfaa28906020015b60405180910390a25050565b61080860008051602061196a83398151915282610655565b50565b3361082460008051602061196a833981519152826109f4565b6108405760405162461bcd60e51b81526004016106eb9061179d565b61067a6001600160a01b038416836000610d1c565b3361086e60008051602061196a833981519152826109f4565b61088a5760405162461bcd60e51b81526004016106eb9061179d565b816000036108d15760405162461bcd60e51b8152602060048201526014602482015273496e76616c6964206761732d657374696d61746560601b60448201526064016106eb565b600182905560405182815230907ff43f23b7a28e6f8ce6843a21bd7b48bce778aa913b8c8cf459edf7d770e8d38a906020016107e4565b3361092160008051602061196a833981519152826109f4565b61093d5760405162461bcd60e51b81526004016106eb9061179d565b6000821161098d5760405162461bcd60e51b815260206004820152601e60248201527f59616b416461707465723a204e6f7468696e6720746f207265636f766572000060448201526064016106eb565b6109a16001600160a01b0384163384610e64565b826001600160a01b03167f8c1256b8896378cd5044f80c202f9772b9d77dc85c8a6eb51967210b09bfaa28836040516109dc91815260200190565b60405180910390a2505050565b336106fe828261067f565b6000918252602082815260408084206001600160a01b0393909316845291905290205460ff1690565b600082815260208190526040902060010154610a3881610c29565b61067a8383610cb7565b61080860008051602061196a83398151915282610a1d565b6040516370a0823160e01b81526001600160a01b038281166004830152600091908416906370a0823190602401602060405180830381865afa158015610aa4573d6000803e3d6000fd5b505050506040513d601f19601f82011682018060405250810190610ac891906117e5565b9050610ad78686868686610e94565b6040516370a0823160e01b81526001600160a01b03838116600483015260009183918616906370a0823190602401602060405180830381865afa158015610b22573d6000803e3d6000fd5b505050506040513d601f19601f82011682018060405250810190610b4691906117e5565b610b509190611814565b905085811015610b9c5760405162461bcd60e51b8152602060048201526017602482015276125b9cdd59999a58da595b9d08185b5bdd5b9d0b5bdd5d604a1b60448201526064016106eb565b836001600160a01b0316856001600160a01b03167fe2bdbc6b7225eb0a972ac943c485a6cc05f7c6811838bce8903f23200fb744fa8989604051610bea929190918252602082015260400190565b60405180910390a350505050505050565b6000610c08848484611037565b90505b9392505050565b33610c1e600083610655565b6106fe60008261067f565b610808813361113b565b610c3d82826109f4565b6106fe576000828152602081815260408083206001600160a01b03851684529091529020805460ff19166001179055610c733390565b6001600160a01b0316816001600160a01b0316837f2f8788117e7eff1d82e926ec794901d17c78024a50270940304540a733656f0d60405160405180910390a45050565b610cc182826109f4565b156106fe576000828152602081815260408083206001600160a01b0385168085529252808320805460ff1916905551339285917ff6391f5c32d9c69d2a47ea670b442974b53935d1edc7fd64eb21e047a839171b9190a45050565b801580610d965750604051636eb1769f60e11b81523060048201526001600160a01b03838116602483015284169063dd62ed3e90604401602060405180830381865afa158015610d70573d6000803e3d6000fd5b505050506040513d601f19601f82011682018060405250810190610d9491906117e5565b155b610e015760405162461bcd60e51b815260206004820152603660248201527f5361666545524332303a20617070726f76652066726f6d206e6f6e2d7a65726f60448201527520746f206e6f6e2d7a65726f20616c6c6f77616e636560501b60648201526084016106eb565b6040516001600160a01b03831660248201526044810182905261067a90849063095ea7b360e01b906064015b60408051601f198184030181529190526020810180516001600160e01b03166001600160e01b03199093169290921790915261119f565b6040516001600160a01b03831660248201526044810182905261067a90849063a9059cbb60e01b90606401610e2d565b6001600160a01b03838116600090815260036020526040808220548584168352818320549151633cc0e21f60e11b81527f000000000000000000000000000000000000000000000000000000000000000085166004820152600f91820b602482015291900b60448201526064810188905260848101919091527f000000000000000000000000000000000000000000000000000000000000000090911690637981c43e9060a401600060405180830381600087803b158015610f5557600080fd5b505af1158015610f69573d6000803e3d6000fd5b50506040516370a0823160e01b8152306004820152600092506001600160a01b03851691506370a0823190602401602060405180830381865afa158015610fb4573d6000803e3d6000fd5b505050506040513d601f19601f82011682018060405250810190610fd891906117e5565b9050848110156110245760405162461bcd60e51b8152602060048201526017602482015276125b9cdd59999a58da595b9d08185b5bdd5b9d0b5bdd5d604a1b60448201526064016106eb565b61102f8382846112ce565b505050505050565b60006110448484846112f2565b61105057506000610c0b565b6001600160a01b03838116600090815260036020526040808220548584168352918190205490516307211ef760e01b8152600f92830b6004820152910b6024820152604481018690527f0000000000000000000000000000000000000000000000000000000000000000909116906307211ef790606401602060405180830381865afa925050508015611100575060408051601f3d908101601f191682019092526110fd918101906117e5565b60015b61110c57506000610c0b565b8015611130576127106111218261270c611827565b61112b919061183e565b611133565b60005b915050610c0b565b61114582826109f4565b6106fe5761115d816001600160a01b03166014611326565b611168836020611326565b604051602001611179929190611860565b60408051601f198184030181529082905262461bcd60e51b82526106eb916004016115cd565b600080836001600160a01b0316836040516111ba91906118d5565b6000604051808303816000865af19150503d80600081146111f7576040519150601f19603f3d011682016040523d82523d6000602084013e6111fc565b606091505b50915091508161124e5760405162461bcd60e51b815260206004820181905260248201527f5361666545524332303a206c6f772d6c6576656c2063616c6c206661696c656460448201526064016106eb565b8051156112c8578080602001905181019061126991906118f1565b6112c85760405162461bcd60e51b815260206004820152602a60248201527f5361666545524332303a204552433230206f7065726174696f6e20646964206e6044820152691bdd081cdd58d8d9595960b21b60648201526084016106eb565b50505050565b306001600160a01b0382161461067a5761067a6001600160a01b0384168284610e64565b600083158015906113155750816001600160a01b0316836001600160a01b031614155b8015610c085750610c0883836114c2565b60606000611335836002611827565b611340906002611913565b67ffffffffffffffff81111561135857611358611926565b6040519080825280601f01601f191660200182016040528015611382576020820181803683370190505b509050600360fc1b8160008151811061139d5761139d61193c565b60200101906001600160f81b031916908160001a905350600f60fb1b816001815181106113cc576113cc61193c565b60200101906001600160f81b031916908160001a90535060006113f0846002611827565b6113fb906001611913565b90505b6001811115611473576f181899199a1a9b1b9c1cb0b131b232b360811b85600f166010811061142f5761142f61193c565b1a60f81b8282815181106114455761144561193c565b60200101906001600160f81b031916908160001a90535060049490941c9361146c81611952565b90506113fe565b508315610c0b5760405162461bcd60e51b815260206004820181905260248201527f537472696e67733a20686578206c656e67746820696e73756666696369656e7460448201526064016106eb565b60007f00000000000000000000000000000000000000000000000000000000000000006001600160a01b0316836001600160a01b031614801561151d57506001600160a01b03821660009081526004602052604090205460ff165b80610c0b57507f00000000000000000000000000000000000000000000000000000000000000006001600160a01b0316826001600160a01b0316148015610c0b575050506001600160a01b031660009081526004602052604090205460ff1690565b60006020828403121561159157600080fd5b81356001600160e01b031981168114610c0b57600080fd5b60005b838110156115c45781810151838201526020016115ac565b50506000910152565b60208152600082518060208401526115ec8160408501602087016115a9565b601f01601f19169190910160400192915050565b60006020828403121561161257600080fd5b5035919050565b80356001600160a01b038116811461163057600080fd5b919050565b6000806040838503121561164857600080fd5b8235915061165860208401611619565b90509250929050565b60006020828403121561167357600080fd5b610c0b82611619565b6000806040838503121561168f57600080fd5b61169883611619565b915061165860208401611619565b600080604083850312156116b957600080fd5b6116c283611619565b946020939093013593505050565b600080600080600060a086880312156116e857600080fd5b85359450602086013593506116ff60408701611619565b925061170d60608701611619565b915061171b60808701611619565b90509295509295909350565b60008060006060848603121561173c57600080fd5b8335925061174c60208501611619565b915061175a60408501611619565b90509250925092565b600181811c9082168061177757607f821691505b60208210810361179757634e487b7160e01b600052602260045260246000fd5b50919050565b60208082526028908201527f4d61696e7461696e61626c653a2043616c6c6572206973206e6f742061206d6160408201526734b73a30b4b732b960c11b606082015260800190565b6000602082840312156117f757600080fd5b5051919050565b634e487b7160e01b600052601160045260246000fd5b818103818111156105c1576105c16117fe565b80820281158282048414176105c1576105c16117fe565b60008261185b57634e487b7160e01b600052601260045260246000fd5b500490565b7f416363657373436f6e74726f6c3a206163636f756e74200000000000000000008152600083516118988160178501602088016115a9565b7001034b99036b4b9b9b4b733903937b6329607d1b60179184019182015283516118c98160288401602088016115a9565b01602801949350505050565b600082516118e78184602087016115a9565b9190910192915050565b60006020828403121561190357600080fd5b81518015158114610c0b57600080fd5b808201808211156105c1576105c16117fe565b634e487b7160e01b600052604160045260246000fd5b634e487b7160e01b600052603260045260246000fd5b600081611961576119616117fe565b50600019019056fe339759585899103d2ace64958e37e18ccb0504652c81d4a1b8aa80fe2126ab95a2646970667358221220af3d49c0b6bc9971e64c3febb132c7755702fdd6344d987ef489e4954941ded864736f6c63430008110033339759585899103d2ace64958e37e18ccb0504652c81d4a1b8aa80fe2126ab95",
    "linkReferences": {}
  },
  "methodIdentifiers": {
    "DEFAULT_ADMIN_ROLE()": "a217fddf",
    "MAINTAINER_ROLE()": "f8742254",
    "addMaintainer(address)": "6b453c1f",
    "basePool()": "c531e24f",
    "getRoleAdmin(bytes32)": "248a9ca3",
    "grantRole(bytes32,address)": "2f2ff15d",
    "hasRole(bytes32,address)": "91d14854",
    "isPoolToken(address)": "de260f37",
    "metaPool()": "5acb5da9",
    "metaTkn()": "f45dc478",
    "name()": "06fdde03",
    "query(uint256,address,address)": "ef99893a",
    "recoverAVAX(uint256)": "4ebb7916",
    "recoverERC20(address,uint256)": "8980f11f",
    "removeMaintainer(address)": "d8baf7cf",
    "renounceRole(bytes32)": "8bb9c5bf",
    "renounceRole(bytes32,address)": "36568abe",
    "revokeAllowance(address,address)": "7ae26773",
    "revokeRole(bytes32,address)": "d547741f",
    "setSwapGasEstimate(uint256)": "84a33e63",
    "supportsInterface(bytes4)": "01ffc9a7",
    "swap(uint256,uint256,address,address,address)": "eab90da6",
    "swapGasEstimate()": "69cff80d",
    "swapper()": "2b3297f9",
    "tokenIndex(address)": "427f91a6",
    "transferOwnership(address)": "f2fde38b"
  },
  "id": 21
}